{"abi":[{"type":"function","name":"buyerWithdraw","inputs":[],"outputs":[],"stateMutability":"nonpayable"},{"type":"function","name":"changeLotteryState","inputs":[{"name":"_newState","type":"uint8","internalType":"enum SaleBase.LotteryState"}],"outputs":[],"stateMutability":"nonpayable"},{"type":"function","name":"currentPrice","inputs":[],"outputs":[{"name":"","type":"uint256","internalType":"uint256"}],"stateMutability":"view"},{"type":"function","name":"deposit","inputs":[{"name":"amount","type":"uint256","internalType":"uint256"}],"outputs":[],"stateMutability":"nonpayable"},{"type":"function","name":"deposits","inputs":[{"name":"","type":"address","internalType":"address"}],"outputs":[{"name":"","type":"uint256","internalType":"uint256"}],"stateMutability":"view"},{"type":"function","name":"endLottery","inputs":[],"outputs":[],"stateMutability":"nonpayable"},{"type":"function","name":"fulfillRandomness","inputs":[{"name":"randomness","type":"uint256","internalType":"uint256"},{"name":"dataWithRound","type":"bytes","internalType":"bytes"}],"outputs":[],"stateMutability":"nonpayable"},{"type":"function","name":"getDepositedAmount","inputs":[{"name":"participant","type":"address","internalType":"address"}],"outputs":[{"name":"","type":"uint256","internalType":"uint256"}],"stateMutability":"view"},{"type":"function","name":"getParticipants","inputs":[],"outputs":[{"name":"","type":"address[]","internalType":"address[]"}],"stateMutability":"view"},{"type":"function","name":"getWinners","inputs":[],"outputs":[{"name":"","type":"address[]","internalType":"address[]"}],"stateMutability":"view"},{"type":"function","name":"hasMinted","inputs":[{"name":"","type":"address","internalType":"address"}],"outputs":[{"name":"","type":"bool","internalType":"bool"}],"stateMutability":"view"},{"type":"function","name":"increasePriceStep","inputs":[],"outputs":[{"name":"","type":"uint256","internalType":"uint256"}],"stateMutability":"view"},{"type":"function","name":"initialPrice","inputs":[],"outputs":[{"name":"","type":"uint256","internalType":"uint256"}],"stateMutability":"view"},{"type":"function","name":"initialize","inputs":[{"name":"config","type":"tuple","internalType":"struct StructsLibrary.IAuctionV1BaseConfig","components":[{"name":"_gelatoVrfOperator","type":"address","internalType":"address"},{"name":"_blessedOperator","type":"address","internalType":"address"},{"name":"_owner","type":"address","internalType":"address"},{"name":"_ticketAmount","type":"uint256","internalType":"uint256"},{"name":"_ticketPrice","type":"uint256","internalType":"uint256"},{"name":"_priceIncreaseStep","type":"uint256","internalType":"uint256"},{"name":"_usdcContractAddr","type":"address","internalType":"address"},{"name":"_nftContractAddr","type":"address","internalType":"address"},{"name":"_multisigWalletAddress","type":"address","internalType":"address"},{"name":"_prevPhaseContractAddr","type":"address","internalType":"address"}]}],"outputs":[],"stateMutability":"nonpayable"},{"type":"function","name":"initialized","inputs":[],"outputs":[{"name":"","type":"bool","internalType":"bool"}],"stateMutability":"view"},{"type":"function","name":"isTrustedForwarder","inputs":[{"name":"forwarder","type":"address","internalType":"address"}],"outputs":[{"name":"","type":"bool","internalType":"bool"}],"stateMutability":"view"},{"type":"function","name":"isWinner","inputs":[{"name":"_participant","type":"address","internalType":"address"}],"outputs":[{"name":"","type":"bool","internalType":"bool"}],"stateMutability":"view"},{"type":"function","name":"lotteryState","inputs":[],"outputs":[{"name":"","type":"uint8","internalType":"enum SaleBase.LotteryState"}],"stateMutability":"view"},{"type":"function","name":"lotteryV2Addr","inputs":[],"outputs":[{"name":"","type":"address","internalType":"address"}],"stateMutability":"view"},{"type":"function","name":"minimumDepositAmount","inputs":[],"outputs":[{"name":"","type":"uint256","internalType":"uint256"}],"stateMutability":"view"},{"type":"function","name":"mintMyNFT","inputs":[],"outputs":[],"stateMutability":"nonpayable"},{"type":"function","name":"multisigWalletAddress","inputs":[],"outputs":[{"name":"","type":"address","internalType":"address"}],"stateMutability":"view"},{"type":"function","name":"nftContractAddr","inputs":[],"outputs":[{"name":"","type":"address","internalType":"address"}],"stateMutability":"view"},{"type":"function","name":"numberOfTickets","inputs":[],"outputs":[{"name":"","type":"uint256","internalType":"uint256"}],"stateMutability":"view"},{"type":"function","name":"operatorAddr","inputs":[],"outputs":[{"name":"","type":"address","internalType":"address"}],"stateMutability":"view"},{"type":"function","name":"operators","inputs":[{"name":"","type":"address","internalType":"address"}],"outputs":[{"name":"","type":"bool","internalType":"bool"}],"stateMutability":"view"},{"type":"function","name":"owner","inputs":[],"outputs":[{"name":"","type":"address","internalType":"address"}],"stateMutability":"view"},{"type":"function","name":"prevRoundDeposits","inputs":[],"outputs":[{"name":"","type":"uint256","internalType":"uint256"}],"stateMutability":"view"},{"type":"function","name":"prevRoundTicketsAmount","inputs":[],"outputs":[{"name":"","type":"uint256","internalType":"uint256"}],"stateMutability":"view"},{"type":"function","name":"randomNumber","inputs":[],"outputs":[{"name":"","type":"uint256","internalType":"uint256"}],"stateMutability":"view"},{"type":"function","name":"renounceOwnership","inputs":[],"outputs":[],"stateMutability":"nonpayable"},{"type":"function","name":"requestPending","inputs":[{"name":"","type":"uint256","internalType":"uint256"}],"outputs":[{"name":"","type":"bool","internalType":"bool"}],"stateMutability":"view"},{"type":"function","name":"requestRandomness","inputs":[],"outputs":[],"stateMutability":"nonpayable"},{"type":"function","name":"requestedHash","inputs":[{"name":"","type":"uint256","internalType":"uint256"}],"outputs":[{"name":"","type":"bytes32","internalType":"bytes32"}],"stateMutability":"view"},{"type":"function","name":"roundCounter","inputs":[],"outputs":[{"name":"","type":"uint256","internalType":"uint256"}],"stateMutability":"view"},{"type":"function","name":"rounds","inputs":[{"name":"","type":"uint256","internalType":"uint256"}],"outputs":[{"name":"number","type":"uint256","internalType":"uint256"},{"name":"finishAt","type":"uint256","internalType":"uint256"},{"name":"numberOfTickets","type":"uint256","internalType":"uint256"},{"name":"lotteryStarted","type":"bool","internalType":"bool"},{"name":"winnersSelected","type":"bool","internalType":"bool"}],"stateMutability":"view"},{"type":"function","name":"selectWinners","inputs":[],"outputs":[],"stateMutability":"nonpayable"},{"type":"function","name":"seller","inputs":[],"outputs":[{"name":"","type":"address","internalType":"address"}],"stateMutability":"view"},{"type":"function","name":"sellerWithdraw","inputs":[],"outputs":[],"stateMutability":"nonpayable"},{"type":"function","name":"setOperator","inputs":[{"name":"_operatorAddr","type":"address","internalType":"address"},{"name":"_flag","type":"bool","internalType":"bool"}],"outputs":[],"stateMutability":"nonpayable"},{"type":"function","name":"setSeller","inputs":[{"name":"_seller","type":"address","internalType":"address"}],"outputs":[],"stateMutability":"nonpayable"},{"type":"function","name":"setupNewRound","inputs":[{"name":"_finishAt","type":"uint256","internalType":"uint256"},{"name":"_numberOfTickets","type":"uint256","internalType":"uint256"}],"outputs":[],"stateMutability":"nonpayable"},{"type":"function","name":"startLottery","inputs":[],"outputs":[],"stateMutability":"nonpayable"},{"type":"function","name":"totalNumberOfTickets","inputs":[],"outputs":[{"name":"","type":"uint256","internalType":"uint256"}],"stateMutability":"view"},{"type":"function","name":"transferDeposit","inputs":[{"name":"_participant","type":"address","internalType":"address"},{"name":"_amount","type":"uint256","internalType":"uint256"}],"outputs":[],"stateMutability":"nonpayable"},{"type":"function","name":"transferNonWinnerBids","inputs":[{"name":"destinationAddr","type":"address","internalType":"address"}],"outputs":[],"stateMutability":"nonpayable"},{"type":"function","name":"transferOwnership","inputs":[{"name":"newOwner","type":"address","internalType":"address"}],"outputs":[],"stateMutability":"nonpayable"},{"type":"function","name":"usdcContractAddr","inputs":[],"outputs":[{"name":"","type":"address","internalType":"address"}],"stateMutability":"view"},{"type":"function","name":"winnerAddresses","inputs":[{"name":"","type":"uint256","internalType":"uint256"}],"outputs":[{"name":"","type":"address","internalType":"address"}],"stateMutability":"view"},{"type":"function","name":"winners","inputs":[{"name":"","type":"address","internalType":"address"}],"outputs":[{"name":"","type":"bool","internalType":"bool"}],"stateMutability":"view"},{"type":"event","name":"BuyerDeposited","inputs":[{"name":"buyer","type":"address","indexed":true,"internalType":"address"},{"name":"amount","type":"uint256","indexed":true,"internalType":"uint256"}],"anonymous":false},{"type":"event","name":"BuyerWithdrew","inputs":[{"name":"buyer","type":"address","indexed":true,"internalType":"address"},{"name":"amount","type":"uint256","indexed":true,"internalType":"uint256"}],"anonymous":false},{"type":"event","name":"LotteryEnded","inputs":[],"anonymous":false},{"type":"event","name":"LotteryStarted","inputs":[],"anonymous":false},{"type":"event","name":"OwnershipTransferred","inputs":[{"name":"previousOwner","type":"address","indexed":true,"internalType":"address"},{"name":"newOwner","type":"address","indexed":true,"internalType":"address"}],"anonymous":false},{"type":"event","name":"RandomFulfilled","inputs":[{"name":"number","type":"uint256","indexed":false,"internalType":"uint256"}],"anonymous":false},{"type":"event","name":"RandomRequested","inputs":[{"name":"requester","type":"address","indexed":true,"internalType":"address"}],"anonymous":false},{"type":"event","name":"RequestedRandomness","inputs":[{"name":"round","type":"uint256","indexed":false,"internalType":"uint256"},{"name":"data","type":"bytes","indexed":false,"internalType":"bytes"}],"anonymous":false},{"type":"event","name":"RoundSet","inputs":[{"name":"roundNumber","type":"uint256","indexed":true,"internalType":"uint256"},{"name":"finishAt","type":"uint256","indexed":false,"internalType":"uint256"},{"name":"numberOfTickets","type":"uint256","indexed":false,"internalType":"uint256"}],"anonymous":false},{"type":"event","name":"WinnerSelected","inputs":[{"name":"winner","type":"address","indexed":true,"internalType":"address"}],"anonymous":false},{"type":"error","name":"OwnableInvalidOwner","inputs":[{"name":"owner","type":"address","internalType":"address"}]},{"type":"error","name":"OwnableUnauthorizedAccount","inputs":[{"name":"account","type":"address","internalType":"address"}]}],"bytecode":{"object":"0x60a06040526000805460ff60a81b191690556001600f8190556015819055601655600560175534801561003157600080fd5b5073d8253782c45a12053594b9deb72d8e8ab2fca54c338061006d57604051631e4fbdf760e01b81526000600482015260240160405180910390fd5b61007681610088565b506001600160a01b03166080526100d8565b600080546001600160a01b038381166001600160a01b0319831681178455604051919092169283917f8be0079c531659141344cd1fd0a4f28419497f9722a3daafe3b4186f6b6457e09190a35050565b608051612dd46100fa6000396000818161045301526126aa0152612dd46000f3fe608060405234801561001057600080fd5b50600436106102d55760003560e01c8063715018a611610182578063b3f6b99a116100e9578063e9081ec7116100a2578063f3f18c371161007c578063f3f18c37146106d1578063f8413b07146106e4578063fc7e286d146106ec578063febc14b11461070c57600080fd5b8063e9081ec714610682578063e99d2866146106ab578063f2fde38b146106be57600080fd5b8063b3f6b99a14610622578063b680e44b14610635578063b6b55f251461063e578063c4f8f27b14610651578063ccbac9f514610671578063df15c37e1461067a57600080fd5b806396efac7b1161013b57806396efac7b146105ab57806399dbf4b5146105b45780639d1b464a146105c75780639d9ca28d146105d0578063a4f03c02146105fc578063a61fb2ba1461060f57600080fd5b8063715018a6146104f757806375ce7fff146104ff5780637cc947d0146105125780637de133821461051a5780638c65c81f1461052d5780638da5cb5b1461059a57600080fd5b8063261704801161024157806356d7c73a116101fa57806366af746b116101d457806366af746b14610498578063683e93e1146104a05780636939864b146104b35780636bd5450a146104d457600080fd5b806356d7c73a14610430578063572b6c05146104435780635aa68ac01461048357600080fd5b806326170480146103c35780632c23ec8e146103cb57806338e21cce146103de57806345745c101461040157806350f3dbec1461040a578063558a72971461041d57600080fd5b80631593a8c7116102935780631593a8c714610384578063160344e21461038e5780631630a8df146103965780631a0de74c146103a95780631d0806ae146103b1578063224f91bd146103ba57600080fd5b8062746702146102da578063045f9c97146102f6578063080c279a1461032157806308551a531461032a57806313e7c9d81461033d578063158ef93e14610370575b600080fd5b6102e360185481565b6040519081526020015b60405180910390f35b610309610304366004612773565b610715565b6040516001600160a01b0390911681526020016102ed565b6102e360025481565b600154610309906001600160a01b031681565b61036061034b3660046127a8565b60106020526000908152604090205460ff1681565b60405190151581526020016102ed565b60005461036090600160a81b900460ff1681565b61038c61073f565b005b61038c6107b7565b61038c6103a43660046127a8565b610892565b61038c610b2f565b6102e360145481565b6102e360165481565b61038c610fbe565b600954610309906001600160a01b031681565b6103606103ec3660046127a8565b60046020526000908152604090205460ff1681565b6102e360035481565b61038c6104183660046127ca565b611219565b61038c61042b366004612802565b611359565b61038c61043e3660046128aa565b61138c565b6103606104513660046127a8565b7f00000000000000000000000000000000000000000000000000000000000000006001600160a01b0390811691161490565b61048b6114c0565b6040516102ed919061295d565b61038c611522565b61038c6104ae3660046129aa565b611759565b6000546104c790600160a01b900460ff1681565b6040516102ed91906129e1565b6103606104e23660046127a8565b60066020526000908152604090205460ff1681565b61038c6117c0565b61036061050d366004612773565b6117d4565b61038c611808565b601154610309906001600160a01b031681565b61056e61053b366004612773565b600e6020526000908152604090208054600182015460028301546003909301549192909160ff8082169161010090041685565b60408051958652602086019490945292840191909152151560608301521515608082015260a0016102ed565b6000546001600160a01b0316610309565b6102e360175481565b600a54610309906001600160a01b031681565b6102e360135481565b6103606105de3660046127a8565b6001600160a01b031660009081526006602052604090205460ff1690565b61038c61060a366004612a09565b611a4c565b600b54610309906001600160a01b031681565b61038c610630366004612a2b565b611d35565b6102e360155481565b61038c61064c366004612773565b611f0f565b6102e361065f366004612773565b600d6020526000908152604090205481565b6102e360195481565b61048b612278565b6102e36106903660046127a8565b6001600160a01b031660009081526005602052604090205490565b61038c6106b93660046127a8565b6122d8565b61038c6106cc3660046127a8565b612334565b601254610309906001600160a01b031681565b61038c61236f565b6102e36106fa3660046127a8565b60056020526000908152604090205481565b6102e3600f5481565b6007818154811061072557600080fd5b6000918252602090912001546001600160a01b0316905081565b6001546001600160a01b031661075361241d565b6001600160a01b0316146107825760405162461bcd60e51b815260040161077990612aa7565b60405180910390fd5b61078c6002611759565b6040517f9c89a6ed7228533196a3f962acc80d61a9c53bdea6b910741bf754f5aaa7569e90600090a1565b6001546001600160a01b03166107cb61241d565b6001600160a01b0316146107f15760405162461bcd60e51b815260040161077990612aa7565b60008054600160a01b900460ff166002811115610810576108106129cb565b1461085d5760405162461bcd60e51b815260206004820152601760248201527f53616c6520697320696e206163746976652073746174650000000000000000006044820152606401610779565b6108676001611759565b6040517fd029c7c68d943f92286a7825fa6aa2deefa1eee46cee6c91b7e483fd06d27baf90600090a1565b6001546001600160a01b03166108a661241d565b6001600160a01b0316146108cc5760405162461bcd60e51b815260040161077990612aa7565b60005b600854811015610b2b57600060056000600884815481106108f2576108f2612ae9565b60009182526020808320909101546001600160a01b03168352820192909252604001812054600880549193506005918391908690811061093457610934612ae9565b6000918252602080832091909101546001600160a01b039081168452908301939093526040918201902092909255600a54915163a9059cbb60e01b815285821660048201526024810184905291169063a9059cbb906044016020604051808303816000875af11580156109ab573d6000803e3d6000fd5b505050506040513d601f19601f820116820180604052508101906109cf9190612aff565b50826001600160a01b03166350f3dbec600884815481106109f2576109f2612ae9565b60009182526020909120015460405160e083901b6001600160e01b03191681526001600160a01b03909116600482015260248101849052604401600060405180830381600087803b158015610a4657600080fd5b505af1158015610a5a573d6000803e3d6000fd5b5050600854610a6d925060019150612b32565b821015610aef5760088054610a8490600190612b32565b81548110610a9457610a94612ae9565b600091825260209091200154600880546001600160a01b039092169184908110610ac057610ac0612ae9565b9060005260206000200160006101000a8154816001600160a01b0302191690836001600160a01b031602179055505b6008805480610b0057610b00612b4b565b600082815260209020810160001990810180546001600160a01b0319169055019055506001016108cf565b5050565b6001546001600160a01b0316610b4361241d565b6001600160a01b031614610b695760405162461bcd60e51b815260040161077990612aa7565b600060035411610bbb5760405162461bcd60e51b815260206004820152601b60248201527f4e6f207469636b657473206c65667420746f20616c6c6f6361746500000000006044820152606401610779565b6000805460ff60a01b1916600160a01b1790556008546003548111610c955760005b81811015610c7e57600060088281548110610bfa57610bfa612ae9565b6000918252602090912001546001600160a01b03169050610c33816001600160a01b031660009081526006602052604090205460ff1690565b610c7557610c408161242c565b6040516001600160a01b038216907f1d4c260f1824cd028e6c9e6e31c3a0b94f2513e7a641113ec759d382f9bdd5a190600090a25b50600101610bdd565b50610c8b60086000612741565b6000600355610f2b565b60005b81811015610da9576000610cac8284612b32565b601954610cb99190612b77565b610cc39083612b8b565b9050600060088281548110610cda57610cda612ae9565b600091825260209091200154600880546001600160a01b0390921692509084908110610d0857610d08612ae9565b600091825260209091200154600880546001600160a01b039092169184908110610d3457610d34612ae9565b9060005260206000200160006101000a8154816001600160a01b0302191690836001600160a01b031602179055508060088481548110610d7657610d76612ae9565b600091825260209091200180546001600160a01b0319166001600160a01b03929092169190911790555050600101610c98565b5060005b600354811015610e5057600060088281548110610dcc57610dcc612ae9565b6000918252602090912001546001600160a01b03169050610e05816001600160a01b031660009081526006602052604090205460ff1690565b610e4757610e128161242c565b6040516001600160a01b038216907f1d4c260f1824cd028e6c9e6e31c3a0b94f2513e7a641113ec759d382f9bdd5a190600090a25b50600101610dad565b506003546000905b82811015610edd5760088181548110610e7357610e73612ae9565b600091825260209091200154600880546001600160a01b039092169184908110610e9f57610e9f612ae9565b600091825260209091200180546001600160a01b0319166001600160a01b039290921691909117905581610ed281612b9e565b925050600101610e58565b50805b82811015610f23576008805480610ef957610ef9612b4b565b600082815260209020810160001990810180546001600160a01b0319169055019055600101610ee0565b505060006003555b6001600e60006001600f54610f409190612b32565b81526020810191909152604001600090812060030180549215156101000261ff001990931692909217909155805460ff60a01b191681556018549003610fbb576000805460ff60a01b1916600160a11b1781556040517f9c89a6ed7228533196a3f962acc80d61a9c53bdea6b910741bf754f5aaa7569e9190a15b50565b610fc96105de61241d565b61100e5760405162461bcd60e51b815260206004820152601660248201527521b0b63632b91034b9903737ba1030903bb4b73732b960511b6044820152606401610779565b6004600061101a61241d565b6001600160a01b0316815260208101919091526040016000205460ff16156110795760405162461bcd60e51b815260206004820152601260248201527113919508185b1c9958591e481b5a5b9d195960721b6044820152606401610779565b60016004600061108761241d565b6001600160a01b0316815260208101919091526040016000908120805460ff1916921515929092179091556013546005826110c061241d565b6001600160a01b03166001600160a01b03168152602001908152602001600020546110eb9190612b32565b9050801561117f57600a546001600160a01b031663a9059cbb61110c61241d565b6040516001600160e01b031960e084901b1681526001600160a01b039091166004820152602481018490526044016020604051808303816000875af1158015611159573d6000803e3d6000fd5b505050506040513d601f19601f8201168201806040525081019061117d9190612aff565b505b60006005600061118d61241d565b6001600160a01b03908116825260208201929092526040016000209190915560095416636b8f60f66111bd61241d565b6040516001600160e01b031960e084901b1681526001600160a01b039091166004820152602401600060405180830381600087803b1580156111fe57600080fd5b505af1158015611212573d6000803e3d6000fd5b5050505050565b61122161241d565b6011546001600160a01b0390811691161461128e5760405162461bcd60e51b815260206004820152602760248201527f4f6e6c792077686974656c6973746564206d61792063616c6c207468697320666044820152663ab731ba34b7b760c91b6064820152608401610779565b6005600061129a61241d565b6001600160a01b03166001600160a01b031681526020019081526020016000205460000361130e57600880546001810182556000919091527ff3f7a9fe364faab93b216da50a3214154f22a0a2b415b23a84c8169e8b636ee30180546001600160a01b0319166001600160a01b0384161790555b6001600160a01b03821660009081526005602052604081208054839290611336908490612b8b565b925050819055506001601560008282546113509190612b8b565b90915550505050565b6113616124b8565b6001600160a01b03919091166000908152601060205260409020805460ff1916911515919091179055565b600054600160a81b900460ff16156113dc5760405162461bcd60e51b8152602060048201526013602482015272105b1c9958591e481a5b9a5d1a585b1a5e9959606a1b6044820152606401610779565b6020810151600180546001600160a01b039283166001600160a01b031991821617909155825160128054919093169116179055604081015161141d90612516565b60608101516018556080810151600381905560168190556002819055601381905560145560a081015160175560c0810151600a80546001600160a01b03199081166001600160a01b039384161790915560e0830151600980548316918416919091179055610100830151600b805483169184169190911790556101209092015160118054909316911617905560008054600160a81b60ff60a81b19909116179055565b6060600880548060200260200160405190810160405280929190818152602001828054801561151857602002820191906000526020600020905b81546001600160a01b031681526001909101906020018083116114fa575b5050505050905090565b6001546001600160a01b031661153661241d565b6001600160a01b03161461155c5760405162461bcd60e51b815260040161077990612aa7565b6002600054600160a01b900460ff16600281111561157c5761157c6129cb565b146115bd5760405162461bcd60e51b8152602060048201526011602482015270131bdd1d195c9e481b9bdd08195b991959607a1b6044820152606401610779565b6000805b600754811015611636576000600782815481106115e0576115e0612ae9565b60009182526020808320909101546001600160a01b031680835260059091526040909120549091506116129084612b8b565b6001600160a01b0390911660009081526005602052604081205591506001016115c1565b5060006064611646836005612bb7565b6116509190612bce565b9050600061165e8284612b32565b600a54600b5460405163a9059cbb60e01b81526001600160a01b03918216600482015260248101869052929350169063a9059cbb906044016020604051808303816000875af11580156116b5573d6000803e3d6000fd5b505050506040513d601f19601f820116820180604052508101906116d99190612aff565b50600a5460015460405163a9059cbb60e01b81526001600160a01b0391821660048201526024810184905291169063a9059cbb906044016020604051808303816000875af115801561172f573d6000803e3d6000fd5b505050506040513d601f19601f820116820180604052508101906117539190612aff565b50505050565b6001546001600160a01b031661176d61241d565b6001600160a01b0316146117935760405162461bcd60e51b815260040161077990612aa7565b6000805482919060ff60a01b1916600160a01b8360028111156117b8576117b86129cb565b021790555050565b6117c86124b8565b6117d26000612516565b565b600c81815481106117e457600080fd5b9060005260206000209060209182820401919006915054906101000a900460ff1681565b6002600054600160a01b900460ff166002811115611828576118286129cb565b1461186d5760405162461bcd60e51b815260206004820152601560248201527414d85b19481a5cc81b9bdd08195b991959081e595d605a1b6044820152606401610779565b6006600061187961241d565b6001600160a01b0316815260208101919091526040016000205460ff16156118e35760405162461bcd60e51b815260206004820152601760248201527f57696e6e6572732063616e6e6f742077697468647261770000000000000000006044820152606401610779565b6000600560006118f161241d565b6001600160a01b03166001600160a01b031681526020019081526020016000205490506000811161195b5760405162461bcd60e51b81526020600482015260146024820152734e6f2066756e647320746f20776974686472617760601b6044820152606401610779565b60006005600061196961241d565b6001600160a01b039081168252602082019290925260400160002091909155600a541663a9059cbb61199961241d565b6040516001600160e01b031960e084901b1681526001600160a01b039091166004820152602481018490526044016020604051808303816000875af11580156119e6573d6000803e3d6000fd5b505050506040513d601f19601f82011682018060405250810190611a0a9190612aff565b5080611a1461241d565b6001600160a01b03167f1f280cd00e67ed50213ac03febd5be151f96b7f7db2f85312aa0feff99f8bdab60405160405180910390a350565b6001546001600160a01b0316611a6061241d565b6001600160a01b03161480611a8f57506000546001600160a01b0316611a8461241d565b6001600160a01b0316145b80611abf575060106000611aa161241d565b6001600160a01b0316815260208101919091526040016000205460ff165b611b175760405162461bcd60e51b8152602060048201526024808201527f4f6e6c79206f70657261746f722063616e2063616c6c20746869732066756e636044820152633a34b7b760e11b6064820152608401610779565b601854811115611ba45760405162461bcd60e51b815260206004820152604c60248201527f5469636b6574732070657220726f756e642063616e6e6f74206265206869676860448201527f6572207468616e20746f74616c206e756d626572206f66207469636b6574732060648201526b696e2041756374696f6e563160a01b608482015260a401610779565b600060185460155410611be257601654601554611bc19190612bce565b601754611bce9190612bb7565b601354611bdb9190612b8b565b9050611c35565b6000601654601554611bf49190612bce565b611bff906001612b32565b601754611c0c9190612bb7565b9050806013541115611c2d5780601354611c269190612b32565b9150611c33565b60145491505b505b6013819055600060158190556003839055601683905560188054849290611c5d908490612b32565b90915550506040805160a081018252600f80548083526020808401888152848601888152600160608701818152600060808901818152968152600e8652899020975188559251908701555160028601555160039094018054925115156101000261ff00199515159590951661ffff1990931692909217939093179055548251868152918201859052917fa809180f68c3ea85ec47001279a9070abd80a3022aa303b0fd92eb0e7538d42b910160405180910390a2611d1b6001611759565b600f8054906000611d2b83612b9e565b9190505550505050565b6012546001600160a01b03163314611d7f5760405162461bcd60e51b815260206004820152600d60248201526c37b7363c9037b832b930ba37b960991b6044820152606401610779565b6000611d8d82840184612c0a565b91505060008082806020019051810190611da79190612cb8565b9150915060008585604051611dbd929190612d3b565b604051809103902090506000600d60008581526020019081526020016000205482149050600c8481548110611df457611df4612ae9565b90600052602060002090602091828204019190069054906101000a900460ff16611e605760405162461bcd60e51b815260206004820152601c60248201527f726571756573742066756c66696c6c6564206f72206d697373696e67000000006044820152606401610779565b8015611f055760408051602081018a905230918101919091524660608201526080810185905260a0016040516020818303038152906040528051906020012060001c9750611eaf888585612566565b6000600c8581548110611ec457611ec4612ae9565b90600052602060002090602091828204019190066101000a81548160ff021916908315150217905550600d6000858152602001908152602001600020600090555b5050505050505050565b611f1a6105de61241d565b15611f605760405162461bcd60e51b815260206004820152601660248201527515da5b9b995c9cc818d85b9b9bdd0819195c1bdcda5d60521b6044820152606401610779565b600a546001600160a01b0316611fb85760405162461bcd60e51b815260206004820152601d60248201527f5553444320636f6e74726163742061646472657373206e6f74207365740000006044820152606401610779565b6002548110156120025760405162461bcd60e51b8152602060048201526015602482015274139bdd08195b9bdd59da08199d5b991cc81cd95b9d605a1b6044820152606401610779565b600a5481906001600160a01b031663dd62ed3e61201d61241d565b6040516001600160e01b031960e084901b1681526001600160a01b039091166004820152306024820152604401602060405180830381865afa158015612067573d6000803e3d6000fd5b505050506040513d601f19601f8201168201806040525081019061208b9190612d4b565b10156120d25760405162461bcd60e51b8152602060048201526016602482015275496e73756666696369656e7420616c6c6f77616e636560501b6044820152606401610779565b600a546001600160a01b03166323b872dd6120eb61241d565b6040516001600160e01b031960e084901b1681526001600160a01b039091166004820152306024820152604481018490526064016020604051808303816000875af115801561213e573d6000803e3d6000fd5b505050506040513d601f19601f820116820180604052508101906121629190612aff565b506005600061216f61241d565b6001600160a01b03166001600160a01b03168152602001908152602001600020546000036121d45760086121a161241d565b81546001810183556000928352602090922090910180546001600160a01b0319166001600160a01b039092169190911790555b80600560006121e161241d565b6001600160a01b03166001600160a01b0316815260200190815260200160002060008282546122109190612b8b565b90915550506013548110612237576001601560008282546122319190612b8b565b90915550505b8061224061241d565b6001600160a01b03167f21040858e63c11c046482f61f290bbe25972fc74b11b4570a01f9241082d21f160405160405180910390a350565b60606007805480602002602001604051908101604052809291908181526020018280548015611518576020028201919060005260206000209081546001600160a01b031681526001909101906020018083116114fa575050505050905090565b6001546001600160a01b03166122ec61241d565b6001600160a01b0316146123125760405162461bcd60e51b815260040161077990612aa7565b600180546001600160a01b0319166001600160a01b0392909216919091179055565b61233c6124b8565b6001600160a01b03811661236657604051631e4fbdf760e01b815260006004820152602401610779565b610fbb81612516565b6001546001600160a01b031661238361241d565b6001600160a01b0316146123a95760405162461bcd60e51b815260040161077990612aa7565b6123dd6123b461241d565b604080516001600160a01b039092166020830152016040516020818303038152906040526125a3565b506123e661241d565b6001600160a01b03167fd802e7c7f1646e3318c03abed1e468bdf913f45331a68dc912a0d645eb646a4260405160405180910390a2565b60006124276126a6565b905090565b6001600160a01b038116600081815260066020526040808220805460ff1916600190811790915560078054918201815583527fa66cc928b5edb82af9bd49922954155ab7b0942694bea4ce44661d9a8736c6880180546001600160a01b03191684179055517f1d4c260f1824cd028e6c9e6e31c3a0b94f2513e7a641113ec759d382f9bdd5a19190a250565b6124c061241d565b6001600160a01b03166124db6000546001600160a01b031690565b6001600160a01b0316146117d2576124f161241d565b60405163118cdaa760e01b81526001600160a01b039091166004820152602401610779565b600080546001600160a01b038381166001600160a01b0319831681178455604051919092169283917f8be0079c531659141344cd1fd0a4f28419497f9722a3daafe3b4186f6b6457e09190a35050565b60198390556040518381527f79518eb4b6f70742e6651b03a2ac2bc644ea2613e8de56247857c5be5fc2a0ba9060200160405180910390a1505050565b600c80546001808201808455600084905291929091839081106125c8576125c8612ae9565b90600052602060002090602091828204019190066101000a81548160ff02191690831515021790555060008183604051602001612606929190612d64565b604051602081830303815290604052905060006126216126ea565b905060008183604051602001612638929190612d64565b60408051601f1981840301815282825280516020808301919091206000898152600d9092529290208290559250907fd91fc3685b930310b008ec37d2334870cab88a023ed8cc628a2e2ccd4e55d202906126959085908790612d64565b60405180910390a150505050919050565b60007f00000000000000000000000000000000000000000000000000000000000000006001600160a01b031633036126e5575060131936013560601c90565b503390565b6000806126fb6364e6212742612b32565b9050600061270a600383612bce565b612715906001612b8b565b90504660011461272f5761272a816001612b8b565b61273a565b61273a816004612b8b565b9250505090565b5080546000825590600052602060002090810190610fbb91905b8082111561276f576000815560010161275b565b5090565b60006020828403121561278557600080fd5b5035919050565b80356001600160a01b03811681146127a357600080fd5b919050565b6000602082840312156127ba57600080fd5b6127c38261278c565b9392505050565b600080604083850312156127dd57600080fd5b6127e68361278c565b946020939093013593505050565b8015158114610fbb57600080fd5b6000806040838503121561281557600080fd5b61281e8361278c565b9150602083013561282e816127f4565b809150509250929050565b634e487b7160e01b600052604160045260246000fd5b604051610140810167ffffffffffffffff8111828210171561287357612873612839565b60405290565b604051601f8201601f1916810167ffffffffffffffff811182821017156128a2576128a2612839565b604052919050565b600061014082840312156128bd57600080fd5b6128c561284f565b6128ce8361278c565b81526128dc6020840161278c565b60208201526128ed6040840161278c565b6040820152606083013560608201526080830135608082015260a083013560a082015261291c60c0840161278c565b60c082015261292d60e0840161278c565b60e082015261010061294081850161278c565b9082015261012061295284820161278c565b908201529392505050565b6020808252825182820181905260009190848201906040850190845b8181101561299e5783516001600160a01b031683529284019291840191600101612979565b50909695505050505050565b6000602082840312156129bc57600080fd5b8135600381106127c357600080fd5b634e487b7160e01b600052602160045260246000fd5b6020810160038310612a0357634e487b7160e01b600052602160045260246000fd5b91905290565b60008060408385031215612a1c57600080fd5b50508035926020909101359150565b600080600060408486031215612a4057600080fd5b83359250602084013567ffffffffffffffff80821115612a5f57600080fd5b818601915086601f830112612a7357600080fd5b813581811115612a8257600080fd5b876020828501011115612a9457600080fd5b6020830194508093505050509250925092565b60208082526022908201527f4f6e6c792073656c6c65722063616e2063616c6c20746869732066756e63746960408201526137b760f11b606082015260800190565b634e487b7160e01b600052603260045260246000fd5b600060208284031215612b1157600080fd5b81516127c3816127f4565b634e487b7160e01b600052601160045260246000fd5b81810381811115612b4557612b45612b1c565b92915050565b634e487b7160e01b600052603160045260246000fd5b634e487b7160e01b600052601260045260246000fd5b600082612b8657612b86612b61565b500690565b80820180821115612b4557612b45612b1c565b600060018201612bb057612bb0612b1c565b5060010190565b8082028115828204841417612b4557612b45612b1c565b600082612bdd57612bdd612b61565b500490565b600067ffffffffffffffff821115612bfc57612bfc612839565b50601f01601f191660200190565b60008060408385031215612c1d57600080fd5b82359150602083013567ffffffffffffffff811115612c3b57600080fd5b8301601f81018513612c4c57600080fd5b8035612c5f612c5a82612be2565b612879565b818152866020838501011115612c7457600080fd5b816020840160208301376000602083830101528093505050509250929050565b60005b83811015612caf578181015183820152602001612c97565b50506000910152565b60008060408385031215612ccb57600080fd5b82519150602083015167ffffffffffffffff811115612ce957600080fd5b8301601f81018513612cfa57600080fd5b8051612d08612c5a82612be2565b818152866020838501011115612d1d57600080fd5b612d2e826020830160208601612c94565b8093505050509250929050565b8183823760009101908152919050565b600060208284031215612d5d57600080fd5b5051919050565b8281526040602082015260008251806040840152612d89816060850160208701612c94565b601f01601f191691909101606001939250505056fea264697066735822122043f9ef5feb68966eb8357688c9a83f2877fef96c02bc6d5a8d95c44d1d9e009964736f6c63430008190033","linkReferences":{}},"methodIdentifiers":{"buyerWithdraw()":"7cc947d0","changeLotteryState(uint8)":"683e93e1","currentPrice()":"9d1b464a","deposit(uint256)":"b6b55f25","deposits(address)":"fc7e286d","endLottery()":"1593a8c7","fulfillRandomness(uint256,bytes)":"b3f6b99a","getDepositedAmount(address)":"e9081ec7","getParticipants()":"5aa68ac0","getWinners()":"df15c37e","hasMinted(address)":"38e21cce","increasePriceStep()":"96efac7b","initialPrice()":"1d0806ae","initialize((address,address,address,uint256,uint256,uint256,address,address,address,address))":"56d7c73a","initialized()":"158ef93e","isTrustedForwarder(address)":"572b6c05","isWinner(address)":"9d9ca28d","lotteryState()":"6939864b","lotteryV2Addr()":"7de13382","minimumDepositAmount()":"080c279a","mintMyNFT()":"26170480","multisigWalletAddress()":"a61fb2ba","nftContractAddr()":"2c23ec8e","numberOfTickets()":"45745c10","operatorAddr()":"f3f18c37","operators(address)":"13e7c9d8","owner()":"8da5cb5b","prevRoundDeposits()":"b680e44b","prevRoundTicketsAmount()":"224f91bd","randomNumber()":"ccbac9f5","renounceOwnership()":"715018a6","requestPending(uint256)":"75ce7fff","requestRandomness()":"f8413b07","requestedHash(uint256)":"c4f8f27b","roundCounter()":"febc14b1","rounds(uint256)":"8c65c81f","selectWinners()":"1a0de74c","seller()":"08551a53","sellerWithdraw()":"66af746b","setOperator(address,bool)":"558a7297","setSeller(address)":"e99d2866","setupNewRound(uint256,uint256)":"a4f03c02","startLottery()":"160344e2","totalNumberOfTickets()":"00746702","transferDeposit(address,uint256)":"50f3dbec","transferNonWinnerBids(address)":"1630a8df","transferOwnership(address)":"f2fde38b","usdcContractAddr()":"99dbf4b5","winnerAddresses(uint256)":"045f9c97","winners(address)":"6bd5450a"},"id":49}