{
  "abi": [
    {
      "type": "function",
      "name": "auctionV1Addr",
      "inputs": [],
      "outputs": [
        {
          "name": "",
          "type": "address",
          "internalType": "address"
        }
      ],
      "stateMutability": "view"
    },
    {
      "type": "function",
      "name": "buyerWithdraw",
      "inputs": [],
      "outputs": [],
      "stateMutability": "nonpayable"
    },
    {
      "type": "function",
      "name": "changeLotteryState",
      "inputs": [
        {
          "name": "_newState",
          "type": "uint8",
          "internalType": "enum AuctionV2Base.LotteryState"
        }
      ],
      "outputs": [],
      "stateMutability": "nonpayable"
    },
    {
      "type": "function",
      "name": "deposit",
      "inputs": [
        {
          "name": "amount",
          "type": "uint256",
          "internalType": "uint256"
        }
      ],
      "outputs": [],
      "stateMutability": "payable"
    },
    {
      "type": "function",
      "name": "deposits",
      "inputs": [
        {
          "name": "",
          "type": "address",
          "internalType": "address"
        }
      ],
      "outputs": [
        {
          "name": "amount",
          "type": "uint256",
          "internalType": "uint256"
        },
        {
          "name": "timestamp",
          "type": "uint256",
          "internalType": "uint256"
        },
        {
          "name": "isWinner",
          "type": "bool",
          "internalType": "bool"
        }
      ],
      "stateMutability": "view"
    },
    {
      "type": "function",
      "name": "endLottery",
      "inputs": [],
      "outputs": [],
      "stateMutability": "nonpayable"
    },
    {
      "type": "function",
      "name": "finishAt",
      "inputs": [],
      "outputs": [
        {
          "name": "",
          "type": "uint256",
          "internalType": "uint256"
        }
      ],
      "stateMutability": "view"
    },
    {
      "type": "function",
      "name": "getDepositedAmount",
      "inputs": [
        {
          "name": "participant",
          "type": "address",
          "internalType": "address"
        }
      ],
      "outputs": [
        {
          "name": "",
          "type": "uint256",
          "internalType": "uint256"
        }
      ],
      "stateMutability": "view"
    },
    {
      "type": "function",
      "name": "getParticipants",
      "inputs": [],
      "outputs": [
        {
          "name": "",
          "type": "address[]",
          "internalType": "address[]"
        }
      ],
      "stateMutability": "view"
    },
    {
      "type": "function",
      "name": "getWinners",
      "inputs": [],
      "outputs": [
        {
          "name": "",
          "type": "address[]",
          "internalType": "address[]"
        }
      ],
      "stateMutability": "view"
    },
    {
      "type": "function",
      "name": "hasMinted",
      "inputs": [
        {
          "name": "",
          "type": "address",
          "internalType": "address"
        }
      ],
      "outputs": [
        {
          "name": "",
          "type": "bool",
          "internalType": "bool"
        }
      ],
      "stateMutability": "view"
    },
    {
      "type": "function",
      "name": "initialPrice",
      "inputs": [],
      "outputs": [
        {
          "name": "",
          "type": "uint256",
          "internalType": "uint256"
        }
      ],
      "stateMutability": "view"
    },
    {
      "type": "function",
      "name": "initialize",
      "inputs": [
        {
          "name": "config",
          "type": "tuple",
          "internalType": "struct StructsLibrary.IAuctionBaseConfig",
          "components": [
            {
              "name": "_seller",
              "type": "address",
              "internalType": "address"
            },
            {
              "name": "_owner",
              "type": "address",
              "internalType": "address"
            },
            {
              "name": "_ticketAmount",
              "type": "uint256",
              "internalType": "uint256"
            },
            {
              "name": "_ticketPrice",
              "type": "uint256",
              "internalType": "uint256"
            },
            {
              "name": "_finishAt",
              "type": "uint256",
              "internalType": "uint256"
            },
            {
              "name": "_auctionV1Clone",
              "type": "address",
              "internalType": "address"
            },
            {
              "name": "_usdcContractAddr",
              "type": "address",
              "internalType": "address"
            },
            {
              "name": "_multisigWalletAddress",
              "type": "address",
              "internalType": "address"
            }
          ]
        }
      ],
      "outputs": [],
      "stateMutability": "nonpayable"
    },
    {
      "type": "function",
      "name": "initialized",
      "inputs": [],
      "outputs": [
        {
          "name": "",
          "type": "bool",
          "internalType": "bool"
        }
      ],
      "stateMutability": "view"
    },
    {
      "type": "function",
      "name": "isParticipant",
      "inputs": [
        {
          "name": "_participant",
          "type": "address",
          "internalType": "address"
        }
      ],
      "outputs": [
        {
          "name": "",
          "type": "bool",
          "internalType": "bool"
        }
      ],
      "stateMutability": "view"
    },
    {
      "type": "function",
      "name": "isTrustedForwarder",
      "inputs": [
        {
          "name": "forwarder",
          "type": "address",
          "internalType": "address"
        }
      ],
      "outputs": [
        {
          "name": "",
          "type": "bool",
          "internalType": "bool"
        }
      ],
      "stateMutability": "view"
    },
    {
      "type": "function",
      "name": "isWinner",
      "inputs": [
        {
          "name": "_participant",
          "type": "address",
          "internalType": "address"
        }
      ],
      "outputs": [
        {
          "name": "",
          "type": "bool",
          "internalType": "bool"
        }
      ],
      "stateMutability": "view"
    },
    {
      "type": "function",
      "name": "lotteryState",
      "inputs": [],
      "outputs": [
        {
          "name": "",
          "type": "uint8",
          "internalType": "enum AuctionV2Base.LotteryState"
        }
      ],
      "stateMutability": "view"
    },
    {
      "type": "function",
      "name": "minimumDepositAmount",
      "inputs": [],
      "outputs": [
        {
          "name": "",
          "type": "uint256",
          "internalType": "uint256"
        }
      ],
      "stateMutability": "view"
    },
    {
      "type": "function",
      "name": "mintMyNFT",
      "inputs": [],
      "outputs": [],
      "stateMutability": "nonpayable"
    },
    {
      "type": "function",
      "name": "multisigWalletAddress",
      "inputs": [],
      "outputs": [
        {
          "name": "",
          "type": "address",
          "internalType": "address"
        }
      ],
      "stateMutability": "view"
    },
    {
      "type": "function",
      "name": "nftContractAddr",
      "inputs": [],
      "outputs": [
        {
          "name": "",
          "type": "address",
          "internalType": "address"
        }
      ],
      "stateMutability": "view"
    },
    {
      "type": "function",
      "name": "numberOfTickets",
      "inputs": [],
      "outputs": [
        {
          "name": "",
          "type": "uint256",
          "internalType": "uint256"
        }
      ],
      "stateMutability": "view"
    },
    {
      "type": "function",
      "name": "operators",
      "inputs": [
        {
          "name": "",
          "type": "address",
          "internalType": "address"
        }
      ],
      "outputs": [
        {
          "name": "",
          "type": "bool",
          "internalType": "bool"
        }
      ],
      "stateMutability": "view"
    },
    {
      "type": "function",
      "name": "owner",
      "inputs": [],
      "outputs": [
        {
          "name": "",
          "type": "address",
          "internalType": "address"
        }
      ],
      "stateMutability": "view"
    },
    {
      "type": "function",
      "name": "participants",
      "inputs": [
        {
          "name": "",
          "type": "uint256",
          "internalType": "uint256"
        }
      ],
      "outputs": [
        {
          "name": "",
          "type": "address",
          "internalType": "address"
        }
      ],
      "stateMutability": "view"
    },
    {
      "type": "function",
      "name": "renounceOwnership",
      "inputs": [],
      "outputs": [],
      "stateMutability": "nonpayable"
    },
    {
      "type": "function",
      "name": "selectWinners",
      "inputs": [],
      "outputs": [],
      "stateMutability": "nonpayable"
    },
    {
      "type": "function",
      "name": "seller",
      "inputs": [],
      "outputs": [
        {
          "name": "",
          "type": "address",
          "internalType": "address"
        }
      ],
      "stateMutability": "view"
    },
    {
      "type": "function",
      "name": "sellerWithdraw",
      "inputs": [],
      "outputs": [],
      "stateMutability": "nonpayable"
    },
    {
      "type": "function",
      "name": "setAuctionV1Addr",
      "inputs": [
        {
          "name": "_auctionV1Addr",
          "type": "address",
          "internalType": "address"
        }
      ],
      "outputs": [],
      "stateMutability": "nonpayable"
    },
    {
      "type": "function",
      "name": "setFinishAt",
      "inputs": [
        {
          "name": "_finishAt",
          "type": "uint256",
          "internalType": "uint256"
        }
      ],
      "outputs": [],
      "stateMutability": "nonpayable"
    },
    {
      "type": "function",
      "name": "setInitPrice",
      "inputs": [
        {
          "name": "_amount",
          "type": "uint256",
          "internalType": "uint256"
        }
      ],
      "outputs": [],
      "stateMutability": "nonpayable"
    },
    {
      "type": "function",
      "name": "setMultisigWalletAddress",
      "inputs": [
        {
          "name": "_multisigWalletAddress",
          "type": "address",
          "internalType": "address"
        }
      ],
      "outputs": [],
      "stateMutability": "nonpayable"
    },
    {
      "type": "function",
      "name": "setNftContractAddr",
      "inputs": [
        {
          "name": "_nftContractAddr",
          "type": "address",
          "internalType": "address"
        }
      ],
      "outputs": [],
      "stateMutability": "nonpayable"
    },
    {
      "type": "function",
      "name": "setNumberOfTickets",
      "inputs": [
        {
          "name": "_numberOfTickets",
          "type": "uint256",
          "internalType": "uint256"
        }
      ],
      "outputs": [],
      "stateMutability": "nonpayable"
    },
    {
      "type": "function",
      "name": "setOperator",
      "inputs": [
        {
          "name": "_operator",
          "type": "address",
          "internalType": "address"
        },
        {
          "name": "_flag",
          "type": "bool",
          "internalType": "bool"
        }
      ],
      "outputs": [],
      "stateMutability": "nonpayable"
    },
    {
      "type": "function",
      "name": "setUsdcContractAddr",
      "inputs": [
        {
          "name": "_usdcContractAddr",
          "type": "address",
          "internalType": "address"
        }
      ],
      "outputs": [],
      "stateMutability": "nonpayable"
    },
    {
      "type": "function",
      "name": "setWinner",
      "inputs": [
        {
          "name": "_winner",
          "type": "address",
          "internalType": "address"
        }
      ],
      "outputs": [],
      "stateMutability": "nonpayable"
    },
    {
      "type": "function",
      "name": "sortDepositsDesc",
      "inputs": [],
      "outputs": [],
      "stateMutability": "nonpayable"
    },
    {
      "type": "function",
      "name": "startLottery",
      "inputs": [],
      "outputs": [],
      "stateMutability": "nonpayable"
    },
    {
      "type": "function",
      "name": "transferDeposit",
      "inputs": [
        {
          "name": "_participant",
          "type": "address",
          "internalType": "address"
        },
        {
          "name": "_amount",
          "type": "uint256",
          "internalType": "uint256"
        }
      ],
      "outputs": [],
      "stateMutability": "nonpayable"
    },
    {
      "type": "function",
      "name": "transferOwnership",
      "inputs": [
        {
          "name": "newOwner",
          "type": "address",
          "internalType": "address"
        }
      ],
      "outputs": [],
      "stateMutability": "nonpayable"
    },
    {
      "type": "function",
      "name": "usdcContractAddr",
      "inputs": [],
      "outputs": [
        {
          "name": "",
          "type": "address",
          "internalType": "address"
        }
      ],
      "stateMutability": "view"
    },
    {
      "type": "function",
      "name": "winnerAddresses",
      "inputs": [
        {
          "name": "",
          "type": "uint256",
          "internalType": "uint256"
        }
      ],
      "outputs": [
        {
          "name": "",
          "type": "address",
          "internalType": "address"
        }
      ],
      "stateMutability": "view"
    },
    {
      "type": "function",
      "name": "winners",
      "inputs": [
        {
          "name": "",
          "type": "address",
          "internalType": "address"
        }
      ],
      "outputs": [
        {
          "name": "",
          "type": "bool",
          "internalType": "bool"
        }
      ],
      "stateMutability": "view"
    },
    {
      "type": "event",
      "name": "LotteryEnded",
      "inputs": [],
      "anonymous": false
    },
    {
      "type": "event",
      "name": "LotteryStarted",
      "inputs": [],
      "anonymous": false
    },
    {
      "type": "event",
      "name": "OwnershipTransferred",
      "inputs": [
        {
          "name": "previousOwner",
          "type": "address",
          "indexed": true,
          "internalType": "address"
        },
        {
          "name": "newOwner",
          "type": "address",
          "indexed": true,
          "internalType": "address"
        }
      ],
      "anonymous": false
    },
    {
      "type": "event",
      "name": "WinnerSelected",
      "inputs": [
        {
          "name": "winner",
          "type": "address",
          "indexed": true,
          "internalType": "address"
        }
      ],
      "anonymous": false
    },
    {
      "type": "error",
      "name": "OwnableInvalidOwner",
      "inputs": [
        {
          "name": "owner",
          "type": "address",
          "internalType": "address"
        }
      ]
    },
    {
      "type": "error",
      "name": "OwnableUnauthorizedAccount",
      "inputs": [
        {
          "name": "account",
          "type": "address",
          "internalType": "address"
        }
      ]
    }
  ],
  "bytecode": {
    "object": "0x60a06040526000805460ff60a01b1916905534801561001d57600080fd5b5073d8253782c45a12053594b9deb72d8e8ab2fca54c338061005957604051631e4fbdf760e01b81526000600482015260240160405180910390fd5b61006281610074565b506001600160a01b03166080526100c4565b600080546001600160a01b038381166001600160a01b0319831681178455604051919092169283917f8be0079c531659141344cd1fd0a4f28419497f9722a3daafe3b4186f6b6457e09190a35050565b6080516125976100e6600039600081816104f3015261218d01526125976000f3fe60806040526004361061027d5760003560e01c8063683e93e11161014f5780639bbe5e78116100c1578063c6ec99ab1161007a578063c6ec99ab146107b7578063d9fca769146107d7578063df15c37e146107f7578063e9081ec71461080c578063f2fde38b14610842578063fc7e286d1461086257600080fd5b80639bbe5e78146106eb5780639d9ca28d1461070b5780639fcd679714610744578063a61fb2ba14610764578063b6b55f2514610784578063c35344ad1461079757600080fd5b80638da5cb5b116101135780638da5cb5b14610638578063929066f51461065657806394d898de1461067657806399bd69d61461069657806399dbf4b5146106b65780639abb8247146106d657600080fd5b8063683e93e1146105905780636939864b146105b05780636bd5450a146105de578063715018a61461060e5780637cc947d01461062357600080fd5b80632c23ec8e116101f3578063558a7297116101ac578063558a7297146104b6578063572b6c05146104d65780635aa68ac01461052357806360d50da31461054557806366af746b1461056557806367d3b4881461057a57600080fd5b80632c23ec8e146103f057806335c1d349146104105780633644c27c1461043057806338e21cce1461045057806345745c101461048057806350f3dbec1461049657600080fd5b8063158ef93e11610245578063158ef93e146103655780631593a8c714610386578063160344e21461039b5780631a0de74c146103b05780631d0806ae146103c557806326170480146103db57600080fd5b8063045f9c9714610282578063080c279a146102bf57806308551a53146102e35780630bea66371461030357806313e7c9d814610325575b600080fd5b34801561028e57600080fd5b506102a261029d3660046121cd565b6108be565b6040516001600160a01b0390911681526020015b60405180910390f35b3480156102cb57600080fd5b506102d560035481565b6040519081526020016102b6565b3480156102ef57600080fd5b506002546102a2906001600160a01b031681565b34801561030f57600080fd5b5061032361031e3660046121cd565b6108e8565b005b34801561033157600080fd5b50610355610340366004612202565b60096020526000908152604090205460ff1681565b60405190151581526020016102b6565b34801561037157600080fd5b5060005461035590600160a01b900460ff1681565b34801561039257600080fd5b50610323610985565b3480156103a757600080fd5b506103236109cb565b3480156103bc57600080fd5b50610323610aa3565b3480156103d157600080fd5b506102d560045481565b3480156103e757600080fd5b50610323610d51565b3480156103fc57600080fd5b50600c546102a2906001600160a01b031681565b34801561041c57600080fd5b506102a261042b3660046121cd565b610f86565b34801561043c57600080fd5b5061032361044b366004612202565b610f96565b34801561045c57600080fd5b5061035561046b366004612202565b60066020526000908152604090205460ff1681565b34801561048c57600080fd5b506102d560055481565b3480156104a257600080fd5b506103236104b1366004612224565b610fc0565b3480156104c257600080fd5b506103236104d136600461225c565b611114565b3480156104e257600080fd5b506103556104f1366004612202565b7f00000000000000000000000000000000000000000000000000000000000000006001600160a01b0390811691161490565b34801561052f57600080fd5b50610538611147565b6040516102b69190612293565b34801561055157600080fd5b50610323610560366004612202565b6111a9565b34801561057157600080fd5b506103236111d3565b34801561058657600080fd5b506102d5600f5481565b34801561059c57600080fd5b506103236105ab3660046122e0565b61140a565b3480156105bc57600080fd5b506000546105d190600160a81b900460ff1681565b6040516102b69190612317565b3480156105ea57600080fd5b506103556105f9366004612202565b60086020526000908152604090205460ff1681565b34801561061a57600080fd5b50610323611471565b34801561062f57600080fd5b50610323611483565b34801561064457600080fd5b506000546001600160a01b03166102a2565b34801561066257600080fd5b50610355610671366004612202565b611683565b34801561068257600080fd5b50610323610691366004612202565b6116e2565b3480156106a257600080fd5b506103236106b13660046121cd565b61170c565b3480156106c257600080fd5b50600d546102a2906001600160a01b031681565b3480156106e257600080fd5b506103236117af565b3480156106f757600080fd5b506103236107063660046121cd565b611988565b34801561071757600080fd5b50610355610726366004612202565b6001600160a01b031660009081526008602052604090205460ff1690565b34801561075057600080fd5b5061032361075f36600461233f565b6119d1565b34801561077057600080fd5b506001546102a2906001600160a01b031681565b6103236107923660046121cd565b611ace565b3480156107a357600080fd5b506103236107b2366004612202565b611eca565b3480156107c357600080fd5b50600e546102a2906001600160a01b031681565b3480156107e357600080fd5b506103236107f2366004612202565b611f7b565b34801561080357600080fd5b50610538612031565b34801561081857600080fd5b506102d5610827366004612202565b6001600160a01b031660009081526007602052604090205490565b34801561084e57600080fd5b5061032361085d366004612202565b612091565b34801561086e57600080fd5b506108a161087d366004612202565b60076020526000908152604090208054600182015460029092015490919060ff1683565b6040805193845260208401929092521515908201526060016102b6565b600a81815481106108ce57600080fd5b6000918252602090912001546001600160a01b0316905081565b6002546001600160a01b03166108fc6120cc565b6001600160a01b0316148061092b57506000546001600160a01b03166109206120cc565b6001600160a01b0316145b8061095b57506009600061093d6120cc565b6001600160a01b0316815260208101919091526040016000205460ff165b6109805760405162461bcd60e51b8152600401610977906123fd565b60405180910390fd5b600f55565b6002546001600160a01b03166109996120cc565b6001600160a01b0316146109bf5760405162461bcd60e51b815260040161097790612441565b6109c9600261140a565b565b6002546001600160a01b03166109df6120cc565b6001600160a01b031614610a055760405162461bcd60e51b815260040161097790612441565b60008054600160a81b900460ff166004811115610a2457610a24612301565b1480610a4d57506002600054600160a81b900460ff166004811115610a4b57610a4b612301565b145b610a995760405162461bcd60e51b815260206004820152601a60248201527f4c6f747465727920697320696e206163746976652073746174650000000000006044820152606401610977565b6109c9600161140a565b6002546001600160a01b0316610ab76120cc565b6001600160a01b031614610add5760405162461bcd60e51b815260040161097790612441565b600060055411610b2f5760405162461bcd60e51b815260206004820152601b60248201527f4e6f207469636b657473206c65667420746f20616c6c6f6361746500000000006044820152606401610977565b600b5460055410610be65760005b600b54811015610be0576000600b8281548110610b5c57610b5c612483565b6000918252602090912001546001600160a01b03169050610b95816001600160a01b031660009081526008602052604090205460ff1690565b610bd757610ba281611f7b565b6040516001600160a01b038216907f1d4c260f1824cd028e6c9e6e31c3a0b94f2513e7a641113ec759d382f9bdd5a190600090a25b50600101610b3d565b50610d26565b610bee6117af565b600060076000600b6001600554610c0591906124af565b81548110610c1557610c15612483565b60009182526020808320909101546001600160a01b0316835282019290925260400181205491505b600b54811015610d23578160076000600b8481548110610c5f57610c5f612483565b60009182526020808320909101546001600160a01b0316835282019290925260400190205410610d1b576000600b8281548110610c9e57610c9e612483565b6000918252602090912001546001600160a01b03169050610cd7816001600160a01b031660009081526008602052604090205460ff1690565b610d1957610ce481611f7b565b6040516001600160a01b038216907f1d4c260f1824cd028e6c9e6e31c3a0b94f2513e7a641113ec759d382f9bdd5a190600090a25b505b600101610c3d565b50505b6040517f9c89a6ed7228533196a3f962acc80d61a9c53bdea6b910741bf754f5aaa7569e90600090a1565b60066000610d5d6120cc565b6001600160a01b0316815260208101919091526040016000205460ff1615610dbc5760405162461bcd60e51b815260206004820152601260248201527113919508185b1c9958591e481b5a5b9d195960721b6044820152606401610977565b6002600054600160a81b900460ff166004811115610ddc57610ddc612301565b14610e295760405162461bcd60e51b815260206004820152601860248201527f4c6f7474657279206973206e6f7420656e6465642079657400000000000000006044820152606401610977565b600060055411610e7b5760405162461bcd60e51b815260206004820152601b60248201527f4e6f207469636b657473206c65667420746f20616c6c6f6361746500000000006044820152606401610977565b610e866107266120cc565b610ecb5760405162461bcd60e51b815260206004820152601660248201527521b0b63632b91034b9903737ba1030903bb4b73732b960511b6044820152606401610977565b600160066000610ed96120cc565b6001600160a01b0390811682526020820192909252604001600020805460ff191692151592909217909155600c5416636b8f60f6610f156120cc565b6040516001600160e01b031960e084901b1681526001600160a01b039091166004820152602401600060405180830381600087803b158015610f5657600080fd5b505af1158015610f6a573d6000803e3d6000fd5b505060058054925090506000610f7f836124c8565b9190505550565b600b81815481106108ce57600080fd5b610f9e6120db565b600c80546001600160a01b0319166001600160a01b0392909216919091179055565b610fc86120cc565b600e546001600160a01b039081169116146110355760405162461bcd60e51b815260206004820152602760248201527f4f6e6c792077686974656c6973746564206d61792063616c6c207468697320666044820152663ab731ba34b7b760c91b6064820152608401610977565b61103e82611683565b15611076576001600160a01b0382166000908152600760205260408120805483929061106b9084906124df565b909155506111109050565b6040805160608101825282815242602080830191825260008385018181526001600160a01b038816808352600790935294812093518455915160018085019190915593516002909301805460ff191693151593909317909255600b8054938401815590527f0175b7a638427703f0dbe7bb9bbf987a2551717b34e79f33b5b1008d1fa01db990910180546001600160a01b03191690911790555b5050565b61111c6120db565b6001600160a01b03919091166000908152600960205260409020805460ff1916911515919091179055565b6060600b80548060200260200160405190810160405280929190818152602001828054801561119f57602002820191906000526020600020905b81546001600160a01b03168152600190910190602001808311611181575b5050505050905090565b6111b16120db565b600180546001600160a01b0319166001600160a01b0392909216919091179055565b6002546001600160a01b03166111e76120cc565b6001600160a01b03161461120d5760405162461bcd60e51b815260040161097790612441565b6002600054600160a81b900460ff16600481111561122d5761122d612301565b1461126e5760405162461bcd60e51b8152602060048201526011602482015270131bdd1d195c9e481b9bdd08195b991959607a1b6044820152606401610977565b6000805b600a548110156112e7576000600a828154811061129157611291612483565b60009182526020808320909101546001600160a01b031680835260079091526040909120549091506112c390846124df565b6001600160a01b039091166000908152600760205260408120559150600101611272565b50600060646112f78360056124f2565b6113019190612509565b9050600061130f82846124af565b600d5460015460405163a9059cbb60e01b81526001600160a01b03918216600482015260248101869052929350169063a9059cbb906044016020604051808303816000875af1158015611366573d6000803e3d6000fd5b505050506040513d601f19601f8201168201806040525081019061138a919061252b565b50600d5460025460405163a9059cbb60e01b81526001600160a01b0391821660048201526024810184905291169063a9059cbb906044016020604051808303816000875af11580156113e0573d6000803e3d6000fd5b505050506040513d601f19601f82011682018060405250810190611404919061252b565b50505050565b6002546001600160a01b031661141e6120cc565b6001600160a01b0316146114445760405162461bcd60e51b815260040161097790612441565b6000805482919060ff60a81b1916600160a81b83600481111561146957611469612301565b021790555050565b6114796120db565b6109c96000612139565b6001600054600160a81b900460ff1660048111156114a3576114a3612301565b036114f05760405162461bcd60e51b815260206004820152601b60248201527f4c6f74746572792069732063757272656e746c792061637469766500000000006044820152606401610977565b600860006114fc6120cc565b6001600160a01b0316815260208101919091526040016000205460ff16156115665760405162461bcd60e51b815260206004820152601760248201527f57696e6e6572732063616e6e6f742077697468647261770000000000000000006044820152606401610977565b6000600760006115746120cc565b6001600160a01b031681526020810191909152604001600020549050806115d45760405162461bcd60e51b81526020600482015260146024820152734e6f2066756e647320746f20776974686472617760601b6044820152606401610977565b6000600760006115e26120cc565b6001600160a01b039081168252602082019290925260400160002091909155600d541663a9059cbb6116126120cc565b6040516001600160e01b031960e084901b1681526001600160a01b039091166004820152602481018490526044016020604051808303816000875af115801561165f573d6000803e3d6000fd5b505050506040513d601f19601f82011682018060405250810190611110919061252b565b6000805b600b548110156116d957826001600160a01b0316600b82815481106116ae576116ae612483565b6000918252602090912001546001600160a01b0316036116d15750600192915050565b600101611687565b50600092915050565b6116ea6120db565b600d80546001600160a01b0319166001600160a01b0392909216919091179055565b6002546001600160a01b03166117206120cc565b6001600160a01b0316146117465760405162461bcd60e51b815260040161097790612441565b600081116117aa5760405162461bcd60e51b815260206004820152602b60248201527f4e756d626572206f66207469636b657473206d7573742062652067726561746560448201526a72207468616e207a65726f60a81b6064820152608401610977565b600555565b6002546001600160a01b03166117c36120cc565b6001600160a01b0316146117e95760405162461bcd60e51b815260040161097790612441565b60005b600b548110156119855760006118038260016124df565b90505b600b5481101561197c5760076000600b838154811061182757611827612483565b60009182526020808320909101546001600160a01b03168352820192909252604001812054600b805491926007929091908690811061186857611868612483565b60009182526020808320909101546001600160a01b031683528201929092526040019020541015611974576000600b83815481106118a8576118a8612483565b600091825260209091200154600b80546001600160a01b03909216925090839081106118d6576118d6612483565b600091825260209091200154600b80546001600160a01b03909216918590811061190257611902612483565b9060005260206000200160006101000a8154816001600160a01b0302191690836001600160a01b0316021790555080600b838154811061194457611944612483565b9060005260206000200160006101000a8154816001600160a01b0302191690836001600160a01b03160217905550505b600101611806565b506001016117ec565b50565b6002546001600160a01b031661199c6120cc565b6001600160a01b0316146119c25760405162461bcd60e51b815260040161097790612441565b60045460000361198557600455565b600054600160a01b900460ff1615611a215760405162461bcd60e51b8152602060048201526013602482015272105b1c9958591e481a5b9a5d1a585b1a5e9959606a1b6044820152606401610977565b8051600280546001600160a01b0319166001600160a01b039092169190911790556020810151611a5090612139565b6040810151600555606081015160038190556004556080810151600f5560a0810151600e80546001600160a01b03199081166001600160a01b039384161790915560c0830151600d8054831691841691909117905560e09092015160018054909316911617905560008054600160a01b60ff60a01b19909116179055565b611ad96107266120cc565b15611b1f5760405162461bcd60e51b815260206004820152601660248201527515da5b9b995c9cc818d85b9b9bdd0819195c1bdcda5d60521b6044820152606401610977565b42600f5411611b7a5760405162461bcd60e51b815260206004820152602160248201527f4465706f7369747320617265206e6f7420706f737369626c6520616e796d6f726044820152606560f81b6064820152608401610977565b600d546001600160a01b0316611bd25760405162461bcd60e51b815260206004820152601d60248201527f5553444320636f6e74726163742061646472657373206e6f74207365740000006044820152606401610977565b600454811015611c245760405162461bcd60e51b815260206004820152601760248201527f496e73756666696369656e742066756e64732073656e740000000000000000006044820152606401610977565b60008111611c645760405162461bcd60e51b815260206004820152600d60248201526c139bc8199d5b991cc81cd95b9d609a1b6044820152606401610977565b600d5481906001600160a01b031663dd62ed3e611c7f6120cc565b6040516001600160e01b031960e084901b1681526001600160a01b039091166004820152306024820152604401602060405180830381865afa158015611cc9573d6000803e3d6000fd5b505050506040513d601f19601f82011682018060405250810190611ced9190612548565b1015611d345760405162461bcd60e51b8152602060048201526016602482015275496e73756666696369656e7420616c6c6f77616e636560501b6044820152606401610977565b600d546001600160a01b03166323b872dd611d4d6120cc565b6040516001600160e01b031960e084901b1681526001600160a01b039091166004820152306024820152604481018490526064016020604051808303816000875af1158015611da0573d6000803e3d6000fd5b505050506040513d601f19601f82011682018060405250810190611dc4919061252b565b50611dd06106716120cc565b15611e1f578060076000611de26120cc565b6001600160a01b03166001600160a01b031681526020019081526020016000206000016000828254611e1491906124df565b909155506119859050565b60405180606001604052808281526020014281526020016000151581525060076000611e496120cc565b6001600160a01b0316815260208082019290925260409081016000208351815591830151600183015591909101516002909101805460ff1916911515919091179055600b611e956120cc565b81546001810183556000928352602090922090910180546001600160a01b0319166001600160a01b0390921691909117905550565b6002546001600160a01b0316611ede6120cc565b6001600160a01b03161480611f0d57506000546001600160a01b0316611f026120cc565b6001600160a01b0316145b80611f3d575060096000611f1f6120cc565b6001600160a01b0316815260208101919091526040016000205460ff165b611f595760405162461bcd60e51b8152600401610977906123fd565b600e80546001600160a01b0319166001600160a01b0392909216919091179055565b6002546001600160a01b0316611f8f6120cc565b6001600160a01b031614611fb55760405162461bcd60e51b815260040161097790612441565b6001600160a01b031660008181526008602090815260408083208054600160ff199182168117909255600a80548084019091557fc65a7bb8d6351c1cf70c95a316cc6a92839c986682d98bc35f958f4883f9d2a80180546001600160a01b03191690961790955560079092529091206002018054909216179055565b6060600a80548060200260200160405190810160405280929190818152602001828054801561119f576020028201919060005260206000209081546001600160a01b03168152600190910190602001808311611181575050505050905090565b6120996120db565b6001600160a01b0381166120c357604051631e4fbdf760e01b815260006004820152602401610977565b61198581612139565b60006120d6612189565b905090565b6120e36120cc565b6001600160a01b03166120fe6000546001600160a01b031690565b6001600160a01b0316146109c9576121146120cc565b60405163118cdaa760e01b81526001600160a01b039091166004820152602401610977565b600080546001600160a01b038381166001600160a01b0319831681178455604051919092169283917f8be0079c531659141344cd1fd0a4f28419497f9722a3daafe3b4186f6b6457e09190a35050565b60007f00000000000000000000000000000000000000000000000000000000000000006001600160a01b031633036121c8575060131936013560601c90565b503390565b6000602082840312156121df57600080fd5b5035919050565b80356001600160a01b03811681146121fd57600080fd5b919050565b60006020828403121561221457600080fd5b61221d826121e6565b9392505050565b6000806040838503121561223757600080fd5b612240836121e6565b946020939093013593505050565b801515811461198557600080fd5b6000806040838503121561226f57600080fd5b612278836121e6565b915060208301356122888161224e565b809150509250929050565b6020808252825182820181905260009190848201906040850190845b818110156122d45783516001600160a01b0316835292840192918401916001016122af565b50909695505050505050565b6000602082840312156122f257600080fd5b81356005811061221d57600080fd5b634e487b7160e01b600052602160045260246000fd5b602081016005831061233957634e487b7160e01b600052602160045260246000fd5b91905290565b600061010080838503121561235357600080fd5b6040519081019067ffffffffffffffff8211818310171561238457634e487b7160e01b600052604160045260246000fd5b81604052612391846121e6565b815261239f602085016121e6565b60208201526040840135604082015260608401356060820152608084013560808201526123ce60a085016121e6565b60a08201526123df60c085016121e6565b60c08201526123f060e085016121e6565b60e0820152949350505050565b60208082526024908201527f4f6e6c79206f70657261746f722063616e2063616c6c20746869732066756e636040820152633a34b7b760e11b606082015260800190565b60208082526022908201527f4f6e6c792073656c6c65722063616e2063616c6c20746869732066756e63746960408201526137b760f11b606082015260800190565b634e487b7160e01b600052603260045260246000fd5b634e487b7160e01b600052601160045260246000fd5b818103818111156124c2576124c2612499565b92915050565b6000816124d7576124d7612499565b506000190190565b808201808211156124c2576124c2612499565b80820281158282048414176124c2576124c2612499565b60008261252657634e487b7160e01b600052601260045260246000fd5b500490565b60006020828403121561253d57600080fd5b815161221d8161224e565b60006020828403121561255a57600080fd5b505191905056fea26469706673582212201f05a03d89c67bb93d5c214627e73f328b8cff98df85dd4f9a0f80688e4c368464736f6c63430008190033",
    "linkReferences": {}
  },
  "methodIdentifiers": {
    "auctionV1Addr()": "c6ec99ab",
    "buyerWithdraw()": "7cc947d0",
    "changeLotteryState(uint8)": "683e93e1",
    "deposit(uint256)": "b6b55f25",
    "deposits(address)": "fc7e286d",
    "endLottery()": "1593a8c7",
    "finishAt()": "67d3b488",
    "getDepositedAmount(address)": "e9081ec7",
    "getParticipants()": "5aa68ac0",
    "getWinners()": "df15c37e",
    "hasMinted(address)": "38e21cce",
    "initialPrice()": "1d0806ae",
    "initialize((address,address,uint256,uint256,uint256,address,address,address))": "9fcd6797",
    "initialized()": "158ef93e",
    "isParticipant(address)": "929066f5",
    "isTrustedForwarder(address)": "572b6c05",
    "isWinner(address)": "9d9ca28d",
    "lotteryState()": "6939864b",
    "minimumDepositAmount()": "080c279a",
    "mintMyNFT()": "26170480",
    "multisigWalletAddress()": "a61fb2ba",
    "nftContractAddr()": "2c23ec8e",
    "numberOfTickets()": "45745c10",
    "operators(address)": "13e7c9d8",
    "owner()": "8da5cb5b",
    "participants(uint256)": "35c1d349",
    "renounceOwnership()": "715018a6",
    "selectWinners()": "1a0de74c",
    "seller()": "08551a53",
    "sellerWithdraw()": "66af746b",
    "setAuctionV1Addr(address)": "c35344ad",
    "setFinishAt(uint256)": "0bea6637",
    "setInitPrice(uint256)": "9bbe5e78",
    "setMultisigWalletAddress(address)": "60d50da3",
    "setNftContractAddr(address)": "3644c27c",
    "setNumberOfTickets(uint256)": "99bd69d6",
    "setOperator(address,bool)": "558a7297",
    "setUsdcContractAddr(address)": "94d898de",
    "setWinner(address)": "d9fca769",
    "sortDepositsDesc()": "9abb8247",
    "startLottery()": "160344e2",
    "transferDeposit(address,uint256)": "50f3dbec",
    "transferOwnership(address)": "f2fde38b",
    "usdcContractAddr()": "99dbf4b5",
    "winnerAddresses(uint256)": "045f9c97",
    "winners(address)": "6bd5450a"
  },
  "id": 3
}