{"abi":[{"type":"function","name":"Deposits","inputs":[{"name":"","type":"address","internalType":"address"}],"outputs":[{"name":"amount","type":"uint256","internalType":"uint256"},{"name":"timestamp","type":"uint256","internalType":"uint256"},{"name":"isWinner","type":"bool","internalType":"bool"}],"stateMutability":"view"},{"type":"function","name":"auctionV1Addr","inputs":[],"outputs":[{"name":"","type":"address","internalType":"address"}],"stateMutability":"view"},{"type":"function","name":"buyerWithdraw","inputs":[],"outputs":[],"stateMutability":"nonpayable"},{"type":"function","name":"changeLotteryState","inputs":[{"name":"_newState","type":"uint8","internalType":"enum SaleBase.LotteryState"}],"outputs":[],"stateMutability":"nonpayable"},{"type":"function","name":"deposit","inputs":[{"name":"amount","type":"uint256","internalType":"uint256"}],"outputs":[],"stateMutability":"nonpayable"},{"type":"function","name":"deposits","inputs":[{"name":"","type":"address","internalType":"address"}],"outputs":[{"name":"","type":"uint256","internalType":"uint256"}],"stateMutability":"view"},{"type":"function","name":"endLottery","inputs":[],"outputs":[],"stateMutability":"nonpayable"},{"type":"function","name":"getDepositedAmount","inputs":[{"name":"participant","type":"address","internalType":"address"}],"outputs":[{"name":"","type":"uint256","internalType":"uint256"}],"stateMutability":"view"},{"type":"function","name":"getParticipants","inputs":[],"outputs":[{"name":"","type":"address[]","internalType":"address[]"}],"stateMutability":"view"},{"type":"function","name":"getWinners","inputs":[],"outputs":[{"name":"","type":"address[]","internalType":"address[]"}],"stateMutability":"view"},{"type":"function","name":"hasMinted","inputs":[{"name":"","type":"address","internalType":"address"}],"outputs":[{"name":"","type":"bool","internalType":"bool"}],"stateMutability":"view"},{"type":"function","name":"initialPrice","inputs":[],"outputs":[{"name":"","type":"uint256","internalType":"uint256"}],"stateMutability":"view"},{"type":"function","name":"initialize","inputs":[{"name":"config","type":"tuple","internalType":"struct StructsLibrary.IAuctionBaseConfig","components":[{"name":"_seller","type":"address","internalType":"address"},{"name":"_owner","type":"address","internalType":"address"},{"name":"_ticketAmount","type":"uint256","internalType":"uint256"},{"name":"_ticketPrice","type":"uint256","internalType":"uint256"},{"name":"_usdcContractAddr","type":"address","internalType":"address"},{"name":"_multisigWalletAddress","type":"address","internalType":"address"},{"name":"_prevPhaseContractAddr","type":"address","internalType":"address"}]}],"outputs":[],"stateMutability":"nonpayable"},{"type":"function","name":"initialized","inputs":[],"outputs":[{"name":"","type":"bool","internalType":"bool"}],"stateMutability":"view"},{"type":"function","name":"isParticipant","inputs":[{"name":"_participant","type":"address","internalType":"address"}],"outputs":[{"name":"","type":"bool","internalType":"bool"}],"stateMutability":"view"},{"type":"function","name":"isTrustedForwarder","inputs":[{"name":"forwarder","type":"address","internalType":"address"}],"outputs":[{"name":"","type":"bool","internalType":"bool"}],"stateMutability":"view"},{"type":"function","name":"isWinner","inputs":[{"name":"_participant","type":"address","internalType":"address"}],"outputs":[{"name":"","type":"bool","internalType":"bool"}],"stateMutability":"view"},{"type":"function","name":"lotteryState","inputs":[],"outputs":[{"name":"","type":"uint8","internalType":"enum SaleBase.LotteryState"}],"stateMutability":"view"},{"type":"function","name":"minimumDepositAmount","inputs":[],"outputs":[{"name":"","type":"uint256","internalType":"uint256"}],"stateMutability":"view"},{"type":"function","name":"mintMyNFT","inputs":[],"outputs":[],"stateMutability":"nonpayable"},{"type":"function","name":"multisigWalletAddress","inputs":[],"outputs":[{"name":"","type":"address","internalType":"address"}],"stateMutability":"view"},{"type":"function","name":"nftContractAddr","inputs":[],"outputs":[{"name":"","type":"address","internalType":"address"}],"stateMutability":"view"},{"type":"function","name":"numberOfTickets","inputs":[],"outputs":[{"name":"","type":"uint256","internalType":"uint256"}],"stateMutability":"view"},{"type":"function","name":"operators","inputs":[{"name":"","type":"address","internalType":"address"}],"outputs":[{"name":"","type":"bool","internalType":"bool"}],"stateMutability":"view"},{"type":"function","name":"owner","inputs":[],"outputs":[{"name":"","type":"address","internalType":"address"}],"stateMutability":"view"},{"type":"function","name":"renounceOwnership","inputs":[],"outputs":[],"stateMutability":"nonpayable"},{"type":"function","name":"selectWinners","inputs":[],"outputs":[],"stateMutability":"nonpayable"},{"type":"function","name":"seller","inputs":[],"outputs":[{"name":"","type":"address","internalType":"address"}],"stateMutability":"view"},{"type":"function","name":"sellerWithdraw","inputs":[],"outputs":[],"stateMutability":"nonpayable"},{"type":"function","name":"setAuctionV1Addr","inputs":[{"name":"_auctionV1Addr","type":"address","internalType":"address"}],"outputs":[],"stateMutability":"nonpayable"},{"type":"function","name":"setInitPrice","inputs":[{"name":"_amount","type":"uint256","internalType":"uint256"}],"outputs":[],"stateMutability":"nonpayable"},{"type":"function","name":"setMinimumDepositAmount","inputs":[{"name":"_amount","type":"uint256","internalType":"uint256"}],"outputs":[],"stateMutability":"nonpayable"},{"type":"function","name":"setMultisigWalletAddress","inputs":[{"name":"_multisigWalletAddress","type":"address","internalType":"address"}],"outputs":[],"stateMutability":"nonpayable"},{"type":"function","name":"setNftContractAddr","inputs":[{"name":"_nftContractAddr","type":"address","internalType":"address"}],"outputs":[],"stateMutability":"nonpayable"},{"type":"function","name":"setNumberOfTickets","inputs":[{"name":"_numberOfTickets","type":"uint256","internalType":"uint256"}],"outputs":[],"stateMutability":"nonpayable"},{"type":"function","name":"setOperator","inputs":[{"name":"_operator","type":"address","internalType":"address"},{"name":"_flag","type":"bool","internalType":"bool"}],"outputs":[],"stateMutability":"nonpayable"},{"type":"function","name":"setSeller","inputs":[{"name":"_seller","type":"address","internalType":"address"}],"outputs":[],"stateMutability":"nonpayable"},{"type":"function","name":"setUsdcContractAddr","inputs":[{"name":"_usdcContractAddr","type":"address","internalType":"address"}],"outputs":[],"stateMutability":"nonpayable"},{"type":"function","name":"sortDepositsDesc","inputs":[],"outputs":[],"stateMutability":"nonpayable"},{"type":"function","name":"startLottery","inputs":[],"outputs":[],"stateMutability":"nonpayable"},{"type":"function","name":"transferDeposit","inputs":[{"name":"_participant","type":"address","internalType":"address"},{"name":"_amount","type":"uint256","internalType":"uint256"}],"outputs":[],"stateMutability":"nonpayable"},{"type":"function","name":"transferOwnership","inputs":[{"name":"newOwner","type":"address","internalType":"address"}],"outputs":[],"stateMutability":"nonpayable"},{"type":"function","name":"usdcContractAddr","inputs":[],"outputs":[{"name":"","type":"address","internalType":"address"}],"stateMutability":"view"},{"type":"function","name":"winnerAddresses","inputs":[{"name":"","type":"uint256","internalType":"uint256"}],"outputs":[{"name":"","type":"address","internalType":"address"}],"stateMutability":"view"},{"type":"function","name":"winners","inputs":[{"name":"","type":"address","internalType":"address"}],"outputs":[{"name":"","type":"bool","internalType":"bool"}],"stateMutability":"view"},{"type":"event","name":"LotteryEnded","inputs":[],"anonymous":false},{"type":"event","name":"LotteryStarted","inputs":[],"anonymous":false},{"type":"event","name":"OwnershipTransferred","inputs":[{"name":"previousOwner","type":"address","indexed":true,"internalType":"address"},{"name":"newOwner","type":"address","indexed":true,"internalType":"address"}],"anonymous":false},{"type":"event","name":"WinnerSelected","inputs":[{"name":"winner","type":"address","indexed":true,"internalType":"address"}],"anonymous":false},{"type":"error","name":"OwnableInvalidOwner","inputs":[{"name":"owner","type":"address","internalType":"address"}]},{"type":"error","name":"OwnableUnauthorizedAccount","inputs":[{"name":"account","type":"address","internalType":"address"}]}],"bytecode":{"object":"0x60a0604052600b805460ff60a01b1916905534801561001d57600080fd5b5073d8253782c45a12053594b9deb72d8e8ab2fca54c338061005957604051631e4fbdf760e01b81526000600482015260240160405180910390fd5b61006281610074565b506001600160a01b03166080526100c4565b600080546001600160a01b038381166001600160a01b0319831681178455604051919092169283917f8be0079c531659141344cd1fd0a4f28419497f9722a3daafe3b4186f6b6457e09190a35050565b6080516125076100e660003960008181610427015261214f01526125076000f3fe608060405234801561001057600080fd5b506004361061027f5760003560e01c80636939864b1161015c5780639d9ca28d116100ce578063c6ec99ab11610087578063c6ec99ab146105f1578063df15c37e14610604578063e9081ec71461060c578063e99d286614610635578063f2fde38b14610648578063fc7e286d1461065b57600080fd5b80639d9ca28d14610566578063a61fb2ba14610592578063aab483d6146105a5578063b6b55f25146105b8578063bc780845146105cb578063c35344ad146105de57600080fd5b8063929066f511610120578063929066f5146104ff57806394d898de1461051257806399bd69d61461052557806399dbf4b5146105385780639abb82471461054b5780639bbe5e781461055357600080fd5b80636939864b1461049a5780636bd5450a146104bb578063715018a6146104de5780637cc947d0146104e65780638da5cb5b146104ee57600080fd5b80633644c27c116101f5578063558a7297116101b9578063558a729714610404578063572b6c05146104175780635aa68ac01461045757806360d50da31461046c57806366af746b1461047f578063683e93e11461048757600080fd5b80633644c27c1461036357806338e21cce146103765780633ee2d7c21461039957806345745c10146103e857806350f3dbec146103f157600080fd5b80631593a8c7116102475780631593a8c714610325578063160344e21461032f5780631a0de74c146103375780631d0806ae1461033f57806326170480146103485780632c23ec8e1461035057600080fd5b8063045f9c9714610284578063080c279a146102b457806308551a53146102cb57806313e7c9d8146102de578063158ef93e14610311575b600080fd5b61029761029236600461218f565b61067b565b6040516001600160a01b0390911681526020015b60405180910390f35b6102bd60035481565b6040519081526020016102ab565b600254610297906001600160a01b031681565b6103016102ec3660046121c4565b600e6020526000908152604090205460ff1681565b60405190151581526020016102ab565b600b5461030190600160a01b900460ff1681565b61032d6106a5565b005b61032d61071d565b61032d6107f8565b6102bd600d5481565b61032d610aa5565b600a54610297906001600160a01b031681565b61032d6103713660046121c4565b610d66565b6103016103843660046121c4565b60056020526000908152604090205460ff1681565b6103cb6103a73660046121c4565b600c6020526000908152604090208054600182015460029092015490919060ff1683565b6040805193845260208401929092521515908201526060016102ab565b6102bd60045481565b61032d6103ff3660046121e6565b610d90565b61032d61041236600461221e565b610ee4565b6103016104253660046121c4565b7f00000000000000000000000000000000000000000000000000000000000000006001600160a01b0390811691161490565b61045f610f17565b6040516102ab9190612255565b61032d61047a3660046121c4565b610f79565b61032d610fa3565b61032d6104953660046122a2565b6111da565b6000546104ae90600160a01b900460ff1681565b6040516102ab91906122d9565b6103016104c93660046121c4565b60076020526000908152604090205460ff1681565b61032d611241565b61032d611255565b6000546001600160a01b0316610297565b61030161050d3660046121c4565b61144d565b61032d6105203660046121c4565b6114ac565b61032d61053336600461218f565b6114d6565b600b54610297906001600160a01b031681565b61032d611579565b61032d61056136600461218f565b611877565b6103016105743660046121c4565b6001600160a01b031660009081526007602052604090205460ff1690565b600154610297906001600160a01b031681565b61032d6105b336600461218f565b6118c0565b61032d6105c636600461218f565b6118ff565b61032d6105d9366004612301565b611d02565b61032d6105ec3660046121c4565b611df4565b600f54610297906001600160a01b031681565b61045f611ee1565b6102bd61061a3660046121c4565b6001600160a01b03166000908152600c602052604090205490565b61032d6106433660046121c4565b611f41565b61032d6106563660046121c4565b611f9d565b6102bd6106693660046121c4565b60066020526000908152604090205481565b6008818154811061068b57600080fd5b6000918252602090912001546001600160a01b0316905081565b6002546001600160a01b03166106b9611fd8565b6001600160a01b0316146106e85760405162461bcd60e51b81526004016106df906123b1565b60405180910390fd5b6106f260026111da565b6040517f9c89a6ed7228533196a3f962acc80d61a9c53bdea6b910741bf754f5aaa7569e90600090a1565b6002546001600160a01b0316610731611fd8565b6001600160a01b0316146107575760405162461bcd60e51b81526004016106df906123b1565b60008054600160a01b900460ff166002811115610776576107766122c3565b146107c35760405162461bcd60e51b815260206004820152601760248201527f53616c6520697320696e2061637469766520737461746500000000000000000060448201526064016106df565b6107cd60016111da565b6040517fd029c7c68d943f92286a7825fa6aa2deefa1eee46cee6c91b7e483fd06d27baf90600090a1565b6002546001600160a01b031661080c611fd8565b6001600160a01b0316146108325760405162461bcd60e51b81526004016106df906123b1565b6000600454116108845760405162461bcd60e51b815260206004820152601b60248201527f4e6f207469636b657473206c65667420746f20616c6c6f63617465000000000060448201526064016106df565b6009546004541061093b5760005b600954811015610935576000600982815481106108b1576108b16123f3565b6000918252602090912001546001600160a01b031690506108ea816001600160a01b031660009081526007602052604090205460ff1690565b61092c576108f781611fe7565b6040516001600160a01b038216907f1d4c260f1824cd028e6c9e6e31c3a0b94f2513e7a641113ec759d382f9bdd5a190600090a25b50600101610892565b506106f2565b610943611579565b6000600c60006009600160045461095a919061241f565b8154811061096a5761096a6123f3565b60009182526020808320909101546001600160a01b0316835282019290925260400181205491505b600454811015610a785781600c6000600984815481106109b4576109b46123f3565b60009182526020808320909101546001600160a01b0316835282019290925260400190205410610a70576000600982815481106109f3576109f36123f3565b6000918252602090912001546001600160a01b03169050610a2c816001600160a01b031660009081526007602052604090205460ff1690565b610a6e57610a3981611fe7565b6040516001600160a01b038216907f1d4c260f1824cd028e6c9e6e31c3a0b94f2513e7a641113ec759d382f9bdd5a190600090a25b505b600101610992565b50506040517f9c89a6ed7228533196a3f962acc80d61a9c53bdea6b910741bf754f5aaa7569e90600090a1565b60056000610ab1611fd8565b6001600160a01b0316815260208101919091526040016000205460ff1615610b105760405162461bcd60e51b815260206004820152601260248201527113919508185b1c9958591e481b5a5b9d195960721b60448201526064016106df565b600060045411610b625760405162461bcd60e51b815260206004820152601b60248201527f4e6f207469636b657473206c65667420746f20616c6c6f63617465000000000060448201526064016106df565b610b6d610574611fd8565b610bb25760405162461bcd60e51b815260206004820152601660248201527521b0b63632b91034b9903737ba1030903bb4b73732b960511b60448201526064016106df565b600160056000610bc0611fd8565b6001600160a01b0316815260208101919091526040016000908120805460ff191692151592909217909155600354600c82610bf9611fd8565b6001600160a01b03168152602081019190915260400160002054610c1d919061241f565b90508015610cb157600b546001600160a01b031663a9059cbb610c3e611fd8565b6040516001600160e01b031960e084901b1681526001600160a01b039091166004820152602481018490526044016020604051808303816000875af1158015610c8b573d6000803e3d6000fd5b505050506040513d601f19601f82011682018060405250810190610caf9190612438565b505b6000600c6000610cbf611fd8565b6001600160a01b0316815260208101919091526040016000908120919091556004805491610cec83612455565b9091555050600a546001600160a01b0316636b8f60f6610d0a611fd8565b6040516001600160e01b031960e084901b1681526001600160a01b039091166004820152602401600060405180830381600087803b158015610d4b57600080fd5b505af1158015610d5f573d6000803e3d6000fd5b5050505050565b610d6e61209d565b600a80546001600160a01b0319166001600160a01b0392909216919091179055565b610d98611fd8565b600f546001600160a01b03908116911614610e055760405162461bcd60e51b815260206004820152602760248201527f4f6e6c792077686974656c6973746564206d61792063616c6c207468697320666044820152663ab731ba34b7b760c91b60648201526084016106df565b610e0e8261144d565b15610e46576001600160a01b0382166000908152600c602052604081208054839290610e3b90849061246c565b90915550610ee09050565b6040805160608101825282815242602080830191825260008385018181526001600160a01b038816808352600c90935294812093518455915160018085019190915593516002909301805460ff19169315159390931790925560098054938401815590527f6e1540171b6c0c960b71a7020d9f60077f6af931a8bbf590da0223dacf75c7af90910180546001600160a01b03191690911790555b5050565b610eec61209d565b6001600160a01b03919091166000908152600e60205260409020805460ff1916911515919091179055565b60606009805480602002602001604051908101604052809291908181526020018280548015610f6f57602002820191906000526020600020905b81546001600160a01b03168152600190910190602001808311610f51575b5050505050905090565b610f8161209d565b600180546001600160a01b0319166001600160a01b0392909216919091179055565b6002546001600160a01b0316610fb7611fd8565b6001600160a01b031614610fdd5760405162461bcd60e51b81526004016106df906123b1565b6002600054600160a01b900460ff166002811115610ffd57610ffd6122c3565b1461103e5760405162461bcd60e51b8152602060048201526011602482015270131bdd1d195c9e481b9bdd08195b991959607a1b60448201526064016106df565b6000805b6008548110156110b757600060088281548110611061576110616123f3565b60009182526020808320909101546001600160a01b0316808352600c909152604090912054909150611093908461246c565b6001600160a01b039091166000908152600c60205260408120559150600101611042565b50600060646110c783600561247f565b6110d19190612496565b905060006110df828461241f565b600b5460015460405163a9059cbb60e01b81526001600160a01b03918216600482015260248101869052929350169063a9059cbb906044016020604051808303816000875af1158015611136573d6000803e3d6000fd5b505050506040513d601f19601f8201168201806040525081019061115a9190612438565b50600b5460025460405163a9059cbb60e01b81526001600160a01b0391821660048201526024810184905291169063a9059cbb906044016020604051808303816000875af11580156111b0573d6000803e3d6000fd5b505050506040513d601f19601f820116820180604052508101906111d49190612438565b50505050565b6002546001600160a01b03166111ee611fd8565b6001600160a01b0316146112145760405162461bcd60e51b81526004016106df906123b1565b6000805482919060ff60a01b1916600160a01b836002811115611239576112396122c3565b021790555050565b61124961209d565b61125360006120fb565b565b6002600054600160a01b900460ff166002811115611275576112756122c3565b146112ba5760405162461bcd60e51b815260206004820152601560248201527414d85b19481a5cc81b9bdd08195b991959081e595d605a1b60448201526064016106df565b600760006112c6611fd8565b6001600160a01b0316815260208101919091526040016000205460ff16156113305760405162461bcd60e51b815260206004820152601760248201527f57696e6e6572732063616e6e6f7420776974686472617700000000000000000060448201526064016106df565b6000600c600061133e611fd8565b6001600160a01b0316815260208101919091526040016000205490508061139e5760405162461bcd60e51b81526020600482015260146024820152734e6f2066756e647320746f20776974686472617760601b60448201526064016106df565b6000600c60006113ac611fd8565b6001600160a01b039081168252602082019290925260400160002091909155600b541663a9059cbb6113dc611fd8565b6040516001600160e01b031960e084901b1681526001600160a01b039091166004820152602481018490526044016020604051808303816000875af1158015611429573d6000803e3d6000fd5b505050506040513d601f19601f82011682018060405250810190610ee09190612438565b6000805b6009548110156114a357826001600160a01b031660098281548110611478576114786123f3565b6000918252602090912001546001600160a01b03160361149b5750600192915050565b600101611451565b50600092915050565b6114b461209d565b600b80546001600160a01b0319166001600160a01b0392909216919091179055565b6002546001600160a01b03166114ea611fd8565b6001600160a01b0316146115105760405162461bcd60e51b81526004016106df906123b1565b600081116115745760405162461bcd60e51b815260206004820152602b60248201527f4e756d626572206f66207469636b657473206d7573742062652067726561746560448201526a72207468616e207a65726f60a81b60648201526084016106df565b600455565b6002546001600160a01b031661158d611fd8565b6001600160a01b0316146115b35760405162461bcd60e51b81526004016106df906123b1565b60005b6009548110156118745760006115cd82600161246c565b90505b60095481101561186b57600c6000600983815481106115f1576115f16123f3565b60009182526020808320909101546001600160a01b03168352820192909252604001812054600980549192600c9290919086908110611632576116326123f3565b60009182526020808320909101546001600160a01b03168352820192909252604001902054108061177d5750600c600060098381548110611675576116756123f3565b60009182526020808320909101546001600160a01b03168352820192909252604001812054600980549192600c92909190869081106116b6576116b66123f3565b60009182526020808320909101546001600160a01b0316835282019290925260400190205414801561177d5750600c6000600983815481106116fa576116fa6123f3565b9060005260206000200160009054906101000a90046001600160a01b03166001600160a01b03166001600160a01b0316815260200190815260200160002060010154600c600060098581548110611753576117536123f3565b60009182526020808320909101546001600160a01b03168352820192909252604001902060010154115b1561186357600060098381548110611797576117976123f3565b600091825260209091200154600980546001600160a01b03909216925090839081106117c5576117c56123f3565b600091825260209091200154600980546001600160a01b0390921691859081106117f1576117f16123f3565b9060005260206000200160006101000a8154816001600160a01b0302191690836001600160a01b031602179055508060098381548110611833576118336123f3565b9060005260206000200160006101000a8154816001600160a01b0302191690836001600160a01b03160217905550505b6001016115d0565b506001016115b6565b50565b6002546001600160a01b031661188b611fd8565b6001600160a01b0316146118b15760405162461bcd60e51b81526004016106df906123b1565b600d5460000361187457600d55565b6002546001600160a01b03166118d4611fd8565b6001600160a01b0316146118fa5760405162461bcd60e51b81526004016106df906123b1565b600355565b6001600054600160a01b900460ff16600281111561191f5761191f6122c3565b146119615760405162461bcd60e51b815260206004820152601260248201527153616c65206973206e6f742061637469766560701b60448201526064016106df565b61196c610574611fd8565b156119b25760405162461bcd60e51b815260206004820152601660248201527515da5b9b995c9cc818d85b9b9bdd0819195c1bdcda5d60521b60448201526064016106df565b600b546001600160a01b0316611a0a5760405162461bcd60e51b815260206004820152601d60248201527f5553444320636f6e74726163742061646472657373206e6f742073657400000060448201526064016106df565b600d54811015611a5c5760405162461bcd60e51b815260206004820152601760248201527f496e73756666696369656e742066756e64732073656e7400000000000000000060448201526064016106df565b60008111611a9c5760405162461bcd60e51b815260206004820152600d60248201526c139bc8199d5b991cc81cd95b9d609a1b60448201526064016106df565b600b5481906001600160a01b031663dd62ed3e611ab7611fd8565b6040516001600160e01b031960e084901b1681526001600160a01b039091166004820152306024820152604401602060405180830381865afa158015611b01573d6000803e3d6000fd5b505050506040513d601f19601f82011682018060405250810190611b2591906124b8565b1015611b6c5760405162461bcd60e51b8152602060048201526016602482015275496e73756666696369656e7420616c6c6f77616e636560501b60448201526064016106df565b600b546001600160a01b03166323b872dd611b85611fd8565b6040516001600160e01b031960e084901b1681526001600160a01b039091166004820152306024820152604481018490526064016020604051808303816000875af1158015611bd8573d6000803e3d6000fd5b505050506040513d601f19601f82011682018060405250810190611bfc9190612438565b50611c0861050d611fd8565b15611c575780600c6000611c1a611fd8565b6001600160a01b03166001600160a01b031681526020019081526020016000206000016000828254611c4c919061246c565b909155506118749050565b604051806060016040528082815260200142815260200160001515815250600c6000611c81611fd8565b6001600160a01b0316815260208082019290925260409081016000208351815591830151600183015591909101516002909101805460ff19169115159190911790556009611ccd611fd8565b81546001810183556000928352602090922090910180546001600160a01b0319166001600160a01b0390921691909117905550565b600b54600160a01b900460ff1615611d525760405162461bcd60e51b8152602060048201526013602482015272105b1c9958591e481a5b9a5d1a585b1a5e9959606a1b60448201526064016106df565b8051600280546001600160a01b0319166001600160a01b039092169190911790556020810151611d81906120fb565b604081015160045560608101516003819055600d556080810151600b805460a0840151600180546001600160a01b039283166001600160a01b03199182161790915560c090950151600f805491831691909616179094556001600160a81b0319169290911691909117600160a01b179055565b6002546001600160a01b0316611e08611fd8565b6001600160a01b03161480611e3757506000546001600160a01b0316611e2c611fd8565b6001600160a01b0316145b80611e675750600e6000611e49611fd8565b6001600160a01b0316815260208101919091526040016000205460ff165b611ebf5760405162461bcd60e51b8152602060048201526024808201527f4f6e6c79206f70657261746f722063616e2063616c6c20746869732066756e636044820152633a34b7b760e11b60648201526084016106df565b600f80546001600160a01b0319166001600160a01b0392909216919091179055565b60606008805480602002602001604051908101604052809291908181526020018280548015610f6f576020028201919060005260206000209081546001600160a01b03168152600190910190602001808311610f51575050505050905090565b6002546001600160a01b0316611f55611fd8565b6001600160a01b031614611f7b5760405162461bcd60e51b81526004016106df906123b1565b600280546001600160a01b0319166001600160a01b0392909216919091179055565b611fa561209d565b6001600160a01b038116611fcf57604051631e4fbdf760e01b8152600060048201526024016106df565b611874816120fb565b6000611fe261214b565b905090565b6002546001600160a01b0316611ffb611fd8565b6001600160a01b0316146120215760405162461bcd60e51b81526004016106df906123b1565b6001600160a01b031660008181526007602090815260408083208054600160ff199182168117909255600880548084019091557ff3f7a9fe364faab93b216da50a3214154f22a0a2b415b23a84c8169e8b636ee30180546001600160a01b031916909617909555600c9092529091206002018054909216179055565b6120a5611fd8565b6001600160a01b03166120c06000546001600160a01b031690565b6001600160a01b031614611253576120d6611fd8565b60405163118cdaa760e01b81526001600160a01b0390911660048201526024016106df565b600080546001600160a01b038381166001600160a01b0319831681178455604051919092169283917f8be0079c531659141344cd1fd0a4f28419497f9722a3daafe3b4186f6b6457e09190a35050565b60007f00000000000000000000000000000000000000000000000000000000000000006001600160a01b0316330361218a575060131936013560601c90565b503390565b6000602082840312156121a157600080fd5b5035919050565b80356001600160a01b03811681146121bf57600080fd5b919050565b6000602082840312156121d657600080fd5b6121df826121a8565b9392505050565b600080604083850312156121f957600080fd5b612202836121a8565b946020939093013593505050565b801515811461187457600080fd5b6000806040838503121561223157600080fd5b61223a836121a8565b9150602083013561224a81612210565b809150509250929050565b6020808252825182820181905260009190848201906040850190845b818110156122965783516001600160a01b031683529284019291840191600101612271565b50909695505050505050565b6000602082840312156122b457600080fd5b8135600381106121df57600080fd5b634e487b7160e01b600052602160045260246000fd5b60208101600383106122fb57634e487b7160e01b600052602160045260246000fd5b91905290565b600060e0828403121561231357600080fd5b60405160e0810181811067ffffffffffffffff8211171561234457634e487b7160e01b600052604160045260246000fd5b604052612350836121a8565b815261235e602084016121a8565b60208201526040830135604082015260608301356060820152612383608084016121a8565b608082015261239460a084016121a8565b60a08201526123a560c084016121a8565b60c08201529392505050565b60208082526022908201527f4f6e6c792073656c6c65722063616e2063616c6c20746869732066756e63746960408201526137b760f11b606082015260800190565b634e487b7160e01b600052603260045260246000fd5b634e487b7160e01b600052601160045260246000fd5b8181038181111561243257612432612409565b92915050565b60006020828403121561244a57600080fd5b81516121df81612210565b60008161246457612464612409565b506000190190565b8082018082111561243257612432612409565b808202811582820484141761243257612432612409565b6000826124b357634e487b7160e01b600052601260045260246000fd5b500490565b6000602082840312156124ca57600080fd5b505191905056fea264697066735822122037180d66e3221d7fa19162b352aae20ac5c26c641bc9100e4b10e2741499e96c64736f6c63430008190033","linkReferences":{}},"methodIdentifiers":{"Deposits(address)":"3ee2d7c2","auctionV1Addr()":"c6ec99ab","buyerWithdraw()":"7cc947d0","changeLotteryState(uint8)":"683e93e1","deposit(uint256)":"b6b55f25","deposits(address)":"fc7e286d","endLottery()":"1593a8c7","getDepositedAmount(address)":"e9081ec7","getParticipants()":"5aa68ac0","getWinners()":"df15c37e","hasMinted(address)":"38e21cce","initialPrice()":"1d0806ae","initialize((address,address,uint256,uint256,address,address,address))":"bc780845","initialized()":"158ef93e","isParticipant(address)":"929066f5","isTrustedForwarder(address)":"572b6c05","isWinner(address)":"9d9ca28d","lotteryState()":"6939864b","minimumDepositAmount()":"080c279a","mintMyNFT()":"26170480","multisigWalletAddress()":"a61fb2ba","nftContractAddr()":"2c23ec8e","numberOfTickets()":"45745c10","operators(address)":"13e7c9d8","owner()":"8da5cb5b","renounceOwnership()":"715018a6","selectWinners()":"1a0de74c","seller()":"08551a53","sellerWithdraw()":"66af746b","setAuctionV1Addr(address)":"c35344ad","setInitPrice(uint256)":"9bbe5e78","setMinimumDepositAmount(uint256)":"aab483d6","setMultisigWalletAddress(address)":"60d50da3","setNftContractAddr(address)":"3644c27c","setNumberOfTickets(uint256)":"99bd69d6","setOperator(address,bool)":"558a7297","setSeller(address)":"e99d2866","setUsdcContractAddr(address)":"94d898de","sortDepositsDesc()":"9abb8247","startLottery()":"160344e2","transferDeposit(address,uint256)":"50f3dbec","transferOwnership(address)":"f2fde38b","usdcContractAddr()":"99dbf4b5","winnerAddresses(uint256)":"045f9c97","winners(address)":"6bd5450a"},"id":3}