{"abi":[{"type":"function","name":"buyerWithdraw","inputs":[],"outputs":[],"stateMutability":"nonpayable"},{"type":"function","name":"changeLotteryState","inputs":[{"name":"_newState","type":"uint8","internalType":"enum AuctionV1Base.LotteryState"}],"outputs":[],"stateMutability":"nonpayable"},{"type":"function","name":"currentPrice","inputs":[],"outputs":[{"name":"","type":"uint256","internalType":"uint256"}],"stateMutability":"view"},{"type":"function","name":"deposit","inputs":[{"name":"amount","type":"uint256","internalType":"uint256"}],"outputs":[],"stateMutability":"payable"},{"type":"function","name":"deposits","inputs":[{"name":"","type":"address","internalType":"address"}],"outputs":[{"name":"","type":"uint256","internalType":"uint256"}],"stateMutability":"view"},{"type":"function","name":"eligibleParticipants","inputs":[{"name":"","type":"uint256","internalType":"uint256"}],"outputs":[{"name":"","type":"address","internalType":"address"}],"stateMutability":"view"},{"type":"function","name":"endLottery","inputs":[],"outputs":[],"stateMutability":"nonpayable"},{"type":"function","name":"fulfillRandomness","inputs":[{"name":"randomness","type":"uint256","internalType":"uint256"},{"name":"dataWithRound","type":"bytes","internalType":"bytes"}],"outputs":[],"stateMutability":"nonpayable"},{"type":"function","name":"getDepositedAmount","inputs":[{"name":"participant","type":"address","internalType":"address"}],"outputs":[{"name":"","type":"uint256","internalType":"uint256"}],"stateMutability":"view"},{"type":"function","name":"getEligibleParticipants","inputs":[],"outputs":[{"name":"","type":"address[]","internalType":"address[]"}],"stateMutability":"view"},{"type":"function","name":"getParticipants","inputs":[],"outputs":[{"name":"","type":"address[]","internalType":"address[]"}],"stateMutability":"view"},{"type":"function","name":"getRandomNumber","inputs":[],"outputs":[{"name":"","type":"uint256","internalType":"uint256"}],"stateMutability":"view"},{"type":"function","name":"getWinners","inputs":[],"outputs":[{"name":"","type":"address[]","internalType":"address[]"}],"stateMutability":"view"},{"type":"function","name":"hasMinted","inputs":[{"name":"","type":"address","internalType":"address"}],"outputs":[{"name":"","type":"bool","internalType":"bool"}],"stateMutability":"view"},{"type":"function","name":"increasePriceStep","inputs":[],"outputs":[{"name":"","type":"uint256","internalType":"uint256"}],"stateMutability":"view"},{"type":"function","name":"initialPrice","inputs":[],"outputs":[{"name":"","type":"uint256","internalType":"uint256"}],"stateMutability":"view"},{"type":"function","name":"initialize","inputs":[{"name":"config","type":"tuple","internalType":"struct StructsLibrary.ILotteryBaseConfig","components":[{"name":"_seller","type":"address","internalType":"address"},{"name":"_gelatoVrfOperator","type":"address","internalType":"address"},{"name":"_blessedOperator","type":"address","internalType":"address"},{"name":"_owner","type":"address","internalType":"address"},{"name":"_ticketAmount","type":"uint256","internalType":"uint256"},{"name":"_ticketPrice","type":"uint256","internalType":"uint256"},{"name":"_usdcContractAddr","type":"address","internalType":"address"},{"name":"_multisigWalletAddress","type":"address","internalType":"address"},{"name":"_prevPhaseContractAddr","type":"address","internalType":"address"}]}],"outputs":[],"stateMutability":"nonpayable"},{"type":"function","name":"initialized","inputs":[],"outputs":[{"name":"","type":"bool","internalType":"bool"}],"stateMutability":"view"},{"type":"function","name":"isParticipantEligible","inputs":[{"name":"participant","type":"address","internalType":"address"}],"outputs":[{"name":"","type":"bool","internalType":"bool"}],"stateMutability":"view"},{"type":"function","name":"isTrustedForwarder","inputs":[{"name":"forwarder","type":"address","internalType":"address"}],"outputs":[{"name":"","type":"bool","internalType":"bool"}],"stateMutability":"view"},{"type":"function","name":"isWinner","inputs":[{"name":"_participant","type":"address","internalType":"address"}],"outputs":[{"name":"","type":"bool","internalType":"bool"}],"stateMutability":"view"},{"type":"function","name":"lotteryState","inputs":[],"outputs":[{"name":"","type":"uint8","internalType":"enum AuctionV1Base.LotteryState"}],"stateMutability":"view"},{"type":"function","name":"lotteryV2Addr","inputs":[],"outputs":[{"name":"","type":"address","internalType":"address"}],"stateMutability":"view"},{"type":"function","name":"minimumDepositAmount","inputs":[],"outputs":[{"name":"","type":"uint256","internalType":"uint256"}],"stateMutability":"view"},{"type":"function","name":"mintMyNFT","inputs":[],"outputs":[],"stateMutability":"nonpayable"},{"type":"function","name":"multisigWalletAddress","inputs":[],"outputs":[{"name":"","type":"address","internalType":"address"}],"stateMutability":"view"},{"type":"function","name":"nftContractAddr","inputs":[],"outputs":[{"name":"","type":"address","internalType":"address"}],"stateMutability":"view"},{"type":"function","name":"numberOfTickets","inputs":[],"outputs":[{"name":"","type":"uint256","internalType":"uint256"}],"stateMutability":"view"},{"type":"function","name":"operatorAddr","inputs":[],"outputs":[{"name":"","type":"address","internalType":"address"}],"stateMutability":"view"},{"type":"function","name":"operators","inputs":[{"name":"","type":"address","internalType":"address"}],"outputs":[{"name":"","type":"bool","internalType":"bool"}],"stateMutability":"view"},{"type":"function","name":"owner","inputs":[],"outputs":[{"name":"","type":"address","internalType":"address"}],"stateMutability":"view"},{"type":"function","name":"prevRoundDeposits","inputs":[],"outputs":[{"name":"","type":"uint256","internalType":"uint256"}],"stateMutability":"view"},{"type":"function","name":"prevRoundTicketsAmount","inputs":[],"outputs":[{"name":"","type":"uint256","internalType":"uint256"}],"stateMutability":"view"},{"type":"function","name":"randomNumber","inputs":[],"outputs":[{"name":"","type":"uint256","internalType":"uint256"}],"stateMutability":"view"},{"type":"function","name":"renounceOwnership","inputs":[],"outputs":[],"stateMutability":"nonpayable"},{"type":"function","name":"requestPending","inputs":[{"name":"","type":"uint256","internalType":"uint256"}],"outputs":[{"name":"","type":"bool","internalType":"bool"}],"stateMutability":"view"},{"type":"function","name":"requestRandomness","inputs":[],"outputs":[],"stateMutability":"nonpayable"},{"type":"function","name":"requestedHash","inputs":[{"name":"","type":"uint256","internalType":"uint256"}],"outputs":[{"name":"","type":"bytes32","internalType":"bytes32"}],"stateMutability":"view"},{"type":"function","name":"roundCounter","inputs":[],"outputs":[{"name":"","type":"uint256","internalType":"uint256"}],"stateMutability":"view"},{"type":"function","name":"rounds","inputs":[{"name":"","type":"uint256","internalType":"uint256"}],"outputs":[{"name":"number","type":"uint256","internalType":"uint256"},{"name":"finishAt","type":"uint256","internalType":"uint256"},{"name":"numberOfTickets","type":"uint256","internalType":"uint256"},{"name":"lotteryStarted","type":"bool","internalType":"bool"},{"name":"winnersSelected","type":"bool","internalType":"bool"}],"stateMutability":"view"},{"type":"function","name":"selectWinners","inputs":[],"outputs":[],"stateMutability":"nonpayable"},{"type":"function","name":"seller","inputs":[],"outputs":[{"name":"","type":"address","internalType":"address"}],"stateMutability":"view"},{"type":"function","name":"sellerWithdraw","inputs":[],"outputs":[],"stateMutability":"nonpayable"},{"type":"function","name":"setCurrentPrice","inputs":[{"name":"_amount","type":"uint256","internalType":"uint256"}],"outputs":[],"stateMutability":"nonpayable"},{"type":"function","name":"setLotteryV2Addr","inputs":[{"name":"_lotteryV2Addr","type":"address","internalType":"address"}],"outputs":[],"stateMutability":"nonpayable"},{"type":"function","name":"setMultisigWalletAddress","inputs":[{"name":"_multisigWalletAddress","type":"address","internalType":"address"}],"outputs":[],"stateMutability":"nonpayable"},{"type":"function","name":"setNftContractAddr","inputs":[{"name":"_nftContractAddr","type":"address","internalType":"address"}],"outputs":[],"stateMutability":"nonpayable"},{"type":"function","name":"setNumberOfTickets","inputs":[{"name":"_numberOfTickets","type":"uint256","internalType":"uint256"}],"outputs":[],"stateMutability":"nonpayable"},{"type":"function","name":"setOperator","inputs":[{"name":"_operatorAddr","type":"address","internalType":"address"},{"name":"_flag","type":"bool","internalType":"bool"}],"outputs":[],"stateMutability":"nonpayable"},{"type":"function","name":"setPriceStep","inputs":[{"name":"_increasePriceStep","type":"uint256","internalType":"uint256"}],"outputs":[],"stateMutability":"nonpayable"},{"type":"function","name":"setSeller","inputs":[{"name":"_seller","type":"address","internalType":"address"}],"outputs":[],"stateMutability":"nonpayable"},{"type":"function","name":"setUsdcContractAddr","inputs":[{"name":"_usdcContractAddr","type":"address","internalType":"address"}],"outputs":[],"stateMutability":"nonpayable"},{"type":"function","name":"setWinner","inputs":[{"name":"_winner","type":"address","internalType":"address"}],"outputs":[],"stateMutability":"nonpayable"},{"type":"function","name":"setupNewRound","inputs":[{"name":"_finishAt","type":"uint256","internalType":"uint256"},{"name":"_numberOfTickets","type":"uint256","internalType":"uint256"}],"outputs":[],"stateMutability":"nonpayable"},{"type":"function","name":"startLottery","inputs":[],"outputs":[],"stateMutability":"nonpayable"},{"type":"function","name":"totalNumberOfTickets","inputs":[],"outputs":[{"name":"","type":"uint256","internalType":"uint256"}],"stateMutability":"view"},{"type":"function","name":"transferDeposit","inputs":[{"name":"_participant","type":"address","internalType":"address"},{"name":"_amount","type":"uint256","internalType":"uint256"}],"outputs":[],"stateMutability":"nonpayable"},{"type":"function","name":"transferNonWinnerBids","inputs":[{"name":"destinationAddr","type":"address","internalType":"address"}],"outputs":[],"stateMutability":"nonpayable"},{"type":"function","name":"transferOwnership","inputs":[{"name":"newOwner","type":"address","internalType":"address"}],"outputs":[],"stateMutability":"nonpayable"},{"type":"function","name":"usdcContractAddr","inputs":[],"outputs":[{"name":"","type":"address","internalType":"address"}],"stateMutability":"view"},{"type":"function","name":"winnerAddresses","inputs":[{"name":"","type":"uint256","internalType":"uint256"}],"outputs":[{"name":"","type":"address","internalType":"address"}],"stateMutability":"view"},{"type":"function","name":"winners","inputs":[{"name":"","type":"address","internalType":"address"}],"outputs":[{"name":"","type":"bool","internalType":"bool"}],"stateMutability":"view"},{"type":"event","name":"LotteryEnded","inputs":[],"anonymous":false},{"type":"event","name":"LotteryStarted","inputs":[],"anonymous":false},{"type":"event","name":"OwnershipTransferred","inputs":[{"name":"previousOwner","type":"address","indexed":true,"internalType":"address"},{"name":"newOwner","type":"address","indexed":true,"internalType":"address"}],"anonymous":false},{"type":"event","name":"RandomFullfiled","inputs":[{"name":"number","type":"uint256","indexed":false,"internalType":"uint256"}],"anonymous":false},{"type":"event","name":"RandomRequested","inputs":[{"name":"requester","type":"address","indexed":true,"internalType":"address"}],"anonymous":false},{"type":"event","name":"RequestedRandomness","inputs":[{"name":"round","type":"uint256","indexed":false,"internalType":"uint256"},{"name":"data","type":"bytes","indexed":false,"internalType":"bytes"}],"anonymous":false},{"type":"event","name":"WinnerSelected","inputs":[{"name":"winner","type":"address","indexed":true,"internalType":"address"}],"anonymous":false},{"type":"error","name":"OwnableInvalidOwner","inputs":[{"name":"owner","type":"address","internalType":"address"}]},{"type":"error","name":"OwnableUnauthorizedAccount","inputs":[{"name":"account","type":"address","internalType":"address"}]}],"bytecode":{"object":"0x60a06040526002805460ff60a01b1916905560016009819055600a556005600b5534801561002c57600080fd5b5073d8253782c45a12053594b9deb72d8e8ab2fca54c338061006857604051631e4fbdf760e01b81526000600482015260240160405180910390fd5b61007181610083565b506001600160a01b03166080526100d5565b600280546001600160a01b038381166001600160a01b0319831681179093556040519116919082907f8be0079c531659141344cd1fd0a4f28419497f9722a3daafe3b4186f6b6457e090600090a35050565b6080516134396100f76000396000818161066e0152612d1a01526134396000f3fe6080604052600436106103ac5760003560e01c80637de13382116101e7578063b680e44b1161010d578063df15c37e116100a0578063f3f18c371161006f578063f3f18c3714610b5b578063f8413b0714610b7b578063fc7e286d14610b90578063febc14b114610bbd57600080fd5b8063df15c37e14610ad0578063e9081ec714610ae5578063e99d286614610b1b578063f2fde38b14610b3b57600080fd5b8063ccbac9f5116100dc578063ccbac9f514610a65578063cf54d3b814610a7b578063d9fca76914610a9b578063dbdff2c114610abb57600080fd5b8063b680e44b146109ef578063b6b55f2514610a05578063b7a62e2414610a18578063c4f8f27b14610a3857600080fd5b806399dbf4b511610185578063a4f03c0211610154578063a4f03c021461096f578063a61fb2ba1461098f578063af94862c146109af578063b3f6b99a146109cf57600080fd5b806399dbf4b5146108eb5780639abdccd11461090b5780639d1b464a146109205780639d9ca28d1461093657600080fd5b80638da5cb5b116101c15780638da5cb5b1461087757806394d898de1461089557806396efac7b146108b557806399bd69d6146108cb57600080fd5b80637de13382146107bd5780638a6723e6146107dd5780638c65c81f146107fd57600080fd5b80633639eb2e116102d757806360d50da31161026a5780636bd5450a116102395780636bd5450a14610743578063715018a61461077357806375ce7fff146107885780637cc947d0146107a857600080fd5b806360d50da3146106c057806366af746b146106e0578063683e93e1146106f55780636939864b1461071557600080fd5b806350f3dbec116102a657806350f3dbec14610611578063558a729714610631578063572b6c05146106515780635aa68ac01461069e57600080fd5b80633639eb2e1461058b5780633644c27c146105ab57806338e21cce146105cb57806345745c10146105fb57600080fd5b8063160344e21161034f5780631d0806ae1161031e5780631d0806ae1461052a578063224f91bd1461054057806326170480146105565780632c23ec8e1461056b57600080fd5b8063160344e2146104c05780631630a8df146104d557806318b20071146104f55780631a0de74c1461051557600080fd5b806308551a531161038b57806308551a531461042857806313e7c9d814610448578063158ef93e146104885780631593a8c7146104a957600080fd5b8062746702146103b1578063045f9c97146103da578063080c279a14610412575b600080fd5b3480156103bd57600080fd5b506103c7600d5481565b6040519081526020015b60405180910390f35b3480156103e657600080fd5b506103fa6103f5366004612de3565b610bd3565b6040516001600160a01b0390911681526020016103d1565b34801561041e57600080fd5b506103c760065481565b34801561043457600080fd5b506004546103fa906001600160a01b031681565b34801561045457600080fd5b50610478610463366004612e18565b60156020526000908152604090205460ff1681565b60405190151581526020016103d1565b34801561049457600080fd5b5060025461047890600160a01b900460ff1681565b3480156104b557600080fd5b506104be610bfd565b005b3480156104cc57600080fd5b506104be610c4c565b3480156104e157600080fd5b506104be6104f0366004612e18565b610d4d565b34801561050157600080fd5b506104be610510366004612de3565b610f36565b34801561052157600080fd5b506104be610f85565b34801561053657600080fd5b506103c760085481565b34801561054c57600080fd5b506103c7600a5481565b34801561056257600080fd5b506104be611416565b34801561057757600080fd5b506018546103fa906001600160a01b031681565b34801561059757600080fd5b506104be6105a6366004612e18565b61157b565b3480156105b757600080fd5b506104be6105c6366004612e18565b6115d7565b3480156105d757600080fd5b506104786105e6366004612e18565b60106020526000908152604090205460ff1681565b34801561060757600080fd5b506103c7600c5481565b34801561061d57600080fd5b506104be61062c366004612e3a565b611601565b34801561063d57600080fd5b506104be61064c366004612e72565b611741565b34801561065d57600080fd5b5061047861066c366004612e18565b7f00000000000000000000000000000000000000000000000000000000000000006001600160a01b0390811691161490565b3480156106aa57600080fd5b506106b3611774565b6040516103d19190612ea9565b3480156106cc57600080fd5b506104be6106db366004612e18565b6117d6565b3480156106ec57600080fd5b506104be611800565b34801561070157600080fd5b506104be610710366004612ef6565b611a3a565b34801561072157600080fd5b5060025461073690600160a81b900460ff1681565b6040516103d19190612f2d565b34801561074f57600080fd5b5061047861075e366004612e18565b60146020526000908152604090205460ff1681565b34801561077f57600080fd5b506104be611aa1565b34801561079457600080fd5b506104786107a3366004612de3565b611ab3565b3480156107b457600080fd5b506104be611ae7565b3480156107c957600080fd5b50601a546103fa906001600160a01b031681565b3480156107e957600080fd5b506104786107f8366004612e18565b611cf5565b34801561080957600080fd5b5061084b610818366004612de3565b60116020526000908152604090208054600182015460028301546003909301549192909160ff8082169161010090041685565b60408051958652602086019490945292840191909152151560608301521515608082015260a0016103d1565b34801561088357600080fd5b506002546001600160a01b03166103fa565b3480156108a157600080fd5b506104be6108b0366004612e18565b611d54565b3480156108c157600080fd5b506103c7600b5481565b3480156108d757600080fd5b506104be6108e6366004612de3565b611d7e565b3480156108f757600080fd5b506019546103fa906001600160a01b031681565b34801561091757600080fd5b506106b3611e26565b34801561092c57600080fd5b506103c760075481565b34801561094257600080fd5b50610478610951366004612e18565b6001600160a01b031660009081526014602052604090205460ff1690565b34801561097b57600080fd5b506104be61098a366004612f55565b611e86565b34801561099b57600080fd5b506003546103fa906001600160a01b031681565b3480156109bb57600080fd5b506104be6109ca366004612de3565b612128565b3480156109db57600080fd5b506104be6109ea366004612f77565b612167565b3480156109fb57600080fd5b506103c760095481565b6104be610a13366004612de3565b61233b565b348015610a2457600080fd5b506103fa610a33366004612de3565b612654565b348015610a4457600080fd5b506103c7610a53366004612de3565b60016020526000908152604090205481565b348015610a7157600080fd5b506103c7600e5481565b348015610a8757600080fd5b506104be610a96366004613064565b612664565b348015610aa757600080fd5b506104be610ab6366004612e18565b61277e565b348015610ac757600080fd5b506103c761281e565b348015610adc57600080fd5b506106b3612875565b348015610af157600080fd5b506103c7610b00366004612e18565b6001600160a01b031660009081526013602052604090205490565b348015610b2757600080fd5b506104be610b36366004612e18565b6128d5565b348015610b4757600080fd5b506104be610b56366004612e18565b612931565b348015610b6757600080fd5b506005546103fa906001600160a01b031681565b348015610b8757600080fd5b506104be61296c565b348015610b9c57600080fd5b506103c7610bab366004612e18565b60136020526000908152604090205481565b348015610bc957600080fd5b506103c760125481565b60168181548110610be357600080fd5b6000918252602090912001546001600160a01b0316905081565b6004546001600160a01b0316610c11612a1a565b6001600160a01b031614610c405760405162461bcd60e51b8152600401610c379061310c565b60405180910390fd5b610c4a6002611a3a565b565b6004546001600160a01b0316610c60612a1a565b6001600160a01b031614610c865760405162461bcd60e51b8152600401610c379061310c565b6000600254600160a81b900460ff166004811115610ca657610ca6612f17565b1480610cce575060028054600160a81b900460ff166004811115610ccc57610ccc612f17565b145b610d1a5760405162461bcd60e51b815260206004820152601a60248201527f4c6f747465727920697320696e206163746976652073746174650000000000006044820152606401610c37565b610d246001611a3a565b610d2c612a29565b6012546000908152601160205260409020600301805460ff19166001179055565b6004546001600160a01b0316610d61612a1a565b6001600160a01b031614610d875760405162461bcd60e51b8152600401610c379061310c565b60005b600f54811015610f2657600060136000600f8481548110610dad57610dad61314e565b60009182526020808320909101546001600160a01b03168352820192909252604001812054600f805491935060139183919086908110610def57610def61314e565b6000918252602080832091909101546001600160a01b039081168452908301939093526040918201902092909255601954915163a9059cbb60e01b815285821660048201526024810184905291169063a9059cbb906044016020604051808303816000875af1158015610e66573d6000803e3d6000fd5b505050506040513d601f19601f82011682018060405250810190610e8a9190613164565b50826001600160a01b03166350f3dbec600f8481548110610ead57610ead61314e565b60009182526020909120015460405160e083901b6001600160e01b03191681526001600160a01b03909116600482015260248101849052604401600060405180830381600087803b158015610f0157600080fd5b505af1158015610f15573d6000803e3d6000fd5b505060019093019250610d8a915050565b50610f33600f6000612db1565b50565b6004546001600160a01b0316610f4a612a1a565b6001600160a01b031614610f705760405162461bcd60e51b8152600401610c379061310c565b600854600003610f805760088190555b600755565b6004546001600160a01b0316610f99612a1a565b6001600160a01b031614610fbf5760405162461bcd60e51b8152600401610c379061310c565b6000600c54116110115760405162461bcd60e51b815260206004820152601b60248201527f4e6f207469636b657473206c65667420746f20616c6c6f6361746500000000006044820152606401610c37565b6002805460ff60a81b1916600160a81b17905561102c612a29565b600f54600c54106110f45760005b600f548110156110dd576000600f82815481106110595761105961314e565b6000918252602090912001546001600160a01b03169050611092816001600160a01b031660009081526014602052604090205460ff1690565b6110d45761109f8161277e565b6040516001600160a01b038216907f1d4c260f1824cd028e6c9e6e31c3a0b94f2513e7a641113ec759d382f9bdd5a190600090a25b5060010161103a565b506110ea600f6000612db1565b6000600c55611395565b60005b600f5481101561120f57600f54600090611112908390613197565b600e5461111f91906131c6565b61112990836131da565b90506000600f82815481106111405761114061314e565b600091825260209091200154600f80546001600160a01b039092169250908490811061116e5761116e61314e565b600091825260209091200154600f80546001600160a01b03909216918490811061119a5761119a61314e565b9060005260206000200160006101000a8154816001600160a01b0302191690836001600160a01b0316021790555080600f84815481106111dc576111dc61314e565b600091825260209091200180546001600160a01b0319166001600160a01b039290921691909117905550506001016110f7565b5060005b600c548110156112b6576000600f82815481106112325761123261314e565b6000918252602090912001546001600160a01b0316905061126b816001600160a01b031660009081526014602052604090205460ff1690565b6112ad576112788161277e565b6040516001600160a01b038216907f1d4c260f1824cd028e6c9e6e31c3a0b94f2513e7a641113ec759d382f9bdd5a190600090a25b50600101611213565b50600c546000905b600f5481101561134557600f81815481106112db576112db61314e565b600091825260209091200154600f80546001600160a01b0390921691849081106113075761130761314e565b600091825260209091200180546001600160a01b0319166001600160a01b03929092169190911790558161133a816131ed565b9250506001016112be565b50805b600f5481101561138d57600f80548061136357611363613206565b600082815260209020810160001990810180546001600160a01b0319169055019055600101611348565b50506000600c555b600d546000036113c9576040517f9c89a6ed7228533196a3f962acc80d61a9c53bdea6b910741bf754f5aaa7569e90600090a15b60016011600060016012546113de9190613197565b8152602081019190915260400160002060030180549115156101000261ff00199092169190911790556002805460ff60a81b19169055565b611421610951612a1a565b6114665760405162461bcd60e51b815260206004820152601660248201527521b0b63632b91034b9903737ba1030903bb4b73732b960511b6044820152606401610c37565b60106000611472612a1a565b6001600160a01b0316815260208101919091526040016000205460ff16156114d15760405162461bcd60e51b815260206004820152601260248201527113919508185b1c9958591e481b5a5b9d195960721b6044820152606401610c37565b6018546001600160a01b0316636b8f60f66114ea612a1a565b6040516001600160e01b031960e084901b1681526001600160a01b039091166004820152602401600060405180830381600087803b15801561152b57600080fd5b505af115801561153f573d6000803e3d6000fd5b50505050600160106000611551612a1a565b6001600160a01b031681526020810191909152604001600020805460ff1916911515919091179055565b6004546001600160a01b031661158f612a1a565b6001600160a01b0316146115b55760405162461bcd60e51b8152600401610c379061310c565b601a80546001600160a01b0319166001600160a01b0392909216919091179055565b6115df612b28565b601880546001600160a01b0319166001600160a01b0392909216919091179055565b611609612a1a565b601a546001600160a01b039081169116146116765760405162461bcd60e51b815260206004820152602760248201527f4f6e6c792077686974656c6973746564206d61792063616c6c207468697320666044820152663ab731ba34b7b760c91b6064820152608401610c37565b60136000611682612a1a565b6001600160a01b03166001600160a01b03168152602001908152602001600020546000036116f657601780546001810182556000919091527fc624b66cc0138b8fabc209247f72d758e1cf3343756d543badbf24212bed8c150180546001600160a01b0319166001600160a01b0384161790555b6001600160a01b0382166000908152601360205260408120805483929061171e9084906131da565b9250508190555060016009600082825461173891906131da565b90915550505050565b611749612b28565b6001600160a01b03919091166000908152601560205260409020805460ff1916911515919091179055565b606060178054806020026020016040519081016040528092919081815260200182805480156117cc57602002820191906000526020600020905b81546001600160a01b031681526001909101906020018083116117ae575b5050505050905090565b6117de612b28565b600380546001600160a01b0319166001600160a01b0392909216919091179055565b6004546001600160a01b0316611814612a1a565b6001600160a01b03161461183a5760405162461bcd60e51b8152600401610c379061310c565b60028054600160a81b900460ff16600481111561185957611859612f17565b1461189a5760405162461bcd60e51b8152602060048201526011602482015270131bdd1d195c9e481b9bdd08195b991959607a1b6044820152606401610c37565b6000805b601654811015611913576000601682815481106118bd576118bd61314e565b60009182526020808320909101546001600160a01b031680835260139091526040909120549091506118ef90846131da565b6001600160a01b03909116600090815260136020526040812055915060010161189e565b506000606461192383600561321c565b61192d9190613233565b9050600061193b8284613197565b60195460035460405163a9059cbb60e01b81526001600160a01b03918216600482015260248101869052929350169063a9059cbb906044016020604051808303816000875af1158015611992573d6000803e3d6000fd5b505050506040513d601f19601f820116820180604052508101906119b69190613164565b506019546004805460405163a9059cbb60e01b81526001600160a01b0391821692810192909252602482018490529091169063a9059cbb906044016020604051808303816000875af1158015611a10573d6000803e3d6000fd5b505050506040513d601f19601f82011682018060405250810190611a349190613164565b50505050565b6004546001600160a01b0316611a4e612a1a565b6001600160a01b031614611a745760405162461bcd60e51b8152600401610c379061310c565b6002805482919060ff60a81b1916600160a81b836004811115611a9957611a99612f17565b021790555050565b611aa9612b28565b610c4a6000612b86565b60008181548110611ac357600080fd5b9060005260206000209060209182820401919006915054906101000a900460ff1681565b6001600254600160a81b900460ff166004811115611b0757611b07612f17565b03611b545760405162461bcd60e51b815260206004820152601b60248201527f4c6f74746572792069732063757272656e746c792061637469766500000000006044820152606401610c37565b60146000611b60612a1a565b6001600160a01b0316815260208101919091526040016000205460ff1615611bca5760405162461bcd60e51b815260206004820152601760248201527f57696e6e6572732063616e6e6f742077697468647261770000000000000000006044820152606401610c37565b600060136000611bd8612a1a565b6001600160a01b03166001600160a01b0316815260200190815260200160002054905060008111611c425760405162461bcd60e51b81526020600482015260146024820152734e6f2066756e647320746f20776974686472617760601b6044820152606401610c37565b600060136000611c50612a1a565b6001600160a01b0390811682526020820192909252604001600020919091556019541663a9059cbb611c80612a1a565b6040516001600160e01b031960e084901b1681526001600160a01b039091166004820152602481018490526044016020604051808303816000875af1158015611ccd573d6000803e3d6000fd5b505050506040513d601f19601f82011682018060405250810190611cf19190613164565b5050565b6000805b600f54811015611d4b57826001600160a01b0316600f8281548110611d2057611d2061314e565b6000918252602090912001546001600160a01b031603611d435750600192915050565b600101611cf9565b50600092915050565b611d5c612b28565b601980546001600160a01b0319166001600160a01b0392909216919091179055565b6004546001600160a01b0316611d92612a1a565b6001600160a01b031614611db85760405162461bcd60e51b8152600401610c379061310c565b60008111611e1c5760405162461bcd60e51b815260206004820152602b60248201527f4e756d626572206f66207469636b657473206d7573742062652067726561746560448201526a72207468616e207a65726f60a81b6064820152608401610c37565b600c819055600a55565b6060600f8054806020026020016040519081016040528092919081815260200182805480156117cc576020028201919060005260206000209081546001600160a01b031681526001909101906020018083116117ae575050505050905090565b6004546001600160a01b0316611e9a612a1a565b6001600160a01b03161480611ec957506002546001600160a01b0316611ebe612a1a565b6001600160a01b0316145b80611ef9575060156000611edb612a1a565b6001600160a01b0316815260208101919091526040016000205460ff165b611f515760405162461bcd60e51b8152602060048201526024808201527f4f6e6c79206f70657261746f722063616e2063616c6c20746869732066756e636044820152633a34b7b760e11b6064820152608401610c37565b600d54811115611fde5760405162461bcd60e51b815260206004820152604c60248201527f5469636b6574732070657220726f756e642063616e6e6f74206265206869676860448201527f6572207468616e20746f74616c206e756d626572206f66207469636b6574732060648201526b696e2041756374696f6e563160a01b608482015260a401610c37565b6000600c546009541061201c57600a54600954611ffb9190613233565b600b54612008919061321c565b60075461201591906131da565b905061206f565b6000600a5460095461202e9190613233565b612039906001613197565b600b54612046919061321c565b905080600754111561206757806007546120609190613197565b915061206d565b60085491505b505b600781905560006009819055600c839055600a839055600d8054849290612097908490613197565b90915550506040805160a08101825260128054808352602080840188815284860188815260006060870181815260808801828152958252601190945296872095518655905160018601555160028501555160039093018054915161ffff1990921693151561ff00191693909317610100911515919091021790915580549161211e836131ed565b9190505550505050565b6004546001600160a01b031661213c612a1a565b6001600160a01b0316146121625760405162461bcd60e51b8152600401610c379061310c565b600b55565b6005546001600160a01b031633146121b15760405162461bcd60e51b815260206004820152600d60248201526c37b7363c9037b832b930ba37b960991b6044820152606401610c37565b60006121bf8284018461326f565b915050600080828060200190518101906121d9919061331d565b91509150600085856040516121ef9291906133a0565b60408051918290039091206000858152600160205291822054825491935083149190859081106122215761222161314e565b90600052602060002090602091828204019190069054906101000a900460ff1661228d5760405162461bcd60e51b815260206004820152601c60248201527f726571756573742066756c66696c6c6564206f72206d697373696e67000000006044820152606401610c37565b80156123315760408051602081018a905230918101919091524660608201526080810185905260a0016040516020818303038152906040528051906020012060001c97506122dc888585612bd8565b60008085815481106122f0576122f061314e565b90600052602060002090602091828204019190066101000a81548160ff02191690831515021790555060016000858152602001908152602001600020600090555b5050505050505050565b612346610951612a1a565b1561238c5760405162461bcd60e51b815260206004820152601660248201527515da5b9b995c9cc818d85b9b9bdd0819195c1bdcda5d60521b6044820152606401610c37565b6019546001600160a01b03166123e45760405162461bcd60e51b815260206004820152601d60248201527f5553444320636f6e74726163742061646472657373206e6f74207365740000006044820152606401610c37565b600081116124245760405162461bcd60e51b815260206004820152600d60248201526c139bc8199d5b991cc81cd95b9d609a1b6044820152606401610c37565b60195481906001600160a01b031663dd62ed3e61243f612a1a565b6040516001600160e01b031960e084901b1681526001600160a01b039091166004820152306024820152604401602060405180830381865afa158015612489573d6000803e3d6000fd5b505050506040513d601f19601f820116820180604052508101906124ad91906133b0565b10156124f45760405162461bcd60e51b8152602060048201526016602482015275496e73756666696369656e7420616c6c6f77616e636560501b6044820152606401610c37565b6019546001600160a01b03166323b872dd61250d612a1a565b6040516001600160e01b031960e084901b1681526001600160a01b039091166004820152306024820152604481018490526064016020604051808303816000875af1158015612560573d6000803e3d6000fd5b505050506040513d601f19601f820116820180604052508101906125849190613164565b5060136000612591612a1a565b6001600160a01b03166001600160a01b03168152602001908152602001600020546000036125f65760176125c3612a1a565b81546001810183556000928352602090922090910180546001600160a01b0319166001600160a01b039092169190911790555b8060136000612603612a1a565b6001600160a01b03166001600160a01b03168152602001908152602001600020600082825461263291906131da565b9250508190555060016009600082825461264c91906131da565b909155505050565b600f8181548110610be357600080fd5b600254600160a01b900460ff16156126b45760405162461bcd60e51b8152602060048201526013602482015272105b1c9958591e481a5b9a5d1a585b1a5e9959606a1b6044820152606401610c37565b6040810151600480546001600160a01b039283166001600160a01b03199182161790915560208301516005805491909316911617905560608101516126f890612b86565b6080810151600d5560a0810151600c819055600a8190556006819055600781905560085560c0810151601980546001600160a01b03199081166001600160a01b039384161790915560e083015160038054831691841691909117905561010090920151601a8054909316911617905560028054600160a01b60ff60a01b19909116179055565b6004546001600160a01b0316612792612a1a565b6001600160a01b0316146127b85760405162461bcd60e51b8152600401610c379061310c565b6001600160a01b03166000818152601460205260408120805460ff191660019081179091556016805491820181559091527fd833147d7dc355ba459fc788f669e58cfaf9dc25ddcd0702e87d69c7b51242890180546001600160a01b0319169091179055565b6000424461282a612a1a565b6040805160208101949094528301919091526bffffffffffffffffffffffff19606091821b16908201526074016040516020818303038152906040528051906020012060001c905090565b606060168054806020026020016040519081016040528092919081815260200182805480156117cc576020028201919060005260206000209081546001600160a01b031681526001909101906020018083116117ae575050505050905090565b6004546001600160a01b03166128e9612a1a565b6001600160a01b03161461290f5760405162461bcd60e51b8152600401610c379061310c565b600480546001600160a01b0319166001600160a01b0392909216919091179055565b612939612b28565b6001600160a01b03811661296357604051631e4fbdf760e01b815260006004820152602401610c37565b610f3381612b86565b6004546001600160a01b0316612980612a1a565b6001600160a01b0316146129a65760405162461bcd60e51b8152600401610c379061310c565b6129da6129b1612a1a565b604080516001600160a01b03909216602083015201604051602081830303815290604052612c15565b506129e3612a1a565b6001600160a01b03167fd802e7c7f1646e3318c03abed1e468bdf913f45331a68dc912a0d645eb646a4260405160405180910390a2565b6000612a24612d16565b905090565b612a35600f6000612db1565b60005b601754811015610f335760006013600060178481548110612a5b57612a5b61314e565b60009182526020808320909101546001600160a01b031683528201929092526040019020546007549091508110612b1f57612aca60178381548110612aa257612aa261314e565b60009182526020808320909101546001600160a01b0316825260149052604090205460ff1690565b612b1f57600f60178381548110612ae357612ae361314e565b60009182526020808320909101548354600181018555938352912090910180546001600160a01b0319166001600160a01b039092169190911790555b50600101612a38565b612b30612a1a565b6001600160a01b0316612b4b6002546001600160a01b031690565b6001600160a01b031614610c4a57612b61612a1a565b60405163118cdaa760e01b81526001600160a01b039091166004820152602401610c37565b600280546001600160a01b038381166001600160a01b0319831681179093556040519116919082907f8be0079c531659141344cd1fd0a4f28419497f9722a3daafe3b4186f6b6457e090600090a35050565b600e8390556040518381527fa2353d33775668d31add0688b8ed09ca3a91dc8129126fcdbcbda3a887db60db9060200160405180910390a1505050565b6000805460018082018084558380529192909183908110612c3857612c3861314e565b90600052602060002090602091828204019190066101000a81548160ff02191690831515021790555060008183604051602001612c769291906133c9565b60405160208183030381529060405290506000612c91612d5a565b905060008183604051602001612ca89291906133c9565b60408051601f198184030181528282528051602080830191909120600089815260019092529290208290559250907fd91fc3685b930310b008ec37d2334870cab88a023ed8cc628a2e2ccd4e55d20290612d0590859087906133c9565b60405180910390a150505050919050565b60007f00000000000000000000000000000000000000000000000000000000000000006001600160a01b03163303612d55575060131936013560601c90565b503390565b600080612d6b6364e6212742613197565b90506000612d7a600383613233565b612d859060016131da565b905046600114612d9f57612d9a8160016131da565b612daa565b612daa8160046131da565b9250505090565b5080546000825590600052602060002090810190610f3391905b80821115612ddf5760008155600101612dcb565b5090565b600060208284031215612df557600080fd5b5035919050565b80356001600160a01b0381168114612e1357600080fd5b919050565b600060208284031215612e2a57600080fd5b612e3382612dfc565b9392505050565b60008060408385031215612e4d57600080fd5b612e5683612dfc565b946020939093013593505050565b8015158114610f3357600080fd5b60008060408385031215612e8557600080fd5b612e8e83612dfc565b91506020830135612e9e81612e64565b809150509250929050565b6020808252825182820181905260009190848201906040850190845b81811015612eea5783516001600160a01b031683529284019291840191600101612ec5565b50909695505050505050565b600060208284031215612f0857600080fd5b813560058110612e3357600080fd5b634e487b7160e01b600052602160045260246000fd5b6020810160058310612f4f57634e487b7160e01b600052602160045260246000fd5b91905290565b60008060408385031215612f6857600080fd5b50508035926020909101359150565b600080600060408486031215612f8c57600080fd5b83359250602084013567ffffffffffffffff80821115612fab57600080fd5b818601915086601f830112612fbf57600080fd5b813581811115612fce57600080fd5b876020828501011115612fe057600080fd5b6020830194508093505050509250925092565b634e487b7160e01b600052604160045260246000fd5b604051610120810167ffffffffffffffff8111828210171561302d5761302d612ff3565b60405290565b604051601f8201601f1916810167ffffffffffffffff8111828210171561305c5761305c612ff3565b604052919050565b6000610120828403121561307757600080fd5b61307f613009565b61308883612dfc565b815261309660208401612dfc565b60208201526130a760408401612dfc565b60408201526130b860608401612dfc565b60608201526080830135608082015260a083013560a08201526130dd60c08401612dfc565b60c08201526130ee60e08401612dfc565b60e0820152610100613101818501612dfc565b908201529392505050565b60208082526022908201527f4f6e6c792073656c6c65722063616e2063616c6c20746869732066756e63746960408201526137b760f11b606082015260800190565b634e487b7160e01b600052603260045260246000fd5b60006020828403121561317657600080fd5b8151612e3381612e64565b634e487b7160e01b600052601160045260246000fd5b818103818111156131aa576131aa613181565b92915050565b634e487b7160e01b600052601260045260246000fd5b6000826131d5576131d56131b0565b500690565b808201808211156131aa576131aa613181565b6000600182016131ff576131ff613181565b5060010190565b634e487b7160e01b600052603160045260246000fd5b80820281158282048414176131aa576131aa613181565b600082613242576132426131b0565b500490565b600067ffffffffffffffff82111561326157613261612ff3565b50601f01601f191660200190565b6000806040838503121561328257600080fd5b82359150602083013567ffffffffffffffff8111156132a057600080fd5b8301601f810185136132b157600080fd5b80356132c46132bf82613247565b613033565b8181528660208385010111156132d957600080fd5b816020840160208301376000602083830101528093505050509250929050565b60005b838110156133145781810151838201526020016132fc565b50506000910152565b6000806040838503121561333057600080fd5b82519150602083015167ffffffffffffffff81111561334e57600080fd5b8301601f8101851361335f57600080fd5b805161336d6132bf82613247565b81815286602083850101111561338257600080fd5b6133938260208301602086016132f9565b8093505050509250929050565b8183823760009101908152919050565b6000602082840312156133c257600080fd5b5051919050565b82815260406020820152600082518060408401526133ee8160608501602087016132f9565b601f01601f191691909101606001939250505056fea2646970667358221220352bd09183cff679eef2c87677a356d3ac15a43c9e753e70b1f979adb961c17164736f6c63430008190033","linkReferences":{}},"methodIdentifiers":{"buyerWithdraw()":"7cc947d0","changeLotteryState(uint8)":"683e93e1","currentPrice()":"9d1b464a","deposit(uint256)":"b6b55f25","deposits(address)":"fc7e286d","eligibleParticipants(uint256)":"b7a62e24","endLottery()":"1593a8c7","fulfillRandomness(uint256,bytes)":"b3f6b99a","getDepositedAmount(address)":"e9081ec7","getEligibleParticipants()":"9abdccd1","getParticipants()":"5aa68ac0","getRandomNumber()":"dbdff2c1","getWinners()":"df15c37e","hasMinted(address)":"38e21cce","increasePriceStep()":"96efac7b","initialPrice()":"1d0806ae","initialize((address,address,address,address,uint256,uint256,address,address,address))":"cf54d3b8","initialized()":"158ef93e","isParticipantEligible(address)":"8a6723e6","isTrustedForwarder(address)":"572b6c05","isWinner(address)":"9d9ca28d","lotteryState()":"6939864b","lotteryV2Addr()":"7de13382","minimumDepositAmount()":"080c279a","mintMyNFT()":"26170480","multisigWalletAddress()":"a61fb2ba","nftContractAddr()":"2c23ec8e","numberOfTickets()":"45745c10","operatorAddr()":"f3f18c37","operators(address)":"13e7c9d8","owner()":"8da5cb5b","prevRoundDeposits()":"b680e44b","prevRoundTicketsAmount()":"224f91bd","randomNumber()":"ccbac9f5","renounceOwnership()":"715018a6","requestPending(uint256)":"75ce7fff","requestRandomness()":"f8413b07","requestedHash(uint256)":"c4f8f27b","roundCounter()":"febc14b1","rounds(uint256)":"8c65c81f","selectWinners()":"1a0de74c","seller()":"08551a53","sellerWithdraw()":"66af746b","setCurrentPrice(uint256)":"18b20071","setLotteryV2Addr(address)":"3639eb2e","setMultisigWalletAddress(address)":"60d50da3","setNftContractAddr(address)":"3644c27c","setNumberOfTickets(uint256)":"99bd69d6","setOperator(address,bool)":"558a7297","setPriceStep(uint256)":"af94862c","setSeller(address)":"e99d2866","setUsdcContractAddr(address)":"94d898de","setWinner(address)":"d9fca769","setupNewRound(uint256,uint256)":"a4f03c02","startLottery()":"160344e2","totalNumberOfTickets()":"00746702","transferDeposit(address,uint256)":"50f3dbec","transferNonWinnerBids(address)":"1630a8df","transferOwnership(address)":"f2fde38b","usdcContractAddr()":"99dbf4b5","winnerAddresses(uint256)":"045f9c97","winners(address)":"6bd5450a"},"id":5}