{"abi":[{"type":"function","name":"buyerWithdraw","inputs":[],"outputs":[],"stateMutability":"nonpayable"},{"type":"function","name":"changeLotteryState","inputs":[{"name":"_newState","type":"uint8","internalType":"enum SaleBase.LotteryState"}],"outputs":[],"stateMutability":"nonpayable"},{"type":"function","name":"deposit","inputs":[{"name":"amount","type":"uint256","internalType":"uint256"}],"outputs":[],"stateMutability":"nonpayable"},{"type":"function","name":"deposits","inputs":[{"name":"","type":"address","internalType":"address"}],"outputs":[{"name":"","type":"uint256","internalType":"uint256"}],"stateMutability":"view"},{"type":"function","name":"endLottery","inputs":[],"outputs":[],"stateMutability":"nonpayable"},{"type":"function","name":"fulfillRandomness","inputs":[{"name":"randomness","type":"uint256","internalType":"uint256"},{"name":"dataWithRound","type":"bytes","internalType":"bytes"}],"outputs":[],"stateMutability":"nonpayable"},{"type":"function","name":"getDepositedAmount","inputs":[{"name":"participant","type":"address","internalType":"address"},{"name":"roundIndex","type":"uint256","internalType":"uint256"}],"outputs":[{"name":"","type":"uint256","internalType":"uint256"}],"stateMutability":"view"},{"type":"function","name":"getDepositedAmount","inputs":[{"name":"participant","type":"address","internalType":"address"}],"outputs":[{"name":"","type":"uint256","internalType":"uint256"}],"stateMutability":"view"},{"type":"function","name":"getParticipants","inputs":[],"outputs":[{"name":"","type":"address[]","internalType":"address[]"}],"stateMutability":"view"},{"type":"function","name":"getParticipants","inputs":[{"name":"roundIndex","type":"uint256","internalType":"uint256"}],"outputs":[{"name":"","type":"address[]","internalType":"address[]"}],"stateMutability":"view"},{"type":"function","name":"getWinners","inputs":[],"outputs":[{"name":"","type":"address[]","internalType":"address[]"}],"stateMutability":"view"},{"type":"function","name":"hasMinted","inputs":[{"name":"","type":"address","internalType":"address"}],"outputs":[{"name":"","type":"bool","internalType":"bool"}],"stateMutability":"view"},{"type":"function","name":"increasePriceStep","inputs":[],"outputs":[{"name":"","type":"uint256","internalType":"uint256"}],"stateMutability":"view"},{"type":"function","name":"initialPrice","inputs":[],"outputs":[{"name":"","type":"uint256","internalType":"uint256"}],"stateMutability":"view"},{"type":"function","name":"initialize","inputs":[{"name":"config","type":"tuple","internalType":"struct StructsLibrary.IAuctionV1BaseConfig","components":[{"name":"_seller","type":"address","internalType":"address"},{"name":"_gelatoVrfOperator","type":"address","internalType":"address"},{"name":"_owner","type":"address","internalType":"address"},{"name":"_ticketAmount","type":"uint256","internalType":"uint256"},{"name":"_ticketPrice","type":"uint256","internalType":"uint256"},{"name":"_priceIncreaseStep","type":"uint256","internalType":"uint256"},{"name":"_usdcContractAddr","type":"address","internalType":"address"},{"name":"_nftContractAddr","type":"address","internalType":"address"},{"name":"_multisigWalletAddress","type":"address","internalType":"address"},{"name":"_prevPhaseContractAddr","type":"address","internalType":"address"}]}],"outputs":[],"stateMutability":"nonpayable"},{"type":"function","name":"isTrustedForwarder","inputs":[{"name":"forwarder","type":"address","internalType":"address"}],"outputs":[{"name":"","type":"bool","internalType":"bool"}],"stateMutability":"view"},{"type":"function","name":"isWinner","inputs":[{"name":"_participant","type":"address","internalType":"address"}],"outputs":[{"name":"","type":"bool","internalType":"bool"}],"stateMutability":"view"},{"type":"function","name":"lotteryState","inputs":[],"outputs":[{"name":"","type":"uint8","internalType":"enum SaleBase.LotteryState"}],"stateMutability":"view"},{"type":"function","name":"lotteryV2Addr","inputs":[],"outputs":[{"name":"","type":"address","internalType":"address"}],"stateMutability":"view"},{"type":"function","name":"mintMyNFT","inputs":[],"outputs":[],"stateMutability":"nonpayable"},{"type":"function","name":"multisigWalletAddress","inputs":[],"outputs":[{"name":"","type":"address","internalType":"address"}],"stateMutability":"view"},{"type":"function","name":"nftContractAddr","inputs":[],"outputs":[{"name":"","type":"address","internalType":"address"}],"stateMutability":"view"},{"type":"function","name":"numberOfTickets","inputs":[],"outputs":[{"name":"","type":"uint256","internalType":"uint256"}],"stateMutability":"view"},{"type":"function","name":"operatorAddr","inputs":[],"outputs":[{"name":"","type":"address","internalType":"address"}],"stateMutability":"view"},{"type":"function","name":"operators","inputs":[{"name":"","type":"address","internalType":"address"}],"outputs":[{"name":"","type":"bool","internalType":"bool"}],"stateMutability":"view"},{"type":"function","name":"owner","inputs":[],"outputs":[{"name":"","type":"address","internalType":"address"}],"stateMutability":"view"},{"type":"function","name":"prevRoundDeposits","inputs":[],"outputs":[{"name":"","type":"uint256","internalType":"uint256"}],"stateMutability":"view"},{"type":"function","name":"prevRoundTicketsAmount","inputs":[],"outputs":[{"name":"","type":"uint256","internalType":"uint256"}],"stateMutability":"view"},{"type":"function","name":"renounceOwnership","inputs":[],"outputs":[],"stateMutability":"nonpayable"},{"type":"function","name":"requestPending","inputs":[{"name":"","type":"uint256","internalType":"uint256"}],"outputs":[{"name":"","type":"bool","internalType":"bool"}],"stateMutability":"view"},{"type":"function","name":"requestRandomness","inputs":[],"outputs":[],"stateMutability":"nonpayable"},{"type":"function","name":"requestedHash","inputs":[{"name":"","type":"uint256","internalType":"uint256"}],"outputs":[{"name":"","type":"bytes32","internalType":"bytes32"}],"stateMutability":"view"},{"type":"function","name":"roundCounter","inputs":[],"outputs":[{"name":"","type":"uint256","internalType":"uint256"}],"stateMutability":"view"},{"type":"function","name":"rounds","inputs":[{"name":"","type":"uint256","internalType":"uint256"}],"outputs":[{"name":"number","type":"uint256","internalType":"uint256"},{"name":"finishAt","type":"uint256","internalType":"uint256"},{"name":"numberOfTickets","type":"uint256","internalType":"uint256"},{"name":"randomNumber","type":"uint256","internalType":"uint256"},{"name":"lotteryStarted","type":"bool","internalType":"bool"},{"name":"lotteryFinished","type":"bool","internalType":"bool"},{"name":"winnersSelected","type":"bool","internalType":"bool"}],"stateMutability":"view"},{"type":"function","name":"selectWinners","inputs":[],"outputs":[],"stateMutability":"nonpayable"},{"type":"function","name":"seller","inputs":[],"outputs":[{"name":"","type":"address","internalType":"address"}],"stateMutability":"view"},{"type":"function","name":"sellerWithdraw","inputs":[],"outputs":[],"stateMutability":"nonpayable"},{"type":"function","name":"setOperator","inputs":[{"name":"_operatorAddr","type":"address","internalType":"address"},{"name":"_flag","type":"bool","internalType":"bool"}],"outputs":[],"stateMutability":"nonpayable"},{"type":"function","name":"setSeller","inputs":[{"name":"_seller","type":"address","internalType":"address"}],"outputs":[],"stateMutability":"nonpayable"},{"type":"function","name":"setupNewRound","inputs":[{"name":"_finishAt","type":"uint256","internalType":"uint256"},{"name":"_numberOfTickets","type":"uint256","internalType":"uint256"}],"outputs":[],"stateMutability":"nonpayable"},{"type":"function","name":"startLottery","inputs":[],"outputs":[],"stateMutability":"nonpayable"},{"type":"function","name":"ticketPrice","inputs":[],"outputs":[{"name":"","type":"uint256","internalType":"uint256"}],"stateMutability":"view"},{"type":"function","name":"totalNumberOfTickets","inputs":[],"outputs":[{"name":"","type":"uint256","internalType":"uint256"}],"stateMutability":"view"},{"type":"function","name":"transferDeposit","inputs":[{"name":"_participant","type":"address","internalType":"address"},{"name":"_amount","type":"uint256","internalType":"uint256"}],"outputs":[],"stateMutability":"nonpayable"},{"type":"function","name":"transferNonWinnerBids","inputs":[{"name":"destinationAddr","type":"address","internalType":"address"}],"outputs":[],"stateMutability":"nonpayable"},{"type":"function","name":"transferOwnership","inputs":[{"name":"newOwner","type":"address","internalType":"address"}],"outputs":[],"stateMutability":"nonpayable"},{"type":"function","name":"usdcContractAddr","inputs":[],"outputs":[{"name":"","type":"address","internalType":"address"}],"stateMutability":"view"},{"type":"function","name":"winnerAddresses","inputs":[{"name":"","type":"uint256","internalType":"uint256"}],"outputs":[{"name":"","type":"address","internalType":"address"}],"stateMutability":"view"},{"type":"function","name":"winners","inputs":[{"name":"","type":"address","internalType":"address"}],"outputs":[{"name":"","type":"bool","internalType":"bool"}],"stateMutability":"view"},{"type":"event","name":"BuyerDeposited","inputs":[{"name":"buyer","type":"address","indexed":true,"internalType":"address"},{"name":"amount","type":"uint256","indexed":true,"internalType":"uint256"}],"anonymous":false},{"type":"event","name":"BuyerWithdrew","inputs":[{"name":"buyer","type":"address","indexed":true,"internalType":"address"},{"name":"amount","type":"uint256","indexed":true,"internalType":"uint256"}],"anonymous":false},{"type":"event","name":"DepositsReturned","inputs":[{"name":"returnedDepositsCount","type":"uint256","indexed":false,"internalType":"uint256"},{"name":"roundNumber","type":"uint256","indexed":true,"internalType":"uint256"}],"anonymous":false},{"type":"event","name":"DepositsReturned","inputs":[{"name":"returnedDepositsCount","type":"uint256","indexed":false,"internalType":"uint256"}],"anonymous":false},{"type":"event","name":"Initialized","inputs":[{"name":"version","type":"uint64","indexed":false,"internalType":"uint64"}],"anonymous":false},{"type":"event","name":"LotteryEnded","inputs":[],"anonymous":false},{"type":"event","name":"LotteryStarted","inputs":[],"anonymous":false},{"type":"event","name":"OwnershipTransferred","inputs":[{"name":"previousOwner","type":"address","indexed":true,"internalType":"address"},{"name":"newOwner","type":"address","indexed":true,"internalType":"address"}],"anonymous":false},{"type":"event","name":"RandomFulfilled","inputs":[{"name":"number","type":"uint256","indexed":false,"internalType":"uint256"},{"name":"requester","type":"address","indexed":true,"internalType":"address"}],"anonymous":false},{"type":"event","name":"RandomRequested","inputs":[{"name":"requester","type":"address","indexed":true,"internalType":"address"}],"anonymous":false},{"type":"event","name":"RequestedRandomness","inputs":[{"name":"round","type":"uint256","indexed":false,"internalType":"uint256"},{"name":"data","type":"bytes","indexed":false,"internalType":"bytes"}],"anonymous":false},{"type":"event","name":"RoundSet","inputs":[{"name":"roundNumber","type":"uint256","indexed":true,"internalType":"uint256"},{"name":"finishAt","type":"uint256","indexed":false,"internalType":"uint256"},{"name":"numberOfTickets","type":"uint256","indexed":false,"internalType":"uint256"}],"anonymous":false},{"type":"event","name":"WinnerSelected","inputs":[{"name":"winner","type":"address","indexed":true,"internalType":"address"}],"anonymous":false},{"type":"error","name":"InvalidInitialization","inputs":[]},{"type":"error","name":"NotInitializing","inputs":[]},{"type":"error","name":"OwnableInvalidOwner","inputs":[{"name":"owner","type":"address","internalType":"address"}]},{"type":"error","name":"OwnableUnauthorizedAccount","inputs":[{"name":"account","type":"address","internalType":"address"}]}],"bytecode":{"object":"0x60a060405260016014556001601555600560165534801561001f57600080fd5b5073d8253782c45a12053594b9deb72d8e8ab2fca54c338061005b57604051631e4fbdf760e01b81526000600482015260240160405180910390fd5b6100648161007e565b506001600160a01b03166080526100796100ce565b610180565b600080546001600160a01b038381166001600160a01b0319831681178455604051919092169283917f8be0079c531659141344cd1fd0a4f28419497f9722a3daafe3b4186f6b6457e09190a35050565b7ff0c57e16840df040f15088dc2f81fe391c3923bec73e23a9662efc9c229c6a00805468010000000000000000900460ff161561011e5760405163f92ee8a960e01b815260040160405180910390fd5b80546001600160401b039081161461017d5780546001600160401b0319166001600160401b0390811782556040519081527fc7f505b2f371ae2175ee4913f4499e1f2633a7b5936321eed1cdaeb6115181d29060200160405180910390a15b50565b6080516134f16101a2600039600081816104240152612db701526134f16000f3fe608060405234801561001057600080fd5b50600436106102ba5760003560e01c8063715018a611610182578063b3f6b99a116100e9578063e9081ec7116100a2578063f3f18c371161007c578063f3f18c37146106d7578063f8413b07146106ea578063fc7e286d146106f2578063febc14b11461071257600080fd5b8063e9081ec714610688578063e99d2866146106b1578063f2fde38b146106c457600080fd5b8063b3f6b99a1461061e578063b680e44b14610631578063b6b55f251461063a578063c1e3bd3e1461064d578063c4f8f27b14610660578063df15c37e1461068057600080fd5b806396efac7b1161013b57806396efac7b1461059d57806399dbf4b5146105a65780639d9ca28d146105b95780639eca9337146105e5578063a4f03c02146105f8578063a61fb2ba1461060b57600080fd5b8063715018a6146104c857806375ce7fff146104d05780637cc947d0146104e35780637de13382146104eb5780638c65c81f146104fe5780638da5cb5b1461058c57600080fd5b80632c23ec8e11610226578063572b6c05116101df578063572b6c05146104145780635aa68ac01461045457806366af746b14610469578063683e93e1146104715780636939864b146104845780636bd5450a146104a557600080fd5b80632c23ec8e1461039c57806338e21cce146103af57806345745c10146103d257806350f3dbec146103db578063558a7297146103ee57806356d7c73a1461040157600080fd5b8063160344e211610278578063160344e21461035f5780631630a8df146103675780631a0de74c1461037a5780631d0806ae14610382578063224f91bd1461038b578063261704801461039457600080fd5b8062746702146102bf578063045f9c97146102db57806308551a53146103065780631209b1f61461031957806313e7c9d8146103225780631593a8c714610355575b600080fd5b6102c860175481565b6040519081526020015b60405180910390f35b6102ee6102e9366004612e80565b61071b565b6040516001600160a01b0390911681526020016102d2565b6002546102ee906001600160a01b031681565b6102c860045481565b610345610330366004612ebe565b60106020526000908152604090205460ff1681565b60405190151581526020016102d2565b61035d610745565b005b61035d6107bd565b61035d610375366004612ebe565b610898565b61035d610a81565b6102c860135481565b6102c860155481565b61035d610fdb565b600a546102ee906001600160a01b031681565b6103456103bd366004612ebe565b60056020526000908152604090205460ff1681565b6102c860035481565b61035d6103e9366004612ee2565b61113b565b61035d6103fc366004612f1c565b61127b565b61035d61040f366004612fc6565b6112ae565b610345610422366004612ebe565b7f00000000000000000000000000000000000000000000000000000000000000006001600160a01b0390811691161490565b61045c611482565b6040516102d29190613079565b61035d6114e4565b61035d61047f3660046130c6565b611715565b60005461049890600160a01b900460ff1681565b6040516102d291906130fd565b6103456104b3366004612ebe565b60076020526000908152604090205460ff1681565b61035d61177c565b6103456104de366004612e80565b611790565b61035d6117c4565b6011546102ee906001600160a01b031681565b61055161050c366004612e80565b600e60205260009081526040902080546001820154600283015460038401546004909401549293919290919060ff808216916101008104821691620100009091041687565b60408051978852602088019690965294860193909352606085019190915215156080840152151560a0830152151560c082015260e0016102d2565b6000546001600160a01b03166102ee565b6102c860165481565b600b546102ee906001600160a01b031681565b6103456105c7366004612ebe565b6001600160a01b031660009081526007602052604090205460ff1690565b6102c86105f3366004612ee2565b611a08565b61035d610606366004613125565b611a35565b6001546102ee906001600160a01b031681565b61035d61062c366004613147565b611d8b565b6102c860145481565b61035d610648366004612e80565b611f65565b61045c61065b366004612e80565b6123a0565b6102c861066e366004612e80565b600d6020526000908152604090205481565b61045c61240f565b6102c8610696366004612ebe565b6001600160a01b031660009081526006602052604090205490565b61035d6106bf366004612ebe565b61246f565b61035d6106d2366004612ebe565b6124cb565b6012546102ee906001600160a01b031681565b61035d612506565b6102c8610700366004612ebe565b60066020526000908152604090205481565b6102c8600f5481565b6008818154811061072b57600080fd5b6000918252602090912001546001600160a01b0316905081565b6002546001600160a01b03166107596126a4565b6001600160a01b0316146107885760405162461bcd60e51b815260040161077f906131c3565b60405180910390fd5b6107926002611715565b6040517f9c89a6ed7228533196a3f962acc80d61a9c53bdea6b910741bf754f5aaa7569e90600090a1565b6002546001600160a01b03166107d16126a4565b6001600160a01b0316146107f75760405162461bcd60e51b815260040161077f906131c3565b60008054600160a01b900460ff166002811115610816576108166130e7565b146108635760405162461bcd60e51b815260206004820152601760248201527f53616c6520697320696e20616374697665207374617465000000000000000000604482015260640161077f565b61086d6001611715565b6040517fd029c7c68d943f92286a7825fa6aa2deefa1eee46cee6c91b7e483fd06d27baf90600090a1565b6002546001600160a01b03166108ac6126a4565b6001600160a01b0316146108d25760405162461bcd60e51b815260040161077f906131c3565b60005b600954811015610a7157600060066000600984815481106108f8576108f8613205565b60009182526020808320909101546001600160a01b03168352820192909252604001812054600980549193506006918391908690811061093a5761093a613205565b6000918252602080832091909101546001600160a01b039081168452908301939093526040918201902092909255600b54915163a9059cbb60e01b815285821660048201526024810184905291169063a9059cbb906044016020604051808303816000875af11580156109b1573d6000803e3d6000fd5b505050506040513d601f19601f820116820180604052508101906109d5919061321b565b50826001600160a01b03166350f3dbec600984815481106109f8576109f8613205565b60009182526020909120015460405160e083901b6001600160e01b03191681526001600160a01b03909116600482015260248101849052604401600060405180830381600087803b158015610a4c57600080fd5b505af1158015610a60573d6000803e3d6000fd5b5050600190930192506108d5915050565b50610a7e60096000612e4e565b50565b6002546001600160a01b0316610a956126a4565b6001600160a01b031614610abb5760405162461bcd60e51b815260040161077f906131c3565b6000600e60006001600f54610ad0919061324e565b81526020019081526020016000206003015411610b455760405162461bcd60e51b815260206004820152602d60248201527f52616e646f6d206e756d62657220666f72206c61737420726f756e642069732060448201526c1b9bdd0819d95b995c985d1959609a1b606482015260840161077f565b600060035411610b975760405162461bcd60e51b815260206004820152601b60248201527f4e6f207469636b657473206c65667420746f20616c6c6f636174650000000000604482015260640161077f565b6000805460ff60a01b1916600160a01b178155600f54600e908290610bbe9060019061324e565b81526020019081526020016000206006018054905090508060035410610cbb5760005b81811015610ca4576000600e60006001600f54610bfe919061324e565b81526020019081526020016000206006018281548110610c2057610c20613205565b6000918252602090912001546001600160a01b03169050610c59816001600160a01b031660009081526007602052604090205460ff1690565b610c9b57610c66816126b3565b6040516001600160a01b038216907f1d4c260f1824cd028e6c9e6e31c3a0b94f2513e7a641113ec759d382f9bdd5a190600090a25b50600101610be1565b50610cb160096000612e4e565b6000600355610f43565b60005b81811015610e73576000610cd2828461324e565b600e60006001600f54610ce5919061324e565b815260200190815260200160002060030154610d019190613277565b610d0b908361328b565b90506000600e60006001600f54610d22919061324e565b81526020019081526020016000206006018281548110610d4457610d44613205565b6000918252602082200154600f546001600160a01b039091169250600e9190610d6f9060019061324e565b81526020019081526020016000206006018381548110610d9157610d91613205565b6000918252602082200154600f546001600160a01b0390911691600e91610dba9060019061324e565b81526020019081526020016000206006018381548110610ddc57610ddc613205565b9060005260206000200160006101000a8154816001600160a01b0302191690836001600160a01b0316021790555080600e60006001600f54610e1e919061324e565b81526020019081526020016000206006018481548110610e4057610e40613205565b600091825260209091200180546001600160a01b0319166001600160a01b03929092169190911790555050600101610cbe565b5060005b600354811015610f3c576000600e60006001600f54610e96919061324e565b81526020019081526020016000206006018281548110610eb857610eb8613205565b6000918252602090912001546001600160a01b03169050610ef1816001600160a01b031660009081526007602052604090205460ff1690565b610f3357610efe816126b3565b6040516001600160a01b038216907f1d4c260f1824cd028e6c9e6e31c3a0b94f2513e7a641113ec759d382f9bdd5a190600090a25b50600101610e77565b5060006003555b6001600e60006001600f54610f58919061324e565b815260200190815260200160002060040160026101000a81548160ff021916908315150217905550610f8861273f565b6000805460ff60a01b191681556017549003610a7e576000805460ff60a01b1916600160a11b1781556040517f9c89a6ed7228533196a3f962acc80d61a9c53bdea6b910741bf754f5aaa7569e9190a150565b60056000610fe76126a4565b6001600160a01b0316815260208101919091526040016000205460ff16156110465760405162461bcd60e51b815260206004820152601260248201527113919508185b1c9958591e481b5a5b9d195960721b604482015260640161077f565b6110516105c76126a4565b6110965760405162461bcd60e51b815260206004820152601660248201527521b0b63632b91034b9903737ba1030903bb4b73732b960511b604482015260640161077f565b6001600560006110a46126a4565b6001600160a01b0390811682526020820192909252604001600020805460ff191692151592909217909155600a5416636b8f60f66110e06126a4565b6040516001600160e01b031960e084901b1681526001600160a01b039091166004820152602401600060405180830381600087803b15801561112157600080fd5b505af1158015611135573d6000803e3d6000fd5b50505050565b6111436126a4565b6011546001600160a01b039081169116146111b05760405162461bcd60e51b815260206004820152602760248201527f4f6e6c792077686974656c6973746564206d61792063616c6c207468697320666044820152663ab731ba34b7b760c91b606482015260840161077f565b600660006111bc6126a4565b6001600160a01b03166001600160a01b031681526020019081526020016000205460000361123057600980546001810182556000919091527f6e1540171b6c0c960b71a7020d9f60077f6af931a8bbf590da0223dacf75c7af0180546001600160a01b0319166001600160a01b0384161790555b6001600160a01b0382166000908152600660205260408120805483929061125890849061328b565b92505081905550600160146000828254611272919061328b565b90915550505050565b611283612b7e565b6001600160a01b03919091166000908152601060205260409020805460ff1916911515919091179055565b7ff0c57e16840df040f15088dc2f81fe391c3923bec73e23a9662efc9c229c6a008054600160401b810460ff16159067ffffffffffffffff166000811580156112f45750825b905060008267ffffffffffffffff1660011480156113115750303b155b90508115801561131f575080155b1561133d5760405163f92ee8a960e01b815260040160405180910390fd5b845467ffffffffffffffff19166001178555831561136757845460ff60401b1916600160401b1785555b8551600280546001600160a01b039283166001600160a01b03199182161790915560208801516012805491909316911617905560408601516113a890612bdc565b6060860151601755608086015160038190556015819055600481905560135560a086015160165560c0860151600b80546001600160a01b03199081166001600160a01b039384161790915560e0880151600a80548316918416919091179055610100880151600180548316918416919091178155610120890151601180549093169316929092179055600f55831561147a57845460ff60401b19168555604051600181527fc7f505b2f371ae2175ee4913f4499e1f2633a7b5936321eed1cdaeb6115181d29060200160405180910390a15b505050505050565b606060098054806020026020016040519081016040528092919081815260200182805480156114da57602002820191906000526020600020905b81546001600160a01b031681526001909101906020018083116114bc575b5050505050905090565b6002546001600160a01b03166114f86126a4565b6001600160a01b03161461151e5760405162461bcd60e51b815260040161077f906131c3565b6002600054600160a01b900460ff16600281111561153e5761153e6130e7565b1461157f5760405162461bcd60e51b8152602060048201526011602482015270131bdd1d195c9e481b9bdd08195b991959607a1b604482015260640161077f565b6000805b6008548110156115f8576000600882815481106115a2576115a2613205565b60009182526020808320909101546001600160a01b031680835260069091526040909120549091506115d4908461328b565b6001600160a01b039091166000908152600660205260408120559150600101611583565b506000606461160883600561329e565b61161291906132b5565b90506000611620828461324e565b600b5460015460405163a9059cbb60e01b81526001600160a01b03918216600482015260248101869052929350169063a9059cbb906044016020604051808303816000875af1158015611677573d6000803e3d6000fd5b505050506040513d601f19601f8201168201806040525081019061169b919061321b565b50600b5460025460405163a9059cbb60e01b81526001600160a01b0391821660048201526024810184905291169063a9059cbb906044016020604051808303816000875af11580156116f1573d6000803e3d6000fd5b505050506040513d601f19601f82011682018060405250810190611135919061321b565b6002546001600160a01b03166117296126a4565b6001600160a01b03161461174f5760405162461bcd60e51b815260040161077f906131c3565b6000805482919060ff60a01b1916600160a01b836002811115611774576117746130e7565b021790555050565b611784612b7e565b61178e6000612bdc565b565b600c81815481106117a057600080fd5b9060005260206000209060209182820401919006915054906101000a900460ff1681565b6002600054600160a01b900460ff1660028111156117e4576117e46130e7565b146118295760405162461bcd60e51b815260206004820152601560248201527414d85b19481a5cc81b9bdd08195b991959081e595d605a1b604482015260640161077f565b600760006118356126a4565b6001600160a01b0316815260208101919091526040016000205460ff161561189f5760405162461bcd60e51b815260206004820152601760248201527f57696e6e6572732063616e6e6f74207769746864726177000000000000000000604482015260640161077f565b6000600660006118ad6126a4565b6001600160a01b03166001600160a01b03168152602001908152602001600020549050600081116119175760405162461bcd60e51b81526020600482015260146024820152734e6f2066756e647320746f20776974686472617760601b604482015260640161077f565b6000600660006119256126a4565b6001600160a01b039081168252602082019290925260400160002091909155600b541663a9059cbb6119556126a4565b6040516001600160e01b031960e084901b1681526001600160a01b039091166004820152602481018490526044016020604051808303816000875af11580156119a2573d6000803e3d6000fd5b505050506040513d601f19601f820116820180604052508101906119c6919061321b565b50806119d06126a4565b6001600160a01b03167f1f280cd00e67ed50213ac03febd5be151f96b7f7db2f85312aa0feff99f8bdab60405160405180910390a350565b6000818152600e602090815260408083206001600160a01b03861684526005019091529020545b92915050565b6002546001600160a01b0316611a496126a4565b6001600160a01b03161480611a7857506000546001600160a01b0316611a6d6126a4565b6001600160a01b0316145b80611aa8575060106000611a8a6126a4565b6001600160a01b0316815260208101919091526040016000205460ff165b611b005760405162461bcd60e51b8152602060048201526024808201527f4f6e6c79206f70657261746f722063616e2063616c6c20746869732066756e636044820152633a34b7b760e11b606482015260840161077f565b601754811115611b8d5760405162461bcd60e51b815260206004820152604c60248201527f5469636b6574732070657220726f756e642063616e6e6f74206265206869676860448201527f6572207468616e20746f74616c206e756d626572206f66207469636b6574732060648201526b696e2041756374696f6e563160a01b608482015260a40161077f565b6001600f541115611c3257600e60006001600f54611bab919061324e565b815260200190815260200160002060040160029054906101000a900460ff1615156001151514611c325760405162461bcd60e51b815260206004820152602c60248201527f46696e697368206c61737420726f756e642066697273742062792073656c656360448201526b74696e672077696e6e65727360a01b606482015260840161077f565b600060175460145410611c7057601554601454611c4f91906132b5565b601654611c5c919061329e565b600454611c69919061328b565b9050611cc3565b6000601554601454611c8291906132b5565b611c8d90600161324e565b601654611c9a919061329e565b9050806004541115611cbb5780600454611cb4919061324e565b9150611cc1565b60135491505b505b6004819055600060148190556003839055601583905560178054849290611ceb90849061324e565b9091555050600f546000818152600e60205260408120918255600180830186905560028301859055600383019190915560048201805462ffffff191682179055611d3490611715565b600f5460408051868152602081018690527fa809180f68c3ea85ec47001279a9070abd80a3022aa303b0fd92eb0e7538d42b910160405180910390a2600f8054906000611d80836132c9565b919050555050505050565b6012546001600160a01b03163314611dd55760405162461bcd60e51b815260206004820152600d60248201526c37b7363c9037b832b930ba37b960991b604482015260640161077f565b6000611de38284018461330a565b91505060008082806020019051810190611dfd91906133b8565b9150915060008585604051611e1392919061343b565b604051809103902090506000600d60008581526020019081526020016000205482149050600c8481548110611e4a57611e4a613205565b90600052602060002090602091828204019190069054906101000a900460ff16611eb65760405162461bcd60e51b815260206004820152601c60248201527f726571756573742066756c66696c6c6564206f72206d697373696e6700000000604482015260640161077f565b8015611f5b5760408051602081018a905230918101919091524660608201526080810185905260a0016040516020818303038152906040528051906020012060001c9750611f05888585612c2c565b6000600c8581548110611f1a57611f1a613205565b90600052602060002090602091828204019190066101000a81548160ff021916908315150217905550600d6000858152602001908152602001600020600090555b5050505050505050565b611f706105c76126a4565b15611fb65760405162461bcd60e51b815260206004820152601660248201527515da5b9b995c9cc818d85b9b9bdd0819195c1bdcda5d60521b604482015260640161077f565b600b546001600160a01b031661200e5760405162461bcd60e51b815260206004820152601d60248201527f5553444320636f6e74726163742061646472657373206e6f7420736574000000604482015260640161077f565b6004548110156120585760405162461bcd60e51b8152602060048201526015602482015274139bdd08195b9bdd59da08199d5b991cc81cd95b9d605a1b604482015260640161077f565b600b5481906001600160a01b031663dd62ed3e6120736126a4565b6040516001600160e01b031960e084901b1681526001600160a01b039091166004820152306024820152604401602060405180830381865afa1580156120bd573d6000803e3d6000fd5b505050506040513d601f19601f820116820180604052508101906120e1919061344b565b10156121285760405162461bcd60e51b8152602060048201526016602482015275496e73756666696369656e7420616c6c6f77616e636560501b604482015260640161077f565b600e60006001600f5461213b919061324e565b8152602081019190915260400160002060040154610100900460ff16156121b65760405162461bcd60e51b815260206004820152602960248201527f596f752063616e2774206465706f73697420616674657220726f756e6420697360448201526808199a5b9a5cda195960ba1b606482015260840161077f565b600b546001600160a01b03166323b872dd6121cf6126a4565b6040516001600160e01b031960e084901b1681526001600160a01b039091166004820152306024820152604481018490526064016020604051808303816000875af1158015612222573d6000803e3d6000fd5b505050506040513d601f19601f82011682018060405250810190612246919061321b565b50600660006122536126a4565b6001600160a01b03166001600160a01b03168152602001908152602001600020546000036122da57600e60006001600f5461228e919061324e565b81526020019081526020016000206006016122a76126a4565b81546001810183556000928352602090922090910180546001600160a01b0319166001600160a01b039092169190911790555b80600e60006001600f546122ee919061324e565b815260200190815260200160002060050160006123096126a4565b6001600160a01b03166001600160a01b031681526020019081526020016000206000828254612338919061328b565b9091555050600454811061235f57600160146000828254612359919061328b565b90915550505b806123686126a4565b6001600160a01b03167f21040858e63c11c046482f61f290bbe25972fc74b11b4570a01f9241082d21f160405160405180910390a350565b6000818152600e602090815260409182902060060180548351818402810184019094528084526060939283018282801561240357602002820191906000526020600020905b81546001600160a01b031681526001909101906020018083116123e5575b50505050509050919050565b606060088054806020026020016040519081016040528092919081815260200182805480156114da576020028201919060005260206000209081546001600160a01b031681526001909101906020018083116114bc575050505050905090565b6002546001600160a01b03166124836126a4565b6001600160a01b0316146124a95760405162461bcd60e51b815260040161077f906131c3565b600280546001600160a01b0319166001600160a01b0392909216919091179055565b6124d3612b7e565b6001600160a01b0381166124fd57604051631e4fbdf760e01b81526000600482015260240161077f565b610a7e81612bdc565b6002546001600160a01b031661251a6126a4565b6001600160a01b0316146125405760405162461bcd60e51b815260040161077f906131c3565b6001600f54116125865760405162461bcd60e51b815260206004820152601160248201527014d95d1d5c08199a5c9cdd081c9bdd5b99607a1b604482015260640161077f565b42600e60006001600f5461259a919061324e565b81526020019081526020016000206001015411156125f35760405162461bcd60e51b8152602060048201526016602482015275149bdd5b99081a5cc81b9bdd08195b991959081e595d60521b604482015260640161077f565b6001600e60006001600f54612608919061324e565b815260200190815260200160002060040160016101000a81548160ff02191690831515021790555061266461263b6126a4565b604080516001600160a01b03909216602083015201604051602081830303815290604052612cb0565b5061266d6126a4565b6001600160a01b03167fd802e7c7f1646e3318c03abed1e468bdf913f45331a68dc912a0d645eb646a4260405160405180910390a2565b60006126ae612db3565b905090565b6001600160a01b038116600081815260076020526040808220805460ff1916600190811790915560088054918201815583527ff3f7a9fe364faab93b216da50a3214154f22a0a2b415b23a84c8169e8b636ee30180546001600160a01b03191684179055517f1d4c260f1824cd028e6c9e6e31c3a0b94f2513e7a641113ec759d382f9bdd5a19190a250565b6002546001600160a01b03166127536126a4565b6001600160a01b0316146127795760405162461bcd60e51b815260040161077f906131c3565b6001600e60006001600f5461278e919061324e565b81526020810191909152604001600020600401805462ff0000191662010000831515021790556128185760405162461bcd60e51b815260206004820152602f60248201527f57696e6e6572732077657265206e6f742073656c656374656420666f7220746860448201526e194818dd5c9c995b9d081c9bdd5b99608a1b606482015260840161077f565b6000600e60006001600f5461282d919061324e565b815260200190815260200160002060060180549050905060008167ffffffffffffffff81111561285f5761285f612f55565b604051908082528060200260200182016040528015612888578160200160208202803683370190505b50905060005b8281101561291b57600e60006001600f546128a9919061324e565b815260200190815260200160002060060181815481106128cb576128cb613205565b9060005260206000200160009054906101000a90046001600160a01b03168282815181106128fb576128fb613205565b6001600160a01b039092166020928302919091019091015260010161288e565b5060005b82811015612b0757600082828151811061293b5761293b613205565b602002602001015190506000600e60006001600f5461295a919061324e565b81526020019081526020016000206005016000836001600160a01b03166001600160a01b031681526020019081526020016000205490506000600e60006001600f546129a6919061324e565b8152602080820192909252604090810160009081206001600160a01b0387168252600501835281812093909355600790915290205460ff1615612a84576004548110612a7f576000600454826129fc919061324e565b90508015612a7d57600b5460405163a9059cbb60e01b81526001600160a01b038581166004830152602482018490529091169063a9059cbb906044016020604051808303816000875af1158015612a57573d6000803e3d6000fd5b505050506040513d601f19601f82011682018060405250810190612a7b919061321b565b505b505b612afd565b600b5460405163a9059cbb60e01b81526001600160a01b038481166004830152602482018490529091169063a9059cbb906044016020604051808303816000875af1158015612ad7573d6000803e3d6000fd5b505050506040513d601f19601f82011682018060405250810190612afb919061321b565b505b505060010161291f565b50600e60006001600f54612b1b919061324e565b81526020019081526020016000206006016000612b389190612e4e565b6001600f54612b47919061324e565b6040518381527f317089864e65885a61555a7fee05445baa7fc2159860ee96c70abda1d51d55df9060200160405180910390a25050565b612b866126a4565b6001600160a01b0316612ba16000546001600160a01b031690565b6001600160a01b03161461178e57612bb76126a4565b60405163118cdaa760e01b81526001600160a01b03909116600482015260240161077f565b600080546001600160a01b038381166001600160a01b0319831681178455604051919092169283917f8be0079c531659141344cd1fd0a4f28419497f9722a3daafe3b4186f6b6457e09190a35050565b82600e60006001600f54612c40919061324e565b81526020019081526020016000206003018190555080806020019051810190612c699190613464565b6001600160a01b03167fe85d009f8a44a1484b05949bc6ffe0c555696e50510d74dc5d4588d9c0812a0184604051612ca391815260200190565b60405180910390a2505050565b600c8054600180820180845560008490529192909183908110612cd557612cd5613205565b90600052602060002090602091828204019190066101000a81548160ff02191690831515021790555060008183604051602001612d13929190613481565b60405160208183030381529060405290506000612d2e612df7565b905060008183604051602001612d45929190613481565b60408051601f1981840301815282825280516020808301919091206000898152600d9092529290208290559250907fd91fc3685b930310b008ec37d2334870cab88a023ed8cc628a2e2ccd4e55d20290612da29085908790613481565b60405180910390a150505050919050565b60007f00000000000000000000000000000000000000000000000000000000000000006001600160a01b03163303612df2575060131936013560601c90565b503390565b600080612e086364e621274261324e565b90506000612e176003836132b5565b612e2290600161328b565b905046600114612e3c57612e3781600161328b565b612e47565b612e4781600461328b565b9250505090565b5080546000825590600052602060002090810190610a7e91905b80821115612e7c5760008155600101612e68565b5090565b600060208284031215612e9257600080fd5b5035919050565b6001600160a01b0381168114610a7e57600080fd5b8035612eb981612e99565b919050565b600060208284031215612ed057600080fd5b8135612edb81612e99565b9392505050565b60008060408385031215612ef557600080fd5b8235612f0081612e99565b946020939093013593505050565b8015158114610a7e57600080fd5b60008060408385031215612f2f57600080fd5b8235612f3a81612e99565b91506020830135612f4a81612f0e565b809150509250929050565b634e487b7160e01b600052604160045260246000fd5b604051610140810167ffffffffffffffff81118282101715612f8f57612f8f612f55565b60405290565b604051601f8201601f1916810167ffffffffffffffff81118282101715612fbe57612fbe612f55565b604052919050565b60006101408284031215612fd957600080fd5b612fe1612f6b565b612fea83612eae565b8152612ff860208401612eae565b602082015261300960408401612eae565b6040820152606083013560608201526080830135608082015260a083013560a082015261303860c08401612eae565b60c082015261304960e08401612eae565b60e082015261010061305c818501612eae565b9082015261012061306e848201612eae565b908201529392505050565b6020808252825182820181905260009190848201906040850190845b818110156130ba5783516001600160a01b031683529284019291840191600101613095565b50909695505050505050565b6000602082840312156130d857600080fd5b813560038110612edb57600080fd5b634e487b7160e01b600052602160045260246000fd5b602081016003831061311f57634e487b7160e01b600052602160045260246000fd5b91905290565b6000806040838503121561313857600080fd5b50508035926020909101359150565b60008060006040848603121561315c57600080fd5b83359250602084013567ffffffffffffffff8082111561317b57600080fd5b818601915086601f83011261318f57600080fd5b81358181111561319e57600080fd5b8760208285010111156131b057600080fd5b6020830194508093505050509250925092565b60208082526022908201527f4f6e6c792073656c6c65722063616e2063616c6c20746869732066756e63746960408201526137b760f11b606082015260800190565b634e487b7160e01b600052603260045260246000fd5b60006020828403121561322d57600080fd5b8151612edb81612f0e565b634e487b7160e01b600052601160045260246000fd5b81810381811115611a2f57611a2f613238565b634e487b7160e01b600052601260045260246000fd5b60008261328657613286613261565b500690565b80820180821115611a2f57611a2f613238565b8082028115828204841417611a2f57611a2f613238565b6000826132c4576132c4613261565b500490565b6000600182016132db576132db613238565b5060010190565b600067ffffffffffffffff8211156132fc576132fc612f55565b50601f01601f191660200190565b6000806040838503121561331d57600080fd5b82359150602083013567ffffffffffffffff81111561333b57600080fd5b8301601f8101851361334c57600080fd5b803561335f61335a826132e2565b612f95565b81815286602083850101111561337457600080fd5b816020840160208301376000602083830101528093505050509250929050565b60005b838110156133af578181015183820152602001613397565b50506000910152565b600080604083850312156133cb57600080fd5b82519150602083015167ffffffffffffffff8111156133e957600080fd5b8301601f810185136133fa57600080fd5b805161340861335a826132e2565b81815286602083850101111561341d57600080fd5b61342e826020830160208601613394565b8093505050509250929050565b8183823760009101908152919050565b60006020828403121561345d57600080fd5b5051919050565b60006020828403121561347657600080fd5b8151612edb81612e99565b82815260406020820152600082518060408401526134a6816060850160208701613394565b601f01601f191691909101606001939250505056fea2646970667358221220ca26d66f3d6a013dddfb24903b41d46b3c6b42b3bc235a3ce36cabd4be11216464736f6c63430008190033","linkReferences":{}},"methodIdentifiers":{"buyerWithdraw()":"7cc947d0","changeLotteryState(uint8)":"683e93e1","deposit(uint256)":"b6b55f25","deposits(address)":"fc7e286d","endLottery()":"1593a8c7","fulfillRandomness(uint256,bytes)":"b3f6b99a","getDepositedAmount(address)":"e9081ec7","getDepositedAmount(address,uint256)":"9eca9337","getParticipants()":"5aa68ac0","getParticipants(uint256)":"c1e3bd3e","getWinners()":"df15c37e","hasMinted(address)":"38e21cce","increasePriceStep()":"96efac7b","initialPrice()":"1d0806ae","initialize((address,address,address,uint256,uint256,uint256,address,address,address,address))":"56d7c73a","isTrustedForwarder(address)":"572b6c05","isWinner(address)":"9d9ca28d","lotteryState()":"6939864b","lotteryV2Addr()":"7de13382","mintMyNFT()":"26170480","multisigWalletAddress()":"a61fb2ba","nftContractAddr()":"2c23ec8e","numberOfTickets()":"45745c10","operatorAddr()":"f3f18c37","operators(address)":"13e7c9d8","owner()":"8da5cb5b","prevRoundDeposits()":"b680e44b","prevRoundTicketsAmount()":"224f91bd","renounceOwnership()":"715018a6","requestPending(uint256)":"75ce7fff","requestRandomness()":"f8413b07","requestedHash(uint256)":"c4f8f27b","roundCounter()":"febc14b1","rounds(uint256)":"8c65c81f","selectWinners()":"1a0de74c","seller()":"08551a53","sellerWithdraw()":"66af746b","setOperator(address,bool)":"558a7297","setSeller(address)":"e99d2866","setupNewRound(uint256,uint256)":"a4f03c02","startLottery()":"160344e2","ticketPrice()":"1209b1f6","totalNumberOfTickets()":"00746702","transferDeposit(address,uint256)":"50f3dbec","transferNonWinnerBids(address)":"1630a8df","transferOwnership(address)":"f2fde38b","usdcContractAddr()":"99dbf4b5","winnerAddresses(uint256)":"045f9c97","winners(address)":"6bd5450a"},"id":50}