{"abi":[{"type":"function","name":"Deposits","inputs":[{"name":"","type":"address","internalType":"address"}],"outputs":[{"name":"amount","type":"uint256","internalType":"uint256"},{"name":"statsAmount","type":"uint256","internalType":"uint256"},{"name":"timestamp","type":"uint256","internalType":"uint256"},{"name":"isWinner","type":"bool","internalType":"bool"}],"stateMutability":"view"},{"type":"function","name":"auctionV1Addr","inputs":[],"outputs":[{"name":"","type":"address","internalType":"address"}],"stateMutability":"view"},{"type":"function","name":"buyerWithdraw","inputs":[],"outputs":[],"stateMutability":"nonpayable"},{"type":"function","name":"changeLotteryState","inputs":[{"name":"_newState","type":"uint8","internalType":"enum SaleBase.LotteryState"}],"outputs":[],"stateMutability":"nonpayable"},{"type":"function","name":"deposit","inputs":[{"name":"amount","type":"uint256","internalType":"uint256"}],"outputs":[],"stateMutability":"nonpayable"},{"type":"function","name":"deposits","inputs":[{"name":"","type":"address","internalType":"address"}],"outputs":[{"name":"","type":"uint256","internalType":"uint256"}],"stateMutability":"view"},{"type":"function","name":"endLottery","inputs":[],"outputs":[],"stateMutability":"nonpayable"},{"type":"function","name":"getDepositedAmount","inputs":[{"name":"participant","type":"address","internalType":"address"}],"outputs":[{"name":"","type":"uint256","internalType":"uint256"}],"stateMutability":"view"},{"type":"function","name":"getParticipants","inputs":[],"outputs":[{"name":"","type":"address[]","internalType":"address[]"}],"stateMutability":"view"},{"type":"function","name":"getWinners","inputs":[],"outputs":[{"name":"","type":"address[]","internalType":"address[]"}],"stateMutability":"view"},{"type":"function","name":"hasMinted","inputs":[{"name":"","type":"address","internalType":"address"}],"outputs":[{"name":"","type":"bool","internalType":"bool"}],"stateMutability":"view"},{"type":"function","name":"initialPrice","inputs":[],"outputs":[{"name":"","type":"uint256","internalType":"uint256"}],"stateMutability":"view"},{"type":"function","name":"initialize","inputs":[{"name":"config","type":"tuple","internalType":"struct StructsLibrary.IAuctionV2BaseConfig","components":[{"name":"_seller","type":"address","internalType":"address"},{"name":"_owner","type":"address","internalType":"address"},{"name":"_ticketAmount","type":"uint256","internalType":"uint256"},{"name":"_ticketPrice","type":"uint256","internalType":"uint256"},{"name":"_usdcContractAddr","type":"address","internalType":"address"},{"name":"_nftContractAddr","type":"address","internalType":"address"},{"name":"_multisigWalletAddress","type":"address","internalType":"address"},{"name":"_prevPhaseContractAddr","type":"address","internalType":"address"}]}],"outputs":[],"stateMutability":"nonpayable"},{"type":"function","name":"isParticipant","inputs":[{"name":"_participant","type":"address","internalType":"address"}],"outputs":[{"name":"","type":"bool","internalType":"bool"}],"stateMutability":"view"},{"type":"function","name":"isTrustedForwarder","inputs":[{"name":"forwarder","type":"address","internalType":"address"}],"outputs":[{"name":"","type":"bool","internalType":"bool"}],"stateMutability":"view"},{"type":"function","name":"isWinner","inputs":[{"name":"_participant","type":"address","internalType":"address"}],"outputs":[{"name":"","type":"bool","internalType":"bool"}],"stateMutability":"view"},{"type":"function","name":"lotteryState","inputs":[],"outputs":[{"name":"","type":"uint8","internalType":"enum SaleBase.LotteryState"}],"stateMutability":"view"},{"type":"function","name":"mintMyNFT","inputs":[],"outputs":[],"stateMutability":"nonpayable"},{"type":"function","name":"multisigWalletAddress","inputs":[],"outputs":[{"name":"","type":"address","internalType":"address"}],"stateMutability":"view"},{"type":"function","name":"nftContractAddr","inputs":[],"outputs":[{"name":"","type":"address","internalType":"address"}],"stateMutability":"view"},{"type":"function","name":"numberOfTickets","inputs":[],"outputs":[{"name":"","type":"uint256","internalType":"uint256"}],"stateMutability":"view"},{"type":"function","name":"operators","inputs":[{"name":"","type":"address","internalType":"address"}],"outputs":[{"name":"","type":"bool","internalType":"bool"}],"stateMutability":"view"},{"type":"function","name":"owner","inputs":[],"outputs":[{"name":"","type":"address","internalType":"address"}],"stateMutability":"view"},{"type":"function","name":"renounceOwnership","inputs":[],"outputs":[],"stateMutability":"nonpayable"},{"type":"function","name":"selectWinners","inputs":[],"outputs":[],"stateMutability":"nonpayable"},{"type":"function","name":"seller","inputs":[],"outputs":[{"name":"","type":"address","internalType":"address"}],"stateMutability":"view"},{"type":"function","name":"setOperator","inputs":[{"name":"_operator","type":"address","internalType":"address"},{"name":"_flag","type":"bool","internalType":"bool"}],"outputs":[],"stateMutability":"nonpayable"},{"type":"function","name":"setSeller","inputs":[{"name":"_seller","type":"address","internalType":"address"}],"outputs":[],"stateMutability":"nonpayable"},{"type":"function","name":"sortDepositsDesc","inputs":[],"outputs":[],"stateMutability":"nonpayable"},{"type":"function","name":"startLottery","inputs":[],"outputs":[],"stateMutability":"nonpayable"},{"type":"function","name":"ticketPrice","inputs":[],"outputs":[{"name":"","type":"uint256","internalType":"uint256"}],"stateMutability":"view"},{"type":"function","name":"totalAmountForSeller","inputs":[],"outputs":[{"name":"","type":"uint256","internalType":"uint256"}],"stateMutability":"view"},{"type":"function","name":"transferOwnership","inputs":[{"name":"newOwner","type":"address","internalType":"address"}],"outputs":[],"stateMutability":"nonpayable"},{"type":"function","name":"usdcContractAddr","inputs":[],"outputs":[{"name":"","type":"address","internalType":"address"}],"stateMutability":"view"},{"type":"function","name":"winnerAddresses","inputs":[{"name":"","type":"uint256","internalType":"uint256"}],"outputs":[{"name":"","type":"address","internalType":"address"}],"stateMutability":"view"},{"type":"function","name":"winners","inputs":[{"name":"","type":"address","internalType":"address"}],"outputs":[{"name":"","type":"bool","internalType":"bool"}],"stateMutability":"view"},{"type":"event","name":"BuyerDeposited","inputs":[{"name":"buyer","type":"address","indexed":true,"internalType":"address"},{"name":"amount","type":"uint256","indexed":true,"internalType":"uint256"}],"anonymous":false},{"type":"event","name":"BuyerWithdrew","inputs":[{"name":"buyer","type":"address","indexed":true,"internalType":"address"},{"name":"amount","type":"uint256","indexed":true,"internalType":"uint256"}],"anonymous":false},{"type":"event","name":"DepositsReturned","inputs":[{"name":"returnedDepositsCount","type":"uint256","indexed":false,"internalType":"uint256"}],"anonymous":false},{"type":"event","name":"Initialized","inputs":[{"name":"version","type":"uint64","indexed":false,"internalType":"uint64"}],"anonymous":false},{"type":"event","name":"LotteryEnded","inputs":[],"anonymous":false},{"type":"event","name":"LotteryStarted","inputs":[],"anonymous":false},{"type":"event","name":"OwnershipTransferred","inputs":[{"name":"previousOwner","type":"address","indexed":true,"internalType":"address"},{"name":"newOwner","type":"address","indexed":true,"internalType":"address"}],"anonymous":false},{"type":"event","name":"WinnerSelected","inputs":[{"name":"winner","type":"address","indexed":true,"internalType":"address"}],"anonymous":false},{"type":"error","name":"InvalidInitialization","inputs":[]},{"type":"error","name":"NotInitializing","inputs":[]},{"type":"error","name":"OwnableInvalidOwner","inputs":[{"name":"owner","type":"address","internalType":"address"}]},{"type":"error","name":"OwnableUnauthorizedAccount","inputs":[{"name":"account","type":"address","internalType":"address"}]}],"bytecode":{"object":"0x60a060405234801561001057600080fd5b5073d8253782c45a12053594b9deb72d8e8ab2fca54c338061004c57604051631e4fbdf760e01b81526000600482015260240160405180910390fd5b6100558161006f565b506001600160a01b031660805261006a6100bf565b610171565b600080546001600160a01b038381166001600160a01b0319831681178455604051919092169283917f8be0079c531659141344cd1fd0a4f28419497f9722a3daafe3b4186f6b6457e09190a35050565b7ff0c57e16840df040f15088dc2f81fe391c3923bec73e23a9662efc9c229c6a00805468010000000000000000900460ff161561010f5760405163f92ee8a960e01b815260040160405180910390fd5b80546001600160401b039081161461016e5780546001600160401b0319166001600160401b0390811782556040519081527fc7f505b2f371ae2175ee4913f4499e1f2633a7b5936321eed1cdaeb6115181d29060200160405180910390a15b50565b60805161224d610193600039600081816103a80152611d2c015261224d6000f3fe608060405234801561001057600080fd5b506004361061021c5760003560e01c80636939864b11610125578063a61fb2ba116100ad578063df15c37e1161007c578063df15c37e14610501578063e9081ec714610509578063e99d286614610532578063f2fde38b14610545578063fc7e286d1461055857600080fd5b8063a61fb2ba146104bf578063b6b55f25146104d2578063c6ec99ab146104e5578063da59a0dd146104f857600080fd5b80638da5cb5b116100f45780638da5cb5b14610454578063929066f51461046557806399dbf4b5146104785780639abb82471461048b5780639d9ca28d1461049357600080fd5b80636939864b146104005780636bd5450a14610421578063715018a6146104445780637cc947d01461044c57600080fd5b806326170480116101a857806345745c101161017757806345745c101461037c578063558a729714610385578063572b6c05146103985780635aa68ac0146103d8578063683e93e1146103ed57600080fd5b806326170480146102e45780632c23ec8e146102ec57806338e21cce146102ff5780633ee2d7c21461032257600080fd5b806313e7c9d8116101ef57806313e7c9d8146102905780631593a8c7146102c3578063160344e2146102cb5780631a0de74c146102d35780631d0806ae146102db57600080fd5b8063045f9c971461022157806308551a5314610251578063118bf0a1146102645780631209b1f614610279575b600080fd5b61023461022f366004611ed4565b610578565b6040516001600160a01b0390911681526020015b60405180910390f35b600254610234906001600160a01b031681565b610277610272366004611f1f565b6105a2565b005b61028260045481565b604051908152602001610248565b6102b361029e366004611fe4565b600e6020526000908152604090205460ff1681565b6040519015158152602001610248565b61027761074d565b6102776107c5565b6102776108a0565b610282600f5481565b610277610b3e565b600b54610234906001600160a01b031681565b6102b361030d366004611fe4565b60066020526000908152604090205460ff1681565b61035a610330366004611fe4565b600d6020526000908152604090208054600182015460028301546003909301549192909160ff1684565b6040805194855260208501939093529183015215156060820152608001610248565b61028260035481565b610277610393366004612014565b610d0b565b6102b36103a6366004611fe4565b7f00000000000000000000000000000000000000000000000000000000000000006001600160a01b0390811691161490565b6103e0610d3e565b604051610248919061204b565b6102776103fb366004612098565b610da0565b60005461041490600160a01b900460ff1681565b60405161024891906120cf565b6102b361042f366004611fe4565b60086020526000908152604090205460ff1681565b610277610e07565b610277610e1b565b6000546001600160a01b0316610234565b6102b3610473366004611fe4565b611055565b600c54610234906001600160a01b031681565b6102776110b4565b6102b36104a1366004611fe4565b6001600160a01b031660009081526008602052604090205460ff1690565b600154610234906001600160a01b031681565b6102776104e0366004611ed4565b6113b2565b601054610234906001600160a01b031681565b61028260055481565b6103e0611808565b610282610517366004611fe4565b6001600160a01b03166000908152600d602052604090205490565b610277610540366004611fe4565b611868565b610277610553366004611fe4565b6118c4565b610282610566366004611fe4565b60076020526000908152604090205481565b6009818154811061058857600080fd5b6000918252602090912001546001600160a01b0316905081565b7ff0c57e16840df040f15088dc2f81fe391c3923bec73e23a9662efc9c229c6a008054600160401b810460ff16159067ffffffffffffffff166000811580156105e85750825b905060008267ffffffffffffffff1660011480156106055750303b155b905081158015610613575080155b156106315760405163f92ee8a960e01b815260040160405180910390fd5b845467ffffffffffffffff19166001178555831561065b57845460ff60401b1916600160401b1785555b8551600280546001600160a01b0319166001600160a01b03909216919091179055602086015161068a906118fb565b604086015160035560608601516004819055600f556080860151600c80546001600160a01b039283166001600160a01b03199182161790915560a0880151600b805491841691831691909117905560c08801516001805491841691831691909117905560e088015160108054919093169116179055831561074557845460ff60401b19168555604051600181527fc7f505b2f371ae2175ee4913f4499e1f2633a7b5936321eed1cdaeb6115181d29060200160405180910390a15b505050505050565b6002546001600160a01b031661076161194b565b6001600160a01b0316146107905760405162461bcd60e51b8152600401610787906120f7565b60405180910390fd5b61079a6002610da0565b6040517f9c89a6ed7228533196a3f962acc80d61a9c53bdea6b910741bf754f5aaa7569e90600090a1565b6002546001600160a01b03166107d961194b565b6001600160a01b0316146107ff5760405162461bcd60e51b8152600401610787906120f7565b60008054600160a01b900460ff16600281111561081e5761081e6120b9565b1461086b5760405162461bcd60e51b815260206004820152601760248201527f53616c6520697320696e206163746976652073746174650000000000000000006044820152606401610787565b6108756001610da0565b6040517fd029c7c68d943f92286a7825fa6aa2deefa1eee46cee6c91b7e483fd06d27baf90600090a1565b6002546001600160a01b03166108b461194b565b6001600160a01b0316146108da5760405162461bcd60e51b8152600401610787906120f7565b60006003541161092c5760405162461bcd60e51b815260206004820152601b60248201527f4e6f207469636b657473206c65667420746f20616c6c6f6361746500000000006044820152606401610787565b600a54600354106109e35760005b600a548110156109dd576000600a828154811061095957610959612139565b6000918252602090912001546001600160a01b03169050610992816001600160a01b031660009081526008602052604090205460ff1690565b6109d45761099f8161195a565b6040516001600160a01b038216907f1d4c260f1824cd028e6c9e6e31c3a0b94f2513e7a641113ec759d382f9bdd5a190600090a25b5060010161093a565b50610b23565b6109eb6110b4565b6000600d6000600a6001600354610a029190612165565b81548110610a1257610a12612139565b60009182526020808320909101546001600160a01b0316835282019290925260400181205491505b600354811015610b205781600d6000600a8481548110610a5c57610a5c612139565b60009182526020808320909101546001600160a01b0316835282019290925260400190205410610b18576000600a8281548110610a9b57610a9b612139565b6000918252602090912001546001600160a01b03169050610ad4816001600160a01b031660009081526008602052604090205460ff1690565b610b1657610ae18161195a565b6040516001600160a01b038216907f1d4c260f1824cd028e6c9e6e31c3a0b94f2513e7a641113ec759d382f9bdd5a190600090a25b505b600101610a3a565b50505b6000805460ff60a01b1916600160a11b17905561079a611a36565b60066000610b4a61194b565b6001600160a01b0316815260208101919091526040016000205460ff1615610ba95760405162461bcd60e51b815260206004820152601260248201527113919508185b1c9958591e481b5a5b9d195960721b6044820152606401610787565b610bb46104a161194b565b610bf95760405162461bcd60e51b815260206004820152601660248201527521b0b63632b91034b9903737ba1030903bb4b73732b960511b6044820152606401610787565b600060035411610c4b5760405162461bcd60e51b815260206004820152601b60248201527f4e6f207469636b657473206c65667420746f20616c6c6f6361746500000000006044820152606401610787565b600160066000610c5961194b565b6001600160a01b0316815260208101919091526040016000908120805460ff1916921515929092179091556003805491610c928361217e565b9091555050600b546001600160a01b0316636b8f60f6610cb061194b565b6040516001600160e01b031960e084901b1681526001600160a01b039091166004820152602401600060405180830381600087803b158015610cf157600080fd5b505af1158015610d05573d6000803e3d6000fd5b50505050565b610d13611cca565b6001600160a01b03919091166000908152600e60205260409020805460ff1916911515919091179055565b6060600a805480602002602001604051908101604052809291908181526020018280548015610d9657602002820191906000526020600020905b81546001600160a01b03168152600190910190602001808311610d78575b5050505050905090565b6002546001600160a01b0316610db461194b565b6001600160a01b031614610dda5760405162461bcd60e51b8152600401610787906120f7565b6000805482919060ff60a01b1916600160a01b836002811115610dff57610dff6120b9565b021790555050565b610e0f611cca565b610e1960006118fb565b565b6002600054600160a01b900460ff166002811115610e3b57610e3b6120b9565b14610e805760405162461bcd60e51b815260206004820152601560248201527414d85b19481a5cc81b9bdd08195b991959081e595d605a1b6044820152606401610787565b60086000610e8c61194b565b6001600160a01b0316815260208101919091526040016000205460ff1615610ef65760405162461bcd60e51b815260206004820152601760248201527f57696e6e6572732063616e6e6f742077697468647261770000000000000000006044820152606401610787565b6000600d6000610f0461194b565b6001600160a01b03168152602081019190915260400160002054905080610f645760405162461bcd60e51b81526020600482015260146024820152734e6f2066756e647320746f20776974686472617760601b6044820152606401610787565b6000600d6000610f7261194b565b6001600160a01b039081168252602082019290925260400160002091909155600c541663a9059cbb610fa261194b565b6040516001600160e01b031960e084901b1681526001600160a01b039091166004820152602481018490526044016020604051808303816000875af1158015610fef573d6000803e3d6000fd5b505050506040513d601f19601f820116820180604052508101906110139190612195565b508061101d61194b565b6001600160a01b03167f1f280cd00e67ed50213ac03febd5be151f96b7f7db2f85312aa0feff99f8bdab60405160405180910390a350565b6000805b600a548110156110ab57826001600160a01b0316600a828154811061108057611080612139565b6000918252602090912001546001600160a01b0316036110a35750600192915050565b600101611059565b50600092915050565b6002546001600160a01b03166110c861194b565b6001600160a01b0316146110ee5760405162461bcd60e51b8152600401610787906120f7565b60005b600a548110156113af5760006111088260016121b2565b90505b600a548110156113a657600d6000600a838154811061112c5761112c612139565b60009182526020808320909101546001600160a01b03168352820192909252604001812054600a80549192600d929091908690811061116d5761116d612139565b60009182526020808320909101546001600160a01b0316835282019290925260400190205410806112b85750600d6000600a83815481106111b0576111b0612139565b60009182526020808320909101546001600160a01b03168352820192909252604001812054600a80549192600d92909190869081106111f1576111f1612139565b60009182526020808320909101546001600160a01b031683528201929092526040019020541480156112b85750600d6000600a838154811061123557611235612139565b9060005260206000200160009054906101000a90046001600160a01b03166001600160a01b03166001600160a01b0316815260200190815260200160002060020154600d6000600a858154811061128e5761128e612139565b60009182526020808320909101546001600160a01b03168352820192909252604001902060020154115b1561139e576000600a83815481106112d2576112d2612139565b600091825260209091200154600a80546001600160a01b039092169250908390811061130057611300612139565b600091825260209091200154600a80546001600160a01b03909216918590811061132c5761132c612139565b9060005260206000200160006101000a8154816001600160a01b0302191690836001600160a01b0316021790555080600a838154811061136e5761136e612139565b9060005260206000200160006101000a8154816001600160a01b0302191690836001600160a01b03160217905550505b60010161110b565b506001016110f1565b50565b6001600054600160a01b900460ff1660028111156113d2576113d26120b9565b146114145760405162461bcd60e51b815260206004820152601260248201527153616c65206973206e6f742061637469766560701b6044820152606401610787565b61141f6104a161194b565b156114655760405162461bcd60e51b815260206004820152601660248201527515da5b9b995c9cc818d85b9b9bdd0819195c1bdcda5d60521b6044820152606401610787565b600c546001600160a01b03166114bd5760405162461bcd60e51b815260206004820152601d60248201527f5553444320636f6e74726163742061646472657373206e6f74207365740000006044820152606401610787565b600f5481101561150f5760405162461bcd60e51b815260206004820152601760248201527f496e73756666696369656e742066756e64732073656e740000000000000000006044820152606401610787565b600c5481906001600160a01b031663dd62ed3e61152a61194b565b6040516001600160e01b031960e084901b1681526001600160a01b039091166004820152306024820152604401602060405180830381865afa158015611574573d6000803e3d6000fd5b505050506040513d601f19601f8201168201806040525081019061159891906121c5565b10156115df5760405162461bcd60e51b8152602060048201526016602482015275496e73756666696369656e7420616c6c6f77616e636560501b6044820152606401610787565b600c546001600160a01b03166323b872dd6115f861194b565b6040516001600160e01b031960e084901b1681526001600160a01b039091166004820152306024820152604481018490526064016020604051808303816000875af115801561164b573d6000803e3d6000fd5b505050506040513d601f19601f8201168201806040525081019061166f9190612195565b5061167b61047361194b565b1561170f5780600d600061168d61194b565b6001600160a01b03166001600160a01b0316815260200190815260200160002060000160008282546116bf91906121b2565b90915550819050600d60006116d261194b565b6001600160a01b03166001600160a01b03168152602001908152602001600020600101600082825461170491906121b2565b909155506117c79050565b604051806080016040528082815260200182815260200142815260200160001515815250600d600061173f61194b565b6001600160a01b0316815260208082019290925260409081016000208351815591830151600183015582015160028201556060909101516003909101805460ff1916911515919091179055600a61179461194b565b81546001810183556000928352602090922090910180546001600160a01b0319166001600160a01b039092169190911790555b806117d061194b565b6001600160a01b03167f21040858e63c11c046482f61f290bbe25972fc74b11b4570a01f9241082d21f160405160405180910390a350565b60606009805480602002602001604051908101604052809291908181526020018280548015610d96576020028201919060005260206000209081546001600160a01b03168152600190910190602001808311610d78575050505050905090565b6002546001600160a01b031661187c61194b565b6001600160a01b0316146118a25760405162461bcd60e51b8152600401610787906120f7565b600280546001600160a01b0319166001600160a01b0392909216919091179055565b6118cc611cca565b6001600160a01b0381166118f657604051631e4fbdf760e01b815260006004820152602401610787565b6113af815b600080546001600160a01b038381166001600160a01b0319831681178455604051919092169283917f8be0079c531659141344cd1fd0a4f28419497f9722a3daafe3b4186f6b6457e09190a35050565b6000611955611d28565b905090565b6002546001600160a01b031661196e61194b565b6001600160a01b0316146119945760405162461bcd60e51b8152600401610787906120f7565b6001600160a01b03811660008181526008602090815260408083208054600160ff199182168117909255600980548084019091557f6e1540171b6c0c960b71a7020d9f60077f6af931a8bbf590da0223dacf75c7af0180546001600160a01b03191687179055600d909352818420600301805490931617909155517f1d4c260f1824cd028e6c9e6e31c3a0b94f2513e7a641113ec759d382f9bdd5a19190a250565b6002546001600160a01b0316611a4a61194b565b6001600160a01b031614611a705760405162461bcd60e51b8152600401610787906120f7565b6002600054600160a01b900460ff166002811115611a9057611a906120b9565b14611ad55760405162461bcd60e51b815260206004820152601560248201527414d85b19481a5cc81b9bdd08195b991959081e595d605a1b6044820152606401610787565b600a5460008167ffffffffffffffff811115611af357611af3611eed565b604051908082528060200260200182016040528015611b1c578160200160208202803683370190505b50905060005b82811015611b8d57600a8181548110611b3d57611b3d612139565b9060005260206000200160009054906101000a90046001600160a01b0316828281518110611b6d57611b6d612139565b6001600160a01b0390921660209283029190910190910152600101611b22565b5060005b82811015611c8a576000828281518110611bad57611bad612139565b6020908102919091018101516001600160a01b0381166000908152600d83526040808220805490839055600890945290205490925060ff1615611c07578060056000828254611bfc91906121b2565b90915550611c809050565b600c5460405163a9059cbb60e01b81526001600160a01b038481166004830152602482018490529091169063a9059cbb906044016020604051808303816000875af1158015611c5a573d6000803e3d6000fd5b505050506040513d601f19601f82011682018060405250810190611c7e9190612195565b505b5050600101611b91565b50611c93611d6c565b6040518281527f01f8aef848121bbf182106b55119c1094063c572b6c8dcb09040e1203a17abf99060200160405180910390a15050565b611cd261194b565b6001600160a01b0316611ced6000546001600160a01b031690565b6001600160a01b031614610e1957611d0361194b565b60405163118cdaa760e01b81526001600160a01b039091166004820152602401610787565b60007f00000000000000000000000000000000000000000000000000000000000000006001600160a01b03163303611d67575060131936013560601c90565b503390565b6002546001600160a01b0316611d8061194b565b6001600160a01b031614611da65760405162461bcd60e51b8152600401610787906120f7565b600060646005546005611db991906121de565b611dc391906121f5565b9050600081600554611dd59190612165565b6000600555600c5460015460405163a9059cbb60e01b81526001600160a01b03918216600482015260248101869052929350169063a9059cbb906044016020604051808303816000875af1158015611e31573d6000803e3d6000fd5b505050506040513d601f19601f82011682018060405250810190611e559190612195565b50600c5460025460405163a9059cbb60e01b81526001600160a01b0391821660048201526024810184905291169063a9059cbb906044016020604051808303816000875af1158015611eab573d6000803e3d6000fd5b505050506040513d601f19601f82011682018060405250810190611ecf9190612195565b505050565b600060208284031215611ee657600080fd5b5035919050565b634e487b7160e01b600052604160045260246000fd5b80356001600160a01b0381168114611f1a57600080fd5b919050565b6000610100808385031215611f3357600080fd5b6040519081019067ffffffffffffffff82118183101715611f6457634e487b7160e01b600052604160045260246000fd5b81604052611f7184611f03565b8152611f7f60208501611f03565b60208201526040840135604082015260608401356060820152611fa460808501611f03565b6080820152611fb560a08501611f03565b60a0820152611fc660c08501611f03565b60c0820152611fd760e08501611f03565b60e0820152949350505050565b600060208284031215611ff657600080fd5b611fff82611f03565b9392505050565b80151581146113af57600080fd5b6000806040838503121561202757600080fd5b61203083611f03565b9150602083013561204081612006565b809150509250929050565b6020808252825182820181905260009190848201906040850190845b8181101561208c5783516001600160a01b031683529284019291840191600101612067565b50909695505050505050565b6000602082840312156120aa57600080fd5b813560038110611fff57600080fd5b634e487b7160e01b600052602160045260246000fd5b60208101600383106120f157634e487b7160e01b600052602160045260246000fd5b91905290565b60208082526022908201527f4f6e6c792073656c6c65722063616e2063616c6c20746869732066756e63746960408201526137b760f11b606082015260800190565b634e487b7160e01b600052603260045260246000fd5b634e487b7160e01b600052601160045260246000fd5b818103818111156121785761217861214f565b92915050565b60008161218d5761218d61214f565b506000190190565b6000602082840312156121a757600080fd5b8151611fff81612006565b808201808211156121785761217861214f565b6000602082840312156121d757600080fd5b5051919050565b80820281158282048414176121785761217861214f565b60008261221257634e487b7160e01b600052601260045260246000fd5b50049056fea2646970667358221220bac45e790650403951cdc0ae111da6ea9acd443a427fc7e254c24690f545db0d64736f6c63430008190033","linkReferences":{}},"methodIdentifiers":{"Deposits(address)":"3ee2d7c2","auctionV1Addr()":"c6ec99ab","buyerWithdraw()":"7cc947d0","changeLotteryState(uint8)":"683e93e1","deposit(uint256)":"b6b55f25","deposits(address)":"fc7e286d","endLottery()":"1593a8c7","getDepositedAmount(address)":"e9081ec7","getParticipants()":"5aa68ac0","getWinners()":"df15c37e","hasMinted(address)":"38e21cce","initialPrice()":"1d0806ae","initialize((address,address,uint256,uint256,address,address,address,address))":"118bf0a1","isParticipant(address)":"929066f5","isTrustedForwarder(address)":"572b6c05","isWinner(address)":"9d9ca28d","lotteryState()":"6939864b","mintMyNFT()":"26170480","multisigWalletAddress()":"a61fb2ba","nftContractAddr()":"2c23ec8e","numberOfTickets()":"45745c10","operators(address)":"13e7c9d8","owner()":"8da5cb5b","renounceOwnership()":"715018a6","selectWinners()":"1a0de74c","seller()":"08551a53","setOperator(address,bool)":"558a7297","setSeller(address)":"e99d2866","sortDepositsDesc()":"9abb8247","startLottery()":"160344e2","ticketPrice()":"1209b1f6","totalAmountForSeller()":"da59a0dd","transferOwnership(address)":"f2fde38b","usdcContractAddr()":"99dbf4b5","winnerAddresses(uint256)":"045f9c97","winners(address)":"6bd5450a"},"id":53}