{"abi":[{"type":"function","name":"Deposits","inputs":[{"name":"","type":"address","internalType":"address"}],"outputs":[{"name":"amount","type":"uint256","internalType":"uint256"},{"name":"timestamp","type":"uint256","internalType":"uint256"},{"name":"isWinner","type":"bool","internalType":"bool"}],"stateMutability":"view"},{"type":"function","name":"auctionV1Addr","inputs":[],"outputs":[{"name":"","type":"address","internalType":"address"}],"stateMutability":"view"},{"type":"function","name":"buyerWithdraw","inputs":[],"outputs":[],"stateMutability":"nonpayable"},{"type":"function","name":"changeLotteryState","inputs":[{"name":"_newState","type":"uint8","internalType":"enum SaleBase.LotteryState"}],"outputs":[],"stateMutability":"nonpayable"},{"type":"function","name":"deposit","inputs":[{"name":"amount","type":"uint256","internalType":"uint256"}],"outputs":[],"stateMutability":"nonpayable"},{"type":"function","name":"deposits","inputs":[{"name":"","type":"address","internalType":"address"}],"outputs":[{"name":"","type":"uint256","internalType":"uint256"}],"stateMutability":"view"},{"type":"function","name":"endLottery","inputs":[],"outputs":[],"stateMutability":"nonpayable"},{"type":"function","name":"getDepositedAmount","inputs":[{"name":"participant","type":"address","internalType":"address"}],"outputs":[{"name":"","type":"uint256","internalType":"uint256"}],"stateMutability":"view"},{"type":"function","name":"getParticipants","inputs":[],"outputs":[{"name":"","type":"address[]","internalType":"address[]"}],"stateMutability":"view"},{"type":"function","name":"getWinners","inputs":[],"outputs":[{"name":"","type":"address[]","internalType":"address[]"}],"stateMutability":"view"},{"type":"function","name":"hasMinted","inputs":[{"name":"","type":"address","internalType":"address"}],"outputs":[{"name":"","type":"bool","internalType":"bool"}],"stateMutability":"view"},{"type":"function","name":"initialPrice","inputs":[],"outputs":[{"name":"","type":"uint256","internalType":"uint256"}],"stateMutability":"view"},{"type":"function","name":"initialize","inputs":[{"name":"config","type":"tuple","internalType":"struct StructsLibrary.IAuctionV2BaseConfig","components":[{"name":"_seller","type":"address","internalType":"address"},{"name":"_owner","type":"address","internalType":"address"},{"name":"_ticketAmount","type":"uint256","internalType":"uint256"},{"name":"_ticketPrice","type":"uint256","internalType":"uint256"},{"name":"_usdcContractAddr","type":"address","internalType":"address"},{"name":"_nftContractAddr","type":"address","internalType":"address"},{"name":"_multisigWalletAddress","type":"address","internalType":"address"},{"name":"_prevPhaseContractAddr","type":"address","internalType":"address"}]}],"outputs":[],"stateMutability":"nonpayable"},{"type":"function","name":"isParticipant","inputs":[{"name":"_participant","type":"address","internalType":"address"}],"outputs":[{"name":"","type":"bool","internalType":"bool"}],"stateMutability":"view"},{"type":"function","name":"isTrustedForwarder","inputs":[{"name":"forwarder","type":"address","internalType":"address"}],"outputs":[{"name":"","type":"bool","internalType":"bool"}],"stateMutability":"view"},{"type":"function","name":"isWinner","inputs":[{"name":"_participant","type":"address","internalType":"address"}],"outputs":[{"name":"","type":"bool","internalType":"bool"}],"stateMutability":"view"},{"type":"function","name":"lotteryState","inputs":[],"outputs":[{"name":"","type":"uint8","internalType":"enum SaleBase.LotteryState"}],"stateMutability":"view"},{"type":"function","name":"mintMyNFT","inputs":[],"outputs":[],"stateMutability":"nonpayable"},{"type":"function","name":"multisigWalletAddress","inputs":[],"outputs":[{"name":"","type":"address","internalType":"address"}],"stateMutability":"view"},{"type":"function","name":"nftContractAddr","inputs":[],"outputs":[{"name":"","type":"address","internalType":"address"}],"stateMutability":"view"},{"type":"function","name":"numberOfTickets","inputs":[],"outputs":[{"name":"","type":"uint256","internalType":"uint256"}],"stateMutability":"view"},{"type":"function","name":"operators","inputs":[{"name":"","type":"address","internalType":"address"}],"outputs":[{"name":"","type":"bool","internalType":"bool"}],"stateMutability":"view"},{"type":"function","name":"owner","inputs":[],"outputs":[{"name":"","type":"address","internalType":"address"}],"stateMutability":"view"},{"type":"function","name":"renounceOwnership","inputs":[],"outputs":[],"stateMutability":"nonpayable"},{"type":"function","name":"selectWinners","inputs":[],"outputs":[],"stateMutability":"nonpayable"},{"type":"function","name":"seller","inputs":[],"outputs":[{"name":"","type":"address","internalType":"address"}],"stateMutability":"view"},{"type":"function","name":"sellerWithdraw","inputs":[],"outputs":[],"stateMutability":"nonpayable"},{"type":"function","name":"setOperator","inputs":[{"name":"_operator","type":"address","internalType":"address"},{"name":"_flag","type":"bool","internalType":"bool"}],"outputs":[],"stateMutability":"nonpayable"},{"type":"function","name":"setSeller","inputs":[{"name":"_seller","type":"address","internalType":"address"}],"outputs":[],"stateMutability":"nonpayable"},{"type":"function","name":"sortDepositsDesc","inputs":[],"outputs":[],"stateMutability":"nonpayable"},{"type":"function","name":"startLottery","inputs":[],"outputs":[],"stateMutability":"nonpayable"},{"type":"function","name":"ticketPrice","inputs":[],"outputs":[{"name":"","type":"uint256","internalType":"uint256"}],"stateMutability":"view"},{"type":"function","name":"transferDeposit","inputs":[{"name":"_participant","type":"address","internalType":"address"},{"name":"_amount","type":"uint256","internalType":"uint256"}],"outputs":[],"stateMutability":"nonpayable"},{"type":"function","name":"transferOwnership","inputs":[{"name":"newOwner","type":"address","internalType":"address"}],"outputs":[],"stateMutability":"nonpayable"},{"type":"function","name":"usdcContractAddr","inputs":[],"outputs":[{"name":"","type":"address","internalType":"address"}],"stateMutability":"view"},{"type":"function","name":"winnerAddresses","inputs":[{"name":"","type":"uint256","internalType":"uint256"}],"outputs":[{"name":"","type":"address","internalType":"address"}],"stateMutability":"view"},{"type":"function","name":"winners","inputs":[{"name":"","type":"address","internalType":"address"}],"outputs":[{"name":"","type":"bool","internalType":"bool"}],"stateMutability":"view"},{"type":"event","name":"BuyerDeposited","inputs":[{"name":"buyer","type":"address","indexed":true,"internalType":"address"},{"name":"amount","type":"uint256","indexed":true,"internalType":"uint256"}],"anonymous":false},{"type":"event","name":"BuyerWithdrew","inputs":[{"name":"buyer","type":"address","indexed":true,"internalType":"address"},{"name":"amount","type":"uint256","indexed":true,"internalType":"uint256"}],"anonymous":false},{"type":"event","name":"DepositsReturned","inputs":[{"name":"returnedDepositsCount","type":"uint256","indexed":false,"internalType":"uint256"}],"anonymous":false},{"type":"event","name":"Initialized","inputs":[{"name":"version","type":"uint64","indexed":false,"internalType":"uint64"}],"anonymous":false},{"type":"event","name":"LotteryEnded","inputs":[],"anonymous":false},{"type":"event","name":"LotteryStarted","inputs":[],"anonymous":false},{"type":"event","name":"OwnershipTransferred","inputs":[{"name":"previousOwner","type":"address","indexed":true,"internalType":"address"},{"name":"newOwner","type":"address","indexed":true,"internalType":"address"}],"anonymous":false},{"type":"event","name":"WinnerSelected","inputs":[{"name":"winner","type":"address","indexed":true,"internalType":"address"}],"anonymous":false},{"type":"error","name":"InvalidInitialization","inputs":[]},{"type":"error","name":"NotInitializing","inputs":[]},{"type":"error","name":"OwnableInvalidOwner","inputs":[{"name":"owner","type":"address","internalType":"address"}]},{"type":"error","name":"OwnableUnauthorizedAccount","inputs":[{"name":"account","type":"address","internalType":"address"}]}],"bytecode":{"object":"0x60a060405234801561001057600080fd5b5073d8253782c45a12053594b9deb72d8e8ab2fca54c338061004c57604051631e4fbdf760e01b81526000600482015260240160405180910390fd5b6100558161006f565b506001600160a01b031660805261006a6100bf565b610171565b600080546001600160a01b038381166001600160a01b0319831681178455604051919092169283917f8be0079c531659141344cd1fd0a4f28419497f9722a3daafe3b4186f6b6457e09190a35050565b7ff0c57e16840df040f15088dc2f81fe391c3923bec73e23a9662efc9c229c6a00805468010000000000000000900460ff161561010f5760405163f92ee8a960e01b815260040160405180910390fd5b80546001600160401b039081161461016e5780546001600160401b0319166001600160401b0390811782556040519081527fc7f505b2f371ae2175ee4913f4499e1f2633a7b5936321eed1cdaeb6115181d29060200160405180910390a15b50565b608051612525610193600039600081816103bb015261211001526125256000f3fe608060405234801561001057600080fd5b50600436106102275760003560e01c806366af746b116101305780639abb8247116100b8578063df15c37e1161007c578063df15c37e14610513578063e9081ec71461051b578063e99d286614610544578063f2fde38b14610557578063fc7e286d1461056a57600080fd5b80639abb8247146104a65780639d9ca28d146104ae578063a61fb2ba146104da578063b6b55f25146104ed578063c6ec99ab1461050057600080fd5b8063715018a6116100ff578063715018a61461045f5780637cc947d0146104675780638da5cb5b1461046f578063929066f51461048057806399dbf4b51461049357600080fd5b806366af746b14610400578063683e93e1146104085780636939864b1461041b5780636bd5450a1461043c57600080fd5b806326170480116101b357806345745c101161018257806345745c101461037c57806350f3dbec14610385578063558a729714610398578063572b6c05146103ab5780635aa68ac0146103eb57600080fd5b806326170480146102ef5780632c23ec8e146102f757806338e21cce1461030a5780633ee2d7c21461032d57600080fd5b806313e7c9d8116101fa57806313e7c9d81461029b5780631593a8c7146102ce578063160344e2146102d65780631a0de74c146102de5780631d0806ae146102e657600080fd5b8063045f9c971461022c57806308551a531461025c578063118bf0a11461026f5780631209b1f614610284575b600080fd5b61023f61023a366004612182565b61058a565b6040516001600160a01b0390911681526020015b60405180910390f35b60025461023f906001600160a01b031681565b61028261027d3660046121cd565b6105b4565b005b61028d60045481565b604051908152602001610253565b6102be6102a9366004612292565b600d6020526000908152604090205460ff1681565b6040519015158152602001610253565b61028261075f565b6102826107d7565b6102826108b2565b61028d600e5481565b610282610b50565b600a5461023f906001600160a01b031681565b6102be610318366004612292565b60056020526000908152604090205460ff1681565b61035f61033b366004612292565b600c6020526000908152604090208054600182015460029092015490919060ff1683565b604080519384526020840192909252151590820152606001610253565b61028d60035481565b6102826103933660046122b4565b610d47565b6102826103a63660046122ec565b610e9b565b6102be6103b9366004612292565b7f00000000000000000000000000000000000000000000000000000000000000006001600160a01b0390811691161490565b6103f3610ece565b6040516102539190612323565b610282610f30565b610282610416366004612370565b611161565b60005461042f90600160a01b900460ff1681565b60405161025391906123a7565b6102be61044a366004612292565b60076020526000908152604090205460ff1681565b6102826111c8565b6102826111dc565b6000546001600160a01b031661023f565b6102be61048e366004612292565b611416565b600b5461023f906001600160a01b031681565b610282611475565b6102be6104bc366004612292565b6001600160a01b031660009081526007602052604090205460ff1690565b60015461023f906001600160a01b031681565b6102826104fb366004612182565b611773565b600f5461023f906001600160a01b031681565b6103f3611b75565b61028d610529366004612292565b6001600160a01b03166000908152600c602052604090205490565b610282610552366004612292565b611bd5565b610282610565366004612292565b611c31565b61028d610578366004612292565b60066020526000908152604090205481565b6008818154811061059a57600080fd5b6000918252602090912001546001600160a01b0316905081565b7ff0c57e16840df040f15088dc2f81fe391c3923bec73e23a9662efc9c229c6a008054600160401b810460ff16159067ffffffffffffffff166000811580156105fa5750825b905060008267ffffffffffffffff1660011480156106175750303b155b905081158015610625575080155b156106435760405163f92ee8a960e01b815260040160405180910390fd5b845467ffffffffffffffff19166001178555831561066d57845460ff60401b1916600160401b1785555b8551600280546001600160a01b0319166001600160a01b03909216919091179055602086015161069c90611c68565b604086015160035560608601516004819055600e556080860151600b80546001600160a01b039283166001600160a01b03199182161790915560a0880151600a805491841691831691909117905560c08801516001805491841691831691909117905560e0880151600f8054919093169116179055831561075757845460ff60401b19168555604051600181527fc7f505b2f371ae2175ee4913f4499e1f2633a7b5936321eed1cdaeb6115181d29060200160405180910390a15b505050505050565b6002546001600160a01b0316610773611cb8565b6001600160a01b0316146107a25760405162461bcd60e51b8152600401610799906123cf565b60405180910390fd5b6107ac6002611161565b6040517f9c89a6ed7228533196a3f962acc80d61a9c53bdea6b910741bf754f5aaa7569e90600090a1565b6002546001600160a01b03166107eb611cb8565b6001600160a01b0316146108115760405162461bcd60e51b8152600401610799906123cf565b60008054600160a01b900460ff16600281111561083057610830612391565b1461087d5760405162461bcd60e51b815260206004820152601760248201527f53616c6520697320696e206163746976652073746174650000000000000000006044820152606401610799565b6108876001611161565b6040517fd029c7c68d943f92286a7825fa6aa2deefa1eee46cee6c91b7e483fd06d27baf90600090a1565b6002546001600160a01b03166108c6611cb8565b6001600160a01b0316146108ec5760405162461bcd60e51b8152600401610799906123cf565b60006003541161093e5760405162461bcd60e51b815260206004820152601b60248201527f4e6f207469636b657473206c65667420746f20616c6c6f6361746500000000006044820152606401610799565b600954600354106109f55760005b6009548110156109ef5760006009828154811061096b5761096b612411565b6000918252602090912001546001600160a01b031690506109a4816001600160a01b031660009081526007602052604090205460ff1690565b6109e6576109b181611cc7565b6040516001600160a01b038216907f1d4c260f1824cd028e6c9e6e31c3a0b94f2513e7a641113ec759d382f9bdd5a190600090a25b5060010161094c565b50610b35565b6109fd611475565b6000600c600060096001600354610a14919061243d565b81548110610a2457610a24612411565b60009182526020808320909101546001600160a01b0316835282019290925260400181205491505b600354811015610b325781600c600060098481548110610a6e57610a6e612411565b60009182526020808320909101546001600160a01b0316835282019290925260400190205410610b2a57600060098281548110610aad57610aad612411565b6000918252602090912001546001600160a01b03169050610ae6816001600160a01b031660009081526007602052604090205460ff1690565b610b2857610af381611cc7565b6040516001600160a01b038216907f1d4c260f1824cd028e6c9e6e31c3a0b94f2513e7a641113ec759d382f9bdd5a190600090a25b505b600101610a4c565b50505b6000805460ff60a01b1916600160a11b1790556107ac611da3565b60056000610b5c611cb8565b6001600160a01b0316815260208101919091526040016000205460ff1615610bbb5760405162461bcd60e51b815260206004820152601260248201527113919508185b1c9958591e481b5a5b9d195960721b6044820152606401610799565b600060035411610c0d5760405162461bcd60e51b815260206004820152601b60248201527f4e6f207469636b657473206c65667420746f20616c6c6f6361746500000000006044820152606401610799565b610c186104bc611cb8565b610c5d5760405162461bcd60e51b815260206004820152601660248201527521b0b63632b91034b9903737ba1030903bb4b73732b960511b6044820152606401610799565b600160056000610c6b611cb8565b6001600160a01b0316815260208101919091526040016000908120805460ff191692151592909217909155600c81610ca1611cb8565b6001600160a01b0316815260208101919091526040016000908120919091556003805491610cce83612456565b9091555050600a546001600160a01b0316636b8f60f6610cec611cb8565b6040516001600160e01b031960e084901b1681526001600160a01b039091166004820152602401600060405180830381600087803b158015610d2d57600080fd5b505af1158015610d41573d6000803e3d6000fd5b50505050565b610d4f611cb8565b600f546001600160a01b03908116911614610dbc5760405162461bcd60e51b815260206004820152602760248201527f4f6e6c792077686974656c6973746564206d61792063616c6c207468697320666044820152663ab731ba34b7b760c91b6064820152608401610799565b610dc582611416565b15610dfd576001600160a01b0382166000908152600c602052604081208054839290610df290849061246d565b90915550610e979050565b6040805160608101825282815242602080830191825260008385018181526001600160a01b038816808352600c90935294812093518455915160018085019190915593516002909301805460ff19169315159390931790925560098054938401815590527f6e1540171b6c0c960b71a7020d9f60077f6af931a8bbf590da0223dacf75c7af90910180546001600160a01b03191690911790555b5050565b610ea36120ae565b6001600160a01b03919091166000908152600d60205260409020805460ff1916911515919091179055565b60606009805480602002602001604051908101604052809291908181526020018280548015610f2657602002820191906000526020600020905b81546001600160a01b03168152600190910190602001808311610f08575b5050505050905090565b6002546001600160a01b0316610f44611cb8565b6001600160a01b031614610f6a5760405162461bcd60e51b8152600401610799906123cf565b6002600054600160a01b900460ff166002811115610f8a57610f8a612391565b14610fcb5760405162461bcd60e51b8152602060048201526011602482015270131bdd1d195c9e481b9bdd08195b991959607a1b6044820152606401610799565b6000805b60085481101561104457600060088281548110610fee57610fee612411565b60009182526020808320909101546001600160a01b0316808352600c909152604090912054909150611020908461246d565b6001600160a01b039091166000908152600c60205260408120559150600101610fcf565b5060006064611054836005612480565b61105e9190612497565b9050600061106c828461243d565b600b5460015460405163a9059cbb60e01b81526001600160a01b03918216600482015260248101869052929350169063a9059cbb906044016020604051808303816000875af11580156110c3573d6000803e3d6000fd5b505050506040513d601f19601f820116820180604052508101906110e791906124b9565b50600b5460025460405163a9059cbb60e01b81526001600160a01b0391821660048201526024810184905291169063a9059cbb906044016020604051808303816000875af115801561113d573d6000803e3d6000fd5b505050506040513d601f19601f82011682018060405250810190610d4191906124b9565b6002546001600160a01b0316611175611cb8565b6001600160a01b03161461119b5760405162461bcd60e51b8152600401610799906123cf565b6000805482919060ff60a01b1916600160a01b8360028111156111c0576111c0612391565b021790555050565b6111d06120ae565b6111da6000611c68565b565b6002600054600160a01b900460ff1660028111156111fc576111fc612391565b146112415760405162461bcd60e51b815260206004820152601560248201527414d85b19481a5cc81b9bdd08195b991959081e595d605a1b6044820152606401610799565b6007600061124d611cb8565b6001600160a01b0316815260208101919091526040016000205460ff16156112b75760405162461bcd60e51b815260206004820152601760248201527f57696e6e6572732063616e6e6f742077697468647261770000000000000000006044820152606401610799565b6000600c60006112c5611cb8565b6001600160a01b031681526020810191909152604001600020549050806113255760405162461bcd60e51b81526020600482015260146024820152734e6f2066756e647320746f20776974686472617760601b6044820152606401610799565b6000600c6000611333611cb8565b6001600160a01b039081168252602082019290925260400160002091909155600b541663a9059cbb611363611cb8565b6040516001600160e01b031960e084901b1681526001600160a01b039091166004820152602481018490526044016020604051808303816000875af11580156113b0573d6000803e3d6000fd5b505050506040513d601f19601f820116820180604052508101906113d491906124b9565b50806113de611cb8565b6001600160a01b03167f1f280cd00e67ed50213ac03febd5be151f96b7f7db2f85312aa0feff99f8bdab60405160405180910390a350565b6000805b60095481101561146c57826001600160a01b03166009828154811061144157611441612411565b6000918252602090912001546001600160a01b0316036114645750600192915050565b60010161141a565b50600092915050565b6002546001600160a01b0316611489611cb8565b6001600160a01b0316146114af5760405162461bcd60e51b8152600401610799906123cf565b60005b6009548110156117705760006114c982600161246d565b90505b60095481101561176757600c6000600983815481106114ed576114ed612411565b60009182526020808320909101546001600160a01b03168352820192909252604001812054600980549192600c929091908690811061152e5761152e612411565b60009182526020808320909101546001600160a01b0316835282019290925260400190205410806116795750600c60006009838154811061157157611571612411565b60009182526020808320909101546001600160a01b03168352820192909252604001812054600980549192600c92909190869081106115b2576115b2612411565b60009182526020808320909101546001600160a01b031683528201929092526040019020541480156116795750600c6000600983815481106115f6576115f6612411565b9060005260206000200160009054906101000a90046001600160a01b03166001600160a01b03166001600160a01b0316815260200190815260200160002060010154600c60006009858154811061164f5761164f612411565b60009182526020808320909101546001600160a01b03168352820192909252604001902060010154115b1561175f5760006009838154811061169357611693612411565b600091825260209091200154600980546001600160a01b03909216925090839081106116c1576116c1612411565b600091825260209091200154600980546001600160a01b0390921691859081106116ed576116ed612411565b9060005260206000200160006101000a8154816001600160a01b0302191690836001600160a01b03160217905550806009838154811061172f5761172f612411565b9060005260206000200160006101000a8154816001600160a01b0302191690836001600160a01b03160217905550505b6001016114cc565b506001016114b2565b50565b6001600054600160a01b900460ff16600281111561179357611793612391565b146117d55760405162461bcd60e51b815260206004820152601260248201527153616c65206973206e6f742061637469766560701b6044820152606401610799565b6117e06104bc611cb8565b156118265760405162461bcd60e51b815260206004820152601660248201527515da5b9b995c9cc818d85b9b9bdd0819195c1bdcda5d60521b6044820152606401610799565b600b546001600160a01b031661187e5760405162461bcd60e51b815260206004820152601d60248201527f5553444320636f6e74726163742061646472657373206e6f74207365740000006044820152606401610799565b600e548110156118d05760405162461bcd60e51b815260206004820152601760248201527f496e73756666696369656e742066756e64732073656e740000000000000000006044820152606401610799565b600b5481906001600160a01b031663dd62ed3e6118eb611cb8565b6040516001600160e01b031960e084901b1681526001600160a01b039091166004820152306024820152604401602060405180830381865afa158015611935573d6000803e3d6000fd5b505050506040513d601f19601f8201168201806040525081019061195991906124d6565b10156119a05760405162461bcd60e51b8152602060048201526016602482015275496e73756666696369656e7420616c6c6f77616e636560501b6044820152606401610799565b600b546001600160a01b03166323b872dd6119b9611cb8565b6040516001600160e01b031960e084901b1681526001600160a01b039091166004820152306024820152604481018490526064016020604051808303816000875af1158015611a0c573d6000803e3d6000fd5b505050506040513d601f19601f82011682018060405250810190611a3091906124b9565b50611a3c61048e611cb8565b15611a8b5780600c6000611a4e611cb8565b6001600160a01b03166001600160a01b031681526020019081526020016000206000016000828254611a80919061246d565b90915550611b349050565b604051806060016040528082815260200142815260200160001515815250600c6000611ab5611cb8565b6001600160a01b0316815260208082019290925260409081016000208351815591830151600183015591909101516002909101805460ff19169115159190911790556009611b01611cb8565b81546001810183556000928352602090922090910180546001600160a01b0319166001600160a01b039092169190911790555b80611b3d611cb8565b6001600160a01b03167f21040858e63c11c046482f61f290bbe25972fc74b11b4570a01f9241082d21f160405160405180910390a350565b60606008805480602002602001604051908101604052809291908181526020018280548015610f26576020028201919060005260206000209081546001600160a01b03168152600190910190602001808311610f08575050505050905090565b6002546001600160a01b0316611be9611cb8565b6001600160a01b031614611c0f5760405162461bcd60e51b8152600401610799906123cf565b600280546001600160a01b0319166001600160a01b0392909216919091179055565b611c396120ae565b6001600160a01b038116611c6357604051631e4fbdf760e01b815260006004820152602401610799565b611770815b600080546001600160a01b038381166001600160a01b0319831681178455604051919092169283917f8be0079c531659141344cd1fd0a4f28419497f9722a3daafe3b4186f6b6457e09190a35050565b6000611cc261210c565b905090565b6002546001600160a01b0316611cdb611cb8565b6001600160a01b031614611d015760405162461bcd60e51b8152600401610799906123cf565b6001600160a01b03811660008181526007602090815260408083208054600160ff199182168117909255600880548084019091557ff3f7a9fe364faab93b216da50a3214154f22a0a2b415b23a84c8169e8b636ee30180546001600160a01b03191687179055600c909352818420600201805490931617909155517f1d4c260f1824cd028e6c9e6e31c3a0b94f2513e7a641113ec759d382f9bdd5a19190a250565b6002546001600160a01b0316611db7611cb8565b6001600160a01b031614611ddd5760405162461bcd60e51b8152600401610799906123cf565b6002600054600160a01b900460ff166002811115611dfd57611dfd612391565b14611e425760405162461bcd60e51b815260206004820152601560248201527414d85b19481a5cc81b9bdd08195b991959081e595d605a1b6044820152606401610799565b60095460008167ffffffffffffffff811115611e6057611e6061219b565b604051908082528060200260200182016040528015611e89578160200160208202803683370190505b50905060005b82811015611efa5760098181548110611eaa57611eaa612411565b9060005260206000200160009054906101000a90046001600160a01b0316828281518110611eda57611eda612411565b6001600160a01b0390921660209283029190910190910152600101611e8f565b5060005b8281101561206a576000828281518110611f1a57611f1a612411565b6020908102919091018101516001600160a01b0381166000908152600c83526040808220805490839055600790945290205490925060ff1615611fe757600060045482611f67919061243d565b600b5460405163a9059cbb60e01b81526001600160a01b0386811660048301526024820184905292935091169063a9059cbb906044016020604051808303816000875af1158015611fbc573d6000803e3d6000fd5b505050506040513d601f19601f82011682018060405250810190611fe091906124b9565b5050612060565b600b5460405163a9059cbb60e01b81526001600160a01b038481166004830152602482018490529091169063a9059cbb906044016020604051808303816000875af115801561203a573d6000803e3d6000fd5b505050506040513d601f19601f8201168201806040525081019061205e91906124b9565b505b5050600101611efe565b5061207760096000612150565b6040518281527f01f8aef848121bbf182106b55119c1094063c572b6c8dcb09040e1203a17abf99060200160405180910390a15050565b6120b6611cb8565b6001600160a01b03166120d16000546001600160a01b031690565b6001600160a01b0316146111da576120e7611cb8565b60405163118cdaa760e01b81526001600160a01b039091166004820152602401610799565b60007f00000000000000000000000000000000000000000000000000000000000000006001600160a01b0316330361214b575060131936013560601c90565b503390565b508054600082559060005260206000209081019061177091905b8082111561217e576000815560010161216a565b5090565b60006020828403121561219457600080fd5b5035919050565b634e487b7160e01b600052604160045260246000fd5b80356001600160a01b03811681146121c857600080fd5b919050565b60006101008083850312156121e157600080fd5b6040519081019067ffffffffffffffff8211818310171561221257634e487b7160e01b600052604160045260246000fd5b8160405261221f846121b1565b815261222d602085016121b1565b60208201526040840135604082015260608401356060820152612252608085016121b1565b608082015261226360a085016121b1565b60a082015261227460c085016121b1565b60c082015261228560e085016121b1565b60e0820152949350505050565b6000602082840312156122a457600080fd5b6122ad826121b1565b9392505050565b600080604083850312156122c757600080fd5b6122d0836121b1565b946020939093013593505050565b801515811461177057600080fd5b600080604083850312156122ff57600080fd5b612308836121b1565b91506020830135612318816122de565b809150509250929050565b6020808252825182820181905260009190848201906040850190845b818110156123645783516001600160a01b03168352928401929184019160010161233f565b50909695505050505050565b60006020828403121561238257600080fd5b8135600381106122ad57600080fd5b634e487b7160e01b600052602160045260246000fd5b60208101600383106123c957634e487b7160e01b600052602160045260246000fd5b91905290565b60208082526022908201527f4f6e6c792073656c6c65722063616e2063616c6c20746869732066756e63746960408201526137b760f11b606082015260800190565b634e487b7160e01b600052603260045260246000fd5b634e487b7160e01b600052601160045260246000fd5b8181038181111561245057612450612427565b92915050565b60008161246557612465612427565b506000190190565b8082018082111561245057612450612427565b808202811582820484141761245057612450612427565b6000826124b457634e487b7160e01b600052601260045260246000fd5b500490565b6000602082840312156124cb57600080fd5b81516122ad816122de565b6000602082840312156124e857600080fd5b505191905056fea26469706673582212203b84af9fbd5592634b0e0da05314b7052a59fab2b60e8132f261eea9f2f9af9d64736f6c63430008190033","linkReferences":{}},"methodIdentifiers":{"Deposits(address)":"3ee2d7c2","auctionV1Addr()":"c6ec99ab","buyerWithdraw()":"7cc947d0","changeLotteryState(uint8)":"683e93e1","deposit(uint256)":"b6b55f25","deposits(address)":"fc7e286d","endLottery()":"1593a8c7","getDepositedAmount(address)":"e9081ec7","getParticipants()":"5aa68ac0","getWinners()":"df15c37e","hasMinted(address)":"38e21cce","initialPrice()":"1d0806ae","initialize((address,address,uint256,uint256,address,address,address,address))":"118bf0a1","isParticipant(address)":"929066f5","isTrustedForwarder(address)":"572b6c05","isWinner(address)":"9d9ca28d","lotteryState()":"6939864b","mintMyNFT()":"26170480","multisigWalletAddress()":"a61fb2ba","nftContractAddr()":"2c23ec8e","numberOfTickets()":"45745c10","operators(address)":"13e7c9d8","owner()":"8da5cb5b","renounceOwnership()":"715018a6","selectWinners()":"1a0de74c","seller()":"08551a53","sellerWithdraw()":"66af746b","setOperator(address,bool)":"558a7297","setSeller(address)":"e99d2866","sortDepositsDesc()":"9abb8247","startLottery()":"160344e2","ticketPrice()":"1209b1f6","transferDeposit(address,uint256)":"50f3dbec","transferOwnership(address)":"f2fde38b","usdcContractAddr()":"99dbf4b5","winnerAddresses(uint256)":"045f9c97","winners(address)":"6bd5450a"},"id":4}