{"abi":[{"type":"constructor","inputs":[{"name":"_seller","type":"address","internalType":"address"}],"stateMutability":"nonpayable"},{"type":"function","name":"auctionV1Addr","inputs":[],"outputs":[{"name":"","type":"address","internalType":"address"}],"stateMutability":"view"},{"type":"function","name":"buyerWithdraw","inputs":[],"outputs":[],"stateMutability":"nonpayable"},{"type":"function","name":"changeLotteryState","inputs":[{"name":"_newState","type":"uint8","internalType":"enum AuctionV2.LotteryState"}],"outputs":[],"stateMutability":"nonpayable"},{"type":"function","name":"deposit","inputs":[{"name":"amount","type":"uint256","internalType":"uint256"}],"outputs":[],"stateMutability":"payable"},{"type":"function","name":"deposits","inputs":[{"name":"","type":"address","internalType":"address"}],"outputs":[{"name":"amount","type":"uint256","internalType":"uint256"},{"name":"timestamp","type":"uint256","internalType":"uint256"},{"name":"isWinner","type":"bool","internalType":"bool"}],"stateMutability":"view"},{"type":"function","name":"endLottery","inputs":[],"outputs":[],"stateMutability":"nonpayable"},{"type":"function","name":"finishAt","inputs":[],"outputs":[{"name":"","type":"uint256","internalType":"uint256"}],"stateMutability":"view"},{"type":"function","name":"getDepositedAmount","inputs":[{"name":"participant","type":"address","internalType":"address"}],"outputs":[{"name":"","type":"uint256","internalType":"uint256"}],"stateMutability":"view"},{"type":"function","name":"getWinners","inputs":[],"outputs":[{"name":"","type":"address[]","internalType":"address[]"}],"stateMutability":"view"},{"type":"function","name":"hasMinted","inputs":[{"name":"","type":"address","internalType":"address"}],"outputs":[{"name":"","type":"bool","internalType":"bool"}],"stateMutability":"view"},{"type":"function","name":"initialPrice","inputs":[],"outputs":[{"name":"","type":"uint256","internalType":"uint256"}],"stateMutability":"view"},{"type":"function","name":"isParticipant","inputs":[{"name":"_participant","type":"address","internalType":"address"}],"outputs":[{"name":"","type":"bool","internalType":"bool"}],"stateMutability":"view"},{"type":"function","name":"isTrustedForwarder","inputs":[{"name":"forwarder","type":"address","internalType":"address"}],"outputs":[{"name":"","type":"bool","internalType":"bool"}],"stateMutability":"view"},{"type":"function","name":"isWinner","inputs":[{"name":"_participant","type":"address","internalType":"address"}],"outputs":[{"name":"","type":"bool","internalType":"bool"}],"stateMutability":"view"},{"type":"function","name":"lotteryState","inputs":[],"outputs":[{"name":"","type":"uint8","internalType":"enum AuctionV2.LotteryState"}],"stateMutability":"view"},{"type":"function","name":"mintMyNFT","inputs":[],"outputs":[],"stateMutability":"nonpayable"},{"type":"function","name":"multisigWalletAddress","inputs":[],"outputs":[{"name":"","type":"address","internalType":"address"}],"stateMutability":"view"},{"type":"function","name":"nftContractAddr","inputs":[],"outputs":[{"name":"","type":"address","internalType":"address"}],"stateMutability":"view"},{"type":"function","name":"numberOfTickets","inputs":[],"outputs":[{"name":"","type":"uint256","internalType":"uint256"}],"stateMutability":"view"},{"type":"function","name":"operators","inputs":[{"name":"","type":"address","internalType":"address"}],"outputs":[{"name":"","type":"bool","internalType":"bool"}],"stateMutability":"view"},{"type":"function","name":"owner","inputs":[],"outputs":[{"name":"","type":"address","internalType":"address"}],"stateMutability":"view"},{"type":"function","name":"participants","inputs":[{"name":"","type":"uint256","internalType":"uint256"}],"outputs":[{"name":"","type":"address","internalType":"address"}],"stateMutability":"view"},{"type":"function","name":"renounceOwnership","inputs":[],"outputs":[],"stateMutability":"nonpayable"},{"type":"function","name":"selectWinners","inputs":[],"outputs":[],"stateMutability":"nonpayable"},{"type":"function","name":"seller","inputs":[],"outputs":[{"name":"","type":"address","internalType":"address"}],"stateMutability":"view"},{"type":"function","name":"sellerWithdraw","inputs":[],"outputs":[],"stateMutability":"nonpayable"},{"type":"function","name":"setAuctionV1Addr","inputs":[{"name":"_auctionV1Addr","type":"address","internalType":"address"}],"outputs":[],"stateMutability":"nonpayable"},{"type":"function","name":"setFinishAt","inputs":[{"name":"_finishAt","type":"uint256","internalType":"uint256"}],"outputs":[],"stateMutability":"nonpayable"},{"type":"function","name":"setInitPrice","inputs":[{"name":"_amount","type":"uint256","internalType":"uint256"}],"outputs":[],"stateMutability":"nonpayable"},{"type":"function","name":"setMultisigWalletAddress","inputs":[{"name":"_multisigWalletAddress","type":"address","internalType":"address"}],"outputs":[],"stateMutability":"nonpayable"},{"type":"function","name":"setNftContractAddr","inputs":[{"name":"_nftContractAddr","type":"address","internalType":"address"}],"outputs":[],"stateMutability":"nonpayable"},{"type":"function","name":"setNumberOfTickets","inputs":[{"name":"_numberOfTickets","type":"uint256","internalType":"uint256"}],"outputs":[],"stateMutability":"nonpayable"},{"type":"function","name":"setOperator","inputs":[{"name":"_operator","type":"address","internalType":"address"},{"name":"_flag","type":"bool","internalType":"bool"}],"outputs":[],"stateMutability":"nonpayable"},{"type":"function","name":"setUsdcContractAddr","inputs":[{"name":"_usdcContractAddr","type":"address","internalType":"address"}],"outputs":[],"stateMutability":"nonpayable"},{"type":"function","name":"setWinner","inputs":[{"name":"_winner","type":"address","internalType":"address"}],"outputs":[],"stateMutability":"nonpayable"},{"type":"function","name":"sortDepositsDesc","inputs":[],"outputs":[],"stateMutability":"nonpayable"},{"type":"function","name":"startLottery","inputs":[],"outputs":[],"stateMutability":"nonpayable"},{"type":"function","name":"transferDeposit","inputs":[{"name":"_participant","type":"address","internalType":"address"},{"name":"_amount","type":"uint256","internalType":"uint256"}],"outputs":[],"stateMutability":"nonpayable"},{"type":"function","name":"transferOwnership","inputs":[{"name":"newOwner","type":"address","internalType":"address"}],"outputs":[],"stateMutability":"nonpayable"},{"type":"function","name":"usdcContractAddr","inputs":[],"outputs":[{"name":"","type":"address","internalType":"address"}],"stateMutability":"view"},{"type":"function","name":"winnerAddresses","inputs":[{"name":"","type":"uint256","internalType":"uint256"}],"outputs":[{"name":"","type":"address","internalType":"address"}],"stateMutability":"view"},{"type":"function","name":"winners","inputs":[{"name":"","type":"address","internalType":"address"}],"outputs":[{"name":"","type":"bool","internalType":"bool"}],"stateMutability":"view"},{"type":"event","name":"LotteryEnded","inputs":[],"anonymous":false},{"type":"event","name":"LotteryStarted","inputs":[],"anonymous":false},{"type":"event","name":"OwnershipTransferred","inputs":[{"name":"previousOwner","type":"address","indexed":true,"internalType":"address"},{"name":"newOwner","type":"address","indexed":true,"internalType":"address"}],"anonymous":false},{"type":"event","name":"WinnerSelected","inputs":[{"name":"winner","type":"address","indexed":true,"internalType":"address"}],"anonymous":false},{"type":"error","name":"OwnableInvalidOwner","inputs":[{"name":"owner","type":"address","internalType":"address"}]},{"type":"error","name":"OwnableUnauthorizedAccount","inputs":[{"name":"account","type":"address","internalType":"address"}]}],"bytecode":{"object":"0x60a06040523480156200001157600080fd5b506040516200247c3803806200247c833981016040819052620000349162000143565b73d8253782c45a12053594b9deb72d8e8ab2fca54c62000053620000ba565b6001600160a01b0381166200008257604051631e4fbdf760e01b81526000600482015260240160405180910390fd5b6200008d81620000cb565b506001600160a01b03908116608052600280546001600160a01b0319169290911691909117905562000175565b6000620000c66200011b565b905090565b600080546001600160a01b038381166001600160a01b0319831681178455604051919092169283917f8be0079c531659141344cd1fd0a4f28419497f9722a3daafe3b4186f6b6457e09190a35050565b6080516000906001600160a01b031633036200013e575060131936013560601c90565b503390565b6000602082840312156200015657600080fd5b81516001600160a01b03811681146200016e57600080fd5b9392505050565b6080516122e462000198600039600081816104900152611f9801526122e46000f3fe6080604052600436106102515760003560e01c80636939864b116101395780639bbe5e78116100b6578063c6ec99ab1161007a578063c6ec99ab14610712578063d9fca76914610732578063df15c37e14610752578063e9081ec714610774578063f2fde38b146107aa578063fc7e286d146107ca57600080fd5b80639bbe5e78146106665780639d9ca28d14610686578063a61fb2ba146106bf578063b6b55f25146106df578063c35344ad146106f257600080fd5b8063929066f5116100fd578063929066f5146105d157806394d898de146105f157806399bd69d61461061157806399dbf4b5146106315780639abb82471461065157600080fd5b80636939864b1461052b5780636bd5450a14610559578063715018a6146105895780637cc947d01461059e5780638da5cb5b146105b357600080fd5b806335c1d349116101d2578063558a729711610196578063558a729714610453578063572b6c051461047357806360d50da3146104c057806366af746b146104e057806367d3b488146104f5578063683e93e11461050b57600080fd5b806335c1d349146103ad5780633644c27c146103cd57806338e21cce146103ed57806345745c101461041d57806350f3dbec1461043357600080fd5b8063160344e211610219578063160344e21461032a5780631a0de74c1461033f5780631d0806ae1461035457806326170480146103785780632c23ec8e1461038d57600080fd5b8063045f9c971461025657806308551a53146102935780630bea6637146102b357806313e7c9d8146102d55780631593a8c714610315575b600080fd5b34801561026257600080fd5b50610276610271366004611fd8565b610826565b6040516001600160a01b0390911681526020015b60405180910390f35b34801561029f57600080fd5b50600254610276906001600160a01b031681565b3480156102bf57600080fd5b506102d36102ce366004611fd8565b610850565b005b3480156102e157600080fd5b506103056102f036600461200d565b60086020526000908152604090205460ff1681565b604051901515815260200161028a565b34801561032157600080fd5b506102d36108ed565b34801561033657600080fd5b506102d3610933565b34801561034b57600080fd5b506102d3610a0b565b34801561036057600080fd5b5061036a60035481565b60405190815260200161028a565b34801561038457600080fd5b506102d3610cb9565b34801561039957600080fd5b50600b54610276906001600160a01b031681565b3480156103b957600080fd5b506102766103c8366004611fd8565b610eee565b3480156103d957600080fd5b506102d36103e836600461200d565b610efe565b3480156103f957600080fd5b5061030561040836600461200d565b60056020526000908152604090205460ff1681565b34801561042957600080fd5b5061036a60045481565b34801561043f57600080fd5b506102d361044e36600461202f565b610f28565b34801561045f57600080fd5b506102d361046e366004612067565b61107c565b34801561047f57600080fd5b5061030561048e36600461200d565b7f00000000000000000000000000000000000000000000000000000000000000006001600160a01b0390811691161490565b3480156104cc57600080fd5b506102d36104db36600461200d565b6110af565b3480156104ec57600080fd5b506102d36110d9565b34801561050157600080fd5b5061036a600e5481565b34801561051757600080fd5b506102d361052636600461209e565b611310565b34801561053757600080fd5b5060005461054c90600160a01b900460ff1681565b60405161028a91906120d5565b34801561056557600080fd5b5061030561057436600461200d565b60076020526000908152604090205460ff1681565b34801561059557600080fd5b506102d3611377565b3480156105aa57600080fd5b506102d3611389565b3480156105bf57600080fd5b506000546001600160a01b0316610276565b3480156105dd57600080fd5b506103056105ec36600461200d565b611589565b3480156105fd57600080fd5b506102d361060c36600461200d565b6115e8565b34801561061d57600080fd5b506102d361062c366004611fd8565b611612565b34801561063d57600080fd5b50600c54610276906001600160a01b031681565b34801561065d57600080fd5b506102d36116b5565b34801561067257600080fd5b506102d3610681366004611fd8565b61188e565b34801561069257600080fd5b506103056106a136600461200d565b6001600160a01b031660009081526007602052604090205460ff1690565b3480156106cb57600080fd5b50600154610276906001600160a01b031681565b6102d36106ed366004611fd8565b6118d7565b3480156106fe57600080fd5b506102d361070d36600461200d565b611cd3565b34801561071e57600080fd5b50600d54610276906001600160a01b031681565b34801561073e57600080fd5b506102d361074d36600461200d565b611d84565b34801561075e57600080fd5b50610767611e3a565b60405161028a91906120fd565b34801561078057600080fd5b5061036a61078f36600461200d565b6001600160a01b031660009081526006602052604090205490565b3480156107b657600080fd5b506102d36107c536600461200d565b611e9c565b3480156107d657600080fd5b506108096107e536600461200d565b60066020526000908152604090208054600182015460029092015490919060ff1683565b60408051938452602084019290925215159082015260600161028a565b6009818154811061083657600080fd5b6000918252602090912001546001600160a01b0316905081565b6002546001600160a01b0316610864611ed7565b6001600160a01b0316148061089357506000546001600160a01b0316610888611ed7565b6001600160a01b0316145b806108c35750600860006108a5611ed7565b6001600160a01b0316815260208101919091526040016000205460ff165b6108e85760405162461bcd60e51b81526004016108df9061214a565b60405180910390fd5b600e55565b6002546001600160a01b0316610901611ed7565b6001600160a01b0316146109275760405162461bcd60e51b81526004016108df9061218e565b6109316002611310565b565b6002546001600160a01b0316610947611ed7565b6001600160a01b03161461096d5760405162461bcd60e51b81526004016108df9061218e565b60008054600160a01b900460ff16600481111561098c5761098c6120bf565b14806109b557506002600054600160a01b900460ff1660048111156109b3576109b36120bf565b145b610a015760405162461bcd60e51b815260206004820152601a60248201527f4c6f747465727920697320696e2061637469766520737461746500000000000060448201526064016108df565b6109316001611310565b6002546001600160a01b0316610a1f611ed7565b6001600160a01b031614610a455760405162461bcd60e51b81526004016108df9061218e565b600060045411610a975760405162461bcd60e51b815260206004820152601b60248201527f4e6f207469636b657473206c65667420746f20616c6c6f63617465000000000060448201526064016108df565b600a5460045410610b4e5760005b600a54811015610b48576000600a8281548110610ac457610ac46121d0565b6000918252602090912001546001600160a01b03169050610afd816001600160a01b031660009081526007602052604090205460ff1690565b610b3f57610b0a81611d84565b6040516001600160a01b038216907f1d4c260f1824cd028e6c9e6e31c3a0b94f2513e7a641113ec759d382f9bdd5a190600090a25b50600101610aa5565b50610c8e565b610b566116b5565b600060066000600a6001600454610b6d91906121fc565b81548110610b7d57610b7d6121d0565b60009182526020808320909101546001600160a01b0316835282019290925260400181205491505b600a54811015610c8b578160066000600a8481548110610bc757610bc76121d0565b60009182526020808320909101546001600160a01b0316835282019290925260400190205410610c83576000600a8281548110610c0657610c066121d0565b6000918252602090912001546001600160a01b03169050610c3f816001600160a01b031660009081526007602052604090205460ff1690565b610c8157610c4c81611d84565b6040516001600160a01b038216907f1d4c260f1824cd028e6c9e6e31c3a0b94f2513e7a641113ec759d382f9bdd5a190600090a25b505b600101610ba5565b50505b6040517f9c89a6ed7228533196a3f962acc80d61a9c53bdea6b910741bf754f5aaa7569e90600090a1565b60056000610cc5611ed7565b6001600160a01b0316815260208101919091526040016000205460ff1615610d245760405162461bcd60e51b815260206004820152601260248201527113919508185b1c9958591e481b5a5b9d195960721b60448201526064016108df565b6002600054600160a01b900460ff166004811115610d4457610d446120bf565b14610d915760405162461bcd60e51b815260206004820152601860248201527f4c6f7474657279206973206e6f7420656e64656420796574000000000000000060448201526064016108df565b600060045411610de35760405162461bcd60e51b815260206004820152601b60248201527f4e6f207469636b657473206c65667420746f20616c6c6f63617465000000000060448201526064016108df565b610dee6106a1611ed7565b610e335760405162461bcd60e51b815260206004820152601660248201527521b0b63632b91034b9903737ba1030903bb4b73732b960511b60448201526064016108df565b600160056000610e41611ed7565b6001600160a01b0390811682526020820192909252604001600020805460ff191692151592909217909155600b5416636b8f60f6610e7d611ed7565b6040516001600160e01b031960e084901b1681526001600160a01b039091166004820152602401600060405180830381600087803b158015610ebe57600080fd5b505af1158015610ed2573d6000803e3d6000fd5b505060048054925090506000610ee783612215565b9190505550565b600a818154811061083657600080fd5b610f06611ee6565b600b80546001600160a01b0319166001600160a01b0392909216919091179055565b610f30611ed7565b600d546001600160a01b03908116911614610f9d5760405162461bcd60e51b815260206004820152602760248201527f4f6e6c792077686974656c6973746564206d61792063616c6c207468697320666044820152663ab731ba34b7b760c91b60648201526084016108df565b610fa682611589565b15610fde576001600160a01b03821660009081526006602052604081208054839290610fd390849061222c565b909155506110789050565b6040805160608101825282815242602080830191825260008385018181526001600160a01b038816808352600690935294812093518455915160018085019190915593516002909301805460ff191693151593909317909255600a8054938401815590527fc65a7bb8d6351c1cf70c95a316cc6a92839c986682d98bc35f958f4883f9d2a890910180546001600160a01b03191690911790555b5050565b611084611ee6565b6001600160a01b03919091166000908152600860205260409020805460ff1916911515919091179055565b6110b7611ee6565b600180546001600160a01b0319166001600160a01b0392909216919091179055565b6002546001600160a01b03166110ed611ed7565b6001600160a01b0316146111135760405162461bcd60e51b81526004016108df9061218e565b6002600054600160a01b900460ff166004811115611133576111336120bf565b146111745760405162461bcd60e51b8152602060048201526011602482015270131bdd1d195c9e481b9bdd08195b991959607a1b60448201526064016108df565b6000805b6009548110156111ed57600060098281548110611197576111976121d0565b60009182526020808320909101546001600160a01b031680835260069091526040909120549091506111c9908461222c565b6001600160a01b039091166000908152600660205260408120559150600101611178565b50600060646111fd83600561223f565b6112079190612256565b9050600061121582846121fc565b600c5460015460405163a9059cbb60e01b81526001600160a01b03918216600482015260248101869052929350169063a9059cbb906044016020604051808303816000875af115801561126c573d6000803e3d6000fd5b505050506040513d601f19601f820116820180604052508101906112909190612278565b50600c5460025460405163a9059cbb60e01b81526001600160a01b0391821660048201526024810184905291169063a9059cbb906044016020604051808303816000875af11580156112e6573d6000803e3d6000fd5b505050506040513d601f19601f8201168201806040525081019061130a9190612278565b50505050565b6002546001600160a01b0316611324611ed7565b6001600160a01b03161461134a5760405162461bcd60e51b81526004016108df9061218e565b6000805482919060ff60a01b1916600160a01b83600481111561136f5761136f6120bf565b021790555050565b61137f611ee6565b6109316000611f44565b6001600054600160a01b900460ff1660048111156113a9576113a96120bf565b036113f65760405162461bcd60e51b815260206004820152601b60248201527f4c6f74746572792069732063757272656e746c7920616374697665000000000060448201526064016108df565b60076000611402611ed7565b6001600160a01b0316815260208101919091526040016000205460ff161561146c5760405162461bcd60e51b815260206004820152601760248201527f57696e6e6572732063616e6e6f7420776974686472617700000000000000000060448201526064016108df565b60006006600061147a611ed7565b6001600160a01b031681526020810191909152604001600020549050806114da5760405162461bcd60e51b81526020600482015260146024820152734e6f2066756e647320746f20776974686472617760601b60448201526064016108df565b6000600660006114e8611ed7565b6001600160a01b039081168252602082019290925260400160002091909155600c541663a9059cbb611518611ed7565b6040516001600160e01b031960e084901b1681526001600160a01b039091166004820152602481018490526044016020604051808303816000875af1158015611565573d6000803e3d6000fd5b505050506040513d601f19601f820116820180604052508101906110789190612278565b6000805b600a548110156115df57826001600160a01b0316600a82815481106115b4576115b46121d0565b6000918252602090912001546001600160a01b0316036115d75750600192915050565b60010161158d565b50600092915050565b6115f0611ee6565b600c80546001600160a01b0319166001600160a01b0392909216919091179055565b6002546001600160a01b0316611626611ed7565b6001600160a01b03161461164c5760405162461bcd60e51b81526004016108df9061218e565b600081116116b05760405162461bcd60e51b815260206004820152602b60248201527f4e756d626572206f66207469636b657473206d7573742062652067726561746560448201526a72207468616e207a65726f60a81b60648201526084016108df565b600455565b6002546001600160a01b03166116c9611ed7565b6001600160a01b0316146116ef5760405162461bcd60e51b81526004016108df9061218e565b60005b600a5481101561188b57600061170982600161222c565b90505b600a548110156118825760066000600a838154811061172d5761172d6121d0565b60009182526020808320909101546001600160a01b03168352820192909252604001812054600a805491926006929091908690811061176e5761176e6121d0565b60009182526020808320909101546001600160a01b03168352820192909252604001902054101561187a576000600a83815481106117ae576117ae6121d0565b600091825260209091200154600a80546001600160a01b03909216925090839081106117dc576117dc6121d0565b600091825260209091200154600a80546001600160a01b039092169185908110611808576118086121d0565b9060005260206000200160006101000a8154816001600160a01b0302191690836001600160a01b0316021790555080600a838154811061184a5761184a6121d0565b9060005260206000200160006101000a8154816001600160a01b0302191690836001600160a01b03160217905550505b60010161170c565b506001016116f2565b50565b6002546001600160a01b03166118a2611ed7565b6001600160a01b0316146118c85760405162461bcd60e51b81526004016108df9061218e565b60035460000361188b57600355565b6118e26106a1611ed7565b156119285760405162461bcd60e51b815260206004820152601660248201527515da5b9b995c9cc818d85b9b9bdd0819195c1bdcda5d60521b60448201526064016108df565b42600e54116119835760405162461bcd60e51b815260206004820152602160248201527f4465706f7369747320617265206e6f7420706f737369626c6520616e796d6f726044820152606560f81b60648201526084016108df565b600c546001600160a01b03166119db5760405162461bcd60e51b815260206004820152601d60248201527f5553444320636f6e74726163742061646472657373206e6f742073657400000060448201526064016108df565b600354811015611a2d5760405162461bcd60e51b815260206004820152601760248201527f496e73756666696369656e742066756e64732073656e7400000000000000000060448201526064016108df565b60008111611a6d5760405162461bcd60e51b815260206004820152600d60248201526c139bc8199d5b991cc81cd95b9d609a1b60448201526064016108df565b600c5481906001600160a01b031663dd62ed3e611a88611ed7565b6040516001600160e01b031960e084901b1681526001600160a01b039091166004820152306024820152604401602060405180830381865afa158015611ad2573d6000803e3d6000fd5b505050506040513d601f19601f82011682018060405250810190611af69190612295565b1015611b3d5760405162461bcd60e51b8152602060048201526016602482015275496e73756666696369656e7420616c6c6f77616e636560501b60448201526064016108df565b600c546001600160a01b03166323b872dd611b56611ed7565b6040516001600160e01b031960e084901b1681526001600160a01b039091166004820152306024820152604481018490526064016020604051808303816000875af1158015611ba9573d6000803e3d6000fd5b505050506040513d601f19601f82011682018060405250810190611bcd9190612278565b50611bd96105ec611ed7565b15611c28578060066000611beb611ed7565b6001600160a01b03166001600160a01b031681526020019081526020016000206000016000828254611c1d919061222c565b9091555061188b9050565b60405180606001604052808281526020014281526020016000151581525060066000611c52611ed7565b6001600160a01b0316815260208082019290925260409081016000208351815591830151600183015591909101516002909101805460ff1916911515919091179055600a611c9e611ed7565b81546001810183556000928352602090922090910180546001600160a01b0319166001600160a01b0390921691909117905550565b6002546001600160a01b0316611ce7611ed7565b6001600160a01b03161480611d1657506000546001600160a01b0316611d0b611ed7565b6001600160a01b0316145b80611d46575060086000611d28611ed7565b6001600160a01b0316815260208101919091526040016000205460ff165b611d625760405162461bcd60e51b81526004016108df9061214a565b600d80546001600160a01b0319166001600160a01b0392909216919091179055565b6002546001600160a01b0316611d98611ed7565b6001600160a01b031614611dbe5760405162461bcd60e51b81526004016108df9061218e565b6001600160a01b031660008181526007602090815260408083208054600160ff199182168117909255600980548084019091557f6e1540171b6c0c960b71a7020d9f60077f6af931a8bbf590da0223dacf75c7af0180546001600160a01b03191690961790955560069092529091206002018054909216179055565b60606009805480602002602001604051908101604052809291908181526020018280548015611e9257602002820191906000526020600020905b81546001600160a01b03168152600190910190602001808311611e74575b5050505050905090565b611ea4611ee6565b6001600160a01b038116611ece57604051631e4fbdf760e01b8152600060048201526024016108df565b61188b81611f44565b6000611ee1611f94565b905090565b611eee611ed7565b6001600160a01b0316611f096000546001600160a01b031690565b6001600160a01b03161461093157611f1f611ed7565b60405163118cdaa760e01b81526001600160a01b0390911660048201526024016108df565b600080546001600160a01b038381166001600160a01b0319831681178455604051919092169283917f8be0079c531659141344cd1fd0a4f28419497f9722a3daafe3b4186f6b6457e09190a35050565b60007f00000000000000000000000000000000000000000000000000000000000000006001600160a01b03163303611fd3575060131936013560601c90565b503390565b600060208284031215611fea57600080fd5b5035919050565b80356001600160a01b038116811461200857600080fd5b919050565b60006020828403121561201f57600080fd5b61202882611ff1565b9392505050565b6000806040838503121561204257600080fd5b61204b83611ff1565b946020939093013593505050565b801515811461188b57600080fd5b6000806040838503121561207a57600080fd5b61208383611ff1565b9150602083013561209381612059565b809150509250929050565b6000602082840312156120b057600080fd5b81356005811061202857600080fd5b634e487b7160e01b600052602160045260246000fd5b60208101600583106120f757634e487b7160e01b600052602160045260246000fd5b91905290565b6020808252825182820181905260009190848201906040850190845b8181101561213e5783516001600160a01b031683529284019291840191600101612119565b50909695505050505050565b60208082526024908201527f4f6e6c79206f70657261746f722063616e2063616c6c20746869732066756e636040820152633a34b7b760e11b606082015260800190565b60208082526022908201527f4f6e6c792073656c6c65722063616e2063616c6c20746869732066756e63746960408201526137b760f11b606082015260800190565b634e487b7160e01b600052603260045260246000fd5b634e487b7160e01b600052601160045260246000fd5b8181038181111561220f5761220f6121e6565b92915050565b600081612224576122246121e6565b506000190190565b8082018082111561220f5761220f6121e6565b808202811582820484141761220f5761220f6121e6565b60008261227357634e487b7160e01b600052601260045260246000fd5b500490565b60006020828403121561228a57600080fd5b815161202881612059565b6000602082840312156122a757600080fd5b505191905056fea2646970667358221220b17904322f6e1f8b860d0b807691583db78cce6b145f3c23d118e5489123558a64736f6c63430008170033","linkReferences":{}},"methodIdentifiers":{"auctionV1Addr()":"c6ec99ab","buyerWithdraw()":"7cc947d0","changeLotteryState(uint8)":"683e93e1","deposit(uint256)":"b6b55f25","deposits(address)":"fc7e286d","endLottery()":"1593a8c7","finishAt()":"67d3b488","getDepositedAmount(address)":"e9081ec7","getWinners()":"df15c37e","hasMinted(address)":"38e21cce","initialPrice()":"1d0806ae","isParticipant(address)":"929066f5","isTrustedForwarder(address)":"572b6c05","isWinner(address)":"9d9ca28d","lotteryState()":"6939864b","mintMyNFT()":"26170480","multisigWalletAddress()":"a61fb2ba","nftContractAddr()":"2c23ec8e","numberOfTickets()":"45745c10","operators(address)":"13e7c9d8","owner()":"8da5cb5b","participants(uint256)":"35c1d349","renounceOwnership()":"715018a6","selectWinners()":"1a0de74c","seller()":"08551a53","sellerWithdraw()":"66af746b","setAuctionV1Addr(address)":"c35344ad","setFinishAt(uint256)":"0bea6637","setInitPrice(uint256)":"9bbe5e78","setMultisigWalletAddress(address)":"60d50da3","setNftContractAddr(address)":"3644c27c","setNumberOfTickets(uint256)":"99bd69d6","setOperator(address,bool)":"558a7297","setUsdcContractAddr(address)":"94d898de","setWinner(address)":"d9fca769","sortDepositsDesc()":"9abb8247","startLottery()":"160344e2","transferDeposit(address,uint256)":"50f3dbec","transferOwnership(address)":"f2fde38b","usdcContractAddr()":"99dbf4b5","winnerAddresses(uint256)":"045f9c97","winners(address)":"6bd5450a"},"id":37}