{"abi":[{"type":"function","name":"auctionV1Addr","inputs":[],"outputs":[{"name":"","type":"address","internalType":"address"}],"stateMutability":"view"},{"type":"function","name":"buyerWithdraw","inputs":[],"outputs":[],"stateMutability":"nonpayable"},{"type":"function","name":"changeLotteryState","inputs":[{"name":"_newState","type":"uint8","internalType":"enum AuctionV2Base.LotteryState"}],"outputs":[],"stateMutability":"nonpayable"},{"type":"function","name":"deposit","inputs":[{"name":"amount","type":"uint256","internalType":"uint256"}],"outputs":[],"stateMutability":"payable"},{"type":"function","name":"deposits","inputs":[{"name":"","type":"address","internalType":"address"}],"outputs":[{"name":"amount","type":"uint256","internalType":"uint256"},{"name":"timestamp","type":"uint256","internalType":"uint256"},{"name":"isWinner","type":"bool","internalType":"bool"}],"stateMutability":"view"},{"type":"function","name":"endLottery","inputs":[],"outputs":[],"stateMutability":"nonpayable"},{"type":"function","name":"getDepositedAmount","inputs":[{"name":"participant","type":"address","internalType":"address"}],"outputs":[{"name":"","type":"uint256","internalType":"uint256"}],"stateMutability":"view"},{"type":"function","name":"getParticipants","inputs":[],"outputs":[{"name":"","type":"address[]","internalType":"address[]"}],"stateMutability":"view"},{"type":"function","name":"getWinners","inputs":[],"outputs":[{"name":"","type":"address[]","internalType":"address[]"}],"stateMutability":"view"},{"type":"function","name":"hasMinted","inputs":[{"name":"","type":"address","internalType":"address"}],"outputs":[{"name":"","type":"bool","internalType":"bool"}],"stateMutability":"view"},{"type":"function","name":"initialPrice","inputs":[],"outputs":[{"name":"","type":"uint256","internalType":"uint256"}],"stateMutability":"view"},{"type":"function","name":"initialize","inputs":[{"name":"config","type":"tuple","internalType":"struct StructsLibrary.IAuctionBaseConfig","components":[{"name":"_seller","type":"address","internalType":"address"},{"name":"_owner","type":"address","internalType":"address"},{"name":"_ticketAmount","type":"uint256","internalType":"uint256"},{"name":"_ticketPrice","type":"uint256","internalType":"uint256"},{"name":"_usdcContractAddr","type":"address","internalType":"address"},{"name":"_multisigWalletAddress","type":"address","internalType":"address"},{"name":"_prevPhaseContractAddr","type":"address","internalType":"address"}]}],"outputs":[],"stateMutability":"nonpayable"},{"type":"function","name":"initialized","inputs":[],"outputs":[{"name":"","type":"bool","internalType":"bool"}],"stateMutability":"view"},{"type":"function","name":"isParticipant","inputs":[{"name":"_participant","type":"address","internalType":"address"}],"outputs":[{"name":"","type":"bool","internalType":"bool"}],"stateMutability":"view"},{"type":"function","name":"isTrustedForwarder","inputs":[{"name":"forwarder","type":"address","internalType":"address"}],"outputs":[{"name":"","type":"bool","internalType":"bool"}],"stateMutability":"view"},{"type":"function","name":"isWinner","inputs":[{"name":"_participant","type":"address","internalType":"address"}],"outputs":[{"name":"","type":"bool","internalType":"bool"}],"stateMutability":"view"},{"type":"function","name":"lotteryState","inputs":[],"outputs":[{"name":"","type":"uint8","internalType":"enum AuctionV2Base.LotteryState"}],"stateMutability":"view"},{"type":"function","name":"minimumDepositAmount","inputs":[],"outputs":[{"name":"","type":"uint256","internalType":"uint256"}],"stateMutability":"view"},{"type":"function","name":"mintMyNFT","inputs":[],"outputs":[],"stateMutability":"nonpayable"},{"type":"function","name":"multisigWalletAddress","inputs":[],"outputs":[{"name":"","type":"address","internalType":"address"}],"stateMutability":"view"},{"type":"function","name":"nftContractAddr","inputs":[],"outputs":[{"name":"","type":"address","internalType":"address"}],"stateMutability":"view"},{"type":"function","name":"numberOfTickets","inputs":[],"outputs":[{"name":"","type":"uint256","internalType":"uint256"}],"stateMutability":"view"},{"type":"function","name":"operators","inputs":[{"name":"","type":"address","internalType":"address"}],"outputs":[{"name":"","type":"bool","internalType":"bool"}],"stateMutability":"view"},{"type":"function","name":"owner","inputs":[],"outputs":[{"name":"","type":"address","internalType":"address"}],"stateMutability":"view"},{"type":"function","name":"renounceOwnership","inputs":[],"outputs":[],"stateMutability":"nonpayable"},{"type":"function","name":"selectWinners","inputs":[],"outputs":[],"stateMutability":"nonpayable"},{"type":"function","name":"seller","inputs":[],"outputs":[{"name":"","type":"address","internalType":"address"}],"stateMutability":"view"},{"type":"function","name":"sellerWithdraw","inputs":[],"outputs":[],"stateMutability":"nonpayable"},{"type":"function","name":"setAuctionV1Addr","inputs":[{"name":"_auctionV1Addr","type":"address","internalType":"address"}],"outputs":[],"stateMutability":"nonpayable"},{"type":"function","name":"setInitPrice","inputs":[{"name":"_amount","type":"uint256","internalType":"uint256"}],"outputs":[],"stateMutability":"nonpayable"},{"type":"function","name":"setMultisigWalletAddress","inputs":[{"name":"_multisigWalletAddress","type":"address","internalType":"address"}],"outputs":[],"stateMutability":"nonpayable"},{"type":"function","name":"setNftContractAddr","inputs":[{"name":"_nftContractAddr","type":"address","internalType":"address"}],"outputs":[],"stateMutability":"nonpayable"},{"type":"function","name":"setNumberOfTickets","inputs":[{"name":"_numberOfTickets","type":"uint256","internalType":"uint256"}],"outputs":[],"stateMutability":"nonpayable"},{"type":"function","name":"setOperator","inputs":[{"name":"_operator","type":"address","internalType":"address"},{"name":"_flag","type":"bool","internalType":"bool"}],"outputs":[],"stateMutability":"nonpayable"},{"type":"function","name":"setUsdcContractAddr","inputs":[{"name":"_usdcContractAddr","type":"address","internalType":"address"}],"outputs":[],"stateMutability":"nonpayable"},{"type":"function","name":"setWinner","inputs":[{"name":"_winner","type":"address","internalType":"address"}],"outputs":[],"stateMutability":"nonpayable"},{"type":"function","name":"sortDepositsDesc","inputs":[],"outputs":[],"stateMutability":"nonpayable"},{"type":"function","name":"startLottery","inputs":[],"outputs":[],"stateMutability":"nonpayable"},{"type":"function","name":"transferDeposit","inputs":[{"name":"_participant","type":"address","internalType":"address"},{"name":"_amount","type":"uint256","internalType":"uint256"}],"outputs":[],"stateMutability":"nonpayable"},{"type":"function","name":"transferOwnership","inputs":[{"name":"newOwner","type":"address","internalType":"address"}],"outputs":[],"stateMutability":"nonpayable"},{"type":"function","name":"usdcContractAddr","inputs":[],"outputs":[{"name":"","type":"address","internalType":"address"}],"stateMutability":"view"},{"type":"function","name":"winnerAddresses","inputs":[{"name":"","type":"uint256","internalType":"uint256"}],"outputs":[{"name":"","type":"address","internalType":"address"}],"stateMutability":"view"},{"type":"function","name":"winners","inputs":[{"name":"","type":"address","internalType":"address"}],"outputs":[{"name":"","type":"bool","internalType":"bool"}],"stateMutability":"view"},{"type":"event","name":"LotteryEnded","inputs":[],"anonymous":false},{"type":"event","name":"LotteryStarted","inputs":[],"anonymous":false},{"type":"event","name":"OwnershipTransferred","inputs":[{"name":"previousOwner","type":"address","indexed":true,"internalType":"address"},{"name":"newOwner","type":"address","indexed":true,"internalType":"address"}],"anonymous":false},{"type":"event","name":"WinnerSelected","inputs":[{"name":"winner","type":"address","indexed":true,"internalType":"address"}],"anonymous":false},{"type":"error","name":"OwnableInvalidOwner","inputs":[{"name":"owner","type":"address","internalType":"address"}]},{"type":"error","name":"OwnableUnauthorizedAccount","inputs":[{"name":"account","type":"address","internalType":"address"}]}],"bytecode":{"object":"0x60a06040526000805460ff60a01b1916905534801561001d57600080fd5b5073d8253782c45a12053594b9deb72d8e8ab2fca54c338061005957604051631e4fbdf760e01b81526000600482015260240160405180910390fd5b61006281610074565b506001600160a01b03166080526100c4565b600080546001600160a01b038381166001600160a01b0319831681178455604051919092169283917f8be0079c531659141344cd1fd0a4f28419497f9722a3daafe3b4186f6b6457e09190a35050565b6080516123fb6100e660003960008181610492015261204301526123fb6000f3fe60806040526004361061025c5760003560e01c80636939864b116101445780639d9ca28d116100b6578063c6ec99ab1161007a578063c6ec99ab14610740578063d9fca76914610760578063df15c37e14610780578063e9081ec714610795578063f2fde38b146107cb578063fc7e286d146107eb57600080fd5b80639d9ca28d14610694578063a61fb2ba146106cd578063b6b55f25146106ed578063bc78084514610700578063c35344ad1461072057600080fd5b8063929066f511610108578063929066f5146105df57806394d898de146105ff57806399bd69d61461061f57806399dbf4b51461063f5780639abb82471461065f5780639bbe5e781461067457600080fd5b80636939864b146105395780636bd5450a14610567578063715018a6146105975780637cc947d0146105ac5780638da5cb5b146105c157600080fd5b80632c23ec8e116101dd578063558a7297116101a1578063558a729714610455578063572b6c05146104755780635aa68ac0146104c257806360d50da3146104e457806366af746b14610504578063683e93e11461051957600080fd5b80632c23ec8e146103af5780633644c27c146103cf57806338e21cce146103ef57806345745c101461041f57806350f3dbec1461043557600080fd5b80631593a8c7116102245780631593a8c714610343578063160344e21461035a5780631a0de74c1461036f5780631d0806ae14610384578063261704801461039a57600080fd5b8063045f9c9714610261578063080c279a1461029e57806308551a53146102c257806313e7c9d8146102e2578063158ef93e14610322575b600080fd5b34801561026d57600080fd5b5061028161027c366004612083565b610847565b6040516001600160a01b0390911681526020015b60405180910390f35b3480156102aa57600080fd5b506102b460035481565b604051908152602001610295565b3480156102ce57600080fd5b50600254610281906001600160a01b031681565b3480156102ee57600080fd5b506103126102fd3660046120b8565b60096020526000908152604090205460ff1681565b6040519015158152602001610295565b34801561032e57600080fd5b5060005461031290600160a01b900460ff1681565b34801561034f57600080fd5b50610358610871565b005b34801561036657600080fd5b506103586108c0565b34801561037b57600080fd5b50610358610998565b34801561039057600080fd5b506102b460045481565b3480156103a657600080fd5b50610358610c46565b3480156103bb57600080fd5b50600c54610281906001600160a01b031681565b3480156103db57600080fd5b506103586103ea3660046120b8565b610e0e565b3480156103fb57600080fd5b5061031261040a3660046120b8565b60066020526000908152604090205460ff1681565b34801561042b57600080fd5b506102b460055481565b34801561044157600080fd5b506103586104503660046120da565b610e38565b34801561046157600080fd5b50610358610470366004612112565b610f8c565b34801561048157600080fd5b506103126104903660046120b8565b7f00000000000000000000000000000000000000000000000000000000000000006001600160a01b0390811691161490565b3480156104ce57600080fd5b506104d7610fbf565b6040516102959190612149565b3480156104f057600080fd5b506103586104ff3660046120b8565b611021565b34801561051057600080fd5b5061035861104b565b34801561052557600080fd5b50610358610534366004612196565b611282565b34801561054557600080fd5b5060005461055a90600160a81b900460ff1681565b60405161029591906121cd565b34801561057357600080fd5b506103126105823660046120b8565b60086020526000908152604090205460ff1681565b3480156105a357600080fd5b506103586112e9565b3480156105b857600080fd5b506103586112fb565b3480156105cd57600080fd5b506000546001600160a01b0316610281565b3480156105eb57600080fd5b506103126105fa3660046120b8565b6114fb565b34801561060b57600080fd5b5061035861061a3660046120b8565b61155a565b34801561062b57600080fd5b5061035861063a366004612083565b611584565b34801561064b57600080fd5b50600d54610281906001600160a01b031681565b34801561066b57600080fd5b50610358611627565b34801561068057600080fd5b5061035861068f366004612083565b611800565b3480156106a057600080fd5b506103126106af3660046120b8565b6001600160a01b031660009081526008602052604090205460ff1690565b3480156106d957600080fd5b50600154610281906001600160a01b031681565b6103586106fb366004612083565b611849565b34801561070c57600080fd5b5061035861071b3660046121f5565b611c4f565b34801561072c57600080fd5b5061035861073b3660046120b8565b611d44565b34801561074c57600080fd5b50600e54610281906001600160a01b031681565b34801561076c57600080fd5b5061035861077b3660046120b8565b611e31565b34801561078c57600080fd5b506104d7611ee7565b3480156107a157600080fd5b506102b46107b03660046120b8565b6001600160a01b031660009081526007602052604090205490565b3480156107d757600080fd5b506103586107e63660046120b8565b611f47565b3480156107f757600080fd5b5061082a6108063660046120b8565b60076020526000908152604090208054600182015460029092015490919060ff1683565b604080519384526020840192909252151590820152606001610295565b600a818154811061085757600080fd5b6000918252602090912001546001600160a01b0316905081565b6002546001600160a01b0316610885611f82565b6001600160a01b0316146108b45760405162461bcd60e51b81526004016108ab906122a5565b60405180910390fd5b6108be6002611282565b565b6002546001600160a01b03166108d4611f82565b6001600160a01b0316146108fa5760405162461bcd60e51b81526004016108ab906122a5565b60008054600160a81b900460ff166004811115610919576109196121b7565b148061094257506002600054600160a81b900460ff166004811115610940576109406121b7565b145b61098e5760405162461bcd60e51b815260206004820152601a60248201527f4c6f747465727920697320696e2061637469766520737461746500000000000060448201526064016108ab565b6108be6001611282565b6002546001600160a01b03166109ac611f82565b6001600160a01b0316146109d25760405162461bcd60e51b81526004016108ab906122a5565b600060055411610a245760405162461bcd60e51b815260206004820152601b60248201527f4e6f207469636b657473206c65667420746f20616c6c6f63617465000000000060448201526064016108ab565b600b5460055410610adb5760005b600b54811015610ad5576000600b8281548110610a5157610a516122e7565b6000918252602090912001546001600160a01b03169050610a8a816001600160a01b031660009081526008602052604090205460ff1690565b610acc57610a9781611e31565b6040516001600160a01b038216907f1d4c260f1824cd028e6c9e6e31c3a0b94f2513e7a641113ec759d382f9bdd5a190600090a25b50600101610a32565b50610c1b565b610ae3611627565b600060076000600b6001600554610afa9190612313565b81548110610b0a57610b0a6122e7565b60009182526020808320909101546001600160a01b0316835282019290925260400181205491505b600554811015610c18578160076000600b8481548110610b5457610b546122e7565b60009182526020808320909101546001600160a01b0316835282019290925260400190205410610c10576000600b8281548110610b9357610b936122e7565b6000918252602090912001546001600160a01b03169050610bcc816001600160a01b031660009081526008602052604090205460ff1690565b610c0e57610bd981611e31565b6040516001600160a01b038216907f1d4c260f1824cd028e6c9e6e31c3a0b94f2513e7a641113ec759d382f9bdd5a190600090a25b505b600101610b32565b50505b6040517f9c89a6ed7228533196a3f962acc80d61a9c53bdea6b910741bf754f5aaa7569e90600090a1565b60066000610c52611f82565b6001600160a01b0316815260208101919091526040016000205460ff1615610cb15760405162461bcd60e51b815260206004820152601260248201527113919508185b1c9958591e481b5a5b9d195960721b60448201526064016108ab565b600060055411610d035760405162461bcd60e51b815260206004820152601b60248201527f4e6f207469636b657473206c65667420746f20616c6c6f63617465000000000060448201526064016108ab565b610d0e6106af611f82565b610d535760405162461bcd60e51b815260206004820152601660248201527521b0b63632b91034b9903737ba1030903bb4b73732b960511b60448201526064016108ab565b600160066000610d61611f82565b6001600160a01b0390811682526020820192909252604001600020805460ff191692151592909217909155600c5416636b8f60f6610d9d611f82565b6040516001600160e01b031960e084901b1681526001600160a01b039091166004820152602401600060405180830381600087803b158015610dde57600080fd5b505af1158015610df2573d6000803e3d6000fd5b505060058054925090506000610e078361232c565b9190505550565b610e16611f91565b600c80546001600160a01b0319166001600160a01b0392909216919091179055565b610e40611f82565b600e546001600160a01b03908116911614610ead5760405162461bcd60e51b815260206004820152602760248201527f4f6e6c792077686974656c6973746564206d61792063616c6c207468697320666044820152663ab731ba34b7b760c91b60648201526084016108ab565b610eb6826114fb565b15610eee576001600160a01b03821660009081526007602052604081208054839290610ee3908490612343565b90915550610f889050565b6040805160608101825282815242602080830191825260008385018181526001600160a01b038816808352600790935294812093518455915160018085019190915593516002909301805460ff191693151593909317909255600b8054938401815590527f0175b7a638427703f0dbe7bb9bbf987a2551717b34e79f33b5b1008d1fa01db990910180546001600160a01b03191690911790555b5050565b610f94611f91565b6001600160a01b03919091166000908152600960205260409020805460ff1916911515919091179055565b6060600b80548060200260200160405190810160405280929190818152602001828054801561101757602002820191906000526020600020905b81546001600160a01b03168152600190910190602001808311610ff9575b5050505050905090565b611029611f91565b600180546001600160a01b0319166001600160a01b0392909216919091179055565b6002546001600160a01b031661105f611f82565b6001600160a01b0316146110855760405162461bcd60e51b81526004016108ab906122a5565b6002600054600160a81b900460ff1660048111156110a5576110a56121b7565b146110e65760405162461bcd60e51b8152602060048201526011602482015270131bdd1d195c9e481b9bdd08195b991959607a1b60448201526064016108ab565b6000805b600a5481101561115f576000600a8281548110611109576111096122e7565b60009182526020808320909101546001600160a01b0316808352600790915260409091205490915061113b9084612343565b6001600160a01b0390911660009081526007602052604081205591506001016110ea565b506000606461116f836005612356565b611179919061236d565b905060006111878284612313565b600d5460015460405163a9059cbb60e01b81526001600160a01b03918216600482015260248101869052929350169063a9059cbb906044016020604051808303816000875af11580156111de573d6000803e3d6000fd5b505050506040513d601f19601f82011682018060405250810190611202919061238f565b50600d5460025460405163a9059cbb60e01b81526001600160a01b0391821660048201526024810184905291169063a9059cbb906044016020604051808303816000875af1158015611258573d6000803e3d6000fd5b505050506040513d601f19601f8201168201806040525081019061127c919061238f565b50505050565b6002546001600160a01b0316611296611f82565b6001600160a01b0316146112bc5760405162461bcd60e51b81526004016108ab906122a5565b6000805482919060ff60a81b1916600160a81b8360048111156112e1576112e16121b7565b021790555050565b6112f1611f91565b6108be6000611fef565b6001600054600160a81b900460ff16600481111561131b5761131b6121b7565b036113685760405162461bcd60e51b815260206004820152601b60248201527f4c6f74746572792069732063757272656e746c7920616374697665000000000060448201526064016108ab565b60086000611374611f82565b6001600160a01b0316815260208101919091526040016000205460ff16156113de5760405162461bcd60e51b815260206004820152601760248201527f57696e6e6572732063616e6e6f7420776974686472617700000000000000000060448201526064016108ab565b6000600760006113ec611f82565b6001600160a01b0316815260208101919091526040016000205490508061144c5760405162461bcd60e51b81526020600482015260146024820152734e6f2066756e647320746f20776974686472617760601b60448201526064016108ab565b60006007600061145a611f82565b6001600160a01b039081168252602082019290925260400160002091909155600d541663a9059cbb61148a611f82565b6040516001600160e01b031960e084901b1681526001600160a01b039091166004820152602481018490526044016020604051808303816000875af11580156114d7573d6000803e3d6000fd5b505050506040513d601f19601f82011682018060405250810190610f88919061238f565b6000805b600b5481101561155157826001600160a01b0316600b8281548110611526576115266122e7565b6000918252602090912001546001600160a01b0316036115495750600192915050565b6001016114ff565b50600092915050565b611562611f91565b600d80546001600160a01b0319166001600160a01b0392909216919091179055565b6002546001600160a01b0316611598611f82565b6001600160a01b0316146115be5760405162461bcd60e51b81526004016108ab906122a5565b600081116116225760405162461bcd60e51b815260206004820152602b60248201527f4e756d626572206f66207469636b657473206d7573742062652067726561746560448201526a72207468616e207a65726f60a81b60648201526084016108ab565b600555565b6002546001600160a01b031661163b611f82565b6001600160a01b0316146116615760405162461bcd60e51b81526004016108ab906122a5565b60005b600b548110156117fd57600061167b826001612343565b90505b600b548110156117f45760076000600b838154811061169f5761169f6122e7565b60009182526020808320909101546001600160a01b03168352820192909252604001812054600b80549192600792909190869081106116e0576116e06122e7565b60009182526020808320909101546001600160a01b0316835282019290925260400190205410156117ec576000600b8381548110611720576117206122e7565b600091825260209091200154600b80546001600160a01b039092169250908390811061174e5761174e6122e7565b600091825260209091200154600b80546001600160a01b03909216918590811061177a5761177a6122e7565b9060005260206000200160006101000a8154816001600160a01b0302191690836001600160a01b0316021790555080600b83815481106117bc576117bc6122e7565b9060005260206000200160006101000a8154816001600160a01b0302191690836001600160a01b03160217905550505b60010161167e565b50600101611664565b50565b6002546001600160a01b0316611814611f82565b6001600160a01b03161461183a5760405162461bcd60e51b81526004016108ab906122a5565b6004546000036117fd57600455565b6001600054600160a81b900460ff166004811115611869576118696121b7565b146118ae5760405162461bcd60e51b81526020600482015260156024820152744c6f7474657279206973206e6f742061637469766560581b60448201526064016108ab565b6118b96106af611f82565b156118ff5760405162461bcd60e51b815260206004820152601660248201527515da5b9b995c9cc818d85b9b9bdd0819195c1bdcda5d60521b60448201526064016108ab565b600d546001600160a01b03166119575760405162461bcd60e51b815260206004820152601d60248201527f5553444320636f6e74726163742061646472657373206e6f742073657400000060448201526064016108ab565b6004548110156119a95760405162461bcd60e51b815260206004820152601760248201527f496e73756666696369656e742066756e64732073656e7400000000000000000060448201526064016108ab565b600081116119e95760405162461bcd60e51b815260206004820152600d60248201526c139bc8199d5b991cc81cd95b9d609a1b60448201526064016108ab565b600d5481906001600160a01b031663dd62ed3e611a04611f82565b6040516001600160e01b031960e084901b1681526001600160a01b039091166004820152306024820152604401602060405180830381865afa158015611a4e573d6000803e3d6000fd5b505050506040513d601f19601f82011682018060405250810190611a7291906123ac565b1015611ab95760405162461bcd60e51b8152602060048201526016602482015275496e73756666696369656e7420616c6c6f77616e636560501b60448201526064016108ab565b600d546001600160a01b03166323b872dd611ad2611f82565b6040516001600160e01b031960e084901b1681526001600160a01b039091166004820152306024820152604481018490526064016020604051808303816000875af1158015611b25573d6000803e3d6000fd5b505050506040513d601f19601f82011682018060405250810190611b49919061238f565b50611b556105fa611f82565b15611ba4578060076000611b67611f82565b6001600160a01b03166001600160a01b031681526020019081526020016000206000016000828254611b999190612343565b909155506117fd9050565b60405180606001604052808281526020014281526020016000151581525060076000611bce611f82565b6001600160a01b0316815260208082019290925260409081016000208351815591830151600183015591909101516002909101805460ff1916911515919091179055600b611c1a611f82565b81546001810183556000928352602090922090910180546001600160a01b0319166001600160a01b0390921691909117905550565b600054600160a01b900460ff1615611c9f5760405162461bcd60e51b8152602060048201526013602482015272105b1c9958591e481a5b9a5d1a585b1a5e9959606a1b60448201526064016108ab565b8051600280546001600160a01b0319166001600160a01b039092169190911790556020810151611cce90611fef565b6040810151600555606081015160038190556004556080810151600d80546001600160a01b03199081166001600160a01b039384161790915560a083015160018054831691841691909117905560c090920151600e8054909316911617905560008054600160a01b60ff60a01b19909116179055565b6002546001600160a01b0316611d58611f82565b6001600160a01b03161480611d8757506000546001600160a01b0316611d7c611f82565b6001600160a01b0316145b80611db7575060096000611d99611f82565b6001600160a01b0316815260208101919091526040016000205460ff165b611e0f5760405162461bcd60e51b8152602060048201526024808201527f4f6e6c79206f70657261746f722063616e2063616c6c20746869732066756e636044820152633a34b7b760e11b60648201526084016108ab565b600e80546001600160a01b0319166001600160a01b0392909216919091179055565b6002546001600160a01b0316611e45611f82565b6001600160a01b031614611e6b5760405162461bcd60e51b81526004016108ab906122a5565b6001600160a01b031660008181526008602090815260408083208054600160ff199182168117909255600a80548084019091557fc65a7bb8d6351c1cf70c95a316cc6a92839c986682d98bc35f958f4883f9d2a80180546001600160a01b03191690961790955560079092529091206002018054909216179055565b6060600a805480602002602001604051908101604052809291908181526020018280548015611017576020028201919060005260206000209081546001600160a01b03168152600190910190602001808311610ff9575050505050905090565b611f4f611f91565b6001600160a01b038116611f7957604051631e4fbdf760e01b8152600060048201526024016108ab565b6117fd81611fef565b6000611f8c61203f565b905090565b611f99611f82565b6001600160a01b0316611fb46000546001600160a01b031690565b6001600160a01b0316146108be57611fca611f82565b60405163118cdaa760e01b81526001600160a01b0390911660048201526024016108ab565b600080546001600160a01b038381166001600160a01b0319831681178455604051919092169283917f8be0079c531659141344cd1fd0a4f28419497f9722a3daafe3b4186f6b6457e09190a35050565b60007f00000000000000000000000000000000000000000000000000000000000000006001600160a01b0316330361207e575060131936013560601c90565b503390565b60006020828403121561209557600080fd5b5035919050565b80356001600160a01b03811681146120b357600080fd5b919050565b6000602082840312156120ca57600080fd5b6120d38261209c565b9392505050565b600080604083850312156120ed57600080fd5b6120f68361209c565b946020939093013593505050565b80151581146117fd57600080fd5b6000806040838503121561212557600080fd5b61212e8361209c565b9150602083013561213e81612104565b809150509250929050565b6020808252825182820181905260009190848201906040850190845b8181101561218a5783516001600160a01b031683529284019291840191600101612165565b50909695505050505050565b6000602082840312156121a857600080fd5b8135600581106120d357600080fd5b634e487b7160e01b600052602160045260246000fd5b60208101600583106121ef57634e487b7160e01b600052602160045260246000fd5b91905290565b600060e0828403121561220757600080fd5b60405160e0810181811067ffffffffffffffff8211171561223857634e487b7160e01b600052604160045260246000fd5b6040526122448361209c565b81526122526020840161209c565b602082015260408301356040820152606083013560608201526122776080840161209c565b608082015261228860a0840161209c565b60a082015261229960c0840161209c565b60c08201529392505050565b60208082526022908201527f4f6e6c792073656c6c65722063616e2063616c6c20746869732066756e63746960408201526137b760f11b606082015260800190565b634e487b7160e01b600052603260045260246000fd5b634e487b7160e01b600052601160045260246000fd5b81810381811115612326576123266122fd565b92915050565b60008161233b5761233b6122fd565b506000190190565b80820180821115612326576123266122fd565b8082028115828204841417612326576123266122fd565b60008261238a57634e487b7160e01b600052601260045260246000fd5b500490565b6000602082840312156123a157600080fd5b81516120d381612104565b6000602082840312156123be57600080fd5b505191905056fea2646970667358221220b616c5011a84e2ea317d9661c8613b8bc63d68cc70ecdbb88c9cd8b6a6b03c4064736f6c63430008190033","linkReferences":{}},"methodIdentifiers":{"auctionV1Addr()":"c6ec99ab","buyerWithdraw()":"7cc947d0","changeLotteryState(uint8)":"683e93e1","deposit(uint256)":"b6b55f25","deposits(address)":"fc7e286d","endLottery()":"1593a8c7","getDepositedAmount(address)":"e9081ec7","getParticipants()":"5aa68ac0","getWinners()":"df15c37e","hasMinted(address)":"38e21cce","initialPrice()":"1d0806ae","initialize((address,address,uint256,uint256,address,address,address))":"bc780845","initialized()":"158ef93e","isParticipant(address)":"929066f5","isTrustedForwarder(address)":"572b6c05","isWinner(address)":"9d9ca28d","lotteryState()":"6939864b","minimumDepositAmount()":"080c279a","mintMyNFT()":"26170480","multisigWalletAddress()":"a61fb2ba","nftContractAddr()":"2c23ec8e","numberOfTickets()":"45745c10","operators(address)":"13e7c9d8","owner()":"8da5cb5b","renounceOwnership()":"715018a6","selectWinners()":"1a0de74c","seller()":"08551a53","sellerWithdraw()":"66af746b","setAuctionV1Addr(address)":"c35344ad","setInitPrice(uint256)":"9bbe5e78","setMultisigWalletAddress(address)":"60d50da3","setNftContractAddr(address)":"3644c27c","setNumberOfTickets(uint256)":"99bd69d6","setOperator(address,bool)":"558a7297","setUsdcContractAddr(address)":"94d898de","setWinner(address)":"d9fca769","sortDepositsDesc()":"9abb8247","startLottery()":"160344e2","transferDeposit(address,uint256)":"50f3dbec","transferOwnership(address)":"f2fde38b","usdcContractAddr()":"99dbf4b5","winnerAddresses(uint256)":"045f9c97","winners(address)":"6bd5450a"},"id":3}