{"abi":[{"type":"function","name":"buyerWithdraw","inputs":[],"outputs":[],"stateMutability":"nonpayable"},{"type":"function","name":"changeLotteryState","inputs":[{"name":"_newState","type":"uint8","internalType":"enum SaleBase.LotteryState"}],"outputs":[],"stateMutability":"nonpayable"},{"type":"function","name":"currentPrice","inputs":[],"outputs":[{"name":"","type":"uint256","internalType":"uint256"}],"stateMutability":"view"},{"type":"function","name":"deposit","inputs":[{"name":"amount","type":"uint256","internalType":"uint256"}],"outputs":[],"stateMutability":"nonpayable"},{"type":"function","name":"deposits","inputs":[{"name":"","type":"address","internalType":"address"}],"outputs":[{"name":"","type":"uint256","internalType":"uint256"}],"stateMutability":"view"},{"type":"function","name":"endLottery","inputs":[],"outputs":[],"stateMutability":"nonpayable"},{"type":"function","name":"fulfillRandomness","inputs":[{"name":"randomness","type":"uint256","internalType":"uint256"},{"name":"dataWithRound","type":"bytes","internalType":"bytes"}],"outputs":[],"stateMutability":"nonpayable"},{"type":"function","name":"getDepositedAmount","inputs":[{"name":"participant","type":"address","internalType":"address"}],"outputs":[{"name":"","type":"uint256","internalType":"uint256"}],"stateMutability":"view"},{"type":"function","name":"getParticipants","inputs":[],"outputs":[{"name":"","type":"address[]","internalType":"address[]"}],"stateMutability":"view"},{"type":"function","name":"getWinners","inputs":[],"outputs":[{"name":"","type":"address[]","internalType":"address[]"}],"stateMutability":"view"},{"type":"function","name":"hasMinted","inputs":[{"name":"","type":"address","internalType":"address"}],"outputs":[{"name":"","type":"bool","internalType":"bool"}],"stateMutability":"view"},{"type":"function","name":"increasePriceStep","inputs":[],"outputs":[{"name":"","type":"uint256","internalType":"uint256"}],"stateMutability":"view"},{"type":"function","name":"initialPrice","inputs":[],"outputs":[{"name":"","type":"uint256","internalType":"uint256"}],"stateMutability":"view"},{"type":"function","name":"initialize","inputs":[{"name":"config","type":"tuple","internalType":"struct StructsLibrary.ILotteryBaseConfig","components":[{"name":"_gelatoVrfOperator","type":"address","internalType":"address"},{"name":"_blessedOperator","type":"address","internalType":"address"},{"name":"_owner","type":"address","internalType":"address"},{"name":"_ticketAmount","type":"uint256","internalType":"uint256"},{"name":"_ticketPrice","type":"uint256","internalType":"uint256"},{"name":"_usdcContractAddr","type":"address","internalType":"address"},{"name":"_multisigWalletAddress","type":"address","internalType":"address"},{"name":"_prevPhaseContractAddr","type":"address","internalType":"address"}]}],"outputs":[],"stateMutability":"nonpayable"},{"type":"function","name":"initialized","inputs":[],"outputs":[{"name":"","type":"bool","internalType":"bool"}],"stateMutability":"view"},{"type":"function","name":"isTrustedForwarder","inputs":[{"name":"forwarder","type":"address","internalType":"address"}],"outputs":[{"name":"","type":"bool","internalType":"bool"}],"stateMutability":"view"},{"type":"function","name":"isWinner","inputs":[{"name":"_participant","type":"address","internalType":"address"}],"outputs":[{"name":"","type":"bool","internalType":"bool"}],"stateMutability":"view"},{"type":"function","name":"lotteryState","inputs":[],"outputs":[{"name":"","type":"uint8","internalType":"enum SaleBase.LotteryState"}],"stateMutability":"view"},{"type":"function","name":"lotteryV2Addr","inputs":[],"outputs":[{"name":"","type":"address","internalType":"address"}],"stateMutability":"view"},{"type":"function","name":"minimumDepositAmount","inputs":[],"outputs":[{"name":"","type":"uint256","internalType":"uint256"}],"stateMutability":"view"},{"type":"function","name":"mintMyNFT","inputs":[],"outputs":[],"stateMutability":"nonpayable"},{"type":"function","name":"multisigWalletAddress","inputs":[],"outputs":[{"name":"","type":"address","internalType":"address"}],"stateMutability":"view"},{"type":"function","name":"nftContractAddr","inputs":[],"outputs":[{"name":"","type":"address","internalType":"address"}],"stateMutability":"view"},{"type":"function","name":"numberOfTickets","inputs":[],"outputs":[{"name":"","type":"uint256","internalType":"uint256"}],"stateMutability":"view"},{"type":"function","name":"operatorAddr","inputs":[],"outputs":[{"name":"","type":"address","internalType":"address"}],"stateMutability":"view"},{"type":"function","name":"operators","inputs":[{"name":"","type":"address","internalType":"address"}],"outputs":[{"name":"","type":"bool","internalType":"bool"}],"stateMutability":"view"},{"type":"function","name":"owner","inputs":[],"outputs":[{"name":"","type":"address","internalType":"address"}],"stateMutability":"view"},{"type":"function","name":"prevRoundDeposits","inputs":[],"outputs":[{"name":"","type":"uint256","internalType":"uint256"}],"stateMutability":"view"},{"type":"function","name":"prevRoundTicketsAmount","inputs":[],"outputs":[{"name":"","type":"uint256","internalType":"uint256"}],"stateMutability":"view"},{"type":"function","name":"randomNumber","inputs":[],"outputs":[{"name":"","type":"uint256","internalType":"uint256"}],"stateMutability":"view"},{"type":"function","name":"renounceOwnership","inputs":[],"outputs":[],"stateMutability":"nonpayable"},{"type":"function","name":"requestPending","inputs":[{"name":"","type":"uint256","internalType":"uint256"}],"outputs":[{"name":"","type":"bool","internalType":"bool"}],"stateMutability":"view"},{"type":"function","name":"requestRandomness","inputs":[],"outputs":[],"stateMutability":"nonpayable"},{"type":"function","name":"requestedHash","inputs":[{"name":"","type":"uint256","internalType":"uint256"}],"outputs":[{"name":"","type":"bytes32","internalType":"bytes32"}],"stateMutability":"view"},{"type":"function","name":"roundCounter","inputs":[],"outputs":[{"name":"","type":"uint256","internalType":"uint256"}],"stateMutability":"view"},{"type":"function","name":"rounds","inputs":[{"name":"","type":"uint256","internalType":"uint256"}],"outputs":[{"name":"number","type":"uint256","internalType":"uint256"},{"name":"finishAt","type":"uint256","internalType":"uint256"},{"name":"numberOfTickets","type":"uint256","internalType":"uint256"},{"name":"lotteryStarted","type":"bool","internalType":"bool"},{"name":"winnersSelected","type":"bool","internalType":"bool"}],"stateMutability":"view"},{"type":"function","name":"selectWinners","inputs":[],"outputs":[],"stateMutability":"nonpayable"},{"type":"function","name":"seller","inputs":[],"outputs":[{"name":"","type":"address","internalType":"address"}],"stateMutability":"view"},{"type":"function","name":"sellerWithdraw","inputs":[],"outputs":[],"stateMutability":"nonpayable"},{"type":"function","name":"setCurrentPrice","inputs":[{"name":"_amount","type":"uint256","internalType":"uint256"}],"outputs":[],"stateMutability":"nonpayable"},{"type":"function","name":"setLotteryV2Addr","inputs":[{"name":"_lotteryV2Addr","type":"address","internalType":"address"}],"outputs":[],"stateMutability":"nonpayable"},{"type":"function","name":"setMinimumDepositAmount","inputs":[{"name":"_amount","type":"uint256","internalType":"uint256"}],"outputs":[],"stateMutability":"nonpayable"},{"type":"function","name":"setMultisigWalletAddress","inputs":[{"name":"_multisigWalletAddress","type":"address","internalType":"address"}],"outputs":[],"stateMutability":"nonpayable"},{"type":"function","name":"setNftContractAddr","inputs":[{"name":"_nftContractAddr","type":"address","internalType":"address"}],"outputs":[],"stateMutability":"nonpayable"},{"type":"function","name":"setNumberOfTickets","inputs":[{"name":"_numberOfTickets","type":"uint256","internalType":"uint256"}],"outputs":[],"stateMutability":"nonpayable"},{"type":"function","name":"setOperator","inputs":[{"name":"_operatorAddr","type":"address","internalType":"address"},{"name":"_flag","type":"bool","internalType":"bool"}],"outputs":[],"stateMutability":"nonpayable"},{"type":"function","name":"setPriceStep","inputs":[{"name":"_increasePriceStep","type":"uint256","internalType":"uint256"}],"outputs":[],"stateMutability":"nonpayable"},{"type":"function","name":"setSeller","inputs":[{"name":"_seller","type":"address","internalType":"address"}],"outputs":[],"stateMutability":"nonpayable"},{"type":"function","name":"setUsdcContractAddr","inputs":[{"name":"_usdcContractAddr","type":"address","internalType":"address"}],"outputs":[],"stateMutability":"nonpayable"},{"type":"function","name":"setupNewRound","inputs":[{"name":"_finishAt","type":"uint256","internalType":"uint256"},{"name":"_numberOfTickets","type":"uint256","internalType":"uint256"}],"outputs":[],"stateMutability":"nonpayable"},{"type":"function","name":"startLottery","inputs":[],"outputs":[],"stateMutability":"nonpayable"},{"type":"function","name":"totalNumberOfTickets","inputs":[],"outputs":[{"name":"","type":"uint256","internalType":"uint256"}],"stateMutability":"view"},{"type":"function","name":"transferDeposit","inputs":[{"name":"_participant","type":"address","internalType":"address"},{"name":"_amount","type":"uint256","internalType":"uint256"}],"outputs":[],"stateMutability":"nonpayable"},{"type":"function","name":"transferNonWinnerBids","inputs":[{"name":"destinationAddr","type":"address","internalType":"address"}],"outputs":[],"stateMutability":"nonpayable"},{"type":"function","name":"transferOwnership","inputs":[{"name":"newOwner","type":"address","internalType":"address"}],"outputs":[],"stateMutability":"nonpayable"},{"type":"function","name":"usdcContractAddr","inputs":[],"outputs":[{"name":"","type":"address","internalType":"address"}],"stateMutability":"view"},{"type":"function","name":"winnerAddresses","inputs":[{"name":"","type":"uint256","internalType":"uint256"}],"outputs":[{"name":"","type":"address","internalType":"address"}],"stateMutability":"view"},{"type":"function","name":"winners","inputs":[{"name":"","type":"address","internalType":"address"}],"outputs":[{"name":"","type":"bool","internalType":"bool"}],"stateMutability":"view"},{"type":"event","name":"LotteryEnded","inputs":[],"anonymous":false},{"type":"event","name":"LotteryStarted","inputs":[],"anonymous":false},{"type":"event","name":"OwnershipTransferred","inputs":[{"name":"previousOwner","type":"address","indexed":true,"internalType":"address"},{"name":"newOwner","type":"address","indexed":true,"internalType":"address"}],"anonymous":false},{"type":"event","name":"RandomFulfilled","inputs":[{"name":"number","type":"uint256","indexed":false,"internalType":"uint256"}],"anonymous":false},{"type":"event","name":"RandomRequested","inputs":[{"name":"requester","type":"address","indexed":true,"internalType":"address"}],"anonymous":false},{"type":"event","name":"RequestedRandomness","inputs":[{"name":"round","type":"uint256","indexed":false,"internalType":"uint256"},{"name":"data","type":"bytes","indexed":false,"internalType":"bytes"}],"anonymous":false},{"type":"event","name":"WinnerSelected","inputs":[{"name":"winner","type":"address","indexed":true,"internalType":"address"}],"anonymous":false},{"type":"error","name":"OwnableInvalidOwner","inputs":[{"name":"owner","type":"address","internalType":"address"}]},{"type":"error","name":"OwnableUnauthorizedAccount","inputs":[{"name":"account","type":"address","internalType":"address"}]}],"bytecode":{"object":"0x60a0604052600e805460ff1916905560016016819055601755600560185534801561002957600080fd5b5073d8253782c45a12053594b9deb72d8e8ab2fca54c338061006557604051631e4fbdf760e01b81526000600482015260240160405180910390fd5b61006e81610080565b506001600160a01b03166080526100d0565b600080546001600160a01b038381166001600160a01b0319831681178455604051919092169283917f8be0079c531659141344cd1fd0a4f28419497f9722a3daafe3b4186f6b6457e09190a35050565b60805161308e6100f26000396000818161052a015261298a015261308e6000f3fe608060405234801561001057600080fd5b506004361061038d5760003560e01c8063715018a6116101de578063aab483d61161010f578063df15c37e116100ad578063f3f18c371161007c578063f3f18c371461081a578063f8413b071461082d578063fc7e286d14610835578063febc14b11461085557600080fd5b8063df15c37e146107c3578063e9081ec7146107cb578063e99d2866146107f4578063f2fde38b1461080757600080fd5b8063b680e44b116100e9578063b680e44b1461077e578063b6b55f2514610787578063c4f8f27b1461079a578063ccbac9f5146107ba57600080fd5b8063aab483d614610745578063af94862c14610758578063b3f6b99a1461076b57600080fd5b806396efac7b1161017c5780639d1b464a116101565780639d1b464a146106ea5780639d9ca28d146106f3578063a4f03c021461071f578063a61fb2ba1461073257600080fd5b806396efac7b146106bb57806399bd69d6146106c457806399dbf4b5146106d757600080fd5b80637de13382116101b85780637de13382146106175780638c65c81f1461062a5780638da5cb5b1461069757806394d898de146106a857600080fd5b8063715018a6146105f457806375ce7fff146105fc5780637cc947d01461060f57600080fd5b80632c23ec8e116102c3578063572b6c051161026157806366af746b1161023057806366af746b14610595578063683e93e11461059d5780636939864b146105b05780636bd5450a146105d157600080fd5b8063572b6c051461051a5780635a6838c51461055a5780635aa68ac01461056d57806360d50da31461058257600080fd5b806338e21cce1161029d57806338e21cce146104c857806345745c10146104eb57806350f3dbec146104f4578063558a72971461050757600080fd5b80632c23ec8e1461048f5780633639eb2e146104a25780633644c27c146104b557600080fd5b8063160344e2116103305780631a0de74c1161030a5780631a0de74c1461046d5780631d0806ae14610475578063224f91bd1461047e578063261704801461048757600080fd5b8063160344e21461043f5780631630a8df1461044757806318b200711461045a57600080fd5b806308551a531161036c57806308551a53146103e257806313e7c9d8146103f5578063158ef93e146104285780631593a8c71461043557600080fd5b806274670214610392578063045f9c97146103ae578063080c279a146103d9575b600080fd5b61039b60195481565b6040519081526020015b60405180910390f35b6103c16103bc366004612a53565b61085e565b6040516001600160a01b0390911681526020016103a5565b61039b60035481565b6002546103c1906001600160a01b031681565b610418610403366004612a88565b60116020526000908152604090205460ff1681565b60405190151581526020016103a5565b600e546104189060ff1681565b61043d610888565b005b61043d610900565b61043d610455366004612a88565b610a1c565b61043d610468366004612a53565b610cb9565b61043d610d08565b61039b60155481565b61039b60175481565b61043d611197565b600a546103c1906001600160a01b031681565b61043d6104b0366004612a88565b6113f2565b61043d6104c3366004612a88565b61144e565b6104186104d6366004612a88565b60056020526000908152604090205460ff1681565b61039b60045481565b61043d610502366004612aaa565b611478565b61043d610515366004612ae2565b6115b8565b610418610528366004612a88565b7f00000000000000000000000000000000000000000000000000000000000000006001600160a01b0390811691161490565b61043d610568366004612b60565b6115eb565b6105756116f4565b6040516103a59190612c17565b61043d610590366004612a88565b611756565b61043d611780565b61043d6105ab366004612c64565b6119b7565b6000546105c490600160a01b900460ff1681565b6040516103a59190612c9b565b6104186105df366004612a88565b60076020526000908152604090205460ff1681565b61043d611a1e565b61041861060a366004612a53565b611a32565b61043d611a66565b6012546103c1906001600160a01b031681565b61066b610638366004612a53565b600f6020526000908152604090208054600182015460028301546003909301549192909160ff8082169161010090041685565b60408051958652602086019490945292840191909152151560608301521515608082015260a0016103a5565b6000546001600160a01b03166103c1565b61043d6106b6366004612a88565b611c68565b61039b60185481565b61043d6106d2366004612a53565b611c92565b600b546103c1906001600160a01b031681565b61039b60145481565b610418610701366004612a88565b6001600160a01b031660009081526007602052604090205460ff1690565b61043d61072d366004612cc3565b611d3a565b6001546103c1906001600160a01b031681565b61043d610753366004612a53565b611ffc565b61043d610766366004612a53565b61203b565b61043d610779366004612ce5565b61207a565b61039b60165481565b61043d610795366004612a53565b612254565b61039b6107a8366004612a53565b600d6020526000908152604090205481565b61039b601a5481565b61057561257e565b61039b6107d9366004612a88565b6001600160a01b031660009081526006602052604090205490565b61043d610802366004612a88565b6125de565b61043d610815366004612a88565b61263a565b6013546103c1906001600160a01b031681565b61043d612675565b61039b610843366004612a88565b60066020526000908152604090205481565b61039b60105481565b6008818154811061086e57600080fd5b6000918252602090912001546001600160a01b0316905081565b6002546001600160a01b031661089c612723565b6001600160a01b0316146108cb5760405162461bcd60e51b81526004016108c290612d61565b60405180910390fd5b6108d560026119b7565b6040517f9c89a6ed7228533196a3f962acc80d61a9c53bdea6b910741bf754f5aaa7569e90600090a1565b6002546001600160a01b0316610914612723565b6001600160a01b03161461093a5760405162461bcd60e51b81526004016108c290612d61565b60008054600160a01b900460ff16600281111561095957610959612c85565b146109a65760405162461bcd60e51b815260206004820152601760248201527f53616c6520697320696e2061637469766520737461746500000000000000000060448201526064016108c2565b600160105410156109f15760405162461bcd60e51b815260206004820152601560248201527414d95d1d5c081b995dc81c9bdd5b9908199a5c9cdd605a1b60448201526064016108c2565b6109fb60016119b7565b6010546000908152600f60205260409020600301805460ff19166001179055565b6002546001600160a01b0316610a30612723565b6001600160a01b031614610a565760405162461bcd60e51b81526004016108c290612d61565b60005b600954811015610cb55760006006600060098481548110610a7c57610a7c612da3565b60009182526020808320909101546001600160a01b031683528201929092526040018120546009805491935060069183919086908110610abe57610abe612da3565b6000918252602080832091909101546001600160a01b039081168452908301939093526040918201902092909255600b54915163a9059cbb60e01b815285821660048201526024810184905291169063a9059cbb906044016020604051808303816000875af1158015610b35573d6000803e3d6000fd5b505050506040513d601f19601f82011682018060405250810190610b599190612db9565b50826001600160a01b03166350f3dbec60098481548110610b7c57610b7c612da3565b60009182526020909120015460405160e083901b6001600160e01b03191681526001600160a01b03909116600482015260248101849052604401600060405180830381600087803b158015610bd057600080fd5b505af1158015610be4573d6000803e3d6000fd5b5050600954610bf7925060019150612dec565b821015610c795760098054610c0e90600190612dec565b81548110610c1e57610c1e612da3565b600091825260209091200154600980546001600160a01b039092169184908110610c4a57610c4a612da3565b9060005260206000200160006101000a8154816001600160a01b0302191690836001600160a01b031602179055505b6009805480610c8a57610c8a612e05565b600082815260209020810160001990810180546001600160a01b031916905501905550600101610a59565b5050565b6002546001600160a01b0316610ccd612723565b6001600160a01b031614610cf35760405162461bcd60e51b81526004016108c290612d61565b601554600003610d035760158190555b601455565b6002546001600160a01b0316610d1c612723565b6001600160a01b031614610d425760405162461bcd60e51b81526004016108c290612d61565b600060045411610d945760405162461bcd60e51b815260206004820152601b60248201527f4e6f207469636b657473206c65667420746f20616c6c6f63617465000000000060448201526064016108c2565b6000805460ff60a01b1916600160a01b1790556009546004548111610e6e5760005b81811015610e5757600060098281548110610dd357610dd3612da3565b6000918252602090912001546001600160a01b03169050610e0c816001600160a01b031660009081526007602052604090205460ff1690565b610e4e57610e1981612732565b6040516001600160a01b038216907f1d4c260f1824cd028e6c9e6e31c3a0b94f2513e7a641113ec759d382f9bdd5a190600090a25b50600101610db6565b50610e6460096000612a21565b6000600455611104565b60005b81811015610f82576000610e858284612dec565b601a54610e929190612e31565b610e9c9083612e45565b9050600060098281548110610eb357610eb3612da3565b600091825260209091200154600980546001600160a01b0390921692509084908110610ee157610ee1612da3565b600091825260209091200154600980546001600160a01b039092169184908110610f0d57610f0d612da3565b9060005260206000200160006101000a8154816001600160a01b0302191690836001600160a01b031602179055508060098481548110610f4f57610f4f612da3565b600091825260209091200180546001600160a01b0319166001600160a01b03929092169190911790555050600101610e71565b5060005b60045481101561102957600060098281548110610fa557610fa5612da3565b6000918252602090912001546001600160a01b03169050610fde816001600160a01b031660009081526007602052604090205460ff1690565b61102057610feb81612732565b6040516001600160a01b038216907f1d4c260f1824cd028e6c9e6e31c3a0b94f2513e7a641113ec759d382f9bdd5a190600090a25b50600101610f86565b506004546000905b828110156110b6576009818154811061104c5761104c612da3565b600091825260209091200154600980546001600160a01b03909216918490811061107857611078612da3565b600091825260209091200180546001600160a01b0319166001600160a01b0392909216919091179055816110ab81612e58565b925050600101611031565b50805b828110156110fc5760098054806110d2576110d2612e05565b600082815260209020810160001990810180546001600160a01b03191690550190556001016110b9565b505060006004555b6001600f600060016010546111199190612dec565b81526020810191909152604001600090812060030180549215156101000261ff001990931692909217909155805460ff60a01b191681556019549003611194576000805460ff60a01b1916600160a11b1781556040517f9c89a6ed7228533196a3f962acc80d61a9c53bdea6b910741bf754f5aaa7569e9190a15b50565b6111a2610701612723565b6111e75760405162461bcd60e51b815260206004820152601660248201527521b0b63632b91034b9903737ba1030903bb4b73732b960511b60448201526064016108c2565b600560006111f3612723565b6001600160a01b0316815260208101919091526040016000205460ff16156112525760405162461bcd60e51b815260206004820152601260248201527113919508185b1c9958591e481b5a5b9d195960721b60448201526064016108c2565b600160056000611260612723565b6001600160a01b0316815260208101919091526040016000908120805460ff191692151592909217909155601454600682611299612723565b6001600160a01b03166001600160a01b03168152602001908152602001600020546112c49190612dec565b9050801561135857600b546001600160a01b031663a9059cbb6112e5612723565b6040516001600160e01b031960e084901b1681526001600160a01b039091166004820152602481018490526044016020604051808303816000875af1158015611332573d6000803e3d6000fd5b505050506040513d601f19601f820116820180604052508101906113569190612db9565b505b600060066000611366612723565b6001600160a01b039081168252602082019290925260400160002091909155600a5416636b8f60f6611396612723565b6040516001600160e01b031960e084901b1681526001600160a01b039091166004820152602401600060405180830381600087803b1580156113d757600080fd5b505af11580156113eb573d6000803e3d6000fd5b5050505050565b6002546001600160a01b0316611406612723565b6001600160a01b03161461142c5760405162461bcd60e51b81526004016108c290612d61565b601280546001600160a01b0319166001600160a01b0392909216919091179055565b611456612798565b600a80546001600160a01b0319166001600160a01b0392909216919091179055565b611480612723565b6012546001600160a01b039081169116146114ed5760405162461bcd60e51b815260206004820152602760248201527f4f6e6c792077686974656c6973746564206d61792063616c6c207468697320666044820152663ab731ba34b7b760c91b60648201526084016108c2565b600660006114f9612723565b6001600160a01b03166001600160a01b031681526020019081526020016000205460000361156d57600980546001810182556000919091527f6e1540171b6c0c960b71a7020d9f60077f6af931a8bbf590da0223dacf75c7af0180546001600160a01b0319166001600160a01b0384161790555b6001600160a01b03821660009081526006602052604081208054839290611595908490612e45565b925050819055506001601660008282546115af9190612e45565b90915550505050565b6115c0612798565b6001600160a01b03919091166000908152601160205260409020805460ff1916911515919091179055565b600e5460ff16156116345760405162461bcd60e51b8152602060048201526013602482015272105b1c9958591e481a5b9a5d1a585b1a5e9959606a1b60448201526064016108c2565b6020810151600280546001600160a01b039283166001600160a01b0319918216179091558251601380549190931691161790556040810151611675906127f6565b60608101516019556080810151600481905560178190556003819055601481905560155560a0810151600b80546001600160a01b039283166001600160a01b03199182161790915560c08301516001805491841691831691909117815560e09093015160128054919093169116179055600e805460ff19169091179055565b6060600980548060200260200160405190810160405280929190818152602001828054801561174c57602002820191906000526020600020905b81546001600160a01b0316815260019091019060200180831161172e575b5050505050905090565b61175e612798565b600180546001600160a01b0319166001600160a01b0392909216919091179055565b6002546001600160a01b0316611794612723565b6001600160a01b0316146117ba5760405162461bcd60e51b81526004016108c290612d61565b6002600054600160a01b900460ff1660028111156117da576117da612c85565b1461181b5760405162461bcd60e51b8152602060048201526011602482015270131bdd1d195c9e481b9bdd08195b991959607a1b60448201526064016108c2565b6000805b6008548110156118945760006008828154811061183e5761183e612da3565b60009182526020808320909101546001600160a01b031680835260069091526040909120549091506118709084612e45565b6001600160a01b03909116600090815260066020526040812055915060010161181f565b50600060646118a4836005612e71565b6118ae9190612e88565b905060006118bc8284612dec565b600b5460015460405163a9059cbb60e01b81526001600160a01b03918216600482015260248101869052929350169063a9059cbb906044016020604051808303816000875af1158015611913573d6000803e3d6000fd5b505050506040513d601f19601f820116820180604052508101906119379190612db9565b50600b5460025460405163a9059cbb60e01b81526001600160a01b0391821660048201526024810184905291169063a9059cbb906044016020604051808303816000875af115801561198d573d6000803e3d6000fd5b505050506040513d601f19601f820116820180604052508101906119b19190612db9565b50505050565b6002546001600160a01b03166119cb612723565b6001600160a01b0316146119f15760405162461bcd60e51b81526004016108c290612d61565b6000805482919060ff60a01b1916600160a01b836002811115611a1657611a16612c85565b021790555050565b611a26612798565b611a3060006127f6565b565b600c8181548110611a4257600080fd5b9060005260206000209060209182820401919006915054906101000a900460ff1681565b6002600054600160a01b900460ff166002811115611a8657611a86612c85565b14611acb5760405162461bcd60e51b815260206004820152601560248201527414d85b19481a5cc81b9bdd08195b991959081e595d605a1b60448201526064016108c2565b60076000611ad7612723565b6001600160a01b0316815260208101919091526040016000205460ff1615611b415760405162461bcd60e51b815260206004820152601760248201527f57696e6e6572732063616e6e6f7420776974686472617700000000000000000060448201526064016108c2565b600060066000611b4f612723565b6001600160a01b03166001600160a01b0316815260200190815260200160002054905060008111611bb95760405162461bcd60e51b81526020600482015260146024820152734e6f2066756e647320746f20776974686472617760601b60448201526064016108c2565b600060066000611bc7612723565b6001600160a01b039081168252602082019290925260400160002091909155600b541663a9059cbb611bf7612723565b6040516001600160e01b031960e084901b1681526001600160a01b039091166004820152602481018490526044016020604051808303816000875af1158015611c44573d6000803e3d6000fd5b505050506040513d601f19601f82011682018060405250810190610cb59190612db9565b611c70612798565b600b80546001600160a01b0319166001600160a01b0392909216919091179055565b6002546001600160a01b0316611ca6612723565b6001600160a01b031614611ccc5760405162461bcd60e51b81526004016108c290612d61565b60008111611d305760405162461bcd60e51b815260206004820152602b60248201527f4e756d626572206f66207469636b657473206d7573742062652067726561746560448201526a72207468616e207a65726f60a81b60648201526084016108c2565b6004819055601755565b6002546001600160a01b0316611d4e612723565b6001600160a01b03161480611d7d57506000546001600160a01b0316611d72612723565b6001600160a01b0316145b80611dad575060116000611d8f612723565b6001600160a01b0316815260208101919091526040016000205460ff165b611e055760405162461bcd60e51b8152602060048201526024808201527f4f6e6c79206f70657261746f722063616e2063616c6c20746869732066756e636044820152633a34b7b760e11b60648201526084016108c2565b601954811115611e925760405162461bcd60e51b815260206004820152604c60248201527f5469636b6574732070657220726f756e642063616e6e6f74206265206869676860448201527f6572207468616e20746f74616c206e756d626572206f66207469636b6574732060648201526b696e2041756374696f6e563160a01b608482015260a4016108c2565b601054600003611eb25760108054906000611eac83612e58565b91905055505b600060195460165410611ef057601754601654611ecf9190612e88565b601854611edc9190612e71565b601454611ee99190612e45565b9050611f43565b6000601754601654611f029190612e88565b611f0d906001612dec565b601854611f1a9190612e71565b9050806014541115611f3b5780601454611f349190612dec565b9150611f41565b60155491505b505b6014819055600060168190556004839055601783905560198054849290611f6b908490612dec565b90915550506040805160a08101825260108054808352602080840188815284860188815260006060870181815260808801828152958252600f90945296872095518655905160018601555160028501555160039093018054915161ffff1990921693151561ff001916939093176101009115159190910217909155805491611ff283612e58565b9190505550505050565b6002546001600160a01b0316612010612723565b6001600160a01b0316146120365760405162461bcd60e51b81526004016108c290612d61565b600355565b6002546001600160a01b031661204f612723565b6001600160a01b0316146120755760405162461bcd60e51b81526004016108c290612d61565b601855565b6013546001600160a01b031633146120c45760405162461bcd60e51b815260206004820152600d60248201526c37b7363c9037b832b930ba37b960991b60448201526064016108c2565b60006120d282840184612ec4565b915050600080828060200190518101906120ec9190612f72565b9150915060008585604051612102929190612ff5565b604051809103902090506000600d60008581526020019081526020016000205482149050600c848154811061213957612139612da3565b90600052602060002090602091828204019190069054906101000a900460ff166121a55760405162461bcd60e51b815260206004820152601c60248201527f726571756573742066756c66696c6c6564206f72206d697373696e670000000060448201526064016108c2565b801561224a5760408051602081018a905230918101919091524660608201526080810185905260a0016040516020818303038152906040528051906020012060001c97506121f4888585612846565b6000600c858154811061220957612209612da3565b90600052602060002090602091828204019190066101000a81548160ff021916908315150217905550600d6000858152602001908152602001600020600090555b5050505050505050565b61225f610701612723565b156122a55760405162461bcd60e51b815260206004820152601660248201527515da5b9b995c9cc818d85b9b9bdd0819195c1bdcda5d60521b60448201526064016108c2565b600b546001600160a01b03166122fd5760405162461bcd60e51b815260206004820152601d60248201527f5553444320636f6e74726163742061646472657373206e6f742073657400000060448201526064016108c2565b6003548110156123475760405162461bcd60e51b8152602060048201526015602482015274139bdd08195b9bdd59da08199d5b991cc81cd95b9d605a1b60448201526064016108c2565b600b5481906001600160a01b031663dd62ed3e612362612723565b6040516001600160e01b031960e084901b1681526001600160a01b039091166004820152306024820152604401602060405180830381865afa1580156123ac573d6000803e3d6000fd5b505050506040513d601f19601f820116820180604052508101906123d09190613005565b10156124175760405162461bcd60e51b8152602060048201526016602482015275496e73756666696369656e7420616c6c6f77616e636560501b60448201526064016108c2565b600b546001600160a01b03166323b872dd612430612723565b6040516001600160e01b031960e084901b1681526001600160a01b039091166004820152306024820152604481018490526064016020604051808303816000875af1158015612483573d6000803e3d6000fd5b505050506040513d601f19601f820116820180604052508101906124a79190612db9565b50600660006124b4612723565b6001600160a01b03166001600160a01b03168152602001908152602001600020546000036125195760096124e6612723565b81546001810183556000928352602090922090910180546001600160a01b0319166001600160a01b039092169190911790555b8060066000612526612723565b6001600160a01b03166001600160a01b0316815260200190815260200160002060008282546125559190612e45565b90915550506014548110611194576001601660008282546125769190612e45565b909155505050565b6060600880548060200260200160405190810160405280929190818152602001828054801561174c576020028201919060005260206000209081546001600160a01b0316815260019091019060200180831161172e575050505050905090565b6002546001600160a01b03166125f2612723565b6001600160a01b0316146126185760405162461bcd60e51b81526004016108c290612d61565b600280546001600160a01b0319166001600160a01b0392909216919091179055565b612642612798565b6001600160a01b03811661266c57604051631e4fbdf760e01b8152600060048201526024016108c2565b611194816127f6565b6002546001600160a01b0316612689612723565b6001600160a01b0316146126af5760405162461bcd60e51b81526004016108c290612d61565b6126e36126ba612723565b604080516001600160a01b03909216602083015201604051602081830303815290604052612883565b506126ec612723565b6001600160a01b03167fd802e7c7f1646e3318c03abed1e468bdf913f45331a68dc912a0d645eb646a4260405160405180910390a2565b600061272d612986565b905090565b6001600160a01b03166000818152600760205260408120805460ff191660019081179091556008805491820181559091527ff3f7a9fe364faab93b216da50a3214154f22a0a2b415b23a84c8169e8b636ee30180546001600160a01b0319169091179055565b6127a0612723565b6001600160a01b03166127bb6000546001600160a01b031690565b6001600160a01b031614611a30576127d1612723565b60405163118cdaa760e01b81526001600160a01b0390911660048201526024016108c2565b600080546001600160a01b038381166001600160a01b0319831681178455604051919092169283917f8be0079c531659141344cd1fd0a4f28419497f9722a3daafe3b4186f6b6457e09190a35050565b601a8390556040518381527f79518eb4b6f70742e6651b03a2ac2bc644ea2613e8de56247857c5be5fc2a0ba9060200160405180910390a1505050565b600c80546001808201808455600084905291929091839081106128a8576128a8612da3565b90600052602060002090602091828204019190066101000a81548160ff021916908315150217905550600081836040516020016128e692919061301e565b604051602081830303815290604052905060006129016129ca565b90506000818360405160200161291892919061301e565b60408051601f1981840301815282825280516020808301919091206000898152600d9092529290208290559250907fd91fc3685b930310b008ec37d2334870cab88a023ed8cc628a2e2ccd4e55d20290612975908590879061301e565b60405180910390a150505050919050565b60007f00000000000000000000000000000000000000000000000000000000000000006001600160a01b031633036129c5575060131936013560601c90565b503390565b6000806129db6364e6212742612dec565b905060006129ea600383612e88565b6129f5906001612e45565b905046600114612a0f57612a0a816001612e45565b612a1a565b612a1a816004612e45565b9250505090565b508054600082559060005260206000209081019061119491905b80821115612a4f5760008155600101612a3b565b5090565b600060208284031215612a6557600080fd5b5035919050565b80356001600160a01b0381168114612a8357600080fd5b919050565b600060208284031215612a9a57600080fd5b612aa382612a6c565b9392505050565b60008060408385031215612abd57600080fd5b612ac683612a6c565b946020939093013593505050565b801515811461119457600080fd5b60008060408385031215612af557600080fd5b612afe83612a6c565b91506020830135612b0e81612ad4565b809150509250929050565b634e487b7160e01b600052604160045260246000fd5b604051601f8201601f1916810167ffffffffffffffff81118282101715612b5857612b58612b19565b604052919050565b6000610100808385031215612b7457600080fd5b6040519081019067ffffffffffffffff82118183101715612b9757612b97612b19565b81604052612ba484612a6c565b8152612bb260208501612a6c565b6020820152612bc360408501612a6c565b60408201526060840135606082015260808401356080820152612be860a08501612a6c565b60a0820152612bf960c08501612a6c565b60c0820152612c0a60e08501612a6c565b60e0820152949350505050565b6020808252825182820181905260009190848201906040850190845b81811015612c585783516001600160a01b031683529284019291840191600101612c33565b50909695505050505050565b600060208284031215612c7657600080fd5b813560038110612aa357600080fd5b634e487b7160e01b600052602160045260246000fd5b6020810160038310612cbd57634e487b7160e01b600052602160045260246000fd5b91905290565b60008060408385031215612cd657600080fd5b50508035926020909101359150565b600080600060408486031215612cfa57600080fd5b83359250602084013567ffffffffffffffff80821115612d1957600080fd5b818601915086601f830112612d2d57600080fd5b813581811115612d3c57600080fd5b876020828501011115612d4e57600080fd5b6020830194508093505050509250925092565b60208082526022908201527f4f6e6c792073656c6c65722063616e2063616c6c20746869732066756e63746960408201526137b760f11b606082015260800190565b634e487b7160e01b600052603260045260246000fd5b600060208284031215612dcb57600080fd5b8151612aa381612ad4565b634e487b7160e01b600052601160045260246000fd5b81810381811115612dff57612dff612dd6565b92915050565b634e487b7160e01b600052603160045260246000fd5b634e487b7160e01b600052601260045260246000fd5b600082612e4057612e40612e1b565b500690565b80820180821115612dff57612dff612dd6565b600060018201612e6a57612e6a612dd6565b5060010190565b8082028115828204841417612dff57612dff612dd6565b600082612e9757612e97612e1b565b500490565b600067ffffffffffffffff821115612eb657612eb6612b19565b50601f01601f191660200190565b60008060408385031215612ed757600080fd5b82359150602083013567ffffffffffffffff811115612ef557600080fd5b8301601f81018513612f0657600080fd5b8035612f19612f1482612e9c565b612b2f565b818152866020838501011115612f2e57600080fd5b816020840160208301376000602083830101528093505050509250929050565b60005b83811015612f69578181015183820152602001612f51565b50506000910152565b60008060408385031215612f8557600080fd5b82519150602083015167ffffffffffffffff811115612fa357600080fd5b8301601f81018513612fb457600080fd5b8051612fc2612f1482612e9c565b818152866020838501011115612fd757600080fd5b612fe8826020830160208601612f4e565b8093505050509250929050565b8183823760009101908152919050565b60006020828403121561301757600080fd5b5051919050565b8281526040602082015260008251806040840152613043816060850160208701612f4e565b601f01601f191691909101606001939250505056fea264697066735822122099414fbd962a0b3f7ceed87057a2351fa4e1d6ab7de5ac38058cd2a6977d29bf64736f6c63430008190033","linkReferences":{}},"methodIdentifiers":{"buyerWithdraw()":"7cc947d0","changeLotteryState(uint8)":"683e93e1","currentPrice()":"9d1b464a","deposit(uint256)":"b6b55f25","deposits(address)":"fc7e286d","endLottery()":"1593a8c7","fulfillRandomness(uint256,bytes)":"b3f6b99a","getDepositedAmount(address)":"e9081ec7","getParticipants()":"5aa68ac0","getWinners()":"df15c37e","hasMinted(address)":"38e21cce","increasePriceStep()":"96efac7b","initialPrice()":"1d0806ae","initialize((address,address,address,uint256,uint256,address,address,address))":"5a6838c5","initialized()":"158ef93e","isTrustedForwarder(address)":"572b6c05","isWinner(address)":"9d9ca28d","lotteryState()":"6939864b","lotteryV2Addr()":"7de13382","minimumDepositAmount()":"080c279a","mintMyNFT()":"26170480","multisigWalletAddress()":"a61fb2ba","nftContractAddr()":"2c23ec8e","numberOfTickets()":"45745c10","operatorAddr()":"f3f18c37","operators(address)":"13e7c9d8","owner()":"8da5cb5b","prevRoundDeposits()":"b680e44b","prevRoundTicketsAmount()":"224f91bd","randomNumber()":"ccbac9f5","renounceOwnership()":"715018a6","requestPending(uint256)":"75ce7fff","requestRandomness()":"f8413b07","requestedHash(uint256)":"c4f8f27b","roundCounter()":"febc14b1","rounds(uint256)":"8c65c81f","selectWinners()":"1a0de74c","seller()":"08551a53","sellerWithdraw()":"66af746b","setCurrentPrice(uint256)":"18b20071","setLotteryV2Addr(address)":"3639eb2e","setMinimumDepositAmount(uint256)":"aab483d6","setMultisigWalletAddress(address)":"60d50da3","setNftContractAddr(address)":"3644c27c","setNumberOfTickets(uint256)":"99bd69d6","setOperator(address,bool)":"558a7297","setPriceStep(uint256)":"af94862c","setSeller(address)":"e99d2866","setUsdcContractAddr(address)":"94d898de","setupNewRound(uint256,uint256)":"a4f03c02","startLottery()":"160344e2","totalNumberOfTickets()":"00746702","transferDeposit(address,uint256)":"50f3dbec","transferNonWinnerBids(address)":"1630a8df","transferOwnership(address)":"f2fde38b","usdcContractAddr()":"99dbf4b5","winnerAddresses(uint256)":"045f9c97","winners(address)":"6bd5450a"},"id":5}