{"abi":[{"type":"function","name":"buyerWithdraw","inputs":[],"outputs":[],"stateMutability":"nonpayable"},{"type":"function","name":"changeLotteryState","inputs":[{"name":"_newState","type":"uint8","internalType":"enum SaleBase.LotteryState"}],"outputs":[],"stateMutability":"nonpayable"},{"type":"function","name":"deposit","inputs":[{"name":"amount","type":"uint256","internalType":"uint256"}],"outputs":[],"stateMutability":"nonpayable"},{"type":"function","name":"deposits","inputs":[{"name":"","type":"address","internalType":"address"}],"outputs":[{"name":"","type":"uint256","internalType":"uint256"}],"stateMutability":"view"},{"type":"function","name":"endLottery","inputs":[],"outputs":[],"stateMutability":"nonpayable"},{"type":"function","name":"fulfillRandomness","inputs":[{"name":"randomness","type":"uint256","internalType":"uint256"},{"name":"dataWithRound","type":"bytes","internalType":"bytes"}],"outputs":[],"stateMutability":"nonpayable"},{"type":"function","name":"getDepositedAmount","inputs":[{"name":"participant","type":"address","internalType":"address"}],"outputs":[{"name":"","type":"uint256","internalType":"uint256"}],"stateMutability":"view"},{"type":"function","name":"getDepositedAmountForRound","inputs":[{"name":"participant","type":"address","internalType":"address"},{"name":"roundIndex","type":"uint256","internalType":"uint256"}],"outputs":[{"name":"","type":"uint256","internalType":"uint256"}],"stateMutability":"view"},{"type":"function","name":"getParticipants","inputs":[],"outputs":[{"name":"","type":"address[]","internalType":"address[]"}],"stateMutability":"view"},{"type":"function","name":"getParticipantsForRound","inputs":[{"name":"roundIndex","type":"uint256","internalType":"uint256"}],"outputs":[{"name":"","type":"address[]","internalType":"address[]"}],"stateMutability":"view"},{"type":"function","name":"getWinners","inputs":[],"outputs":[{"name":"","type":"address[]","internalType":"address[]"}],"stateMutability":"view"},{"type":"function","name":"hasMinted","inputs":[{"name":"","type":"address","internalType":"address"}],"outputs":[{"name":"","type":"bool","internalType":"bool"}],"stateMutability":"view"},{"type":"function","name":"increasePriceStep","inputs":[],"outputs":[{"name":"","type":"uint256","internalType":"uint256"}],"stateMutability":"view"},{"type":"function","name":"initialPrice","inputs":[],"outputs":[{"name":"","type":"uint256","internalType":"uint256"}],"stateMutability":"view"},{"type":"function","name":"initialize","inputs":[{"name":"config","type":"tuple","internalType":"struct StructsLibrary.IAuctionV1BaseConfig","components":[{"name":"_seller","type":"address","internalType":"address"},{"name":"_gelatoVrfOperator","type":"address","internalType":"address"},{"name":"_owner","type":"address","internalType":"address"},{"name":"_ticketAmount","type":"uint256","internalType":"uint256"},{"name":"_ticketPrice","type":"uint256","internalType":"uint256"},{"name":"_priceIncreaseStep","type":"uint256","internalType":"uint256"},{"name":"_usdcContractAddr","type":"address","internalType":"address"},{"name":"_nftContractAddr","type":"address","internalType":"address"},{"name":"_multisigWalletAddress","type":"address","internalType":"address"},{"name":"_prevPhaseContractAddr","type":"address","internalType":"address"}]}],"outputs":[],"stateMutability":"nonpayable"},{"type":"function","name":"isTrustedForwarder","inputs":[{"name":"forwarder","type":"address","internalType":"address"}],"outputs":[{"name":"","type":"bool","internalType":"bool"}],"stateMutability":"view"},{"type":"function","name":"isWinner","inputs":[{"name":"_participant","type":"address","internalType":"address"}],"outputs":[{"name":"","type":"bool","internalType":"bool"}],"stateMutability":"view"},{"type":"function","name":"lotteryState","inputs":[],"outputs":[{"name":"","type":"uint8","internalType":"enum SaleBase.LotteryState"}],"stateMutability":"view"},{"type":"function","name":"lotteryV2Addr","inputs":[],"outputs":[{"name":"","type":"address","internalType":"address"}],"stateMutability":"view"},{"type":"function","name":"mintMyNFT","inputs":[],"outputs":[],"stateMutability":"nonpayable"},{"type":"function","name":"multisigWalletAddress","inputs":[],"outputs":[{"name":"","type":"address","internalType":"address"}],"stateMutability":"view"},{"type":"function","name":"nftContractAddr","inputs":[],"outputs":[{"name":"","type":"address","internalType":"address"}],"stateMutability":"view"},{"type":"function","name":"numberOfTickets","inputs":[],"outputs":[{"name":"","type":"uint256","internalType":"uint256"}],"stateMutability":"view"},{"type":"function","name":"operatorAddr","inputs":[],"outputs":[{"name":"","type":"address","internalType":"address"}],"stateMutability":"view"},{"type":"function","name":"operators","inputs":[{"name":"","type":"address","internalType":"address"}],"outputs":[{"name":"","type":"bool","internalType":"bool"}],"stateMutability":"view"},{"type":"function","name":"owner","inputs":[],"outputs":[{"name":"","type":"address","internalType":"address"}],"stateMutability":"view"},{"type":"function","name":"prevRoundDeposits","inputs":[],"outputs":[{"name":"","type":"uint256","internalType":"uint256"}],"stateMutability":"view"},{"type":"function","name":"prevRoundTicketsAmount","inputs":[],"outputs":[{"name":"","type":"uint256","internalType":"uint256"}],"stateMutability":"view"},{"type":"function","name":"renounceOwnership","inputs":[],"outputs":[],"stateMutability":"nonpayable"},{"type":"function","name":"requestPending","inputs":[{"name":"","type":"uint256","internalType":"uint256"}],"outputs":[{"name":"","type":"bool","internalType":"bool"}],"stateMutability":"view"},{"type":"function","name":"requestRandomness","inputs":[],"outputs":[],"stateMutability":"nonpayable"},{"type":"function","name":"requestedHash","inputs":[{"name":"","type":"uint256","internalType":"uint256"}],"outputs":[{"name":"","type":"bytes32","internalType":"bytes32"}],"stateMutability":"view"},{"type":"function","name":"roundCounter","inputs":[],"outputs":[{"name":"","type":"uint256","internalType":"uint256"}],"stateMutability":"view"},{"type":"function","name":"rounds","inputs":[{"name":"","type":"uint256","internalType":"uint256"}],"outputs":[{"name":"number","type":"uint256","internalType":"uint256"},{"name":"finishAt","type":"uint256","internalType":"uint256"},{"name":"numberOfTickets","type":"uint256","internalType":"uint256"},{"name":"randomNumber","type":"uint256","internalType":"uint256"},{"name":"lotteryStarted","type":"bool","internalType":"bool"},{"name":"lotteryFinished","type":"bool","internalType":"bool"},{"name":"winnersSelected","type":"bool","internalType":"bool"}],"stateMutability":"view"},{"type":"function","name":"selectWinners","inputs":[],"outputs":[],"stateMutability":"nonpayable"},{"type":"function","name":"seller","inputs":[],"outputs":[{"name":"","type":"address","internalType":"address"}],"stateMutability":"view"},{"type":"function","name":"sellerWithdraw","inputs":[],"outputs":[],"stateMutability":"nonpayable"},{"type":"function","name":"setOperator","inputs":[{"name":"_operatorAddr","type":"address","internalType":"address"},{"name":"_flag","type":"bool","internalType":"bool"}],"outputs":[],"stateMutability":"nonpayable"},{"type":"function","name":"setSeller","inputs":[{"name":"_seller","type":"address","internalType":"address"}],"outputs":[],"stateMutability":"nonpayable"},{"type":"function","name":"setupNewRound","inputs":[{"name":"_finishAt","type":"uint256","internalType":"uint256"},{"name":"_numberOfTickets","type":"uint256","internalType":"uint256"}],"outputs":[],"stateMutability":"nonpayable"},{"type":"function","name":"startLottery","inputs":[],"outputs":[],"stateMutability":"nonpayable"},{"type":"function","name":"ticketPrice","inputs":[],"outputs":[{"name":"","type":"uint256","internalType":"uint256"}],"stateMutability":"view"},{"type":"function","name":"totalNumberOfTickets","inputs":[],"outputs":[{"name":"","type":"uint256","internalType":"uint256"}],"stateMutability":"view"},{"type":"function","name":"transferDeposit","inputs":[{"name":"_participant","type":"address","internalType":"address"},{"name":"_amount","type":"uint256","internalType":"uint256"}],"outputs":[],"stateMutability":"nonpayable"},{"type":"function","name":"transferNonWinnerBids","inputs":[{"name":"destinationAddr","type":"address","internalType":"address"}],"outputs":[],"stateMutability":"nonpayable"},{"type":"function","name":"transferOwnership","inputs":[{"name":"newOwner","type":"address","internalType":"address"}],"outputs":[],"stateMutability":"nonpayable"},{"type":"function","name":"usdcContractAddr","inputs":[],"outputs":[{"name":"","type":"address","internalType":"address"}],"stateMutability":"view"},{"type":"function","name":"winnerAddresses","inputs":[{"name":"","type":"uint256","internalType":"uint256"}],"outputs":[{"name":"","type":"address","internalType":"address"}],"stateMutability":"view"},{"type":"function","name":"winners","inputs":[{"name":"","type":"address","internalType":"address"}],"outputs":[{"name":"","type":"bool","internalType":"bool"}],"stateMutability":"view"},{"type":"event","name":"BuyerDeposited","inputs":[{"name":"buyer","type":"address","indexed":true,"internalType":"address"},{"name":"amount","type":"uint256","indexed":true,"internalType":"uint256"}],"anonymous":false},{"type":"event","name":"BuyerWithdrew","inputs":[{"name":"buyer","type":"address","indexed":true,"internalType":"address"},{"name":"amount","type":"uint256","indexed":true,"internalType":"uint256"}],"anonymous":false},{"type":"event","name":"DepositsReturned","inputs":[{"name":"returnedDepositsCount","type":"uint256","indexed":false,"internalType":"uint256"},{"name":"roundNumber","type":"uint256","indexed":true,"internalType":"uint256"}],"anonymous":false},{"type":"event","name":"DepositsReturned","inputs":[{"name":"returnedDepositsCount","type":"uint256","indexed":false,"internalType":"uint256"}],"anonymous":false},{"type":"event","name":"Initialized","inputs":[{"name":"version","type":"uint64","indexed":false,"internalType":"uint64"}],"anonymous":false},{"type":"event","name":"LotteryEnded","inputs":[],"anonymous":false},{"type":"event","name":"LotteryStarted","inputs":[],"anonymous":false},{"type":"event","name":"OwnershipTransferred","inputs":[{"name":"previousOwner","type":"address","indexed":true,"internalType":"address"},{"name":"newOwner","type":"address","indexed":true,"internalType":"address"}],"anonymous":false},{"type":"event","name":"RandomFulfilled","inputs":[{"name":"number","type":"uint256","indexed":false,"internalType":"uint256"},{"name":"requester","type":"address","indexed":true,"internalType":"address"}],"anonymous":false},{"type":"event","name":"RandomRequested","inputs":[{"name":"requester","type":"address","indexed":true,"internalType":"address"}],"anonymous":false},{"type":"event","name":"RequestedRandomness","inputs":[{"name":"round","type":"uint256","indexed":false,"internalType":"uint256"},{"name":"data","type":"bytes","indexed":false,"internalType":"bytes"}],"anonymous":false},{"type":"event","name":"RoundSet","inputs":[{"name":"roundNumber","type":"uint256","indexed":true,"internalType":"uint256"},{"name":"finishAt","type":"uint256","indexed":false,"internalType":"uint256"},{"name":"numberOfTickets","type":"uint256","indexed":false,"internalType":"uint256"},{"name":"newTicketPrice","type":"uint256","indexed":false,"internalType":"uint256"}],"anonymous":false},{"type":"event","name":"WinnerSelected","inputs":[{"name":"winner","type":"address","indexed":true,"internalType":"address"}],"anonymous":false},{"type":"error","name":"InvalidInitialization","inputs":[]},{"type":"error","name":"NotInitializing","inputs":[]},{"type":"error","name":"OwnableInvalidOwner","inputs":[{"name":"owner","type":"address","internalType":"address"}]},{"type":"error","name":"OwnableUnauthorizedAccount","inputs":[{"name":"account","type":"address","internalType":"address"}]}],"bytecode":{"object":"0x60a060405260016014556001601555600560165534801561001f57600080fd5b5073d8253782c45a12053594b9deb72d8e8ab2fca54c338061005b57604051631e4fbdf760e01b81526000600482015260240160405180910390fd5b6100648161007e565b506001600160a01b03166080526100796100ce565b610180565b600080546001600160a01b038381166001600160a01b0319831681178455604051919092169283917f8be0079c531659141344cd1fd0a4f28419497f9722a3daafe3b4186f6b6457e09190a35050565b7ff0c57e16840df040f15088dc2f81fe391c3923bec73e23a9662efc9c229c6a00805468010000000000000000900460ff161561011e5760405163f92ee8a960e01b815260040160405180910390fd5b80546001600160401b039081161461017d5780546001600160401b0319166001600160401b0390811782556040519081527fc7f505b2f371ae2175ee4913f4499e1f2633a7b5936321eed1cdaeb6115181d29060200160405180910390a15b50565b6080516135886101a2600039600081816104240152612e5501526135886000f3fe608060405234801561001057600080fd5b50600436106102ba5760003560e01c8063715018a611610182578063b3f6b99a116100e9578063e99d2866116100a2578063f56542d61161007c578063f56542d6146106c1578063f8413b07146106d4578063fc7e286d146106dc578063febc14b1146106fc57600080fd5b8063e99d286614610688578063f2fde38b1461069b578063f3f18c37146106ae57600080fd5b8063b3f6b99a1461061e578063b680e44b14610631578063b6b55f251461063a578063c4f8f27b1461064d578063df15c37e1461066d578063e9081ec71461067557600080fd5b80638da5cb5b1161013b5780638da5cb5b1461059f57806396efac7b146105b057806399dbf4b5146105b95780639d9ca28d146105cc578063a4f03c02146105f8578063a61fb2ba1461060b57600080fd5b8063715018a6146104c857806375ce7fff146104d05780637cc947d0146104e35780637de13382146104eb57806380d58442146104fe5780638c65c81f1461051157600080fd5b80632c23ec8e11610226578063572b6c05116101df578063572b6c05146104145780635aa68ac01461045457806366af746b14610469578063683e93e1146104715780636939864b146104845780636bd5450a146104a557600080fd5b80632c23ec8e1461039c57806338e21cce146103af57806345745c10146103d257806350f3dbec146103db578063558a7297146103ee57806356d7c73a1461040157600080fd5b8063160344e211610278578063160344e21461035f5780631630a8df146103675780631a0de74c1461037a5780631d0806ae14610382578063224f91bd1461038b578063261704801461039457600080fd5b8062746702146102bf578063045f9c97146102db57806308551a53146103065780631209b1f61461031957806313e7c9d8146103225780631593a8c714610355575b600080fd5b6102c860175481565b6040519081526020015b60405180910390f35b6102ee6102e9366004612f1e565b610705565b6040516001600160a01b0390911681526020016102d2565b6002546102ee906001600160a01b031681565b6102c860045481565b610345610330366004612f5c565b60106020526000908152604090205460ff1681565b60405190151581526020016102d2565b61035d61072f565b005b61035d6107a7565b61035d610375366004612f5c565b610882565b61035d610a6b565b6102c860135481565b6102c860155481565b61035d610fc5565b600a546102ee906001600160a01b031681565b6103456103bd366004612f5c565b60056020526000908152604090205460ff1681565b6102c860035481565b61035d6103e9366004612f79565b611125565b61035d6103fc366004612fb3565b611265565b61035d61040f36600461305d565b611298565b610345610422366004612f5c565b7f00000000000000000000000000000000000000000000000000000000000000006001600160a01b0390811691161490565b61045c61146c565b6040516102d29190613110565b61035d6114f0565b61035d61047f36600461315d565b611721565b60005461049890600160a01b900460ff1681565b6040516102d29190613194565b6103456104b3366004612f5c565b60076020526000908152604090205460ff1681565b61035d611788565b6103456104de366004612f1e565b61179c565b61035d6117d0565b6011546102ee906001600160a01b031681565b61045c61050c366004612f1e565b611a14565b61056461051f366004612f1e565b600e60205260009081526040902080546001820154600283015460038401546004909401549293919290919060ff808216916101008104821691620100009091041687565b60408051978852602088019690965294860193909352606085019190915215156080840152151560a0830152151560c082015260e0016102d2565b6000546001600160a01b03166102ee565b6102c860165481565b600b546102ee906001600160a01b031681565b6103456105da366004612f5c565b6001600160a01b031660009081526007602052604090205460ff1690565b61035d6106063660046131bc565b611a83565b6001546102ee906001600160a01b031681565b61035d61062c3660046131de565b611de3565b6102c860145481565b61035d610648366004612f1e565b611fbd565b6102c861065b366004612f1e565b600d6020526000908152604090205481565b61045c6123f8565b6102c8610683366004612f5c565b612458565b61035d610696366004612f5c565b6124a9565b61035d6106a9366004612f5c565b612505565b6012546102ee906001600160a01b031681565b6102c86106cf366004612f79565b612540565b61035d61256d565b6102c86106ea366004612f5c565b60066020526000908152604090205481565b6102c8600f5481565b6008818154811061071557600080fd5b6000918252602090912001546001600160a01b0316905081565b6002546001600160a01b031661074361270b565b6001600160a01b0316146107725760405162461bcd60e51b81526004016107699061325a565b60405180910390fd5b61077c6002611721565b6040517f9c89a6ed7228533196a3f962acc80d61a9c53bdea6b910741bf754f5aaa7569e90600090a1565b6002546001600160a01b03166107bb61270b565b6001600160a01b0316146107e15760405162461bcd60e51b81526004016107699061325a565b60008054600160a01b900460ff1660028111156108005761080061317e565b1461084d5760405162461bcd60e51b815260206004820152601760248201527f53616c6520697320696e206163746976652073746174650000000000000000006044820152606401610769565b6108576001611721565b6040517fd029c7c68d943f92286a7825fa6aa2deefa1eee46cee6c91b7e483fd06d27baf90600090a1565b6002546001600160a01b031661089661270b565b6001600160a01b0316146108bc5760405162461bcd60e51b81526004016107699061325a565b60005b600954811015610a5b57600060066000600984815481106108e2576108e261329c565b60009182526020808320909101546001600160a01b0316835282019290925260400181205460098054919350600691839190869081106109245761092461329c565b6000918252602080832091909101546001600160a01b039081168452908301939093526040918201902092909255600b54915163a9059cbb60e01b815285821660048201526024810184905291169063a9059cbb906044016020604051808303816000875af115801561099b573d6000803e3d6000fd5b505050506040513d601f19601f820116820180604052508101906109bf91906132b2565b50826001600160a01b03166350f3dbec600984815481106109e2576109e261329c565b60009182526020909120015460405160e083901b6001600160e01b03191681526001600160a01b03909116600482015260248101849052604401600060405180830381600087803b158015610a3657600080fd5b505af1158015610a4a573d6000803e3d6000fd5b5050600190930192506108bf915050565b50610a6860096000612eec565b50565b6002546001600160a01b0316610a7f61270b565b6001600160a01b031614610aa55760405162461bcd60e51b81526004016107699061325a565b6000600e60006001600f54610aba91906132e5565b81526020019081526020016000206003015411610b2f5760405162461bcd60e51b815260206004820152602d60248201527f52616e646f6d206e756d62657220666f72206c61737420726f756e642069732060448201526c1b9bdd0819d95b995c985d1959609a1b6064820152608401610769565b600060035411610b815760405162461bcd60e51b815260206004820152601b60248201527f4e6f207469636b657473206c65667420746f20616c6c6f6361746500000000006044820152606401610769565b6000805460ff60a01b1916600160a01b178155600f54600e908290610ba8906001906132e5565b81526020019081526020016000206006018054905090508060035410610ca55760005b81811015610c8e576000600e60006001600f54610be891906132e5565b81526020019081526020016000206006018281548110610c0a57610c0a61329c565b6000918252602090912001546001600160a01b03169050610c43816001600160a01b031660009081526007602052604090205460ff1690565b610c8557610c508161271a565b6040516001600160a01b038216907f1d4c260f1824cd028e6c9e6e31c3a0b94f2513e7a641113ec759d382f9bdd5a190600090a25b50600101610bcb565b50610c9b60096000612eec565b6000600355610f2d565b60005b81811015610e5d576000610cbc82846132e5565b600e60006001600f54610ccf91906132e5565b815260200190815260200160002060030154610ceb919061330e565b610cf59083613322565b90506000600e60006001600f54610d0c91906132e5565b81526020019081526020016000206006018281548110610d2e57610d2e61329c565b6000918252602082200154600f546001600160a01b039091169250600e9190610d59906001906132e5565b81526020019081526020016000206006018381548110610d7b57610d7b61329c565b6000918252602082200154600f546001600160a01b0390911691600e91610da4906001906132e5565b81526020019081526020016000206006018381548110610dc657610dc661329c565b9060005260206000200160006101000a8154816001600160a01b0302191690836001600160a01b0316021790555080600e60006001600f54610e0891906132e5565b81526020019081526020016000206006018481548110610e2a57610e2a61329c565b600091825260209091200180546001600160a01b0319166001600160a01b03929092169190911790555050600101610ca8565b5060005b600354811015610f26576000600e60006001600f54610e8091906132e5565b81526020019081526020016000206006018281548110610ea257610ea261329c565b6000918252602090912001546001600160a01b03169050610edb816001600160a01b031660009081526007602052604090205460ff1690565b610f1d57610ee88161271a565b6040516001600160a01b038216907f1d4c260f1824cd028e6c9e6e31c3a0b94f2513e7a641113ec759d382f9bdd5a190600090a25b50600101610e61565b5060006003555b6001600e60006001600f54610f4291906132e5565b815260200190815260200160002060040160026101000a81548160ff021916908315150217905550610f726127a6565b6000805460ff60a01b191681556017549003610a68576000805460ff60a01b1916600160a11b1781556040517f9c89a6ed7228533196a3f962acc80d61a9c53bdea6b910741bf754f5aaa7569e9190a150565b60056000610fd161270b565b6001600160a01b0316815260208101919091526040016000205460ff16156110305760405162461bcd60e51b815260206004820152601260248201527113919508185b1c9958591e481b5a5b9d195960721b6044820152606401610769565b61103b6105da61270b565b6110805760405162461bcd60e51b815260206004820152601660248201527521b0b63632b91034b9903737ba1030903bb4b73732b960511b6044820152606401610769565b60016005600061108e61270b565b6001600160a01b0390811682526020820192909252604001600020805460ff191692151592909217909155600a5416636b8f60f66110ca61270b565b6040516001600160e01b031960e084901b1681526001600160a01b039091166004820152602401600060405180830381600087803b15801561110b57600080fd5b505af115801561111f573d6000803e3d6000fd5b50505050565b61112d61270b565b6011546001600160a01b0390811691161461119a5760405162461bcd60e51b815260206004820152602760248201527f4f6e6c792077686974656c6973746564206d61792063616c6c207468697320666044820152663ab731ba34b7b760c91b6064820152608401610769565b600660006111a661270b565b6001600160a01b03166001600160a01b031681526020019081526020016000205460000361121a57600980546001810182556000919091527f6e1540171b6c0c960b71a7020d9f60077f6af931a8bbf590da0223dacf75c7af0180546001600160a01b0319166001600160a01b0384161790555b6001600160a01b03821660009081526006602052604081208054839290611242908490613322565b9250508190555060016014600082825461125c9190613322565b90915550505050565b61126d612be5565b6001600160a01b03919091166000908152601060205260409020805460ff1916911515919091179055565b7ff0c57e16840df040f15088dc2f81fe391c3923bec73e23a9662efc9c229c6a008054600160401b810460ff16159067ffffffffffffffff166000811580156112de5750825b905060008267ffffffffffffffff1660011480156112fb5750303b155b905081158015611309575080155b156113275760405163f92ee8a960e01b815260040160405180910390fd5b845467ffffffffffffffff19166001178555831561135157845460ff60401b1916600160401b1785555b8551600280546001600160a01b039283166001600160a01b031991821617909155602088015160128054919093169116179055604086015161139290612c43565b6060860151601755608086015160038190556015819055600481905560135560a086015160165560c0860151600b80546001600160a01b03199081166001600160a01b039384161790915560e0880151600a80548316918416919091179055610100880151600180548316918416919091178155610120890151601180549093169316929092179055600f55831561146457845460ff60401b19168555604051600181527fc7f505b2f371ae2175ee4913f4499e1f2633a7b5936321eed1cdaeb6115181d29060200160405180910390a15b505050505050565b6060600e60006001600f5461148191906132e5565b81526020019081526020016000206006018054806020026020016040519081016040528092919081815260200182805480156114e657602002820191906000526020600020905b81546001600160a01b031681526001909101906020018083116114c8575b5050505050905090565b6002546001600160a01b031661150461270b565b6001600160a01b03161461152a5760405162461bcd60e51b81526004016107699061325a565b6002600054600160a01b900460ff16600281111561154a5761154a61317e565b1461158b5760405162461bcd60e51b8152602060048201526011602482015270131bdd1d195c9e481b9bdd08195b991959607a1b6044820152606401610769565b6000805b600854811015611604576000600882815481106115ae576115ae61329c565b60009182526020808320909101546001600160a01b031680835260069091526040909120549091506115e09084613322565b6001600160a01b03909116600090815260066020526040812055915060010161158f565b5060006064611614836005613335565b61161e919061334c565b9050600061162c82846132e5565b600b5460015460405163a9059cbb60e01b81526001600160a01b03918216600482015260248101869052929350169063a9059cbb906044016020604051808303816000875af1158015611683573d6000803e3d6000fd5b505050506040513d601f19601f820116820180604052508101906116a791906132b2565b50600b5460025460405163a9059cbb60e01b81526001600160a01b0391821660048201526024810184905291169063a9059cbb906044016020604051808303816000875af11580156116fd573d6000803e3d6000fd5b505050506040513d601f19601f8201168201806040525081019061111f91906132b2565b6002546001600160a01b031661173561270b565b6001600160a01b03161461175b5760405162461bcd60e51b81526004016107699061325a565b6000805482919060ff60a01b1916600160a01b8360028111156117805761178061317e565b021790555050565b611790612be5565b61179a6000612c43565b565b600c81815481106117ac57600080fd5b9060005260206000209060209182820401919006915054906101000a900460ff1681565b6002600054600160a01b900460ff1660028111156117f0576117f061317e565b146118355760405162461bcd60e51b815260206004820152601560248201527414d85b19481a5cc81b9bdd08195b991959081e595d605a1b6044820152606401610769565b6007600061184161270b565b6001600160a01b0316815260208101919091526040016000205460ff16156118ab5760405162461bcd60e51b815260206004820152601760248201527f57696e6e6572732063616e6e6f742077697468647261770000000000000000006044820152606401610769565b6000600660006118b961270b565b6001600160a01b03166001600160a01b03168152602001908152602001600020549050600081116119235760405162461bcd60e51b81526020600482015260146024820152734e6f2066756e647320746f20776974686472617760601b6044820152606401610769565b60006006600061193161270b565b6001600160a01b039081168252602082019290925260400160002091909155600b541663a9059cbb61196161270b565b6040516001600160e01b031960e084901b1681526001600160a01b039091166004820152602481018490526044016020604051808303816000875af11580156119ae573d6000803e3d6000fd5b505050506040513d601f19601f820116820180604052508101906119d291906132b2565b50806119dc61270b565b6001600160a01b03167f1f280cd00e67ed50213ac03febd5be151f96b7f7db2f85312aa0feff99f8bdab60405160405180910390a350565b6000818152600e6020908152604091829020600601805483518184028101840190945280845260609392830182828015611a7757602002820191906000526020600020905b81546001600160a01b03168152600190910190602001808311611a59575b50505050509050919050565b6002546001600160a01b0316611a9761270b565b6001600160a01b03161480611ac657506000546001600160a01b0316611abb61270b565b6001600160a01b0316145b80611af6575060106000611ad861270b565b6001600160a01b0316815260208101919091526040016000205460ff165b611b4e5760405162461bcd60e51b8152602060048201526024808201527f4f6e6c79206f70657261746f722063616e2063616c6c20746869732066756e636044820152633a34b7b760e11b6064820152608401610769565b601754811115611bdb5760405162461bcd60e51b815260206004820152604c60248201527f5469636b6574732070657220726f756e642063616e6e6f74206265206869676860448201527f6572207468616e20746f74616c206e756d626572206f66207469636b6574732060648201526b696e2041756374696f6e563160a01b608482015260a401610769565b6001600f541115611c8057600e60006001600f54611bf991906132e5565b815260200190815260200160002060040160029054906101000a900460ff1615156001151514611c805760405162461bcd60e51b815260206004820152602c60248201527f46696e697368206c61737420726f756e642066697273742062792073656c656360448201526b74696e672077696e6e65727360a01b6064820152608401610769565b600060035460145410611cc357611cbc611cb3611caa601554601454612c9390919063ffffffff16565b60165490612ca6565b60045490612cb2565b9050611d13565b6000611ceb611caa601554611ce5601454601554612cbe90919063ffffffff16565b90612c93565b9050806004541115611d0b57600454611d049082612cbe565b9150611d11565b60135491505b505b6004819055600060148190556003839055601583905560178054849290611d3b9084906132e5565b9091555050600f546000818152600e60205260408120918255600180830186905560028301859055600383019190915560048201805462ffffff191682179055611d8490611721565b600f5460408051868152602081018690529081018490527f8b231eec1e6f586775a8182be925c9ec40bf8f8352131c894be81a0b6639c8b09060600160405180910390a2600f8054906000611dd883613360565b919050555050505050565b6012546001600160a01b03163314611e2d5760405162461bcd60e51b815260206004820152600d60248201526c37b7363c9037b832b930ba37b960991b6044820152606401610769565b6000611e3b828401846133a1565b91505060008082806020019051810190611e55919061344f565b9150915060008585604051611e6b9291906134d2565b604051809103902090506000600d60008581526020019081526020016000205482149050600c8481548110611ea257611ea261329c565b90600052602060002090602091828204019190069054906101000a900460ff16611f0e5760405162461bcd60e51b815260206004820152601c60248201527f726571756573742066756c66696c6c6564206f72206d697373696e67000000006044820152606401610769565b8015611fb35760408051602081018a905230918101919091524660608201526080810185905260a0016040516020818303038152906040528051906020012060001c9750611f5d888585612cca565b6000600c8581548110611f7257611f7261329c565b90600052602060002090602091828204019190066101000a81548160ff021916908315150217905550600d6000858152602001908152602001600020600090555b5050505050505050565b611fc86105da61270b565b1561200e5760405162461bcd60e51b815260206004820152601660248201527515da5b9b995c9cc818d85b9b9bdd0819195c1bdcda5d60521b6044820152606401610769565b600b546001600160a01b03166120665760405162461bcd60e51b815260206004820152601d60248201527f5553444320636f6e74726163742061646472657373206e6f74207365740000006044820152606401610769565b6004548110156120b05760405162461bcd60e51b8152602060048201526015602482015274139bdd08195b9bdd59da08199d5b991cc81cd95b9d605a1b6044820152606401610769565b600b5481906001600160a01b031663dd62ed3e6120cb61270b565b6040516001600160e01b031960e084901b1681526001600160a01b039091166004820152306024820152604401602060405180830381865afa158015612115573d6000803e3d6000fd5b505050506040513d601f19601f8201168201806040525081019061213991906134e2565b10156121805760405162461bcd60e51b8152602060048201526016602482015275496e73756666696369656e7420616c6c6f77616e636560501b6044820152606401610769565b600e60006001600f5461219391906132e5565b8152602081019190915260400160002060040154610100900460ff161561220e5760405162461bcd60e51b815260206004820152602960248201527f596f752063616e2774206465706f73697420616674657220726f756e6420697360448201526808199a5b9a5cda195960ba1b6064820152608401610769565b600b546001600160a01b03166323b872dd61222761270b565b6040516001600160e01b031960e084901b1681526001600160a01b039091166004820152306024820152604481018490526064016020604051808303816000875af115801561227a573d6000803e3d6000fd5b505050506040513d601f19601f8201168201806040525081019061229e91906132b2565b50600660006122ab61270b565b6001600160a01b03166001600160a01b031681526020019081526020016000205460000361233257600e60006001600f546122e691906132e5565b81526020019081526020016000206006016122ff61270b565b81546001810183556000928352602090922090910180546001600160a01b0319166001600160a01b039092169190911790555b80600e60006001600f5461234691906132e5565b8152602001908152602001600020600501600061236161270b565b6001600160a01b03166001600160a01b0316815260200190815260200160002060008282546123909190613322565b909155505060045481106123b7576001601460008282546123b19190613322565b90915550505b806123c061270b565b6001600160a01b03167f21040858e63c11c046482f61f290bbe25972fc74b11b4570a01f9241082d21f160405160405180910390a350565b606060088054806020026020016040519081016040528092919081815260200182805480156114e6576020028201919060005260206000209081546001600160a01b031681526001909101906020018083116114c8575050505050905090565b6000600e60006001600f5461246d91906132e5565b81526020019081526020016000206005016000836001600160a01b03166001600160a01b03168152602001908152602001600020549050919050565b6002546001600160a01b03166124bd61270b565b6001600160a01b0316146124e35760405162461bcd60e51b81526004016107699061325a565b600280546001600160a01b0319166001600160a01b0392909216919091179055565b61250d612be5565b6001600160a01b03811661253757604051631e4fbdf760e01b815260006004820152602401610769565b610a6881612c43565b6000818152600e602090815260408083206001600160a01b03861684526005019091529020545b92915050565b6002546001600160a01b031661258161270b565b6001600160a01b0316146125a75760405162461bcd60e51b81526004016107699061325a565b6001600f54116125ed5760405162461bcd60e51b815260206004820152601160248201527014d95d1d5c08199a5c9cdd081c9bdd5b99607a1b6044820152606401610769565b42600e60006001600f5461260191906132e5565b815260200190815260200160002060010154111561265a5760405162461bcd60e51b8152602060048201526016602482015275149bdd5b99081a5cc81b9bdd08195b991959081e595d60521b6044820152606401610769565b6001600e60006001600f5461266f91906132e5565b815260200190815260200160002060040160016101000a81548160ff0219169083151502179055506126cb6126a261270b565b604080516001600160a01b03909216602083015201604051602081830303815290604052612d4e565b506126d461270b565b6001600160a01b03167fd802e7c7f1646e3318c03abed1e468bdf913f45331a68dc912a0d645eb646a4260405160405180910390a2565b6000612715612e51565b905090565b6001600160a01b038116600081815260076020526040808220805460ff1916600190811790915560088054918201815583527ff3f7a9fe364faab93b216da50a3214154f22a0a2b415b23a84c8169e8b636ee30180546001600160a01b03191684179055517f1d4c260f1824cd028e6c9e6e31c3a0b94f2513e7a641113ec759d382f9bdd5a19190a250565b6002546001600160a01b03166127ba61270b565b6001600160a01b0316146127e05760405162461bcd60e51b81526004016107699061325a565b6001600e60006001600f546127f591906132e5565b81526020810191909152604001600020600401805462ff00001916620100008315150217905561287f5760405162461bcd60e51b815260206004820152602f60248201527f57696e6e6572732077657265206e6f742073656c656374656420666f7220746860448201526e194818dd5c9c995b9d081c9bdd5b99608a1b6064820152608401610769565b6000600e60006001600f5461289491906132e5565b815260200190815260200160002060060180549050905060008167ffffffffffffffff8111156128c6576128c6612fec565b6040519080825280602002602001820160405280156128ef578160200160208202803683370190505b50905060005b8281101561298257600e60006001600f5461291091906132e5565b815260200190815260200160002060060181815481106129325761293261329c565b9060005260206000200160009054906101000a90046001600160a01b03168282815181106129625761296261329c565b6001600160a01b03909216602092830291909101909101526001016128f5565b5060005b82811015612b6e5760008282815181106129a2576129a261329c565b602002602001015190506000600e60006001600f546129c191906132e5565b81526020019081526020016000206005016000836001600160a01b03166001600160a01b031681526020019081526020016000205490506000600e60006001600f54612a0d91906132e5565b8152602080820192909252604090810160009081206001600160a01b0387168252600501835281812093909355600790915290205460ff1615612aeb576004548110612ae657600060045482612a6391906132e5565b90508015612ae457600b5460405163a9059cbb60e01b81526001600160a01b038581166004830152602482018490529091169063a9059cbb906044016020604051808303816000875af1158015612abe573d6000803e3d6000fd5b505050506040513d601f19601f82011682018060405250810190612ae291906132b2565b505b505b612b64565b600b5460405163a9059cbb60e01b81526001600160a01b038481166004830152602482018490529091169063a9059cbb906044016020604051808303816000875af1158015612b3e573d6000803e3d6000fd5b505050506040513d601f19601f82011682018060405250810190612b6291906132b2565b505b5050600101612986565b50600e60006001600f54612b8291906132e5565b81526020019081526020016000206006016000612b9f9190612eec565b6001600f54612bae91906132e5565b6040518381527f317089864e65885a61555a7fee05445baa7fc2159860ee96c70abda1d51d55df9060200160405180910390a25050565b612bed61270b565b6001600160a01b0316612c086000546001600160a01b031690565b6001600160a01b03161461179a57612c1e61270b565b60405163118cdaa760e01b81526001600160a01b039091166004820152602401610769565b600080546001600160a01b038381166001600160a01b0319831681178455604051919092169283917f8be0079c531659141344cd1fd0a4f28419497f9722a3daafe3b4186f6b6457e09190a35050565b6000612c9f828461334c565b9392505050565b6000612c9f8284613335565b6000612c9f8284613322565b6000612c9f82846132e5565b82600e60006001600f54612cde91906132e5565b81526020019081526020016000206003018190555080806020019051810190612d0791906134fb565b6001600160a01b03167fe85d009f8a44a1484b05949bc6ffe0c555696e50510d74dc5d4588d9c0812a0184604051612d4191815260200190565b60405180910390a2505050565b600c8054600180820180845560008490529192909183908110612d7357612d7361329c565b90600052602060002090602091828204019190066101000a81548160ff02191690831515021790555060008183604051602001612db1929190613518565b60405160208183030381529060405290506000612dcc612e95565b905060008183604051602001612de3929190613518565b60408051601f1981840301815282825280516020808301919091206000898152600d9092529290208290559250907fd91fc3685b930310b008ec37d2334870cab88a023ed8cc628a2e2ccd4e55d20290612e409085908790613518565b60405180910390a150505050919050565b60007f00000000000000000000000000000000000000000000000000000000000000006001600160a01b03163303612e90575060131936013560601c90565b503390565b600080612ea66364e62127426132e5565b90506000612eb560038361334c565b612ec0906001613322565b905046600114612eda57612ed5816001613322565b612ee5565b612ee5816004613322565b9250505090565b5080546000825590600052602060002090810190610a6891905b80821115612f1a5760008155600101612f06565b5090565b600060208284031215612f3057600080fd5b5035919050565b6001600160a01b0381168114610a6857600080fd5b8035612f5781612f37565b919050565b600060208284031215612f6e57600080fd5b8135612c9f81612f37565b60008060408385031215612f8c57600080fd5b8235612f9781612f37565b946020939093013593505050565b8015158114610a6857600080fd5b60008060408385031215612fc657600080fd5b8235612fd181612f37565b91506020830135612fe181612fa5565b809150509250929050565b634e487b7160e01b600052604160045260246000fd5b604051610140810167ffffffffffffffff8111828210171561302657613026612fec565b60405290565b604051601f8201601f1916810167ffffffffffffffff8111828210171561305557613055612fec565b604052919050565b6000610140828403121561307057600080fd5b613078613002565b61308183612f4c565b815261308f60208401612f4c565b60208201526130a060408401612f4c565b6040820152606083013560608201526080830135608082015260a083013560a08201526130cf60c08401612f4c565b60c08201526130e060e08401612f4c565b60e08201526101006130f3818501612f4c565b90820152610120613105848201612f4c565b908201529392505050565b6020808252825182820181905260009190848201906040850190845b818110156131515783516001600160a01b03168352928401929184019160010161312c565b50909695505050505050565b60006020828403121561316f57600080fd5b813560038110612c9f57600080fd5b634e487b7160e01b600052602160045260246000fd5b60208101600383106131b657634e487b7160e01b600052602160045260246000fd5b91905290565b600080604083850312156131cf57600080fd5b50508035926020909101359150565b6000806000604084860312156131f357600080fd5b83359250602084013567ffffffffffffffff8082111561321257600080fd5b818601915086601f83011261322657600080fd5b81358181111561323557600080fd5b87602082850101111561324757600080fd5b6020830194508093505050509250925092565b60208082526022908201527f4f6e6c792073656c6c65722063616e2063616c6c20746869732066756e63746960408201526137b760f11b606082015260800190565b634e487b7160e01b600052603260045260246000fd5b6000602082840312156132c457600080fd5b8151612c9f81612fa5565b634e487b7160e01b600052601160045260246000fd5b81810381811115612567576125676132cf565b634e487b7160e01b600052601260045260246000fd5b60008261331d5761331d6132f8565b500690565b80820180821115612567576125676132cf565b8082028115828204841417612567576125676132cf565b60008261335b5761335b6132f8565b500490565b600060018201613372576133726132cf565b5060010190565b600067ffffffffffffffff82111561339357613393612fec565b50601f01601f191660200190565b600080604083850312156133b457600080fd5b82359150602083013567ffffffffffffffff8111156133d257600080fd5b8301601f810185136133e357600080fd5b80356133f66133f182613379565b61302c565b81815286602083850101111561340b57600080fd5b816020840160208301376000602083830101528093505050509250929050565b60005b8381101561344657818101518382015260200161342e565b50506000910152565b6000806040838503121561346257600080fd5b82519150602083015167ffffffffffffffff81111561348057600080fd5b8301601f8101851361349157600080fd5b805161349f6133f182613379565b8181528660208385010111156134b457600080fd5b6134c582602083016020860161342b565b8093505050509250929050565b8183823760009101908152919050565b6000602082840312156134f457600080fd5b5051919050565b60006020828403121561350d57600080fd5b8151612c9f81612f37565b828152604060208201526000825180604084015261353d81606085016020870161342b565b601f01601f191691909101606001939250505056fea26469706673582212203537c0cb9e1d45a32579dbb94710361fd3705565749ba9b5bee3f0689ef596e864736f6c63430008190033","linkReferences":{}},"methodIdentifiers":{"buyerWithdraw()":"7cc947d0","changeLotteryState(uint8)":"683e93e1","deposit(uint256)":"b6b55f25","deposits(address)":"fc7e286d","endLottery()":"1593a8c7","fulfillRandomness(uint256,bytes)":"b3f6b99a","getDepositedAmount(address)":"e9081ec7","getDepositedAmountForRound(address,uint256)":"f56542d6","getParticipants()":"5aa68ac0","getParticipantsForRound(uint256)":"80d58442","getWinners()":"df15c37e","hasMinted(address)":"38e21cce","increasePriceStep()":"96efac7b","initialPrice()":"1d0806ae","initialize((address,address,address,uint256,uint256,uint256,address,address,address,address))":"56d7c73a","isTrustedForwarder(address)":"572b6c05","isWinner(address)":"9d9ca28d","lotteryState()":"6939864b","lotteryV2Addr()":"7de13382","mintMyNFT()":"26170480","multisigWalletAddress()":"a61fb2ba","nftContractAddr()":"2c23ec8e","numberOfTickets()":"45745c10","operatorAddr()":"f3f18c37","operators(address)":"13e7c9d8","owner()":"8da5cb5b","prevRoundDeposits()":"b680e44b","prevRoundTicketsAmount()":"224f91bd","renounceOwnership()":"715018a6","requestPending(uint256)":"75ce7fff","requestRandomness()":"f8413b07","requestedHash(uint256)":"c4f8f27b","roundCounter()":"febc14b1","rounds(uint256)":"8c65c81f","selectWinners()":"1a0de74c","seller()":"08551a53","sellerWithdraw()":"66af746b","setOperator(address,bool)":"558a7297","setSeller(address)":"e99d2866","setupNewRound(uint256,uint256)":"a4f03c02","startLottery()":"160344e2","ticketPrice()":"1209b1f6","totalNumberOfTickets()":"00746702","transferDeposit(address,uint256)":"50f3dbec","transferNonWinnerBids(address)":"1630a8df","transferOwnership(address)":"f2fde38b","usdcContractAddr()":"99dbf4b5","winnerAddresses(uint256)":"045f9c97","winners(address)":"6bd5450a"},"id":7}