{"abi":[{"type":"function","name":"buyerWithdraw","inputs":[],"outputs":[],"stateMutability":"nonpayable"},{"type":"function","name":"changeLotteryState","inputs":[{"name":"_newState","type":"uint8","internalType":"enum SaleBase.LotteryState"}],"outputs":[],"stateMutability":"nonpayable"},{"type":"function","name":"deposit","inputs":[{"name":"amount","type":"uint256","internalType":"uint256"}],"outputs":[],"stateMutability":"nonpayable"},{"type":"function","name":"deposits","inputs":[{"name":"","type":"address","internalType":"address"}],"outputs":[{"name":"","type":"uint256","internalType":"uint256"}],"stateMutability":"view"},{"type":"function","name":"endLottery","inputs":[],"outputs":[],"stateMutability":"nonpayable"},{"type":"function","name":"fulfillRandomness","inputs":[{"name":"randomness","type":"uint256","internalType":"uint256"},{"name":"dataWithRound","type":"bytes","internalType":"bytes"}],"outputs":[],"stateMutability":"nonpayable"},{"type":"function","name":"getDepositedAmount","inputs":[{"name":"participant","type":"address","internalType":"address"}],"outputs":[{"name":"","type":"uint256","internalType":"uint256"}],"stateMutability":"view"},{"type":"function","name":"getDepositedAmountForRound","inputs":[{"name":"participant","type":"address","internalType":"address"},{"name":"roundIndex","type":"uint256","internalType":"uint256"}],"outputs":[{"name":"","type":"uint256","internalType":"uint256"}],"stateMutability":"view"},{"type":"function","name":"getParticipants","inputs":[],"outputs":[{"name":"","type":"address[]","internalType":"address[]"}],"stateMutability":"view"},{"type":"function","name":"getParticipantsForRound","inputs":[{"name":"roundIndex","type":"uint256","internalType":"uint256"}],"outputs":[{"name":"","type":"address[]","internalType":"address[]"}],"stateMutability":"view"},{"type":"function","name":"getWinners","inputs":[],"outputs":[{"name":"","type":"address[]","internalType":"address[]"}],"stateMutability":"view"},{"type":"function","name":"hasMinted","inputs":[{"name":"","type":"address","internalType":"address"}],"outputs":[{"name":"","type":"bool","internalType":"bool"}],"stateMutability":"view"},{"type":"function","name":"increasePriceStep","inputs":[],"outputs":[{"name":"","type":"uint256","internalType":"uint256"}],"stateMutability":"view"},{"type":"function","name":"initialPrice","inputs":[],"outputs":[{"name":"","type":"uint256","internalType":"uint256"}],"stateMutability":"view"},{"type":"function","name":"initialize","inputs":[{"name":"config","type":"tuple","internalType":"struct StructsLibrary.IAuctionV1BaseConfig","components":[{"name":"_seller","type":"address","internalType":"address"},{"name":"_gelatoVrfOperator","type":"address","internalType":"address"},{"name":"_owner","type":"address","internalType":"address"},{"name":"_ticketAmount","type":"uint256","internalType":"uint256"},{"name":"_ticketPrice","type":"uint256","internalType":"uint256"},{"name":"_priceIncreaseStep","type":"uint256","internalType":"uint256"},{"name":"_usdcContractAddr","type":"address","internalType":"address"},{"name":"_nftContractAddr","type":"address","internalType":"address"},{"name":"_multisigWalletAddress","type":"address","internalType":"address"},{"name":"_prevPhaseContractAddr","type":"address","internalType":"address"}]}],"outputs":[],"stateMutability":"nonpayable"},{"type":"function","name":"isTrustedForwarder","inputs":[{"name":"forwarder","type":"address","internalType":"address"}],"outputs":[{"name":"","type":"bool","internalType":"bool"}],"stateMutability":"view"},{"type":"function","name":"isWinner","inputs":[{"name":"_participant","type":"address","internalType":"address"}],"outputs":[{"name":"","type":"bool","internalType":"bool"}],"stateMutability":"view"},{"type":"function","name":"lotteryState","inputs":[],"outputs":[{"name":"","type":"uint8","internalType":"enum SaleBase.LotteryState"}],"stateMutability":"view"},{"type":"function","name":"lotteryV2Addr","inputs":[],"outputs":[{"name":"","type":"address","internalType":"address"}],"stateMutability":"view"},{"type":"function","name":"mintMyNFT","inputs":[],"outputs":[],"stateMutability":"nonpayable"},{"type":"function","name":"multisigWalletAddress","inputs":[],"outputs":[{"name":"","type":"address","internalType":"address"}],"stateMutability":"view"},{"type":"function","name":"nftContractAddr","inputs":[],"outputs":[{"name":"","type":"address","internalType":"address"}],"stateMutability":"view"},{"type":"function","name":"numberOfTickets","inputs":[],"outputs":[{"name":"","type":"uint256","internalType":"uint256"}],"stateMutability":"view"},{"type":"function","name":"operatorAddr","inputs":[],"outputs":[{"name":"","type":"address","internalType":"address"}],"stateMutability":"view"},{"type":"function","name":"operators","inputs":[{"name":"","type":"address","internalType":"address"}],"outputs":[{"name":"","type":"bool","internalType":"bool"}],"stateMutability":"view"},{"type":"function","name":"owner","inputs":[],"outputs":[{"name":"","type":"address","internalType":"address"}],"stateMutability":"view"},{"type":"function","name":"prevRoundDeposits","inputs":[],"outputs":[{"name":"","type":"uint256","internalType":"uint256"}],"stateMutability":"view"},{"type":"function","name":"prevRoundTicketsAmount","inputs":[],"outputs":[{"name":"","type":"uint256","internalType":"uint256"}],"stateMutability":"view"},{"type":"function","name":"renounceOwnership","inputs":[],"outputs":[],"stateMutability":"nonpayable"},{"type":"function","name":"requestPending","inputs":[{"name":"","type":"uint256","internalType":"uint256"}],"outputs":[{"name":"","type":"bool","internalType":"bool"}],"stateMutability":"view"},{"type":"function","name":"requestRandomness","inputs":[],"outputs":[],"stateMutability":"nonpayable"},{"type":"function","name":"requestedHash","inputs":[{"name":"","type":"uint256","internalType":"uint256"}],"outputs":[{"name":"","type":"bytes32","internalType":"bytes32"}],"stateMutability":"view"},{"type":"function","name":"roundCounter","inputs":[],"outputs":[{"name":"","type":"uint256","internalType":"uint256"}],"stateMutability":"view"},{"type":"function","name":"rounds","inputs":[{"name":"","type":"uint256","internalType":"uint256"}],"outputs":[{"name":"number","type":"uint256","internalType":"uint256"},{"name":"finishAt","type":"uint256","internalType":"uint256"},{"name":"numberOfTickets","type":"uint256","internalType":"uint256"},{"name":"randomNumber","type":"uint256","internalType":"uint256"},{"name":"lotteryStarted","type":"bool","internalType":"bool"},{"name":"lotteryFinished","type":"bool","internalType":"bool"},{"name":"winnersSelected","type":"bool","internalType":"bool"}],"stateMutability":"view"},{"type":"function","name":"selectWinners","inputs":[],"outputs":[],"stateMutability":"nonpayable"},{"type":"function","name":"seller","inputs":[],"outputs":[{"name":"","type":"address","internalType":"address"}],"stateMutability":"view"},{"type":"function","name":"setOperator","inputs":[{"name":"_operatorAddr","type":"address","internalType":"address"},{"name":"_flag","type":"bool","internalType":"bool"}],"outputs":[],"stateMutability":"nonpayable"},{"type":"function","name":"setSeller","inputs":[{"name":"_seller","type":"address","internalType":"address"}],"outputs":[],"stateMutability":"nonpayable"},{"type":"function","name":"setupNewRound","inputs":[{"name":"_finishAt","type":"uint256","internalType":"uint256"},{"name":"_numberOfTickets","type":"uint256","internalType":"uint256"}],"outputs":[],"stateMutability":"nonpayable"},{"type":"function","name":"startLottery","inputs":[],"outputs":[],"stateMutability":"nonpayable"},{"type":"function","name":"ticketPrice","inputs":[],"outputs":[{"name":"","type":"uint256","internalType":"uint256"}],"stateMutability":"view"},{"type":"function","name":"totalAmountForSeller","inputs":[],"outputs":[{"name":"","type":"uint256","internalType":"uint256"}],"stateMutability":"view"},{"type":"function","name":"totalNumberOfTickets","inputs":[],"outputs":[{"name":"","type":"uint256","internalType":"uint256"}],"stateMutability":"view"},{"type":"function","name":"transferDeposit","inputs":[{"name":"_participant","type":"address","internalType":"address"},{"name":"_amount","type":"uint256","internalType":"uint256"}],"outputs":[],"stateMutability":"nonpayable"},{"type":"function","name":"transferNonWinnerBids","inputs":[{"name":"destinationAddr","type":"address","internalType":"address"}],"outputs":[],"stateMutability":"nonpayable"},{"type":"function","name":"transferOwnership","inputs":[{"name":"newOwner","type":"address","internalType":"address"}],"outputs":[],"stateMutability":"nonpayable"},{"type":"function","name":"usdcContractAddr","inputs":[],"outputs":[{"name":"","type":"address","internalType":"address"}],"stateMutability":"view"},{"type":"function","name":"winnerAddresses","inputs":[{"name":"","type":"uint256","internalType":"uint256"}],"outputs":[{"name":"","type":"address","internalType":"address"}],"stateMutability":"view"},{"type":"function","name":"winners","inputs":[{"name":"","type":"address","internalType":"address"}],"outputs":[{"name":"","type":"bool","internalType":"bool"}],"stateMutability":"view"},{"type":"event","name":"BuyerDeposited","inputs":[{"name":"buyer","type":"address","indexed":true,"internalType":"address"},{"name":"amount","type":"uint256","indexed":true,"internalType":"uint256"}],"anonymous":false},{"type":"event","name":"BuyerWithdrew","inputs":[{"name":"buyer","type":"address","indexed":true,"internalType":"address"},{"name":"amount","type":"uint256","indexed":true,"internalType":"uint256"}],"anonymous":false},{"type":"event","name":"DepositsReturned","inputs":[{"name":"returnedDepositsCount","type":"uint256","indexed":false,"internalType":"uint256"},{"name":"roundNumber","type":"uint256","indexed":true,"internalType":"uint256"}],"anonymous":false},{"type":"event","name":"DepositsReturned","inputs":[{"name":"returnedDepositsCount","type":"uint256","indexed":false,"internalType":"uint256"}],"anonymous":false},{"type":"event","name":"Initialized","inputs":[{"name":"version","type":"uint64","indexed":false,"internalType":"uint64"}],"anonymous":false},{"type":"event","name":"LotteryEnded","inputs":[],"anonymous":false},{"type":"event","name":"LotteryStarted","inputs":[],"anonymous":false},{"type":"event","name":"OwnershipTransferred","inputs":[{"name":"previousOwner","type":"address","indexed":true,"internalType":"address"},{"name":"newOwner","type":"address","indexed":true,"internalType":"address"}],"anonymous":false},{"type":"event","name":"RandomFulfilled","inputs":[{"name":"number","type":"uint256","indexed":false,"internalType":"uint256"},{"name":"requester","type":"address","indexed":true,"internalType":"address"}],"anonymous":false},{"type":"event","name":"RandomRequested","inputs":[{"name":"requester","type":"address","indexed":true,"internalType":"address"}],"anonymous":false},{"type":"event","name":"RequestedRandomness","inputs":[{"name":"round","type":"uint256","indexed":false,"internalType":"uint256"},{"name":"data","type":"bytes","indexed":false,"internalType":"bytes"}],"anonymous":false},{"type":"event","name":"RoundSet","inputs":[{"name":"roundNumber","type":"uint256","indexed":true,"internalType":"uint256"},{"name":"finishAt","type":"uint256","indexed":false,"internalType":"uint256"},{"name":"numberOfTickets","type":"uint256","indexed":false,"internalType":"uint256"},{"name":"newTicketPrice","type":"uint256","indexed":false,"internalType":"uint256"}],"anonymous":false},{"type":"event","name":"WinnerSelected","inputs":[{"name":"winner","type":"address","indexed":true,"internalType":"address"}],"anonymous":false},{"type":"error","name":"InvalidInitialization","inputs":[]},{"type":"error","name":"NotInitializing","inputs":[]},{"type":"error","name":"OwnableInvalidOwner","inputs":[{"name":"owner","type":"address","internalType":"address"}]},{"type":"error","name":"OwnableUnauthorizedAccount","inputs":[{"name":"account","type":"address","internalType":"address"}]}],"bytecode":{"object":"0x60a060405260016015556001601655600560175534801561001f57600080fd5b5073d8253782c45a12053594b9deb72d8e8ab2fca54c338061005b57604051631e4fbdf760e01b81526000600482015260240160405180910390fd5b6100648161007e565b506001600160a01b03166080526100796100ce565b610180565b600080546001600160a01b038381166001600160a01b0319831681178455604051919092169283917f8be0079c531659141344cd1fd0a4f28419497f9722a3daafe3b4186f6b6457e09190a35050565b7ff0c57e16840df040f15088dc2f81fe391c3923bec73e23a9662efc9c229c6a00805468010000000000000000900460ff161561011e5760405163f92ee8a960e01b815260040160405180910390fd5b80546001600160401b039081161461017d5780546001600160401b0319166001600160401b0390811782556040519081527fc7f505b2f371ae2175ee4913f4499e1f2633a7b5936321eed1cdaeb6115181d29060200160405180910390a15b50565b6080516135a56101a2600039600081816104240152612d0a01526135a56000f3fe608060405234801561001057600080fd5b50600436106102ba5760003560e01c806375ce7fff11610182578063b680e44b116100e9578063e99d2866116100a2578063f56542d61161007c578063f56542d6146106c2578063f8413b07146106d5578063fc7e286d146106dd578063febc14b1146106fd57600080fd5b8063e99d286614610689578063f2fde38b1461069c578063f3f18c37146106af57600080fd5b8063b680e44b14610629578063b6b55f2514610632578063c4f8f27b14610645578063da59a0dd14610665578063df15c37e1461066e578063e9081ec71461067657600080fd5b806396efac7b1161013b57806396efac7b146105a857806399dbf4b5146105b15780639d9ca28d146105c4578063a4f03c02146105f0578063a61fb2ba14610603578063b3f6b99a1461061657600080fd5b806375ce7fff146104c85780637cc947d0146104db5780637de13382146104e357806380d58442146104f65780638c65c81f146105095780638da5cb5b1461059757600080fd5b80632c23ec8e11610226578063572b6c05116101df578063572b6c05146104145780635aa68ac014610454578063683e93e1146104695780636939864b1461047c5780636bd5450a1461049d578063715018a6146104c057600080fd5b80632c23ec8e1461039c57806338e21cce146103af57806345745c10146103d257806350f3dbec146103db578063558a7297146103ee57806356d7c73a1461040157600080fd5b8063160344e211610278578063160344e21461035f5780631630a8df146103675780631a0de74c1461037a5780631d0806ae14610382578063224f91bd1461038b578063261704801461039457600080fd5b8062746702146102bf578063045f9c97146102db57806308551a53146103065780631209b1f61461031957806313e7c9d8146103225780631593a8c714610355575b600080fd5b6102c860185481565b6040519081526020015b60405180910390f35b6102ee6102e9366004612f3b565b610706565b6040516001600160a01b0390911681526020016102d2565b6002546102ee906001600160a01b031681565b6102c860045481565b610345610330366004612f79565b60116020526000908152604090205460ff1681565b60405190151581526020016102d2565b61035d610730565b005b61035d6107a8565b61035d610375366004612f79565b610883565b61035d610a6c565b6102c860145481565b6102c860165481565b61035d610fb8565b600b546102ee906001600160a01b031681565b6103456103bd366004612f79565b60066020526000908152604090205460ff1681565b6102c860035481565b61035d6103e9366004612f96565b611118565b61035d6103fc366004612fd0565b611258565b61035d61040f36600461307a565b61128b565b610345610422366004612f79565b7f00000000000000000000000000000000000000000000000000000000000000006001600160a01b0390811691161490565b61045c61145f565b6040516102d2919061312d565b61035d61047736600461317a565b6114e3565b60005461049090600160a01b900460ff1681565b6040516102d291906131b1565b6103456104ab366004612f79565b60086020526000908152604090205460ff1681565b61035d61154a565b6103456104d6366004612f3b565b61155e565b61035d611592565b6012546102ee906001600160a01b031681565b61045c610504366004612f3b565b6117d6565b61055c610517366004612f3b565b600f60205260009081526040902080546001820154600283015460038401546004909401549293919290919060ff808216916101008104821691620100009091041687565b60408051978852602088019690965294860193909352606085019190915215156080840152151560a0830152151560c082015260e0016102d2565b6000546001600160a01b03166102ee565b6102c860175481565b600c546102ee906001600160a01b031681565b6103456105d2366004612f79565b6001600160a01b031660009081526008602052604090205460ff1690565b61035d6105fe3660046131d9565b611845565b6001546102ee906001600160a01b031681565b61035d6106243660046131fb565b611ba5565b6102c860155481565b61035d610640366004612f3b565b611d7f565b6102c8610653366004612f3b565b600e6020526000908152604090205481565b6102c860055481565b61045c6121ba565b6102c8610684366004612f79565b61221a565b61035d610697366004612f79565b61226b565b61035d6106aa366004612f79565b6122c7565b6013546102ee906001600160a01b031681565b6102c86106d0366004612f96565b612302565b61035d61232f565b6102c86106eb366004612f79565b60076020526000908152604090205481565b6102c860105481565b6009818154811061071657600080fd5b6000918252602090912001546001600160a01b0316905081565b6002546001600160a01b03166107446124cd565b6001600160a01b0316146107735760405162461bcd60e51b815260040161076a90613277565b60405180910390fd5b61077d60026114e3565b6040517f9c89a6ed7228533196a3f962acc80d61a9c53bdea6b910741bf754f5aaa7569e90600090a1565b6002546001600160a01b03166107bc6124cd565b6001600160a01b0316146107e25760405162461bcd60e51b815260040161076a90613277565b60008054600160a01b900460ff1660028111156108015761080161319b565b1461084e5760405162461bcd60e51b815260206004820152601760248201527f53616c6520697320696e20616374697665207374617465000000000000000000604482015260640161076a565b61085860016114e3565b6040517fd029c7c68d943f92286a7825fa6aa2deefa1eee46cee6c91b7e483fd06d27baf90600090a1565b6002546001600160a01b03166108976124cd565b6001600160a01b0316146108bd5760405162461bcd60e51b815260040161076a90613277565b60005b600a54811015610a5c57600060076000600a84815481106108e3576108e36132b9565b60009182526020808320909101546001600160a01b03168352820192909252604001812054600a805491935060079183919086908110610925576109256132b9565b6000918252602080832091909101546001600160a01b039081168452908301939093526040918201902092909255600c54915163a9059cbb60e01b815285821660048201526024810184905291169063a9059cbb906044016020604051808303816000875af115801561099c573d6000803e3d6000fd5b505050506040513d601f19601f820116820180604052508101906109c091906132cf565b50826001600160a01b03166350f3dbec600a84815481106109e3576109e36132b9565b60009182526020909120015460405160e083901b6001600160e01b03191681526001600160a01b03909116600482015260248101849052604401600060405180830381600087803b158015610a3757600080fd5b505af1158015610a4b573d6000803e3d6000fd5b5050600190930192506108c0915050565b50610a69600a6000612f09565b50565b6002546001600160a01b0316610a806124cd565b6001600160a01b031614610aa65760405162461bcd60e51b815260040161076a90613277565b6000600f60006001601054610abb9190613302565b81526020019081526020016000206003015411610b305760405162461bcd60e51b815260206004820152602d60248201527f52616e646f6d206e756d62657220666f72206c61737420726f756e642069732060448201526c1b9bdd0819d95b995c985d1959609a1b606482015260840161076a565b600060035411610b825760405162461bcd60e51b815260206004820152601b60248201527f4e6f207469636b657473206c65667420746f20616c6c6f636174650000000000604482015260640161076a565b6000805460ff60a01b1916600160a01b178155601054600f908290610ba990600190613302565b81526020019081526020016000206006018054905090508060035410610c955760005b81811015610c8f576000600f60006001601054610be99190613302565b81526020019081526020016000206006018281548110610c0b57610c0b6132b9565b6000918252602090912001546001600160a01b03169050610c44816001600160a01b031660009081526008602052604090205460ff1690565b610c8657610c51816124dc565b6040516001600160a01b038216907f1d4c260f1824cd028e6c9e6e31c3a0b94f2513e7a641113ec759d382f9bdd5a190600090a25b50600101610bcc565b50610f18565b60005b81811015610e4d576000610cac8284613302565b600f60006001601054610cbf9190613302565b815260200190815260200160002060030154610cdb919061332b565b610ce5908361333f565b90506000600f60006001601054610cfc9190613302565b81526020019081526020016000206006018281548110610d1e57610d1e6132b9565b60009182526020822001546010546001600160a01b039091169250600f9190610d4990600190613302565b81526020019081526020016000206006018381548110610d6b57610d6b6132b9565b60009182526020822001546010546001600160a01b0390911691600f91610d9490600190613302565b81526020019081526020016000206006018381548110610db657610db66132b9565b9060005260206000200160006101000a8154816001600160a01b0302191690836001600160a01b0316021790555080600f60006001601054610df89190613302565b81526020019081526020016000206006018481548110610e1a57610e1a6132b9565b600091825260209091200180546001600160a01b0319166001600160a01b03929092169190911790555050600101610c98565b5060005b600354811015610f16576000600f60006001601054610e709190613302565b81526020019081526020016000206006018281548110610e9257610e926132b9565b6000918252602090912001546001600160a01b03169050610ecb816001600160a01b031660009081526008602052604090205460ff1690565b610f0d57610ed8816124dc565b6040516001600160a01b038216907f1d4c260f1824cd028e6c9e6e31c3a0b94f2513e7a641113ec759d382f9bdd5a190600090a25b50600101610e51565b505b60006003819055506001600f60006001601054610f359190613302565b815260200190815260200160002060040160026101000a81548160ff021916908315150217905550610f65612568565b6000805460ff60a01b191681556018549003610a69576000805460ff60a01b1916600160a11b1781556040517f9c89a6ed7228533196a3f962acc80d61a9c53bdea6b910741bf754f5aaa7569e9190a150565b60066000610fc46124cd565b6001600160a01b0316815260208101919091526040016000205460ff16156110235760405162461bcd60e51b815260206004820152601260248201527113919508185b1c9958591e481b5a5b9d195960721b604482015260640161076a565b61102e6105d26124cd565b6110735760405162461bcd60e51b815260206004820152601660248201527521b0b63632b91034b9903737ba1030903bb4b73732b960511b604482015260640161076a565b6001600660006110816124cd565b6001600160a01b0390811682526020820192909252604001600020805460ff191692151592909217909155600b5416636b8f60f66110bd6124cd565b6040516001600160e01b031960e084901b1681526001600160a01b039091166004820152602401600060405180830381600087803b1580156110fe57600080fd5b505af1158015611112573d6000803e3d6000fd5b50505050565b6111206124cd565b6012546001600160a01b0390811691161461118d5760405162461bcd60e51b815260206004820152602760248201527f4f6e6c792077686974656c6973746564206d61792063616c6c207468697320666044820152663ab731ba34b7b760c91b606482015260840161076a565b600760006111996124cd565b6001600160a01b03166001600160a01b031681526020019081526020016000205460000361120d57600a80546001810182556000919091527fc65a7bb8d6351c1cf70c95a316cc6a92839c986682d98bc35f958f4883f9d2a80180546001600160a01b0319166001600160a01b0384161790555b6001600160a01b0382166000908152600760205260408120805483929061123590849061333f565b9250508190555060016015600082825461124f919061333f565b90915550505050565b611260612a9a565b6001600160a01b03919091166000908152601160205260409020805460ff1916911515919091179055565b7ff0c57e16840df040f15088dc2f81fe391c3923bec73e23a9662efc9c229c6a008054600160401b810460ff16159067ffffffffffffffff166000811580156112d15750825b905060008267ffffffffffffffff1660011480156112ee5750303b155b9050811580156112fc575080155b1561131a5760405163f92ee8a960e01b815260040160405180910390fd5b845467ffffffffffffffff19166001178555831561134457845460ff60401b1916600160401b1785555b8551600280546001600160a01b039283166001600160a01b031991821617909155602088015160138054919093169116179055604086015161138590612af8565b6060860151601855608086015160038190556016819055600481905560145560a086015160175560c0860151600c80546001600160a01b03199081166001600160a01b039384161790915560e0880151600b80548316918416919091179055610100880151600180548316918416919091178155610120890151601280549093169316929092179055601055831561145757845460ff60401b19168555604051600181527fc7f505b2f371ae2175ee4913f4499e1f2633a7b5936321eed1cdaeb6115181d29060200160405180910390a15b505050505050565b6060600f600060016010546114749190613302565b81526020019081526020016000206006018054806020026020016040519081016040528092919081815260200182805480156114d957602002820191906000526020600020905b81546001600160a01b031681526001909101906020018083116114bb575b5050505050905090565b6002546001600160a01b03166114f76124cd565b6001600160a01b03161461151d5760405162461bcd60e51b815260040161076a90613277565b6000805482919060ff60a01b1916600160a01b8360028111156115425761154261319b565b021790555050565b611552612a9a565b61155c6000612af8565b565b600d818154811061156e57600080fd5b9060005260206000209060209182820401919006915054906101000a900460ff1681565b6002600054600160a01b900460ff1660028111156115b2576115b261319b565b146115f75760405162461bcd60e51b815260206004820152601560248201527414d85b19481a5cc81b9bdd08195b991959081e595d605a1b604482015260640161076a565b600860006116036124cd565b6001600160a01b0316815260208101919091526040016000205460ff161561166d5760405162461bcd60e51b815260206004820152601760248201527f57696e6e6572732063616e6e6f74207769746864726177000000000000000000604482015260640161076a565b60006007600061167b6124cd565b6001600160a01b03166001600160a01b03168152602001908152602001600020549050600081116116e55760405162461bcd60e51b81526020600482015260146024820152734e6f2066756e647320746f20776974686472617760601b604482015260640161076a565b6000600760006116f36124cd565b6001600160a01b039081168252602082019290925260400160002091909155600c541663a9059cbb6117236124cd565b6040516001600160e01b031960e084901b1681526001600160a01b039091166004820152602481018490526044016020604051808303816000875af1158015611770573d6000803e3d6000fd5b505050506040513d601f19601f8201168201806040525081019061179491906132cf565b508061179e6124cd565b6001600160a01b03167f1f280cd00e67ed50213ac03febd5be151f96b7f7db2f85312aa0feff99f8bdab60405160405180910390a350565b6000818152600f602090815260409182902060060180548351818402810184019094528084526060939283018282801561183957602002820191906000526020600020905b81546001600160a01b0316815260019091019060200180831161181b575b50505050509050919050565b6002546001600160a01b03166118596124cd565b6001600160a01b0316148061188857506000546001600160a01b031661187d6124cd565b6001600160a01b0316145b806118b857506011600061189a6124cd565b6001600160a01b0316815260208101919091526040016000205460ff165b6119105760405162461bcd60e51b8152602060048201526024808201527f4f6e6c79206f70657261746f722063616e2063616c6c20746869732066756e636044820152633a34b7b760e11b606482015260840161076a565b60185481111561199d5760405162461bcd60e51b815260206004820152604c60248201527f5469636b6574732070657220726f756e642063616e6e6f74206265206869676860448201527f6572207468616e20746f74616c206e756d626572206f66207469636b6574732060648201526b696e2041756374696f6e563160a01b608482015260a40161076a565b60016010541115611a4257600f600060016010546119bb9190613302565b815260200190815260200160002060040160029054906101000a900460ff1615156001151514611a425760405162461bcd60e51b815260206004820152602c60248201527f46696e697368206c61737420726f756e642066697273742062792073656c656360448201526b74696e672077696e6e65727360a01b606482015260840161076a565b600060035460155410611a8557611a7e611a75611a6c601654601554612b4890919063ffffffff16565b60175490612b5b565b60045490612b67565b9050611ad5565b6000611aad611a6c601654611aa7601554601654612b7390919063ffffffff16565b90612b48565b9050806004541115611acd57600454611ac69082612b73565b9150611ad3565b60145491505b505b6004819055600060158190556003839055601683905560188054849290611afd908490613302565b90915550506010546000818152600f60205260408120918255600180830186905560028301859055600383019190915560048201805462ffffff191682179055611b46906114e3565b60105460408051868152602081018690529081018490527f8b231eec1e6f586775a8182be925c9ec40bf8f8352131c894be81a0b6639c8b09060600160405180910390a260108054906000611b9a83613352565b919050555050505050565b6013546001600160a01b03163314611bef5760405162461bcd60e51b815260206004820152600d60248201526c37b7363c9037b832b930ba37b960991b604482015260640161076a565b6000611bfd82840184613393565b91505060008082806020019051810190611c179190613441565b9150915060008585604051611c2d9291906134c4565b604051809103902090506000600e60008581526020019081526020016000205482149050600d8481548110611c6457611c646132b9565b90600052602060002090602091828204019190069054906101000a900460ff16611cd05760405162461bcd60e51b815260206004820152601c60248201527f726571756573742066756c66696c6c6564206f72206d697373696e6700000000604482015260640161076a565b8015611d755760408051602081018a905230918101919091524660608201526080810185905260a0016040516020818303038152906040528051906020012060001c9750611d1f888585612b7f565b6000600d8581548110611d3457611d346132b9565b90600052602060002090602091828204019190066101000a81548160ff021916908315150217905550600e6000858152602001908152602001600020600090555b5050505050505050565b611d8a6105d26124cd565b15611dd05760405162461bcd60e51b815260206004820152601660248201527515da5b9b995c9cc818d85b9b9bdd0819195c1bdcda5d60521b604482015260640161076a565b600c546001600160a01b0316611e285760405162461bcd60e51b815260206004820152601d60248201527f5553444320636f6e74726163742061646472657373206e6f7420736574000000604482015260640161076a565b600454811015611e725760405162461bcd60e51b8152602060048201526015602482015274139bdd08195b9bdd59da08199d5b991cc81cd95b9d605a1b604482015260640161076a565b600c5481906001600160a01b031663dd62ed3e611e8d6124cd565b6040516001600160e01b031960e084901b1681526001600160a01b039091166004820152306024820152604401602060405180830381865afa158015611ed7573d6000803e3d6000fd5b505050506040513d601f19601f82011682018060405250810190611efb91906134d4565b1015611f425760405162461bcd60e51b8152602060048201526016602482015275496e73756666696369656e7420616c6c6f77616e636560501b604482015260640161076a565b600f60006001601054611f559190613302565b8152602081019190915260400160002060040154610100900460ff1615611fd05760405162461bcd60e51b815260206004820152602960248201527f596f752063616e2774206465706f73697420616674657220726f756e6420697360448201526808199a5b9a5cda195960ba1b606482015260840161076a565b600c546001600160a01b03166323b872dd611fe96124cd565b6040516001600160e01b031960e084901b1681526001600160a01b039091166004820152306024820152604481018490526064016020604051808303816000875af115801561203c573d6000803e3d6000fd5b505050506040513d601f19601f8201168201806040525081019061206091906132cf565b506007600061206d6124cd565b6001600160a01b03166001600160a01b03168152602001908152602001600020546000036120f457600f600060016010546120a89190613302565b81526020019081526020016000206006016120c16124cd565b81546001810183556000928352602090922090910180546001600160a01b0319166001600160a01b039092169190911790555b80600f600060016010546121089190613302565b815260200190815260200160002060050160006121236124cd565b6001600160a01b03166001600160a01b031681526020019081526020016000206000828254612152919061333f565b9091555050600454811061217957600160156000828254612173919061333f565b90915550505b806121826124cd565b6001600160a01b03167f21040858e63c11c046482f61f290bbe25972fc74b11b4570a01f9241082d21f160405160405180910390a350565b606060098054806020026020016040519081016040528092919081815260200182805480156114d9576020028201919060005260206000209081546001600160a01b031681526001909101906020018083116114bb575050505050905090565b6000600f6000600160105461222f9190613302565b81526020019081526020016000206005016000836001600160a01b03166001600160a01b03168152602001908152602001600020549050919050565b6002546001600160a01b031661227f6124cd565b6001600160a01b0316146122a55760405162461bcd60e51b815260040161076a90613277565b600280546001600160a01b0319166001600160a01b0392909216919091179055565b6122cf612a9a565b6001600160a01b0381166122f957604051631e4fbdf760e01b81526000600482015260240161076a565b610a6981612af8565b6000818152600f602090815260408083206001600160a01b03861684526005019091529020545b92915050565b6002546001600160a01b03166123436124cd565b6001600160a01b0316146123695760405162461bcd60e51b815260040161076a90613277565b6001601054116123af5760405162461bcd60e51b815260206004820152601160248201527014d95d1d5c08199a5c9cdd081c9bdd5b99607a1b604482015260640161076a565b42600f600060016010546123c39190613302565b815260200190815260200160002060010154111561241c5760405162461bcd60e51b8152602060048201526016602482015275149bdd5b99081a5cc81b9bdd08195b991959081e595d60521b604482015260640161076a565b6001600f600060016010546124319190613302565b815260200190815260200160002060040160016101000a81548160ff02191690831515021790555061248d6124646124cd565b604080516001600160a01b03909216602083015201604051602081830303815290604052612c03565b506124966124cd565b6001600160a01b03167fd802e7c7f1646e3318c03abed1e468bdf913f45331a68dc912a0d645eb646a4260405160405180910390a2565b60006124d7612d06565b905090565b6001600160a01b038116600081815260086020526040808220805460ff1916600190811790915560098054918201815583527f6e1540171b6c0c960b71a7020d9f60077f6af931a8bbf590da0223dacf75c7af0180546001600160a01b03191684179055517f1d4c260f1824cd028e6c9e6e31c3a0b94f2513e7a641113ec759d382f9bdd5a19190a250565b6002546001600160a01b031661257c6124cd565b6001600160a01b0316146125a25760405162461bcd60e51b815260040161076a90613277565b6001600f600060016010546125b79190613302565b81526020810191909152604001600020600401805462ff0000191662010000831515021790556126415760405162461bcd60e51b815260206004820152602f60248201527f57696e6e6572732077657265206e6f742073656c656374656420666f7220746860448201526e194818dd5c9c995b9d081c9bdd5b99608a1b606482015260840161076a565b6000600f600060016010546126569190613302565b815260200190815260200160002060060180549050905060008167ffffffffffffffff81111561268857612688613009565b6040519080825280602002602001820160405280156126b1578160200160208202803683370190505b50905060005b8281101561274457600f600060016010546126d29190613302565b815260200190815260200160002060060181815481106126f4576126f46132b9565b9060005260206000200160009054906101000a90046001600160a01b0316828281518110612724576127246132b9565b6001600160a01b03909216602092830291909101909101526001016126b7565b5060005b82811015612a1b576000828281518110612764576127646132b9565b602002602001015190506000600f600060016010546127839190613302565b8152602080820192909252604090810160009081206001600160a01b03861682526005018352818120546008909352205490915060ff161561295b5760045481106128b7576000600454826127d89190613302565b905080156128b55780600f600060016010546127f49190613302565b81526020019081526020016000206005016000856001600160a01b03166001600160a01b0316815260200190815260200160002060008282546128379190613302565b9091555050600c5460405163a9059cbb60e01b81526001600160a01b038581166004830152602482018490529091169063a9059cbb906044016020604051808303816000875af115801561288f573d6000803e3d6000fd5b505050506040513d601f19601f820116820180604052508101906128b391906132cf565b505b505b600f600060016010546128ca9190613302565b81526020019081526020016000206005016000836001600160a01b03166001600160a01b031681526020019081526020016000205460056000828254612910919061333f565b925050819055506000600f6000600160105461292c9190613302565b8152602080820192909252604090810160009081206001600160a01b0387168252600501909252902055612a11565b6000600f600060016010546129709190613302565b8152602080820192909252604090810160009081206001600160a01b0387811680845260059092019094529082902093909355600c54905163a9059cbb60e01b8152600481019390935260248301849052169063a9059cbb906044016020604051808303816000875af11580156129eb573d6000803e3d6000fd5b505050506040513d601f19601f82011682018060405250810190612a0f91906132cf565b505b5050600101612748565b50612a24612d4a565b600f60006001601054612a379190613302565b81526020019081526020016000206006016000612a549190612f09565b6001601054612a639190613302565b6040518381527f317089864e65885a61555a7fee05445baa7fc2159860ee96c70abda1d51d55df9060200160405180910390a25050565b612aa26124cd565b6001600160a01b0316612abd6000546001600160a01b031690565b6001600160a01b03161461155c57612ad36124cd565b60405163118cdaa760e01b81526001600160a01b03909116600482015260240161076a565b600080546001600160a01b038381166001600160a01b0319831681178455604051919092169283917f8be0079c531659141344cd1fd0a4f28419497f9722a3daafe3b4186f6b6457e09190a35050565b6000612b5482846134ed565b9392505050565b6000612b548284613501565b6000612b54828461333f565b6000612b548284613302565b82600f60006001601054612b939190613302565b81526020019081526020016000206003018190555080806020019051810190612bbc9190613518565b6001600160a01b03167fe85d009f8a44a1484b05949bc6ffe0c555696e50510d74dc5d4588d9c0812a0184604051612bf691815260200190565b60405180910390a2505050565b600d8054600180820180845560008490529192909183908110612c2857612c286132b9565b90600052602060002090602091828204019190066101000a81548160ff02191690831515021790555060008183604051602001612c66929190613535565b60405160208183030381529060405290506000612c81612eb2565b905060008183604051602001612c98929190613535565b60408051601f1981840301815282825280516020808301919091206000898152600e9092529290208290559250907fd91fc3685b930310b008ec37d2334870cab88a023ed8cc628a2e2ccd4e55d20290612cf59085908790613535565b60405180910390a150505050919050565b60007f00000000000000000000000000000000000000000000000000000000000000006001600160a01b03163303612d45575060131936013560601c90565b503390565b6002546001600160a01b0316612d5e6124cd565b6001600160a01b031614612d845760405162461bcd60e51b815260040161076a90613277565b600060646005546005612d979190613501565b612da191906134ed565b9050600081600554612db39190613302565b6000600555600c5460015460405163a9059cbb60e01b81526001600160a01b03918216600482015260248101869052929350169063a9059cbb906044016020604051808303816000875af1158015612e0f573d6000803e3d6000fd5b505050506040513d601f19601f82011682018060405250810190612e3391906132cf565b50600c5460025460405163a9059cbb60e01b81526001600160a01b0391821660048201526024810184905291169063a9059cbb906044016020604051808303816000875af1158015612e89573d6000803e3d6000fd5b505050506040513d601f19601f82011682018060405250810190612ead91906132cf565b505050565b600080612ec36364e6212742613302565b90506000612ed26003836134ed565b612edd90600161333f565b905046600114612ef757612ef281600161333f565b612f02565b612f0281600461333f565b9250505090565b5080546000825590600052602060002090810190610a6991905b80821115612f375760008155600101612f23565b5090565b600060208284031215612f4d57600080fd5b5035919050565b6001600160a01b0381168114610a6957600080fd5b8035612f7481612f54565b919050565b600060208284031215612f8b57600080fd5b8135612b5481612f54565b60008060408385031215612fa957600080fd5b8235612fb481612f54565b946020939093013593505050565b8015158114610a6957600080fd5b60008060408385031215612fe357600080fd5b8235612fee81612f54565b91506020830135612ffe81612fc2565b809150509250929050565b634e487b7160e01b600052604160045260246000fd5b604051610140810167ffffffffffffffff8111828210171561304357613043613009565b60405290565b604051601f8201601f1916810167ffffffffffffffff8111828210171561307257613072613009565b604052919050565b6000610140828403121561308d57600080fd5b61309561301f565b61309e83612f69565b81526130ac60208401612f69565b60208201526130bd60408401612f69565b6040820152606083013560608201526080830135608082015260a083013560a08201526130ec60c08401612f69565b60c08201526130fd60e08401612f69565b60e0820152610100613110818501612f69565b90820152610120613122848201612f69565b908201529392505050565b6020808252825182820181905260009190848201906040850190845b8181101561316e5783516001600160a01b031683529284019291840191600101613149565b50909695505050505050565b60006020828403121561318c57600080fd5b813560038110612b5457600080fd5b634e487b7160e01b600052602160045260246000fd5b60208101600383106131d357634e487b7160e01b600052602160045260246000fd5b91905290565b600080604083850312156131ec57600080fd5b50508035926020909101359150565b60008060006040848603121561321057600080fd5b83359250602084013567ffffffffffffffff8082111561322f57600080fd5b818601915086601f83011261324357600080fd5b81358181111561325257600080fd5b87602082850101111561326457600080fd5b6020830194508093505050509250925092565b60208082526022908201527f4f6e6c792073656c6c65722063616e2063616c6c20746869732066756e63746960408201526137b760f11b606082015260800190565b634e487b7160e01b600052603260045260246000fd5b6000602082840312156132e157600080fd5b8151612b5481612fc2565b634e487b7160e01b600052601160045260246000fd5b81810381811115612329576123296132ec565b634e487b7160e01b600052601260045260246000fd5b60008261333a5761333a613315565b500690565b80820180821115612329576123296132ec565b600060018201613364576133646132ec565b5060010190565b600067ffffffffffffffff82111561338557613385613009565b50601f01601f191660200190565b600080604083850312156133a657600080fd5b82359150602083013567ffffffffffffffff8111156133c457600080fd5b8301601f810185136133d557600080fd5b80356133e86133e38261336b565b613049565b8181528660208385010111156133fd57600080fd5b816020840160208301376000602083830101528093505050509250929050565b60005b83811015613438578181015183820152602001613420565b50506000910152565b6000806040838503121561345457600080fd5b82519150602083015167ffffffffffffffff81111561347257600080fd5b8301601f8101851361348357600080fd5b80516134916133e38261336b565b8181528660208385010111156134a657600080fd5b6134b782602083016020860161341d565b8093505050509250929050565b8183823760009101908152919050565b6000602082840312156134e657600080fd5b5051919050565b6000826134fc576134fc613315565b500490565b8082028115828204841417612329576123296132ec565b60006020828403121561352a57600080fd5b8151612b5481612f54565b828152604060208201526000825180604084015261355a81606085016020870161341d565b601f01601f191691909101606001939250505056fea264697066735822122063e48f87992240afa08f8ecfbde7c09df5c23723f221a4a786c27ee7fabb7fae64736f6c63430008190033","linkReferences":{}},"methodIdentifiers":{"buyerWithdraw()":"7cc947d0","changeLotteryState(uint8)":"683e93e1","deposit(uint256)":"b6b55f25","deposits(address)":"fc7e286d","endLottery()":"1593a8c7","fulfillRandomness(uint256,bytes)":"b3f6b99a","getDepositedAmount(address)":"e9081ec7","getDepositedAmountForRound(address,uint256)":"f56542d6","getParticipants()":"5aa68ac0","getParticipantsForRound(uint256)":"80d58442","getWinners()":"df15c37e","hasMinted(address)":"38e21cce","increasePriceStep()":"96efac7b","initialPrice()":"1d0806ae","initialize((address,address,address,uint256,uint256,uint256,address,address,address,address))":"56d7c73a","isTrustedForwarder(address)":"572b6c05","isWinner(address)":"9d9ca28d","lotteryState()":"6939864b","lotteryV2Addr()":"7de13382","mintMyNFT()":"26170480","multisigWalletAddress()":"a61fb2ba","nftContractAddr()":"2c23ec8e","numberOfTickets()":"45745c10","operatorAddr()":"f3f18c37","operators(address)":"13e7c9d8","owner()":"8da5cb5b","prevRoundDeposits()":"b680e44b","prevRoundTicketsAmount()":"224f91bd","renounceOwnership()":"715018a6","requestPending(uint256)":"75ce7fff","requestRandomness()":"f8413b07","requestedHash(uint256)":"c4f8f27b","roundCounter()":"febc14b1","rounds(uint256)":"8c65c81f","selectWinners()":"1a0de74c","seller()":"08551a53","setOperator(address,bool)":"558a7297","setSeller(address)":"e99d2866","setupNewRound(uint256,uint256)":"a4f03c02","startLottery()":"160344e2","ticketPrice()":"1209b1f6","totalAmountForSeller()":"da59a0dd","totalNumberOfTickets()":"00746702","transferDeposit(address,uint256)":"50f3dbec","transferNonWinnerBids(address)":"1630a8df","transferOwnership(address)":"f2fde38b","usdcContractAddr()":"99dbf4b5","winnerAddresses(uint256)":"045f9c97","winners(address)":"6bd5450a"},"id":51}