{"abi":[{"type":"function","name":"buyerWithdraw","inputs":[],"outputs":[],"stateMutability":"nonpayable"},{"type":"function","name":"changeLotteryState","inputs":[{"name":"_newState","type":"uint8","internalType":"enum AuctionV1Base.LotteryState"}],"outputs":[],"stateMutability":"nonpayable"},{"type":"function","name":"currentPrice","inputs":[],"outputs":[{"name":"","type":"uint256","internalType":"uint256"}],"stateMutability":"view"},{"type":"function","name":"deposit","inputs":[{"name":"amount","type":"uint256","internalType":"uint256"}],"outputs":[],"stateMutability":"payable"},{"type":"function","name":"deposits","inputs":[{"name":"","type":"address","internalType":"address"}],"outputs":[{"name":"","type":"uint256","internalType":"uint256"}],"stateMutability":"view"},{"type":"function","name":"eligibleParticipants","inputs":[{"name":"","type":"uint256","internalType":"uint256"}],"outputs":[{"name":"","type":"address","internalType":"address"}],"stateMutability":"view"},{"type":"function","name":"endLottery","inputs":[],"outputs":[],"stateMutability":"nonpayable"},{"type":"function","name":"fulfillRandomness","inputs":[{"name":"randomness","type":"uint256","internalType":"uint256"},{"name":"dataWithRound","type":"bytes","internalType":"bytes"}],"outputs":[],"stateMutability":"nonpayable"},{"type":"function","name":"getDepositedAmount","inputs":[{"name":"participant","type":"address","internalType":"address"}],"outputs":[{"name":"","type":"uint256","internalType":"uint256"}],"stateMutability":"view"},{"type":"function","name":"getEligibleParticipants","inputs":[],"outputs":[{"name":"","type":"address[]","internalType":"address[]"}],"stateMutability":"view"},{"type":"function","name":"getParticipants","inputs":[],"outputs":[{"name":"","type":"address[]","internalType":"address[]"}],"stateMutability":"view"},{"type":"function","name":"getRandomNumber","inputs":[],"outputs":[{"name":"","type":"uint256","internalType":"uint256"}],"stateMutability":"view"},{"type":"function","name":"getWinners","inputs":[],"outputs":[{"name":"","type":"address[]","internalType":"address[]"}],"stateMutability":"view"},{"type":"function","name":"hasMinted","inputs":[{"name":"","type":"address","internalType":"address"}],"outputs":[{"name":"","type":"bool","internalType":"bool"}],"stateMutability":"view"},{"type":"function","name":"increasePriceStep","inputs":[],"outputs":[{"name":"","type":"uint256","internalType":"uint256"}],"stateMutability":"view"},{"type":"function","name":"initialPrice","inputs":[],"outputs":[{"name":"","type":"uint256","internalType":"uint256"}],"stateMutability":"view"},{"type":"function","name":"initialize","inputs":[{"name":"config","type":"tuple","internalType":"struct StructsLibrary.ILotteryBaseConfig","components":[{"name":"_seller","type":"address","internalType":"address"},{"name":"_gelatoVrfOperator","type":"address","internalType":"address"},{"name":"_blessedOperator","type":"address","internalType":"address"},{"name":"_owner","type":"address","internalType":"address"},{"name":"_ticketAmount","type":"uint256","internalType":"uint256"},{"name":"_ticketPrice","type":"uint256","internalType":"uint256"},{"name":"_usdcContractAddr","type":"address","internalType":"address"},{"name":"_multisigWalletAddress","type":"address","internalType":"address"},{"name":"_prevPhaseContractAddr","type":"address","internalType":"address"}]}],"outputs":[],"stateMutability":"nonpayable"},{"type":"function","name":"initialized","inputs":[],"outputs":[{"name":"","type":"bool","internalType":"bool"}],"stateMutability":"view"},{"type":"function","name":"isParticipantEligible","inputs":[{"name":"participant","type":"address","internalType":"address"}],"outputs":[{"name":"","type":"bool","internalType":"bool"}],"stateMutability":"view"},{"type":"function","name":"isTrustedForwarder","inputs":[{"name":"forwarder","type":"address","internalType":"address"}],"outputs":[{"name":"","type":"bool","internalType":"bool"}],"stateMutability":"view"},{"type":"function","name":"isWinner","inputs":[{"name":"_participant","type":"address","internalType":"address"}],"outputs":[{"name":"","type":"bool","internalType":"bool"}],"stateMutability":"view"},{"type":"function","name":"lotteryState","inputs":[],"outputs":[{"name":"","type":"uint8","internalType":"enum AuctionV1Base.LotteryState"}],"stateMutability":"view"},{"type":"function","name":"lotteryV2Addr","inputs":[],"outputs":[{"name":"","type":"address","internalType":"address"}],"stateMutability":"view"},{"type":"function","name":"minimumDepositAmount","inputs":[],"outputs":[{"name":"","type":"uint256","internalType":"uint256"}],"stateMutability":"view"},{"type":"function","name":"mintMyNFT","inputs":[],"outputs":[],"stateMutability":"nonpayable"},{"type":"function","name":"multisigWalletAddress","inputs":[],"outputs":[{"name":"","type":"address","internalType":"address"}],"stateMutability":"view"},{"type":"function","name":"nftContractAddr","inputs":[],"outputs":[{"name":"","type":"address","internalType":"address"}],"stateMutability":"view"},{"type":"function","name":"numberOfTickets","inputs":[],"outputs":[{"name":"","type":"uint256","internalType":"uint256"}],"stateMutability":"view"},{"type":"function","name":"operatorAddr","inputs":[],"outputs":[{"name":"","type":"address","internalType":"address"}],"stateMutability":"view"},{"type":"function","name":"operators","inputs":[{"name":"","type":"address","internalType":"address"}],"outputs":[{"name":"","type":"bool","internalType":"bool"}],"stateMutability":"view"},{"type":"function","name":"owner","inputs":[],"outputs":[{"name":"","type":"address","internalType":"address"}],"stateMutability":"view"},{"type":"function","name":"prevRoundDeposits","inputs":[],"outputs":[{"name":"","type":"uint256","internalType":"uint256"}],"stateMutability":"view"},{"type":"function","name":"prevRoundTicketsAmount","inputs":[],"outputs":[{"name":"","type":"uint256","internalType":"uint256"}],"stateMutability":"view"},{"type":"function","name":"randomNumber","inputs":[],"outputs":[{"name":"","type":"uint256","internalType":"uint256"}],"stateMutability":"view"},{"type":"function","name":"renounceOwnership","inputs":[],"outputs":[],"stateMutability":"nonpayable"},{"type":"function","name":"requestPending","inputs":[{"name":"","type":"uint256","internalType":"uint256"}],"outputs":[{"name":"","type":"bool","internalType":"bool"}],"stateMutability":"view"},{"type":"function","name":"requestRandomness","inputs":[],"outputs":[],"stateMutability":"nonpayable"},{"type":"function","name":"requestedHash","inputs":[{"name":"","type":"uint256","internalType":"uint256"}],"outputs":[{"name":"","type":"bytes32","internalType":"bytes32"}],"stateMutability":"view"},{"type":"function","name":"roundCounter","inputs":[],"outputs":[{"name":"","type":"uint256","internalType":"uint256"}],"stateMutability":"view"},{"type":"function","name":"rounds","inputs":[{"name":"","type":"uint256","internalType":"uint256"}],"outputs":[{"name":"number","type":"uint256","internalType":"uint256"},{"name":"finishAt","type":"uint256","internalType":"uint256"},{"name":"numberOfTickets","type":"uint256","internalType":"uint256"},{"name":"lotteryStarted","type":"bool","internalType":"bool"},{"name":"winnersSelected","type":"bool","internalType":"bool"}],"stateMutability":"view"},{"type":"function","name":"selectWinners","inputs":[],"outputs":[],"stateMutability":"nonpayable"},{"type":"function","name":"seller","inputs":[],"outputs":[{"name":"","type":"address","internalType":"address"}],"stateMutability":"view"},{"type":"function","name":"sellerWithdraw","inputs":[],"outputs":[],"stateMutability":"nonpayable"},{"type":"function","name":"setCurrentPrice","inputs":[{"name":"_amount","type":"uint256","internalType":"uint256"}],"outputs":[],"stateMutability":"nonpayable"},{"type":"function","name":"setLotteryV2Addr","inputs":[{"name":"_lotteryV2Addr","type":"address","internalType":"address"}],"outputs":[],"stateMutability":"nonpayable"},{"type":"function","name":"setMultisigWalletAddress","inputs":[{"name":"_multisigWalletAddress","type":"address","internalType":"address"}],"outputs":[],"stateMutability":"nonpayable"},{"type":"function","name":"setNftContractAddr","inputs":[{"name":"_nftContractAddr","type":"address","internalType":"address"}],"outputs":[],"stateMutability":"nonpayable"},{"type":"function","name":"setNumberOfTickets","inputs":[{"name":"_numberOfTickets","type":"uint256","internalType":"uint256"}],"outputs":[],"stateMutability":"nonpayable"},{"type":"function","name":"setOperator","inputs":[{"name":"_operatorAddr","type":"address","internalType":"address"},{"name":"_flag","type":"bool","internalType":"bool"}],"outputs":[],"stateMutability":"nonpayable"},{"type":"function","name":"setPriceStep","inputs":[{"name":"_increasePriceStep","type":"uint256","internalType":"uint256"}],"outputs":[],"stateMutability":"nonpayable"},{"type":"function","name":"setSeller","inputs":[{"name":"_seller","type":"address","internalType":"address"}],"outputs":[],"stateMutability":"nonpayable"},{"type":"function","name":"setUsdcContractAddr","inputs":[{"name":"_usdcContractAddr","type":"address","internalType":"address"}],"outputs":[],"stateMutability":"nonpayable"},{"type":"function","name":"setWinner","inputs":[{"name":"_winner","type":"address","internalType":"address"}],"outputs":[],"stateMutability":"nonpayable"},{"type":"function","name":"setupNewRound","inputs":[{"name":"_finishAt","type":"uint256","internalType":"uint256"},{"name":"_numberOfTickets","type":"uint256","internalType":"uint256"}],"outputs":[],"stateMutability":"nonpayable"},{"type":"function","name":"startLottery","inputs":[],"outputs":[],"stateMutability":"nonpayable"},{"type":"function","name":"totalNumberOfTickets","inputs":[],"outputs":[{"name":"","type":"uint256","internalType":"uint256"}],"stateMutability":"view"},{"type":"function","name":"transferDeposit","inputs":[{"name":"_participant","type":"address","internalType":"address"},{"name":"_amount","type":"uint256","internalType":"uint256"}],"outputs":[],"stateMutability":"nonpayable"},{"type":"function","name":"transferNonWinnerBids","inputs":[{"name":"destinationAddr","type":"address","internalType":"address"}],"outputs":[],"stateMutability":"nonpayable"},{"type":"function","name":"transferOwnership","inputs":[{"name":"newOwner","type":"address","internalType":"address"}],"outputs":[],"stateMutability":"nonpayable"},{"type":"function","name":"usdcContractAddr","inputs":[],"outputs":[{"name":"","type":"address","internalType":"address"}],"stateMutability":"view"},{"type":"function","name":"winnerAddresses","inputs":[{"name":"","type":"uint256","internalType":"uint256"}],"outputs":[{"name":"","type":"address","internalType":"address"}],"stateMutability":"view"},{"type":"function","name":"winners","inputs":[{"name":"","type":"address","internalType":"address"}],"outputs":[{"name":"","type":"bool","internalType":"bool"}],"stateMutability":"view"},{"type":"event","name":"LotteryEnded","inputs":[],"anonymous":false},{"type":"event","name":"LotteryStarted","inputs":[],"anonymous":false},{"type":"event","name":"OwnershipTransferred","inputs":[{"name":"previousOwner","type":"address","indexed":true,"internalType":"address"},{"name":"newOwner","type":"address","indexed":true,"internalType":"address"}],"anonymous":false},{"type":"event","name":"RandomFullfiled","inputs":[{"name":"number","type":"uint256","indexed":false,"internalType":"uint256"}],"anonymous":false},{"type":"event","name":"RandomRequested","inputs":[{"name":"requester","type":"address","indexed":true,"internalType":"address"}],"anonymous":false},{"type":"event","name":"RequestedRandomness","inputs":[{"name":"round","type":"uint256","indexed":false,"internalType":"uint256"},{"name":"data","type":"bytes","indexed":false,"internalType":"bytes"}],"anonymous":false},{"type":"event","name":"WinnerSelected","inputs":[{"name":"winner","type":"address","indexed":true,"internalType":"address"}],"anonymous":false},{"type":"error","name":"OwnableInvalidOwner","inputs":[{"name":"owner","type":"address","internalType":"address"}]},{"type":"error","name":"OwnableUnauthorizedAccount","inputs":[{"name":"account","type":"address","internalType":"address"}]}],"bytecode":{"object":"0x60a06040526002805460ff60a01b1916905560016009819055600a556005600b5534801561002c57600080fd5b5073d8253782c45a12053594b9deb72d8e8ab2fca54c338061006857604051631e4fbdf760e01b81526000600482015260240160405180910390fd5b61007181610083565b506001600160a01b03166080526100d5565b600280546001600160a01b038381166001600160a01b0319831681179093556040519116919082907f8be0079c531659141344cd1fd0a4f28419497f9722a3daafe3b4186f6b6457e090600090a35050565b6080516134ec6100f76000396000818161066e0152612dcd01526134ec6000f3fe6080604052600436106103ac5760003560e01c80637de13382116101e7578063b680e44b1161010d578063df15c37e116100a0578063f3f18c371161006f578063f3f18c3714610b5b578063f8413b0714610b7b578063fc7e286d14610b90578063febc14b114610bbd57600080fd5b8063df15c37e14610ad0578063e9081ec714610ae5578063e99d286614610b1b578063f2fde38b14610b3b57600080fd5b8063ccbac9f5116100dc578063ccbac9f514610a65578063cf54d3b814610a7b578063d9fca76914610a9b578063dbdff2c114610abb57600080fd5b8063b680e44b146109ef578063b6b55f2514610a05578063b7a62e2414610a18578063c4f8f27b14610a3857600080fd5b806399dbf4b511610185578063a4f03c0211610154578063a4f03c021461096f578063a61fb2ba1461098f578063af94862c146109af578063b3f6b99a146109cf57600080fd5b806399dbf4b5146108eb5780639abdccd11461090b5780639d1b464a146109205780639d9ca28d1461093657600080fd5b80638da5cb5b116101c15780638da5cb5b1461087757806394d898de1461089557806396efac7b146108b557806399bd69d6146108cb57600080fd5b80637de13382146107bd5780638a6723e6146107dd5780638c65c81f146107fd57600080fd5b80633639eb2e116102d757806360d50da31161026a5780636bd5450a116102395780636bd5450a14610743578063715018a61461077357806375ce7fff146107885780637cc947d0146107a857600080fd5b806360d50da3146106c057806366af746b146106e0578063683e93e1146106f55780636939864b1461071557600080fd5b806350f3dbec116102a657806350f3dbec14610611578063558a729714610631578063572b6c05146106515780635aa68ac01461069e57600080fd5b80633639eb2e1461058b5780633644c27c146105ab57806338e21cce146105cb57806345745c10146105fb57600080fd5b8063160344e21161034f5780631d0806ae1161031e5780631d0806ae1461052a578063224f91bd1461054057806326170480146105565780632c23ec8e1461056b57600080fd5b8063160344e2146104c05780631630a8df146104d557806318b20071146104f55780631a0de74c1461051557600080fd5b806308551a531161038b57806308551a531461042857806313e7c9d814610448578063158ef93e146104885780631593a8c7146104a957600080fd5b8062746702146103b1578063045f9c97146103da578063080c279a14610412575b600080fd5b3480156103bd57600080fd5b506103c7600d5481565b6040519081526020015b60405180910390f35b3480156103e657600080fd5b506103fa6103f5366004612e96565b610bd3565b6040516001600160a01b0390911681526020016103d1565b34801561041e57600080fd5b506103c760065481565b34801561043457600080fd5b506004546103fa906001600160a01b031681565b34801561045457600080fd5b50610478610463366004612ecb565b60156020526000908152604090205460ff1681565b60405190151581526020016103d1565b34801561049457600080fd5b5060025461047890600160a01b900460ff1681565b3480156104b557600080fd5b506104be610bfd565b005b3480156104cc57600080fd5b506104be610c4c565b3480156104e157600080fd5b506104be6104f0366004612ecb565b610d4d565b34801561050157600080fd5b506104be610510366004612e96565b610fea565b34801561052157600080fd5b506104be611039565b34801561053657600080fd5b506103c760085481565b34801561054c57600080fd5b506103c7600a5481565b34801561056257600080fd5b506104be6114ca565b34801561057757600080fd5b506018546103fa906001600160a01b031681565b34801561059757600080fd5b506104be6105a6366004612ecb565b61162f565b3480156105b757600080fd5b506104be6105c6366004612ecb565b61168b565b3480156105d757600080fd5b506104786105e6366004612ecb565b60106020526000908152604090205460ff1681565b34801561060757600080fd5b506103c7600c5481565b34801561061d57600080fd5b506104be61062c366004612eed565b6116b5565b34801561063d57600080fd5b506104be61064c366004612f25565b6117f5565b34801561065d57600080fd5b5061047861066c366004612ecb565b7f00000000000000000000000000000000000000000000000000000000000000006001600160a01b0390811691161490565b3480156106aa57600080fd5b506106b3611828565b6040516103d19190612f5c565b3480156106cc57600080fd5b506104be6106db366004612ecb565b61188a565b3480156106ec57600080fd5b506104be6118b4565b34801561070157600080fd5b506104be610710366004612fa9565b611aee565b34801561072157600080fd5b5060025461073690600160a81b900460ff1681565b6040516103d19190612fe0565b34801561074f57600080fd5b5061047861075e366004612ecb565b60146020526000908152604090205460ff1681565b34801561077f57600080fd5b506104be611b55565b34801561079457600080fd5b506104786107a3366004612e96565b611b67565b3480156107b457600080fd5b506104be611b9b565b3480156107c957600080fd5b50601a546103fa906001600160a01b031681565b3480156107e957600080fd5b506104786107f8366004612ecb565b611da5565b34801561080957600080fd5b5061084b610818366004612e96565b60116020526000908152604090208054600182015460028301546003909301549192909160ff8082169161010090041685565b60408051958652602086019490945292840191909152151560608301521515608082015260a0016103d1565b34801561088357600080fd5b506002546001600160a01b03166103fa565b3480156108a157600080fd5b506104be6108b0366004612ecb565b611e04565b3480156108c157600080fd5b506103c7600b5481565b3480156108d757600080fd5b506104be6108e6366004612e96565b611e2e565b3480156108f757600080fd5b506019546103fa906001600160a01b031681565b34801561091757600080fd5b506106b3611ed6565b34801561092c57600080fd5b506103c760075481565b34801561094257600080fd5b50610478610951366004612ecb565b6001600160a01b031660009081526014602052604090205460ff1690565b34801561097b57600080fd5b506104be61098a366004613008565b611f36565b34801561099b57600080fd5b506003546103fa906001600160a01b031681565b3480156109bb57600080fd5b506104be6109ca366004612e96565b6121d8565b3480156109db57600080fd5b506104be6109ea36600461302a565b612217565b3480156109fb57600080fd5b506103c760095481565b6104be610a13366004612e96565b6123eb565b348015610a2457600080fd5b506103fa610a33366004612e96565b612704565b348015610a4457600080fd5b506103c7610a53366004612e96565b60016020526000908152604090205481565b348015610a7157600080fd5b506103c7600e5481565b348015610a8757600080fd5b506104be610a96366004613117565b612714565b348015610aa757600080fd5b506104be610ab6366004612ecb565b61282e565b348015610ac757600080fd5b506103c76128ce565b348015610adc57600080fd5b506106b3612925565b348015610af157600080fd5b506103c7610b00366004612ecb565b6001600160a01b031660009081526013602052604090205490565b348015610b2757600080fd5b506104be610b36366004612ecb565b612985565b348015610b4757600080fd5b506104be610b56366004612ecb565b6129e1565b348015610b6757600080fd5b506005546103fa906001600160a01b031681565b348015610b8757600080fd5b506104be612a1f565b348015610b9c57600080fd5b506103c7610bab366004612ecb565b60136020526000908152604090205481565b348015610bc957600080fd5b506103c760125481565b60168181548110610be357600080fd5b6000918252602090912001546001600160a01b0316905081565b6004546001600160a01b0316610c11612acd565b6001600160a01b031614610c405760405162461bcd60e51b8152600401610c37906131bf565b60405180910390fd5b610c4a6002611aee565b565b6004546001600160a01b0316610c60612acd565b6001600160a01b031614610c865760405162461bcd60e51b8152600401610c37906131bf565b6000600254600160a81b900460ff166004811115610ca657610ca6612fca565b1480610cce575060028054600160a81b900460ff166004811115610ccc57610ccc612fca565b145b610d1a5760405162461bcd60e51b815260206004820152601a60248201527f4c6f747465727920697320696e206163746976652073746174650000000000006044820152606401610c37565b610d246001611aee565b610d2c612adc565b6012546000908152601160205260409020600301805460ff19166001179055565b6004546001600160a01b0316610d61612acd565b6001600160a01b031614610d875760405162461bcd60e51b8152600401610c37906131bf565b60005b601754811015610fe65760006013600060178481548110610dad57610dad613201565b60009182526020808320909101546001600160a01b031683528201929092526040018120546017805491935060139183919086908110610def57610def613201565b6000918252602080832091909101546001600160a01b039081168452908301939093526040918201902092909255601954915163a9059cbb60e01b815285821660048201526024810184905291169063a9059cbb906044016020604051808303816000875af1158015610e66573d6000803e3d6000fd5b505050506040513d601f19601f82011682018060405250810190610e8a9190613217565b50826001600160a01b03166350f3dbec60178481548110610ead57610ead613201565b60009182526020909120015460405160e083901b6001600160e01b03191681526001600160a01b03909116600482015260248101849052604401600060405180830381600087803b158015610f0157600080fd5b505af1158015610f15573d6000803e3d6000fd5b5050601754610f2892506001915061324a565b821015610faa5760178054610f3f9060019061324a565b81548110610f4f57610f4f613201565b600091825260209091200154601780546001600160a01b039092169184908110610f7b57610f7b613201565b9060005260206000200160006101000a8154816001600160a01b0302191690836001600160a01b031602179055505b6017805480610fbb57610fbb613263565b600082815260209020810160001990810180546001600160a01b031916905501905550600101610d8a565b5050565b6004546001600160a01b0316610ffe612acd565b6001600160a01b0316146110245760405162461bcd60e51b8152600401610c37906131bf565b6008546000036110345760088190555b600755565b6004546001600160a01b031661104d612acd565b6001600160a01b0316146110735760405162461bcd60e51b8152600401610c37906131bf565b6000600c54116110c55760405162461bcd60e51b815260206004820152601b60248201527f4e6f207469636b657473206c65667420746f20616c6c6f6361746500000000006044820152606401610c37565b6002805460ff60a81b1916600160a81b1790556110e0612adc565b600f54600c54106111a85760005b600f54811015611191576000600f828154811061110d5761110d613201565b6000918252602090912001546001600160a01b03169050611146816001600160a01b031660009081526014602052604090205460ff1690565b611188576111538161282e565b6040516001600160a01b038216907f1d4c260f1824cd028e6c9e6e31c3a0b94f2513e7a641113ec759d382f9bdd5a190600090a25b506001016110ee565b5061119e600f6000612e64565b6000600c55611449565b60005b600f548110156112c357600f546000906111c690839061324a565b600e546111d3919061328f565b6111dd90836132a3565b90506000600f82815481106111f4576111f4613201565b600091825260209091200154600f80546001600160a01b039092169250908490811061122257611222613201565b600091825260209091200154600f80546001600160a01b03909216918490811061124e5761124e613201565b9060005260206000200160006101000a8154816001600160a01b0302191690836001600160a01b0316021790555080600f848154811061129057611290613201565b600091825260209091200180546001600160a01b0319166001600160a01b039290921691909117905550506001016111ab565b5060005b600c5481101561136a576000600f82815481106112e6576112e6613201565b6000918252602090912001546001600160a01b0316905061131f816001600160a01b031660009081526014602052604090205460ff1690565b6113615761132c8161282e565b6040516001600160a01b038216907f1d4c260f1824cd028e6c9e6e31c3a0b94f2513e7a641113ec759d382f9bdd5a190600090a25b506001016112c7565b50600c546000905b600f548110156113f957600f818154811061138f5761138f613201565b600091825260209091200154600f80546001600160a01b0390921691849081106113bb576113bb613201565b600091825260209091200180546001600160a01b0319166001600160a01b0392909216919091179055816113ee816132b6565b925050600101611372565b50805b600f5481101561144157600f80548061141757611417613263565b600082815260209020810160001990810180546001600160a01b03191690550190556001016113fc565b50506000600c555b600d5460000361147d576040517f9c89a6ed7228533196a3f962acc80d61a9c53bdea6b910741bf754f5aaa7569e90600090a15b6001601160006001601254611492919061324a565b8152602081019190915260400160002060030180549115156101000261ff00199092169190911790556002805460ff60a81b19169055565b6114d5610951612acd565b61151a5760405162461bcd60e51b815260206004820152601660248201527521b0b63632b91034b9903737ba1030903bb4b73732b960511b6044820152606401610c37565b60106000611526612acd565b6001600160a01b0316815260208101919091526040016000205460ff16156115855760405162461bcd60e51b815260206004820152601260248201527113919508185b1c9958591e481b5a5b9d195960721b6044820152606401610c37565b6018546001600160a01b0316636b8f60f661159e612acd565b6040516001600160e01b031960e084901b1681526001600160a01b039091166004820152602401600060405180830381600087803b1580156115df57600080fd5b505af11580156115f3573d6000803e3d6000fd5b50505050600160106000611605612acd565b6001600160a01b031681526020810191909152604001600020805460ff1916911515919091179055565b6004546001600160a01b0316611643612acd565b6001600160a01b0316146116695760405162461bcd60e51b8152600401610c37906131bf565b601a80546001600160a01b0319166001600160a01b0392909216919091179055565b611693612bdb565b601880546001600160a01b0319166001600160a01b0392909216919091179055565b6116bd612acd565b601a546001600160a01b0390811691161461172a5760405162461bcd60e51b815260206004820152602760248201527f4f6e6c792077686974656c6973746564206d61792063616c6c207468697320666044820152663ab731ba34b7b760c91b6064820152608401610c37565b60136000611736612acd565b6001600160a01b03166001600160a01b03168152602001908152602001600020546000036117aa57601780546001810182556000919091527fc624b66cc0138b8fabc209247f72d758e1cf3343756d543badbf24212bed8c150180546001600160a01b0319166001600160a01b0384161790555b6001600160a01b038216600090815260136020526040812080548392906117d29084906132a3565b925050819055506001600960008282546117ec91906132a3565b90915550505050565b6117fd612bdb565b6001600160a01b03919091166000908152601560205260409020805460ff1916911515919091179055565b6060601780548060200260200160405190810160405280929190818152602001828054801561188057602002820191906000526020600020905b81546001600160a01b03168152600190910190602001808311611862575b5050505050905090565b611892612bdb565b600380546001600160a01b0319166001600160a01b0392909216919091179055565b6004546001600160a01b03166118c8612acd565b6001600160a01b0316146118ee5760405162461bcd60e51b8152600401610c37906131bf565b60028054600160a81b900460ff16600481111561190d5761190d612fca565b1461194e5760405162461bcd60e51b8152602060048201526011602482015270131bdd1d195c9e481b9bdd08195b991959607a1b6044820152606401610c37565b6000805b6016548110156119c75760006016828154811061197157611971613201565b60009182526020808320909101546001600160a01b031680835260139091526040909120549091506119a390846132a3565b6001600160a01b039091166000908152601360205260408120559150600101611952565b50600060646119d78360056132cf565b6119e191906132e6565b905060006119ef828461324a565b60195460035460405163a9059cbb60e01b81526001600160a01b03918216600482015260248101869052929350169063a9059cbb906044016020604051808303816000875af1158015611a46573d6000803e3d6000fd5b505050506040513d601f19601f82011682018060405250810190611a6a9190613217565b506019546004805460405163a9059cbb60e01b81526001600160a01b0391821692810192909252602482018490529091169063a9059cbb906044016020604051808303816000875af1158015611ac4573d6000803e3d6000fd5b505050506040513d601f19601f82011682018060405250810190611ae89190613217565b50505050565b6004546001600160a01b0316611b02612acd565b6001600160a01b031614611b285760405162461bcd60e51b8152600401610c37906131bf565b6002805482919060ff60a81b1916600160a81b836004811115611b4d57611b4d612fca565b021790555050565b611b5d612bdb565b610c4a6000612c39565b60008181548110611b7757600080fd5b9060005260206000209060209182820401919006915054906101000a900460ff1681565b6001600254600160a81b900460ff166004811115611bbb57611bbb612fca565b03611c085760405162461bcd60e51b815260206004820152601b60248201527f4c6f74746572792069732063757272656e746c792061637469766500000000006044820152606401610c37565b60146000611c14612acd565b6001600160a01b0316815260208101919091526040016000205460ff1615611c7e5760405162461bcd60e51b815260206004820152601760248201527f57696e6e6572732063616e6e6f742077697468647261770000000000000000006044820152606401610c37565b600060136000611c8c612acd565b6001600160a01b03166001600160a01b0316815260200190815260200160002054905060008111611cf65760405162461bcd60e51b81526020600482015260146024820152734e6f2066756e647320746f20776974686472617760601b6044820152606401610c37565b600060136000611d04612acd565b6001600160a01b0390811682526020820192909252604001600020919091556019541663a9059cbb611d34612acd565b6040516001600160e01b031960e084901b1681526001600160a01b039091166004820152602481018490526044016020604051808303816000875af1158015611d81573d6000803e3d6000fd5b505050506040513d601f19601f82011682018060405250810190610fe69190613217565b6000805b600f54811015611dfb57826001600160a01b0316600f8281548110611dd057611dd0613201565b6000918252602090912001546001600160a01b031603611df35750600192915050565b600101611da9565b50600092915050565b611e0c612bdb565b601980546001600160a01b0319166001600160a01b0392909216919091179055565b6004546001600160a01b0316611e42612acd565b6001600160a01b031614611e685760405162461bcd60e51b8152600401610c37906131bf565b60008111611ecc5760405162461bcd60e51b815260206004820152602b60248201527f4e756d626572206f66207469636b657473206d7573742062652067726561746560448201526a72207468616e207a65726f60a81b6064820152608401610c37565b600c819055600a55565b6060600f805480602002602001604051908101604052809291908181526020018280548015611880576020028201919060005260206000209081546001600160a01b03168152600190910190602001808311611862575050505050905090565b6004546001600160a01b0316611f4a612acd565b6001600160a01b03161480611f7957506002546001600160a01b0316611f6e612acd565b6001600160a01b0316145b80611fa9575060156000611f8b612acd565b6001600160a01b0316815260208101919091526040016000205460ff165b6120015760405162461bcd60e51b8152602060048201526024808201527f4f6e6c79206f70657261746f722063616e2063616c6c20746869732066756e636044820152633a34b7b760e11b6064820152608401610c37565b600d5481111561208e5760405162461bcd60e51b815260206004820152604c60248201527f5469636b6574732070657220726f756e642063616e6e6f74206265206869676860448201527f6572207468616e20746f74616c206e756d626572206f66207469636b6574732060648201526b696e2041756374696f6e563160a01b608482015260a401610c37565b6000600c54600954106120cc57600a546009546120ab91906132e6565b600b546120b891906132cf565b6007546120c591906132a3565b905061211f565b6000600a546009546120de91906132e6565b6120e990600161324a565b600b546120f691906132cf565b90508060075411156121175780600754612110919061324a565b915061211d565b60085491505b505b600781905560006009819055600c839055600a839055600d805484929061214790849061324a565b90915550506040805160a08101825260128054808352602080840188815284860188815260006060870181815260808801828152958252601190945296872095518655905160018601555160028501555160039093018054915161ffff1990921693151561ff0019169390931761010091151591909102179091558054916121ce836132b6565b9190505550505050565b6004546001600160a01b03166121ec612acd565b6001600160a01b0316146122125760405162461bcd60e51b8152600401610c37906131bf565b600b55565b6005546001600160a01b031633146122615760405162461bcd60e51b815260206004820152600d60248201526c37b7363c9037b832b930ba37b960991b6044820152606401610c37565b600061226f82840184613322565b9150506000808280602001905181019061228991906133d0565b915091506000858560405161229f929190613453565b60408051918290039091206000858152600160205291822054825491935083149190859081106122d1576122d1613201565b90600052602060002090602091828204019190069054906101000a900460ff1661233d5760405162461bcd60e51b815260206004820152601c60248201527f726571756573742066756c66696c6c6564206f72206d697373696e67000000006044820152606401610c37565b80156123e15760408051602081018a905230918101919091524660608201526080810185905260a0016040516020818303038152906040528051906020012060001c975061238c888585612c8b565b60008085815481106123a0576123a0613201565b90600052602060002090602091828204019190066101000a81548160ff02191690831515021790555060016000858152602001908152602001600020600090555b5050505050505050565b6123f6610951612acd565b1561243c5760405162461bcd60e51b815260206004820152601660248201527515da5b9b995c9cc818d85b9b9bdd0819195c1bdcda5d60521b6044820152606401610c37565b6019546001600160a01b03166124945760405162461bcd60e51b815260206004820152601d60248201527f5553444320636f6e74726163742061646472657373206e6f74207365740000006044820152606401610c37565b600081116124d45760405162461bcd60e51b815260206004820152600d60248201526c139bc8199d5b991cc81cd95b9d609a1b6044820152606401610c37565b60195481906001600160a01b031663dd62ed3e6124ef612acd565b6040516001600160e01b031960e084901b1681526001600160a01b039091166004820152306024820152604401602060405180830381865afa158015612539573d6000803e3d6000fd5b505050506040513d601f19601f8201168201806040525081019061255d9190613463565b10156125a45760405162461bcd60e51b8152602060048201526016602482015275496e73756666696369656e7420616c6c6f77616e636560501b6044820152606401610c37565b6019546001600160a01b03166323b872dd6125bd612acd565b6040516001600160e01b031960e084901b1681526001600160a01b039091166004820152306024820152604481018490526064016020604051808303816000875af1158015612610573d6000803e3d6000fd5b505050506040513d601f19601f820116820180604052508101906126349190613217565b5060136000612641612acd565b6001600160a01b03166001600160a01b03168152602001908152602001600020546000036126a6576017612673612acd565b81546001810183556000928352602090922090910180546001600160a01b0319166001600160a01b039092169190911790555b80601360006126b3612acd565b6001600160a01b03166001600160a01b0316815260200190815260200160002060008282546126e291906132a3565b925050819055506001600960008282546126fc91906132a3565b909155505050565b600f8181548110610be357600080fd5b600254600160a01b900460ff16156127645760405162461bcd60e51b8152602060048201526013602482015272105b1c9958591e481a5b9a5d1a585b1a5e9959606a1b6044820152606401610c37565b6040810151600480546001600160a01b039283166001600160a01b03199182161790915560208301516005805491909316911617905560608101516127a890612c39565b6080810151600d5560a0810151600c819055600a8190556006819055600781905560085560c0810151601980546001600160a01b03199081166001600160a01b039384161790915560e083015160038054831691841691909117905561010090920151601a8054909316911617905560028054600160a01b60ff60a01b19909116179055565b6004546001600160a01b0316612842612acd565b6001600160a01b0316146128685760405162461bcd60e51b8152600401610c37906131bf565b6001600160a01b03166000818152601460205260408120805460ff191660019081179091556016805491820181559091527fd833147d7dc355ba459fc788f669e58cfaf9dc25ddcd0702e87d69c7b51242890180546001600160a01b0319169091179055565b600042446128da612acd565b6040805160208101949094528301919091526bffffffffffffffffffffffff19606091821b16908201526074016040516020818303038152906040528051906020012060001c905090565b60606016805480602002602001604051908101604052809291908181526020018280548015611880576020028201919060005260206000209081546001600160a01b03168152600190910190602001808311611862575050505050905090565b6004546001600160a01b0316612999612acd565b6001600160a01b0316146129bf5760405162461bcd60e51b8152600401610c37906131bf565b600480546001600160a01b0319166001600160a01b0392909216919091179055565b6129e9612bdb565b6001600160a01b038116612a1357604051631e4fbdf760e01b815260006004820152602401610c37565b612a1c81612c39565b50565b6004546001600160a01b0316612a33612acd565b6001600160a01b031614612a595760405162461bcd60e51b8152600401610c37906131bf565b612a8d612a64612acd565b604080516001600160a01b03909216602083015201604051602081830303815290604052612cc8565b50612a96612acd565b6001600160a01b03167fd802e7c7f1646e3318c03abed1e468bdf913f45331a68dc912a0d645eb646a4260405160405180910390a2565b6000612ad7612dc9565b905090565b612ae8600f6000612e64565b60005b601754811015612a1c5760006013600060178481548110612b0e57612b0e613201565b60009182526020808320909101546001600160a01b031683528201929092526040019020546007549091508110612bd257612b7d60178381548110612b5557612b55613201565b60009182526020808320909101546001600160a01b0316825260149052604090205460ff1690565b612bd257600f60178381548110612b9657612b96613201565b60009182526020808320909101548354600181018555938352912090910180546001600160a01b0319166001600160a01b039092169190911790555b50600101612aeb565b612be3612acd565b6001600160a01b0316612bfe6002546001600160a01b031690565b6001600160a01b031614610c4a57612c14612acd565b60405163118cdaa760e01b81526001600160a01b039091166004820152602401610c37565b600280546001600160a01b038381166001600160a01b0319831681179093556040519116919082907f8be0079c531659141344cd1fd0a4f28419497f9722a3daafe3b4186f6b6457e090600090a35050565b600e8390556040518381527fa2353d33775668d31add0688b8ed09ca3a91dc8129126fcdbcbda3a887db60db9060200160405180910390a1505050565b6000805460018082018084558380529192909183908110612ceb57612ceb613201565b90600052602060002090602091828204019190066101000a81548160ff02191690831515021790555060008183604051602001612d2992919061347c565b60405160208183030381529060405290506000612d44612e0d565b905060008183604051602001612d5b92919061347c565b60408051601f198184030181528282528051602080830191909120600089815260019092529290208290559250907fd91fc3685b930310b008ec37d2334870cab88a023ed8cc628a2e2ccd4e55d20290612db8908590879061347c565b60405180910390a150505050919050565b60007f00000000000000000000000000000000000000000000000000000000000000006001600160a01b03163303612e08575060131936013560601c90565b503390565b600080612e1e6364e621274261324a565b90506000612e2d6003836132e6565b612e389060016132a3565b905046600114612e5257612e4d8160016132a3565b612e5d565b612e5d8160046132a3565b9250505090565b5080546000825590600052602060002090810190612a1c91905b80821115612e925760008155600101612e7e565b5090565b600060208284031215612ea857600080fd5b5035919050565b80356001600160a01b0381168114612ec657600080fd5b919050565b600060208284031215612edd57600080fd5b612ee682612eaf565b9392505050565b60008060408385031215612f0057600080fd5b612f0983612eaf565b946020939093013593505050565b8015158114612a1c57600080fd5b60008060408385031215612f3857600080fd5b612f4183612eaf565b91506020830135612f5181612f17565b809150509250929050565b6020808252825182820181905260009190848201906040850190845b81811015612f9d5783516001600160a01b031683529284019291840191600101612f78565b50909695505050505050565b600060208284031215612fbb57600080fd5b813560058110612ee657600080fd5b634e487b7160e01b600052602160045260246000fd5b602081016005831061300257634e487b7160e01b600052602160045260246000fd5b91905290565b6000806040838503121561301b57600080fd5b50508035926020909101359150565b60008060006040848603121561303f57600080fd5b83359250602084013567ffffffffffffffff8082111561305e57600080fd5b818601915086601f83011261307257600080fd5b81358181111561308157600080fd5b87602082850101111561309357600080fd5b6020830194508093505050509250925092565b634e487b7160e01b600052604160045260246000fd5b604051610120810167ffffffffffffffff811182821017156130e0576130e06130a6565b60405290565b604051601f8201601f1916810167ffffffffffffffff8111828210171561310f5761310f6130a6565b604052919050565b6000610120828403121561312a57600080fd5b6131326130bc565b61313b83612eaf565b815261314960208401612eaf565b602082015261315a60408401612eaf565b604082015261316b60608401612eaf565b60608201526080830135608082015260a083013560a082015261319060c08401612eaf565b60c08201526131a160e08401612eaf565b60e08201526101006131b4818501612eaf565b908201529392505050565b60208082526022908201527f4f6e6c792073656c6c65722063616e2063616c6c20746869732066756e63746960408201526137b760f11b606082015260800190565b634e487b7160e01b600052603260045260246000fd5b60006020828403121561322957600080fd5b8151612ee681612f17565b634e487b7160e01b600052601160045260246000fd5b8181038181111561325d5761325d613234565b92915050565b634e487b7160e01b600052603160045260246000fd5b634e487b7160e01b600052601260045260246000fd5b60008261329e5761329e613279565b500690565b8082018082111561325d5761325d613234565b6000600182016132c8576132c8613234565b5060010190565b808202811582820484141761325d5761325d613234565b6000826132f5576132f5613279565b500490565b600067ffffffffffffffff821115613314576133146130a6565b50601f01601f191660200190565b6000806040838503121561333557600080fd5b82359150602083013567ffffffffffffffff81111561335357600080fd5b8301601f8101851361336457600080fd5b8035613377613372826132fa565b6130e6565b81815286602083850101111561338c57600080fd5b816020840160208301376000602083830101528093505050509250929050565b60005b838110156133c75781810151838201526020016133af565b50506000910152565b600080604083850312156133e357600080fd5b82519150602083015167ffffffffffffffff81111561340157600080fd5b8301601f8101851361341257600080fd5b8051613420613372826132fa565b81815286602083850101111561343557600080fd5b6134468260208301602086016133ac565b8093505050509250929050565b8183823760009101908152919050565b60006020828403121561347557600080fd5b5051919050565b82815260406020820152600082518060408401526134a18160608501602087016133ac565b601f01601f191691909101606001939250505056fea26469706673582212209b07b18c5dbcea7c44145c4450b6c5486520a251f733dc2c257417393677997764736f6c63430008190033","linkReferences":{}},"methodIdentifiers":{"buyerWithdraw()":"7cc947d0","changeLotteryState(uint8)":"683e93e1","currentPrice()":"9d1b464a","deposit(uint256)":"b6b55f25","deposits(address)":"fc7e286d","eligibleParticipants(uint256)":"b7a62e24","endLottery()":"1593a8c7","fulfillRandomness(uint256,bytes)":"b3f6b99a","getDepositedAmount(address)":"e9081ec7","getEligibleParticipants()":"9abdccd1","getParticipants()":"5aa68ac0","getRandomNumber()":"dbdff2c1","getWinners()":"df15c37e","hasMinted(address)":"38e21cce","increasePriceStep()":"96efac7b","initialPrice()":"1d0806ae","initialize((address,address,address,address,uint256,uint256,address,address,address))":"cf54d3b8","initialized()":"158ef93e","isParticipantEligible(address)":"8a6723e6","isTrustedForwarder(address)":"572b6c05","isWinner(address)":"9d9ca28d","lotteryState()":"6939864b","lotteryV2Addr()":"7de13382","minimumDepositAmount()":"080c279a","mintMyNFT()":"26170480","multisigWalletAddress()":"a61fb2ba","nftContractAddr()":"2c23ec8e","numberOfTickets()":"45745c10","operatorAddr()":"f3f18c37","operators(address)":"13e7c9d8","owner()":"8da5cb5b","prevRoundDeposits()":"b680e44b","prevRoundTicketsAmount()":"224f91bd","randomNumber()":"ccbac9f5","renounceOwnership()":"715018a6","requestPending(uint256)":"75ce7fff","requestRandomness()":"f8413b07","requestedHash(uint256)":"c4f8f27b","roundCounter()":"febc14b1","rounds(uint256)":"8c65c81f","selectWinners()":"1a0de74c","seller()":"08551a53","sellerWithdraw()":"66af746b","setCurrentPrice(uint256)":"18b20071","setLotteryV2Addr(address)":"3639eb2e","setMultisigWalletAddress(address)":"60d50da3","setNftContractAddr(address)":"3644c27c","setNumberOfTickets(uint256)":"99bd69d6","setOperator(address,bool)":"558a7297","setPriceStep(uint256)":"af94862c","setSeller(address)":"e99d2866","setUsdcContractAddr(address)":"94d898de","setWinner(address)":"d9fca769","setupNewRound(uint256,uint256)":"a4f03c02","startLottery()":"160344e2","totalNumberOfTickets()":"00746702","transferDeposit(address,uint256)":"50f3dbec","transferNonWinnerBids(address)":"1630a8df","transferOwnership(address)":"f2fde38b","usdcContractAddr()":"99dbf4b5","winnerAddresses(uint256)":"045f9c97","winners(address)":"6bd5450a"},"id":37}