{"abi":[{"type":"function","name":"GET_BLOCK_TIMESTAMP","inputs":[],"outputs":[{"name":"","type":"uint256","internalType":"uint256"}],"stateMutability":"nonpayable"},{"type":"function","name":"GET_CONDITION_OF_REQ_RAND","inputs":[],"outputs":[{"name":"","type":"bool","internalType":"bool"}],"stateMutability":"nonpayable"},{"type":"function","name":"GET_LAST_ROUND_FINISH_AT","inputs":[],"outputs":[{"name":"","type":"uint256","internalType":"uint256"}],"stateMutability":"nonpayable"},{"type":"function","name":"buyerWithdraw","inputs":[],"outputs":[],"stateMutability":"nonpayable"},{"type":"function","name":"changeLotteryState","inputs":[{"name":"_newState","type":"uint8","internalType":"enum SaleBase.LotteryState"}],"outputs":[],"stateMutability":"nonpayable"},{"type":"function","name":"deposit","inputs":[{"name":"amount","type":"uint256","internalType":"uint256"}],"outputs":[],"stateMutability":"nonpayable"},{"type":"function","name":"deposits","inputs":[{"name":"","type":"address","internalType":"address"}],"outputs":[{"name":"","type":"uint256","internalType":"uint256"}],"stateMutability":"view"},{"type":"function","name":"endLottery","inputs":[],"outputs":[],"stateMutability":"nonpayable"},{"type":"function","name":"fulfillRandomness","inputs":[{"name":"randomness","type":"uint256","internalType":"uint256"},{"name":"dataWithRound","type":"bytes","internalType":"bytes"}],"outputs":[],"stateMutability":"nonpayable"},{"type":"function","name":"getDepositedAmount","inputs":[{"name":"participant","type":"address","internalType":"address"}],"outputs":[{"name":"","type":"uint256","internalType":"uint256"}],"stateMutability":"view"},{"type":"function","name":"getParticipants","inputs":[],"outputs":[{"name":"","type":"address[]","internalType":"address[]"}],"stateMutability":"view"},{"type":"function","name":"getWinners","inputs":[],"outputs":[{"name":"","type":"address[]","internalType":"address[]"}],"stateMutability":"view"},{"type":"function","name":"hasMinted","inputs":[{"name":"","type":"address","internalType":"address"}],"outputs":[{"name":"","type":"bool","internalType":"bool"}],"stateMutability":"view"},{"type":"function","name":"increasePriceStep","inputs":[],"outputs":[{"name":"","type":"uint256","internalType":"uint256"}],"stateMutability":"view"},{"type":"function","name":"initialPrice","inputs":[],"outputs":[{"name":"","type":"uint256","internalType":"uint256"}],"stateMutability":"view"},{"type":"function","name":"initialize","inputs":[{"name":"config","type":"tuple","internalType":"struct StructsLibrary.IAuctionV1BaseConfig","components":[{"name":"_gelatoVrfOperator","type":"address","internalType":"address"},{"name":"_blessedOperator","type":"address","internalType":"address"},{"name":"_owner","type":"address","internalType":"address"},{"name":"_ticketAmount","type":"uint256","internalType":"uint256"},{"name":"_ticketPrice","type":"uint256","internalType":"uint256"},{"name":"_priceIncreaseStep","type":"uint256","internalType":"uint256"},{"name":"_usdcContractAddr","type":"address","internalType":"address"},{"name":"_nftContractAddr","type":"address","internalType":"address"},{"name":"_multisigWalletAddress","type":"address","internalType":"address"},{"name":"_prevPhaseContractAddr","type":"address","internalType":"address"}]}],"outputs":[],"stateMutability":"nonpayable"},{"type":"function","name":"isTrustedForwarder","inputs":[{"name":"forwarder","type":"address","internalType":"address"}],"outputs":[{"name":"","type":"bool","internalType":"bool"}],"stateMutability":"view"},{"type":"function","name":"isWinner","inputs":[{"name":"_participant","type":"address","internalType":"address"}],"outputs":[{"name":"","type":"bool","internalType":"bool"}],"stateMutability":"view"},{"type":"function","name":"lotteryState","inputs":[],"outputs":[{"name":"","type":"uint8","internalType":"enum SaleBase.LotteryState"}],"stateMutability":"view"},{"type":"function","name":"lotteryV2Addr","inputs":[],"outputs":[{"name":"","type":"address","internalType":"address"}],"stateMutability":"view"},{"type":"function","name":"mintMyNFT","inputs":[],"outputs":[],"stateMutability":"nonpayable"},{"type":"function","name":"multisigWalletAddress","inputs":[],"outputs":[{"name":"","type":"address","internalType":"address"}],"stateMutability":"view"},{"type":"function","name":"nftContractAddr","inputs":[],"outputs":[{"name":"","type":"address","internalType":"address"}],"stateMutability":"view"},{"type":"function","name":"numberOfTickets","inputs":[],"outputs":[{"name":"","type":"uint256","internalType":"uint256"}],"stateMutability":"view"},{"type":"function","name":"operatorAddr","inputs":[],"outputs":[{"name":"","type":"address","internalType":"address"}],"stateMutability":"view"},{"type":"function","name":"operators","inputs":[{"name":"","type":"address","internalType":"address"}],"outputs":[{"name":"","type":"bool","internalType":"bool"}],"stateMutability":"view"},{"type":"function","name":"owner","inputs":[],"outputs":[{"name":"","type":"address","internalType":"address"}],"stateMutability":"view"},{"type":"function","name":"prevRoundDeposits","inputs":[],"outputs":[{"name":"","type":"uint256","internalType":"uint256"}],"stateMutability":"view"},{"type":"function","name":"prevRoundTicketsAmount","inputs":[],"outputs":[{"name":"","type":"uint256","internalType":"uint256"}],"stateMutability":"view"},{"type":"function","name":"renounceOwnership","inputs":[],"outputs":[],"stateMutability":"nonpayable"},{"type":"function","name":"requestPending","inputs":[{"name":"","type":"uint256","internalType":"uint256"}],"outputs":[{"name":"","type":"bool","internalType":"bool"}],"stateMutability":"view"},{"type":"function","name":"requestRandomness","inputs":[],"outputs":[],"stateMutability":"nonpayable"},{"type":"function","name":"requestedHash","inputs":[{"name":"","type":"uint256","internalType":"uint256"}],"outputs":[{"name":"","type":"bytes32","internalType":"bytes32"}],"stateMutability":"view"},{"type":"function","name":"roundCounter","inputs":[],"outputs":[{"name":"","type":"uint256","internalType":"uint256"}],"stateMutability":"view"},{"type":"function","name":"rounds","inputs":[{"name":"","type":"uint256","internalType":"uint256"}],"outputs":[{"name":"number","type":"uint256","internalType":"uint256"},{"name":"finishAt","type":"uint256","internalType":"uint256"},{"name":"numberOfTickets","type":"uint256","internalType":"uint256"},{"name":"randomNumber","type":"uint256","internalType":"uint256"},{"name":"lotteryStarted","type":"bool","internalType":"bool"},{"name":"lotteryFinished","type":"bool","internalType":"bool"},{"name":"winnersSelected","type":"bool","internalType":"bool"}],"stateMutability":"view"},{"type":"function","name":"selectWinners","inputs":[],"outputs":[],"stateMutability":"nonpayable"},{"type":"function","name":"seller","inputs":[],"outputs":[{"name":"","type":"address","internalType":"address"}],"stateMutability":"view"},{"type":"function","name":"sellerWithdraw","inputs":[],"outputs":[],"stateMutability":"nonpayable"},{"type":"function","name":"setOperator","inputs":[{"name":"_operatorAddr","type":"address","internalType":"address"},{"name":"_flag","type":"bool","internalType":"bool"}],"outputs":[],"stateMutability":"nonpayable"},{"type":"function","name":"setSeller","inputs":[{"name":"_seller","type":"address","internalType":"address"}],"outputs":[],"stateMutability":"nonpayable"},{"type":"function","name":"setupNewRound","inputs":[{"name":"_finishAt","type":"uint256","internalType":"uint256"},{"name":"_numberOfTickets","type":"uint256","internalType":"uint256"}],"outputs":[],"stateMutability":"nonpayable"},{"type":"function","name":"startLottery","inputs":[],"outputs":[],"stateMutability":"nonpayable"},{"type":"function","name":"ticketPrice","inputs":[],"outputs":[{"name":"","type":"uint256","internalType":"uint256"}],"stateMutability":"view"},{"type":"function","name":"totalNumberOfTickets","inputs":[],"outputs":[{"name":"","type":"uint256","internalType":"uint256"}],"stateMutability":"view"},{"type":"function","name":"transferDeposit","inputs":[{"name":"_participant","type":"address","internalType":"address"},{"name":"_amount","type":"uint256","internalType":"uint256"}],"outputs":[],"stateMutability":"nonpayable"},{"type":"function","name":"transferNonWinnerBids","inputs":[{"name":"destinationAddr","type":"address","internalType":"address"}],"outputs":[],"stateMutability":"nonpayable"},{"type":"function","name":"transferOwnership","inputs":[{"name":"newOwner","type":"address","internalType":"address"}],"outputs":[],"stateMutability":"nonpayable"},{"type":"function","name":"usdcContractAddr","inputs":[],"outputs":[{"name":"","type":"address","internalType":"address"}],"stateMutability":"view"},{"type":"function","name":"winnerAddresses","inputs":[{"name":"","type":"uint256","internalType":"uint256"}],"outputs":[{"name":"","type":"address","internalType":"address"}],"stateMutability":"view"},{"type":"function","name":"winners","inputs":[{"name":"","type":"address","internalType":"address"}],"outputs":[{"name":"","type":"bool","internalType":"bool"}],"stateMutability":"view"},{"type":"event","name":"BuyerDeposited","inputs":[{"name":"buyer","type":"address","indexed":true,"internalType":"address"},{"name":"amount","type":"uint256","indexed":true,"internalType":"uint256"}],"anonymous":false},{"type":"event","name":"BuyerWithdrew","inputs":[{"name":"buyer","type":"address","indexed":true,"internalType":"address"},{"name":"amount","type":"uint256","indexed":true,"internalType":"uint256"}],"anonymous":false},{"type":"event","name":"DepositsReturned","inputs":[{"name":"returnedDepositsCount","type":"uint256","indexed":false,"internalType":"uint256"}],"anonymous":false},{"type":"event","name":"Initialized","inputs":[{"name":"version","type":"uint64","indexed":false,"internalType":"uint64"}],"anonymous":false},{"type":"event","name":"LotteryEnded","inputs":[],"anonymous":false},{"type":"event","name":"LotteryStarted","inputs":[],"anonymous":false},{"type":"event","name":"OwnershipTransferred","inputs":[{"name":"previousOwner","type":"address","indexed":true,"internalType":"address"},{"name":"newOwner","type":"address","indexed":true,"internalType":"address"}],"anonymous":false},{"type":"event","name":"RandomFulfilled","inputs":[{"name":"number","type":"uint256","indexed":false,"internalType":"uint256"}],"anonymous":false},{"type":"event","name":"RandomRequested","inputs":[{"name":"requester","type":"address","indexed":true,"internalType":"address"}],"anonymous":false},{"type":"event","name":"RequestedRandomness","inputs":[{"name":"round","type":"uint256","indexed":false,"internalType":"uint256"},{"name":"data","type":"bytes","indexed":false,"internalType":"bytes"}],"anonymous":false},{"type":"event","name":"RoundSet","inputs":[{"name":"roundNumber","type":"uint256","indexed":true,"internalType":"uint256"},{"name":"finishAt","type":"uint256","indexed":false,"internalType":"uint256"},{"name":"numberOfTickets","type":"uint256","indexed":false,"internalType":"uint256"}],"anonymous":false},{"type":"event","name":"WinnerSelected","inputs":[{"name":"winner","type":"address","indexed":true,"internalType":"address"}],"anonymous":false},{"type":"error","name":"InvalidInitialization","inputs":[]},{"type":"error","name":"NotInitializing","inputs":[]},{"type":"error","name":"OwnableInvalidOwner","inputs":[{"name":"owner","type":"address","internalType":"address"}]},{"type":"error","name":"OwnableUnauthorizedAccount","inputs":[{"name":"account","type":"address","internalType":"address"}]}],"bytecode":{"object":"0x60a060405260016014556001601555600560165534801561001f57600080fd5b5073d8253782c45a12053594b9deb72d8e8ab2fca54c338061005b57604051631e4fbdf760e01b81526000600482015260240160405180910390fd5b6100648161007e565b506001600160a01b03166080526100796100ce565b610180565b600080546001600160a01b038381166001600160a01b0319831681178455604051919092169283917f8be0079c531659141344cd1fd0a4f28419497f9722a3daafe3b4186f6b6457e09190a35050565b7ff0c57e16840df040f15088dc2f81fe391c3923bec73e23a9662efc9c229c6a00805468010000000000000000900460ff161561011e5760405163f92ee8a960e01b815260040160405180910390fd5b80546001600160401b039081161461017d5780546001600160401b0319166001600160401b0390811782556040519081527fc7f505b2f371ae2175ee4913f4499e1f2633a7b5936321eed1cdaeb6115181d29060200160405180910390a15b50565b6080516133946101a2600039600081816104470152612c6a01526133946000f3fe608060405234801561001057600080fd5b50600436106102d55760003560e01c8063715018a611610182578063b3f6b99a116100e9578063e99d2866116100a2578063f3f18c371161007c578063f3f18c37146106e2578063f8413b07146106f5578063fc7e286d146106fd578063febc14b11461071d57600080fd5b8063e99d2866146106b4578063eb264323146106c7578063f2fde38b146106cf57600080fd5b8063b3f6b99a14610634578063b680e44b14610647578063b6b55f2514610650578063c4f8f27b14610663578063df15c37e14610683578063e9081ec71461068b57600080fd5b80638e534ca31161013b5780638e534ca3146105c057806396efac7b146105c657806399dbf4b5146105cf5780639d9ca28d146105e2578063a4f03c021461060e578063a61fb2ba1461062157600080fd5b8063715018a6146104eb57806375ce7fff146104f35780637cc947d0146105065780637de133821461050e5780638c65c81f146105215780638da5cb5b146105af57600080fd5b80632c23ec8e1161024157806356d7c73a116101fa57806366af746b116101d457806366af746b1461048c578063683e93e1146104945780636939864b146104a75780636bd5450a146104c857600080fd5b806356d7c73a14610424578063572b6c05146104375780635aa68ac01461047757600080fd5b80632c23ec8e146103b757806338e21cce146103ca57806345745c10146103ed57806350f3dbec146103f657806355279b5814610409578063558a72971461041157600080fd5b8063160344e211610293578063160344e21461037a5780631630a8df146103825780631a0de74c146103955780631d0806ae1461039d578063224f91bd146103a657806326170480146103af57600080fd5b8062746702146102da578063045f9c97146102f657806308551a53146103215780631209b1f61461033457806313e7c9d81461033d5780631593a8c714610370575b600080fd5b6102e360175481565b6040519081526020015b60405180910390f35b610309610304366004612d33565b610726565b6040516001600160a01b0390911681526020016102ed565b600254610309906001600160a01b031681565b6102e360045481565b61036061034b366004612d68565b60106020526000908152604090205460ff1681565b60405190151581526020016102ed565b610378610750565b005b6103786107c8565b610378610390366004612d68565b6108a3565b610378610a8c565b6102e360135481565b6102e360155481565b610378610fd2565b600a54610309906001600160a01b031681565b6103606103d8366004612d68565b60056020526000908152604090205460ff1681565b6102e360035481565b610378610404366004612d8a565b61115c565b61036061129c565b61037861041f366004612dc2565b6112cb565b610378610432366004612e6a565b6112fe565b610360610445366004612d68565b7f00000000000000000000000000000000000000000000000000000000000000006001600160a01b0390811691161490565b61047f6114d2565b6040516102ed9190612f1d565b610378611534565b6103786104a2366004612f6a565b611765565b6000546104bb90600160a01b900460ff1681565b6040516102ed9190612fa1565b6103606104d6366004612d68565b60076020526000908152604090205460ff1681565b6103786117cc565b610360610501366004612d33565b6117e0565b610378611814565b601154610309906001600160a01b031681565b61057461052f366004612d33565b600e60205260009081526040902080546001820154600283015460038401546004909401549293919290919060ff808216916101008104821691620100009091041687565b60408051978852602088019690965294860193909352606085019190915215156080840152151560a0830152151560c082015260e0016102ed565b6000546001600160a01b0316610309565b426102e3565b6102e360165481565b600b54610309906001600160a01b031681565b6103606105f0366004612d68565b6001600160a01b031660009081526007602052604090205460ff1690565b61037861061c366004612fc9565b611a58565b600154610309906001600160a01b031681565b610378610642366004612feb565b611e16565b6102e360145481565b61037861065e366004612d33565b611ff0565b6102e3610671366004612d33565b600d6020526000908152604090205481565b61047f6123e7565b6102e3610699366004612d68565b6001600160a01b031660009081526006602052604090205490565b6103786106c2366004612d68565b612447565b6102e36124a3565b6103786106dd366004612d68565b6124cf565b601254610309906001600160a01b031681565b61037861250a565b6102e361070b366004612d68565b60066020526000908152604090205481565b6102e3600f5481565b6008818154811061073657600080fd5b6000918252602090912001546001600160a01b0316905081565b6002546001600160a01b03166107646126a8565b6001600160a01b0316146107935760405162461bcd60e51b815260040161078a90613067565b60405180910390fd5b61079d6002611765565b6040517f9c89a6ed7228533196a3f962acc80d61a9c53bdea6b910741bf754f5aaa7569e90600090a1565b6002546001600160a01b03166107dc6126a8565b6001600160a01b0316146108025760405162461bcd60e51b815260040161078a90613067565b60008054600160a01b900460ff16600281111561082157610821612f8b565b1461086e5760405162461bcd60e51b815260206004820152601760248201527f53616c6520697320696e20616374697665207374617465000000000000000000604482015260640161078a565b6108786001611765565b6040517fd029c7c68d943f92286a7825fa6aa2deefa1eee46cee6c91b7e483fd06d27baf90600090a1565b6002546001600160a01b03166108b76126a8565b6001600160a01b0316146108dd5760405162461bcd60e51b815260040161078a90613067565b60005b600954811015610a7c5760006006600060098481548110610903576109036130a9565b60009182526020808320909101546001600160a01b031683528201929092526040018120546009805491935060069183919086908110610945576109456130a9565b6000918252602080832091909101546001600160a01b039081168452908301939093526040918201902092909255600b54915163a9059cbb60e01b815285821660048201526024810184905291169063a9059cbb906044016020604051808303816000875af11580156109bc573d6000803e3d6000fd5b505050506040513d601f19601f820116820180604052508101906109e091906130bf565b50826001600160a01b03166350f3dbec60098481548110610a0357610a036130a9565b60009182526020909120015460405160e083901b6001600160e01b03191681526001600160a01b03909116600482015260248101849052604401600060405180830381600087803b158015610a5757600080fd5b505af1158015610a6b573d6000803e3d6000fd5b5050600190930192506108e0915050565b50610a8960096000612d01565b50565b6002546001600160a01b0316610aa06126a8565b6001600160a01b031614610ac65760405162461bcd60e51b815260040161078a90613067565b6000600e60006001600f54610adb91906130f2565b81526020019081526020016000206003015411610b505760405162461bcd60e51b815260206004820152602d60248201527f52616e646f6d206e756d62657220666f72206c61737420726f756e642069732060448201526c1b9bdd0819d95b995c985d1959609a1b606482015260840161078a565b600060035411610ba25760405162461bcd60e51b815260206004820152601b60248201527f4e6f207469636b657473206c65667420746f20616c6c6f636174650000000000604482015260640161078a565b6000805460ff60a01b1916600160a01b1790556009546003548111610c7c5760005b81811015610c6557600060098281548110610be157610be16130a9565b6000918252602090912001546001600160a01b03169050610c1a816001600160a01b031660009081526007602052604090205460ff1690565b610c5c57610c27816126b7565b6040516001600160a01b038216907f1d4c260f1824cd028e6c9e6e31c3a0b94f2513e7a641113ec759d382f9bdd5a190600090a25b50600101610bc4565b50610c7260096000612d01565b6000600355610f34565b60005b81811015610db2576000610c9382846130f2565b600e60006001600f54610ca691906130f2565b815260200190815260200160002060030154610cc29190613121565b610ccc9083613135565b9050600060098281548110610ce357610ce36130a9565b600091825260209091200154600980546001600160a01b0390921692509084908110610d1157610d116130a9565b600091825260209091200154600980546001600160a01b039092169184908110610d3d57610d3d6130a9565b9060005260206000200160006101000a8154816001600160a01b0302191690836001600160a01b031602179055508060098481548110610d7f57610d7f6130a9565b600091825260209091200180546001600160a01b0319166001600160a01b03929092169190911790555050600101610c7f565b5060005b600354811015610e5957600060098281548110610dd557610dd56130a9565b6000918252602090912001546001600160a01b03169050610e0e816001600160a01b031660009081526007602052604090205460ff1690565b610e5057610e1b816126b7565b6040516001600160a01b038216907f1d4c260f1824cd028e6c9e6e31c3a0b94f2513e7a641113ec759d382f9bdd5a190600090a25b50600101610db6565b506003546000905b82811015610ee65760098181548110610e7c57610e7c6130a9565b600091825260209091200154600980546001600160a01b039092169184908110610ea857610ea86130a9565b600091825260209091200180546001600160a01b0319166001600160a01b039290921691909117905581610edb81613148565b925050600101610e61565b50805b82811015610f2c576009805480610f0257610f02613161565b600082815260209020810160001990810180546001600160a01b0319169055019055600101610ee9565b505060006003555b6001600e60006001600f54610f4991906130f2565b8152602081019190915260400160009081206004018054921515620100000262ff00001990931692909217909155805460ff60a01b191681556017549003610a89576000805460ff60a01b1916600160a11b179055610fa6612743565b6040517f9c89a6ed7228533196a3f962acc80d61a9c53bdea6b910741bf754f5aaa7569e90600090a150565b610fdd6105f06126a8565b6110225760405162461bcd60e51b815260206004820152601660248201527521b0b63632b91034b9903737ba1030903bb4b73732b960511b604482015260640161078a565b6005600061102e6126a8565b6001600160a01b0316815260208101919091526040016000205460ff161561108d5760405162461bcd60e51b815260206004820152601260248201527113919508185b1c9958591e481b5a5b9d195960721b604482015260640161078a565b60016005600061109b6126a8565b6001600160a01b0316815260208101919091526040016000908120805460ff1916921515929092179091556006816110d16126a8565b6001600160a01b039081168252602082019290925260400160002091909155600a5416636b8f60f66111016126a8565b6040516001600160e01b031960e084901b1681526001600160a01b039091166004820152602401600060405180830381600087803b15801561114257600080fd5b505af1158015611156573d6000803e3d6000fd5b50505050565b6111646126a8565b6011546001600160a01b039081169116146111d15760405162461bcd60e51b815260206004820152602760248201527f4f6e6c792077686974656c6973746564206d61792063616c6c207468697320666044820152663ab731ba34b7b760c91b606482015260840161078a565b600660006111dd6126a8565b6001600160a01b03166001600160a01b031681526020019081526020016000205460000361125157600980546001810182556000919091527f6e1540171b6c0c960b71a7020d9f60077f6af931a8bbf590da0223dacf75c7af0180546001600160a01b0319166001600160a01b0384161790555b6001600160a01b03821660009081526006602052604081208054839290611279908490613135565b925050819055506001601460008282546112939190613135565b90915550505050565b600042600e60006001600f546112b291906130f2565b8152602001908152602001600020600101541115905090565b6112d3612a4e565b6001600160a01b03919091166000908152601060205260409020805460ff1916911515919091179055565b7ff0c57e16840df040f15088dc2f81fe391c3923bec73e23a9662efc9c229c6a008054600160401b810460ff16159067ffffffffffffffff166000811580156113445750825b905060008267ffffffffffffffff1660011480156113615750303b155b90508115801561136f575080155b1561138d5760405163f92ee8a960e01b815260040160405180910390fd5b845467ffffffffffffffff1916600117855583156113b757845460ff60401b1916600160401b1785555b6020860151600280546001600160a01b039283166001600160a01b03199182161790915587516012805491909316911617905560408601516113f890612aac565b6060860151601755608086015160038190556015819055600481905560135560a086015160165560c0860151600b80546001600160a01b03199081166001600160a01b039384161790915560e0880151600a80548316918416919091179055610100880151600180548316918416919091178155610120890151601180549093169316929092179055600f5583156114ca57845460ff60401b19168555604051600181527fc7f505b2f371ae2175ee4913f4499e1f2633a7b5936321eed1cdaeb6115181d29060200160405180910390a15b505050505050565b6060600980548060200260200160405190810160405280929190818152602001828054801561152a57602002820191906000526020600020905b81546001600160a01b0316815260019091019060200180831161150c575b5050505050905090565b6002546001600160a01b03166115486126a8565b6001600160a01b03161461156e5760405162461bcd60e51b815260040161078a90613067565b6002600054600160a01b900460ff16600281111561158e5761158e612f8b565b146115cf5760405162461bcd60e51b8152602060048201526011602482015270131bdd1d195c9e481b9bdd08195b991959607a1b604482015260640161078a565b6000805b600854811015611648576000600882815481106115f2576115f26130a9565b60009182526020808320909101546001600160a01b031680835260069091526040909120549091506116249084613135565b6001600160a01b0390911660009081526006602052604081205591506001016115d3565b5060006064611658836005613177565b611662919061318e565b9050600061167082846130f2565b600b5460015460405163a9059cbb60e01b81526001600160a01b03918216600482015260248101869052929350169063a9059cbb906044016020604051808303816000875af11580156116c7573d6000803e3d6000fd5b505050506040513d601f19601f820116820180604052508101906116eb91906130bf565b50600b5460025460405163a9059cbb60e01b81526001600160a01b0391821660048201526024810184905291169063a9059cbb906044016020604051808303816000875af1158015611741573d6000803e3d6000fd5b505050506040513d601f19601f8201168201806040525081019061115691906130bf565b6002546001600160a01b03166117796126a8565b6001600160a01b03161461179f5760405162461bcd60e51b815260040161078a90613067565b6000805482919060ff60a01b1916600160a01b8360028111156117c4576117c4612f8b565b021790555050565b6117d4612a4e565b6117de6000612aac565b565b600c81815481106117f057600080fd5b9060005260206000209060209182820401919006915054906101000a900460ff1681565b6002600054600160a01b900460ff16600281111561183457611834612f8b565b146118795760405162461bcd60e51b815260206004820152601560248201527414d85b19481a5cc81b9bdd08195b991959081e595d605a1b604482015260640161078a565b600760006118856126a8565b6001600160a01b0316815260208101919091526040016000205460ff16156118ef5760405162461bcd60e51b815260206004820152601760248201527f57696e6e6572732063616e6e6f74207769746864726177000000000000000000604482015260640161078a565b6000600660006118fd6126a8565b6001600160a01b03166001600160a01b03168152602001908152602001600020549050600081116119675760405162461bcd60e51b81526020600482015260146024820152734e6f2066756e647320746f20776974686472617760601b604482015260640161078a565b6000600660006119756126a8565b6001600160a01b039081168252602082019290925260400160002091909155600b541663a9059cbb6119a56126a8565b6040516001600160e01b031960e084901b1681526001600160a01b039091166004820152602481018490526044016020604051808303816000875af11580156119f2573d6000803e3d6000fd5b505050506040513d601f19601f82011682018060405250810190611a1691906130bf565b5080611a206126a8565b6001600160a01b03167f1f280cd00e67ed50213ac03febd5be151f96b7f7db2f85312aa0feff99f8bdab60405160405180910390a350565b6002546001600160a01b0316611a6c6126a8565b6001600160a01b03161480611a9b57506000546001600160a01b0316611a906126a8565b6001600160a01b0316145b80611acb575060106000611aad6126a8565b6001600160a01b0316815260208101919091526040016000205460ff165b611b235760405162461bcd60e51b8152602060048201526024808201527f4f6e6c79206f70657261746f722063616e2063616c6c20746869732066756e636044820152633a34b7b760e11b606482015260840161078a565b601754811115611bb05760405162461bcd60e51b815260206004820152604c60248201527f5469636b6574732070657220726f756e642063616e6e6f74206265206869676860448201527f6572207468616e20746f74616c206e756d626572206f66207469636b6574732060648201526b696e2041756374696f6e563160a01b608482015260a40161078a565b6001600f541115611c5557600e60006001600f54611bce91906130f2565b815260200190815260200160002060040160029054906101000a900460ff1615156001151514611c555760405162461bcd60e51b815260206004820152602c60248201527f46696e697368206c61737420726f756e642066697273742062792073656c656360448201526b74696e672077696e6e65727360a01b606482015260840161078a565b600060175460145410611c9357601554601454611c72919061318e565b601654611c7f9190613177565b600454611c8c9190613135565b9050611ce6565b6000601554601454611ca5919061318e565b611cb09060016130f2565b601654611cbd9190613177565b9050806004541115611cde5780600454611cd791906130f2565b9150611ce4565b60135491505b505b6004819055600060148190556003839055601583905560178054849290611d0e9084906130f2565b90915550506040805160e081018252600f8054808352602080840188815284860188815260006060870181815260016080890181815260a08a0184815260c08b01858152988552600e8852938b902099518a559451908901559151600288015590516003870155905160049095018054915193511515620100000262ff0000199415156101000261ff00199715159790971661ffff1990931692909217959095179290921691909117909255548251868152918201859052917fa809180f68c3ea85ec47001279a9070abd80a3022aa303b0fd92eb0e7538d42b910160405180910390a2611dfc6001611765565b600f8054906000611e0c83613148565b9190505550505050565b6012546001600160a01b03163314611e605760405162461bcd60e51b815260206004820152600d60248201526c37b7363c9037b832b930ba37b960991b604482015260640161078a565b6000611e6e828401846131ca565b91505060008082806020019051810190611e889190613278565b9150915060008585604051611e9e9291906132fb565b604051809103902090506000600d60008581526020019081526020016000205482149050600c8481548110611ed557611ed56130a9565b90600052602060002090602091828204019190069054906101000a900460ff16611f415760405162461bcd60e51b815260206004820152601c60248201527f726571756573742066756c66696c6c6564206f72206d697373696e6700000000604482015260640161078a565b8015611fe65760408051602081018a905230918101919091524660608201526080810185905260a0016040516020818303038152906040528051906020012060001c9750611f90888585612afc565b6000600c8581548110611fa557611fa56130a9565b90600052602060002090602091828204019190066101000a81548160ff021916908315150217905550600d6000858152602001908152602001600020600090555b5050505050505050565b611ffb6105f06126a8565b156120415760405162461bcd60e51b815260206004820152601660248201527515da5b9b995c9cc818d85b9b9bdd0819195c1bdcda5d60521b604482015260640161078a565b600b546001600160a01b03166120995760405162461bcd60e51b815260206004820152601d60248201527f5553444320636f6e74726163742061646472657373206e6f7420736574000000604482015260640161078a565b6004548110156120e35760405162461bcd60e51b8152602060048201526015602482015274139bdd08195b9bdd59da08199d5b991cc81cd95b9d605a1b604482015260640161078a565b600b5481906001600160a01b031663dd62ed3e6120fe6126a8565b6040516001600160e01b031960e084901b1681526001600160a01b039091166004820152306024820152604401602060405180830381865afa158015612148573d6000803e3d6000fd5b505050506040513d601f19601f8201168201806040525081019061216c919061330b565b10156121b35760405162461bcd60e51b8152602060048201526016602482015275496e73756666696369656e7420616c6c6f77616e636560501b604482015260640161078a565b600e60006001600f546121c691906130f2565b8152602081019190915260400160002060040154610100900460ff16156122415760405162461bcd60e51b815260206004820152602960248201527f596f752063616e2774206465706f73697420616674657220726f756e6420697360448201526808199a5b9a5cda195960ba1b606482015260840161078a565b600b546001600160a01b03166323b872dd61225a6126a8565b6040516001600160e01b031960e084901b1681526001600160a01b039091166004820152306024820152604481018490526064016020604051808303816000875af11580156122ad573d6000803e3d6000fd5b505050506040513d601f19601f820116820180604052508101906122d191906130bf565b50600660006122de6126a8565b6001600160a01b03166001600160a01b03168152602001908152602001600020546000036123435760096123106126a8565b81546001810183556000928352602090922090910180546001600160a01b0319166001600160a01b039092169190911790555b80600660006123506126a8565b6001600160a01b03166001600160a01b03168152602001908152602001600020600082825461237f9190613135565b909155505060045481106123a6576001601460008282546123a09190613135565b90915550505b806123af6126a8565b6001600160a01b03167f21040858e63c11c046482f61f290bbe25972fc74b11b4570a01f9241082d21f160405160405180910390a350565b6060600880548060200260200160405190810160405280929190818152602001828054801561152a576020028201919060005260206000209081546001600160a01b0316815260019091019060200180831161150c575050505050905090565b6002546001600160a01b031661245b6126a8565b6001600160a01b0316146124815760405162461bcd60e51b815260040161078a90613067565b600280546001600160a01b0319166001600160a01b0392909216919091179055565b6000600e60006001600f546124b891906130f2565b815260200190815260200160002060010154905090565b6124d7612a4e565b6001600160a01b03811661250157604051631e4fbdf760e01b81526000600482015260240161078a565b610a8981612aac565b6002546001600160a01b031661251e6126a8565b6001600160a01b0316146125445760405162461bcd60e51b815260040161078a90613067565b6001600f541161258a5760405162461bcd60e51b815260206004820152601160248201527014d95d1d5c08199a5c9cdd081c9bdd5b99607a1b604482015260640161078a565b42600e60006001600f5461259e91906130f2565b81526020019081526020016000206001015411156125f75760405162461bcd60e51b8152602060048201526016602482015275149bdd5b99081a5cc81b9bdd08195b991959081e595d60521b604482015260640161078a565b6001600e60006001600f5461260c91906130f2565b815260200190815260200160002060040160016101000a81548160ff02191690831515021790555061266861263f6126a8565b604080516001600160a01b03909216602083015201604051602081830303815290604052612b63565b506126716126a8565b6001600160a01b03167fd802e7c7f1646e3318c03abed1e468bdf913f45331a68dc912a0d645eb646a4260405160405180910390a2565b60006126b2612c66565b905090565b6001600160a01b038116600081815260076020526040808220805460ff1916600190811790915560088054918201815583527ff3f7a9fe364faab93b216da50a3214154f22a0a2b415b23a84c8169e8b636ee30180546001600160a01b03191684179055517f1d4c260f1824cd028e6c9e6e31c3a0b94f2513e7a641113ec759d382f9bdd5a19190a250565b6002546001600160a01b03166127576126a8565b6001600160a01b03161461277d5760405162461bcd60e51b815260040161078a90613067565b6002600054600160a01b900460ff16600281111561279d5761279d612f8b565b146127e25760405162461bcd60e51b815260206004820152601560248201527414d85b19481a5cc81b9bdd08195b991959081e595d605a1b604482015260640161078a565b60095460008167ffffffffffffffff81111561280057612800612df9565b604051908082528060200260200182016040528015612829578160200160208202803683370190505b50905060005b8281101561289a576009818154811061284a5761284a6130a9565b9060005260206000200160009054906101000a90046001600160a01b031682828151811061287a5761287a6130a9565b6001600160a01b039092166020928302919091019091015260010161282f565b5060005b82811015612a0a5760008282815181106128ba576128ba6130a9565b6020908102919091018101516001600160a01b0381166000908152600683526040808220805490839055600790945290205490925060ff16156129875760006004548261290791906130f2565b600b5460405163a9059cbb60e01b81526001600160a01b0386811660048301526024820184905292935091169063a9059cbb906044016020604051808303816000875af115801561295c573d6000803e3d6000fd5b505050506040513d601f19601f8201168201806040525081019061298091906130bf565b5050612a00565b600b5460405163a9059cbb60e01b81526001600160a01b038481166004830152602482018490529091169063a9059cbb906044016020604051808303816000875af11580156129da573d6000803e3d6000fd5b505050506040513d601f19601f820116820180604052508101906129fe91906130bf565b505b505060010161289e565b50612a1760096000612d01565b6040518281527f01f8aef848121bbf182106b55119c1094063c572b6c8dcb09040e1203a17abf99060200160405180910390a15050565b612a566126a8565b6001600160a01b0316612a716000546001600160a01b031690565b6001600160a01b0316146117de57612a876126a8565b60405163118cdaa760e01b81526001600160a01b03909116600482015260240161078a565b600080546001600160a01b038381166001600160a01b0319831681178455604051919092169283917f8be0079c531659141344cd1fd0a4f28419497f9722a3daafe3b4186f6b6457e09190a35050565b82600e60006001600f54612b1091906130f2565b8152602001908152602001600020600301819055507f79518eb4b6f70742e6651b03a2ac2bc644ea2613e8de56247857c5be5fc2a0ba83604051612b5691815260200190565b60405180910390a1505050565b600c8054600180820180845560008490529192909183908110612b8857612b886130a9565b90600052602060002090602091828204019190066101000a81548160ff02191690831515021790555060008183604051602001612bc6929190613324565b60405160208183030381529060405290506000612be1612caa565b905060008183604051602001612bf8929190613324565b60408051601f1981840301815282825280516020808301919091206000898152600d9092529290208290559250907fd91fc3685b930310b008ec37d2334870cab88a023ed8cc628a2e2ccd4e55d20290612c559085908790613324565b60405180910390a150505050919050565b60007f00000000000000000000000000000000000000000000000000000000000000006001600160a01b03163303612ca5575060131936013560601c90565b503390565b600080612cbb6364e62127426130f2565b90506000612cca60038361318e565b612cd5906001613135565b905046600114612cef57612cea816001613135565b612cfa565b612cfa816004613135565b9250505090565b5080546000825590600052602060002090810190610a8991905b80821115612d2f5760008155600101612d1b565b5090565b600060208284031215612d4557600080fd5b5035919050565b80356001600160a01b0381168114612d6357600080fd5b919050565b600060208284031215612d7a57600080fd5b612d8382612d4c565b9392505050565b60008060408385031215612d9d57600080fd5b612da683612d4c565b946020939093013593505050565b8015158114610a8957600080fd5b60008060408385031215612dd557600080fd5b612dde83612d4c565b91506020830135612dee81612db4565b809150509250929050565b634e487b7160e01b600052604160045260246000fd5b604051610140810167ffffffffffffffff81118282101715612e3357612e33612df9565b60405290565b604051601f8201601f1916810167ffffffffffffffff81118282101715612e6257612e62612df9565b604052919050565b60006101408284031215612e7d57600080fd5b612e85612e0f565b612e8e83612d4c565b8152612e9c60208401612d4c565b6020820152612ead60408401612d4c565b6040820152606083013560608201526080830135608082015260a083013560a0820152612edc60c08401612d4c565b60c0820152612eed60e08401612d4c565b60e0820152610100612f00818501612d4c565b90820152610120612f12848201612d4c565b908201529392505050565b6020808252825182820181905260009190848201906040850190845b81811015612f5e5783516001600160a01b031683529284019291840191600101612f39565b50909695505050505050565b600060208284031215612f7c57600080fd5b813560038110612d8357600080fd5b634e487b7160e01b600052602160045260246000fd5b6020810160038310612fc357634e487b7160e01b600052602160045260246000fd5b91905290565b60008060408385031215612fdc57600080fd5b50508035926020909101359150565b60008060006040848603121561300057600080fd5b83359250602084013567ffffffffffffffff8082111561301f57600080fd5b818601915086601f83011261303357600080fd5b81358181111561304257600080fd5b87602082850101111561305457600080fd5b6020830194508093505050509250925092565b60208082526022908201527f4f6e6c792073656c6c65722063616e2063616c6c20746869732066756e63746960408201526137b760f11b606082015260800190565b634e487b7160e01b600052603260045260246000fd5b6000602082840312156130d157600080fd5b8151612d8381612db4565b634e487b7160e01b600052601160045260246000fd5b81810381811115613105576131056130dc565b92915050565b634e487b7160e01b600052601260045260246000fd5b6000826131305761313061310b565b500690565b80820180821115613105576131056130dc565b60006001820161315a5761315a6130dc565b5060010190565b634e487b7160e01b600052603160045260246000fd5b8082028115828204841417613105576131056130dc565b60008261319d5761319d61310b565b500490565b600067ffffffffffffffff8211156131bc576131bc612df9565b50601f01601f191660200190565b600080604083850312156131dd57600080fd5b82359150602083013567ffffffffffffffff8111156131fb57600080fd5b8301601f8101851361320c57600080fd5b803561321f61321a826131a2565b612e39565b81815286602083850101111561323457600080fd5b816020840160208301376000602083830101528093505050509250929050565b60005b8381101561326f578181015183820152602001613257565b50506000910152565b6000806040838503121561328b57600080fd5b82519150602083015167ffffffffffffffff8111156132a957600080fd5b8301601f810185136132ba57600080fd5b80516132c861321a826131a2565b8181528660208385010111156132dd57600080fd5b6132ee826020830160208601613254565b8093505050509250929050565b8183823760009101908152919050565b60006020828403121561331d57600080fd5b5051919050565b8281526040602082015260008251806040840152613349816060850160208701613254565b601f01601f191691909101606001939250505056fea2646970667358221220c75ab772416ed8931b95b2d8757c9a4bf4a6c7b631634cbdc36d714707e45ad164736f6c63430008190033","linkReferences":{}},"methodIdentifiers":{"GET_BLOCK_TIMESTAMP()":"8e534ca3","GET_CONDITION_OF_REQ_RAND()":"55279b58","GET_LAST_ROUND_FINISH_AT()":"eb264323","buyerWithdraw()":"7cc947d0","changeLotteryState(uint8)":"683e93e1","deposit(uint256)":"b6b55f25","deposits(address)":"fc7e286d","endLottery()":"1593a8c7","fulfillRandomness(uint256,bytes)":"b3f6b99a","getDepositedAmount(address)":"e9081ec7","getParticipants()":"5aa68ac0","getWinners()":"df15c37e","hasMinted(address)":"38e21cce","increasePriceStep()":"96efac7b","initialPrice()":"1d0806ae","initialize((address,address,address,uint256,uint256,uint256,address,address,address,address))":"56d7c73a","isTrustedForwarder(address)":"572b6c05","isWinner(address)":"9d9ca28d","lotteryState()":"6939864b","lotteryV2Addr()":"7de13382","mintMyNFT()":"26170480","multisigWalletAddress()":"a61fb2ba","nftContractAddr()":"2c23ec8e","numberOfTickets()":"45745c10","operatorAddr()":"f3f18c37","operators(address)":"13e7c9d8","owner()":"8da5cb5b","prevRoundDeposits()":"b680e44b","prevRoundTicketsAmount()":"224f91bd","renounceOwnership()":"715018a6","requestPending(uint256)":"75ce7fff","requestRandomness()":"f8413b07","requestedHash(uint256)":"c4f8f27b","roundCounter()":"febc14b1","rounds(uint256)":"8c65c81f","selectWinners()":"1a0de74c","seller()":"08551a53","sellerWithdraw()":"66af746b","setOperator(address,bool)":"558a7297","setSeller(address)":"e99d2866","setupNewRound(uint256,uint256)":"a4f03c02","startLottery()":"160344e2","ticketPrice()":"1209b1f6","totalNumberOfTickets()":"00746702","transferDeposit(address,uint256)":"50f3dbec","transferNonWinnerBids(address)":"1630a8df","transferOwnership(address)":"f2fde38b","usdcContractAddr()":"99dbf4b5","winnerAddresses(uint256)":"045f9c97","winners(address)":"6bd5450a"},"id":6}