{"abi":[{"type":"function","name":"Deposits","inputs":[{"name":"","type":"address","internalType":"address"}],"outputs":[{"name":"amount","type":"uint256","internalType":"uint256"},{"name":"statsAmount","type":"uint256","internalType":"uint256"},{"name":"timestamp","type":"uint256","internalType":"uint256"},{"name":"isWinner","type":"bool","internalType":"bool"}],"stateMutability":"view"},{"type":"function","name":"auctionV1Addr","inputs":[],"outputs":[{"name":"","type":"address","internalType":"address"}],"stateMutability":"view"},{"type":"function","name":"buyerWithdraw","inputs":[],"outputs":[],"stateMutability":"nonpayable"},{"type":"function","name":"changeLotteryState","inputs":[{"name":"_newState","type":"uint8","internalType":"enum SaleBase.LotteryState"}],"outputs":[],"stateMutability":"nonpayable"},{"type":"function","name":"deposit","inputs":[{"name":"amount","type":"uint256","internalType":"uint256"}],"outputs":[],"stateMutability":"nonpayable"},{"type":"function","name":"deposits","inputs":[{"name":"","type":"address","internalType":"address"}],"outputs":[{"name":"","type":"uint256","internalType":"uint256"}],"stateMutability":"view"},{"type":"function","name":"endLottery","inputs":[],"outputs":[],"stateMutability":"nonpayable"},{"type":"function","name":"getDepositedAmount","inputs":[{"name":"participant","type":"address","internalType":"address"}],"outputs":[{"name":"","type":"uint256","internalType":"uint256"}],"stateMutability":"view"},{"type":"function","name":"getParticipants","inputs":[],"outputs":[{"name":"","type":"address[]","internalType":"address[]"}],"stateMutability":"view"},{"type":"function","name":"getWinners","inputs":[],"outputs":[{"name":"","type":"address[]","internalType":"address[]"}],"stateMutability":"view"},{"type":"function","name":"hasMinted","inputs":[{"name":"","type":"address","internalType":"address"}],"outputs":[{"name":"","type":"bool","internalType":"bool"}],"stateMutability":"view"},{"type":"function","name":"initialPrice","inputs":[],"outputs":[{"name":"","type":"uint256","internalType":"uint256"}],"stateMutability":"view"},{"type":"function","name":"initialize","inputs":[{"name":"config","type":"tuple","internalType":"struct StructsLibrary.IAuctionV2BaseConfig","components":[{"name":"_seller","type":"address","internalType":"address"},{"name":"_owner","type":"address","internalType":"address"},{"name":"_ticketAmount","type":"uint256","internalType":"uint256"},{"name":"_ticketPrice","type":"uint256","internalType":"uint256"},{"name":"_usdcContractAddr","type":"address","internalType":"address"},{"name":"_nftContractAddr","type":"address","internalType":"address"},{"name":"_multisigWalletAddress","type":"address","internalType":"address"},{"name":"_prevPhaseContractAddr","type":"address","internalType":"address"}]}],"outputs":[],"stateMutability":"nonpayable"},{"type":"function","name":"isParticipant","inputs":[{"name":"_participant","type":"address","internalType":"address"}],"outputs":[{"name":"","type":"bool","internalType":"bool"}],"stateMutability":"view"},{"type":"function","name":"isTrustedForwarder","inputs":[{"name":"forwarder","type":"address","internalType":"address"}],"outputs":[{"name":"","type":"bool","internalType":"bool"}],"stateMutability":"view"},{"type":"function","name":"isWinner","inputs":[{"name":"_participant","type":"address","internalType":"address"}],"outputs":[{"name":"","type":"bool","internalType":"bool"}],"stateMutability":"view"},{"type":"function","name":"lotteryState","inputs":[],"outputs":[{"name":"","type":"uint8","internalType":"enum SaleBase.LotteryState"}],"stateMutability":"view"},{"type":"function","name":"mintMyNFT","inputs":[],"outputs":[],"stateMutability":"nonpayable"},{"type":"function","name":"multisigWalletAddress","inputs":[],"outputs":[{"name":"","type":"address","internalType":"address"}],"stateMutability":"view"},{"type":"function","name":"nftContractAddr","inputs":[],"outputs":[{"name":"","type":"address","internalType":"address"}],"stateMutability":"view"},{"type":"function","name":"numberOfTickets","inputs":[],"outputs":[{"name":"","type":"uint256","internalType":"uint256"}],"stateMutability":"view"},{"type":"function","name":"operators","inputs":[{"name":"","type":"address","internalType":"address"}],"outputs":[{"name":"","type":"bool","internalType":"bool"}],"stateMutability":"view"},{"type":"function","name":"owner","inputs":[],"outputs":[{"name":"","type":"address","internalType":"address"}],"stateMutability":"view"},{"type":"function","name":"renounceOwnership","inputs":[],"outputs":[],"stateMutability":"nonpayable"},{"type":"function","name":"selectWinners","inputs":[],"outputs":[],"stateMutability":"nonpayable"},{"type":"function","name":"seller","inputs":[],"outputs":[{"name":"","type":"address","internalType":"address"}],"stateMutability":"view"},{"type":"function","name":"setOperator","inputs":[{"name":"_operator","type":"address","internalType":"address"},{"name":"_flag","type":"bool","internalType":"bool"}],"outputs":[],"stateMutability":"nonpayable"},{"type":"function","name":"setSeller","inputs":[{"name":"_seller","type":"address","internalType":"address"}],"outputs":[],"stateMutability":"nonpayable"},{"type":"function","name":"sortDepositsDesc","inputs":[],"outputs":[],"stateMutability":"nonpayable"},{"type":"function","name":"startLottery","inputs":[],"outputs":[],"stateMutability":"nonpayable"},{"type":"function","name":"ticketPrice","inputs":[],"outputs":[{"name":"","type":"uint256","internalType":"uint256"}],"stateMutability":"view"},{"type":"function","name":"totalAmountForSeller","inputs":[],"outputs":[{"name":"","type":"uint256","internalType":"uint256"}],"stateMutability":"view"},{"type":"function","name":"transferDeposit","inputs":[{"name":"_participant","type":"address","internalType":"address"},{"name":"_amount","type":"uint256","internalType":"uint256"}],"outputs":[],"stateMutability":"nonpayable"},{"type":"function","name":"transferOwnership","inputs":[{"name":"newOwner","type":"address","internalType":"address"}],"outputs":[],"stateMutability":"nonpayable"},{"type":"function","name":"usdcContractAddr","inputs":[],"outputs":[{"name":"","type":"address","internalType":"address"}],"stateMutability":"view"},{"type":"function","name":"winnerAddresses","inputs":[{"name":"","type":"uint256","internalType":"uint256"}],"outputs":[{"name":"","type":"address","internalType":"address"}],"stateMutability":"view"},{"type":"function","name":"winners","inputs":[{"name":"","type":"address","internalType":"address"}],"outputs":[{"name":"","type":"bool","internalType":"bool"}],"stateMutability":"view"},{"type":"event","name":"BuyerDeposited","inputs":[{"name":"buyer","type":"address","indexed":true,"internalType":"address"},{"name":"amount","type":"uint256","indexed":true,"internalType":"uint256"}],"anonymous":false},{"type":"event","name":"BuyerWithdrew","inputs":[{"name":"buyer","type":"address","indexed":true,"internalType":"address"},{"name":"amount","type":"uint256","indexed":true,"internalType":"uint256"}],"anonymous":false},{"type":"event","name":"DepositsReturned","inputs":[{"name":"returnedDepositsCount","type":"uint256","indexed":false,"internalType":"uint256"}],"anonymous":false},{"type":"event","name":"Initialized","inputs":[{"name":"version","type":"uint64","indexed":false,"internalType":"uint64"}],"anonymous":false},{"type":"event","name":"LotteryEnded","inputs":[],"anonymous":false},{"type":"event","name":"LotteryStarted","inputs":[],"anonymous":false},{"type":"event","name":"OwnershipTransferred","inputs":[{"name":"previousOwner","type":"address","indexed":true,"internalType":"address"},{"name":"newOwner","type":"address","indexed":true,"internalType":"address"}],"anonymous":false},{"type":"event","name":"WinnerSelected","inputs":[{"name":"winner","type":"address","indexed":true,"internalType":"address"}],"anonymous":false},{"type":"error","name":"InvalidInitialization","inputs":[]},{"type":"error","name":"NotInitializing","inputs":[]},{"type":"error","name":"OwnableInvalidOwner","inputs":[{"name":"owner","type":"address","internalType":"address"}]},{"type":"error","name":"OwnableUnauthorizedAccount","inputs":[{"name":"account","type":"address","internalType":"address"}]}],"bytecode":{"object":"0x60a060405234801561001057600080fd5b5073d8253782c45a12053594b9deb72d8e8ab2fca54c338061004c57604051631e4fbdf760e01b81526000600482015260240160405180910390fd5b6100558161006f565b506001600160a01b031660805261006a6100bf565b610171565b600080546001600160a01b038381166001600160a01b0319831681178455604051919092169283917f8be0079c531659141344cd1fd0a4f28419497f9722a3daafe3b4186f6b6457e09190a35050565b7ff0c57e16840df040f15088dc2f81fe391c3923bec73e23a9662efc9c229c6a00805468010000000000000000900460ff161561010f5760405163f92ee8a960e01b815260040160405180910390fd5b80546001600160401b039081161461016e5780546001600160401b0319166001600160401b0390811782556040519081527fc7f505b2f371ae2175ee4913f4499e1f2633a7b5936321eed1cdaeb6115181d29060200160405180910390a15b50565b6080516123f8610193600039600081816103c60152611ead01526123f86000f3fe608060405234801561001057600080fd5b50600436106102275760003560e01c8063683e93e1116101305780639d9ca28d116100b8578063df15c37e1161007c578063df15c37e1461051f578063e9081ec714610527578063e99d286614610550578063f2fde38b14610563578063fc7e286d1461057657600080fd5b80639d9ca28d146104b1578063a61fb2ba146104dd578063b6b55f25146104f0578063c6ec99ab14610503578063da59a0dd1461051657600080fd5b80637cc947d0116100ff5780637cc947d01461046a5780638da5cb5b14610472578063929066f51461048357806399dbf4b5146104965780639abb8247146104a957600080fd5b8063683e93e11461040b5780636939864b1461041e5780636bd5450a1461043f578063715018a61461046257600080fd5b806326170480116101b357806345745c101161018257806345745c101461038757806350f3dbec14610390578063558a7297146103a3578063572b6c05146103b65780635aa68ac0146103f657600080fd5b806326170480146102ef5780632c23ec8e146102f757806338e21cce1461030a5780633ee2d7c21461032d57600080fd5b806313e7c9d8116101fa57806313e7c9d81461029b5780631593a8c7146102ce578063160344e2146102d65780631a0de74c146102de5780631d0806ae146102e657600080fd5b8063045f9c971461022c57806308551a531461025c578063118bf0a11461026f5780631209b1f614610284575b600080fd5b61023f61023a366004612055565b610596565b6040516001600160a01b0390911681526020015b60405180910390f35b60025461023f906001600160a01b031681565b61028261027d3660046120a0565b6105c0565b005b61028d60045481565b604051908152602001610253565b6102be6102a9366004612165565b600e6020526000908152604090205460ff1681565b6040519015158152602001610253565b61028261076b565b6102826107e3565b6102826108be565b61028d600f5481565b610282610b5c565b600b5461023f906001600160a01b031681565b6102be610318366004612165565b60066020526000908152604090205460ff1681565b61036561033b366004612165565b600d6020526000908152604090208054600182015460028301546003909301549192909160ff1684565b6040805194855260208501939093529183015215156060820152608001610253565b61028d60035481565b61028261039e366004612187565b610d29565b6102826103b13660046121bf565b610e8c565b6102be6103c4366004612165565b7f00000000000000000000000000000000000000000000000000000000000000006001600160a01b0390811691161490565b6103fe610ebf565b60405161025391906121f6565b610282610419366004612243565b610f21565b60005461043290600160a01b900460ff1681565b604051610253919061227a565b6102be61044d366004612165565b60086020526000908152604090205460ff1681565b610282610f88565b610282610f9c565b6000546001600160a01b031661023f565b6102be610491366004612165565b6111d6565b600c5461023f906001600160a01b031681565b610282611235565b6102be6104bf366004612165565b6001600160a01b031660009081526008602052604090205460ff1690565b60015461023f906001600160a01b031681565b6102826104fe366004612055565b611533565b60105461023f906001600160a01b031681565b61028d60055481565b6103fe611989565b61028d610535366004612165565b6001600160a01b03166000908152600d602052604090205490565b61028261055e366004612165565b6119e9565b610282610571366004612165565b611a45565b61028d610584366004612165565b60076020526000908152604090205481565b600981815481106105a657600080fd5b6000918252602090912001546001600160a01b0316905081565b7ff0c57e16840df040f15088dc2f81fe391c3923bec73e23a9662efc9c229c6a008054600160401b810460ff16159067ffffffffffffffff166000811580156106065750825b905060008267ffffffffffffffff1660011480156106235750303b155b905081158015610631575080155b1561064f5760405163f92ee8a960e01b815260040160405180910390fd5b845467ffffffffffffffff19166001178555831561067957845460ff60401b1916600160401b1785555b8551600280546001600160a01b0319166001600160a01b0390921691909117905560208601516106a890611a7c565b604086015160035560608601516004819055600f556080860151600c80546001600160a01b039283166001600160a01b03199182161790915560a0880151600b805491841691831691909117905560c08801516001805491841691831691909117905560e088015160108054919093169116179055831561076357845460ff60401b19168555604051600181527fc7f505b2f371ae2175ee4913f4499e1f2633a7b5936321eed1cdaeb6115181d29060200160405180910390a15b505050505050565b6002546001600160a01b031661077f611acc565b6001600160a01b0316146107ae5760405162461bcd60e51b81526004016107a5906122a2565b60405180910390fd5b6107b86002610f21565b6040517f9c89a6ed7228533196a3f962acc80d61a9c53bdea6b910741bf754f5aaa7569e90600090a1565b6002546001600160a01b03166107f7611acc565b6001600160a01b03161461081d5760405162461bcd60e51b81526004016107a5906122a2565b60008054600160a01b900460ff16600281111561083c5761083c612264565b146108895760405162461bcd60e51b815260206004820152601760248201527f53616c6520697320696e2061637469766520737461746500000000000000000060448201526064016107a5565b6108936001610f21565b6040517fd029c7c68d943f92286a7825fa6aa2deefa1eee46cee6c91b7e483fd06d27baf90600090a1565b6002546001600160a01b03166108d2611acc565b6001600160a01b0316146108f85760405162461bcd60e51b81526004016107a5906122a2565b60006003541161094a5760405162461bcd60e51b815260206004820152601b60248201527f4e6f207469636b657473206c65667420746f20616c6c6f63617465000000000060448201526064016107a5565b600a5460035410610a015760005b600a548110156109fb576000600a8281548110610977576109776122e4565b6000918252602090912001546001600160a01b031690506109b0816001600160a01b031660009081526008602052604090205460ff1690565b6109f2576109bd81611adb565b6040516001600160a01b038216907f1d4c260f1824cd028e6c9e6e31c3a0b94f2513e7a641113ec759d382f9bdd5a190600090a25b50600101610958565b50610b41565b610a09611235565b6000600d6000600a6001600354610a209190612310565b81548110610a3057610a306122e4565b60009182526020808320909101546001600160a01b0316835282019290925260400181205491505b600354811015610b3e5781600d6000600a8481548110610a7a57610a7a6122e4565b60009182526020808320909101546001600160a01b0316835282019290925260400190205410610b36576000600a8281548110610ab957610ab96122e4565b6000918252602090912001546001600160a01b03169050610af2816001600160a01b031660009081526008602052604090205460ff1690565b610b3457610aff81611adb565b6040516001600160a01b038216907f1d4c260f1824cd028e6c9e6e31c3a0b94f2513e7a641113ec759d382f9bdd5a190600090a25b505b600101610a58565b50505b6000805460ff60a01b1916600160a11b1790556107b8611bb7565b60066000610b68611acc565b6001600160a01b0316815260208101919091526040016000205460ff1615610bc75760405162461bcd60e51b815260206004820152601260248201527113919508185b1c9958591e481b5a5b9d195960721b60448201526064016107a5565b610bd26104bf611acc565b610c175760405162461bcd60e51b815260206004820152601660248201527521b0b63632b91034b9903737ba1030903bb4b73732b960511b60448201526064016107a5565b600060035411610c695760405162461bcd60e51b815260206004820152601b60248201527f4e6f207469636b657473206c65667420746f20616c6c6f63617465000000000060448201526064016107a5565b600160066000610c77611acc565b6001600160a01b0316815260208101919091526040016000908120805460ff1916921515929092179091556003805491610cb083612329565b9091555050600b546001600160a01b0316636b8f60f6610cce611acc565b6040516001600160e01b031960e084901b1681526001600160a01b039091166004820152602401600060405180830381600087803b158015610d0f57600080fd5b505af1158015610d23573d6000803e3d6000fd5b50505050565b610d31611acc565b6010546001600160a01b03908116911614610d9e5760405162461bcd60e51b815260206004820152602760248201527f4f6e6c792077686974656c6973746564206d61792063616c6c207468697320666044820152663ab731ba34b7b760c91b60648201526084016107a5565b610da7826111d6565b15610ddf576001600160a01b0382166000908152600d602052604081208054839290610dd4908490612340565b90915550610e889050565b604080516080810182528281526020808201848152428385019081526000606085018181526001600160a01b038916808352600d9095529581209451855591516001808601919091559051600285015593516003909301805460ff191693151593909317909255600a805493840181559091527fc65a7bb8d6351c1cf70c95a316cc6a92839c986682d98bc35f958f4883f9d2a890910180546001600160a01b03191690911790555b5050565b610e94611e4b565b6001600160a01b03919091166000908152600e60205260409020805460ff1916911515919091179055565b6060600a805480602002602001604051908101604052809291908181526020018280548015610f1757602002820191906000526020600020905b81546001600160a01b03168152600190910190602001808311610ef9575b5050505050905090565b6002546001600160a01b0316610f35611acc565b6001600160a01b031614610f5b5760405162461bcd60e51b81526004016107a5906122a2565b6000805482919060ff60a01b1916600160a01b836002811115610f8057610f80612264565b021790555050565b610f90611e4b565b610f9a6000611a7c565b565b6002600054600160a01b900460ff166002811115610fbc57610fbc612264565b146110015760405162461bcd60e51b815260206004820152601560248201527414d85b19481a5cc81b9bdd08195b991959081e595d605a1b60448201526064016107a5565b6008600061100d611acc565b6001600160a01b0316815260208101919091526040016000205460ff16156110775760405162461bcd60e51b815260206004820152601760248201527f57696e6e6572732063616e6e6f7420776974686472617700000000000000000060448201526064016107a5565b6000600d6000611085611acc565b6001600160a01b031681526020810191909152604001600020549050806110e55760405162461bcd60e51b81526020600482015260146024820152734e6f2066756e647320746f20776974686472617760601b60448201526064016107a5565b6000600d60006110f3611acc565b6001600160a01b039081168252602082019290925260400160002091909155600c541663a9059cbb611123611acc565b6040516001600160e01b031960e084901b1681526001600160a01b039091166004820152602481018490526044016020604051808303816000875af1158015611170573d6000803e3d6000fd5b505050506040513d601f19601f820116820180604052508101906111949190612353565b508061119e611acc565b6001600160a01b03167f1f280cd00e67ed50213ac03febd5be151f96b7f7db2f85312aa0feff99f8bdab60405160405180910390a350565b6000805b600a5481101561122c57826001600160a01b0316600a8281548110611201576112016122e4565b6000918252602090912001546001600160a01b0316036112245750600192915050565b6001016111da565b50600092915050565b6002546001600160a01b0316611249611acc565b6001600160a01b03161461126f5760405162461bcd60e51b81526004016107a5906122a2565b60005b600a54811015611530576000611289826001612340565b90505b600a5481101561152757600d6000600a83815481106112ad576112ad6122e4565b60009182526020808320909101546001600160a01b03168352820192909252604001812054600a80549192600d92909190869081106112ee576112ee6122e4565b60009182526020808320909101546001600160a01b0316835282019290925260400190205410806114395750600d6000600a8381548110611331576113316122e4565b60009182526020808320909101546001600160a01b03168352820192909252604001812054600a80549192600d9290919086908110611372576113726122e4565b60009182526020808320909101546001600160a01b031683528201929092526040019020541480156114395750600d6000600a83815481106113b6576113b66122e4565b9060005260206000200160009054906101000a90046001600160a01b03166001600160a01b03166001600160a01b0316815260200190815260200160002060020154600d6000600a858154811061140f5761140f6122e4565b60009182526020808320909101546001600160a01b03168352820192909252604001902060020154115b1561151f576000600a8381548110611453576114536122e4565b600091825260209091200154600a80546001600160a01b0390921692509083908110611481576114816122e4565b600091825260209091200154600a80546001600160a01b0390921691859081106114ad576114ad6122e4565b9060005260206000200160006101000a8154816001600160a01b0302191690836001600160a01b0316021790555080600a83815481106114ef576114ef6122e4565b9060005260206000200160006101000a8154816001600160a01b0302191690836001600160a01b03160217905550505b60010161128c565b50600101611272565b50565b6001600054600160a01b900460ff16600281111561155357611553612264565b146115955760405162461bcd60e51b815260206004820152601260248201527153616c65206973206e6f742061637469766560701b60448201526064016107a5565b6115a06104bf611acc565b156115e65760405162461bcd60e51b815260206004820152601660248201527515da5b9b995c9cc818d85b9b9bdd0819195c1bdcda5d60521b60448201526064016107a5565b600c546001600160a01b031661163e5760405162461bcd60e51b815260206004820152601d60248201527f5553444320636f6e74726163742061646472657373206e6f742073657400000060448201526064016107a5565b600f548110156116905760405162461bcd60e51b815260206004820152601760248201527f496e73756666696369656e742066756e64732073656e7400000000000000000060448201526064016107a5565b600c5481906001600160a01b031663dd62ed3e6116ab611acc565b6040516001600160e01b031960e084901b1681526001600160a01b039091166004820152306024820152604401602060405180830381865afa1580156116f5573d6000803e3d6000fd5b505050506040513d601f19601f820116820180604052508101906117199190612370565b10156117605760405162461bcd60e51b8152602060048201526016602482015275496e73756666696369656e7420616c6c6f77616e636560501b60448201526064016107a5565b600c546001600160a01b03166323b872dd611779611acc565b6040516001600160e01b031960e084901b1681526001600160a01b039091166004820152306024820152604481018490526064016020604051808303816000875af11580156117cc573d6000803e3d6000fd5b505050506040513d601f19601f820116820180604052508101906117f09190612353565b506117fc610491611acc565b156118905780600d600061180e611acc565b6001600160a01b03166001600160a01b0316815260200190815260200160002060000160008282546118409190612340565b90915550819050600d6000611853611acc565b6001600160a01b03166001600160a01b0316815260200190815260200160002060010160008282546118859190612340565b909155506119489050565b604051806080016040528082815260200182815260200142815260200160001515815250600d60006118c0611acc565b6001600160a01b0316815260208082019290925260409081016000208351815591830151600183015582015160028201556060909101516003909101805460ff1916911515919091179055600a611915611acc565b81546001810183556000928352602090922090910180546001600160a01b0319166001600160a01b039092169190911790555b80611951611acc565b6001600160a01b03167f21040858e63c11c046482f61f290bbe25972fc74b11b4570a01f9241082d21f160405160405180910390a350565b60606009805480602002602001604051908101604052809291908181526020018280548015610f17576020028201919060005260206000209081546001600160a01b03168152600190910190602001808311610ef9575050505050905090565b6002546001600160a01b03166119fd611acc565b6001600160a01b031614611a235760405162461bcd60e51b81526004016107a5906122a2565b600280546001600160a01b0319166001600160a01b0392909216919091179055565b611a4d611e4b565b6001600160a01b038116611a7757604051631e4fbdf760e01b8152600060048201526024016107a5565b611530815b600080546001600160a01b038381166001600160a01b0319831681178455604051919092169283917f8be0079c531659141344cd1fd0a4f28419497f9722a3daafe3b4186f6b6457e09190a35050565b6000611ad6611ea9565b905090565b6002546001600160a01b0316611aef611acc565b6001600160a01b031614611b155760405162461bcd60e51b81526004016107a5906122a2565b6001600160a01b03811660008181526008602090815260408083208054600160ff199182168117909255600980548084019091557f6e1540171b6c0c960b71a7020d9f60077f6af931a8bbf590da0223dacf75c7af0180546001600160a01b03191687179055600d909352818420600301805490931617909155517f1d4c260f1824cd028e6c9e6e31c3a0b94f2513e7a641113ec759d382f9bdd5a19190a250565b6002546001600160a01b0316611bcb611acc565b6001600160a01b031614611bf15760405162461bcd60e51b81526004016107a5906122a2565b6002600054600160a01b900460ff166002811115611c1157611c11612264565b14611c565760405162461bcd60e51b815260206004820152601560248201527414d85b19481a5cc81b9bdd08195b991959081e595d605a1b60448201526064016107a5565b600a5460008167ffffffffffffffff811115611c7457611c7461206e565b604051908082528060200260200182016040528015611c9d578160200160208202803683370190505b50905060005b82811015611d0e57600a8181548110611cbe57611cbe6122e4565b9060005260206000200160009054906101000a90046001600160a01b0316828281518110611cee57611cee6122e4565b6001600160a01b0390921660209283029190910190910152600101611ca3565b5060005b82811015611e0b576000828281518110611d2e57611d2e6122e4565b6020908102919091018101516001600160a01b0381166000908152600d83526040808220805490839055600890945290205490925060ff1615611d88578060056000828254611d7d9190612340565b90915550611e019050565b600c5460405163a9059cbb60e01b81526001600160a01b038481166004830152602482018490529091169063a9059cbb906044016020604051808303816000875af1158015611ddb573d6000803e3d6000fd5b505050506040513d601f19601f82011682018060405250810190611dff9190612353565b505b5050600101611d12565b50611e14611eed565b6040518281527f01f8aef848121bbf182106b55119c1094063c572b6c8dcb09040e1203a17abf99060200160405180910390a15050565b611e53611acc565b6001600160a01b0316611e6e6000546001600160a01b031690565b6001600160a01b031614610f9a57611e84611acc565b60405163118cdaa760e01b81526001600160a01b0390911660048201526024016107a5565b60007f00000000000000000000000000000000000000000000000000000000000000006001600160a01b03163303611ee8575060131936013560601c90565b503390565b6002546001600160a01b0316611f01611acc565b6001600160a01b031614611f275760405162461bcd60e51b81526004016107a5906122a2565b600060646005546005611f3a9190612389565b611f4491906123a0565b9050600081600554611f569190612310565b6000600555600c5460015460405163a9059cbb60e01b81526001600160a01b03918216600482015260248101869052929350169063a9059cbb906044016020604051808303816000875af1158015611fb2573d6000803e3d6000fd5b505050506040513d601f19601f82011682018060405250810190611fd69190612353565b50600c5460025460405163a9059cbb60e01b81526001600160a01b0391821660048201526024810184905291169063a9059cbb906044016020604051808303816000875af115801561202c573d6000803e3d6000fd5b505050506040513d601f19601f820116820180604052508101906120509190612353565b505050565b60006020828403121561206757600080fd5b5035919050565b634e487b7160e01b600052604160045260246000fd5b80356001600160a01b038116811461209b57600080fd5b919050565b60006101008083850312156120b457600080fd5b6040519081019067ffffffffffffffff821181831017156120e557634e487b7160e01b600052604160045260246000fd5b816040526120f284612084565b815261210060208501612084565b6020820152604084013560408201526060840135606082015261212560808501612084565b608082015261213660a08501612084565b60a082015261214760c08501612084565b60c082015261215860e08501612084565b60e0820152949350505050565b60006020828403121561217757600080fd5b61218082612084565b9392505050565b6000806040838503121561219a57600080fd5b6121a383612084565b946020939093013593505050565b801515811461153057600080fd5b600080604083850312156121d257600080fd5b6121db83612084565b915060208301356121eb816121b1565b809150509250929050565b6020808252825182820181905260009190848201906040850190845b818110156122375783516001600160a01b031683529284019291840191600101612212565b50909695505050505050565b60006020828403121561225557600080fd5b81356003811061218057600080fd5b634e487b7160e01b600052602160045260246000fd5b602081016003831061229c57634e487b7160e01b600052602160045260246000fd5b91905290565b60208082526022908201527f4f6e6c792073656c6c65722063616e2063616c6c20746869732066756e63746960408201526137b760f11b606082015260800190565b634e487b7160e01b600052603260045260246000fd5b634e487b7160e01b600052601160045260246000fd5b81810381811115612323576123236122fa565b92915050565b600081612338576123386122fa565b506000190190565b80820180821115612323576123236122fa565b60006020828403121561236557600080fd5b8151612180816121b1565b60006020828403121561238257600080fd5b5051919050565b8082028115828204841417612323576123236122fa565b6000826123bd57634e487b7160e01b600052601260045260246000fd5b50049056fea264697066735822122069d88ce67da8c5ef734df25773084c1638f8c06c08c71dd23e343d1bc64fc8da64736f6c63430008190033","linkReferences":{}},"methodIdentifiers":{"Deposits(address)":"3ee2d7c2","auctionV1Addr()":"c6ec99ab","buyerWithdraw()":"7cc947d0","changeLotteryState(uint8)":"683e93e1","deposit(uint256)":"b6b55f25","deposits(address)":"fc7e286d","endLottery()":"1593a8c7","getDepositedAmount(address)":"e9081ec7","getParticipants()":"5aa68ac0","getWinners()":"df15c37e","hasMinted(address)":"38e21cce","initialPrice()":"1d0806ae","initialize((address,address,uint256,uint256,address,address,address,address))":"118bf0a1","isParticipant(address)":"929066f5","isTrustedForwarder(address)":"572b6c05","isWinner(address)":"9d9ca28d","lotteryState()":"6939864b","mintMyNFT()":"26170480","multisigWalletAddress()":"a61fb2ba","nftContractAddr()":"2c23ec8e","numberOfTickets()":"45745c10","operators(address)":"13e7c9d8","owner()":"8da5cb5b","renounceOwnership()":"715018a6","selectWinners()":"1a0de74c","seller()":"08551a53","setOperator(address,bool)":"558a7297","setSeller(address)":"e99d2866","sortDepositsDesc()":"9abb8247","startLottery()":"160344e2","ticketPrice()":"1209b1f6","totalAmountForSeller()":"da59a0dd","transferDeposit(address,uint256)":"50f3dbec","transferOwnership(address)":"f2fde38b","usdcContractAddr()":"99dbf4b5","winnerAddresses(uint256)":"045f9c97","winners(address)":"6bd5450a"},"id":4}