{"abi":[{"type":"function","name":"buyerWithdraw","inputs":[],"outputs":[],"stateMutability":"nonpayable"},{"type":"function","name":"changeLotteryState","inputs":[{"name":"_newState","type":"uint8","internalType":"enum SaleBase.LotteryState"}],"outputs":[],"stateMutability":"nonpayable"},{"type":"function","name":"deposit","inputs":[{"name":"amount","type":"uint256","internalType":"uint256"}],"outputs":[],"stateMutability":"nonpayable"},{"type":"function","name":"deposits","inputs":[{"name":"","type":"address","internalType":"address"}],"outputs":[{"name":"","type":"uint256","internalType":"uint256"}],"stateMutability":"view"},{"type":"function","name":"endLottery","inputs":[],"outputs":[],"stateMutability":"nonpayable"},{"type":"function","name":"fulfillRandomness","inputs":[{"name":"randomness","type":"uint256","internalType":"uint256"},{"name":"dataWithRound","type":"bytes","internalType":"bytes"}],"outputs":[],"stateMutability":"nonpayable"},{"type":"function","name":"getDepositedAmount","inputs":[{"name":"participant","type":"address","internalType":"address"}],"outputs":[{"name":"","type":"uint256","internalType":"uint256"}],"stateMutability":"view"},{"type":"function","name":"getDepositedAmountForRound","inputs":[{"name":"participant","type":"address","internalType":"address"},{"name":"roundIndex","type":"uint256","internalType":"uint256"}],"outputs":[{"name":"","type":"uint256","internalType":"uint256"}],"stateMutability":"view"},{"type":"function","name":"getParticipants","inputs":[],"outputs":[{"name":"","type":"address[]","internalType":"address[]"}],"stateMutability":"view"},{"type":"function","name":"getParticipantsForRound","inputs":[{"name":"roundIndex","type":"uint256","internalType":"uint256"}],"outputs":[{"name":"","type":"address[]","internalType":"address[]"}],"stateMutability":"view"},{"type":"function","name":"getWinners","inputs":[],"outputs":[{"name":"","type":"address[]","internalType":"address[]"}],"stateMutability":"view"},{"type":"function","name":"hasMinted","inputs":[{"name":"","type":"address","internalType":"address"}],"outputs":[{"name":"","type":"bool","internalType":"bool"}],"stateMutability":"view"},{"type":"function","name":"increasePriceStep","inputs":[],"outputs":[{"name":"","type":"uint256","internalType":"uint256"}],"stateMutability":"view"},{"type":"function","name":"initialPrice","inputs":[],"outputs":[{"name":"","type":"uint256","internalType":"uint256"}],"stateMutability":"view"},{"type":"function","name":"initialize","inputs":[{"name":"config","type":"tuple","internalType":"struct StructsLibrary.IAuctionV1BaseConfig","components":[{"name":"_seller","type":"address","internalType":"address"},{"name":"_gelatoVrfOperator","type":"address","internalType":"address"},{"name":"_owner","type":"address","internalType":"address"},{"name":"_ticketAmount","type":"uint256","internalType":"uint256"},{"name":"_ticketPrice","type":"uint256","internalType":"uint256"},{"name":"_priceIncreaseStep","type":"uint256","internalType":"uint256"},{"name":"_usdcContractAddr","type":"address","internalType":"address"},{"name":"_nftContractAddr","type":"address","internalType":"address"},{"name":"_multisigWalletAddress","type":"address","internalType":"address"},{"name":"_prevPhaseContractAddr","type":"address","internalType":"address"}]}],"outputs":[],"stateMutability":"nonpayable"},{"type":"function","name":"isTrustedForwarder","inputs":[{"name":"forwarder","type":"address","internalType":"address"}],"outputs":[{"name":"","type":"bool","internalType":"bool"}],"stateMutability":"view"},{"type":"function","name":"isWinner","inputs":[{"name":"_participant","type":"address","internalType":"address"}],"outputs":[{"name":"","type":"bool","internalType":"bool"}],"stateMutability":"view"},{"type":"function","name":"lotteryState","inputs":[],"outputs":[{"name":"","type":"uint8","internalType":"enum SaleBase.LotteryState"}],"stateMutability":"view"},{"type":"function","name":"lotteryV2Addr","inputs":[],"outputs":[{"name":"","type":"address","internalType":"address"}],"stateMutability":"view"},{"type":"function","name":"mintMyNFT","inputs":[],"outputs":[],"stateMutability":"nonpayable"},{"type":"function","name":"multisigWalletAddress","inputs":[],"outputs":[{"name":"","type":"address","internalType":"address"}],"stateMutability":"view"},{"type":"function","name":"nftContractAddr","inputs":[],"outputs":[{"name":"","type":"address","internalType":"address"}],"stateMutability":"view"},{"type":"function","name":"numberOfTickets","inputs":[],"outputs":[{"name":"","type":"uint256","internalType":"uint256"}],"stateMutability":"view"},{"type":"function","name":"operatorAddr","inputs":[],"outputs":[{"name":"","type":"address","internalType":"address"}],"stateMutability":"view"},{"type":"function","name":"operators","inputs":[{"name":"","type":"address","internalType":"address"}],"outputs":[{"name":"","type":"bool","internalType":"bool"}],"stateMutability":"view"},{"type":"function","name":"owner","inputs":[],"outputs":[{"name":"","type":"address","internalType":"address"}],"stateMutability":"view"},{"type":"function","name":"prevRoundDeposits","inputs":[],"outputs":[{"name":"","type":"uint256","internalType":"uint256"}],"stateMutability":"view"},{"type":"function","name":"prevRoundTicketsAmount","inputs":[],"outputs":[{"name":"","type":"uint256","internalType":"uint256"}],"stateMutability":"view"},{"type":"function","name":"renounceOwnership","inputs":[],"outputs":[],"stateMutability":"nonpayable"},{"type":"function","name":"requestPending","inputs":[{"name":"","type":"uint256","internalType":"uint256"}],"outputs":[{"name":"","type":"bool","internalType":"bool"}],"stateMutability":"view"},{"type":"function","name":"requestRandomness","inputs":[],"outputs":[],"stateMutability":"nonpayable"},{"type":"function","name":"requestedHash","inputs":[{"name":"","type":"uint256","internalType":"uint256"}],"outputs":[{"name":"","type":"bytes32","internalType":"bytes32"}],"stateMutability":"view"},{"type":"function","name":"roundCounter","inputs":[],"outputs":[{"name":"","type":"uint256","internalType":"uint256"}],"stateMutability":"view"},{"type":"function","name":"rounds","inputs":[{"name":"","type":"uint256","internalType":"uint256"}],"outputs":[{"name":"number","type":"uint256","internalType":"uint256"},{"name":"finishAt","type":"uint256","internalType":"uint256"},{"name":"numberOfTickets","type":"uint256","internalType":"uint256"},{"name":"randomNumber","type":"uint256","internalType":"uint256"},{"name":"lotteryStarted","type":"bool","internalType":"bool"},{"name":"lotteryFinished","type":"bool","internalType":"bool"},{"name":"winnersSelected","type":"bool","internalType":"bool"}],"stateMutability":"view"},{"type":"function","name":"selectWinners","inputs":[],"outputs":[],"stateMutability":"nonpayable"},{"type":"function","name":"seller","inputs":[],"outputs":[{"name":"","type":"address","internalType":"address"}],"stateMutability":"view"},{"type":"function","name":"setOperator","inputs":[{"name":"_operatorAddr","type":"address","internalType":"address"},{"name":"_flag","type":"bool","internalType":"bool"}],"outputs":[],"stateMutability":"nonpayable"},{"type":"function","name":"setSeller","inputs":[{"name":"_seller","type":"address","internalType":"address"}],"outputs":[],"stateMutability":"nonpayable"},{"type":"function","name":"setupNewRound","inputs":[{"name":"_finishAt","type":"uint256","internalType":"uint256"},{"name":"_numberOfTickets","type":"uint256","internalType":"uint256"}],"outputs":[],"stateMutability":"nonpayable"},{"type":"function","name":"startLottery","inputs":[],"outputs":[],"stateMutability":"nonpayable"},{"type":"function","name":"ticketPrice","inputs":[],"outputs":[{"name":"","type":"uint256","internalType":"uint256"}],"stateMutability":"view"},{"type":"function","name":"totalAmountForSeller","inputs":[],"outputs":[{"name":"","type":"uint256","internalType":"uint256"}],"stateMutability":"view"},{"type":"function","name":"totalNumberOfTickets","inputs":[],"outputs":[{"name":"","type":"uint256","internalType":"uint256"}],"stateMutability":"view"},{"type":"function","name":"transferOwnership","inputs":[{"name":"newOwner","type":"address","internalType":"address"}],"outputs":[],"stateMutability":"nonpayable"},{"type":"function","name":"usdcContractAddr","inputs":[],"outputs":[{"name":"","type":"address","internalType":"address"}],"stateMutability":"view"},{"type":"function","name":"winnerAddresses","inputs":[{"name":"","type":"uint256","internalType":"uint256"}],"outputs":[{"name":"","type":"address","internalType":"address"}],"stateMutability":"view"},{"type":"function","name":"winners","inputs":[{"name":"","type":"address","internalType":"address"}],"outputs":[{"name":"","type":"bool","internalType":"bool"}],"stateMutability":"view"},{"type":"event","name":"BuyerDeposited","inputs":[{"name":"buyer","type":"address","indexed":true,"internalType":"address"},{"name":"amount","type":"uint256","indexed":true,"internalType":"uint256"}],"anonymous":false},{"type":"event","name":"BuyerWithdrew","inputs":[{"name":"buyer","type":"address","indexed":true,"internalType":"address"},{"name":"amount","type":"uint256","indexed":true,"internalType":"uint256"}],"anonymous":false},{"type":"event","name":"DepositsReturned","inputs":[{"name":"returnedDepositsCount","type":"uint256","indexed":false,"internalType":"uint256"},{"name":"roundNumber","type":"uint256","indexed":true,"internalType":"uint256"}],"anonymous":false},{"type":"event","name":"DepositsReturned","inputs":[{"name":"returnedDepositsCount","type":"uint256","indexed":false,"internalType":"uint256"}],"anonymous":false},{"type":"event","name":"Initialized","inputs":[{"name":"version","type":"uint64","indexed":false,"internalType":"uint64"}],"anonymous":false},{"type":"event","name":"LotteryEnded","inputs":[],"anonymous":false},{"type":"event","name":"LotteryStarted","inputs":[],"anonymous":false},{"type":"event","name":"OwnershipTransferred","inputs":[{"name":"previousOwner","type":"address","indexed":true,"internalType":"address"},{"name":"newOwner","type":"address","indexed":true,"internalType":"address"}],"anonymous":false},{"type":"event","name":"RandomFulfilled","inputs":[{"name":"number","type":"uint256","indexed":false,"internalType":"uint256"},{"name":"requester","type":"address","indexed":true,"internalType":"address"}],"anonymous":false},{"type":"event","name":"RandomRequested","inputs":[{"name":"requester","type":"address","indexed":true,"internalType":"address"}],"anonymous":false},{"type":"event","name":"RequestedRandomness","inputs":[{"name":"round","type":"uint256","indexed":false,"internalType":"uint256"},{"name":"data","type":"bytes","indexed":false,"internalType":"bytes"}],"anonymous":false},{"type":"event","name":"RoundSet","inputs":[{"name":"roundNumber","type":"uint256","indexed":true,"internalType":"uint256"},{"name":"finishAt","type":"uint256","indexed":false,"internalType":"uint256"},{"name":"numberOfTickets","type":"uint256","indexed":false,"internalType":"uint256"},{"name":"newTicketPrice","type":"uint256","indexed":false,"internalType":"uint256"}],"anonymous":false},{"type":"event","name":"WinnerSelected","inputs":[{"name":"winner","type":"address","indexed":true,"internalType":"address"}],"anonymous":false},{"type":"error","name":"InvalidInitialization","inputs":[]},{"type":"error","name":"NotInitializing","inputs":[]},{"type":"error","name":"OwnableInvalidOwner","inputs":[{"name":"owner","type":"address","internalType":"address"}]},{"type":"error","name":"OwnableUnauthorizedAccount","inputs":[{"name":"account","type":"address","internalType":"address"}]}],"bytecode":{"object":"0x60a060405260016015556001601655600560175534801561001f57600080fd5b5073d8253782c45a12053594b9deb72d8e8ab2fca54c338061005b57604051631e4fbdf760e01b81526000600482015260240160405180910390fd5b6100648161007e565b506001600160a01b03166080526100796100ce565b610180565b600080546001600160a01b038381166001600160a01b0319831681178455604051919092169283917f8be0079c531659141344cd1fd0a4f28419497f9722a3daafe3b4186f6b6457e09190a35050565b7ff0c57e16840df040f15088dc2f81fe391c3923bec73e23a9662efc9c229c6a00805468010000000000000000900460ff161561011e5760405163f92ee8a960e01b815260040160405180910390fd5b80546001600160401b039081161461017d5780546001600160401b0319166001600160401b0390811782556040519081527fc7f505b2f371ae2175ee4913f4499e1f2633a7b5936321eed1cdaeb6115181d29060200160405180910390a15b50565b6080516132bd6101a2600039600081816103d80152612a2201526132bd6000f3fe608060405234801561001057600080fd5b50600436106102945760003560e01c80637cc947d011610167578063b6b55f25116100ce578063f2fde38b11610087578063f2fde38b14610650578063f3f18c3714610663578063f56542d614610676578063f8413b0714610689578063fc7e286d14610691578063febc14b1146106b157600080fd5b8063b6b55f25146105e6578063c4f8f27b146105f9578063da59a0dd14610619578063df15c37e14610622578063e9081ec71461062a578063e99d28661461063d57600080fd5b806399dbf4b51161012057806399dbf4b5146105655780639d9ca28d14610578578063a4f03c02146105a4578063a61fb2ba146105b7578063b3f6b99a146105ca578063b680e44b146105dd57600080fd5b80637cc947d01461048f5780637de133821461049757806380d58442146104aa5780638c65c81f146104bd5780638da5cb5b1461054b57806396efac7b1461055c57600080fd5b80632c23ec8e1161020b5780635aa68ac0116101c45780635aa68ac014610408578063683e93e11461041d5780636939864b146104305780636bd5450a14610451578063715018a61461047457806375ce7fff1461047c57600080fd5b80632c23ec8e1461036357806338e21cce1461037657806345745c1014610399578063558a7297146103a257806356d7c73a146103b5578063572b6c05146103c857600080fd5b80631593a8c71161025d5780631593a8c71461032f578063160344e2146103395780631a0de74c146103415780631d0806ae14610349578063224f91bd14610352578063261704801461035b57600080fd5b806274670214610299578063045f9c97146102b557806308551a53146102e05780631209b1f6146102f357806313e7c9d8146102fc575b600080fd5b6102a260185481565b6040519081526020015b60405180910390f35b6102c86102c3366004612c53565b6106ba565b6040516001600160a01b0390911681526020016102ac565b6002546102c8906001600160a01b031681565b6102a260045481565b61031f61030a366004612c91565b60116020526000908152604090205460ff1681565b60405190151581526020016102ac565b6103376106e4565b005b61033761075c565b610337610837565b6102a260145481565b6102a260165481565b610337610d84565b600b546102c8906001600160a01b031681565b61031f610384366004612c91565b60066020526000908152604090205460ff1681565b6102a260035481565b6103376103b0366004612cbc565b610ee4565b6103376103c3366004612d66565b610f17565b61031f6103d6366004612c91565b7f00000000000000000000000000000000000000000000000000000000000000006001600160a01b0390811691161490565b6104106110eb565b6040516102ac9190612e19565b61033761042b366004612e66565b61116f565b60005461044490600160a01b900460ff1681565b6040516102ac9190612e9d565b61031f61045f366004612c91565b60086020526000908152604090205460ff1681565b6103376111d6565b61031f61048a366004612c53565b6111ea565b61033761121e565b6012546102c8906001600160a01b031681565b6104106104b8366004612c53565b611462565b6105106104cb366004612c53565b600f60205260009081526040902080546001820154600283015460038401546004909401549293919290919060ff808216916101008104821691620100009091041687565b60408051978852602088019690965294860193909352606085019190915215156080840152151560a0830152151560c082015260e0016102ac565b6000546001600160a01b03166102c8565b6102a260175481565b600c546102c8906001600160a01b031681565b61031f610586366004612c91565b6001600160a01b031660009081526008602052604090205460ff1690565b6103376105b2366004612ec5565b6114d1565b6001546102c8906001600160a01b031681565b6103376105d8366004612ee7565b611831565b6102a260155481565b6103376105f4366004612c53565b611a0b565b6102a2610607366004612c53565b600e6020526000908152604090205481565b6102a260055481565b610410611eaa565b6102a2610638366004612c91565b611f0a565b61033761064b366004612c91565b611f5b565b61033761065e366004612c91565b611fb7565b6013546102c8906001600160a01b031681565b6102a2610684366004612f63565b611ff2565b61033761201f565b6102a261069f366004612c91565b60076020526000908152604090205481565b6102a260105481565b600981815481106106ca57600080fd5b6000918252602090912001546001600160a01b0316905081565b6002546001600160a01b03166106f86121bd565b6001600160a01b0316146107275760405162461bcd60e51b815260040161071e90612f8f565b60405180910390fd5b610731600261116f565b6040517f9c89a6ed7228533196a3f962acc80d61a9c53bdea6b910741bf754f5aaa7569e90600090a1565b6002546001600160a01b03166107706121bd565b6001600160a01b0316146107965760405162461bcd60e51b815260040161071e90612f8f565b60008054600160a01b900460ff1660028111156107b5576107b5612e87565b146108025760405162461bcd60e51b815260206004820152601760248201527f53616c6520697320696e20616374697665207374617465000000000000000000604482015260640161071e565b61080c600161116f565b6040517fd029c7c68d943f92286a7825fa6aa2deefa1eee46cee6c91b7e483fd06d27baf90600090a1565b6002546001600160a01b031661084b6121bd565b6001600160a01b0316146108715760405162461bcd60e51b815260040161071e90612f8f565b6000600f600060016010546108869190612fe7565b815260200190815260200160002060030154116108fb5760405162461bcd60e51b815260206004820152602d60248201527f52616e646f6d206e756d62657220666f72206c61737420726f756e642069732060448201526c1b9bdd0819d95b995c985d1959609a1b606482015260840161071e565b60006003541161094d5760405162461bcd60e51b815260206004820152601b60248201527f4e6f207469636b657473206c65667420746f20616c6c6f636174650000000000604482015260640161071e565b6000805460ff60a01b1916600160a01b178155601054600f90829061097490600190612fe7565b81526020019081526020016000206006018054905090508060035410610a605760005b81811015610a5a576000600f600060016010546109b49190612fe7565b815260200190815260200160002060060182815481106109d6576109d6612ffa565b6000918252602090912001546001600160a01b03169050610a0f816001600160a01b031660009081526008602052604090205460ff1690565b610a5157610a1c816121cc565b6040516001600160a01b038216907f1d4c260f1824cd028e6c9e6e31c3a0b94f2513e7a641113ec759d382f9bdd5a190600090a25b50600101610997565b50610ce3565b60005b81811015610c18576000610a778284612fe7565b600f60006001601054610a8a9190612fe7565b815260200190815260200160002060030154610aa69190613026565b610ab0908361303a565b90506000600f60006001601054610ac79190612fe7565b81526020019081526020016000206006018281548110610ae957610ae9612ffa565b60009182526020822001546010546001600160a01b039091169250600f9190610b1490600190612fe7565b81526020019081526020016000206006018381548110610b3657610b36612ffa565b60009182526020822001546010546001600160a01b0390911691600f91610b5f90600190612fe7565b81526020019081526020016000206006018381548110610b8157610b81612ffa565b9060005260206000200160006101000a8154816001600160a01b0302191690836001600160a01b0316021790555080600f60006001601054610bc39190612fe7565b81526020019081526020016000206006018481548110610be557610be5612ffa565b600091825260209091200180546001600160a01b0319166001600160a01b03929092169190911790555050600101610a63565b5060005b600354811015610ce1576000600f60006001601054610c3b9190612fe7565b81526020019081526020016000206006018281548110610c5d57610c5d612ffa565b6000918252602090912001546001600160a01b03169050610c96816001600160a01b031660009081526008602052604090205460ff1690565b610cd857610ca3816121cc565b6040516001600160a01b038216907f1d4c260f1824cd028e6c9e6e31c3a0b94f2513e7a641113ec759d382f9bdd5a190600090a25b50600101610c1c565b505b60006003819055506001600f60006001601054610d009190612fe7565b815260200190815260200160002060040160026101000a81548160ff021916908315150217905550610d30612258565b6000805460ff60a01b191681556018549003610d81576000805460ff60a01b1916600160a11b1781556040517f9c89a6ed7228533196a3f962acc80d61a9c53bdea6b910741bf754f5aaa7569e9190a15b50565b60066000610d906121bd565b6001600160a01b0316815260208101919091526040016000205460ff1615610def5760405162461bcd60e51b815260206004820152601260248201527113919508185b1c9958591e481b5a5b9d195960721b604482015260640161071e565b610dfa6105866121bd565b610e3f5760405162461bcd60e51b815260206004820152601660248201527521b0b63632b91034b9903737ba1030903bb4b73732b960511b604482015260640161071e565b600160066000610e4d6121bd565b6001600160a01b0390811682526020820192909252604001600020805460ff191692151592909217909155600b5416636b8f60f6610e896121bd565b6040516001600160e01b031960e084901b1681526001600160a01b039091166004820152602401600060405180830381600087803b158015610eca57600080fd5b505af1158015610ede573d6000803e3d6000fd5b50505050565b610eec6127b2565b6001600160a01b03919091166000908152601160205260409020805460ff1916911515919091179055565b7ff0c57e16840df040f15088dc2f81fe391c3923bec73e23a9662efc9c229c6a008054600160401b810460ff16159067ffffffffffffffff16600081158015610f5d5750825b905060008267ffffffffffffffff166001148015610f7a5750303b155b905081158015610f88575080155b15610fa65760405163f92ee8a960e01b815260040160405180910390fd5b845467ffffffffffffffff191660011785558315610fd057845460ff60401b1916600160401b1785555b8551600280546001600160a01b039283166001600160a01b031991821617909155602088015160138054919093169116179055604086015161101190612810565b6060860151601855608086015160038190556016819055600481905560145560a086015160175560c0860151600c80546001600160a01b03199081166001600160a01b039384161790915560e0880151600b8054831691841691909117905561010088015160018054831691841691909117815561012089015160128054909316931692909217905560105583156110e357845460ff60401b19168555604051600181527fc7f505b2f371ae2175ee4913f4499e1f2633a7b5936321eed1cdaeb6115181d29060200160405180910390a15b505050505050565b6060600f600060016010546111009190612fe7565b815260200190815260200160002060060180548060200260200160405190810160405280929190818152602001828054801561116557602002820191906000526020600020905b81546001600160a01b03168152600190910190602001808311611147575b5050505050905090565b6002546001600160a01b03166111836121bd565b6001600160a01b0316146111a95760405162461bcd60e51b815260040161071e90612f8f565b6000805482919060ff60a01b1916600160a01b8360028111156111ce576111ce612e87565b021790555050565b6111de6127b2565b6111e86000612810565b565b600d81815481106111fa57600080fd5b9060005260206000209060209182820401919006915054906101000a900460ff1681565b6002600054600160a01b900460ff16600281111561123e5761123e612e87565b146112835760405162461bcd60e51b815260206004820152601560248201527414d85b19481a5cc81b9bdd08195b991959081e595d605a1b604482015260640161071e565b6008600061128f6121bd565b6001600160a01b0316815260208101919091526040016000205460ff16156112f95760405162461bcd60e51b815260206004820152601760248201527f57696e6e6572732063616e6e6f74207769746864726177000000000000000000604482015260640161071e565b6000600760006113076121bd565b6001600160a01b03166001600160a01b03168152602001908152602001600020549050600081116113715760405162461bcd60e51b81526020600482015260146024820152734e6f2066756e647320746f20776974686472617760601b604482015260640161071e565b60006007600061137f6121bd565b6001600160a01b039081168252602082019290925260400160002091909155600c541663a9059cbb6113af6121bd565b6040516001600160e01b031960e084901b1681526001600160a01b039091166004820152602481018490526044016020604051808303816000875af11580156113fc573d6000803e3d6000fd5b505050506040513d601f19601f82011682018060405250810190611420919061304d565b508061142a6121bd565b6001600160a01b03167f1f280cd00e67ed50213ac03febd5be151f96b7f7db2f85312aa0feff99f8bdab60405160405180910390a350565b6000818152600f60209081526040918290206006018054835181840281018401909452808452606093928301828280156114c557602002820191906000526020600020905b81546001600160a01b031681526001909101906020018083116114a7575b50505050509050919050565b6002546001600160a01b03166114e56121bd565b6001600160a01b0316148061151457506000546001600160a01b03166115096121bd565b6001600160a01b0316145b806115445750601160006115266121bd565b6001600160a01b0316815260208101919091526040016000205460ff165b61159c5760405162461bcd60e51b8152602060048201526024808201527f4f6e6c79206f70657261746f722063616e2063616c6c20746869732066756e636044820152633a34b7b760e11b606482015260840161071e565b6018548111156116295760405162461bcd60e51b815260206004820152604c60248201527f5469636b6574732070657220726f756e642063616e6e6f74206265206869676860448201527f6572207468616e20746f74616c206e756d626572206f66207469636b6574732060648201526b696e2041756374696f6e563160a01b608482015260a40161071e565b600160105411156116ce57600f600060016010546116479190612fe7565b815260200190815260200160002060040160029054906101000a900460ff16151560011515146116ce5760405162461bcd60e51b815260206004820152602c60248201527f46696e697368206c61737420726f756e642066697273742062792073656c656360448201526b74696e672077696e6e65727360a01b606482015260840161071e565b6000601654601554106117115761170a6117016116f860165460155461286090919063ffffffff16565b60175490612873565b6004549061287f565b9050611761565b60006117396116f860165461173360155460165461288b90919063ffffffff16565b90612860565b905080600454111561175957600454611752908261288b565b915061175f565b60145491505b505b6004819055600060158190556003839055601683905560188054849290611789908490612fe7565b90915550506010546000818152600f60205260408120918255600180830186905560028301859055600383019190915560048201805462ffffff1916821790556117d29061116f565b60105460408051868152602081018690529081018490527f8b231eec1e6f586775a8182be925c9ec40bf8f8352131c894be81a0b6639c8b09060600160405180910390a2601080549060006118268361306a565b919050555050505050565b6013546001600160a01b0316331461187b5760405162461bcd60e51b815260206004820152600d60248201526c37b7363c9037b832b930ba37b960991b604482015260640161071e565b6000611889828401846130ab565b915050600080828060200190518101906118a39190613159565b91509150600085856040516118b99291906131dc565b604051809103902090506000600e60008581526020019081526020016000205482149050600d84815481106118f0576118f0612ffa565b90600052602060002090602091828204019190069054906101000a900460ff1661195c5760405162461bcd60e51b815260206004820152601c60248201527f726571756573742066756c66696c6c6564206f72206d697373696e6700000000604482015260640161071e565b8015611a015760408051602081018a905230918101919091524660608201526080810185905260a0016040516020818303038152906040528051906020012060001c97506119ab888585612897565b6000600d85815481106119c0576119c0612ffa565b90600052602060002090602091828204019190066101000a81548160ff021916908315150217905550600e6000858152602001908152602001600020600090555b5050505050505050565b611a166105866121bd565b15611a5c5760405162461bcd60e51b815260206004820152601660248201527515da5b9b995c9cc818d85b9b9bdd0819195c1bdcda5d60521b604482015260640161071e565b600c546001600160a01b0316611ab45760405162461bcd60e51b815260206004820152601d60248201527f5553444320636f6e74726163742061646472657373206e6f7420736574000000604482015260640161071e565b600454811015611afe5760405162461bcd60e51b8152602060048201526015602482015274139bdd08195b9bdd59da08199d5b991cc81cd95b9d605a1b604482015260640161071e565b600c5481906001600160a01b031663dd62ed3e611b196121bd565b6040516001600160e01b031960e084901b1681526001600160a01b039091166004820152306024820152604401602060405180830381865afa158015611b63573d6000803e3d6000fd5b505050506040513d601f19601f82011682018060405250810190611b8791906131ec565b1015611bce5760405162461bcd60e51b8152602060048201526016602482015275496e73756666696369656e7420616c6c6f77616e636560501b604482015260640161071e565b600f60006001601054611be19190612fe7565b8152602081019190915260400160002060040154610100900460ff1615611c5c5760405162461bcd60e51b815260206004820152602960248201527f596f752063616e2774206465706f73697420616674657220726f756e6420697360448201526808199a5b9a5cda195960ba1b606482015260840161071e565b600c546001600160a01b03166323b872dd611c756121bd565b6040516001600160e01b031960e084901b1681526001600160a01b039091166004820152306024820152604481018490526064016020604051808303816000875af1158015611cc8573d6000803e3d6000fd5b505050506040513d601f19601f82011682018060405250810190611cec919061304d565b50600f60006001601054611d009190612fe7565b81526020019081526020016000206005016000611d1b6121bd565b6001600160a01b03166001600160a01b0316815260200190815260200160002054600003611da257600f60006001601054611d569190612fe7565b8152602001908152602001600020600601611d6f6121bd565b81546001810183556000928352602090922090910180546001600160a01b0319166001600160a01b039092169190911790555b80600f60006001601054611db69190612fe7565b81526020019081526020016000206005016000611dd16121bd565b6001600160a01b03166001600160a01b031681526020019081526020016000206000828254611e00919061303a565b9091555081905060076000611e136121bd565b6001600160a01b03166001600160a01b031681526020019081526020016000206000828254611e42919061303a565b90915550506004548110611e6957600160156000828254611e63919061303a565b90915550505b80611e726121bd565b6001600160a01b03167f21040858e63c11c046482f61f290bbe25972fc74b11b4570a01f9241082d21f160405160405180910390a350565b60606009805480602002602001604051908101604052809291908181526020018280548015611165576020028201919060005260206000209081546001600160a01b03168152600190910190602001808311611147575050505050905090565b6000600f60006001601054611f1f9190612fe7565b81526020019081526020016000206005016000836001600160a01b03166001600160a01b03168152602001908152602001600020549050919050565b6002546001600160a01b0316611f6f6121bd565b6001600160a01b031614611f955760405162461bcd60e51b815260040161071e90612f8f565b600280546001600160a01b0319166001600160a01b0392909216919091179055565b611fbf6127b2565b6001600160a01b038116611fe957604051631e4fbdf760e01b81526000600482015260240161071e565b610d8181612810565b6000818152600f602090815260408083206001600160a01b03861684526005019091529020545b92915050565b6002546001600160a01b03166120336121bd565b6001600160a01b0316146120595760405162461bcd60e51b815260040161071e90612f8f565b60016010541161209f5760405162461bcd60e51b815260206004820152601160248201527014d95d1d5c08199a5c9cdd081c9bdd5b99607a1b604482015260640161071e565b42600f600060016010546120b39190612fe7565b815260200190815260200160002060010154111561210c5760405162461bcd60e51b8152602060048201526016602482015275149bdd5b99081a5cc81b9bdd08195b991959081e595d60521b604482015260640161071e565b6001600f600060016010546121219190612fe7565b815260200190815260200160002060040160016101000a81548160ff02191690831515021790555061217d6121546121bd565b604080516001600160a01b0390921660208301520160405160208183030381529060405261291b565b506121866121bd565b6001600160a01b03167fd802e7c7f1646e3318c03abed1e468bdf913f45331a68dc912a0d645eb646a4260405160405180910390a2565b60006121c7612a1e565b905090565b6001600160a01b038116600081815260086020526040808220805460ff1916600190811790915560098054918201815583527f6e1540171b6c0c960b71a7020d9f60077f6af931a8bbf590da0223dacf75c7af0180546001600160a01b03191684179055517f1d4c260f1824cd028e6c9e6e31c3a0b94f2513e7a641113ec759d382f9bdd5a19190a250565b6002546001600160a01b031661226c6121bd565b6001600160a01b0316146122925760405162461bcd60e51b815260040161071e90612f8f565b6001600f600060016010546122a79190612fe7565b81526020810191909152604001600020600401805462ff0000191662010000831515021790556123315760405162461bcd60e51b815260206004820152602f60248201527f57696e6e6572732077657265206e6f742073656c656374656420666f7220746860448201526e194818dd5c9c995b9d081c9bdd5b99608a1b606482015260840161071e565b6000600f600060016010546123469190612fe7565b815260200190815260200160002060060180549050905060008167ffffffffffffffff81111561237857612378612cf5565b6040519080825280602002602001820160405280156123a1578160200160208202803683370190505b50905060005b8281101561243457600f600060016010546123c29190612fe7565b815260200190815260200160002060060181815481106123e4576123e4612ffa565b9060005260206000200160009054906101000a90046001600160a01b031682828151811061241457612414612ffa565b6001600160a01b03909216602092830291909101909101526001016123a7565b5060005b8281101561273357600082828151811061245457612454612ffa565b602002602001015190506000600f600060016010546124739190612fe7565b8152602080820192909252604090810160009081206001600160a01b03861682526005018352818120546008909352205490915060ff161561264b5760045481106125a7576000600454826124c89190612fe7565b905080156125a55780600f600060016010546124e49190612fe7565b81526020019081526020016000206005016000856001600160a01b03166001600160a01b0316815260200190815260200160002060008282546125279190612fe7565b9091555050600c5460405163a9059cbb60e01b81526001600160a01b038581166004830152602482018490529091169063a9059cbb906044016020604051808303816000875af115801561257f573d6000803e3d6000fd5b505050506040513d601f19601f820116820180604052508101906125a3919061304d565b505b505b600f600060016010546125ba9190612fe7565b81526020019081526020016000206005016000836001600160a01b03166001600160a01b031681526020019081526020016000205460056000828254612600919061303a565b925050819055506000600f6000600160105461261c9190612fe7565b8152602080820192909252604090810160009081206001600160a01b0387168252600501909252902055612701565b6000600f600060016010546126609190612fe7565b8152602080820192909252604090810160009081206001600160a01b0387811680845260059092019094529082902093909355600c54905163a9059cbb60e01b8152600481019390935260248301849052169063a9059cbb906044016020604051808303816000875af11580156126db573d6000803e3d6000fd5b505050506040513d601f19601f820116820180604052508101906126ff919061304d565b505b60006007600061270f6121bd565b6001600160a01b031681526020810191909152604001600020555050600101612438565b5061273c612a62565b600f6000600160105461274f9190612fe7565b8152602001908152602001600020600601600061276c9190612c21565b600160105461277b9190612fe7565b6040518381527f317089864e65885a61555a7fee05445baa7fc2159860ee96c70abda1d51d55df9060200160405180910390a25050565b6127ba6121bd565b6001600160a01b03166127d56000546001600160a01b031690565b6001600160a01b0316146111e8576127eb6121bd565b60405163118cdaa760e01b81526001600160a01b03909116600482015260240161071e565b600080546001600160a01b038381166001600160a01b0319831681178455604051919092169283917f8be0079c531659141344cd1fd0a4f28419497f9722a3daafe3b4186f6b6457e09190a35050565b600061286c8284613205565b9392505050565b600061286c8284613219565b600061286c828461303a565b600061286c8284612fe7565b82600f600060016010546128ab9190612fe7565b815260200190815260200160002060030181905550808060200190518101906128d49190613230565b6001600160a01b03167fe85d009f8a44a1484b05949bc6ffe0c555696e50510d74dc5d4588d9c0812a018460405161290e91815260200190565b60405180910390a2505050565b600d805460018082018084556000849052919290918390811061294057612940612ffa565b90600052602060002090602091828204019190066101000a81548160ff0219169083151502179055506000818360405160200161297e92919061324d565b60405160208183030381529060405290506000612999612bca565b9050600081836040516020016129b092919061324d565b60408051601f1981840301815282825280516020808301919091206000898152600e9092529290208290559250907fd91fc3685b930310b008ec37d2334870cab88a023ed8cc628a2e2ccd4e55d20290612a0d908590879061324d565b60405180910390a150505050919050565b60007f00000000000000000000000000000000000000000000000000000000000000006001600160a01b03163303612a5d575060131936013560601c90565b503390565b6002546001600160a01b0316612a766121bd565b6001600160a01b031614612a9c5760405162461bcd60e51b815260040161071e90612f8f565b600060646005546005612aaf9190613219565b612ab99190613205565b9050600081600554612acb9190612fe7565b6000600555600c5460015460405163a9059cbb60e01b81526001600160a01b03918216600482015260248101869052929350169063a9059cbb906044016020604051808303816000875af1158015612b27573d6000803e3d6000fd5b505050506040513d601f19601f82011682018060405250810190612b4b919061304d565b50600c5460025460405163a9059cbb60e01b81526001600160a01b0391821660048201526024810184905291169063a9059cbb906044016020604051808303816000875af1158015612ba1573d6000803e3d6000fd5b505050506040513d601f19601f82011682018060405250810190612bc5919061304d565b505050565b600080612bdb6364e6212742612fe7565b90506000612bea600383613205565b612bf590600161303a565b905046600114612c0f57612c0a81600161303a565b612c1a565b612c1a81600461303a565b9250505090565b5080546000825590600052602060002090810190610d8191905b80821115612c4f5760008155600101612c3b565b5090565b600060208284031215612c6557600080fd5b5035919050565b6001600160a01b0381168114610d8157600080fd5b8035612c8c81612c6c565b919050565b600060208284031215612ca357600080fd5b813561286c81612c6c565b8015158114610d8157600080fd5b60008060408385031215612ccf57600080fd5b8235612cda81612c6c565b91506020830135612cea81612cae565b809150509250929050565b634e487b7160e01b600052604160045260246000fd5b604051610140810167ffffffffffffffff81118282101715612d2f57612d2f612cf5565b60405290565b604051601f8201601f1916810167ffffffffffffffff81118282101715612d5e57612d5e612cf5565b604052919050565b60006101408284031215612d7957600080fd5b612d81612d0b565b612d8a83612c81565b8152612d9860208401612c81565b6020820152612da960408401612c81565b6040820152606083013560608201526080830135608082015260a083013560a0820152612dd860c08401612c81565b60c0820152612de960e08401612c81565b60e0820152610100612dfc818501612c81565b90820152610120612e0e848201612c81565b908201529392505050565b6020808252825182820181905260009190848201906040850190845b81811015612e5a5783516001600160a01b031683529284019291840191600101612e35565b50909695505050505050565b600060208284031215612e7857600080fd5b81356003811061286c57600080fd5b634e487b7160e01b600052602160045260246000fd5b6020810160038310612ebf57634e487b7160e01b600052602160045260246000fd5b91905290565b60008060408385031215612ed857600080fd5b50508035926020909101359150565b600080600060408486031215612efc57600080fd5b83359250602084013567ffffffffffffffff80821115612f1b57600080fd5b818601915086601f830112612f2f57600080fd5b813581811115612f3e57600080fd5b876020828501011115612f5057600080fd5b6020830194508093505050509250925092565b60008060408385031215612f7657600080fd5b8235612f8181612c6c565b946020939093013593505050565b60208082526022908201527f4f6e6c792073656c6c65722063616e2063616c6c20746869732066756e63746960408201526137b760f11b606082015260800190565b634e487b7160e01b600052601160045260246000fd5b8181038181111561201957612019612fd1565b634e487b7160e01b600052603260045260246000fd5b634e487b7160e01b600052601260045260246000fd5b60008261303557613035613010565b500690565b8082018082111561201957612019612fd1565b60006020828403121561305f57600080fd5b815161286c81612cae565b60006001820161307c5761307c612fd1565b5060010190565b600067ffffffffffffffff82111561309d5761309d612cf5565b50601f01601f191660200190565b600080604083850312156130be57600080fd5b82359150602083013567ffffffffffffffff8111156130dc57600080fd5b8301601f810185136130ed57600080fd5b80356131006130fb82613083565b612d35565b81815286602083850101111561311557600080fd5b816020840160208301376000602083830101528093505050509250929050565b60005b83811015613150578181015183820152602001613138565b50506000910152565b6000806040838503121561316c57600080fd5b82519150602083015167ffffffffffffffff81111561318a57600080fd5b8301601f8101851361319b57600080fd5b80516131a96130fb82613083565b8181528660208385010111156131be57600080fd5b6131cf826020830160208601613135565b8093505050509250929050565b8183823760009101908152919050565b6000602082840312156131fe57600080fd5b5051919050565b60008261321457613214613010565b500490565b808202811582820484141761201957612019612fd1565b60006020828403121561324257600080fd5b815161286c81612c6c565b8281526040602082015260008251806040840152613272816060850160208701613135565b601f01601f191691909101606001939250505056fea2646970667358221220c1230a3e2fc7d53f867a17c21c79d4b502d6af62da7149b310293ba959bba33d64736f6c63430008190033","linkReferences":{}},"methodIdentifiers":{"buyerWithdraw()":"7cc947d0","changeLotteryState(uint8)":"683e93e1","deposit(uint256)":"b6b55f25","deposits(address)":"fc7e286d","endLottery()":"1593a8c7","fulfillRandomness(uint256,bytes)":"b3f6b99a","getDepositedAmount(address)":"e9081ec7","getDepositedAmountForRound(address,uint256)":"f56542d6","getParticipants()":"5aa68ac0","getParticipantsForRound(uint256)":"80d58442","getWinners()":"df15c37e","hasMinted(address)":"38e21cce","increasePriceStep()":"96efac7b","initialPrice()":"1d0806ae","initialize((address,address,address,uint256,uint256,uint256,address,address,address,address))":"56d7c73a","isTrustedForwarder(address)":"572b6c05","isWinner(address)":"9d9ca28d","lotteryState()":"6939864b","lotteryV2Addr()":"7de13382","mintMyNFT()":"26170480","multisigWalletAddress()":"a61fb2ba","nftContractAddr()":"2c23ec8e","numberOfTickets()":"45745c10","operatorAddr()":"f3f18c37","operators(address)":"13e7c9d8","owner()":"8da5cb5b","prevRoundDeposits()":"b680e44b","prevRoundTicketsAmount()":"224f91bd","renounceOwnership()":"715018a6","requestPending(uint256)":"75ce7fff","requestRandomness()":"f8413b07","requestedHash(uint256)":"c4f8f27b","roundCounter()":"febc14b1","rounds(uint256)":"8c65c81f","selectWinners()":"1a0de74c","seller()":"08551a53","setOperator(address,bool)":"558a7297","setSeller(address)":"e99d2866","setupNewRound(uint256,uint256)":"a4f03c02","startLottery()":"160344e2","ticketPrice()":"1209b1f6","totalAmountForSeller()":"da59a0dd","totalNumberOfTickets()":"00746702","transferOwnership(address)":"f2fde38b","usdcContractAddr()":"99dbf4b5","winnerAddresses(uint256)":"045f9c97","winners(address)":"6bd5450a"},"id":51}