{
  "abi": [
    {
      "type": "function",
      "name": "buyerWithdraw",
      "inputs": [],
      "outputs": [],
      "stateMutability": "nonpayable"
    },
    {
      "type": "function",
      "name": "changeLotteryState",
      "inputs": [
        {
          "name": "_newState",
          "type": "uint8",
          "internalType": "enum AuctionV1Base.LotteryState"
        }
      ],
      "outputs": [],
      "stateMutability": "nonpayable"
    },
    {
      "type": "function",
      "name": "currentPrice",
      "inputs": [],
      "outputs": [
        {
          "name": "",
          "type": "uint256",
          "internalType": "uint256"
        }
      ],
      "stateMutability": "view"
    },
    {
      "type": "function",
      "name": "deposit",
      "inputs": [
        {
          "name": "amount",
          "type": "uint256",
          "internalType": "uint256"
        }
      ],
      "outputs": [],
      "stateMutability": "payable"
    },
    {
      "type": "function",
      "name": "deposits",
      "inputs": [
        {
          "name": "",
          "type": "address",
          "internalType": "address"
        }
      ],
      "outputs": [
        {
          "name": "",
          "type": "uint256",
          "internalType": "uint256"
        }
      ],
      "stateMutability": "view"
    },
    {
      "type": "function",
      "name": "eligibleParticipants",
      "inputs": [
        {
          "name": "",
          "type": "uint256",
          "internalType": "uint256"
        }
      ],
      "outputs": [
        {
          "name": "",
          "type": "address",
          "internalType": "address"
        }
      ],
      "stateMutability": "view"
    },
    {
      "type": "function",
      "name": "endLottery",
      "inputs": [],
      "outputs": [],
      "stateMutability": "nonpayable"
    },
    {
      "type": "function",
      "name": "finishAt",
      "inputs": [],
      "outputs": [
        {
          "name": "",
          "type": "uint256",
          "internalType": "uint256"
        }
      ],
      "stateMutability": "view"
    },
    {
      "type": "function",
      "name": "fulfillRandomness",
      "inputs": [
        {
          "name": "randomness",
          "type": "uint256",
          "internalType": "uint256"
        },
        {
          "name": "dataWithRound",
          "type": "bytes",
          "internalType": "bytes"
        }
      ],
      "outputs": [],
      "stateMutability": "nonpayable"
    },
    {
      "type": "function",
      "name": "getDepositedAmount",
      "inputs": [
        {
          "name": "participant",
          "type": "address",
          "internalType": "address"
        }
      ],
      "outputs": [
        {
          "name": "",
          "type": "uint256",
          "internalType": "uint256"
        }
      ],
      "stateMutability": "view"
    },
    {
      "type": "function",
      "name": "getEligibleParticipants",
      "inputs": [],
      "outputs": [
        {
          "name": "",
          "type": "address[]",
          "internalType": "address[]"
        }
      ],
      "stateMutability": "view"
    },
    {
      "type": "function",
      "name": "getParticipants",
      "inputs": [],
      "outputs": [
        {
          "name": "",
          "type": "address[]",
          "internalType": "address[]"
        }
      ],
      "stateMutability": "view"
    },
    {
      "type": "function",
      "name": "getRandomNumber",
      "inputs": [],
      "outputs": [
        {
          "name": "",
          "type": "uint256",
          "internalType": "uint256"
        }
      ],
      "stateMutability": "view"
    },
    {
      "type": "function",
      "name": "getWinners",
      "inputs": [],
      "outputs": [
        {
          "name": "",
          "type": "address[]",
          "internalType": "address[]"
        }
      ],
      "stateMutability": "view"
    },
    {
      "type": "function",
      "name": "hasMinted",
      "inputs": [
        {
          "name": "",
          "type": "address",
          "internalType": "address"
        }
      ],
      "outputs": [
        {
          "name": "",
          "type": "bool",
          "internalType": "bool"
        }
      ],
      "stateMutability": "view"
    },
    {
      "type": "function",
      "name": "increasePriceStep",
      "inputs": [],
      "outputs": [
        {
          "name": "",
          "type": "uint256",
          "internalType": "uint256"
        }
      ],
      "stateMutability": "view"
    },
    {
      "type": "function",
      "name": "initialPrice",
      "inputs": [],
      "outputs": [
        {
          "name": "",
          "type": "uint256",
          "internalType": "uint256"
        }
      ],
      "stateMutability": "view"
    },
    {
      "type": "function",
      "name": "initialize",
      "inputs": [
        {
          "name": "config",
          "type": "tuple",
          "internalType": "struct StructsLibrary.ILotteryBaseConfig",
          "components": [
            {
              "name": "_seller",
              "type": "address",
              "internalType": "address"
            },
            {
              "name": "_gelatoVrfOperator",
              "type": "address",
              "internalType": "address"
            },
            {
              "name": "_blessedOperator",
              "type": "address",
              "internalType": "address"
            },
            {
              "name": "_owner",
              "type": "address",
              "internalType": "address"
            },
            {
              "name": "_ticketAmount",
              "type": "uint256",
              "internalType": "uint256"
            },
            {
              "name": "_ticketPrice",
              "type": "uint256",
              "internalType": "uint256"
            },
            {
              "name": "_finishAt",
              "type": "uint256",
              "internalType": "uint256"
            },
            {
              "name": "_usdcContractAddr",
              "type": "address",
              "internalType": "address"
            },
            {
              "name": "_multisigWalletAddress",
              "type": "address",
              "internalType": "address"
            },
            {
              "name": "_prevPhaseContractAddr",
              "type": "address",
              "internalType": "address"
            }
          ]
        }
      ],
      "outputs": [],
      "stateMutability": "nonpayable"
    },
    {
      "type": "function",
      "name": "initialized",
      "inputs": [],
      "outputs": [
        {
          "name": "",
          "type": "bool",
          "internalType": "bool"
        }
      ],
      "stateMutability": "view"
    },
    {
      "type": "function",
      "name": "isParticipantEligible",
      "inputs": [
        {
          "name": "participant",
          "type": "address",
          "internalType": "address"
        }
      ],
      "outputs": [
        {
          "name": "",
          "type": "bool",
          "internalType": "bool"
        }
      ],
      "stateMutability": "view"
    },
    {
      "type": "function",
      "name": "isTrustedForwarder",
      "inputs": [
        {
          "name": "forwarder",
          "type": "address",
          "internalType": "address"
        }
      ],
      "outputs": [
        {
          "name": "",
          "type": "bool",
          "internalType": "bool"
        }
      ],
      "stateMutability": "view"
    },
    {
      "type": "function",
      "name": "isWinner",
      "inputs": [
        {
          "name": "_participant",
          "type": "address",
          "internalType": "address"
        }
      ],
      "outputs": [
        {
          "name": "",
          "type": "bool",
          "internalType": "bool"
        }
      ],
      "stateMutability": "view"
    },
    {
      "type": "function",
      "name": "lotteryState",
      "inputs": [],
      "outputs": [
        {
          "name": "",
          "type": "uint8",
          "internalType": "enum AuctionV1Base.LotteryState"
        }
      ],
      "stateMutability": "view"
    },
    {
      "type": "function",
      "name": "lotteryV2Addr",
      "inputs": [],
      "outputs": [
        {
          "name": "",
          "type": "address",
          "internalType": "address"
        }
      ],
      "stateMutability": "view"
    },
    {
      "type": "function",
      "name": "minimumDepositAmount",
      "inputs": [],
      "outputs": [
        {
          "name": "",
          "type": "uint256",
          "internalType": "uint256"
        }
      ],
      "stateMutability": "view"
    },
    {
      "type": "function",
      "name": "mintMyNFT",
      "inputs": [],
      "outputs": [],
      "stateMutability": "nonpayable"
    },
    {
      "type": "function",
      "name": "multisigWalletAddress",
      "inputs": [],
      "outputs": [
        {
          "name": "",
          "type": "address",
          "internalType": "address"
        }
      ],
      "stateMutability": "view"
    },
    {
      "type": "function",
      "name": "nftContractAddr",
      "inputs": [],
      "outputs": [
        {
          "name": "",
          "type": "address",
          "internalType": "address"
        }
      ],
      "stateMutability": "view"
    },
    {
      "type": "function",
      "name": "numberOfTickets",
      "inputs": [],
      "outputs": [
        {
          "name": "",
          "type": "uint256",
          "internalType": "uint256"
        }
      ],
      "stateMutability": "view"
    },
    {
      "type": "function",
      "name": "operatorAddr",
      "inputs": [],
      "outputs": [
        {
          "name": "",
          "type": "address",
          "internalType": "address"
        }
      ],
      "stateMutability": "view"
    },
    {
      "type": "function",
      "name": "operators",
      "inputs": [
        {
          "name": "",
          "type": "address",
          "internalType": "address"
        }
      ],
      "outputs": [
        {
          "name": "",
          "type": "bool",
          "internalType": "bool"
        }
      ],
      "stateMutability": "view"
    },
    {
      "type": "function",
      "name": "owner",
      "inputs": [],
      "outputs": [
        {
          "name": "",
          "type": "address",
          "internalType": "address"
        }
      ],
      "stateMutability": "view"
    },
    {
      "type": "function",
      "name": "prevRoundDeposits",
      "inputs": [],
      "outputs": [
        {
          "name": "",
          "type": "uint256",
          "internalType": "uint256"
        }
      ],
      "stateMutability": "view"
    },
    {
      "type": "function",
      "name": "prevRoundTicketsAmount",
      "inputs": [],
      "outputs": [
        {
          "name": "",
          "type": "uint256",
          "internalType": "uint256"
        }
      ],
      "stateMutability": "view"
    },
    {
      "type": "function",
      "name": "randomNumber",
      "inputs": [],
      "outputs": [
        {
          "name": "",
          "type": "uint256",
          "internalType": "uint256"
        }
      ],
      "stateMutability": "view"
    },
    {
      "type": "function",
      "name": "renounceOwnership",
      "inputs": [],
      "outputs": [],
      "stateMutability": "nonpayable"
    },
    {
      "type": "function",
      "name": "requestPending",
      "inputs": [
        {
          "name": "",
          "type": "uint256",
          "internalType": "uint256"
        }
      ],
      "outputs": [
        {
          "name": "",
          "type": "bool",
          "internalType": "bool"
        }
      ],
      "stateMutability": "view"
    },
    {
      "type": "function",
      "name": "requestRandomness",
      "inputs": [],
      "outputs": [],
      "stateMutability": "nonpayable"
    },
    {
      "type": "function",
      "name": "requestedHash",
      "inputs": [
        {
          "name": "",
          "type": "uint256",
          "internalType": "uint256"
        }
      ],
      "outputs": [
        {
          "name": "",
          "type": "bytes32",
          "internalType": "bytes32"
        }
      ],
      "stateMutability": "view"
    },
    {
      "type": "function",
      "name": "selectWinners",
      "inputs": [],
      "outputs": [],
      "stateMutability": "nonpayable"
    },
    {
      "type": "function",
      "name": "seller",
      "inputs": [],
      "outputs": [
        {
          "name": "",
          "type": "address",
          "internalType": "address"
        }
      ],
      "stateMutability": "view"
    },
    {
      "type": "function",
      "name": "sellerWithdraw",
      "inputs": [],
      "outputs": [],
      "stateMutability": "nonpayable"
    },
    {
      "type": "function",
      "name": "setCurrentPrice",
      "inputs": [
        {
          "name": "_amount",
          "type": "uint256",
          "internalType": "uint256"
        }
      ],
      "outputs": [],
      "stateMutability": "nonpayable"
    },
    {
      "type": "function",
      "name": "setFinishAt",
      "inputs": [
        {
          "name": "_finishAt",
          "type": "uint256",
          "internalType": "uint256"
        }
      ],
      "outputs": [],
      "stateMutability": "nonpayable"
    },
    {
      "type": "function",
      "name": "setLotteryV2Addr",
      "inputs": [
        {
          "name": "_lotteryV2Addr",
          "type": "address",
          "internalType": "address"
        }
      ],
      "outputs": [],
      "stateMutability": "nonpayable"
    },
    {
      "type": "function",
      "name": "setMultisigWalletAddress",
      "inputs": [
        {
          "name": "_multisigWalletAddress",
          "type": "address",
          "internalType": "address"
        }
      ],
      "outputs": [],
      "stateMutability": "nonpayable"
    },
    {
      "type": "function",
      "name": "setNftContractAddr",
      "inputs": [
        {
          "name": "_nftContractAddr",
          "type": "address",
          "internalType": "address"
        }
      ],
      "outputs": [],
      "stateMutability": "nonpayable"
    },
    {
      "type": "function",
      "name": "setNumberOfTickets",
      "inputs": [
        {
          "name": "_numberOfTickets",
          "type": "uint256",
          "internalType": "uint256"
        }
      ],
      "outputs": [],
      "stateMutability": "nonpayable"
    },
    {
      "type": "function",
      "name": "setOperator",
      "inputs": [
        {
          "name": "_operatorAddr",
          "type": "address",
          "internalType": "address"
        },
        {
          "name": "_flag",
          "type": "bool",
          "internalType": "bool"
        }
      ],
      "outputs": [],
      "stateMutability": "nonpayable"
    },
    {
      "type": "function",
      "name": "setPriceStep",
      "inputs": [
        {
          "name": "_increasePriceStep",
          "type": "uint256",
          "internalType": "uint256"
        }
      ],
      "outputs": [],
      "stateMutability": "nonpayable"
    },
    {
      "type": "function",
      "name": "setSeller",
      "inputs": [
        {
          "name": "_seller",
          "type": "address",
          "internalType": "address"
        }
      ],
      "outputs": [],
      "stateMutability": "nonpayable"
    },
    {
      "type": "function",
      "name": "setUsdcContractAddr",
      "inputs": [
        {
          "name": "_usdcContractAddr",
          "type": "address",
          "internalType": "address"
        }
      ],
      "outputs": [],
      "stateMutability": "nonpayable"
    },
    {
      "type": "function",
      "name": "setWinner",
      "inputs": [
        {
          "name": "_winner",
          "type": "address",
          "internalType": "address"
        }
      ],
      "outputs": [],
      "stateMutability": "nonpayable"
    },
    {
      "type": "function",
      "name": "setupNewRound",
      "inputs": [
        {
          "name": "_finishAt",
          "type": "uint256",
          "internalType": "uint256"
        },
        {
          "name": "_numberOfTickets",
          "type": "uint256",
          "internalType": "uint256"
        }
      ],
      "outputs": [],
      "stateMutability": "nonpayable"
    },
    {
      "type": "function",
      "name": "startLottery",
      "inputs": [],
      "outputs": [],
      "stateMutability": "nonpayable"
    },
    {
      "type": "function",
      "name": "totalNumberOfTickets",
      "inputs": [],
      "outputs": [
        {
          "name": "",
          "type": "uint256",
          "internalType": "uint256"
        }
      ],
      "stateMutability": "view"
    },
    {
      "type": "function",
      "name": "transferDeposit",
      "inputs": [
        {
          "name": "_participant",
          "type": "address",
          "internalType": "address"
        },
        {
          "name": "_amount",
          "type": "uint256",
          "internalType": "uint256"
        }
      ],
      "outputs": [],
      "stateMutability": "nonpayable"
    },
    {
      "type": "function",
      "name": "transferNonWinnerBids",
      "inputs": [
        {
          "name": "destinationAddr",
          "type": "address",
          "internalType": "address"
        }
      ],
      "outputs": [],
      "stateMutability": "nonpayable"
    },
    {
      "type": "function",
      "name": "transferOwnership",
      "inputs": [
        {
          "name": "newOwner",
          "type": "address",
          "internalType": "address"
        }
      ],
      "outputs": [],
      "stateMutability": "nonpayable"
    },
    {
      "type": "function",
      "name": "usdcContractAddr",
      "inputs": [],
      "outputs": [
        {
          "name": "",
          "type": "address",
          "internalType": "address"
        }
      ],
      "stateMutability": "view"
    },
    {
      "type": "function",
      "name": "winnerAddresses",
      "inputs": [
        {
          "name": "",
          "type": "uint256",
          "internalType": "uint256"
        }
      ],
      "outputs": [
        {
          "name": "",
          "type": "address",
          "internalType": "address"
        }
      ],
      "stateMutability": "view"
    },
    {
      "type": "function",
      "name": "winners",
      "inputs": [
        {
          "name": "",
          "type": "address",
          "internalType": "address"
        }
      ],
      "outputs": [
        {
          "name": "",
          "type": "bool",
          "internalType": "bool"
        }
      ],
      "stateMutability": "view"
    },
    {
      "type": "event",
      "name": "LotteryEnded",
      "inputs": [],
      "anonymous": false
    },
    {
      "type": "event",
      "name": "LotteryStarted",
      "inputs": [],
      "anonymous": false
    },
    {
      "type": "event",
      "name": "OwnershipTransferred",
      "inputs": [
        {
          "name": "previousOwner",
          "type": "address",
          "indexed": true,
          "internalType": "address"
        },
        {
          "name": "newOwner",
          "type": "address",
          "indexed": true,
          "internalType": "address"
        }
      ],
      "anonymous": false
    },
    {
      "type": "event",
      "name": "RandomFullfiled",
      "inputs": [
        {
          "name": "number",
          "type": "uint256",
          "indexed": false,
          "internalType": "uint256"
        }
      ],
      "anonymous": false
    },
    {
      "type": "event",
      "name": "RandomRequested",
      "inputs": [
        {
          "name": "requester",
          "type": "address",
          "indexed": true,
          "internalType": "address"
        }
      ],
      "anonymous": false
    },
    {
      "type": "event",
      "name": "RequestedRandomness",
      "inputs": [
        {
          "name": "round",
          "type": "uint256",
          "indexed": false,
          "internalType": "uint256"
        },
        {
          "name": "data",
          "type": "bytes",
          "indexed": false,
          "internalType": "bytes"
        }
      ],
      "anonymous": false
    },
    {
      "type": "event",
      "name": "WinnerSelected",
      "inputs": [
        {
          "name": "winner",
          "type": "address",
          "indexed": true,
          "internalType": "address"
        }
      ],
      "anonymous": false
    },
    {
      "type": "error",
      "name": "OwnableInvalidOwner",
      "inputs": [
        {
          "name": "owner",
          "type": "address",
          "internalType": "address"
        }
      ]
    },
    {
      "type": "error",
      "name": "OwnableUnauthorizedAccount",
      "inputs": [
        {
          "name": "account",
          "type": "address",
          "internalType": "address"
        }
      ]
    }
  ],
  "bytecode": {
    "object": "0x60a06040526002805460ff60a01b1916905560016009819055600a556005600b5534801561002c57600080fd5b5073d8253782c45a12053594b9deb72d8e8ab2fca54c338061006857604051631e4fbdf760e01b81526000600482015260240160405180910390fd5b61007181610083565b506001600160a01b03166080526100d5565b600280546001600160a01b038381166001600160a01b0319831681179093556040519116919082907f8be0079c531659141344cd1fd0a4f28419497f9722a3daafe3b4186f6b6457e090600090a35050565b6080516134436100f7600039600081816106ae0152612cd501526134436000f3fe6080604052600436106103ac5760003560e01c8063715018a6116101e7578063af94862c1161010d578063dbdff2c1116100a0578063f2fde38b1161006f578063f2fde38b14610af7578063f3f18c3714610b17578063f8413b0714610b37578063fc7e286d14610b4c57600080fd5b8063dbdff2c114610a77578063df15c37e14610a8c578063e9081ec714610aa1578063e99d286614610ad757600080fd5b8063b7a62e24116100dc578063b7a62e24146109f4578063c4f8f27b14610a14578063ccbac9f514610a41578063d9fca76914610a5757600080fd5b8063af94862c1461098b578063b3f6b99a146109ab578063b680e44b146109cb578063b6b55f25146109e157600080fd5b806396efac7b116101855780639d1b464a116101545780639d1b464a146108fc5780639d9ca28d14610912578063a4f03c021461094b578063a61fb2ba1461096b57600080fd5b806396efac7b1461089157806399bd69d6146108a757806399dbf4b5146108c75780639abdccd1146108e757600080fd5b80637de13382116101c15780637de13382146108135780638a6723e6146108335780638da5cb5b1461085357806394d898de1461087157600080fd5b8063715018a6146107c957806375ce7fff146107de5780637cc947d0146107fe57600080fd5b80632c23ec8e116102d7578063572b6c051161026a57806367d3b4881161023957806367d3b48814610735578063683e93e11461074b5780636939864b1461076b5780636bd5450a1461079957600080fd5b8063572b6c05146106915780635aa68ac0146106de57806360d50da31461070057806366af746b1461072057600080fd5b806345745c10116102a657806345745c101461061b5780634a0a5ce91461063157806350f3dbec14610651578063558a72971461067157600080fd5b80632c23ec8e1461058b5780633639eb2e146105ab5780633644c27c146105cb57806338e21cce146105eb57600080fd5b80631593a8c71161034f5780631a0de74c1161031e5780631a0de74c146105355780631d0806ae1461054a578063224f91bd14610560578063261704801461057657600080fd5b80631593a8c7146104cb578063160344e2146104e05780631630a8df146104f557806318b200711461051557600080fd5b806308551a531161038b57806308551a53146104285780630bea66371461044857806313e7c9d81461046a578063158ef93e146104aa57600080fd5b8062746702146103b1578063045f9c97146103da578063080c279a14610412575b600080fd5b3480156103bd57600080fd5b506103c7600d5481565b6040519081526020015b60405180910390f35b3480156103e657600080fd5b506103fa6103f5366004612d9e565b610b79565b6040516001600160a01b0390911681526020016103d1565b34801561041e57600080fd5b506103c760065481565b34801561043457600080fd5b506004546103fa906001600160a01b031681565b34801561045457600080fd5b50610468610463366004612d9e565b610ba3565b005b34801561047657600080fd5b5061049a610485366004612dd3565b60136020526000908152604090205460ff1681565b60405190151581526020016103d1565b3480156104b657600080fd5b5060025461049a90600160a01b900460ff1681565b3480156104d757600080fd5b50610468610c40565b3480156104ec57600080fd5b50610468610c86565b34801561050157600080fd5b50610468610510366004612dd3565b610d66565b34801561052157600080fd5b50610468610530366004612d9e565b611003565b34801561054157600080fd5b50610468611052565b34801561055657600080fd5b506103c760085481565b34801561056c57600080fd5b506103c7600a5481565b34801561058257600080fd5b5061046861147c565b34801561059757600080fd5b506016546103fa906001600160a01b031681565b3480156105b757600080fd5b506104686105c6366004612dd3565b611648565b3480156105d757600080fd5b506104686105e6366004612dd3565b6116a4565b3480156105f757600080fd5b5061049a610606366004612dd3565b60106020526000908152604090205460ff1681565b34801561062757600080fd5b506103c7600c5481565b34801561063d57600080fd5b5061046861064c366004612e66565b6116ce565b34801561065d57600080fd5b5061046861066c366004612f19565b6117f2565b34801561067d57600080fd5b5061046861068c366004612f51565b611932565b34801561069d57600080fd5b5061049a6106ac366004612dd3565b7f00000000000000000000000000000000000000000000000000000000000000006001600160a01b0390811691161490565b3480156106ea57600080fd5b506106f3611965565b6040516103d19190612f88565b34801561070c57600080fd5b5061046861071b366004612dd3565b6119c7565b34801561072c57600080fd5b506104686119f1565b34801561074157600080fd5b506103c760195481565b34801561075757600080fd5b50610468610766366004612fd5565b611c25565b34801561077757600080fd5b5060025461078c90600160a81b900460ff1681565b6040516103d1919061300c565b3480156107a557600080fd5b5061049a6107b4366004612dd3565b60126020526000908152604090205460ff1681565b3480156107d557600080fd5b50610468611c8c565b3480156107ea57600080fd5b5061049a6107f9366004612d9e565b611c9e565b34801561080a57600080fd5b50610468611cd2565b34801561081f57600080fd5b506018546103fa906001600160a01b031681565b34801561083f57600080fd5b5061049a61084e366004612dd3565b611edc565b34801561085f57600080fd5b506002546001600160a01b03166103fa565b34801561087d57600080fd5b5061046861088c366004612dd3565b611f3b565b34801561089d57600080fd5b506103c7600b5481565b3480156108b357600080fd5b506104686108c2366004612d9e565b611f65565b3480156108d357600080fd5b506017546103fa906001600160a01b031681565b3480156108f357600080fd5b506106f361200d565b34801561090857600080fd5b506103c760075481565b34801561091e57600080fd5b5061049a61092d366004612dd3565b6001600160a01b031660009081526012602052604090205460ff1690565b34801561095757600080fd5b50610468610966366004613034565b61206d565b34801561097757600080fd5b506003546103fa906001600160a01b031681565b34801561099757600080fd5b506104686109a6366004612d9e565b61219f565b3480156109b757600080fd5b506104686109c6366004613056565b6121de565b3480156109d757600080fd5b506103c760095481565b6104686109ef366004612d9e565b6123b2565b348015610a0057600080fd5b506103fa610a0f366004612d9e565b612726565b348015610a2057600080fd5b506103c7610a2f366004612d9e565b60016020526000908152604090205481565b348015610a4d57600080fd5b506103c7600e5481565b348015610a6357600080fd5b50610468610a72366004612dd3565b612736565b348015610a8357600080fd5b506103c76127d6565b348015610a9857600080fd5b506106f361282d565b348015610aad57600080fd5b506103c7610abc366004612dd3565b6001600160a01b031660009081526011602052604090205490565b348015610ae357600080fd5b50610468610af2366004612dd3565b61288d565b348015610b0357600080fd5b50610468610b12366004612dd3565b6128e9565b348015610b2357600080fd5b506005546103fa906001600160a01b031681565b348015610b4357600080fd5b50610468612927565b348015610b5857600080fd5b506103c7610b67366004612dd3565b60116020526000908152604090205481565b60148181548110610b8957600080fd5b6000918252602090912001546001600160a01b0316905081565b6004546001600160a01b0316610bb76129d5565b6001600160a01b03161480610be657506002546001600160a01b0316610bdb6129d5565b6001600160a01b0316145b80610c16575060136000610bf86129d5565b6001600160a01b0316815260208101919091526040016000205460ff165b610c3b5760405162461bcd60e51b8152600401610c32906130d2565b60405180910390fd5b601955565b6004546001600160a01b0316610c546129d5565b6001600160a01b031614610c7a5760405162461bcd60e51b8152600401610c3290613116565b610c846002611c25565b565b6004546001600160a01b0316610c9a6129d5565b6001600160a01b031614610cc05760405162461bcd60e51b8152600401610c3290613116565b6000600254600160a81b900460ff166004811115610ce057610ce0612ff6565b1480610d08575060028054600160a81b900460ff166004811115610d0657610d06612ff6565b145b610d545760405162461bcd60e51b815260206004820152601a60248201527f4c6f747465727920697320696e206163746976652073746174650000000000006044820152606401610c32565b610d5e6001611c25565b610c846129e4565b6004546001600160a01b0316610d7a6129d5565b6001600160a01b031614610da05760405162461bcd60e51b8152600401610c3290613116565b60005b601554811015610fff5760006011600060158481548110610dc657610dc6613158565b60009182526020808320909101546001600160a01b031683528201929092526040018120546015805491935060119183919086908110610e0857610e08613158565b6000918252602080832091909101546001600160a01b039081168452908301939093526040918201902092909255601754915163a9059cbb60e01b815285821660048201526024810184905291169063a9059cbb906044016020604051808303816000875af1158015610e7f573d6000803e3d6000fd5b505050506040513d601f19601f82011682018060405250810190610ea3919061316e565b50826001600160a01b03166350f3dbec60158481548110610ec657610ec6613158565b60009182526020909120015460405160e083901b6001600160e01b03191681526001600160a01b03909116600482015260248101849052604401600060405180830381600087803b158015610f1a57600080fd5b505af1158015610f2e573d6000803e3d6000fd5b5050601554610f419250600191506131a1565b821015610fc35760158054610f58906001906131a1565b81548110610f6857610f68613158565b600091825260209091200154601580546001600160a01b039092169184908110610f9457610f94613158565b9060005260206000200160006101000a8154816001600160a01b0302191690836001600160a01b031602179055505b6015805480610fd457610fd46131ba565b600082815260209020810160001990810180546001600160a01b031916905501905550600101610da3565b5050565b6004546001600160a01b03166110176129d5565b6001600160a01b03161461103d5760405162461bcd60e51b8152600401610c3290613116565b60085460000361104d5760088190555b600755565b6004546001600160a01b03166110666129d5565b6001600160a01b03161461108c5760405162461bcd60e51b8152600401610c3290613116565b6000600c54116110de5760405162461bcd60e51b815260206004820152601b60248201527f4e6f207469636b657473206c65667420746f20616c6c6f6361746500000000006044820152606401610c32565b600f54600c54106111a65760005b600f5481101561118f576000600f828154811061110b5761110b613158565b6000918252602090912001546001600160a01b03169050611144816001600160a01b031660009081526012602052604090205460ff1690565b6111865761115181612736565b6040516001600160a01b038216907f1d4c260f1824cd028e6c9e6e31c3a0b94f2513e7a641113ec759d382f9bdd5a190600090a25b506001016110ec565b5061119c600f6000612d6c565b6000600c55611447565b60005b600f548110156112c157600f546000906111c49083906131a1565b600e546111d191906131e6565b6111db90836131fa565b90506000600f82815481106111f2576111f2613158565b600091825260209091200154600f80546001600160a01b039092169250908490811061122057611220613158565b600091825260209091200154600f80546001600160a01b03909216918490811061124c5761124c613158565b9060005260206000200160006101000a8154816001600160a01b0302191690836001600160a01b0316021790555080600f848154811061128e5761128e613158565b600091825260209091200180546001600160a01b0319166001600160a01b039290921691909117905550506001016111a9565b5060005b600c54811015611368576000600f82815481106112e4576112e4613158565b6000918252602090912001546001600160a01b0316905061131d816001600160a01b031660009081526012602052604090205460ff1690565b61135f5761132a81612736565b6040516001600160a01b038216907f1d4c260f1824cd028e6c9e6e31c3a0b94f2513e7a641113ec759d382f9bdd5a190600090a25b506001016112c5565b50600c546000905b600f548110156113f757600f818154811061138d5761138d613158565b600091825260209091200154600f80546001600160a01b0390921691849081106113b9576113b9613158565b600091825260209091200180546001600160a01b0319166001600160a01b0392909216919091179055816113ec8161320d565b925050600101611370565b50805b600f5481101561143f57600f805480611415576114156131ba565b600082815260209020810160001990810180546001600160a01b03191690550190556001016113fa565b50506000600c555b600c54600003610c84576040517f9c89a6ed7228533196a3f962acc80d61a9c53bdea6b910741bf754f5aaa7569e90600090a1565b601060006114886129d5565b6001600160a01b0316815260208101919091526040016000205460ff16156114e75760405162461bcd60e51b815260206004820152601260248201527113919508185b1c9958591e481b5a5b9d195960721b6044820152606401610c32565b60028054600160a81b900460ff16600481111561150657611506612ff6565b146115535760405162461bcd60e51b815260206004820152601860248201527f4c6f7474657279206973206e6f7420656e6465642079657400000000000000006044820152606401610c32565b61155e61092d6129d5565b6115a35760405162461bcd60e51b815260206004820152601660248201527521b0b63632b91034b9903737ba1030903bb4b73732b960511b6044820152606401610c32565b6001601060006115b16129d5565b6001600160a01b0390811682526020820192909252604001600020805460ff19169215159290921790915560165416636b8f60f66115ed6129d5565b6040516001600160e01b031960e084901b1681526001600160a01b039091166004820152602401600060405180830381600087803b15801561162e57600080fd5b505af1158015611642573d6000803e3d6000fd5b50505050565b6004546001600160a01b031661165c6129d5565b6001600160a01b0316146116825760405162461bcd60e51b8152600401610c3290613116565b601880546001600160a01b0319166001600160a01b0392909216919091179055565b6116ac612ae3565b601680546001600160a01b0319166001600160a01b0392909216919091179055565b600254600160a01b900460ff161561171e5760405162461bcd60e51b8152602060048201526013602482015272105b1c9958591e481a5b9a5d1a585b1a5e9959606a1b6044820152606401610c32565b6040810151600480546001600160a01b039283166001600160a01b031991821617909155602083015160058054919093169116179055606081015161176290612b41565b6080810151600d81905561177590611f65565b60a08101516006819055600781905560085560c081015160195560e0810151601780546001600160a01b03199081166001600160a01b03938416179091556101008301516003805483169184169190911790556101209092015160188054909316911617905560028054600160a01b60ff60a01b19909116179055565b6117fa6129d5565b6018546001600160a01b039081169116146118675760405162461bcd60e51b815260206004820152602760248201527f4f6e6c792077686974656c6973746564206d61792063616c6c207468697320666044820152663ab731ba34b7b760c91b6064820152608401610c32565b601160006118736129d5565b6001600160a01b03166001600160a01b03168152602001908152602001600020546000036118e757601580546001810182556000919091527f55f448fdea98c4d29eb340757ef0a66cd03dbb9538908a6a81d96026b71ec4750180546001600160a01b0319166001600160a01b0384161790555b6001600160a01b0382166000908152601160205260408120805483929061190f9084906131fa565b9250508190555060016009600082825461192991906131fa565b90915550505050565b61193a612ae3565b6001600160a01b03919091166000908152601360205260409020805460ff1916911515919091179055565b606060158054806020026020016040519081016040528092919081815260200182805480156119bd57602002820191906000526020600020905b81546001600160a01b0316815260019091019060200180831161199f575b5050505050905090565b6119cf612ae3565b600380546001600160a01b0319166001600160a01b0392909216919091179055565b6004546001600160a01b0316611a056129d5565b6001600160a01b031614611a2b5760405162461bcd60e51b8152600401610c3290613116565b60028054600160a81b900460ff166004811115611a4a57611a4a612ff6565b14611a8b5760405162461bcd60e51b8152602060048201526011602482015270131bdd1d195c9e481b9bdd08195b991959607a1b6044820152606401610c32565b6000805b601454811015611b0457600060148281548110611aae57611aae613158565b60009182526020808320909101546001600160a01b03168083526011909152604090912054909150611ae090846131fa565b6001600160a01b039091166000908152601160205260408120559150600101611a8f565b5060006064611b14836005613226565b611b1e919061323d565b90506000611b2c82846131a1565b60175460035460405163a9059cbb60e01b81526001600160a01b03918216600482015260248101869052929350169063a9059cbb906044016020604051808303816000875af1158015611b83573d6000803e3d6000fd5b505050506040513d601f19601f82011682018060405250810190611ba7919061316e565b506017546004805460405163a9059cbb60e01b81526001600160a01b0391821692810192909252602482018490529091169063a9059cbb906044016020604051808303816000875af1158015611c01573d6000803e3d6000fd5b505050506040513d601f19601f82011682018060405250810190611642919061316e565b6004546001600160a01b0316611c396129d5565b6001600160a01b031614611c5f5760405162461bcd60e51b8152600401610c3290613116565b6002805482919060ff60a81b1916600160a81b836004811115611c8457611c84612ff6565b021790555050565b611c94612ae3565b610c846000612b41565b60008181548110611cae57600080fd5b9060005260206000209060209182820401919006915054906101000a900460ff1681565b6001600254600160a81b900460ff166004811115611cf257611cf2612ff6565b03611d3f5760405162461bcd60e51b815260206004820152601b60248201527f4c6f74746572792069732063757272656e746c792061637469766500000000006044820152606401610c32565b60126000611d4b6129d5565b6001600160a01b0316815260208101919091526040016000205460ff1615611db55760405162461bcd60e51b815260206004820152601760248201527f57696e6e6572732063616e6e6f742077697468647261770000000000000000006044820152606401610c32565b600060116000611dc36129d5565b6001600160a01b03166001600160a01b0316815260200190815260200160002054905060008111611e2d5760405162461bcd60e51b81526020600482015260146024820152734e6f2066756e647320746f20776974686472617760601b6044820152606401610c32565b600060116000611e3b6129d5565b6001600160a01b0390811682526020820192909252604001600020919091556017541663a9059cbb611e6b6129d5565b6040516001600160e01b031960e084901b1681526001600160a01b039091166004820152602481018490526044016020604051808303816000875af1158015611eb8573d6000803e3d6000fd5b505050506040513d601f19601f82011682018060405250810190610fff919061316e565b6000805b600f54811015611f3257826001600160a01b0316600f8281548110611f0757611f07613158565b6000918252602090912001546001600160a01b031603611f2a5750600192915050565b600101611ee0565b50600092915050565b611f43612ae3565b601780546001600160a01b0319166001600160a01b0392909216919091179055565b6004546001600160a01b0316611f796129d5565b6001600160a01b031614611f9f5760405162461bcd60e51b8152600401610c3290613116565b600081116120035760405162461bcd60e51b815260206004820152602b60248201527f4e756d626572206f66207469636b657473206d7573742062652067726561746560448201526a72207468616e207a65726f60a81b6064820152608401610c32565b600c819055600a55565b6060600f8054806020026020016040519081016040528092919081815260200182805480156119bd576020028201919060005260206000209081546001600160a01b0316815260019091019060200180831161199f575050505050905090565b6004546001600160a01b03166120816129d5565b6001600160a01b031614806120b057506002546001600160a01b03166120a56129d5565b6001600160a01b0316145b806120e05750601360006120c26129d5565b6001600160a01b0316815260208101919091526040016000205460ff165b6120fc5760405162461bcd60e51b8152600401610c32906130d2565b6000600c546009541061213a57600a54600954612119919061323d565b600b546121269190613226565b60075461213391906131fa565b9050612180565b600a5460095461214a919061323d565b6121559060016131a1565b600b546121629190613226565b60075461216f91906131a1565b905060085481101561218057506008545b600781905561218e83610ba3565b506000600955600c819055600a5550565b6004546001600160a01b03166121b36129d5565b6001600160a01b0316146121d95760405162461bcd60e51b8152600401610c3290613116565b600b55565b6005546001600160a01b031633146122285760405162461bcd60e51b815260206004820152600d60248201526c37b7363c9037b832b930ba37b960991b6044820152606401610c32565b600061223682840184613279565b915050600080828060200190518101906122509190613327565b91509150600085856040516122669291906133aa565b604080519182900390912060008581526001602052918220548254919350831491908590811061229857612298613158565b90600052602060002090602091828204019190069054906101000a900460ff166123045760405162461bcd60e51b815260206004820152601c60248201527f726571756573742066756c66696c6c6564206f72206d697373696e67000000006044820152606401610c32565b80156123a85760408051602081018a905230918101919091524660608201526080810185905260a0016040516020818303038152906040528051906020012060001c9750612353888585612b93565b600080858154811061236757612367613158565b90600052602060002090602091828204019190066101000a81548160ff02191690831515021790555060016000858152602001908152602001600020600090555b5050505050505050565b6123bd61092d6129d5565b156124035760405162461bcd60e51b815260206004820152601660248201527515da5b9b995c9cc818d85b9b9bdd0819195c1bdcda5d60521b6044820152606401610c32565b426019541161245e5760405162461bcd60e51b815260206004820152602160248201527f4465706f7369747320617265206e6f7420706f737369626c6520616e796d6f726044820152606560f81b6064820152608401610c32565b6017546001600160a01b03166124b65760405162461bcd60e51b815260206004820152601d60248201527f5553444320636f6e74726163742061646472657373206e6f74207365740000006044820152606401610c32565b600081116124f65760405162461bcd60e51b815260206004820152600d60248201526c139bc8199d5b991cc81cd95b9d609a1b6044820152606401610c32565b60175481906001600160a01b031663dd62ed3e6125116129d5565b6040516001600160e01b031960e084901b1681526001600160a01b039091166004820152306024820152604401602060405180830381865afa15801561255b573d6000803e3d6000fd5b505050506040513d601f19601f8201168201806040525081019061257f91906133ba565b10156125c65760405162461bcd60e51b8152602060048201526016602482015275496e73756666696369656e7420616c6c6f77616e636560501b6044820152606401610c32565b6017546001600160a01b03166323b872dd6125df6129d5565b6040516001600160e01b031960e084901b1681526001600160a01b039091166004820152306024820152604481018490526064016020604051808303816000875af1158015612632573d6000803e3d6000fd5b505050506040513d601f19601f82011682018060405250810190612656919061316e565b50601160006126636129d5565b6001600160a01b03166001600160a01b03168152602001908152602001600020546000036126c85760156126956129d5565b81546001810183556000928352602090922090910180546001600160a01b0319166001600160a01b039092169190911790555b80601160006126d56129d5565b6001600160a01b03166001600160a01b03168152602001908152602001600020600082825461270491906131fa565b9250508190555060016009600082825461271e91906131fa565b909155505050565b600f8181548110610b8957600080fd5b6004546001600160a01b031661274a6129d5565b6001600160a01b0316146127705760405162461bcd60e51b8152600401610c3290613116565b6001600160a01b03166000818152601260205260408120805460ff191660019081179091556014805491820181559091527fce6d7b5282bd9a3661ae061feed1dbda4e52ab073b1f9285be6e155d9c38d4ec0180546001600160a01b0319169091179055565b600042446127e26129d5565b6040805160208101949094528301919091526bffffffffffffffffffffffff19606091821b16908201526074016040516020818303038152906040528051906020012060001c905090565b606060148054806020026020016040519081016040528092919081815260200182805480156119bd576020028201919060005260206000209081546001600160a01b0316815260019091019060200180831161199f575050505050905090565b6004546001600160a01b03166128a16129d5565b6001600160a01b0316146128c75760405162461bcd60e51b8152600401610c3290613116565b600480546001600160a01b0319166001600160a01b0392909216919091179055565b6128f1612ae3565b6001600160a01b03811661291b57604051631e4fbdf760e01b815260006004820152602401610c32565b61292481612b41565b50565b6004546001600160a01b031661293b6129d5565b6001600160a01b0316146129615760405162461bcd60e51b8152600401610c3290613116565b61299561296c6129d5565b604080516001600160a01b03909216602083015201604051602081830303815290604052612bd0565b5061299e6129d5565b6001600160a01b03167fd802e7c7f1646e3318c03abed1e468bdf913f45331a68dc912a0d645eb646a4260405160405180910390a2565b60006129df612cd1565b905090565b6129f0600f6000612d6c565b60005b6015548110156129245760006011600060158481548110612a1657612a16613158565b60009182526020808320909101546001600160a01b031683528201929092526040019020546007549091508110612ada57612a8560158381548110612a5d57612a5d613158565b60009182526020808320909101546001600160a01b0316825260129052604090205460ff1690565b612ada57600f60158381548110612a9e57612a9e613158565b60009182526020808320909101548354600181018555938352912090910180546001600160a01b0319166001600160a01b039092169190911790555b506001016129f3565b612aeb6129d5565b6001600160a01b0316612b066002546001600160a01b031690565b6001600160a01b031614610c8457612b1c6129d5565b60405163118cdaa760e01b81526001600160a01b039091166004820152602401610c32565b600280546001600160a01b038381166001600160a01b0319831681179093556040519116919082907f8be0079c531659141344cd1fd0a4f28419497f9722a3daafe3b4186f6b6457e090600090a35050565b600e8390556040518381527fa2353d33775668d31add0688b8ed09ca3a91dc8129126fcdbcbda3a887db60db9060200160405180910390a1505050565b6000805460018082018084558380529192909183908110612bf357612bf3613158565b90600052602060002090602091828204019190066101000a81548160ff02191690831515021790555060008183604051602001612c319291906133d3565b60405160208183030381529060405290506000612c4c612d15565b905060008183604051602001612c639291906133d3565b60408051601f198184030181528282528051602080830191909120600089815260019092529290208290559250907fd91fc3685b930310b008ec37d2334870cab88a023ed8cc628a2e2ccd4e55d20290612cc090859087906133d3565b60405180910390a150505050919050565b60007f00000000000000000000000000000000000000000000000000000000000000006001600160a01b03163303612d10575060131936013560601c90565b503390565b600080612d266364e62127426131a1565b90506000612d3560038361323d565b612d409060016131fa565b905046600114612d5a57612d558160016131fa565b612d65565b612d658160046131fa565b9250505090565b508054600082559060005260206000209081019061292491905b80821115612d9a5760008155600101612d86565b5090565b600060208284031215612db057600080fd5b5035919050565b80356001600160a01b0381168114612dce57600080fd5b919050565b600060208284031215612de557600080fd5b612dee82612db7565b9392505050565b634e487b7160e01b600052604160045260246000fd5b604051610140810167ffffffffffffffff81118282101715612e2f57612e2f612df5565b60405290565b604051601f8201601f1916810167ffffffffffffffff81118282101715612e5e57612e5e612df5565b604052919050565b60006101408284031215612e7957600080fd5b612e81612e0b565b612e8a83612db7565b8152612e9860208401612db7565b6020820152612ea960408401612db7565b6040820152612eba60608401612db7565b60608201526080830135608082015260a083013560a082015260c083013560c0820152612ee960e08401612db7565b60e0820152610100612efc818501612db7565b90820152610120612f0e848201612db7565b908201529392505050565b60008060408385031215612f2c57600080fd5b612f3583612db7565b946020939093013593505050565b801515811461292457600080fd5b60008060408385031215612f6457600080fd5b612f6d83612db7565b91506020830135612f7d81612f43565b809150509250929050565b6020808252825182820181905260009190848201906040850190845b81811015612fc95783516001600160a01b031683529284019291840191600101612fa4565b50909695505050505050565b600060208284031215612fe757600080fd5b813560058110612dee57600080fd5b634e487b7160e01b600052602160045260246000fd5b602081016005831061302e57634e487b7160e01b600052602160045260246000fd5b91905290565b6000806040838503121561304757600080fd5b50508035926020909101359150565b60008060006040848603121561306b57600080fd5b83359250602084013567ffffffffffffffff8082111561308a57600080fd5b818601915086601f83011261309e57600080fd5b8135818111156130ad57600080fd5b8760208285010111156130bf57600080fd5b6020830194508093505050509250925092565b60208082526024908201527f4f6e6c79206f70657261746f722063616e2063616c6c20746869732066756e636040820152633a34b7b760e11b606082015260800190565b60208082526022908201527f4f6e6c792073656c6c65722063616e2063616c6c20746869732066756e63746960408201526137b760f11b606082015260800190565b634e487b7160e01b600052603260045260246000fd5b60006020828403121561318057600080fd5b8151612dee81612f43565b634e487b7160e01b600052601160045260246000fd5b818103818111156131b4576131b461318b565b92915050565b634e487b7160e01b600052603160045260246000fd5b634e487b7160e01b600052601260045260246000fd5b6000826131f5576131f56131d0565b500690565b808201808211156131b4576131b461318b565b60006001820161321f5761321f61318b565b5060010190565b80820281158282048414176131b4576131b461318b565b60008261324c5761324c6131d0565b500490565b600067ffffffffffffffff82111561326b5761326b612df5565b50601f01601f191660200190565b6000806040838503121561328c57600080fd5b82359150602083013567ffffffffffffffff8111156132aa57600080fd5b8301601f810185136132bb57600080fd5b80356132ce6132c982613251565b612e35565b8181528660208385010111156132e357600080fd5b816020840160208301376000602083830101528093505050509250929050565b60005b8381101561331e578181015183820152602001613306565b50506000910152565b6000806040838503121561333a57600080fd5b82519150602083015167ffffffffffffffff81111561335857600080fd5b8301601f8101851361336957600080fd5b80516133776132c982613251565b81815286602083850101111561338c57600080fd5b61339d826020830160208601613303565b8093505050509250929050565b8183823760009101908152919050565b6000602082840312156133cc57600080fd5b5051919050565b82815260406020820152600082518060408401526133f8816060850160208701613303565b601f01601f191691909101606001939250505056fea26469706673582212207269aa85d59d75325d6aa7756b490023b35c7fa553657680b26e5431af9f7d9f64736f6c63430008190033",
    "linkReferences": {}
  },
  "methodIdentifiers": {
    "buyerWithdraw()": "7cc947d0",
    "changeLotteryState(uint8)": "683e93e1",
    "currentPrice()": "9d1b464a",
    "deposit(uint256)": "b6b55f25",
    "deposits(address)": "fc7e286d",
    "eligibleParticipants(uint256)": "b7a62e24",
    "endLottery()": "1593a8c7",
    "finishAt()": "67d3b488",
    "fulfillRandomness(uint256,bytes)": "b3f6b99a",
    "getDepositedAmount(address)": "e9081ec7",
    "getEligibleParticipants()": "9abdccd1",
    "getParticipants()": "5aa68ac0",
    "getRandomNumber()": "dbdff2c1",
    "getWinners()": "df15c37e",
    "hasMinted(address)": "38e21cce",
    "increasePriceStep()": "96efac7b",
    "initialPrice()": "1d0806ae",
    "initialize((address,address,address,address,uint256,uint256,uint256,address,address,address))": "4a0a5ce9",
    "initialized()": "158ef93e",
    "isParticipantEligible(address)": "8a6723e6",
    "isTrustedForwarder(address)": "572b6c05",
    "isWinner(address)": "9d9ca28d",
    "lotteryState()": "6939864b",
    "lotteryV2Addr()": "7de13382",
    "minimumDepositAmount()": "080c279a",
    "mintMyNFT()": "26170480",
    "multisigWalletAddress()": "a61fb2ba",
    "nftContractAddr()": "2c23ec8e",
    "numberOfTickets()": "45745c10",
    "operatorAddr()": "f3f18c37",
    "operators(address)": "13e7c9d8",
    "owner()": "8da5cb5b",
    "prevRoundDeposits()": "b680e44b",
    "prevRoundTicketsAmount()": "224f91bd",
    "randomNumber()": "ccbac9f5",
    "renounceOwnership()": "715018a6",
    "requestPending(uint256)": "75ce7fff",
    "requestRandomness()": "f8413b07",
    "requestedHash(uint256)": "c4f8f27b",
    "selectWinners()": "1a0de74c",
    "seller()": "08551a53",
    "sellerWithdraw()": "66af746b",
    "setCurrentPrice(uint256)": "18b20071",
    "setFinishAt(uint256)": "0bea6637",
    "setLotteryV2Addr(address)": "3639eb2e",
    "setMultisigWalletAddress(address)": "60d50da3",
    "setNftContractAddr(address)": "3644c27c",
    "setNumberOfTickets(uint256)": "99bd69d6",
    "setOperator(address,bool)": "558a7297",
    "setPriceStep(uint256)": "af94862c",
    "setSeller(address)": "e99d2866",
    "setUsdcContractAddr(address)": "94d898de",
    "setWinner(address)": "d9fca769",
    "setupNewRound(uint256,uint256)": "a4f03c02",
    "startLottery()": "160344e2",
    "totalNumberOfTickets()": "00746702",
    "transferDeposit(address,uint256)": "50f3dbec",
    "transferNonWinnerBids(address)": "1630a8df",
    "transferOwnership(address)": "f2fde38b",
    "usdcContractAddr()": "99dbf4b5",
    "winnerAddresses(uint256)": "045f9c97",
    "winners(address)": "6bd5450a"
  },
  "id": 37
}