{
  "abi": [
    {
      "type": "function",
      "name": "buyerWithdraw",
      "inputs": [],
      "outputs": [],
      "stateMutability": "nonpayable"
    },
    {
      "type": "function",
      "name": "changeLotteryState",
      "inputs": [
        {
          "name": "_newState",
          "type": "uint8",
          "internalType": "enum AuctionV1Base.LotteryState"
        }
      ],
      "outputs": [],
      "stateMutability": "nonpayable"
    },
    {
      "type": "function",
      "name": "currentPrice",
      "inputs": [],
      "outputs": [
        {
          "name": "",
          "type": "uint256",
          "internalType": "uint256"
        }
      ],
      "stateMutability": "view"
    },
    {
      "type": "function",
      "name": "deposit",
      "inputs": [
        {
          "name": "amount",
          "type": "uint256",
          "internalType": "uint256"
        }
      ],
      "outputs": [],
      "stateMutability": "payable"
    },
    {
      "type": "function",
      "name": "deposits",
      "inputs": [
        {
          "name": "",
          "type": "address",
          "internalType": "address"
        }
      ],
      "outputs": [
        {
          "name": "",
          "type": "uint256",
          "internalType": "uint256"
        }
      ],
      "stateMutability": "view"
    },
    {
      "type": "function",
      "name": "eligibleParticipants",
      "inputs": [
        {
          "name": "",
          "type": "uint256",
          "internalType": "uint256"
        }
      ],
      "outputs": [
        {
          "name": "",
          "type": "address",
          "internalType": "address"
        }
      ],
      "stateMutability": "view"
    },
    {
      "type": "function",
      "name": "endLottery",
      "inputs": [],
      "outputs": [],
      "stateMutability": "nonpayable"
    },
    {
      "type": "function",
      "name": "finishAt",
      "inputs": [],
      "outputs": [
        {
          "name": "",
          "type": "uint256",
          "internalType": "uint256"
        }
      ],
      "stateMutability": "view"
    },
    {
      "type": "function",
      "name": "fulfillRandomness",
      "inputs": [
        {
          "name": "randomness",
          "type": "uint256",
          "internalType": "uint256"
        },
        {
          "name": "dataWithRound",
          "type": "bytes",
          "internalType": "bytes"
        }
      ],
      "outputs": [],
      "stateMutability": "nonpayable"
    },
    {
      "type": "function",
      "name": "getDepositedAmount",
      "inputs": [
        {
          "name": "participant",
          "type": "address",
          "internalType": "address"
        }
      ],
      "outputs": [
        {
          "name": "",
          "type": "uint256",
          "internalType": "uint256"
        }
      ],
      "stateMutability": "view"
    },
    {
      "type": "function",
      "name": "getEligibleParticipants",
      "inputs": [],
      "outputs": [
        {
          "name": "",
          "type": "address[]",
          "internalType": "address[]"
        }
      ],
      "stateMutability": "view"
    },
    {
      "type": "function",
      "name": "getParticipants",
      "inputs": [],
      "outputs": [
        {
          "name": "",
          "type": "address[]",
          "internalType": "address[]"
        }
      ],
      "stateMutability": "view"
    },
    {
      "type": "function",
      "name": "getRandomNumber",
      "inputs": [],
      "outputs": [
        {
          "name": "",
          "type": "uint256",
          "internalType": "uint256"
        }
      ],
      "stateMutability": "view"
    },
    {
      "type": "function",
      "name": "getWinners",
      "inputs": [],
      "outputs": [
        {
          "name": "",
          "type": "address[]",
          "internalType": "address[]"
        }
      ],
      "stateMutability": "view"
    },
    {
      "type": "function",
      "name": "hasMinted",
      "inputs": [
        {
          "name": "",
          "type": "address",
          "internalType": "address"
        }
      ],
      "outputs": [
        {
          "name": "",
          "type": "bool",
          "internalType": "bool"
        }
      ],
      "stateMutability": "view"
    },
    {
      "type": "function",
      "name": "increasePriceStep",
      "inputs": [],
      "outputs": [
        {
          "name": "",
          "type": "uint256",
          "internalType": "uint256"
        }
      ],
      "stateMutability": "view"
    },
    {
      "type": "function",
      "name": "initialPrice",
      "inputs": [],
      "outputs": [
        {
          "name": "",
          "type": "uint256",
          "internalType": "uint256"
        }
      ],
      "stateMutability": "view"
    },
    {
      "type": "function",
      "name": "initialize",
      "inputs": [
        {
          "name": "config",
          "type": "tuple",
          "internalType": "struct StructsLibrary.ILotteryBaseConfig",
          "components": [
            {
              "name": "_seller",
              "type": "address",
              "internalType": "address"
            },
            {
              "name": "_gelatoVrfOperator",
              "type": "address",
              "internalType": "address"
            },
            {
              "name": "_blessedOperator",
              "type": "address",
              "internalType": "address"
            },
            {
              "name": "_owner",
              "type": "address",
              "internalType": "address"
            },
            {
              "name": "_ticketAmount",
              "type": "uint256",
              "internalType": "uint256"
            },
            {
              "name": "_ticketPrice",
              "type": "uint256",
              "internalType": "uint256"
            },
            {
              "name": "_finishAt",
              "type": "uint256",
              "internalType": "uint256"
            },
            {
              "name": "_usdcContractAddr",
              "type": "address",
              "internalType": "address"
            },
            {
              "name": "_multisigWalletAddress",
              "type": "address",
              "internalType": "address"
            }
          ]
        }
      ],
      "outputs": [],
      "stateMutability": "nonpayable"
    },
    {
      "type": "function",
      "name": "initialized",
      "inputs": [],
      "outputs": [
        {
          "name": "",
          "type": "bool",
          "internalType": "bool"
        }
      ],
      "stateMutability": "view"
    },
    {
      "type": "function",
      "name": "isParticipantEligible",
      "inputs": [
        {
          "name": "participant",
          "type": "address",
          "internalType": "address"
        }
      ],
      "outputs": [
        {
          "name": "",
          "type": "bool",
          "internalType": "bool"
        }
      ],
      "stateMutability": "view"
    },
    {
      "type": "function",
      "name": "isTrustedForwarder",
      "inputs": [
        {
          "name": "forwarder",
          "type": "address",
          "internalType": "address"
        }
      ],
      "outputs": [
        {
          "name": "",
          "type": "bool",
          "internalType": "bool"
        }
      ],
      "stateMutability": "view"
    },
    {
      "type": "function",
      "name": "isWinner",
      "inputs": [
        {
          "name": "_participant",
          "type": "address",
          "internalType": "address"
        }
      ],
      "outputs": [
        {
          "name": "",
          "type": "bool",
          "internalType": "bool"
        }
      ],
      "stateMutability": "view"
    },
    {
      "type": "function",
      "name": "lotteryState",
      "inputs": [],
      "outputs": [
        {
          "name": "",
          "type": "uint8",
          "internalType": "enum AuctionV1Base.LotteryState"
        }
      ],
      "stateMutability": "view"
    },
    {
      "type": "function",
      "name": "lotteryV2Addr",
      "inputs": [],
      "outputs": [
        {
          "name": "",
          "type": "address",
          "internalType": "address"
        }
      ],
      "stateMutability": "view"
    },
    {
      "type": "function",
      "name": "minimumDepositAmount",
      "inputs": [],
      "outputs": [
        {
          "name": "",
          "type": "uint256",
          "internalType": "uint256"
        }
      ],
      "stateMutability": "view"
    },
    {
      "type": "function",
      "name": "mintMyNFT",
      "inputs": [],
      "outputs": [],
      "stateMutability": "nonpayable"
    },
    {
      "type": "function",
      "name": "multisigWalletAddress",
      "inputs": [],
      "outputs": [
        {
          "name": "",
          "type": "address",
          "internalType": "address"
        }
      ],
      "stateMutability": "view"
    },
    {
      "type": "function",
      "name": "nftContractAddr",
      "inputs": [],
      "outputs": [
        {
          "name": "",
          "type": "address",
          "internalType": "address"
        }
      ],
      "stateMutability": "view"
    },
    {
      "type": "function",
      "name": "numberOfTickets",
      "inputs": [],
      "outputs": [
        {
          "name": "",
          "type": "uint256",
          "internalType": "uint256"
        }
      ],
      "stateMutability": "view"
    },
    {
      "type": "function",
      "name": "operatorAddr",
      "inputs": [],
      "outputs": [
        {
          "name": "",
          "type": "address",
          "internalType": "address"
        }
      ],
      "stateMutability": "view"
    },
    {
      "type": "function",
      "name": "operators",
      "inputs": [
        {
          "name": "",
          "type": "address",
          "internalType": "address"
        }
      ],
      "outputs": [
        {
          "name": "",
          "type": "bool",
          "internalType": "bool"
        }
      ],
      "stateMutability": "view"
    },
    {
      "type": "function",
      "name": "owner",
      "inputs": [],
      "outputs": [
        {
          "name": "",
          "type": "address",
          "internalType": "address"
        }
      ],
      "stateMutability": "view"
    },
    {
      "type": "function",
      "name": "prevRoundDeposits",
      "inputs": [],
      "outputs": [
        {
          "name": "",
          "type": "uint256",
          "internalType": "uint256"
        }
      ],
      "stateMutability": "view"
    },
    {
      "type": "function",
      "name": "prevRoundTicketsAmount",
      "inputs": [],
      "outputs": [
        {
          "name": "",
          "type": "uint256",
          "internalType": "uint256"
        }
      ],
      "stateMutability": "view"
    },
    {
      "type": "function",
      "name": "randomNumber",
      "inputs": [],
      "outputs": [
        {
          "name": "",
          "type": "uint256",
          "internalType": "uint256"
        }
      ],
      "stateMutability": "view"
    },
    {
      "type": "function",
      "name": "renounceOwnership",
      "inputs": [],
      "outputs": [],
      "stateMutability": "nonpayable"
    },
    {
      "type": "function",
      "name": "requestPending",
      "inputs": [
        {
          "name": "",
          "type": "uint256",
          "internalType": "uint256"
        }
      ],
      "outputs": [
        {
          "name": "",
          "type": "bool",
          "internalType": "bool"
        }
      ],
      "stateMutability": "view"
    },
    {
      "type": "function",
      "name": "requestRandomness",
      "inputs": [],
      "outputs": [],
      "stateMutability": "nonpayable"
    },
    {
      "type": "function",
      "name": "requestedHash",
      "inputs": [
        {
          "name": "",
          "type": "uint256",
          "internalType": "uint256"
        }
      ],
      "outputs": [
        {
          "name": "",
          "type": "bytes32",
          "internalType": "bytes32"
        }
      ],
      "stateMutability": "view"
    },
    {
      "type": "function",
      "name": "selectWinners",
      "inputs": [],
      "outputs": [],
      "stateMutability": "nonpayable"
    },
    {
      "type": "function",
      "name": "seller",
      "inputs": [],
      "outputs": [
        {
          "name": "",
          "type": "address",
          "internalType": "address"
        }
      ],
      "stateMutability": "view"
    },
    {
      "type": "function",
      "name": "sellerWithdraw",
      "inputs": [],
      "outputs": [],
      "stateMutability": "nonpayable"
    },
    {
      "type": "function",
      "name": "setCurrentPrice",
      "inputs": [
        {
          "name": "_amount",
          "type": "uint256",
          "internalType": "uint256"
        }
      ],
      "outputs": [],
      "stateMutability": "nonpayable"
    },
    {
      "type": "function",
      "name": "setFinishAt",
      "inputs": [
        {
          "name": "_finishAt",
          "type": "uint256",
          "internalType": "uint256"
        }
      ],
      "outputs": [],
      "stateMutability": "nonpayable"
    },
    {
      "type": "function",
      "name": "setLotteryV2Addr",
      "inputs": [
        {
          "name": "_lotteryV2Addr",
          "type": "address",
          "internalType": "address"
        }
      ],
      "outputs": [],
      "stateMutability": "nonpayable"
    },
    {
      "type": "function",
      "name": "setMultisigWalletAddress",
      "inputs": [
        {
          "name": "_multisigWalletAddress",
          "type": "address",
          "internalType": "address"
        }
      ],
      "outputs": [],
      "stateMutability": "nonpayable"
    },
    {
      "type": "function",
      "name": "setNftContractAddr",
      "inputs": [
        {
          "name": "_nftContractAddr",
          "type": "address",
          "internalType": "address"
        }
      ],
      "outputs": [],
      "stateMutability": "nonpayable"
    },
    {
      "type": "function",
      "name": "setNumberOfTickets",
      "inputs": [
        {
          "name": "_numberOfTickets",
          "type": "uint256",
          "internalType": "uint256"
        }
      ],
      "outputs": [],
      "stateMutability": "nonpayable"
    },
    {
      "type": "function",
      "name": "setOperator",
      "inputs": [
        {
          "name": "_operatorAddr",
          "type": "address",
          "internalType": "address"
        },
        {
          "name": "_flag",
          "type": "bool",
          "internalType": "bool"
        }
      ],
      "outputs": [],
      "stateMutability": "nonpayable"
    },
    {
      "type": "function",
      "name": "setPriceStep",
      "inputs": [
        {
          "name": "_increasePriceStep",
          "type": "uint256",
          "internalType": "uint256"
        }
      ],
      "outputs": [],
      "stateMutability": "nonpayable"
    },
    {
      "type": "function",
      "name": "setSeller",
      "inputs": [
        {
          "name": "_seller",
          "type": "address",
          "internalType": "address"
        }
      ],
      "outputs": [],
      "stateMutability": "nonpayable"
    },
    {
      "type": "function",
      "name": "setUsdcContractAddr",
      "inputs": [
        {
          "name": "_usdcContractAddr",
          "type": "address",
          "internalType": "address"
        }
      ],
      "outputs": [],
      "stateMutability": "nonpayable"
    },
    {
      "type": "function",
      "name": "setWinner",
      "inputs": [
        {
          "name": "_winner",
          "type": "address",
          "internalType": "address"
        }
      ],
      "outputs": [],
      "stateMutability": "nonpayable"
    },
    {
      "type": "function",
      "name": "setupNewRound",
      "inputs": [
        {
          "name": "_finishAt",
          "type": "uint256",
          "internalType": "uint256"
        },
        {
          "name": "_numberOfTickets",
          "type": "uint256",
          "internalType": "uint256"
        }
      ],
      "outputs": [],
      "stateMutability": "nonpayable"
    },
    {
      "type": "function",
      "name": "startLottery",
      "inputs": [],
      "outputs": [],
      "stateMutability": "nonpayable"
    },
    {
      "type": "function",
      "name": "transferDeposit",
      "inputs": [
        {
          "name": "_participant",
          "type": "address",
          "internalType": "address"
        },
        {
          "name": "_amount",
          "type": "uint256",
          "internalType": "uint256"
        }
      ],
      "outputs": [],
      "stateMutability": "nonpayable"
    },
    {
      "type": "function",
      "name": "transferNonWinnerBids",
      "inputs": [
        {
          "name": "destinationAddr",
          "type": "address",
          "internalType": "address"
        }
      ],
      "outputs": [],
      "stateMutability": "nonpayable"
    },
    {
      "type": "function",
      "name": "transferOwnership",
      "inputs": [
        {
          "name": "newOwner",
          "type": "address",
          "internalType": "address"
        }
      ],
      "outputs": [],
      "stateMutability": "nonpayable"
    },
    {
      "type": "function",
      "name": "usdcContractAddr",
      "inputs": [],
      "outputs": [
        {
          "name": "",
          "type": "address",
          "internalType": "address"
        }
      ],
      "stateMutability": "view"
    },
    {
      "type": "function",
      "name": "winnerAddresses",
      "inputs": [
        {
          "name": "",
          "type": "uint256",
          "internalType": "uint256"
        }
      ],
      "outputs": [
        {
          "name": "",
          "type": "address",
          "internalType": "address"
        }
      ],
      "stateMutability": "view"
    },
    {
      "type": "function",
      "name": "winners",
      "inputs": [
        {
          "name": "",
          "type": "address",
          "internalType": "address"
        }
      ],
      "outputs": [
        {
          "name": "",
          "type": "bool",
          "internalType": "bool"
        }
      ],
      "stateMutability": "view"
    },
    {
      "type": "event",
      "name": "LotteryEnded",
      "inputs": [],
      "anonymous": false
    },
    {
      "type": "event",
      "name": "LotteryStarted",
      "inputs": [],
      "anonymous": false
    },
    {
      "type": "event",
      "name": "OwnershipTransferred",
      "inputs": [
        {
          "name": "previousOwner",
          "type": "address",
          "indexed": true,
          "internalType": "address"
        },
        {
          "name": "newOwner",
          "type": "address",
          "indexed": true,
          "internalType": "address"
        }
      ],
      "anonymous": false
    },
    {
      "type": "event",
      "name": "RandomFullfiled",
      "inputs": [
        {
          "name": "number",
          "type": "uint256",
          "indexed": false,
          "internalType": "uint256"
        }
      ],
      "anonymous": false
    },
    {
      "type": "event",
      "name": "RandomRequested",
      "inputs": [
        {
          "name": "requester",
          "type": "address",
          "indexed": true,
          "internalType": "address"
        }
      ],
      "anonymous": false
    },
    {
      "type": "event",
      "name": "RequestedRandomness",
      "inputs": [
        {
          "name": "round",
          "type": "uint256",
          "indexed": false,
          "internalType": "uint256"
        },
        {
          "name": "data",
          "type": "bytes",
          "indexed": false,
          "internalType": "bytes"
        }
      ],
      "anonymous": false
    },
    {
      "type": "event",
      "name": "WinnerSelected",
      "inputs": [
        {
          "name": "winner",
          "type": "address",
          "indexed": true,
          "internalType": "address"
        }
      ],
      "anonymous": false
    },
    {
      "type": "error",
      "name": "OwnableInvalidOwner",
      "inputs": [
        {
          "name": "owner",
          "type": "address",
          "internalType": "address"
        }
      ]
    },
    {
      "type": "error",
      "name": "OwnableUnauthorizedAccount",
      "inputs": [
        {
          "name": "account",
          "type": "address",
          "internalType": "address"
        }
      ]
    }
  ],
  "bytecode": {
    "object": "0x60a06040526002805460ff60a01b1916905534801561001d57600080fd5b5073d8253782c45a12053594b9deb72d8e8ab2fca54c338061005957604051631e4fbdf760e01b81526000600482015260240160405180910390fd5b61006281610074565b506001600160a01b03166080526100c6565b600280546001600160a01b038381166001600160a01b0319831681179093556040519116919082907f8be0079c531659141344cd1fd0a4f28419497f9722a3daafe3b4186f6b6457e090600090a35050565b6080516134626100e86000396000818161066e0152612d0801526134626000f3fe6080604052600436106103a25760003560e01c806375ce7fff116101e7578063b3f6b99a1161010d578063dbdff2c1116100a0578063f2fde38b1161006f578063f2fde38b14610ad7578063f3f18c3714610af7578063f8413b0714610b17578063fc7e286d14610b2c57600080fd5b8063dbdff2c114610a57578063df15c37e14610a6c578063e9081ec714610a81578063e99d286614610ab757600080fd5b8063c4f8f27b116100dc578063c4f8f27b146109d4578063ccbac9f514610a01578063d30009bd14610a17578063d9fca76914610a3757600080fd5b8063b3f6b99a1461096b578063b680e44b1461098b578063b6b55f25146109a1578063b7a62e24146109b457600080fd5b806399bd69d6116101855780639d9ca28d116101545780639d9ca28d146108d2578063a4f03c021461090b578063a61fb2ba1461092b578063af94862c1461094b57600080fd5b806399bd69d61461086757806399dbf4b5146108875780639abdccd1146108a75780639d1b464a146108bc57600080fd5b80638a6723e6116101c15780638a6723e6146107f35780638da5cb5b1461081357806394d898de1461083157806396efac7b1461085157600080fd5b806375ce7fff1461079e5780637cc947d0146107be5780637de13382146107d357600080fd5b80633639eb2e116102cc5780635aa68ac01161026a578063683e93e111610239578063683e93e11461070b5780636939864b1461072b5780636bd5450a14610759578063715018a61461078957600080fd5b80635aa68ac01461069e57806360d50da3146106c057806366af746b146106e057806367d3b488146106f557600080fd5b806345745c10116102a657806345745c10146105fb57806350f3dbec14610611578063558a729714610631578063572b6c051461065157600080fd5b80633639eb2e1461058b5780633644c27c146105ab57806338e21cce146105cb57600080fd5b8063160344e2116103445780631d0806ae116103135780631d0806ae1461052a578063224f91bd1461054057806326170480146105565780632c23ec8e1461056b57600080fd5b8063160344e2146104c05780631630a8df146104d557806318b20071146104f55780631a0de74c1461051557600080fd5b80630bea6637116103805780630bea66371461042857806313e7c9d81461044a578063158ef93e1461048a5780631593a8c7146104ab57600080fd5b8063045f9c97146103a7578063080c279a146103e457806308551a5314610408575b600080fd5b3480156103b357600080fd5b506103c76103c2366004612dd1565b610b59565b6040516001600160a01b0390911681526020015b60405180910390f35b3480156103f057600080fd5b506103fa60065481565b6040519081526020016103db565b34801561041457600080fd5b506004546103c7906001600160a01b031681565b34801561043457600080fd5b50610448610443366004612dd1565b610b83565b005b34801561045657600080fd5b5061047a610465366004612e06565b60126020526000908152604090205460ff1681565b60405190151581526020016103db565b34801561049657600080fd5b5060025461047a90600160a01b900460ff1681565b3480156104b757600080fd5b50610448610c20565b3480156104cc57600080fd5b50610448610c66565b3480156104e157600080fd5b506104486104f0366004612e06565b610d46565b34801561050157600080fd5b50610448610510366004612dd1565b610fe3565b34801561052157600080fd5b50610448611032565b34801561053657600080fd5b506103fa60085481565b34801561054c57600080fd5b506103fa600a5481565b34801561056257600080fd5b506104486113c0565b34801561057757600080fd5b506015546103c7906001600160a01b031681565b34801561059757600080fd5b506104486105a6366004612e06565b61158c565b3480156105b757600080fd5b506104486105c6366004612e06565b6115e8565b3480156105d757600080fd5b5061047a6105e6366004612e06565b600f6020526000908152604090205460ff1681565b34801561060757600080fd5b506103fa600c5481565b34801561061d57600080fd5b5061044861062c366004612e28565b611612565b34801561063d57600080fd5b5061044861064c366004612e60565b611752565b34801561065d57600080fd5b5061047a61066c366004612e06565b7f00000000000000000000000000000000000000000000000000000000000000006001600160a01b0390811691161490565b3480156106aa57600080fd5b506106b3611785565b6040516103db9190612e97565b3480156106cc57600080fd5b506104486106db366004612e06565b6117e7565b3480156106ec57600080fd5b50610448611811565b34801561070157600080fd5b506103fa60185481565b34801561071757600080fd5b50610448610726366004612ee4565b611a45565b34801561073757600080fd5b5060025461074c90600160a81b900460ff1681565b6040516103db9190612f1b565b34801561076557600080fd5b5061047a610774366004612e06565b60116020526000908152604090205460ff1681565b34801561079557600080fd5b50610448611aac565b3480156107aa57600080fd5b5061047a6107b9366004612dd1565b611abe565b3480156107ca57600080fd5b50610448611af2565b3480156107df57600080fd5b506017546103c7906001600160a01b031681565b3480156107ff57600080fd5b5061047a61080e366004612e06565b611cfc565b34801561081f57600080fd5b506002546001600160a01b03166103c7565b34801561083d57600080fd5b5061044861084c366004612e06565b611d5b565b34801561085d57600080fd5b506103fa600b5481565b34801561087357600080fd5b50610448610882366004612dd1565b611d85565b34801561089357600080fd5b506016546103c7906001600160a01b031681565b3480156108b357600080fd5b506106b3611e2d565b3480156108c857600080fd5b506103fa60075481565b3480156108de57600080fd5b5061047a6108ed366004612e06565b6001600160a01b031660009081526011602052604090205460ff1690565b34801561091757600080fd5b50610448610926366004612f43565b611e8d565b34801561093757600080fd5b506003546103c7906001600160a01b031681565b34801561095757600080fd5b50610448610966366004612dd1565b611fbf565b34801561097757600080fd5b50610448610986366004612f65565b611ffe565b34801561099757600080fd5b506103fa60095481565b6104486109af366004612dd1565b6121d2565b3480156109c057600080fd5b506103c76109cf366004612dd1565b612546565b3480156109e057600080fd5b506103fa6109ef366004612dd1565b60016020526000908152604090205481565b348015610a0d57600080fd5b506103fa600d5481565b348015610a2357600080fd5b50610448610a32366004613052565b612556565b348015610a4357600080fd5b50610448610a52366004612e06565b612650565b348015610a6357600080fd5b506103fa6126f0565b348015610a7857600080fd5b506106b3612747565b348015610a8d57600080fd5b506103fa610a9c366004612e06565b6001600160a01b031660009081526010602052604090205490565b348015610ac357600080fd5b50610448610ad2366004612e06565b6127a7565b348015610ae357600080fd5b50610448610af2366004612e06565b612803565b348015610b0357600080fd5b506005546103c7906001600160a01b031681565b348015610b2357600080fd5b50610448612841565b348015610b3857600080fd5b506103fa610b47366004612e06565b60106020526000908152604090205481565b60138181548110610b6957600080fd5b6000918252602090912001546001600160a01b0316905081565b6004546001600160a01b0316610b976128fa565b6001600160a01b03161480610bc657506002546001600160a01b0316610bbb6128fa565b6001600160a01b0316145b80610bf6575060126000610bd86128fa565b6001600160a01b0316815260208101919091526040016000205460ff165b610c1b5760405162461bcd60e51b8152600401610c12906130f3565b60405180910390fd5b601855565b6004546001600160a01b0316610c346128fa565b6001600160a01b031614610c5a5760405162461bcd60e51b8152600401610c1290613137565b610c646002611a45565b565b6004546001600160a01b0316610c7a6128fa565b6001600160a01b031614610ca05760405162461bcd60e51b8152600401610c1290613137565b6000600254600160a81b900460ff166004811115610cc057610cc0612f05565b1480610ce8575060028054600160a81b900460ff166004811115610ce657610ce6612f05565b145b610d345760405162461bcd60e51b815260206004820152601a60248201527f4c6f747465727920697320696e206163746976652073746174650000000000006044820152606401610c12565b610d3e6001611a45565b610c64612909565b6004546001600160a01b0316610d5a6128fa565b6001600160a01b031614610d805760405162461bcd60e51b8152600401610c1290613137565b60005b601454811015610fdf5760006010600060148481548110610da657610da6613179565b60009182526020808320909101546001600160a01b031683528201929092526040018120546014805491935060109183919086908110610de857610de8613179565b6000918252602080832091909101546001600160a01b039081168452908301939093526040918201902092909255601654915163a9059cbb60e01b815285821660048201526024810184905291169063a9059cbb906044016020604051808303816000875af1158015610e5f573d6000803e3d6000fd5b505050506040513d601f19601f82011682018060405250810190610e83919061318f565b50826001600160a01b03166350f3dbec60148481548110610ea657610ea6613179565b60009182526020909120015460405160e083901b6001600160e01b03191681526001600160a01b03909116600482015260248101849052604401600060405180830381600087803b158015610efa57600080fd5b505af1158015610f0e573d6000803e3d6000fd5b5050601454610f219250600191506131c2565b821015610fa35760148054610f38906001906131c2565b81548110610f4857610f48613179565b600091825260209091200154601480546001600160a01b039092169184908110610f7457610f74613179565b9060005260206000200160006101000a8154816001600160a01b0302191690836001600160a01b031602179055505b6014805480610fb457610fb46131db565b600082815260209020810160001990810180546001600160a01b031916905501905550600101610d83565b5050565b6004546001600160a01b0316610ff76128fa565b6001600160a01b03161461101d5760405162461bcd60e51b8152600401610c1290613137565b60085460000361102d5760088190555b600755565b6004546001600160a01b03166110466128fa565b6001600160a01b03161461106c5760405162461bcd60e51b8152600401610c1290613137565b6000600c54116110be5760405162461bcd60e51b815260206004820152601b60248201527f4e6f207469636b657473206c65667420746f20616c6c6f6361746500000000006044820152606401610c12565b600e54600c54106111a95760005b600e5481101561116f576000600e82815481106110eb576110eb613179565b6000918252602090912001546001600160a01b03169050611124816001600160a01b031660009081526011602052604090205460ff1690565b6111665761113181612650565b6040516001600160a01b038216907f1d4c260f1824cd028e6c9e6e31c3a0b94f2513e7a641113ec759d382f9bdd5a190600090a25b506001016110cc565b5060005b600e548110156111a35761118681612a08565b600c8054906000611196836131f1565b9091555050600101611173565b5061138b565b60005b600e548110156112c457600e546000906111c79083906131c2565b600d546111d4919061321e565b6111de9083613232565b90506000600e82815481106111f5576111f5613179565b600091825260209091200154600e80546001600160a01b039092169250908490811061122357611223613179565b600091825260209091200154600e80546001600160a01b03909216918490811061124f5761124f613179565b9060005260206000200160006101000a8154816001600160a01b0302191690836001600160a01b0316021790555080600e848154811061129157611291613179565b600091825260209091200180546001600160a01b0319166001600160a01b039290921691909117905550506001016111ac565b5060005b600c54811015611389576000600e82815481106112e7576112e7613179565b6000918252602090912001546001600160a01b03169050611320816001600160a01b031660009081526011602052604090205460ff1690565b6113805761132d81612650565b61133682612a08565b600c8054906000611346836131f1565b90915550506040516001600160a01b038216907f1d4c260f1824cd028e6c9e6e31c3a0b94f2513e7a641113ec759d382f9bdd5a190600090a25b506001016112c8565b505b600c54600003610c64576040517f9c89a6ed7228533196a3f962acc80d61a9c53bdea6b910741bf754f5aaa7569e90600090a1565b600f60006113cc6128fa565b6001600160a01b0316815260208101919091526040016000205460ff161561142b5760405162461bcd60e51b815260206004820152601260248201527113919508185b1c9958591e481b5a5b9d195960721b6044820152606401610c12565b60028054600160a81b900460ff16600481111561144a5761144a612f05565b146114975760405162461bcd60e51b815260206004820152601860248201527f4c6f7474657279206973206e6f7420656e6465642079657400000000000000006044820152606401610c12565b6114a26108ed6128fa565b6114e75760405162461bcd60e51b815260206004820152601660248201527521b0b63632b91034b9903737ba1030903bb4b73732b960511b6044820152606401610c12565b6001600f60006114f56128fa565b6001600160a01b0390811682526020820192909252604001600020805460ff19169215159290921790915560155416636b8f60f66115316128fa565b6040516001600160e01b031960e084901b1681526001600160a01b039091166004820152602401600060405180830381600087803b15801561157257600080fd5b505af1158015611586573d6000803e3d6000fd5b50505050565b6004546001600160a01b03166115a06128fa565b6001600160a01b0316146115c65760405162461bcd60e51b8152600401610c1290613137565b601780546001600160a01b0319166001600160a01b0392909216919091179055565b6115f0612b16565b601580546001600160a01b0319166001600160a01b0392909216919091179055565b61161a6128fa565b6017546001600160a01b039081169116146116875760405162461bcd60e51b815260206004820152602760248201527f4f6e6c792077686974656c6973746564206d61792063616c6c207468697320666044820152663ab731ba34b7b760c91b6064820152608401610c12565b601060006116936128fa565b6001600160a01b03166001600160a01b031681526020019081526020016000205460000361170757601480546001810182556000919091527fce6d7b5282bd9a3661ae061feed1dbda4e52ab073b1f9285be6e155d9c38d4ec0180546001600160a01b0319166001600160a01b0384161790555b6001600160a01b0382166000908152601060205260408120805483929061172f908490613232565b925050819055506001600960008282546117499190613232565b90915550505050565b61175a612b16565b6001600160a01b03919091166000908152601260205260409020805460ff1916911515919091179055565b606060148054806020026020016040519081016040528092919081815260200182805480156117dd57602002820191906000526020600020905b81546001600160a01b031681526001909101906020018083116117bf575b5050505050905090565b6117ef612b16565b600380546001600160a01b0319166001600160a01b0392909216919091179055565b6004546001600160a01b03166118256128fa565b6001600160a01b03161461184b5760405162461bcd60e51b8152600401610c1290613137565b60028054600160a81b900460ff16600481111561186a5761186a612f05565b146118ab5760405162461bcd60e51b8152602060048201526011602482015270131bdd1d195c9e481b9bdd08195b991959607a1b6044820152606401610c12565b6000805b601354811015611924576000601382815481106118ce576118ce613179565b60009182526020808320909101546001600160a01b031680835260109091526040909120549091506119009084613232565b6001600160a01b0390911660009081526010602052604081205591506001016118af565b5060006064611934836005613245565b61193e919061325c565b9050600061194c82846131c2565b60165460035460405163a9059cbb60e01b81526001600160a01b03918216600482015260248101869052929350169063a9059cbb906044016020604051808303816000875af11580156119a3573d6000803e3d6000fd5b505050506040513d601f19601f820116820180604052508101906119c7919061318f565b506016546004805460405163a9059cbb60e01b81526001600160a01b0391821692810192909252602482018490529091169063a9059cbb906044016020604051808303816000875af1158015611a21573d6000803e3d6000fd5b505050506040513d601f19601f82011682018060405250810190611586919061318f565b6004546001600160a01b0316611a596128fa565b6001600160a01b031614611a7f5760405162461bcd60e51b8152600401610c1290613137565b6002805482919060ff60a81b1916600160a81b836004811115611aa457611aa4612f05565b021790555050565b611ab4612b16565b610c646000612b74565b60008181548110611ace57600080fd5b9060005260206000209060209182820401919006915054906101000a900460ff1681565b6001600254600160a81b900460ff166004811115611b1257611b12612f05565b03611b5f5760405162461bcd60e51b815260206004820152601b60248201527f4c6f74746572792069732063757272656e746c792061637469766500000000006044820152606401610c12565b60116000611b6b6128fa565b6001600160a01b0316815260208101919091526040016000205460ff1615611bd55760405162461bcd60e51b815260206004820152601760248201527f57696e6e6572732063616e6e6f742077697468647261770000000000000000006044820152606401610c12565b600060106000611be36128fa565b6001600160a01b03166001600160a01b0316815260200190815260200160002054905060008111611c4d5760405162461bcd60e51b81526020600482015260146024820152734e6f2066756e647320746f20776974686472617760601b6044820152606401610c12565b600060106000611c5b6128fa565b6001600160a01b0390811682526020820192909252604001600020919091556016541663a9059cbb611c8b6128fa565b6040516001600160e01b031960e084901b1681526001600160a01b039091166004820152602481018490526044016020604051808303816000875af1158015611cd8573d6000803e3d6000fd5b505050506040513d601f19601f82011682018060405250810190610fdf919061318f565b6000805b600e54811015611d5257826001600160a01b0316600e8281548110611d2757611d27613179565b6000918252602090912001546001600160a01b031603611d4a5750600192915050565b600101611d00565b50600092915050565b611d63612b16565b601680546001600160a01b0319166001600160a01b0392909216919091179055565b6004546001600160a01b0316611d996128fa565b6001600160a01b031614611dbf5760405162461bcd60e51b8152600401610c1290613137565b60008111611e235760405162461bcd60e51b815260206004820152602b60248201527f4e756d626572206f66207469636b657473206d7573742062652067726561746560448201526a72207468616e207a65726f60a81b6064820152608401610c12565b600c819055600a55565b6060600e8054806020026020016040519081016040528092919081815260200182805480156117dd576020028201919060005260206000209081546001600160a01b031681526001909101906020018083116117bf575050505050905090565b6004546001600160a01b0316611ea16128fa565b6001600160a01b03161480611ed057506002546001600160a01b0316611ec56128fa565b6001600160a01b0316145b80611f00575060126000611ee26128fa565b6001600160a01b0316815260208101919091526040016000205460ff165b611f1c5760405162461bcd60e51b8152600401610c12906130f3565b6000600c5460095410611f5a57600a54600954611f39919061325c565b600b54611f469190613245565b600754611f539190613232565b9050611fa0565b600a54600954611f6a919061325c565b611f759060016131c2565b600b54611f829190613245565b600754611f8f91906131c2565b9050600854811015611fa057506008545b6007819055611fae83610b83565b506000600955600c819055600a5550565b6004546001600160a01b0316611fd36128fa565b6001600160a01b031614611ff95760405162461bcd60e51b8152600401610c1290613137565b600b55565b6005546001600160a01b031633146120485760405162461bcd60e51b815260206004820152600d60248201526c37b7363c9037b832b930ba37b960991b6044820152606401610c12565b600061205682840184613298565b915050600080828060200190518101906120709190613346565b91509150600085856040516120869291906133c9565b60408051918290039091206000858152600160205291822054825491935083149190859081106120b8576120b8613179565b90600052602060002090602091828204019190069054906101000a900460ff166121245760405162461bcd60e51b815260206004820152601c60248201527f726571756573742066756c66696c6c6564206f72206d697373696e67000000006044820152606401610c12565b80156121c85760408051602081018a905230918101919091524660608201526080810185905260a0016040516020818303038152906040528051906020012060001c9750612173888585612bc6565b600080858154811061218757612187613179565b90600052602060002090602091828204019190066101000a81548160ff02191690831515021790555060016000858152602001908152602001600020600090555b5050505050505050565b6121dd6108ed6128fa565b156122235760405162461bcd60e51b815260206004820152601660248201527515da5b9b995c9cc818d85b9b9bdd0819195c1bdcda5d60521b6044820152606401610c12565b426018541161227e5760405162461bcd60e51b815260206004820152602160248201527f4465706f7369747320617265206e6f7420706f737369626c6520616e796d6f726044820152606560f81b6064820152608401610c12565b6016546001600160a01b03166122d65760405162461bcd60e51b815260206004820152601d60248201527f5553444320636f6e74726163742061646472657373206e6f74207365740000006044820152606401610c12565b600081116123165760405162461bcd60e51b815260206004820152600d60248201526c139bc8199d5b991cc81cd95b9d609a1b6044820152606401610c12565b60165481906001600160a01b031663dd62ed3e6123316128fa565b6040516001600160e01b031960e084901b1681526001600160a01b039091166004820152306024820152604401602060405180830381865afa15801561237b573d6000803e3d6000fd5b505050506040513d601f19601f8201168201806040525081019061239f91906133d9565b10156123e65760405162461bcd60e51b8152602060048201526016602482015275496e73756666696369656e7420616c6c6f77616e636560501b6044820152606401610c12565b6016546001600160a01b03166323b872dd6123ff6128fa565b6040516001600160e01b031960e084901b1681526001600160a01b039091166004820152306024820152604481018490526064016020604051808303816000875af1158015612452573d6000803e3d6000fd5b505050506040513d601f19601f82011682018060405250810190612476919061318f565b50601060006124836128fa565b6001600160a01b03166001600160a01b03168152602001908152602001600020546000036124e85760146124b56128fa565b81546001810183556000928352602090922090910180546001600160a01b0319166001600160a01b039092169190911790555b80601060006124f56128fa565b6001600160a01b03166001600160a01b0316815260200190815260200160002060008282546125249190613232565b9250508190555060016009600082825461253e9190613232565b909155505050565b600e8181548110610b6957600080fd5b600254600160a01b900460ff16156125a65760405162461bcd60e51b8152602060048201526013602482015272105b1c9958591e481a5b9a5d1a585b1a5e9959606a1b6044820152606401610c12565b6040810151600480546001600160a01b039283166001600160a01b03199182161790915560208301516005805491909316911617905560608101516125ea90612b74565b6080810151600c5560a081015160065560c081015160185560e0810151601680546001600160a01b03199081166001600160a01b03938416179091556101009092015160038054909316911617905560028054600160a01b60ff60a01b19909116179055565b6004546001600160a01b03166126646128fa565b6001600160a01b03161461268a5760405162461bcd60e51b8152600401610c1290613137565b6001600160a01b03166000818152601160205260408120805460ff191660019081179091556013805491820181559091527f66de8ffda797e3de9c05e8fc57b3bf0ec28a930d40b0d285d93c06501cf6a0900180546001600160a01b0319169091179055565b600042446126fc6128fa565b6040805160208101949094528301919091526bffffffffffffffffffffffff19606091821b16908201526074016040516020818303038152906040528051906020012060001c905090565b606060138054806020026020016040519081016040528092919081815260200182805480156117dd576020028201919060005260206000209081546001600160a01b031681526001909101906020018083116117bf575050505050905090565b6004546001600160a01b03166127bb6128fa565b6001600160a01b0316146127e15760405162461bcd60e51b8152600401610c1290613137565b600480546001600160a01b0319166001600160a01b0392909216919091179055565b61280b612b16565b6001600160a01b03811661283557604051631e4fbdf760e01b815260006004820152602401610c12565b61283e81612b74565b50565b6004546001600160a01b03166128556128fa565b6001600160a01b03161461287b5760405162461bcd60e51b8152600401610c1290613137565b6128af6128866128fa565b604080516001600160a01b03909216602083015201604051602081830303815290604052612c03565b506128b86126f0565b600d556128c36128fa565b6001600160a01b03167fd802e7c7f1646e3318c03abed1e468bdf913f45331a68dc912a0d645eb646a4260405160405180910390a2565b6000612904612d04565b905090565b612915600e6000612d9f565b60005b60145481101561283e576000601060006014848154811061293b5761293b613179565b60009182526020808320909101546001600160a01b0316835282019290925260400190205460075490915081106129ff576129aa6014838154811061298257612982613179565b60009182526020808320909101546001600160a01b0316825260119052604090205460ff1690565b6129ff57600e601483815481106129c3576129c3613179565b60009182526020808320909101548354600181018555938352912090910180546001600160a01b0319166001600160a01b039092169190911790555b50600101612918565b600e548110612a4f5760405162461bcd60e51b8152602060048201526013602482015272496e646578206f7574206f6620626f756e647360681b6044820152606401610c12565b600e54612a5e906001906131c2565b811015612ae057600e8054612a75906001906131c2565b81548110612a8557612a85613179565b600091825260209091200154600e80546001600160a01b039092169183908110612ab157612ab1613179565b9060005260206000200160006101000a8154816001600160a01b0302191690836001600160a01b031602179055505b600e805480612af157612af16131db565b600082815260209020810160001990810180546001600160a01b031916905501905550565b612b1e6128fa565b6001600160a01b0316612b396002546001600160a01b031690565b6001600160a01b031614610c6457612b4f6128fa565b60405163118cdaa760e01b81526001600160a01b039091166004820152602401610c12565b600280546001600160a01b038381166001600160a01b0319831681179093556040519116919082907f8be0079c531659141344cd1fd0a4f28419497f9722a3daafe3b4186f6b6457e090600090a35050565b600d8390556040518381527fa2353d33775668d31add0688b8ed09ca3a91dc8129126fcdbcbda3a887db60db9060200160405180910390a1505050565b6000805460018082018084558380529192909183908110612c2657612c26613179565b90600052602060002090602091828204019190066101000a81548160ff02191690831515021790555060008183604051602001612c649291906133f2565b60405160208183030381529060405290506000612c7f612d48565b905060008183604051602001612c969291906133f2565b60408051601f198184030181528282528051602080830191909120600089815260019092529290208290559250907fd91fc3685b930310b008ec37d2334870cab88a023ed8cc628a2e2ccd4e55d20290612cf390859087906133f2565b60405180910390a150505050919050565b60007f00000000000000000000000000000000000000000000000000000000000000006001600160a01b03163303612d43575060131936013560601c90565b503390565b600080612d596364e62127426131c2565b90506000612d6860038361325c565b612d73906001613232565b905046600114612d8d57612d88816001613232565b612d98565b612d98816004613232565b9250505090565b508054600082559060005260206000209081019061283e91905b80821115612dcd5760008155600101612db9565b5090565b600060208284031215612de357600080fd5b5035919050565b80356001600160a01b0381168114612e0157600080fd5b919050565b600060208284031215612e1857600080fd5b612e2182612dea565b9392505050565b60008060408385031215612e3b57600080fd5b612e4483612dea565b946020939093013593505050565b801515811461283e57600080fd5b60008060408385031215612e7357600080fd5b612e7c83612dea565b91506020830135612e8c81612e52565b809150509250929050565b6020808252825182820181905260009190848201906040850190845b81811015612ed85783516001600160a01b031683529284019291840191600101612eb3565b50909695505050505050565b600060208284031215612ef657600080fd5b813560058110612e2157600080fd5b634e487b7160e01b600052602160045260246000fd5b6020810160058310612f3d57634e487b7160e01b600052602160045260246000fd5b91905290565b60008060408385031215612f5657600080fd5b50508035926020909101359150565b600080600060408486031215612f7a57600080fd5b83359250602084013567ffffffffffffffff80821115612f9957600080fd5b818601915086601f830112612fad57600080fd5b813581811115612fbc57600080fd5b876020828501011115612fce57600080fd5b6020830194508093505050509250925092565b634e487b7160e01b600052604160045260246000fd5b604051610120810167ffffffffffffffff8111828210171561301b5761301b612fe1565b60405290565b604051601f8201601f1916810167ffffffffffffffff8111828210171561304a5761304a612fe1565b604052919050565b6000610120828403121561306557600080fd5b61306d612ff7565b61307683612dea565b815261308460208401612dea565b602082015261309560408401612dea565b60408201526130a660608401612dea565b60608201526080830135608082015260a083013560a082015260c083013560c08201526130d560e08401612dea565b60e08201526101006130e8818501612dea565b908201529392505050565b60208082526024908201527f4f6e6c79206f70657261746f722063616e2063616c6c20746869732066756e636040820152633a34b7b760e11b606082015260800190565b60208082526022908201527f4f6e6c792073656c6c65722063616e2063616c6c20746869732066756e63746960408201526137b760f11b606082015260800190565b634e487b7160e01b600052603260045260246000fd5b6000602082840312156131a157600080fd5b8151612e2181612e52565b634e487b7160e01b600052601160045260246000fd5b818103818111156131d5576131d56131ac565b92915050565b634e487b7160e01b600052603160045260246000fd5b600081613200576132006131ac565b506000190190565b634e487b7160e01b600052601260045260246000fd5b60008261322d5761322d613208565b500690565b808201808211156131d5576131d56131ac565b80820281158282048414176131d5576131d56131ac565b60008261326b5761326b613208565b500490565b600067ffffffffffffffff82111561328a5761328a612fe1565b50601f01601f191660200190565b600080604083850312156132ab57600080fd5b82359150602083013567ffffffffffffffff8111156132c957600080fd5b8301601f810185136132da57600080fd5b80356132ed6132e882613270565b613021565b81815286602083850101111561330257600080fd5b816020840160208301376000602083830101528093505050509250929050565b60005b8381101561333d578181015183820152602001613325565b50506000910152565b6000806040838503121561335957600080fd5b82519150602083015167ffffffffffffffff81111561337757600080fd5b8301601f8101851361338857600080fd5b80516133966132e882613270565b8181528660208385010111156133ab57600080fd5b6133bc826020830160208601613322565b8093505050509250929050565b8183823760009101908152919050565b6000602082840312156133eb57600080fd5b5051919050565b8281526040602082015260008251806040840152613417816060850160208701613322565b601f01601f191691909101606001939250505056fea26469706673582212204dcc6e9f7503d5a3bb6788dccbf4bf16c3a54eed3e0dbca1a77fe26e7dadf77264736f6c63430008190033",
    "linkReferences": {}
  },
  "methodIdentifiers": {
    "buyerWithdraw()": "7cc947d0",
    "changeLotteryState(uint8)": "683e93e1",
    "currentPrice()": "9d1b464a",
    "deposit(uint256)": "b6b55f25",
    "deposits(address)": "fc7e286d",
    "eligibleParticipants(uint256)": "b7a62e24",
    "endLottery()": "1593a8c7",
    "finishAt()": "67d3b488",
    "fulfillRandomness(uint256,bytes)": "b3f6b99a",
    "getDepositedAmount(address)": "e9081ec7",
    "getEligibleParticipants()": "9abdccd1",
    "getParticipants()": "5aa68ac0",
    "getRandomNumber()": "dbdff2c1",
    "getWinners()": "df15c37e",
    "hasMinted(address)": "38e21cce",
    "increasePriceStep()": "96efac7b",
    "initialPrice()": "1d0806ae",
    "initialize((address,address,address,address,uint256,uint256,uint256,address,address))": "d30009bd",
    "initialized()": "158ef93e",
    "isParticipantEligible(address)": "8a6723e6",
    "isTrustedForwarder(address)": "572b6c05",
    "isWinner(address)": "9d9ca28d",
    "lotteryState()": "6939864b",
    "lotteryV2Addr()": "7de13382",
    "minimumDepositAmount()": "080c279a",
    "mintMyNFT()": "26170480",
    "multisigWalletAddress()": "a61fb2ba",
    "nftContractAddr()": "2c23ec8e",
    "numberOfTickets()": "45745c10",
    "operatorAddr()": "f3f18c37",
    "operators(address)": "13e7c9d8",
    "owner()": "8da5cb5b",
    "prevRoundDeposits()": "b680e44b",
    "prevRoundTicketsAmount()": "224f91bd",
    "randomNumber()": "ccbac9f5",
    "renounceOwnership()": "715018a6",
    "requestPending(uint256)": "75ce7fff",
    "requestRandomness()": "f8413b07",
    "requestedHash(uint256)": "c4f8f27b",
    "selectWinners()": "1a0de74c",
    "seller()": "08551a53",
    "sellerWithdraw()": "66af746b",
    "setCurrentPrice(uint256)": "18b20071",
    "setFinishAt(uint256)": "0bea6637",
    "setLotteryV2Addr(address)": "3639eb2e",
    "setMultisigWalletAddress(address)": "60d50da3",
    "setNftContractAddr(address)": "3644c27c",
    "setNumberOfTickets(uint256)": "99bd69d6",
    "setOperator(address,bool)": "558a7297",
    "setPriceStep(uint256)": "af94862c",
    "setSeller(address)": "e99d2866",
    "setUsdcContractAddr(address)": "94d898de",
    "setWinner(address)": "d9fca769",
    "setupNewRound(uint256,uint256)": "a4f03c02",
    "startLottery()": "160344e2",
    "transferDeposit(address,uint256)": "50f3dbec",
    "transferNonWinnerBids(address)": "1630a8df",
    "transferOwnership(address)": "f2fde38b",
    "usdcContractAddr()": "99dbf4b5",
    "winnerAddresses(uint256)": "045f9c97",
    "winners(address)": "6bd5450a"
  },
  "id": 5
}