{
  "abi": [
    {
      "type": "function",
      "name": "buyerWithdraw",
      "inputs": [],
      "outputs": [],
      "stateMutability": "nonpayable"
    },
    {
      "type": "function",
      "name": "changeLotteryState",
      "inputs": [
        {
          "name": "_newState",
          "type": "uint8",
          "internalType": "enum AuctionV1Base.LotteryState"
        }
      ],
      "outputs": [],
      "stateMutability": "nonpayable"
    },
    {
      "type": "function",
      "name": "currentPrice",
      "inputs": [],
      "outputs": [
        {
          "name": "",
          "type": "uint256",
          "internalType": "uint256"
        }
      ],
      "stateMutability": "view"
    },
    {
      "type": "function",
      "name": "deposit",
      "inputs": [
        {
          "name": "amount",
          "type": "uint256",
          "internalType": "uint256"
        }
      ],
      "outputs": [],
      "stateMutability": "payable"
    },
    {
      "type": "function",
      "name": "deposits",
      "inputs": [
        {
          "name": "",
          "type": "address",
          "internalType": "address"
        }
      ],
      "outputs": [
        {
          "name": "",
          "type": "uint256",
          "internalType": "uint256"
        }
      ],
      "stateMutability": "view"
    },
    {
      "type": "function",
      "name": "eligibleParticipants",
      "inputs": [
        {
          "name": "",
          "type": "uint256",
          "internalType": "uint256"
        }
      ],
      "outputs": [
        {
          "name": "",
          "type": "address",
          "internalType": "address"
        }
      ],
      "stateMutability": "view"
    },
    {
      "type": "function",
      "name": "endLottery",
      "inputs": [],
      "outputs": [],
      "stateMutability": "nonpayable"
    },
    {
      "type": "function",
      "name": "finishAt",
      "inputs": [],
      "outputs": [
        {
          "name": "",
          "type": "uint256",
          "internalType": "uint256"
        }
      ],
      "stateMutability": "view"
    },
    {
      "type": "function",
      "name": "fulfillRandomness",
      "inputs": [
        {
          "name": "randomness",
          "type": "uint256",
          "internalType": "uint256"
        },
        {
          "name": "dataWithRound",
          "type": "bytes",
          "internalType": "bytes"
        }
      ],
      "outputs": [],
      "stateMutability": "nonpayable"
    },
    {
      "type": "function",
      "name": "getDepositedAmount",
      "inputs": [
        {
          "name": "participant",
          "type": "address",
          "internalType": "address"
        }
      ],
      "outputs": [
        {
          "name": "",
          "type": "uint256",
          "internalType": "uint256"
        }
      ],
      "stateMutability": "view"
    },
    {
      "type": "function",
      "name": "getParticipants",
      "inputs": [],
      "outputs": [
        {
          "name": "",
          "type": "address[]",
          "internalType": "address[]"
        }
      ],
      "stateMutability": "view"
    },
    {
      "type": "function",
      "name": "getRandomNumber",
      "inputs": [],
      "outputs": [
        {
          "name": "",
          "type": "uint256",
          "internalType": "uint256"
        }
      ],
      "stateMutability": "view"
    },
    {
      "type": "function",
      "name": "getWinners",
      "inputs": [],
      "outputs": [
        {
          "name": "",
          "type": "address[]",
          "internalType": "address[]"
        }
      ],
      "stateMutability": "view"
    },
    {
      "type": "function",
      "name": "hasMinted",
      "inputs": [
        {
          "name": "",
          "type": "address",
          "internalType": "address"
        }
      ],
      "outputs": [
        {
          "name": "",
          "type": "bool",
          "internalType": "bool"
        }
      ],
      "stateMutability": "view"
    },
    {
      "type": "function",
      "name": "increasePriceStep",
      "inputs": [],
      "outputs": [
        {
          "name": "",
          "type": "uint256",
          "internalType": "uint256"
        }
      ],
      "stateMutability": "view"
    },
    {
      "type": "function",
      "name": "initialPrice",
      "inputs": [],
      "outputs": [
        {
          "name": "",
          "type": "uint256",
          "internalType": "uint256"
        }
      ],
      "stateMutability": "view"
    },
    {
      "type": "function",
      "name": "initialize",
      "inputs": [
        {
          "name": "config",
          "type": "tuple",
          "internalType": "struct StructsLibrary.ILotteryBaseConfig",
          "components": [
            {
              "name": "_seller",
              "type": "address",
              "internalType": "address"
            },
            {
              "name": "_operator",
              "type": "address",
              "internalType": "address"
            },
            {
              "name": "_owner",
              "type": "address",
              "internalType": "address"
            },
            {
              "name": "_ticketAmount",
              "type": "uint256",
              "internalType": "uint256"
            },
            {
              "name": "_ticketPrice",
              "type": "uint256",
              "internalType": "uint256"
            },
            {
              "name": "_finishAt",
              "type": "uint256",
              "internalType": "uint256"
            },
            {
              "name": "_usdcContractAddr",
              "type": "address",
              "internalType": "address"
            },
            {
              "name": "_multisigWalletAddress",
              "type": "address",
              "internalType": "address"
            }
          ]
        }
      ],
      "outputs": [],
      "stateMutability": "nonpayable"
    },
    {
      "type": "function",
      "name": "initialized",
      "inputs": [],
      "outputs": [
        {
          "name": "",
          "type": "bool",
          "internalType": "bool"
        }
      ],
      "stateMutability": "view"
    },
    {
      "type": "function",
      "name": "isParticipantEligible",
      "inputs": [
        {
          "name": "participant",
          "type": "address",
          "internalType": "address"
        }
      ],
      "outputs": [
        {
          "name": "",
          "type": "bool",
          "internalType": "bool"
        }
      ],
      "stateMutability": "view"
    },
    {
      "type": "function",
      "name": "isTrustedForwarder",
      "inputs": [
        {
          "name": "forwarder",
          "type": "address",
          "internalType": "address"
        }
      ],
      "outputs": [
        {
          "name": "",
          "type": "bool",
          "internalType": "bool"
        }
      ],
      "stateMutability": "view"
    },
    {
      "type": "function",
      "name": "isWinner",
      "inputs": [
        {
          "name": "_participant",
          "type": "address",
          "internalType": "address"
        }
      ],
      "outputs": [
        {
          "name": "",
          "type": "bool",
          "internalType": "bool"
        }
      ],
      "stateMutability": "view"
    },
    {
      "type": "function",
      "name": "lotteryState",
      "inputs": [],
      "outputs": [
        {
          "name": "",
          "type": "uint8",
          "internalType": "enum AuctionV1Base.LotteryState"
        }
      ],
      "stateMutability": "view"
    },
    {
      "type": "function",
      "name": "lotteryV2Addr",
      "inputs": [],
      "outputs": [
        {
          "name": "",
          "type": "address",
          "internalType": "address"
        }
      ],
      "stateMutability": "view"
    },
    {
      "type": "function",
      "name": "minimumDepositAmount",
      "inputs": [],
      "outputs": [
        {
          "name": "",
          "type": "uint256",
          "internalType": "uint256"
        }
      ],
      "stateMutability": "view"
    },
    {
      "type": "function",
      "name": "mintMyNFT",
      "inputs": [],
      "outputs": [],
      "stateMutability": "nonpayable"
    },
    {
      "type": "function",
      "name": "multisigWalletAddress",
      "inputs": [],
      "outputs": [
        {
          "name": "",
          "type": "address",
          "internalType": "address"
        }
      ],
      "stateMutability": "view"
    },
    {
      "type": "function",
      "name": "nftContractAddr",
      "inputs": [],
      "outputs": [
        {
          "name": "",
          "type": "address",
          "internalType": "address"
        }
      ],
      "stateMutability": "view"
    },
    {
      "type": "function",
      "name": "numberOfTickets",
      "inputs": [],
      "outputs": [
        {
          "name": "",
          "type": "uint256",
          "internalType": "uint256"
        }
      ],
      "stateMutability": "view"
    },
    {
      "type": "function",
      "name": "operatorAddr",
      "inputs": [],
      "outputs": [
        {
          "name": "",
          "type": "address",
          "internalType": "address"
        }
      ],
      "stateMutability": "view"
    },
    {
      "type": "function",
      "name": "operators",
      "inputs": [
        {
          "name": "",
          "type": "address",
          "internalType": "address"
        }
      ],
      "outputs": [
        {
          "name": "",
          "type": "bool",
          "internalType": "bool"
        }
      ],
      "stateMutability": "view"
    },
    {
      "type": "function",
      "name": "owner",
      "inputs": [],
      "outputs": [
        {
          "name": "",
          "type": "address",
          "internalType": "address"
        }
      ],
      "stateMutability": "view"
    },
    {
      "type": "function",
      "name": "prevRoundDeposits",
      "inputs": [],
      "outputs": [
        {
          "name": "",
          "type": "uint256",
          "internalType": "uint256"
        }
      ],
      "stateMutability": "view"
    },
    {
      "type": "function",
      "name": "prevRoundTicketsAmount",
      "inputs": [],
      "outputs": [
        {
          "name": "",
          "type": "uint256",
          "internalType": "uint256"
        }
      ],
      "stateMutability": "view"
    },
    {
      "type": "function",
      "name": "randomNumber",
      "inputs": [],
      "outputs": [
        {
          "name": "",
          "type": "uint256",
          "internalType": "uint256"
        }
      ],
      "stateMutability": "view"
    },
    {
      "type": "function",
      "name": "renounceOwnership",
      "inputs": [],
      "outputs": [],
      "stateMutability": "nonpayable"
    },
    {
      "type": "function",
      "name": "requestPending",
      "inputs": [
        {
          "name": "",
          "type": "uint256",
          "internalType": "uint256"
        }
      ],
      "outputs": [
        {
          "name": "",
          "type": "bool",
          "internalType": "bool"
        }
      ],
      "stateMutability": "view"
    },
    {
      "type": "function",
      "name": "requestRandomness",
      "inputs": [],
      "outputs": [],
      "stateMutability": "nonpayable"
    },
    {
      "type": "function",
      "name": "requestedHash",
      "inputs": [
        {
          "name": "",
          "type": "uint256",
          "internalType": "uint256"
        }
      ],
      "outputs": [
        {
          "name": "",
          "type": "bytes32",
          "internalType": "bytes32"
        }
      ],
      "stateMutability": "view"
    },
    {
      "type": "function",
      "name": "selectWinners",
      "inputs": [],
      "outputs": [],
      "stateMutability": "nonpayable"
    },
    {
      "type": "function",
      "name": "seller",
      "inputs": [],
      "outputs": [
        {
          "name": "",
          "type": "address",
          "internalType": "address"
        }
      ],
      "stateMutability": "view"
    },
    {
      "type": "function",
      "name": "sellerWithdraw",
      "inputs": [],
      "outputs": [],
      "stateMutability": "nonpayable"
    },
    {
      "type": "function",
      "name": "setCurrentPrice",
      "inputs": [
        {
          "name": "_amount",
          "type": "uint256",
          "internalType": "uint256"
        }
      ],
      "outputs": [],
      "stateMutability": "nonpayable"
    },
    {
      "type": "function",
      "name": "setFinishAt",
      "inputs": [
        {
          "name": "_finishAt",
          "type": "uint256",
          "internalType": "uint256"
        }
      ],
      "outputs": [],
      "stateMutability": "nonpayable"
    },
    {
      "type": "function",
      "name": "setLotteryV2Addr",
      "inputs": [
        {
          "name": "_lotteryV2Addr",
          "type": "address",
          "internalType": "address"
        }
      ],
      "outputs": [],
      "stateMutability": "nonpayable"
    },
    {
      "type": "function",
      "name": "setMultisigWalletAddress",
      "inputs": [
        {
          "name": "_multisigWalletAddress",
          "type": "address",
          "internalType": "address"
        }
      ],
      "outputs": [],
      "stateMutability": "nonpayable"
    },
    {
      "type": "function",
      "name": "setNftContractAddr",
      "inputs": [
        {
          "name": "_nftContractAddr",
          "type": "address",
          "internalType": "address"
        }
      ],
      "outputs": [],
      "stateMutability": "nonpayable"
    },
    {
      "type": "function",
      "name": "setNumberOfTickets",
      "inputs": [
        {
          "name": "_numberOfTickets",
          "type": "uint256",
          "internalType": "uint256"
        }
      ],
      "outputs": [],
      "stateMutability": "nonpayable"
    },
    {
      "type": "function",
      "name": "setOperator",
      "inputs": [
        {
          "name": "_operatorAddr",
          "type": "address",
          "internalType": "address"
        },
        {
          "name": "_flag",
          "type": "bool",
          "internalType": "bool"
        }
      ],
      "outputs": [],
      "stateMutability": "nonpayable"
    },
    {
      "type": "function",
      "name": "setPriceStep",
      "inputs": [
        {
          "name": "_increasePriceStep",
          "type": "uint256",
          "internalType": "uint256"
        }
      ],
      "outputs": [],
      "stateMutability": "nonpayable"
    },
    {
      "type": "function",
      "name": "setUsdcContractAddr",
      "inputs": [
        {
          "name": "_usdcContractAddr",
          "type": "address",
          "internalType": "address"
        }
      ],
      "outputs": [],
      "stateMutability": "nonpayable"
    },
    {
      "type": "function",
      "name": "setWinner",
      "inputs": [
        {
          "name": "_winner",
          "type": "address",
          "internalType": "address"
        }
      ],
      "outputs": [],
      "stateMutability": "nonpayable"
    },
    {
      "type": "function",
      "name": "setupNewRound",
      "inputs": [
        {
          "name": "_finishAt",
          "type": "uint256",
          "internalType": "uint256"
        },
        {
          "name": "_numberOfTickets",
          "type": "uint256",
          "internalType": "uint256"
        }
      ],
      "outputs": [],
      "stateMutability": "nonpayable"
    },
    {
      "type": "function",
      "name": "startLottery",
      "inputs": [],
      "outputs": [],
      "stateMutability": "nonpayable"
    },
    {
      "type": "function",
      "name": "transferDeposit",
      "inputs": [
        {
          "name": "_participant",
          "type": "address",
          "internalType": "address"
        },
        {
          "name": "_amount",
          "type": "uint256",
          "internalType": "uint256"
        }
      ],
      "outputs": [],
      "stateMutability": "nonpayable"
    },
    {
      "type": "function",
      "name": "transferNonWinnerBids",
      "inputs": [
        {
          "name": "destinationAddr",
          "type": "address",
          "internalType": "address"
        }
      ],
      "outputs": [],
      "stateMutability": "nonpayable"
    },
    {
      "type": "function",
      "name": "transferOwnership",
      "inputs": [
        {
          "name": "newOwner",
          "type": "address",
          "internalType": "address"
        }
      ],
      "outputs": [],
      "stateMutability": "nonpayable"
    },
    {
      "type": "function",
      "name": "usdcContractAddr",
      "inputs": [],
      "outputs": [
        {
          "name": "",
          "type": "address",
          "internalType": "address"
        }
      ],
      "stateMutability": "view"
    },
    {
      "type": "function",
      "name": "winnerAddresses",
      "inputs": [
        {
          "name": "",
          "type": "uint256",
          "internalType": "uint256"
        }
      ],
      "outputs": [
        {
          "name": "",
          "type": "address",
          "internalType": "address"
        }
      ],
      "stateMutability": "view"
    },
    {
      "type": "function",
      "name": "winners",
      "inputs": [
        {
          "name": "",
          "type": "address",
          "internalType": "address"
        }
      ],
      "outputs": [
        {
          "name": "",
          "type": "bool",
          "internalType": "bool"
        }
      ],
      "stateMutability": "view"
    },
    {
      "type": "event",
      "name": "LotteryEnded",
      "inputs": [],
      "anonymous": false
    },
    {
      "type": "event",
      "name": "LotteryStarted",
      "inputs": [],
      "anonymous": false
    },
    {
      "type": "event",
      "name": "OwnershipTransferred",
      "inputs": [
        {
          "name": "previousOwner",
          "type": "address",
          "indexed": true,
          "internalType": "address"
        },
        {
          "name": "newOwner",
          "type": "address",
          "indexed": true,
          "internalType": "address"
        }
      ],
      "anonymous": false
    },
    {
      "type": "event",
      "name": "RandomFullfiled",
      "inputs": [
        {
          "name": "number",
          "type": "uint256",
          "indexed": false,
          "internalType": "uint256"
        }
      ],
      "anonymous": false
    },
    {
      "type": "event",
      "name": "RandomRequested",
      "inputs": [
        {
          "name": "requester",
          "type": "address",
          "indexed": true,
          "internalType": "address"
        }
      ],
      "anonymous": false
    },
    {
      "type": "event",
      "name": "RequestedRandomness",
      "inputs": [
        {
          "name": "round",
          "type": "uint256",
          "indexed": false,
          "internalType": "uint256"
        },
        {
          "name": "data",
          "type": "bytes",
          "indexed": false,
          "internalType": "bytes"
        }
      ],
      "anonymous": false
    },
    {
      "type": "event",
      "name": "WinnerSelected",
      "inputs": [
        {
          "name": "winner",
          "type": "address",
          "indexed": true,
          "internalType": "address"
        }
      ],
      "anonymous": false
    },
    {
      "type": "error",
      "name": "OwnableInvalidOwner",
      "inputs": [
        {
          "name": "owner",
          "type": "address",
          "internalType": "address"
        }
      ]
    },
    {
      "type": "error",
      "name": "OwnableUnauthorizedAccount",
      "inputs": [
        {
          "name": "account",
          "type": "address",
          "internalType": "address"
        }
      ]
    }
  ],
  "bytecode": {
    "object": "0x60a06040526002805460ff60a01b1916905534801561001d57600080fd5b5073d8253782c45a12053594b9deb72d8e8ab2fca54c338061005957604051631e4fbdf760e01b81526000600482015260240160405180910390fd5b61006281610074565b506001600160a01b03166080526100c6565b600280546001600160a01b038381166001600160a01b0319831681179093556040519116919082907f8be0079c531659141344cd1fd0a4f28419497f9722a3daafe3b4186f6b6457e090600090a35050565b6080516133316100e8600039600081816106580152612bf201526133316000f3fe60806040526004361061038c5760003560e01c8063715018a6116101dc578063af94862c11610102578063d9fca769116100a0578063f2fde38b1161006f578063f2fde38b14610a8c578063f3f18c3714610aac578063f8413b0714610acc578063fc7e286d14610ae157600080fd5b8063d9fca76914610a0c578063dbdff2c114610a2c578063df15c37e14610a41578063e9081ec714610a5657600080fd5b8063b6b55f25116100dc578063b6b55f2514610996578063b7a62e24146109a9578063c4f8f27b146109c9578063ccbac9f5146109f657600080fd5b8063af94862c14610940578063b3f6b99a14610960578063b680e44b1461098057600080fd5b806396efac7b1161017a5780639d9ca28d116101495780639d9ca28d146108a7578063a4f03c02146108e0578063a61fb2ba14610900578063a8641aea1461092057600080fd5b806396efac7b1461083b57806399bd69d61461085157806399dbf4b5146108715780639d1b464a1461089157600080fd5b80637de13382116101b65780637de13382146107bd5780638a6723e6146107dd5780638da5cb5b146107fd57806394d898de1461081b57600080fd5b8063715018a61461077357806375ce7fff146107885780637cc947d0146107a857600080fd5b80632c23ec8e116102c1578063572b6c051161025f57806367d3b4881161022e57806367d3b488146106df578063683e93e1146106f55780636939864b146107155780636bd5450a1461074357600080fd5b8063572b6c051461063b5780635aa68ac01461068857806360d50da3146106aa57806366af746b146106ca57600080fd5b806338e21cce1161029b57806338e21cce146105b557806345745c10146105e557806350f3dbec146105fb578063558a72971461061b57600080fd5b80632c23ec8e146105555780633639eb2e146105755780633644c27c1461059557600080fd5b8063160344e21161032e5780631a0de74c116103085780631a0de74c146104ff5780631d0806ae14610514578063224f91bd1461052a578063261704801461054057600080fd5b8063160344e2146104aa5780631630a8df146104bf57806318b20071146104df57600080fd5b80630bea66371161036a5780630bea66371461041257806313e7c9d814610434578063158ef93e146104745780631593a8c71461049557600080fd5b8063045f9c9714610391578063080c279a146103ce57806308551a53146103f2575b600080fd5b34801561039d57600080fd5b506103b16103ac366004612cbb565b610b0e565b6040516001600160a01b0390911681526020015b60405180910390f35b3480156103da57600080fd5b506103e460065481565b6040519081526020016103c5565b3480156103fe57600080fd5b506004546103b1906001600160a01b031681565b34801561041e57600080fd5b5061043261042d366004612cbb565b610b38565b005b34801561044057600080fd5b5061046461044f366004612cf0565b60126020526000908152604090205460ff1681565b60405190151581526020016103c5565b34801561048057600080fd5b5060025461046490600160a01b900460ff1681565b3480156104a157600080fd5b50610432610bd5565b3480156104b657600080fd5b50610432610c1b565b3480156104cb57600080fd5b506104326104da366004612cf0565b610cfb565b3480156104eb57600080fd5b506104326104fa366004612cbb565b610f98565b34801561050b57600080fd5b50610432610fe7565b34801561052057600080fd5b506103e460085481565b34801561053657600080fd5b506103e4600a5481565b34801561054c57600080fd5b50610432611375565b34801561056157600080fd5b506015546103b1906001600160a01b031681565b34801561058157600080fd5b50610432610590366004612cf0565b611541565b3480156105a157600080fd5b506104326105b0366004612cf0565b61159d565b3480156105c157600080fd5b506104646105d0366004612cf0565b600f6020526000908152604090205460ff1681565b3480156105f157600080fd5b506103e4600c5481565b34801561060757600080fd5b50610432610616366004612d12565b6115c7565b34801561062757600080fd5b50610432610636366004612d4a565b611707565b34801561064757600080fd5b50610464610656366004612cf0565b7f00000000000000000000000000000000000000000000000000000000000000006001600160a01b0390811691161490565b34801561069457600080fd5b5061069d61173a565b6040516103c59190612d81565b3480156106b657600080fd5b506104326106c5366004612cf0565b61179c565b3480156106d657600080fd5b506104326117c6565b3480156106eb57600080fd5b506103e460185481565b34801561070157600080fd5b50610432610710366004612dce565b6119fa565b34801561072157600080fd5b5060025461073690600160a81b900460ff1681565b6040516103c59190612e05565b34801561074f57600080fd5b5061046461075e366004612cf0565b60116020526000908152604090205460ff1681565b34801561077f57600080fd5b50610432611a61565b34801561079457600080fd5b506104646107a3366004612cbb565b611a73565b3480156107b457600080fd5b50610432611aa7565b3480156107c957600080fd5b506017546103b1906001600160a01b031681565b3480156107e957600080fd5b506104646107f8366004612cf0565b611cb1565b34801561080957600080fd5b506002546001600160a01b03166103b1565b34801561082757600080fd5b50610432610836366004612cf0565b611d10565b34801561084757600080fd5b506103e4600b5481565b34801561085d57600080fd5b5061043261086c366004612cbb565b611d3a565b34801561087d57600080fd5b506016546103b1906001600160a01b031681565b34801561089d57600080fd5b506103e460075481565b3480156108b357600080fd5b506104646108c2366004612cf0565b6001600160a01b031660009081526011602052604090205460ff1690565b3480156108ec57600080fd5b506104326108fb366004612e2d565b611de2565b34801561090c57600080fd5b506003546103b1906001600160a01b031681565b34801561092c57600080fd5b5061043261093b366004612e96565b611f14565b34801561094c57600080fd5b5061043261095b366004612cbb565b61200a565b34801561096c57600080fd5b5061043261097b366004612f46565b612049565b34801561098c57600080fd5b506103e460095481565b6104326109a4366004612cbb565b61221d565b3480156109b557600080fd5b506103b16109c4366004612cbb565b612591565b3480156109d557600080fd5b506103e46109e4366004612cbb565b60016020526000908152604090205481565b348015610a0257600080fd5b506103e4600d5481565b348015610a1857600080fd5b50610432610a27366004612cf0565b6125a1565b348015610a3857600080fd5b506103e4612641565b348015610a4d57600080fd5b5061069d612698565b348015610a6257600080fd5b506103e4610a71366004612cf0565b6001600160a01b031660009081526010602052604090205490565b348015610a9857600080fd5b50610432610aa7366004612cf0565b6126f8565b348015610ab857600080fd5b506005546103b1906001600160a01b031681565b348015610ad857600080fd5b50610432612736565b348015610aed57600080fd5b506103e4610afc366004612cf0565b60106020526000908152604090205481565b60138181548110610b1e57600080fd5b6000918252602090912001546001600160a01b0316905081565b6004546001600160a01b0316610b4c6127e4565b6001600160a01b03161480610b7b57506002546001600160a01b0316610b706127e4565b6001600160a01b0316145b80610bab575060126000610b8d6127e4565b6001600160a01b0316815260208101919091526040016000205460ff165b610bd05760405162461bcd60e51b8152600401610bc790612fc2565b60405180910390fd5b601855565b6004546001600160a01b0316610be96127e4565b6001600160a01b031614610c0f5760405162461bcd60e51b8152600401610bc790613006565b610c1960026119fa565b565b6004546001600160a01b0316610c2f6127e4565b6001600160a01b031614610c555760405162461bcd60e51b8152600401610bc790613006565b6000600254600160a81b900460ff166004811115610c7557610c75612def565b1480610c9d575060028054600160a81b900460ff166004811115610c9b57610c9b612def565b145b610ce95760405162461bcd60e51b815260206004820152601a60248201527f4c6f747465727920697320696e206163746976652073746174650000000000006044820152606401610bc7565b610cf360016119fa565b610c196127f3565b6004546001600160a01b0316610d0f6127e4565b6001600160a01b031614610d355760405162461bcd60e51b8152600401610bc790613006565b60005b601454811015610f945760006010600060148481548110610d5b57610d5b613048565b60009182526020808320909101546001600160a01b031683528201929092526040018120546014805491935060109183919086908110610d9d57610d9d613048565b6000918252602080832091909101546001600160a01b039081168452908301939093526040918201902092909255601654915163a9059cbb60e01b815285821660048201526024810184905291169063a9059cbb906044016020604051808303816000875af1158015610e14573d6000803e3d6000fd5b505050506040513d601f19601f82011682018060405250810190610e38919061305e565b50826001600160a01b03166350f3dbec60148481548110610e5b57610e5b613048565b60009182526020909120015460405160e083901b6001600160e01b03191681526001600160a01b03909116600482015260248101849052604401600060405180830381600087803b158015610eaf57600080fd5b505af1158015610ec3573d6000803e3d6000fd5b5050601454610ed6925060019150613091565b821015610f585760148054610eed90600190613091565b81548110610efd57610efd613048565b600091825260209091200154601480546001600160a01b039092169184908110610f2957610f29613048565b9060005260206000200160006101000a8154816001600160a01b0302191690836001600160a01b031602179055505b6014805480610f6957610f696130aa565b600082815260209020810160001990810180546001600160a01b031916905501905550600101610d38565b5050565b6004546001600160a01b0316610fac6127e4565b6001600160a01b031614610fd25760405162461bcd60e51b8152600401610bc790613006565b600854600003610fe25760088190555b600755565b6004546001600160a01b0316610ffb6127e4565b6001600160a01b0316146110215760405162461bcd60e51b8152600401610bc790613006565b6000600c54116110735760405162461bcd60e51b815260206004820152601b60248201527f4e6f207469636b657473206c65667420746f20616c6c6f6361746500000000006044820152606401610bc7565b600e54600c541061115e5760005b600e54811015611124576000600e82815481106110a0576110a0613048565b6000918252602090912001546001600160a01b031690506110d9816001600160a01b031660009081526011602052604090205460ff1690565b61111b576110e6816125a1565b6040516001600160a01b038216907f1d4c260f1824cd028e6c9e6e31c3a0b94f2513e7a641113ec759d382f9bdd5a190600090a25b50600101611081565b5060005b600e548110156111585761113b816128f2565b600c805490600061114b836130c0565b9091555050600101611128565b50611340565b60005b600e5481101561127957600e5460009061117c908390613091565b600d5461118991906130ed565b6111939083613101565b90506000600e82815481106111aa576111aa613048565b600091825260209091200154600e80546001600160a01b03909216925090849081106111d8576111d8613048565b600091825260209091200154600e80546001600160a01b03909216918490811061120457611204613048565b9060005260206000200160006101000a8154816001600160a01b0302191690836001600160a01b0316021790555080600e848154811061124657611246613048565b600091825260209091200180546001600160a01b0319166001600160a01b03929092169190911790555050600101611161565b5060005b600c5481101561133e576000600e828154811061129c5761129c613048565b6000918252602090912001546001600160a01b031690506112d5816001600160a01b031660009081526011602052604090205460ff1690565b611335576112e2816125a1565b6112eb826128f2565b600c80549060006112fb836130c0565b90915550506040516001600160a01b038216907f1d4c260f1824cd028e6c9e6e31c3a0b94f2513e7a641113ec759d382f9bdd5a190600090a25b5060010161127d565b505b600c54600003610c19576040517f9c89a6ed7228533196a3f962acc80d61a9c53bdea6b910741bf754f5aaa7569e90600090a1565b600f60006113816127e4565b6001600160a01b0316815260208101919091526040016000205460ff16156113e05760405162461bcd60e51b815260206004820152601260248201527113919508185b1c9958591e481b5a5b9d195960721b6044820152606401610bc7565b60028054600160a81b900460ff1660048111156113ff576113ff612def565b1461144c5760405162461bcd60e51b815260206004820152601860248201527f4c6f7474657279206973206e6f7420656e6465642079657400000000000000006044820152606401610bc7565b6114576108c26127e4565b61149c5760405162461bcd60e51b815260206004820152601660248201527521b0b63632b91034b9903737ba1030903bb4b73732b960511b6044820152606401610bc7565b6001600f60006114aa6127e4565b6001600160a01b0390811682526020820192909252604001600020805460ff19169215159290921790915560155416636b8f60f66114e66127e4565b6040516001600160e01b031960e084901b1681526001600160a01b039091166004820152602401600060405180830381600087803b15801561152757600080fd5b505af115801561153b573d6000803e3d6000fd5b50505050565b6004546001600160a01b03166115556127e4565b6001600160a01b03161461157b5760405162461bcd60e51b8152600401610bc790613006565b601780546001600160a01b0319166001600160a01b0392909216919091179055565b6115a5612a00565b601580546001600160a01b0319166001600160a01b0392909216919091179055565b6115cf6127e4565b6017546001600160a01b0390811691161461163c5760405162461bcd60e51b815260206004820152602760248201527f4f6e6c792077686974656c6973746564206d61792063616c6c207468697320666044820152663ab731ba34b7b760c91b6064820152608401610bc7565b601060006116486127e4565b6001600160a01b03166001600160a01b03168152602001908152602001600020546000036116bc57601480546001810182556000919091527fce6d7b5282bd9a3661ae061feed1dbda4e52ab073b1f9285be6e155d9c38d4ec0180546001600160a01b0319166001600160a01b0384161790555b6001600160a01b038216600090815260106020526040812080548392906116e4908490613101565b925050819055506001600960008282546116fe9190613101565b90915550505050565b61170f612a00565b6001600160a01b03919091166000908152601260205260409020805460ff1916911515919091179055565b6060601480548060200260200160405190810160405280929190818152602001828054801561179257602002820191906000526020600020905b81546001600160a01b03168152600190910190602001808311611774575b5050505050905090565b6117a4612a00565b600380546001600160a01b0319166001600160a01b0392909216919091179055565b6004546001600160a01b03166117da6127e4565b6001600160a01b0316146118005760405162461bcd60e51b8152600401610bc790613006565b60028054600160a81b900460ff16600481111561181f5761181f612def565b146118605760405162461bcd60e51b8152602060048201526011602482015270131bdd1d195c9e481b9bdd08195b991959607a1b6044820152606401610bc7565b6000805b6013548110156118d95760006013828154811061188357611883613048565b60009182526020808320909101546001600160a01b031680835260109091526040909120549091506118b59084613101565b6001600160a01b039091166000908152601060205260408120559150600101611864565b50600060646118e9836005613114565b6118f3919061312b565b905060006119018284613091565b60165460035460405163a9059cbb60e01b81526001600160a01b03918216600482015260248101869052929350169063a9059cbb906044016020604051808303816000875af1158015611958573d6000803e3d6000fd5b505050506040513d601f19601f8201168201806040525081019061197c919061305e565b506016546004805460405163a9059cbb60e01b81526001600160a01b0391821692810192909252602482018490529091169063a9059cbb906044016020604051808303816000875af11580156119d6573d6000803e3d6000fd5b505050506040513d601f19601f8201168201806040525081019061153b919061305e565b6004546001600160a01b0316611a0e6127e4565b6001600160a01b031614611a345760405162461bcd60e51b8152600401610bc790613006565b6002805482919060ff60a81b1916600160a81b836004811115611a5957611a59612def565b021790555050565b611a69612a00565b610c196000612a5e565b60008181548110611a8357600080fd5b9060005260206000209060209182820401919006915054906101000a900460ff1681565b6001600254600160a81b900460ff166004811115611ac757611ac7612def565b03611b145760405162461bcd60e51b815260206004820152601b60248201527f4c6f74746572792069732063757272656e746c792061637469766500000000006044820152606401610bc7565b60116000611b206127e4565b6001600160a01b0316815260208101919091526040016000205460ff1615611b8a5760405162461bcd60e51b815260206004820152601760248201527f57696e6e6572732063616e6e6f742077697468647261770000000000000000006044820152606401610bc7565b600060106000611b986127e4565b6001600160a01b03166001600160a01b0316815260200190815260200160002054905060008111611c025760405162461bcd60e51b81526020600482015260146024820152734e6f2066756e647320746f20776974686472617760601b6044820152606401610bc7565b600060106000611c106127e4565b6001600160a01b0390811682526020820192909252604001600020919091556016541663a9059cbb611c406127e4565b6040516001600160e01b031960e084901b1681526001600160a01b039091166004820152602481018490526044016020604051808303816000875af1158015611c8d573d6000803e3d6000fd5b505050506040513d601f19601f82011682018060405250810190610f94919061305e565b6000805b600e54811015611d0757826001600160a01b0316600e8281548110611cdc57611cdc613048565b6000918252602090912001546001600160a01b031603611cff5750600192915050565b600101611cb5565b50600092915050565b611d18612a00565b601680546001600160a01b0319166001600160a01b0392909216919091179055565b6004546001600160a01b0316611d4e6127e4565b6001600160a01b031614611d745760405162461bcd60e51b8152600401610bc790613006565b60008111611dd85760405162461bcd60e51b815260206004820152602b60248201527f4e756d626572206f66207469636b657473206d7573742062652067726561746560448201526a72207468616e207a65726f60a81b6064820152608401610bc7565b600c819055600a55565b6004546001600160a01b0316611df66127e4565b6001600160a01b03161480611e2557506002546001600160a01b0316611e1a6127e4565b6001600160a01b0316145b80611e55575060126000611e376127e4565b6001600160a01b0316815260208101919091526040016000205460ff165b611e715760405162461bcd60e51b8152600401610bc790612fc2565b6000600c5460095410611eaf57600a54600954611e8e919061312b565b600b54611e9b9190613114565b600754611ea89190613101565b9050611ef5565b600a54600954611ebf919061312b565b611eca906001613091565b600b54611ed79190613114565b600754611ee49190613091565b9050600854811015611ef557506008545b6007819055611f0383610b38565b506000600955600c819055600a5550565b600254600160a01b900460ff1615611f645760405162461bcd60e51b8152602060048201526013602482015272105b1c9958591e481a5b9a5d1a585b1a5e9959606a1b6044820152606401610bc7565b8051600480546001600160a01b039283166001600160a01b0319918216179091556020830151600580549190931691161790556040810151611fa590612a5e565b6060810151600c55608081015160065560a081015160185560c0810151601680546001600160a01b03199081166001600160a01b039384161790915560e09092015160038054909316911617905560028054600160a01b60ff60a01b19909116179055565b6004546001600160a01b031661201e6127e4565b6001600160a01b0316146120445760405162461bcd60e51b8152600401610bc790613006565b600b55565b6005546001600160a01b031633146120935760405162461bcd60e51b815260206004820152600d60248201526c37b7363c9037b832b930ba37b960991b6044820152606401610bc7565b60006120a182840184613167565b915050600080828060200190518101906120bb9190613215565b91509150600085856040516120d1929190613298565b604080519182900390912060008581526001602052918220548254919350831491908590811061210357612103613048565b90600052602060002090602091828204019190069054906101000a900460ff1661216f5760405162461bcd60e51b815260206004820152601c60248201527f726571756573742066756c66696c6c6564206f72206d697373696e67000000006044820152606401610bc7565b80156122135760408051602081018a905230918101919091524660608201526080810185905260a0016040516020818303038152906040528051906020012060001c97506121be888585612ab0565b60008085815481106121d2576121d2613048565b90600052602060002090602091828204019190066101000a81548160ff02191690831515021790555060016000858152602001908152602001600020600090555b5050505050505050565b6122286108c26127e4565b1561226e5760405162461bcd60e51b815260206004820152601660248201527515da5b9b995c9cc818d85b9b9bdd0819195c1bdcda5d60521b6044820152606401610bc7565b42601854116122c95760405162461bcd60e51b815260206004820152602160248201527f4465706f7369747320617265206e6f7420706f737369626c6520616e796d6f726044820152606560f81b6064820152608401610bc7565b6016546001600160a01b03166123215760405162461bcd60e51b815260206004820152601d60248201527f5553444320636f6e74726163742061646472657373206e6f74207365740000006044820152606401610bc7565b600081116123615760405162461bcd60e51b815260206004820152600d60248201526c139bc8199d5b991cc81cd95b9d609a1b6044820152606401610bc7565b60165481906001600160a01b031663dd62ed3e61237c6127e4565b6040516001600160e01b031960e084901b1681526001600160a01b039091166004820152306024820152604401602060405180830381865afa1580156123c6573d6000803e3d6000fd5b505050506040513d601f19601f820116820180604052508101906123ea91906132a8565b10156124315760405162461bcd60e51b8152602060048201526016602482015275496e73756666696369656e7420616c6c6f77616e636560501b6044820152606401610bc7565b6016546001600160a01b03166323b872dd61244a6127e4565b6040516001600160e01b031960e084901b1681526001600160a01b039091166004820152306024820152604481018490526064016020604051808303816000875af115801561249d573d6000803e3d6000fd5b505050506040513d601f19601f820116820180604052508101906124c1919061305e565b50601060006124ce6127e4565b6001600160a01b03166001600160a01b03168152602001908152602001600020546000036125335760146125006127e4565b81546001810183556000928352602090922090910180546001600160a01b0319166001600160a01b039092169190911790555b80601060006125406127e4565b6001600160a01b03166001600160a01b03168152602001908152602001600020600082825461256f9190613101565b925050819055506001600960008282546125899190613101565b909155505050565b600e8181548110610b1e57600080fd5b6004546001600160a01b03166125b56127e4565b6001600160a01b0316146125db5760405162461bcd60e51b8152600401610bc790613006565b6001600160a01b03166000818152601160205260408120805460ff191660019081179091556013805491820181559091527f66de8ffda797e3de9c05e8fc57b3bf0ec28a930d40b0d285d93c06501cf6a0900180546001600160a01b0319169091179055565b6000424461264d6127e4565b6040805160208101949094528301919091526bffffffffffffffffffffffff19606091821b16908201526074016040516020818303038152906040528051906020012060001c905090565b60606013805480602002602001604051908101604052809291908181526020018280548015611792576020028201919060005260206000209081546001600160a01b03168152600190910190602001808311611774575050505050905090565b612700612a00565b6001600160a01b03811661272a57604051631e4fbdf760e01b815260006004820152602401610bc7565b61273381612a5e565b50565b6004546001600160a01b031661274a6127e4565b6001600160a01b0316146127705760405162461bcd60e51b8152600401610bc790613006565b6127a461277b6127e4565b604080516001600160a01b03909216602083015201604051602081830303815290604052612aed565b506127ad6127e4565b6001600160a01b03167fd802e7c7f1646e3318c03abed1e468bdf913f45331a68dc912a0d645eb646a4260405160405180910390a2565b60006127ee612bee565b905090565b6127ff600e6000612c89565b60005b601454811015612733576000601060006014848154811061282557612825613048565b60009182526020808320909101546001600160a01b0316835282019290925260400190205460075490915081106128e9576128946014838154811061286c5761286c613048565b60009182526020808320909101546001600160a01b0316825260119052604090205460ff1690565b6128e957600e601483815481106128ad576128ad613048565b60009182526020808320909101548354600181018555938352912090910180546001600160a01b0319166001600160a01b039092169190911790555b50600101612802565b600e5481106129395760405162461bcd60e51b8152602060048201526013602482015272496e646578206f7574206f6620626f756e647360681b6044820152606401610bc7565b600e5461294890600190613091565b8110156129ca57600e805461295f90600190613091565b8154811061296f5761296f613048565b600091825260209091200154600e80546001600160a01b03909216918390811061299b5761299b613048565b9060005260206000200160006101000a8154816001600160a01b0302191690836001600160a01b031602179055505b600e8054806129db576129db6130aa565b600082815260209020810160001990810180546001600160a01b031916905501905550565b612a086127e4565b6001600160a01b0316612a236002546001600160a01b031690565b6001600160a01b031614610c1957612a396127e4565b60405163118cdaa760e01b81526001600160a01b039091166004820152602401610bc7565b600280546001600160a01b038381166001600160a01b0319831681179093556040519116919082907f8be0079c531659141344cd1fd0a4f28419497f9722a3daafe3b4186f6b6457e090600090a35050565b600d8390556040518381527fa2353d33775668d31add0688b8ed09ca3a91dc8129126fcdbcbda3a887db60db9060200160405180910390a1505050565b6000805460018082018084558380529192909183908110612b1057612b10613048565b90600052602060002090602091828204019190066101000a81548160ff02191690831515021790555060008183604051602001612b4e9291906132c1565b60405160208183030381529060405290506000612b69612c32565b905060008183604051602001612b809291906132c1565b60408051601f198184030181528282528051602080830191909120600089815260019092529290208290559250907fd91fc3685b930310b008ec37d2334870cab88a023ed8cc628a2e2ccd4e55d20290612bdd90859087906132c1565b60405180910390a150505050919050565b60007f00000000000000000000000000000000000000000000000000000000000000006001600160a01b03163303612c2d575060131936013560601c90565b503390565b600080612c436364e6212742613091565b90506000612c5260038361312b565b612c5d906001613101565b905046600114612c7757612c72816001613101565b612c82565b612c82816004613101565b9250505090565b508054600082559060005260206000209081019061273391905b80821115612cb75760008155600101612ca3565b5090565b600060208284031215612ccd57600080fd5b5035919050565b80356001600160a01b0381168114612ceb57600080fd5b919050565b600060208284031215612d0257600080fd5b612d0b82612cd4565b9392505050565b60008060408385031215612d2557600080fd5b612d2e83612cd4565b946020939093013593505050565b801515811461273357600080fd5b60008060408385031215612d5d57600080fd5b612d6683612cd4565b91506020830135612d7681612d3c565b809150509250929050565b6020808252825182820181905260009190848201906040850190845b81811015612dc25783516001600160a01b031683529284019291840191600101612d9d565b50909695505050505050565b600060208284031215612de057600080fd5b813560058110612d0b57600080fd5b634e487b7160e01b600052602160045260246000fd5b6020810160058310612e2757634e487b7160e01b600052602160045260246000fd5b91905290565b60008060408385031215612e4057600080fd5b50508035926020909101359150565b634e487b7160e01b600052604160045260246000fd5b604051601f8201601f1916810167ffffffffffffffff81118282101715612e8e57612e8e612e4f565b604052919050565b6000610100808385031215612eaa57600080fd5b6040519081019067ffffffffffffffff82118183101715612ecd57612ecd612e4f565b81604052612eda84612cd4565b8152612ee860208501612cd4565b6020820152612ef960408501612cd4565b6040820152606084013560608201526080840135608082015260a084013560a0820152612f2860c08501612cd4565b60c0820152612f3960e08501612cd4565b60e0820152949350505050565b600080600060408486031215612f5b57600080fd5b83359250602084013567ffffffffffffffff80821115612f7a57600080fd5b818601915086601f830112612f8e57600080fd5b813581811115612f9d57600080fd5b876020828501011115612faf57600080fd5b6020830194508093505050509250925092565b60208082526024908201527f4f6e6c79206f70657261746f722063616e2063616c6c20746869732066756e636040820152633a34b7b760e11b606082015260800190565b60208082526022908201527f4f6e6c792073656c6c65722063616e2063616c6c20746869732066756e63746960408201526137b760f11b606082015260800190565b634e487b7160e01b600052603260045260246000fd5b60006020828403121561307057600080fd5b8151612d0b81612d3c565b634e487b7160e01b600052601160045260246000fd5b818103818111156130a4576130a461307b565b92915050565b634e487b7160e01b600052603160045260246000fd5b6000816130cf576130cf61307b565b506000190190565b634e487b7160e01b600052601260045260246000fd5b6000826130fc576130fc6130d7565b500690565b808201808211156130a4576130a461307b565b80820281158282048414176130a4576130a461307b565b60008261313a5761313a6130d7565b500490565b600067ffffffffffffffff82111561315957613159612e4f565b50601f01601f191660200190565b6000806040838503121561317a57600080fd5b82359150602083013567ffffffffffffffff81111561319857600080fd5b8301601f810185136131a957600080fd5b80356131bc6131b78261313f565b612e65565b8181528660208385010111156131d157600080fd5b816020840160208301376000602083830101528093505050509250929050565b60005b8381101561320c5781810151838201526020016131f4565b50506000910152565b6000806040838503121561322857600080fd5b82519150602083015167ffffffffffffffff81111561324657600080fd5b8301601f8101851361325757600080fd5b80516132656131b78261313f565b81815286602083850101111561327a57600080fd5b61328b8260208301602086016131f1565b8093505050509250929050565b8183823760009101908152919050565b6000602082840312156132ba57600080fd5b5051919050565b82815260406020820152600082518060408401526132e68160608501602087016131f1565b601f01601f191691909101606001939250505056fea264697066735822122004708256ba86067dc607ab471658e563a6eea60f061bf2aba660608c88dc023964736f6c63430008190033",
    "linkReferences": {}
  },
  "methodIdentifiers": {
    "buyerWithdraw()": "7cc947d0",
    "changeLotteryState(uint8)": "683e93e1",
    "currentPrice()": "9d1b464a",
    "deposit(uint256)": "b6b55f25",
    "deposits(address)": "fc7e286d",
    "eligibleParticipants(uint256)": "b7a62e24",
    "endLottery()": "1593a8c7",
    "finishAt()": "67d3b488",
    "fulfillRandomness(uint256,bytes)": "b3f6b99a",
    "getDepositedAmount(address)": "e9081ec7",
    "getParticipants()": "5aa68ac0",
    "getRandomNumber()": "dbdff2c1",
    "getWinners()": "df15c37e",
    "hasMinted(address)": "38e21cce",
    "increasePriceStep()": "96efac7b",
    "initialPrice()": "1d0806ae",
    "initialize((address,address,address,uint256,uint256,uint256,address,address))": "a8641aea",
    "initialized()": "158ef93e",
    "isParticipantEligible(address)": "8a6723e6",
    "isTrustedForwarder(address)": "572b6c05",
    "isWinner(address)": "9d9ca28d",
    "lotteryState()": "6939864b",
    "lotteryV2Addr()": "7de13382",
    "minimumDepositAmount()": "080c279a",
    "mintMyNFT()": "26170480",
    "multisigWalletAddress()": "a61fb2ba",
    "nftContractAddr()": "2c23ec8e",
    "numberOfTickets()": "45745c10",
    "operatorAddr()": "f3f18c37",
    "operators(address)": "13e7c9d8",
    "owner()": "8da5cb5b",
    "prevRoundDeposits()": "b680e44b",
    "prevRoundTicketsAmount()": "224f91bd",
    "randomNumber()": "ccbac9f5",
    "renounceOwnership()": "715018a6",
    "requestPending(uint256)": "75ce7fff",
    "requestRandomness()": "f8413b07",
    "requestedHash(uint256)": "c4f8f27b",
    "selectWinners()": "1a0de74c",
    "seller()": "08551a53",
    "sellerWithdraw()": "66af746b",
    "setCurrentPrice(uint256)": "18b20071",
    "setFinishAt(uint256)": "0bea6637",
    "setLotteryV2Addr(address)": "3639eb2e",
    "setMultisigWalletAddress(address)": "60d50da3",
    "setNftContractAddr(address)": "3644c27c",
    "setNumberOfTickets(uint256)": "99bd69d6",
    "setOperator(address,bool)": "558a7297",
    "setPriceStep(uint256)": "af94862c",
    "setUsdcContractAddr(address)": "94d898de",
    "setWinner(address)": "d9fca769",
    "setupNewRound(uint256,uint256)": "a4f03c02",
    "startLottery()": "160344e2",
    "transferDeposit(address,uint256)": "50f3dbec",
    "transferNonWinnerBids(address)": "1630a8df",
    "transferOwnership(address)": "f2fde38b",
    "usdcContractAddr()": "99dbf4b5",
    "winnerAddresses(uint256)": "045f9c97",
    "winners(address)": "6bd5450a"
  },
  "id": 5
}