{
  "abi": [
    {
      "type": "function",
      "name": "buyerWithdraw",
      "inputs": [],
      "outputs": [],
      "stateMutability": "nonpayable"
    },
    {
      "type": "function",
      "name": "changeLotteryState",
      "inputs": [
        {
          "name": "_newState",
          "type": "uint8",
          "internalType": "enum AuctionV1Base.LotteryState"
        }
      ],
      "outputs": [],
      "stateMutability": "nonpayable"
    },
    {
      "type": "function",
      "name": "currentPrice",
      "inputs": [],
      "outputs": [
        {
          "name": "",
          "type": "uint256",
          "internalType": "uint256"
        }
      ],
      "stateMutability": "view"
    },
    {
      "type": "function",
      "name": "deposit",
      "inputs": [
        {
          "name": "amount",
          "type": "uint256",
          "internalType": "uint256"
        }
      ],
      "outputs": [],
      "stateMutability": "payable"
    },
    {
      "type": "function",
      "name": "deposits",
      "inputs": [
        {
          "name": "",
          "type": "address",
          "internalType": "address"
        }
      ],
      "outputs": [
        {
          "name": "",
          "type": "uint256",
          "internalType": "uint256"
        }
      ],
      "stateMutability": "view"
    },
    {
      "type": "function",
      "name": "eligibleParticipants",
      "inputs": [
        {
          "name": "",
          "type": "uint256",
          "internalType": "uint256"
        }
      ],
      "outputs": [
        {
          "name": "",
          "type": "address",
          "internalType": "address"
        }
      ],
      "stateMutability": "view"
    },
    {
      "type": "function",
      "name": "endLottery",
      "inputs": [],
      "outputs": [],
      "stateMutability": "nonpayable"
    },
    {
      "type": "function",
      "name": "finishAt",
      "inputs": [],
      "outputs": [
        {
          "name": "",
          "type": "uint256",
          "internalType": "uint256"
        }
      ],
      "stateMutability": "view"
    },
    {
      "type": "function",
      "name": "fulfillRandomness",
      "inputs": [
        {
          "name": "randomness",
          "type": "uint256",
          "internalType": "uint256"
        },
        {
          "name": "dataWithRound",
          "type": "bytes",
          "internalType": "bytes"
        }
      ],
      "outputs": [],
      "stateMutability": "nonpayable"
    },
    {
      "type": "function",
      "name": "getDepositedAmount",
      "inputs": [
        {
          "name": "participant",
          "type": "address",
          "internalType": "address"
        }
      ],
      "outputs": [
        {
          "name": "",
          "type": "uint256",
          "internalType": "uint256"
        }
      ],
      "stateMutability": "view"
    },
    {
      "type": "function",
      "name": "getEligibleParticipants",
      "inputs": [],
      "outputs": [
        {
          "name": "",
          "type": "address[]",
          "internalType": "address[]"
        }
      ],
      "stateMutability": "view"
    },
    {
      "type": "function",
      "name": "getParticipants",
      "inputs": [],
      "outputs": [
        {
          "name": "",
          "type": "address[]",
          "internalType": "address[]"
        }
      ],
      "stateMutability": "view"
    },
    {
      "type": "function",
      "name": "getRandomNumber",
      "inputs": [],
      "outputs": [
        {
          "name": "",
          "type": "uint256",
          "internalType": "uint256"
        }
      ],
      "stateMutability": "view"
    },
    {
      "type": "function",
      "name": "getWinners",
      "inputs": [],
      "outputs": [
        {
          "name": "",
          "type": "address[]",
          "internalType": "address[]"
        }
      ],
      "stateMutability": "view"
    },
    {
      "type": "function",
      "name": "hasMinted",
      "inputs": [
        {
          "name": "",
          "type": "address",
          "internalType": "address"
        }
      ],
      "outputs": [
        {
          "name": "",
          "type": "bool",
          "internalType": "bool"
        }
      ],
      "stateMutability": "view"
    },
    {
      "type": "function",
      "name": "increasePriceStep",
      "inputs": [],
      "outputs": [
        {
          "name": "",
          "type": "uint256",
          "internalType": "uint256"
        }
      ],
      "stateMutability": "view"
    },
    {
      "type": "function",
      "name": "initialPrice",
      "inputs": [],
      "outputs": [
        {
          "name": "",
          "type": "uint256",
          "internalType": "uint256"
        }
      ],
      "stateMutability": "view"
    },
    {
      "type": "function",
      "name": "initialize",
      "inputs": [
        {
          "name": "config",
          "type": "tuple",
          "internalType": "struct StructsLibrary.ILotteryBaseConfig",
          "components": [
            {
              "name": "_seller",
              "type": "address",
              "internalType": "address"
            },
            {
              "name": "_gelatoVrfOperator",
              "type": "address",
              "internalType": "address"
            },
            {
              "name": "_blessedOperator",
              "type": "address",
              "internalType": "address"
            },
            {
              "name": "_owner",
              "type": "address",
              "internalType": "address"
            },
            {
              "name": "_ticketAmount",
              "type": "uint256",
              "internalType": "uint256"
            },
            {
              "name": "_ticketPrice",
              "type": "uint256",
              "internalType": "uint256"
            },
            {
              "name": "_finishAt",
              "type": "uint256",
              "internalType": "uint256"
            },
            {
              "name": "_usdcContractAddr",
              "type": "address",
              "internalType": "address"
            },
            {
              "name": "_multisigWalletAddress",
              "type": "address",
              "internalType": "address"
            }
          ]
        }
      ],
      "outputs": [],
      "stateMutability": "nonpayable"
    },
    {
      "type": "function",
      "name": "initialized",
      "inputs": [],
      "outputs": [
        {
          "name": "",
          "type": "bool",
          "internalType": "bool"
        }
      ],
      "stateMutability": "view"
    },
    {
      "type": "function",
      "name": "isParticipantEligible",
      "inputs": [
        {
          "name": "participant",
          "type": "address",
          "internalType": "address"
        }
      ],
      "outputs": [
        {
          "name": "",
          "type": "bool",
          "internalType": "bool"
        }
      ],
      "stateMutability": "view"
    },
    {
      "type": "function",
      "name": "isTrustedForwarder",
      "inputs": [
        {
          "name": "forwarder",
          "type": "address",
          "internalType": "address"
        }
      ],
      "outputs": [
        {
          "name": "",
          "type": "bool",
          "internalType": "bool"
        }
      ],
      "stateMutability": "view"
    },
    {
      "type": "function",
      "name": "isWinner",
      "inputs": [
        {
          "name": "_participant",
          "type": "address",
          "internalType": "address"
        }
      ],
      "outputs": [
        {
          "name": "",
          "type": "bool",
          "internalType": "bool"
        }
      ],
      "stateMutability": "view"
    },
    {
      "type": "function",
      "name": "lotteryState",
      "inputs": [],
      "outputs": [
        {
          "name": "",
          "type": "uint8",
          "internalType": "enum AuctionV1Base.LotteryState"
        }
      ],
      "stateMutability": "view"
    },
    {
      "type": "function",
      "name": "lotteryV2Addr",
      "inputs": [],
      "outputs": [
        {
          "name": "",
          "type": "address",
          "internalType": "address"
        }
      ],
      "stateMutability": "view"
    },
    {
      "type": "function",
      "name": "minimumDepositAmount",
      "inputs": [],
      "outputs": [
        {
          "name": "",
          "type": "uint256",
          "internalType": "uint256"
        }
      ],
      "stateMutability": "view"
    },
    {
      "type": "function",
      "name": "mintMyNFT",
      "inputs": [],
      "outputs": [],
      "stateMutability": "nonpayable"
    },
    {
      "type": "function",
      "name": "multisigWalletAddress",
      "inputs": [],
      "outputs": [
        {
          "name": "",
          "type": "address",
          "internalType": "address"
        }
      ],
      "stateMutability": "view"
    },
    {
      "type": "function",
      "name": "nftContractAddr",
      "inputs": [],
      "outputs": [
        {
          "name": "",
          "type": "address",
          "internalType": "address"
        }
      ],
      "stateMutability": "view"
    },
    {
      "type": "function",
      "name": "numberOfTickets",
      "inputs": [],
      "outputs": [
        {
          "name": "",
          "type": "uint256",
          "internalType": "uint256"
        }
      ],
      "stateMutability": "view"
    },
    {
      "type": "function",
      "name": "operatorAddr",
      "inputs": [],
      "outputs": [
        {
          "name": "",
          "type": "address",
          "internalType": "address"
        }
      ],
      "stateMutability": "view"
    },
    {
      "type": "function",
      "name": "operators",
      "inputs": [
        {
          "name": "",
          "type": "address",
          "internalType": "address"
        }
      ],
      "outputs": [
        {
          "name": "",
          "type": "bool",
          "internalType": "bool"
        }
      ],
      "stateMutability": "view"
    },
    {
      "type": "function",
      "name": "owner",
      "inputs": [],
      "outputs": [
        {
          "name": "",
          "type": "address",
          "internalType": "address"
        }
      ],
      "stateMutability": "view"
    },
    {
      "type": "function",
      "name": "prevRoundDeposits",
      "inputs": [],
      "outputs": [
        {
          "name": "",
          "type": "uint256",
          "internalType": "uint256"
        }
      ],
      "stateMutability": "view"
    },
    {
      "type": "function",
      "name": "prevRoundTicketsAmount",
      "inputs": [],
      "outputs": [
        {
          "name": "",
          "type": "uint256",
          "internalType": "uint256"
        }
      ],
      "stateMutability": "view"
    },
    {
      "type": "function",
      "name": "randomNumber",
      "inputs": [],
      "outputs": [
        {
          "name": "",
          "type": "uint256",
          "internalType": "uint256"
        }
      ],
      "stateMutability": "view"
    },
    {
      "type": "function",
      "name": "renounceOwnership",
      "inputs": [],
      "outputs": [],
      "stateMutability": "nonpayable"
    },
    {
      "type": "function",
      "name": "requestPending",
      "inputs": [
        {
          "name": "",
          "type": "uint256",
          "internalType": "uint256"
        }
      ],
      "outputs": [
        {
          "name": "",
          "type": "bool",
          "internalType": "bool"
        }
      ],
      "stateMutability": "view"
    },
    {
      "type": "function",
      "name": "requestRandomness",
      "inputs": [],
      "outputs": [],
      "stateMutability": "nonpayable"
    },
    {
      "type": "function",
      "name": "requestedHash",
      "inputs": [
        {
          "name": "",
          "type": "uint256",
          "internalType": "uint256"
        }
      ],
      "outputs": [
        {
          "name": "",
          "type": "bytes32",
          "internalType": "bytes32"
        }
      ],
      "stateMutability": "view"
    },
    {
      "type": "function",
      "name": "selectWinners",
      "inputs": [],
      "outputs": [],
      "stateMutability": "nonpayable"
    },
    {
      "type": "function",
      "name": "seller",
      "inputs": [],
      "outputs": [
        {
          "name": "",
          "type": "address",
          "internalType": "address"
        }
      ],
      "stateMutability": "view"
    },
    {
      "type": "function",
      "name": "sellerWithdraw",
      "inputs": [],
      "outputs": [],
      "stateMutability": "nonpayable"
    },
    {
      "type": "function",
      "name": "setCurrentPrice",
      "inputs": [
        {
          "name": "_amount",
          "type": "uint256",
          "internalType": "uint256"
        }
      ],
      "outputs": [],
      "stateMutability": "nonpayable"
    },
    {
      "type": "function",
      "name": "setFinishAt",
      "inputs": [
        {
          "name": "_finishAt",
          "type": "uint256",
          "internalType": "uint256"
        }
      ],
      "outputs": [],
      "stateMutability": "nonpayable"
    },
    {
      "type": "function",
      "name": "setLotteryV2Addr",
      "inputs": [
        {
          "name": "_lotteryV2Addr",
          "type": "address",
          "internalType": "address"
        }
      ],
      "outputs": [],
      "stateMutability": "nonpayable"
    },
    {
      "type": "function",
      "name": "setMultisigWalletAddress",
      "inputs": [
        {
          "name": "_multisigWalletAddress",
          "type": "address",
          "internalType": "address"
        }
      ],
      "outputs": [],
      "stateMutability": "nonpayable"
    },
    {
      "type": "function",
      "name": "setNftContractAddr",
      "inputs": [
        {
          "name": "_nftContractAddr",
          "type": "address",
          "internalType": "address"
        }
      ],
      "outputs": [],
      "stateMutability": "nonpayable"
    },
    {
      "type": "function",
      "name": "setNumberOfTickets",
      "inputs": [
        {
          "name": "_numberOfTickets",
          "type": "uint256",
          "internalType": "uint256"
        }
      ],
      "outputs": [],
      "stateMutability": "nonpayable"
    },
    {
      "type": "function",
      "name": "setOperator",
      "inputs": [
        {
          "name": "_operatorAddr",
          "type": "address",
          "internalType": "address"
        },
        {
          "name": "_flag",
          "type": "bool",
          "internalType": "bool"
        }
      ],
      "outputs": [],
      "stateMutability": "nonpayable"
    },
    {
      "type": "function",
      "name": "setPriceStep",
      "inputs": [
        {
          "name": "_increasePriceStep",
          "type": "uint256",
          "internalType": "uint256"
        }
      ],
      "outputs": [],
      "stateMutability": "nonpayable"
    },
    {
      "type": "function",
      "name": "setSeller",
      "inputs": [
        {
          "name": "_seller",
          "type": "address",
          "internalType": "address"
        }
      ],
      "outputs": [],
      "stateMutability": "nonpayable"
    },
    {
      "type": "function",
      "name": "setUsdcContractAddr",
      "inputs": [
        {
          "name": "_usdcContractAddr",
          "type": "address",
          "internalType": "address"
        }
      ],
      "outputs": [],
      "stateMutability": "nonpayable"
    },
    {
      "type": "function",
      "name": "setWinner",
      "inputs": [
        {
          "name": "_winner",
          "type": "address",
          "internalType": "address"
        }
      ],
      "outputs": [],
      "stateMutability": "nonpayable"
    },
    {
      "type": "function",
      "name": "setupNewRound",
      "inputs": [
        {
          "name": "_finishAt",
          "type": "uint256",
          "internalType": "uint256"
        },
        {
          "name": "_numberOfTickets",
          "type": "uint256",
          "internalType": "uint256"
        }
      ],
      "outputs": [],
      "stateMutability": "nonpayable"
    },
    {
      "type": "function",
      "name": "startLottery",
      "inputs": [],
      "outputs": [],
      "stateMutability": "nonpayable"
    },
    {
      "type": "function",
      "name": "transferDeposit",
      "inputs": [
        {
          "name": "_participant",
          "type": "address",
          "internalType": "address"
        },
        {
          "name": "_amount",
          "type": "uint256",
          "internalType": "uint256"
        }
      ],
      "outputs": [],
      "stateMutability": "nonpayable"
    },
    {
      "type": "function",
      "name": "transferNonWinnerBids",
      "inputs": [
        {
          "name": "destinationAddr",
          "type": "address",
          "internalType": "address"
        }
      ],
      "outputs": [],
      "stateMutability": "nonpayable"
    },
    {
      "type": "function",
      "name": "transferOwnership",
      "inputs": [
        {
          "name": "newOwner",
          "type": "address",
          "internalType": "address"
        }
      ],
      "outputs": [],
      "stateMutability": "nonpayable"
    },
    {
      "type": "function",
      "name": "usdcContractAddr",
      "inputs": [],
      "outputs": [
        {
          "name": "",
          "type": "address",
          "internalType": "address"
        }
      ],
      "stateMutability": "view"
    },
    {
      "type": "function",
      "name": "winnerAddresses",
      "inputs": [
        {
          "name": "",
          "type": "uint256",
          "internalType": "uint256"
        }
      ],
      "outputs": [
        {
          "name": "",
          "type": "address",
          "internalType": "address"
        }
      ],
      "stateMutability": "view"
    },
    {
      "type": "function",
      "name": "winners",
      "inputs": [
        {
          "name": "",
          "type": "address",
          "internalType": "address"
        }
      ],
      "outputs": [
        {
          "name": "",
          "type": "bool",
          "internalType": "bool"
        }
      ],
      "stateMutability": "view"
    },
    {
      "type": "event",
      "name": "LotteryEnded",
      "inputs": [],
      "anonymous": false
    },
    {
      "type": "event",
      "name": "LotteryStarted",
      "inputs": [],
      "anonymous": false
    },
    {
      "type": "event",
      "name": "OwnershipTransferred",
      "inputs": [
        {
          "name": "previousOwner",
          "type": "address",
          "indexed": true,
          "internalType": "address"
        },
        {
          "name": "newOwner",
          "type": "address",
          "indexed": true,
          "internalType": "address"
        }
      ],
      "anonymous": false
    },
    {
      "type": "event",
      "name": "RandomFullfiled",
      "inputs": [
        {
          "name": "number",
          "type": "uint256",
          "indexed": false,
          "internalType": "uint256"
        }
      ],
      "anonymous": false
    },
    {
      "type": "event",
      "name": "RandomRequested",
      "inputs": [
        {
          "name": "requester",
          "type": "address",
          "indexed": true,
          "internalType": "address"
        }
      ],
      "anonymous": false
    },
    {
      "type": "event",
      "name": "RequestedRandomness",
      "inputs": [
        {
          "name": "round",
          "type": "uint256",
          "indexed": false,
          "internalType": "uint256"
        },
        {
          "name": "data",
          "type": "bytes",
          "indexed": false,
          "internalType": "bytes"
        }
      ],
      "anonymous": false
    },
    {
      "type": "event",
      "name": "WinnerSelected",
      "inputs": [
        {
          "name": "winner",
          "type": "address",
          "indexed": true,
          "internalType": "address"
        }
      ],
      "anonymous": false
    },
    {
      "type": "error",
      "name": "OwnableInvalidOwner",
      "inputs": [
        {
          "name": "owner",
          "type": "address",
          "internalType": "address"
        }
      ]
    },
    {
      "type": "error",
      "name": "OwnableUnauthorizedAccount",
      "inputs": [
        {
          "name": "account",
          "type": "address",
          "internalType": "address"
        }
      ]
    }
  ],
  "bytecode": {
    "object": "0x60a06040526002805460ff60a01b1916905534801561001d57600080fd5b5073d8253782c45a12053594b9deb72d8e8ab2fca54c338061005957604051631e4fbdf760e01b81526000600482015260240160405180910390fd5b61006281610074565b506001600160a01b03166080526100c6565b600280546001600160a01b038381166001600160a01b0319831681179093556040519116919082907f8be0079c531659141344cd1fd0a4f28419497f9722a3daafe3b4186f6b6457e090600090a35050565b6080516133e76100e86000396000818161066e0152612c8b01526133e76000f3fe6080604052600436106103a25760003560e01c806375ce7fff116101e7578063b3f6b99a1161010d578063dbdff2c1116100a0578063f2fde38b1161006f578063f2fde38b14610ad7578063f3f18c3714610af7578063f8413b0714610b17578063fc7e286d14610b2c57600080fd5b8063dbdff2c114610a57578063df15c37e14610a6c578063e9081ec714610a81578063e99d286614610ab757600080fd5b8063c4f8f27b116100dc578063c4f8f27b146109d4578063ccbac9f514610a01578063d30009bd14610a17578063d9fca76914610a3757600080fd5b8063b3f6b99a1461096b578063b680e44b1461098b578063b6b55f25146109a1578063b7a62e24146109b457600080fd5b806399bd69d6116101855780639d9ca28d116101545780639d9ca28d146108d2578063a4f03c021461090b578063a61fb2ba1461092b578063af94862c1461094b57600080fd5b806399bd69d61461086757806399dbf4b5146108875780639abdccd1146108a75780639d1b464a146108bc57600080fd5b80638a6723e6116101c15780638a6723e6146107f35780638da5cb5b1461081357806394d898de1461083157806396efac7b1461085157600080fd5b806375ce7fff1461079e5780637cc947d0146107be5780637de13382146107d357600080fd5b80633639eb2e116102cc5780635aa68ac01161026a578063683e93e111610239578063683e93e11461070b5780636939864b1461072b5780636bd5450a14610759578063715018a61461078957600080fd5b80635aa68ac01461069e57806360d50da3146106c057806366af746b146106e057806367d3b488146106f557600080fd5b806345745c10116102a657806345745c10146105fb57806350f3dbec14610611578063558a729714610631578063572b6c051461065157600080fd5b80633639eb2e1461058b5780633644c27c146105ab57806338e21cce146105cb57600080fd5b8063160344e2116103445780631d0806ae116103135780631d0806ae1461052a578063224f91bd1461054057806326170480146105565780632c23ec8e1461056b57600080fd5b8063160344e2146104c05780631630a8df146104d557806318b20071146104f55780631a0de74c1461051557600080fd5b80630bea6637116103805780630bea66371461042857806313e7c9d81461044a578063158ef93e1461048a5780631593a8c7146104ab57600080fd5b8063045f9c97146103a7578063080c279a146103e457806308551a5314610408575b600080fd5b3480156103b357600080fd5b506103c76103c2366004612d54565b610b59565b6040516001600160a01b0390911681526020015b60405180910390f35b3480156103f057600080fd5b506103fa60065481565b6040519081526020016103db565b34801561041457600080fd5b506004546103c7906001600160a01b031681565b34801561043457600080fd5b50610448610443366004612d54565b610b83565b005b34801561045657600080fd5b5061047a610465366004612d89565b60126020526000908152604090205460ff1681565b60405190151581526020016103db565b34801561049657600080fd5b5060025461047a90600160a01b900460ff1681565b3480156104b757600080fd5b50610448610c20565b3480156104cc57600080fd5b50610448610c66565b3480156104e157600080fd5b506104486104f0366004612d89565b610d46565b34801561050157600080fd5b50610448610510366004612d54565b610fe3565b34801561052157600080fd5b50610448611032565b34801561053657600080fd5b506103fa60085481565b34801561054c57600080fd5b506103fa600a5481565b34801561056257600080fd5b5061044861145c565b34801561057757600080fd5b506015546103c7906001600160a01b031681565b34801561059757600080fd5b506104486105a6366004612d89565b611628565b3480156105b757600080fd5b506104486105c6366004612d89565b611684565b3480156105d757600080fd5b5061047a6105e6366004612d89565b600f6020526000908152604090205460ff1681565b34801561060757600080fd5b506103fa600c5481565b34801561061d57600080fd5b5061044861062c366004612dab565b6116ae565b34801561063d57600080fd5b5061044861064c366004612de3565b6117ee565b34801561065d57600080fd5b5061047a61066c366004612d89565b7f00000000000000000000000000000000000000000000000000000000000000006001600160a01b0390811691161490565b3480156106aa57600080fd5b506106b3611821565b6040516103db9190612e1a565b3480156106cc57600080fd5b506104486106db366004612d89565b611883565b3480156106ec57600080fd5b506104486118ad565b34801561070157600080fd5b506103fa60185481565b34801561071757600080fd5b50610448610726366004612e67565b611ae1565b34801561073757600080fd5b5060025461074c90600160a81b900460ff1681565b6040516103db9190612e9e565b34801561076557600080fd5b5061047a610774366004612d89565b60116020526000908152604090205460ff1681565b34801561079557600080fd5b50610448611b48565b3480156107aa57600080fd5b5061047a6107b9366004612d54565b611b5a565b3480156107ca57600080fd5b50610448611b8e565b3480156107df57600080fd5b506017546103c7906001600160a01b031681565b3480156107ff57600080fd5b5061047a61080e366004612d89565b611d98565b34801561081f57600080fd5b506002546001600160a01b03166103c7565b34801561083d57600080fd5b5061044861084c366004612d89565b611df7565b34801561085d57600080fd5b506103fa600b5481565b34801561087357600080fd5b50610448610882366004612d54565b611e21565b34801561089357600080fd5b506016546103c7906001600160a01b031681565b3480156108b357600080fd5b506106b3611ec9565b3480156108c857600080fd5b506103fa60075481565b3480156108de57600080fd5b5061047a6108ed366004612d89565b6001600160a01b031660009081526011602052604090205460ff1690565b34801561091757600080fd5b50610448610926366004612ec6565b611f29565b34801561093757600080fd5b506003546103c7906001600160a01b031681565b34801561095757600080fd5b50610448610966366004612d54565b61205b565b34801561097757600080fd5b50610448610986366004612ee8565b61209a565b34801561099757600080fd5b506103fa60095481565b6104486109af366004612d54565b61226e565b3480156109c057600080fd5b506103c76109cf366004612d54565b6125e2565b3480156109e057600080fd5b506103fa6109ef366004612d54565b60016020526000908152604090205481565b348015610a0d57600080fd5b506103fa600d5481565b348015610a2357600080fd5b50610448610a32366004612fd5565b6125f2565b348015610a4357600080fd5b50610448610a52366004612d89565b6126ec565b348015610a6357600080fd5b506103fa61278c565b348015610a7857600080fd5b506106b36127e3565b348015610a8d57600080fd5b506103fa610a9c366004612d89565b6001600160a01b031660009081526010602052604090205490565b348015610ac357600080fd5b50610448610ad2366004612d89565b612843565b348015610ae357600080fd5b50610448610af2366004612d89565b61289f565b348015610b0357600080fd5b506005546103c7906001600160a01b031681565b348015610b2357600080fd5b506104486128dd565b348015610b3857600080fd5b506103fa610b47366004612d89565b60106020526000908152604090205481565b60138181548110610b6957600080fd5b6000918252602090912001546001600160a01b0316905081565b6004546001600160a01b0316610b9761298b565b6001600160a01b03161480610bc657506002546001600160a01b0316610bbb61298b565b6001600160a01b0316145b80610bf6575060126000610bd861298b565b6001600160a01b0316815260208101919091526040016000205460ff165b610c1b5760405162461bcd60e51b8152600401610c1290613076565b60405180910390fd5b601855565b6004546001600160a01b0316610c3461298b565b6001600160a01b031614610c5a5760405162461bcd60e51b8152600401610c12906130ba565b610c646002611ae1565b565b6004546001600160a01b0316610c7a61298b565b6001600160a01b031614610ca05760405162461bcd60e51b8152600401610c12906130ba565b6000600254600160a81b900460ff166004811115610cc057610cc0612e88565b1480610ce8575060028054600160a81b900460ff166004811115610ce657610ce6612e88565b145b610d345760405162461bcd60e51b815260206004820152601a60248201527f4c6f747465727920697320696e206163746976652073746174650000000000006044820152606401610c12565b610d3e6001611ae1565b610c6461299a565b6004546001600160a01b0316610d5a61298b565b6001600160a01b031614610d805760405162461bcd60e51b8152600401610c12906130ba565b60005b601454811015610fdf5760006010600060148481548110610da657610da66130fc565b60009182526020808320909101546001600160a01b031683528201929092526040018120546014805491935060109183919086908110610de857610de86130fc565b6000918252602080832091909101546001600160a01b039081168452908301939093526040918201902092909255601654915163a9059cbb60e01b815285821660048201526024810184905291169063a9059cbb906044016020604051808303816000875af1158015610e5f573d6000803e3d6000fd5b505050506040513d601f19601f82011682018060405250810190610e839190613112565b50826001600160a01b03166350f3dbec60148481548110610ea657610ea66130fc565b60009182526020909120015460405160e083901b6001600160e01b03191681526001600160a01b03909116600482015260248101849052604401600060405180830381600087803b158015610efa57600080fd5b505af1158015610f0e573d6000803e3d6000fd5b5050601454610f21925060019150613145565b821015610fa35760148054610f3890600190613145565b81548110610f4857610f486130fc565b600091825260209091200154601480546001600160a01b039092169184908110610f7457610f746130fc565b9060005260206000200160006101000a8154816001600160a01b0302191690836001600160a01b031602179055505b6014805480610fb457610fb461315e565b600082815260209020810160001990810180546001600160a01b031916905501905550600101610d83565b5050565b6004546001600160a01b0316610ff761298b565b6001600160a01b03161461101d5760405162461bcd60e51b8152600401610c12906130ba565b60085460000361102d5760088190555b600755565b6004546001600160a01b031661104661298b565b6001600160a01b03161461106c5760405162461bcd60e51b8152600401610c12906130ba565b6000600c54116110be5760405162461bcd60e51b815260206004820152601b60248201527f4e6f207469636b657473206c65667420746f20616c6c6f6361746500000000006044820152606401610c12565b600e54600c54106111865760005b600e5481101561116f576000600e82815481106110eb576110eb6130fc565b6000918252602090912001546001600160a01b03169050611124816001600160a01b031660009081526011602052604090205460ff1690565b61116657611131816126ec565b6040516001600160a01b038216907f1d4c260f1824cd028e6c9e6e31c3a0b94f2513e7a641113ec759d382f9bdd5a190600090a25b506001016110cc565b5061117c600e6000612d22565b6000600c55611427565b60005b600e548110156112a157600e546000906111a4908390613145565b600d546111b1919061318a565b6111bb908361319e565b90506000600e82815481106111d2576111d26130fc565b600091825260209091200154600e80546001600160a01b0390921692509084908110611200576112006130fc565b600091825260209091200154600e80546001600160a01b03909216918490811061122c5761122c6130fc565b9060005260206000200160006101000a8154816001600160a01b0302191690836001600160a01b0316021790555080600e848154811061126e5761126e6130fc565b600091825260209091200180546001600160a01b0319166001600160a01b03929092169190911790555050600101611189565b5060005b600c54811015611348576000600e82815481106112c4576112c46130fc565b6000918252602090912001546001600160a01b031690506112fd816001600160a01b031660009081526011602052604090205460ff1690565b61133f5761130a816126ec565b6040516001600160a01b038216907f1d4c260f1824cd028e6c9e6e31c3a0b94f2513e7a641113ec759d382f9bdd5a190600090a25b506001016112a5565b50600c546000905b600e548110156113d757600e818154811061136d5761136d6130fc565b600091825260209091200154600e80546001600160a01b039092169184908110611399576113996130fc565b600091825260209091200180546001600160a01b0319166001600160a01b0392909216919091179055816113cc816131b1565b925050600101611350565b50805b600e5481101561141f57600e8054806113f5576113f561315e565b600082815260209020810160001990810180546001600160a01b03191690550190556001016113da565b50506000600c555b600c54600003610c64576040517f9c89a6ed7228533196a3f962acc80d61a9c53bdea6b910741bf754f5aaa7569e90600090a1565b600f600061146861298b565b6001600160a01b0316815260208101919091526040016000205460ff16156114c75760405162461bcd60e51b815260206004820152601260248201527113919508185b1c9958591e481b5a5b9d195960721b6044820152606401610c12565b60028054600160a81b900460ff1660048111156114e6576114e6612e88565b146115335760405162461bcd60e51b815260206004820152601860248201527f4c6f7474657279206973206e6f7420656e6465642079657400000000000000006044820152606401610c12565b61153e6108ed61298b565b6115835760405162461bcd60e51b815260206004820152601660248201527521b0b63632b91034b9903737ba1030903bb4b73732b960511b6044820152606401610c12565b6001600f600061159161298b565b6001600160a01b0390811682526020820192909252604001600020805460ff19169215159290921790915560155416636b8f60f66115cd61298b565b6040516001600160e01b031960e084901b1681526001600160a01b039091166004820152602401600060405180830381600087803b15801561160e57600080fd5b505af1158015611622573d6000803e3d6000fd5b50505050565b6004546001600160a01b031661163c61298b565b6001600160a01b0316146116625760405162461bcd60e51b8152600401610c12906130ba565b601780546001600160a01b0319166001600160a01b0392909216919091179055565b61168c612a99565b601580546001600160a01b0319166001600160a01b0392909216919091179055565b6116b661298b565b6017546001600160a01b039081169116146117235760405162461bcd60e51b815260206004820152602760248201527f4f6e6c792077686974656c6973746564206d61792063616c6c207468697320666044820152663ab731ba34b7b760c91b6064820152608401610c12565b6010600061172f61298b565b6001600160a01b03166001600160a01b03168152602001908152602001600020546000036117a357601480546001810182556000919091527fce6d7b5282bd9a3661ae061feed1dbda4e52ab073b1f9285be6e155d9c38d4ec0180546001600160a01b0319166001600160a01b0384161790555b6001600160a01b038216600090815260106020526040812080548392906117cb90849061319e565b925050819055506001600960008282546117e5919061319e565b90915550505050565b6117f6612a99565b6001600160a01b03919091166000908152601260205260409020805460ff1916911515919091179055565b6060601480548060200260200160405190810160405280929190818152602001828054801561187957602002820191906000526020600020905b81546001600160a01b0316815260019091019060200180831161185b575b5050505050905090565b61188b612a99565b600380546001600160a01b0319166001600160a01b0392909216919091179055565b6004546001600160a01b03166118c161298b565b6001600160a01b0316146118e75760405162461bcd60e51b8152600401610c12906130ba565b60028054600160a81b900460ff16600481111561190657611906612e88565b146119475760405162461bcd60e51b8152602060048201526011602482015270131bdd1d195c9e481b9bdd08195b991959607a1b6044820152606401610c12565b6000805b6013548110156119c05760006013828154811061196a5761196a6130fc565b60009182526020808320909101546001600160a01b0316808352601090915260409091205490915061199c908461319e565b6001600160a01b03909116600090815260106020526040812055915060010161194b565b50600060646119d08360056131ca565b6119da91906131e1565b905060006119e88284613145565b60165460035460405163a9059cbb60e01b81526001600160a01b03918216600482015260248101869052929350169063a9059cbb906044016020604051808303816000875af1158015611a3f573d6000803e3d6000fd5b505050506040513d601f19601f82011682018060405250810190611a639190613112565b506016546004805460405163a9059cbb60e01b81526001600160a01b0391821692810192909252602482018490529091169063a9059cbb906044016020604051808303816000875af1158015611abd573d6000803e3d6000fd5b505050506040513d601f19601f820116820180604052508101906116229190613112565b6004546001600160a01b0316611af561298b565b6001600160a01b031614611b1b5760405162461bcd60e51b8152600401610c12906130ba565b6002805482919060ff60a81b1916600160a81b836004811115611b4057611b40612e88565b021790555050565b611b50612a99565b610c646000612af7565b60008181548110611b6a57600080fd5b9060005260206000209060209182820401919006915054906101000a900460ff1681565b6001600254600160a81b900460ff166004811115611bae57611bae612e88565b03611bfb5760405162461bcd60e51b815260206004820152601b60248201527f4c6f74746572792069732063757272656e746c792061637469766500000000006044820152606401610c12565b60116000611c0761298b565b6001600160a01b0316815260208101919091526040016000205460ff1615611c715760405162461bcd60e51b815260206004820152601760248201527f57696e6e6572732063616e6e6f742077697468647261770000000000000000006044820152606401610c12565b600060106000611c7f61298b565b6001600160a01b03166001600160a01b0316815260200190815260200160002054905060008111611ce95760405162461bcd60e51b81526020600482015260146024820152734e6f2066756e647320746f20776974686472617760601b6044820152606401610c12565b600060106000611cf761298b565b6001600160a01b0390811682526020820192909252604001600020919091556016541663a9059cbb611d2761298b565b6040516001600160e01b031960e084901b1681526001600160a01b039091166004820152602481018490526044016020604051808303816000875af1158015611d74573d6000803e3d6000fd5b505050506040513d601f19601f82011682018060405250810190610fdf9190613112565b6000805b600e54811015611dee57826001600160a01b0316600e8281548110611dc357611dc36130fc565b6000918252602090912001546001600160a01b031603611de65750600192915050565b600101611d9c565b50600092915050565b611dff612a99565b601680546001600160a01b0319166001600160a01b0392909216919091179055565b6004546001600160a01b0316611e3561298b565b6001600160a01b031614611e5b5760405162461bcd60e51b8152600401610c12906130ba565b60008111611ebf5760405162461bcd60e51b815260206004820152602b60248201527f4e756d626572206f66207469636b657473206d7573742062652067726561746560448201526a72207468616e207a65726f60a81b6064820152608401610c12565b600c819055600a55565b6060600e805480602002602001604051908101604052809291908181526020018280548015611879576020028201919060005260206000209081546001600160a01b0316815260019091019060200180831161185b575050505050905090565b6004546001600160a01b0316611f3d61298b565b6001600160a01b03161480611f6c57506002546001600160a01b0316611f6161298b565b6001600160a01b0316145b80611f9c575060126000611f7e61298b565b6001600160a01b0316815260208101919091526040016000205460ff165b611fb85760405162461bcd60e51b8152600401610c1290613076565b6000600c5460095410611ff657600a54600954611fd591906131e1565b600b54611fe291906131ca565b600754611fef919061319e565b905061203c565b600a5460095461200691906131e1565b612011906001613145565b600b5461201e91906131ca565b60075461202b9190613145565b905060085481101561203c57506008545b600781905561204a83610b83565b506000600955600c819055600a5550565b6004546001600160a01b031661206f61298b565b6001600160a01b0316146120955760405162461bcd60e51b8152600401610c12906130ba565b600b55565b6005546001600160a01b031633146120e45760405162461bcd60e51b815260206004820152600d60248201526c37b7363c9037b832b930ba37b960991b6044820152606401610c12565b60006120f28284018461321d565b9150506000808280602001905181019061210c91906132cb565b915091506000858560405161212292919061334e565b6040805191829003909120600085815260016020529182205482549193508314919085908110612154576121546130fc565b90600052602060002090602091828204019190069054906101000a900460ff166121c05760405162461bcd60e51b815260206004820152601c60248201527f726571756573742066756c66696c6c6564206f72206d697373696e67000000006044820152606401610c12565b80156122645760408051602081018a905230918101919091524660608201526080810185905260a0016040516020818303038152906040528051906020012060001c975061220f888585612b49565b6000808581548110612223576122236130fc565b90600052602060002090602091828204019190066101000a81548160ff02191690831515021790555060016000858152602001908152602001600020600090555b5050505050505050565b6122796108ed61298b565b156122bf5760405162461bcd60e51b815260206004820152601660248201527515da5b9b995c9cc818d85b9b9bdd0819195c1bdcda5d60521b6044820152606401610c12565b426018541161231a5760405162461bcd60e51b815260206004820152602160248201527f4465706f7369747320617265206e6f7420706f737369626c6520616e796d6f726044820152606560f81b6064820152608401610c12565b6016546001600160a01b03166123725760405162461bcd60e51b815260206004820152601d60248201527f5553444320636f6e74726163742061646472657373206e6f74207365740000006044820152606401610c12565b600081116123b25760405162461bcd60e51b815260206004820152600d60248201526c139bc8199d5b991cc81cd95b9d609a1b6044820152606401610c12565b60165481906001600160a01b031663dd62ed3e6123cd61298b565b6040516001600160e01b031960e084901b1681526001600160a01b039091166004820152306024820152604401602060405180830381865afa158015612417573d6000803e3d6000fd5b505050506040513d601f19601f8201168201806040525081019061243b919061335e565b10156124825760405162461bcd60e51b8152602060048201526016602482015275496e73756666696369656e7420616c6c6f77616e636560501b6044820152606401610c12565b6016546001600160a01b03166323b872dd61249b61298b565b6040516001600160e01b031960e084901b1681526001600160a01b039091166004820152306024820152604481018490526064016020604051808303816000875af11580156124ee573d6000803e3d6000fd5b505050506040513d601f19601f820116820180604052508101906125129190613112565b506010600061251f61298b565b6001600160a01b03166001600160a01b031681526020019081526020016000205460000361258457601461255161298b565b81546001810183556000928352602090922090910180546001600160a01b0319166001600160a01b039092169190911790555b806010600061259161298b565b6001600160a01b03166001600160a01b0316815260200190815260200160002060008282546125c0919061319e565b925050819055506001600960008282546125da919061319e565b909155505050565b600e8181548110610b6957600080fd5b600254600160a01b900460ff16156126425760405162461bcd60e51b8152602060048201526013602482015272105b1c9958591e481a5b9a5d1a585b1a5e9959606a1b6044820152606401610c12565b6040810151600480546001600160a01b039283166001600160a01b031991821617909155602083015160058054919093169116179055606081015161268690612af7565b6080810151600c5560a081015160065560c081015160185560e0810151601680546001600160a01b03199081166001600160a01b03938416179091556101009092015160038054909316911617905560028054600160a01b60ff60a01b19909116179055565b6004546001600160a01b031661270061298b565b6001600160a01b0316146127265760405162461bcd60e51b8152600401610c12906130ba565b6001600160a01b03166000818152601160205260408120805460ff191660019081179091556013805491820181559091527f66de8ffda797e3de9c05e8fc57b3bf0ec28a930d40b0d285d93c06501cf6a0900180546001600160a01b0319169091179055565b6000424461279861298b565b6040805160208101949094528301919091526bffffffffffffffffffffffff19606091821b16908201526074016040516020818303038152906040528051906020012060001c905090565b60606013805480602002602001604051908101604052809291908181526020018280548015611879576020028201919060005260206000209081546001600160a01b0316815260019091019060200180831161185b575050505050905090565b6004546001600160a01b031661285761298b565b6001600160a01b03161461287d5760405162461bcd60e51b8152600401610c12906130ba565b600480546001600160a01b0319166001600160a01b0392909216919091179055565b6128a7612a99565b6001600160a01b0381166128d157604051631e4fbdf760e01b815260006004820152602401610c12565b6128da81612af7565b50565b6004546001600160a01b03166128f161298b565b6001600160a01b0316146129175760405162461bcd60e51b8152600401610c12906130ba565b61294b61292261298b565b604080516001600160a01b03909216602083015201604051602081830303815290604052612b86565b5061295461298b565b6001600160a01b03167fd802e7c7f1646e3318c03abed1e468bdf913f45331a68dc912a0d645eb646a4260405160405180910390a2565b6000612995612c87565b905090565b6129a6600e6000612d22565b60005b6014548110156128da57600060106000601484815481106129cc576129cc6130fc565b60009182526020808320909101546001600160a01b031683528201929092526040019020546007549091508110612a9057612a3b60148381548110612a1357612a136130fc565b60009182526020808320909101546001600160a01b0316825260119052604090205460ff1690565b612a9057600e60148381548110612a5457612a546130fc565b60009182526020808320909101548354600181018555938352912090910180546001600160a01b0319166001600160a01b039092169190911790555b506001016129a9565b612aa161298b565b6001600160a01b0316612abc6002546001600160a01b031690565b6001600160a01b031614610c6457612ad261298b565b60405163118cdaa760e01b81526001600160a01b039091166004820152602401610c12565b600280546001600160a01b038381166001600160a01b0319831681179093556040519116919082907f8be0079c531659141344cd1fd0a4f28419497f9722a3daafe3b4186f6b6457e090600090a35050565b600d8390556040518381527fa2353d33775668d31add0688b8ed09ca3a91dc8129126fcdbcbda3a887db60db9060200160405180910390a1505050565b6000805460018082018084558380529192909183908110612ba957612ba96130fc565b90600052602060002090602091828204019190066101000a81548160ff02191690831515021790555060008183604051602001612be7929190613377565b60405160208183030381529060405290506000612c02612ccb565b905060008183604051602001612c19929190613377565b60408051601f198184030181528282528051602080830191909120600089815260019092529290208290559250907fd91fc3685b930310b008ec37d2334870cab88a023ed8cc628a2e2ccd4e55d20290612c769085908790613377565b60405180910390a150505050919050565b60007f00000000000000000000000000000000000000000000000000000000000000006001600160a01b03163303612cc6575060131936013560601c90565b503390565b600080612cdc6364e6212742613145565b90506000612ceb6003836131e1565b612cf690600161319e565b905046600114612d1057612d0b81600161319e565b612d1b565b612d1b81600461319e565b9250505090565b50805460008255906000526020600020908101906128da91905b80821115612d505760008155600101612d3c565b5090565b600060208284031215612d6657600080fd5b5035919050565b80356001600160a01b0381168114612d8457600080fd5b919050565b600060208284031215612d9b57600080fd5b612da482612d6d565b9392505050565b60008060408385031215612dbe57600080fd5b612dc783612d6d565b946020939093013593505050565b80151581146128da57600080fd5b60008060408385031215612df657600080fd5b612dff83612d6d565b91506020830135612e0f81612dd5565b809150509250929050565b6020808252825182820181905260009190848201906040850190845b81811015612e5b5783516001600160a01b031683529284019291840191600101612e36565b50909695505050505050565b600060208284031215612e7957600080fd5b813560058110612da457600080fd5b634e487b7160e01b600052602160045260246000fd5b6020810160058310612ec057634e487b7160e01b600052602160045260246000fd5b91905290565b60008060408385031215612ed957600080fd5b50508035926020909101359150565b600080600060408486031215612efd57600080fd5b83359250602084013567ffffffffffffffff80821115612f1c57600080fd5b818601915086601f830112612f3057600080fd5b813581811115612f3f57600080fd5b876020828501011115612f5157600080fd5b6020830194508093505050509250925092565b634e487b7160e01b600052604160045260246000fd5b604051610120810167ffffffffffffffff81118282101715612f9e57612f9e612f64565b60405290565b604051601f8201601f1916810167ffffffffffffffff81118282101715612fcd57612fcd612f64565b604052919050565b60006101208284031215612fe857600080fd5b612ff0612f7a565b612ff983612d6d565b815261300760208401612d6d565b602082015261301860408401612d6d565b604082015261302960608401612d6d565b60608201526080830135608082015260a083013560a082015260c083013560c082015261305860e08401612d6d565b60e082015261010061306b818501612d6d565b908201529392505050565b60208082526024908201527f4f6e6c79206f70657261746f722063616e2063616c6c20746869732066756e636040820152633a34b7b760e11b606082015260800190565b60208082526022908201527f4f6e6c792073656c6c65722063616e2063616c6c20746869732066756e63746960408201526137b760f11b606082015260800190565b634e487b7160e01b600052603260045260246000fd5b60006020828403121561312457600080fd5b8151612da481612dd5565b634e487b7160e01b600052601160045260246000fd5b818103818111156131585761315861312f565b92915050565b634e487b7160e01b600052603160045260246000fd5b634e487b7160e01b600052601260045260246000fd5b60008261319957613199613174565b500690565b808201808211156131585761315861312f565b6000600182016131c3576131c361312f565b5060010190565b80820281158282048414176131585761315861312f565b6000826131f0576131f0613174565b500490565b600067ffffffffffffffff82111561320f5761320f612f64565b50601f01601f191660200190565b6000806040838503121561323057600080fd5b82359150602083013567ffffffffffffffff81111561324e57600080fd5b8301601f8101851361325f57600080fd5b803561327261326d826131f5565b612fa4565b81815286602083850101111561328757600080fd5b816020840160208301376000602083830101528093505050509250929050565b60005b838110156132c25781810151838201526020016132aa565b50506000910152565b600080604083850312156132de57600080fd5b82519150602083015167ffffffffffffffff8111156132fc57600080fd5b8301601f8101851361330d57600080fd5b805161331b61326d826131f5565b81815286602083850101111561333057600080fd5b6133418260208301602086016132a7565b8093505050509250929050565b8183823760009101908152919050565b60006020828403121561337057600080fd5b5051919050565b828152604060208201526000825180604084015261339c8160608501602087016132a7565b601f01601f191691909101606001939250505056fea26469706673582212206d9dcb563ec138859f0ed18b61475d44de781ece64722950c537cf4c5fe43e3364736f6c63430008190033",
    "linkReferences": {}
  },
  "methodIdentifiers": {
    "buyerWithdraw()": "7cc947d0",
    "changeLotteryState(uint8)": "683e93e1",
    "currentPrice()": "9d1b464a",
    "deposit(uint256)": "b6b55f25",
    "deposits(address)": "fc7e286d",
    "eligibleParticipants(uint256)": "b7a62e24",
    "endLottery()": "1593a8c7",
    "finishAt()": "67d3b488",
    "fulfillRandomness(uint256,bytes)": "b3f6b99a",
    "getDepositedAmount(address)": "e9081ec7",
    "getEligibleParticipants()": "9abdccd1",
    "getParticipants()": "5aa68ac0",
    "getRandomNumber()": "dbdff2c1",
    "getWinners()": "df15c37e",
    "hasMinted(address)": "38e21cce",
    "increasePriceStep()": "96efac7b",
    "initialPrice()": "1d0806ae",
    "initialize((address,address,address,address,uint256,uint256,uint256,address,address))": "d30009bd",
    "initialized()": "158ef93e",
    "isParticipantEligible(address)": "8a6723e6",
    "isTrustedForwarder(address)": "572b6c05",
    "isWinner(address)": "9d9ca28d",
    "lotteryState()": "6939864b",
    "lotteryV2Addr()": "7de13382",
    "minimumDepositAmount()": "080c279a",
    "mintMyNFT()": "26170480",
    "multisigWalletAddress()": "a61fb2ba",
    "nftContractAddr()": "2c23ec8e",
    "numberOfTickets()": "45745c10",
    "operatorAddr()": "f3f18c37",
    "operators(address)": "13e7c9d8",
    "owner()": "8da5cb5b",
    "prevRoundDeposits()": "b680e44b",
    "prevRoundTicketsAmount()": "224f91bd",
    "randomNumber()": "ccbac9f5",
    "renounceOwnership()": "715018a6",
    "requestPending(uint256)": "75ce7fff",
    "requestRandomness()": "f8413b07",
    "requestedHash(uint256)": "c4f8f27b",
    "selectWinners()": "1a0de74c",
    "seller()": "08551a53",
    "sellerWithdraw()": "66af746b",
    "setCurrentPrice(uint256)": "18b20071",
    "setFinishAt(uint256)": "0bea6637",
    "setLotteryV2Addr(address)": "3639eb2e",
    "setMultisigWalletAddress(address)": "60d50da3",
    "setNftContractAddr(address)": "3644c27c",
    "setNumberOfTickets(uint256)": "99bd69d6",
    "setOperator(address,bool)": "558a7297",
    "setPriceStep(uint256)": "af94862c",
    "setSeller(address)": "e99d2866",
    "setUsdcContractAddr(address)": "94d898de",
    "setWinner(address)": "d9fca769",
    "setupNewRound(uint256,uint256)": "a4f03c02",
    "startLottery()": "160344e2",
    "transferDeposit(address,uint256)": "50f3dbec",
    "transferNonWinnerBids(address)": "1630a8df",
    "transferOwnership(address)": "f2fde38b",
    "usdcContractAddr()": "99dbf4b5",
    "winnerAddresses(uint256)": "045f9c97",
    "winners(address)": "6bd5450a"
  },
  "id": 5
}