{"abi":[{"type":"function","name":"buyerWithdraw","inputs":[],"outputs":[],"stateMutability":"nonpayable"},{"type":"function","name":"changeLotteryState","inputs":[{"name":"_newState","type":"uint8","internalType":"enum AuctionV1Base.LotteryState"}],"outputs":[],"stateMutability":"nonpayable"},{"type":"function","name":"currentPrice","inputs":[],"outputs":[{"name":"","type":"uint256","internalType":"uint256"}],"stateMutability":"view"},{"type":"function","name":"deposit","inputs":[{"name":"amount","type":"uint256","internalType":"uint256"}],"outputs":[],"stateMutability":"payable"},{"type":"function","name":"deposits","inputs":[{"name":"","type":"address","internalType":"address"}],"outputs":[{"name":"","type":"uint256","internalType":"uint256"}],"stateMutability":"view"},{"type":"function","name":"eligibleParticipants","inputs":[{"name":"","type":"uint256","internalType":"uint256"}],"outputs":[{"name":"","type":"address","internalType":"address"}],"stateMutability":"view"},{"type":"function","name":"endLottery","inputs":[],"outputs":[],"stateMutability":"nonpayable"},{"type":"function","name":"finishAt","inputs":[],"outputs":[{"name":"","type":"uint256","internalType":"uint256"}],"stateMutability":"view"},{"type":"function","name":"fulfillRandomness","inputs":[{"name":"randomness","type":"uint256","internalType":"uint256"},{"name":"dataWithRound","type":"bytes","internalType":"bytes"}],"outputs":[],"stateMutability":"nonpayable"},{"type":"function","name":"getDepositedAmount","inputs":[{"name":"participant","type":"address","internalType":"address"}],"outputs":[{"name":"","type":"uint256","internalType":"uint256"}],"stateMutability":"view"},{"type":"function","name":"getParticipants","inputs":[],"outputs":[{"name":"","type":"address[]","internalType":"address[]"}],"stateMutability":"view"},{"type":"function","name":"getRandomNumber","inputs":[],"outputs":[{"name":"","type":"uint256","internalType":"uint256"}],"stateMutability":"view"},{"type":"function","name":"getWinners","inputs":[],"outputs":[{"name":"","type":"address[]","internalType":"address[]"}],"stateMutability":"view"},{"type":"function","name":"hasMinted","inputs":[{"name":"","type":"address","internalType":"address"}],"outputs":[{"name":"","type":"bool","internalType":"bool"}],"stateMutability":"view"},{"type":"function","name":"increasePriceStep","inputs":[],"outputs":[{"name":"","type":"uint256","internalType":"uint256"}],"stateMutability":"view"},{"type":"function","name":"initialPrice","inputs":[],"outputs":[{"name":"","type":"uint256","internalType":"uint256"}],"stateMutability":"view"},{"type":"function","name":"initialize","inputs":[{"name":"config","type":"tuple","internalType":"struct StructsLibrary.ILotteryBaseConfig","components":[{"name":"_seller","type":"address","internalType":"address"},{"name":"_gelatoVrfOperator","type":"address","internalType":"address"},{"name":"_blessedOperator","type":"address","internalType":"address"},{"name":"_owner","type":"address","internalType":"address"},{"name":"_ticketAmount","type":"uint256","internalType":"uint256"},{"name":"_ticketPrice","type":"uint256","internalType":"uint256"},{"name":"_finishAt","type":"uint256","internalType":"uint256"},{"name":"_usdcContractAddr","type":"address","internalType":"address"},{"name":"_multisigWalletAddress","type":"address","internalType":"address"}]}],"outputs":[],"stateMutability":"nonpayable"},{"type":"function","name":"initialized","inputs":[],"outputs":[{"name":"","type":"bool","internalType":"bool"}],"stateMutability":"view"},{"type":"function","name":"isParticipantEligible","inputs":[{"name":"participant","type":"address","internalType":"address"}],"outputs":[{"name":"","type":"bool","internalType":"bool"}],"stateMutability":"view"},{"type":"function","name":"isTrustedForwarder","inputs":[{"name":"forwarder","type":"address","internalType":"address"}],"outputs":[{"name":"","type":"bool","internalType":"bool"}],"stateMutability":"view"},{"type":"function","name":"isWinner","inputs":[{"name":"_participant","type":"address","internalType":"address"}],"outputs":[{"name":"","type":"bool","internalType":"bool"}],"stateMutability":"view"},{"type":"function","name":"lotteryState","inputs":[],"outputs":[{"name":"","type":"uint8","internalType":"enum AuctionV1Base.LotteryState"}],"stateMutability":"view"},{"type":"function","name":"lotteryV2Addr","inputs":[],"outputs":[{"name":"","type":"address","internalType":"address"}],"stateMutability":"view"},{"type":"function","name":"minimumDepositAmount","inputs":[],"outputs":[{"name":"","type":"uint256","internalType":"uint256"}],"stateMutability":"view"},{"type":"function","name":"mintMyNFT","inputs":[],"outputs":[],"stateMutability":"nonpayable"},{"type":"function","name":"multisigWalletAddress","inputs":[],"outputs":[{"name":"","type":"address","internalType":"address"}],"stateMutability":"view"},{"type":"function","name":"nftContractAddr","inputs":[],"outputs":[{"name":"","type":"address","internalType":"address"}],"stateMutability":"view"},{"type":"function","name":"numberOfTickets","inputs":[],"outputs":[{"name":"","type":"uint256","internalType":"uint256"}],"stateMutability":"view"},{"type":"function","name":"operatorAddr","inputs":[],"outputs":[{"name":"","type":"address","internalType":"address"}],"stateMutability":"view"},{"type":"function","name":"operators","inputs":[{"name":"","type":"address","internalType":"address"}],"outputs":[{"name":"","type":"bool","internalType":"bool"}],"stateMutability":"view"},{"type":"function","name":"owner","inputs":[],"outputs":[{"name":"","type":"address","internalType":"address"}],"stateMutability":"view"},{"type":"function","name":"prevRoundDeposits","inputs":[],"outputs":[{"name":"","type":"uint256","internalType":"uint256"}],"stateMutability":"view"},{"type":"function","name":"prevRoundTicketsAmount","inputs":[],"outputs":[{"name":"","type":"uint256","internalType":"uint256"}],"stateMutability":"view"},{"type":"function","name":"randomNumber","inputs":[],"outputs":[{"name":"","type":"uint256","internalType":"uint256"}],"stateMutability":"view"},{"type":"function","name":"renounceOwnership","inputs":[],"outputs":[],"stateMutability":"nonpayable"},{"type":"function","name":"requestPending","inputs":[{"name":"","type":"uint256","internalType":"uint256"}],"outputs":[{"name":"","type":"bool","internalType":"bool"}],"stateMutability":"view"},{"type":"function","name":"requestRandomness","inputs":[],"outputs":[],"stateMutability":"nonpayable"},{"type":"function","name":"requestedHash","inputs":[{"name":"","type":"uint256","internalType":"uint256"}],"outputs":[{"name":"","type":"bytes32","internalType":"bytes32"}],"stateMutability":"view"},{"type":"function","name":"selectWinners","inputs":[],"outputs":[],"stateMutability":"nonpayable"},{"type":"function","name":"seller","inputs":[],"outputs":[{"name":"","type":"address","internalType":"address"}],"stateMutability":"view"},{"type":"function","name":"sellerWithdraw","inputs":[],"outputs":[],"stateMutability":"nonpayable"},{"type":"function","name":"setCurrentPrice","inputs":[{"name":"_amount","type":"uint256","internalType":"uint256"}],"outputs":[],"stateMutability":"nonpayable"},{"type":"function","name":"setFinishAt","inputs":[{"name":"_finishAt","type":"uint256","internalType":"uint256"}],"outputs":[],"stateMutability":"nonpayable"},{"type":"function","name":"setLotteryV2Addr","inputs":[{"name":"_lotteryV2Addr","type":"address","internalType":"address"}],"outputs":[],"stateMutability":"nonpayable"},{"type":"function","name":"setMultisigWalletAddress","inputs":[{"name":"_multisigWalletAddress","type":"address","internalType":"address"}],"outputs":[],"stateMutability":"nonpayable"},{"type":"function","name":"setNftContractAddr","inputs":[{"name":"_nftContractAddr","type":"address","internalType":"address"}],"outputs":[],"stateMutability":"nonpayable"},{"type":"function","name":"setNumberOfTickets","inputs":[{"name":"_numberOfTickets","type":"uint256","internalType":"uint256"}],"outputs":[],"stateMutability":"nonpayable"},{"type":"function","name":"setOperator","inputs":[{"name":"_operatorAddr","type":"address","internalType":"address"},{"name":"_flag","type":"bool","internalType":"bool"}],"outputs":[],"stateMutability":"nonpayable"},{"type":"function","name":"setPriceStep","inputs":[{"name":"_increasePriceStep","type":"uint256","internalType":"uint256"}],"outputs":[],"stateMutability":"nonpayable"},{"type":"function","name":"setSeller","inputs":[{"name":"_seller","type":"address","internalType":"address"}],"outputs":[],"stateMutability":"nonpayable"},{"type":"function","name":"setUsdcContractAddr","inputs":[{"name":"_usdcContractAddr","type":"address","internalType":"address"}],"outputs":[],"stateMutability":"nonpayable"},{"type":"function","name":"setWinner","inputs":[{"name":"_winner","type":"address","internalType":"address"}],"outputs":[],"stateMutability":"nonpayable"},{"type":"function","name":"setupNewRound","inputs":[{"name":"_finishAt","type":"uint256","internalType":"uint256"},{"name":"_numberOfTickets","type":"uint256","internalType":"uint256"}],"outputs":[],"stateMutability":"nonpayable"},{"type":"function","name":"startLottery","inputs":[],"outputs":[],"stateMutability":"nonpayable"},{"type":"function","name":"transferDeposit","inputs":[{"name":"_participant","type":"address","internalType":"address"},{"name":"_amount","type":"uint256","internalType":"uint256"}],"outputs":[],"stateMutability":"nonpayable"},{"type":"function","name":"transferNonWinnerBids","inputs":[{"name":"destinationAddr","type":"address","internalType":"address"}],"outputs":[],"stateMutability":"nonpayable"},{"type":"function","name":"transferOwnership","inputs":[{"name":"newOwner","type":"address","internalType":"address"}],"outputs":[],"stateMutability":"nonpayable"},{"type":"function","name":"usdcContractAddr","inputs":[],"outputs":[{"name":"","type":"address","internalType":"address"}],"stateMutability":"view"},{"type":"function","name":"winnerAddresses","inputs":[{"name":"","type":"uint256","internalType":"uint256"}],"outputs":[{"name":"","type":"address","internalType":"address"}],"stateMutability":"view"},{"type":"function","name":"winners","inputs":[{"name":"","type":"address","internalType":"address"}],"outputs":[{"name":"","type":"bool","internalType":"bool"}],"stateMutability":"view"},{"type":"event","name":"LotteryEnded","inputs":[],"anonymous":false},{"type":"event","name":"LotteryStarted","inputs":[],"anonymous":false},{"type":"event","name":"OwnershipTransferred","inputs":[{"name":"previousOwner","type":"address","indexed":true,"internalType":"address"},{"name":"newOwner","type":"address","indexed":true,"internalType":"address"}],"anonymous":false},{"type":"event","name":"RandomFullfiled","inputs":[{"name":"number","type":"uint256","indexed":false,"internalType":"uint256"}],"anonymous":false},{"type":"event","name":"RandomRequested","inputs":[{"name":"requester","type":"address","indexed":true,"internalType":"address"}],"anonymous":false},{"type":"event","name":"RequestedRandomness","inputs":[{"name":"round","type":"uint256","indexed":false,"internalType":"uint256"},{"name":"data","type":"bytes","indexed":false,"internalType":"bytes"}],"anonymous":false},{"type":"event","name":"WinnerSelected","inputs":[{"name":"winner","type":"address","indexed":true,"internalType":"address"}],"anonymous":false},{"type":"error","name":"OwnableInvalidOwner","inputs":[{"name":"owner","type":"address","internalType":"address"}]},{"type":"error","name":"OwnableUnauthorizedAccount","inputs":[{"name":"account","type":"address","internalType":"address"}]}],"bytecode":{"object":"0x60a06040526002805460ff60a01b1916905534801561001d57600080fd5b5073d8253782c45a12053594b9deb72d8e8ab2fca54c338061005957604051631e4fbdf760e01b81526000600482015260240160405180910390fd5b61006281610074565b506001600160a01b03166080526100c6565b600280546001600160a01b038381166001600160a01b0319831681179093556040519116919082907f8be0079c531659141344cd1fd0a4f28419497f9722a3daafe3b4186f6b6457e090600090a35050565b6080516133d76100e8600039600081816106630152612c7d01526133d76000f3fe6080604052600436106103975760003560e01c806375ce7fff116101dc578063b680e44b11610102578063dbdff2c1116100a0578063f2fde38b1161006f578063f2fde38b14610ab7578063f3f18c3714610ad7578063f8413b0714610af7578063fc7e286d14610b0c57600080fd5b8063dbdff2c114610a37578063df15c37e14610a4c578063e9081ec714610a61578063e99d286614610a9757600080fd5b8063c4f8f27b116100dc578063c4f8f27b146109b4578063ccbac9f5146109e1578063d30009bd146109f7578063d9fca76914610a1757600080fd5b8063b680e44b1461096b578063b6b55f2514610981578063b7a62e241461099457600080fd5b806399bd69d61161017a578063a4f03c0211610149578063a4f03c02146108eb578063a61fb2ba1461090b578063af94862c1461092b578063b3f6b99a1461094b57600080fd5b806399bd69d61461085c57806399dbf4b51461087c5780639d1b464a1461089c5780639d9ca28d146108b257600080fd5b80638a6723e6116101b65780638a6723e6146107e85780638da5cb5b1461080857806394d898de1461082657806396efac7b1461084657600080fd5b806375ce7fff146107935780637cc947d0146107b35780637de13382146107c857600080fd5b80633639eb2e116102c15780635aa68ac01161025f578063683e93e11161022e578063683e93e1146107005780636939864b146107205780636bd5450a1461074e578063715018a61461077e57600080fd5b80635aa68ac01461069357806360d50da3146106b557806366af746b146106d557806367d3b488146106ea57600080fd5b806345745c101161029b57806345745c10146105f057806350f3dbec14610606578063558a729714610626578063572b6c051461064657600080fd5b80633639eb2e146105805780633644c27c146105a057806338e21cce146105c057600080fd5b8063160344e2116103395780631d0806ae116103085780631d0806ae1461051f578063224f91bd14610535578063261704801461054b5780632c23ec8e1461056057600080fd5b8063160344e2146104b55780631630a8df146104ca57806318b20071146104ea5780631a0de74c1461050a57600080fd5b80630bea6637116103755780630bea66371461041d57806313e7c9d81461043f578063158ef93e1461047f5780631593a8c7146104a057600080fd5b8063045f9c971461039c578063080c279a146103d957806308551a53146103fd575b600080fd5b3480156103a857600080fd5b506103bc6103b7366004612d46565b610b39565b6040516001600160a01b0390911681526020015b60405180910390f35b3480156103e557600080fd5b506103ef60065481565b6040519081526020016103d0565b34801561040957600080fd5b506004546103bc906001600160a01b031681565b34801561042957600080fd5b5061043d610438366004612d46565b610b63565b005b34801561044b57600080fd5b5061046f61045a366004612d7b565b60126020526000908152604090205460ff1681565b60405190151581526020016103d0565b34801561048b57600080fd5b5060025461046f90600160a01b900460ff1681565b3480156104ac57600080fd5b5061043d610c00565b3480156104c157600080fd5b5061043d610c46565b3480156104d657600080fd5b5061043d6104e5366004612d7b565b610d26565b3480156104f657600080fd5b5061043d610505366004612d46565b610fc3565b34801561051657600080fd5b5061043d611012565b34801561052b57600080fd5b506103ef60085481565b34801561054157600080fd5b506103ef600a5481565b34801561055757600080fd5b5061043d6113a0565b34801561056c57600080fd5b506015546103bc906001600160a01b031681565b34801561058c57600080fd5b5061043d61059b366004612d7b565b61156c565b3480156105ac57600080fd5b5061043d6105bb366004612d7b565b6115c8565b3480156105cc57600080fd5b5061046f6105db366004612d7b565b600f6020526000908152604090205460ff1681565b3480156105fc57600080fd5b506103ef600c5481565b34801561061257600080fd5b5061043d610621366004612d9d565b6115f2565b34801561063257600080fd5b5061043d610641366004612dd5565b611732565b34801561065257600080fd5b5061046f610661366004612d7b565b7f00000000000000000000000000000000000000000000000000000000000000006001600160a01b0390811691161490565b34801561069f57600080fd5b506106a8611765565b6040516103d09190612e0c565b3480156106c157600080fd5b5061043d6106d0366004612d7b565b6117c7565b3480156106e157600080fd5b5061043d6117f1565b3480156106f657600080fd5b506103ef60185481565b34801561070c57600080fd5b5061043d61071b366004612e59565b611a25565b34801561072c57600080fd5b5060025461074190600160a81b900460ff1681565b6040516103d09190612e90565b34801561075a57600080fd5b5061046f610769366004612d7b565b60116020526000908152604090205460ff1681565b34801561078a57600080fd5b5061043d611a8c565b34801561079f57600080fd5b5061046f6107ae366004612d46565b611a9e565b3480156107bf57600080fd5b5061043d611ad2565b3480156107d457600080fd5b506017546103bc906001600160a01b031681565b3480156107f457600080fd5b5061046f610803366004612d7b565b611cdc565b34801561081457600080fd5b506002546001600160a01b03166103bc565b34801561083257600080fd5b5061043d610841366004612d7b565b611d3b565b34801561085257600080fd5b506103ef600b5481565b34801561086857600080fd5b5061043d610877366004612d46565b611d65565b34801561088857600080fd5b506016546103bc906001600160a01b031681565b3480156108a857600080fd5b506103ef60075481565b3480156108be57600080fd5b5061046f6108cd366004612d7b565b6001600160a01b031660009081526011602052604090205460ff1690565b3480156108f757600080fd5b5061043d610906366004612eb8565b611e0d565b34801561091757600080fd5b506003546103bc906001600160a01b031681565b34801561093757600080fd5b5061043d610946366004612d46565b611f3f565b34801561095757600080fd5b5061043d610966366004612eda565b611f7e565b34801561097757600080fd5b506103ef60095481565b61043d61098f366004612d46565b612152565b3480156109a057600080fd5b506103bc6109af366004612d46565b6124c6565b3480156109c057600080fd5b506103ef6109cf366004612d46565b60016020526000908152604090205481565b3480156109ed57600080fd5b506103ef600d5481565b348015610a0357600080fd5b5061043d610a12366004612fc7565b6124d6565b348015610a2357600080fd5b5061043d610a32366004612d7b565b6125d0565b348015610a4357600080fd5b506103ef612670565b348015610a5857600080fd5b506106a86126c7565b348015610a6d57600080fd5b506103ef610a7c366004612d7b565b6001600160a01b031660009081526010602052604090205490565b348015610aa357600080fd5b5061043d610ab2366004612d7b565b612727565b348015610ac357600080fd5b5061043d610ad2366004612d7b565b612783565b348015610ae357600080fd5b506005546103bc906001600160a01b031681565b348015610b0357600080fd5b5061043d6127c1565b348015610b1857600080fd5b506103ef610b27366004612d7b565b60106020526000908152604090205481565b60138181548110610b4957600080fd5b6000918252602090912001546001600160a01b0316905081565b6004546001600160a01b0316610b7761286f565b6001600160a01b03161480610ba657506002546001600160a01b0316610b9b61286f565b6001600160a01b0316145b80610bd6575060126000610bb861286f565b6001600160a01b0316815260208101919091526040016000205460ff165b610bfb5760405162461bcd60e51b8152600401610bf290613068565b60405180910390fd5b601855565b6004546001600160a01b0316610c1461286f565b6001600160a01b031614610c3a5760405162461bcd60e51b8152600401610bf2906130ac565b610c446002611a25565b565b6004546001600160a01b0316610c5a61286f565b6001600160a01b031614610c805760405162461bcd60e51b8152600401610bf2906130ac565b6000600254600160a81b900460ff166004811115610ca057610ca0612e7a565b1480610cc8575060028054600160a81b900460ff166004811115610cc657610cc6612e7a565b145b610d145760405162461bcd60e51b815260206004820152601a60248201527f4c6f747465727920697320696e206163746976652073746174650000000000006044820152606401610bf2565b610d1e6001611a25565b610c4461287e565b6004546001600160a01b0316610d3a61286f565b6001600160a01b031614610d605760405162461bcd60e51b8152600401610bf2906130ac565b60005b601454811015610fbf5760006010600060148481548110610d8657610d866130ee565b60009182526020808320909101546001600160a01b031683528201929092526040018120546014805491935060109183919086908110610dc857610dc86130ee565b6000918252602080832091909101546001600160a01b039081168452908301939093526040918201902092909255601654915163a9059cbb60e01b815285821660048201526024810184905291169063a9059cbb906044016020604051808303816000875af1158015610e3f573d6000803e3d6000fd5b505050506040513d601f19601f82011682018060405250810190610e639190613104565b50826001600160a01b03166350f3dbec60148481548110610e8657610e866130ee565b60009182526020909120015460405160e083901b6001600160e01b03191681526001600160a01b03909116600482015260248101849052604401600060405180830381600087803b158015610eda57600080fd5b505af1158015610eee573d6000803e3d6000fd5b5050601454610f01925060019150613137565b821015610f835760148054610f1890600190613137565b81548110610f2857610f286130ee565b600091825260209091200154601480546001600160a01b039092169184908110610f5457610f546130ee565b9060005260206000200160006101000a8154816001600160a01b0302191690836001600160a01b031602179055505b6014805480610f9457610f94613150565b600082815260209020810160001990810180546001600160a01b031916905501905550600101610d63565b5050565b6004546001600160a01b0316610fd761286f565b6001600160a01b031614610ffd5760405162461bcd60e51b8152600401610bf2906130ac565b60085460000361100d5760088190555b600755565b6004546001600160a01b031661102661286f565b6001600160a01b03161461104c5760405162461bcd60e51b8152600401610bf2906130ac565b6000600c541161109e5760405162461bcd60e51b815260206004820152601b60248201527f4e6f207469636b657473206c65667420746f20616c6c6f6361746500000000006044820152606401610bf2565b600e54600c54106111895760005b600e5481101561114f576000600e82815481106110cb576110cb6130ee565b6000918252602090912001546001600160a01b03169050611104816001600160a01b031660009081526011602052604090205460ff1690565b61114657611111816125d0565b6040516001600160a01b038216907f1d4c260f1824cd028e6c9e6e31c3a0b94f2513e7a641113ec759d382f9bdd5a190600090a25b506001016110ac565b5060005b600e54811015611183576111668161297d565b600c805490600061117683613166565b9091555050600101611153565b5061136b565b60005b600e548110156112a457600e546000906111a7908390613137565b600d546111b49190613193565b6111be90836131a7565b90506000600e82815481106111d5576111d56130ee565b600091825260209091200154600e80546001600160a01b0390921692509084908110611203576112036130ee565b600091825260209091200154600e80546001600160a01b03909216918490811061122f5761122f6130ee565b9060005260206000200160006101000a8154816001600160a01b0302191690836001600160a01b0316021790555080600e8481548110611271576112716130ee565b600091825260209091200180546001600160a01b0319166001600160a01b0392909216919091179055505060010161118c565b5060005b600c54811015611369576000600e82815481106112c7576112c76130ee565b6000918252602090912001546001600160a01b03169050611300816001600160a01b031660009081526011602052604090205460ff1690565b6113605761130d816125d0565b6113168261297d565b600c805490600061132683613166565b90915550506040516001600160a01b038216907f1d4c260f1824cd028e6c9e6e31c3a0b94f2513e7a641113ec759d382f9bdd5a190600090a25b506001016112a8565b505b600c54600003610c44576040517f9c89a6ed7228533196a3f962acc80d61a9c53bdea6b910741bf754f5aaa7569e90600090a1565b600f60006113ac61286f565b6001600160a01b0316815260208101919091526040016000205460ff161561140b5760405162461bcd60e51b815260206004820152601260248201527113919508185b1c9958591e481b5a5b9d195960721b6044820152606401610bf2565b60028054600160a81b900460ff16600481111561142a5761142a612e7a565b146114775760405162461bcd60e51b815260206004820152601860248201527f4c6f7474657279206973206e6f7420656e6465642079657400000000000000006044820152606401610bf2565b6114826108cd61286f565b6114c75760405162461bcd60e51b815260206004820152601660248201527521b0b63632b91034b9903737ba1030903bb4b73732b960511b6044820152606401610bf2565b6001600f60006114d561286f565b6001600160a01b0390811682526020820192909252604001600020805460ff19169215159290921790915560155416636b8f60f661151161286f565b6040516001600160e01b031960e084901b1681526001600160a01b039091166004820152602401600060405180830381600087803b15801561155257600080fd5b505af1158015611566573d6000803e3d6000fd5b50505050565b6004546001600160a01b031661158061286f565b6001600160a01b0316146115a65760405162461bcd60e51b8152600401610bf2906130ac565b601780546001600160a01b0319166001600160a01b0392909216919091179055565b6115d0612a8b565b601580546001600160a01b0319166001600160a01b0392909216919091179055565b6115fa61286f565b6017546001600160a01b039081169116146116675760405162461bcd60e51b815260206004820152602760248201527f4f6e6c792077686974656c6973746564206d61792063616c6c207468697320666044820152663ab731ba34b7b760c91b6064820152608401610bf2565b6010600061167361286f565b6001600160a01b03166001600160a01b03168152602001908152602001600020546000036116e757601480546001810182556000919091527fce6d7b5282bd9a3661ae061feed1dbda4e52ab073b1f9285be6e155d9c38d4ec0180546001600160a01b0319166001600160a01b0384161790555b6001600160a01b0382166000908152601060205260408120805483929061170f9084906131a7565b9250508190555060016009600082825461172991906131a7565b90915550505050565b61173a612a8b565b6001600160a01b03919091166000908152601260205260409020805460ff1916911515919091179055565b606060148054806020026020016040519081016040528092919081815260200182805480156117bd57602002820191906000526020600020905b81546001600160a01b0316815260019091019060200180831161179f575b5050505050905090565b6117cf612a8b565b600380546001600160a01b0319166001600160a01b0392909216919091179055565b6004546001600160a01b031661180561286f565b6001600160a01b03161461182b5760405162461bcd60e51b8152600401610bf2906130ac565b60028054600160a81b900460ff16600481111561184a5761184a612e7a565b1461188b5760405162461bcd60e51b8152602060048201526011602482015270131bdd1d195c9e481b9bdd08195b991959607a1b6044820152606401610bf2565b6000805b601354811015611904576000601382815481106118ae576118ae6130ee565b60009182526020808320909101546001600160a01b031680835260109091526040909120549091506118e090846131a7565b6001600160a01b03909116600090815260106020526040812055915060010161188f565b50600060646119148360056131ba565b61191e91906131d1565b9050600061192c8284613137565b60165460035460405163a9059cbb60e01b81526001600160a01b03918216600482015260248101869052929350169063a9059cbb906044016020604051808303816000875af1158015611983573d6000803e3d6000fd5b505050506040513d601f19601f820116820180604052508101906119a79190613104565b506016546004805460405163a9059cbb60e01b81526001600160a01b0391821692810192909252602482018490529091169063a9059cbb906044016020604051808303816000875af1158015611a01573d6000803e3d6000fd5b505050506040513d601f19601f820116820180604052508101906115669190613104565b6004546001600160a01b0316611a3961286f565b6001600160a01b031614611a5f5760405162461bcd60e51b8152600401610bf2906130ac565b6002805482919060ff60a81b1916600160a81b836004811115611a8457611a84612e7a565b021790555050565b611a94612a8b565b610c446000612ae9565b60008181548110611aae57600080fd5b9060005260206000209060209182820401919006915054906101000a900460ff1681565b6001600254600160a81b900460ff166004811115611af257611af2612e7a565b03611b3f5760405162461bcd60e51b815260206004820152601b60248201527f4c6f74746572792069732063757272656e746c792061637469766500000000006044820152606401610bf2565b60116000611b4b61286f565b6001600160a01b0316815260208101919091526040016000205460ff1615611bb55760405162461bcd60e51b815260206004820152601760248201527f57696e6e6572732063616e6e6f742077697468647261770000000000000000006044820152606401610bf2565b600060106000611bc361286f565b6001600160a01b03166001600160a01b0316815260200190815260200160002054905060008111611c2d5760405162461bcd60e51b81526020600482015260146024820152734e6f2066756e647320746f20776974686472617760601b6044820152606401610bf2565b600060106000611c3b61286f565b6001600160a01b0390811682526020820192909252604001600020919091556016541663a9059cbb611c6b61286f565b6040516001600160e01b031960e084901b1681526001600160a01b039091166004820152602481018490526044016020604051808303816000875af1158015611cb8573d6000803e3d6000fd5b505050506040513d601f19601f82011682018060405250810190610fbf9190613104565b6000805b600e54811015611d3257826001600160a01b0316600e8281548110611d0757611d076130ee565b6000918252602090912001546001600160a01b031603611d2a5750600192915050565b600101611ce0565b50600092915050565b611d43612a8b565b601680546001600160a01b0319166001600160a01b0392909216919091179055565b6004546001600160a01b0316611d7961286f565b6001600160a01b031614611d9f5760405162461bcd60e51b8152600401610bf2906130ac565b60008111611e035760405162461bcd60e51b815260206004820152602b60248201527f4e756d626572206f66207469636b657473206d7573742062652067726561746560448201526a72207468616e207a65726f60a81b6064820152608401610bf2565b600c819055600a55565b6004546001600160a01b0316611e2161286f565b6001600160a01b03161480611e5057506002546001600160a01b0316611e4561286f565b6001600160a01b0316145b80611e80575060126000611e6261286f565b6001600160a01b0316815260208101919091526040016000205460ff165b611e9c5760405162461bcd60e51b8152600401610bf290613068565b6000600c5460095410611eda57600a54600954611eb991906131d1565b600b54611ec691906131ba565b600754611ed391906131a7565b9050611f20565b600a54600954611eea91906131d1565b611ef5906001613137565b600b54611f0291906131ba565b600754611f0f9190613137565b9050600854811015611f2057506008545b6007819055611f2e83610b63565b506000600955600c819055600a5550565b6004546001600160a01b0316611f5361286f565b6001600160a01b031614611f795760405162461bcd60e51b8152600401610bf2906130ac565b600b55565b6005546001600160a01b03163314611fc85760405162461bcd60e51b815260206004820152600d60248201526c37b7363c9037b832b930ba37b960991b6044820152606401610bf2565b6000611fd68284018461320d565b91505060008082806020019051810190611ff091906132bb565b915091506000858560405161200692919061333e565b6040805191829003909120600085815260016020529182205482549193508314919085908110612038576120386130ee565b90600052602060002090602091828204019190069054906101000a900460ff166120a45760405162461bcd60e51b815260206004820152601c60248201527f726571756573742066756c66696c6c6564206f72206d697373696e67000000006044820152606401610bf2565b80156121485760408051602081018a905230918101919091524660608201526080810185905260a0016040516020818303038152906040528051906020012060001c97506120f3888585612b3b565b6000808581548110612107576121076130ee565b90600052602060002090602091828204019190066101000a81548160ff02191690831515021790555060016000858152602001908152602001600020600090555b5050505050505050565b61215d6108cd61286f565b156121a35760405162461bcd60e51b815260206004820152601660248201527515da5b9b995c9cc818d85b9b9bdd0819195c1bdcda5d60521b6044820152606401610bf2565b42601854116121fe5760405162461bcd60e51b815260206004820152602160248201527f4465706f7369747320617265206e6f7420706f737369626c6520616e796d6f726044820152606560f81b6064820152608401610bf2565b6016546001600160a01b03166122565760405162461bcd60e51b815260206004820152601d60248201527f5553444320636f6e74726163742061646472657373206e6f74207365740000006044820152606401610bf2565b600081116122965760405162461bcd60e51b815260206004820152600d60248201526c139bc8199d5b991cc81cd95b9d609a1b6044820152606401610bf2565b60165481906001600160a01b031663dd62ed3e6122b161286f565b6040516001600160e01b031960e084901b1681526001600160a01b039091166004820152306024820152604401602060405180830381865afa1580156122fb573d6000803e3d6000fd5b505050506040513d601f19601f8201168201806040525081019061231f919061334e565b10156123665760405162461bcd60e51b8152602060048201526016602482015275496e73756666696369656e7420616c6c6f77616e636560501b6044820152606401610bf2565b6016546001600160a01b03166323b872dd61237f61286f565b6040516001600160e01b031960e084901b1681526001600160a01b039091166004820152306024820152604481018490526064016020604051808303816000875af11580156123d2573d6000803e3d6000fd5b505050506040513d601f19601f820116820180604052508101906123f69190613104565b506010600061240361286f565b6001600160a01b03166001600160a01b031681526020019081526020016000205460000361246857601461243561286f565b81546001810183556000928352602090922090910180546001600160a01b0319166001600160a01b039092169190911790555b806010600061247561286f565b6001600160a01b03166001600160a01b0316815260200190815260200160002060008282546124a491906131a7565b925050819055506001600960008282546124be91906131a7565b909155505050565b600e8181548110610b4957600080fd5b600254600160a01b900460ff16156125265760405162461bcd60e51b8152602060048201526013602482015272105b1c9958591e481a5b9a5d1a585b1a5e9959606a1b6044820152606401610bf2565b6040810151600480546001600160a01b039283166001600160a01b031991821617909155602083015160058054919093169116179055606081015161256a90612ae9565b6080810151600c5560a081015160065560c081015160185560e0810151601680546001600160a01b03199081166001600160a01b03938416179091556101009092015160038054909316911617905560028054600160a01b60ff60a01b19909116179055565b6004546001600160a01b03166125e461286f565b6001600160a01b03161461260a5760405162461bcd60e51b8152600401610bf2906130ac565b6001600160a01b03166000818152601160205260408120805460ff191660019081179091556013805491820181559091527f66de8ffda797e3de9c05e8fc57b3bf0ec28a930d40b0d285d93c06501cf6a0900180546001600160a01b0319169091179055565b6000424461267c61286f565b6040805160208101949094528301919091526bffffffffffffffffffffffff19606091821b16908201526074016040516020818303038152906040528051906020012060001c905090565b606060138054806020026020016040519081016040528092919081815260200182805480156117bd576020028201919060005260206000209081546001600160a01b0316815260019091019060200180831161179f575050505050905090565b6004546001600160a01b031661273b61286f565b6001600160a01b0316146127615760405162461bcd60e51b8152600401610bf2906130ac565b600480546001600160a01b0319166001600160a01b0392909216919091179055565b61278b612a8b565b6001600160a01b0381166127b557604051631e4fbdf760e01b815260006004820152602401610bf2565b6127be81612ae9565b50565b6004546001600160a01b03166127d561286f565b6001600160a01b0316146127fb5760405162461bcd60e51b8152600401610bf2906130ac565b61282f61280661286f565b604080516001600160a01b03909216602083015201604051602081830303815290604052612b78565b5061283861286f565b6001600160a01b03167fd802e7c7f1646e3318c03abed1e468bdf913f45331a68dc912a0d645eb646a4260405160405180910390a2565b6000612879612c79565b905090565b61288a600e6000612d14565b60005b6014548110156127be57600060106000601484815481106128b0576128b06130ee565b60009182526020808320909101546001600160a01b0316835282019290925260400190205460075490915081106129745761291f601483815481106128f7576128f76130ee565b60009182526020808320909101546001600160a01b0316825260119052604090205460ff1690565b61297457600e60148381548110612938576129386130ee565b60009182526020808320909101548354600181018555938352912090910180546001600160a01b0319166001600160a01b039092169190911790555b5060010161288d565b600e5481106129c45760405162461bcd60e51b8152602060048201526013602482015272496e646578206f7574206f6620626f756e647360681b6044820152606401610bf2565b600e546129d390600190613137565b811015612a5557600e80546129ea90600190613137565b815481106129fa576129fa6130ee565b600091825260209091200154600e80546001600160a01b039092169183908110612a2657612a266130ee565b9060005260206000200160006101000a8154816001600160a01b0302191690836001600160a01b031602179055505b600e805480612a6657612a66613150565b600082815260209020810160001990810180546001600160a01b031916905501905550565b612a9361286f565b6001600160a01b0316612aae6002546001600160a01b031690565b6001600160a01b031614610c4457612ac461286f565b60405163118cdaa760e01b81526001600160a01b039091166004820152602401610bf2565b600280546001600160a01b038381166001600160a01b0319831681179093556040519116919082907f8be0079c531659141344cd1fd0a4f28419497f9722a3daafe3b4186f6b6457e090600090a35050565b600d8390556040518381527fa2353d33775668d31add0688b8ed09ca3a91dc8129126fcdbcbda3a887db60db9060200160405180910390a1505050565b6000805460018082018084558380529192909183908110612b9b57612b9b6130ee565b90600052602060002090602091828204019190066101000a81548160ff02191690831515021790555060008183604051602001612bd9929190613367565b60405160208183030381529060405290506000612bf4612cbd565b905060008183604051602001612c0b929190613367565b60408051601f198184030181528282528051602080830191909120600089815260019092529290208290559250907fd91fc3685b930310b008ec37d2334870cab88a023ed8cc628a2e2ccd4e55d20290612c689085908790613367565b60405180910390a150505050919050565b60007f00000000000000000000000000000000000000000000000000000000000000006001600160a01b03163303612cb8575060131936013560601c90565b503390565b600080612cce6364e6212742613137565b90506000612cdd6003836131d1565b612ce89060016131a7565b905046600114612d0257612cfd8160016131a7565b612d0d565b612d0d8160046131a7565b9250505090565b50805460008255906000526020600020908101906127be91905b80821115612d425760008155600101612d2e565b5090565b600060208284031215612d5857600080fd5b5035919050565b80356001600160a01b0381168114612d7657600080fd5b919050565b600060208284031215612d8d57600080fd5b612d9682612d5f565b9392505050565b60008060408385031215612db057600080fd5b612db983612d5f565b946020939093013593505050565b80151581146127be57600080fd5b60008060408385031215612de857600080fd5b612df183612d5f565b91506020830135612e0181612dc7565b809150509250929050565b6020808252825182820181905260009190848201906040850190845b81811015612e4d5783516001600160a01b031683529284019291840191600101612e28565b50909695505050505050565b600060208284031215612e6b57600080fd5b813560058110612d9657600080fd5b634e487b7160e01b600052602160045260246000fd5b6020810160058310612eb257634e487b7160e01b600052602160045260246000fd5b91905290565b60008060408385031215612ecb57600080fd5b50508035926020909101359150565b600080600060408486031215612eef57600080fd5b83359250602084013567ffffffffffffffff80821115612f0e57600080fd5b818601915086601f830112612f2257600080fd5b813581811115612f3157600080fd5b876020828501011115612f4357600080fd5b6020830194508093505050509250925092565b634e487b7160e01b600052604160045260246000fd5b604051610120810167ffffffffffffffff81118282101715612f9057612f90612f56565b60405290565b604051601f8201601f1916810167ffffffffffffffff81118282101715612fbf57612fbf612f56565b604052919050565b60006101208284031215612fda57600080fd5b612fe2612f6c565b612feb83612d5f565b8152612ff960208401612d5f565b602082015261300a60408401612d5f565b604082015261301b60608401612d5f565b60608201526080830135608082015260a083013560a082015260c083013560c082015261304a60e08401612d5f565b60e082015261010061305d818501612d5f565b908201529392505050565b60208082526024908201527f4f6e6c79206f70657261746f722063616e2063616c6c20746869732066756e636040820152633a34b7b760e11b606082015260800190565b60208082526022908201527f4f6e6c792073656c6c65722063616e2063616c6c20746869732066756e63746960408201526137b760f11b606082015260800190565b634e487b7160e01b600052603260045260246000fd5b60006020828403121561311657600080fd5b8151612d9681612dc7565b634e487b7160e01b600052601160045260246000fd5b8181038181111561314a5761314a613121565b92915050565b634e487b7160e01b600052603160045260246000fd5b60008161317557613175613121565b506000190190565b634e487b7160e01b600052601260045260246000fd5b6000826131a2576131a261317d565b500690565b8082018082111561314a5761314a613121565b808202811582820484141761314a5761314a613121565b6000826131e0576131e061317d565b500490565b600067ffffffffffffffff8211156131ff576131ff612f56565b50601f01601f191660200190565b6000806040838503121561322057600080fd5b82359150602083013567ffffffffffffffff81111561323e57600080fd5b8301601f8101851361324f57600080fd5b803561326261325d826131e5565b612f96565b81815286602083850101111561327757600080fd5b816020840160208301376000602083830101528093505050509250929050565b60005b838110156132b257818101518382015260200161329a565b50506000910152565b600080604083850312156132ce57600080fd5b82519150602083015167ffffffffffffffff8111156132ec57600080fd5b8301601f810185136132fd57600080fd5b805161330b61325d826131e5565b81815286602083850101111561332057600080fd5b613331826020830160208601613297565b8093505050509250929050565b8183823760009101908152919050565b60006020828403121561336057600080fd5b5051919050565b828152604060208201526000825180604084015261338c816060850160208701613297565b601f01601f191691909101606001939250505056fea2646970667358221220d293d330044ec09d449be0a3618169c261768224e4433327cff6fca98405e71a64736f6c63430008190033","linkReferences":{}},"methodIdentifiers":{"buyerWithdraw()":"7cc947d0","changeLotteryState(uint8)":"683e93e1","currentPrice()":"9d1b464a","deposit(uint256)":"b6b55f25","deposits(address)":"fc7e286d","eligibleParticipants(uint256)":"b7a62e24","endLottery()":"1593a8c7","finishAt()":"67d3b488","fulfillRandomness(uint256,bytes)":"b3f6b99a","getDepositedAmount(address)":"e9081ec7","getParticipants()":"5aa68ac0","getRandomNumber()":"dbdff2c1","getWinners()":"df15c37e","hasMinted(address)":"38e21cce","increasePriceStep()":"96efac7b","initialPrice()":"1d0806ae","initialize((address,address,address,address,uint256,uint256,uint256,address,address))":"d30009bd","initialized()":"158ef93e","isParticipantEligible(address)":"8a6723e6","isTrustedForwarder(address)":"572b6c05","isWinner(address)":"9d9ca28d","lotteryState()":"6939864b","lotteryV2Addr()":"7de13382","minimumDepositAmount()":"080c279a","mintMyNFT()":"26170480","multisigWalletAddress()":"a61fb2ba","nftContractAddr()":"2c23ec8e","numberOfTickets()":"45745c10","operatorAddr()":"f3f18c37","operators(address)":"13e7c9d8","owner()":"8da5cb5b","prevRoundDeposits()":"b680e44b","prevRoundTicketsAmount()":"224f91bd","randomNumber()":"ccbac9f5","renounceOwnership()":"715018a6","requestPending(uint256)":"75ce7fff","requestRandomness()":"f8413b07","requestedHash(uint256)":"c4f8f27b","selectWinners()":"1a0de74c","seller()":"08551a53","sellerWithdraw()":"66af746b","setCurrentPrice(uint256)":"18b20071","setFinishAt(uint256)":"0bea6637","setLotteryV2Addr(address)":"3639eb2e","setMultisigWalletAddress(address)":"60d50da3","setNftContractAddr(address)":"3644c27c","setNumberOfTickets(uint256)":"99bd69d6","setOperator(address,bool)":"558a7297","setPriceStep(uint256)":"af94862c","setSeller(address)":"e99d2866","setUsdcContractAddr(address)":"94d898de","setWinner(address)":"d9fca769","setupNewRound(uint256,uint256)":"a4f03c02","startLottery()":"160344e2","transferDeposit(address,uint256)":"50f3dbec","transferNonWinnerBids(address)":"1630a8df","transferOwnership(address)":"f2fde38b","usdcContractAddr()":"99dbf4b5","winnerAddresses(uint256)":"045f9c97","winners(address)":"6bd5450a"},"id":37}