{"abi":[{"type":"function","name":"Deposits","inputs":[{"name":"","type":"address","internalType":"address"}],"outputs":[{"name":"amount","type":"uint256","internalType":"uint256"},{"name":"timestamp","type":"uint256","internalType":"uint256"},{"name":"isWinner","type":"bool","internalType":"bool"}],"stateMutability":"view"},{"type":"function","name":"auctionV1Addr","inputs":[],"outputs":[{"name":"","type":"address","internalType":"address"}],"stateMutability":"view"},{"type":"function","name":"buyerWithdraw","inputs":[],"outputs":[],"stateMutability":"nonpayable"},{"type":"function","name":"changeLotteryState","inputs":[{"name":"_newState","type":"uint8","internalType":"enum SaleBase.LotteryState"}],"outputs":[],"stateMutability":"nonpayable"},{"type":"function","name":"deposit","inputs":[{"name":"amount","type":"uint256","internalType":"uint256"}],"outputs":[],"stateMutability":"nonpayable"},{"type":"function","name":"deposits","inputs":[{"name":"","type":"address","internalType":"address"}],"outputs":[{"name":"","type":"uint256","internalType":"uint256"}],"stateMutability":"view"},{"type":"function","name":"endLottery","inputs":[],"outputs":[],"stateMutability":"nonpayable"},{"type":"function","name":"getDepositedAmount","inputs":[{"name":"participant","type":"address","internalType":"address"}],"outputs":[{"name":"","type":"uint256","internalType":"uint256"}],"stateMutability":"view"},{"type":"function","name":"getParticipants","inputs":[],"outputs":[{"name":"","type":"address[]","internalType":"address[]"}],"stateMutability":"view"},{"type":"function","name":"getWinners","inputs":[],"outputs":[{"name":"","type":"address[]","internalType":"address[]"}],"stateMutability":"view"},{"type":"function","name":"hasMinted","inputs":[{"name":"","type":"address","internalType":"address"}],"outputs":[{"name":"","type":"bool","internalType":"bool"}],"stateMutability":"view"},{"type":"function","name":"initialPrice","inputs":[],"outputs":[{"name":"","type":"uint256","internalType":"uint256"}],"stateMutability":"view"},{"type":"function","name":"initialize","inputs":[{"name":"config","type":"tuple","internalType":"struct StructsLibrary.IAuctionV2BaseConfig","components":[{"name":"_seller","type":"address","internalType":"address"},{"name":"_owner","type":"address","internalType":"address"},{"name":"_ticketAmount","type":"uint256","internalType":"uint256"},{"name":"_ticketPrice","type":"uint256","internalType":"uint256"},{"name":"_usdcContractAddr","type":"address","internalType":"address"},{"name":"_nftContractAddr","type":"address","internalType":"address"},{"name":"_multisigWalletAddress","type":"address","internalType":"address"},{"name":"_prevPhaseContractAddr","type":"address","internalType":"address"}]}],"outputs":[],"stateMutability":"nonpayable"},{"type":"function","name":"initialized","inputs":[],"outputs":[{"name":"","type":"bool","internalType":"bool"}],"stateMutability":"view"},{"type":"function","name":"isParticipant","inputs":[{"name":"_participant","type":"address","internalType":"address"}],"outputs":[{"name":"","type":"bool","internalType":"bool"}],"stateMutability":"view"},{"type":"function","name":"isTrustedForwarder","inputs":[{"name":"forwarder","type":"address","internalType":"address"}],"outputs":[{"name":"","type":"bool","internalType":"bool"}],"stateMutability":"view"},{"type":"function","name":"isWinner","inputs":[{"name":"_participant","type":"address","internalType":"address"}],"outputs":[{"name":"","type":"bool","internalType":"bool"}],"stateMutability":"view"},{"type":"function","name":"lotteryState","inputs":[],"outputs":[{"name":"","type":"uint8","internalType":"enum SaleBase.LotteryState"}],"stateMutability":"view"},{"type":"function","name":"minimumDepositAmount","inputs":[],"outputs":[{"name":"","type":"uint256","internalType":"uint256"}],"stateMutability":"view"},{"type":"function","name":"mintMyNFT","inputs":[],"outputs":[],"stateMutability":"nonpayable"},{"type":"function","name":"multisigWalletAddress","inputs":[],"outputs":[{"name":"","type":"address","internalType":"address"}],"stateMutability":"view"},{"type":"function","name":"nftContractAddr","inputs":[],"outputs":[{"name":"","type":"address","internalType":"address"}],"stateMutability":"view"},{"type":"function","name":"numberOfTickets","inputs":[],"outputs":[{"name":"","type":"uint256","internalType":"uint256"}],"stateMutability":"view"},{"type":"function","name":"operators","inputs":[{"name":"","type":"address","internalType":"address"}],"outputs":[{"name":"","type":"bool","internalType":"bool"}],"stateMutability":"view"},{"type":"function","name":"owner","inputs":[],"outputs":[{"name":"","type":"address","internalType":"address"}],"stateMutability":"view"},{"type":"function","name":"renounceOwnership","inputs":[],"outputs":[],"stateMutability":"nonpayable"},{"type":"function","name":"selectWinners","inputs":[],"outputs":[],"stateMutability":"nonpayable"},{"type":"function","name":"seller","inputs":[],"outputs":[{"name":"","type":"address","internalType":"address"}],"stateMutability":"view"},{"type":"function","name":"sellerWithdraw","inputs":[],"outputs":[],"stateMutability":"nonpayable"},{"type":"function","name":"setInitPrice","inputs":[{"name":"_amount","type":"uint256","internalType":"uint256"}],"outputs":[],"stateMutability":"nonpayable"},{"type":"function","name":"setOperator","inputs":[{"name":"_operator","type":"address","internalType":"address"},{"name":"_flag","type":"bool","internalType":"bool"}],"outputs":[],"stateMutability":"nonpayable"},{"type":"function","name":"setSeller","inputs":[{"name":"_seller","type":"address","internalType":"address"}],"outputs":[],"stateMutability":"nonpayable"},{"type":"function","name":"sortDepositsDesc","inputs":[],"outputs":[],"stateMutability":"nonpayable"},{"type":"function","name":"startLottery","inputs":[],"outputs":[],"stateMutability":"nonpayable"},{"type":"function","name":"transferDeposit","inputs":[{"name":"_participant","type":"address","internalType":"address"},{"name":"_amount","type":"uint256","internalType":"uint256"}],"outputs":[],"stateMutability":"nonpayable"},{"type":"function","name":"transferOwnership","inputs":[{"name":"newOwner","type":"address","internalType":"address"}],"outputs":[],"stateMutability":"nonpayable"},{"type":"function","name":"usdcContractAddr","inputs":[],"outputs":[{"name":"","type":"address","internalType":"address"}],"stateMutability":"view"},{"type":"function","name":"winnerAddresses","inputs":[{"name":"","type":"uint256","internalType":"uint256"}],"outputs":[{"name":"","type":"address","internalType":"address"}],"stateMutability":"view"},{"type":"function","name":"winners","inputs":[{"name":"","type":"address","internalType":"address"}],"outputs":[{"name":"","type":"bool","internalType":"bool"}],"stateMutability":"view"},{"type":"event","name":"BuyerDeposited","inputs":[{"name":"buyer","type":"address","indexed":true,"internalType":"address"},{"name":"amount","type":"uint256","indexed":true,"internalType":"uint256"}],"anonymous":false},{"type":"event","name":"BuyerWithdrew","inputs":[{"name":"buyer","type":"address","indexed":true,"internalType":"address"},{"name":"amount","type":"uint256","indexed":true,"internalType":"uint256"}],"anonymous":false},{"type":"event","name":"LotteryEnded","inputs":[],"anonymous":false},{"type":"event","name":"LotteryStarted","inputs":[],"anonymous":false},{"type":"event","name":"OwnershipTransferred","inputs":[{"name":"previousOwner","type":"address","indexed":true,"internalType":"address"},{"name":"newOwner","type":"address","indexed":true,"internalType":"address"}],"anonymous":false},{"type":"event","name":"WinnerSelected","inputs":[{"name":"winner","type":"address","indexed":true,"internalType":"address"}],"anonymous":false},{"type":"error","name":"OwnableInvalidOwner","inputs":[{"name":"owner","type":"address","internalType":"address"}]},{"type":"error","name":"OwnableUnauthorizedAccount","inputs":[{"name":"account","type":"address","internalType":"address"}]}],"bytecode":{"object":"0x60a06040526000805460ff60a81b1916905534801561001d57600080fd5b5073d8253782c45a12053594b9deb72d8e8ab2fca54c338061005957604051631e4fbdf760e01b81526000600482015260240160405180910390fd5b61006281610074565b506001600160a01b03166080526100c4565b600080546001600160a01b038381166001600160a01b0319831681178455604051919092169283917f8be0079c531659141344cd1fd0a4f28419497f9722a3daafe3b4186f6b6457e09190a35050565b6080516122916100e6600039600081816103e50152611ec401526122916000f3fe608060405234801561001057600080fd5b506004361061023d5760003560e01c806366af746b1161013b5780639bbe5e78116100b8578063df15c37e1161007c578063df15c37e14610550578063e9081ec714610558578063e99d286614610581578063f2fde38b14610594578063fc7e286d146105a757600080fd5b80639bbe5e78146104d85780639d9ca28d146104eb578063a61fb2ba14610517578063b6b55f251461052a578063c6ec99ab1461053d57600080fd5b80637cc947d0116100ff5780637cc947d0146104915780638da5cb5b14610499578063929066f5146104aa57806399dbf4b5146104bd5780639abb8247146104d057600080fd5b806366af746b1461042a578063683e93e1146104325780636939864b146104455780636bd5450a14610466578063715018a61461048957600080fd5b80631d0806ae116101c957806345745c101161018d57806345745c10146103a657806350f3dbec146103af578063558a7297146103c2578063572b6c05146103d55780635aa68ac01461041557600080fd5b80631d0806ae1461031057806326170480146103195780632c23ec8e1461032157806338e21cce146103345780633ee2d7c21461035757600080fd5b806313e7c9d81161021057806313e7c9d8146102b1578063158ef93e146102e45780631593a8c7146102f8578063160344e2146103005780631a0de74c1461030857600080fd5b8063045f9c9714610242578063080c279a1461027257806308551a5314610289578063118bf0a11461029c575b600080fd5b610255610250366004611f04565b6105c7565b6040516001600160a01b0390911681526020015b60405180910390f35b61027b60025481565b604051908152602001610269565b600154610255906001600160a01b031681565b6102af6102aa366004611f39565b6105f1565b005b6102d46102bf366004611ffe565b600d6020526000908152604090205460ff1681565b6040519015158152602001610269565b6000546102d490600160a81b900460ff1681565b6102af6106ff565b6102af61076e565b6102af610849565b61027b600e5481565b6102af610af6565b600954610255906001600160a01b031681565b6102d4610342366004611ffe565b60046020526000908152604090205460ff1681565b610389610365366004611ffe565b600c6020526000908152604090208054600182015460029092015490919060ff1683565b604080519384526020840192909252151590820152606001610269565b61027b60035481565b6102af6103bd366004612020565b610db7565b6102af6103d0366004612058565b610f0b565b6102d46103e3366004611ffe565b7f00000000000000000000000000000000000000000000000000000000000000006001600160a01b0390811691161490565b61041d610f3e565b604051610269919061208f565b6102af610fa0565b6102af6104403660046120dc565b6111d7565b60005461045990600160a01b900460ff1681565b6040516102699190612113565b6102d4610474366004611ffe565b60066020526000908152604090205460ff1681565b6102af61123e565b6102af611252565b6000546001600160a01b0316610255565b6102d46104b8366004611ffe565b61148c565b600a54610255906001600160a01b031681565b6102af6114eb565b6102af6104e6366004611f04565b6117e9565b6102d46104f9366004611ffe565b6001600160a01b031660009081526006602052604090205460ff1690565b600b54610255906001600160a01b031681565b6102af610538366004611f04565b611832565b600f54610255906001600160a01b031681565b61041d611c34565b61027b610566366004611ffe565b6001600160a01b03166000908152600c602052604090205490565b6102af61058f366004611ffe565b611c94565b6102af6105a2366004611ffe565b611cf0565b61027b6105b5366004611ffe565b60056020526000908152604090205481565b600781815481106105d757600080fd5b6000918252602090912001546001600160a01b0316905081565b600054600160a81b900460ff16156106465760405162461bcd60e51b8152602060048201526013602482015272105b1c9958591e481a5b9a5d1a585b1a5e9959606a1b60448201526064015b60405180910390fd5b8051600180546001600160a01b0319166001600160a01b03909216919091179055602081015161067590611d27565b604081015160035560608101516002819055600e556080810151600a80546001600160a01b03199081166001600160a01b039384161790915560a083015160098054831691841691909117905560c0830151600b8054831691841691909117905560e090920151600f8054909316911617905560008054600160a81b60ff60a81b19909116179055565b6001546001600160a01b0316610713611d77565b6001600160a01b0316146107395760405162461bcd60e51b815260040161063d9061213b565b61074360026111d7565b6040517f9c89a6ed7228533196a3f962acc80d61a9c53bdea6b910741bf754f5aaa7569e90600090a1565b6001546001600160a01b0316610782611d77565b6001600160a01b0316146107a85760405162461bcd60e51b815260040161063d9061213b565b60008054600160a01b900460ff1660028111156107c7576107c76120fd565b146108145760405162461bcd60e51b815260206004820152601760248201527f53616c6520697320696e20616374697665207374617465000000000000000000604482015260640161063d565b61081e60016111d7565b6040517fd029c7c68d943f92286a7825fa6aa2deefa1eee46cee6c91b7e483fd06d27baf90600090a1565b6001546001600160a01b031661085d611d77565b6001600160a01b0316146108835760405162461bcd60e51b815260040161063d9061213b565b6000600354116108d55760405162461bcd60e51b815260206004820152601b60248201527f4e6f207469636b657473206c65667420746f20616c6c6f636174650000000000604482015260640161063d565b6008546003541061098c5760005b600854811015610986576000600882815481106109025761090261217d565b6000918252602090912001546001600160a01b0316905061093b816001600160a01b031660009081526006602052604090205460ff1690565b61097d5761094881611d86565b6040516001600160a01b038216907f1d4c260f1824cd028e6c9e6e31c3a0b94f2513e7a641113ec759d382f9bdd5a190600090a25b506001016108e3565b50610743565b6109946114eb565b6000600c6000600860016003546109ab91906121a9565b815481106109bb576109bb61217d565b60009182526020808320909101546001600160a01b0316835282019290925260400181205491505b600354811015610ac95781600c600060088481548110610a0557610a0561217d565b60009182526020808320909101546001600160a01b0316835282019290925260400190205410610ac157600060088281548110610a4457610a4461217d565b6000918252602090912001546001600160a01b03169050610a7d816001600160a01b031660009081526006602052604090205460ff1690565b610abf57610a8a81611d86565b6040516001600160a01b038216907f1d4c260f1824cd028e6c9e6e31c3a0b94f2513e7a641113ec759d382f9bdd5a190600090a25b505b6001016109e3565b50506040517f9c89a6ed7228533196a3f962acc80d61a9c53bdea6b910741bf754f5aaa7569e90600090a1565b60046000610b02611d77565b6001600160a01b0316815260208101919091526040016000205460ff1615610b615760405162461bcd60e51b815260206004820152601260248201527113919508185b1c9958591e481b5a5b9d195960721b604482015260640161063d565b600060035411610bb35760405162461bcd60e51b815260206004820152601b60248201527f4e6f207469636b657473206c65667420746f20616c6c6f636174650000000000604482015260640161063d565b610bbe6104f9611d77565b610c035760405162461bcd60e51b815260206004820152601660248201527521b0b63632b91034b9903737ba1030903bb4b73732b960511b604482015260640161063d565b600160046000610c11611d77565b6001600160a01b0316815260208101919091526040016000908120805460ff191692151592909217909155600254600c82610c4a611d77565b6001600160a01b03168152602081019190915260400160002054610c6e91906121a9565b90508015610d0257600a546001600160a01b031663a9059cbb610c8f611d77565b6040516001600160e01b031960e084901b1681526001600160a01b039091166004820152602481018490526044016020604051808303816000875af1158015610cdc573d6000803e3d6000fd5b505050506040513d601f19601f82011682018060405250810190610d0091906121c2565b505b6000600c6000610d10611d77565b6001600160a01b0316815260208101919091526040016000908120919091556003805491610d3d836121df565b90915550506009546001600160a01b0316636b8f60f6610d5b611d77565b6040516001600160e01b031960e084901b1681526001600160a01b039091166004820152602401600060405180830381600087803b158015610d9c57600080fd5b505af1158015610db0573d6000803e3d6000fd5b5050505050565b610dbf611d77565b600f546001600160a01b03908116911614610e2c5760405162461bcd60e51b815260206004820152602760248201527f4f6e6c792077686974656c6973746564206d61792063616c6c207468697320666044820152663ab731ba34b7b760c91b606482015260840161063d565b610e358261148c565b15610e6d576001600160a01b0382166000908152600c602052604081208054839290610e629084906121f6565b90915550610f079050565b6040805160608101825282815242602080830191825260008385018181526001600160a01b038816808352600c90935294812093518455915160018085019190915593516002909301805460ff19169315159390931790925560088054938401815590527ff3f7a9fe364faab93b216da50a3214154f22a0a2b415b23a84c8169e8b636ee390910180546001600160a01b03191690911790555b5050565b610f13611e62565b6001600160a01b03919091166000908152600d60205260409020805460ff1916911515919091179055565b60606008805480602002602001604051908101604052809291908181526020018280548015610f9657602002820191906000526020600020905b81546001600160a01b03168152600190910190602001808311610f78575b5050505050905090565b6001546001600160a01b0316610fb4611d77565b6001600160a01b031614610fda5760405162461bcd60e51b815260040161063d9061213b565b6002600054600160a01b900460ff166002811115610ffa57610ffa6120fd565b1461103b5760405162461bcd60e51b8152602060048201526011602482015270131bdd1d195c9e481b9bdd08195b991959607a1b604482015260640161063d565b6000805b6007548110156110b45760006007828154811061105e5761105e61217d565b60009182526020808320909101546001600160a01b0316808352600c90915260409091205490915061109090846121f6565b6001600160a01b039091166000908152600c6020526040812055915060010161103f565b50600060646110c4836005612209565b6110ce9190612220565b905060006110dc82846121a9565b600a54600b5460405163a9059cbb60e01b81526001600160a01b03918216600482015260248101869052929350169063a9059cbb906044016020604051808303816000875af1158015611133573d6000803e3d6000fd5b505050506040513d601f19601f8201168201806040525081019061115791906121c2565b50600a5460015460405163a9059cbb60e01b81526001600160a01b0391821660048201526024810184905291169063a9059cbb906044016020604051808303816000875af11580156111ad573d6000803e3d6000fd5b505050506040513d601f19601f820116820180604052508101906111d191906121c2565b50505050565b6001546001600160a01b03166111eb611d77565b6001600160a01b0316146112115760405162461bcd60e51b815260040161063d9061213b565b6000805482919060ff60a01b1916600160a01b836002811115611236576112366120fd565b021790555050565b611246611e62565b6112506000611d27565b565b6002600054600160a01b900460ff166002811115611272576112726120fd565b146112b75760405162461bcd60e51b815260206004820152601560248201527414d85b19481a5cc81b9bdd08195b991959081e595d605a1b604482015260640161063d565b600660006112c3611d77565b6001600160a01b0316815260208101919091526040016000205460ff161561132d5760405162461bcd60e51b815260206004820152601760248201527f57696e6e6572732063616e6e6f74207769746864726177000000000000000000604482015260640161063d565b6000600c600061133b611d77565b6001600160a01b0316815260208101919091526040016000205490508061139b5760405162461bcd60e51b81526020600482015260146024820152734e6f2066756e647320746f20776974686472617760601b604482015260640161063d565b6000600c60006113a9611d77565b6001600160a01b039081168252602082019290925260400160002091909155600a541663a9059cbb6113d9611d77565b6040516001600160e01b031960e084901b1681526001600160a01b039091166004820152602481018490526044016020604051808303816000875af1158015611426573d6000803e3d6000fd5b505050506040513d601f19601f8201168201806040525081019061144a91906121c2565b5080611454611d77565b6001600160a01b03167f1f280cd00e67ed50213ac03febd5be151f96b7f7db2f85312aa0feff99f8bdab60405160405180910390a350565b6000805b6008548110156114e257826001600160a01b0316600882815481106114b7576114b761217d565b6000918252602090912001546001600160a01b0316036114da5750600192915050565b600101611490565b50600092915050565b6001546001600160a01b03166114ff611d77565b6001600160a01b0316146115255760405162461bcd60e51b815260040161063d9061213b565b60005b6008548110156117e657600061153f8260016121f6565b90505b6008548110156117dd57600c6000600883815481106115635761156361217d565b60009182526020808320909101546001600160a01b03168352820192909252604001812054600880549192600c92909190869081106115a4576115a461217d565b60009182526020808320909101546001600160a01b0316835282019290925260400190205410806116ef5750600c6000600883815481106115e7576115e761217d565b60009182526020808320909101546001600160a01b03168352820192909252604001812054600880549192600c92909190869081106116285761162861217d565b60009182526020808320909101546001600160a01b031683528201929092526040019020541480156116ef5750600c60006008838154811061166c5761166c61217d565b9060005260206000200160009054906101000a90046001600160a01b03166001600160a01b03166001600160a01b0316815260200190815260200160002060010154600c6000600885815481106116c5576116c561217d565b60009182526020808320909101546001600160a01b03168352820192909252604001902060010154115b156117d5576000600883815481106117095761170961217d565b600091825260209091200154600880546001600160a01b03909216925090839081106117375761173761217d565b600091825260209091200154600880546001600160a01b0390921691859081106117635761176361217d565b9060005260206000200160006101000a8154816001600160a01b0302191690836001600160a01b0316021790555080600883815481106117a5576117a561217d565b9060005260206000200160006101000a8154816001600160a01b0302191690836001600160a01b03160217905550505b600101611542565b50600101611528565b50565b6001546001600160a01b03166117fd611d77565b6001600160a01b0316146118235760405162461bcd60e51b815260040161063d9061213b565b600e546000036117e657600e55565b6001600054600160a01b900460ff166002811115611852576118526120fd565b146118945760405162461bcd60e51b815260206004820152601260248201527153616c65206973206e6f742061637469766560701b604482015260640161063d565b61189f6104f9611d77565b156118e55760405162461bcd60e51b815260206004820152601660248201527515da5b9b995c9cc818d85b9b9bdd0819195c1bdcda5d60521b604482015260640161063d565b600a546001600160a01b031661193d5760405162461bcd60e51b815260206004820152601d60248201527f5553444320636f6e74726163742061646472657373206e6f7420736574000000604482015260640161063d565b600e5481101561198f5760405162461bcd60e51b815260206004820152601760248201527f496e73756666696369656e742066756e64732073656e74000000000000000000604482015260640161063d565b600a5481906001600160a01b031663dd62ed3e6119aa611d77565b6040516001600160e01b031960e084901b1681526001600160a01b039091166004820152306024820152604401602060405180830381865afa1580156119f4573d6000803e3d6000fd5b505050506040513d601f19601f82011682018060405250810190611a189190612242565b1015611a5f5760405162461bcd60e51b8152602060048201526016602482015275496e73756666696369656e7420616c6c6f77616e636560501b604482015260640161063d565b600a546001600160a01b03166323b872dd611a78611d77565b6040516001600160e01b031960e084901b1681526001600160a01b039091166004820152306024820152604481018490526064016020604051808303816000875af1158015611acb573d6000803e3d6000fd5b505050506040513d601f19601f82011682018060405250810190611aef91906121c2565b50611afb6104b8611d77565b15611b4a5780600c6000611b0d611d77565b6001600160a01b03166001600160a01b031681526020019081526020016000206000016000828254611b3f91906121f6565b90915550611bf39050565b604051806060016040528082815260200142815260200160001515815250600c6000611b74611d77565b6001600160a01b0316815260208082019290925260409081016000208351815591830151600183015591909101516002909101805460ff19169115159190911790556008611bc0611d77565b81546001810183556000928352602090922090910180546001600160a01b0319166001600160a01b039092169190911790555b80611bfc611d77565b6001600160a01b03167f21040858e63c11c046482f61f290bbe25972fc74b11b4570a01f9241082d21f160405160405180910390a350565b60606007805480602002602001604051908101604052809291908181526020018280548015610f96576020028201919060005260206000209081546001600160a01b03168152600190910190602001808311610f78575050505050905090565b6001546001600160a01b0316611ca8611d77565b6001600160a01b031614611cce5760405162461bcd60e51b815260040161063d9061213b565b600180546001600160a01b0319166001600160a01b0392909216919091179055565b611cf8611e62565b6001600160a01b038116611d2257604051631e4fbdf760e01b81526000600482015260240161063d565b6117e6815b600080546001600160a01b038381166001600160a01b0319831681178455604051919092169283917f8be0079c531659141344cd1fd0a4f28419497f9722a3daafe3b4186f6b6457e09190a35050565b6000611d81611ec0565b905090565b6001546001600160a01b0316611d9a611d77565b6001600160a01b031614611dc05760405162461bcd60e51b815260040161063d9061213b565b6001600160a01b03811660008181526006602090815260408083208054600160ff199182168117909255600780548084019091557fa66cc928b5edb82af9bd49922954155ab7b0942694bea4ce44661d9a8736c6880180546001600160a01b03191687179055600c909352818420600201805490931617909155517f1d4c260f1824cd028e6c9e6e31c3a0b94f2513e7a641113ec759d382f9bdd5a19190a250565b611e6a611d77565b6001600160a01b0316611e856000546001600160a01b031690565b6001600160a01b03161461125057611e9b611d77565b60405163118cdaa760e01b81526001600160a01b03909116600482015260240161063d565b60007f00000000000000000000000000000000000000000000000000000000000000006001600160a01b03163303611eff575060131936013560601c90565b503390565b600060208284031215611f1657600080fd5b5035919050565b80356001600160a01b0381168114611f3457600080fd5b919050565b6000610100808385031215611f4d57600080fd5b6040519081019067ffffffffffffffff82118183101715611f7e57634e487b7160e01b600052604160045260246000fd5b81604052611f8b84611f1d565b8152611f9960208501611f1d565b60208201526040840135604082015260608401356060820152611fbe60808501611f1d565b6080820152611fcf60a08501611f1d565b60a0820152611fe060c08501611f1d565b60c0820152611ff160e08501611f1d565b60e0820152949350505050565b60006020828403121561201057600080fd5b61201982611f1d565b9392505050565b6000806040838503121561203357600080fd5b61203c83611f1d565b946020939093013593505050565b80151581146117e657600080fd5b6000806040838503121561206b57600080fd5b61207483611f1d565b915060208301356120848161204a565b809150509250929050565b6020808252825182820181905260009190848201906040850190845b818110156120d05783516001600160a01b0316835292840192918401916001016120ab565b50909695505050505050565b6000602082840312156120ee57600080fd5b81356003811061201957600080fd5b634e487b7160e01b600052602160045260246000fd5b602081016003831061213557634e487b7160e01b600052602160045260246000fd5b91905290565b60208082526022908201527f4f6e6c792073656c6c65722063616e2063616c6c20746869732066756e63746960408201526137b760f11b606082015260800190565b634e487b7160e01b600052603260045260246000fd5b634e487b7160e01b600052601160045260246000fd5b818103818111156121bc576121bc612193565b92915050565b6000602082840312156121d457600080fd5b81516120198161204a565b6000816121ee576121ee612193565b506000190190565b808201808211156121bc576121bc612193565b80820281158282048414176121bc576121bc612193565b60008261223d57634e487b7160e01b600052601260045260246000fd5b500490565b60006020828403121561225457600080fd5b505191905056fea26469706673582212209caf18d6815ec0a9f2d82e8d0a2df7b1231d3f63d463a597e9d87ec0cf95184864736f6c63430008190033","linkReferences":{}},"methodIdentifiers":{"Deposits(address)":"3ee2d7c2","auctionV1Addr()":"c6ec99ab","buyerWithdraw()":"7cc947d0","changeLotteryState(uint8)":"683e93e1","deposit(uint256)":"b6b55f25","deposits(address)":"fc7e286d","endLottery()":"1593a8c7","getDepositedAmount(address)":"e9081ec7","getParticipants()":"5aa68ac0","getWinners()":"df15c37e","hasMinted(address)":"38e21cce","initialPrice()":"1d0806ae","initialize((address,address,uint256,uint256,address,address,address,address))":"118bf0a1","initialized()":"158ef93e","isParticipant(address)":"929066f5","isTrustedForwarder(address)":"572b6c05","isWinner(address)":"9d9ca28d","lotteryState()":"6939864b","minimumDepositAmount()":"080c279a","mintMyNFT()":"26170480","multisigWalletAddress()":"a61fb2ba","nftContractAddr()":"2c23ec8e","numberOfTickets()":"45745c10","operators(address)":"13e7c9d8","owner()":"8da5cb5b","renounceOwnership()":"715018a6","selectWinners()":"1a0de74c","seller()":"08551a53","sellerWithdraw()":"66af746b","setInitPrice(uint256)":"9bbe5e78","setOperator(address,bool)":"558a7297","setSeller(address)":"e99d2866","sortDepositsDesc()":"9abb8247","startLottery()":"160344e2","transferDeposit(address,uint256)":"50f3dbec","transferOwnership(address)":"f2fde38b","usdcContractAddr()":"99dbf4b5","winnerAddresses(uint256)":"045f9c97","winners(address)":"6bd5450a"},"id":51}