{
  "abi": [
    {
      "type": "function",
      "name": "buyerWithdraw",
      "inputs": [],
      "outputs": [],
      "stateMutability": "nonpayable"
    },
    {
      "type": "function",
      "name": "changeLotteryState",
      "inputs": [
        {
          "name": "_newState",
          "type": "uint8",
          "internalType": "enum AuctionV1Base.LotteryState"
        }
      ],
      "outputs": [],
      "stateMutability": "nonpayable"
    },
    {
      "type": "function",
      "name": "currentPrice",
      "inputs": [],
      "outputs": [
        {
          "name": "",
          "type": "uint256",
          "internalType": "uint256"
        }
      ],
      "stateMutability": "view"
    },
    {
      "type": "function",
      "name": "deposit",
      "inputs": [
        {
          "name": "amount",
          "type": "uint256",
          "internalType": "uint256"
        }
      ],
      "outputs": [],
      "stateMutability": "payable"
    },
    {
      "type": "function",
      "name": "deposits",
      "inputs": [
        {
          "name": "",
          "type": "address",
          "internalType": "address"
        }
      ],
      "outputs": [
        {
          "name": "",
          "type": "uint256",
          "internalType": "uint256"
        }
      ],
      "stateMutability": "view"
    },
    {
      "type": "function",
      "name": "eligibleParticipants",
      "inputs": [
        {
          "name": "",
          "type": "uint256",
          "internalType": "uint256"
        }
      ],
      "outputs": [
        {
          "name": "",
          "type": "address",
          "internalType": "address"
        }
      ],
      "stateMutability": "view"
    },
    {
      "type": "function",
      "name": "endLottery",
      "inputs": [],
      "outputs": [],
      "stateMutability": "nonpayable"
    },
    {
      "type": "function",
      "name": "finishAt",
      "inputs": [],
      "outputs": [
        {
          "name": "",
          "type": "uint256",
          "internalType": "uint256"
        }
      ],
      "stateMutability": "view"
    },
    {
      "type": "function",
      "name": "fulfillRandomness",
      "inputs": [
        {
          "name": "randomness",
          "type": "uint256",
          "internalType": "uint256"
        },
        {
          "name": "dataWithRound",
          "type": "bytes",
          "internalType": "bytes"
        }
      ],
      "outputs": [],
      "stateMutability": "nonpayable"
    },
    {
      "type": "function",
      "name": "getDepositedAmount",
      "inputs": [
        {
          "name": "participant",
          "type": "address",
          "internalType": "address"
        }
      ],
      "outputs": [
        {
          "name": "",
          "type": "uint256",
          "internalType": "uint256"
        }
      ],
      "stateMutability": "view"
    },
    {
      "type": "function",
      "name": "getEligibleParticipants",
      "inputs": [],
      "outputs": [
        {
          "name": "",
          "type": "address[]",
          "internalType": "address[]"
        }
      ],
      "stateMutability": "view"
    },
    {
      "type": "function",
      "name": "getParticipants",
      "inputs": [],
      "outputs": [
        {
          "name": "",
          "type": "address[]",
          "internalType": "address[]"
        }
      ],
      "stateMutability": "view"
    },
    {
      "type": "function",
      "name": "getRandomNumber",
      "inputs": [],
      "outputs": [
        {
          "name": "",
          "type": "uint256",
          "internalType": "uint256"
        }
      ],
      "stateMutability": "view"
    },
    {
      "type": "function",
      "name": "getWinners",
      "inputs": [],
      "outputs": [
        {
          "name": "",
          "type": "address[]",
          "internalType": "address[]"
        }
      ],
      "stateMutability": "view"
    },
    {
      "type": "function",
      "name": "hasMinted",
      "inputs": [
        {
          "name": "",
          "type": "address",
          "internalType": "address"
        }
      ],
      "outputs": [
        {
          "name": "",
          "type": "bool",
          "internalType": "bool"
        }
      ],
      "stateMutability": "view"
    },
    {
      "type": "function",
      "name": "increasePriceStep",
      "inputs": [],
      "outputs": [
        {
          "name": "",
          "type": "uint256",
          "internalType": "uint256"
        }
      ],
      "stateMutability": "view"
    },
    {
      "type": "function",
      "name": "initialPrice",
      "inputs": [],
      "outputs": [
        {
          "name": "",
          "type": "uint256",
          "internalType": "uint256"
        }
      ],
      "stateMutability": "view"
    },
    {
      "type": "function",
      "name": "initialize",
      "inputs": [
        {
          "name": "config",
          "type": "tuple",
          "internalType": "struct StructsLibrary.ILotteryBaseConfig",
          "components": [
            {
              "name": "_seller",
              "type": "address",
              "internalType": "address"
            },
            {
              "name": "_gelatoVrfOperator",
              "type": "address",
              "internalType": "address"
            },
            {
              "name": "_blessedOperator",
              "type": "address",
              "internalType": "address"
            },
            {
              "name": "_owner",
              "type": "address",
              "internalType": "address"
            },
            {
              "name": "_ticketAmount",
              "type": "uint256",
              "internalType": "uint256"
            },
            {
              "name": "_ticketPrice",
              "type": "uint256",
              "internalType": "uint256"
            },
            {
              "name": "_finishAt",
              "type": "uint256",
              "internalType": "uint256"
            },
            {
              "name": "_usdcContractAddr",
              "type": "address",
              "internalType": "address"
            },
            {
              "name": "_multisigWalletAddress",
              "type": "address",
              "internalType": "address"
            },
            {
              "name": "_prevPhaseContractAddr",
              "type": "address",
              "internalType": "address"
            }
          ]
        }
      ],
      "outputs": [],
      "stateMutability": "nonpayable"
    },
    {
      "type": "function",
      "name": "initialized",
      "inputs": [],
      "outputs": [
        {
          "name": "",
          "type": "bool",
          "internalType": "bool"
        }
      ],
      "stateMutability": "view"
    },
    {
      "type": "function",
      "name": "isParticipantEligible",
      "inputs": [
        {
          "name": "participant",
          "type": "address",
          "internalType": "address"
        }
      ],
      "outputs": [
        {
          "name": "",
          "type": "bool",
          "internalType": "bool"
        }
      ],
      "stateMutability": "view"
    },
    {
      "type": "function",
      "name": "isTrustedForwarder",
      "inputs": [
        {
          "name": "forwarder",
          "type": "address",
          "internalType": "address"
        }
      ],
      "outputs": [
        {
          "name": "",
          "type": "bool",
          "internalType": "bool"
        }
      ],
      "stateMutability": "view"
    },
    {
      "type": "function",
      "name": "isWinner",
      "inputs": [
        {
          "name": "_participant",
          "type": "address",
          "internalType": "address"
        }
      ],
      "outputs": [
        {
          "name": "",
          "type": "bool",
          "internalType": "bool"
        }
      ],
      "stateMutability": "view"
    },
    {
      "type": "function",
      "name": "lotteryState",
      "inputs": [],
      "outputs": [
        {
          "name": "",
          "type": "uint8",
          "internalType": "enum AuctionV1Base.LotteryState"
        }
      ],
      "stateMutability": "view"
    },
    {
      "type": "function",
      "name": "lotteryV2Addr",
      "inputs": [],
      "outputs": [
        {
          "name": "",
          "type": "address",
          "internalType": "address"
        }
      ],
      "stateMutability": "view"
    },
    {
      "type": "function",
      "name": "minimumDepositAmount",
      "inputs": [],
      "outputs": [
        {
          "name": "",
          "type": "uint256",
          "internalType": "uint256"
        }
      ],
      "stateMutability": "view"
    },
    {
      "type": "function",
      "name": "mintMyNFT",
      "inputs": [],
      "outputs": [],
      "stateMutability": "nonpayable"
    },
    {
      "type": "function",
      "name": "multisigWalletAddress",
      "inputs": [],
      "outputs": [
        {
          "name": "",
          "type": "address",
          "internalType": "address"
        }
      ],
      "stateMutability": "view"
    },
    {
      "type": "function",
      "name": "nftContractAddr",
      "inputs": [],
      "outputs": [
        {
          "name": "",
          "type": "address",
          "internalType": "address"
        }
      ],
      "stateMutability": "view"
    },
    {
      "type": "function",
      "name": "numberOfTickets",
      "inputs": [],
      "outputs": [
        {
          "name": "",
          "type": "uint256",
          "internalType": "uint256"
        }
      ],
      "stateMutability": "view"
    },
    {
      "type": "function",
      "name": "operatorAddr",
      "inputs": [],
      "outputs": [
        {
          "name": "",
          "type": "address",
          "internalType": "address"
        }
      ],
      "stateMutability": "view"
    },
    {
      "type": "function",
      "name": "operators",
      "inputs": [
        {
          "name": "",
          "type": "address",
          "internalType": "address"
        }
      ],
      "outputs": [
        {
          "name": "",
          "type": "bool",
          "internalType": "bool"
        }
      ],
      "stateMutability": "view"
    },
    {
      "type": "function",
      "name": "owner",
      "inputs": [],
      "outputs": [
        {
          "name": "",
          "type": "address",
          "internalType": "address"
        }
      ],
      "stateMutability": "view"
    },
    {
      "type": "function",
      "name": "prevRoundDeposits",
      "inputs": [],
      "outputs": [
        {
          "name": "",
          "type": "uint256",
          "internalType": "uint256"
        }
      ],
      "stateMutability": "view"
    },
    {
      "type": "function",
      "name": "prevRoundTicketsAmount",
      "inputs": [],
      "outputs": [
        {
          "name": "",
          "type": "uint256",
          "internalType": "uint256"
        }
      ],
      "stateMutability": "view"
    },
    {
      "type": "function",
      "name": "randomNumber",
      "inputs": [],
      "outputs": [
        {
          "name": "",
          "type": "uint256",
          "internalType": "uint256"
        }
      ],
      "stateMutability": "view"
    },
    {
      "type": "function",
      "name": "renounceOwnership",
      "inputs": [],
      "outputs": [],
      "stateMutability": "nonpayable"
    },
    {
      "type": "function",
      "name": "requestPending",
      "inputs": [
        {
          "name": "",
          "type": "uint256",
          "internalType": "uint256"
        }
      ],
      "outputs": [
        {
          "name": "",
          "type": "bool",
          "internalType": "bool"
        }
      ],
      "stateMutability": "view"
    },
    {
      "type": "function",
      "name": "requestRandomness",
      "inputs": [],
      "outputs": [],
      "stateMutability": "nonpayable"
    },
    {
      "type": "function",
      "name": "requestedHash",
      "inputs": [
        {
          "name": "",
          "type": "uint256",
          "internalType": "uint256"
        }
      ],
      "outputs": [
        {
          "name": "",
          "type": "bytes32",
          "internalType": "bytes32"
        }
      ],
      "stateMutability": "view"
    },
    {
      "type": "function",
      "name": "roundCounter",
      "inputs": [],
      "outputs": [
        {
          "name": "",
          "type": "uint256",
          "internalType": "uint256"
        }
      ],
      "stateMutability": "view"
    },
    {
      "type": "function",
      "name": "rounds",
      "inputs": [
        {
          "name": "",
          "type": "uint256",
          "internalType": "uint256"
        }
      ],
      "outputs": [
        {
          "name": "number",
          "type": "uint256",
          "internalType": "uint256"
        },
        {
          "name": "finishAt",
          "type": "uint256",
          "internalType": "uint256"
        },
        {
          "name": "numberOfTickets",
          "type": "uint256",
          "internalType": "uint256"
        },
        {
          "name": "lotteryStarted",
          "type": "bool",
          "internalType": "bool"
        },
        {
          "name": "winnersSelected",
          "type": "bool",
          "internalType": "bool"
        }
      ],
      "stateMutability": "view"
    },
    {
      "type": "function",
      "name": "selectWinners",
      "inputs": [],
      "outputs": [],
      "stateMutability": "nonpayable"
    },
    {
      "type": "function",
      "name": "seller",
      "inputs": [],
      "outputs": [
        {
          "name": "",
          "type": "address",
          "internalType": "address"
        }
      ],
      "stateMutability": "view"
    },
    {
      "type": "function",
      "name": "sellerWithdraw",
      "inputs": [],
      "outputs": [],
      "stateMutability": "nonpayable"
    },
    {
      "type": "function",
      "name": "setCurrentPrice",
      "inputs": [
        {
          "name": "_amount",
          "type": "uint256",
          "internalType": "uint256"
        }
      ],
      "outputs": [],
      "stateMutability": "nonpayable"
    },
    {
      "type": "function",
      "name": "setFinishAt",
      "inputs": [
        {
          "name": "_finishAt",
          "type": "uint256",
          "internalType": "uint256"
        }
      ],
      "outputs": [],
      "stateMutability": "nonpayable"
    },
    {
      "type": "function",
      "name": "setLotteryV2Addr",
      "inputs": [
        {
          "name": "_lotteryV2Addr",
          "type": "address",
          "internalType": "address"
        }
      ],
      "outputs": [],
      "stateMutability": "nonpayable"
    },
    {
      "type": "function",
      "name": "setMultisigWalletAddress",
      "inputs": [
        {
          "name": "_multisigWalletAddress",
          "type": "address",
          "internalType": "address"
        }
      ],
      "outputs": [],
      "stateMutability": "nonpayable"
    },
    {
      "type": "function",
      "name": "setNftContractAddr",
      "inputs": [
        {
          "name": "_nftContractAddr",
          "type": "address",
          "internalType": "address"
        }
      ],
      "outputs": [],
      "stateMutability": "nonpayable"
    },
    {
      "type": "function",
      "name": "setNumberOfTickets",
      "inputs": [
        {
          "name": "_numberOfTickets",
          "type": "uint256",
          "internalType": "uint256"
        }
      ],
      "outputs": [],
      "stateMutability": "nonpayable"
    },
    {
      "type": "function",
      "name": "setOperator",
      "inputs": [
        {
          "name": "_operatorAddr",
          "type": "address",
          "internalType": "address"
        },
        {
          "name": "_flag",
          "type": "bool",
          "internalType": "bool"
        }
      ],
      "outputs": [],
      "stateMutability": "nonpayable"
    },
    {
      "type": "function",
      "name": "setPriceStep",
      "inputs": [
        {
          "name": "_increasePriceStep",
          "type": "uint256",
          "internalType": "uint256"
        }
      ],
      "outputs": [],
      "stateMutability": "nonpayable"
    },
    {
      "type": "function",
      "name": "setSeller",
      "inputs": [
        {
          "name": "_seller",
          "type": "address",
          "internalType": "address"
        }
      ],
      "outputs": [],
      "stateMutability": "nonpayable"
    },
    {
      "type": "function",
      "name": "setUsdcContractAddr",
      "inputs": [
        {
          "name": "_usdcContractAddr",
          "type": "address",
          "internalType": "address"
        }
      ],
      "outputs": [],
      "stateMutability": "nonpayable"
    },
    {
      "type": "function",
      "name": "setWinner",
      "inputs": [
        {
          "name": "_winner",
          "type": "address",
          "internalType": "address"
        }
      ],
      "outputs": [],
      "stateMutability": "nonpayable"
    },
    {
      "type": "function",
      "name": "setupNewRound",
      "inputs": [
        {
          "name": "_finishAt",
          "type": "uint256",
          "internalType": "uint256"
        },
        {
          "name": "_numberOfTickets",
          "type": "uint256",
          "internalType": "uint256"
        }
      ],
      "outputs": [],
      "stateMutability": "nonpayable"
    },
    {
      "type": "function",
      "name": "startLottery",
      "inputs": [],
      "outputs": [],
      "stateMutability": "nonpayable"
    },
    {
      "type": "function",
      "name": "totalNumberOfTickets",
      "inputs": [],
      "outputs": [
        {
          "name": "",
          "type": "uint256",
          "internalType": "uint256"
        }
      ],
      "stateMutability": "view"
    },
    {
      "type": "function",
      "name": "transferDeposit",
      "inputs": [
        {
          "name": "_participant",
          "type": "address",
          "internalType": "address"
        },
        {
          "name": "_amount",
          "type": "uint256",
          "internalType": "uint256"
        }
      ],
      "outputs": [],
      "stateMutability": "nonpayable"
    },
    {
      "type": "function",
      "name": "transferNonWinnerBids",
      "inputs": [
        {
          "name": "destinationAddr",
          "type": "address",
          "internalType": "address"
        }
      ],
      "outputs": [],
      "stateMutability": "nonpayable"
    },
    {
      "type": "function",
      "name": "transferOwnership",
      "inputs": [
        {
          "name": "newOwner",
          "type": "address",
          "internalType": "address"
        }
      ],
      "outputs": [],
      "stateMutability": "nonpayable"
    },
    {
      "type": "function",
      "name": "usdcContractAddr",
      "inputs": [],
      "outputs": [
        {
          "name": "",
          "type": "address",
          "internalType": "address"
        }
      ],
      "stateMutability": "view"
    },
    {
      "type": "function",
      "name": "winnerAddresses",
      "inputs": [
        {
          "name": "",
          "type": "uint256",
          "internalType": "uint256"
        }
      ],
      "outputs": [
        {
          "name": "",
          "type": "address",
          "internalType": "address"
        }
      ],
      "stateMutability": "view"
    },
    {
      "type": "function",
      "name": "winners",
      "inputs": [
        {
          "name": "",
          "type": "address",
          "internalType": "address"
        }
      ],
      "outputs": [
        {
          "name": "",
          "type": "bool",
          "internalType": "bool"
        }
      ],
      "stateMutability": "view"
    },
    {
      "type": "event",
      "name": "LotteryEnded",
      "inputs": [],
      "anonymous": false
    },
    {
      "type": "event",
      "name": "LotteryStarted",
      "inputs": [],
      "anonymous": false
    },
    {
      "type": "event",
      "name": "OwnershipTransferred",
      "inputs": [
        {
          "name": "previousOwner",
          "type": "address",
          "indexed": true,
          "internalType": "address"
        },
        {
          "name": "newOwner",
          "type": "address",
          "indexed": true,
          "internalType": "address"
        }
      ],
      "anonymous": false
    },
    {
      "type": "event",
      "name": "RandomFullfiled",
      "inputs": [
        {
          "name": "number",
          "type": "uint256",
          "indexed": false,
          "internalType": "uint256"
        }
      ],
      "anonymous": false
    },
    {
      "type": "event",
      "name": "RandomRequested",
      "inputs": [
        {
          "name": "requester",
          "type": "address",
          "indexed": true,
          "internalType": "address"
        }
      ],
      "anonymous": false
    },
    {
      "type": "event",
      "name": "RequestedRandomness",
      "inputs": [
        {
          "name": "round",
          "type": "uint256",
          "indexed": false,
          "internalType": "uint256"
        },
        {
          "name": "data",
          "type": "bytes",
          "indexed": false,
          "internalType": "bytes"
        }
      ],
      "anonymous": false
    },
    {
      "type": "event",
      "name": "WinnerSelected",
      "inputs": [
        {
          "name": "winner",
          "type": "address",
          "indexed": true,
          "internalType": "address"
        }
      ],
      "anonymous": false
    },
    {
      "type": "error",
      "name": "OwnableInvalidOwner",
      "inputs": [
        {
          "name": "owner",
          "type": "address",
          "internalType": "address"
        }
      ]
    },
    {
      "type": "error",
      "name": "OwnableUnauthorizedAccount",
      "inputs": [
        {
          "name": "account",
          "type": "address",
          "internalType": "address"
        }
      ]
    }
  ],
  "bytecode": {
    "object": "0x60a06040526002805460ff60a01b1916905560016009819055600a556005600b5534801561002c57600080fd5b5073d8253782c45a12053594b9deb72d8e8ab2fca54c338061006857604051631e4fbdf760e01b81526000600482015260240160405180910390fd5b61007181610083565b506001600160a01b03166080526100d5565b600280546001600160a01b038381166001600160a01b0319831681179093556040519116919082907f8be0079c531659141344cd1fd0a4f28419497f9722a3daafe3b4186f6b6457e090600090a35050565b60805161364c6100f7600039600081816106c40152612ede015261364c6000f3fe6080604052600436106103c25760003560e01c806375ce7fff116101f2578063b3f6b99a1161010d578063df15c37e116100a0578063f3f18c371161006f578063f3f18c3714610ba7578063f8413b0714610bc7578063fc7e286d14610bdc578063febc14b114610c0957600080fd5b8063df15c37e14610b1c578063e9081ec714610b31578063e99d286614610b67578063f2fde38b14610b8757600080fd5b8063c4f8f27b116100dc578063c4f8f27b14610aa4578063ccbac9f514610ad1578063d9fca76914610ae7578063dbdff2c114610b0757600080fd5b8063b3f6b99a14610a3b578063b680e44b14610a5b578063b6b55f2514610a71578063b7a62e2414610a8457600080fd5b806399bd69d6116101855780639d9ca28d116101545780639d9ca28d146109a2578063a4f03c02146109db578063a61fb2ba146109fb578063af94862c14610a1b57600080fd5b806399bd69d61461093757806399dbf4b5146109575780639abdccd1146109775780639d1b464a1461098c57600080fd5b80638c65c81f116101c15780638c65c81f146108695780638da5cb5b146108e357806394d898de1461090157806396efac7b1461092157600080fd5b806375ce7fff146107f45780637cc947d0146108145780637de13382146108295780638a6723e61461084957600080fd5b80633639eb2e116102e25780635aa68ac011610275578063683e93e111610244578063683e93e1146107615780636939864b146107815780636bd5450a146107af578063715018a6146107df57600080fd5b80635aa68ac0146106f457806360d50da31461071657806366af746b1461073657806367d3b4881461074b57600080fd5b80634a0a5ce9116102b15780634a0a5ce91461064757806350f3dbec14610667578063558a729714610687578063572b6c05146106a757600080fd5b80633639eb2e146105c15780633644c27c146105e157806338e21cce1461060157806345745c101461063157600080fd5b8063160344e21161035a5780631d0806ae116103295780631d0806ae14610560578063224f91bd14610576578063261704801461058c5780632c23ec8e146105a157600080fd5b8063160344e2146104f65780631630a8df1461050b57806318b200711461052b5780631a0de74c1461054b57600080fd5b80630bea6637116103965780630bea66371461045e57806313e7c9d814610480578063158ef93e146104c05780631593a8c7146104e157600080fd5b8062746702146103c7578063045f9c97146103f0578063080c279a1461042857806308551a531461043e575b600080fd5b3480156103d357600080fd5b506103dd600d5481565b6040519081526020015b60405180910390f35b3480156103fc57600080fd5b5061041061040b366004612fa7565b610c1f565b6040516001600160a01b0390911681526020016103e7565b34801561043457600080fd5b506103dd60065481565b34801561044a57600080fd5b50600454610410906001600160a01b031681565b34801561046a57600080fd5b5061047e610479366004612fa7565b610c49565b005b34801561048c57600080fd5b506104b061049b366004612fdc565b60156020526000908152604090205460ff1681565b60405190151581526020016103e7565b3480156104cc57600080fd5b506002546104b090600160a01b900460ff1681565b3480156104ed57600080fd5b5061047e610ce6565b34801561050257600080fd5b5061047e610d2c565b34801561051757600080fd5b5061047e610526366004612fdc565b610e2d565b34801561053757600080fd5b5061047e610546366004612fa7565b6110ca565b34801561055757600080fd5b5061047e611119565b34801561056c57600080fd5b506103dd60085481565b34801561058257600080fd5b506103dd600a5481565b34801561059857600080fd5b5061047e6115aa565b3480156105ad57600080fd5b50601854610410906001600160a01b031681565b3480156105cd57600080fd5b5061047e6105dc366004612fdc565b61170f565b3480156105ed57600080fd5b5061047e6105fc366004612fdc565b61176b565b34801561060d57600080fd5b506104b061061c366004612fdc565b60106020526000908152604090205460ff1681565b34801561063d57600080fd5b506103dd600c5481565b34801561065357600080fd5b5061047e61066236600461306f565b611795565b34801561067357600080fd5b5061047e610682366004613122565b6118b8565b34801561069357600080fd5b5061047e6106a236600461315a565b6119f8565b3480156106b357600080fd5b506104b06106c2366004612fdc565b7f00000000000000000000000000000000000000000000000000000000000000006001600160a01b0390811691161490565b34801561070057600080fd5b50610709611a2b565b6040516103e79190613191565b34801561072257600080fd5b5061047e610731366004612fdc565b611a8d565b34801561074257600080fd5b5061047e611ab7565b34801561075757600080fd5b506103dd601b5481565b34801561076d57600080fd5b5061047e61077c3660046131de565b611cf1565b34801561078d57600080fd5b506002546107a290600160a81b900460ff1681565b6040516103e79190613215565b3480156107bb57600080fd5b506104b06107ca366004612fdc565b60146020526000908152604090205460ff1681565b3480156107eb57600080fd5b5061047e611d58565b34801561080057600080fd5b506104b061080f366004612fa7565b611d6a565b34801561082057600080fd5b5061047e611d9e565b34801561083557600080fd5b50601a54610410906001600160a01b031681565b34801561085557600080fd5b506104b0610864366004612fdc565b611fa8565b34801561087557600080fd5b506108b7610884366004612fa7565b60116020526000908152604090208054600182015460028301546003909301549192909160ff8082169161010090041685565b60408051958652602086019490945292840191909152151560608301521515608082015260a0016103e7565b3480156108ef57600080fd5b506002546001600160a01b0316610410565b34801561090d57600080fd5b5061047e61091c366004612fdc565b612007565b34801561092d57600080fd5b506103dd600b5481565b34801561094357600080fd5b5061047e610952366004612fa7565b612031565b34801561096357600080fd5b50601954610410906001600160a01b031681565b34801561098357600080fd5b506107096120d9565b34801561099857600080fd5b506103dd60075481565b3480156109ae57600080fd5b506104b06109bd366004612fdc565b6001600160a01b031660009081526014602052604090205460ff1690565b3480156109e757600080fd5b5061047e6109f636600461323d565b612139565b348015610a0757600080fd5b50600354610410906001600160a01b031681565b348015610a2757600080fd5b5061047e610a36366004612fa7565b6123a8565b348015610a4757600080fd5b5061047e610a5636600461325f565b6123e7565b348015610a6757600080fd5b506103dd60095481565b61047e610a7f366004612fa7565b6125bb565b348015610a9057600080fd5b50610410610a9f366004612fa7565b61292f565b348015610ab057600080fd5b506103dd610abf366004612fa7565b60016020526000908152604090205481565b348015610add57600080fd5b506103dd600e5481565b348015610af357600080fd5b5061047e610b02366004612fdc565b61293f565b348015610b1357600080fd5b506103dd6129df565b348015610b2857600080fd5b50610709612a36565b348015610b3d57600080fd5b506103dd610b4c366004612fdc565b6001600160a01b031660009081526013602052604090205490565b348015610b7357600080fd5b5061047e610b82366004612fdc565b612a96565b348015610b9357600080fd5b5061047e610ba2366004612fdc565b612af2565b348015610bb357600080fd5b50600554610410906001600160a01b031681565b348015610bd357600080fd5b5061047e612b30565b348015610be857600080fd5b506103dd610bf7366004612fdc565b60136020526000908152604090205481565b348015610c1557600080fd5b506103dd60125481565b60168181548110610c2f57600080fd5b6000918252602090912001546001600160a01b0316905081565b6004546001600160a01b0316610c5d612bde565b6001600160a01b03161480610c8c57506002546001600160a01b0316610c81612bde565b6001600160a01b0316145b80610cbc575060156000610c9e612bde565b6001600160a01b0316815260208101919091526040016000205460ff165b610ce15760405162461bcd60e51b8152600401610cd8906132db565b60405180910390fd5b601b55565b6004546001600160a01b0316610cfa612bde565b6001600160a01b031614610d205760405162461bcd60e51b8152600401610cd89061331f565b610d2a6002611cf1565b565b6004546001600160a01b0316610d40612bde565b6001600160a01b031614610d665760405162461bcd60e51b8152600401610cd89061331f565b6000600254600160a81b900460ff166004811115610d8657610d866131ff565b1480610dae575060028054600160a81b900460ff166004811115610dac57610dac6131ff565b145b610dfa5760405162461bcd60e51b815260206004820152601a60248201527f4c6f747465727920697320696e206163746976652073746174650000000000006044820152606401610cd8565b610e046001611cf1565b610e0c612bed565b6012546000908152601160205260409020600301805460ff19166001179055565b6004546001600160a01b0316610e41612bde565b6001600160a01b031614610e675760405162461bcd60e51b8152600401610cd89061331f565b60005b6017548110156110c65760006013600060178481548110610e8d57610e8d613361565b60009182526020808320909101546001600160a01b031683528201929092526040018120546017805491935060139183919086908110610ecf57610ecf613361565b6000918252602080832091909101546001600160a01b039081168452908301939093526040918201902092909255601954915163a9059cbb60e01b815285821660048201526024810184905291169063a9059cbb906044016020604051808303816000875af1158015610f46573d6000803e3d6000fd5b505050506040513d601f19601f82011682018060405250810190610f6a9190613377565b50826001600160a01b03166350f3dbec60178481548110610f8d57610f8d613361565b60009182526020909120015460405160e083901b6001600160e01b03191681526001600160a01b03909116600482015260248101849052604401600060405180830381600087803b158015610fe157600080fd5b505af1158015610ff5573d6000803e3d6000fd5b50506017546110089250600191506133aa565b82101561108a576017805461101f906001906133aa565b8154811061102f5761102f613361565b600091825260209091200154601780546001600160a01b03909216918490811061105b5761105b613361565b9060005260206000200160006101000a8154816001600160a01b0302191690836001600160a01b031602179055505b601780548061109b5761109b6133c3565b600082815260209020810160001990810180546001600160a01b031916905501905550600101610e6a565b5050565b6004546001600160a01b03166110de612bde565b6001600160a01b0316146111045760405162461bcd60e51b8152600401610cd89061331f565b6008546000036111145760088190555b600755565b6004546001600160a01b031661112d612bde565b6001600160a01b0316146111535760405162461bcd60e51b8152600401610cd89061331f565b6000600c54116111a55760405162461bcd60e51b815260206004820152601b60248201527f4e6f207469636b657473206c65667420746f20616c6c6f6361746500000000006044820152606401610cd8565b6002805460ff60a81b1916600160a81b1790556111c0612bed565b600f54600c54106112885760005b600f54811015611271576000600f82815481106111ed576111ed613361565b6000918252602090912001546001600160a01b03169050611226816001600160a01b031660009081526014602052604090205460ff1690565b611268576112338161293f565b6040516001600160a01b038216907f1d4c260f1824cd028e6c9e6e31c3a0b94f2513e7a641113ec759d382f9bdd5a190600090a25b506001016111ce565b5061127e600f6000612f75565b6000600c55611529565b60005b600f548110156113a357600f546000906112a69083906133aa565b600e546112b391906133ef565b6112bd9083613403565b90506000600f82815481106112d4576112d4613361565b600091825260209091200154600f80546001600160a01b039092169250908490811061130257611302613361565b600091825260209091200154600f80546001600160a01b03909216918490811061132e5761132e613361565b9060005260206000200160006101000a8154816001600160a01b0302191690836001600160a01b0316021790555080600f848154811061137057611370613361565b600091825260209091200180546001600160a01b0319166001600160a01b0392909216919091179055505060010161128b565b5060005b600c5481101561144a576000600f82815481106113c6576113c6613361565b6000918252602090912001546001600160a01b031690506113ff816001600160a01b031660009081526014602052604090205460ff1690565b6114415761140c8161293f565b6040516001600160a01b038216907f1d4c260f1824cd028e6c9e6e31c3a0b94f2513e7a641113ec759d382f9bdd5a190600090a25b506001016113a7565b50600c546000905b600f548110156114d957600f818154811061146f5761146f613361565b600091825260209091200154600f80546001600160a01b03909216918490811061149b5761149b613361565b600091825260209091200180546001600160a01b0319166001600160a01b0392909216919091179055816114ce81613416565b925050600101611452565b50805b600f5481101561152157600f8054806114f7576114f76133c3565b600082815260209020810160001990810180546001600160a01b03191690550190556001016114dc565b50506000600c555b600d5460000361155d576040517f9c89a6ed7228533196a3f962acc80d61a9c53bdea6b910741bf754f5aaa7569e90600090a15b600160116000600160125461157291906133aa565b8152602081019190915260400160002060030180549115156101000261ff00199092169190911790556002805460ff60a81b19169055565b6115b56109bd612bde565b6115fa5760405162461bcd60e51b815260206004820152601660248201527521b0b63632b91034b9903737ba1030903bb4b73732b960511b6044820152606401610cd8565b60106000611606612bde565b6001600160a01b0316815260208101919091526040016000205460ff16156116655760405162461bcd60e51b815260206004820152601260248201527113919508185b1c9958591e481b5a5b9d195960721b6044820152606401610cd8565b6018546001600160a01b0316636b8f60f661167e612bde565b6040516001600160e01b031960e084901b1681526001600160a01b039091166004820152602401600060405180830381600087803b1580156116bf57600080fd5b505af11580156116d3573d6000803e3d6000fd5b505050506001601060006116e5612bde565b6001600160a01b031681526020810191909152604001600020805460ff1916911515919091179055565b6004546001600160a01b0316611723612bde565b6001600160a01b0316146117495760405162461bcd60e51b8152600401610cd89061331f565b601a80546001600160a01b0319166001600160a01b0392909216919091179055565b611773612cec565b601880546001600160a01b0319166001600160a01b0392909216919091179055565b600254600160a01b900460ff16156117e55760405162461bcd60e51b8152602060048201526013602482015272105b1c9958591e481a5b9a5d1a585b1a5e9959606a1b6044820152606401610cd8565b6040810151600480546001600160a01b039283166001600160a01b031991821617909155602083015160058054919093169116179055606081015161182990612d4a565b6080810151600d5560a0810151600c819055600a8190556006819055600781905560085560c0810151601b5560e0810151601980546001600160a01b03199081166001600160a01b039384161790915561010083015160038054831691841691909117905561012090920151601a8054909316911617905560028054600160a01b60ff60a01b19909116179055565b6118c0612bde565b601a546001600160a01b0390811691161461192d5760405162461bcd60e51b815260206004820152602760248201527f4f6e6c792077686974656c6973746564206d61792063616c6c207468697320666044820152663ab731ba34b7b760c91b6064820152608401610cd8565b60136000611939612bde565b6001600160a01b03166001600160a01b03168152602001908152602001600020546000036119ad57601780546001810182556000919091527fc624b66cc0138b8fabc209247f72d758e1cf3343756d543badbf24212bed8c150180546001600160a01b0319166001600160a01b0384161790555b6001600160a01b038216600090815260136020526040812080548392906119d5908490613403565b925050819055506001600960008282546119ef9190613403565b90915550505050565b611a00612cec565b6001600160a01b03919091166000908152601560205260409020805460ff1916911515919091179055565b60606017805480602002602001604051908101604052809291908181526020018280548015611a8357602002820191906000526020600020905b81546001600160a01b03168152600190910190602001808311611a65575b5050505050905090565b611a95612cec565b600380546001600160a01b0319166001600160a01b0392909216919091179055565b6004546001600160a01b0316611acb612bde565b6001600160a01b031614611af15760405162461bcd60e51b8152600401610cd89061331f565b60028054600160a81b900460ff166004811115611b1057611b106131ff565b14611b515760405162461bcd60e51b8152602060048201526011602482015270131bdd1d195c9e481b9bdd08195b991959607a1b6044820152606401610cd8565b6000805b601654811015611bca57600060168281548110611b7457611b74613361565b60009182526020808320909101546001600160a01b03168083526013909152604090912054909150611ba69084613403565b6001600160a01b039091166000908152601360205260408120559150600101611b55565b5060006064611bda83600561342f565b611be49190613446565b90506000611bf282846133aa565b60195460035460405163a9059cbb60e01b81526001600160a01b03918216600482015260248101869052929350169063a9059cbb906044016020604051808303816000875af1158015611c49573d6000803e3d6000fd5b505050506040513d601f19601f82011682018060405250810190611c6d9190613377565b506019546004805460405163a9059cbb60e01b81526001600160a01b0391821692810192909252602482018490529091169063a9059cbb906044016020604051808303816000875af1158015611cc7573d6000803e3d6000fd5b505050506040513d601f19601f82011682018060405250810190611ceb9190613377565b50505050565b6004546001600160a01b0316611d05612bde565b6001600160a01b031614611d2b5760405162461bcd60e51b8152600401610cd89061331f565b6002805482919060ff60a81b1916600160a81b836004811115611d5057611d506131ff565b021790555050565b611d60612cec565b610d2a6000612d4a565b60008181548110611d7a57600080fd5b9060005260206000209060209182820401919006915054906101000a900460ff1681565b6001600254600160a81b900460ff166004811115611dbe57611dbe6131ff565b03611e0b5760405162461bcd60e51b815260206004820152601b60248201527f4c6f74746572792069732063757272656e746c792061637469766500000000006044820152606401610cd8565b60146000611e17612bde565b6001600160a01b0316815260208101919091526040016000205460ff1615611e815760405162461bcd60e51b815260206004820152601760248201527f57696e6e6572732063616e6e6f742077697468647261770000000000000000006044820152606401610cd8565b600060136000611e8f612bde565b6001600160a01b03166001600160a01b0316815260200190815260200160002054905060008111611ef95760405162461bcd60e51b81526020600482015260146024820152734e6f2066756e647320746f20776974686472617760601b6044820152606401610cd8565b600060136000611f07612bde565b6001600160a01b0390811682526020820192909252604001600020919091556019541663a9059cbb611f37612bde565b6040516001600160e01b031960e084901b1681526001600160a01b039091166004820152602481018490526044016020604051808303816000875af1158015611f84573d6000803e3d6000fd5b505050506040513d601f19601f820116820180604052508101906110c69190613377565b6000805b600f54811015611ffe57826001600160a01b0316600f8281548110611fd357611fd3613361565b6000918252602090912001546001600160a01b031603611ff65750600192915050565b600101611fac565b50600092915050565b61200f612cec565b601980546001600160a01b0319166001600160a01b0392909216919091179055565b6004546001600160a01b0316612045612bde565b6001600160a01b03161461206b5760405162461bcd60e51b8152600401610cd89061331f565b600081116120cf5760405162461bcd60e51b815260206004820152602b60248201527f4e756d626572206f66207469636b657473206d7573742062652067726561746560448201526a72207468616e207a65726f60a81b6064820152608401610cd8565b600c819055600a55565b6060600f805480602002602001604051908101604052809291908181526020018280548015611a83576020028201919060005260206000209081546001600160a01b03168152600190910190602001808311611a65575050505050905090565b6004546001600160a01b031661214d612bde565b6001600160a01b0316148061217c57506002546001600160a01b0316612171612bde565b6001600160a01b0316145b806121ac57506015600061218e612bde565b6001600160a01b0316815260208101919091526040016000205460ff165b6121c85760405162461bcd60e51b8152600401610cd8906132db565b600d548111156122555760405162461bcd60e51b815260206004820152604c60248201527f5469636b6574732070657220726f756e642063616e6e6f74206265206869676860448201527f6572207468616e20746f74616c206e756d626572206f66207469636b6574732060648201526b696e2041756374696f6e563160a01b608482015260a401610cd8565b6000600c546009541061229357600a546009546122729190613446565b600b5461227f919061342f565b60075461228c9190613403565b90506122e6565b6000600a546009546122a59190613446565b6122b09060016133aa565b600b546122bd919061342f565b90508060075411156122de57806007546122d791906133aa565b91506122e4565b60085491505b505b60078190556122f483610c49565b60006009819055600c839055600a839055600d80548492906123179084906133aa565b90915550506040805160a08101825260128054808352602080840188815284860188815260006060870181815260808801828152958252601190945296872095518655905160018601555160028501555160039093018054915161ffff1990921693151561ff00191693909317610100911515919091021790915580549161239e83613416565b9190505550505050565b6004546001600160a01b03166123bc612bde565b6001600160a01b0316146123e25760405162461bcd60e51b8152600401610cd89061331f565b600b55565b6005546001600160a01b031633146124315760405162461bcd60e51b815260206004820152600d60248201526c37b7363c9037b832b930ba37b960991b6044820152606401610cd8565b600061243f82840184613482565b915050600080828060200190518101906124599190613530565b915091506000858560405161246f9291906135b3565b60408051918290039091206000858152600160205291822054825491935083149190859081106124a1576124a1613361565b90600052602060002090602091828204019190069054906101000a900460ff1661250d5760405162461bcd60e51b815260206004820152601c60248201527f726571756573742066756c66696c6c6564206f72206d697373696e67000000006044820152606401610cd8565b80156125b15760408051602081018a905230918101919091524660608201526080810185905260a0016040516020818303038152906040528051906020012060001c975061255c888585612d9c565b600080858154811061257057612570613361565b90600052602060002090602091828204019190066101000a81548160ff02191690831515021790555060016000858152602001908152602001600020600090555b5050505050505050565b6125c66109bd612bde565b1561260c5760405162461bcd60e51b815260206004820152601660248201527515da5b9b995c9cc818d85b9b9bdd0819195c1bdcda5d60521b6044820152606401610cd8565b42601b54116126675760405162461bcd60e51b815260206004820152602160248201527f4465706f7369747320617265206e6f7420706f737369626c6520616e796d6f726044820152606560f81b6064820152608401610cd8565b6019546001600160a01b03166126bf5760405162461bcd60e51b815260206004820152601d60248201527f5553444320636f6e74726163742061646472657373206e6f74207365740000006044820152606401610cd8565b600081116126ff5760405162461bcd60e51b815260206004820152600d60248201526c139bc8199d5b991cc81cd95b9d609a1b6044820152606401610cd8565b60195481906001600160a01b031663dd62ed3e61271a612bde565b6040516001600160e01b031960e084901b1681526001600160a01b039091166004820152306024820152604401602060405180830381865afa158015612764573d6000803e3d6000fd5b505050506040513d601f19601f8201168201806040525081019061278891906135c3565b10156127cf5760405162461bcd60e51b8152602060048201526016602482015275496e73756666696369656e7420616c6c6f77616e636560501b6044820152606401610cd8565b6019546001600160a01b03166323b872dd6127e8612bde565b6040516001600160e01b031960e084901b1681526001600160a01b039091166004820152306024820152604481018490526064016020604051808303816000875af115801561283b573d6000803e3d6000fd5b505050506040513d601f19601f8201168201806040525081019061285f9190613377565b506013600061286c612bde565b6001600160a01b03166001600160a01b03168152602001908152602001600020546000036128d157601761289e612bde565b81546001810183556000928352602090922090910180546001600160a01b0319166001600160a01b039092169190911790555b80601360006128de612bde565b6001600160a01b03166001600160a01b03168152602001908152602001600020600082825461290d9190613403565b925050819055506001600960008282546129279190613403565b909155505050565b600f8181548110610c2f57600080fd5b6004546001600160a01b0316612953612bde565b6001600160a01b0316146129795760405162461bcd60e51b8152600401610cd89061331f565b6001600160a01b03166000818152601460205260408120805460ff191660019081179091556016805491820181559091527fd833147d7dc355ba459fc788f669e58cfaf9dc25ddcd0702e87d69c7b51242890180546001600160a01b0319169091179055565b600042446129eb612bde565b6040805160208101949094528301919091526bffffffffffffffffffffffff19606091821b16908201526074016040516020818303038152906040528051906020012060001c905090565b60606016805480602002602001604051908101604052809291908181526020018280548015611a83576020028201919060005260206000209081546001600160a01b03168152600190910190602001808311611a65575050505050905090565b6004546001600160a01b0316612aaa612bde565b6001600160a01b031614612ad05760405162461bcd60e51b8152600401610cd89061331f565b600480546001600160a01b0319166001600160a01b0392909216919091179055565b612afa612cec565b6001600160a01b038116612b2457604051631e4fbdf760e01b815260006004820152602401610cd8565b612b2d81612d4a565b50565b6004546001600160a01b0316612b44612bde565b6001600160a01b031614612b6a5760405162461bcd60e51b8152600401610cd89061331f565b612b9e612b75612bde565b604080516001600160a01b03909216602083015201604051602081830303815290604052612dd9565b50612ba7612bde565b6001600160a01b03167fd802e7c7f1646e3318c03abed1e468bdf913f45331a68dc912a0d645eb646a4260405160405180910390a2565b6000612be8612eda565b905090565b612bf9600f6000612f75565b60005b601754811015612b2d5760006013600060178481548110612c1f57612c1f613361565b60009182526020808320909101546001600160a01b031683528201929092526040019020546007549091508110612ce357612c8e60178381548110612c6657612c66613361565b60009182526020808320909101546001600160a01b0316825260149052604090205460ff1690565b612ce357600f60178381548110612ca757612ca7613361565b60009182526020808320909101548354600181018555938352912090910180546001600160a01b0319166001600160a01b039092169190911790555b50600101612bfc565b612cf4612bde565b6001600160a01b0316612d0f6002546001600160a01b031690565b6001600160a01b031614610d2a57612d25612bde565b60405163118cdaa760e01b81526001600160a01b039091166004820152602401610cd8565b600280546001600160a01b038381166001600160a01b0319831681179093556040519116919082907f8be0079c531659141344cd1fd0a4f28419497f9722a3daafe3b4186f6b6457e090600090a35050565b600e8390556040518381527fa2353d33775668d31add0688b8ed09ca3a91dc8129126fcdbcbda3a887db60db9060200160405180910390a1505050565b6000805460018082018084558380529192909183908110612dfc57612dfc613361565b90600052602060002090602091828204019190066101000a81548160ff02191690831515021790555060008183604051602001612e3a9291906135dc565b60405160208183030381529060405290506000612e55612f1e565b905060008183604051602001612e6c9291906135dc565b60408051601f198184030181528282528051602080830191909120600089815260019092529290208290559250907fd91fc3685b930310b008ec37d2334870cab88a023ed8cc628a2e2ccd4e55d20290612ec990859087906135dc565b60405180910390a150505050919050565b60007f00000000000000000000000000000000000000000000000000000000000000006001600160a01b03163303612f19575060131936013560601c90565b503390565b600080612f2f6364e62127426133aa565b90506000612f3e600383613446565b612f49906001613403565b905046600114612f6357612f5e816001613403565b612f6e565b612f6e816004613403565b9250505090565b5080546000825590600052602060002090810190612b2d91905b80821115612fa35760008155600101612f8f565b5090565b600060208284031215612fb957600080fd5b5035919050565b80356001600160a01b0381168114612fd757600080fd5b919050565b600060208284031215612fee57600080fd5b612ff782612fc0565b9392505050565b634e487b7160e01b600052604160045260246000fd5b604051610140810167ffffffffffffffff8111828210171561303857613038612ffe565b60405290565b604051601f8201601f1916810167ffffffffffffffff8111828210171561306757613067612ffe565b604052919050565b6000610140828403121561308257600080fd5b61308a613014565b61309383612fc0565b81526130a160208401612fc0565b60208201526130b260408401612fc0565b60408201526130c360608401612fc0565b60608201526080830135608082015260a083013560a082015260c083013560c08201526130f260e08401612fc0565b60e0820152610100613105818501612fc0565b90820152610120613117848201612fc0565b908201529392505050565b6000806040838503121561313557600080fd5b61313e83612fc0565b946020939093013593505050565b8015158114612b2d57600080fd5b6000806040838503121561316d57600080fd5b61317683612fc0565b915060208301356131868161314c565b809150509250929050565b6020808252825182820181905260009190848201906040850190845b818110156131d25783516001600160a01b0316835292840192918401916001016131ad565b50909695505050505050565b6000602082840312156131f057600080fd5b813560058110612ff757600080fd5b634e487b7160e01b600052602160045260246000fd5b602081016005831061323757634e487b7160e01b600052602160045260246000fd5b91905290565b6000806040838503121561325057600080fd5b50508035926020909101359150565b60008060006040848603121561327457600080fd5b83359250602084013567ffffffffffffffff8082111561329357600080fd5b818601915086601f8301126132a757600080fd5b8135818111156132b657600080fd5b8760208285010111156132c857600080fd5b6020830194508093505050509250925092565b60208082526024908201527f4f6e6c79206f70657261746f722063616e2063616c6c20746869732066756e636040820152633a34b7b760e11b606082015260800190565b60208082526022908201527f4f6e6c792073656c6c65722063616e2063616c6c20746869732066756e63746960408201526137b760f11b606082015260800190565b634e487b7160e01b600052603260045260246000fd5b60006020828403121561338957600080fd5b8151612ff78161314c565b634e487b7160e01b600052601160045260246000fd5b818103818111156133bd576133bd613394565b92915050565b634e487b7160e01b600052603160045260246000fd5b634e487b7160e01b600052601260045260246000fd5b6000826133fe576133fe6133d9565b500690565b808201808211156133bd576133bd613394565b60006001820161342857613428613394565b5060010190565b80820281158282048414176133bd576133bd613394565b600082613455576134556133d9565b500490565b600067ffffffffffffffff82111561347457613474612ffe565b50601f01601f191660200190565b6000806040838503121561349557600080fd5b82359150602083013567ffffffffffffffff8111156134b357600080fd5b8301601f810185136134c457600080fd5b80356134d76134d28261345a565b61303e565b8181528660208385010111156134ec57600080fd5b816020840160208301376000602083830101528093505050509250929050565b60005b8381101561352757818101518382015260200161350f565b50506000910152565b6000806040838503121561354357600080fd5b82519150602083015167ffffffffffffffff81111561356157600080fd5b8301601f8101851361357257600080fd5b80516135806134d28261345a565b81815286602083850101111561359557600080fd5b6135a682602083016020860161350c565b8093505050509250929050565b8183823760009101908152919050565b6000602082840312156135d557600080fd5b5051919050565b828152604060208201526000825180604084015261360181606085016020870161350c565b601f01601f191691909101606001939250505056fea264697066735822122096076cd00bacbcc35e0ed64904d97c40a1c00ffcb42b18e1a00086ddb9d0cad164736f6c63430008190033",
    "linkReferences": {}
  },
  "methodIdentifiers": {
    "buyerWithdraw()": "7cc947d0",
    "changeLotteryState(uint8)": "683e93e1",
    "currentPrice()": "9d1b464a",
    "deposit(uint256)": "b6b55f25",
    "deposits(address)": "fc7e286d",
    "eligibleParticipants(uint256)": "b7a62e24",
    "endLottery()": "1593a8c7",
    "finishAt()": "67d3b488",
    "fulfillRandomness(uint256,bytes)": "b3f6b99a",
    "getDepositedAmount(address)": "e9081ec7",
    "getEligibleParticipants()": "9abdccd1",
    "getParticipants()": "5aa68ac0",
    "getRandomNumber()": "dbdff2c1",
    "getWinners()": "df15c37e",
    "hasMinted(address)": "38e21cce",
    "increasePriceStep()": "96efac7b",
    "initialPrice()": "1d0806ae",
    "initialize((address,address,address,address,uint256,uint256,uint256,address,address,address))": "4a0a5ce9",
    "initialized()": "158ef93e",
    "isParticipantEligible(address)": "8a6723e6",
    "isTrustedForwarder(address)": "572b6c05",
    "isWinner(address)": "9d9ca28d",
    "lotteryState()": "6939864b",
    "lotteryV2Addr()": "7de13382",
    "minimumDepositAmount()": "080c279a",
    "mintMyNFT()": "26170480",
    "multisigWalletAddress()": "a61fb2ba",
    "nftContractAddr()": "2c23ec8e",
    "numberOfTickets()": "45745c10",
    "operatorAddr()": "f3f18c37",
    "operators(address)": "13e7c9d8",
    "owner()": "8da5cb5b",
    "prevRoundDeposits()": "b680e44b",
    "prevRoundTicketsAmount()": "224f91bd",
    "randomNumber()": "ccbac9f5",
    "renounceOwnership()": "715018a6",
    "requestPending(uint256)": "75ce7fff",
    "requestRandomness()": "f8413b07",
    "requestedHash(uint256)": "c4f8f27b",
    "roundCounter()": "febc14b1",
    "rounds(uint256)": "8c65c81f",
    "selectWinners()": "1a0de74c",
    "seller()": "08551a53",
    "sellerWithdraw()": "66af746b",
    "setCurrentPrice(uint256)": "18b20071",
    "setFinishAt(uint256)": "0bea6637",
    "setLotteryV2Addr(address)": "3639eb2e",
    "setMultisigWalletAddress(address)": "60d50da3",
    "setNftContractAddr(address)": "3644c27c",
    "setNumberOfTickets(uint256)": "99bd69d6",
    "setOperator(address,bool)": "558a7297",
    "setPriceStep(uint256)": "af94862c",
    "setSeller(address)": "e99d2866",
    "setUsdcContractAddr(address)": "94d898de",
    "setWinner(address)": "d9fca769",
    "setupNewRound(uint256,uint256)": "a4f03c02",
    "startLottery()": "160344e2",
    "totalNumberOfTickets()": "00746702",
    "transferDeposit(address,uint256)": "50f3dbec",
    "transferNonWinnerBids(address)": "1630a8df",
    "transferOwnership(address)": "f2fde38b",
    "usdcContractAddr()": "99dbf4b5",
    "winnerAddresses(uint256)": "045f9c97",
    "winners(address)": "6bd5450a"
  },
  "id": 5
}