{"abi":[{"type":"function","name":"buyerWithdraw","inputs":[],"outputs":[],"stateMutability":"nonpayable"},{"type":"function","name":"changeLotteryState","inputs":[{"name":"_newState","type":"uint8","internalType":"enum SaleBase.LotteryState"}],"outputs":[],"stateMutability":"nonpayable"},{"type":"function","name":"deposit","inputs":[{"name":"amount","type":"uint256","internalType":"uint256"}],"outputs":[],"stateMutability":"nonpayable"},{"type":"function","name":"deposits","inputs":[{"name":"","type":"address","internalType":"address"}],"outputs":[{"name":"","type":"uint256","internalType":"uint256"}],"stateMutability":"view"},{"type":"function","name":"endLottery","inputs":[],"outputs":[],"stateMutability":"nonpayable"},{"type":"function","name":"fulfillRandomness","inputs":[{"name":"randomness","type":"uint256","internalType":"uint256"},{"name":"dataWithRound","type":"bytes","internalType":"bytes"}],"outputs":[],"stateMutability":"nonpayable"},{"type":"function","name":"getDepositedAmount","inputs":[{"name":"participant","type":"address","internalType":"address"}],"outputs":[{"name":"","type":"uint256","internalType":"uint256"}],"stateMutability":"view"},{"type":"function","name":"getParticipants","inputs":[],"outputs":[{"name":"","type":"address[]","internalType":"address[]"}],"stateMutability":"view"},{"type":"function","name":"getWinners","inputs":[],"outputs":[{"name":"","type":"address[]","internalType":"address[]"}],"stateMutability":"view"},{"type":"function","name":"hasMinted","inputs":[{"name":"","type":"address","internalType":"address"}],"outputs":[{"name":"","type":"bool","internalType":"bool"}],"stateMutability":"view"},{"type":"function","name":"increasePriceStep","inputs":[],"outputs":[{"name":"","type":"uint256","internalType":"uint256"}],"stateMutability":"view"},{"type":"function","name":"initialPrice","inputs":[],"outputs":[{"name":"","type":"uint256","internalType":"uint256"}],"stateMutability":"view"},{"type":"function","name":"initialize","inputs":[{"name":"config","type":"tuple","internalType":"struct StructsLibrary.IAuctionV1BaseConfig","components":[{"name":"_seller","type":"address","internalType":"address"},{"name":"_gelatoVrfOperator","type":"address","internalType":"address"},{"name":"_owner","type":"address","internalType":"address"},{"name":"_ticketAmount","type":"uint256","internalType":"uint256"},{"name":"_ticketPrice","type":"uint256","internalType":"uint256"},{"name":"_priceIncreaseStep","type":"uint256","internalType":"uint256"},{"name":"_usdcContractAddr","type":"address","internalType":"address"},{"name":"_nftContractAddr","type":"address","internalType":"address"},{"name":"_multisigWalletAddress","type":"address","internalType":"address"},{"name":"_prevPhaseContractAddr","type":"address","internalType":"address"}]}],"outputs":[],"stateMutability":"nonpayable"},{"type":"function","name":"isTrustedForwarder","inputs":[{"name":"forwarder","type":"address","internalType":"address"}],"outputs":[{"name":"","type":"bool","internalType":"bool"}],"stateMutability":"view"},{"type":"function","name":"isWinner","inputs":[{"name":"_participant","type":"address","internalType":"address"}],"outputs":[{"name":"","type":"bool","internalType":"bool"}],"stateMutability":"view"},{"type":"function","name":"lotteryState","inputs":[],"outputs":[{"name":"","type":"uint8","internalType":"enum SaleBase.LotteryState"}],"stateMutability":"view"},{"type":"function","name":"lotteryV2Addr","inputs":[],"outputs":[{"name":"","type":"address","internalType":"address"}],"stateMutability":"view"},{"type":"function","name":"mintMyNFT","inputs":[],"outputs":[],"stateMutability":"nonpayable"},{"type":"function","name":"multisigWalletAddress","inputs":[],"outputs":[{"name":"","type":"address","internalType":"address"}],"stateMutability":"view"},{"type":"function","name":"nftContractAddr","inputs":[],"outputs":[{"name":"","type":"address","internalType":"address"}],"stateMutability":"view"},{"type":"function","name":"numberOfTickets","inputs":[],"outputs":[{"name":"","type":"uint256","internalType":"uint256"}],"stateMutability":"view"},{"type":"function","name":"operatorAddr","inputs":[],"outputs":[{"name":"","type":"address","internalType":"address"}],"stateMutability":"view"},{"type":"function","name":"operators","inputs":[{"name":"","type":"address","internalType":"address"}],"outputs":[{"name":"","type":"bool","internalType":"bool"}],"stateMutability":"view"},{"type":"function","name":"owner","inputs":[],"outputs":[{"name":"","type":"address","internalType":"address"}],"stateMutability":"view"},{"type":"function","name":"prevRoundDeposits","inputs":[],"outputs":[{"name":"","type":"uint256","internalType":"uint256"}],"stateMutability":"view"},{"type":"function","name":"prevRoundTicketsAmount","inputs":[],"outputs":[{"name":"","type":"uint256","internalType":"uint256"}],"stateMutability":"view"},{"type":"function","name":"renounceOwnership","inputs":[],"outputs":[],"stateMutability":"nonpayable"},{"type":"function","name":"requestPending","inputs":[{"name":"","type":"uint256","internalType":"uint256"}],"outputs":[{"name":"","type":"bool","internalType":"bool"}],"stateMutability":"view"},{"type":"function","name":"requestRandomness","inputs":[],"outputs":[],"stateMutability":"nonpayable"},{"type":"function","name":"requestedHash","inputs":[{"name":"","type":"uint256","internalType":"uint256"}],"outputs":[{"name":"","type":"bytes32","internalType":"bytes32"}],"stateMutability":"view"},{"type":"function","name":"roundCounter","inputs":[],"outputs":[{"name":"","type":"uint256","internalType":"uint256"}],"stateMutability":"view"},{"type":"function","name":"rounds","inputs":[{"name":"","type":"uint256","internalType":"uint256"}],"outputs":[{"name":"number","type":"uint256","internalType":"uint256"},{"name":"finishAt","type":"uint256","internalType":"uint256"},{"name":"numberOfTickets","type":"uint256","internalType":"uint256"},{"name":"randomNumber","type":"uint256","internalType":"uint256"},{"name":"lotteryStarted","type":"bool","internalType":"bool"},{"name":"lotteryFinished","type":"bool","internalType":"bool"},{"name":"winnersSelected","type":"bool","internalType":"bool"}],"stateMutability":"view"},{"type":"function","name":"selectWinners","inputs":[],"outputs":[],"stateMutability":"nonpayable"},{"type":"function","name":"seller","inputs":[],"outputs":[{"name":"","type":"address","internalType":"address"}],"stateMutability":"view"},{"type":"function","name":"sellerWithdraw","inputs":[],"outputs":[],"stateMutability":"nonpayable"},{"type":"function","name":"setOperator","inputs":[{"name":"_operatorAddr","type":"address","internalType":"address"},{"name":"_flag","type":"bool","internalType":"bool"}],"outputs":[],"stateMutability":"nonpayable"},{"type":"function","name":"setSeller","inputs":[{"name":"_seller","type":"address","internalType":"address"}],"outputs":[],"stateMutability":"nonpayable"},{"type":"function","name":"setupNewRound","inputs":[{"name":"_finishAt","type":"uint256","internalType":"uint256"},{"name":"_numberOfTickets","type":"uint256","internalType":"uint256"}],"outputs":[],"stateMutability":"nonpayable"},{"type":"function","name":"startLottery","inputs":[],"outputs":[],"stateMutability":"nonpayable"},{"type":"function","name":"ticketPrice","inputs":[],"outputs":[{"name":"","type":"uint256","internalType":"uint256"}],"stateMutability":"view"},{"type":"function","name":"totalNumberOfTickets","inputs":[],"outputs":[{"name":"","type":"uint256","internalType":"uint256"}],"stateMutability":"view"},{"type":"function","name":"transferDeposit","inputs":[{"name":"_participant","type":"address","internalType":"address"},{"name":"_amount","type":"uint256","internalType":"uint256"}],"outputs":[],"stateMutability":"nonpayable"},{"type":"function","name":"transferNonWinnerBids","inputs":[{"name":"destinationAddr","type":"address","internalType":"address"}],"outputs":[],"stateMutability":"nonpayable"},{"type":"function","name":"transferOwnership","inputs":[{"name":"newOwner","type":"address","internalType":"address"}],"outputs":[],"stateMutability":"nonpayable"},{"type":"function","name":"usdcContractAddr","inputs":[],"outputs":[{"name":"","type":"address","internalType":"address"}],"stateMutability":"view"},{"type":"function","name":"winnerAddresses","inputs":[{"name":"","type":"uint256","internalType":"uint256"}],"outputs":[{"name":"","type":"address","internalType":"address"}],"stateMutability":"view"},{"type":"function","name":"winners","inputs":[{"name":"","type":"address","internalType":"address"}],"outputs":[{"name":"","type":"bool","internalType":"bool"}],"stateMutability":"view"},{"type":"event","name":"BuyerDeposited","inputs":[{"name":"buyer","type":"address","indexed":true,"internalType":"address"},{"name":"amount","type":"uint256","indexed":true,"internalType":"uint256"}],"anonymous":false},{"type":"event","name":"BuyerWithdrew","inputs":[{"name":"buyer","type":"address","indexed":true,"internalType":"address"},{"name":"amount","type":"uint256","indexed":true,"internalType":"uint256"}],"anonymous":false},{"type":"event","name":"DepositsReturned","inputs":[{"name":"returnedDepositsCount","type":"uint256","indexed":false,"internalType":"uint256"}],"anonymous":false},{"type":"event","name":"Initialized","inputs":[{"name":"version","type":"uint64","indexed":false,"internalType":"uint64"}],"anonymous":false},{"type":"event","name":"LotteryEnded","inputs":[],"anonymous":false},{"type":"event","name":"LotteryStarted","inputs":[],"anonymous":false},{"type":"event","name":"OwnershipTransferred","inputs":[{"name":"previousOwner","type":"address","indexed":true,"internalType":"address"},{"name":"newOwner","type":"address","indexed":true,"internalType":"address"}],"anonymous":false},{"type":"event","name":"RandomFulfilled","inputs":[{"name":"number","type":"uint256","indexed":false,"internalType":"uint256"}],"anonymous":false},{"type":"event","name":"RandomRequested","inputs":[{"name":"requester","type":"address","indexed":true,"internalType":"address"}],"anonymous":false},{"type":"event","name":"RequestedRandomness","inputs":[{"name":"round","type":"uint256","indexed":false,"internalType":"uint256"},{"name":"data","type":"bytes","indexed":false,"internalType":"bytes"}],"anonymous":false},{"type":"event","name":"RoundSet","inputs":[{"name":"roundNumber","type":"uint256","indexed":true,"internalType":"uint256"},{"name":"finishAt","type":"uint256","indexed":false,"internalType":"uint256"},{"name":"numberOfTickets","type":"uint256","indexed":false,"internalType":"uint256"}],"anonymous":false},{"type":"event","name":"WinnerSelected","inputs":[{"name":"winner","type":"address","indexed":true,"internalType":"address"}],"anonymous":false},{"type":"error","name":"InvalidInitialization","inputs":[]},{"type":"error","name":"NotInitializing","inputs":[]},{"type":"error","name":"OwnableInvalidOwner","inputs":[{"name":"owner","type":"address","internalType":"address"}]},{"type":"error","name":"OwnableUnauthorizedAccount","inputs":[{"name":"account","type":"address","internalType":"address"}]}],"bytecode":{"object":"0x60a060405260016014556001601555600560165534801561001f57600080fd5b5073d8253782c45a12053594b9deb72d8e8ab2fca54c338061005b57604051631e4fbdf760e01b81526000600482015260240160405180910390fd5b6100648161007e565b506001600160a01b03166080526100796100ce565b610180565b600080546001600160a01b038381166001600160a01b0319831681178455604051919092169283917f8be0079c531659141344cd1fd0a4f28419497f9722a3daafe3b4186f6b6457e09190a35050565b7ff0c57e16840df040f15088dc2f81fe391c3923bec73e23a9662efc9c229c6a00805468010000000000000000900460ff161561011e5760405163f92ee8a960e01b815260040160405180910390fd5b80546001600160401b039081161461017d5780546001600160401b0319166001600160401b0390811782556040519081527fc7f505b2f371ae2175ee4913f4499e1f2633a7b5936321eed1cdaeb6115181d29060200160405180910390a15b50565b6080516132e26101a2600039600081816103fe0152612bb801526132e26000f3fe608060405234801561001057600080fd5b50600436106102945760003560e01c80636bd5450a11610167578063b3f6b99a116100ce578063e99d286611610087578063e99d286614610665578063f2fde38b14610678578063f3f18c371461068b578063f8413b071461069e578063fc7e286d146106a6578063febc14b1146106c657600080fd5b8063b3f6b99a146105e5578063b680e44b146105f8578063b6b55f2514610601578063c4f8f27b14610614578063df15c37e14610634578063e9081ec71461063c57600080fd5b80638da5cb5b116101205780638da5cb5b1461056657806396efac7b1461057757806399dbf4b5146105805780639d9ca28d14610593578063a4f03c02146105bf578063a61fb2ba146105d257600080fd5b80636bd5450a1461047f578063715018a6146104a257806375ce7fff146104aa5780637cc947d0146104bd5780637de13382146104c55780638c65c81f146104d857600080fd5b8063261704801161020b57806356d7c73a116101c457806356d7c73a146103db578063572b6c05146103ee5780635aa68ac01461042e57806366af746b14610443578063683e93e11461044b5780636939864b1461045e57600080fd5b8063261704801461036e5780632c23ec8e1461037657806338e21cce1461038957806345745c10146103ac57806350f3dbec146103b5578063558a7297146103c857600080fd5b80631593a8c71161025d5780631593a8c71461032f578063160344e2146103395780631630a8df146103415780631a0de74c146103545780631d0806ae1461035c578063224f91bd1461036557600080fd5b806274670214610299578063045f9c97146102b557806308551a53146102e05780631209b1f6146102f357806313e7c9d8146102fc575b600080fd5b6102a260175481565b6040519081526020015b60405180910390f35b6102c86102c3366004612c81565b6106cf565b6040516001600160a01b0390911681526020016102ac565b6002546102c8906001600160a01b031681565b6102a260045481565b61031f61030a366004612cb6565b60106020526000908152604090205460ff1681565b60405190151581526020016102ac565b6103376106f9565b005b610337610771565b61033761034f366004612cb6565b61084c565b610337610a35565b6102a260135481565b6102a260155481565b610337610f7b565b600a546102c8906001600160a01b031681565b61031f610397366004612cb6565b60056020526000908152604090205460ff1681565b6102a260035481565b6103376103c3366004612cd8565b611105565b6103376103d6366004612d10565b611245565b6103376103e9366004612db8565b611278565b61031f6103fc366004612cb6565b7f00000000000000000000000000000000000000000000000000000000000000006001600160a01b0390811691161490565b61043661144c565b6040516102ac9190612e6b565b6103376114ae565b610337610459366004612eb8565b6116df565b60005461047290600160a01b900460ff1681565b6040516102ac9190612eef565b61031f61048d366004612cb6565b60076020526000908152604090205460ff1681565b610337611746565b61031f6104b8366004612c81565b61175a565b61033761178e565b6011546102c8906001600160a01b031681565b61052b6104e6366004612c81565b600e60205260009081526040902080546001820154600283015460038401546004909401549293919290919060ff808216916101008104821691620100009091041687565b60408051978852602088019690965294860193909352606085019190915215156080840152151560a0830152151560c082015260e0016102ac565b6000546001600160a01b03166102c8565b6102a260165481565b600b546102c8906001600160a01b031681565b61031f6105a1366004612cb6565b6001600160a01b031660009081526007602052604090205460ff1690565b6103376105cd366004612f17565b6119d2565b6001546102c8906001600160a01b031681565b6103376105f3366004612f39565b611d90565b6102a260145481565b61033761060f366004612c81565b611f6a565b6102a2610622366004612c81565b600d6020526000908152604090205481565b610436612361565b6102a261064a366004612cb6565b6001600160a01b031660009081526006602052604090205490565b610337610673366004612cb6565b6123c1565b610337610686366004612cb6565b61241d565b6012546102c8906001600160a01b031681565b610337612458565b6102a26106b4366004612cb6565b60066020526000908152604090205481565b6102a2600f5481565b600881815481106106df57600080fd5b6000918252602090912001546001600160a01b0316905081565b6002546001600160a01b031661070d6125f6565b6001600160a01b03161461073c5760405162461bcd60e51b815260040161073390612fb5565b60405180910390fd5b61074660026116df565b6040517f9c89a6ed7228533196a3f962acc80d61a9c53bdea6b910741bf754f5aaa7569e90600090a1565b6002546001600160a01b03166107856125f6565b6001600160a01b0316146107ab5760405162461bcd60e51b815260040161073390612fb5565b60008054600160a01b900460ff1660028111156107ca576107ca612ed9565b146108175760405162461bcd60e51b815260206004820152601760248201527f53616c6520697320696e206163746976652073746174650000000000000000006044820152606401610733565b61082160016116df565b6040517fd029c7c68d943f92286a7825fa6aa2deefa1eee46cee6c91b7e483fd06d27baf90600090a1565b6002546001600160a01b03166108606125f6565b6001600160a01b0316146108865760405162461bcd60e51b815260040161073390612fb5565b60005b600954811015610a2557600060066000600984815481106108ac576108ac612ff7565b60009182526020808320909101546001600160a01b0316835282019290925260400181205460098054919350600691839190869081106108ee576108ee612ff7565b6000918252602080832091909101546001600160a01b039081168452908301939093526040918201902092909255600b54915163a9059cbb60e01b815285821660048201526024810184905291169063a9059cbb906044016020604051808303816000875af1158015610965573d6000803e3d6000fd5b505050506040513d601f19601f82011682018060405250810190610989919061300d565b50826001600160a01b03166350f3dbec600984815481106109ac576109ac612ff7565b60009182526020909120015460405160e083901b6001600160e01b03191681526001600160a01b03909116600482015260248101849052604401600060405180830381600087803b158015610a0057600080fd5b505af1158015610a14573d6000803e3d6000fd5b505060019093019250610889915050565b50610a3260096000612c4f565b50565b6002546001600160a01b0316610a496125f6565b6001600160a01b031614610a6f5760405162461bcd60e51b815260040161073390612fb5565b6000600e60006001600f54610a849190613040565b81526020019081526020016000206003015411610af95760405162461bcd60e51b815260206004820152602d60248201527f52616e646f6d206e756d62657220666f72206c61737420726f756e642069732060448201526c1b9bdd0819d95b995c985d1959609a1b6064820152608401610733565b600060035411610b4b5760405162461bcd60e51b815260206004820152601b60248201527f4e6f207469636b657473206c65667420746f20616c6c6f6361746500000000006044820152606401610733565b6000805460ff60a01b1916600160a01b1790556009546003548111610c255760005b81811015610c0e57600060098281548110610b8a57610b8a612ff7565b6000918252602090912001546001600160a01b03169050610bc3816001600160a01b031660009081526007602052604090205460ff1690565b610c0557610bd081612605565b6040516001600160a01b038216907f1d4c260f1824cd028e6c9e6e31c3a0b94f2513e7a641113ec759d382f9bdd5a190600090a25b50600101610b6d565b50610c1b60096000612c4f565b6000600355610edd565b60005b81811015610d5b576000610c3c8284613040565b600e60006001600f54610c4f9190613040565b815260200190815260200160002060030154610c6b919061306f565b610c759083613083565b9050600060098281548110610c8c57610c8c612ff7565b600091825260209091200154600980546001600160a01b0390921692509084908110610cba57610cba612ff7565b600091825260209091200154600980546001600160a01b039092169184908110610ce657610ce6612ff7565b9060005260206000200160006101000a8154816001600160a01b0302191690836001600160a01b031602179055508060098481548110610d2857610d28612ff7565b600091825260209091200180546001600160a01b0319166001600160a01b03929092169190911790555050600101610c28565b5060005b600354811015610e0257600060098281548110610d7e57610d7e612ff7565b6000918252602090912001546001600160a01b03169050610db7816001600160a01b031660009081526007602052604090205460ff1690565b610df957610dc481612605565b6040516001600160a01b038216907f1d4c260f1824cd028e6c9e6e31c3a0b94f2513e7a641113ec759d382f9bdd5a190600090a25b50600101610d5f565b506003546000905b82811015610e8f5760098181548110610e2557610e25612ff7565b600091825260209091200154600980546001600160a01b039092169184908110610e5157610e51612ff7565b600091825260209091200180546001600160a01b0319166001600160a01b039290921691909117905581610e8481613096565b925050600101610e0a565b50805b82811015610ed5576009805480610eab57610eab6130af565b600082815260209020810160001990810180546001600160a01b0319169055019055600101610e92565b505060006003555b6001600e60006001600f54610ef29190613040565b8152602081019190915260400160009081206004018054921515620100000262ff00001990931692909217909155805460ff60a01b191681556017549003610a32576000805460ff60a01b1916600160a11b179055610f4f612691565b6040517f9c89a6ed7228533196a3f962acc80d61a9c53bdea6b910741bf754f5aaa7569e90600090a150565b610f866105a16125f6565b610fcb5760405162461bcd60e51b815260206004820152601660248201527521b0b63632b91034b9903737ba1030903bb4b73732b960511b6044820152606401610733565b60056000610fd76125f6565b6001600160a01b0316815260208101919091526040016000205460ff16156110365760405162461bcd60e51b815260206004820152601260248201527113919508185b1c9958591e481b5a5b9d195960721b6044820152606401610733565b6001600560006110446125f6565b6001600160a01b0316815260208101919091526040016000908120805460ff19169215159290921790915560068161107a6125f6565b6001600160a01b039081168252602082019290925260400160002091909155600a5416636b8f60f66110aa6125f6565b6040516001600160e01b031960e084901b1681526001600160a01b039091166004820152602401600060405180830381600087803b1580156110eb57600080fd5b505af11580156110ff573d6000803e3d6000fd5b50505050565b61110d6125f6565b6011546001600160a01b0390811691161461117a5760405162461bcd60e51b815260206004820152602760248201527f4f6e6c792077686974656c6973746564206d61792063616c6c207468697320666044820152663ab731ba34b7b760c91b6064820152608401610733565b600660006111866125f6565b6001600160a01b03166001600160a01b03168152602001908152602001600020546000036111fa57600980546001810182556000919091527f6e1540171b6c0c960b71a7020d9f60077f6af931a8bbf590da0223dacf75c7af0180546001600160a01b0319166001600160a01b0384161790555b6001600160a01b03821660009081526006602052604081208054839290611222908490613083565b9250508190555060016014600082825461123c9190613083565b90915550505050565b61124d61299c565b6001600160a01b03919091166000908152601060205260409020805460ff1916911515919091179055565b7ff0c57e16840df040f15088dc2f81fe391c3923bec73e23a9662efc9c229c6a008054600160401b810460ff16159067ffffffffffffffff166000811580156112be5750825b905060008267ffffffffffffffff1660011480156112db5750303b155b9050811580156112e9575080155b156113075760405163f92ee8a960e01b815260040160405180910390fd5b845467ffffffffffffffff19166001178555831561133157845460ff60401b1916600160401b1785555b8551600280546001600160a01b039283166001600160a01b0319918216179091556020880151601280549190931691161790556040860151611372906129fa565b6060860151601755608086015160038190556015819055600481905560135560a086015160165560c0860151600b80546001600160a01b03199081166001600160a01b039384161790915560e0880151600a80548316918416919091179055610100880151600180548316918416919091178155610120890151601180549093169316929092179055600f55831561144457845460ff60401b19168555604051600181527fc7f505b2f371ae2175ee4913f4499e1f2633a7b5936321eed1cdaeb6115181d29060200160405180910390a15b505050505050565b606060098054806020026020016040519081016040528092919081815260200182805480156114a457602002820191906000526020600020905b81546001600160a01b03168152600190910190602001808311611486575b5050505050905090565b6002546001600160a01b03166114c26125f6565b6001600160a01b0316146114e85760405162461bcd60e51b815260040161073390612fb5565b6002600054600160a01b900460ff16600281111561150857611508612ed9565b146115495760405162461bcd60e51b8152602060048201526011602482015270131bdd1d195c9e481b9bdd08195b991959607a1b6044820152606401610733565b6000805b6008548110156115c25760006008828154811061156c5761156c612ff7565b60009182526020808320909101546001600160a01b0316808352600690915260409091205490915061159e9084613083565b6001600160a01b03909116600090815260066020526040812055915060010161154d565b50600060646115d28360056130c5565b6115dc91906130dc565b905060006115ea8284613040565b600b5460015460405163a9059cbb60e01b81526001600160a01b03918216600482015260248101869052929350169063a9059cbb906044016020604051808303816000875af1158015611641573d6000803e3d6000fd5b505050506040513d601f19601f82011682018060405250810190611665919061300d565b50600b5460025460405163a9059cbb60e01b81526001600160a01b0391821660048201526024810184905291169063a9059cbb906044016020604051808303816000875af11580156116bb573d6000803e3d6000fd5b505050506040513d601f19601f820116820180604052508101906110ff919061300d565b6002546001600160a01b03166116f36125f6565b6001600160a01b0316146117195760405162461bcd60e51b815260040161073390612fb5565b6000805482919060ff60a01b1916600160a01b83600281111561173e5761173e612ed9565b021790555050565b61174e61299c565b61175860006129fa565b565b600c818154811061176a57600080fd5b9060005260206000209060209182820401919006915054906101000a900460ff1681565b6002600054600160a01b900460ff1660028111156117ae576117ae612ed9565b146117f35760405162461bcd60e51b815260206004820152601560248201527414d85b19481a5cc81b9bdd08195b991959081e595d605a1b6044820152606401610733565b600760006117ff6125f6565b6001600160a01b0316815260208101919091526040016000205460ff16156118695760405162461bcd60e51b815260206004820152601760248201527f57696e6e6572732063616e6e6f742077697468647261770000000000000000006044820152606401610733565b6000600660006118776125f6565b6001600160a01b03166001600160a01b03168152602001908152602001600020549050600081116118e15760405162461bcd60e51b81526020600482015260146024820152734e6f2066756e647320746f20776974686472617760601b6044820152606401610733565b6000600660006118ef6125f6565b6001600160a01b039081168252602082019290925260400160002091909155600b541663a9059cbb61191f6125f6565b6040516001600160e01b031960e084901b1681526001600160a01b039091166004820152602481018490526044016020604051808303816000875af115801561196c573d6000803e3d6000fd5b505050506040513d601f19601f82011682018060405250810190611990919061300d565b508061199a6125f6565b6001600160a01b03167f1f280cd00e67ed50213ac03febd5be151f96b7f7db2f85312aa0feff99f8bdab60405160405180910390a350565b6002546001600160a01b03166119e66125f6565b6001600160a01b03161480611a1557506000546001600160a01b0316611a0a6125f6565b6001600160a01b0316145b80611a45575060106000611a276125f6565b6001600160a01b0316815260208101919091526040016000205460ff165b611a9d5760405162461bcd60e51b8152602060048201526024808201527f4f6e6c79206f70657261746f722063616e2063616c6c20746869732066756e636044820152633a34b7b760e11b6064820152608401610733565b601754811115611b2a5760405162461bcd60e51b815260206004820152604c60248201527f5469636b6574732070657220726f756e642063616e6e6f74206265206869676860448201527f6572207468616e20746f74616c206e756d626572206f66207469636b6574732060648201526b696e2041756374696f6e563160a01b608482015260a401610733565b6001600f541115611bcf57600e60006001600f54611b489190613040565b815260200190815260200160002060040160029054906101000a900460ff1615156001151514611bcf5760405162461bcd60e51b815260206004820152602c60248201527f46696e697368206c61737420726f756e642066697273742062792073656c656360448201526b74696e672077696e6e65727360a01b6064820152608401610733565b600060175460145410611c0d57601554601454611bec91906130dc565b601654611bf991906130c5565b600454611c069190613083565b9050611c60565b6000601554601454611c1f91906130dc565b611c2a906001613040565b601654611c3791906130c5565b9050806004541115611c585780600454611c519190613040565b9150611c5e565b60135491505b505b6004819055600060148190556003839055601583905560178054849290611c88908490613040565b90915550506040805160e081018252600f8054808352602080840188815284860188815260006060870181815260016080890181815260a08a0184815260c08b01858152988552600e8852938b902099518a559451908901559151600288015590516003870155905160049095018054915193511515620100000262ff0000199415156101000261ff00199715159790971661ffff1990931692909217959095179290921691909117909255548251868152918201859052917fa809180f68c3ea85ec47001279a9070abd80a3022aa303b0fd92eb0e7538d42b910160405180910390a2611d7660016116df565b600f8054906000611d8683613096565b9190505550505050565b6012546001600160a01b03163314611dda5760405162461bcd60e51b815260206004820152600d60248201526c37b7363c9037b832b930ba37b960991b6044820152606401610733565b6000611de882840184613118565b91505060008082806020019051810190611e0291906131c6565b9150915060008585604051611e18929190613249565b604051809103902090506000600d60008581526020019081526020016000205482149050600c8481548110611e4f57611e4f612ff7565b90600052602060002090602091828204019190069054906101000a900460ff16611ebb5760405162461bcd60e51b815260206004820152601c60248201527f726571756573742066756c66696c6c6564206f72206d697373696e67000000006044820152606401610733565b8015611f605760408051602081018a905230918101919091524660608201526080810185905260a0016040516020818303038152906040528051906020012060001c9750611f0a888585612a4a565b6000600c8581548110611f1f57611f1f612ff7565b90600052602060002090602091828204019190066101000a81548160ff021916908315150217905550600d6000858152602001908152602001600020600090555b5050505050505050565b611f756105a16125f6565b15611fbb5760405162461bcd60e51b815260206004820152601660248201527515da5b9b995c9cc818d85b9b9bdd0819195c1bdcda5d60521b6044820152606401610733565b600b546001600160a01b03166120135760405162461bcd60e51b815260206004820152601d60248201527f5553444320636f6e74726163742061646472657373206e6f74207365740000006044820152606401610733565b60045481101561205d5760405162461bcd60e51b8152602060048201526015602482015274139bdd08195b9bdd59da08199d5b991cc81cd95b9d605a1b6044820152606401610733565b600b5481906001600160a01b031663dd62ed3e6120786125f6565b6040516001600160e01b031960e084901b1681526001600160a01b039091166004820152306024820152604401602060405180830381865afa1580156120c2573d6000803e3d6000fd5b505050506040513d601f19601f820116820180604052508101906120e69190613259565b101561212d5760405162461bcd60e51b8152602060048201526016602482015275496e73756666696369656e7420616c6c6f77616e636560501b6044820152606401610733565b600e60006001600f546121409190613040565b8152602081019190915260400160002060040154610100900460ff16156121bb5760405162461bcd60e51b815260206004820152602960248201527f596f752063616e2774206465706f73697420616674657220726f756e6420697360448201526808199a5b9a5cda195960ba1b6064820152608401610733565b600b546001600160a01b03166323b872dd6121d46125f6565b6040516001600160e01b031960e084901b1681526001600160a01b039091166004820152306024820152604481018490526064016020604051808303816000875af1158015612227573d6000803e3d6000fd5b505050506040513d601f19601f8201168201806040525081019061224b919061300d565b50600660006122586125f6565b6001600160a01b03166001600160a01b03168152602001908152602001600020546000036122bd57600961228a6125f6565b81546001810183556000928352602090922090910180546001600160a01b0319166001600160a01b039092169190911790555b80600660006122ca6125f6565b6001600160a01b03166001600160a01b0316815260200190815260200160002060008282546122f99190613083565b909155505060045481106123205760016014600082825461231a9190613083565b90915550505b806123296125f6565b6001600160a01b03167f21040858e63c11c046482f61f290bbe25972fc74b11b4570a01f9241082d21f160405160405180910390a350565b606060088054806020026020016040519081016040528092919081815260200182805480156114a4576020028201919060005260206000209081546001600160a01b03168152600190910190602001808311611486575050505050905090565b6002546001600160a01b03166123d56125f6565b6001600160a01b0316146123fb5760405162461bcd60e51b815260040161073390612fb5565b600280546001600160a01b0319166001600160a01b0392909216919091179055565b61242561299c565b6001600160a01b03811661244f57604051631e4fbdf760e01b815260006004820152602401610733565b610a32816129fa565b6002546001600160a01b031661246c6125f6565b6001600160a01b0316146124925760405162461bcd60e51b815260040161073390612fb5565b6001600f54116124d85760405162461bcd60e51b815260206004820152601160248201527014d95d1d5c08199a5c9cdd081c9bdd5b99607a1b6044820152606401610733565b42600e60006001600f546124ec9190613040565b81526020019081526020016000206001015411156125455760405162461bcd60e51b8152602060048201526016602482015275149bdd5b99081a5cc81b9bdd08195b991959081e595d60521b6044820152606401610733565b6001600e60006001600f5461255a9190613040565b815260200190815260200160002060040160016101000a81548160ff0219169083151502179055506125b661258d6125f6565b604080516001600160a01b03909216602083015201604051602081830303815290604052612ab1565b506125bf6125f6565b6001600160a01b03167fd802e7c7f1646e3318c03abed1e468bdf913f45331a68dc912a0d645eb646a4260405160405180910390a2565b6000612600612bb4565b905090565b6001600160a01b038116600081815260076020526040808220805460ff1916600190811790915560088054918201815583527ff3f7a9fe364faab93b216da50a3214154f22a0a2b415b23a84c8169e8b636ee30180546001600160a01b03191684179055517f1d4c260f1824cd028e6c9e6e31c3a0b94f2513e7a641113ec759d382f9bdd5a19190a250565b6002546001600160a01b03166126a56125f6565b6001600160a01b0316146126cb5760405162461bcd60e51b815260040161073390612fb5565b6002600054600160a01b900460ff1660028111156126eb576126eb612ed9565b146127305760405162461bcd60e51b815260206004820152601560248201527414d85b19481a5cc81b9bdd08195b991959081e595d605a1b6044820152606401610733565b60095460008167ffffffffffffffff81111561274e5761274e612d47565b604051908082528060200260200182016040528015612777578160200160208202803683370190505b50905060005b828110156127e8576009818154811061279857612798612ff7565b9060005260206000200160009054906101000a90046001600160a01b03168282815181106127c8576127c8612ff7565b6001600160a01b039092166020928302919091019091015260010161277d565b5060005b8281101561295857600082828151811061280857612808612ff7565b6020908102919091018101516001600160a01b0381166000908152600683526040808220805490839055600790945290205490925060ff16156128d5576000600454826128559190613040565b600b5460405163a9059cbb60e01b81526001600160a01b0386811660048301526024820184905292935091169063a9059cbb906044016020604051808303816000875af11580156128aa573d6000803e3d6000fd5b505050506040513d601f19601f820116820180604052508101906128ce919061300d565b505061294e565b600b5460405163a9059cbb60e01b81526001600160a01b038481166004830152602482018490529091169063a9059cbb906044016020604051808303816000875af1158015612928573d6000803e3d6000fd5b505050506040513d601f19601f8201168201806040525081019061294c919061300d565b505b50506001016127ec565b5061296560096000612c4f565b6040518281527f01f8aef848121bbf182106b55119c1094063c572b6c8dcb09040e1203a17abf99060200160405180910390a15050565b6129a46125f6565b6001600160a01b03166129bf6000546001600160a01b031690565b6001600160a01b031614611758576129d56125f6565b60405163118cdaa760e01b81526001600160a01b039091166004820152602401610733565b600080546001600160a01b038381166001600160a01b0319831681178455604051919092169283917f8be0079c531659141344cd1fd0a4f28419497f9722a3daafe3b4186f6b6457e09190a35050565b82600e60006001600f54612a5e9190613040565b8152602001908152602001600020600301819055507f79518eb4b6f70742e6651b03a2ac2bc644ea2613e8de56247857c5be5fc2a0ba83604051612aa491815260200190565b60405180910390a1505050565b600c8054600180820180845560008490529192909183908110612ad657612ad6612ff7565b90600052602060002090602091828204019190066101000a81548160ff02191690831515021790555060008183604051602001612b14929190613272565b60405160208183030381529060405290506000612b2f612bf8565b905060008183604051602001612b46929190613272565b60408051601f1981840301815282825280516020808301919091206000898152600d9092529290208290559250907fd91fc3685b930310b008ec37d2334870cab88a023ed8cc628a2e2ccd4e55d20290612ba39085908790613272565b60405180910390a150505050919050565b60007f00000000000000000000000000000000000000000000000000000000000000006001600160a01b03163303612bf3575060131936013560601c90565b503390565b600080612c096364e6212742613040565b90506000612c186003836130dc565b612c23906001613083565b905046600114612c3d57612c38816001613083565b612c48565b612c48816004613083565b9250505090565b5080546000825590600052602060002090810190610a3291905b80821115612c7d5760008155600101612c69565b5090565b600060208284031215612c9357600080fd5b5035919050565b80356001600160a01b0381168114612cb157600080fd5b919050565b600060208284031215612cc857600080fd5b612cd182612c9a565b9392505050565b60008060408385031215612ceb57600080fd5b612cf483612c9a565b946020939093013593505050565b8015158114610a3257600080fd5b60008060408385031215612d2357600080fd5b612d2c83612c9a565b91506020830135612d3c81612d02565b809150509250929050565b634e487b7160e01b600052604160045260246000fd5b604051610140810167ffffffffffffffff81118282101715612d8157612d81612d47565b60405290565b604051601f8201601f1916810167ffffffffffffffff81118282101715612db057612db0612d47565b604052919050565b60006101408284031215612dcb57600080fd5b612dd3612d5d565b612ddc83612c9a565b8152612dea60208401612c9a565b6020820152612dfb60408401612c9a565b6040820152606083013560608201526080830135608082015260a083013560a0820152612e2a60c08401612c9a565b60c0820152612e3b60e08401612c9a565b60e0820152610100612e4e818501612c9a565b90820152610120612e60848201612c9a565b908201529392505050565b6020808252825182820181905260009190848201906040850190845b81811015612eac5783516001600160a01b031683529284019291840191600101612e87565b50909695505050505050565b600060208284031215612eca57600080fd5b813560038110612cd157600080fd5b634e487b7160e01b600052602160045260246000fd5b6020810160038310612f1157634e487b7160e01b600052602160045260246000fd5b91905290565b60008060408385031215612f2a57600080fd5b50508035926020909101359150565b600080600060408486031215612f4e57600080fd5b83359250602084013567ffffffffffffffff80821115612f6d57600080fd5b818601915086601f830112612f8157600080fd5b813581811115612f9057600080fd5b876020828501011115612fa257600080fd5b6020830194508093505050509250925092565b60208082526022908201527f4f6e6c792073656c6c65722063616e2063616c6c20746869732066756e63746960408201526137b760f11b606082015260800190565b634e487b7160e01b600052603260045260246000fd5b60006020828403121561301f57600080fd5b8151612cd181612d02565b634e487b7160e01b600052601160045260246000fd5b818103818111156130535761305361302a565b92915050565b634e487b7160e01b600052601260045260246000fd5b60008261307e5761307e613059565b500690565b808201808211156130535761305361302a565b6000600182016130a8576130a861302a565b5060010190565b634e487b7160e01b600052603160045260246000fd5b80820281158282048414176130535761305361302a565b6000826130eb576130eb613059565b500490565b600067ffffffffffffffff82111561310a5761310a612d47565b50601f01601f191660200190565b6000806040838503121561312b57600080fd5b82359150602083013567ffffffffffffffff81111561314957600080fd5b8301601f8101851361315a57600080fd5b803561316d613168826130f0565b612d87565b81815286602083850101111561318257600080fd5b816020840160208301376000602083830101528093505050509250929050565b60005b838110156131bd5781810151838201526020016131a5565b50506000910152565b600080604083850312156131d957600080fd5b82519150602083015167ffffffffffffffff8111156131f757600080fd5b8301601f8101851361320857600080fd5b8051613216613168826130f0565b81815286602083850101111561322b57600080fd5b61323c8260208301602086016131a2565b8093505050509250929050565b8183823760009101908152919050565b60006020828403121561326b57600080fd5b5051919050565b82815260406020820152600082518060408401526132978160608501602087016131a2565b601f01601f191691909101606001939250505056fea26469706673582212203736cd1d513acdc313efadcea75cb27cf4cb5a4be661a23fc476dc0e0b031e7c64736f6c63430008190033","linkReferences":{}},"methodIdentifiers":{"buyerWithdraw()":"7cc947d0","changeLotteryState(uint8)":"683e93e1","deposit(uint256)":"b6b55f25","deposits(address)":"fc7e286d","endLottery()":"1593a8c7","fulfillRandomness(uint256,bytes)":"b3f6b99a","getDepositedAmount(address)":"e9081ec7","getParticipants()":"5aa68ac0","getWinners()":"df15c37e","hasMinted(address)":"38e21cce","increasePriceStep()":"96efac7b","initialPrice()":"1d0806ae","initialize((address,address,address,uint256,uint256,uint256,address,address,address,address))":"56d7c73a","isTrustedForwarder(address)":"572b6c05","isWinner(address)":"9d9ca28d","lotteryState()":"6939864b","lotteryV2Addr()":"7de13382","mintMyNFT()":"26170480","multisigWalletAddress()":"a61fb2ba","nftContractAddr()":"2c23ec8e","numberOfTickets()":"45745c10","operatorAddr()":"f3f18c37","operators(address)":"13e7c9d8","owner()":"8da5cb5b","prevRoundDeposits()":"b680e44b","prevRoundTicketsAmount()":"224f91bd","renounceOwnership()":"715018a6","requestPending(uint256)":"75ce7fff","requestRandomness()":"f8413b07","requestedHash(uint256)":"c4f8f27b","roundCounter()":"febc14b1","rounds(uint256)":"8c65c81f","selectWinners()":"1a0de74c","seller()":"08551a53","sellerWithdraw()":"66af746b","setOperator(address,bool)":"558a7297","setSeller(address)":"e99d2866","setupNewRound(uint256,uint256)":"a4f03c02","startLottery()":"160344e2","ticketPrice()":"1209b1f6","totalNumberOfTickets()":"00746702","transferDeposit(address,uint256)":"50f3dbec","transferNonWinnerBids(address)":"1630a8df","transferOwnership(address)":"f2fde38b","usdcContractAddr()":"99dbf4b5","winnerAddresses(uint256)":"045f9c97","winners(address)":"6bd5450a"},"id":50}