{"abi":[{"type":"function","name":"buyerWithdraw","inputs":[],"outputs":[],"stateMutability":"nonpayable"},{"type":"function","name":"changeLotteryState","inputs":[{"name":"_newState","type":"uint8","internalType":"enum SaleBase.LotteryState"}],"outputs":[],"stateMutability":"nonpayable"},{"type":"function","name":"deposit","inputs":[{"name":"amount","type":"uint256","internalType":"uint256"}],"outputs":[],"stateMutability":"nonpayable"},{"type":"function","name":"deposits","inputs":[{"name":"","type":"address","internalType":"address"}],"outputs":[{"name":"","type":"uint256","internalType":"uint256"}],"stateMutability":"view"},{"type":"function","name":"endLottery","inputs":[],"outputs":[],"stateMutability":"nonpayable"},{"type":"function","name":"fulfillRandomness","inputs":[{"name":"randomness","type":"uint256","internalType":"uint256"},{"name":"dataWithRound","type":"bytes","internalType":"bytes"}],"outputs":[],"stateMutability":"nonpayable"},{"type":"function","name":"getDepositedAmount","inputs":[{"name":"participant","type":"address","internalType":"address"}],"outputs":[{"name":"","type":"uint256","internalType":"uint256"}],"stateMutability":"view"},{"type":"function","name":"getParticipants","inputs":[],"outputs":[{"name":"","type":"address[]","internalType":"address[]"}],"stateMutability":"view"},{"type":"function","name":"getWinners","inputs":[],"outputs":[{"name":"","type":"address[]","internalType":"address[]"}],"stateMutability":"view"},{"type":"function","name":"hasMinted","inputs":[{"name":"","type":"address","internalType":"address"}],"outputs":[{"name":"","type":"bool","internalType":"bool"}],"stateMutability":"view"},{"type":"function","name":"increasePriceStep","inputs":[],"outputs":[{"name":"","type":"uint256","internalType":"uint256"}],"stateMutability":"view"},{"type":"function","name":"initialPrice","inputs":[],"outputs":[{"name":"","type":"uint256","internalType":"uint256"}],"stateMutability":"view"},{"type":"function","name":"initialize","inputs":[{"name":"config","type":"tuple","internalType":"struct StructsLibrary.IAuctionV1BaseConfig","components":[{"name":"_seller","type":"address","internalType":"address"},{"name":"_gelatoVrfOperator","type":"address","internalType":"address"},{"name":"_owner","type":"address","internalType":"address"},{"name":"_ticketAmount","type":"uint256","internalType":"uint256"},{"name":"_ticketPrice","type":"uint256","internalType":"uint256"},{"name":"_priceIncreaseStep","type":"uint256","internalType":"uint256"},{"name":"_usdcContractAddr","type":"address","internalType":"address"},{"name":"_nftContractAddr","type":"address","internalType":"address"},{"name":"_multisigWalletAddress","type":"address","internalType":"address"},{"name":"_prevPhaseContractAddr","type":"address","internalType":"address"}]}],"outputs":[],"stateMutability":"nonpayable"},{"type":"function","name":"isTrustedForwarder","inputs":[{"name":"forwarder","type":"address","internalType":"address"}],"outputs":[{"name":"","type":"bool","internalType":"bool"}],"stateMutability":"view"},{"type":"function","name":"isWinner","inputs":[{"name":"_participant","type":"address","internalType":"address"}],"outputs":[{"name":"","type":"bool","internalType":"bool"}],"stateMutability":"view"},{"type":"function","name":"lotteryState","inputs":[],"outputs":[{"name":"","type":"uint8","internalType":"enum SaleBase.LotteryState"}],"stateMutability":"view"},{"type":"function","name":"lotteryV2Addr","inputs":[],"outputs":[{"name":"","type":"address","internalType":"address"}],"stateMutability":"view"},{"type":"function","name":"mintMyNFT","inputs":[],"outputs":[],"stateMutability":"nonpayable"},{"type":"function","name":"multisigWalletAddress","inputs":[],"outputs":[{"name":"","type":"address","internalType":"address"}],"stateMutability":"view"},{"type":"function","name":"nftContractAddr","inputs":[],"outputs":[{"name":"","type":"address","internalType":"address"}],"stateMutability":"view"},{"type":"function","name":"numberOfTickets","inputs":[],"outputs":[{"name":"","type":"uint256","internalType":"uint256"}],"stateMutability":"view"},{"type":"function","name":"operatorAddr","inputs":[],"outputs":[{"name":"","type":"address","internalType":"address"}],"stateMutability":"view"},{"type":"function","name":"operators","inputs":[{"name":"","type":"address","internalType":"address"}],"outputs":[{"name":"","type":"bool","internalType":"bool"}],"stateMutability":"view"},{"type":"function","name":"owner","inputs":[],"outputs":[{"name":"","type":"address","internalType":"address"}],"stateMutability":"view"},{"type":"function","name":"prevRoundDeposits","inputs":[],"outputs":[{"name":"","type":"uint256","internalType":"uint256"}],"stateMutability":"view"},{"type":"function","name":"prevRoundTicketsAmount","inputs":[],"outputs":[{"name":"","type":"uint256","internalType":"uint256"}],"stateMutability":"view"},{"type":"function","name":"renounceOwnership","inputs":[],"outputs":[],"stateMutability":"nonpayable"},{"type":"function","name":"requestPending","inputs":[{"name":"","type":"uint256","internalType":"uint256"}],"outputs":[{"name":"","type":"bool","internalType":"bool"}],"stateMutability":"view"},{"type":"function","name":"requestRandomness","inputs":[],"outputs":[],"stateMutability":"nonpayable"},{"type":"function","name":"requestedHash","inputs":[{"name":"","type":"uint256","internalType":"uint256"}],"outputs":[{"name":"","type":"bytes32","internalType":"bytes32"}],"stateMutability":"view"},{"type":"function","name":"roundCounter","inputs":[],"outputs":[{"name":"","type":"uint256","internalType":"uint256"}],"stateMutability":"view"},{"type":"function","name":"rounds","inputs":[{"name":"","type":"uint256","internalType":"uint256"}],"outputs":[{"name":"number","type":"uint256","internalType":"uint256"},{"name":"finishAt","type":"uint256","internalType":"uint256"},{"name":"numberOfTickets","type":"uint256","internalType":"uint256"},{"name":"randomNumber","type":"uint256","internalType":"uint256"},{"name":"lotteryStarted","type":"bool","internalType":"bool"},{"name":"lotteryFinished","type":"bool","internalType":"bool"},{"name":"winnersSelected","type":"bool","internalType":"bool"}],"stateMutability":"view"},{"type":"function","name":"selectWinners","inputs":[],"outputs":[],"stateMutability":"nonpayable"},{"type":"function","name":"seller","inputs":[],"outputs":[{"name":"","type":"address","internalType":"address"}],"stateMutability":"view"},{"type":"function","name":"sellerWithdraw","inputs":[],"outputs":[],"stateMutability":"nonpayable"},{"type":"function","name":"setOperator","inputs":[{"name":"_operatorAddr","type":"address","internalType":"address"},{"name":"_flag","type":"bool","internalType":"bool"}],"outputs":[],"stateMutability":"nonpayable"},{"type":"function","name":"setSeller","inputs":[{"name":"_seller","type":"address","internalType":"address"}],"outputs":[],"stateMutability":"nonpayable"},{"type":"function","name":"setupNewRound","inputs":[{"name":"_finishAt","type":"uint256","internalType":"uint256"},{"name":"_numberOfTickets","type":"uint256","internalType":"uint256"}],"outputs":[],"stateMutability":"nonpayable"},{"type":"function","name":"startLottery","inputs":[],"outputs":[],"stateMutability":"nonpayable"},{"type":"function","name":"ticketPrice","inputs":[],"outputs":[{"name":"","type":"uint256","internalType":"uint256"}],"stateMutability":"view"},{"type":"function","name":"totalNumberOfTickets","inputs":[],"outputs":[{"name":"","type":"uint256","internalType":"uint256"}],"stateMutability":"view"},{"type":"function","name":"transferDeposit","inputs":[{"name":"_participant","type":"address","internalType":"address"},{"name":"_amount","type":"uint256","internalType":"uint256"}],"outputs":[],"stateMutability":"nonpayable"},{"type":"function","name":"transferNonWinnerBids","inputs":[{"name":"destinationAddr","type":"address","internalType":"address"}],"outputs":[],"stateMutability":"nonpayable"},{"type":"function","name":"transferOwnership","inputs":[{"name":"newOwner","type":"address","internalType":"address"}],"outputs":[],"stateMutability":"nonpayable"},{"type":"function","name":"usdcContractAddr","inputs":[],"outputs":[{"name":"","type":"address","internalType":"address"}],"stateMutability":"view"},{"type":"function","name":"winnerAddresses","inputs":[{"name":"","type":"uint256","internalType":"uint256"}],"outputs":[{"name":"","type":"address","internalType":"address"}],"stateMutability":"view"},{"type":"function","name":"winners","inputs":[{"name":"","type":"address","internalType":"address"}],"outputs":[{"name":"","type":"bool","internalType":"bool"}],"stateMutability":"view"},{"type":"event","name":"BuyerDeposited","inputs":[{"name":"buyer","type":"address","indexed":true,"internalType":"address"},{"name":"amount","type":"uint256","indexed":true,"internalType":"uint256"}],"anonymous":false},{"type":"event","name":"BuyerWithdrew","inputs":[{"name":"buyer","type":"address","indexed":true,"internalType":"address"},{"name":"amount","type":"uint256","indexed":true,"internalType":"uint256"}],"anonymous":false},{"type":"event","name":"DepositsReturned","inputs":[{"name":"returnedDepositsCount","type":"uint256","indexed":false,"internalType":"uint256"}],"anonymous":false},{"type":"event","name":"Initialized","inputs":[{"name":"version","type":"uint64","indexed":false,"internalType":"uint64"}],"anonymous":false},{"type":"event","name":"LotteryEnded","inputs":[],"anonymous":false},{"type":"event","name":"LotteryStarted","inputs":[],"anonymous":false},{"type":"event","name":"OwnershipTransferred","inputs":[{"name":"previousOwner","type":"address","indexed":true,"internalType":"address"},{"name":"newOwner","type":"address","indexed":true,"internalType":"address"}],"anonymous":false},{"type":"event","name":"RandomFulfilled","inputs":[{"name":"number","type":"uint256","indexed":false,"internalType":"uint256"}],"anonymous":false},{"type":"event","name":"RandomRequested","inputs":[{"name":"requester","type":"address","indexed":true,"internalType":"address"}],"anonymous":false},{"type":"event","name":"RequestedRandomness","inputs":[{"name":"round","type":"uint256","indexed":false,"internalType":"uint256"},{"name":"data","type":"bytes","indexed":false,"internalType":"bytes"}],"anonymous":false},{"type":"event","name":"RoundSet","inputs":[{"name":"roundNumber","type":"uint256","indexed":true,"internalType":"uint256"},{"name":"finishAt","type":"uint256","indexed":false,"internalType":"uint256"},{"name":"numberOfTickets","type":"uint256","indexed":false,"internalType":"uint256"}],"anonymous":false},{"type":"event","name":"WinnerSelected","inputs":[{"name":"winner","type":"address","indexed":true,"internalType":"address"}],"anonymous":false},{"type":"error","name":"InvalidInitialization","inputs":[]},{"type":"error","name":"NotInitializing","inputs":[]},{"type":"error","name":"OwnableInvalidOwner","inputs":[{"name":"owner","type":"address","internalType":"address"}]},{"type":"error","name":"OwnableUnauthorizedAccount","inputs":[{"name":"account","type":"address","internalType":"address"}]}],"bytecode":{"object":"0x60a060405260016014556001601555600560165534801561001f57600080fd5b5073d8253782c45a12053594b9deb72d8e8ab2fca54c338061005b57604051631e4fbdf760e01b81526000600482015260240160405180910390fd5b6100648161007e565b506001600160a01b03166080526100796100ce565b610180565b600080546001600160a01b038381166001600160a01b0319831681178455604051919092169283917f8be0079c531659141344cd1fd0a4f28419497f9722a3daafe3b4186f6b6457e09190a35050565b7ff0c57e16840df040f15088dc2f81fe391c3923bec73e23a9662efc9c229c6a00805468010000000000000000900460ff161561011e5760405163f92ee8a960e01b815260040160405180910390fd5b80546001600160401b039081161461017d5780546001600160401b0319166001600160401b0390811782556040519081527fc7f505b2f371ae2175ee4913f4499e1f2633a7b5936321eed1cdaeb6115181d29060200160405180910390a15b50565b6080516131ea6101a2600039600081816103fe0152612ad601526131ea6000f3fe608060405234801561001057600080fd5b50600436106102945760003560e01c80636bd5450a11610167578063b3f6b99a116100ce578063e99d286611610087578063e99d286614610665578063f2fde38b14610678578063f3f18c371461068b578063f8413b071461069e578063fc7e286d146106a6578063febc14b1146106c657600080fd5b8063b3f6b99a146105e5578063b680e44b146105f8578063b6b55f2514610601578063c4f8f27b14610614578063df15c37e14610634578063e9081ec71461063c57600080fd5b80638da5cb5b116101205780638da5cb5b1461056657806396efac7b1461057757806399dbf4b5146105805780639d9ca28d14610593578063a4f03c02146105bf578063a61fb2ba146105d257600080fd5b80636bd5450a1461047f578063715018a6146104a257806375ce7fff146104aa5780637cc947d0146104bd5780637de13382146104c55780638c65c81f146104d857600080fd5b8063261704801161020b57806356d7c73a116101c457806356d7c73a146103db578063572b6c05146103ee5780635aa68ac01461042e57806366af746b14610443578063683e93e11461044b5780636939864b1461045e57600080fd5b8063261704801461036e5780632c23ec8e1461037657806338e21cce1461038957806345745c10146103ac57806350f3dbec146103b5578063558a7297146103c857600080fd5b80631593a8c71161025d5780631593a8c71461032f578063160344e2146103395780631630a8df146103415780631a0de74c146103545780631d0806ae1461035c578063224f91bd1461036557600080fd5b806274670214610299578063045f9c97146102b557806308551a53146102e05780631209b1f6146102f357806313e7c9d8146102fc575b600080fd5b6102a260175481565b6040519081526020015b60405180910390f35b6102c86102c3366004612b9f565b6106cf565b6040516001600160a01b0390911681526020016102ac565b6002546102c8906001600160a01b031681565b6102a260045481565b61031f61030a366004612bd4565b60106020526000908152604090205460ff1681565b60405190151581526020016102ac565b6103376106f9565b005b610337610771565b61033761034f366004612bd4565b61084c565b610337610a35565b6102a260135481565b6102a260155481565b610337610ea7565b600a546102c8906001600160a01b031681565b61031f610397366004612bd4565b60056020526000908152604090205460ff1681565b6102a260035481565b6103376103c3366004612bf6565b611007565b6103376103d6366004612c2e565b611147565b6103376103e9366004612cd6565b61117a565b61031f6103fc366004612bd4565b7f00000000000000000000000000000000000000000000000000000000000000006001600160a01b0390811691161490565b61043661134e565b6040516102ac9190612d89565b6103376113b0565b610337610459366004612dd6565b6115e1565b60005461047290600160a01b900460ff1681565b6040516102ac9190612e0d565b61031f61048d366004612bd4565b60076020526000908152604090205460ff1681565b610337611648565b61031f6104b8366004612b9f565b61165c565b610337611690565b6011546102c8906001600160a01b031681565b61052b6104e6366004612b9f565b600e60205260009081526040902080546001820154600283015460038401546004909401549293919290919060ff808216916101008104821691620100009091041687565b60408051978852602088019690965294860193909352606085019190915215156080840152151560a0830152151560c082015260e0016102ac565b6000546001600160a01b03166102c8565b6102a260165481565b600b546102c8906001600160a01b031681565b61031f6105a1366004612bd4565b6001600160a01b031660009081526007602052604090205460ff1690565b6103376105cd366004612e35565b6118d4565b6001546102c8906001600160a01b031681565b6103376105f3366004612e57565b611c9d565b6102a260145481565b61033761060f366004612b9f565b611e77565b6102a2610622366004612b9f565b600d6020526000908152604090205481565b61043661226e565b6102a261064a366004612bd4565b6001600160a01b031660009081526006602052604090205490565b610337610673366004612bd4565b6122ce565b610337610686366004612bd4565b61232a565b6012546102c8906001600160a01b031681565b610337612365565b6102a26106b4366004612bd4565b60066020526000908152604090205481565b6102a2600f5481565b600881815481106106df57600080fd5b6000918252602090912001546001600160a01b0316905081565b6002546001600160a01b031661070d612503565b6001600160a01b03161461073c5760405162461bcd60e51b815260040161073390612ed3565b60405180910390fd5b61074660026115e1565b6040517f9c89a6ed7228533196a3f962acc80d61a9c53bdea6b910741bf754f5aaa7569e90600090a1565b6002546001600160a01b0316610785612503565b6001600160a01b0316146107ab5760405162461bcd60e51b815260040161073390612ed3565b60008054600160a01b900460ff1660028111156107ca576107ca612df7565b146108175760405162461bcd60e51b815260206004820152601760248201527f53616c6520697320696e206163746976652073746174650000000000000000006044820152606401610733565b61082160016115e1565b6040517fd029c7c68d943f92286a7825fa6aa2deefa1eee46cee6c91b7e483fd06d27baf90600090a1565b6002546001600160a01b0316610860612503565b6001600160a01b0316146108865760405162461bcd60e51b815260040161073390612ed3565b60005b600954811015610a2557600060066000600984815481106108ac576108ac612f15565b60009182526020808320909101546001600160a01b0316835282019290925260400181205460098054919350600691839190869081106108ee576108ee612f15565b6000918252602080832091909101546001600160a01b039081168452908301939093526040918201902092909255600b54915163a9059cbb60e01b815285821660048201526024810184905291169063a9059cbb906044016020604051808303816000875af1158015610965573d6000803e3d6000fd5b505050506040513d601f19601f820116820180604052508101906109899190612f2b565b50826001600160a01b03166350f3dbec600984815481106109ac576109ac612f15565b60009182526020909120015460405160e083901b6001600160e01b03191681526001600160a01b03909116600482015260248101849052604401600060405180830381600087803b158015610a0057600080fd5b505af1158015610a14573d6000803e3d6000fd5b505060019093019250610889915050565b50610a3260096000612b6d565b50565b6002546001600160a01b0316610a49612503565b6001600160a01b031614610a6f5760405162461bcd60e51b815260040161073390612ed3565b6000600e60006001600f54610a849190612f5e565b81526020019081526020016000206003015411610af95760405162461bcd60e51b815260206004820152602d60248201527f52616e646f6d206e756d62657220666f72206c61737420726f756e642069732060448201526c1b9bdd0819d95b995c985d1959609a1b6064820152608401610733565b600060035411610b4b5760405162461bcd60e51b815260206004820152601b60248201527f4e6f207469636b657473206c65667420746f20616c6c6f6361746500000000006044820152606401610733565b6000805460ff60a01b1916600160a01b1790556009546003548111610c255760005b81811015610c0e57600060098281548110610b8a57610b8a612f15565b6000918252602090912001546001600160a01b03169050610bc3816001600160a01b031660009081526007602052604090205460ff1690565b610c0557610bd081612512565b6040516001600160a01b038216907f1d4c260f1824cd028e6c9e6e31c3a0b94f2513e7a641113ec759d382f9bdd5a190600090a25b50600101610b6d565b50610c1b60096000612b6d565b6000600355610e09565b60005b81811015610d5b576000610c3c8284612f5e565b600e60006001600f54610c4f9190612f5e565b815260200190815260200160002060030154610c6b9190612f8d565b610c759083612fa1565b9050600060098281548110610c8c57610c8c612f15565b600091825260209091200154600980546001600160a01b0390921692509084908110610cba57610cba612f15565b600091825260209091200154600980546001600160a01b039092169184908110610ce657610ce6612f15565b9060005260206000200160006101000a8154816001600160a01b0302191690836001600160a01b031602179055508060098481548110610d2857610d28612f15565b600091825260209091200180546001600160a01b0319166001600160a01b03929092169190911790555050600101610c28565b5060005b600354811015610e0257600060098281548110610d7e57610d7e612f15565b6000918252602090912001546001600160a01b03169050610db7816001600160a01b031660009081526007602052604090205460ff1690565b610df957610dc481612512565b6040516001600160a01b038216907f1d4c260f1824cd028e6c9e6e31c3a0b94f2513e7a641113ec759d382f9bdd5a190600090a25b50600101610d5f565b5060006003555b6001600e60006001600f54610e1e9190612f5e565b8152602081019190915260400160009081206004018054921515620100000262ff00001990931692909217909155805460ff60a01b191681556017549003610a32576000805460ff60a01b1916600160a11b179055610e7b61259e565b6040517f9c89a6ed7228533196a3f962acc80d61a9c53bdea6b910741bf754f5aaa7569e90600090a150565b60056000610eb3612503565b6001600160a01b0316815260208101919091526040016000205460ff1615610f125760405162461bcd60e51b815260206004820152601260248201527113919508185b1c9958591e481b5a5b9d195960721b6044820152606401610733565b610f1d6105a1612503565b610f625760405162461bcd60e51b815260206004820152601660248201527521b0b63632b91034b9903737ba1030903bb4b73732b960511b6044820152606401610733565b600160056000610f70612503565b6001600160a01b0390811682526020820192909252604001600020805460ff191692151592909217909155600a5416636b8f60f6610fac612503565b6040516001600160e01b031960e084901b1681526001600160a01b039091166004820152602401600060405180830381600087803b158015610fed57600080fd5b505af1158015611001573d6000803e3d6000fd5b50505050565b61100f612503565b6011546001600160a01b0390811691161461107c5760405162461bcd60e51b815260206004820152602760248201527f4f6e6c792077686974656c6973746564206d61792063616c6c207468697320666044820152663ab731ba34b7b760c91b6064820152608401610733565b60066000611088612503565b6001600160a01b03166001600160a01b03168152602001908152602001600020546000036110fc57600980546001810182556000919091527f6e1540171b6c0c960b71a7020d9f60077f6af931a8bbf590da0223dacf75c7af0180546001600160a01b0319166001600160a01b0384161790555b6001600160a01b03821660009081526006602052604081208054839290611124908490612fa1565b9250508190555060016014600082825461113e9190612fa1565b90915550505050565b61114f6128ba565b6001600160a01b03919091166000908152601060205260409020805460ff1916911515919091179055565b7ff0c57e16840df040f15088dc2f81fe391c3923bec73e23a9662efc9c229c6a008054600160401b810460ff16159067ffffffffffffffff166000811580156111c05750825b905060008267ffffffffffffffff1660011480156111dd5750303b155b9050811580156111eb575080155b156112095760405163f92ee8a960e01b815260040160405180910390fd5b845467ffffffffffffffff19166001178555831561123357845460ff60401b1916600160401b1785555b8551600280546001600160a01b039283166001600160a01b031991821617909155602088015160128054919093169116179055604086015161127490612918565b6060860151601755608086015160038190556015819055600481905560135560a086015160165560c0860151600b80546001600160a01b03199081166001600160a01b039384161790915560e0880151600a80548316918416919091179055610100880151600180548316918416919091178155610120890151601180549093169316929092179055600f55831561134657845460ff60401b19168555604051600181527fc7f505b2f371ae2175ee4913f4499e1f2633a7b5936321eed1cdaeb6115181d29060200160405180910390a15b505050505050565b606060098054806020026020016040519081016040528092919081815260200182805480156113a657602002820191906000526020600020905b81546001600160a01b03168152600190910190602001808311611388575b5050505050905090565b6002546001600160a01b03166113c4612503565b6001600160a01b0316146113ea5760405162461bcd60e51b815260040161073390612ed3565b6002600054600160a01b900460ff16600281111561140a5761140a612df7565b1461144b5760405162461bcd60e51b8152602060048201526011602482015270131bdd1d195c9e481b9bdd08195b991959607a1b6044820152606401610733565b6000805b6008548110156114c45760006008828154811061146e5761146e612f15565b60009182526020808320909101546001600160a01b031680835260069091526040909120549091506114a09084612fa1565b6001600160a01b03909116600090815260066020526040812055915060010161144f565b50600060646114d4836005612fb4565b6114de9190612fcb565b905060006114ec8284612f5e565b600b5460015460405163a9059cbb60e01b81526001600160a01b03918216600482015260248101869052929350169063a9059cbb906044016020604051808303816000875af1158015611543573d6000803e3d6000fd5b505050506040513d601f19601f820116820180604052508101906115679190612f2b565b50600b5460025460405163a9059cbb60e01b81526001600160a01b0391821660048201526024810184905291169063a9059cbb906044016020604051808303816000875af11580156115bd573d6000803e3d6000fd5b505050506040513d601f19601f820116820180604052508101906110019190612f2b565b6002546001600160a01b03166115f5612503565b6001600160a01b03161461161b5760405162461bcd60e51b815260040161073390612ed3565b6000805482919060ff60a01b1916600160a01b83600281111561164057611640612df7565b021790555050565b6116506128ba565b61165a6000612918565b565b600c818154811061166c57600080fd5b9060005260206000209060209182820401919006915054906101000a900460ff1681565b6002600054600160a01b900460ff1660028111156116b0576116b0612df7565b146116f55760405162461bcd60e51b815260206004820152601560248201527414d85b19481a5cc81b9bdd08195b991959081e595d605a1b6044820152606401610733565b60076000611701612503565b6001600160a01b0316815260208101919091526040016000205460ff161561176b5760405162461bcd60e51b815260206004820152601760248201527f57696e6e6572732063616e6e6f742077697468647261770000000000000000006044820152606401610733565b600060066000611779612503565b6001600160a01b03166001600160a01b03168152602001908152602001600020549050600081116117e35760405162461bcd60e51b81526020600482015260146024820152734e6f2066756e647320746f20776974686472617760601b6044820152606401610733565b6000600660006117f1612503565b6001600160a01b039081168252602082019290925260400160002091909155600b541663a9059cbb611821612503565b6040516001600160e01b031960e084901b1681526001600160a01b039091166004820152602481018490526044016020604051808303816000875af115801561186e573d6000803e3d6000fd5b505050506040513d601f19601f820116820180604052508101906118929190612f2b565b508061189c612503565b6001600160a01b03167f1f280cd00e67ed50213ac03febd5be151f96b7f7db2f85312aa0feff99f8bdab60405160405180910390a350565b6002546001600160a01b03166118e8612503565b6001600160a01b0316148061191757506000546001600160a01b031661190c612503565b6001600160a01b0316145b80611947575060106000611929612503565b6001600160a01b0316815260208101919091526040016000205460ff165b61199f5760405162461bcd60e51b8152602060048201526024808201527f4f6e6c79206f70657261746f722063616e2063616c6c20746869732066756e636044820152633a34b7b760e11b6064820152608401610733565b601754811115611a2c5760405162461bcd60e51b815260206004820152604c60248201527f5469636b6574732070657220726f756e642063616e6e6f74206265206869676860448201527f6572207468616e20746f74616c206e756d626572206f66207469636b6574732060648201526b696e2041756374696f6e563160a01b608482015260a401610733565b6001600f541115611ad157600e60006001600f54611a4a9190612f5e565b815260200190815260200160002060040160029054906101000a900460ff1615156001151514611ad15760405162461bcd60e51b815260206004820152602c60248201527f46696e697368206c61737420726f756e642066697273742062792073656c656360448201526b74696e672077696e6e65727360a01b6064820152608401610733565b611add60096000612b6d565b600060175460145410611b1b57601554601454611afa9190612fcb565b601654611b079190612fb4565b600454611b149190612fa1565b9050611b6e565b6000601554601454611b2d9190612fcb565b611b38906001612f5e565b601654611b459190612fb4565b9050806004541115611b665780600454611b5f9190612f5e565b9150611b6c565b60135491505b505b6004819055600060148190556003839055601583905560178054849290611b96908490612f5e565b90915550506040805160e081018252600f54808252602080830187815283850187815260006060860181815260016080880181815260a0890184815260c08a01858152988552600e90975298909220965187559251868201559051600286015590516003850155935160049093018054915192511515620100000262ff0000199315156101000261ff00199515159590951661ffff19909316929092179390931791909116179055611c47906115e1565b600f5460408051858152602081018590527fa809180f68c3ea85ec47001279a9070abd80a3022aa303b0fd92eb0e7538d42b910160405180910390a2600f8054906000611c9383612fdf565b9190505550505050565b6012546001600160a01b03163314611ce75760405162461bcd60e51b815260206004820152600d60248201526c37b7363c9037b832b930ba37b960991b6044820152606401610733565b6000611cf582840184613020565b91505060008082806020019051810190611d0f91906130ce565b9150915060008585604051611d25929190613151565b604051809103902090506000600d60008581526020019081526020016000205482149050600c8481548110611d5c57611d5c612f15565b90600052602060002090602091828204019190069054906101000a900460ff16611dc85760405162461bcd60e51b815260206004820152601c60248201527f726571756573742066756c66696c6c6564206f72206d697373696e67000000006044820152606401610733565b8015611e6d5760408051602081018a905230918101919091524660608201526080810185905260a0016040516020818303038152906040528051906020012060001c9750611e17888585612968565b6000600c8581548110611e2c57611e2c612f15565b90600052602060002090602091828204019190066101000a81548160ff021916908315150217905550600d6000858152602001908152602001600020600090555b5050505050505050565b611e826105a1612503565b15611ec85760405162461bcd60e51b815260206004820152601660248201527515da5b9b995c9cc818d85b9b9bdd0819195c1bdcda5d60521b6044820152606401610733565b600b546001600160a01b0316611f205760405162461bcd60e51b815260206004820152601d60248201527f5553444320636f6e74726163742061646472657373206e6f74207365740000006044820152606401610733565b600454811015611f6a5760405162461bcd60e51b8152602060048201526015602482015274139bdd08195b9bdd59da08199d5b991cc81cd95b9d605a1b6044820152606401610733565b600b5481906001600160a01b031663dd62ed3e611f85612503565b6040516001600160e01b031960e084901b1681526001600160a01b039091166004820152306024820152604401602060405180830381865afa158015611fcf573d6000803e3d6000fd5b505050506040513d601f19601f82011682018060405250810190611ff39190613161565b101561203a5760405162461bcd60e51b8152602060048201526016602482015275496e73756666696369656e7420616c6c6f77616e636560501b6044820152606401610733565b600e60006001600f5461204d9190612f5e565b8152602081019190915260400160002060040154610100900460ff16156120c85760405162461bcd60e51b815260206004820152602960248201527f596f752063616e2774206465706f73697420616674657220726f756e6420697360448201526808199a5b9a5cda195960ba1b6064820152608401610733565b600b546001600160a01b03166323b872dd6120e1612503565b6040516001600160e01b031960e084901b1681526001600160a01b039091166004820152306024820152604481018490526064016020604051808303816000875af1158015612134573d6000803e3d6000fd5b505050506040513d601f19601f820116820180604052508101906121589190612f2b565b5060066000612165612503565b6001600160a01b03166001600160a01b03168152602001908152602001600020546000036121ca576009612197612503565b81546001810183556000928352602090922090910180546001600160a01b0319166001600160a01b039092169190911790555b80600660006121d7612503565b6001600160a01b03166001600160a01b0316815260200190815260200160002060008282546122069190612fa1565b9091555050600454811061222d576001601460008282546122279190612fa1565b90915550505b80612236612503565b6001600160a01b03167f21040858e63c11c046482f61f290bbe25972fc74b11b4570a01f9241082d21f160405160405180910390a350565b606060088054806020026020016040519081016040528092919081815260200182805480156113a6576020028201919060005260206000209081546001600160a01b03168152600190910190602001808311611388575050505050905090565b6002546001600160a01b03166122e2612503565b6001600160a01b0316146123085760405162461bcd60e51b815260040161073390612ed3565b600280546001600160a01b0319166001600160a01b0392909216919091179055565b6123326128ba565b6001600160a01b03811661235c57604051631e4fbdf760e01b815260006004820152602401610733565b610a3281612918565b6002546001600160a01b0316612379612503565b6001600160a01b03161461239f5760405162461bcd60e51b815260040161073390612ed3565b6001600f54116123e55760405162461bcd60e51b815260206004820152601160248201527014d95d1d5c08199a5c9cdd081c9bdd5b99607a1b6044820152606401610733565b42600e60006001600f546123f99190612f5e565b81526020019081526020016000206001015411156124525760405162461bcd60e51b8152602060048201526016602482015275149bdd5b99081a5cc81b9bdd08195b991959081e595d60521b6044820152606401610733565b6001600e60006001600f546124679190612f5e565b815260200190815260200160002060040160016101000a81548160ff0219169083151502179055506124c361249a612503565b604080516001600160a01b039092166020830152016040516020818303038152906040526129cf565b506124cc612503565b6001600160a01b03167fd802e7c7f1646e3318c03abed1e468bdf913f45331a68dc912a0d645eb646a4260405160405180910390a2565b600061250d612ad2565b905090565b6001600160a01b038116600081815260076020526040808220805460ff1916600190811790915560088054918201815583527ff3f7a9fe364faab93b216da50a3214154f22a0a2b415b23a84c8169e8b636ee30180546001600160a01b03191684179055517f1d4c260f1824cd028e6c9e6e31c3a0b94f2513e7a641113ec759d382f9bdd5a19190a250565b6002546001600160a01b03166125b2612503565b6001600160a01b0316146125d85760405162461bcd60e51b815260040161073390612ed3565b6002600054600160a01b900460ff1660028111156125f8576125f8612df7565b1461263d5760405162461bcd60e51b815260206004820152601560248201527414d85b19481a5cc81b9bdd08195b991959081e595d605a1b6044820152606401610733565b60095460008167ffffffffffffffff81111561265b5761265b612c65565b604051908082528060200260200182016040528015612684578160200160208202803683370190505b50905060005b828110156126f557600981815481106126a5576126a5612f15565b9060005260206000200160009054906101000a90046001600160a01b03168282815181106126d5576126d5612f15565b6001600160a01b039092166020928302919091019091015260010161268a565b5060005b8281101561287657600082828151811061271557612715612f15565b6020908102919091018101516001600160a01b0381166000908152600683526040808220805490839055600790945290205490925060ff16156127f35760045481106127ee5760006004548261276b9190612f5e565b905080156127ec57600b5460405163a9059cbb60e01b81526001600160a01b038581166004830152602482018490529091169063a9059cbb906044016020604051808303816000875af11580156127c6573d6000803e3d6000fd5b505050506040513d601f19601f820116820180604052508101906127ea9190612f2b565b505b505b61286c565b600b5460405163a9059cbb60e01b81526001600160a01b038481166004830152602482018490529091169063a9059cbb906044016020604051808303816000875af1158015612846573d6000803e3d6000fd5b505050506040513d601f19601f8201168201806040525081019061286a9190612f2b565b505b50506001016126f9565b5061288360096000612b6d565b6040518281527f01f8aef848121bbf182106b55119c1094063c572b6c8dcb09040e1203a17abf99060200160405180910390a15050565b6128c2612503565b6001600160a01b03166128dd6000546001600160a01b031690565b6001600160a01b03161461165a576128f3612503565b60405163118cdaa760e01b81526001600160a01b039091166004820152602401610733565b600080546001600160a01b038381166001600160a01b0319831681178455604051919092169283917f8be0079c531659141344cd1fd0a4f28419497f9722a3daafe3b4186f6b6457e09190a35050565b82600e60006001600f5461297c9190612f5e565b8152602001908152602001600020600301819055507f79518eb4b6f70742e6651b03a2ac2bc644ea2613e8de56247857c5be5fc2a0ba836040516129c291815260200190565b60405180910390a1505050565b600c80546001808201808455600084905291929091839081106129f4576129f4612f15565b90600052602060002090602091828204019190066101000a81548160ff02191690831515021790555060008183604051602001612a3292919061317a565b60405160208183030381529060405290506000612a4d612b16565b905060008183604051602001612a6492919061317a565b60408051601f1981840301815282825280516020808301919091206000898152600d9092529290208290559250907fd91fc3685b930310b008ec37d2334870cab88a023ed8cc628a2e2ccd4e55d20290612ac1908590879061317a565b60405180910390a150505050919050565b60007f00000000000000000000000000000000000000000000000000000000000000006001600160a01b03163303612b11575060131936013560601c90565b503390565b600080612b276364e6212742612f5e565b90506000612b36600383612fcb565b612b41906001612fa1565b905046600114612b5b57612b56816001612fa1565b612b66565b612b66816004612fa1565b9250505090565b5080546000825590600052602060002090810190610a3291905b80821115612b9b5760008155600101612b87565b5090565b600060208284031215612bb157600080fd5b5035919050565b80356001600160a01b0381168114612bcf57600080fd5b919050565b600060208284031215612be657600080fd5b612bef82612bb8565b9392505050565b60008060408385031215612c0957600080fd5b612c1283612bb8565b946020939093013593505050565b8015158114610a3257600080fd5b60008060408385031215612c4157600080fd5b612c4a83612bb8565b91506020830135612c5a81612c20565b809150509250929050565b634e487b7160e01b600052604160045260246000fd5b604051610140810167ffffffffffffffff81118282101715612c9f57612c9f612c65565b60405290565b604051601f8201601f1916810167ffffffffffffffff81118282101715612cce57612cce612c65565b604052919050565b60006101408284031215612ce957600080fd5b612cf1612c7b565b612cfa83612bb8565b8152612d0860208401612bb8565b6020820152612d1960408401612bb8565b6040820152606083013560608201526080830135608082015260a083013560a0820152612d4860c08401612bb8565b60c0820152612d5960e08401612bb8565b60e0820152610100612d6c818501612bb8565b90820152610120612d7e848201612bb8565b908201529392505050565b6020808252825182820181905260009190848201906040850190845b81811015612dca5783516001600160a01b031683529284019291840191600101612da5565b50909695505050505050565b600060208284031215612de857600080fd5b813560038110612bef57600080fd5b634e487b7160e01b600052602160045260246000fd5b6020810160038310612e2f57634e487b7160e01b600052602160045260246000fd5b91905290565b60008060408385031215612e4857600080fd5b50508035926020909101359150565b600080600060408486031215612e6c57600080fd5b83359250602084013567ffffffffffffffff80821115612e8b57600080fd5b818601915086601f830112612e9f57600080fd5b813581811115612eae57600080fd5b876020828501011115612ec057600080fd5b6020830194508093505050509250925092565b60208082526022908201527f4f6e6c792073656c6c65722063616e2063616c6c20746869732066756e63746960408201526137b760f11b606082015260800190565b634e487b7160e01b600052603260045260246000fd5b600060208284031215612f3d57600080fd5b8151612bef81612c20565b634e487b7160e01b600052601160045260246000fd5b81810381811115612f7157612f71612f48565b92915050565b634e487b7160e01b600052601260045260246000fd5b600082612f9c57612f9c612f77565b500690565b80820180821115612f7157612f71612f48565b8082028115828204841417612f7157612f71612f48565b600082612fda57612fda612f77565b500490565b600060018201612ff157612ff1612f48565b5060010190565b600067ffffffffffffffff82111561301257613012612c65565b50601f01601f191660200190565b6000806040838503121561303357600080fd5b82359150602083013567ffffffffffffffff81111561305157600080fd5b8301601f8101851361306257600080fd5b803561307561307082612ff8565b612ca5565b81815286602083850101111561308a57600080fd5b816020840160208301376000602083830101528093505050509250929050565b60005b838110156130c55781810151838201526020016130ad565b50506000910152565b600080604083850312156130e157600080fd5b82519150602083015167ffffffffffffffff8111156130ff57600080fd5b8301601f8101851361311057600080fd5b805161311e61307082612ff8565b81815286602083850101111561313357600080fd5b6131448260208301602086016130aa565b8093505050509250929050565b8183823760009101908152919050565b60006020828403121561317357600080fd5b5051919050565b828152604060208201526000825180604084015261319f8160608501602087016130aa565b601f01601f191691909101606001939250505056fea2646970667358221220b20016e2b54670afa62934533c121e494661fa94b49ff7760df7e4ad8f60e8a164736f6c63430008190033","linkReferences":{}},"methodIdentifiers":{"buyerWithdraw()":"7cc947d0","changeLotteryState(uint8)":"683e93e1","deposit(uint256)":"b6b55f25","deposits(address)":"fc7e286d","endLottery()":"1593a8c7","fulfillRandomness(uint256,bytes)":"b3f6b99a","getDepositedAmount(address)":"e9081ec7","getParticipants()":"5aa68ac0","getWinners()":"df15c37e","hasMinted(address)":"38e21cce","increasePriceStep()":"96efac7b","initialPrice()":"1d0806ae","initialize((address,address,address,uint256,uint256,uint256,address,address,address,address))":"56d7c73a","isTrustedForwarder(address)":"572b6c05","isWinner(address)":"9d9ca28d","lotteryState()":"6939864b","lotteryV2Addr()":"7de13382","mintMyNFT()":"26170480","multisigWalletAddress()":"a61fb2ba","nftContractAddr()":"2c23ec8e","numberOfTickets()":"45745c10","operatorAddr()":"f3f18c37","operators(address)":"13e7c9d8","owner()":"8da5cb5b","prevRoundDeposits()":"b680e44b","prevRoundTicketsAmount()":"224f91bd","renounceOwnership()":"715018a6","requestPending(uint256)":"75ce7fff","requestRandomness()":"f8413b07","requestedHash(uint256)":"c4f8f27b","roundCounter()":"febc14b1","rounds(uint256)":"8c65c81f","selectWinners()":"1a0de74c","seller()":"08551a53","sellerWithdraw()":"66af746b","setOperator(address,bool)":"558a7297","setSeller(address)":"e99d2866","setupNewRound(uint256,uint256)":"a4f03c02","startLottery()":"160344e2","ticketPrice()":"1209b1f6","totalNumberOfTickets()":"00746702","transferDeposit(address,uint256)":"50f3dbec","transferNonWinnerBids(address)":"1630a8df","transferOwnership(address)":"f2fde38b","usdcContractAddr()":"99dbf4b5","winnerAddresses(uint256)":"045f9c97","winners(address)":"6bd5450a"},"id":50}