{"abi":[{"type":"function","name":"Deposits","inputs":[{"name":"","type":"address","internalType":"address"}],"outputs":[{"name":"amount","type":"uint256","internalType":"uint256"},{"name":"timestamp","type":"uint256","internalType":"uint256"},{"name":"isWinner","type":"bool","internalType":"bool"}],"stateMutability":"view"},{"type":"function","name":"auctionV1Addr","inputs":[],"outputs":[{"name":"","type":"address","internalType":"address"}],"stateMutability":"view"},{"type":"function","name":"buyerWithdraw","inputs":[],"outputs":[],"stateMutability":"nonpayable"},{"type":"function","name":"changeLotteryState","inputs":[{"name":"_newState","type":"uint8","internalType":"enum SaleBase.LotteryState"}],"outputs":[],"stateMutability":"nonpayable"},{"type":"function","name":"deposit","inputs":[{"name":"amount","type":"uint256","internalType":"uint256"}],"outputs":[],"stateMutability":"nonpayable"},{"type":"function","name":"deposits","inputs":[{"name":"","type":"address","internalType":"address"}],"outputs":[{"name":"","type":"uint256","internalType":"uint256"}],"stateMutability":"view"},{"type":"function","name":"endLottery","inputs":[],"outputs":[],"stateMutability":"nonpayable"},{"type":"function","name":"getDepositedAmount","inputs":[{"name":"participant","type":"address","internalType":"address"}],"outputs":[{"name":"","type":"uint256","internalType":"uint256"}],"stateMutability":"view"},{"type":"function","name":"getParticipants","inputs":[],"outputs":[{"name":"","type":"address[]","internalType":"address[]"}],"stateMutability":"view"},{"type":"function","name":"getWinners","inputs":[],"outputs":[{"name":"","type":"address[]","internalType":"address[]"}],"stateMutability":"view"},{"type":"function","name":"hasMinted","inputs":[{"name":"","type":"address","internalType":"address"}],"outputs":[{"name":"","type":"bool","internalType":"bool"}],"stateMutability":"view"},{"type":"function","name":"initialPrice","inputs":[],"outputs":[{"name":"","type":"uint256","internalType":"uint256"}],"stateMutability":"view"},{"type":"function","name":"initialize","inputs":[{"name":"config","type":"tuple","internalType":"struct StructsLibrary.IAuctionV2BaseConfig","components":[{"name":"_seller","type":"address","internalType":"address"},{"name":"_owner","type":"address","internalType":"address"},{"name":"_ticketAmount","type":"uint256","internalType":"uint256"},{"name":"_ticketPrice","type":"uint256","internalType":"uint256"},{"name":"_usdcContractAddr","type":"address","internalType":"address"},{"name":"_nftContractAddr","type":"address","internalType":"address"},{"name":"_multisigWalletAddress","type":"address","internalType":"address"},{"name":"_prevPhaseContractAddr","type":"address","internalType":"address"}]}],"outputs":[],"stateMutability":"nonpayable"},{"type":"function","name":"initialized","inputs":[],"outputs":[{"name":"","type":"bool","internalType":"bool"}],"stateMutability":"view"},{"type":"function","name":"isParticipant","inputs":[{"name":"_participant","type":"address","internalType":"address"}],"outputs":[{"name":"","type":"bool","internalType":"bool"}],"stateMutability":"view"},{"type":"function","name":"isTrustedForwarder","inputs":[{"name":"forwarder","type":"address","internalType":"address"}],"outputs":[{"name":"","type":"bool","internalType":"bool"}],"stateMutability":"view"},{"type":"function","name":"isWinner","inputs":[{"name":"_participant","type":"address","internalType":"address"}],"outputs":[{"name":"","type":"bool","internalType":"bool"}],"stateMutability":"view"},{"type":"function","name":"lotteryState","inputs":[],"outputs":[{"name":"","type":"uint8","internalType":"enum SaleBase.LotteryState"}],"stateMutability":"view"},{"type":"function","name":"minimumDepositAmount","inputs":[],"outputs":[{"name":"","type":"uint256","internalType":"uint256"}],"stateMutability":"view"},{"type":"function","name":"mintMyNFT","inputs":[],"outputs":[],"stateMutability":"nonpayable"},{"type":"function","name":"multisigWalletAddress","inputs":[],"outputs":[{"name":"","type":"address","internalType":"address"}],"stateMutability":"view"},{"type":"function","name":"nftContractAddr","inputs":[],"outputs":[{"name":"","type":"address","internalType":"address"}],"stateMutability":"view"},{"type":"function","name":"numberOfTickets","inputs":[],"outputs":[{"name":"","type":"uint256","internalType":"uint256"}],"stateMutability":"view"},{"type":"function","name":"operators","inputs":[{"name":"","type":"address","internalType":"address"}],"outputs":[{"name":"","type":"bool","internalType":"bool"}],"stateMutability":"view"},{"type":"function","name":"owner","inputs":[],"outputs":[{"name":"","type":"address","internalType":"address"}],"stateMutability":"view"},{"type":"function","name":"renounceOwnership","inputs":[],"outputs":[],"stateMutability":"nonpayable"},{"type":"function","name":"selectWinners","inputs":[],"outputs":[],"stateMutability":"nonpayable"},{"type":"function","name":"seller","inputs":[],"outputs":[{"name":"","type":"address","internalType":"address"}],"stateMutability":"view"},{"type":"function","name":"sellerWithdraw","inputs":[],"outputs":[],"stateMutability":"nonpayable"},{"type":"function","name":"setOperator","inputs":[{"name":"_operator","type":"address","internalType":"address"},{"name":"_flag","type":"bool","internalType":"bool"}],"outputs":[],"stateMutability":"nonpayable"},{"type":"function","name":"setSeller","inputs":[{"name":"_seller","type":"address","internalType":"address"}],"outputs":[],"stateMutability":"nonpayable"},{"type":"function","name":"sortDepositsDesc","inputs":[],"outputs":[],"stateMutability":"nonpayable"},{"type":"function","name":"startLottery","inputs":[],"outputs":[],"stateMutability":"nonpayable"},{"type":"function","name":"ticketPrice","inputs":[],"outputs":[{"name":"","type":"uint256","internalType":"uint256"}],"stateMutability":"view"},{"type":"function","name":"transferDeposit","inputs":[{"name":"_participant","type":"address","internalType":"address"},{"name":"_amount","type":"uint256","internalType":"uint256"}],"outputs":[],"stateMutability":"nonpayable"},{"type":"function","name":"transferOwnership","inputs":[{"name":"newOwner","type":"address","internalType":"address"}],"outputs":[],"stateMutability":"nonpayable"},{"type":"function","name":"usdcContractAddr","inputs":[],"outputs":[{"name":"","type":"address","internalType":"address"}],"stateMutability":"view"},{"type":"function","name":"winnerAddresses","inputs":[{"name":"","type":"uint256","internalType":"uint256"}],"outputs":[{"name":"","type":"address","internalType":"address"}],"stateMutability":"view"},{"type":"function","name":"winners","inputs":[{"name":"","type":"address","internalType":"address"}],"outputs":[{"name":"","type":"bool","internalType":"bool"}],"stateMutability":"view"},{"type":"event","name":"BuyerDeposited","inputs":[{"name":"buyer","type":"address","indexed":true,"internalType":"address"},{"name":"amount","type":"uint256","indexed":true,"internalType":"uint256"}],"anonymous":false},{"type":"event","name":"BuyerWithdrew","inputs":[{"name":"buyer","type":"address","indexed":true,"internalType":"address"},{"name":"amount","type":"uint256","indexed":true,"internalType":"uint256"}],"anonymous":false},{"type":"event","name":"DepositsReturned","inputs":[{"name":"returnedDepositsCount","type":"uint256","indexed":false,"internalType":"uint256"}],"anonymous":false},{"type":"event","name":"LotteryEnded","inputs":[],"anonymous":false},{"type":"event","name":"LotteryStarted","inputs":[],"anonymous":false},{"type":"event","name":"OwnershipTransferred","inputs":[{"name":"previousOwner","type":"address","indexed":true,"internalType":"address"},{"name":"newOwner","type":"address","indexed":true,"internalType":"address"}],"anonymous":false},{"type":"event","name":"WinnerSelected","inputs":[{"name":"winner","type":"address","indexed":true,"internalType":"address"}],"anonymous":false},{"type":"error","name":"OwnableInvalidOwner","inputs":[{"name":"owner","type":"address","internalType":"address"}]},{"type":"error","name":"OwnableUnauthorizedAccount","inputs":[{"name":"account","type":"address","internalType":"address"}]}],"bytecode":{"object":"0x60a06040526000805460ff60a81b1916905534801561001d57600080fd5b5073d8253782c45a12053594b9deb72d8e8ab2fca54c338061005957604051631e4fbdf760e01b81526000600482015260240160405180910390fd5b61006281610074565b506001600160a01b03166080526100c4565b600080546001600160a01b038381166001600160a01b0319831681178455604051919092169283917f8be0079c531659141344cd1fd0a4f28419497f9722a3daafe3b4186f6b6457e09190a35050565b6080516124b26100e6600039600081816103ee015261209d01526124b26000f3fe608060405234801561001057600080fd5b506004361061023d5760003560e01c80635aa68ac01161013b5780639abb8247116100b8578063df15c37e1161007c578063df15c37e14610546578063e9081ec71461054e578063e99d286614610577578063f2fde38b1461058a578063fc7e286d1461059d57600080fd5b80639abb8247146104d95780639d9ca28d146104e1578063a61fb2ba1461050d578063b6b55f2514610520578063c6ec99ab1461053357600080fd5b8063715018a6116100ff578063715018a6146104925780637cc947d01461049a5780638da5cb5b146104a2578063929066f5146104b357806399dbf4b5146104c657600080fd5b80635aa68ac01461041e57806366af746b14610433578063683e93e11461043b5780636939864b1461044e5780636bd5450a1461046f57600080fd5b80631a0de74c116101c95780633ee2d7c21161018d5780633ee2d7c21461036057806345745c10146103af57806350f3dbec146103b8578063558a7297146103cb578063572b6c05146103de57600080fd5b80631a0de74c146103115780631d0806ae1461031957806326170480146103225780632c23ec8e1461032a57806338e21cce1461033d57600080fd5b80631209b1f6116102105780631209b1f6146102b157806313e7c9d8146102ba578063158ef93e146102ed5780631593a8c714610301578063160344e21461030957600080fd5b8063045f9c9714610242578063080c279a1461027257806308551a5314610289578063118bf0a11461029c575b600080fd5b61025561025036600461210f565b6105bd565b6040516001600160a01b0390911681526020015b60405180910390f35b61027b60035481565b604051908152602001610269565b600254610255906001600160a01b031681565b6102af6102aa36600461215a565b6105e7565b005b61027b60055481565b6102dd6102c836600461221f565b600e6020526000908152604090205460ff1681565b6040519015158152602001610269565b6000546102dd90600160a81b900460ff1681565b6102af6106f5565b6102af610764565b6102af61083f565b61027b600f5481565b6102af610add565b600b54610255906001600160a01b031681565b6102dd61034b36600461221f565b60066020526000908152604090205460ff1681565b61039261036e36600461221f565b600d6020526000908152604090208054600182015460029092015490919060ff1683565b604080519384526020840192909252151590820152606001610269565b61027b60045481565b6102af6103c6366004612241565b610cd4565b6102af6103d9366004612279565b610e28565b6102dd6103ec36600461221f565b7f00000000000000000000000000000000000000000000000000000000000000006001600160a01b0390811691161490565b610426610e5b565b60405161026991906122b0565b6102af610ebd565b6102af6104493660046122fd565b6110ee565b60005461046290600160a01b900460ff1681565b6040516102699190612334565b6102dd61047d36600461221f565b60086020526000908152604090205460ff1681565b6102af611155565b6102af611169565b6000546001600160a01b0316610255565b6102dd6104c136600461221f565b6113a3565b600c54610255906001600160a01b031681565b6102af611402565b6102dd6104ef36600461221f565b6001600160a01b031660009081526008602052604090205460ff1690565b600154610255906001600160a01b031681565b6102af61052e36600461210f565b611700565b601054610255906001600160a01b031681565b610426611b02565b61027b61055c36600461221f565b6001600160a01b03166000908152600d602052604090205490565b6102af61058536600461221f565b611b62565b6102af61059836600461221f565b611bbe565b61027b6105ab36600461221f565b60076020526000908152604090205481565b600981815481106105cd57600080fd5b6000918252602090912001546001600160a01b0316905081565b600054600160a81b900460ff161561063c5760405162461bcd60e51b8152602060048201526013602482015272105b1c9958591e481a5b9a5d1a585b1a5e9959606a1b60448201526064015b60405180910390fd5b8051600280546001600160a01b0319166001600160a01b03909216919091179055602081015161066b90611bf5565b604081015160045560608101516005819055600f556080810151600c80546001600160a01b03199081166001600160a01b039384161790915560a0830151600b8054831691841691909117905560c083015160018054831691841691909117905560e09092015160108054909316911617905560008054600160a81b60ff60a81b19909116179055565b6002546001600160a01b0316610709611c45565b6001600160a01b03161461072f5760405162461bcd60e51b81526004016106339061235c565b61073960026110ee565b6040517f9c89a6ed7228533196a3f962acc80d61a9c53bdea6b910741bf754f5aaa7569e90600090a1565b6002546001600160a01b0316610778611c45565b6001600160a01b03161461079e5760405162461bcd60e51b81526004016106339061235c565b60008054600160a01b900460ff1660028111156107bd576107bd61231e565b1461080a5760405162461bcd60e51b815260206004820152601760248201527f53616c6520697320696e206163746976652073746174650000000000000000006044820152606401610633565b61081460016110ee565b6040517fd029c7c68d943f92286a7825fa6aa2deefa1eee46cee6c91b7e483fd06d27baf90600090a1565b6002546001600160a01b0316610853611c45565b6001600160a01b0316146108795760405162461bcd60e51b81526004016106339061235c565b6000600454116108cb5760405162461bcd60e51b815260206004820152601b60248201527f4e6f207469636b657473206c65667420746f20616c6c6f6361746500000000006044820152606401610633565b600a54600454106109825760005b600a5481101561097c576000600a82815481106108f8576108f861239e565b6000918252602090912001546001600160a01b03169050610931816001600160a01b031660009081526008602052604090205460ff1690565b6109735761093e81611c54565b6040516001600160a01b038216907f1d4c260f1824cd028e6c9e6e31c3a0b94f2513e7a641113ec759d382f9bdd5a190600090a25b506001016108d9565b50610ac2565b61098a611402565b6000600d6000600a60016004546109a191906123ca565b815481106109b1576109b161239e565b60009182526020808320909101546001600160a01b0316835282019290925260400181205491505b600454811015610abf5781600d6000600a84815481106109fb576109fb61239e565b60009182526020808320909101546001600160a01b0316835282019290925260400190205410610ab7576000600a8281548110610a3a57610a3a61239e565b6000918252602090912001546001600160a01b03169050610a73816001600160a01b031660009081526008602052604090205460ff1690565b610ab557610a8081611c54565b6040516001600160a01b038216907f1d4c260f1824cd028e6c9e6e31c3a0b94f2513e7a641113ec759d382f9bdd5a190600090a25b505b6001016109d9565b50505b6000805460ff60a01b1916600160a11b179055610739611d30565b60066000610ae9611c45565b6001600160a01b0316815260208101919091526040016000205460ff1615610b485760405162461bcd60e51b815260206004820152601260248201527113919508185b1c9958591e481b5a5b9d195960721b6044820152606401610633565b600060045411610b9a5760405162461bcd60e51b815260206004820152601b60248201527f4e6f207469636b657473206c65667420746f20616c6c6f6361746500000000006044820152606401610633565b610ba56104ef611c45565b610bea5760405162461bcd60e51b815260206004820152601660248201527521b0b63632b91034b9903737ba1030903bb4b73732b960511b6044820152606401610633565b600160066000610bf8611c45565b6001600160a01b0316815260208101919091526040016000908120805460ff191692151592909217909155600d81610c2e611c45565b6001600160a01b0316815260208101919091526040016000908120919091556004805491610c5b836123e3565b9091555050600b546001600160a01b0316636b8f60f6610c79611c45565b6040516001600160e01b031960e084901b1681526001600160a01b039091166004820152602401600060405180830381600087803b158015610cba57600080fd5b505af1158015610cce573d6000803e3d6000fd5b50505050565b610cdc611c45565b6010546001600160a01b03908116911614610d495760405162461bcd60e51b815260206004820152602760248201527f4f6e6c792077686974656c6973746564206d61792063616c6c207468697320666044820152663ab731ba34b7b760c91b6064820152608401610633565b610d52826113a3565b15610d8a576001600160a01b0382166000908152600d602052604081208054839290610d7f9084906123fa565b90915550610e249050565b6040805160608101825282815242602080830191825260008385018181526001600160a01b038816808352600d90935294812093518455915160018085019190915593516002909301805460ff191693151593909317909255600a8054938401815590527fc65a7bb8d6351c1cf70c95a316cc6a92839c986682d98bc35f958f4883f9d2a890910180546001600160a01b03191690911790555b5050565b610e3061203b565b6001600160a01b03919091166000908152600e60205260409020805460ff1916911515919091179055565b6060600a805480602002602001604051908101604052809291908181526020018280548015610eb357602002820191906000526020600020905b81546001600160a01b03168152600190910190602001808311610e95575b5050505050905090565b6002546001600160a01b0316610ed1611c45565b6001600160a01b031614610ef75760405162461bcd60e51b81526004016106339061235c565b6002600054600160a01b900460ff166002811115610f1757610f1761231e565b14610f585760405162461bcd60e51b8152602060048201526011602482015270131bdd1d195c9e481b9bdd08195b991959607a1b6044820152606401610633565b6000805b600954811015610fd157600060098281548110610f7b57610f7b61239e565b60009182526020808320909101546001600160a01b0316808352600d909152604090912054909150610fad90846123fa565b6001600160a01b039091166000908152600d60205260408120559150600101610f5c565b5060006064610fe183600561240d565b610feb9190612424565b90506000610ff982846123ca565b600c5460015460405163a9059cbb60e01b81526001600160a01b03918216600482015260248101869052929350169063a9059cbb906044016020604051808303816000875af1158015611050573d6000803e3d6000fd5b505050506040513d601f19601f820116820180604052508101906110749190612446565b50600c5460025460405163a9059cbb60e01b81526001600160a01b0391821660048201526024810184905291169063a9059cbb906044016020604051808303816000875af11580156110ca573d6000803e3d6000fd5b505050506040513d601f19601f82011682018060405250810190610cce9190612446565b6002546001600160a01b0316611102611c45565b6001600160a01b0316146111285760405162461bcd60e51b81526004016106339061235c565b6000805482919060ff60a01b1916600160a01b83600281111561114d5761114d61231e565b021790555050565b61115d61203b565b6111676000611bf5565b565b6002600054600160a01b900460ff1660028111156111895761118961231e565b146111ce5760405162461bcd60e51b815260206004820152601560248201527414d85b19481a5cc81b9bdd08195b991959081e595d605a1b6044820152606401610633565b600860006111da611c45565b6001600160a01b0316815260208101919091526040016000205460ff16156112445760405162461bcd60e51b815260206004820152601760248201527f57696e6e6572732063616e6e6f742077697468647261770000000000000000006044820152606401610633565b6000600d6000611252611c45565b6001600160a01b031681526020810191909152604001600020549050806112b25760405162461bcd60e51b81526020600482015260146024820152734e6f2066756e647320746f20776974686472617760601b6044820152606401610633565b6000600d60006112c0611c45565b6001600160a01b039081168252602082019290925260400160002091909155600c541663a9059cbb6112f0611c45565b6040516001600160e01b031960e084901b1681526001600160a01b039091166004820152602481018490526044016020604051808303816000875af115801561133d573d6000803e3d6000fd5b505050506040513d601f19601f820116820180604052508101906113619190612446565b508061136b611c45565b6001600160a01b03167f1f280cd00e67ed50213ac03febd5be151f96b7f7db2f85312aa0feff99f8bdab60405160405180910390a350565b6000805b600a548110156113f957826001600160a01b0316600a82815481106113ce576113ce61239e565b6000918252602090912001546001600160a01b0316036113f15750600192915050565b6001016113a7565b50600092915050565b6002546001600160a01b0316611416611c45565b6001600160a01b03161461143c5760405162461bcd60e51b81526004016106339061235c565b60005b600a548110156116fd5760006114568260016123fa565b90505b600a548110156116f457600d6000600a838154811061147a5761147a61239e565b60009182526020808320909101546001600160a01b03168352820192909252604001812054600a80549192600d92909190869081106114bb576114bb61239e565b60009182526020808320909101546001600160a01b0316835282019290925260400190205410806116065750600d6000600a83815481106114fe576114fe61239e565b60009182526020808320909101546001600160a01b03168352820192909252604001812054600a80549192600d929091908690811061153f5761153f61239e565b60009182526020808320909101546001600160a01b031683528201929092526040019020541480156116065750600d6000600a83815481106115835761158361239e565b9060005260206000200160009054906101000a90046001600160a01b03166001600160a01b03166001600160a01b0316815260200190815260200160002060010154600d6000600a85815481106115dc576115dc61239e565b60009182526020808320909101546001600160a01b03168352820192909252604001902060010154115b156116ec576000600a83815481106116205761162061239e565b600091825260209091200154600a80546001600160a01b039092169250908390811061164e5761164e61239e565b600091825260209091200154600a80546001600160a01b03909216918590811061167a5761167a61239e565b9060005260206000200160006101000a8154816001600160a01b0302191690836001600160a01b0316021790555080600a83815481106116bc576116bc61239e565b9060005260206000200160006101000a8154816001600160a01b0302191690836001600160a01b03160217905550505b600101611459565b5060010161143f565b50565b6001600054600160a01b900460ff1660028111156117205761172061231e565b146117625760405162461bcd60e51b815260206004820152601260248201527153616c65206973206e6f742061637469766560701b6044820152606401610633565b61176d6104ef611c45565b156117b35760405162461bcd60e51b815260206004820152601660248201527515da5b9b995c9cc818d85b9b9bdd0819195c1bdcda5d60521b6044820152606401610633565b600c546001600160a01b031661180b5760405162461bcd60e51b815260206004820152601d60248201527f5553444320636f6e74726163742061646472657373206e6f74207365740000006044820152606401610633565b600f5481101561185d5760405162461bcd60e51b815260206004820152601760248201527f496e73756666696369656e742066756e64732073656e740000000000000000006044820152606401610633565b600c5481906001600160a01b031663dd62ed3e611878611c45565b6040516001600160e01b031960e084901b1681526001600160a01b039091166004820152306024820152604401602060405180830381865afa1580156118c2573d6000803e3d6000fd5b505050506040513d601f19601f820116820180604052508101906118e69190612463565b101561192d5760405162461bcd60e51b8152602060048201526016602482015275496e73756666696369656e7420616c6c6f77616e636560501b6044820152606401610633565b600c546001600160a01b03166323b872dd611946611c45565b6040516001600160e01b031960e084901b1681526001600160a01b039091166004820152306024820152604481018490526064016020604051808303816000875af1158015611999573d6000803e3d6000fd5b505050506040513d601f19601f820116820180604052508101906119bd9190612446565b506119c96104c1611c45565b15611a185780600d60006119db611c45565b6001600160a01b03166001600160a01b031681526020019081526020016000206000016000828254611a0d91906123fa565b90915550611ac19050565b604051806060016040528082815260200142815260200160001515815250600d6000611a42611c45565b6001600160a01b0316815260208082019290925260409081016000208351815591830151600183015591909101516002909101805460ff1916911515919091179055600a611a8e611c45565b81546001810183556000928352602090922090910180546001600160a01b0319166001600160a01b039092169190911790555b80611aca611c45565b6001600160a01b03167f21040858e63c11c046482f61f290bbe25972fc74b11b4570a01f9241082d21f160405160405180910390a350565b60606009805480602002602001604051908101604052809291908181526020018280548015610eb3576020028201919060005260206000209081546001600160a01b03168152600190910190602001808311610e95575050505050905090565b6002546001600160a01b0316611b76611c45565b6001600160a01b031614611b9c5760405162461bcd60e51b81526004016106339061235c565b600280546001600160a01b0319166001600160a01b0392909216919091179055565b611bc661203b565b6001600160a01b038116611bf057604051631e4fbdf760e01b815260006004820152602401610633565b6116fd815b600080546001600160a01b038381166001600160a01b0319831681178455604051919092169283917f8be0079c531659141344cd1fd0a4f28419497f9722a3daafe3b4186f6b6457e09190a35050565b6000611c4f612099565b905090565b6002546001600160a01b0316611c68611c45565b6001600160a01b031614611c8e5760405162461bcd60e51b81526004016106339061235c565b6001600160a01b03811660008181526008602090815260408083208054600160ff199182168117909255600980548084019091557f6e1540171b6c0c960b71a7020d9f60077f6af931a8bbf590da0223dacf75c7af0180546001600160a01b03191687179055600d909352818420600201805490931617909155517f1d4c260f1824cd028e6c9e6e31c3a0b94f2513e7a641113ec759d382f9bdd5a19190a250565b6002546001600160a01b0316611d44611c45565b6001600160a01b031614611d6a5760405162461bcd60e51b81526004016106339061235c565b6002600054600160a01b900460ff166002811115611d8a57611d8a61231e565b14611dcf5760405162461bcd60e51b815260206004820152601560248201527414d85b19481a5cc81b9bdd08195b991959081e595d605a1b6044820152606401610633565b600a5460008167ffffffffffffffff811115611ded57611ded612128565b604051908082528060200260200182016040528015611e16578160200160208202803683370190505b50905060005b82811015611e8757600a8181548110611e3757611e3761239e565b9060005260206000200160009054906101000a90046001600160a01b0316828281518110611e6757611e6761239e565b6001600160a01b0390921660209283029190910190910152600101611e1c565b5060005b82811015611ff7576000828281518110611ea757611ea761239e565b6020908102919091018101516001600160a01b0381166000908152600d83526040808220805490839055600890945290205490925060ff1615611f7457600060055482611ef491906123ca565b600c5460405163a9059cbb60e01b81526001600160a01b0386811660048301526024820184905292935091169063a9059cbb906044016020604051808303816000875af1158015611f49573d6000803e3d6000fd5b505050506040513d601f19601f82011682018060405250810190611f6d9190612446565b5050611fed565b600c5460405163a9059cbb60e01b81526001600160a01b038481166004830152602482018490529091169063a9059cbb906044016020604051808303816000875af1158015611fc7573d6000803e3d6000fd5b505050506040513d601f19601f82011682018060405250810190611feb9190612446565b505b5050600101611e8b565b50612004600a60006120dd565b6040518281527f01f8aef848121bbf182106b55119c1094063c572b6c8dcb09040e1203a17abf99060200160405180910390a15050565b612043611c45565b6001600160a01b031661205e6000546001600160a01b031690565b6001600160a01b03161461116757612074611c45565b60405163118cdaa760e01b81526001600160a01b039091166004820152602401610633565b60007f00000000000000000000000000000000000000000000000000000000000000006001600160a01b031633036120d8575060131936013560601c90565b503390565b50805460008255906000526020600020908101906116fd91905b8082111561210b57600081556001016120f7565b5090565b60006020828403121561212157600080fd5b5035919050565b634e487b7160e01b600052604160045260246000fd5b80356001600160a01b038116811461215557600080fd5b919050565b600061010080838503121561216e57600080fd5b6040519081019067ffffffffffffffff8211818310171561219f57634e487b7160e01b600052604160045260246000fd5b816040526121ac8461213e565b81526121ba6020850161213e565b602082015260408401356040820152606084013560608201526121df6080850161213e565b60808201526121f060a0850161213e565b60a082015261220160c0850161213e565b60c082015261221260e0850161213e565b60e0820152949350505050565b60006020828403121561223157600080fd5b61223a8261213e565b9392505050565b6000806040838503121561225457600080fd5b61225d8361213e565b946020939093013593505050565b80151581146116fd57600080fd5b6000806040838503121561228c57600080fd5b6122958361213e565b915060208301356122a58161226b565b809150509250929050565b6020808252825182820181905260009190848201906040850190845b818110156122f15783516001600160a01b0316835292840192918401916001016122cc565b50909695505050505050565b60006020828403121561230f57600080fd5b81356003811061223a57600080fd5b634e487b7160e01b600052602160045260246000fd5b602081016003831061235657634e487b7160e01b600052602160045260246000fd5b91905290565b60208082526022908201527f4f6e6c792073656c6c65722063616e2063616c6c20746869732066756e63746960408201526137b760f11b606082015260800190565b634e487b7160e01b600052603260045260246000fd5b634e487b7160e01b600052601160045260246000fd5b818103818111156123dd576123dd6123b4565b92915050565b6000816123f2576123f26123b4565b506000190190565b808201808211156123dd576123dd6123b4565b80820281158282048414176123dd576123dd6123b4565b60008261244157634e487b7160e01b600052601260045260246000fd5b500490565b60006020828403121561245857600080fd5b815161223a8161226b565b60006020828403121561247557600080fd5b505191905056fea26469706673582212202fcdf8cd4bb2c077dddd981a045d633318aee072736e3ec5f74fc010d62abfbb64736f6c63430008190033","linkReferences":{}},"methodIdentifiers":{"Deposits(address)":"3ee2d7c2","auctionV1Addr()":"c6ec99ab","buyerWithdraw()":"7cc947d0","changeLotteryState(uint8)":"683e93e1","deposit(uint256)":"b6b55f25","deposits(address)":"fc7e286d","endLottery()":"1593a8c7","getDepositedAmount(address)":"e9081ec7","getParticipants()":"5aa68ac0","getWinners()":"df15c37e","hasMinted(address)":"38e21cce","initialPrice()":"1d0806ae","initialize((address,address,uint256,uint256,address,address,address,address))":"118bf0a1","initialized()":"158ef93e","isParticipant(address)":"929066f5","isTrustedForwarder(address)":"572b6c05","isWinner(address)":"9d9ca28d","lotteryState()":"6939864b","minimumDepositAmount()":"080c279a","mintMyNFT()":"26170480","multisigWalletAddress()":"a61fb2ba","nftContractAddr()":"2c23ec8e","numberOfTickets()":"45745c10","operators(address)":"13e7c9d8","owner()":"8da5cb5b","renounceOwnership()":"715018a6","selectWinners()":"1a0de74c","seller()":"08551a53","sellerWithdraw()":"66af746b","setOperator(address,bool)":"558a7297","setSeller(address)":"e99d2866","sortDepositsDesc()":"9abb8247","startLottery()":"160344e2","ticketPrice()":"1209b1f6","transferDeposit(address,uint256)":"50f3dbec","transferOwnership(address)":"f2fde38b","usdcContractAddr()":"99dbf4b5","winnerAddresses(uint256)":"045f9c97","winners(address)":"6bd5450a"},"id":51}