{"abi":[{"type":"function","name":"buyerWithdraw","inputs":[],"outputs":[],"stateMutability":"nonpayable"},{"type":"function","name":"changeLotteryState","inputs":[{"name":"_newState","type":"uint8","internalType":"enum SaleBase.LotteryState"}],"outputs":[],"stateMutability":"nonpayable"},{"type":"function","name":"deposit","inputs":[{"name":"amount","type":"uint256","internalType":"uint256"}],"outputs":[],"stateMutability":"nonpayable"},{"type":"function","name":"deposits","inputs":[{"name":"","type":"address","internalType":"address"}],"outputs":[{"name":"","type":"uint256","internalType":"uint256"}],"stateMutability":"view"},{"type":"function","name":"endLottery","inputs":[],"outputs":[],"stateMutability":"nonpayable"},{"type":"function","name":"fulfillRandomness","inputs":[{"name":"randomness","type":"uint256","internalType":"uint256"},{"name":"dataWithRound","type":"bytes","internalType":"bytes"}],"outputs":[],"stateMutability":"nonpayable"},{"type":"function","name":"getDepositedAmount","inputs":[{"name":"participant","type":"address","internalType":"address"}],"outputs":[{"name":"","type":"uint256","internalType":"uint256"}],"stateMutability":"view"},{"type":"function","name":"getParticipants","inputs":[],"outputs":[{"name":"","type":"address[]","internalType":"address[]"}],"stateMutability":"view"},{"type":"function","name":"getWinners","inputs":[],"outputs":[{"name":"","type":"address[]","internalType":"address[]"}],"stateMutability":"view"},{"type":"function","name":"hasMinted","inputs":[{"name":"","type":"address","internalType":"address"}],"outputs":[{"name":"","type":"bool","internalType":"bool"}],"stateMutability":"view"},{"type":"function","name":"increasePriceStep","inputs":[],"outputs":[{"name":"","type":"uint256","internalType":"uint256"}],"stateMutability":"view"},{"type":"function","name":"initialPrice","inputs":[],"outputs":[{"name":"","type":"uint256","internalType":"uint256"}],"stateMutability":"view"},{"type":"function","name":"initialize","inputs":[{"name":"config","type":"tuple","internalType":"struct StructsLibrary.IAuctionV1BaseConfig","components":[{"name":"_gelatoVrfOperator","type":"address","internalType":"address"},{"name":"_blessedOperator","type":"address","internalType":"address"},{"name":"_owner","type":"address","internalType":"address"},{"name":"_ticketAmount","type":"uint256","internalType":"uint256"},{"name":"_ticketPrice","type":"uint256","internalType":"uint256"},{"name":"_priceIncreaseStep","type":"uint256","internalType":"uint256"},{"name":"_usdcContractAddr","type":"address","internalType":"address"},{"name":"_nftContractAddr","type":"address","internalType":"address"},{"name":"_multisigWalletAddress","type":"address","internalType":"address"},{"name":"_prevPhaseContractAddr","type":"address","internalType":"address"}]}],"outputs":[],"stateMutability":"nonpayable"},{"type":"function","name":"initialized","inputs":[],"outputs":[{"name":"","type":"bool","internalType":"bool"}],"stateMutability":"view"},{"type":"function","name":"isTrustedForwarder","inputs":[{"name":"forwarder","type":"address","internalType":"address"}],"outputs":[{"name":"","type":"bool","internalType":"bool"}],"stateMutability":"view"},{"type":"function","name":"isWinner","inputs":[{"name":"_participant","type":"address","internalType":"address"}],"outputs":[{"name":"","type":"bool","internalType":"bool"}],"stateMutability":"view"},{"type":"function","name":"lotteryState","inputs":[],"outputs":[{"name":"","type":"uint8","internalType":"enum SaleBase.LotteryState"}],"stateMutability":"view"},{"type":"function","name":"lotteryV2Addr","inputs":[],"outputs":[{"name":"","type":"address","internalType":"address"}],"stateMutability":"view"},{"type":"function","name":"minimumDepositAmount","inputs":[],"outputs":[{"name":"","type":"uint256","internalType":"uint256"}],"stateMutability":"view"},{"type":"function","name":"mintMyNFT","inputs":[],"outputs":[],"stateMutability":"nonpayable"},{"type":"function","name":"multisigWalletAddress","inputs":[],"outputs":[{"name":"","type":"address","internalType":"address"}],"stateMutability":"view"},{"type":"function","name":"nftContractAddr","inputs":[],"outputs":[{"name":"","type":"address","internalType":"address"}],"stateMutability":"view"},{"type":"function","name":"numberOfTickets","inputs":[],"outputs":[{"name":"","type":"uint256","internalType":"uint256"}],"stateMutability":"view"},{"type":"function","name":"operatorAddr","inputs":[],"outputs":[{"name":"","type":"address","internalType":"address"}],"stateMutability":"view"},{"type":"function","name":"operators","inputs":[{"name":"","type":"address","internalType":"address"}],"outputs":[{"name":"","type":"bool","internalType":"bool"}],"stateMutability":"view"},{"type":"function","name":"owner","inputs":[],"outputs":[{"name":"","type":"address","internalType":"address"}],"stateMutability":"view"},{"type":"function","name":"prevRoundDeposits","inputs":[],"outputs":[{"name":"","type":"uint256","internalType":"uint256"}],"stateMutability":"view"},{"type":"function","name":"prevRoundTicketsAmount","inputs":[],"outputs":[{"name":"","type":"uint256","internalType":"uint256"}],"stateMutability":"view"},{"type":"function","name":"randomNumber","inputs":[],"outputs":[{"name":"","type":"uint256","internalType":"uint256"}],"stateMutability":"view"},{"type":"function","name":"renounceOwnership","inputs":[],"outputs":[],"stateMutability":"nonpayable"},{"type":"function","name":"requestPending","inputs":[{"name":"","type":"uint256","internalType":"uint256"}],"outputs":[{"name":"","type":"bool","internalType":"bool"}],"stateMutability":"view"},{"type":"function","name":"requestRandomness","inputs":[],"outputs":[],"stateMutability":"nonpayable"},{"type":"function","name":"requestedHash","inputs":[{"name":"","type":"uint256","internalType":"uint256"}],"outputs":[{"name":"","type":"bytes32","internalType":"bytes32"}],"stateMutability":"view"},{"type":"function","name":"roundCounter","inputs":[],"outputs":[{"name":"","type":"uint256","internalType":"uint256"}],"stateMutability":"view"},{"type":"function","name":"rounds","inputs":[{"name":"","type":"uint256","internalType":"uint256"}],"outputs":[{"name":"number","type":"uint256","internalType":"uint256"},{"name":"finishAt","type":"uint256","internalType":"uint256"},{"name":"numberOfTickets","type":"uint256","internalType":"uint256"},{"name":"lotteryStarted","type":"bool","internalType":"bool"},{"name":"winnersSelected","type":"bool","internalType":"bool"}],"stateMutability":"view"},{"type":"function","name":"selectWinners","inputs":[],"outputs":[],"stateMutability":"nonpayable"},{"type":"function","name":"seller","inputs":[],"outputs":[{"name":"","type":"address","internalType":"address"}],"stateMutability":"view"},{"type":"function","name":"sellerWithdraw","inputs":[],"outputs":[],"stateMutability":"nonpayable"},{"type":"function","name":"setOperator","inputs":[{"name":"_operatorAddr","type":"address","internalType":"address"},{"name":"_flag","type":"bool","internalType":"bool"}],"outputs":[],"stateMutability":"nonpayable"},{"type":"function","name":"setSeller","inputs":[{"name":"_seller","type":"address","internalType":"address"}],"outputs":[],"stateMutability":"nonpayable"},{"type":"function","name":"setupNewRound","inputs":[{"name":"_finishAt","type":"uint256","internalType":"uint256"},{"name":"_numberOfTickets","type":"uint256","internalType":"uint256"}],"outputs":[],"stateMutability":"nonpayable"},{"type":"function","name":"startLottery","inputs":[],"outputs":[],"stateMutability":"nonpayable"},{"type":"function","name":"ticketPrice","inputs":[],"outputs":[{"name":"","type":"uint256","internalType":"uint256"}],"stateMutability":"view"},{"type":"function","name":"totalNumberOfTickets","inputs":[],"outputs":[{"name":"","type":"uint256","internalType":"uint256"}],"stateMutability":"view"},{"type":"function","name":"transferDeposit","inputs":[{"name":"_participant","type":"address","internalType":"address"},{"name":"_amount","type":"uint256","internalType":"uint256"}],"outputs":[],"stateMutability":"nonpayable"},{"type":"function","name":"transferNonWinnerBids","inputs":[{"name":"destinationAddr","type":"address","internalType":"address"}],"outputs":[],"stateMutability":"nonpayable"},{"type":"function","name":"transferOwnership","inputs":[{"name":"newOwner","type":"address","internalType":"address"}],"outputs":[],"stateMutability":"nonpayable"},{"type":"function","name":"usdcContractAddr","inputs":[],"outputs":[{"name":"","type":"address","internalType":"address"}],"stateMutability":"view"},{"type":"function","name":"winnerAddresses","inputs":[{"name":"","type":"uint256","internalType":"uint256"}],"outputs":[{"name":"","type":"address","internalType":"address"}],"stateMutability":"view"},{"type":"function","name":"winners","inputs":[{"name":"","type":"address","internalType":"address"}],"outputs":[{"name":"","type":"bool","internalType":"bool"}],"stateMutability":"view"},{"type":"event","name":"BuyerDeposited","inputs":[{"name":"buyer","type":"address","indexed":true,"internalType":"address"},{"name":"amount","type":"uint256","indexed":true,"internalType":"uint256"}],"anonymous":false},{"type":"event","name":"BuyerWithdrew","inputs":[{"name":"buyer","type":"address","indexed":true,"internalType":"address"},{"name":"amount","type":"uint256","indexed":true,"internalType":"uint256"}],"anonymous":false},{"type":"event","name":"DepositsReturned","inputs":[{"name":"returnedDepositsCount","type":"uint256","indexed":false,"internalType":"uint256"}],"anonymous":false},{"type":"event","name":"LotteryEnded","inputs":[],"anonymous":false},{"type":"event","name":"LotteryStarted","inputs":[],"anonymous":false},{"type":"event","name":"OwnershipTransferred","inputs":[{"name":"previousOwner","type":"address","indexed":true,"internalType":"address"},{"name":"newOwner","type":"address","indexed":true,"internalType":"address"}],"anonymous":false},{"type":"event","name":"RandomFulfilled","inputs":[{"name":"number","type":"uint256","indexed":false,"internalType":"uint256"}],"anonymous":false},{"type":"event","name":"RandomRequested","inputs":[{"name":"requester","type":"address","indexed":true,"internalType":"address"}],"anonymous":false},{"type":"event","name":"RequestedRandomness","inputs":[{"name":"round","type":"uint256","indexed":false,"internalType":"uint256"},{"name":"data","type":"bytes","indexed":false,"internalType":"bytes"}],"anonymous":false},{"type":"event","name":"RoundSet","inputs":[{"name":"roundNumber","type":"uint256","indexed":true,"internalType":"uint256"},{"name":"finishAt","type":"uint256","indexed":false,"internalType":"uint256"},{"name":"numberOfTickets","type":"uint256","indexed":false,"internalType":"uint256"}],"anonymous":false},{"type":"event","name":"WinnerSelected","inputs":[{"name":"winner","type":"address","indexed":true,"internalType":"address"}],"anonymous":false},{"type":"error","name":"OwnableInvalidOwner","inputs":[{"name":"owner","type":"address","internalType":"address"}]},{"type":"error","name":"OwnableUnauthorizedAccount","inputs":[{"name":"account","type":"address","internalType":"address"}]}],"bytecode":{"object":"0x60a06040526000805460ff60a81b19169055600160108190556015819055601655600560175534801561003157600080fd5b5073d8253782c45a12053594b9deb72d8e8ab2fca54c338061006d57604051631e4fbdf760e01b81526000600482015260240160405180910390fd5b61007681610088565b506001600160a01b03166080526100d8565b600080546001600160a01b038381166001600160a01b0319831681178455604051919092169283917f8be0079c531659141344cd1fd0a4f28419497f9722a3daafe3b4186f6b6457e09190a35050565b608051612f5d6100fa6000396000818161045c01526128330152612f5d6000f3fe608060405234801561001057600080fd5b50600436106102d55760003560e01c80636bd5450a11610182578063b3f6b99a116100e9578063e9081ec7116100a2578063f3f18c371161007c578063f3f18c37146106d1578063f8413b07146106e4578063fc7e286d146106ec578063febc14b11461070c57600080fd5b8063e9081ec714610682578063e99d2866146106ab578063f2fde38b146106be57600080fd5b8063b3f6b99a14610622578063b680e44b14610635578063b6b55f251461063e578063c4f8f27b14610651578063ccbac9f514610671578063df15c37e1461067a57600080fd5b80638da5cb5b1161013b5780638da5cb5b146105a357806396efac7b146105b457806399dbf4b5146105bd5780639d9ca28d146105d0578063a4f03c02146105fc578063a61fb2ba1461060f57600080fd5b80636bd5450a146104dd578063715018a61461050057806375ce7fff146105085780637cc947d01461051b5780637de13382146105235780638c65c81f1461053657600080fd5b8063224f91bd11610241578063558a7297116101fa5780635aa68ac0116101d45780635aa68ac01461048c57806366af746b146104a1578063683e93e1146104a95780636939864b146104bc57600080fd5b8063558a72971461042657806356d7c73a14610439578063572b6c051461044c57600080fd5b8063224f91bd146103c357806326170480146103cc5780632c23ec8e146103d457806338e21cce146103e757806345745c101461040a57806350f3dbec1461041357600080fd5b8063158ef93e11610293578063158ef93e146103795780631593a8c71461038d578063160344e2146103975780631630a8df1461039f5780631a0de74c146103b25780631d0806ae146103ba57600080fd5b8062746702146102da578063045f9c97146102f6578063080c279a1461032157806308551a531461032a5780631209b1f61461033d57806313e7c9d814610346575b600080fd5b6102e360185481565b6040519081526020015b60405180910390f35b6103096103043660046128fc565b610715565b6040516001600160a01b0390911681526020016102ed565b6102e360035481565b600254610309906001600160a01b031681565b6102e360055481565b610369610354366004612931565b60116020526000908152604090205460ff1681565b60405190151581526020016102ed565b60005461036990600160a81b900460ff1681565b61039561073f565b005b6103956107b7565b6103956103ad366004612931565b610892565b610395610a7b565b6102e360145481565b6102e360165481565b610395610f13565b600b54610309906001600160a01b031681565b6103696103f5366004612931565b60066020526000908152604090205460ff1681565b6102e360045481565b610395610421366004612953565b61109d565b61039561043436600461298b565b6111dd565b610395610447366004612a33565b611210565b61036961045a366004612931565b7f00000000000000000000000000000000000000000000000000000000000000006001600160a01b0390811691161490565b610494611344565b6040516102ed9190612ae6565b6103956113a6565b6103956104b7366004612b33565b6115d7565b6000546104d090600160a01b900460ff1681565b6040516102ed9190612b6a565b6103696104eb366004612931565b60086020526000908152604090205460ff1681565b61039561163e565b6103696105163660046128fc565b611652565b610395611686565b601254610309906001600160a01b031681565b6105776105443660046128fc565b600f6020526000908152604090208054600182015460028301546003909301549192909160ff8082169161010090041685565b60408051958652602086019490945292840191909152151560608301521515608082015260a0016102ed565b6000546001600160a01b0316610309565b6102e360175481565b600c54610309906001600160a01b031681565b6103696105de366004612931565b6001600160a01b031660009081526008602052604090205460ff1690565b61039561060a366004612b92565b6118ca565b600154610309906001600160a01b031681565b610395610630366004612bb4565b611bb3565b6102e360155481565b61039561064c3660046128fc565b611d8d565b6102e361065f3660046128fc565b600e6020526000908152604090205481565b6102e360195481565b6104946120f6565b6102e3610690366004612931565b6001600160a01b031660009081526007602052604090205490565b6103956106b9366004612931565b612156565b6103956106cc366004612931565b6121b2565b601354610309906001600160a01b031681565b6103956121ed565b6102e36106fa366004612931565b60076020526000908152604090205481565b6102e360105481565b6009818154811061072557600080fd5b6000918252602090912001546001600160a01b0316905081565b6002546001600160a01b031661075361229b565b6001600160a01b0316146107825760405162461bcd60e51b815260040161077990612c30565b60405180910390fd5b61078c60026115d7565b6040517f9c89a6ed7228533196a3f962acc80d61a9c53bdea6b910741bf754f5aaa7569e90600090a1565b6002546001600160a01b03166107cb61229b565b6001600160a01b0316146107f15760405162461bcd60e51b815260040161077990612c30565b60008054600160a01b900460ff16600281111561081057610810612b54565b1461085d5760405162461bcd60e51b815260206004820152601760248201527f53616c6520697320696e206163746976652073746174650000000000000000006044820152606401610779565b61086760016115d7565b6040517fd029c7c68d943f92286a7825fa6aa2deefa1eee46cee6c91b7e483fd06d27baf90600090a1565b6002546001600160a01b03166108a661229b565b6001600160a01b0316146108cc5760405162461bcd60e51b815260040161077990612c30565b60005b600a54811015610a6b57600060076000600a84815481106108f2576108f2612c72565b60009182526020808320909101546001600160a01b03168352820192909252604001812054600a80549193506007918391908690811061093457610934612c72565b6000918252602080832091909101546001600160a01b039081168452908301939093526040918201902092909255600c54915163a9059cbb60e01b815285821660048201526024810184905291169063a9059cbb906044016020604051808303816000875af11580156109ab573d6000803e3d6000fd5b505050506040513d601f19601f820116820180604052508101906109cf9190612c88565b50826001600160a01b03166350f3dbec600a84815481106109f2576109f2612c72565b60009182526020909120015460405160e083901b6001600160e01b03191681526001600160a01b03909116600482015260248101849052604401600060405180830381600087803b158015610a4657600080fd5b505af1158015610a5a573d6000803e3d6000fd5b5050600190930192506108cf915050565b50610a78600a60006128ca565b50565b6002546001600160a01b0316610a8f61229b565b6001600160a01b031614610ab55760405162461bcd60e51b815260040161077990612c30565b600060045411610b075760405162461bcd60e51b815260206004820152601b60248201527f4e6f207469636b657473206c65667420746f20616c6c6f6361746500000000006044820152606401610779565b6000805460ff60a01b1916600160a01b179055600a546004548111610be15760005b81811015610bca576000600a8281548110610b4657610b46612c72565b6000918252602090912001546001600160a01b03169050610b7f816001600160a01b031660009081526008602052604090205460ff1690565b610bc157610b8c816122aa565b6040516001600160a01b038216907f1d4c260f1824cd028e6c9e6e31c3a0b94f2513e7a641113ec759d382f9bdd5a190600090a25b50600101610b29565b50610bd7600a60006128ca565b6000600455610e77565b60005b81811015610cf5576000610bf88284612cbb565b601954610c059190612cea565b610c0f9083612cfe565b90506000600a8281548110610c2657610c26612c72565b600091825260209091200154600a80546001600160a01b0390921692509084908110610c5457610c54612c72565b600091825260209091200154600a80546001600160a01b039092169184908110610c8057610c80612c72565b9060005260206000200160006101000a8154816001600160a01b0302191690836001600160a01b0316021790555080600a8481548110610cc257610cc2612c72565b600091825260209091200180546001600160a01b0319166001600160a01b03929092169190911790555050600101610be4565b5060005b600454811015610d9c576000600a8281548110610d1857610d18612c72565b6000918252602090912001546001600160a01b03169050610d51816001600160a01b031660009081526008602052604090205460ff1690565b610d9357610d5e816122aa565b6040516001600160a01b038216907f1d4c260f1824cd028e6c9e6e31c3a0b94f2513e7a641113ec759d382f9bdd5a190600090a25b50600101610cf9565b506004546000905b82811015610e2957600a8181548110610dbf57610dbf612c72565b600091825260209091200154600a80546001600160a01b039092169184908110610deb57610deb612c72565b600091825260209091200180546001600160a01b0319166001600160a01b039290921691909117905581610e1e81612d11565b925050600101610da4565b50805b82811015610e6f57600a805480610e4557610e45612d2a565b600082815260209020810160001990810180546001600160a01b0319169055019055600101610e2c565b505060006004555b6001600f60006001601054610e8c9190612cbb565b81526020810191909152604001600090812060030180549215156101000261ff001990931692909217909155805460ff60a01b191681556018549003610a78576000805460ff60a01b1916600160a11b179055610ee7612336565b6040517f9c89a6ed7228533196a3f962acc80d61a9c53bdea6b910741bf754f5aaa7569e90600090a150565b610f1e6105de61229b565b610f635760405162461bcd60e51b815260206004820152601660248201527521b0b63632b91034b9903737ba1030903bb4b73732b960511b6044820152606401610779565b60066000610f6f61229b565b6001600160a01b0316815260208101919091526040016000205460ff1615610fce5760405162461bcd60e51b815260206004820152601260248201527113919508185b1c9958591e481b5a5b9d195960721b6044820152606401610779565b600160066000610fdc61229b565b6001600160a01b0316815260208101919091526040016000908120805460ff19169215159290921790915560078161101261229b565b6001600160a01b039081168252602082019290925260400160002091909155600b5416636b8f60f661104261229b565b6040516001600160e01b031960e084901b1681526001600160a01b039091166004820152602401600060405180830381600087803b15801561108357600080fd5b505af1158015611097573d6000803e3d6000fd5b50505050565b6110a561229b565b6012546001600160a01b039081169116146111125760405162461bcd60e51b815260206004820152602760248201527f4f6e6c792077686974656c6973746564206d61792063616c6c207468697320666044820152663ab731ba34b7b760c91b6064820152608401610779565b6007600061111e61229b565b6001600160a01b03166001600160a01b031681526020019081526020016000205460000361119257600a80546001810182556000919091527fc65a7bb8d6351c1cf70c95a316cc6a92839c986682d98bc35f958f4883f9d2a80180546001600160a01b0319166001600160a01b0384161790555b6001600160a01b038216600090815260076020526040812080548392906111ba908490612cfe565b925050819055506001601560008282546111d49190612cfe565b90915550505050565b6111e5612641565b6001600160a01b03919091166000908152601160205260409020805460ff1916911515919091179055565b600054600160a81b900460ff16156112605760405162461bcd60e51b8152602060048201526013602482015272105b1c9958591e481a5b9a5d1a585b1a5e9959606a1b6044820152606401610779565b6020810151600280546001600160a01b039283166001600160a01b03199182161790915582516013805491909316911617905560408101516112a19061269f565b60608101516018556080810151600481905560168190556003819055600581905560145560a081015160175560c0810151600c80546001600160a01b03199081166001600160a01b039384161790915560e0830151600b805483169184169190911790556101008301516001805483169184169190911790556101209092015160128054909316911617905560008054600160a81b60ff60a81b19909116179055565b6060600a80548060200260200160405190810160405280929190818152602001828054801561139c57602002820191906000526020600020905b81546001600160a01b0316815260019091019060200180831161137e575b5050505050905090565b6002546001600160a01b03166113ba61229b565b6001600160a01b0316146113e05760405162461bcd60e51b815260040161077990612c30565b6002600054600160a01b900460ff16600281111561140057611400612b54565b146114415760405162461bcd60e51b8152602060048201526011602482015270131bdd1d195c9e481b9bdd08195b991959607a1b6044820152606401610779565b6000805b6009548110156114ba5760006009828154811061146457611464612c72565b60009182526020808320909101546001600160a01b031680835260079091526040909120549091506114969084612cfe565b6001600160a01b039091166000908152600760205260408120559150600101611445565b50600060646114ca836005612d40565b6114d49190612d57565b905060006114e28284612cbb565b600c5460015460405163a9059cbb60e01b81526001600160a01b03918216600482015260248101869052929350169063a9059cbb906044016020604051808303816000875af1158015611539573d6000803e3d6000fd5b505050506040513d601f19601f8201168201806040525081019061155d9190612c88565b50600c5460025460405163a9059cbb60e01b81526001600160a01b0391821660048201526024810184905291169063a9059cbb906044016020604051808303816000875af11580156115b3573d6000803e3d6000fd5b505050506040513d601f19601f820116820180604052508101906110979190612c88565b6002546001600160a01b03166115eb61229b565b6001600160a01b0316146116115760405162461bcd60e51b815260040161077990612c30565b6000805482919060ff60a01b1916600160a01b83600281111561163657611636612b54565b021790555050565b611646612641565b611650600061269f565b565b600d818154811061166257600080fd5b9060005260206000209060209182820401919006915054906101000a900460ff1681565b6002600054600160a01b900460ff1660028111156116a6576116a6612b54565b146116eb5760405162461bcd60e51b815260206004820152601560248201527414d85b19481a5cc81b9bdd08195b991959081e595d605a1b6044820152606401610779565b600860006116f761229b565b6001600160a01b0316815260208101919091526040016000205460ff16156117615760405162461bcd60e51b815260206004820152601760248201527f57696e6e6572732063616e6e6f742077697468647261770000000000000000006044820152606401610779565b60006007600061176f61229b565b6001600160a01b03166001600160a01b03168152602001908152602001600020549050600081116117d95760405162461bcd60e51b81526020600482015260146024820152734e6f2066756e647320746f20776974686472617760601b6044820152606401610779565b6000600760006117e761229b565b6001600160a01b039081168252602082019290925260400160002091909155600c541663a9059cbb61181761229b565b6040516001600160e01b031960e084901b1681526001600160a01b039091166004820152602481018490526044016020604051808303816000875af1158015611864573d6000803e3d6000fd5b505050506040513d601f19601f820116820180604052508101906118889190612c88565b508061189261229b565b6001600160a01b03167f1f280cd00e67ed50213ac03febd5be151f96b7f7db2f85312aa0feff99f8bdab60405160405180910390a350565b6002546001600160a01b03166118de61229b565b6001600160a01b0316148061190d57506000546001600160a01b031661190261229b565b6001600160a01b0316145b8061193d57506011600061191f61229b565b6001600160a01b0316815260208101919091526040016000205460ff165b6119955760405162461bcd60e51b8152602060048201526024808201527f4f6e6c79206f70657261746f722063616e2063616c6c20746869732066756e636044820152633a34b7b760e11b6064820152608401610779565b601854811115611a225760405162461bcd60e51b815260206004820152604c60248201527f5469636b6574732070657220726f756e642063616e6e6f74206265206869676860448201527f6572207468616e20746f74616c206e756d626572206f66207469636b6574732060648201526b696e2041756374696f6e563160a01b608482015260a401610779565b600060185460155410611a6057601654601554611a3f9190612d57565b601754611a4c9190612d40565b600554611a599190612cfe565b9050611ab3565b6000601654601554611a729190612d57565b611a7d906001612cbb565b601754611a8a9190612d40565b9050806005541115611aab5780600554611aa49190612cbb565b9150611ab1565b60145491505b505b6005819055600060158190556004839055601683905560188054849290611adb908490612cbb565b90915550506040805160a081018252601080548083526020808401888152848601888152600160608701818152600060808901818152968152600f8652899020975188559251908701555160028601555160039094018054925115156101000261ff00199515159590951661ffff1990931692909217939093179055548251868152918201859052917fa809180f68c3ea85ec47001279a9070abd80a3022aa303b0fd92eb0e7538d42b910160405180910390a2611b9960016115d7565b60108054906000611ba983612d11565b9190505550505050565b6013546001600160a01b03163314611bfd5760405162461bcd60e51b815260206004820152600d60248201526c37b7363c9037b832b930ba37b960991b6044820152606401610779565b6000611c0b82840184612d93565b91505060008082806020019051810190611c259190612e41565b9150915060008585604051611c3b929190612ec4565b604051809103902090506000600e60008581526020019081526020016000205482149050600d8481548110611c7257611c72612c72565b90600052602060002090602091828204019190069054906101000a900460ff16611cde5760405162461bcd60e51b815260206004820152601c60248201527f726571756573742066756c66696c6c6564206f72206d697373696e67000000006044820152606401610779565b8015611d835760408051602081018a905230918101919091524660608201526080810185905260a0016040516020818303038152906040528051906020012060001c9750611d2d8885856126ef565b6000600d8581548110611d4257611d42612c72565b90600052602060002090602091828204019190066101000a81548160ff021916908315150217905550600e6000858152602001908152602001600020600090555b5050505050505050565b611d986105de61229b565b15611dde5760405162461bcd60e51b815260206004820152601660248201527515da5b9b995c9cc818d85b9b9bdd0819195c1bdcda5d60521b6044820152606401610779565b600c546001600160a01b0316611e365760405162461bcd60e51b815260206004820152601d60248201527f5553444320636f6e74726163742061646472657373206e6f74207365740000006044820152606401610779565b600354811015611e805760405162461bcd60e51b8152602060048201526015602482015274139bdd08195b9bdd59da08199d5b991cc81cd95b9d605a1b6044820152606401610779565b600c5481906001600160a01b031663dd62ed3e611e9b61229b565b6040516001600160e01b031960e084901b1681526001600160a01b039091166004820152306024820152604401602060405180830381865afa158015611ee5573d6000803e3d6000fd5b505050506040513d601f19601f82011682018060405250810190611f099190612ed4565b1015611f505760405162461bcd60e51b8152602060048201526016602482015275496e73756666696369656e7420616c6c6f77616e636560501b6044820152606401610779565b600c546001600160a01b03166323b872dd611f6961229b565b6040516001600160e01b031960e084901b1681526001600160a01b039091166004820152306024820152604481018490526064016020604051808303816000875af1158015611fbc573d6000803e3d6000fd5b505050506040513d601f19601f82011682018060405250810190611fe09190612c88565b5060076000611fed61229b565b6001600160a01b03166001600160a01b031681526020019081526020016000205460000361205257600a61201f61229b565b81546001810183556000928352602090922090910180546001600160a01b0319166001600160a01b039092169190911790555b806007600061205f61229b565b6001600160a01b03166001600160a01b03168152602001908152602001600020600082825461208e9190612cfe565b909155505060055481106120b5576001601560008282546120af9190612cfe565b90915550505b806120be61229b565b6001600160a01b03167f21040858e63c11c046482f61f290bbe25972fc74b11b4570a01f9241082d21f160405160405180910390a350565b6060600980548060200260200160405190810160405280929190818152602001828054801561139c576020028201919060005260206000209081546001600160a01b0316815260019091019060200180831161137e575050505050905090565b6002546001600160a01b031661216a61229b565b6001600160a01b0316146121905760405162461bcd60e51b815260040161077990612c30565b600280546001600160a01b0319166001600160a01b0392909216919091179055565b6121ba612641565b6001600160a01b0381166121e457604051631e4fbdf760e01b815260006004820152602401610779565b610a788161269f565b6002546001600160a01b031661220161229b565b6001600160a01b0316146122275760405162461bcd60e51b815260040161077990612c30565b61225b61223261229b565b604080516001600160a01b0390921660208301520160405160208183030381529060405261272c565b5061226461229b565b6001600160a01b03167fd802e7c7f1646e3318c03abed1e468bdf913f45331a68dc912a0d645eb646a4260405160405180910390a2565b60006122a561282f565b905090565b6001600160a01b038116600081815260086020526040808220805460ff1916600190811790915560098054918201815583527f6e1540171b6c0c960b71a7020d9f60077f6af931a8bbf590da0223dacf75c7af0180546001600160a01b03191684179055517f1d4c260f1824cd028e6c9e6e31c3a0b94f2513e7a641113ec759d382f9bdd5a19190a250565b6002546001600160a01b031661234a61229b565b6001600160a01b0316146123705760405162461bcd60e51b815260040161077990612c30565b6002600054600160a01b900460ff16600281111561239057612390612b54565b146123d55760405162461bcd60e51b815260206004820152601560248201527414d85b19481a5cc81b9bdd08195b991959081e595d605a1b6044820152606401610779565b600a5460008167ffffffffffffffff8111156123f3576123f36129c2565b60405190808252806020026020018201604052801561241c578160200160208202803683370190505b50905060005b8281101561248d57600a818154811061243d5761243d612c72565b9060005260206000200160009054906101000a90046001600160a01b031682828151811061246d5761246d612c72565b6001600160a01b0390921660209283029190910190910152600101612422565b5060005b828110156125fd5760008282815181106124ad576124ad612c72565b6020908102919091018101516001600160a01b0381166000908152600783526040808220805490839055600890945290205490925060ff161561257a576000600554826124fa9190612cbb565b600c5460405163a9059cbb60e01b81526001600160a01b0386811660048301526024820184905292935091169063a9059cbb906044016020604051808303816000875af115801561254f573d6000803e3d6000fd5b505050506040513d601f19601f820116820180604052508101906125739190612c88565b50506125f3565b600c5460405163a9059cbb60e01b81526001600160a01b038481166004830152602482018490529091169063a9059cbb906044016020604051808303816000875af11580156125cd573d6000803e3d6000fd5b505050506040513d601f19601f820116820180604052508101906125f19190612c88565b505b5050600101612491565b5061260a600a60006128ca565b6040518281527f01f8aef848121bbf182106b55119c1094063c572b6c8dcb09040e1203a17abf99060200160405180910390a15050565b61264961229b565b6001600160a01b03166126646000546001600160a01b031690565b6001600160a01b0316146116505761267a61229b565b60405163118cdaa760e01b81526001600160a01b039091166004820152602401610779565b600080546001600160a01b038381166001600160a01b0319831681178455604051919092169283917f8be0079c531659141344cd1fd0a4f28419497f9722a3daafe3b4186f6b6457e09190a35050565b60198390556040518381527f79518eb4b6f70742e6651b03a2ac2bc644ea2613e8de56247857c5be5fc2a0ba9060200160405180910390a1505050565b600d805460018082018084556000849052919290918390811061275157612751612c72565b90600052602060002090602091828204019190066101000a81548160ff0219169083151502179055506000818360405160200161278f929190612eed565b604051602081830303815290604052905060006127aa612873565b9050600081836040516020016127c1929190612eed565b60408051601f1981840301815282825280516020808301919091206000898152600e9092529290208290559250907fd91fc3685b930310b008ec37d2334870cab88a023ed8cc628a2e2ccd4e55d2029061281e9085908790612eed565b60405180910390a150505050919050565b60007f00000000000000000000000000000000000000000000000000000000000000006001600160a01b0316330361286e575060131936013560601c90565b503390565b6000806128846364e6212742612cbb565b90506000612893600383612d57565b61289e906001612cfe565b9050466001146128b8576128b3816001612cfe565b6128c3565b6128c3816004612cfe565b9250505090565b5080546000825590600052602060002090810190610a7891905b808211156128f857600081556001016128e4565b5090565b60006020828403121561290e57600080fd5b5035919050565b80356001600160a01b038116811461292c57600080fd5b919050565b60006020828403121561294357600080fd5b61294c82612915565b9392505050565b6000806040838503121561296657600080fd5b61296f83612915565b946020939093013593505050565b8015158114610a7857600080fd5b6000806040838503121561299e57600080fd5b6129a783612915565b915060208301356129b78161297d565b809150509250929050565b634e487b7160e01b600052604160045260246000fd5b604051610140810167ffffffffffffffff811182821017156129fc576129fc6129c2565b60405290565b604051601f8201601f1916810167ffffffffffffffff81118282101715612a2b57612a2b6129c2565b604052919050565b60006101408284031215612a4657600080fd5b612a4e6129d8565b612a5783612915565b8152612a6560208401612915565b6020820152612a7660408401612915565b6040820152606083013560608201526080830135608082015260a083013560a0820152612aa560c08401612915565b60c0820152612ab660e08401612915565b60e0820152610100612ac9818501612915565b90820152610120612adb848201612915565b908201529392505050565b6020808252825182820181905260009190848201906040850190845b81811015612b275783516001600160a01b031683529284019291840191600101612b02565b50909695505050505050565b600060208284031215612b4557600080fd5b81356003811061294c57600080fd5b634e487b7160e01b600052602160045260246000fd5b6020810160038310612b8c57634e487b7160e01b600052602160045260246000fd5b91905290565b60008060408385031215612ba557600080fd5b50508035926020909101359150565b600080600060408486031215612bc957600080fd5b83359250602084013567ffffffffffffffff80821115612be857600080fd5b818601915086601f830112612bfc57600080fd5b813581811115612c0b57600080fd5b876020828501011115612c1d57600080fd5b6020830194508093505050509250925092565b60208082526022908201527f4f6e6c792073656c6c65722063616e2063616c6c20746869732066756e63746960408201526137b760f11b606082015260800190565b634e487b7160e01b600052603260045260246000fd5b600060208284031215612c9a57600080fd5b815161294c8161297d565b634e487b7160e01b600052601160045260246000fd5b81810381811115612cce57612cce612ca5565b92915050565b634e487b7160e01b600052601260045260246000fd5b600082612cf957612cf9612cd4565b500690565b80820180821115612cce57612cce612ca5565b600060018201612d2357612d23612ca5565b5060010190565b634e487b7160e01b600052603160045260246000fd5b8082028115828204841417612cce57612cce612ca5565b600082612d6657612d66612cd4565b500490565b600067ffffffffffffffff821115612d8557612d856129c2565b50601f01601f191660200190565b60008060408385031215612da657600080fd5b82359150602083013567ffffffffffffffff811115612dc457600080fd5b8301601f81018513612dd557600080fd5b8035612de8612de382612d6b565b612a02565b818152866020838501011115612dfd57600080fd5b816020840160208301376000602083830101528093505050509250929050565b60005b83811015612e38578181015183820152602001612e20565b50506000910152565b60008060408385031215612e5457600080fd5b82519150602083015167ffffffffffffffff811115612e7257600080fd5b8301601f81018513612e8357600080fd5b8051612e91612de382612d6b565b818152866020838501011115612ea657600080fd5b612eb7826020830160208601612e1d565b8093505050509250929050565b8183823760009101908152919050565b600060208284031215612ee657600080fd5b5051919050565b8281526040602082015260008251806040840152612f12816060850160208701612e1d565b601f01601f191691909101606001939250505056fea26469706673582212203b195f1f13861ea4d85be253e07d206e5a8e1bf8ee998c74a026a4d73b3483a864736f6c63430008190033","linkReferences":{}},"methodIdentifiers":{"buyerWithdraw()":"7cc947d0","changeLotteryState(uint8)":"683e93e1","deposit(uint256)":"b6b55f25","deposits(address)":"fc7e286d","endLottery()":"1593a8c7","fulfillRandomness(uint256,bytes)":"b3f6b99a","getDepositedAmount(address)":"e9081ec7","getParticipants()":"5aa68ac0","getWinners()":"df15c37e","hasMinted(address)":"38e21cce","increasePriceStep()":"96efac7b","initialPrice()":"1d0806ae","initialize((address,address,address,uint256,uint256,uint256,address,address,address,address))":"56d7c73a","initialized()":"158ef93e","isTrustedForwarder(address)":"572b6c05","isWinner(address)":"9d9ca28d","lotteryState()":"6939864b","lotteryV2Addr()":"7de13382","minimumDepositAmount()":"080c279a","mintMyNFT()":"26170480","multisigWalletAddress()":"a61fb2ba","nftContractAddr()":"2c23ec8e","numberOfTickets()":"45745c10","operatorAddr()":"f3f18c37","operators(address)":"13e7c9d8","owner()":"8da5cb5b","prevRoundDeposits()":"b680e44b","prevRoundTicketsAmount()":"224f91bd","randomNumber()":"ccbac9f5","renounceOwnership()":"715018a6","requestPending(uint256)":"75ce7fff","requestRandomness()":"f8413b07","requestedHash(uint256)":"c4f8f27b","roundCounter()":"febc14b1","rounds(uint256)":"8c65c81f","selectWinners()":"1a0de74c","seller()":"08551a53","sellerWithdraw()":"66af746b","setOperator(address,bool)":"558a7297","setSeller(address)":"e99d2866","setupNewRound(uint256,uint256)":"a4f03c02","startLottery()":"160344e2","ticketPrice()":"1209b1f6","totalNumberOfTickets()":"00746702","transferDeposit(address,uint256)":"50f3dbec","transferNonWinnerBids(address)":"1630a8df","transferOwnership(address)":"f2fde38b","usdcContractAddr()":"99dbf4b5","winnerAddresses(uint256)":"045f9c97","winners(address)":"6bd5450a"},"id":49}