{"abi":[{"type":"function","name":"auctionV1Addr","inputs":[],"outputs":[{"name":"","type":"address","internalType":"address"}],"stateMutability":"view"},{"type":"function","name":"buyerWithdraw","inputs":[],"outputs":[],"stateMutability":"nonpayable"},{"type":"function","name":"changeLotteryState","inputs":[{"name":"_newState","type":"uint8","internalType":"enum AuctionV2Base.LotteryState"}],"outputs":[],"stateMutability":"nonpayable"},{"type":"function","name":"deposit","inputs":[{"name":"amount","type":"uint256","internalType":"uint256"}],"outputs":[],"stateMutability":"payable"},{"type":"function","name":"deposits","inputs":[{"name":"","type":"address","internalType":"address"}],"outputs":[{"name":"amount","type":"uint256","internalType":"uint256"},{"name":"timestamp","type":"uint256","internalType":"uint256"},{"name":"isWinner","type":"bool","internalType":"bool"}],"stateMutability":"view"},{"type":"function","name":"endLottery","inputs":[],"outputs":[],"stateMutability":"nonpayable"},{"type":"function","name":"finishAt","inputs":[],"outputs":[{"name":"","type":"uint256","internalType":"uint256"}],"stateMutability":"view"},{"type":"function","name":"getDepositedAmount","inputs":[{"name":"participant","type":"address","internalType":"address"}],"outputs":[{"name":"","type":"uint256","internalType":"uint256"}],"stateMutability":"view"},{"type":"function","name":"getWinners","inputs":[],"outputs":[{"name":"","type":"address[]","internalType":"address[]"}],"stateMutability":"view"},{"type":"function","name":"hasMinted","inputs":[{"name":"","type":"address","internalType":"address"}],"outputs":[{"name":"","type":"bool","internalType":"bool"}],"stateMutability":"view"},{"type":"function","name":"initialPrice","inputs":[],"outputs":[{"name":"","type":"uint256","internalType":"uint256"}],"stateMutability":"view"},{"type":"function","name":"initialize","inputs":[{"name":"config","type":"tuple","internalType":"struct StructsLibrary.IAuctionBaseConfig","components":[{"name":"_seller","type":"address","internalType":"address"},{"name":"_owner","type":"address","internalType":"address"},{"name":"_ticketAmount","type":"uint256","internalType":"uint256"},{"name":"_ticketPrice","type":"uint256","internalType":"uint256"},{"name":"_finishAt","type":"uint256","internalType":"uint256"},{"name":"_auctionV1Clone","type":"address","internalType":"address"},{"name":"_usdcContractAddr","type":"address","internalType":"address"},{"name":"_multisigWalletAddress","type":"address","internalType":"address"}]}],"outputs":[],"stateMutability":"nonpayable"},{"type":"function","name":"initialized","inputs":[],"outputs":[{"name":"","type":"bool","internalType":"bool"}],"stateMutability":"view"},{"type":"function","name":"isParticipant","inputs":[{"name":"_participant","type":"address","internalType":"address"}],"outputs":[{"name":"","type":"bool","internalType":"bool"}],"stateMutability":"view"},{"type":"function","name":"isTrustedForwarder","inputs":[{"name":"forwarder","type":"address","internalType":"address"}],"outputs":[{"name":"","type":"bool","internalType":"bool"}],"stateMutability":"view"},{"type":"function","name":"isWinner","inputs":[{"name":"_participant","type":"address","internalType":"address"}],"outputs":[{"name":"","type":"bool","internalType":"bool"}],"stateMutability":"view"},{"type":"function","name":"lotteryState","inputs":[],"outputs":[{"name":"","type":"uint8","internalType":"enum AuctionV2Base.LotteryState"}],"stateMutability":"view"},{"type":"function","name":"minimumDepositAmount","inputs":[],"outputs":[{"name":"","type":"uint256","internalType":"uint256"}],"stateMutability":"view"},{"type":"function","name":"mintMyNFT","inputs":[],"outputs":[],"stateMutability":"nonpayable"},{"type":"function","name":"multisigWalletAddress","inputs":[],"outputs":[{"name":"","type":"address","internalType":"address"}],"stateMutability":"view"},{"type":"function","name":"nftContractAddr","inputs":[],"outputs":[{"name":"","type":"address","internalType":"address"}],"stateMutability":"view"},{"type":"function","name":"numberOfTickets","inputs":[],"outputs":[{"name":"","type":"uint256","internalType":"uint256"}],"stateMutability":"view"},{"type":"function","name":"operators","inputs":[{"name":"","type":"address","internalType":"address"}],"outputs":[{"name":"","type":"bool","internalType":"bool"}],"stateMutability":"view"},{"type":"function","name":"owner","inputs":[],"outputs":[{"name":"","type":"address","internalType":"address"}],"stateMutability":"view"},{"type":"function","name":"participants","inputs":[{"name":"","type":"uint256","internalType":"uint256"}],"outputs":[{"name":"","type":"address","internalType":"address"}],"stateMutability":"view"},{"type":"function","name":"renounceOwnership","inputs":[],"outputs":[],"stateMutability":"nonpayable"},{"type":"function","name":"selectWinners","inputs":[],"outputs":[],"stateMutability":"nonpayable"},{"type":"function","name":"seller","inputs":[],"outputs":[{"name":"","type":"address","internalType":"address"}],"stateMutability":"view"},{"type":"function","name":"sellerWithdraw","inputs":[],"outputs":[],"stateMutability":"nonpayable"},{"type":"function","name":"setAuctionV1Addr","inputs":[{"name":"_auctionV1Addr","type":"address","internalType":"address"}],"outputs":[],"stateMutability":"nonpayable"},{"type":"function","name":"setFinishAt","inputs":[{"name":"_finishAt","type":"uint256","internalType":"uint256"}],"outputs":[],"stateMutability":"nonpayable"},{"type":"function","name":"setInitPrice","inputs":[{"name":"_amount","type":"uint256","internalType":"uint256"}],"outputs":[],"stateMutability":"nonpayable"},{"type":"function","name":"setMultisigWalletAddress","inputs":[{"name":"_multisigWalletAddress","type":"address","internalType":"address"}],"outputs":[],"stateMutability":"nonpayable"},{"type":"function","name":"setNftContractAddr","inputs":[{"name":"_nftContractAddr","type":"address","internalType":"address"}],"outputs":[],"stateMutability":"nonpayable"},{"type":"function","name":"setNumberOfTickets","inputs":[{"name":"_numberOfTickets","type":"uint256","internalType":"uint256"}],"outputs":[],"stateMutability":"nonpayable"},{"type":"function","name":"setOperator","inputs":[{"name":"_operator","type":"address","internalType":"address"},{"name":"_flag","type":"bool","internalType":"bool"}],"outputs":[],"stateMutability":"nonpayable"},{"type":"function","name":"setUsdcContractAddr","inputs":[{"name":"_usdcContractAddr","type":"address","internalType":"address"}],"outputs":[],"stateMutability":"nonpayable"},{"type":"function","name":"setWinner","inputs":[{"name":"_winner","type":"address","internalType":"address"}],"outputs":[],"stateMutability":"nonpayable"},{"type":"function","name":"sortDepositsDesc","inputs":[],"outputs":[],"stateMutability":"nonpayable"},{"type":"function","name":"startLottery","inputs":[],"outputs":[],"stateMutability":"nonpayable"},{"type":"function","name":"transferDeposit","inputs":[{"name":"_participant","type":"address","internalType":"address"},{"name":"_amount","type":"uint256","internalType":"uint256"}],"outputs":[],"stateMutability":"nonpayable"},{"type":"function","name":"transferOwnership","inputs":[{"name":"newOwner","type":"address","internalType":"address"}],"outputs":[],"stateMutability":"nonpayable"},{"type":"function","name":"usdcContractAddr","inputs":[],"outputs":[{"name":"","type":"address","internalType":"address"}],"stateMutability":"view"},{"type":"function","name":"winnerAddresses","inputs":[{"name":"","type":"uint256","internalType":"uint256"}],"outputs":[{"name":"","type":"address","internalType":"address"}],"stateMutability":"view"},{"type":"function","name":"winners","inputs":[{"name":"","type":"address","internalType":"address"}],"outputs":[{"name":"","type":"bool","internalType":"bool"}],"stateMutability":"view"},{"type":"event","name":"LotteryEnded","inputs":[],"anonymous":false},{"type":"event","name":"LotteryStarted","inputs":[],"anonymous":false},{"type":"event","name":"OwnershipTransferred","inputs":[{"name":"previousOwner","type":"address","indexed":true,"internalType":"address"},{"name":"newOwner","type":"address","indexed":true,"internalType":"address"}],"anonymous":false},{"type":"event","name":"WinnerSelected","inputs":[{"name":"winner","type":"address","indexed":true,"internalType":"address"}],"anonymous":false},{"type":"error","name":"OwnableInvalidOwner","inputs":[{"name":"owner","type":"address","internalType":"address"}]},{"type":"error","name":"OwnableUnauthorizedAccount","inputs":[{"name":"account","type":"address","internalType":"address"}]}],"bytecode":{"object":"0x60a06040526000805460ff60a01b1916905534801561001d57600080fd5b5073d8253782c45a12053594b9deb72d8e8ab2fca54c338061005957604051631e4fbdf760e01b81526000600482015260240160405180910390fd5b61006281610074565b506001600160a01b03166080526100c4565b600080546001600160a01b038381166001600160a01b0319831681178455604051919092169283917f8be0079c531659141344cd1fd0a4f28419497f9722a3daafe3b4186f6b6457e09190a35050565b6080516125176100e6600039600081816104e8015261210d01526125176000f3fe6080604052600436106102725760003560e01c8063683e93e11161014f5780639bbe5e78116100c1578063c6ec99ab1161007a578063c6ec99ab1461078a578063d9fca769146107aa578063df15c37e146107ca578063e9081ec7146107ec578063f2fde38b14610822578063fc7e286d1461084257600080fd5b80639bbe5e78146106be5780639d9ca28d146106de5780639fcd679714610717578063a61fb2ba14610737578063b6b55f2514610757578063c35344ad1461076a57600080fd5b80638da5cb5b116101135780638da5cb5b1461060b578063929066f51461062957806394d898de1461064957806399bd69d61461066957806399dbf4b5146106895780639abb8247146106a957600080fd5b8063683e93e1146105635780636939864b146105835780636bd5450a146105b1578063715018a6146105e15780637cc947d0146105f657600080fd5b80632c23ec8e116101e857806350f3dbec116101ac57806350f3dbec1461048b578063558a7297146104ab578063572b6c05146104cb57806360d50da31461051857806366af746b1461053857806367d3b4881461054d57600080fd5b80632c23ec8e146103e557806335c1d349146104055780633644c27c1461042557806338e21cce1461044557806345745c101461047557600080fd5b8063158ef93e1161023a578063158ef93e1461035a5780631593a8c71461037b578063160344e2146103905780631a0de74c146103a55780631d0806ae146103ba57806326170480146103d057600080fd5b8063045f9c9714610277578063080c279a146102b457806308551a53146102d85780630bea6637146102f857806313e7c9d81461031a575b600080fd5b34801561028357600080fd5b5061029761029236600461214d565b61089e565b6040516001600160a01b0390911681526020015b60405180910390f35b3480156102c057600080fd5b506102ca60035481565b6040519081526020016102ab565b3480156102e457600080fd5b50600254610297906001600160a01b031681565b34801561030457600080fd5b5061031861031336600461214d565b6108c8565b005b34801561032657600080fd5b5061034a610335366004612182565b60096020526000908152604090205460ff1681565b60405190151581526020016102ab565b34801561036657600080fd5b5060005461034a90600160a01b900460ff1681565b34801561038757600080fd5b50610318610965565b34801561039c57600080fd5b506103186109ab565b3480156103b157600080fd5b50610318610a83565b3480156103c657600080fd5b506102ca60045481565b3480156103dc57600080fd5b50610318610d31565b3480156103f157600080fd5b50600c54610297906001600160a01b031681565b34801561041157600080fd5b5061029761042036600461214d565b610f66565b34801561043157600080fd5b50610318610440366004612182565b610f76565b34801561045157600080fd5b5061034a610460366004612182565b60066020526000908152604090205460ff1681565b34801561048157600080fd5b506102ca60055481565b34801561049757600080fd5b506103186104a63660046121a4565b610fa0565b3480156104b757600080fd5b506103186104c63660046121dc565b6110f4565b3480156104d757600080fd5b5061034a6104e6366004612182565b7f00000000000000000000000000000000000000000000000000000000000000006001600160a01b0390811691161490565b34801561052457600080fd5b50610318610533366004612182565b611127565b34801561054457600080fd5b50610318611151565b34801561055957600080fd5b506102ca600f5481565b34801561056f57600080fd5b5061031861057e366004612213565b611388565b34801561058f57600080fd5b506000546105a490600160a81b900460ff1681565b6040516102ab919061224a565b3480156105bd57600080fd5b5061034a6105cc366004612182565b60086020526000908152604090205460ff1681565b3480156105ed57600080fd5b506103186113ef565b34801561060257600080fd5b50610318611401565b34801561061757600080fd5b506000546001600160a01b0316610297565b34801561063557600080fd5b5061034a610644366004612182565b611601565b34801561065557600080fd5b50610318610664366004612182565b611660565b34801561067557600080fd5b5061031861068436600461214d565b61168a565b34801561069557600080fd5b50600d54610297906001600160a01b031681565b3480156106b557600080fd5b5061031861172d565b3480156106ca57600080fd5b506103186106d936600461214d565b611906565b3480156106ea57600080fd5b5061034a6106f9366004612182565b6001600160a01b031660009081526008602052604090205460ff1690565b34801561072357600080fd5b50610318610732366004612272565b61194f565b34801561074357600080fd5b50600154610297906001600160a01b031681565b61031861076536600461214d565b611a4c565b34801561077657600080fd5b50610318610785366004612182565b611e48565b34801561079657600080fd5b50600e54610297906001600160a01b031681565b3480156107b657600080fd5b506103186107c5366004612182565b611ef9565b3480156107d657600080fd5b506107df611faf565b6040516102ab9190612330565b3480156107f857600080fd5b506102ca610807366004612182565b6001600160a01b031660009081526007602052604090205490565b34801561082e57600080fd5b5061031861083d366004612182565b612011565b34801561084e57600080fd5b5061088161085d366004612182565b60076020526000908152604090208054600182015460029092015490919060ff1683565b6040805193845260208401929092521515908201526060016102ab565b600a81815481106108ae57600080fd5b6000918252602090912001546001600160a01b0316905081565b6002546001600160a01b03166108dc61204c565b6001600160a01b0316148061090b57506000546001600160a01b031661090061204c565b6001600160a01b0316145b8061093b57506009600061091d61204c565b6001600160a01b0316815260208101919091526040016000205460ff165b6109605760405162461bcd60e51b81526004016109579061237d565b60405180910390fd5b600f55565b6002546001600160a01b031661097961204c565b6001600160a01b03161461099f5760405162461bcd60e51b8152600401610957906123c1565b6109a96002611388565b565b6002546001600160a01b03166109bf61204c565b6001600160a01b0316146109e55760405162461bcd60e51b8152600401610957906123c1565b60008054600160a81b900460ff166004811115610a0457610a04612234565b1480610a2d57506002600054600160a81b900460ff166004811115610a2b57610a2b612234565b145b610a795760405162461bcd60e51b815260206004820152601a60248201527f4c6f747465727920697320696e206163746976652073746174650000000000006044820152606401610957565b6109a96001611388565b6002546001600160a01b0316610a9761204c565b6001600160a01b031614610abd5760405162461bcd60e51b8152600401610957906123c1565b600060055411610b0f5760405162461bcd60e51b815260206004820152601b60248201527f4e6f207469636b657473206c65667420746f20616c6c6f6361746500000000006044820152606401610957565b600b5460055410610bc65760005b600b54811015610bc0576000600b8281548110610b3c57610b3c612403565b6000918252602090912001546001600160a01b03169050610b75816001600160a01b031660009081526008602052604090205460ff1690565b610bb757610b8281611ef9565b6040516001600160a01b038216907f1d4c260f1824cd028e6c9e6e31c3a0b94f2513e7a641113ec759d382f9bdd5a190600090a25b50600101610b1d565b50610d06565b610bce61172d565b600060076000600b6001600554610be5919061242f565b81548110610bf557610bf5612403565b60009182526020808320909101546001600160a01b0316835282019290925260400181205491505b600b54811015610d03578160076000600b8481548110610c3f57610c3f612403565b60009182526020808320909101546001600160a01b0316835282019290925260400190205410610cfb576000600b8281548110610c7e57610c7e612403565b6000918252602090912001546001600160a01b03169050610cb7816001600160a01b031660009081526008602052604090205460ff1690565b610cf957610cc481611ef9565b6040516001600160a01b038216907f1d4c260f1824cd028e6c9e6e31c3a0b94f2513e7a641113ec759d382f9bdd5a190600090a25b505b600101610c1d565b50505b6040517f9c89a6ed7228533196a3f962acc80d61a9c53bdea6b910741bf754f5aaa7569e90600090a1565b60066000610d3d61204c565b6001600160a01b0316815260208101919091526040016000205460ff1615610d9c5760405162461bcd60e51b815260206004820152601260248201527113919508185b1c9958591e481b5a5b9d195960721b6044820152606401610957565b6002600054600160a81b900460ff166004811115610dbc57610dbc612234565b14610e095760405162461bcd60e51b815260206004820152601860248201527f4c6f7474657279206973206e6f7420656e6465642079657400000000000000006044820152606401610957565b600060055411610e5b5760405162461bcd60e51b815260206004820152601b60248201527f4e6f207469636b657473206c65667420746f20616c6c6f6361746500000000006044820152606401610957565b610e666106f961204c565b610eab5760405162461bcd60e51b815260206004820152601660248201527521b0b63632b91034b9903737ba1030903bb4b73732b960511b6044820152606401610957565b600160066000610eb961204c565b6001600160a01b0390811682526020820192909252604001600020805460ff191692151592909217909155600c5416636b8f60f6610ef561204c565b6040516001600160e01b031960e084901b1681526001600160a01b039091166004820152602401600060405180830381600087803b158015610f3657600080fd5b505af1158015610f4a573d6000803e3d6000fd5b505060058054925090506000610f5f83612448565b9190505550565b600b81815481106108ae57600080fd5b610f7e61205b565b600c80546001600160a01b0319166001600160a01b0392909216919091179055565b610fa861204c565b600e546001600160a01b039081169116146110155760405162461bcd60e51b815260206004820152602760248201527f4f6e6c792077686974656c6973746564206d61792063616c6c207468697320666044820152663ab731ba34b7b760c91b6064820152608401610957565b61101e82611601565b15611056576001600160a01b0382166000908152600760205260408120805483929061104b90849061245f565b909155506110f09050565b6040805160608101825282815242602080830191825260008385018181526001600160a01b038816808352600790935294812093518455915160018085019190915593516002909301805460ff191693151593909317909255600b8054938401815590527f0175b7a638427703f0dbe7bb9bbf987a2551717b34e79f33b5b1008d1fa01db990910180546001600160a01b03191690911790555b5050565b6110fc61205b565b6001600160a01b03919091166000908152600960205260409020805460ff1916911515919091179055565b61112f61205b565b600180546001600160a01b0319166001600160a01b0392909216919091179055565b6002546001600160a01b031661116561204c565b6001600160a01b03161461118b5760405162461bcd60e51b8152600401610957906123c1565b6002600054600160a81b900460ff1660048111156111ab576111ab612234565b146111ec5760405162461bcd60e51b8152602060048201526011602482015270131bdd1d195c9e481b9bdd08195b991959607a1b6044820152606401610957565b6000805b600a54811015611265576000600a828154811061120f5761120f612403565b60009182526020808320909101546001600160a01b03168083526007909152604090912054909150611241908461245f565b6001600160a01b0390911660009081526007602052604081205591506001016111f0565b5060006064611275836005612472565b61127f9190612489565b9050600061128d828461242f565b600d5460015460405163a9059cbb60e01b81526001600160a01b03918216600482015260248101869052929350169063a9059cbb906044016020604051808303816000875af11580156112e4573d6000803e3d6000fd5b505050506040513d601f19601f8201168201806040525081019061130891906124ab565b50600d5460025460405163a9059cbb60e01b81526001600160a01b0391821660048201526024810184905291169063a9059cbb906044016020604051808303816000875af115801561135e573d6000803e3d6000fd5b505050506040513d601f19601f8201168201806040525081019061138291906124ab565b50505050565b6002546001600160a01b031661139c61204c565b6001600160a01b0316146113c25760405162461bcd60e51b8152600401610957906123c1565b6000805482919060ff60a81b1916600160a81b8360048111156113e7576113e7612234565b021790555050565b6113f761205b565b6109a960006120b9565b6001600054600160a81b900460ff16600481111561142157611421612234565b0361146e5760405162461bcd60e51b815260206004820152601b60248201527f4c6f74746572792069732063757272656e746c792061637469766500000000006044820152606401610957565b6008600061147a61204c565b6001600160a01b0316815260208101919091526040016000205460ff16156114e45760405162461bcd60e51b815260206004820152601760248201527f57696e6e6572732063616e6e6f742077697468647261770000000000000000006044820152606401610957565b6000600760006114f261204c565b6001600160a01b031681526020810191909152604001600020549050806115525760405162461bcd60e51b81526020600482015260146024820152734e6f2066756e647320746f20776974686472617760601b6044820152606401610957565b60006007600061156061204c565b6001600160a01b039081168252602082019290925260400160002091909155600d541663a9059cbb61159061204c565b6040516001600160e01b031960e084901b1681526001600160a01b039091166004820152602481018490526044016020604051808303816000875af11580156115dd573d6000803e3d6000fd5b505050506040513d601f19601f820116820180604052508101906110f091906124ab565b6000805b600b5481101561165757826001600160a01b0316600b828154811061162c5761162c612403565b6000918252602090912001546001600160a01b03160361164f5750600192915050565b600101611605565b50600092915050565b61166861205b565b600d80546001600160a01b0319166001600160a01b0392909216919091179055565b6002546001600160a01b031661169e61204c565b6001600160a01b0316146116c45760405162461bcd60e51b8152600401610957906123c1565b600081116117285760405162461bcd60e51b815260206004820152602b60248201527f4e756d626572206f66207469636b657473206d7573742062652067726561746560448201526a72207468616e207a65726f60a81b6064820152608401610957565b600555565b6002546001600160a01b031661174161204c565b6001600160a01b0316146117675760405162461bcd60e51b8152600401610957906123c1565b60005b600b5481101561190357600061178182600161245f565b90505b600b548110156118fa5760076000600b83815481106117a5576117a5612403565b60009182526020808320909101546001600160a01b03168352820192909252604001812054600b80549192600792909190869081106117e6576117e6612403565b60009182526020808320909101546001600160a01b0316835282019290925260400190205410156118f2576000600b838154811061182657611826612403565b600091825260209091200154600b80546001600160a01b039092169250908390811061185457611854612403565b600091825260209091200154600b80546001600160a01b03909216918590811061188057611880612403565b9060005260206000200160006101000a8154816001600160a01b0302191690836001600160a01b0316021790555080600b83815481106118c2576118c2612403565b9060005260206000200160006101000a8154816001600160a01b0302191690836001600160a01b03160217905550505b600101611784565b5060010161176a565b50565b6002546001600160a01b031661191a61204c565b6001600160a01b0316146119405760405162461bcd60e51b8152600401610957906123c1565b60045460000361190357600455565b600054600160a01b900460ff161561199f5760405162461bcd60e51b8152602060048201526013602482015272105b1c9958591e481a5b9a5d1a585b1a5e9959606a1b6044820152606401610957565b8051600280546001600160a01b0319166001600160a01b0390921691909117905560208101516119ce906120b9565b6040810151600555606081015160038190556004556080810151600f5560a0810151600e80546001600160a01b03199081166001600160a01b039384161790915560c0830151600d8054831691841691909117905560e09092015160018054909316911617905560008054600160a01b60ff60a01b19909116179055565b611a576106f961204c565b15611a9d5760405162461bcd60e51b815260206004820152601660248201527515da5b9b995c9cc818d85b9b9bdd0819195c1bdcda5d60521b6044820152606401610957565b42600f5411611af85760405162461bcd60e51b815260206004820152602160248201527f4465706f7369747320617265206e6f7420706f737369626c6520616e796d6f726044820152606560f81b6064820152608401610957565b600d546001600160a01b0316611b505760405162461bcd60e51b815260206004820152601d60248201527f5553444320636f6e74726163742061646472657373206e6f74207365740000006044820152606401610957565b600454811015611ba25760405162461bcd60e51b815260206004820152601760248201527f496e73756666696369656e742066756e64732073656e740000000000000000006044820152606401610957565b60008111611be25760405162461bcd60e51b815260206004820152600d60248201526c139bc8199d5b991cc81cd95b9d609a1b6044820152606401610957565b600d5481906001600160a01b031663dd62ed3e611bfd61204c565b6040516001600160e01b031960e084901b1681526001600160a01b039091166004820152306024820152604401602060405180830381865afa158015611c47573d6000803e3d6000fd5b505050506040513d601f19601f82011682018060405250810190611c6b91906124c8565b1015611cb25760405162461bcd60e51b8152602060048201526016602482015275496e73756666696369656e7420616c6c6f77616e636560501b6044820152606401610957565b600d546001600160a01b03166323b872dd611ccb61204c565b6040516001600160e01b031960e084901b1681526001600160a01b039091166004820152306024820152604481018490526064016020604051808303816000875af1158015611d1e573d6000803e3d6000fd5b505050506040513d601f19601f82011682018060405250810190611d4291906124ab565b50611d4e61064461204c565b15611d9d578060076000611d6061204c565b6001600160a01b03166001600160a01b031681526020019081526020016000206000016000828254611d92919061245f565b909155506119039050565b60405180606001604052808281526020014281526020016000151581525060076000611dc761204c565b6001600160a01b0316815260208082019290925260409081016000208351815591830151600183015591909101516002909101805460ff1916911515919091179055600b611e1361204c565b81546001810183556000928352602090922090910180546001600160a01b0319166001600160a01b0390921691909117905550565b6002546001600160a01b0316611e5c61204c565b6001600160a01b03161480611e8b57506000546001600160a01b0316611e8061204c565b6001600160a01b0316145b80611ebb575060096000611e9d61204c565b6001600160a01b0316815260208101919091526040016000205460ff165b611ed75760405162461bcd60e51b81526004016109579061237d565b600e80546001600160a01b0319166001600160a01b0392909216919091179055565b6002546001600160a01b0316611f0d61204c565b6001600160a01b031614611f335760405162461bcd60e51b8152600401610957906123c1565b6001600160a01b031660008181526008602090815260408083208054600160ff199182168117909255600a80548084019091557fc65a7bb8d6351c1cf70c95a316cc6a92839c986682d98bc35f958f4883f9d2a80180546001600160a01b03191690961790955560079092529091206002018054909216179055565b6060600a80548060200260200160405190810160405280929190818152602001828054801561200757602002820191906000526020600020905b81546001600160a01b03168152600190910190602001808311611fe9575b5050505050905090565b61201961205b565b6001600160a01b03811661204357604051631e4fbdf760e01b815260006004820152602401610957565b611903816120b9565b6000612056612109565b905090565b61206361204c565b6001600160a01b031661207e6000546001600160a01b031690565b6001600160a01b0316146109a95761209461204c565b60405163118cdaa760e01b81526001600160a01b039091166004820152602401610957565b600080546001600160a01b038381166001600160a01b0319831681178455604051919092169283917f8be0079c531659141344cd1fd0a4f28419497f9722a3daafe3b4186f6b6457e09190a35050565b60007f00000000000000000000000000000000000000000000000000000000000000006001600160a01b03163303612148575060131936013560601c90565b503390565b60006020828403121561215f57600080fd5b5035919050565b80356001600160a01b038116811461217d57600080fd5b919050565b60006020828403121561219457600080fd5b61219d82612166565b9392505050565b600080604083850312156121b757600080fd5b6121c083612166565b946020939093013593505050565b801515811461190357600080fd5b600080604083850312156121ef57600080fd5b6121f883612166565b91506020830135612208816121ce565b809150509250929050565b60006020828403121561222557600080fd5b81356005811061219d57600080fd5b634e487b7160e01b600052602160045260246000fd5b602081016005831061226c57634e487b7160e01b600052602160045260246000fd5b91905290565b600061010080838503121561228657600080fd5b6040519081019067ffffffffffffffff821181831017156122b757634e487b7160e01b600052604160045260246000fd5b816040526122c484612166565b81526122d260208501612166565b602082015260408401356040820152606084013560608201526080840135608082015261230160a08501612166565b60a082015261231260c08501612166565b60c082015261232360e08501612166565b60e0820152949350505050565b6020808252825182820181905260009190848201906040850190845b818110156123715783516001600160a01b03168352928401929184019160010161234c565b50909695505050505050565b60208082526024908201527f4f6e6c79206f70657261746f722063616e2063616c6c20746869732066756e636040820152633a34b7b760e11b606082015260800190565b60208082526022908201527f4f6e6c792073656c6c65722063616e2063616c6c20746869732066756e63746960408201526137b760f11b606082015260800190565b634e487b7160e01b600052603260045260246000fd5b634e487b7160e01b600052601160045260246000fd5b8181038181111561244257612442612419565b92915050565b60008161245757612457612419565b506000190190565b8082018082111561244257612442612419565b808202811582820484141761244257612442612419565b6000826124a657634e487b7160e01b600052601260045260246000fd5b500490565b6000602082840312156124bd57600080fd5b815161219d816121ce565b6000602082840312156124da57600080fd5b505191905056fea26469706673582212208be12c3a9cf0bafb8709d501a57305a3eb0ce3a8fadd03699931273e08b05c5264736f6c63430008190033","linkReferences":{}},"methodIdentifiers":{"auctionV1Addr()":"c6ec99ab","buyerWithdraw()":"7cc947d0","changeLotteryState(uint8)":"683e93e1","deposit(uint256)":"b6b55f25","deposits(address)":"fc7e286d","endLottery()":"1593a8c7","finishAt()":"67d3b488","getDepositedAmount(address)":"e9081ec7","getWinners()":"df15c37e","hasMinted(address)":"38e21cce","initialPrice()":"1d0806ae","initialize((address,address,uint256,uint256,uint256,address,address,address))":"9fcd6797","initialized()":"158ef93e","isParticipant(address)":"929066f5","isTrustedForwarder(address)":"572b6c05","isWinner(address)":"9d9ca28d","lotteryState()":"6939864b","minimumDepositAmount()":"080c279a","mintMyNFT()":"26170480","multisigWalletAddress()":"a61fb2ba","nftContractAddr()":"2c23ec8e","numberOfTickets()":"45745c10","operators(address)":"13e7c9d8","owner()":"8da5cb5b","participants(uint256)":"35c1d349","renounceOwnership()":"715018a6","selectWinners()":"1a0de74c","seller()":"08551a53","sellerWithdraw()":"66af746b","setAuctionV1Addr(address)":"c35344ad","setFinishAt(uint256)":"0bea6637","setInitPrice(uint256)":"9bbe5e78","setMultisigWalletAddress(address)":"60d50da3","setNftContractAddr(address)":"3644c27c","setNumberOfTickets(uint256)":"99bd69d6","setOperator(address,bool)":"558a7297","setUsdcContractAddr(address)":"94d898de","setWinner(address)":"d9fca769","sortDepositsDesc()":"9abb8247","startLottery()":"160344e2","transferDeposit(address,uint256)":"50f3dbec","transferOwnership(address)":"f2fde38b","usdcContractAddr()":"99dbf4b5","winnerAddresses(uint256)":"045f9c97","winners(address)":"6bd5450a"},"id":39}