{"abi":[{"type":"function","name":"Deposits","inputs":[{"name":"","type":"address","internalType":"address"}],"outputs":[{"name":"amount","type":"uint256","internalType":"uint256"},{"name":"statsAmount","type":"uint256","internalType":"uint256"},{"name":"timestamp","type":"uint256","internalType":"uint256"},{"name":"isWinner","type":"bool","internalType":"bool"}],"stateMutability":"view"},{"type":"function","name":"auctionV1Addr","inputs":[],"outputs":[{"name":"","type":"address","internalType":"address"}],"stateMutability":"view"},{"type":"function","name":"buyerWithdraw","inputs":[],"outputs":[],"stateMutability":"nonpayable"},{"type":"function","name":"changeLotteryState","inputs":[{"name":"_newState","type":"uint8","internalType":"enum SaleBase.LotteryState"}],"outputs":[],"stateMutability":"nonpayable"},{"type":"function","name":"deposit","inputs":[{"name":"amount","type":"uint256","internalType":"uint256"}],"outputs":[],"stateMutability":"nonpayable"},{"type":"function","name":"deposits","inputs":[{"name":"","type":"address","internalType":"address"}],"outputs":[{"name":"","type":"uint256","internalType":"uint256"}],"stateMutability":"view"},{"type":"function","name":"endLottery","inputs":[],"outputs":[],"stateMutability":"nonpayable"},{"type":"function","name":"getDepositedAmount","inputs":[{"name":"participant","type":"address","internalType":"address"}],"outputs":[{"name":"","type":"uint256","internalType":"uint256"}],"stateMutability":"view"},{"type":"function","name":"getParticipants","inputs":[],"outputs":[{"name":"","type":"address[]","internalType":"address[]"}],"stateMutability":"view"},{"type":"function","name":"getWinners","inputs":[],"outputs":[{"name":"","type":"address[]","internalType":"address[]"}],"stateMutability":"view"},{"type":"function","name":"hasMinted","inputs":[{"name":"","type":"address","internalType":"address"}],"outputs":[{"name":"","type":"bool","internalType":"bool"}],"stateMutability":"view"},{"type":"function","name":"initialPrice","inputs":[],"outputs":[{"name":"","type":"uint256","internalType":"uint256"}],"stateMutability":"view"},{"type":"function","name":"initialize","inputs":[{"name":"config","type":"tuple","internalType":"struct StructsLibrary.IAuctionV2BaseConfig","components":[{"name":"_seller","type":"address","internalType":"address"},{"name":"_owner","type":"address","internalType":"address"},{"name":"_ticketAmount","type":"uint256","internalType":"uint256"},{"name":"_ticketPrice","type":"uint256","internalType":"uint256"},{"name":"_usdcContractAddr","type":"address","internalType":"address"},{"name":"_nftContractAddr","type":"address","internalType":"address"},{"name":"_multisigWalletAddress","type":"address","internalType":"address"},{"name":"_prevPhaseContractAddr","type":"address","internalType":"address"}]}],"outputs":[],"stateMutability":"nonpayable"},{"type":"function","name":"isParticipant","inputs":[{"name":"_participant","type":"address","internalType":"address"}],"outputs":[{"name":"","type":"bool","internalType":"bool"}],"stateMutability":"view"},{"type":"function","name":"isTrustedForwarder","inputs":[{"name":"forwarder","type":"address","internalType":"address"}],"outputs":[{"name":"","type":"bool","internalType":"bool"}],"stateMutability":"view"},{"type":"function","name":"isWinner","inputs":[{"name":"_participant","type":"address","internalType":"address"}],"outputs":[{"name":"","type":"bool","internalType":"bool"}],"stateMutability":"view"},{"type":"function","name":"lotteryState","inputs":[],"outputs":[{"name":"","type":"uint8","internalType":"enum SaleBase.LotteryState"}],"stateMutability":"view"},{"type":"function","name":"mintMyNFT","inputs":[],"outputs":[],"stateMutability":"nonpayable"},{"type":"function","name":"multisigWalletAddress","inputs":[],"outputs":[{"name":"","type":"address","internalType":"address"}],"stateMutability":"view"},{"type":"function","name":"nftContractAddr","inputs":[],"outputs":[{"name":"","type":"address","internalType":"address"}],"stateMutability":"view"},{"type":"function","name":"numberOfTickets","inputs":[],"outputs":[{"name":"","type":"uint256","internalType":"uint256"}],"stateMutability":"view"},{"type":"function","name":"operators","inputs":[{"name":"","type":"address","internalType":"address"}],"outputs":[{"name":"","type":"bool","internalType":"bool"}],"stateMutability":"view"},{"type":"function","name":"owner","inputs":[],"outputs":[{"name":"","type":"address","internalType":"address"}],"stateMutability":"view"},{"type":"function","name":"renounceOwnership","inputs":[],"outputs":[],"stateMutability":"nonpayable"},{"type":"function","name":"selectWinners","inputs":[],"outputs":[],"stateMutability":"nonpayable"},{"type":"function","name":"seller","inputs":[],"outputs":[{"name":"","type":"address","internalType":"address"}],"stateMutability":"view"},{"type":"function","name":"sellerWithdraw","inputs":[],"outputs":[],"stateMutability":"nonpayable"},{"type":"function","name":"setOperator","inputs":[{"name":"_operator","type":"address","internalType":"address"},{"name":"_flag","type":"bool","internalType":"bool"}],"outputs":[],"stateMutability":"nonpayable"},{"type":"function","name":"setSeller","inputs":[{"name":"_seller","type":"address","internalType":"address"}],"outputs":[],"stateMutability":"nonpayable"},{"type":"function","name":"sortDepositsDesc","inputs":[],"outputs":[],"stateMutability":"nonpayable"},{"type":"function","name":"startLottery","inputs":[],"outputs":[],"stateMutability":"nonpayable"},{"type":"function","name":"ticketPrice","inputs":[],"outputs":[{"name":"","type":"uint256","internalType":"uint256"}],"stateMutability":"view"},{"type":"function","name":"transferDeposit","inputs":[{"name":"_participant","type":"address","internalType":"address"},{"name":"_amount","type":"uint256","internalType":"uint256"}],"outputs":[],"stateMutability":"nonpayable"},{"type":"function","name":"transferOwnership","inputs":[{"name":"newOwner","type":"address","internalType":"address"}],"outputs":[],"stateMutability":"nonpayable"},{"type":"function","name":"usdcContractAddr","inputs":[],"outputs":[{"name":"","type":"address","internalType":"address"}],"stateMutability":"view"},{"type":"function","name":"winnerAddresses","inputs":[{"name":"","type":"uint256","internalType":"uint256"}],"outputs":[{"name":"","type":"address","internalType":"address"}],"stateMutability":"view"},{"type":"function","name":"winners","inputs":[{"name":"","type":"address","internalType":"address"}],"outputs":[{"name":"","type":"bool","internalType":"bool"}],"stateMutability":"view"},{"type":"event","name":"BuyerDeposited","inputs":[{"name":"buyer","type":"address","indexed":true,"internalType":"address"},{"name":"amount","type":"uint256","indexed":true,"internalType":"uint256"}],"anonymous":false},{"type":"event","name":"BuyerWithdrew","inputs":[{"name":"buyer","type":"address","indexed":true,"internalType":"address"},{"name":"amount","type":"uint256","indexed":true,"internalType":"uint256"}],"anonymous":false},{"type":"event","name":"DepositsReturned","inputs":[{"name":"returnedDepositsCount","type":"uint256","indexed":false,"internalType":"uint256"}],"anonymous":false},{"type":"event","name":"Initialized","inputs":[{"name":"version","type":"uint64","indexed":false,"internalType":"uint64"}],"anonymous":false},{"type":"event","name":"LotteryEnded","inputs":[],"anonymous":false},{"type":"event","name":"LotteryStarted","inputs":[],"anonymous":false},{"type":"event","name":"OwnershipTransferred","inputs":[{"name":"previousOwner","type":"address","indexed":true,"internalType":"address"},{"name":"newOwner","type":"address","indexed":true,"internalType":"address"}],"anonymous":false},{"type":"event","name":"WinnerSelected","inputs":[{"name":"winner","type":"address","indexed":true,"internalType":"address"}],"anonymous":false},{"type":"error","name":"InvalidInitialization","inputs":[]},{"type":"error","name":"NotInitializing","inputs":[]},{"type":"error","name":"OwnableInvalidOwner","inputs":[{"name":"owner","type":"address","internalType":"address"}]},{"type":"error","name":"OwnableUnauthorizedAccount","inputs":[{"name":"account","type":"address","internalType":"address"}]}],"bytecode":{"object":"0x60a060405234801561001057600080fd5b5073d8253782c45a12053594b9deb72d8e8ab2fca54c338061004c57604051631e4fbdf760e01b81526000600482015260240160405180910390fd5b6100558161006f565b506001600160a01b031660805261006a6100bf565b610171565b600080546001600160a01b038381166001600160a01b0319831681178455604051919092169283917f8be0079c531659141344cd1fd0a4f28419497f9722a3daafe3b4186f6b6457e09190a35050565b7ff0c57e16840df040f15088dc2f81fe391c3923bec73e23a9662efc9c229c6a00805468010000000000000000900460ff161561010f5760405163f92ee8a960e01b815260040160405180910390fd5b80546001600160401b039081161461016e5780546001600160401b0319166001600160401b0390811782556040519081527fc7f505b2f371ae2175ee4913f4499e1f2633a7b5936321eed1cdaeb6115181d29060200160405180910390a15b50565b608051612555610193600039600081816103c6015261217201526125556000f3fe608060405234801561001057600080fd5b50600436106102275760003560e01c806366af746b116101305780639abb8247116100b8578063df15c37e1161007c578063df15c37e1461051e578063e9081ec714610526578063e99d28661461054f578063f2fde38b14610562578063fc7e286d1461057557600080fd5b80639abb8247146104b15780639d9ca28d146104b9578063a61fb2ba146104e5578063b6b55f25146104f8578063c6ec99ab1461050b57600080fd5b8063715018a6116100ff578063715018a61461046a5780637cc947d0146104725780638da5cb5b1461047a578063929066f51461048b57806399dbf4b51461049e57600080fd5b806366af746b1461040b578063683e93e1146104135780636939864b146104265780636bd5450a1461044757600080fd5b806326170480116101b357806345745c101161018257806345745c101461038757806350f3dbec14610390578063558a7297146103a3578063572b6c05146103b65780635aa68ac0146103f657600080fd5b806326170480146102ef5780632c23ec8e146102f757806338e21cce1461030a5780633ee2d7c21461032d57600080fd5b806313e7c9d8116101fa57806313e7c9d81461029b5780631593a8c7146102ce578063160344e2146102d65780631a0de74c146102de5780631d0806ae146102e657600080fd5b8063045f9c971461022c57806308551a531461025c578063118bf0a11461026f5780631209b1f614610284575b600080fd5b61023f61023a3660046121b2565b610595565b6040516001600160a01b0390911681526020015b60405180910390f35b60025461023f906001600160a01b031681565b61028261027d3660046121fd565b6105bf565b005b61028d60045481565b604051908152602001610253565b6102be6102a93660046122c2565b600d6020526000908152604090205460ff1681565b6040519015158152602001610253565b61028261076a565b6102826107e2565b6102826108bd565b61028d600e5481565b610282610b5b565b600a5461023f906001600160a01b031681565b6102be6103183660046122c2565b60056020526000908152604090205460ff1681565b61036561033b3660046122c2565b600c6020526000908152604090208054600182015460028301546003909301549192909160ff1684565b6040805194855260208501939093529183015215156060820152608001610253565b61028d60035481565b61028261039e3660046122e4565b610d52565b6102826103b136600461231c565b610eb5565b6102be6103c43660046122c2565b7f00000000000000000000000000000000000000000000000000000000000000006001600160a01b0390811691161490565b6103fe610ee8565b6040516102539190612353565b610282610f4a565b6102826104213660046123a0565b61117b565b60005461043a90600160a01b900460ff1681565b60405161025391906123d7565b6102be6104553660046122c2565b60076020526000908152604090205460ff1681565b6102826111e2565b6102826111f6565b6000546001600160a01b031661023f565b6102be6104993660046122c2565b611430565b600b5461023f906001600160a01b031681565b61028261148f565b6102be6104c73660046122c2565b6001600160a01b031660009081526007602052604090205460ff1690565b60015461023f906001600160a01b031681565b6102826105063660046121b2565b61178d565b600f5461023f906001600160a01b031681565b6103fe611be3565b61028d6105343660046122c2565b6001600160a01b03166000908152600c602052604090205490565b61028261055d3660046122c2565b611c43565b6102826105703660046122c2565b611c9f565b61028d6105833660046122c2565b60066020526000908152604090205481565b600881815481106105a557600080fd5b6000918252602090912001546001600160a01b0316905081565b7ff0c57e16840df040f15088dc2f81fe391c3923bec73e23a9662efc9c229c6a008054600160401b810460ff16159067ffffffffffffffff166000811580156106055750825b905060008267ffffffffffffffff1660011480156106225750303b155b905081158015610630575080155b1561064e5760405163f92ee8a960e01b815260040160405180910390fd5b845467ffffffffffffffff19166001178555831561067857845460ff60401b1916600160401b1785555b8551600280546001600160a01b0319166001600160a01b0390921691909117905560208601516106a790611cd6565b604086015160035560608601516004819055600e556080860151600b80546001600160a01b039283166001600160a01b03199182161790915560a0880151600a805491841691831691909117905560c08801516001805491841691831691909117905560e0880151600f8054919093169116179055831561076257845460ff60401b19168555604051600181527fc7f505b2f371ae2175ee4913f4499e1f2633a7b5936321eed1cdaeb6115181d29060200160405180910390a15b505050505050565b6002546001600160a01b031661077e611d26565b6001600160a01b0316146107ad5760405162461bcd60e51b81526004016107a4906123ff565b60405180910390fd5b6107b7600261117b565b6040517f9c89a6ed7228533196a3f962acc80d61a9c53bdea6b910741bf754f5aaa7569e90600090a1565b6002546001600160a01b03166107f6611d26565b6001600160a01b03161461081c5760405162461bcd60e51b81526004016107a4906123ff565b60008054600160a01b900460ff16600281111561083b5761083b6123c1565b146108885760405162461bcd60e51b815260206004820152601760248201527f53616c6520697320696e2061637469766520737461746500000000000000000060448201526064016107a4565b610892600161117b565b6040517fd029c7c68d943f92286a7825fa6aa2deefa1eee46cee6c91b7e483fd06d27baf90600090a1565b6002546001600160a01b03166108d1611d26565b6001600160a01b0316146108f75760405162461bcd60e51b81526004016107a4906123ff565b6000600354116109495760405162461bcd60e51b815260206004820152601b60248201527f4e6f207469636b657473206c65667420746f20616c6c6f63617465000000000060448201526064016107a4565b60095460035410610a005760005b6009548110156109fa5760006009828154811061097657610976612441565b6000918252602090912001546001600160a01b031690506109af816001600160a01b031660009081526007602052604090205460ff1690565b6109f1576109bc81611d35565b6040516001600160a01b038216907f1d4c260f1824cd028e6c9e6e31c3a0b94f2513e7a641113ec759d382f9bdd5a190600090a25b50600101610957565b50610b40565b610a0861148f565b6000600c600060096001600354610a1f919061246d565b81548110610a2f57610a2f612441565b60009182526020808320909101546001600160a01b0316835282019290925260400181205491505b600354811015610b3d5781600c600060098481548110610a7957610a79612441565b60009182526020808320909101546001600160a01b0316835282019290925260400190205410610b3557600060098281548110610ab857610ab8612441565b6000918252602090912001546001600160a01b03169050610af1816001600160a01b031660009081526007602052604090205460ff1690565b610b3357610afe81611d35565b6040516001600160a01b038216907f1d4c260f1824cd028e6c9e6e31c3a0b94f2513e7a641113ec759d382f9bdd5a190600090a25b505b600101610a57565b50505b6000805460ff60a01b1916600160a11b1790556107b7611e11565b60056000610b67611d26565b6001600160a01b0316815260208101919091526040016000205460ff1615610bc65760405162461bcd60e51b815260206004820152601260248201527113919508185b1c9958591e481b5a5b9d195960721b60448201526064016107a4565b610bd16104c7611d26565b610c165760405162461bcd60e51b815260206004820152601660248201527521b0b63632b91034b9903737ba1030903bb4b73732b960511b60448201526064016107a4565b600060035411610c685760405162461bcd60e51b815260206004820152601b60248201527f4e6f207469636b657473206c65667420746f20616c6c6f63617465000000000060448201526064016107a4565b600160056000610c76611d26565b6001600160a01b0316815260208101919091526040016000908120805460ff191692151592909217909155600c81610cac611d26565b6001600160a01b0316815260208101919091526040016000908120919091556003805491610cd983612486565b9091555050600a546001600160a01b0316636b8f60f6610cf7611d26565b6040516001600160e01b031960e084901b1681526001600160a01b039091166004820152602401600060405180830381600087803b158015610d3857600080fd5b505af1158015610d4c573d6000803e3d6000fd5b50505050565b610d5a611d26565b600f546001600160a01b03908116911614610dc75760405162461bcd60e51b815260206004820152602760248201527f4f6e6c792077686974656c6973746564206d61792063616c6c207468697320666044820152663ab731ba34b7b760c91b60648201526084016107a4565b610dd082611430565b15610e08576001600160a01b0382166000908152600c602052604081208054839290610dfd90849061249d565b90915550610eb19050565b604080516080810182528281526020808201848152428385019081526000606085018181526001600160a01b038916808352600c9095529581209451855591516001808601919091559051600285015593516003909301805460ff1916931515939093179092556009805493840181559091527f6e1540171b6c0c960b71a7020d9f60077f6af931a8bbf590da0223dacf75c7af90910180546001600160a01b03191690911790555b5050565b610ebd612110565b6001600160a01b03919091166000908152600d60205260409020805460ff1916911515919091179055565b60606009805480602002602001604051908101604052809291908181526020018280548015610f4057602002820191906000526020600020905b81546001600160a01b03168152600190910190602001808311610f22575b5050505050905090565b6002546001600160a01b0316610f5e611d26565b6001600160a01b031614610f845760405162461bcd60e51b81526004016107a4906123ff565b6002600054600160a01b900460ff166002811115610fa457610fa46123c1565b14610fe55760405162461bcd60e51b8152602060048201526011602482015270131bdd1d195c9e481b9bdd08195b991959607a1b60448201526064016107a4565b6000805b60085481101561105e5760006008828154811061100857611008612441565b60009182526020808320909101546001600160a01b0316808352600c90915260409091205490915061103a908461249d565b6001600160a01b039091166000908152600c60205260408120559150600101610fe9565b506000606461106e8360056124b0565b61107891906124c7565b90506000611086828461246d565b600b5460015460405163a9059cbb60e01b81526001600160a01b03918216600482015260248101869052929350169063a9059cbb906044016020604051808303816000875af11580156110dd573d6000803e3d6000fd5b505050506040513d601f19601f8201168201806040525081019061110191906124e9565b50600b5460025460405163a9059cbb60e01b81526001600160a01b0391821660048201526024810184905291169063a9059cbb906044016020604051808303816000875af1158015611157573d6000803e3d6000fd5b505050506040513d601f19601f82011682018060405250810190610d4c91906124e9565b6002546001600160a01b031661118f611d26565b6001600160a01b0316146111b55760405162461bcd60e51b81526004016107a4906123ff565b6000805482919060ff60a01b1916600160a01b8360028111156111da576111da6123c1565b021790555050565b6111ea612110565b6111f46000611cd6565b565b6002600054600160a01b900460ff166002811115611216576112166123c1565b1461125b5760405162461bcd60e51b815260206004820152601560248201527414d85b19481a5cc81b9bdd08195b991959081e595d605a1b60448201526064016107a4565b60076000611267611d26565b6001600160a01b0316815260208101919091526040016000205460ff16156112d15760405162461bcd60e51b815260206004820152601760248201527f57696e6e6572732063616e6e6f7420776974686472617700000000000000000060448201526064016107a4565b6000600c60006112df611d26565b6001600160a01b0316815260208101919091526040016000205490508061133f5760405162461bcd60e51b81526020600482015260146024820152734e6f2066756e647320746f20776974686472617760601b60448201526064016107a4565b6000600c600061134d611d26565b6001600160a01b039081168252602082019290925260400160002091909155600b541663a9059cbb61137d611d26565b6040516001600160e01b031960e084901b1681526001600160a01b039091166004820152602481018490526044016020604051808303816000875af11580156113ca573d6000803e3d6000fd5b505050506040513d601f19601f820116820180604052508101906113ee91906124e9565b50806113f8611d26565b6001600160a01b03167f1f280cd00e67ed50213ac03febd5be151f96b7f7db2f85312aa0feff99f8bdab60405160405180910390a350565b6000805b60095481101561148657826001600160a01b03166009828154811061145b5761145b612441565b6000918252602090912001546001600160a01b03160361147e5750600192915050565b600101611434565b50600092915050565b6002546001600160a01b03166114a3611d26565b6001600160a01b0316146114c95760405162461bcd60e51b81526004016107a4906123ff565b60005b60095481101561178a5760006114e382600161249d565b90505b60095481101561178157600c60006009838154811061150757611507612441565b60009182526020808320909101546001600160a01b03168352820192909252604001812054600980549192600c929091908690811061154857611548612441565b60009182526020808320909101546001600160a01b0316835282019290925260400190205410806116935750600c60006009838154811061158b5761158b612441565b60009182526020808320909101546001600160a01b03168352820192909252604001812054600980549192600c92909190869081106115cc576115cc612441565b60009182526020808320909101546001600160a01b031683528201929092526040019020541480156116935750600c60006009838154811061161057611610612441565b9060005260206000200160009054906101000a90046001600160a01b03166001600160a01b03166001600160a01b0316815260200190815260200160002060020154600c60006009858154811061166957611669612441565b60009182526020808320909101546001600160a01b03168352820192909252604001902060020154115b15611779576000600983815481106116ad576116ad612441565b600091825260209091200154600980546001600160a01b03909216925090839081106116db576116db612441565b600091825260209091200154600980546001600160a01b03909216918590811061170757611707612441565b9060005260206000200160006101000a8154816001600160a01b0302191690836001600160a01b03160217905550806009838154811061174957611749612441565b9060005260206000200160006101000a8154816001600160a01b0302191690836001600160a01b03160217905550505b6001016114e6565b506001016114cc565b50565b6001600054600160a01b900460ff1660028111156117ad576117ad6123c1565b146117ef5760405162461bcd60e51b815260206004820152601260248201527153616c65206973206e6f742061637469766560701b60448201526064016107a4565b6117fa6104c7611d26565b156118405760405162461bcd60e51b815260206004820152601660248201527515da5b9b995c9cc818d85b9b9bdd0819195c1bdcda5d60521b60448201526064016107a4565b600b546001600160a01b03166118985760405162461bcd60e51b815260206004820152601d60248201527f5553444320636f6e74726163742061646472657373206e6f742073657400000060448201526064016107a4565b600e548110156118ea5760405162461bcd60e51b815260206004820152601760248201527f496e73756666696369656e742066756e64732073656e7400000000000000000060448201526064016107a4565b600b5481906001600160a01b031663dd62ed3e611905611d26565b6040516001600160e01b031960e084901b1681526001600160a01b039091166004820152306024820152604401602060405180830381865afa15801561194f573d6000803e3d6000fd5b505050506040513d601f19601f820116820180604052508101906119739190612506565b10156119ba5760405162461bcd60e51b8152602060048201526016602482015275496e73756666696369656e7420616c6c6f77616e636560501b60448201526064016107a4565b600b546001600160a01b03166323b872dd6119d3611d26565b6040516001600160e01b031960e084901b1681526001600160a01b039091166004820152306024820152604481018490526064016020604051808303816000875af1158015611a26573d6000803e3d6000fd5b505050506040513d601f19601f82011682018060405250810190611a4a91906124e9565b50611a56610499611d26565b15611aea5780600c6000611a68611d26565b6001600160a01b03166001600160a01b031681526020019081526020016000206000016000828254611a9a919061249d565b90915550819050600c6000611aad611d26565b6001600160a01b03166001600160a01b031681526020019081526020016000206001016000828254611adf919061249d565b90915550611ba29050565b604051806080016040528082815260200182815260200142815260200160001515815250600c6000611b1a611d26565b6001600160a01b0316815260208082019290925260409081016000208351815591830151600183015582015160028201556060909101516003909101805460ff19169115159190911790556009611b6f611d26565b81546001810183556000928352602090922090910180546001600160a01b0319166001600160a01b039092169190911790555b80611bab611d26565b6001600160a01b03167f21040858e63c11c046482f61f290bbe25972fc74b11b4570a01f9241082d21f160405160405180910390a350565b60606008805480602002602001604051908101604052809291908181526020018280548015610f40576020028201919060005260206000209081546001600160a01b03168152600190910190602001808311610f22575050505050905090565b6002546001600160a01b0316611c57611d26565b6001600160a01b031614611c7d5760405162461bcd60e51b81526004016107a4906123ff565b600280546001600160a01b0319166001600160a01b0392909216919091179055565b611ca7612110565b6001600160a01b038116611cd157604051631e4fbdf760e01b8152600060048201526024016107a4565b61178a815b600080546001600160a01b038381166001600160a01b0319831681178455604051919092169283917f8be0079c531659141344cd1fd0a4f28419497f9722a3daafe3b4186f6b6457e09190a35050565b6000611d3061216e565b905090565b6002546001600160a01b0316611d49611d26565b6001600160a01b031614611d6f5760405162461bcd60e51b81526004016107a4906123ff565b6001600160a01b03811660008181526007602090815260408083208054600160ff199182168117909255600880548084019091557ff3f7a9fe364faab93b216da50a3214154f22a0a2b415b23a84c8169e8b636ee30180546001600160a01b03191687179055600c909352818420600301805490931617909155517f1d4c260f1824cd028e6c9e6e31c3a0b94f2513e7a641113ec759d382f9bdd5a19190a250565b6002546001600160a01b0316611e25611d26565b6001600160a01b031614611e4b5760405162461bcd60e51b81526004016107a4906123ff565b6002600054600160a01b900460ff166002811115611e6b57611e6b6123c1565b14611eb05760405162461bcd60e51b815260206004820152601560248201527414d85b19481a5cc81b9bdd08195b991959081e595d605a1b60448201526064016107a4565b60095460008167ffffffffffffffff811115611ece57611ece6121cb565b604051908082528060200260200182016040528015611ef7578160200160208202803683370190505b50905060005b82811015611f685760098181548110611f1857611f18612441565b9060005260206000200160009054906101000a90046001600160a01b0316828281518110611f4857611f48612441565b6001600160a01b0390921660209283029190910190910152600101611efd565b5060005b828110156120d8576000828281518110611f8857611f88612441565b6020908102919091018101516001600160a01b0381166000908152600c83526040808220805490839055600790945290205490925060ff161561205557600060045482611fd5919061246d565b600b5460405163a9059cbb60e01b81526001600160a01b0386811660048301526024820184905292935091169063a9059cbb906044016020604051808303816000875af115801561202a573d6000803e3d6000fd5b505050506040513d601f19601f8201168201806040525081019061204e91906124e9565b50506120ce565b600b5460405163a9059cbb60e01b81526001600160a01b038481166004830152602482018490529091169063a9059cbb906044016020604051808303816000875af11580156120a8573d6000803e3d6000fd5b505050506040513d601f19601f820116820180604052508101906120cc91906124e9565b505b5050600101611f6c565b506040518281527f01f8aef848121bbf182106b55119c1094063c572b6c8dcb09040e1203a17abf99060200160405180910390a15050565b612118611d26565b6001600160a01b03166121336000546001600160a01b031690565b6001600160a01b0316146111f457612149611d26565b60405163118cdaa760e01b81526001600160a01b0390911660048201526024016107a4565b60007f00000000000000000000000000000000000000000000000000000000000000006001600160a01b031633036121ad575060131936013560601c90565b503390565b6000602082840312156121c457600080fd5b5035919050565b634e487b7160e01b600052604160045260246000fd5b80356001600160a01b03811681146121f857600080fd5b919050565b600061010080838503121561221157600080fd5b6040519081019067ffffffffffffffff8211818310171561224257634e487b7160e01b600052604160045260246000fd5b8160405261224f846121e1565b815261225d602085016121e1565b60208201526040840135604082015260608401356060820152612282608085016121e1565b608082015261229360a085016121e1565b60a08201526122a460c085016121e1565b60c08201526122b560e085016121e1565b60e0820152949350505050565b6000602082840312156122d457600080fd5b6122dd826121e1565b9392505050565b600080604083850312156122f757600080fd5b612300836121e1565b946020939093013593505050565b801515811461178a57600080fd5b6000806040838503121561232f57600080fd5b612338836121e1565b915060208301356123488161230e565b809150509250929050565b6020808252825182820181905260009190848201906040850190845b818110156123945783516001600160a01b03168352928401929184019160010161236f565b50909695505050505050565b6000602082840312156123b257600080fd5b8135600381106122dd57600080fd5b634e487b7160e01b600052602160045260246000fd5b60208101600383106123f957634e487b7160e01b600052602160045260246000fd5b91905290565b60208082526022908201527f4f6e6c792073656c6c65722063616e2063616c6c20746869732066756e63746960408201526137b760f11b606082015260800190565b634e487b7160e01b600052603260045260246000fd5b634e487b7160e01b600052601160045260246000fd5b8181038181111561248057612480612457565b92915050565b60008161249557612495612457565b506000190190565b8082018082111561248057612480612457565b808202811582820484141761248057612480612457565b6000826124e457634e487b7160e01b600052601260045260246000fd5b500490565b6000602082840312156124fb57600080fd5b81516122dd8161230e565b60006020828403121561251857600080fd5b505191905056fea264697066735822122028b196b401286afa89327395d9d4d9a437b93c24cbff98e1c54de5802768069064736f6c63430008190033","linkReferences":{}},"methodIdentifiers":{"Deposits(address)":"3ee2d7c2","auctionV1Addr()":"c6ec99ab","buyerWithdraw()":"7cc947d0","changeLotteryState(uint8)":"683e93e1","deposit(uint256)":"b6b55f25","deposits(address)":"fc7e286d","endLottery()":"1593a8c7","getDepositedAmount(address)":"e9081ec7","getParticipants()":"5aa68ac0","getWinners()":"df15c37e","hasMinted(address)":"38e21cce","initialPrice()":"1d0806ae","initialize((address,address,uint256,uint256,address,address,address,address))":"118bf0a1","isParticipant(address)":"929066f5","isTrustedForwarder(address)":"572b6c05","isWinner(address)":"9d9ca28d","lotteryState()":"6939864b","mintMyNFT()":"26170480","multisigWalletAddress()":"a61fb2ba","nftContractAddr()":"2c23ec8e","numberOfTickets()":"45745c10","operators(address)":"13e7c9d8","owner()":"8da5cb5b","renounceOwnership()":"715018a6","selectWinners()":"1a0de74c","seller()":"08551a53","sellerWithdraw()":"66af746b","setOperator(address,bool)":"558a7297","setSeller(address)":"e99d2866","sortDepositsDesc()":"9abb8247","startLottery()":"160344e2","ticketPrice()":"1209b1f6","transferDeposit(address,uint256)":"50f3dbec","transferOwnership(address)":"f2fde38b","usdcContractAddr()":"99dbf4b5","winnerAddresses(uint256)":"045f9c97","winners(address)":"6bd5450a"},"id":52}