{"abi":[{"type":"function","name":"buyerWithdraw","inputs":[],"outputs":[],"stateMutability":"nonpayable"},{"type":"function","name":"changeLotteryState","inputs":[{"name":"_newState","type":"uint8","internalType":"enum SaleBase.LotteryState"}],"outputs":[],"stateMutability":"nonpayable"},{"type":"function","name":"deposit","inputs":[{"name":"amount","type":"uint256","internalType":"uint256"}],"outputs":[],"stateMutability":"nonpayable"},{"type":"function","name":"deposits","inputs":[{"name":"","type":"address","internalType":"address"}],"outputs":[{"name":"","type":"uint256","internalType":"uint256"}],"stateMutability":"view"},{"type":"function","name":"endLottery","inputs":[],"outputs":[],"stateMutability":"nonpayable"},{"type":"function","name":"fulfillRandomness","inputs":[{"name":"randomness","type":"uint256","internalType":"uint256"},{"name":"dataWithRound","type":"bytes","internalType":"bytes"}],"outputs":[],"stateMutability":"nonpayable"},{"type":"function","name":"getDepositedAmount","inputs":[{"name":"participant","type":"address","internalType":"address"}],"outputs":[{"name":"","type":"uint256","internalType":"uint256"}],"stateMutability":"view"},{"type":"function","name":"getParticipants","inputs":[],"outputs":[{"name":"","type":"address[]","internalType":"address[]"}],"stateMutability":"view"},{"type":"function","name":"getWinners","inputs":[],"outputs":[{"name":"","type":"address[]","internalType":"address[]"}],"stateMutability":"view"},{"type":"function","name":"hasMinted","inputs":[{"name":"","type":"address","internalType":"address"}],"outputs":[{"name":"","type":"bool","internalType":"bool"}],"stateMutability":"view"},{"type":"function","name":"increasePriceStep","inputs":[],"outputs":[{"name":"","type":"uint256","internalType":"uint256"}],"stateMutability":"view"},{"type":"function","name":"initialPrice","inputs":[],"outputs":[{"name":"","type":"uint256","internalType":"uint256"}],"stateMutability":"view"},{"type":"function","name":"initialize","inputs":[{"name":"config","type":"tuple","internalType":"struct StructsLibrary.IAuctionV1BaseConfig","components":[{"name":"_gelatoVrfOperator","type":"address","internalType":"address"},{"name":"_blessedOperator","type":"address","internalType":"address"},{"name":"_owner","type":"address","internalType":"address"},{"name":"_ticketAmount","type":"uint256","internalType":"uint256"},{"name":"_ticketPrice","type":"uint256","internalType":"uint256"},{"name":"_priceIncreaseStep","type":"uint256","internalType":"uint256"},{"name":"_usdcContractAddr","type":"address","internalType":"address"},{"name":"_nftContractAddr","type":"address","internalType":"address"},{"name":"_multisigWalletAddress","type":"address","internalType":"address"},{"name":"_prevPhaseContractAddr","type":"address","internalType":"address"}]}],"outputs":[],"stateMutability":"nonpayable"},{"type":"function","name":"initialized","inputs":[],"outputs":[{"name":"","type":"bool","internalType":"bool"}],"stateMutability":"view"},{"type":"function","name":"isTrustedForwarder","inputs":[{"name":"forwarder","type":"address","internalType":"address"}],"outputs":[{"name":"","type":"bool","internalType":"bool"}],"stateMutability":"view"},{"type":"function","name":"isWinner","inputs":[{"name":"_participant","type":"address","internalType":"address"}],"outputs":[{"name":"","type":"bool","internalType":"bool"}],"stateMutability":"view"},{"type":"function","name":"lotteryState","inputs":[],"outputs":[{"name":"","type":"uint8","internalType":"enum SaleBase.LotteryState"}],"stateMutability":"view"},{"type":"function","name":"lotteryV2Addr","inputs":[],"outputs":[{"name":"","type":"address","internalType":"address"}],"stateMutability":"view"},{"type":"function","name":"mintMyNFT","inputs":[],"outputs":[],"stateMutability":"nonpayable"},{"type":"function","name":"multisigWalletAddress","inputs":[],"outputs":[{"name":"","type":"address","internalType":"address"}],"stateMutability":"view"},{"type":"function","name":"nftContractAddr","inputs":[],"outputs":[{"name":"","type":"address","internalType":"address"}],"stateMutability":"view"},{"type":"function","name":"numberOfTickets","inputs":[],"outputs":[{"name":"","type":"uint256","internalType":"uint256"}],"stateMutability":"view"},{"type":"function","name":"operatorAddr","inputs":[],"outputs":[{"name":"","type":"address","internalType":"address"}],"stateMutability":"view"},{"type":"function","name":"operators","inputs":[{"name":"","type":"address","internalType":"address"}],"outputs":[{"name":"","type":"bool","internalType":"bool"}],"stateMutability":"view"},{"type":"function","name":"owner","inputs":[],"outputs":[{"name":"","type":"address","internalType":"address"}],"stateMutability":"view"},{"type":"function","name":"prevRoundDeposits","inputs":[],"outputs":[{"name":"","type":"uint256","internalType":"uint256"}],"stateMutability":"view"},{"type":"function","name":"prevRoundTicketsAmount","inputs":[],"outputs":[{"name":"","type":"uint256","internalType":"uint256"}],"stateMutability":"view"},{"type":"function","name":"renounceOwnership","inputs":[],"outputs":[],"stateMutability":"nonpayable"},{"type":"function","name":"requestPending","inputs":[{"name":"","type":"uint256","internalType":"uint256"}],"outputs":[{"name":"","type":"bool","internalType":"bool"}],"stateMutability":"view"},{"type":"function","name":"requestRandomness","inputs":[],"outputs":[],"stateMutability":"nonpayable"},{"type":"function","name":"requestedHash","inputs":[{"name":"","type":"uint256","internalType":"uint256"}],"outputs":[{"name":"","type":"bytes32","internalType":"bytes32"}],"stateMutability":"view"},{"type":"function","name":"roundCounter","inputs":[],"outputs":[{"name":"","type":"uint256","internalType":"uint256"}],"stateMutability":"view"},{"type":"function","name":"rounds","inputs":[{"name":"","type":"uint256","internalType":"uint256"}],"outputs":[{"name":"number","type":"uint256","internalType":"uint256"},{"name":"finishAt","type":"uint256","internalType":"uint256"},{"name":"numberOfTickets","type":"uint256","internalType":"uint256"},{"name":"randomNumber","type":"uint256","internalType":"uint256"},{"name":"lotteryStarted","type":"bool","internalType":"bool"},{"name":"winnersSelected","type":"bool","internalType":"bool"}],"stateMutability":"view"},{"type":"function","name":"selectWinners","inputs":[],"outputs":[],"stateMutability":"nonpayable"},{"type":"function","name":"seller","inputs":[],"outputs":[{"name":"","type":"address","internalType":"address"}],"stateMutability":"view"},{"type":"function","name":"sellerWithdraw","inputs":[],"outputs":[],"stateMutability":"nonpayable"},{"type":"function","name":"setOperator","inputs":[{"name":"_operatorAddr","type":"address","internalType":"address"},{"name":"_flag","type":"bool","internalType":"bool"}],"outputs":[],"stateMutability":"nonpayable"},{"type":"function","name":"setSeller","inputs":[{"name":"_seller","type":"address","internalType":"address"}],"outputs":[],"stateMutability":"nonpayable"},{"type":"function","name":"setupNewRound","inputs":[{"name":"_finishAt","type":"uint256","internalType":"uint256"},{"name":"_numberOfTickets","type":"uint256","internalType":"uint256"}],"outputs":[],"stateMutability":"nonpayable"},{"type":"function","name":"startLottery","inputs":[],"outputs":[],"stateMutability":"nonpayable"},{"type":"function","name":"ticketPrice","inputs":[],"outputs":[{"name":"","type":"uint256","internalType":"uint256"}],"stateMutability":"view"},{"type":"function","name":"totalNumberOfTickets","inputs":[],"outputs":[{"name":"","type":"uint256","internalType":"uint256"}],"stateMutability":"view"},{"type":"function","name":"transferDeposit","inputs":[{"name":"_participant","type":"address","internalType":"address"},{"name":"_amount","type":"uint256","internalType":"uint256"}],"outputs":[],"stateMutability":"nonpayable"},{"type":"function","name":"transferNonWinnerBids","inputs":[{"name":"destinationAddr","type":"address","internalType":"address"}],"outputs":[],"stateMutability":"nonpayable"},{"type":"function","name":"transferOwnership","inputs":[{"name":"newOwner","type":"address","internalType":"address"}],"outputs":[],"stateMutability":"nonpayable"},{"type":"function","name":"usdcContractAddr","inputs":[],"outputs":[{"name":"","type":"address","internalType":"address"}],"stateMutability":"view"},{"type":"function","name":"winnerAddresses","inputs":[{"name":"","type":"uint256","internalType":"uint256"}],"outputs":[{"name":"","type":"address","internalType":"address"}],"stateMutability":"view"},{"type":"function","name":"winners","inputs":[{"name":"","type":"address","internalType":"address"}],"outputs":[{"name":"","type":"bool","internalType":"bool"}],"stateMutability":"view"},{"type":"event","name":"BuyerDeposited","inputs":[{"name":"buyer","type":"address","indexed":true,"internalType":"address"},{"name":"amount","type":"uint256","indexed":true,"internalType":"uint256"}],"anonymous":false},{"type":"event","name":"BuyerWithdrew","inputs":[{"name":"buyer","type":"address","indexed":true,"internalType":"address"},{"name":"amount","type":"uint256","indexed":true,"internalType":"uint256"}],"anonymous":false},{"type":"event","name":"DepositsReturned","inputs":[{"name":"returnedDepositsCount","type":"uint256","indexed":false,"internalType":"uint256"}],"anonymous":false},{"type":"event","name":"LotteryEnded","inputs":[],"anonymous":false},{"type":"event","name":"LotteryStarted","inputs":[],"anonymous":false},{"type":"event","name":"OwnershipTransferred","inputs":[{"name":"previousOwner","type":"address","indexed":true,"internalType":"address"},{"name":"newOwner","type":"address","indexed":true,"internalType":"address"}],"anonymous":false},{"type":"event","name":"RandomFulfilled","inputs":[{"name":"number","type":"uint256","indexed":false,"internalType":"uint256"}],"anonymous":false},{"type":"event","name":"RandomRequested","inputs":[{"name":"requester","type":"address","indexed":true,"internalType":"address"}],"anonymous":false},{"type":"event","name":"RequestedRandomness","inputs":[{"name":"round","type":"uint256","indexed":false,"internalType":"uint256"},{"name":"data","type":"bytes","indexed":false,"internalType":"bytes"}],"anonymous":false},{"type":"event","name":"RoundSet","inputs":[{"name":"roundNumber","type":"uint256","indexed":true,"internalType":"uint256"},{"name":"finishAt","type":"uint256","indexed":false,"internalType":"uint256"},{"name":"numberOfTickets","type":"uint256","indexed":false,"internalType":"uint256"}],"anonymous":false},{"type":"event","name":"WinnerSelected","inputs":[{"name":"winner","type":"address","indexed":true,"internalType":"address"}],"anonymous":false},{"type":"error","name":"OwnableInvalidOwner","inputs":[{"name":"owner","type":"address","internalType":"address"}]},{"type":"error","name":"OwnableUnauthorizedAccount","inputs":[{"name":"account","type":"address","internalType":"address"}]}],"bytecode":{"object":"0x60a06040526000805460ff60a81b1916905560016014819055601555600560165534801561002c57600080fd5b5073d8253782c45a12053594b9deb72d8e8ab2fca54c338061006857604051631e4fbdf760e01b81526000600482015260240160405180910390fd5b61007181610083565b506001600160a01b03166080526100d3565b600080546001600160a01b038381166001600160a01b0319831681178455604051919092169283917f8be0079c531659141344cd1fd0a4f28419497f9722a3daafe3b4186f6b6457e09190a35050565b6080516131ec6100f56000396000818161041d0152612ac201526131ec6000f3fe608060405234801561001057600080fd5b506004361061029f5760003560e01c80636bd5450a11610167578063b3f6b99a116100ce578063e99d286611610087578063e99d286614610670578063f2fde38b14610683578063f3f18c3714610696578063f8413b07146106a9578063fc7e286d146106b1578063febc14b1146106d157600080fd5b8063b3f6b99a146105f0578063b680e44b14610603578063b6b55f251461060c578063c4f8f27b1461061f578063df15c37e1461063f578063e9081ec71461064757600080fd5b80638da5cb5b116101205780638da5cb5b1461057157806396efac7b1461058257806399dbf4b51461058b5780639d9ca28d1461059e578063a4f03c02146105ca578063a61fb2ba146105dd57600080fd5b80636bd5450a1461049e578063715018a6146104c157806375ce7fff146104c95780637cc947d0146104dc5780637de13382146104e45780638c65c81f146104f757600080fd5b8063261704801161020b57806356d7c73a116101c457806356d7c73a146103fa578063572b6c051461040d5780635aa68ac01461044d57806366af746b14610462578063683e93e11461046a5780636939864b1461047d57600080fd5b8063261704801461038d5780632c23ec8e1461039557806338e21cce146103a857806345745c10146103cb57806350f3dbec146103d4578063558a7297146103e757600080fd5b80631593a8c71161025d5780631593a8c71461034e578063160344e2146103585780631630a8df146103605780631a0de74c146103735780631d0806ae1461037b578063224f91bd1461038457600080fd5b8062746702146102a4578063045f9c97146102c057806308551a53146102eb5780631209b1f6146102fe57806313e7c9d814610307578063158ef93e1461033a575b600080fd5b6102ad60175481565b6040519081526020015b60405180910390f35b6102d36102ce366004612b8b565b6106da565b6040516001600160a01b0390911681526020016102b7565b6002546102d3906001600160a01b031681565b6102ad60045481565b61032a610315366004612bc0565b60106020526000908152604090205460ff1681565b60405190151581526020016102b7565b60005461032a90600160a81b900460ff1681565b610356610704565b005b61035661077c565b61035661036e366004612bc0565b610857565b610356610a40565b6102ad60135481565b6102ad60155481565b610356610f84565b600a546102d3906001600160a01b031681565b61032a6103b6366004612bc0565b60056020526000908152604090205460ff1681565b6102ad60035481565b6103566103e2366004612be2565b61110e565b6103566103f5366004612c1a565b61124e565b610356610408366004612cc2565b611281565b61032a61041b366004612bc0565b7f00000000000000000000000000000000000000000000000000000000000000006001600160a01b0390811691161490565b6104556113b4565b6040516102b79190612d75565b610356611416565b610356610478366004612dc2565b611647565b60005461049190600160a01b900460ff1681565b6040516102b79190612df9565b61032a6104ac366004612bc0565b60076020526000908152604090205460ff1681565b6103566116ae565b61032a6104d7366004612b8b565b6116c2565b6103566116f6565b6011546102d3906001600160a01b031681565b610540610505366004612b8b565b600e60205260009081526040902080546001820154600283015460038401546004909401549293919290919060ff8082169161010090041686565b60408051968752602087019590955293850192909252606084015215156080830152151560a082015260c0016102b7565b6000546001600160a01b03166102d3565b6102ad60165481565b600b546102d3906001600160a01b031681565b61032a6105ac366004612bc0565b6001600160a01b031660009081526007602052604090205460ff1690565b6103566105d8366004612e21565b61193a565b6001546102d3906001600160a01b031681565b6103566105fe366004612e43565b611cdf565b6102ad60145481565b61035661061a366004612b8b565b611eb9565b6102ad61062d366004612b8b565b600d6020526000908152604090205481565b6104556122a8565b6102ad610655366004612bc0565b6001600160a01b031660009081526006602052604090205490565b61035661067e366004612bc0565b612308565b610356610691366004612bc0565b612364565b6012546102d3906001600160a01b031681565b61035661239f565b6102ad6106bf366004612bc0565b60066020526000908152604090205481565b6102ad600f5481565b600881815481106106ea57600080fd5b6000918252602090912001546001600160a01b0316905081565b6002546001600160a01b0316610718612500565b6001600160a01b0316146107475760405162461bcd60e51b815260040161073e90612ebf565b60405180910390fd5b6107516002611647565b6040517f9c89a6ed7228533196a3f962acc80d61a9c53bdea6b910741bf754f5aaa7569e90600090a1565b6002546001600160a01b0316610790612500565b6001600160a01b0316146107b65760405162461bcd60e51b815260040161073e90612ebf565b60008054600160a01b900460ff1660028111156107d5576107d5612de3565b146108225760405162461bcd60e51b815260206004820152601760248201527f53616c6520697320696e20616374697665207374617465000000000000000000604482015260640161073e565b61082c6001611647565b6040517fd029c7c68d943f92286a7825fa6aa2deefa1eee46cee6c91b7e483fd06d27baf90600090a1565b6002546001600160a01b031661086b612500565b6001600160a01b0316146108915760405162461bcd60e51b815260040161073e90612ebf565b60005b600954811015610a3057600060066000600984815481106108b7576108b7612f01565b60009182526020808320909101546001600160a01b0316835282019290925260400181205460098054919350600691839190869081106108f9576108f9612f01565b6000918252602080832091909101546001600160a01b039081168452908301939093526040918201902092909255600b54915163a9059cbb60e01b815285821660048201526024810184905291169063a9059cbb906044016020604051808303816000875af1158015610970573d6000803e3d6000fd5b505050506040513d601f19601f820116820180604052508101906109949190612f17565b50826001600160a01b03166350f3dbec600984815481106109b7576109b7612f01565b60009182526020909120015460405160e083901b6001600160e01b03191681526001600160a01b03909116600482015260248101849052604401600060405180830381600087803b158015610a0b57600080fd5b505af1158015610a1f573d6000803e3d6000fd5b505060019093019250610894915050565b50610a3d60096000612b59565b50565b6002546001600160a01b0316610a54612500565b6001600160a01b031614610a7a5760405162461bcd60e51b815260040161073e90612ebf565b6000600e60006001600f54610a8f9190612f4a565b81526020019081526020016000206003015411610b045760405162461bcd60e51b815260206004820152602d60248201527f52616e646f6d206e756d62657220666f72206c61737420726f756e642069732060448201526c1b9bdd0819d95b995c985d1959609a1b606482015260840161073e565b600060035411610b565760405162461bcd60e51b815260206004820152601b60248201527f4e6f207469636b657473206c65667420746f20616c6c6f636174650000000000604482015260640161073e565b6000805460ff60a01b1916600160a01b1790556009546003548111610c305760005b81811015610c1957600060098281548110610b9557610b95612f01565b6000918252602090912001546001600160a01b03169050610bce816001600160a01b031660009081526007602052604090205460ff1690565b610c1057610bdb8161250f565b6040516001600160a01b038216907f1d4c260f1824cd028e6c9e6e31c3a0b94f2513e7a641113ec759d382f9bdd5a190600090a25b50600101610b78565b50610c2660096000612b59565b6000600355610ee8565b60005b81811015610d66576000610c478284612f4a565b600e60006001600f54610c5a9190612f4a565b815260200190815260200160002060030154610c769190612f79565b610c809083612f8d565b9050600060098281548110610c9757610c97612f01565b600091825260209091200154600980546001600160a01b0390921692509084908110610cc557610cc5612f01565b600091825260209091200154600980546001600160a01b039092169184908110610cf157610cf1612f01565b9060005260206000200160006101000a8154816001600160a01b0302191690836001600160a01b031602179055508060098481548110610d3357610d33612f01565b600091825260209091200180546001600160a01b0319166001600160a01b03929092169190911790555050600101610c33565b5060005b600354811015610e0d57600060098281548110610d8957610d89612f01565b6000918252602090912001546001600160a01b03169050610dc2816001600160a01b031660009081526007602052604090205460ff1690565b610e0457610dcf8161250f565b6040516001600160a01b038216907f1d4c260f1824cd028e6c9e6e31c3a0b94f2513e7a641113ec759d382f9bdd5a190600090a25b50600101610d6a565b506003546000905b82811015610e9a5760098181548110610e3057610e30612f01565b600091825260209091200154600980546001600160a01b039092169184908110610e5c57610e5c612f01565b600091825260209091200180546001600160a01b0319166001600160a01b039290921691909117905581610e8f81612fa0565b925050600101610e15565b50805b82811015610ee0576009805480610eb657610eb6612fb9565b600082815260209020810160001990810180546001600160a01b0319169055019055600101610e9d565b505060006003555b6001600e60006001600f54610efd9190612f4a565b81526020810191909152604001600090812060040180549215156101000261ff001990931692909217909155805460ff60a01b191681556017549003610a3d576000805460ff60a01b1916600160a11b179055610f5861259b565b6040517f9c89a6ed7228533196a3f962acc80d61a9c53bdea6b910741bf754f5aaa7569e90600090a150565b610f8f6105ac612500565b610fd45760405162461bcd60e51b815260206004820152601660248201527521b0b63632b91034b9903737ba1030903bb4b73732b960511b604482015260640161073e565b60056000610fe0612500565b6001600160a01b0316815260208101919091526040016000205460ff161561103f5760405162461bcd60e51b815260206004820152601260248201527113919508185b1c9958591e481b5a5b9d195960721b604482015260640161073e565b60016005600061104d612500565b6001600160a01b0316815260208101919091526040016000908120805460ff191692151592909217909155600681611083612500565b6001600160a01b039081168252602082019290925260400160002091909155600a5416636b8f60f66110b3612500565b6040516001600160e01b031960e084901b1681526001600160a01b039091166004820152602401600060405180830381600087803b1580156110f457600080fd5b505af1158015611108573d6000803e3d6000fd5b50505050565b611116612500565b6011546001600160a01b039081169116146111835760405162461bcd60e51b815260206004820152602760248201527f4f6e6c792077686974656c6973746564206d61792063616c6c207468697320666044820152663ab731ba34b7b760c91b606482015260840161073e565b6006600061118f612500565b6001600160a01b03166001600160a01b031681526020019081526020016000205460000361120357600980546001810182556000919091527f6e1540171b6c0c960b71a7020d9f60077f6af931a8bbf590da0223dacf75c7af0180546001600160a01b0319166001600160a01b0384161790555b6001600160a01b0382166000908152600660205260408120805483929061122b908490612f8d565b925050819055506001601460008282546112459190612f8d565b90915550505050565b6112566128a6565b6001600160a01b03919091166000908152601060205260409020805460ff1916911515919091179055565b600054600160a81b900460ff16156112d15760405162461bcd60e51b8152602060048201526013602482015272105b1c9958591e481a5b9a5d1a585b1a5e9959606a1b604482015260640161073e565b6020810151600280546001600160a01b039283166001600160a01b031991821617909155825160128054919093169116179055604081015161131290612904565b6060810151601755608081015160038190556015819055600481905560135560a081015160165560c0810151600b80546001600160a01b039283166001600160a01b03199182161790915560e0830151600a8054918416918316919091179055610100830151600180549184169183169190911781556101209093015160118054919093169116179055600f556000805460ff60a81b1916600160a81b179055565b6060600980548060200260200160405190810160405280929190818152602001828054801561140c57602002820191906000526020600020905b81546001600160a01b031681526001909101906020018083116113ee575b5050505050905090565b6002546001600160a01b031661142a612500565b6001600160a01b0316146114505760405162461bcd60e51b815260040161073e90612ebf565b6002600054600160a01b900460ff16600281111561147057611470612de3565b146114b15760405162461bcd60e51b8152602060048201526011602482015270131bdd1d195c9e481b9bdd08195b991959607a1b604482015260640161073e565b6000805b60085481101561152a576000600882815481106114d4576114d4612f01565b60009182526020808320909101546001600160a01b031680835260069091526040909120549091506115069084612f8d565b6001600160a01b0390911660009081526006602052604081205591506001016114b5565b506000606461153a836005612fcf565b6115449190612fe6565b905060006115528284612f4a565b600b5460015460405163a9059cbb60e01b81526001600160a01b03918216600482015260248101869052929350169063a9059cbb906044016020604051808303816000875af11580156115a9573d6000803e3d6000fd5b505050506040513d601f19601f820116820180604052508101906115cd9190612f17565b50600b5460025460405163a9059cbb60e01b81526001600160a01b0391821660048201526024810184905291169063a9059cbb906044016020604051808303816000875af1158015611623573d6000803e3d6000fd5b505050506040513d601f19601f820116820180604052508101906111089190612f17565b6002546001600160a01b031661165b612500565b6001600160a01b0316146116815760405162461bcd60e51b815260040161073e90612ebf565b6000805482919060ff60a01b1916600160a01b8360028111156116a6576116a6612de3565b021790555050565b6116b66128a6565b6116c06000612904565b565b600c81815481106116d257600080fd5b9060005260206000209060209182820401919006915054906101000a900460ff1681565b6002600054600160a01b900460ff16600281111561171657611716612de3565b1461175b5760405162461bcd60e51b815260206004820152601560248201527414d85b19481a5cc81b9bdd08195b991959081e595d605a1b604482015260640161073e565b60076000611767612500565b6001600160a01b0316815260208101919091526040016000205460ff16156117d15760405162461bcd60e51b815260206004820152601760248201527f57696e6e6572732063616e6e6f74207769746864726177000000000000000000604482015260640161073e565b6000600660006117df612500565b6001600160a01b03166001600160a01b03168152602001908152602001600020549050600081116118495760405162461bcd60e51b81526020600482015260146024820152734e6f2066756e647320746f20776974686472617760601b604482015260640161073e565b600060066000611857612500565b6001600160a01b039081168252602082019290925260400160002091909155600b541663a9059cbb611887612500565b6040516001600160e01b031960e084901b1681526001600160a01b039091166004820152602481018490526044016020604051808303816000875af11580156118d4573d6000803e3d6000fd5b505050506040513d601f19601f820116820180604052508101906118f89190612f17565b5080611902612500565b6001600160a01b03167f1f280cd00e67ed50213ac03febd5be151f96b7f7db2f85312aa0feff99f8bdab60405160405180910390a350565b6002546001600160a01b031661194e612500565b6001600160a01b0316148061197d57506000546001600160a01b0316611972612500565b6001600160a01b0316145b806119ad57506010600061198f612500565b6001600160a01b0316815260208101919091526040016000205460ff165b611a055760405162461bcd60e51b8152602060048201526024808201527f4f6e6c79206f70657261746f722063616e2063616c6c20746869732066756e636044820152633a34b7b760e11b606482015260840161073e565b601754811115611a925760405162461bcd60e51b815260206004820152604c60248201527f5469636b6574732070657220726f756e642063616e6e6f74206265206869676860448201527f6572207468616e20746f74616c206e756d626572206f66207469636b6574732060648201526b696e2041756374696f6e563160a01b608482015260a40161073e565b6001600f541115611b3357600e60006001600f54611ab09190612f4a565b815260208101919091526040016000206004015460ff610100909104161515600114611b335760405162461bcd60e51b815260206004820152602c60248201527f46696e697368206c61737420726f756e642066697273742062792073656c656360448201526b74696e672077696e6e65727360a01b606482015260840161073e565b600060175460145410611b7157601554601454611b509190612fe6565b601654611b5d9190612fcf565b600454611b6a9190612f8d565b9050611bc4565b6000601554601454611b839190612fe6565b611b8e906001612f4a565b601654611b9b9190612fcf565b9050806004541115611bbc5780600454611bb59190612f4a565b9150611bc2565b60135491505b505b6004819055600060148190556003839055601583905560178054849290611bec908490612f4a565b90915550506040805160c081018252600f8054808352602080840188815284860188815260006060870181815260016080890181815260a08a01848152978452600e90965291899020975188559251908701555160028601555160038501555160049093018054915115156101000261ff00199415159490941661ffff1990921691909117929092179091555490517fa809180f68c3ea85ec47001279a9070abd80a3022aa303b0fd92eb0e7538d42b90611cb39086908690918252602082015260400190565b60405180910390a2611cc56001611647565b600f8054906000611cd583612fa0565b9190505550505050565b6012546001600160a01b03163314611d295760405162461bcd60e51b815260206004820152600d60248201526c37b7363c9037b832b930ba37b960991b604482015260640161073e565b6000611d3782840184613022565b91505060008082806020019051810190611d5191906130d0565b9150915060008585604051611d67929190613153565b604051809103902090506000600d60008581526020019081526020016000205482149050600c8481548110611d9e57611d9e612f01565b90600052602060002090602091828204019190069054906101000a900460ff16611e0a5760405162461bcd60e51b815260206004820152601c60248201527f726571756573742066756c66696c6c6564206f72206d697373696e6700000000604482015260640161073e565b8015611eaf5760408051602081018a905230918101919091524660608201526080810185905260a0016040516020818303038152906040528051906020012060001c9750611e59888585612954565b6000600c8581548110611e6e57611e6e612f01565b90600052602060002090602091828204019190066101000a81548160ff021916908315150217905550600d6000858152602001908152602001600020600090555b5050505050505050565b611ec46105ac612500565b15611f0a5760405162461bcd60e51b815260206004820152601660248201527515da5b9b995c9cc818d85b9b9bdd0819195c1bdcda5d60521b604482015260640161073e565b600b546001600160a01b0316611f625760405162461bcd60e51b815260206004820152601d60248201527f5553444320636f6e74726163742061646472657373206e6f7420736574000000604482015260640161073e565b600454811015611fac5760405162461bcd60e51b8152602060048201526015602482015274139bdd08195b9bdd59da08199d5b991cc81cd95b9d605a1b604482015260640161073e565b600b5481906001600160a01b031663dd62ed3e611fc7612500565b6040516001600160e01b031960e084901b1681526001600160a01b039091166004820152306024820152604401602060405180830381865afa158015612011573d6000803e3d6000fd5b505050506040513d601f19601f820116820180604052508101906120359190613163565b101561207c5760405162461bcd60e51b8152602060048201526016602482015275496e73756666696369656e7420616c6c6f77616e636560501b604482015260640161073e565b600e60006001600f5461208f9190612f4a565b8152602001908152602001600020600301546000146121025760405162461bcd60e51b815260206004820152602960248201527f596f752063616e2774206465706f73697420616674657220726f756e6420697360448201526808199a5b9a5cda195960ba1b606482015260840161073e565b600b546001600160a01b03166323b872dd61211b612500565b6040516001600160e01b031960e084901b1681526001600160a01b039091166004820152306024820152604481018490526064016020604051808303816000875af115801561216e573d6000803e3d6000fd5b505050506040513d601f19601f820116820180604052508101906121929190612f17565b506006600061219f612500565b6001600160a01b03166001600160a01b03168152602001908152602001600020546000036122045760096121d1612500565b81546001810183556000928352602090922090910180546001600160a01b0319166001600160a01b039092169190911790555b8060066000612211612500565b6001600160a01b03166001600160a01b0316815260200190815260200160002060008282546122409190612f8d565b90915550506004548110612267576001601460008282546122619190612f8d565b90915550505b80612270612500565b6001600160a01b03167f21040858e63c11c046482f61f290bbe25972fc74b11b4570a01f9241082d21f160405160405180910390a350565b6060600880548060200260200160405190810160405280929190818152602001828054801561140c576020028201919060005260206000209081546001600160a01b031681526001909101906020018083116113ee575050505050905090565b6002546001600160a01b031661231c612500565b6001600160a01b0316146123425760405162461bcd60e51b815260040161073e90612ebf565b600280546001600160a01b0319166001600160a01b0392909216919091179055565b61236c6128a6565b6001600160a01b03811661239657604051631e4fbdf760e01b81526000600482015260240161073e565b610a3d81612904565b6002546001600160a01b03166123b3612500565b6001600160a01b0316146123d95760405162461bcd60e51b815260040161073e90612ebf565b6001600f541161241f5760405162461bcd60e51b815260206004820152601160248201527014d95d1d5c08199a5c9cdd081c9bdd5b99607a1b604482015260640161073e565b42600e60006001600f546124339190612f4a565b815260200190815260200160002060010154111561248c5760405162461bcd60e51b8152602060048201526016602482015275149bdd5b99081a5cc81b9bdd08195b991959081e595d60521b604482015260640161073e565b6124c0612497612500565b604080516001600160a01b039092166020830152016040516020818303038152906040526129bb565b506124c9612500565b6001600160a01b03167fd802e7c7f1646e3318c03abed1e468bdf913f45331a68dc912a0d645eb646a4260405160405180910390a2565b600061250a612abe565b905090565b6001600160a01b038116600081815260076020526040808220805460ff1916600190811790915560088054918201815583527ff3f7a9fe364faab93b216da50a3214154f22a0a2b415b23a84c8169e8b636ee30180546001600160a01b03191684179055517f1d4c260f1824cd028e6c9e6e31c3a0b94f2513e7a641113ec759d382f9bdd5a19190a250565b6002546001600160a01b03166125af612500565b6001600160a01b0316146125d55760405162461bcd60e51b815260040161073e90612ebf565b6002600054600160a01b900460ff1660028111156125f5576125f5612de3565b1461263a5760405162461bcd60e51b815260206004820152601560248201527414d85b19481a5cc81b9bdd08195b991959081e595d605a1b604482015260640161073e565b60095460008167ffffffffffffffff81111561265857612658612c51565b604051908082528060200260200182016040528015612681578160200160208202803683370190505b50905060005b828110156126f257600981815481106126a2576126a2612f01565b9060005260206000200160009054906101000a90046001600160a01b03168282815181106126d2576126d2612f01565b6001600160a01b0390921660209283029190910190910152600101612687565b5060005b8281101561286257600082828151811061271257612712612f01565b6020908102919091018101516001600160a01b0381166000908152600683526040808220805490839055600790945290205490925060ff16156127df5760006004548261275f9190612f4a565b600b5460405163a9059cbb60e01b81526001600160a01b0386811660048301526024820184905292935091169063a9059cbb906044016020604051808303816000875af11580156127b4573d6000803e3d6000fd5b505050506040513d601f19601f820116820180604052508101906127d89190612f17565b5050612858565b600b5460405163a9059cbb60e01b81526001600160a01b038481166004830152602482018490529091169063a9059cbb906044016020604051808303816000875af1158015612832573d6000803e3d6000fd5b505050506040513d601f19601f820116820180604052508101906128569190612f17565b505b50506001016126f6565b5061286f60096000612b59565b6040518281527f01f8aef848121bbf182106b55119c1094063c572b6c8dcb09040e1203a17abf99060200160405180910390a15050565b6128ae612500565b6001600160a01b03166128c96000546001600160a01b031690565b6001600160a01b0316146116c0576128df612500565b60405163118cdaa760e01b81526001600160a01b03909116600482015260240161073e565b600080546001600160a01b038381166001600160a01b0319831681178455604051919092169283917f8be0079c531659141344cd1fd0a4f28419497f9722a3daafe3b4186f6b6457e09190a35050565b82600e60006001600f546129689190612f4a565b8152602001908152602001600020600301819055507f79518eb4b6f70742e6651b03a2ac2bc644ea2613e8de56247857c5be5fc2a0ba836040516129ae91815260200190565b60405180910390a1505050565b600c80546001808201808455600084905291929091839081106129e0576129e0612f01565b90600052602060002090602091828204019190066101000a81548160ff02191690831515021790555060008183604051602001612a1e92919061317c565b60405160208183030381529060405290506000612a39612b02565b905060008183604051602001612a5092919061317c565b60408051601f1981840301815282825280516020808301919091206000898152600d9092529290208290559250907fd91fc3685b930310b008ec37d2334870cab88a023ed8cc628a2e2ccd4e55d20290612aad908590879061317c565b60405180910390a150505050919050565b60007f00000000000000000000000000000000000000000000000000000000000000006001600160a01b03163303612afd575060131936013560601c90565b503390565b600080612b136364e6212742612f4a565b90506000612b22600383612fe6565b612b2d906001612f8d565b905046600114612b4757612b42816001612f8d565b612b52565b612b52816004612f8d565b9250505090565b5080546000825590600052602060002090810190610a3d91905b80821115612b875760008155600101612b73565b5090565b600060208284031215612b9d57600080fd5b5035919050565b80356001600160a01b0381168114612bbb57600080fd5b919050565b600060208284031215612bd257600080fd5b612bdb82612ba4565b9392505050565b60008060408385031215612bf557600080fd5b612bfe83612ba4565b946020939093013593505050565b8015158114610a3d57600080fd5b60008060408385031215612c2d57600080fd5b612c3683612ba4565b91506020830135612c4681612c0c565b809150509250929050565b634e487b7160e01b600052604160045260246000fd5b604051610140810167ffffffffffffffff81118282101715612c8b57612c8b612c51565b60405290565b604051601f8201601f1916810167ffffffffffffffff81118282101715612cba57612cba612c51565b604052919050565b60006101408284031215612cd557600080fd5b612cdd612c67565b612ce683612ba4565b8152612cf460208401612ba4565b6020820152612d0560408401612ba4565b6040820152606083013560608201526080830135608082015260a083013560a0820152612d3460c08401612ba4565b60c0820152612d4560e08401612ba4565b60e0820152610100612d58818501612ba4565b90820152610120612d6a848201612ba4565b908201529392505050565b6020808252825182820181905260009190848201906040850190845b81811015612db65783516001600160a01b031683529284019291840191600101612d91565b50909695505050505050565b600060208284031215612dd457600080fd5b813560038110612bdb57600080fd5b634e487b7160e01b600052602160045260246000fd5b6020810160038310612e1b57634e487b7160e01b600052602160045260246000fd5b91905290565b60008060408385031215612e3457600080fd5b50508035926020909101359150565b600080600060408486031215612e5857600080fd5b83359250602084013567ffffffffffffffff80821115612e7757600080fd5b818601915086601f830112612e8b57600080fd5b813581811115612e9a57600080fd5b876020828501011115612eac57600080fd5b6020830194508093505050509250925092565b60208082526022908201527f4f6e6c792073656c6c65722063616e2063616c6c20746869732066756e63746960408201526137b760f11b606082015260800190565b634e487b7160e01b600052603260045260246000fd5b600060208284031215612f2957600080fd5b8151612bdb81612c0c565b634e487b7160e01b600052601160045260246000fd5b81810381811115612f5d57612f5d612f34565b92915050565b634e487b7160e01b600052601260045260246000fd5b600082612f8857612f88612f63565b500690565b80820180821115612f5d57612f5d612f34565b600060018201612fb257612fb2612f34565b5060010190565b634e487b7160e01b600052603160045260246000fd5b8082028115828204841417612f5d57612f5d612f34565b600082612ff557612ff5612f63565b500490565b600067ffffffffffffffff82111561301457613014612c51565b50601f01601f191660200190565b6000806040838503121561303557600080fd5b82359150602083013567ffffffffffffffff81111561305357600080fd5b8301601f8101851361306457600080fd5b803561307761307282612ffa565b612c91565b81815286602083850101111561308c57600080fd5b816020840160208301376000602083830101528093505050509250929050565b60005b838110156130c75781810151838201526020016130af565b50506000910152565b600080604083850312156130e357600080fd5b82519150602083015167ffffffffffffffff81111561310157600080fd5b8301601f8101851361311257600080fd5b805161312061307282612ffa565b81815286602083850101111561313557600080fd5b6131468260208301602086016130ac565b8093505050509250929050565b8183823760009101908152919050565b60006020828403121561317557600080fd5b5051919050565b82815260406020820152600082518060408401526131a18160608501602087016130ac565b601f01601f191691909101606001939250505056fea2646970667358221220fc4d7a710314dacc06ab52cda61f516a59c72697611626937aa9da56d771ae9264736f6c63430008190033","linkReferences":{}},"methodIdentifiers":{"buyerWithdraw()":"7cc947d0","changeLotteryState(uint8)":"683e93e1","deposit(uint256)":"b6b55f25","deposits(address)":"fc7e286d","endLottery()":"1593a8c7","fulfillRandomness(uint256,bytes)":"b3f6b99a","getDepositedAmount(address)":"e9081ec7","getParticipants()":"5aa68ac0","getWinners()":"df15c37e","hasMinted(address)":"38e21cce","increasePriceStep()":"96efac7b","initialPrice()":"1d0806ae","initialize((address,address,address,uint256,uint256,uint256,address,address,address,address))":"56d7c73a","initialized()":"158ef93e","isTrustedForwarder(address)":"572b6c05","isWinner(address)":"9d9ca28d","lotteryState()":"6939864b","lotteryV2Addr()":"7de13382","mintMyNFT()":"26170480","multisigWalletAddress()":"a61fb2ba","nftContractAddr()":"2c23ec8e","numberOfTickets()":"45745c10","operatorAddr()":"f3f18c37","operators(address)":"13e7c9d8","owner()":"8da5cb5b","prevRoundDeposits()":"b680e44b","prevRoundTicketsAmount()":"224f91bd","renounceOwnership()":"715018a6","requestPending(uint256)":"75ce7fff","requestRandomness()":"f8413b07","requestedHash(uint256)":"c4f8f27b","roundCounter()":"febc14b1","rounds(uint256)":"8c65c81f","selectWinners()":"1a0de74c","seller()":"08551a53","sellerWithdraw()":"66af746b","setOperator(address,bool)":"558a7297","setSeller(address)":"e99d2866","setupNewRound(uint256,uint256)":"a4f03c02","startLottery()":"160344e2","ticketPrice()":"1209b1f6","totalNumberOfTickets()":"00746702","transferDeposit(address,uint256)":"50f3dbec","transferNonWinnerBids(address)":"1630a8df","transferOwnership(address)":"f2fde38b","usdcContractAddr()":"99dbf4b5","winnerAddresses(uint256)":"045f9c97","winners(address)":"6bd5450a"},"id":5}