{"abi":[{"type":"function","name":"buyerWithdraw","inputs":[],"outputs":[],"stateMutability":"nonpayable"},{"type":"function","name":"changeLotteryState","inputs":[{"name":"_newState","type":"uint8","internalType":"enum SaleBase.LotteryState"}],"outputs":[],"stateMutability":"nonpayable"},{"type":"function","name":"deposit","inputs":[{"name":"amount","type":"uint256","internalType":"uint256"}],"outputs":[],"stateMutability":"nonpayable"},{"type":"function","name":"deposits","inputs":[{"name":"","type":"address","internalType":"address"}],"outputs":[{"name":"","type":"uint256","internalType":"uint256"}],"stateMutability":"view"},{"type":"function","name":"endLottery","inputs":[],"outputs":[],"stateMutability":"nonpayable"},{"type":"function","name":"fulfillRandomness","inputs":[{"name":"randomness","type":"uint256","internalType":"uint256"},{"name":"dataWithRound","type":"bytes","internalType":"bytes"}],"outputs":[],"stateMutability":"nonpayable"},{"type":"function","name":"getDepositedAmount","inputs":[{"name":"participant","type":"address","internalType":"address"}],"outputs":[{"name":"","type":"uint256","internalType":"uint256"}],"stateMutability":"view"},{"type":"function","name":"getDepositedAmountForRound","inputs":[{"name":"participant","type":"address","internalType":"address"},{"name":"roundIndex","type":"uint256","internalType":"uint256"}],"outputs":[{"name":"","type":"uint256","internalType":"uint256"}],"stateMutability":"view"},{"type":"function","name":"getParticipants","inputs":[],"outputs":[{"name":"","type":"address[]","internalType":"address[]"}],"stateMutability":"view"},{"type":"function","name":"getParticipantsForRound","inputs":[{"name":"roundIndex","type":"uint256","internalType":"uint256"}],"outputs":[{"name":"","type":"address[]","internalType":"address[]"}],"stateMutability":"view"},{"type":"function","name":"getWinners","inputs":[],"outputs":[{"name":"","type":"address[]","internalType":"address[]"}],"stateMutability":"view"},{"type":"function","name":"hasMinted","inputs":[{"name":"","type":"address","internalType":"address"}],"outputs":[{"name":"","type":"bool","internalType":"bool"}],"stateMutability":"view"},{"type":"function","name":"increasePriceStep","inputs":[],"outputs":[{"name":"","type":"uint256","internalType":"uint256"}],"stateMutability":"view"},{"type":"function","name":"initialPrice","inputs":[],"outputs":[{"name":"","type":"uint256","internalType":"uint256"}],"stateMutability":"view"},{"type":"function","name":"initialize","inputs":[{"name":"config","type":"tuple","internalType":"struct StructsLibrary.IAuctionV1BaseConfig","components":[{"name":"_seller","type":"address","internalType":"address"},{"name":"_gelatoVrfOperator","type":"address","internalType":"address"},{"name":"_owner","type":"address","internalType":"address"},{"name":"_ticketAmount","type":"uint256","internalType":"uint256"},{"name":"_ticketPrice","type":"uint256","internalType":"uint256"},{"name":"_priceIncreaseStep","type":"uint256","internalType":"uint256"},{"name":"_usdcContractAddr","type":"address","internalType":"address"},{"name":"_nftContractAddr","type":"address","internalType":"address"},{"name":"_multisigWalletAddress","type":"address","internalType":"address"},{"name":"_prevPhaseContractAddr","type":"address","internalType":"address"}]}],"outputs":[],"stateMutability":"nonpayable"},{"type":"function","name":"isTrustedForwarder","inputs":[{"name":"forwarder","type":"address","internalType":"address"}],"outputs":[{"name":"","type":"bool","internalType":"bool"}],"stateMutability":"view"},{"type":"function","name":"isWinner","inputs":[{"name":"_participant","type":"address","internalType":"address"}],"outputs":[{"name":"","type":"bool","internalType":"bool"}],"stateMutability":"view"},{"type":"function","name":"lotteryState","inputs":[],"outputs":[{"name":"","type":"uint8","internalType":"enum SaleBase.LotteryState"}],"stateMutability":"view"},{"type":"function","name":"lotteryV2Addr","inputs":[],"outputs":[{"name":"","type":"address","internalType":"address"}],"stateMutability":"view"},{"type":"function","name":"mintMyNFT","inputs":[],"outputs":[],"stateMutability":"nonpayable"},{"type":"function","name":"multisigWalletAddress","inputs":[],"outputs":[{"name":"","type":"address","internalType":"address"}],"stateMutability":"view"},{"type":"function","name":"nftContractAddr","inputs":[],"outputs":[{"name":"","type":"address","internalType":"address"}],"stateMutability":"view"},{"type":"function","name":"numberOfTickets","inputs":[],"outputs":[{"name":"","type":"uint256","internalType":"uint256"}],"stateMutability":"view"},{"type":"function","name":"operatorAddr","inputs":[],"outputs":[{"name":"","type":"address","internalType":"address"}],"stateMutability":"view"},{"type":"function","name":"operators","inputs":[{"name":"","type":"address","internalType":"address"}],"outputs":[{"name":"","type":"bool","internalType":"bool"}],"stateMutability":"view"},{"type":"function","name":"owner","inputs":[],"outputs":[{"name":"","type":"address","internalType":"address"}],"stateMutability":"view"},{"type":"function","name":"prevRoundDeposits","inputs":[],"outputs":[{"name":"","type":"uint256","internalType":"uint256"}],"stateMutability":"view"},{"type":"function","name":"prevRoundTicketsAmount","inputs":[],"outputs":[{"name":"","type":"uint256","internalType":"uint256"}],"stateMutability":"view"},{"type":"function","name":"renounceOwnership","inputs":[],"outputs":[],"stateMutability":"nonpayable"},{"type":"function","name":"requestPending","inputs":[{"name":"","type":"uint256","internalType":"uint256"}],"outputs":[{"name":"","type":"bool","internalType":"bool"}],"stateMutability":"view"},{"type":"function","name":"requestRandomness","inputs":[],"outputs":[],"stateMutability":"nonpayable"},{"type":"function","name":"requestedHash","inputs":[{"name":"","type":"uint256","internalType":"uint256"}],"outputs":[{"name":"","type":"bytes32","internalType":"bytes32"}],"stateMutability":"view"},{"type":"function","name":"roundCounter","inputs":[],"outputs":[{"name":"","type":"uint256","internalType":"uint256"}],"stateMutability":"view"},{"type":"function","name":"rounds","inputs":[{"name":"","type":"uint256","internalType":"uint256"}],"outputs":[{"name":"number","type":"uint256","internalType":"uint256"},{"name":"finishAt","type":"uint256","internalType":"uint256"},{"name":"numberOfTickets","type":"uint256","internalType":"uint256"},{"name":"randomNumber","type":"uint256","internalType":"uint256"},{"name":"lotteryStarted","type":"bool","internalType":"bool"},{"name":"lotteryFinished","type":"bool","internalType":"bool"},{"name":"winnersSelected","type":"bool","internalType":"bool"}],"stateMutability":"view"},{"type":"function","name":"selectWinners","inputs":[],"outputs":[],"stateMutability":"nonpayable"},{"type":"function","name":"seller","inputs":[],"outputs":[{"name":"","type":"address","internalType":"address"}],"stateMutability":"view"},{"type":"function","name":"sellerWithdraw","inputs":[],"outputs":[],"stateMutability":"nonpayable"},{"type":"function","name":"setOperator","inputs":[{"name":"_operatorAddr","type":"address","internalType":"address"},{"name":"_flag","type":"bool","internalType":"bool"}],"outputs":[],"stateMutability":"nonpayable"},{"type":"function","name":"setSeller","inputs":[{"name":"_seller","type":"address","internalType":"address"}],"outputs":[],"stateMutability":"nonpayable"},{"type":"function","name":"setupNewRound","inputs":[{"name":"_finishAt","type":"uint256","internalType":"uint256"},{"name":"_numberOfTickets","type":"uint256","internalType":"uint256"}],"outputs":[],"stateMutability":"nonpayable"},{"type":"function","name":"startLottery","inputs":[],"outputs":[],"stateMutability":"nonpayable"},{"type":"function","name":"ticketPrice","inputs":[],"outputs":[{"name":"","type":"uint256","internalType":"uint256"}],"stateMutability":"view"},{"type":"function","name":"totalNumberOfTickets","inputs":[],"outputs":[{"name":"","type":"uint256","internalType":"uint256"}],"stateMutability":"view"},{"type":"function","name":"transferDeposit","inputs":[{"name":"_participant","type":"address","internalType":"address"},{"name":"_amount","type":"uint256","internalType":"uint256"}],"outputs":[],"stateMutability":"nonpayable"},{"type":"function","name":"transferNonWinnerBids","inputs":[{"name":"destinationAddr","type":"address","internalType":"address"}],"outputs":[],"stateMutability":"nonpayable"},{"type":"function","name":"transferOwnership","inputs":[{"name":"newOwner","type":"address","internalType":"address"}],"outputs":[],"stateMutability":"nonpayable"},{"type":"function","name":"usdcContractAddr","inputs":[],"outputs":[{"name":"","type":"address","internalType":"address"}],"stateMutability":"view"},{"type":"function","name":"winnerAddresses","inputs":[{"name":"","type":"uint256","internalType":"uint256"}],"outputs":[{"name":"","type":"address","internalType":"address"}],"stateMutability":"view"},{"type":"function","name":"winners","inputs":[{"name":"","type":"address","internalType":"address"}],"outputs":[{"name":"","type":"bool","internalType":"bool"}],"stateMutability":"view"},{"type":"event","name":"BuyerDeposited","inputs":[{"name":"buyer","type":"address","indexed":true,"internalType":"address"},{"name":"amount","type":"uint256","indexed":true,"internalType":"uint256"}],"anonymous":false},{"type":"event","name":"BuyerWithdrew","inputs":[{"name":"buyer","type":"address","indexed":true,"internalType":"address"},{"name":"amount","type":"uint256","indexed":true,"internalType":"uint256"}],"anonymous":false},{"type":"event","name":"DepositsReturned","inputs":[{"name":"returnedDepositsCount","type":"uint256","indexed":false,"internalType":"uint256"},{"name":"roundNumber","type":"uint256","indexed":true,"internalType":"uint256"}],"anonymous":false},{"type":"event","name":"DepositsReturned","inputs":[{"name":"returnedDepositsCount","type":"uint256","indexed":false,"internalType":"uint256"}],"anonymous":false},{"type":"event","name":"Initialized","inputs":[{"name":"version","type":"uint64","indexed":false,"internalType":"uint64"}],"anonymous":false},{"type":"event","name":"LotteryEnded","inputs":[],"anonymous":false},{"type":"event","name":"LotteryStarted","inputs":[],"anonymous":false},{"type":"event","name":"OwnershipTransferred","inputs":[{"name":"previousOwner","type":"address","indexed":true,"internalType":"address"},{"name":"newOwner","type":"address","indexed":true,"internalType":"address"}],"anonymous":false},{"type":"event","name":"RandomFulfilled","inputs":[{"name":"number","type":"uint256","indexed":false,"internalType":"uint256"},{"name":"requester","type":"address","indexed":true,"internalType":"address"}],"anonymous":false},{"type":"event","name":"RandomRequested","inputs":[{"name":"requester","type":"address","indexed":true,"internalType":"address"}],"anonymous":false},{"type":"event","name":"RequestedRandomness","inputs":[{"name":"round","type":"uint256","indexed":false,"internalType":"uint256"},{"name":"data","type":"bytes","indexed":false,"internalType":"bytes"}],"anonymous":false},{"type":"event","name":"RoundSet","inputs":[{"name":"roundNumber","type":"uint256","indexed":true,"internalType":"uint256"},{"name":"finishAt","type":"uint256","indexed":false,"internalType":"uint256"},{"name":"numberOfTickets","type":"uint256","indexed":false,"internalType":"uint256"}],"anonymous":false},{"type":"event","name":"WinnerSelected","inputs":[{"name":"winner","type":"address","indexed":true,"internalType":"address"}],"anonymous":false},{"type":"error","name":"InvalidInitialization","inputs":[]},{"type":"error","name":"NotInitializing","inputs":[]},{"type":"error","name":"OwnableInvalidOwner","inputs":[{"name":"owner","type":"address","internalType":"address"}]},{"type":"error","name":"OwnableUnauthorizedAccount","inputs":[{"name":"account","type":"address","internalType":"address"}]}],"bytecode":{"object":"0x60a060405260016014556001601555600560165534801561001f57600080fd5b5073d8253782c45a12053594b9deb72d8e8ab2fca54c338061005b57604051631e4fbdf760e01b81526000600482015260240160405180910390fd5b6100648161007e565b506001600160a01b03166080526100796100ce565b610180565b600080546001600160a01b038381166001600160a01b0319831681178455604051919092169283917f8be0079c531659141344cd1fd0a4f28419497f9722a3daafe3b4186f6b6457e09190a35050565b7ff0c57e16840df040f15088dc2f81fe391c3923bec73e23a9662efc9c229c6a00805468010000000000000000900460ff161561011e5760405163f92ee8a960e01b815260040160405180910390fd5b80546001600160401b039081161461017d5780546001600160401b0319166001600160401b0390811782556040519081527fc7f505b2f371ae2175ee4913f4499e1f2633a7b5936321eed1cdaeb6115181d29060200160405180910390a15b50565b60805161354e6101a2600039600081816104240152612e14015261354e6000f3fe608060405234801561001057600080fd5b50600436106102ba5760003560e01c8063715018a611610182578063b3f6b99a116100e9578063e99d2866116100a2578063f56542d61161007c578063f56542d6146106c1578063f8413b07146106d4578063fc7e286d146106dc578063febc14b1146106fc57600080fd5b8063e99d286614610688578063f2fde38b1461069b578063f3f18c37146106ae57600080fd5b8063b3f6b99a1461061e578063b680e44b14610631578063b6b55f251461063a578063c4f8f27b1461064d578063df15c37e1461066d578063e9081ec71461067557600080fd5b80638da5cb5b1161013b5780638da5cb5b1461059f57806396efac7b146105b057806399dbf4b5146105b95780639d9ca28d146105cc578063a4f03c02146105f8578063a61fb2ba1461060b57600080fd5b8063715018a6146104c857806375ce7fff146104d05780637cc947d0146104e35780637de13382146104eb57806380d58442146104fe5780638c65c81f1461051157600080fd5b80632c23ec8e11610226578063572b6c05116101df578063572b6c05146104145780635aa68ac01461045457806366af746b14610469578063683e93e1146104715780636939864b146104845780636bd5450a146104a557600080fd5b80632c23ec8e1461039c57806338e21cce146103af57806345745c10146103d257806350f3dbec146103db578063558a7297146103ee57806356d7c73a1461040157600080fd5b8063160344e211610278578063160344e21461035f5780631630a8df146103675780631a0de74c1461037a5780631d0806ae14610382578063224f91bd1461038b578063261704801461039457600080fd5b8062746702146102bf578063045f9c97146102db57806308551a53146103065780631209b1f61461031957806313e7c9d8146103225780631593a8c714610355575b600080fd5b6102c860175481565b6040519081526020015b60405180910390f35b6102ee6102e9366004612edd565b610705565b6040516001600160a01b0390911681526020016102d2565b6002546102ee906001600160a01b031681565b6102c860045481565b610345610330366004612f1b565b60106020526000908152604090205460ff1681565b60405190151581526020016102d2565b61035d61072f565b005b61035d6107a7565b61035d610375366004612f1b565b610882565b61035d610a6b565b6102c860135481565b6102c860155481565b61035d610fc5565b600a546102ee906001600160a01b031681565b6103456103bd366004612f1b565b60056020526000908152604090205460ff1681565b6102c860035481565b61035d6103e9366004612f3f565b611125565b61035d6103fc366004612f79565b611265565b61035d61040f366004613023565b611298565b610345610422366004612f1b565b7f00000000000000000000000000000000000000000000000000000000000000006001600160a01b0390811691161490565b61045c61146c565b6040516102d291906130d6565b61035d6114f0565b61035d61047f366004613123565b611721565b60005461049890600160a01b900460ff1681565b6040516102d2919061315a565b6103456104b3366004612f1b565b60076020526000908152604090205460ff1681565b61035d611788565b6103456104de366004612edd565b61179c565b61035d6117d0565b6011546102ee906001600160a01b031681565b61045c61050c366004612edd565b611a14565b61056461051f366004612edd565b600e60205260009081526040902080546001820154600283015460038401546004909401549293919290919060ff808216916101008104821691620100009091041687565b60408051978852602088019690965294860193909352606085019190915215156080840152151560a0830152151560c082015260e0016102d2565b6000546001600160a01b03166102ee565b6102c860165481565b600b546102ee906001600160a01b031681565b6103456105da366004612f1b565b6001600160a01b031660009081526007602052604090205460ff1690565b61035d610606366004613182565b611a83565b6001546102ee906001600160a01b031681565b61035d61062c3660046131a4565b611dd9565b6102c860145481565b61035d610648366004612edd565b611fb3565b6102c861065b366004612edd565b600d6020526000908152604090205481565b61045c6123ee565b6102c8610683366004612f1b565b61244e565b61035d610696366004612f1b565b61249f565b61035d6106a9366004612f1b565b6124fb565b6012546102ee906001600160a01b031681565b6102c86106cf366004612f3f565b612536565b61035d612563565b6102c86106ea366004612f1b565b60066020526000908152604090205481565b6102c8600f5481565b6008818154811061071557600080fd5b6000918252602090912001546001600160a01b0316905081565b6002546001600160a01b0316610743612701565b6001600160a01b0316146107725760405162461bcd60e51b815260040161076990613220565b60405180910390fd5b61077c6002611721565b6040517f9c89a6ed7228533196a3f962acc80d61a9c53bdea6b910741bf754f5aaa7569e90600090a1565b6002546001600160a01b03166107bb612701565b6001600160a01b0316146107e15760405162461bcd60e51b815260040161076990613220565b60008054600160a01b900460ff16600281111561080057610800613144565b1461084d5760405162461bcd60e51b815260206004820152601760248201527f53616c6520697320696e206163746976652073746174650000000000000000006044820152606401610769565b6108576001611721565b6040517fd029c7c68d943f92286a7825fa6aa2deefa1eee46cee6c91b7e483fd06d27baf90600090a1565b6002546001600160a01b0316610896612701565b6001600160a01b0316146108bc5760405162461bcd60e51b815260040161076990613220565b60005b600954811015610a5b57600060066000600984815481106108e2576108e2613262565b60009182526020808320909101546001600160a01b03168352820192909252604001812054600980549193506006918391908690811061092457610924613262565b6000918252602080832091909101546001600160a01b039081168452908301939093526040918201902092909255600b54915163a9059cbb60e01b815285821660048201526024810184905291169063a9059cbb906044016020604051808303816000875af115801561099b573d6000803e3d6000fd5b505050506040513d601f19601f820116820180604052508101906109bf9190613278565b50826001600160a01b03166350f3dbec600984815481106109e2576109e2613262565b60009182526020909120015460405160e083901b6001600160e01b03191681526001600160a01b03909116600482015260248101849052604401600060405180830381600087803b158015610a3657600080fd5b505af1158015610a4a573d6000803e3d6000fd5b5050600190930192506108bf915050565b50610a6860096000612eab565b50565b6002546001600160a01b0316610a7f612701565b6001600160a01b031614610aa55760405162461bcd60e51b815260040161076990613220565b6000600e60006001600f54610aba91906132ab565b81526020019081526020016000206003015411610b2f5760405162461bcd60e51b815260206004820152602d60248201527f52616e646f6d206e756d62657220666f72206c61737420726f756e642069732060448201526c1b9bdd0819d95b995c985d1959609a1b6064820152608401610769565b600060035411610b815760405162461bcd60e51b815260206004820152601b60248201527f4e6f207469636b657473206c65667420746f20616c6c6f6361746500000000006044820152606401610769565b6000805460ff60a01b1916600160a01b178155600f54600e908290610ba8906001906132ab565b81526020019081526020016000206006018054905090508060035410610ca55760005b81811015610c8e576000600e60006001600f54610be891906132ab565b81526020019081526020016000206006018281548110610c0a57610c0a613262565b6000918252602090912001546001600160a01b03169050610c43816001600160a01b031660009081526007602052604090205460ff1690565b610c8557610c5081612710565b6040516001600160a01b038216907f1d4c260f1824cd028e6c9e6e31c3a0b94f2513e7a641113ec759d382f9bdd5a190600090a25b50600101610bcb565b50610c9b60096000612eab565b6000600355610f2d565b60005b81811015610e5d576000610cbc82846132ab565b600e60006001600f54610ccf91906132ab565b815260200190815260200160002060030154610ceb91906132d4565b610cf590836132e8565b90506000600e60006001600f54610d0c91906132ab565b81526020019081526020016000206006018281548110610d2e57610d2e613262565b6000918252602082200154600f546001600160a01b039091169250600e9190610d59906001906132ab565b81526020019081526020016000206006018381548110610d7b57610d7b613262565b6000918252602082200154600f546001600160a01b0390911691600e91610da4906001906132ab565b81526020019081526020016000206006018381548110610dc657610dc6613262565b9060005260206000200160006101000a8154816001600160a01b0302191690836001600160a01b0316021790555080600e60006001600f54610e0891906132ab565b81526020019081526020016000206006018481548110610e2a57610e2a613262565b600091825260209091200180546001600160a01b0319166001600160a01b03929092169190911790555050600101610ca8565b5060005b600354811015610f26576000600e60006001600f54610e8091906132ab565b81526020019081526020016000206006018281548110610ea257610ea2613262565b6000918252602090912001546001600160a01b03169050610edb816001600160a01b031660009081526007602052604090205460ff1690565b610f1d57610ee881612710565b6040516001600160a01b038216907f1d4c260f1824cd028e6c9e6e31c3a0b94f2513e7a641113ec759d382f9bdd5a190600090a25b50600101610e61565b5060006003555b6001600e60006001600f54610f4291906132ab565b815260200190815260200160002060040160026101000a81548160ff021916908315150217905550610f7261279c565b6000805460ff60a01b191681556017549003610a68576000805460ff60a01b1916600160a11b1781556040517f9c89a6ed7228533196a3f962acc80d61a9c53bdea6b910741bf754f5aaa7569e9190a150565b60056000610fd1612701565b6001600160a01b0316815260208101919091526040016000205460ff16156110305760405162461bcd60e51b815260206004820152601260248201527113919508185b1c9958591e481b5a5b9d195960721b6044820152606401610769565b61103b6105da612701565b6110805760405162461bcd60e51b815260206004820152601660248201527521b0b63632b91034b9903737ba1030903bb4b73732b960511b6044820152606401610769565b60016005600061108e612701565b6001600160a01b0390811682526020820192909252604001600020805460ff191692151592909217909155600a5416636b8f60f66110ca612701565b6040516001600160e01b031960e084901b1681526001600160a01b039091166004820152602401600060405180830381600087803b15801561110b57600080fd5b505af115801561111f573d6000803e3d6000fd5b50505050565b61112d612701565b6011546001600160a01b0390811691161461119a5760405162461bcd60e51b815260206004820152602760248201527f4f6e6c792077686974656c6973746564206d61792063616c6c207468697320666044820152663ab731ba34b7b760c91b6064820152608401610769565b600660006111a6612701565b6001600160a01b03166001600160a01b031681526020019081526020016000205460000361121a57600980546001810182556000919091527f6e1540171b6c0c960b71a7020d9f60077f6af931a8bbf590da0223dacf75c7af0180546001600160a01b0319166001600160a01b0384161790555b6001600160a01b038216600090815260066020526040812080548392906112429084906132e8565b9250508190555060016014600082825461125c91906132e8565b90915550505050565b61126d612bdb565b6001600160a01b03919091166000908152601060205260409020805460ff1916911515919091179055565b7ff0c57e16840df040f15088dc2f81fe391c3923bec73e23a9662efc9c229c6a008054600160401b810460ff16159067ffffffffffffffff166000811580156112de5750825b905060008267ffffffffffffffff1660011480156112fb5750303b155b905081158015611309575080155b156113275760405163f92ee8a960e01b815260040160405180910390fd5b845467ffffffffffffffff19166001178555831561135157845460ff60401b1916600160401b1785555b8551600280546001600160a01b039283166001600160a01b031991821617909155602088015160128054919093169116179055604086015161139290612c39565b6060860151601755608086015160038190556015819055600481905560135560a086015160165560c0860151600b80546001600160a01b03199081166001600160a01b039384161790915560e0880151600a80548316918416919091179055610100880151600180548316918416919091178155610120890151601180549093169316929092179055600f55831561146457845460ff60401b19168555604051600181527fc7f505b2f371ae2175ee4913f4499e1f2633a7b5936321eed1cdaeb6115181d29060200160405180910390a15b505050505050565b6060600e60006001600f5461148191906132ab565b81526020019081526020016000206006018054806020026020016040519081016040528092919081815260200182805480156114e657602002820191906000526020600020905b81546001600160a01b031681526001909101906020018083116114c8575b5050505050905090565b6002546001600160a01b0316611504612701565b6001600160a01b03161461152a5760405162461bcd60e51b815260040161076990613220565b6002600054600160a01b900460ff16600281111561154a5761154a613144565b1461158b5760405162461bcd60e51b8152602060048201526011602482015270131bdd1d195c9e481b9bdd08195b991959607a1b6044820152606401610769565b6000805b600854811015611604576000600882815481106115ae576115ae613262565b60009182526020808320909101546001600160a01b031680835260069091526040909120549091506115e090846132e8565b6001600160a01b03909116600090815260066020526040812055915060010161158f565b50600060646116148360056132fb565b61161e9190613312565b9050600061162c82846132ab565b600b5460015460405163a9059cbb60e01b81526001600160a01b03918216600482015260248101869052929350169063a9059cbb906044016020604051808303816000875af1158015611683573d6000803e3d6000fd5b505050506040513d601f19601f820116820180604052508101906116a79190613278565b50600b5460025460405163a9059cbb60e01b81526001600160a01b0391821660048201526024810184905291169063a9059cbb906044016020604051808303816000875af11580156116fd573d6000803e3d6000fd5b505050506040513d601f19601f8201168201806040525081019061111f9190613278565b6002546001600160a01b0316611735612701565b6001600160a01b03161461175b5760405162461bcd60e51b815260040161076990613220565b6000805482919060ff60a01b1916600160a01b83600281111561178057611780613144565b021790555050565b611790612bdb565b61179a6000612c39565b565b600c81815481106117ac57600080fd5b9060005260206000209060209182820401919006915054906101000a900460ff1681565b6002600054600160a01b900460ff1660028111156117f0576117f0613144565b146118355760405162461bcd60e51b815260206004820152601560248201527414d85b19481a5cc81b9bdd08195b991959081e595d605a1b6044820152606401610769565b60076000611841612701565b6001600160a01b0316815260208101919091526040016000205460ff16156118ab5760405162461bcd60e51b815260206004820152601760248201527f57696e6e6572732063616e6e6f742077697468647261770000000000000000006044820152606401610769565b6000600660006118b9612701565b6001600160a01b03166001600160a01b03168152602001908152602001600020549050600081116119235760405162461bcd60e51b81526020600482015260146024820152734e6f2066756e647320746f20776974686472617760601b6044820152606401610769565b600060066000611931612701565b6001600160a01b039081168252602082019290925260400160002091909155600b541663a9059cbb611961612701565b6040516001600160e01b031960e084901b1681526001600160a01b039091166004820152602481018490526044016020604051808303816000875af11580156119ae573d6000803e3d6000fd5b505050506040513d601f19601f820116820180604052508101906119d29190613278565b50806119dc612701565b6001600160a01b03167f1f280cd00e67ed50213ac03febd5be151f96b7f7db2f85312aa0feff99f8bdab60405160405180910390a350565b6000818152600e6020908152604091829020600601805483518184028101840190945280845260609392830182828015611a7757602002820191906000526020600020905b81546001600160a01b03168152600190910190602001808311611a59575b50505050509050919050565b6002546001600160a01b0316611a97612701565b6001600160a01b03161480611ac657506000546001600160a01b0316611abb612701565b6001600160a01b0316145b80611af6575060106000611ad8612701565b6001600160a01b0316815260208101919091526040016000205460ff165b611b4e5760405162461bcd60e51b8152602060048201526024808201527f4f6e6c79206f70657261746f722063616e2063616c6c20746869732066756e636044820152633a34b7b760e11b6064820152608401610769565b601754811115611bdb5760405162461bcd60e51b815260206004820152604c60248201527f5469636b6574732070657220726f756e642063616e6e6f74206265206869676860448201527f6572207468616e20746f74616c206e756d626572206f66207469636b6574732060648201526b696e2041756374696f6e563160a01b608482015260a401610769565b6001600f541115611c8057600e60006001600f54611bf991906132ab565b815260200190815260200160002060040160029054906101000a900460ff1615156001151514611c805760405162461bcd60e51b815260206004820152602c60248201527f46696e697368206c61737420726f756e642066697273742062792073656c656360448201526b74696e672077696e6e65727360a01b6064820152608401610769565b600060175460145410611cbe57601554601454611c9d9190613312565b601654611caa91906132fb565b600454611cb791906132e8565b9050611d11565b6000601554601454611cd09190613312565b611cdb9060016132ab565b601654611ce891906132fb565b9050806004541115611d095780600454611d0291906132ab565b9150611d0f565b60135491505b505b6004819055600060148190556003839055601583905560178054849290611d399084906132ab565b9091555050600f546000818152600e60205260408120918255600180830186905560028301859055600383019190915560048201805462ffffff191682179055611d8290611721565b600f5460408051868152602081018690527fa809180f68c3ea85ec47001279a9070abd80a3022aa303b0fd92eb0e7538d42b910160405180910390a2600f8054906000611dce83613326565b919050555050505050565b6012546001600160a01b03163314611e235760405162461bcd60e51b815260206004820152600d60248201526c37b7363c9037b832b930ba37b960991b6044820152606401610769565b6000611e3182840184613367565b91505060008082806020019051810190611e4b9190613415565b9150915060008585604051611e61929190613498565b604051809103902090506000600d60008581526020019081526020016000205482149050600c8481548110611e9857611e98613262565b90600052602060002090602091828204019190069054906101000a900460ff16611f045760405162461bcd60e51b815260206004820152601c60248201527f726571756573742066756c66696c6c6564206f72206d697373696e67000000006044820152606401610769565b8015611fa95760408051602081018a905230918101919091524660608201526080810185905260a0016040516020818303038152906040528051906020012060001c9750611f53888585612c89565b6000600c8581548110611f6857611f68613262565b90600052602060002090602091828204019190066101000a81548160ff021916908315150217905550600d6000858152602001908152602001600020600090555b5050505050505050565b611fbe6105da612701565b156120045760405162461bcd60e51b815260206004820152601660248201527515da5b9b995c9cc818d85b9b9bdd0819195c1bdcda5d60521b6044820152606401610769565b600b546001600160a01b031661205c5760405162461bcd60e51b815260206004820152601d60248201527f5553444320636f6e74726163742061646472657373206e6f74207365740000006044820152606401610769565b6004548110156120a65760405162461bcd60e51b8152602060048201526015602482015274139bdd08195b9bdd59da08199d5b991cc81cd95b9d605a1b6044820152606401610769565b600b5481906001600160a01b031663dd62ed3e6120c1612701565b6040516001600160e01b031960e084901b1681526001600160a01b039091166004820152306024820152604401602060405180830381865afa15801561210b573d6000803e3d6000fd5b505050506040513d601f19601f8201168201806040525081019061212f91906134a8565b10156121765760405162461bcd60e51b8152602060048201526016602482015275496e73756666696369656e7420616c6c6f77616e636560501b6044820152606401610769565b600e60006001600f5461218991906132ab565b8152602081019190915260400160002060040154610100900460ff16156122045760405162461bcd60e51b815260206004820152602960248201527f596f752063616e2774206465706f73697420616674657220726f756e6420697360448201526808199a5b9a5cda195960ba1b6064820152608401610769565b600b546001600160a01b03166323b872dd61221d612701565b6040516001600160e01b031960e084901b1681526001600160a01b039091166004820152306024820152604481018490526064016020604051808303816000875af1158015612270573d6000803e3d6000fd5b505050506040513d601f19601f820116820180604052508101906122949190613278565b50600660006122a1612701565b6001600160a01b03166001600160a01b031681526020019081526020016000205460000361232857600e60006001600f546122dc91906132ab565b81526020019081526020016000206006016122f5612701565b81546001810183556000928352602090922090910180546001600160a01b0319166001600160a01b039092169190911790555b80600e60006001600f5461233c91906132ab565b81526020019081526020016000206005016000612357612701565b6001600160a01b03166001600160a01b03168152602001908152602001600020600082825461238691906132e8565b909155505060045481106123ad576001601460008282546123a791906132e8565b90915550505b806123b6612701565b6001600160a01b03167f21040858e63c11c046482f61f290bbe25972fc74b11b4570a01f9241082d21f160405160405180910390a350565b606060088054806020026020016040519081016040528092919081815260200182805480156114e6576020028201919060005260206000209081546001600160a01b031681526001909101906020018083116114c8575050505050905090565b6000600e60006001600f5461246391906132ab565b81526020019081526020016000206005016000836001600160a01b03166001600160a01b03168152602001908152602001600020549050919050565b6002546001600160a01b03166124b3612701565b6001600160a01b0316146124d95760405162461bcd60e51b815260040161076990613220565b600280546001600160a01b0319166001600160a01b0392909216919091179055565b612503612bdb565b6001600160a01b03811661252d57604051631e4fbdf760e01b815260006004820152602401610769565b610a6881612c39565b6000818152600e602090815260408083206001600160a01b03861684526005019091529020545b92915050565b6002546001600160a01b0316612577612701565b6001600160a01b03161461259d5760405162461bcd60e51b815260040161076990613220565b6001600f54116125e35760405162461bcd60e51b815260206004820152601160248201527014d95d1d5c08199a5c9cdd081c9bdd5b99607a1b6044820152606401610769565b42600e60006001600f546125f791906132ab565b81526020019081526020016000206001015411156126505760405162461bcd60e51b8152602060048201526016602482015275149bdd5b99081a5cc81b9bdd08195b991959081e595d60521b6044820152606401610769565b6001600e60006001600f5461266591906132ab565b815260200190815260200160002060040160016101000a81548160ff0219169083151502179055506126c1612698612701565b604080516001600160a01b03909216602083015201604051602081830303815290604052612d0d565b506126ca612701565b6001600160a01b03167fd802e7c7f1646e3318c03abed1e468bdf913f45331a68dc912a0d645eb646a4260405160405180910390a2565b600061270b612e10565b905090565b6001600160a01b038116600081815260076020526040808220805460ff1916600190811790915560088054918201815583527ff3f7a9fe364faab93b216da50a3214154f22a0a2b415b23a84c8169e8b636ee30180546001600160a01b03191684179055517f1d4c260f1824cd028e6c9e6e31c3a0b94f2513e7a641113ec759d382f9bdd5a19190a250565b6002546001600160a01b03166127b0612701565b6001600160a01b0316146127d65760405162461bcd60e51b815260040161076990613220565b6001600e60006001600f546127eb91906132ab565b81526020810191909152604001600020600401805462ff0000191662010000831515021790556128755760405162461bcd60e51b815260206004820152602f60248201527f57696e6e6572732077657265206e6f742073656c656374656420666f7220746860448201526e194818dd5c9c995b9d081c9bdd5b99608a1b6064820152608401610769565b6000600e60006001600f5461288a91906132ab565b815260200190815260200160002060060180549050905060008167ffffffffffffffff8111156128bc576128bc612fb2565b6040519080825280602002602001820160405280156128e5578160200160208202803683370190505b50905060005b8281101561297857600e60006001600f5461290691906132ab565b8152602001908152602001600020600601818154811061292857612928613262565b9060005260206000200160009054906101000a90046001600160a01b031682828151811061295857612958613262565b6001600160a01b03909216602092830291909101909101526001016128eb565b5060005b82811015612b6457600082828151811061299857612998613262565b602002602001015190506000600e60006001600f546129b791906132ab565b81526020019081526020016000206005016000836001600160a01b03166001600160a01b031681526020019081526020016000205490506000600e60006001600f54612a0391906132ab565b8152602080820192909252604090810160009081206001600160a01b0387168252600501835281812093909355600790915290205460ff1615612ae1576004548110612adc57600060045482612a5991906132ab565b90508015612ada57600b5460405163a9059cbb60e01b81526001600160a01b038581166004830152602482018490529091169063a9059cbb906044016020604051808303816000875af1158015612ab4573d6000803e3d6000fd5b505050506040513d601f19601f82011682018060405250810190612ad89190613278565b505b505b612b5a565b600b5460405163a9059cbb60e01b81526001600160a01b038481166004830152602482018490529091169063a9059cbb906044016020604051808303816000875af1158015612b34573d6000803e3d6000fd5b505050506040513d601f19601f82011682018060405250810190612b589190613278565b505b505060010161297c565b50600e60006001600f54612b7891906132ab565b81526020019081526020016000206006016000612b959190612eab565b6001600f54612ba491906132ab565b6040518381527f317089864e65885a61555a7fee05445baa7fc2159860ee96c70abda1d51d55df9060200160405180910390a25050565b612be3612701565b6001600160a01b0316612bfe6000546001600160a01b031690565b6001600160a01b03161461179a57612c14612701565b60405163118cdaa760e01b81526001600160a01b039091166004820152602401610769565b600080546001600160a01b038381166001600160a01b0319831681178455604051919092169283917f8be0079c531659141344cd1fd0a4f28419497f9722a3daafe3b4186f6b6457e09190a35050565b82600e60006001600f54612c9d91906132ab565b81526020019081526020016000206003018190555080806020019051810190612cc691906134c1565b6001600160a01b03167fe85d009f8a44a1484b05949bc6ffe0c555696e50510d74dc5d4588d9c0812a0184604051612d0091815260200190565b60405180910390a2505050565b600c8054600180820180845560008490529192909183908110612d3257612d32613262565b90600052602060002090602091828204019190066101000a81548160ff02191690831515021790555060008183604051602001612d709291906134de565b60405160208183030381529060405290506000612d8b612e54565b905060008183604051602001612da29291906134de565b60408051601f1981840301815282825280516020808301919091206000898152600d9092529290208290559250907fd91fc3685b930310b008ec37d2334870cab88a023ed8cc628a2e2ccd4e55d20290612dff90859087906134de565b60405180910390a150505050919050565b60007f00000000000000000000000000000000000000000000000000000000000000006001600160a01b03163303612e4f575060131936013560601c90565b503390565b600080612e656364e62127426132ab565b90506000612e74600383613312565b612e7f9060016132e8565b905046600114612e9957612e948160016132e8565b612ea4565b612ea48160046132e8565b9250505090565b5080546000825590600052602060002090810190610a6891905b80821115612ed95760008155600101612ec5565b5090565b600060208284031215612eef57600080fd5b5035919050565b6001600160a01b0381168114610a6857600080fd5b8035612f1681612ef6565b919050565b600060208284031215612f2d57600080fd5b8135612f3881612ef6565b9392505050565b60008060408385031215612f5257600080fd5b8235612f5d81612ef6565b946020939093013593505050565b8015158114610a6857600080fd5b60008060408385031215612f8c57600080fd5b8235612f9781612ef6565b91506020830135612fa781612f6b565b809150509250929050565b634e487b7160e01b600052604160045260246000fd5b604051610140810167ffffffffffffffff81118282101715612fec57612fec612fb2565b60405290565b604051601f8201601f1916810167ffffffffffffffff8111828210171561301b5761301b612fb2565b604052919050565b6000610140828403121561303657600080fd5b61303e612fc8565b61304783612f0b565b815261305560208401612f0b565b602082015261306660408401612f0b565b6040820152606083013560608201526080830135608082015260a083013560a082015261309560c08401612f0b565b60c08201526130a660e08401612f0b565b60e08201526101006130b9818501612f0b565b908201526101206130cb848201612f0b565b908201529392505050565b6020808252825182820181905260009190848201906040850190845b818110156131175783516001600160a01b0316835292840192918401916001016130f2565b50909695505050505050565b60006020828403121561313557600080fd5b813560038110612f3857600080fd5b634e487b7160e01b600052602160045260246000fd5b602081016003831061317c57634e487b7160e01b600052602160045260246000fd5b91905290565b6000806040838503121561319557600080fd5b50508035926020909101359150565b6000806000604084860312156131b957600080fd5b83359250602084013567ffffffffffffffff808211156131d857600080fd5b818601915086601f8301126131ec57600080fd5b8135818111156131fb57600080fd5b87602082850101111561320d57600080fd5b6020830194508093505050509250925092565b60208082526022908201527f4f6e6c792073656c6c65722063616e2063616c6c20746869732066756e63746960408201526137b760f11b606082015260800190565b634e487b7160e01b600052603260045260246000fd5b60006020828403121561328a57600080fd5b8151612f3881612f6b565b634e487b7160e01b600052601160045260246000fd5b8181038181111561255d5761255d613295565b634e487b7160e01b600052601260045260246000fd5b6000826132e3576132e36132be565b500690565b8082018082111561255d5761255d613295565b808202811582820484141761255d5761255d613295565b600082613321576133216132be565b500490565b60006001820161333857613338613295565b5060010190565b600067ffffffffffffffff82111561335957613359612fb2565b50601f01601f191660200190565b6000806040838503121561337a57600080fd5b82359150602083013567ffffffffffffffff81111561339857600080fd5b8301601f810185136133a957600080fd5b80356133bc6133b78261333f565b612ff2565b8181528660208385010111156133d157600080fd5b816020840160208301376000602083830101528093505050509250929050565b60005b8381101561340c5781810151838201526020016133f4565b50506000910152565b6000806040838503121561342857600080fd5b82519150602083015167ffffffffffffffff81111561344657600080fd5b8301601f8101851361345757600080fd5b80516134656133b78261333f565b81815286602083850101111561347a57600080fd5b61348b8260208301602086016133f1565b8093505050509250929050565b8183823760009101908152919050565b6000602082840312156134ba57600080fd5b5051919050565b6000602082840312156134d357600080fd5b8151612f3881612ef6565b82815260406020820152600082518060408401526135038160608501602087016133f1565b601f01601f191691909101606001939250505056fea26469706673582212202354e90c3b728532b74c61fb48337e5dad258e1127ecfc25348545e24b36be8a64736f6c63430008190033","linkReferences":{}},"methodIdentifiers":{"buyerWithdraw()":"7cc947d0","changeLotteryState(uint8)":"683e93e1","deposit(uint256)":"b6b55f25","deposits(address)":"fc7e286d","endLottery()":"1593a8c7","fulfillRandomness(uint256,bytes)":"b3f6b99a","getDepositedAmount(address)":"e9081ec7","getDepositedAmountForRound(address,uint256)":"f56542d6","getParticipants()":"5aa68ac0","getParticipantsForRound(uint256)":"80d58442","getWinners()":"df15c37e","hasMinted(address)":"38e21cce","increasePriceStep()":"96efac7b","initialPrice()":"1d0806ae","initialize((address,address,address,uint256,uint256,uint256,address,address,address,address))":"56d7c73a","isTrustedForwarder(address)":"572b6c05","isWinner(address)":"9d9ca28d","lotteryState()":"6939864b","lotteryV2Addr()":"7de13382","mintMyNFT()":"26170480","multisigWalletAddress()":"a61fb2ba","nftContractAddr()":"2c23ec8e","numberOfTickets()":"45745c10","operatorAddr()":"f3f18c37","operators(address)":"13e7c9d8","owner()":"8da5cb5b","prevRoundDeposits()":"b680e44b","prevRoundTicketsAmount()":"224f91bd","renounceOwnership()":"715018a6","requestPending(uint256)":"75ce7fff","requestRandomness()":"f8413b07","requestedHash(uint256)":"c4f8f27b","roundCounter()":"febc14b1","rounds(uint256)":"8c65c81f","selectWinners()":"1a0de74c","seller()":"08551a53","sellerWithdraw()":"66af746b","setOperator(address,bool)":"558a7297","setSeller(address)":"e99d2866","setupNewRound(uint256,uint256)":"a4f03c02","startLottery()":"160344e2","ticketPrice()":"1209b1f6","totalNumberOfTickets()":"00746702","transferDeposit(address,uint256)":"50f3dbec","transferNonWinnerBids(address)":"1630a8df","transferOwnership(address)":"f2fde38b","usdcContractAddr()":"99dbf4b5","winnerAddresses(uint256)":"045f9c97","winners(address)":"6bd5450a"},"id":50}