{
  "abi": [
    {
      "type": "function",
      "name": "buyerWithdraw",
      "inputs": [],
      "outputs": [],
      "stateMutability": "nonpayable"
    },
    {
      "type": "function",
      "name": "changeLotteryState",
      "inputs": [
        {
          "name": "_newState",
          "type": "uint8",
          "internalType": "enum AuctionV1Base.LotteryState"
        }
      ],
      "outputs": [],
      "stateMutability": "nonpayable"
    },
    {
      "type": "function",
      "name": "currentPrice",
      "inputs": [],
      "outputs": [
        {
          "name": "",
          "type": "uint256",
          "internalType": "uint256"
        }
      ],
      "stateMutability": "view"
    },
    {
      "type": "function",
      "name": "deposit",
      "inputs": [
        {
          "name": "amount",
          "type": "uint256",
          "internalType": "uint256"
        }
      ],
      "outputs": [],
      "stateMutability": "payable"
    },
    {
      "type": "function",
      "name": "deposits",
      "inputs": [
        {
          "name": "",
          "type": "address",
          "internalType": "address"
        }
      ],
      "outputs": [
        {
          "name": "",
          "type": "uint256",
          "internalType": "uint256"
        }
      ],
      "stateMutability": "view"
    },
    {
      "type": "function",
      "name": "eligibleParticipants",
      "inputs": [
        {
          "name": "",
          "type": "uint256",
          "internalType": "uint256"
        }
      ],
      "outputs": [
        {
          "name": "",
          "type": "address",
          "internalType": "address"
        }
      ],
      "stateMutability": "view"
    },
    {
      "type": "function",
      "name": "endLottery",
      "inputs": [],
      "outputs": [],
      "stateMutability": "nonpayable"
    },
    {
      "type": "function",
      "name": "finishAt",
      "inputs": [],
      "outputs": [
        {
          "name": "",
          "type": "uint256",
          "internalType": "uint256"
        }
      ],
      "stateMutability": "view"
    },
    {
      "type": "function",
      "name": "fulfillRandomness",
      "inputs": [
        {
          "name": "randomness",
          "type": "uint256",
          "internalType": "uint256"
        },
        {
          "name": "dataWithRound",
          "type": "bytes",
          "internalType": "bytes"
        }
      ],
      "outputs": [],
      "stateMutability": "nonpayable"
    },
    {
      "type": "function",
      "name": "getDepositedAmount",
      "inputs": [
        {
          "name": "participant",
          "type": "address",
          "internalType": "address"
        }
      ],
      "outputs": [
        {
          "name": "",
          "type": "uint256",
          "internalType": "uint256"
        }
      ],
      "stateMutability": "view"
    },
    {
      "type": "function",
      "name": "getEligibleParticipants",
      "inputs": [],
      "outputs": [
        {
          "name": "",
          "type": "address[]",
          "internalType": "address[]"
        }
      ],
      "stateMutability": "view"
    },
    {
      "type": "function",
      "name": "getParticipants",
      "inputs": [],
      "outputs": [
        {
          "name": "",
          "type": "address[]",
          "internalType": "address[]"
        }
      ],
      "stateMutability": "view"
    },
    {
      "type": "function",
      "name": "getRandomNumber",
      "inputs": [],
      "outputs": [
        {
          "name": "",
          "type": "uint256",
          "internalType": "uint256"
        }
      ],
      "stateMutability": "view"
    },
    {
      "type": "function",
      "name": "getWinners",
      "inputs": [],
      "outputs": [
        {
          "name": "",
          "type": "address[]",
          "internalType": "address[]"
        }
      ],
      "stateMutability": "view"
    },
    {
      "type": "function",
      "name": "hasMinted",
      "inputs": [
        {
          "name": "",
          "type": "address",
          "internalType": "address"
        }
      ],
      "outputs": [
        {
          "name": "",
          "type": "bool",
          "internalType": "bool"
        }
      ],
      "stateMutability": "view"
    },
    {
      "type": "function",
      "name": "increasePriceStep",
      "inputs": [],
      "outputs": [
        {
          "name": "",
          "type": "uint256",
          "internalType": "uint256"
        }
      ],
      "stateMutability": "view"
    },
    {
      "type": "function",
      "name": "initialPrice",
      "inputs": [],
      "outputs": [
        {
          "name": "",
          "type": "uint256",
          "internalType": "uint256"
        }
      ],
      "stateMutability": "view"
    },
    {
      "type": "function",
      "name": "initialize",
      "inputs": [
        {
          "name": "config",
          "type": "tuple",
          "internalType": "struct StructsLibrary.ILotteryBaseConfig",
          "components": [
            {
              "name": "_seller",
              "type": "address",
              "internalType": "address"
            },
            {
              "name": "_gelatoVrfOperator",
              "type": "address",
              "internalType": "address"
            },
            {
              "name": "_blessedOperator",
              "type": "address",
              "internalType": "address"
            },
            {
              "name": "_owner",
              "type": "address",
              "internalType": "address"
            },
            {
              "name": "_ticketAmount",
              "type": "uint256",
              "internalType": "uint256"
            },
            {
              "name": "_ticketPrice",
              "type": "uint256",
              "internalType": "uint256"
            },
            {
              "name": "_finishAt",
              "type": "uint256",
              "internalType": "uint256"
            },
            {
              "name": "_usdcContractAddr",
              "type": "address",
              "internalType": "address"
            },
            {
              "name": "_multisigWalletAddress",
              "type": "address",
              "internalType": "address"
            },
            {
              "name": "_prevPhaseContractAddr",
              "type": "address",
              "internalType": "address"
            }
          ]
        }
      ],
      "outputs": [],
      "stateMutability": "nonpayable"
    },
    {
      "type": "function",
      "name": "initialized",
      "inputs": [],
      "outputs": [
        {
          "name": "",
          "type": "bool",
          "internalType": "bool"
        }
      ],
      "stateMutability": "view"
    },
    {
      "type": "function",
      "name": "isParticipantEligible",
      "inputs": [
        {
          "name": "participant",
          "type": "address",
          "internalType": "address"
        }
      ],
      "outputs": [
        {
          "name": "",
          "type": "bool",
          "internalType": "bool"
        }
      ],
      "stateMutability": "view"
    },
    {
      "type": "function",
      "name": "isTrustedForwarder",
      "inputs": [
        {
          "name": "forwarder",
          "type": "address",
          "internalType": "address"
        }
      ],
      "outputs": [
        {
          "name": "",
          "type": "bool",
          "internalType": "bool"
        }
      ],
      "stateMutability": "view"
    },
    {
      "type": "function",
      "name": "isWinner",
      "inputs": [
        {
          "name": "_participant",
          "type": "address",
          "internalType": "address"
        }
      ],
      "outputs": [
        {
          "name": "",
          "type": "bool",
          "internalType": "bool"
        }
      ],
      "stateMutability": "view"
    },
    {
      "type": "function",
      "name": "lotteryState",
      "inputs": [],
      "outputs": [
        {
          "name": "",
          "type": "uint8",
          "internalType": "enum AuctionV1Base.LotteryState"
        }
      ],
      "stateMutability": "view"
    },
    {
      "type": "function",
      "name": "lotteryV2Addr",
      "inputs": [],
      "outputs": [
        {
          "name": "",
          "type": "address",
          "internalType": "address"
        }
      ],
      "stateMutability": "view"
    },
    {
      "type": "function",
      "name": "minimumDepositAmount",
      "inputs": [],
      "outputs": [
        {
          "name": "",
          "type": "uint256",
          "internalType": "uint256"
        }
      ],
      "stateMutability": "view"
    },
    {
      "type": "function",
      "name": "mintMyNFT",
      "inputs": [],
      "outputs": [],
      "stateMutability": "nonpayable"
    },
    {
      "type": "function",
      "name": "multisigWalletAddress",
      "inputs": [],
      "outputs": [
        {
          "name": "",
          "type": "address",
          "internalType": "address"
        }
      ],
      "stateMutability": "view"
    },
    {
      "type": "function",
      "name": "nftContractAddr",
      "inputs": [],
      "outputs": [
        {
          "name": "",
          "type": "address",
          "internalType": "address"
        }
      ],
      "stateMutability": "view"
    },
    {
      "type": "function",
      "name": "numberOfTickets",
      "inputs": [],
      "outputs": [
        {
          "name": "",
          "type": "uint256",
          "internalType": "uint256"
        }
      ],
      "stateMutability": "view"
    },
    {
      "type": "function",
      "name": "operatorAddr",
      "inputs": [],
      "outputs": [
        {
          "name": "",
          "type": "address",
          "internalType": "address"
        }
      ],
      "stateMutability": "view"
    },
    {
      "type": "function",
      "name": "operators",
      "inputs": [
        {
          "name": "",
          "type": "address",
          "internalType": "address"
        }
      ],
      "outputs": [
        {
          "name": "",
          "type": "bool",
          "internalType": "bool"
        }
      ],
      "stateMutability": "view"
    },
    {
      "type": "function",
      "name": "owner",
      "inputs": [],
      "outputs": [
        {
          "name": "",
          "type": "address",
          "internalType": "address"
        }
      ],
      "stateMutability": "view"
    },
    {
      "type": "function",
      "name": "prevRoundDeposits",
      "inputs": [],
      "outputs": [
        {
          "name": "",
          "type": "uint256",
          "internalType": "uint256"
        }
      ],
      "stateMutability": "view"
    },
    {
      "type": "function",
      "name": "prevRoundTicketsAmount",
      "inputs": [],
      "outputs": [
        {
          "name": "",
          "type": "uint256",
          "internalType": "uint256"
        }
      ],
      "stateMutability": "view"
    },
    {
      "type": "function",
      "name": "randomNumber",
      "inputs": [],
      "outputs": [
        {
          "name": "",
          "type": "uint256",
          "internalType": "uint256"
        }
      ],
      "stateMutability": "view"
    },
    {
      "type": "function",
      "name": "renounceOwnership",
      "inputs": [],
      "outputs": [],
      "stateMutability": "nonpayable"
    },
    {
      "type": "function",
      "name": "requestPending",
      "inputs": [
        {
          "name": "",
          "type": "uint256",
          "internalType": "uint256"
        }
      ],
      "outputs": [
        {
          "name": "",
          "type": "bool",
          "internalType": "bool"
        }
      ],
      "stateMutability": "view"
    },
    {
      "type": "function",
      "name": "requestRandomness",
      "inputs": [],
      "outputs": [],
      "stateMutability": "nonpayable"
    },
    {
      "type": "function",
      "name": "requestedHash",
      "inputs": [
        {
          "name": "",
          "type": "uint256",
          "internalType": "uint256"
        }
      ],
      "outputs": [
        {
          "name": "",
          "type": "bytes32",
          "internalType": "bytes32"
        }
      ],
      "stateMutability": "view"
    },
    {
      "type": "function",
      "name": "roundCounter",
      "inputs": [],
      "outputs": [
        {
          "name": "",
          "type": "uint256",
          "internalType": "uint256"
        }
      ],
      "stateMutability": "view"
    },
    {
      "type": "function",
      "name": "rounds",
      "inputs": [
        {
          "name": "",
          "type": "uint256",
          "internalType": "uint256"
        }
      ],
      "outputs": [
        {
          "name": "number",
          "type": "uint256",
          "internalType": "uint256"
        },
        {
          "name": "finishAt",
          "type": "uint256",
          "internalType": "uint256"
        },
        {
          "name": "numberOfTickets",
          "type": "uint256",
          "internalType": "uint256"
        },
        {
          "name": "lotteryStarted",
          "type": "bool",
          "internalType": "bool"
        },
        {
          "name": "winnersSelected",
          "type": "bool",
          "internalType": "bool"
        }
      ],
      "stateMutability": "view"
    },
    {
      "type": "function",
      "name": "selectWinners",
      "inputs": [],
      "outputs": [],
      "stateMutability": "nonpayable"
    },
    {
      "type": "function",
      "name": "seller",
      "inputs": [],
      "outputs": [
        {
          "name": "",
          "type": "address",
          "internalType": "address"
        }
      ],
      "stateMutability": "view"
    },
    {
      "type": "function",
      "name": "sellerWithdraw",
      "inputs": [],
      "outputs": [],
      "stateMutability": "nonpayable"
    },
    {
      "type": "function",
      "name": "setCurrentPrice",
      "inputs": [
        {
          "name": "_amount",
          "type": "uint256",
          "internalType": "uint256"
        }
      ],
      "outputs": [],
      "stateMutability": "nonpayable"
    },
    {
      "type": "function",
      "name": "setFinishAt",
      "inputs": [
        {
          "name": "_finishAt",
          "type": "uint256",
          "internalType": "uint256"
        }
      ],
      "outputs": [],
      "stateMutability": "nonpayable"
    },
    {
      "type": "function",
      "name": "setLotteryV2Addr",
      "inputs": [
        {
          "name": "_lotteryV2Addr",
          "type": "address",
          "internalType": "address"
        }
      ],
      "outputs": [],
      "stateMutability": "nonpayable"
    },
    {
      "type": "function",
      "name": "setMultisigWalletAddress",
      "inputs": [
        {
          "name": "_multisigWalletAddress",
          "type": "address",
          "internalType": "address"
        }
      ],
      "outputs": [],
      "stateMutability": "nonpayable"
    },
    {
      "type": "function",
      "name": "setNftContractAddr",
      "inputs": [
        {
          "name": "_nftContractAddr",
          "type": "address",
          "internalType": "address"
        }
      ],
      "outputs": [],
      "stateMutability": "nonpayable"
    },
    {
      "type": "function",
      "name": "setNumberOfTickets",
      "inputs": [
        {
          "name": "_numberOfTickets",
          "type": "uint256",
          "internalType": "uint256"
        }
      ],
      "outputs": [],
      "stateMutability": "nonpayable"
    },
    {
      "type": "function",
      "name": "setOperator",
      "inputs": [
        {
          "name": "_operatorAddr",
          "type": "address",
          "internalType": "address"
        },
        {
          "name": "_flag",
          "type": "bool",
          "internalType": "bool"
        }
      ],
      "outputs": [],
      "stateMutability": "nonpayable"
    },
    {
      "type": "function",
      "name": "setPriceStep",
      "inputs": [
        {
          "name": "_increasePriceStep",
          "type": "uint256",
          "internalType": "uint256"
        }
      ],
      "outputs": [],
      "stateMutability": "nonpayable"
    },
    {
      "type": "function",
      "name": "setSeller",
      "inputs": [
        {
          "name": "_seller",
          "type": "address",
          "internalType": "address"
        }
      ],
      "outputs": [],
      "stateMutability": "nonpayable"
    },
    {
      "type": "function",
      "name": "setUsdcContractAddr",
      "inputs": [
        {
          "name": "_usdcContractAddr",
          "type": "address",
          "internalType": "address"
        }
      ],
      "outputs": [],
      "stateMutability": "nonpayable"
    },
    {
      "type": "function",
      "name": "setWinner",
      "inputs": [
        {
          "name": "_winner",
          "type": "address",
          "internalType": "address"
        }
      ],
      "outputs": [],
      "stateMutability": "nonpayable"
    },
    {
      "type": "function",
      "name": "setupNewRound",
      "inputs": [
        {
          "name": "_finishAt",
          "type": "uint256",
          "internalType": "uint256"
        },
        {
          "name": "_numberOfTickets",
          "type": "uint256",
          "internalType": "uint256"
        }
      ],
      "outputs": [],
      "stateMutability": "nonpayable"
    },
    {
      "type": "function",
      "name": "startLottery",
      "inputs": [],
      "outputs": [],
      "stateMutability": "nonpayable"
    },
    {
      "type": "function",
      "name": "totalNumberOfTickets",
      "inputs": [],
      "outputs": [
        {
          "name": "",
          "type": "uint256",
          "internalType": "uint256"
        }
      ],
      "stateMutability": "view"
    },
    {
      "type": "function",
      "name": "transferDeposit",
      "inputs": [
        {
          "name": "_participant",
          "type": "address",
          "internalType": "address"
        },
        {
          "name": "_amount",
          "type": "uint256",
          "internalType": "uint256"
        }
      ],
      "outputs": [],
      "stateMutability": "nonpayable"
    },
    {
      "type": "function",
      "name": "transferNonWinnerBids",
      "inputs": [
        {
          "name": "destinationAddr",
          "type": "address",
          "internalType": "address"
        }
      ],
      "outputs": [],
      "stateMutability": "nonpayable"
    },
    {
      "type": "function",
      "name": "transferOwnership",
      "inputs": [
        {
          "name": "newOwner",
          "type": "address",
          "internalType": "address"
        }
      ],
      "outputs": [],
      "stateMutability": "nonpayable"
    },
    {
      "type": "function",
      "name": "usdcContractAddr",
      "inputs": [],
      "outputs": [
        {
          "name": "",
          "type": "address",
          "internalType": "address"
        }
      ],
      "stateMutability": "view"
    },
    {
      "type": "function",
      "name": "winnerAddresses",
      "inputs": [
        {
          "name": "",
          "type": "uint256",
          "internalType": "uint256"
        }
      ],
      "outputs": [
        {
          "name": "",
          "type": "address",
          "internalType": "address"
        }
      ],
      "stateMutability": "view"
    },
    {
      "type": "function",
      "name": "winners",
      "inputs": [
        {
          "name": "",
          "type": "address",
          "internalType": "address"
        }
      ],
      "outputs": [
        {
          "name": "",
          "type": "bool",
          "internalType": "bool"
        }
      ],
      "stateMutability": "view"
    },
    {
      "type": "event",
      "name": "LotteryEnded",
      "inputs": [],
      "anonymous": false
    },
    {
      "type": "event",
      "name": "LotteryStarted",
      "inputs": [],
      "anonymous": false
    },
    {
      "type": "event",
      "name": "OwnershipTransferred",
      "inputs": [
        {
          "name": "previousOwner",
          "type": "address",
          "indexed": true,
          "internalType": "address"
        },
        {
          "name": "newOwner",
          "type": "address",
          "indexed": true,
          "internalType": "address"
        }
      ],
      "anonymous": false
    },
    {
      "type": "event",
      "name": "RandomFullfiled",
      "inputs": [
        {
          "name": "number",
          "type": "uint256",
          "indexed": false,
          "internalType": "uint256"
        }
      ],
      "anonymous": false
    },
    {
      "type": "event",
      "name": "RandomRequested",
      "inputs": [
        {
          "name": "requester",
          "type": "address",
          "indexed": true,
          "internalType": "address"
        }
      ],
      "anonymous": false
    },
    {
      "type": "event",
      "name": "RequestedRandomness",
      "inputs": [
        {
          "name": "round",
          "type": "uint256",
          "indexed": false,
          "internalType": "uint256"
        },
        {
          "name": "data",
          "type": "bytes",
          "indexed": false,
          "internalType": "bytes"
        }
      ],
      "anonymous": false
    },
    {
      "type": "event",
      "name": "WinnerSelected",
      "inputs": [
        {
          "name": "winner",
          "type": "address",
          "indexed": true,
          "internalType": "address"
        }
      ],
      "anonymous": false
    },
    {
      "type": "error",
      "name": "OwnableInvalidOwner",
      "inputs": [
        {
          "name": "owner",
          "type": "address",
          "internalType": "address"
        }
      ]
    },
    {
      "type": "error",
      "name": "OwnableUnauthorizedAccount",
      "inputs": [
        {
          "name": "account",
          "type": "address",
          "internalType": "address"
        }
      ]
    }
  ],
  "bytecode": {
    "object": "0x60a06040526002805460ff60a01b1916905560016009819055600a556005600b5534801561002c57600080fd5b5073d8253782c45a12053594b9deb72d8e8ab2fca54c338061006857604051631e4fbdf760e01b81526000600482015260240160405180910390fd5b61007181610083565b506001600160a01b03166080526100d5565b600280546001600160a01b038381166001600160a01b0319831681179093556040519116919082907f8be0079c531659141344cd1fd0a4f28419497f9722a3daafe3b4186f6b6457e090600090a35050565b60805161369e6100f7600039600081816106c40152612f30015261369e6000f3fe6080604052600436106103c25760003560e01c806375ce7fff116101f2578063b3f6b99a1161010d578063df15c37e116100a0578063f3f18c371161006f578063f3f18c3714610ba7578063f8413b0714610bc7578063fc7e286d14610bdc578063febc14b114610c0957600080fd5b8063df15c37e14610b1c578063e9081ec714610b31578063e99d286614610b67578063f2fde38b14610b8757600080fd5b8063c4f8f27b116100dc578063c4f8f27b14610aa4578063ccbac9f514610ad1578063d9fca76914610ae7578063dbdff2c114610b0757600080fd5b8063b3f6b99a14610a3b578063b680e44b14610a5b578063b6b55f2514610a71578063b7a62e2414610a8457600080fd5b806399bd69d6116101855780639d9ca28d116101545780639d9ca28d146109a2578063a4f03c02146109db578063a61fb2ba146109fb578063af94862c14610a1b57600080fd5b806399bd69d61461093757806399dbf4b5146109575780639abdccd1146109775780639d1b464a1461098c57600080fd5b80638c65c81f116101c15780638c65c81f146108695780638da5cb5b146108e357806394d898de1461090157806396efac7b1461092157600080fd5b806375ce7fff146107f45780637cc947d0146108145780637de13382146108295780638a6723e61461084957600080fd5b80633639eb2e116102e25780635aa68ac011610275578063683e93e111610244578063683e93e1146107615780636939864b146107815780636bd5450a146107af578063715018a6146107df57600080fd5b80635aa68ac0146106f457806360d50da31461071657806366af746b1461073657806367d3b4881461074b57600080fd5b80634a0a5ce9116102b15780634a0a5ce91461064757806350f3dbec14610667578063558a729714610687578063572b6c05146106a757600080fd5b80633639eb2e146105c15780633644c27c146105e157806338e21cce1461060157806345745c101461063157600080fd5b8063160344e21161035a5780631d0806ae116103295780631d0806ae14610560578063224f91bd14610576578063261704801461058c5780632c23ec8e146105a157600080fd5b8063160344e2146104f65780631630a8df1461050b57806318b200711461052b5780631a0de74c1461054b57600080fd5b80630bea6637116103965780630bea66371461045e57806313e7c9d814610480578063158ef93e146104c05780631593a8c7146104e157600080fd5b8062746702146103c7578063045f9c97146103f0578063080c279a1461042857806308551a531461043e575b600080fd5b3480156103d357600080fd5b506103dd600d5481565b6040519081526020015b60405180910390f35b3480156103fc57600080fd5b5061041061040b366004612ff9565b610c1f565b6040516001600160a01b0390911681526020016103e7565b34801561043457600080fd5b506103dd60065481565b34801561044a57600080fd5b50600454610410906001600160a01b031681565b34801561046a57600080fd5b5061047e610479366004612ff9565b610c49565b005b34801561048c57600080fd5b506104b061049b36600461302e565b60156020526000908152604090205460ff1681565b60405190151581526020016103e7565b3480156104cc57600080fd5b506002546104b090600160a01b900460ff1681565b3480156104ed57600080fd5b5061047e610ce6565b34801561050257600080fd5b5061047e610d2c565b34801561051757600080fd5b5061047e61052636600461302e565b610e2d565b34801561053757600080fd5b5061047e610546366004612ff9565b6110ca565b34801561055757600080fd5b5061047e611119565b34801561056c57600080fd5b506103dd60085481565b34801561058257600080fd5b506103dd600a5481565b34801561059857600080fd5b5061047e61159b565b3480156105ad57600080fd5b50601854610410906001600160a01b031681565b3480156105cd57600080fd5b5061047e6105dc36600461302e565b611767565b3480156105ed57600080fd5b5061047e6105fc36600461302e565b6117c3565b34801561060d57600080fd5b506104b061061c36600461302e565b60106020526000908152604090205460ff1681565b34801561063d57600080fd5b506103dd600c5481565b34801561065357600080fd5b5061047e6106623660046130c1565b6117ed565b34801561067357600080fd5b5061047e610682366004613174565b611910565b34801561069357600080fd5b5061047e6106a23660046131ac565b611a50565b3480156106b357600080fd5b506104b06106c236600461302e565b7f00000000000000000000000000000000000000000000000000000000000000006001600160a01b0390811691161490565b34801561070057600080fd5b50610709611a83565b6040516103e791906131e3565b34801561072257600080fd5b5061047e61073136600461302e565b611ae5565b34801561074257600080fd5b5061047e611b0f565b34801561075757600080fd5b506103dd601b5481565b34801561076d57600080fd5b5061047e61077c366004613230565b611d43565b34801561078d57600080fd5b506002546107a290600160a81b900460ff1681565b6040516103e79190613267565b3480156107bb57600080fd5b506104b06107ca36600461302e565b60146020526000908152604090205460ff1681565b3480156107eb57600080fd5b5061047e611daa565b34801561080057600080fd5b506104b061080f366004612ff9565b611dbc565b34801561082057600080fd5b5061047e611df0565b34801561083557600080fd5b50601a54610410906001600160a01b031681565b34801561085557600080fd5b506104b061086436600461302e565b611ffa565b34801561087557600080fd5b506108b7610884366004612ff9565b60116020526000908152604090208054600182015460028301546003909301549192909160ff8082169161010090041685565b60408051958652602086019490945292840191909152151560608301521515608082015260a0016103e7565b3480156108ef57600080fd5b506002546001600160a01b0316610410565b34801561090d57600080fd5b5061047e61091c36600461302e565b612059565b34801561092d57600080fd5b506103dd600b5481565b34801561094357600080fd5b5061047e610952366004612ff9565b612083565b34801561096357600080fd5b50601954610410906001600160a01b031681565b34801561098357600080fd5b5061070961212b565b34801561099857600080fd5b506103dd60075481565b3480156109ae57600080fd5b506104b06109bd36600461302e565b6001600160a01b031660009081526014602052604090205460ff1690565b3480156109e757600080fd5b5061047e6109f636600461328f565b61218b565b348015610a0757600080fd5b50600354610410906001600160a01b031681565b348015610a2757600080fd5b5061047e610a36366004612ff9565b6123fa565b348015610a4757600080fd5b5061047e610a563660046132b1565b612439565b348015610a6757600080fd5b506103dd60095481565b61047e610a7f366004612ff9565b61260d565b348015610a9057600080fd5b50610410610a9f366004612ff9565b612981565b348015610ab057600080fd5b506103dd610abf366004612ff9565b60016020526000908152604090205481565b348015610add57600080fd5b506103dd600e5481565b348015610af357600080fd5b5061047e610b0236600461302e565b612991565b348015610b1357600080fd5b506103dd612a31565b348015610b2857600080fd5b50610709612a88565b348015610b3d57600080fd5b506103dd610b4c36600461302e565b6001600160a01b031660009081526013602052604090205490565b348015610b7357600080fd5b5061047e610b8236600461302e565b612ae8565b348015610b9357600080fd5b5061047e610ba236600461302e565b612b44565b348015610bb357600080fd5b50600554610410906001600160a01b031681565b348015610bd357600080fd5b5061047e612b82565b348015610be857600080fd5b506103dd610bf736600461302e565b60136020526000908152604090205481565b348015610c1557600080fd5b506103dd60125481565b60168181548110610c2f57600080fd5b6000918252602090912001546001600160a01b0316905081565b6004546001600160a01b0316610c5d612c30565b6001600160a01b03161480610c8c57506002546001600160a01b0316610c81612c30565b6001600160a01b0316145b80610cbc575060156000610c9e612c30565b6001600160a01b0316815260208101919091526040016000205460ff165b610ce15760405162461bcd60e51b8152600401610cd89061332d565b60405180910390fd5b601b55565b6004546001600160a01b0316610cfa612c30565b6001600160a01b031614610d205760405162461bcd60e51b8152600401610cd890613371565b610d2a6002611d43565b565b6004546001600160a01b0316610d40612c30565b6001600160a01b031614610d665760405162461bcd60e51b8152600401610cd890613371565b6000600254600160a81b900460ff166004811115610d8657610d86613251565b1480610dae575060028054600160a81b900460ff166004811115610dac57610dac613251565b145b610dfa5760405162461bcd60e51b815260206004820152601a60248201527f4c6f747465727920697320696e206163746976652073746174650000000000006044820152606401610cd8565b610e046001611d43565b610e0c612c3f565b6012546000908152601160205260409020600301805460ff19166001179055565b6004546001600160a01b0316610e41612c30565b6001600160a01b031614610e675760405162461bcd60e51b8152600401610cd890613371565b60005b6017548110156110c65760006013600060178481548110610e8d57610e8d6133b3565b60009182526020808320909101546001600160a01b031683528201929092526040018120546017805491935060139183919086908110610ecf57610ecf6133b3565b6000918252602080832091909101546001600160a01b039081168452908301939093526040918201902092909255601954915163a9059cbb60e01b815285821660048201526024810184905291169063a9059cbb906044016020604051808303816000875af1158015610f46573d6000803e3d6000fd5b505050506040513d601f19601f82011682018060405250810190610f6a91906133c9565b50826001600160a01b03166350f3dbec60178481548110610f8d57610f8d6133b3565b60009182526020909120015460405160e083901b6001600160e01b03191681526001600160a01b03909116600482015260248101849052604401600060405180830381600087803b158015610fe157600080fd5b505af1158015610ff5573d6000803e3d6000fd5b50506017546110089250600191506133fc565b82101561108a576017805461101f906001906133fc565b8154811061102f5761102f6133b3565b600091825260209091200154601780546001600160a01b03909216918490811061105b5761105b6133b3565b9060005260206000200160006101000a8154816001600160a01b0302191690836001600160a01b031602179055505b601780548061109b5761109b613415565b600082815260209020810160001990810180546001600160a01b031916905501905550600101610e6a565b5050565b6004546001600160a01b03166110de612c30565b6001600160a01b0316146111045760405162461bcd60e51b8152600401610cd890613371565b6008546000036111145760088190555b600755565b6004546001600160a01b031661112d612c30565b6001600160a01b0316146111535760405162461bcd60e51b8152600401610cd890613371565b6000600c54116111a55760405162461bcd60e51b815260206004820152601b60248201527f4e6f207469636b657473206c65667420746f20616c6c6f6361746500000000006044820152606401610cd8565b6111af6001611d43565b6111b7612c3f565b600f54600c541061127f5760005b600f54811015611268576000600f82815481106111e4576111e46133b3565b6000918252602090912001546001600160a01b0316905061121d816001600160a01b031660009081526014602052604090205460ff1690565b61125f5761122a81612991565b6040516001600160a01b038216907f1d4c260f1824cd028e6c9e6e31c3a0b94f2513e7a641113ec759d382f9bdd5a190600090a25b506001016111c5565b50611275600f6000612fc7565b6000600c55611520565b60005b600f5481101561139a57600f5460009061129d9083906133fc565b600e546112aa9190613441565b6112b49083613455565b90506000600f82815481106112cb576112cb6133b3565b600091825260209091200154600f80546001600160a01b03909216925090849081106112f9576112f96133b3565b600091825260209091200154600f80546001600160a01b039092169184908110611325576113256133b3565b9060005260206000200160006101000a8154816001600160a01b0302191690836001600160a01b0316021790555080600f8481548110611367576113676133b3565b600091825260209091200180546001600160a01b0319166001600160a01b03929092169190911790555050600101611282565b5060005b600c54811015611441576000600f82815481106113bd576113bd6133b3565b6000918252602090912001546001600160a01b031690506113f6816001600160a01b031660009081526014602052604090205460ff1690565b6114385761140381612991565b6040516001600160a01b038216907f1d4c260f1824cd028e6c9e6e31c3a0b94f2513e7a641113ec759d382f9bdd5a190600090a25b5060010161139e565b50600c546000905b600f548110156114d057600f8181548110611466576114666133b3565b600091825260209091200154600f80546001600160a01b039092169184908110611492576114926133b3565b600091825260209091200180546001600160a01b0319166001600160a01b0392909216919091179055816114c581613468565b925050600101611449565b50805b600f5481101561151857600f8054806114ee576114ee613415565b600082815260209020810160001990810180546001600160a01b03191690550190556001016114d3565b50506000600c555b600d54600003611554576040517f9c89a6ed7228533196a3f962acc80d61a9c53bdea6b910741bf754f5aaa7569e90600090a15b600160116000600160125461156991906133fc565b815260200190815260200160002060030160016101000a81548160ff021916908315150217905550610d2a6000611d43565b601060006115a7612c30565b6001600160a01b0316815260208101919091526040016000205460ff16156116065760405162461bcd60e51b815260206004820152601260248201527113919508185b1c9958591e481b5a5b9d195960721b6044820152606401610cd8565b60028054600160a81b900460ff16600481111561162557611625613251565b146116725760405162461bcd60e51b815260206004820152601860248201527f4c6f7474657279206973206e6f7420656e6465642079657400000000000000006044820152606401610cd8565b61167d6109bd612c30565b6116c25760405162461bcd60e51b815260206004820152601660248201527521b0b63632b91034b9903737ba1030903bb4b73732b960511b6044820152606401610cd8565b6001601060006116d0612c30565b6001600160a01b0390811682526020820192909252604001600020805460ff19169215159290921790915560185416636b8f60f661170c612c30565b6040516001600160e01b031960e084901b1681526001600160a01b039091166004820152602401600060405180830381600087803b15801561174d57600080fd5b505af1158015611761573d6000803e3d6000fd5b50505050565b6004546001600160a01b031661177b612c30565b6001600160a01b0316146117a15760405162461bcd60e51b8152600401610cd890613371565b601a80546001600160a01b0319166001600160a01b0392909216919091179055565b6117cb612d3e565b601880546001600160a01b0319166001600160a01b0392909216919091179055565b600254600160a01b900460ff161561183d5760405162461bcd60e51b8152602060048201526013602482015272105b1c9958591e481a5b9a5d1a585b1a5e9959606a1b6044820152606401610cd8565b6040810151600480546001600160a01b039283166001600160a01b031991821617909155602083015160058054919093169116179055606081015161188190612d9c565b6080810151600d5560a0810151600c819055600a8190556006819055600781905560085560c0810151601b5560e0810151601980546001600160a01b03199081166001600160a01b039384161790915561010083015160038054831691841691909117905561012090920151601a8054909316911617905560028054600160a01b60ff60a01b19909116179055565b611918612c30565b601a546001600160a01b039081169116146119855760405162461bcd60e51b815260206004820152602760248201527f4f6e6c792077686974656c6973746564206d61792063616c6c207468697320666044820152663ab731ba34b7b760c91b6064820152608401610cd8565b60136000611991612c30565b6001600160a01b03166001600160a01b0316815260200190815260200160002054600003611a0557601780546001810182556000919091527fc624b66cc0138b8fabc209247f72d758e1cf3343756d543badbf24212bed8c150180546001600160a01b0319166001600160a01b0384161790555b6001600160a01b03821660009081526013602052604081208054839290611a2d908490613455565b92505081905550600160096000828254611a479190613455565b90915550505050565b611a58612d3e565b6001600160a01b03919091166000908152601560205260409020805460ff1916911515919091179055565b60606017805480602002602001604051908101604052809291908181526020018280548015611adb57602002820191906000526020600020905b81546001600160a01b03168152600190910190602001808311611abd575b5050505050905090565b611aed612d3e565b600380546001600160a01b0319166001600160a01b0392909216919091179055565b6004546001600160a01b0316611b23612c30565b6001600160a01b031614611b495760405162461bcd60e51b8152600401610cd890613371565b60028054600160a81b900460ff166004811115611b6857611b68613251565b14611ba95760405162461bcd60e51b8152602060048201526011602482015270131bdd1d195c9e481b9bdd08195b991959607a1b6044820152606401610cd8565b6000805b601654811015611c2257600060168281548110611bcc57611bcc6133b3565b60009182526020808320909101546001600160a01b03168083526013909152604090912054909150611bfe9084613455565b6001600160a01b039091166000908152601360205260408120559150600101611bad565b5060006064611c32836005613481565b611c3c9190613498565b90506000611c4a82846133fc565b60195460035460405163a9059cbb60e01b81526001600160a01b03918216600482015260248101869052929350169063a9059cbb906044016020604051808303816000875af1158015611ca1573d6000803e3d6000fd5b505050506040513d601f19601f82011682018060405250810190611cc591906133c9565b506019546004805460405163a9059cbb60e01b81526001600160a01b0391821692810192909252602482018490529091169063a9059cbb906044016020604051808303816000875af1158015611d1f573d6000803e3d6000fd5b505050506040513d601f19601f8201168201806040525081019061176191906133c9565b6004546001600160a01b0316611d57612c30565b6001600160a01b031614611d7d5760405162461bcd60e51b8152600401610cd890613371565b6002805482919060ff60a81b1916600160a81b836004811115611da257611da2613251565b021790555050565b611db2612d3e565b610d2a6000612d9c565b60008181548110611dcc57600080fd5b9060005260206000209060209182820401919006915054906101000a900460ff1681565b6001600254600160a81b900460ff166004811115611e1057611e10613251565b03611e5d5760405162461bcd60e51b815260206004820152601b60248201527f4c6f74746572792069732063757272656e746c792061637469766500000000006044820152606401610cd8565b60146000611e69612c30565b6001600160a01b0316815260208101919091526040016000205460ff1615611ed35760405162461bcd60e51b815260206004820152601760248201527f57696e6e6572732063616e6e6f742077697468647261770000000000000000006044820152606401610cd8565b600060136000611ee1612c30565b6001600160a01b03166001600160a01b0316815260200190815260200160002054905060008111611f4b5760405162461bcd60e51b81526020600482015260146024820152734e6f2066756e647320746f20776974686472617760601b6044820152606401610cd8565b600060136000611f59612c30565b6001600160a01b0390811682526020820192909252604001600020919091556019541663a9059cbb611f89612c30565b6040516001600160e01b031960e084901b1681526001600160a01b039091166004820152602481018490526044016020604051808303816000875af1158015611fd6573d6000803e3d6000fd5b505050506040513d601f19601f820116820180604052508101906110c691906133c9565b6000805b600f5481101561205057826001600160a01b0316600f8281548110612025576120256133b3565b6000918252602090912001546001600160a01b0316036120485750600192915050565b600101611ffe565b50600092915050565b612061612d3e565b601980546001600160a01b0319166001600160a01b0392909216919091179055565b6004546001600160a01b0316612097612c30565b6001600160a01b0316146120bd5760405162461bcd60e51b8152600401610cd890613371565b600081116121215760405162461bcd60e51b815260206004820152602b60248201527f4e756d626572206f66207469636b657473206d7573742062652067726561746560448201526a72207468616e207a65726f60a81b6064820152608401610cd8565b600c819055600a55565b6060600f805480602002602001604051908101604052809291908181526020018280548015611adb576020028201919060005260206000209081546001600160a01b03168152600190910190602001808311611abd575050505050905090565b6004546001600160a01b031661219f612c30565b6001600160a01b031614806121ce57506002546001600160a01b03166121c3612c30565b6001600160a01b0316145b806121fe5750601560006121e0612c30565b6001600160a01b0316815260208101919091526040016000205460ff165b61221a5760405162461bcd60e51b8152600401610cd89061332d565b600d548111156122a75760405162461bcd60e51b815260206004820152604c60248201527f5469636b6574732070657220726f756e642063616e6e6f74206265206869676860448201527f6572207468616e20746f74616c206e756d626572206f66207469636b6574732060648201526b696e2041756374696f6e563160a01b608482015260a401610cd8565b6000600c54600954106122e557600a546009546122c49190613498565b600b546122d19190613481565b6007546122de9190613455565b9050612338565b6000600a546009546122f79190613498565b6123029060016133fc565b600b5461230f9190613481565b9050806007541115612330578060075461232991906133fc565b9150612336565b60085491505b505b600781905561234683610c49565b60006009819055600c839055600a839055600d80548492906123699084906133fc565b90915550506040805160a08101825260128054808352602080840188815284860188815260006060870181815260808801828152958252601190945296872095518655905160018601555160028501555160039093018054915161ffff1990921693151561ff0019169390931761010091151591909102179091558054916123f083613468565b9190505550505050565b6004546001600160a01b031661240e612c30565b6001600160a01b0316146124345760405162461bcd60e51b8152600401610cd890613371565b600b55565b6005546001600160a01b031633146124835760405162461bcd60e51b815260206004820152600d60248201526c37b7363c9037b832b930ba37b960991b6044820152606401610cd8565b6000612491828401846134d4565b915050600080828060200190518101906124ab9190613582565b91509150600085856040516124c1929190613605565b60408051918290039091206000858152600160205291822054825491935083149190859081106124f3576124f36133b3565b90600052602060002090602091828204019190069054906101000a900460ff1661255f5760405162461bcd60e51b815260206004820152601c60248201527f726571756573742066756c66696c6c6564206f72206d697373696e67000000006044820152606401610cd8565b80156126035760408051602081018a905230918101919091524660608201526080810185905260a0016040516020818303038152906040528051906020012060001c97506125ae888585612dee565b60008085815481106125c2576125c26133b3565b90600052602060002090602091828204019190066101000a81548160ff02191690831515021790555060016000858152602001908152602001600020600090555b5050505050505050565b6126186109bd612c30565b1561265e5760405162461bcd60e51b815260206004820152601660248201527515da5b9b995c9cc818d85b9b9bdd0819195c1bdcda5d60521b6044820152606401610cd8565b42601b54116126b95760405162461bcd60e51b815260206004820152602160248201527f4465706f7369747320617265206e6f7420706f737369626c6520616e796d6f726044820152606560f81b6064820152608401610cd8565b6019546001600160a01b03166127115760405162461bcd60e51b815260206004820152601d60248201527f5553444320636f6e74726163742061646472657373206e6f74207365740000006044820152606401610cd8565b600081116127515760405162461bcd60e51b815260206004820152600d60248201526c139bc8199d5b991cc81cd95b9d609a1b6044820152606401610cd8565b60195481906001600160a01b031663dd62ed3e61276c612c30565b6040516001600160e01b031960e084901b1681526001600160a01b039091166004820152306024820152604401602060405180830381865afa1580156127b6573d6000803e3d6000fd5b505050506040513d601f19601f820116820180604052508101906127da9190613615565b10156128215760405162461bcd60e51b8152602060048201526016602482015275496e73756666696369656e7420616c6c6f77616e636560501b6044820152606401610cd8565b6019546001600160a01b03166323b872dd61283a612c30565b6040516001600160e01b031960e084901b1681526001600160a01b039091166004820152306024820152604481018490526064016020604051808303816000875af115801561288d573d6000803e3d6000fd5b505050506040513d601f19601f820116820180604052508101906128b191906133c9565b50601360006128be612c30565b6001600160a01b03166001600160a01b03168152602001908152602001600020546000036129235760176128f0612c30565b81546001810183556000928352602090922090910180546001600160a01b0319166001600160a01b039092169190911790555b8060136000612930612c30565b6001600160a01b03166001600160a01b03168152602001908152602001600020600082825461295f9190613455565b925050819055506001600960008282546129799190613455565b909155505050565b600f8181548110610c2f57600080fd5b6004546001600160a01b03166129a5612c30565b6001600160a01b0316146129cb5760405162461bcd60e51b8152600401610cd890613371565b6001600160a01b03166000818152601460205260408120805460ff191660019081179091556016805491820181559091527fd833147d7dc355ba459fc788f669e58cfaf9dc25ddcd0702e87d69c7b51242890180546001600160a01b0319169091179055565b60004244612a3d612c30565b6040805160208101949094528301919091526bffffffffffffffffffffffff19606091821b16908201526074016040516020818303038152906040528051906020012060001c905090565b60606016805480602002602001604051908101604052809291908181526020018280548015611adb576020028201919060005260206000209081546001600160a01b03168152600190910190602001808311611abd575050505050905090565b6004546001600160a01b0316612afc612c30565b6001600160a01b031614612b225760405162461bcd60e51b8152600401610cd890613371565b600480546001600160a01b0319166001600160a01b0392909216919091179055565b612b4c612d3e565b6001600160a01b038116612b7657604051631e4fbdf760e01b815260006004820152602401610cd8565b612b7f81612d9c565b50565b6004546001600160a01b0316612b96612c30565b6001600160a01b031614612bbc5760405162461bcd60e51b8152600401610cd890613371565b612bf0612bc7612c30565b604080516001600160a01b03909216602083015201604051602081830303815290604052612e2b565b50612bf9612c30565b6001600160a01b03167fd802e7c7f1646e3318c03abed1e468bdf913f45331a68dc912a0d645eb646a4260405160405180910390a2565b6000612c3a612f2c565b905090565b612c4b600f6000612fc7565b60005b601754811015612b7f5760006013600060178481548110612c7157612c716133b3565b60009182526020808320909101546001600160a01b031683528201929092526040019020546007549091508110612d3557612ce060178381548110612cb857612cb86133b3565b60009182526020808320909101546001600160a01b0316825260149052604090205460ff1690565b612d3557600f60178381548110612cf957612cf96133b3565b60009182526020808320909101548354600181018555938352912090910180546001600160a01b0319166001600160a01b039092169190911790555b50600101612c4e565b612d46612c30565b6001600160a01b0316612d616002546001600160a01b031690565b6001600160a01b031614610d2a57612d77612c30565b60405163118cdaa760e01b81526001600160a01b039091166004820152602401610cd8565b600280546001600160a01b038381166001600160a01b0319831681179093556040519116919082907f8be0079c531659141344cd1fd0a4f28419497f9722a3daafe3b4186f6b6457e090600090a35050565b600e8390556040518381527fa2353d33775668d31add0688b8ed09ca3a91dc8129126fcdbcbda3a887db60db9060200160405180910390a1505050565b6000805460018082018084558380529192909183908110612e4e57612e4e6133b3565b90600052602060002090602091828204019190066101000a81548160ff02191690831515021790555060008183604051602001612e8c92919061362e565b60405160208183030381529060405290506000612ea7612f70565b905060008183604051602001612ebe92919061362e565b60408051601f198184030181528282528051602080830191909120600089815260019092529290208290559250907fd91fc3685b930310b008ec37d2334870cab88a023ed8cc628a2e2ccd4e55d20290612f1b908590879061362e565b60405180910390a150505050919050565b60007f00000000000000000000000000000000000000000000000000000000000000006001600160a01b03163303612f6b575060131936013560601c90565b503390565b600080612f816364e62127426133fc565b90506000612f90600383613498565b612f9b906001613455565b905046600114612fb557612fb0816001613455565b612fc0565b612fc0816004613455565b9250505090565b5080546000825590600052602060002090810190612b7f91905b80821115612ff55760008155600101612fe1565b5090565b60006020828403121561300b57600080fd5b5035919050565b80356001600160a01b038116811461302957600080fd5b919050565b60006020828403121561304057600080fd5b61304982613012565b9392505050565b634e487b7160e01b600052604160045260246000fd5b604051610140810167ffffffffffffffff8111828210171561308a5761308a613050565b60405290565b604051601f8201601f1916810167ffffffffffffffff811182821017156130b9576130b9613050565b604052919050565b600061014082840312156130d457600080fd5b6130dc613066565b6130e583613012565b81526130f360208401613012565b602082015261310460408401613012565b604082015261311560608401613012565b60608201526080830135608082015260a083013560a082015260c083013560c082015261314460e08401613012565b60e0820152610100613157818501613012565b90820152610120613169848201613012565b908201529392505050565b6000806040838503121561318757600080fd5b61319083613012565b946020939093013593505050565b8015158114612b7f57600080fd5b600080604083850312156131bf57600080fd5b6131c883613012565b915060208301356131d88161319e565b809150509250929050565b6020808252825182820181905260009190848201906040850190845b818110156132245783516001600160a01b0316835292840192918401916001016131ff565b50909695505050505050565b60006020828403121561324257600080fd5b81356005811061304957600080fd5b634e487b7160e01b600052602160045260246000fd5b602081016005831061328957634e487b7160e01b600052602160045260246000fd5b91905290565b600080604083850312156132a257600080fd5b50508035926020909101359150565b6000806000604084860312156132c657600080fd5b83359250602084013567ffffffffffffffff808211156132e557600080fd5b818601915086601f8301126132f957600080fd5b81358181111561330857600080fd5b87602082850101111561331a57600080fd5b6020830194508093505050509250925092565b60208082526024908201527f4f6e6c79206f70657261746f722063616e2063616c6c20746869732066756e636040820152633a34b7b760e11b606082015260800190565b60208082526022908201527f4f6e6c792073656c6c65722063616e2063616c6c20746869732066756e63746960408201526137b760f11b606082015260800190565b634e487b7160e01b600052603260045260246000fd5b6000602082840312156133db57600080fd5b81516130498161319e565b634e487b7160e01b600052601160045260246000fd5b8181038181111561340f5761340f6133e6565b92915050565b634e487b7160e01b600052603160045260246000fd5b634e487b7160e01b600052601260045260246000fd5b6000826134505761345061342b565b500690565b8082018082111561340f5761340f6133e6565b60006001820161347a5761347a6133e6565b5060010190565b808202811582820484141761340f5761340f6133e6565b6000826134a7576134a761342b565b500490565b600067ffffffffffffffff8211156134c6576134c6613050565b50601f01601f191660200190565b600080604083850312156134e757600080fd5b82359150602083013567ffffffffffffffff81111561350557600080fd5b8301601f8101851361351657600080fd5b8035613529613524826134ac565b613090565b81815286602083850101111561353e57600080fd5b816020840160208301376000602083830101528093505050509250929050565b60005b83811015613579578181015183820152602001613561565b50506000910152565b6000806040838503121561359557600080fd5b82519150602083015167ffffffffffffffff8111156135b357600080fd5b8301601f810185136135c457600080fd5b80516135d2613524826134ac565b8181528660208385010111156135e757600080fd5b6135f882602083016020860161355e565b8093505050509250929050565b8183823760009101908152919050565b60006020828403121561362757600080fd5b5051919050565b828152604060208201526000825180604084015261365381606085016020870161355e565b601f01601f191691909101606001939250505056fea264697066735822122035dec2127e5e3843dadf7674bd1ee066a883af16b5968694890096eadbea34f064736f6c63430008190033",
    "linkReferences": {}
  },
  "methodIdentifiers": {
    "buyerWithdraw()": "7cc947d0",
    "changeLotteryState(uint8)": "683e93e1",
    "currentPrice()": "9d1b464a",
    "deposit(uint256)": "b6b55f25",
    "deposits(address)": "fc7e286d",
    "eligibleParticipants(uint256)": "b7a62e24",
    "endLottery()": "1593a8c7",
    "finishAt()": "67d3b488",
    "fulfillRandomness(uint256,bytes)": "b3f6b99a",
    "getDepositedAmount(address)": "e9081ec7",
    "getEligibleParticipants()": "9abdccd1",
    "getParticipants()": "5aa68ac0",
    "getRandomNumber()": "dbdff2c1",
    "getWinners()": "df15c37e",
    "hasMinted(address)": "38e21cce",
    "increasePriceStep()": "96efac7b",
    "initialPrice()": "1d0806ae",
    "initialize((address,address,address,address,uint256,uint256,uint256,address,address,address))": "4a0a5ce9",
    "initialized()": "158ef93e",
    "isParticipantEligible(address)": "8a6723e6",
    "isTrustedForwarder(address)": "572b6c05",
    "isWinner(address)": "9d9ca28d",
    "lotteryState()": "6939864b",
    "lotteryV2Addr()": "7de13382",
    "minimumDepositAmount()": "080c279a",
    "mintMyNFT()": "26170480",
    "multisigWalletAddress()": "a61fb2ba",
    "nftContractAddr()": "2c23ec8e",
    "numberOfTickets()": "45745c10",
    "operatorAddr()": "f3f18c37",
    "operators(address)": "13e7c9d8",
    "owner()": "8da5cb5b",
    "prevRoundDeposits()": "b680e44b",
    "prevRoundTicketsAmount()": "224f91bd",
    "randomNumber()": "ccbac9f5",
    "renounceOwnership()": "715018a6",
    "requestPending(uint256)": "75ce7fff",
    "requestRandomness()": "f8413b07",
    "requestedHash(uint256)": "c4f8f27b",
    "roundCounter()": "febc14b1",
    "rounds(uint256)": "8c65c81f",
    "selectWinners()": "1a0de74c",
    "seller()": "08551a53",
    "sellerWithdraw()": "66af746b",
    "setCurrentPrice(uint256)": "18b20071",
    "setFinishAt(uint256)": "0bea6637",
    "setLotteryV2Addr(address)": "3639eb2e",
    "setMultisigWalletAddress(address)": "60d50da3",
    "setNftContractAddr(address)": "3644c27c",
    "setNumberOfTickets(uint256)": "99bd69d6",
    "setOperator(address,bool)": "558a7297",
    "setPriceStep(uint256)": "af94862c",
    "setSeller(address)": "e99d2866",
    "setUsdcContractAddr(address)": "94d898de",
    "setWinner(address)": "d9fca769",
    "setupNewRound(uint256,uint256)": "a4f03c02",
    "startLottery()": "160344e2",
    "totalNumberOfTickets()": "00746702",
    "transferDeposit(address,uint256)": "50f3dbec",
    "transferNonWinnerBids(address)": "1630a8df",
    "transferOwnership(address)": "f2fde38b",
    "usdcContractAddr()": "99dbf4b5",
    "winnerAddresses(uint256)": "045f9c97",
    "winners(address)": "6bd5450a"
  },
  "id": 37
}