{
  "abi": [
    {
      "type": "function",
      "name": "createSale",
      "inputs": [
        {
          "name": "_seller",
          "type": "address",
          "internalType": "address"
        },
        {
          "name": "_operator",
          "type": "address",
          "internalType": "address"
        },
        {
          "name": "_owner",
          "type": "address",
          "internalType": "address"
        },
        {
          "name": "_uri",
          "type": "string",
          "internalType": "string"
        }
      ],
      "outputs": [
        {
          "name": "",
          "type": "address[4]",
          "internalType": "address[4]"
        }
      ],
      "stateMutability": "nonpayable"
    },
    {
      "type": "function",
      "name": "currentIndex",
      "inputs": [],
      "outputs": [
        {
          "name": "",
          "type": "uint256",
          "internalType": "uint256"
        }
      ],
      "stateMutability": "view"
    },
    {
      "type": "function",
      "name": "owner",
      "inputs": [],
      "outputs": [
        {
          "name": "",
          "type": "address",
          "internalType": "address"
        }
      ],
      "stateMutability": "view"
    },
    {
      "type": "function",
      "name": "renounceOwnership",
      "inputs": [],
      "outputs": [],
      "stateMutability": "nonpayable"
    },
    {
      "type": "function",
      "name": "sales",
      "inputs": [
        {
          "name": "",
          "type": "uint256",
          "internalType": "uint256"
        },
        {
          "name": "",
          "type": "uint256",
          "internalType": "uint256"
        }
      ],
      "outputs": [
        {
          "name": "",
          "type": "address",
          "internalType": "address"
        }
      ],
      "stateMutability": "view"
    },
    {
      "type": "function",
      "name": "setBaseContracts",
      "inputs": [
        {
          "name": "_nftTicket",
          "type": "address",
          "internalType": "address"
        },
        {
          "name": "_lotteryV1",
          "type": "address",
          "internalType": "address"
        },
        {
          "name": "_lotteryV2",
          "type": "address",
          "internalType": "address"
        },
        {
          "name": "_auctionV1",
          "type": "address",
          "internalType": "address"
        },
        {
          "name": "_auctionV2",
          "type": "address",
          "internalType": "address"
        }
      ],
      "outputs": [],
      "stateMutability": "nonpayable"
    },
    {
      "type": "function",
      "name": "transferOwnership",
      "inputs": [
        {
          "name": "newOwner",
          "type": "address",
          "internalType": "address"
        }
      ],
      "outputs": [],
      "stateMutability": "nonpayable"
    },
    {
      "type": "event",
      "name": "OwnershipTransferred",
      "inputs": [
        {
          "name": "previousOwner",
          "type": "address",
          "indexed": true,
          "internalType": "address"
        },
        {
          "name": "newOwner",
          "type": "address",
          "indexed": true,
          "internalType": "address"
        }
      ],
      "anonymous": false
    },
    {
      "type": "error",
      "name": "ERC1167FailedCreateClone",
      "inputs": []
    },
    {
      "type": "error",
      "name": "OwnableInvalidOwner",
      "inputs": [
        {
          "name": "owner",
          "type": "address",
          "internalType": "address"
        }
      ]
    },
    {
      "type": "error",
      "name": "OwnableUnauthorizedAccount",
      "inputs": [
        {
          "name": "account",
          "type": "address",
          "internalType": "address"
        }
      ]
    }
  ],
  "bytecode": {
    "object": "0x6080604052348015600f57600080fd5b503380603557604051631e4fbdf760e01b81526000600482015260240160405180910390fd5b603c816041565b506091565b600080546001600160a01b038381166001600160a01b0319831681178455604051919092169283917f8be0079c531659141344cd1fd0a4f28419497f9722a3daafe3b4186f6b6457e09190a35050565b611098806100a06000396000f3fe608060405234801561001057600080fd5b506004361061007d5760003560e01c80638da5cb5b1161005b5780638da5cb5b146100cc578063c53fd38e146100f1578063ebe9215014610104578063f2fde38b1461011757600080fd5b8063146311fe1461008257806326987b60146100ab578063715018a6146100c2575b600080fd5b610095610090366004610e52565b61012a565b6040516100a29190610ef4565b60405180910390f35b6100b460065481565b6040519081526020016100a2565b6100ca610bd5565b005b6000546001600160a01b03165b6040516001600160a01b0390911681526020016100a2565b6100d96100ff366004610f2e565b610be9565b6100ca610112366004610f50565b610c17565b6100ca610125366004610fb5565b610c7e565b610132610db0565b60015460009061014a906001600160a01b0316610cc1565b604051637d138e0b60e01b81529091506001600160a01b03821690637d138e0b9061018090879087906000903090600401610fd7565b600060405180830381600087803b15801561019a57600080fd5b505af11580156101ae573d6000803e3d6000fd5b5050600154600092506101ca91506001600160a01b0316610cc1565b604051637d138e0b60e01b81529091506001600160a01b03821690637d138e0b9061020090889088906000903090600401610fd7565b600060405180830381600087803b15801561021a57600080fd5b505af115801561022e573d6000803e3d6000fd5b50506001546000925061024a91506001600160a01b0316610cc1565b604051637d138e0b60e01b81529091506001600160a01b03821690637d138e0b9061028090899089906001903090600401610fd7565b600060405180830381600087803b15801561029a57600080fd5b505af11580156102ae573d6000803e3d6000fd5b5050600154600092506102ca91506001600160a01b0316610cc1565b604051637d138e0b60e01b81529091506001600160a01b03821690637d138e0b90610300908a908a906001903090600401610fd7565b600060405180830381600087803b15801561031a57600080fd5b505af115801561032e573d6000803e3d6000fd5b50506002546000925061034a91506001600160a01b0316610cc1565b60405163c0c53b8b60e01b81526001600160a01b038d811660048301528c811660248301523060448301529192509082169063c0c53b8b90606401600060405180830381600087803b15801561039f57600080fd5b505af11580156103b3573d6000803e3d6000fd5b505060405163ca4a9f0560e01b81526001600160a01b0384811660048301528816925063ca4a9f059150602401600060405180830381600087803b1580156103fa57600080fd5b505af115801561040e573d6000803e3d6000fd5b5050604051630d91309f60e21b81526001600160a01b03888116600483015284169250633644c27c9150602401600060405180830381600087803b15801561045557600080fd5b505af1158015610469573d6000803e3d6000fd5b50506003546000925061048591506001600160a01b0316610cc1565b60405163c0c53b8b60e01b81526001600160a01b038e811660048301528d811660248301523060448301529192509082169063c0c53b8b90606401600060405180830381600087803b1580156104da57600080fd5b505af11580156104ee573d6000803e3d6000fd5b505060405163ca4a9f0560e01b81526001600160a01b0384811660048301528816925063ca4a9f059150602401600060405180830381600087803b15801561053557600080fd5b505af1158015610549573d6000803e3d6000fd5b5050604051630d91309f60e21b81526001600160a01b03888116600483015284169250633644c27c9150602401600060405180830381600087803b15801561059057600080fd5b505af11580156105a4573d6000803e3d6000fd5b5050600454600092506105c091506001600160a01b0316610cc1565b60405163c0c53b8b60e01b81526001600160a01b038f811660048301528e811660248301523060448301529192509082169063c0c53b8b90606401600060405180830381600087803b15801561061557600080fd5b505af1158015610629573d6000803e3d6000fd5b505060405163ca4a9f0560e01b81526001600160a01b0384811660048301528816925063ca4a9f059150602401600060405180830381600087803b15801561067057600080fd5b505af1158015610684573d6000803e3d6000fd5b5050604051630d91309f60e21b81526001600160a01b03888116600483015284169250633644c27c9150602401600060405180830381600087803b1580156106cb57600080fd5b505af11580156106df573d6000803e3d6000fd5b5050600554600092506106fb91506001600160a01b0316610cc1565b9050806001600160a01b031663485cc9558f306040518363ffffffff1660e01b81526004016107409291906001600160a01b0392831681529116602082015260400190565b600060405180830381600087803b15801561075a57600080fd5b505af115801561076e573d6000803e3d6000fd5b505060405163ca4a9f0560e01b81526001600160a01b0384811660048301528816925063ca4a9f059150602401600060405180830381600087803b1580156107b557600080fd5b505af11580156107c9573d6000803e3d6000fd5b5050604051630d91309f60e21b81526001600160a01b03888116600483015284169250633644c27c9150602401600060405180830381600087803b15801561081057600080fd5b505af1158015610824573d6000803e3d6000fd5b505060405163f2fde38b60e01b81526001600160a01b038f811660048301528716925063f2fde38b9150602401600060405180830381600087803b15801561086b57600080fd5b505af115801561087f573d6000803e3d6000fd5b505060405163f2fde38b60e01b81526001600160a01b038f811660048301528616925063f2fde38b9150602401600060405180830381600087803b1580156108c657600080fd5b505af11580156108da573d6000803e3d6000fd5b505060405163f2fde38b60e01b81526001600160a01b038f811660048301528516925063f2fde38b9150602401600060405180830381600087803b15801561092157600080fd5b505af1158015610935573d6000803e3d6000fd5b505060405163f2fde38b60e01b81526001600160a01b038f811660048301528416925063f2fde38b9150602401600060405180830381600087803b15801561097c57600080fd5b505af1158015610990573d6000803e3d6000fd5b505060405163f2fde38b60e01b81526001600160a01b038f811660048301528b16925063f2fde38b9150602401600060405180830381600087803b1580156109d757600080fd5b505af11580156109eb573d6000803e3d6000fd5b505060405163f2fde38b60e01b81526001600160a01b038f811660048301528a16925063f2fde38b9150602401600060405180830381600087803b158015610a3257600080fd5b505af1158015610a46573d6000803e3d6000fd5b505060405163f2fde38b60e01b81526001600160a01b038f811660048301528916925063f2fde38b9150602401600060405180830381600087803b158015610a8d57600080fd5b505af1158015610aa1573d6000803e3d6000fd5b505060405163f2fde38b60e01b81526001600160a01b038f811660048301528816925063f2fde38b9150602401600060405180830381600087803b158015610ae857600080fd5b505af1158015610afc573d6000803e3d6000fd5b5050604080516080810182526001600160a01b0380891682528781166020808401919091528782168385015290861660608301526006546000908152600790915291909120610b4f935091506004610dce565b50600160066000828254610b639190611036565b92505081905550600760006001600654610b7d919061104f565b815260208101919091526040908101600020815160808101928390529160049082845b81546001600160a01b03168152600190910190602001808311610ba05750505050509850505050505050505095945050505050565b610bdd610d33565b610be76000610d60565b565b60076020528160005260406000208160048110610c0557600080fd5b01546001600160a01b03169150829050565b610c1f610d33565b600180546001600160a01b03199081166001600160a01b03978816179091556002805482169587169590951790945560038054851693861693909317909255600480548416918516919091179055600580549092169216919091179055565b610c86610d33565b6001600160a01b038116610cb557604051631e4fbdf760e01b8152600060048201526024015b60405180910390fd5b610cbe81610d60565b50565b6000763d602d80600a3d3981f3363d3d373d3d3d363d730000008260601b60e81c176000526e5af43d82803e903d91602b57fd5bf38260781b17602052603760096000f090506001600160a01b038116610d2e576040516330be1a3d60e21b815260040160405180910390fd5b919050565b6000546001600160a01b03163314610be75760405163118cdaa760e01b8152336004820152602401610cac565b600080546001600160a01b038381166001600160a01b0319831681178455604051919092169283917f8be0079c531659141344cd1fd0a4f28419497f9722a3daafe3b4186f6b6457e09190a35050565b60405180608001604052806004906020820280368337509192915050565b8260048101928215610e16579160200282015b82811115610e1657825182546001600160a01b0319166001600160a01b03909116178255602090920191600190910190610de1565b50610e22929150610e26565b5090565b5b80821115610e225760008155600101610e27565b80356001600160a01b0381168114610d2e57600080fd5b600080600080600060808688031215610e6a57600080fd5b610e7386610e3b565b9450610e8160208701610e3b565b9350610e8f60408701610e3b565b9250606086013567ffffffffffffffff80821115610eac57600080fd5b818801915088601f830112610ec057600080fd5b813581811115610ecf57600080fd5b896020828501011115610ee157600080fd5b9699959850939650602001949392505050565b60808101818360005b6004811015610f255781516001600160a01b0316835260209283019290910190600101610efd565b50505092915050565b60008060408385031215610f4157600080fd5b50508035926020909101359150565b600080600080600060a08688031215610f6857600080fd5b610f7186610e3b565b9450610f7f60208701610e3b565b9350610f8d60408701610e3b565b9250610f9b60608701610e3b565b9150610fa960808701610e3b565b90509295509295909350565b600060208284031215610fc757600080fd5b610fd082610e3b565b9392505050565b60608152836060820152838560808301376000608085830181019190915292151560208201526001600160a01b03919091166040820152601f909201601f191690910101919050565b634e487b7160e01b600052601160045260246000fd5b8082018082111561104957611049611020565b92915050565b818103818111156110495761104961102056fea2646970667358221220122620d4d6815b307db3b5cd4d86b8251181d7f25faf62fe468bf6f50f088b7964736f6c63430008190033",
    "linkReferences": {}
  },
  "methodIdentifiers": {
    "createSale(address,address,address,string)": "146311fe",
    "currentIndex()": "26987b60",
    "owner()": "8da5cb5b",
    "renounceOwnership()": "715018a6",
    "sales(uint256,uint256)": "c53fd38e",
    "setBaseContracts(address,address,address,address,address)": "ebe92150",
    "transferOwnership(address)": "f2fde38b"
  },
  "id": 3
}