{
  "abi": [
    {
      "type": "function",
      "name": "auctionV1",
      "inputs": [],
      "outputs": [
        {
          "name": "",
          "type": "address",
          "internalType": "address"
        }
      ],
      "stateMutability": "view"
    },
    {
      "type": "function",
      "name": "auctionV2",
      "inputs": [],
      "outputs": [
        {
          "name": "",
          "type": "address",
          "internalType": "address"
        }
      ],
      "stateMutability": "view"
    },
    {
      "type": "function",
      "name": "createSale",
      "inputs": [
        {
          "name": "config",
          "type": "tuple",
          "internalType": "struct BlessedFactory.SaleConfig",
          "components": [
            {
              "name": "_seller",
              "type": "address",
              "internalType": "address"
            },
            {
              "name": "_operator",
              "type": "address",
              "internalType": "address"
            },
            {
              "name": "_owner",
              "type": "address",
              "internalType": "address"
            },
            {
              "name": "_lotteryV1TicketAmount",
              "type": "uint256",
              "internalType": "uint256"
            },
            {
              "name": "_lotteryV2TicketAmount",
              "type": "uint256",
              "internalType": "uint256"
            },
            {
              "name": "_auctionV1TicketAmount",
              "type": "uint256",
              "internalType": "uint256"
            },
            {
              "name": "_auctionV2TicketAmount",
              "type": "uint256",
              "internalType": "uint256"
            },
            {
              "name": "_ticketPrice",
              "type": "uint256",
              "internalType": "uint256"
            },
            {
              "name": "_finishAt",
              "type": "uint256",
              "internalType": "uint256"
            },
            {
              "name": "_uri",
              "type": "string",
              "internalType": "string"
            },
            {
              "name": "_usdcContractAddr",
              "type": "address",
              "internalType": "address"
            },
            {
              "name": "_multisigWalletAddress",
              "type": "address",
              "internalType": "address"
            }
          ]
        }
      ],
      "outputs": [],
      "stateMutability": "nonpayable"
    },
    {
      "type": "function",
      "name": "currentIndex",
      "inputs": [],
      "outputs": [
        {
          "name": "",
          "type": "uint256",
          "internalType": "uint256"
        }
      ],
      "stateMutability": "view"
    },
    {
      "type": "function",
      "name": "lotteryV1",
      "inputs": [],
      "outputs": [
        {
          "name": "",
          "type": "address",
          "internalType": "address"
        }
      ],
      "stateMutability": "view"
    },
    {
      "type": "function",
      "name": "lotteryV2",
      "inputs": [],
      "outputs": [
        {
          "name": "",
          "type": "address",
          "internalType": "address"
        }
      ],
      "stateMutability": "view"
    },
    {
      "type": "function",
      "name": "nftTicket",
      "inputs": [],
      "outputs": [
        {
          "name": "",
          "type": "address",
          "internalType": "address"
        }
      ],
      "stateMutability": "view"
    },
    {
      "type": "function",
      "name": "owner",
      "inputs": [],
      "outputs": [
        {
          "name": "",
          "type": "address",
          "internalType": "address"
        }
      ],
      "stateMutability": "view"
    },
    {
      "type": "function",
      "name": "renounceOwnership",
      "inputs": [],
      "outputs": [],
      "stateMutability": "nonpayable"
    },
    {
      "type": "function",
      "name": "sales",
      "inputs": [
        {
          "name": "",
          "type": "uint256",
          "internalType": "uint256"
        },
        {
          "name": "",
          "type": "uint256",
          "internalType": "uint256"
        }
      ],
      "outputs": [
        {
          "name": "",
          "type": "address",
          "internalType": "address"
        }
      ],
      "stateMutability": "view"
    },
    {
      "type": "function",
      "name": "setBaseContracts",
      "inputs": [
        {
          "name": "_nftTicket",
          "type": "address",
          "internalType": "address"
        },
        {
          "name": "_lotteryV1",
          "type": "address",
          "internalType": "address"
        },
        {
          "name": "_lotteryV2",
          "type": "address",
          "internalType": "address"
        },
        {
          "name": "_auctionV1",
          "type": "address",
          "internalType": "address"
        },
        {
          "name": "_auctionV2",
          "type": "address",
          "internalType": "address"
        }
      ],
      "outputs": [],
      "stateMutability": "nonpayable"
    },
    {
      "type": "function",
      "name": "transferOwnership",
      "inputs": [
        {
          "name": "newOwner",
          "type": "address",
          "internalType": "address"
        }
      ],
      "outputs": [],
      "stateMutability": "nonpayable"
    },
    {
      "type": "event",
      "name": "OwnershipTransferred",
      "inputs": [
        {
          "name": "previousOwner",
          "type": "address",
          "indexed": true,
          "internalType": "address"
        },
        {
          "name": "newOwner",
          "type": "address",
          "indexed": true,
          "internalType": "address"
        }
      ],
      "anonymous": false
    },
    {
      "type": "error",
      "name": "ERC1167FailedCreateClone",
      "inputs": []
    },
    {
      "type": "error",
      "name": "OwnableInvalidOwner",
      "inputs": [
        {
          "name": "owner",
          "type": "address",
          "internalType": "address"
        }
      ]
    },
    {
      "type": "error",
      "name": "OwnableUnauthorizedAccount",
      "inputs": [
        {
          "name": "account",
          "type": "address",
          "internalType": "address"
        }
      ]
    }
  ],
  "bytecode": {
    "object": "0x6080604052348015600f57600080fd5b503380603557604051631e4fbdf760e01b81526000600482015260240160405180910390fd5b603c816041565b506091565b600080546001600160a01b038381166001600160a01b0319831681178455604051919092169283917f8be0079c531659141344cd1fd0a4f28419497f9722a3daafe3b4186f6b6457e09190a35050565b611480806100a06000396000f3fe608060405234801561001057600080fd5b50600436106100b45760003560e01c80638da5cb5b116100715780638da5cb5b14610143578063b1b916e914610154578063b3a6807c14610167578063c53fd38e1461017a578063ebe921501461018d578063f2fde38b146101a057600080fd5b80631963cb06146100b957806326987b60146100e9578063359e2e441461010057806338d6006b1461011357806339836cd014610126578063715018a61461013b575b600080fd5b6005546100cc906001600160a01b031681565b6040516001600160a01b0390911681526020015b60405180910390f35b6100f260065481565b6040519081526020016100e0565b6003546100cc906001600160a01b031681565b6002546100cc906001600160a01b031681565b6101396101343660046111a3565b6101b3565b005b610139610e77565b6000546001600160a01b03166100cc565b6001546100cc906001600160a01b031681565b6004546100cc906001600160a01b031681565b6100cc6101883660046112ae565b610e8b565b61013961019b3660046112d0565b610eb9565b6101396101ae366004611335565b610f20565b6001546000906101cb906001600160a01b0316610f63565b610120830151604051637d138e0b60e01b81529192506001600160a01b03831691637d138e0b91610203916000903090600401611357565b600060405180830381600087803b15801561021d57600080fd5b505af1158015610231573d6000803e3d6000fd5b50506001546000925061024d91506001600160a01b0316610f63565b610120840151604051637d138e0b60e01b81529192506001600160a01b03831691637d138e0b91610285916000903090600401611357565b600060405180830381600087803b15801561029f57600080fd5b505af11580156102b3573d6000803e3d6000fd5b5050600154600092506102cf91506001600160a01b0316610f63565b610120850151604051637d138e0b60e01b81529192506001600160a01b03831691637d138e0b91610307916001903090600401611357565b600060405180830381600087803b15801561032157600080fd5b505af1158015610335573d6000803e3d6000fd5b50506001546000925061035191506001600160a01b0316610f63565b610120860151604051637d138e0b60e01b81529192506001600160a01b03831691637d138e0b91610389916001903090600401611357565b600060405180830381600087803b1580156103a357600080fd5b505af11580156103b7573d6000803e3d6000fd5b5050600254600092506103d391506001600160a01b0316610f63565b9050600060405180610100016040528088600001516001600160a01b0316815260200188602001516001600160a01b03168152602001306001600160a01b03168152602001886060015181526020018860e00151815260200188610100015181526020018861014001516001600160a01b031681526020018861016001516001600160a01b03168152509050816001600160a01b031663a8641aea826040518263ffffffff1660e01b815260040161048b91906113bd565b600060405180830381600087803b1580156104a557600080fd5b505af11580156104b9573d6000803e3d6000fd5b505060405163ca4a9f0560e01b81526001600160a01b0385811660048301528916925063ca4a9f059150602401600060405180830381600087803b15801561050057600080fd5b505af1158015610514573d6000803e3d6000fd5b5050604051630d91309f60e21b81526001600160a01b03898116600483015285169250633644c27c9150602401600060405180830381600087803b15801561055b57600080fd5b505af115801561056f573d6000803e3d6000fd5b50506003546000925061058b91506001600160a01b0316610f63565b905060006040518061010001604052808a600001516001600160a01b031681526020018a602001516001600160a01b03168152602001306001600160a01b031681526020018a6080015181526020018a60e0015181526020018a610100015181526020018a61014001516001600160a01b031681526020018a61016001516001600160a01b03168152509050816001600160a01b031663a8641aea826040518263ffffffff1660e01b815260040161064391906113bd565b600060405180830381600087803b15801561065d57600080fd5b505af1158015610671573d6000803e3d6000fd5b505060405163ca4a9f0560e01b81526001600160a01b0385811660048301528a16925063ca4a9f059150602401600060405180830381600087803b1580156106b857600080fd5b505af11580156106cc573d6000803e3d6000fd5b5050604051630d91309f60e21b81526001600160a01b038a8116600483015285169250633644c27c9150602401600060405180830381600087803b15801561071357600080fd5b505af1158015610727573d6000803e3d6000fd5b50506004546000925061074391506001600160a01b0316610f63565b905060006040518061010001604052808c600001516001600160a01b031681526020018c602001516001600160a01b03168152602001306001600160a01b031681526020018c60a0015181526020018c60e0015181526020018c610100015181526020018c61014001516001600160a01b031681526020018c61016001516001600160a01b03168152509050816001600160a01b031663a8641aea826040518263ffffffff1660e01b81526004016107fb91906113bd565b600060405180830381600087803b15801561081557600080fd5b505af1158015610829573d6000803e3d6000fd5b505060405163ca4a9f0560e01b81526001600160a01b0385811660048301528b16925063ca4a9f059150602401600060405180830381600087803b15801561087057600080fd5b505af1158015610884573d6000803e3d6000fd5b5050604051630d91309f60e21b81526001600160a01b038b8116600483015285169250633644c27c9150602401600060405180830381600087803b1580156108cb57600080fd5b505af11580156108df573d6000803e3d6000fd5b5050600554600092506108fb91506001600160a01b0316610f63565b905060006040518061010001604052808e600001516001600160a01b03168152602001306001600160a01b031681526020018e60c0015181526020018e60e0015181526020018e61010001518152602001856001600160a01b031681526020018e61014001516001600160a01b031681526020018e61016001516001600160a01b03168152509050816001600160a01b0316639fcd6797826040518263ffffffff1660e01b8152600401610a10919081516001600160a01b03908116825260208084015182169083015260408084015190830152606080840151908301526080808401519083015260a08381015182169083015260c08084015182169083015260e09283015116918101919091526101000190565b600060405180830381600087803b158015610a2a57600080fd5b505af1158015610a3e573d6000803e3d6000fd5b505060405163ca4a9f0560e01b81526001600160a01b0385811660048301528c16925063ca4a9f059150602401600060405180830381600087803b158015610a8557600080fd5b505af1158015610a99573d6000803e3d6000fd5b5050604051630d91309f60e21b81526001600160a01b038c8116600483015285169250633644c27c9150602401600060405180830381600087803b158015610ae057600080fd5b505af1158015610af4573d6000803e3d6000fd5b5050505060408d810151905163f2fde38b60e01b81526001600160a01b0391821660048201529089169063f2fde38b90602401600060405180830381600087803b158015610b4157600080fd5b505af1158015610b55573d6000803e3d6000fd5b5050505060408d810151905163f2fde38b60e01b81526001600160a01b0391821660048201529087169063f2fde38b90602401600060405180830381600087803b158015610ba257600080fd5b505af1158015610bb6573d6000803e3d6000fd5b5050505060408d810151905163f2fde38b60e01b81526001600160a01b0391821660048201529085169063f2fde38b90602401600060405180830381600087803b158015610c0357600080fd5b505af1158015610c17573d6000803e3d6000fd5b5050505060408d810151905163f2fde38b60e01b81526001600160a01b0391821660048201529083169063f2fde38b90602401600060405180830381600087803b158015610c6457600080fd5b505af1158015610c78573d6000803e3d6000fd5b5050505060408d810151905163f2fde38b60e01b81526001600160a01b039182166004820152908d169063f2fde38b90602401600060405180830381600087803b158015610cc557600080fd5b505af1158015610cd9573d6000803e3d6000fd5b5050505060408d810151905163f2fde38b60e01b81526001600160a01b039182166004820152908c169063f2fde38b90602401600060405180830381600087803b158015610d2657600080fd5b505af1158015610d3a573d6000803e3d6000fd5b5050505060408d810151905163f2fde38b60e01b81526001600160a01b039182166004820152908b169063f2fde38b90602401600060405180830381600087803b158015610d8757600080fd5b505af1158015610d9b573d6000803e3d6000fd5b5050505060408d810151905163f2fde38b60e01b81526001600160a01b039182166004820152908a169063f2fde38b90602401600060405180830381600087803b158015610de857600080fd5b505af1158015610dfc573d6000803e3d6000fd5b5050604080516080810182526001600160a01b03808d1682528a81166020808401919091528982168385015290871660608301526006546000908152600790915291909120610e4f935091506004611052565b50600160066000828254610e639190611423565b909155505050505050505050505050505050565b610e7f610fd5565b610e896000611002565b565b60076020528160005260406000208160048110610ea757600080fd5b01546001600160a01b03169150829050565b610ec1610fd5565b600180546001600160a01b03199081166001600160a01b03978816179091556002805482169587169590951790945560038054851693861693909317909255600480548416918516919091179055600580549092169216919091179055565b610f28610fd5565b6001600160a01b038116610f5757604051631e4fbdf760e01b8152600060048201526024015b60405180910390fd5b610f6081611002565b50565b6000763d602d80600a3d3981f3363d3d373d3d3d363d730000008260601b60e81c176000526e5af43d82803e903d91602b57fd5bf38260781b17602052603760096000f090506001600160a01b038116610fd0576040516330be1a3d60e21b815260040160405180910390fd5b919050565b6000546001600160a01b03163314610e895760405163118cdaa760e01b8152336004820152602401610f4e565b600080546001600160a01b038381166001600160a01b0319831681178455604051919092169283917f8be0079c531659141344cd1fd0a4f28419497f9722a3daafe3b4186f6b6457e09190a35050565b826004810192821561109a579160200282015b8281111561109a57825182546001600160a01b0319166001600160a01b03909116178255602090920191600190910190611065565b506110a69291506110aa565b5090565b5b808211156110a657600081556001016110ab565b634e487b7160e01b600052604160045260246000fd5b604051610180810167ffffffffffffffff811182821017156110f9576110f96110bf565b60405290565b80356001600160a01b0381168114610fd057600080fd5b600082601f83011261112757600080fd5b813567ffffffffffffffff80821115611142576111426110bf565b604051601f8301601f19908116603f0116810190828211818310171561116a5761116a6110bf565b8160405283815286602085880101111561118357600080fd5b836020870160208301376000602085830101528094505050505092915050565b6000602082840312156111b557600080fd5b813567ffffffffffffffff808211156111cd57600080fd5b9083019061018082860312156111e257600080fd5b6111ea6110d5565b6111f3836110ff565b8152611201602084016110ff565b6020820152611212604084016110ff565b6040820152606083013560608201526080830135608082015260a083013560a082015260c083013560c082015260e083013560e0820152610100808401358183015250610120808401358381111561126957600080fd5b61127588828701611116565b828401525050610140915061128b8284016110ff565b82820152610160915061129f8284016110ff565b91810191909152949350505050565b600080604083850312156112c157600080fd5b50508035926020909101359150565b600080600080600060a086880312156112e857600080fd5b6112f1866110ff565b94506112ff602087016110ff565b935061130d604087016110ff565b925061131b606087016110ff565b9150611329608087016110ff565b90509295509295909350565b60006020828403121561134757600080fd5b611350826110ff565b9392505050565b606081526000845180606084015260005b818110156113855760208188018101516080868401015201611368565b506000608082850181019190915294151560208401526001600160a01b0393909316604083015250601f909101601f19160101919050565b81516001600160a01b039081168252602080840151821690830152604080840151821690830152606080840151908301526080808401519083015260a0838101519083015260c08084015182169083015260e09283015116918101919091526101000190565b8082018082111561144457634e487b7160e01b600052601160045260246000fd5b9291505056fea2646970667358221220d86634aeba91e95469f47fd25d80d25e1115883fab197079e041d183b8345ec664736f6c63430008190033",
    "linkReferences": {}
  },
  "methodIdentifiers": {
    "auctionV1()": "b3a6807c",
    "auctionV2()": "1963cb06",
    "createSale((address,address,address,uint256,uint256,uint256,uint256,uint256,uint256,string,address,address))": "39836cd0",
    "currentIndex()": "26987b60",
    "lotteryV1()": "38d6006b",
    "lotteryV2()": "359e2e44",
    "nftTicket()": "b1b916e9",
    "owner()": "8da5cb5b",
    "renounceOwnership()": "715018a6",
    "sales(uint256,uint256)": "c53fd38e",
    "setBaseContracts(address,address,address,address,address)": "ebe92150",
    "transferOwnership(address)": "f2fde38b"
  },
  "id": 40
}