{"abi":[{"type":"function","name":"auctionV1","inputs":[],"outputs":[{"name":"","type":"address","internalType":"address"}],"stateMutability":"view"},{"type":"function","name":"auctionV2","inputs":[],"outputs":[{"name":"","type":"address","internalType":"address"}],"stateMutability":"view"},{"type":"function","name":"createSale","inputs":[{"name":"config","type":"tuple","internalType":"struct BlessedFactory.SaleConfig","components":[{"name":"_seller","type":"address","internalType":"address"},{"name":"_gelatoVrfOperator","type":"address","internalType":"address"},{"name":"_blessedOperator","type":"address","internalType":"address"},{"name":"_owner","type":"address","internalType":"address"},{"name":"_lotteryV1TicketAmount","type":"uint256","internalType":"uint256"},{"name":"_lotteryV2TicketAmount","type":"uint256","internalType":"uint256"},{"name":"_auctionV1TicketAmount","type":"uint256","internalType":"uint256"},{"name":"_auctionV2TicketAmount","type":"uint256","internalType":"uint256"},{"name":"_ticketPrice","type":"uint256","internalType":"uint256"},{"name":"_uri","type":"string","internalType":"string"},{"name":"_usdcContractAddr","type":"address","internalType":"address"},{"name":"_multisigWalletAddress","type":"address","internalType":"address"}]}],"outputs":[],"stateMutability":"nonpayable"},{"type":"function","name":"currentIndex","inputs":[],"outputs":[{"name":"","type":"uint256","internalType":"uint256"}],"stateMutability":"view"},{"type":"function","name":"lotteryV1","inputs":[],"outputs":[{"name":"","type":"address","internalType":"address"}],"stateMutability":"view"},{"type":"function","name":"lotteryV2","inputs":[],"outputs":[{"name":"","type":"address","internalType":"address"}],"stateMutability":"view"},{"type":"function","name":"nftTicket","inputs":[],"outputs":[{"name":"","type":"address","internalType":"address"}],"stateMutability":"view"},{"type":"function","name":"owner","inputs":[],"outputs":[{"name":"","type":"address","internalType":"address"}],"stateMutability":"view"},{"type":"function","name":"renounceOwnership","inputs":[],"outputs":[],"stateMutability":"nonpayable"},{"type":"function","name":"sales","inputs":[{"name":"","type":"uint256","internalType":"uint256"},{"name":"","type":"uint256","internalType":"uint256"}],"outputs":[{"name":"","type":"address","internalType":"address"}],"stateMutability":"view"},{"type":"function","name":"setBaseContracts","inputs":[{"name":"_nftTicket","type":"address","internalType":"address"},{"name":"_lotteryV1","type":"address","internalType":"address"},{"name":"_lotteryV2","type":"address","internalType":"address"},{"name":"_auctionV1","type":"address","internalType":"address"},{"name":"_auctionV2","type":"address","internalType":"address"}],"outputs":[],"stateMutability":"nonpayable"},{"type":"function","name":"transferOwnership","inputs":[{"name":"newOwner","type":"address","internalType":"address"}],"outputs":[],"stateMutability":"nonpayable"},{"type":"event","name":"OwnershipTransferred","inputs":[{"name":"previousOwner","type":"address","indexed":true,"internalType":"address"},{"name":"newOwner","type":"address","indexed":true,"internalType":"address"}],"anonymous":false},{"type":"error","name":"ERC1167FailedCreateClone","inputs":[]},{"type":"error","name":"OwnableInvalidOwner","inputs":[{"name":"owner","type":"address","internalType":"address"}]},{"type":"error","name":"OwnableUnauthorizedAccount","inputs":[{"name":"account","type":"address","internalType":"address"}]}],"bytecode":{"object":"0x6080604052348015600f57600080fd5b503380603557604051631e4fbdf760e01b81526000600482015260240160405180910390fd5b603c816041565b506091565b600080546001600160a01b038381166001600160a01b0319831681178455604051919092169283917f8be0079c531659141344cd1fd0a4f28419497f9722a3daafe3b4186f6b6457e09190a35050565b6114b3806100a06000396000f3fe608060405234801561001057600080fd5b50600436106100b45760003560e01c8063b1b916e911610071578063b1b916e914610141578063b3a6807c14610154578063c53fd38e14610167578063cfc864c51461017a578063ebe921501461018d578063f2fde38b146101a057600080fd5b80631963cb06146100b957806326987b60146100e9578063359e2e441461010057806338d6006b14610113578063715018a6146101265780638da5cb5b14610130575b600080fd5b6005546100cc906001600160a01b031681565b6040516001600160a01b0390911681526020015b60405180910390f35b6100f260065481565b6040519081526020016100e0565b6003546100cc906001600160a01b031681565b6002546100cc906001600160a01b031681565b61012e6101b3565b005b6000546001600160a01b03166100cc565b6001546100cc906001600160a01b031681565b6004546100cc906001600160a01b031681565b6100cc6101753660046110b4565b6101c7565b61012e6101883660046111ba565b6101f5565b61012e61019b3660046112cc565b610eae565b61012e6101ae366004611331565b610f15565b6101bb610f58565b6101c56000610f85565b565b600760205281600052604060002081600481106101e357600080fd5b01546001600160a01b03169150829050565b60015460009061020d906001600160a01b0316610fd5565b610120830151604051637d138e0b60e01b81529192506001600160a01b03831691637d138e0b91610245916000903090600401611353565b600060405180830381600087803b15801561025f57600080fd5b505af1158015610273573d6000803e3d6000fd5b50506001546000925061028f91506001600160a01b0316610fd5565b610120840151604051637d138e0b60e01b81529192506001600160a01b03831691637d138e0b916102c7916000903090600401611353565b600060405180830381600087803b1580156102e157600080fd5b505af11580156102f5573d6000803e3d6000fd5b50506001546000925061031191506001600160a01b0316610fd5565b610120850151604051637d138e0b60e01b81529192506001600160a01b03831691637d138e0b91610349916001903090600401611353565b600060405180830381600087803b15801561036357600080fd5b505af1158015610377573d6000803e3d6000fd5b50506001546000925061039391506001600160a01b0316610fd5565b610120860151604051637d138e0b60e01b81529192506001600160a01b03831691637d138e0b916103cb916001903090600401611353565b600060405180830381600087803b1580156103e557600080fd5b505af11580156103f9573d6000803e3d6000fd5b50506002546000925061041591506001600160a01b0316610fd5565b604080516101208101825288516001600160a01b0390811682526020808b0151821690830152898301518116828401523060608301526080808b015190830152610100808b015160a08401526101408b0151821660c08401526101608b0151821660e084015290841690820181905291516319ea9a7760e31b81529293509163cf54d3b8906104a89084906004016113b9565b600060405180830381600087803b1580156104c257600080fd5b505af11580156104d6573d6000803e3d6000fd5b505060405163ca4a9f0560e01b81526001600160a01b0385811660048301528916925063ca4a9f059150602401600060405180830381600087803b15801561051d57600080fd5b505af1158015610531573d6000803e3d6000fd5b5050604051630d91309f60e21b81526001600160a01b03898116600483015285169250633644c27c9150602401600060405180830381600087803b15801561057857600080fd5b505af115801561058c573d6000803e3d6000fd5b5050600354600092506105a891506001600160a01b0316610fd5565b905060006040518061012001604052808a600001516001600160a01b031681526020018a602001516001600160a01b031681526020018a604001516001600160a01b03168152602001306001600160a01b031681526020018a60a0015181526020018a610100015181526020018a61014001516001600160a01b031681526020018a61016001516001600160a01b03168152602001856001600160a01b03168152509050816001600160a01b031663cf54d3b8826040518263ffffffff1660e01b815260040161067891906113b9565b600060405180830381600087803b15801561069257600080fd5b505af11580156106a6573d6000803e3d6000fd5b505060405163ca4a9f0560e01b81526001600160a01b0385811660048301528a16925063ca4a9f059150602401600060405180830381600087803b1580156106ed57600080fd5b505af1158015610701573d6000803e3d6000fd5b5050604051630d91309f60e21b81526001600160a01b038a8116600483015285169250633644c27c9150602401600060405180830381600087803b15801561074857600080fd5b505af115801561075c573d6000803e3d6000fd5b50506004546000925061077891506001600160a01b0316610fd5565b905060006040518061012001604052808c600001516001600160a01b031681526020018c602001516001600160a01b031681526020018c604001516001600160a01b03168152602001306001600160a01b031681526020018c60c0015181526020018c610100015181526020018c61014001516001600160a01b031681526020018c61016001516001600160a01b03168152602001856001600160a01b03168152509050816001600160a01b031663cf54d3b8826040518263ffffffff1660e01b815260040161084891906113b9565b600060405180830381600087803b15801561086257600080fd5b505af1158015610876573d6000803e3d6000fd5b505060405163ca4a9f0560e01b81526001600160a01b0385811660048301528b16925063ca4a9f059150602401600060405180830381600087803b1580156108bd57600080fd5b505af11580156108d1573d6000803e3d6000fd5b5050604051630d91309f60e21b81526001600160a01b038b8116600483015285169250633644c27c9150602401600060405180830381600087803b15801561091857600080fd5b505af115801561092c573d6000803e3d6000fd5b50506005546000925061094891506001600160a01b0316610fd5565b905060006040518060e001604052808e600001516001600160a01b03168152602001306001600160a01b031681526020018e60e0015181526020018e610100015181526020018e61014001516001600160a01b031681526020018e61016001516001600160a01b03168152602001856001600160a01b03168152509050816001600160a01b031663bc780845826040518263ffffffff1660e01b8152600401610a47919081516001600160a01b039081168252602080840151821690830152604080840151908301526060808401519083015260808084015182169083015260a08381015182169083015260c092830151169181019190915260e00190565b600060405180830381600087803b158015610a6157600080fd5b505af1158015610a75573d6000803e3d6000fd5b505060405163ca4a9f0560e01b81526001600160a01b0385811660048301528c16925063ca4a9f059150602401600060405180830381600087803b158015610abc57600080fd5b505af1158015610ad0573d6000803e3d6000fd5b5050604051630d91309f60e21b81526001600160a01b038c8116600483015285169250633644c27c9150602401600060405180830381600087803b158015610b1757600080fd5b505af1158015610b2b573d6000803e3d6000fd5b5050505060608d015160405163f2fde38b60e01b81526001600160a01b0391821660048201529089169063f2fde38b90602401600060405180830381600087803b158015610b7857600080fd5b505af1158015610b8c573d6000803e3d6000fd5b5050505060608d015160405163f2fde38b60e01b81526001600160a01b0391821660048201529087169063f2fde38b90602401600060405180830381600087803b158015610bd957600080fd5b505af1158015610bed573d6000803e3d6000fd5b5050505060608d015160405163f2fde38b60e01b81526001600160a01b0391821660048201529085169063f2fde38b90602401600060405180830381600087803b158015610c3a57600080fd5b505af1158015610c4e573d6000803e3d6000fd5b5050505060608d015160405163f2fde38b60e01b81526001600160a01b0391821660048201529083169063f2fde38b90602401600060405180830381600087803b158015610c9b57600080fd5b505af1158015610caf573d6000803e3d6000fd5b5050505060608d015160405163f2fde38b60e01b81526001600160a01b039182166004820152908d169063f2fde38b90602401600060405180830381600087803b158015610cfc57600080fd5b505af1158015610d10573d6000803e3d6000fd5b5050505060608d015160405163f2fde38b60e01b81526001600160a01b039182166004820152908c169063f2fde38b90602401600060405180830381600087803b158015610d5d57600080fd5b505af1158015610d71573d6000803e3d6000fd5b5050505060608d015160405163f2fde38b60e01b81526001600160a01b039182166004820152908b169063f2fde38b90602401600060405180830381600087803b158015610dbe57600080fd5b505af1158015610dd2573d6000803e3d6000fd5b5050505060608d015160405163f2fde38b60e01b81526001600160a01b039182166004820152908a169063f2fde38b90602401600060405180830381600087803b158015610e1f57600080fd5b505af1158015610e33573d6000803e3d6000fd5b5050604080516080810182526001600160a01b03808d1682528a81166020808401919091528982168385015290871660608301526006546000908152600790915291909120610e86935091506004611047565b50600160066000828254610e9a9190611456565b909155505050505050505050505050505050565b610eb6610f58565b600180546001600160a01b03199081166001600160a01b03978816179091556002805482169587169590951790945560038054851693861693909317909255600480548416918516919091179055600580549092169216919091179055565b610f1d610f58565b6001600160a01b038116610f4c57604051631e4fbdf760e01b8152600060048201526024015b60405180910390fd5b610f5581610f85565b50565b6000546001600160a01b031633146101c55760405163118cdaa760e01b8152336004820152602401610f43565b600080546001600160a01b038381166001600160a01b0319831681178455604051919092169283917f8be0079c531659141344cd1fd0a4f28419497f9722a3daafe3b4186f6b6457e09190a35050565b6000763d602d80600a3d3981f3363d3d373d3d3d363d730000008260601b60e81c176000526e5af43d82803e903d91602b57fd5bf38260781b17602052603760096000f090506001600160a01b038116611042576040516330be1a3d60e21b815260040160405180910390fd5b919050565b826004810192821561108f579160200282015b8281111561108f57825182546001600160a01b0319166001600160a01b0390911617825560209092019160019091019061105a565b5061109b92915061109f565b5090565b5b8082111561109b57600081556001016110a0565b600080604083850312156110c757600080fd5b50508035926020909101359150565b634e487b7160e01b600052604160045260246000fd5b604051610180810167ffffffffffffffff81118282101715611110576111106110d6565b60405290565b80356001600160a01b038116811461104257600080fd5b600082601f83011261113e57600080fd5b813567ffffffffffffffff80821115611159576111596110d6565b604051601f8301601f19908116603f01168101908282118183101715611181576111816110d6565b8160405283815286602085880101111561119a57600080fd5b836020870160208301376000602085830101528094505050505092915050565b6000602082840312156111cc57600080fd5b813567ffffffffffffffff808211156111e457600080fd5b9083019061018082860312156111f957600080fd5b6112016110ec565b61120a83611116565b815261121860208401611116565b602082015261122960408401611116565b604082015261123a60608401611116565b60608201526080830135608082015260a083013560a082015260c083013560c082015260e083013560e0820152610100808401358183015250610120808401358381111561128757600080fd5b6112938882870161112d565b82840152505061014091506112a9828401611116565b8282015261016091506112bd828401611116565b91810191909152949350505050565b600080600080600060a086880312156112e457600080fd5b6112ed86611116565b94506112fb60208701611116565b935061130960408701611116565b925061131760608701611116565b915061132560808701611116565b90509295509295909350565b60006020828403121561134357600080fd5b61134c82611116565b9392505050565b606081526000845180606084015260005b818110156113815760208188018101516080868401015201611364565b506000608082850181019190915294151560208401526001600160a01b0393909316604083015250601f909101601f19160101919050565b81516001600160a01b03908116825260208084015182169083015260408084015182169083015260608084015191821690830152610120820190506080830151608083015260a083015160a083015260c083015161142260c08401826001600160a01b03169052565b5060e083015161143d60e08401826001600160a01b03169052565b50610100928301516001600160a01b0316919092015290565b8082018082111561147757634e487b7160e01b600052601160045260246000fd5b9291505056fea264697066735822122058ff8e1fa08c53fc60d9a8523dff4a67b5848a370ededf46aba1987e580ac53c64736f6c63430008190033","linkReferences":{}},"methodIdentifiers":{"auctionV1()":"b3a6807c","auctionV2()":"1963cb06","createSale((address,address,address,address,uint256,uint256,uint256,uint256,uint256,string,address,address))":"cfc864c5","currentIndex()":"26987b60","lotteryV1()":"38d6006b","lotteryV2()":"359e2e44","nftTicket()":"b1b916e9","owner()":"8da5cb5b","renounceOwnership()":"715018a6","sales(uint256,uint256)":"c53fd38e","setBaseContracts(address,address,address,address,address)":"ebe92150","transferOwnership(address)":"f2fde38b"},"id":40}