{
  "abi": [
    {
      "type": "function",
      "name": "buyerWithdraw",
      "inputs": [],
      "outputs": [],
      "stateMutability": "nonpayable"
    },
    {
      "type": "function",
      "name": "changeLotteryState",
      "inputs": [
        {
          "name": "_newState",
          "type": "uint8",
          "internalType": "enum LotteryV1Base.LotteryState"
        }
      ],
      "outputs": [],
      "stateMutability": "nonpayable"
    },
    {
      "type": "function",
      "name": "deposit",
      "inputs": [
        {
          "name": "amount",
          "type": "uint256",
          "internalType": "uint256"
        }
      ],
      "outputs": [],
      "stateMutability": "payable"
    },
    {
      "type": "function",
      "name": "deposits",
      "inputs": [
        {
          "name": "",
          "type": "address",
          "internalType": "address"
        }
      ],
      "outputs": [
        {
          "name": "",
          "type": "uint256",
          "internalType": "uint256"
        }
      ],
      "stateMutability": "view"
    },
    {
      "type": "function",
      "name": "endLottery",
      "inputs": [],
      "outputs": [],
      "stateMutability": "nonpayable"
    },
    {
      "type": "function",
      "name": "finishAt",
      "inputs": [],
      "outputs": [
        {
          "name": "",
          "type": "uint256",
          "internalType": "uint256"
        }
      ],
      "stateMutability": "view"
    },
    {
      "type": "function",
      "name": "fulfillRandomness",
      "inputs": [
        {
          "name": "randomness",
          "type": "uint256",
          "internalType": "uint256"
        },
        {
          "name": "dataWithRound",
          "type": "bytes",
          "internalType": "bytes"
        }
      ],
      "outputs": [],
      "stateMutability": "nonpayable"
    },
    {
      "type": "function",
      "name": "getDepositedAmount",
      "inputs": [
        {
          "name": "participant",
          "type": "address",
          "internalType": "address"
        }
      ],
      "outputs": [
        {
          "name": "",
          "type": "uint256",
          "internalType": "uint256"
        }
      ],
      "stateMutability": "view"
    },
    {
      "type": "function",
      "name": "getEligibleParticipants",
      "inputs": [],
      "outputs": [
        {
          "name": "",
          "type": "address[]",
          "internalType": "address[]"
        }
      ],
      "stateMutability": "view"
    },
    {
      "type": "function",
      "name": "getParticipants",
      "inputs": [],
      "outputs": [
        {
          "name": "",
          "type": "address[]",
          "internalType": "address[]"
        }
      ],
      "stateMutability": "view"
    },
    {
      "type": "function",
      "name": "getRandomNumber",
      "inputs": [],
      "outputs": [
        {
          "name": "",
          "type": "uint256",
          "internalType": "uint256"
        }
      ],
      "stateMutability": "view"
    },
    {
      "type": "function",
      "name": "getWinners",
      "inputs": [],
      "outputs": [
        {
          "name": "",
          "type": "address[]",
          "internalType": "address[]"
        }
      ],
      "stateMutability": "view"
    },
    {
      "type": "function",
      "name": "hasMinted",
      "inputs": [
        {
          "name": "",
          "type": "address",
          "internalType": "address"
        }
      ],
      "outputs": [
        {
          "name": "",
          "type": "bool",
          "internalType": "bool"
        }
      ],
      "stateMutability": "view"
    },
    {
      "type": "function",
      "name": "initialize",
      "inputs": [
        {
          "name": "config",
          "type": "tuple",
          "internalType": "struct StructsLibrary.ILotteryBaseConfig",
          "components": [
            {
              "name": "_seller",
              "type": "address",
              "internalType": "address"
            },
            {
              "name": "_gelatoVrfOperator",
              "type": "address",
              "internalType": "address"
            },
            {
              "name": "_blessedOperator",
              "type": "address",
              "internalType": "address"
            },
            {
              "name": "_owner",
              "type": "address",
              "internalType": "address"
            },
            {
              "name": "_ticketAmount",
              "type": "uint256",
              "internalType": "uint256"
            },
            {
              "name": "_ticketPrice",
              "type": "uint256",
              "internalType": "uint256"
            },
            {
              "name": "_finishAt",
              "type": "uint256",
              "internalType": "uint256"
            },
            {
              "name": "_usdcContractAddr",
              "type": "address",
              "internalType": "address"
            },
            {
              "name": "_multisigWalletAddress",
              "type": "address",
              "internalType": "address"
            }
          ]
        }
      ],
      "outputs": [],
      "stateMutability": "nonpayable"
    },
    {
      "type": "function",
      "name": "initialized",
      "inputs": [],
      "outputs": [
        {
          "name": "",
          "type": "bool",
          "internalType": "bool"
        }
      ],
      "stateMutability": "view"
    },
    {
      "type": "function",
      "name": "isParticipantEligible",
      "inputs": [
        {
          "name": "participant",
          "type": "address",
          "internalType": "address"
        }
      ],
      "outputs": [
        {
          "name": "",
          "type": "bool",
          "internalType": "bool"
        }
      ],
      "stateMutability": "view"
    },
    {
      "type": "function",
      "name": "isTrustedForwarder",
      "inputs": [
        {
          "name": "forwarder",
          "type": "address",
          "internalType": "address"
        }
      ],
      "outputs": [
        {
          "name": "",
          "type": "bool",
          "internalType": "bool"
        }
      ],
      "stateMutability": "view"
    },
    {
      "type": "function",
      "name": "isWinner",
      "inputs": [
        {
          "name": "_participant",
          "type": "address",
          "internalType": "address"
        }
      ],
      "outputs": [
        {
          "name": "",
          "type": "bool",
          "internalType": "bool"
        }
      ],
      "stateMutability": "view"
    },
    {
      "type": "function",
      "name": "lotteryState",
      "inputs": [],
      "outputs": [
        {
          "name": "",
          "type": "uint8",
          "internalType": "enum LotteryV1Base.LotteryState"
        }
      ],
      "stateMutability": "view"
    },
    {
      "type": "function",
      "name": "minimumDepositAmount",
      "inputs": [],
      "outputs": [
        {
          "name": "",
          "type": "uint256",
          "internalType": "uint256"
        }
      ],
      "stateMutability": "view"
    },
    {
      "type": "function",
      "name": "mintMyNFT",
      "inputs": [],
      "outputs": [],
      "stateMutability": "nonpayable"
    },
    {
      "type": "function",
      "name": "multisigWalletAddress",
      "inputs": [],
      "outputs": [
        {
          "name": "",
          "type": "address",
          "internalType": "address"
        }
      ],
      "stateMutability": "view"
    },
    {
      "type": "function",
      "name": "nftContractAddr",
      "inputs": [],
      "outputs": [
        {
          "name": "",
          "type": "address",
          "internalType": "address"
        }
      ],
      "stateMutability": "view"
    },
    {
      "type": "function",
      "name": "numberOfTickets",
      "inputs": [],
      "outputs": [
        {
          "name": "",
          "type": "uint256",
          "internalType": "uint256"
        }
      ],
      "stateMutability": "view"
    },
    {
      "type": "function",
      "name": "operatorAddr",
      "inputs": [],
      "outputs": [
        {
          "name": "",
          "type": "address",
          "internalType": "address"
        }
      ],
      "stateMutability": "view"
    },
    {
      "type": "function",
      "name": "owner",
      "inputs": [],
      "outputs": [
        {
          "name": "",
          "type": "address",
          "internalType": "address"
        }
      ],
      "stateMutability": "view"
    },
    {
      "type": "function",
      "name": "randomNumber",
      "inputs": [],
      "outputs": [
        {
          "name": "",
          "type": "uint256",
          "internalType": "uint256"
        }
      ],
      "stateMutability": "view"
    },
    {
      "type": "function",
      "name": "renounceOwnership",
      "inputs": [],
      "outputs": [],
      "stateMutability": "nonpayable"
    },
    {
      "type": "function",
      "name": "requestPending",
      "inputs": [
        {
          "name": "",
          "type": "uint256",
          "internalType": "uint256"
        }
      ],
      "outputs": [
        {
          "name": "",
          "type": "bool",
          "internalType": "bool"
        }
      ],
      "stateMutability": "view"
    },
    {
      "type": "function",
      "name": "requestRandomness",
      "inputs": [],
      "outputs": [],
      "stateMutability": "nonpayable"
    },
    {
      "type": "function",
      "name": "requestedHash",
      "inputs": [
        {
          "name": "",
          "type": "uint256",
          "internalType": "uint256"
        }
      ],
      "outputs": [
        {
          "name": "",
          "type": "bytes32",
          "internalType": "bytes32"
        }
      ],
      "stateMutability": "view"
    },
    {
      "type": "function",
      "name": "selectWinners",
      "inputs": [],
      "outputs": [],
      "stateMutability": "nonpayable"
    },
    {
      "type": "function",
      "name": "seller",
      "inputs": [],
      "outputs": [
        {
          "name": "",
          "type": "address",
          "internalType": "address"
        }
      ],
      "stateMutability": "view"
    },
    {
      "type": "function",
      "name": "sellerWithdraw",
      "inputs": [],
      "outputs": [],
      "stateMutability": "nonpayable"
    },
    {
      "type": "function",
      "name": "setFinishAt",
      "inputs": [
        {
          "name": "_finishAt",
          "type": "uint256",
          "internalType": "uint256"
        }
      ],
      "outputs": [],
      "stateMutability": "nonpayable"
    },
    {
      "type": "function",
      "name": "setMinimumDepositAmount",
      "inputs": [
        {
          "name": "_amount",
          "type": "uint256",
          "internalType": "uint256"
        }
      ],
      "outputs": [],
      "stateMutability": "nonpayable"
    },
    {
      "type": "function",
      "name": "setMultisigWalletAddress",
      "inputs": [
        {
          "name": "_multisigWalletAddress",
          "type": "address",
          "internalType": "address"
        }
      ],
      "outputs": [],
      "stateMutability": "nonpayable"
    },
    {
      "type": "function",
      "name": "setNftContractAddr",
      "inputs": [
        {
          "name": "_nftContractAddr",
          "type": "address",
          "internalType": "address"
        }
      ],
      "outputs": [],
      "stateMutability": "nonpayable"
    },
    {
      "type": "function",
      "name": "setNumberOfTickets",
      "inputs": [
        {
          "name": "_numberOfTickets",
          "type": "uint256",
          "internalType": "uint256"
        }
      ],
      "outputs": [],
      "stateMutability": "nonpayable"
    },
    {
      "type": "function",
      "name": "setSeller",
      "inputs": [
        {
          "name": "_seller",
          "type": "address",
          "internalType": "address"
        }
      ],
      "outputs": [],
      "stateMutability": "nonpayable"
    },
    {
      "type": "function",
      "name": "setUsdcContractAddr",
      "inputs": [
        {
          "name": "_usdcContractAddr",
          "type": "address",
          "internalType": "address"
        }
      ],
      "outputs": [],
      "stateMutability": "nonpayable"
    },
    {
      "type": "function",
      "name": "setWinner",
      "inputs": [
        {
          "name": "_winner",
          "type": "address",
          "internalType": "address"
        }
      ],
      "outputs": [],
      "stateMutability": "nonpayable"
    },
    {
      "type": "function",
      "name": "startLottery",
      "inputs": [],
      "outputs": [],
      "stateMutability": "nonpayable"
    },
    {
      "type": "function",
      "name": "transferNonWinnerDeposits",
      "inputs": [
        {
          "name": "lotteryV2addr",
          "type": "address",
          "internalType": "address"
        }
      ],
      "outputs": [],
      "stateMutability": "nonpayable"
    },
    {
      "type": "function",
      "name": "transferOwnership",
      "inputs": [
        {
          "name": "newOwner",
          "type": "address",
          "internalType": "address"
        }
      ],
      "outputs": [],
      "stateMutability": "nonpayable"
    },
    {
      "type": "function",
      "name": "usdcContractAddr",
      "inputs": [],
      "outputs": [
        {
          "name": "",
          "type": "address",
          "internalType": "address"
        }
      ],
      "stateMutability": "view"
    },
    {
      "type": "function",
      "name": "winnerAddresses",
      "inputs": [
        {
          "name": "",
          "type": "uint256",
          "internalType": "uint256"
        }
      ],
      "outputs": [
        {
          "name": "",
          "type": "address",
          "internalType": "address"
        }
      ],
      "stateMutability": "view"
    },
    {
      "type": "function",
      "name": "winners",
      "inputs": [
        {
          "name": "",
          "type": "address",
          "internalType": "address"
        }
      ],
      "outputs": [
        {
          "name": "",
          "type": "bool",
          "internalType": "bool"
        }
      ],
      "stateMutability": "view"
    },
    {
      "type": "event",
      "name": "LotteryEnded",
      "inputs": [],
      "anonymous": false
    },
    {
      "type": "event",
      "name": "LotteryStarted",
      "inputs": [],
      "anonymous": false
    },
    {
      "type": "event",
      "name": "OwnershipTransferred",
      "inputs": [
        {
          "name": "previousOwner",
          "type": "address",
          "indexed": true,
          "internalType": "address"
        },
        {
          "name": "newOwner",
          "type": "address",
          "indexed": true,
          "internalType": "address"
        }
      ],
      "anonymous": false
    },
    {
      "type": "event",
      "name": "RandomFullfiled",
      "inputs": [
        {
          "name": "number",
          "type": "uint256",
          "indexed": false,
          "internalType": "uint256"
        }
      ],
      "anonymous": false
    },
    {
      "type": "event",
      "name": "RandomRequested",
      "inputs": [
        {
          "name": "requester",
          "type": "address",
          "indexed": true,
          "internalType": "address"
        }
      ],
      "anonymous": false
    },
    {
      "type": "event",
      "name": "RequestedRandomness",
      "inputs": [
        {
          "name": "round",
          "type": "uint256",
          "indexed": false,
          "internalType": "uint256"
        },
        {
          "name": "data",
          "type": "bytes",
          "indexed": false,
          "internalType": "bytes"
        }
      ],
      "anonymous": false
    },
    {
      "type": "event",
      "name": "WinnerSelected",
      "inputs": [
        {
          "name": "winner",
          "type": "address",
          "indexed": true,
          "internalType": "address"
        }
      ],
      "anonymous": false
    },
    {
      "type": "error",
      "name": "OwnableInvalidOwner",
      "inputs": [
        {
          "name": "owner",
          "type": "address",
          "internalType": "address"
        }
      ]
    },
    {
      "type": "error",
      "name": "OwnableUnauthorizedAccount",
      "inputs": [
        {
          "name": "account",
          "type": "address",
          "internalType": "address"
        }
      ]
    }
  ],
  "bytecode": {
    "object": "0x60a06040526002805460ff60a01b1916905534801561001d57600080fd5b5073d8253782c45a12053594b9deb72d8e8ab2fca54c338061005957604051631e4fbdf760e01b81526000600482015260240160405180910390fd5b61006281610074565b506001600160a01b03166080526100c6565b600280546001600160a01b038381166001600160a01b0319831681179093556040519116919082907f8be0079c531659141344cd1fd0a4f28419497f9722a3daafe3b4186f6b6457e090600090a35050565b608051612ca66100e860003960008181610463015261264e0152612ca66000f3fe6080604052600436106102935760003560e01c80638a6723e61161015a578063ccbac9f5116100c1578063e9081ec71161007a578063e9081ec7146107f4578063e99d28661461082a578063f2fde38b1461084a578063f3f18c371461086a578063f8413b071461088a578063fc7e286d1461089f57600080fd5b8063ccbac9f514610754578063d30009bd1461076a578063d9fca7691461078a578063dbdff2c1146107aa578063df15c37e146107bf578063e63c4609146107d457600080fd5b80639d9ca28d116101135780639d9ca28d1461067b578063a61fb2ba146106b4578063aab483d6146106d4578063b3f6b99a146106f4578063b6b55f2514610714578063c4f8f27b1461072757600080fd5b80638a6723e6146105c85780638da5cb5b146105e857806394d898de1461060657806399bd69d61461062657806399dbf4b5146106465780639abdccd11461066657600080fd5b806345745c10116101fe578063683e93e1116101b7578063683e93e1146105005780636939864b146105205780636bd5450a1461054e578063715018a61461057e57806375ce7fff146105935780637cc947d0146105b357600080fd5b806345745c1014610430578063572b6c05146104465780635aa68ac01461049357806360d50da3146104b557806366af746b146104d557806367d3b488146104ea57600080fd5b8063160344e211610250578063160344e2146103815780631a0de74c1461039657806326170480146103ab5780632c23ec8e146103c05780633644c27c146103e057806338e21cce1461040057600080fd5b8063045f9c9714610298578063080c279a146102d557806308551a53146102f95780630bea663714610319578063158ef93e1461033b5780631593a8c71461036c575b600080fd5b3480156102a457600080fd5b506102b86102b33660046126e5565b6108cc565b6040516001600160a01b0390911681526020015b60405180910390f35b3480156102e157600080fd5b506102eb60065481565b6040519081526020016102cc565b34801561030557600080fd5b506004546102b8906001600160a01b031681565b34801561032557600080fd5b506103396103343660046126e5565b6108f6565b005b34801561034757600080fd5b5060025461035c90600160a01b900460ff1681565b60405190151581526020016102cc565b34801561037857600080fd5b5061033961093e565b34801561038d57600080fd5b50610339610984565b3480156103a257600080fd5b50610339610a3d565b3480156103b757600080fd5b50610339610dcb565b3480156103cc57600080fd5b50600f546102b8906001600160a01b031681565b3480156103ec57600080fd5b506103396103fb36600461271a565b610f97565b34801561040c57600080fd5b5061035c61041b36600461271a565b600a6020526000908152604090205460ff1681565b34801561043c57600080fd5b506102eb60075481565b34801561045257600080fd5b5061035c61046136600461271a565b7f00000000000000000000000000000000000000000000000000000000000000006001600160a01b0390811691161490565b34801561049f57600080fd5b506104a8610fc1565b6040516102cc919061273c565b3480156104c157600080fd5b506103396104d036600461271a565b611023565b3480156104e157600080fd5b5061033961104d565b3480156104f657600080fd5b506102eb60115481565b34801561050c57600080fd5b5061033961051b366004612789565b611281565b34801561052c57600080fd5b5060025461054190600160a81b900460ff1681565b6040516102cc91906127c0565b34801561055a57600080fd5b5061035c61056936600461271a565b600c6020526000908152604090205460ff1681565b34801561058a57600080fd5b506103396112e8565b34801561059f57600080fd5b5061035c6105ae3660046126e5565b6112fa565b3480156105bf57600080fd5b5061033961132e565b3480156105d457600080fd5b5061035c6105e336600461271a565b61153c565b3480156105f457600080fd5b506002546001600160a01b03166102b8565b34801561061257600080fd5b5061033961062136600461271a565b61159b565b34801561063257600080fd5b506103396106413660046126e5565b6115c5565b34801561065257600080fd5b506010546102b8906001600160a01b031681565b34801561067257600080fd5b506104a8611668565b34801561068757600080fd5b5061035c61069636600461271a565b6001600160a01b03166000908152600c602052604090205460ff1690565b3480156106c057600080fd5b506003546102b8906001600160a01b031681565b3480156106e057600080fd5b506103396106ef3660046126e5565b6116c8565b34801561070057600080fd5b5061033961070f3660046127e8565b611707565b6103396107223660046126e5565b6118db565b34801561073357600080fd5b506102eb6107423660046126e5565b60016020526000908152604090205481565b34801561076057600080fd5b506102eb60085481565b34801561077657600080fd5b506103396107853660046128d5565b611c51565b34801561079657600080fd5b506103396107a536600461271a565b611d4b565b3480156107b657600080fd5b506102eb611deb565b3480156107cb57600080fd5b506104a8611e42565b3480156107e057600080fd5b506103396107ef36600461271a565b611ea2565b34801561080057600080fd5b506102eb61080f36600461271a565b6001600160a01b03166000908152600b602052604090205490565b34801561083657600080fd5b5061033961084536600461271a565b61213b565b34801561085657600080fd5b5061033961086536600461271a565b612197565b34801561087657600080fd5b506005546102b8906001600160a01b031681565b34801561089657600080fd5b506103396121d5565b3480156108ab57600080fd5b506102eb6108ba36600461271a565b600b6020526000908152604090205481565b600d81815481106108dc57600080fd5b6000918252602090912001546001600160a01b0316905081565b6004546001600160a01b031661090a61228e565b6001600160a01b0316146109395760405162461bcd60e51b815260040161093090612976565b60405180910390fd5b601155565b6004546001600160a01b031661095261228e565b6001600160a01b0316146109785760405162461bcd60e51b815260040161093090612976565b6109826002611281565b565b6004546001600160a01b031661099861228e565b6001600160a01b0316146109be5760405162461bcd60e51b815260040161093090612976565b6000600254600160a81b900460ff1660048111156109de576109de6127aa565b14610a2b5760405162461bcd60e51b815260206004820152601a60248201527f4c6f747465727920697320696e206163746976652073746174650000000000006044820152606401610930565b610a356001611281565b61098261229d565b6004546001600160a01b0316610a5161228e565b6001600160a01b031614610a775760405162461bcd60e51b815260040161093090612976565b600060075411610ac95760405162461bcd60e51b815260206004820152601b60248201527f4e6f207469636b657473206c65667420746f20616c6c6f6361746500000000006044820152606401610930565b60095460075410610bb45760005b600954811015610b7a57600060098281548110610af657610af66129b8565b6000918252602090912001546001600160a01b03169050610b2f816001600160a01b03166000908152600c602052604090205460ff1690565b610b7157610b3c81611d4b565b6040516001600160a01b038216907f1d4c260f1824cd028e6c9e6e31c3a0b94f2513e7a641113ec759d382f9bdd5a190600090a25b50600101610ad7565b5060005b600954811015610bae57610b918161234e565b60078054906000610ba1836129e4565b9091555050600101610b7e565b50610d96565b60005b600954811015610ccf57600954600090610bd29083906129fb565b600854610bdf9190612a2a565b610be99083612a3e565b9050600060098281548110610c0057610c006129b8565b600091825260209091200154600980546001600160a01b0390921692509084908110610c2e57610c2e6129b8565b600091825260209091200154600980546001600160a01b039092169184908110610c5a57610c5a6129b8565b9060005260206000200160006101000a8154816001600160a01b0302191690836001600160a01b031602179055508060098481548110610c9c57610c9c6129b8565b600091825260209091200180546001600160a01b0319166001600160a01b03929092169190911790555050600101610bb7565b5060005b600754811015610d9457600060098281548110610cf257610cf26129b8565b6000918252602090912001546001600160a01b03169050610d2b816001600160a01b03166000908152600c602052604090205460ff1690565b610d8b57610d3881611d4b565b610d418261234e565b60078054906000610d51836129e4565b90915550506040516001600160a01b038216907f1d4c260f1824cd028e6c9e6e31c3a0b94f2513e7a641113ec759d382f9bdd5a190600090a25b50600101610cd3565b505b600754600003610982576040517f9c89a6ed7228533196a3f962acc80d61a9c53bdea6b910741bf754f5aaa7569e90600090a1565b600a6000610dd761228e565b6001600160a01b0316815260208101919091526040016000205460ff1615610e365760405162461bcd60e51b815260206004820152601260248201527113919508185b1c9958591e481b5a5b9d195960721b6044820152606401610930565b60028054600160a81b900460ff166004811115610e5557610e556127aa565b14610ea25760405162461bcd60e51b815260206004820152601860248201527f4c6f7474657279206973206e6f7420656e6465642079657400000000000000006044820152606401610930565b610ead61069661228e565b610ef25760405162461bcd60e51b815260206004820152601660248201527521b0b63632b91034b9903737ba1030903bb4b73732b960511b6044820152606401610930565b6001600a6000610f0061228e565b6001600160a01b0390811682526020820192909252604001600020805460ff191692151592909217909155600f5416636b8f60f6610f3c61228e565b6040516001600160e01b031960e084901b1681526001600160a01b039091166004820152602401600060405180830381600087803b158015610f7d57600080fd5b505af1158015610f91573d6000803e3d6000fd5b50505050565b610f9f61245c565b600f80546001600160a01b0319166001600160a01b0392909216919091179055565b6060600e80548060200260200160405190810160405280929190818152602001828054801561101957602002820191906000526020600020905b81546001600160a01b03168152600190910190602001808311610ffb575b5050505050905090565b61102b61245c565b600380546001600160a01b0319166001600160a01b0392909216919091179055565b6004546001600160a01b031661106161228e565b6001600160a01b0316146110875760405162461bcd60e51b815260040161093090612976565b60028054600160a81b900460ff1660048111156110a6576110a66127aa565b146110e75760405162461bcd60e51b8152602060048201526011602482015270131bdd1d195c9e481b9bdd08195b991959607a1b6044820152606401610930565b6000805b600d54811015611160576000600d828154811061110a5761110a6129b8565b60009182526020808320909101546001600160a01b0316808352600b90915260409091205490915061113c9084612a3e565b6001600160a01b039091166000908152600b602052604081205591506001016110eb565b5060006064611170836005612a51565b61117a9190612a68565b9050600061118882846129fb565b60105460035460405163a9059cbb60e01b81526001600160a01b03918216600482015260248101869052929350169063a9059cbb906044016020604051808303816000875af11580156111df573d6000803e3d6000fd5b505050506040513d601f19601f820116820180604052508101906112039190612a7c565b506010546004805460405163a9059cbb60e01b81526001600160a01b0391821692810192909252602482018490529091169063a9059cbb906044016020604051808303816000875af115801561125d573d6000803e3d6000fd5b505050506040513d601f19601f82011682018060405250810190610f919190612a7c565b6004546001600160a01b031661129561228e565b6001600160a01b0316146112bb5760405162461bcd60e51b815260040161093090612976565b6002805482919060ff60a81b1916600160a81b8360048111156112e0576112e06127aa565b021790555050565b6112f061245c565b61098260006124ba565b6000818154811061130a57600080fd5b9060005260206000209060209182820401919006915054906101000a900460ff1681565b6001600254600160a81b900460ff16600481111561134e5761134e6127aa565b0361139b5760405162461bcd60e51b815260206004820152601b60248201527f4c6f74746572792069732063757272656e746c792061637469766500000000006044820152606401610930565b600c60006113a761228e565b6001600160a01b0316815260208101919091526040016000205460ff16156114115760405162461bcd60e51b815260206004820152601760248201527f57696e6e6572732063616e6e6f742077697468647261770000000000000000006044820152606401610930565b6000600b600061141f61228e565b6001600160a01b03166001600160a01b03168152602001908152602001600020549050600081116114895760405162461bcd60e51b81526020600482015260146024820152734e6f2066756e647320746f20776974686472617760601b6044820152606401610930565b6000600b600061149761228e565b6001600160a01b0390811682526020820192909252604001600020919091556010541663a9059cbb6114c761228e565b6040516001600160e01b031960e084901b1681526001600160a01b039091166004820152602481018490526044016020604051808303816000875af1158015611514573d6000803e3d6000fd5b505050506040513d601f19601f820116820180604052508101906115389190612a7c565b5050565b6000805b60095481101561159257826001600160a01b031660098281548110611567576115676129b8565b6000918252602090912001546001600160a01b03160361158a5750600192915050565b600101611540565b50600092915050565b6115a361245c565b601080546001600160a01b0319166001600160a01b0392909216919091179055565b6004546001600160a01b03166115d961228e565b6001600160a01b0316146115ff5760405162461bcd60e51b815260040161093090612976565b600081116116635760405162461bcd60e51b815260206004820152602b60248201527f4e756d626572206f66207469636b657473206d7573742062652067726561746560448201526a72207468616e207a65726f60a81b6064820152608401610930565b600755565b60606009805480602002602001604051908101604052809291908181526020018280548015611019576020028201919060005260206000209081546001600160a01b03168152600190910190602001808311610ffb575050505050905090565b6004546001600160a01b03166116dc61228e565b6001600160a01b0316146117025760405162461bcd60e51b815260040161093090612976565b600655565b6005546001600160a01b031633146117515760405162461bcd60e51b815260206004820152600d60248201526c37b7363c9037b832b930ba37b960991b6044820152606401610930565b600061175f82840184612ac6565b915050600080828060200190518101906117799190612b74565b915091506000858560405161178f929190612bf7565b60408051918290039091206000858152600160205291822054825491935083149190859081106117c1576117c16129b8565b90600052602060002090602091828204019190069054906101000a900460ff1661182d5760405162461bcd60e51b815260206004820152601c60248201527f726571756573742066756c66696c6c6564206f72206d697373696e67000000006044820152606401610930565b80156118d15760408051602081018a905230918101919091524660608201526080810185905260a0016040516020818303038152906040528051906020012060001c975061187c88858561250c565b6000808581548110611890576118906129b8565b90600052602060002090602091828204019190066101000a81548160ff02191690831515021790555060016000858152602001908152602001600020600090555b5050505050505050565b6001600254600160a81b900460ff1660048111156118fb576118fb6127aa565b036119485760405162461bcd60e51b815260206004820152601b60248201527f4c6f74746572792069732063757272656e746c792061637469766500000000006044820152606401610930565b42601154116119a35760405162461bcd60e51b815260206004820152602160248201527f4465706f7369747320617265206e6f7420706f737369626c6520616e796d6f726044820152606560f81b6064820152608401610930565b6010546001600160a01b03166119fb5760405162461bcd60e51b815260206004820152601d60248201527f5553444320636f6e74726163742061646472657373206e6f74207365740000006044820152606401610930565b60008111611a3b5760405162461bcd60e51b815260206004820152600d60248201526c139bc8199d5b991cc81cd95b9d609a1b6044820152606401610930565b60105481906001600160a01b031663dd62ed3e611a5661228e565b6040516001600160e01b031960e084901b1681526001600160a01b039091166004820152306024820152604401602060405180830381865afa158015611aa0573d6000803e3d6000fd5b505050506040513d601f19601f82011682018060405250810190611ac49190612c07565b1015611b0b5760405162461bcd60e51b8152602060048201526016602482015275496e73756666696369656e7420616c6c6f77616e636560501b6044820152606401610930565b6010546001600160a01b03166323b872dd611b2461228e565b6040516001600160e01b031960e084901b1681526001600160a01b039091166004820152306024820152604481018490526064016020604051808303816000875af1158015611b77573d6000803e3d6000fd5b505050506040513d601f19601f82011682018060405250810190611b9b9190612a7c565b50600b6000611ba861228e565b6001600160a01b03166001600160a01b0316815260200190815260200160002054600003611c0d57600e611bda61228e565b81546001810183556000928352602090922090910180546001600160a01b0319166001600160a01b039092169190911790555b80600b6000611c1a61228e565b6001600160a01b03166001600160a01b031681526020019081526020016000206000828254611c499190612a3e565b909155505050565b600254600160a01b900460ff1615611ca15760405162461bcd60e51b8152602060048201526013602482015272105b1c9958591e481a5b9a5d1a585b1a5e9959606a1b6044820152606401610930565b6040810151600480546001600160a01b039283166001600160a01b0319918216179091556020830151600580549190931691161790556060810151611ce5906124ba565b608081015160075560a081015160065560c081015160115560e0810151601080546001600160a01b03199081166001600160a01b03938416179091556101009092015160038054909316911617905560028054600160a01b60ff60a01b19909116179055565b6004546001600160a01b0316611d5f61228e565b6001600160a01b031614611d855760405162461bcd60e51b815260040161093090612976565b6001600160a01b03166000818152600c60205260408120805460ff19166001908117909155600d805491820181559091527fd7b6990105719101dabeb77144f2a3385c8033acd3af97e9423a695e81ad1eb50180546001600160a01b0319169091179055565b60004244611df761228e565b6040805160208101949094528301919091526bffffffffffffffffffffffff19606091821b16908201526074016040516020818303038152906040528051906020012060001c905090565b6060600d805480602002602001604051908101604052809291908181526020018280548015611019576020028201919060005260206000209081546001600160a01b03168152600190910190602001808311610ffb575050505050905090565b6004546001600160a01b0316611eb661228e565b6001600160a01b031614611edc5760405162461bcd60e51b815260040161093090612976565b60005b600e54811015611538576000600b6000600e8481548110611f0257611f026129b8565b60009182526020808320909101546001600160a01b03168352820192909252604001812054600e8054919350600b9183919086908110611f4457611f446129b8565b6000918252602080832091909101546001600160a01b039081168452908301939093526040918201902092909255601054915163a9059cbb60e01b815285821660048201526024810184905291169063a9059cbb906044016020604051808303816000875af1158015611fbb573d6000803e3d6000fd5b505050506040513d601f19601f82011682018060405250810190611fdf9190612a7c565b50826001600160a01b03166350f3dbec600e8481548110612002576120026129b8565b60009182526020909120015460405160e083901b6001600160e01b03191681526001600160a01b03909116600482015260248101849052604401600060405180830381600087803b15801561205657600080fd5b505af115801561206a573d6000803e3d6000fd5b5050600e5461207d9250600191506129fb565b8210156120ff57600e8054612094906001906129fb565b815481106120a4576120a46129b8565b600091825260209091200154600e80546001600160a01b0390921691849081106120d0576120d06129b8565b9060005260206000200160006101000a8154816001600160a01b0302191690836001600160a01b031602179055505b600e80548061211057612110612c20565b600082815260209020810160001990810180546001600160a01b031916905501905550600101611edf565b6004546001600160a01b031661214f61228e565b6001600160a01b0316146121755760405162461bcd60e51b815260040161093090612976565b600480546001600160a01b0319166001600160a01b0392909216919091179055565b61219f61245c565b6001600160a01b0381166121c957604051631e4fbdf760e01b815260006004820152602401610930565b6121d2816124ba565b50565b6004546001600160a01b03166121e961228e565b6001600160a01b03161461220f5760405162461bcd60e51b815260040161093090612976565b61224361221a61228e565b604080516001600160a01b03909216602083015201604051602081830303815290604052612549565b5061224c611deb565b60085561225761228e565b6001600160a01b03167fd802e7c7f1646e3318c03abed1e468bdf913f45331a68dc912a0d645eb646a4260405160405180910390a2565b600061229861264a565b905090565b60005b600e548110156121d2576000600b6000600e84815481106122c3576122c36129b8565b60009182526020808320909101546001600160a01b031683528201929092526040019020546006549091508110612345576009600e8381548110612309576123096129b8565b60009182526020808320909101548354600181018555938352912090910180546001600160a01b0319166001600160a01b039092169190911790555b506001016122a0565b60095481106123955760405162461bcd60e51b8152602060048201526013602482015272496e646578206f7574206f6620626f756e647360681b6044820152606401610930565b6009546123a4906001906129fb565b81101561242657600980546123bb906001906129fb565b815481106123cb576123cb6129b8565b600091825260209091200154600980546001600160a01b0390921691839081106123f7576123f76129b8565b9060005260206000200160006101000a8154816001600160a01b0302191690836001600160a01b031602179055505b600980548061243757612437612c20565b600082815260209020810160001990810180546001600160a01b031916905501905550565b61246461228e565b6001600160a01b031661247f6002546001600160a01b031690565b6001600160a01b0316146109825761249561228e565b60405163118cdaa760e01b81526001600160a01b039091166004820152602401610930565b600280546001600160a01b038381166001600160a01b0319831681179093556040519116919082907f8be0079c531659141344cd1fd0a4f28419497f9722a3daafe3b4186f6b6457e090600090a35050565b60088390556040518381527fa2353d33775668d31add0688b8ed09ca3a91dc8129126fcdbcbda3a887db60db9060200160405180910390a1505050565b600080546001808201808455838052919290918390811061256c5761256c6129b8565b90600052602060002090602091828204019190066101000a81548160ff021916908315150217905550600081836040516020016125aa929190612c36565b604051602081830303815290604052905060006125c561268e565b9050600081836040516020016125dc929190612c36565b60408051601f198184030181528282528051602080830191909120600089815260019092529290208290559250907fd91fc3685b930310b008ec37d2334870cab88a023ed8cc628a2e2ccd4e55d202906126399085908790612c36565b60405180910390a150505050919050565b60007f00000000000000000000000000000000000000000000000000000000000000006001600160a01b03163303612689575060131936013560601c90565b503390565b60008061269f6364e62127426129fb565b905060006126ae600383612a68565b6126b9906001612a3e565b9050466001146126d3576126ce816001612a3e565b6126de565b6126de816004612a3e565b9250505090565b6000602082840312156126f757600080fd5b5035919050565b80356001600160a01b038116811461271557600080fd5b919050565b60006020828403121561272c57600080fd5b612735826126fe565b9392505050565b6020808252825182820181905260009190848201906040850190845b8181101561277d5783516001600160a01b031683529284019291840191600101612758565b50909695505050505050565b60006020828403121561279b57600080fd5b81356005811061273557600080fd5b634e487b7160e01b600052602160045260246000fd5b60208101600583106127e257634e487b7160e01b600052602160045260246000fd5b91905290565b6000806000604084860312156127fd57600080fd5b83359250602084013567ffffffffffffffff8082111561281c57600080fd5b818601915086601f83011261283057600080fd5b81358181111561283f57600080fd5b87602082850101111561285157600080fd5b6020830194508093505050509250925092565b634e487b7160e01b600052604160045260246000fd5b604051610120810167ffffffffffffffff8111828210171561289e5761289e612864565b60405290565b604051601f8201601f1916810167ffffffffffffffff811182821017156128cd576128cd612864565b604052919050565b600061012082840312156128e857600080fd5b6128f061287a565b6128f9836126fe565b8152612907602084016126fe565b6020820152612918604084016126fe565b6040820152612929606084016126fe565b60608201526080830135608082015260a083013560a082015260c083013560c082015261295860e084016126fe565b60e082015261010061296b8185016126fe565b908201529392505050565b60208082526022908201527f4f6e6c792073656c6c65722063616e2063616c6c20746869732066756e63746960408201526137b760f11b606082015260800190565b634e487b7160e01b600052603260045260246000fd5b634e487b7160e01b600052601160045260246000fd5b6000816129f3576129f36129ce565b506000190190565b81810381811115612a0e57612a0e6129ce565b92915050565b634e487b7160e01b600052601260045260246000fd5b600082612a3957612a39612a14565b500690565b80820180821115612a0e57612a0e6129ce565b8082028115828204841417612a0e57612a0e6129ce565b600082612a7757612a77612a14565b500490565b600060208284031215612a8e57600080fd5b8151801515811461273557600080fd5b600067ffffffffffffffff821115612ab857612ab8612864565b50601f01601f191660200190565b60008060408385031215612ad957600080fd5b82359150602083013567ffffffffffffffff811115612af757600080fd5b8301601f81018513612b0857600080fd5b8035612b1b612b1682612a9e565b6128a4565b818152866020838501011115612b3057600080fd5b816020840160208301376000602083830101528093505050509250929050565b60005b83811015612b6b578181015183820152602001612b53565b50506000910152565b60008060408385031215612b8757600080fd5b82519150602083015167ffffffffffffffff811115612ba557600080fd5b8301601f81018513612bb657600080fd5b8051612bc4612b1682612a9e565b818152866020838501011115612bd957600080fd5b612bea826020830160208601612b50565b8093505050509250929050565b8183823760009101908152919050565b600060208284031215612c1957600080fd5b5051919050565b634e487b7160e01b600052603160045260246000fd5b8281526040602082015260008251806040840152612c5b816060850160208701612b50565b601f01601f191691909101606001939250505056fea26469706673582212203f15b65a99173137186d475dddd655715dc71635acc7135b7b9e29e77b65482864736f6c63430008190033",
    "linkReferences": {}
  },
  "methodIdentifiers": {
    "buyerWithdraw()": "7cc947d0",
    "changeLotteryState(uint8)": "683e93e1",
    "deposit(uint256)": "b6b55f25",
    "deposits(address)": "fc7e286d",
    "endLottery()": "1593a8c7",
    "finishAt()": "67d3b488",
    "fulfillRandomness(uint256,bytes)": "b3f6b99a",
    "getDepositedAmount(address)": "e9081ec7",
    "getEligibleParticipants()": "9abdccd1",
    "getParticipants()": "5aa68ac0",
    "getRandomNumber()": "dbdff2c1",
    "getWinners()": "df15c37e",
    "hasMinted(address)": "38e21cce",
    "initialize((address,address,address,address,uint256,uint256,uint256,address,address))": "d30009bd",
    "initialized()": "158ef93e",
    "isParticipantEligible(address)": "8a6723e6",
    "isTrustedForwarder(address)": "572b6c05",
    "isWinner(address)": "9d9ca28d",
    "lotteryState()": "6939864b",
    "minimumDepositAmount()": "080c279a",
    "mintMyNFT()": "26170480",
    "multisigWalletAddress()": "a61fb2ba",
    "nftContractAddr()": "2c23ec8e",
    "numberOfTickets()": "45745c10",
    "operatorAddr()": "f3f18c37",
    "owner()": "8da5cb5b",
    "randomNumber()": "ccbac9f5",
    "renounceOwnership()": "715018a6",
    "requestPending(uint256)": "75ce7fff",
    "requestRandomness()": "f8413b07",
    "requestedHash(uint256)": "c4f8f27b",
    "selectWinners()": "1a0de74c",
    "seller()": "08551a53",
    "sellerWithdraw()": "66af746b",
    "setFinishAt(uint256)": "0bea6637",
    "setMinimumDepositAmount(uint256)": "aab483d6",
    "setMultisigWalletAddress(address)": "60d50da3",
    "setNftContractAddr(address)": "3644c27c",
    "setNumberOfTickets(uint256)": "99bd69d6",
    "setSeller(address)": "e99d2866",
    "setUsdcContractAddr(address)": "94d898de",
    "setWinner(address)": "d9fca769",
    "startLottery()": "160344e2",
    "transferNonWinnerDeposits(address)": "e63c4609",
    "transferOwnership(address)": "f2fde38b",
    "usdcContractAddr()": "99dbf4b5",
    "winnerAddresses(uint256)": "045f9c97",
    "winners(address)": "6bd5450a"
  },
  "id": 5
}