{"abi":[{"type":"function","name":"buyerWithdraw","inputs":[],"outputs":[],"stateMutability":"nonpayable"},{"type":"function","name":"changeLotteryState","inputs":[{"name":"_newState","type":"uint8","internalType":"enum SaleBase.LotteryState"}],"outputs":[],"stateMutability":"nonpayable"},{"type":"function","name":"deposit","inputs":[{"name":"amount","type":"uint256","internalType":"uint256"}],"outputs":[],"stateMutability":"nonpayable"},{"type":"function","name":"deposits","inputs":[{"name":"","type":"address","internalType":"address"}],"outputs":[{"name":"","type":"uint256","internalType":"uint256"}],"stateMutability":"view"},{"type":"function","name":"endLottery","inputs":[],"outputs":[],"stateMutability":"nonpayable"},{"type":"function","name":"fulfillRandomness","inputs":[{"name":"randomness","type":"uint256","internalType":"uint256"},{"name":"dataWithRound","type":"bytes","internalType":"bytes"}],"outputs":[],"stateMutability":"nonpayable"},{"type":"function","name":"getDepositedAmount","inputs":[{"name":"participant","type":"address","internalType":"address"}],"outputs":[{"name":"","type":"uint256","internalType":"uint256"}],"stateMutability":"view"},{"type":"function","name":"getParticipants","inputs":[],"outputs":[{"name":"","type":"address[]","internalType":"address[]"}],"stateMutability":"view"},{"type":"function","name":"getWinners","inputs":[],"outputs":[{"name":"","type":"address[]","internalType":"address[]"}],"stateMutability":"view"},{"type":"function","name":"hasMinted","inputs":[{"name":"","type":"address","internalType":"address"}],"outputs":[{"name":"","type":"bool","internalType":"bool"}],"stateMutability":"view"},{"type":"function","name":"initialize","inputs":[{"name":"config","type":"tuple","internalType":"struct StructsLibrary.ILotteryV1BaseConfig","components":[{"name":"_gelatoVrfOperator","type":"address","internalType":"address"},{"name":"_blessedOperator","type":"address","internalType":"address"},{"name":"_owner","type":"address","internalType":"address"},{"name":"_ticketAmount","type":"uint256","internalType":"uint256"},{"name":"_ticketPrice","type":"uint256","internalType":"uint256"},{"name":"_usdcContractAddr","type":"address","internalType":"address"},{"name":"_nftContractAddr","type":"address","internalType":"address"},{"name":"_multisigWalletAddress","type":"address","internalType":"address"},{"name":"_prevPhaseContractAddr","type":"address","internalType":"address"}]}],"outputs":[],"stateMutability":"nonpayable"},{"type":"function","name":"isTrustedForwarder","inputs":[{"name":"forwarder","type":"address","internalType":"address"}],"outputs":[{"name":"","type":"bool","internalType":"bool"}],"stateMutability":"view"},{"type":"function","name":"isWinner","inputs":[{"name":"_participant","type":"address","internalType":"address"}],"outputs":[{"name":"","type":"bool","internalType":"bool"}],"stateMutability":"view"},{"type":"function","name":"lotteryState","inputs":[],"outputs":[{"name":"","type":"uint8","internalType":"enum SaleBase.LotteryState"}],"stateMutability":"view"},{"type":"function","name":"mintMyNFT","inputs":[],"outputs":[],"stateMutability":"nonpayable"},{"type":"function","name":"multisigWalletAddress","inputs":[],"outputs":[{"name":"","type":"address","internalType":"address"}],"stateMutability":"view"},{"type":"function","name":"nftContractAddr","inputs":[],"outputs":[{"name":"","type":"address","internalType":"address"}],"stateMutability":"view"},{"type":"function","name":"numberOfTickets","inputs":[],"outputs":[{"name":"","type":"uint256","internalType":"uint256"}],"stateMutability":"view"},{"type":"function","name":"operatorAddr","inputs":[],"outputs":[{"name":"","type":"address","internalType":"address"}],"stateMutability":"view"},{"type":"function","name":"owner","inputs":[],"outputs":[{"name":"","type":"address","internalType":"address"}],"stateMutability":"view"},{"type":"function","name":"randomNumber","inputs":[],"outputs":[{"name":"","type":"uint256","internalType":"uint256"}],"stateMutability":"view"},{"type":"function","name":"renounceOwnership","inputs":[],"outputs":[],"stateMutability":"nonpayable"},{"type":"function","name":"requestPending","inputs":[{"name":"","type":"uint256","internalType":"uint256"}],"outputs":[{"name":"","type":"bool","internalType":"bool"}],"stateMutability":"view"},{"type":"function","name":"requestRandomness","inputs":[],"outputs":[],"stateMutability":"nonpayable"},{"type":"function","name":"requestedHash","inputs":[{"name":"","type":"uint256","internalType":"uint256"}],"outputs":[{"name":"","type":"bytes32","internalType":"bytes32"}],"stateMutability":"view"},{"type":"function","name":"selectWinners","inputs":[],"outputs":[],"stateMutability":"nonpayable"},{"type":"function","name":"seller","inputs":[],"outputs":[{"name":"","type":"address","internalType":"address"}],"stateMutability":"view"},{"type":"function","name":"sellerWithdraw","inputs":[],"outputs":[],"stateMutability":"nonpayable"},{"type":"function","name":"setSeller","inputs":[{"name":"_seller","type":"address","internalType":"address"}],"outputs":[],"stateMutability":"nonpayable"},{"type":"function","name":"startLottery","inputs":[],"outputs":[],"stateMutability":"nonpayable"},{"type":"function","name":"ticketPrice","inputs":[],"outputs":[{"name":"","type":"uint256","internalType":"uint256"}],"stateMutability":"view"},{"type":"function","name":"transferNonWinnerDeposits","inputs":[{"name":"lotteryV2addr","type":"address","internalType":"address"}],"outputs":[],"stateMutability":"nonpayable"},{"type":"function","name":"transferOwnership","inputs":[{"name":"newOwner","type":"address","internalType":"address"}],"outputs":[],"stateMutability":"nonpayable"},{"type":"function","name":"usdcContractAddr","inputs":[],"outputs":[{"name":"","type":"address","internalType":"address"}],"stateMutability":"view"},{"type":"function","name":"winnerAddresses","inputs":[{"name":"","type":"uint256","internalType":"uint256"}],"outputs":[{"name":"","type":"address","internalType":"address"}],"stateMutability":"view"},{"type":"function","name":"winners","inputs":[{"name":"","type":"address","internalType":"address"}],"outputs":[{"name":"","type":"bool","internalType":"bool"}],"stateMutability":"view"},{"type":"event","name":"BuyerDeposited","inputs":[{"name":"buyer","type":"address","indexed":true,"internalType":"address"},{"name":"amount","type":"uint256","indexed":true,"internalType":"uint256"}],"anonymous":false},{"type":"event","name":"BuyerWithdrew","inputs":[{"name":"buyer","type":"address","indexed":true,"internalType":"address"},{"name":"amount","type":"uint256","indexed":true,"internalType":"uint256"}],"anonymous":false},{"type":"event","name":"DepositsReturned","inputs":[{"name":"returnedDepositsCount","type":"uint256","indexed":false,"internalType":"uint256"}],"anonymous":false},{"type":"event","name":"Initialized","inputs":[{"name":"version","type":"uint64","indexed":false,"internalType":"uint64"}],"anonymous":false},{"type":"event","name":"LotteryEnded","inputs":[],"anonymous":false},{"type":"event","name":"LotteryStarted","inputs":[],"anonymous":false},{"type":"event","name":"OwnershipTransferred","inputs":[{"name":"previousOwner","type":"address","indexed":true,"internalType":"address"},{"name":"newOwner","type":"address","indexed":true,"internalType":"address"}],"anonymous":false},{"type":"event","name":"RandomFulfilled","inputs":[{"name":"number","type":"uint256","indexed":false,"internalType":"uint256"}],"anonymous":false},{"type":"event","name":"RandomRequested","inputs":[{"name":"requester","type":"address","indexed":true,"internalType":"address"}],"anonymous":false},{"type":"event","name":"RequestedRandomness","inputs":[{"name":"round","type":"uint256","indexed":false,"internalType":"uint256"},{"name":"data","type":"bytes","indexed":false,"internalType":"bytes"}],"anonymous":false},{"type":"event","name":"WinnerSelected","inputs":[{"name":"winner","type":"address","indexed":true,"internalType":"address"}],"anonymous":false},{"type":"error","name":"InvalidInitialization","inputs":[]},{"type":"error","name":"NotInitializing","inputs":[]},{"type":"error","name":"OwnableInvalidOwner","inputs":[{"name":"owner","type":"address","internalType":"address"}]},{"type":"error","name":"OwnableUnauthorizedAccount","inputs":[{"name":"account","type":"address","internalType":"address"}]}],"bytecode":{"object":"0x60a060405234801561001057600080fd5b5073d8253782c45a12053594b9deb72d8e8ab2fca54c338061004c57604051631e4fbdf760e01b81526000600482015260240160405180910390fd5b6100558161006f565b506001600160a01b031660805261006a6100bf565b610171565b600080546001600160a01b038381166001600160a01b0319831681178455604051919092169283917f8be0079c531659141344cd1fd0a4f28419497f9722a3daafe3b4186f6b6457e09190a35050565b7ff0c57e16840df040f15088dc2f81fe391c3923bec73e23a9662efc9c229c6a00805468010000000000000000900460ff161561010f5760405163f92ee8a960e01b815260040160405180910390fd5b80546001600160401b039081161461016e5780546001600160401b0319166001600160401b0390811782556040519081527fc7f505b2f371ae2175ee4913f4499e1f2633a7b5936321eed1cdaeb6115181d29060200160405180910390a15b50565b608051612a176101936000396000818161030f01526123550152612a176000f3fe608060405234801561001057600080fd5b506004361061021c5760003560e01c806375ce7fff11610125578063ccbac9f5116100ad578063e99d28661161007c578063e99d2866146104cc578063f2fde38b146104df578063f3f18c37146104f2578063f8413b0714610505578063fc7e286d1461050d57600080fd5b8063ccbac9f51461047f578063df15c37e14610488578063e63c460914610490578063e9081ec7146104a357600080fd5b80639d9ca28d116100f45780639d9ca28d146103fa578063a61fb2ba14610426578063b3f6b99a14610439578063b6b55f251461044c578063c4f8f27b1461045f57600080fd5b806375ce7fff146103bb5780637cc947d0146103ce5780638da5cb5b146103d657806399dbf4b5146103e757600080fd5b806338e21cce116101a857806366af746b1161017757806366af746b14610354578063683e93e11461035c5780636939864b1461036f5780636bd5450a14610390578063715018a6146103b357600080fd5b806338e21cce146102c357806345745c10146102f6578063572b6c05146102ff5780635aa68ac01461033f57600080fd5b80631593a8c7116101ef5780631593a8c714610290578063160344e2146102985780631a0de74c146102a057806326170480146102a85780632c23ec8e146102b057600080fd5b8063045f9c971461022157806308551a531461025157806310175080146102645780631209b1f614610279575b600080fd5b61023461022f36600461241e565b61052d565b6040516001600160a01b0390911681526020015b60405180910390f35b600254610234906001600160a01b031681565b6102776102723660046124c4565b610557565b005b61028260045481565b604051908152602001610248565b6102776106fa565b610277610772565b61027761084d565b610277610d17565b600a54610234906001600160a01b031681565b6102e66102d136600461256c565b60056020526000908152604090205460ff1681565b6040519015158152602001610248565b61028260035481565b6102e661030d36600461256c565b7f00000000000000000000000000000000000000000000000000000000000000006001600160a01b0390811691161490565b610347610ede565b604051610248919061258e565b610277610f40565b61027761036a3660046125db565b611171565b60005461038390600160a01b900460ff1681565b6040516102489190612612565b6102e661039e36600461256c565b60076020526000908152604090205460ff1681565b6102776111d8565b6102e66103c936600461241e565b6111ec565b610277611220565b6000546001600160a01b0316610234565b600b54610234906001600160a01b031681565b6102e661040836600461256c565b6001600160a01b031660009081526007602052604090205460ff1690565b600154610234906001600160a01b031681565b61027761044736600461263a565b61143c565b61027761045a36600461241e565b611616565b61028261046d36600461241e565b600d6020526000908152604090205481565b610282600f5481565b6103476119e5565b61027761049e36600461256c565b611a45565b6102826104b136600461256c565b6001600160a01b031660009081526006602052604090205490565b6102776104da36600461256c565b611c2b565b6102776104ed36600461256c565b611c87565b600e54610234906001600160a01b031681565b610277611cc2565b61028261051b36600461256c565b60066020526000908152604090205481565b6008818154811061053d57600080fd5b6000918252602090912001546001600160a01b0316905081565b7ff0c57e16840df040f15088dc2f81fe391c3923bec73e23a9662efc9c229c6a008054600160401b810460ff16159067ffffffffffffffff1660008115801561059d5750825b905060008267ffffffffffffffff1660011480156105ba5750303b155b9050811580156105c8575080155b156105e65760405163f92ee8a960e01b815260040160405180910390fd5b845467ffffffffffffffff19166001178555831561061057845460ff60401b1916600160401b1785555b6020860151600280546001600160a01b039283166001600160a01b0319918216179091558751600e8054919093169116179055604086015161065190611de5565b6060860151600355608086015160045560a0860151600b80546001600160a01b039283166001600160a01b03199182161790915560c0880151600a805491841691831691909117905560e08801516001805491909316911617905583156106f257845460ff60401b19168555604051600181527fc7f505b2f371ae2175ee4913f4499e1f2633a7b5936321eed1cdaeb6115181d29060200160405180910390a15b505050505050565b6002546001600160a01b031661070e611e35565b6001600160a01b03161461073d5760405162461bcd60e51b8152600401610734906126b6565b60405180910390fd5b6107476002611171565b6040517f9c89a6ed7228533196a3f962acc80d61a9c53bdea6b910741bf754f5aaa7569e90600090a1565b6002546001600160a01b0316610786611e35565b6001600160a01b0316146107ac5760405162461bcd60e51b8152600401610734906126b6565b60008054600160a01b900460ff1660028111156107cb576107cb6125fc565b146108185760405162461bcd60e51b815260206004820152601760248201527f53616c6520697320696e206163746976652073746174650000000000000000006044820152606401610734565b6108226001611171565b6040517fd029c7c68d943f92286a7825fa6aa2deefa1eee46cee6c91b7e483fd06d27baf90600090a1565b6002546001600160a01b0316610861611e35565b6001600160a01b0316146108875760405162461bcd60e51b8152600401610734906126b6565b6002600054600160a01b900460ff1660028111156108a7576108a76125fc565b146108c45760405162461bcd60e51b8152600401610734906126f8565b6000600f54116109165760405162461bcd60e51b815260206004820152601e60248201527f52616e646f6d206e756d626572206973206e6f742067656e65726174656400006044820152606401610734565b6000600354116109685760405162461bcd60e51b815260206004820152601b60248201527f4e6f207469636b657473206c65667420746f20616c6c6f6361746500000000006044820152606401610734565b6009546003548111610a2f5760005b81811015610a185760006009828154811061099457610994612727565b6000918252602090912001546001600160a01b031690506109cd816001600160a01b031660009081526007602052604090205460ff1690565b610a0f576109da81611e44565b6040516001600160a01b038216907f1d4c260f1824cd028e6c9e6e31c3a0b94f2513e7a641113ec759d382f9bdd5a190600090a25b50600101610977565b50610a25600960006123ec565b6000600355610cc5565b60005b81811015610b43576000610a468284612753565b600f54610a539190612782565b610a5d9083612796565b9050600060098281548110610a7457610a74612727565b600091825260209091200154600980546001600160a01b0390921692509084908110610aa257610aa2612727565b600091825260209091200154600980546001600160a01b039092169184908110610ace57610ace612727565b9060005260206000200160006101000a8154816001600160a01b0302191690836001600160a01b031602179055508060098481548110610b1057610b10612727565b600091825260209091200180546001600160a01b0319166001600160a01b03929092169190911790555050600101610a32565b5060005b600354811015610bea57600060098281548110610b6657610b66612727565b6000918252602090912001546001600160a01b03169050610b9f816001600160a01b031660009081526007602052604090205460ff1690565b610be157610bac81611e44565b6040516001600160a01b038216907f1d4c260f1824cd028e6c9e6e31c3a0b94f2513e7a641113ec759d382f9bdd5a190600090a25b50600101610b47565b506003546000905b82811015610c775760098181548110610c0d57610c0d612727565b600091825260209091200154600980546001600160a01b039092169184908110610c3957610c39612727565b600091825260209091200180546001600160a01b0319166001600160a01b039290921691909117905581610c6c816127a9565b925050600101610bf2565b50805b82811015610cbd576009805480610c9357610c936127c2565b600082815260209020810160001990810180546001600160a01b0319169055019055600101610c7a565b505060006003555b600354600003610d14576000805460ff60a01b1916600160a11b179055610cea611ed0565b6040517f9c89a6ed7228533196a3f962acc80d61a9c53bdea6b910741bf754f5aaa7569e90600090a15b50565b60056000610d23611e35565b6001600160a01b0316815260208101919091526040016000205460ff1615610d825760405162461bcd60e51b815260206004820152601260248201527113919508185b1c9958591e481b5a5b9d195960721b6044820152606401610734565b6002600054600160a01b900460ff166002811115610da257610da26125fc565b14610dbf5760405162461bcd60e51b8152600401610734906126f8565b610dca610408611e35565b610e0f5760405162461bcd60e51b815260206004820152601660248201527521b0b63632b91034b9903737ba1030903bb4b73732b960511b6044820152606401610734565b600160056000610e1d611e35565b6001600160a01b0316815260208101919091526040016000908120805460ff191692151592909217909155600681610e53611e35565b6001600160a01b039081168252602082019290925260400160002091909155600a5416636b8f60f6610e83611e35565b6040516001600160e01b031960e084901b1681526001600160a01b039091166004820152602401600060405180830381600087803b158015610ec457600080fd5b505af1158015610ed8573d6000803e3d6000fd5b50505050565b60606009805480602002602001604051908101604052809291908181526020018280548015610f3657602002820191906000526020600020905b81546001600160a01b03168152600190910190602001808311610f18575b5050505050905090565b6002546001600160a01b0316610f54611e35565b6001600160a01b031614610f7a5760405162461bcd60e51b8152600401610734906126b6565b6002600054600160a01b900460ff166002811115610f9a57610f9a6125fc565b14610fdb5760405162461bcd60e51b8152602060048201526011602482015270131bdd1d195c9e481b9bdd08195b991959607a1b6044820152606401610734565b6000805b60085481101561105457600060088281548110610ffe57610ffe612727565b60009182526020808320909101546001600160a01b031680835260069091526040909120549091506110309084612796565b6001600160a01b039091166000908152600660205260408120559150600101610fdf565b50600060646110648360056127d8565b61106e91906127ef565b9050600061107c8284612753565b600b5460015460405163a9059cbb60e01b81526001600160a01b03918216600482015260248101869052929350169063a9059cbb906044016020604051808303816000875af11580156110d3573d6000803e3d6000fd5b505050506040513d601f19601f820116820180604052508101906110f79190612803565b50600b5460025460405163a9059cbb60e01b81526001600160a01b0391821660048201526024810184905291169063a9059cbb906044016020604051808303816000875af115801561114d573d6000803e3d6000fd5b505050506040513d601f19601f82011682018060405250810190610ed89190612803565b6002546001600160a01b0316611185611e35565b6001600160a01b0316146111ab5760405162461bcd60e51b8152600401610734906126b6565b6000805482919060ff60a01b1916600160a01b8360028111156111d0576111d06125fc565b021790555050565b6111e06121b3565b6111ea6000611de5565b565b600c81815481106111fc57600080fd5b9060005260206000209060209182820401919006915054906101000a900460ff1681565b6002600054600160a01b900460ff166002811115611240576112406125fc565b1461125d5760405162461bcd60e51b8152600401610734906126f8565b60076000611269611e35565b6001600160a01b0316815260208101919091526040016000205460ff16156112d35760405162461bcd60e51b815260206004820152601760248201527f57696e6e6572732063616e6e6f742077697468647261770000000000000000006044820152606401610734565b6000600660006112e1611e35565b6001600160a01b03166001600160a01b031681526020019081526020016000205490506000811161134b5760405162461bcd60e51b81526020600482015260146024820152734e6f2066756e647320746f20776974686472617760601b6044820152606401610734565b600060066000611359611e35565b6001600160a01b039081168252602082019290925260400160002091909155600b541663a9059cbb611389611e35565b6040516001600160e01b031960e084901b1681526001600160a01b039091166004820152602481018490526044016020604051808303816000875af11580156113d6573d6000803e3d6000fd5b505050506040513d601f19601f820116820180604052508101906113fa9190612803565b5080611404611e35565b6001600160a01b03167f1f280cd00e67ed50213ac03febd5be151f96b7f7db2f85312aa0feff99f8bdab60405160405180910390a350565b600e546001600160a01b031633146114865760405162461bcd60e51b815260206004820152600d60248201526c37b7363c9037b832b930ba37b960991b6044820152606401610734565b60006114948284018461284d565b915050600080828060200190518101906114ae91906128fb565b91509150600085856040516114c492919061297e565b604051809103902090506000600d60008581526020019081526020016000205482149050600c84815481106114fb576114fb612727565b90600052602060002090602091828204019190069054906101000a900460ff166115675760405162461bcd60e51b815260206004820152601c60248201527f726571756573742066756c66696c6c6564206f72206d697373696e67000000006044820152606401610734565b801561160c5760408051602081018a905230918101919091524660608201526080810185905260a0016040516020818303038152906040528051906020012060001c97506115b6888585612211565b6000600c85815481106115cb576115cb612727565b90600052602060002090602091828204019190066101000a81548160ff021916908315150217905550600d6000858152602001908152602001600020600090555b5050505050505050565b6001600054600160a01b900460ff166002811115611636576116366125fc565b146116785760405162461bcd60e51b815260206004820152601260248201527153616c65206973206e6f742061637469766560701b6044820152606401610734565b600b546001600160a01b03166116d05760405162461bcd60e51b815260206004820152601d60248201527f5553444320636f6e74726163742061646472657373206e6f74207365740000006044820152606401610734565b60045481101561171a5760405162461bcd60e51b8152602060048201526015602482015274139bdd08195b9bdd59da08199d5b991cc81cd95b9d605a1b6044820152606401610734565b600b5481906001600160a01b031663dd62ed3e611735611e35565b6040516001600160e01b031960e084901b1681526001600160a01b039091166004820152306024820152604401602060405180830381865afa15801561177f573d6000803e3d6000fd5b505050506040513d601f19601f820116820180604052508101906117a3919061298e565b10156117ea5760405162461bcd60e51b8152602060048201526016602482015275496e73756666696369656e7420616c6c6f77616e636560501b6044820152606401610734565b600f54156118605760405162461bcd60e51b815260206004820152603760248201527f4c6f7474657279206465706f7369747320617265206c6f636b65643b2072616e60448201527f646f6d206e756d6265722069732067656e6572617465640000000000000000006064820152608401610734565b600b546001600160a01b03166323b872dd611879611e35565b6040516001600160e01b031960e084901b1681526001600160a01b039091166004820152306024820152604481018490526064016020604051808303816000875af11580156118cc573d6000803e3d6000fd5b505050506040513d601f19601f820116820180604052508101906118f09190612803565b50600660006118fd611e35565b6001600160a01b03166001600160a01b031681526020019081526020016000205460000361196257600961192f611e35565b81546001810183556000928352602090922090910180546001600160a01b0319166001600160a01b039092169190911790555b806006600061196f611e35565b6001600160a01b03166001600160a01b03168152602001908152602001600020600082825461199e9190612796565b909155508190506119ad611e35565b6001600160a01b03167f21040858e63c11c046482f61f290bbe25972fc74b11b4570a01f9241082d21f160405160405180910390a350565b60606008805480602002602001604051908101604052809291908181526020018280548015610f36576020028201919060005260206000209081546001600160a01b03168152600190910190602001808311610f18575050505050905090565b6002546001600160a01b0316611a59611e35565b6001600160a01b031614611a7f5760405162461bcd60e51b8152600401610734906126b6565b60005b600954811015611c1e5760006006600060098481548110611aa557611aa5612727565b60009182526020808320909101546001600160a01b031683528201929092526040018120546009805491935060069183919086908110611ae757611ae7612727565b6000918252602080832091909101546001600160a01b039081168452908301939093526040918201902092909255600b54915163a9059cbb60e01b815285821660048201526024810184905291169063a9059cbb906044016020604051808303816000875af1158015611b5e573d6000803e3d6000fd5b505050506040513d601f19601f82011682018060405250810190611b829190612803565b50826001600160a01b03166350f3dbec60098481548110611ba557611ba5612727565b60009182526020909120015460405160e083901b6001600160e01b03191681526001600160a01b03909116600482015260248101849052604401600060405180830381600087803b158015611bf957600080fd5b505af1158015611c0d573d6000803e3d6000fd5b505060019093019250611a82915050565b50610d14600960006123ec565b6002546001600160a01b0316611c3f611e35565b6001600160a01b031614611c655760405162461bcd60e51b8152600401610734906126b6565b600280546001600160a01b0319166001600160a01b0392909216919091179055565b611c8f6121b3565b6001600160a01b038116611cb957604051631e4fbdf760e01b815260006004820152602401610734565b610d1481611de5565b6002546001600160a01b0316611cd6611e35565b6001600160a01b031614611cfc5760405162461bcd60e51b8152600401610734906126b6565b6001600054600160a01b900460ff166002811115611d1c57611d1c6125fc565b14611d5e5760405162461bcd60e51b815260206004820152601260248201527153616c65206973206e6f742061637469766560701b6044820152606401610734565b6000805460ff60a01b1916600160a11b179055611da5611d7c611e35565b604080516001600160a01b0390921660208301520160405160208183030381529060405261224e565b50611dae611e35565b6001600160a01b03167fd802e7c7f1646e3318c03abed1e468bdf913f45331a68dc912a0d645eb646a4260405160405180910390a2565b600080546001600160a01b038381166001600160a01b0319831681178455604051919092169283917f8be0079c531659141344cd1fd0a4f28419497f9722a3daafe3b4186f6b6457e09190a35050565b6000611e3f612351565b905090565b6001600160a01b038116600081815260076020526040808220805460ff1916600190811790915560088054918201815583527ff3f7a9fe364faab93b216da50a3214154f22a0a2b415b23a84c8169e8b636ee30180546001600160a01b03191684179055517f1d4c260f1824cd028e6c9e6e31c3a0b94f2513e7a641113ec759d382f9bdd5a19190a250565b6002546001600160a01b0316611ee4611e35565b6001600160a01b031614611f0a5760405162461bcd60e51b8152600401610734906126b6565b6002600054600160a01b900460ff166002811115611f2a57611f2a6125fc565b14611f475760405162461bcd60e51b8152600401610734906126f8565b60095460008167ffffffffffffffff811115611f6557611f65612437565b604051908082528060200260200182016040528015611f8e578160200160208202803683370190505b50905060005b82811015611fff5760098181548110611faf57611faf612727565b9060005260206000200160009054906101000a90046001600160a01b0316828281518110611fdf57611fdf612727565b6001600160a01b0390921660209283029190910190910152600101611f94565b5060005b8281101561216f57600082828151811061201f5761201f612727565b6020908102919091018101516001600160a01b0381166000908152600683526040808220805490839055600790945290205490925060ff16156120ec5760006004548261206c9190612753565b600b5460405163a9059cbb60e01b81526001600160a01b0386811660048301526024820184905292935091169063a9059cbb906044016020604051808303816000875af11580156120c1573d6000803e3d6000fd5b505050506040513d601f19601f820116820180604052508101906120e59190612803565b5050612165565b600b5460405163a9059cbb60e01b81526001600160a01b038481166004830152602482018490529091169063a9059cbb906044016020604051808303816000875af115801561213f573d6000803e3d6000fd5b505050506040513d601f19601f820116820180604052508101906121639190612803565b505b5050600101612003565b5061217c600960006123ec565b6040518281527f01f8aef848121bbf182106b55119c1094063c572b6c8dcb09040e1203a17abf99060200160405180910390a15050565b6121bb611e35565b6001600160a01b03166121d66000546001600160a01b031690565b6001600160a01b0316146111ea576121ec611e35565b60405163118cdaa760e01b81526001600160a01b039091166004820152602401610734565b600f8390556040518381527f79518eb4b6f70742e6651b03a2ac2bc644ea2613e8de56247857c5be5fc2a0ba9060200160405180910390a1505050565b600c805460018082018084556000849052919290918390811061227357612273612727565b90600052602060002090602091828204019190066101000a81548160ff021916908315150217905550600081836040516020016122b19291906129a7565b604051602081830303815290604052905060006122cc612395565b9050600081836040516020016122e39291906129a7565b60408051601f1981840301815282825280516020808301919091206000898152600d9092529290208290559250907fd91fc3685b930310b008ec37d2334870cab88a023ed8cc628a2e2ccd4e55d2029061234090859087906129a7565b60405180910390a150505050919050565b60007f00000000000000000000000000000000000000000000000000000000000000006001600160a01b03163303612390575060131936013560601c90565b503390565b6000806123a66364e6212742612753565b905060006123b56003836127ef565b6123c0906001612796565b9050466001146123da576123d5816001612796565b6123e5565b6123e5816004612796565b9250505090565b5080546000825590600052602060002090810190610d1491905b8082111561241a5760008155600101612406565b5090565b60006020828403121561243057600080fd5b5035919050565b634e487b7160e01b600052604160045260246000fd5b604051610120810167ffffffffffffffff8111828210171561247157612471612437565b60405290565b604051601f8201601f1916810167ffffffffffffffff811182821017156124a0576124a0612437565b604052919050565b80356001600160a01b03811681146124bf57600080fd5b919050565b600061012082840312156124d757600080fd5b6124df61244d565b6124e8836124a8565b81526124f6602084016124a8565b6020820152612507604084016124a8565b6040820152606083013560608201526080830135608082015261252c60a084016124a8565b60a082015261253d60c084016124a8565b60c082015261254e60e084016124a8565b60e08201526101006125618185016124a8565b908201529392505050565b60006020828403121561257e57600080fd5b612587826124a8565b9392505050565b6020808252825182820181905260009190848201906040850190845b818110156125cf5783516001600160a01b0316835292840192918401916001016125aa565b50909695505050505050565b6000602082840312156125ed57600080fd5b81356003811061258757600080fd5b634e487b7160e01b600052602160045260246000fd5b602081016003831061263457634e487b7160e01b600052602160045260246000fd5b91905290565b60008060006040848603121561264f57600080fd5b83359250602084013567ffffffffffffffff8082111561266e57600080fd5b818601915086601f83011261268257600080fd5b81358181111561269157600080fd5b8760208285010111156126a357600080fd5b6020830194508093505050509250925092565b60208082526022908201527f4f6e6c792073656c6c65722063616e2063616c6c20746869732066756e63746960408201526137b760f11b606082015260800190565b60208082526015908201527414d85b19481a5cc81b9bdd08195b991959081e595d605a1b604082015260600190565b634e487b7160e01b600052603260045260246000fd5b634e487b7160e01b600052601160045260246000fd5b818103818111156127665761276661273d565b92915050565b634e487b7160e01b600052601260045260246000fd5b6000826127915761279161276c565b500690565b808201808211156127665761276661273d565b6000600182016127bb576127bb61273d565b5060010190565b634e487b7160e01b600052603160045260246000fd5b80820281158282048414176127665761276661273d565b6000826127fe576127fe61276c565b500490565b60006020828403121561281557600080fd5b8151801515811461258757600080fd5b600067ffffffffffffffff82111561283f5761283f612437565b50601f01601f191660200190565b6000806040838503121561286057600080fd5b82359150602083013567ffffffffffffffff81111561287e57600080fd5b8301601f8101851361288f57600080fd5b80356128a261289d82612825565b612477565b8181528660208385010111156128b757600080fd5b816020840160208301376000602083830101528093505050509250929050565b60005b838110156128f25781810151838201526020016128da565b50506000910152565b6000806040838503121561290e57600080fd5b82519150602083015167ffffffffffffffff81111561292c57600080fd5b8301601f8101851361293d57600080fd5b805161294b61289d82612825565b81815286602083850101111561296057600080fd5b6129718260208301602086016128d7565b8093505050509250929050565b8183823760009101908152919050565b6000602082840312156129a057600080fd5b5051919050565b82815260406020820152600082518060408401526129cc8160608501602087016128d7565b601f01601f191691909101606001939250505056fea264697066735822122081a298e9be92ed03c00fb7ef5f1a7e3453259f4f67475fc7b360fc5f6cef9d6a64736f6c63430008190033","linkReferences":{}},"methodIdentifiers":{"buyerWithdraw()":"7cc947d0","changeLotteryState(uint8)":"683e93e1","deposit(uint256)":"b6b55f25","deposits(address)":"fc7e286d","endLottery()":"1593a8c7","fulfillRandomness(uint256,bytes)":"b3f6b99a","getDepositedAmount(address)":"e9081ec7","getParticipants()":"5aa68ac0","getWinners()":"df15c37e","hasMinted(address)":"38e21cce","initialize((address,address,address,uint256,uint256,address,address,address,address))":"10175080","isTrustedForwarder(address)":"572b6c05","isWinner(address)":"9d9ca28d","lotteryState()":"6939864b","mintMyNFT()":"26170480","multisigWalletAddress()":"a61fb2ba","nftContractAddr()":"2c23ec8e","numberOfTickets()":"45745c10","operatorAddr()":"f3f18c37","owner()":"8da5cb5b","randomNumber()":"ccbac9f5","renounceOwnership()":"715018a6","requestPending(uint256)":"75ce7fff","requestRandomness()":"f8413b07","requestedHash(uint256)":"c4f8f27b","selectWinners()":"1a0de74c","seller()":"08551a53","sellerWithdraw()":"66af746b","setSeller(address)":"e99d2866","startLottery()":"160344e2","ticketPrice()":"1209b1f6","transferNonWinnerDeposits(address)":"e63c4609","transferOwnership(address)":"f2fde38b","usdcContractAddr()":"99dbf4b5","winnerAddresses(uint256)":"045f9c97","winners(address)":"6bd5450a"},"id":6}