{"abi":[{"type":"function","name":"buyerWithdraw","inputs":[],"outputs":[],"stateMutability":"nonpayable"},{"type":"function","name":"changeLotteryState","inputs":[{"name":"_newState","type":"uint8","internalType":"enum LotteryV2Base.LotteryState"}],"outputs":[],"stateMutability":"nonpayable"},{"type":"function","name":"claimNumber","inputs":[{"name":"_participant","type":"address","internalType":"address"}],"outputs":[],"stateMutability":"nonpayable"},{"type":"function","name":"deposit","inputs":[{"name":"amount","type":"uint256","internalType":"uint256"}],"outputs":[],"stateMutability":"nonpayable"},{"type":"function","name":"deposits","inputs":[{"name":"","type":"address","internalType":"address"}],"outputs":[{"name":"","type":"uint256","internalType":"uint256"}],"stateMutability":"view"},{"type":"function","name":"endLottery","inputs":[],"outputs":[],"stateMutability":"nonpayable"},{"type":"function","name":"finishAt","inputs":[],"outputs":[{"name":"","type":"uint256","internalType":"uint256"}],"stateMutability":"view"},{"type":"function","name":"fulfillRandomness","inputs":[{"name":"randomness","type":"uint256","internalType":"uint256"},{"name":"dataWithRound","type":"bytes","internalType":"bytes"}],"outputs":[],"stateMutability":"nonpayable"},{"type":"function","name":"getDepositedAmount","inputs":[{"name":"participant","type":"address","internalType":"address"}],"outputs":[{"name":"","type":"uint256","internalType":"uint256"}],"stateMutability":"view"},{"type":"function","name":"getParticipants","inputs":[],"outputs":[{"name":"","type":"address[]","internalType":"address[]"}],"stateMutability":"view"},{"type":"function","name":"getRandomNumber","inputs":[],"outputs":[{"name":"","type":"uint256","internalType":"uint256"}],"stateMutability":"view"},{"type":"function","name":"getWinners","inputs":[],"outputs":[{"name":"","type":"address[]","internalType":"address[]"}],"stateMutability":"view"},{"type":"function","name":"hasMinted","inputs":[{"name":"","type":"address","internalType":"address"}],"outputs":[{"name":"","type":"bool","internalType":"bool"}],"stateMutability":"view"},{"type":"function","name":"initialize","inputs":[{"name":"config","type":"tuple","internalType":"struct StructsLibrary.ILotteryBaseConfig","components":[{"name":"_seller","type":"address","internalType":"address"},{"name":"_gelatoVrfOperator","type":"address","internalType":"address"},{"name":"_blessedOperator","type":"address","internalType":"address"},{"name":"_owner","type":"address","internalType":"address"},{"name":"_ticketAmount","type":"uint256","internalType":"uint256"},{"name":"_ticketPrice","type":"uint256","internalType":"uint256"},{"name":"_finishAt","type":"uint256","internalType":"uint256"},{"name":"_usdcContractAddr","type":"address","internalType":"address"},{"name":"_multisigWalletAddress","type":"address","internalType":"address"}]}],"outputs":[],"stateMutability":"nonpayable"},{"type":"function","name":"initialized","inputs":[],"outputs":[{"name":"","type":"bool","internalType":"bool"}],"stateMutability":"view"},{"type":"function","name":"isClaimable","inputs":[{"name":"_participant","type":"address","internalType":"address"}],"outputs":[{"name":"","type":"bool","internalType":"bool"}],"stateMutability":"view"},{"type":"function","name":"isTrustedForwarder","inputs":[{"name":"forwarder","type":"address","internalType":"address"}],"outputs":[{"name":"","type":"bool","internalType":"bool"}],"stateMutability":"view"},{"type":"function","name":"isWinner","inputs":[{"name":"_participant","type":"address","internalType":"address"}],"outputs":[{"name":"","type":"bool","internalType":"bool"}],"stateMutability":"view"},{"type":"function","name":"lotteryState","inputs":[],"outputs":[{"name":"","type":"uint8","internalType":"enum LotteryV2Base.LotteryState"}],"stateMutability":"view"},{"type":"function","name":"lotteryV1Addr","inputs":[],"outputs":[{"name":"","type":"address","internalType":"address"}],"stateMutability":"view"},{"type":"function","name":"maxMints","inputs":[],"outputs":[{"name":"","type":"uint256","internalType":"uint256"}],"stateMutability":"view"},{"type":"function","name":"minimumDepositAmount","inputs":[],"outputs":[{"name":"","type":"uint256","internalType":"uint256"}],"stateMutability":"view"},{"type":"function","name":"mintCount","inputs":[],"outputs":[{"name":"","type":"uint256","internalType":"uint256"}],"stateMutability":"view"},{"type":"function","name":"mintMyNFT","inputs":[],"outputs":[],"stateMutability":"nonpayable"},{"type":"function","name":"multisigWalletAddress","inputs":[],"outputs":[{"name":"","type":"address","internalType":"address"}],"stateMutability":"view"},{"type":"function","name":"nftContractAddr","inputs":[],"outputs":[{"name":"","type":"address","internalType":"address"}],"stateMutability":"view"},{"type":"function","name":"numberOfTickets","inputs":[],"outputs":[{"name":"","type":"uint256","internalType":"uint256"}],"stateMutability":"view"},{"type":"function","name":"operatorAddr","inputs":[],"outputs":[{"name":"","type":"address","internalType":"address"}],"stateMutability":"view"},{"type":"function","name":"owner","inputs":[],"outputs":[{"name":"","type":"address","internalType":"address"}],"stateMutability":"view"},{"type":"function","name":"randomNumber","inputs":[],"outputs":[{"name":"","type":"uint256","internalType":"uint256"}],"stateMutability":"view"},{"type":"function","name":"renounceOwnership","inputs":[],"outputs":[],"stateMutability":"nonpayable"},{"type":"function","name":"requestPending","inputs":[{"name":"","type":"uint256","internalType":"uint256"}],"outputs":[{"name":"","type":"bool","internalType":"bool"}],"stateMutability":"view"},{"type":"function","name":"requestRandomness","inputs":[],"outputs":[],"stateMutability":"nonpayable"},{"type":"function","name":"requestedHash","inputs":[{"name":"","type":"uint256","internalType":"uint256"}],"outputs":[{"name":"","type":"bytes32","internalType":"bytes32"}],"stateMutability":"view"},{"type":"function","name":"roll","inputs":[],"outputs":[],"stateMutability":"nonpayable"},{"type":"function","name":"rollPrice","inputs":[],"outputs":[{"name":"","type":"uint256","internalType":"uint256"}],"stateMutability":"view"},{"type":"function","name":"rollTolerance","inputs":[],"outputs":[{"name":"","type":"uint256","internalType":"uint256"}],"stateMutability":"view"},{"type":"function","name":"rolledNumbers","inputs":[{"name":"","type":"address","internalType":"address"}],"outputs":[{"name":"","type":"uint256","internalType":"uint256"}],"stateMutability":"view"},{"type":"function","name":"seller","inputs":[],"outputs":[{"name":"","type":"address","internalType":"address"}],"stateMutability":"view"},{"type":"function","name":"sellerWithdraw","inputs":[],"outputs":[],"stateMutability":"nonpayable"},{"type":"function","name":"setFinishAt","inputs":[{"name":"_finishAt","type":"uint256","internalType":"uint256"}],"outputs":[],"stateMutability":"nonpayable"},{"type":"function","name":"setLotteryV1Addr","inputs":[{"name":"_lotteryV1Addr","type":"address","internalType":"address"}],"outputs":[],"stateMutability":"nonpayable"},{"type":"function","name":"setMinimumDepositAmount","inputs":[{"name":"_amount","type":"uint256","internalType":"uint256"}],"outputs":[],"stateMutability":"nonpayable"},{"type":"function","name":"setMultisigWalletAddress","inputs":[{"name":"_multisigWalletAddress","type":"address","internalType":"address"}],"outputs":[],"stateMutability":"nonpayable"},{"type":"function","name":"setNftContractAddr","inputs":[{"name":"_nftContractAddr","type":"address","internalType":"address"}],"outputs":[],"stateMutability":"nonpayable"},{"type":"function","name":"setNumberOfTickets","inputs":[{"name":"_numberOfTickets","type":"uint256","internalType":"uint256"}],"outputs":[],"stateMutability":"nonpayable"},{"type":"function","name":"setRandomNumber","inputs":[],"outputs":[],"stateMutability":"nonpayable"},{"type":"function","name":"setRollPrice","inputs":[{"name":"_rollPrice","type":"uint256","internalType":"uint256"}],"outputs":[],"stateMutability":"nonpayable"},{"type":"function","name":"setRollTolerance","inputs":[{"name":"_tolerance","type":"uint256","internalType":"uint256"}],"outputs":[],"stateMutability":"nonpayable"},{"type":"function","name":"setSeller","inputs":[{"name":"_seller","type":"address","internalType":"address"}],"outputs":[],"stateMutability":"nonpayable"},{"type":"function","name":"setUsdcContractAddr","inputs":[{"name":"_usdcContractAddr","type":"address","internalType":"address"}],"outputs":[],"stateMutability":"nonpayable"},{"type":"function","name":"setWinner","inputs":[{"name":"_winner","type":"address","internalType":"address"}],"outputs":[],"stateMutability":"nonpayable"},{"type":"function","name":"startLottery","inputs":[],"outputs":[],"stateMutability":"nonpayable"},{"type":"function","name":"transferDeposit","inputs":[{"name":"_participant","type":"address","internalType":"address"},{"name":"_amount","type":"uint256","internalType":"uint256"}],"outputs":[],"stateMutability":"nonpayable"},{"type":"function","name":"transferNonWinnerDeposits","inputs":[{"name":"auctionV1addr","type":"address","internalType":"address"}],"outputs":[],"stateMutability":"nonpayable"},{"type":"function","name":"transferOwnership","inputs":[{"name":"newOwner","type":"address","internalType":"address"}],"outputs":[],"stateMutability":"nonpayable"},{"type":"function","name":"usdcContractAddr","inputs":[],"outputs":[{"name":"","type":"address","internalType":"address"}],"stateMutability":"view"},{"type":"function","name":"winnerAddresses","inputs":[{"name":"","type":"uint256","internalType":"uint256"}],"outputs":[{"name":"","type":"address","internalType":"address"}],"stateMutability":"view"},{"type":"function","name":"winners","inputs":[{"name":"","type":"address","internalType":"address"}],"outputs":[{"name":"","type":"bool","internalType":"bool"}],"stateMutability":"view"},{"type":"event","name":"LotteryEnded","inputs":[],"anonymous":false},{"type":"event","name":"LotteryStarted","inputs":[],"anonymous":false},{"type":"event","name":"OwnershipTransferred","inputs":[{"name":"previousOwner","type":"address","indexed":true,"internalType":"address"},{"name":"newOwner","type":"address","indexed":true,"internalType":"address"}],"anonymous":false},{"type":"event","name":"RandomFullfiled","inputs":[{"name":"requester","type":"address","indexed":true,"internalType":"address"},{"name":"number","type":"uint256","indexed":false,"internalType":"uint256"}],"anonymous":false},{"type":"event","name":"RandomRequested","inputs":[{"name":"requester","type":"address","indexed":true,"internalType":"address"}],"anonymous":false},{"type":"event","name":"RequestedRandomness","inputs":[{"name":"round","type":"uint256","indexed":false,"internalType":"uint256"},{"name":"data","type":"bytes","indexed":false,"internalType":"bytes"}],"anonymous":false},{"type":"event","name":"WinnerSelected","inputs":[{"name":"winner","type":"address","indexed":true,"internalType":"address"}],"anonymous":false},{"type":"error","name":"OwnableInvalidOwner","inputs":[{"name":"owner","type":"address","internalType":"address"}]},{"type":"error","name":"OwnableUnauthorizedAccount","inputs":[{"name":"account","type":"address","internalType":"address"}]}],"bytecode":{"object":"0x60a06040526002805460ff60a01b19169055600060165534801561002257600080fd5b5073d8253782c45a12053594b9deb72d8e8ab2fca54c338061005e57604051631e4fbdf760e01b81526000600482015260240160405180910390fd5b61006781610079565b506001600160a01b03166080526100cb565b600280546001600160a01b038381166001600160a01b0319831681179093556040519116919082907f8be0079c531659141344cd1fd0a4f28419497f9722a3daafe3b4186f6b6457e090600090a35050565b608051612c726100ed6000396000818161050a01526125f60152612c726000f3fe608060405234801561001057600080fd5b50600436106103995760003560e01c80637cc947d0116101e9578063ccbac9f51161010f578063e63c4609116100ad578063f3f18c371161007c578063f3f18c37146107d7578063f7098e58146107ea578063f8413b07146107fd578063fc7e286d1461080557600080fd5b8063e63c460914610775578063e9081ec714610788578063e99d2866146107b1578063f2fde38b146107c457600080fd5b8063d30009bd116100e9578063d30009bd1461073f578063d9fca76914610752578063dbdff2c114610765578063df15c37e1461076d57600080fd5b8063ccbac9f514610725578063cd5e3c5d1461072e578063cf3af3a11461073657600080fd5b80639d9ca28d11610187578063b6b55f2511610156578063b6b55f25146106e0578063b6b6f0c3146106f3578063bf1dda15146106fc578063c4f8f27b1461070557600080fd5b80639d9ca28d1461067b578063a61fb2ba146106a7578063aab483d6146106ba578063b3f6b99a146106cd57600080fd5b80639659867e116101c35780639659867e1461064457806397fedfcb1461064d57806399bd69d61461065557806399dbf4b51461066857600080fd5b80637cc947d0146106185780638da5cb5b1461062057806394d898de1461063157600080fd5b806345745c10116102ce57806366af746b1161026c5780636bd5450a1161023b5780636bd5450a146105ba578063715018a6146105dd57806375ce7fff146105e55780637b15452d146105f857600080fd5b806366af746b1461057557806367d3b4881461057d578063683e93e1146105865780636939864b1461059957600080fd5b8063572b6c05116102a8578063572b6c05146104fa5780635aa68ac01461053a5780635f86e4fe1461054f57806360d50da31461056257600080fd5b806345745c10146104cb57806350f3dbec146104d45780635687156e146104e757600080fd5b8063160344e21161033b5780632c23ec8e116103155780632c23ec8e1461046f5780633644c27c1461048257806338e21cce146104955780633dc204e7146104b857600080fd5b8063160344e21461044c5780632617048014610454578063292fec041461045c57600080fd5b80630bea6637116103775780630bea6637146103f857806312f0800b1461040d578063158ef93e146104205780631593a8c71461044457600080fd5b8063045f9c971461039e578063080c279a146103ce57806308551a53146103e5575b600080fd5b6103b16103ac36600461268d565b610825565b6040516001600160a01b0390911681526020015b60405180910390f35b6103d760065481565b6040519081526020016103c5565b6004546103b1906001600160a01b031681565b61040b61040636600461268d565b61084f565b005b61040b61041b36600461268d565b610897565b60025461043490600160a01b900460ff1681565b60405190151581526020016103c5565b61040b6108d6565b61040b61091c565b61040b6109cd565b61043461046a3660046126cb565b610c02565b6010546103b1906001600160a01b031681565b61040b6104903660046126cb565b610c9d565b6104346104a33660046126cb565b600b6020526000908152604090205460ff1681565b61040b6104c63660046126cb565b610cc7565b6103d760075481565b61040b6104e23660046126ef565b610dac565b61040b6104f536600461268d565b610f0b565b6104346105083660046126cb565b7f00000000000000000000000000000000000000000000000000000000000000006001600160a01b0390811691161490565b610542610f4a565b6040516103c5919061271b565b6012546103b1906001600160a01b031681565b61040b6105703660046126cb565b610fac565b61040b610fd6565b6103d760135481565b61040b610594366004612768565b611210565b6002546105ad90600160a81b900460ff1681565b6040516103c5919061279f565b6104346105c83660046126cb565b600d6020526000908152604090205460ff1681565b61040b611276565b6104346105f336600461268d565b611288565b6103d76106063660046126cb565b60146020526000908152604090205481565b61040b6112bc565b6002546001600160a01b03166103b1565b61040b61063f3660046126cb565b6114c6565b6103d760095481565b61040b6114f0565b61040b61066336600461268d565b611587565b6011546103b1906001600160a01b031681565b6104346106893660046126cb565b6001600160a01b03166000908152600d602052604090205460ff1690565b6003546103b1906001600160a01b031681565b61040b6106c836600461268d565b611634565b61040b6106db3660046127c7565b611673565b61040b6106ee36600461268d565b611847565b6103d760085481565b6103d760165481565b6103d761071336600461268d565b60016020526000908152604090205481565b6103d7600a5481565b61040b611c55565b6103d760155481565b61040b61074d3660046128b4565b611ded565b61040b6107603660046126cb565b611ee7565b6103d7611f87565b610542611fde565b61040b6107833660046126cb565b61203e565b6103d76107963660046126cb565b6001600160a01b03166000908152600c602052604090205490565b61040b6107bf3660046126cb565b612256565b61040b6107d23660046126cb565b6122b2565b6005546103b1906001600160a01b031681565b61040b6107f83660046126cb565b6122ed565b61040b612349565b6103d76108133660046126cb565b600c6020526000908152604090205481565b600e818154811061083557600080fd5b6000918252602090912001546001600160a01b0316905081565b6004546001600160a01b0316610863612394565b6001600160a01b0316146108925760405162461bcd60e51b815260040161088990612955565b60405180910390fd5b601355565b6004546001600160a01b03166108ab612394565b6001600160a01b0316146108d15760405162461bcd60e51b815260040161088990612955565b601655565b6004546001600160a01b03166108ea612394565b6001600160a01b0316146109105760405162461bcd60e51b815260040161088990612955565b61091a6002611210565b565b6004546001600160a01b0316610930612394565b6001600160a01b0316146109565760405162461bcd60e51b815260040161088990612955565b600060028054600160a81b900460ff169081111561097657610976612789565b146109c35760405162461bcd60e51b815260206004820152601a60248201527f4c6f747465727920697320696e206163746976652073746174650000000000006044820152606401610889565b61091a6001611210565b600b60006109d9612394565b6001600160a01b0316815260208101919091526040016000205460ff1615610a385760405162461bcd60e51b815260206004820152601260248201527113919508185b1c9958591e481b5a5b9d195960721b6044820152606401610889565b6002808054600160a81b900460ff1690811115610a5757610a57612789565b14610aa45760405162461bcd60e51b815260206004820152601860248201527f4c6f7474657279206973206e6f7420656e6465642079657400000000000000006044820152606401610889565b610aaf610689612394565b610af45760405162461bcd60e51b815260206004820152601660248201527521b0b63632b91034b9903737ba1030903bb4b73732b960511b6044820152606401610889565b60085460095410610b475760405162461bcd60e51b815260206004820152601760248201527f4e6f206d6f7265206d696e747320617661696c61626c650000000000000000006044820152606401610889565b6001600b6000610b55612394565b6001600160a01b0390811682526020820192909252604001600020805460ff19169215159290921790915560105416636b8f60f6610b91612394565b6040516001600160e01b031960e084901b1681526001600160a01b039091166004820152602401600060405180830381600087803b158015610bd257600080fd5b505af1158015610be6573d6000803e3d6000fd5b505060098054925090506000610bfb836129ad565b9190505550565b6006546001600160a01b0382166000908152600c6020526040812054909111801590610c5557506001600160a01b038216600090815260146020526040902054601654600a54610c5291906129c6565b10155b8015610c8857506001600160a01b038216600090815260146020526040902054601654600a54610c8591906129df565b11155b15610c9557506001919050565b506000919050565b610ca56123a3565b601080546001600160a01b0319166001600160a01b0392909216919091179055565b610cd081610c02565b15610d61576001600160a01b0381166000818152600d6020526040808220805460ff19166001908117909155600e8054918201815583527fbb7b4a454dc3493923482f07822329ed19e8244eff582cc204f8554c3620c3fd0180546001600160a01b03191684179055517f1d4c260f1824cd028e6c9e6e31c3a0b94f2513e7a641113ec759d382f9bdd5a19190a250565b60405162461bcd60e51b815260206004820152601c60248201527f5061727469636970616e74206973206e6f7420636c61696d61626c65000000006044820152606401610889565b50565b610db4612394565b6012546001600160a01b03908116911614610e215760405162461bcd60e51b815260206004820152602760248201527f4f6e6c792077686974656c6973746564206d61792063616c6c207468697320666044820152663ab731ba34b7b760c91b6064820152608401610889565b6001600160a01b0382166000908152600c60205260408120549003610e8c57600f80546001810182556000919091527f8d1108e10bcb7c27dddfc02ed9d693a074039d026cf4ea4240b40f7d581ac8020180546001600160a01b0319166001600160a01b0384161790555b6001600160a01b0382166000908152600c602052604081208054839290610eb49084906129c6565b90915550506001600160a01b0382166000908152601460205260408120549003610f0757604080516001600160a01b0384166020820152610f0591015b604051602081830303815290604052612401565b505b5050565b6004546001600160a01b0316610f1f612394565b6001600160a01b031614610f455760405162461bcd60e51b815260040161088990612955565b601555565b6060600f805480602002602001604051908101604052809291908181526020018280548015610fa257602002820191906000526020600020905b81546001600160a01b03168152600190910190602001808311610f84575b5050505050905090565b610fb46123a3565b600380546001600160a01b0319166001600160a01b0392909216919091179055565b6004546001600160a01b0316610fea612394565b6001600160a01b0316146110105760405162461bcd60e51b815260040161088990612955565b6002808054600160a81b900460ff169081111561102f5761102f612789565b146110705760405162461bcd60e51b8152602060048201526011602482015270131bdd1d195c9e481b9bdd08195b991959607a1b6044820152606401610889565b6000805b600e548110156110e9576000600e8281548110611093576110936129f2565b60009182526020808320909101546001600160a01b0316808352600c9091526040909120549091506110c590846129c6565b6001600160a01b039091166000908152600c60205260408120559150600101611074565b50600060646110f9836005612a08565b6111039190612a1f565b9050600061111182846129df565b60115460035460405163a9059cbb60e01b81526001600160a01b03918216600482015260248101869052929350169063a9059cbb906044016020604051808303816000875af1158015611168573d6000803e3d6000fd5b505050506040513d601f19601f8201168201806040525081019061118c9190612a41565b506011546004805460405163a9059cbb60e01b81526001600160a01b0391821692810192909252602482018490529091169063a9059cbb906044016020604051808303816000875af11580156111e6573d6000803e3d6000fd5b505050506040513d601f19601f8201168201806040525081019061120a9190612a41565b50505050565b6004546001600160a01b0316611224612394565b6001600160a01b03161461124a5760405162461bcd60e51b815260040161088990612955565b6002805482919060ff60a81b1916600160a81b838381111561126e5761126e612789565b021790555050565b61127e6123a3565b61091a6000612502565b6000818154811061129857600080fd5b9060005260206000209060209182820401919006915054906101000a900460ff1681565b600160028054600160a81b900460ff16908111156112dc576112dc612789565b036113295760405162461bcd60e51b815260206004820152601b60248201527f4c6f74746572792069732063757272656e746c792061637469766500000000006044820152606401610889565b600d6000611335612394565b6001600160a01b0316815260208101919091526040016000205460ff161561139f5760405162461bcd60e51b815260206004820152601760248201527f57696e6e6572732063616e6e6f742077697468647261770000000000000000006044820152606401610889565b6000600c60006113ad612394565b6001600160a01b03166001600160a01b03168152602001908152602001600020549050600081116114175760405162461bcd60e51b81526020600482015260146024820152734e6f2066756e647320746f20776974686472617760601b6044820152606401610889565b6000600c6000611425612394565b6001600160a01b0390811682526020820192909252604001600020919091556011541663a9059cbb611455612394565b6040516001600160e01b031960e084901b1681526001600160a01b039091166004820152602481018490526044016020604051808303816000875af11580156114a2573d6000803e3d6000fd5b505050506040513d601f19601f82011682018060405250810190610f079190612a41565b6114ce6123a3565b601180546001600160a01b0319166001600160a01b0392909216919091179055565b6004546001600160a01b0316611504612394565b6001600160a01b03161461152a5760405162461bcd60e51b815260040161088990612955565b600a541561157a5760405162461bcd60e51b815260206004820152601960248201527f52616e646f6d206e756d62657220616c726561647920736574000000000000006044820152606401610889565b611582611f87565b600a55565b6004546001600160a01b031661159b612394565b6001600160a01b0316146115c15760405162461bcd60e51b815260040161088990612955565b600081116116255760405162461bcd60e51b815260206004820152602b60248201527f4e756d626572206f66207469636b657473206d7573742062652067726561746560448201526a72207468616e207a65726f60a81b6064820152608401610889565b60078190556008556000600955565b6004546001600160a01b0316611648612394565b6001600160a01b03161461166e5760405162461bcd60e51b815260040161088990612955565b600655565b6005546001600160a01b031633146116bd5760405162461bcd60e51b815260206004820152600d60248201526c37b7363c9037b832b930ba37b960991b6044820152606401610889565b60006116cb82840184612a8b565b915050600080828060200190518101906116e59190612b39565b91509150600085856040516116fb929190612bbc565b604080519182900390912060008581526001602052918220548254919350831491908590811061172d5761172d6129f2565b90600052602060002090602091828204019190069054906101000a900460ff166117995760405162461bcd60e51b815260206004820152601c60248201527f726571756573742066756c66696c6c6564206f72206d697373696e67000000006044820152606401610889565b801561183d5760408051602081018a905230918101919091524660608201526080810185905260a0016040516020818303038152906040528051906020012060001c97506117e8888585612554565b60008085815481106117fc576117fc6129f2565b90600052602060002090602091828204019190066101000a81548160ff02191690831515021790555060016000858152602001908152602001600020600090555b5050505050505050565b600160028054600160a81b900460ff169081111561186757611867612789565b036118b45760405162461bcd60e51b815260206004820152601b60248201527f4c6f74746572792069732063757272656e746c792061637469766500000000006044820152606401610889565b426013541161190f5760405162461bcd60e51b815260206004820152602160248201527f4465706f7369747320617265206e6f7420706f737369626c6520616e796d6f726044820152606560f81b6064820152608401610889565b6011546001600160a01b03166119675760405162461bcd60e51b815260206004820152601d60248201527f5553444320636f6e74726163742061646472657373206e6f74207365740000006044820152606401610889565b600081116119a75760405162461bcd60e51b815260206004820152600d60248201526c139bc8199d5b991cc81cd95b9d609a1b6044820152606401610889565b60115481906001600160a01b031663dd62ed3e6119c2612394565b6040516001600160e01b031960e084901b1681526001600160a01b039091166004820152306024820152604401602060405180830381865afa158015611a0c573d6000803e3d6000fd5b505050506040513d601f19601f82011682018060405250810190611a309190612bcc565b1015611a775760405162461bcd60e51b8152602060048201526016602482015275496e73756666696369656e7420616c6c6f77616e636560501b6044820152606401610889565b6011546001600160a01b03166323b872dd611a90612394565b6040516001600160e01b031960e084901b1681526001600160a01b039091166004820152306024820152604481018490526064016020604051808303816000875af1158015611ae3573d6000803e3d6000fd5b505050506040513d601f19601f82011682018060405250810190611b079190612a41565b50600c6000611b14612394565b6001600160a01b03166001600160a01b0316815260200190815260200160002054600003611b7957600f611b46612394565b81546001810183556000928352602090922090910180546001600160a01b0319166001600160a01b039092169190911790555b80600c6000611b86612394565b6001600160a01b03166001600160a01b031681526020019081526020016000206000828254611bb591906129c6565b90915550601490506000611bc7612394565b6001600160a01b03166001600160a01b0316815260200190815260200160002054600003610da957611c14611bfa612394565b604080516001600160a01b03909216602083015201610ef1565b50611c1d612394565b6001600160a01b03167fd802e7c7f1646e3318c03abed1e468bdf913f45331a68dc912a0d645eb646a4260405160405180910390a250565b4260135411611ca65760405162461bcd60e51b815260206004820152601f60248201527f526f6c6c696e67206973206e6f7420706f737369626c6520616e796d6f7265006044820152606401610889565b600060155411611cec5760405162461bcd60e51b8152602060048201526011602482015270139bc81c9bdb1b081c1c9a58d9481cd95d607a1b6044820152606401610889565b600654601554611cfc91906129c6565b600c6000611d08612394565b6001600160a01b03166001600160a01b03168152602001908152602001600020541015611d6c5760405162461bcd60e51b8152602060048201526012602482015271496e73756666696369656e742066756e647360701b6044820152606401610889565b601554600c6000611d7b612394565b6001600160a01b03166001600160a01b031681526020019081526020016000206000828254611daa91906129df565b90915550506015546004546001600160a01b03166000908152600c602052604081208054909190611ddc9084906129c6565b90915550610da99050611bfa612394565b600254600160a01b900460ff1615611e3d5760405162461bcd60e51b8152602060048201526013602482015272105b1c9958591e481a5b9a5d1a585b1a5e9959606a1b6044820152606401610889565b6040810151600480546001600160a01b039283166001600160a01b0319918216179091556020830151600580549190931691161790556060810151611e8190612502565b608081015160075560a081015160065560c081015160135560e0810151601180546001600160a01b03199081166001600160a01b03938416179091556101009092015160038054909316911617905560028054600160a01b60ff60a01b19909116179055565b6004546001600160a01b0316611efb612394565b6001600160a01b031614611f215760405162461bcd60e51b815260040161088990612955565b6001600160a01b03166000818152600d60205260408120805460ff19166001908117909155600e805491820181559091527fbb7b4a454dc3493923482f07822329ed19e8244eff582cc204f8554c3620c3fd0180546001600160a01b0319169091179055565b60004244611f93612394565b6040805160208101949094528301919091526bffffffffffffffffffffffff19606091821b16908201526074016040516020818303038152906040528051906020012060001c905090565b6060600e805480602002602001604051908101604052809291908181526020018280548015610fa2576020028201919060005260206000209081546001600160a01b03168152600190910190602001808311610f84575050505050905090565b6004546001600160a01b0316612052612394565b6001600160a01b0316146120785760405162461bcd60e51b815260040161088990612955565b60005b600f54811015610f07576120c3600f828154811061209b5761209b6129f2565b60009182526020808320909101546001600160a01b03168252600d9052604090205460ff1690565b61224e576000600c6000600f84815481106120e0576120e06129f2565b60009182526020808320909101546001600160a01b03168352820192909252604001812054600f8054919350600c9183919086908110612122576121226129f2565b6000918252602080832091909101546001600160a01b039081168452908301939093526040918201902092909255601154915163a9059cbb60e01b815285821660048201526024810184905291169063a9059cbb906044016020604051808303816000875af1158015612199573d6000803e3d6000fd5b505050506040513d601f19601f820116820180604052508101906121bd9190612a41565b50826001600160a01b03166350f3dbec600f84815481106121e0576121e06129f2565b60009182526020909120015460405160e083901b6001600160e01b03191681526001600160a01b03909116600482015260248101849052604401600060405180830381600087803b15801561223457600080fd5b505af1158015612248573d6000803e3d6000fd5b50505050505b60010161207b565b6004546001600160a01b031661226a612394565b6001600160a01b0316146122905760405162461bcd60e51b815260040161088990612955565b600480546001600160a01b0319166001600160a01b0392909216919091179055565b6122ba6123a3565b6001600160a01b0381166122e457604051631e4fbdf760e01b815260006004820152602401610889565b610da981612502565b6004546001600160a01b0316612301612394565b6001600160a01b0316146123275760405162461bcd60e51b815260040161088990612955565b601280546001600160a01b0319166001600160a01b0392909216919091179055565b612354611bfa612394565b5061235d612394565b6001600160a01b03167fd802e7c7f1646e3318c03abed1e468bdf913f45331a68dc912a0d645eb646a4260405160405180910390a2565b600061239e6125f2565b905090565b6123ab612394565b6001600160a01b03166123c66002546001600160a01b031690565b6001600160a01b03161461091a576123dc612394565b60405163118cdaa760e01b81526001600160a01b039091166004820152602401610889565b6000805460018082018084558380529192909183908110612424576124246129f2565b90600052602060002090602091828204019190066101000a81548160ff02191690831515021790555060008183604051602001612462929190612be5565b6040516020818303038152906040529050600061247d612636565b905060008183604051602001612494929190612be5565b60408051601f198184030181528282528051602080830191909120600089815260019092529290208290559250907fd91fc3685b930310b008ec37d2334870cab88a023ed8cc628a2e2ccd4e55d202906124f19085908790612be5565b60405180910390a150505050919050565b600280546001600160a01b038381166001600160a01b0319831681179093556040519116919082907f8be0079c531659141344cd1fd0a4f28419497f9722a3daafe3b4186f6b6457e090600090a35050565b60008180602001905181019061256a9190612c1f565b6004549091506001600160a01b039081169082160361258d57600a8490556125a9565b6001600160a01b03811660009081526014602052604090208490555b806001600160a01b03167fdc88f22db6d7f267e15a797eb52635df440f5f8b47a89ac56fa5b212e4e97e2d856040516125e491815260200190565b60405180910390a250505050565b60007f00000000000000000000000000000000000000000000000000000000000000006001600160a01b03163303612631575060131936013560601c90565b503390565b6000806126476364e62127426129df565b90506000612656600383612a1f565b6126619060016129c6565b90504660011461267b576126768160016129c6565b612686565b6126868160046129c6565b9250505090565b60006020828403121561269f57600080fd5b5035919050565b6001600160a01b0381168114610da957600080fd5b80356126c6816126a6565b919050565b6000602082840312156126dd57600080fd5b81356126e8816126a6565b9392505050565b6000806040838503121561270257600080fd5b823561270d816126a6565b946020939093013593505050565b6020808252825182820181905260009190848201906040850190845b8181101561275c5783516001600160a01b031683529284019291840191600101612737565b50909695505050505050565b60006020828403121561277a57600080fd5b8135600381106126e857600080fd5b634e487b7160e01b600052602160045260246000fd5b60208101600383106127c157634e487b7160e01b600052602160045260246000fd5b91905290565b6000806000604084860312156127dc57600080fd5b83359250602084013567ffffffffffffffff808211156127fb57600080fd5b818601915086601f83011261280f57600080fd5b81358181111561281e57600080fd5b87602082850101111561283057600080fd5b6020830194508093505050509250925092565b634e487b7160e01b600052604160045260246000fd5b604051610120810167ffffffffffffffff8111828210171561287d5761287d612843565b60405290565b604051601f8201601f1916810167ffffffffffffffff811182821017156128ac576128ac612843565b604052919050565b600061012082840312156128c757600080fd5b6128cf612859565b6128d8836126bb565b81526128e6602084016126bb565b60208201526128f7604084016126bb565b6040820152612908606084016126bb565b60608201526080830135608082015260a083013560a082015260c083013560c082015261293760e084016126bb565b60e082015261010061294a8185016126bb565b908201529392505050565b60208082526022908201527f4f6e6c792073656c6c65722063616e2063616c6c20746869732066756e63746960408201526137b760f11b606082015260800190565b634e487b7160e01b600052601160045260246000fd5b6000600182016129bf576129bf612997565b5060010190565b808201808211156129d9576129d9612997565b92915050565b818103818111156129d9576129d9612997565b634e487b7160e01b600052603260045260246000fd5b80820281158282048414176129d9576129d9612997565b600082612a3c57634e487b7160e01b600052601260045260246000fd5b500490565b600060208284031215612a5357600080fd5b815180151581146126e857600080fd5b600067ffffffffffffffff821115612a7d57612a7d612843565b50601f01601f191660200190565b60008060408385031215612a9e57600080fd5b82359150602083013567ffffffffffffffff811115612abc57600080fd5b8301601f81018513612acd57600080fd5b8035612ae0612adb82612a63565b612883565b818152866020838501011115612af557600080fd5b816020840160208301376000602083830101528093505050509250929050565b60005b83811015612b30578181015183820152602001612b18565b50506000910152565b60008060408385031215612b4c57600080fd5b82519150602083015167ffffffffffffffff811115612b6a57600080fd5b8301601f81018513612b7b57600080fd5b8051612b89612adb82612a63565b818152866020838501011115612b9e57600080fd5b612baf826020830160208601612b15565b8093505050509250929050565b8183823760009101908152919050565b600060208284031215612bde57600080fd5b5051919050565b8281526040602082015260008251806040840152612c0a816060850160208701612b15565b601f01601f1916919091016060019392505050565b600060208284031215612c3157600080fd5b81516126e8816126a656fea2646970667358221220f313a86b24f3dfd500f4f9960ef3af75fd921c7045e31c3fb291208638acb65664736f6c63430008190033","linkReferences":{}},"methodIdentifiers":{"buyerWithdraw()":"7cc947d0","changeLotteryState(uint8)":"683e93e1","claimNumber(address)":"3dc204e7","deposit(uint256)":"b6b55f25","deposits(address)":"fc7e286d","endLottery()":"1593a8c7","finishAt()":"67d3b488","fulfillRandomness(uint256,bytes)":"b3f6b99a","getDepositedAmount(address)":"e9081ec7","getParticipants()":"5aa68ac0","getRandomNumber()":"dbdff2c1","getWinners()":"df15c37e","hasMinted(address)":"38e21cce","initialize((address,address,address,address,uint256,uint256,uint256,address,address))":"d30009bd","initialized()":"158ef93e","isClaimable(address)":"292fec04","isTrustedForwarder(address)":"572b6c05","isWinner(address)":"9d9ca28d","lotteryState()":"6939864b","lotteryV1Addr()":"5f86e4fe","maxMints()":"b6b6f0c3","minimumDepositAmount()":"080c279a","mintCount()":"9659867e","mintMyNFT()":"26170480","multisigWalletAddress()":"a61fb2ba","nftContractAddr()":"2c23ec8e","numberOfTickets()":"45745c10","operatorAddr()":"f3f18c37","owner()":"8da5cb5b","randomNumber()":"ccbac9f5","renounceOwnership()":"715018a6","requestPending(uint256)":"75ce7fff","requestRandomness()":"f8413b07","requestedHash(uint256)":"c4f8f27b","roll()":"cd5e3c5d","rollPrice()":"cf3af3a1","rollTolerance()":"bf1dda15","rolledNumbers(address)":"7b15452d","seller()":"08551a53","sellerWithdraw()":"66af746b","setFinishAt(uint256)":"0bea6637","setLotteryV1Addr(address)":"f7098e58","setMinimumDepositAmount(uint256)":"aab483d6","setMultisigWalletAddress(address)":"60d50da3","setNftContractAddr(address)":"3644c27c","setNumberOfTickets(uint256)":"99bd69d6","setRandomNumber()":"97fedfcb","setRollPrice(uint256)":"5687156e","setRollTolerance(uint256)":"12f0800b","setSeller(address)":"e99d2866","setUsdcContractAddr(address)":"94d898de","setWinner(address)":"d9fca769","startLottery()":"160344e2","transferDeposit(address,uint256)":"50f3dbec","transferNonWinnerDeposits(address)":"e63c4609","transferOwnership(address)":"f2fde38b","usdcContractAddr()":"99dbf4b5","winnerAddresses(uint256)":"045f9c97","winners(address)":"6bd5450a"},"id":44}