{"abi":[{"type":"function","name":"MAX_RANDOM","inputs":[],"outputs":[{"name":"","type":"uint256","internalType":"uint256"}],"stateMutability":"view"},{"type":"function","name":"buyerWithdraw","inputs":[],"outputs":[],"stateMutability":"nonpayable"},{"type":"function","name":"changeLotteryState","inputs":[{"name":"_newState","type":"uint8","internalType":"enum SaleBase.LotteryState"}],"outputs":[],"stateMutability":"nonpayable"},{"type":"function","name":"claimNumber","inputs":[{"name":"_participant","type":"address","internalType":"address"}],"outputs":[{"name":"","type":"bool","internalType":"bool"}],"stateMutability":"nonpayable"},{"type":"function","name":"deposit","inputs":[{"name":"amount","type":"uint256","internalType":"uint256"}],"outputs":[],"stateMutability":"nonpayable"},{"type":"function","name":"deposits","inputs":[{"name":"","type":"address","internalType":"address"}],"outputs":[{"name":"","type":"uint256","internalType":"uint256"}],"stateMutability":"view"},{"type":"function","name":"endLottery","inputs":[],"outputs":[],"stateMutability":"nonpayable"},{"type":"function","name":"fulfillRandomness","inputs":[{"name":"randomness","type":"uint256","internalType":"uint256"},{"name":"dataWithRound","type":"bytes","internalType":"bytes"}],"outputs":[],"stateMutability":"nonpayable"},{"type":"function","name":"getDepositedAmount","inputs":[{"name":"participant","type":"address","internalType":"address"}],"outputs":[{"name":"","type":"uint256","internalType":"uint256"}],"stateMutability":"view"},{"type":"function","name":"getParticipants","inputs":[],"outputs":[{"name":"","type":"address[]","internalType":"address[]"}],"stateMutability":"view"},{"type":"function","name":"getWinners","inputs":[],"outputs":[{"name":"","type":"address[]","internalType":"address[]"}],"stateMutability":"view"},{"type":"function","name":"hasMinted","inputs":[{"name":"","type":"address","internalType":"address"}],"outputs":[{"name":"","type":"bool","internalType":"bool"}],"stateMutability":"view"},{"type":"function","name":"initialize","inputs":[{"name":"config","type":"tuple","internalType":"struct StructsLibrary.ILotteryV2BaseConfig","components":[{"name":"_gelatoVrfOperator","type":"address","internalType":"address"},{"name":"_blessedOperator","type":"address","internalType":"address"},{"name":"_owner","type":"address","internalType":"address"},{"name":"_ticketAmount","type":"uint256","internalType":"uint256"},{"name":"_ticketPrice","type":"uint256","internalType":"uint256"},{"name":"_rollPrice","type":"uint256","internalType":"uint256"},{"name":"_rollTolerance","type":"uint256","internalType":"uint256"},{"name":"_usdcContractAddr","type":"address","internalType":"address"},{"name":"_nftContractAddr","type":"address","internalType":"address"},{"name":"_multisigWalletAddress","type":"address","internalType":"address"},{"name":"_prevPhaseContractAddr","type":"address","internalType":"address"}]}],"outputs":[],"stateMutability":"nonpayable"},{"type":"function","name":"isClaimable","inputs":[{"name":"_participant","type":"address","internalType":"address"}],"outputs":[{"name":"","type":"bool","internalType":"bool"}],"stateMutability":"view"},{"type":"function","name":"isTrustedForwarder","inputs":[{"name":"forwarder","type":"address","internalType":"address"}],"outputs":[{"name":"","type":"bool","internalType":"bool"}],"stateMutability":"view"},{"type":"function","name":"isWinner","inputs":[{"name":"_participant","type":"address","internalType":"address"}],"outputs":[{"name":"","type":"bool","internalType":"bool"}],"stateMutability":"view"},{"type":"function","name":"lotteryState","inputs":[],"outputs":[{"name":"","type":"uint8","internalType":"enum SaleBase.LotteryState"}],"stateMutability":"view"},{"type":"function","name":"lotteryV1Addr","inputs":[],"outputs":[{"name":"","type":"address","internalType":"address"}],"stateMutability":"view"},{"type":"function","name":"mintMyNFT","inputs":[],"outputs":[],"stateMutability":"nonpayable"},{"type":"function","name":"multisigWalletAddress","inputs":[],"outputs":[{"name":"","type":"address","internalType":"address"}],"stateMutability":"view"},{"type":"function","name":"nftContractAddr","inputs":[],"outputs":[{"name":"","type":"address","internalType":"address"}],"stateMutability":"view"},{"type":"function","name":"numberOfTickets","inputs":[],"outputs":[{"name":"","type":"uint256","internalType":"uint256"}],"stateMutability":"view"},{"type":"function","name":"operatorAddr","inputs":[],"outputs":[{"name":"","type":"address","internalType":"address"}],"stateMutability":"view"},{"type":"function","name":"owner","inputs":[],"outputs":[{"name":"","type":"address","internalType":"address"}],"stateMutability":"view"},{"type":"function","name":"randomNumber","inputs":[],"outputs":[{"name":"","type":"uint256","internalType":"uint256"}],"stateMutability":"view"},{"type":"function","name":"renounceOwnership","inputs":[],"outputs":[],"stateMutability":"nonpayable"},{"type":"function","name":"requestPending","inputs":[{"name":"","type":"uint256","internalType":"uint256"}],"outputs":[{"name":"","type":"bool","internalType":"bool"}],"stateMutability":"view"},{"type":"function","name":"requestRandomness","inputs":[],"outputs":[],"stateMutability":"nonpayable"},{"type":"function","name":"requestedHash","inputs":[{"name":"","type":"uint256","internalType":"uint256"}],"outputs":[{"name":"","type":"bytes32","internalType":"bytes32"}],"stateMutability":"view"},{"type":"function","name":"roll","inputs":[],"outputs":[],"stateMutability":"nonpayable"},{"type":"function","name":"rollPrice","inputs":[],"outputs":[{"name":"","type":"uint256","internalType":"uint256"}],"stateMutability":"view"},{"type":"function","name":"rollTolerance","inputs":[],"outputs":[{"name":"","type":"uint256","internalType":"uint256"}],"stateMutability":"view"},{"type":"function","name":"rolledNumbers","inputs":[{"name":"","type":"address","internalType":"address"}],"outputs":[{"name":"","type":"uint256","internalType":"uint256"}],"stateMutability":"view"},{"type":"function","name":"seller","inputs":[],"outputs":[{"name":"","type":"address","internalType":"address"}],"stateMutability":"view"},{"type":"function","name":"sellerWithdraw","inputs":[],"outputs":[],"stateMutability":"nonpayable"},{"type":"function","name":"setSeller","inputs":[{"name":"_seller","type":"address","internalType":"address"}],"outputs":[],"stateMutability":"nonpayable"},{"type":"function","name":"startLottery","inputs":[],"outputs":[],"stateMutability":"nonpayable"},{"type":"function","name":"ticketPrice","inputs":[],"outputs":[{"name":"","type":"uint256","internalType":"uint256"}],"stateMutability":"view"},{"type":"function","name":"transferDeposit","inputs":[{"name":"_participant","type":"address","internalType":"address"},{"name":"_amount","type":"uint256","internalType":"uint256"}],"outputs":[],"stateMutability":"nonpayable"},{"type":"function","name":"transferNonWinnerDeposits","inputs":[{"name":"auctionV1addr","type":"address","internalType":"address"}],"outputs":[],"stateMutability":"nonpayable"},{"type":"function","name":"transferOwnership","inputs":[{"name":"newOwner","type":"address","internalType":"address"}],"outputs":[],"stateMutability":"nonpayable"},{"type":"function","name":"usdcContractAddr","inputs":[],"outputs":[{"name":"","type":"address","internalType":"address"}],"stateMutability":"view"},{"type":"function","name":"winnerAddresses","inputs":[{"name":"","type":"uint256","internalType":"uint256"}],"outputs":[{"name":"","type":"address","internalType":"address"}],"stateMutability":"view"},{"type":"function","name":"winners","inputs":[{"name":"","type":"address","internalType":"address"}],"outputs":[{"name":"","type":"bool","internalType":"bool"}],"stateMutability":"view"},{"type":"event","name":"BuyerDeposited","inputs":[{"name":"buyer","type":"address","indexed":true,"internalType":"address"},{"name":"amount","type":"uint256","indexed":true,"internalType":"uint256"}],"anonymous":false},{"type":"event","name":"BuyerWithdrew","inputs":[{"name":"buyer","type":"address","indexed":true,"internalType":"address"},{"name":"amount","type":"uint256","indexed":true,"internalType":"uint256"}],"anonymous":false},{"type":"event","name":"DepositsReturned","inputs":[{"name":"returnedDepositsCount","type":"uint256","indexed":false,"internalType":"uint256"}],"anonymous":false},{"type":"event","name":"Initialized","inputs":[{"name":"version","type":"uint64","indexed":false,"internalType":"uint64"}],"anonymous":false},{"type":"event","name":"LotteryEnded","inputs":[],"anonymous":false},{"type":"event","name":"LotteryStarted","inputs":[],"anonymous":false},{"type":"event","name":"OwnershipTransferred","inputs":[{"name":"previousOwner","type":"address","indexed":true,"internalType":"address"},{"name":"newOwner","type":"address","indexed":true,"internalType":"address"}],"anonymous":false},{"type":"event","name":"RandomFulfilled","inputs":[{"name":"requester","type":"address","indexed":true,"internalType":"address"},{"name":"number","type":"uint256","indexed":false,"internalType":"uint256"}],"anonymous":false},{"type":"event","name":"RandomRequested","inputs":[{"name":"requester","type":"address","indexed":true,"internalType":"address"}],"anonymous":false},{"type":"event","name":"RequestedRandomness","inputs":[{"name":"round","type":"uint256","indexed":false,"internalType":"uint256"},{"name":"data","type":"bytes","indexed":false,"internalType":"bytes"}],"anonymous":false},{"type":"event","name":"WinnerSelected","inputs":[{"name":"winner","type":"address","indexed":true,"internalType":"address"}],"anonymous":false},{"type":"error","name":"InvalidInitialization","inputs":[]},{"type":"error","name":"NotInitializing","inputs":[]},{"type":"error","name":"OwnableInvalidOwner","inputs":[{"name":"owner","type":"address","internalType":"address"}]},{"type":"error","name":"OwnableUnauthorizedAccount","inputs":[{"name":"account","type":"address","internalType":"address"}]}],"bytecode":{"object":"0x60a060405234801561001057600080fd5b5073d8253782c45a12053594b9deb72d8e8ab2fca54c338061004c57604051631e4fbdf760e01b81526000600482015260240160405180910390fd5b6100558161006f565b506001600160a01b031660805261006a6100bf565b610171565b600080546001600160a01b038381166001600160a01b0319831681178455604051919092169283917f8be0079c531659141344cd1fd0a4f28419497f9722a3daafe3b4186f6b6457e09190a35050565b7ff0c57e16840df040f15088dc2f81fe391c3923bec73e23a9662efc9c229c6a00805468010000000000000000900460ff161561010f5760405163f92ee8a960e01b815260040160405180910390fd5b80546001600160401b039081161461016e5780546001600160401b0319166001600160401b0390811782556040519081527fc7f505b2f371ae2175ee4913f4499e1f2633a7b5936321eed1cdaeb6115181d29060200160405180910390a15b50565b608051612d146101936000396000818161039201526125a40152612d146000f3fe608060405234801561001057600080fd5b50600436106102745760003560e01c80637b15452d11610151578063cd5e3c5d116100c3578063e9081ec711610087578063e9081ec714610586578063e99d2866146105af578063f2fde38b146105c2578063f3f18c37146105d5578063f8413b07146105e8578063fc7e286d146105f057600080fd5b8063cd5e3c5d14610547578063ce1121f21461054f578063cf3af3a114610562578063df15c37e1461056b578063e63c46091461057357600080fd5b8063a61fb2ba11610115578063a61fb2ba146104dc578063b3f6b99a146104ef578063b6b55f2514610502578063bf1dda1514610515578063c4f8f27b1461051e578063ccbac9f51461053e57600080fd5b80637b15452d146104645780637cc947d0146104845780638da5cb5b1461048c57806399dbf4b51461049d5780639d9ca28d146104b057600080fd5b806345745c10116101ea57806366af746b116101ae57806366af746b146103ea578063683e93e1146103f25780636939864b146104055780636bd5450a14610426578063715018a61461044957806375ce7fff1461045157600080fd5b806345745c101461036657806350f3dbec1461036f578063572b6c05146103825780635aa68ac0146103c25780635f86e4fe146103d757600080fd5b8063160344e21161023c578063160344e2146102ea57806326170480146102f2578063292fec04146102fa5780632c23ec8e1461031d57806338e21cce146103305780633dc204e71461035357600080fd5b8063045f9c971461027957806308551a53146102a95780630a9fa5c7146102bc5780631209b1f6146102d75780631593a8c7146102e0575b600080fd5b61028c61028736600461266d565b610610565b6040516001600160a01b0390911681526020015b60405180910390f35b60025461028c906001600160a01b031681565b6102c9655af3107a400081565b6040519081526020016102a0565b6102c960045481565b6102e861063a565b005b6102e86106ba565b6102e8610795565b61030d6103083660046126a6565b6109ce565b60405190151581526020016102a0565b600a5461028c906001600160a01b031681565b61030d61033e3660046126a6565b60056020526000908152604090205460ff1681565b61030d6103613660046126a6565b610aae565b6102c960035481565b6102e861037d3660046126ca565b610b81565b61030d6103903660046126a6565b7f00000000000000000000000000000000000000000000000000000000000000006001600160a01b0390811691161490565b6103ca610cd3565b6040516102a091906126f6565b60105461028c906001600160a01b031681565b6102e8610d35565b6102e8610400366004612743565b610f6c565b60005461041990600160a01b900460ff1681565b6040516102a0919061277a565b61030d6104343660046126a6565b60076020526000908152604090205460ff1681565b6102e8610fd3565b61030d61045f36600461266d565b610fe7565b6102c96104723660046126a6565b60116020526000908152604090205481565b6102e861101b565b6000546001600160a01b031661028c565b600b5461028c906001600160a01b031681565b61030d6104be3660046126a6565b6001600160a01b031660009081526007602052604090205460ff1690565b60015461028c906001600160a01b031681565b6102e86104fd3660046127a2565b61125f565b6102e861051036600461266d565b611439565b6102c960135481565b6102c961052c36600461266d565b600d6020526000908152604090205481565b6102c9600f5481565b6102e86118de565b6102e861055d36600461288f565b611aae565b6102c960125481565b6103ca611c79565b6102e86105813660046126a6565b611cd9565b6102c96105943660046126a6565b6001600160a01b031660009081526006602052604090205490565b6102e86105bd3660046126a6565b611ef5565b6102e86105d03660046126a6565b611f51565b600e5461028c906001600160a01b031681565b6102e8611f8c565b6102c96105fe3660046126a6565b60066020526000908152604090205481565b6008818154811061062057600080fd5b6000918252602090912001546001600160a01b0316905081565b6002546001600160a01b031661064e612011565b6001600160a01b03161461067d5760405162461bcd60e51b81526004016106749061294d565b60405180910390fd5b6106876002610f6c565b61068f612020565b6040517f9c89a6ed7228533196a3f962acc80d61a9c53bdea6b910741bf754f5aaa7569e90600090a1565b6002546001600160a01b03166106ce612011565b6001600160a01b0316146106f45760405162461bcd60e51b81526004016106749061294d565b60008054600160a01b900460ff16600281111561071357610713612764565b146107605760405162461bcd60e51b815260206004820152601760248201527f53616c6520697320696e206163746976652073746174650000000000000000006044820152606401610674565b61076a6001610f6c565b6040517fd029c7c68d943f92286a7825fa6aa2deefa1eee46cee6c91b7e483fd06d27baf90600090a1565b600560006107a1612011565b6001600160a01b0316815260208101919091526040016000205460ff16156108005760405162461bcd60e51b815260206004820152601260248201527113919508185b1c9958591e481b5a5b9d195960721b6044820152606401610674565b61080b6104be612011565b6108505760405162461bcd60e51b815260206004820152601660248201527521b0b63632b91034b9903737ba1030903bb4b73732b960511b6044820152606401610674565b610858612011565b601054604051639d9ca28d60e01b81526001600160a01b03838116600483015290911690639d9ca28d90602401602060405180830381865afa1580156108a2573d6000803e3d6000fd5b505050506040513d601f19601f820116820180604052508101906108c6919061298f565b156108e35760405162461bcd60e51b8152600401610674906129b1565b6001600560006108f1612011565b6001600160a01b0316815260208101919091526040016000908120805460ff191692151592909217909155600681610927612011565b6001600160a01b031681526020810191909152604001600090812091909155600380549161095483612a0f565b9091555050600a546001600160a01b0316636b8f60f6610972612011565b6040516001600160e01b031960e084901b1681526001600160a01b039091166004820152602401600060405180830381600087803b1580156109b357600080fd5b505af11580156109c7573d6000803e3d6000fd5b5050505050565b6000806064601354655af3107a40006109e79190612a26565b6109f19190612a59565b9050600081600f541015610a06576000610a14565b81600f54610a149190612a6d565b90506000655af3107a400083600f54610a2d9190612a80565b1115610a3f57655af3107a4000610a4d565b82600f54610a4d9190612a80565b6001600160a01b038616600090815260116020526040812054919250838210801590610a795750828211155b6004546001600160a01b03891660009081526006602052604090205491925011801590610aa35750805b979650505050505050565b6000610ab9826109ce565b8015610ade57506001600160a01b03821660009081526007602052604090205460ff16155b15610b74576001600160a01b038216600081815260076020526040808220805460ff1916600190811790915560088054918201815583527ff3f7a9fe364faab93b216da50a3214154f22a0a2b415b23a84c8169e8b636ee30180546001600160a01b03191684179055517f1d4c260f1824cd028e6c9e6e31c3a0b94f2513e7a641113ec759d382f9bdd5a19190a2506001919050565b506000919050565b919050565b610b89612011565b6010546001600160a01b03908116911614610bf65760405162461bcd60e51b815260206004820152602760248201527f4f6e6c792077686974656c6973746564206d61792063616c6c207468697320666044820152663ab731ba34b7b760c91b6064820152608401610674565b6001600160a01b0382166000908152600660205260408120549003610ca25760098054600181019091557f6e1540171b6c0c960b71a7020d9f60077f6af931a8bbf590da0223dacf75c7af0180546001600160a01b0319166001600160a01b0384169081179091556000908152601160205260408120549003610ca257604080516001600160a01b0384166020820152610ca091015b604051602081830303815290604052612332565b505b6001600160a01b03821660009081526006602052604081208054839290610cca908490612a80565b90915550505050565b60606009805480602002602001604051908101604052809291908181526020018280548015610d2b57602002820191906000526020600020905b81546001600160a01b03168152600190910190602001808311610d0d575b5050505050905090565b6002546001600160a01b0316610d49612011565b6001600160a01b031614610d6f5760405162461bcd60e51b81526004016106749061294d565b6002600054600160a01b900460ff166002811115610d8f57610d8f612764565b14610dd05760405162461bcd60e51b8152602060048201526011602482015270131bdd1d195c9e481b9bdd08195b991959607a1b6044820152606401610674565b6000805b600854811015610e4957600060088281548110610df357610df3612a93565b60009182526020808320909101546001600160a01b03168083526006909152604090912054909150610e259084612a80565b6001600160a01b039091166000908152600660205260408120559150600101610dd4565b5060006064610e59836005612a26565b610e639190612a59565b90506000610e718284612a6d565b600b5460015460405163a9059cbb60e01b81526001600160a01b03918216600482015260248101869052929350169063a9059cbb906044016020604051808303816000875af1158015610ec8573d6000803e3d6000fd5b505050506040513d601f19601f82011682018060405250810190610eec919061298f565b50600b5460025460405163a9059cbb60e01b81526001600160a01b0391821660048201526024810184905291169063a9059cbb906044016020604051808303816000875af1158015610f42573d6000803e3d6000fd5b505050506040513d601f19601f82011682018060405250810190610f66919061298f565b50505050565b6002546001600160a01b0316610f80612011565b6001600160a01b031614610fa65760405162461bcd60e51b81526004016106749061294d565b6000805482919060ff60a01b1916600160a01b836002811115610fcb57610fcb612764565b021790555050565b610fdb612435565b610fe56000612493565b565b600c8181548110610ff757600080fd5b9060005260206000209060209182820401919006915054906101000a900460ff1681565b6002600054600160a01b900460ff16600281111561103b5761103b612764565b146110805760405162461bcd60e51b815260206004820152601560248201527414d85b19481a5cc81b9bdd08195b991959081e595d605a1b6044820152606401610674565b6007600061108c612011565b6001600160a01b0316815260208101919091526040016000205460ff16156110f65760405162461bcd60e51b815260206004820152601760248201527f57696e6e6572732063616e6e6f742077697468647261770000000000000000006044820152606401610674565b600060066000611104612011565b6001600160a01b03166001600160a01b031681526020019081526020016000205490506000811161116e5760405162461bcd60e51b81526020600482015260146024820152734e6f2066756e647320746f20776974686472617760601b6044820152606401610674565b60006006600061117c612011565b6001600160a01b039081168252602082019290925260400160002091909155600b541663a9059cbb6111ac612011565b6040516001600160e01b031960e084901b1681526001600160a01b039091166004820152602481018490526044016020604051808303816000875af11580156111f9573d6000803e3d6000fd5b505050506040513d601f19601f8201168201806040525081019061121d919061298f565b5080611227612011565b6001600160a01b03167f1f280cd00e67ed50213ac03febd5be151f96b7f7db2f85312aa0feff99f8bdab60405160405180910390a350565b600e546001600160a01b031633146112a95760405162461bcd60e51b815260206004820152600d60248201526c37b7363c9037b832b930ba37b960991b6044820152606401610674565b60006112b782840184612ad1565b915050600080828060200190518101906112d19190612b7f565b91509150600085856040516112e7929190612c02565b604051809103902090506000600d60008581526020019081526020016000205482149050600c848154811061131e5761131e612a93565b90600052602060002090602091828204019190069054906101000a900460ff1661138a5760405162461bcd60e51b815260206004820152601c60248201527f726571756573742066756c66696c6c6564206f72206d697373696e67000000006044820152606401610674565b801561142f5760408051602081018a905230918101919091524660608201526080810185905260a0016040516020818303038152906040528051906020012060001c97506113d98885856124e3565b6000600c85815481106113ee576113ee612a93565b90600052602060002090602091828204019190066101000a81548160ff021916908315150217905550600d6000858152602001908152602001600020600090555b5050505050505050565b6001600054600160a01b900460ff16600281111561145957611459612764565b1461149b5760405162461bcd60e51b815260206004820152601260248201527153616c65206973206e6f742061637469766560701b6044820152606401610674565b6114a3612011565b601054604051639d9ca28d60e01b81526001600160a01b03838116600483015290911690639d9ca28d90602401602060405180830381865afa1580156114ed573d6000803e3d6000fd5b505050506040513d601f19601f82011682018060405250810190611511919061298f565b1561152e5760405162461bcd60e51b8152600401610674906129b1565b60035460085411156115525760405162461bcd60e51b815260040161067490612c12565b600b546001600160a01b03166115aa5760405162461bcd60e51b815260206004820152601d60248201527f5553444320636f6e74726163742061646472657373206e6f74207365740000006044820152606401610674565b6012548210156115f45760405162461bcd60e51b8152602060048201526015602482015274139bdd08195b9bdd59da08199d5b991cc81cd95b9d605a1b6044820152606401610674565b600b5482906001600160a01b031663dd62ed3e61160f612011565b6040516001600160e01b031960e084901b1681526001600160a01b039091166004820152306024820152604401602060405180830381865afa158015611659573d6000803e3d6000fd5b505050506040513d601f19601f8201168201806040525081019061167d9190612c5a565b10156116c45760405162461bcd60e51b8152602060048201526016602482015275496e73756666696369656e7420616c6c6f77616e636560501b6044820152606401610674565b600b546001600160a01b03166323b872dd6116dd612011565b6040516001600160e01b031960e084901b1681526001600160a01b039091166004820152306024820152604481018590526064016020604051808303816000875af1158015611730573d6000803e3d6000fd5b505050506040513d601f19601f82011682018060405250810190611754919061298f565b5060066000611761612011565b6001600160a01b03166001600160a01b031681526020019081526020016000205460000361185a576009611793612011565b81546001810183556000928352602083200180546001600160a01b0319166001600160a01b03929092169190911790556011906117ce612011565b6001600160a01b03166001600160a01b031681526020019081526020016000205460000361185a5761181b611801612011565b604080516001600160a01b03909216602083015201610c8c565b50611824612011565b6001600160a01b03167fd802e7c7f1646e3318c03abed1e468bdf913f45331a68dc912a0d645eb646a4260405160405180910390a25b8160066000611867612011565b6001600160a01b03166001600160a01b0316815260200190815260200160002060008282546118969190612a80565b909155508290506118a5612011565b6001600160a01b03167f21040858e63c11c046482f61f290bbe25972fc74b11b4570a01f9241082d21f160405160405180910390a35050565b6001600054600160a01b900460ff1660028111156118fe576118fe612764565b146119405760405162461bcd60e51b815260206004820152601260248201527153616c65206973206e6f742061637469766560701b6044820152606401610674565b60035460085411156119645760405162461bcd60e51b815260040161067490612c12565b6000601254116119aa5760405162461bcd60e51b8152602060048201526011602482015270139bc81c9bdb1b081c1c9a58d9481cd95d607a1b6044820152606401610674565b6004546012546119ba9190612a80565b600660006119c6612011565b6001600160a01b03166001600160a01b03168152602001908152602001600020541015611a2a5760405162461bcd60e51b8152602060048201526012602482015271496e73756666696369656e742066756e647360701b6044820152606401610674565b60125460066000611a39612011565b6001600160a01b03166001600160a01b031681526020019081526020016000206000828254611a689190612a6d565b90915550506012546002546001600160a01b031660009081526006602052604081208054909190611a9a908490612a80565b90915550611aab9050611801612011565b50565b7ff0c57e16840df040f15088dc2f81fe391c3923bec73e23a9662efc9c229c6a008054600160401b810460ff16159067ffffffffffffffff16600081158015611af45750825b905060008267ffffffffffffffff166001148015611b115750303b155b905081158015611b1f575080155b15611b3d5760405163f92ee8a960e01b815260040160405180910390fd5b845467ffffffffffffffff191660011785558315611b6757845460ff60401b1916600160401b1785555b6020860151600280546001600160a01b039283166001600160a01b0319918216179091558751600e80549190931691161790556040860151611ba890612493565b6060860151600355608086015160045560a086015160125560c086015160135560e0860151600b80546001600160a01b039283166001600160a01b031991821617909155610100880151600a805491841691831691909117905561012088015160018054918416918316919091179055610140880151601080549190931691161790558315611c7157845460ff60401b19168555604051600181527fc7f505b2f371ae2175ee4913f4499e1f2633a7b5936321eed1cdaeb6115181d29060200160405180910390a15b505050505050565b60606008805480602002602001604051908101604052809291908181526020018280548015610d2b576020028201919060005260206000209081546001600160a01b03168152600190910190602001808311610d0d575050505050905090565b6002546001600160a01b0316611ced612011565b6001600160a01b031614611d135760405162461bcd60e51b81526004016106749061294d565b60005b600954811015611ef157611d5e60098281548110611d3657611d36612a93565b60009182526020808320909101546001600160a01b0316825260079052604090205460ff1690565b611ee95760006006600060098481548110611d7b57611d7b612a93565b60009182526020808320909101546001600160a01b031683528201929092526040018120546009805491935060069183919086908110611dbd57611dbd612a93565b6000918252602080832091909101546001600160a01b039081168452908301939093526040918201902092909255600b54915163a9059cbb60e01b815285821660048201526024810184905291169063a9059cbb906044016020604051808303816000875af1158015611e34573d6000803e3d6000fd5b505050506040513d601f19601f82011682018060405250810190611e58919061298f565b50826001600160a01b03166350f3dbec60098481548110611e7b57611e7b612a93565b60009182526020909120015460405160e083901b6001600160e01b03191681526001600160a01b03909116600482015260248101849052604401600060405180830381600087803b158015611ecf57600080fd5b505af1158015611ee3573d6000803e3d6000fd5b50505050505b600101611d16565b5050565b6002546001600160a01b0316611f09612011565b6001600160a01b031614611f2f5760405162461bcd60e51b81526004016106749061294d565b600280546001600160a01b0319166001600160a01b0392909216919091179055565b611f59612435565b6001600160a01b038116611f8357604051631e4fbdf760e01b815260006004820152602401610674565b611aab81612493565b6002546001600160a01b0316611fa0612011565b6001600160a01b031614611fc65760405162461bcd60e51b81526004016106749061294d565b611fd1611801612011565b50611fda612011565b6001600160a01b03167fd802e7c7f1646e3318c03abed1e468bdf913f45331a68dc912a0d645eb646a4260405160405180910390a2565b600061201b6125a0565b905090565b6002546001600160a01b0316612034612011565b6001600160a01b03161461205a5760405162461bcd60e51b81526004016106749061294d565b6002600054600160a01b900460ff16600281111561207a5761207a612764565b146120bf5760405162461bcd60e51b815260206004820152601560248201527414d85b19481a5cc81b9bdd08195b991959081e595d605a1b6044820152606401610674565b60095460008167ffffffffffffffff8111156120dd576120dd61281e565b604051908082528060200260200182016040528015612106578160200160208202803683370190505b50905060005b82811015612177576009818154811061212757612127612a93565b9060005260206000200160009054906101000a90046001600160a01b031682828151811061215757612157612a93565b6001600160a01b039092166020928302919091019091015260010161210c565b5060005b828110156122ee57600082828151811061219757612197612a93565b6020908102919091018101516001600160a01b0381166000908152600683526040808220805490839055600790945290205490925060ff161561226b576000600454826121e49190612a6d565b9050801561226557600b5460405163a9059cbb60e01b81526001600160a01b038581166004830152602482018490529091169063a9059cbb906044016020604051808303816000875af115801561223f573d6000803e3d6000fd5b505050506040513d601f19601f82011682018060405250810190612263919061298f565b505b506122e4565b600b5460405163a9059cbb60e01b81526001600160a01b038481166004830152602482018490529091169063a9059cbb906044016020604051808303816000875af11580156122be573d6000803e3d6000fd5b505050506040513d601f19601f820116820180604052508101906122e2919061298f565b505b505060010161217b565b506122fb6009600061263b565b6040518281527f01f8aef848121bbf182106b55119c1094063c572b6c8dcb09040e1203a17abf99060200160405180910390a15050565b600c805460018082018084556000849052919290918390811061235757612357612a93565b90600052602060002090602091828204019190066101000a81548160ff02191690831515021790555060008183604051602001612395929190612c73565b604051602081830303815290604052905060006123b06125e4565b9050600081836040516020016123c7929190612c73565b60408051601f1981840301815282825280516020808301919091206000898152600d9092529290208290559250907fd91fc3685b930310b008ec37d2334870cab88a023ed8cc628a2e2ccd4e55d202906124249085908790612c73565b60405180910390a150505050919050565b61243d612011565b6001600160a01b03166124586000546001600160a01b031690565b6001600160a01b031614610fe55761246e612011565b60405163118cdaa760e01b81526001600160a01b039091166004820152602401610674565b600080546001600160a01b038381166001600160a01b0319831681178455604051919092169283917f8be0079c531659141344cd1fd0a4f28419497f9722a3daafe3b4186f6b6457e09190a35050565b6000818060200190518101906124f99190612cad565b9050600061250d655af3107a400086612cca565b6002549091506001600160a01b039081169083160361253057600f819055612556565b6001600160a01b038216600090815260116020526040902081905561255482610aae565b505b816001600160a01b03167f85e7483164122a78ca40e7f10b414e6f78c7d47abdae87716e0fb3491290c6ec8260405161259191815260200190565b60405180910390a25050505050565b60007f00000000000000000000000000000000000000000000000000000000000000006001600160a01b031633036125df575060131936013560601c90565b503390565b6000806125f56364e6212742612a6d565b90506000612604600383612a59565b61260f906001612a80565b90504660011461262957612624816001612a80565b612634565b612634816004612a80565b9250505090565b5080546000825590600052602060002090810190611aab91905b808211156126695760008155600101612655565b5090565b60006020828403121561267f57600080fd5b5035919050565b6001600160a01b0381168114611aab57600080fd5b8035610b7c81612686565b6000602082840312156126b857600080fd5b81356126c381612686565b9392505050565b600080604083850312156126dd57600080fd5b82356126e881612686565b946020939093013593505050565b6020808252825182820181905260009190848201906040850190845b818110156127375783516001600160a01b031683529284019291840191600101612712565b50909695505050505050565b60006020828403121561275557600080fd5b8135600381106126c357600080fd5b634e487b7160e01b600052602160045260246000fd5b602081016003831061279c57634e487b7160e01b600052602160045260246000fd5b91905290565b6000806000604084860312156127b757600080fd5b83359250602084013567ffffffffffffffff808211156127d657600080fd5b818601915086601f8301126127ea57600080fd5b8135818111156127f957600080fd5b87602082850101111561280b57600080fd5b6020830194508093505050509250925092565b634e487b7160e01b600052604160045260246000fd5b604051610160810167ffffffffffffffff811182821017156128585761285861281e565b60405290565b604051601f8201601f1916810167ffffffffffffffff811182821017156128875761288761281e565b604052919050565b600061016082840312156128a257600080fd5b6128aa612834565b6128b38361269b565b81526128c16020840161269b565b60208201526128d26040840161269b565b6040820152606083013560608201526080830135608082015260a083013560a082015260c083013560c082015261290b60e0840161269b565b60e082015261010061291e81850161269b565b9082015261012061293084820161269b565b9082015261014061294284820161269b565b908201529392505050565b60208082526022908201527f4f6e6c792073656c6c65722063616e2063616c6c20746869732066756e63746960408201526137b760f11b606082015260800190565b6000602082840312156129a157600080fd5b815180151581146126c357600080fd5b60208082526028908201527f5061727469636970616e742068617320616c726561647920776f6e20696e204c6040820152676f7474657279563160c01b606082015260800190565b634e487b7160e01b600052601160045260246000fd5b600081612a1e57612a1e6129f9565b506000190190565b8082028115828204841417612a3d57612a3d6129f9565b92915050565b634e487b7160e01b600052601260045260246000fd5b600082612a6857612a68612a43565b500490565b81810381811115612a3d57612a3d6129f9565b80820180821115612a3d57612a3d6129f9565b634e487b7160e01b600052603260045260246000fd5b600067ffffffffffffffff821115612ac357612ac361281e565b50601f01601f191660200190565b60008060408385031215612ae457600080fd5b82359150602083013567ffffffffffffffff811115612b0257600080fd5b8301601f81018513612b1357600080fd5b8035612b26612b2182612aa9565b61285e565b818152866020838501011115612b3b57600080fd5b816020840160208301376000602083830101528093505050509250929050565b60005b83811015612b76578181015183820152602001612b5e565b50506000910152565b60008060408385031215612b9257600080fd5b82519150602083015167ffffffffffffffff811115612bb057600080fd5b8301601f81018513612bc157600080fd5b8051612bcf612b2182612aa9565b818152866020838501011115612be457600080fd5b612bf5826020830160208601612b5b565b8093505050509250929050565b8183823760009101908152919050565b60208082526028908201527f416c6c207469636b65747320616c726561647920616c6c6f636174656420746f6040820152672077696e6e65727360c01b606082015260800190565b600060208284031215612c6c57600080fd5b5051919050565b8281526040602082015260008251806040840152612c98816060850160208701612b5b565b601f01601f1916919091016060019392505050565b600060208284031215612cbf57600080fd5b81516126c381612686565b600082612cd957612cd9612a43565b50069056fea2646970667358221220d407d2a56f6aaae151e85832d60b6afd3f92d361a8bb6d7541cbd236badd65f664736f6c63430008190033","linkReferences":{}},"methodIdentifiers":{"MAX_RANDOM()":"0a9fa5c7","buyerWithdraw()":"7cc947d0","changeLotteryState(uint8)":"683e93e1","claimNumber(address)":"3dc204e7","deposit(uint256)":"b6b55f25","deposits(address)":"fc7e286d","endLottery()":"1593a8c7","fulfillRandomness(uint256,bytes)":"b3f6b99a","getDepositedAmount(address)":"e9081ec7","getParticipants()":"5aa68ac0","getWinners()":"df15c37e","hasMinted(address)":"38e21cce","initialize((address,address,address,uint256,uint256,uint256,uint256,address,address,address,address))":"ce1121f2","isClaimable(address)":"292fec04","isTrustedForwarder(address)":"572b6c05","isWinner(address)":"9d9ca28d","lotteryState()":"6939864b","lotteryV1Addr()":"5f86e4fe","mintMyNFT()":"26170480","multisigWalletAddress()":"a61fb2ba","nftContractAddr()":"2c23ec8e","numberOfTickets()":"45745c10","operatorAddr()":"f3f18c37","owner()":"8da5cb5b","randomNumber()":"ccbac9f5","renounceOwnership()":"715018a6","requestPending(uint256)":"75ce7fff","requestRandomness()":"f8413b07","requestedHash(uint256)":"c4f8f27b","roll()":"cd5e3c5d","rollPrice()":"cf3af3a1","rollTolerance()":"bf1dda15","rolledNumbers(address)":"7b15452d","seller()":"08551a53","sellerWithdraw()":"66af746b","setSeller(address)":"e99d2866","startLottery()":"160344e2","ticketPrice()":"1209b1f6","transferDeposit(address,uint256)":"50f3dbec","transferNonWinnerDeposits(address)":"e63c4609","transferOwnership(address)":"f2fde38b","usdcContractAddr()":"99dbf4b5","winnerAddresses(uint256)":"045f9c97","winners(address)":"6bd5450a"},"id":58}