{"abi":[{"type":"function","name":"buyerWithdraw","inputs":[],"outputs":[],"stateMutability":"nonpayable"},{"type":"function","name":"changeLotteryState","inputs":[{"name":"_newState","type":"uint8","internalType":"enum LotteryV2Base.LotteryState"}],"outputs":[],"stateMutability":"nonpayable"},{"type":"function","name":"claimNumber","inputs":[{"name":"_participant","type":"address","internalType":"address"}],"outputs":[{"name":"","type":"bool","internalType":"bool"}],"stateMutability":"nonpayable"},{"type":"function","name":"deposit","inputs":[{"name":"amount","type":"uint256","internalType":"uint256"}],"outputs":[],"stateMutability":"nonpayable"},{"type":"function","name":"deposits","inputs":[{"name":"","type":"address","internalType":"address"}],"outputs":[{"name":"","type":"uint256","internalType":"uint256"}],"stateMutability":"view"},{"type":"function","name":"endLottery","inputs":[],"outputs":[],"stateMutability":"nonpayable"},{"type":"function","name":"finishAt","inputs":[],"outputs":[{"name":"","type":"uint256","internalType":"uint256"}],"stateMutability":"view"},{"type":"function","name":"fulfillRandomness","inputs":[{"name":"randomness","type":"uint256","internalType":"uint256"},{"name":"dataWithRound","type":"bytes","internalType":"bytes"}],"outputs":[],"stateMutability":"nonpayable"},{"type":"function","name":"getDepositedAmount","inputs":[{"name":"participant","type":"address","internalType":"address"}],"outputs":[{"name":"","type":"uint256","internalType":"uint256"}],"stateMutability":"view"},{"type":"function","name":"getParticipants","inputs":[],"outputs":[{"name":"","type":"address[]","internalType":"address[]"}],"stateMutability":"view"},{"type":"function","name":"getRandomNumber","inputs":[],"outputs":[{"name":"","type":"uint256","internalType":"uint256"}],"stateMutability":"view"},{"type":"function","name":"getWinners","inputs":[],"outputs":[{"name":"","type":"address[]","internalType":"address[]"}],"stateMutability":"view"},{"type":"function","name":"hasMinted","inputs":[{"name":"","type":"address","internalType":"address"}],"outputs":[{"name":"","type":"bool","internalType":"bool"}],"stateMutability":"view"},{"type":"function","name":"initialize","inputs":[{"name":"config","type":"tuple","internalType":"struct StructsLibrary.ILotteryBaseConfig","components":[{"name":"_seller","type":"address","internalType":"address"},{"name":"_gelatoVrfOperator","type":"address","internalType":"address"},{"name":"_blessedOperator","type":"address","internalType":"address"},{"name":"_owner","type":"address","internalType":"address"},{"name":"_ticketAmount","type":"uint256","internalType":"uint256"},{"name":"_ticketPrice","type":"uint256","internalType":"uint256"},{"name":"_finishAt","type":"uint256","internalType":"uint256"},{"name":"_usdcContractAddr","type":"address","internalType":"address"},{"name":"_multisigWalletAddress","type":"address","internalType":"address"},{"name":"_prevPhaseContractAddr","type":"address","internalType":"address"}]}],"outputs":[],"stateMutability":"nonpayable"},{"type":"function","name":"initialized","inputs":[],"outputs":[{"name":"","type":"bool","internalType":"bool"}],"stateMutability":"view"},{"type":"function","name":"isClaimable","inputs":[{"name":"_participant","type":"address","internalType":"address"}],"outputs":[{"name":"","type":"bool","internalType":"bool"}],"stateMutability":"view"},{"type":"function","name":"isTrustedForwarder","inputs":[{"name":"forwarder","type":"address","internalType":"address"}],"outputs":[{"name":"","type":"bool","internalType":"bool"}],"stateMutability":"view"},{"type":"function","name":"isWinner","inputs":[{"name":"_participant","type":"address","internalType":"address"}],"outputs":[{"name":"","type":"bool","internalType":"bool"}],"stateMutability":"view"},{"type":"function","name":"lotteryState","inputs":[],"outputs":[{"name":"","type":"uint8","internalType":"enum LotteryV2Base.LotteryState"}],"stateMutability":"view"},{"type":"function","name":"lotteryV1Addr","inputs":[],"outputs":[{"name":"","type":"address","internalType":"address"}],"stateMutability":"view"},{"type":"function","name":"maxMints","inputs":[],"outputs":[{"name":"","type":"uint256","internalType":"uint256"}],"stateMutability":"view"},{"type":"function","name":"minimumDepositAmount","inputs":[],"outputs":[{"name":"","type":"uint256","internalType":"uint256"}],"stateMutability":"view"},{"type":"function","name":"mintCount","inputs":[],"outputs":[{"name":"","type":"uint256","internalType":"uint256"}],"stateMutability":"view"},{"type":"function","name":"mintMyNFT","inputs":[],"outputs":[],"stateMutability":"nonpayable"},{"type":"function","name":"multisigWalletAddress","inputs":[],"outputs":[{"name":"","type":"address","internalType":"address"}],"stateMutability":"view"},{"type":"function","name":"nftContractAddr","inputs":[],"outputs":[{"name":"","type":"address","internalType":"address"}],"stateMutability":"view"},{"type":"function","name":"numberOfTickets","inputs":[],"outputs":[{"name":"","type":"uint256","internalType":"uint256"}],"stateMutability":"view"},{"type":"function","name":"operatorAddr","inputs":[],"outputs":[{"name":"","type":"address","internalType":"address"}],"stateMutability":"view"},{"type":"function","name":"owner","inputs":[],"outputs":[{"name":"","type":"address","internalType":"address"}],"stateMutability":"view"},{"type":"function","name":"randomNumber","inputs":[],"outputs":[{"name":"","type":"uint256","internalType":"uint256"}],"stateMutability":"view"},{"type":"function","name":"renounceOwnership","inputs":[],"outputs":[],"stateMutability":"nonpayable"},{"type":"function","name":"requestPending","inputs":[{"name":"","type":"uint256","internalType":"uint256"}],"outputs":[{"name":"","type":"bool","internalType":"bool"}],"stateMutability":"view"},{"type":"function","name":"requestRandomness","inputs":[],"outputs":[],"stateMutability":"nonpayable"},{"type":"function","name":"requestedHash","inputs":[{"name":"","type":"uint256","internalType":"uint256"}],"outputs":[{"name":"","type":"bytes32","internalType":"bytes32"}],"stateMutability":"view"},{"type":"function","name":"roll","inputs":[],"outputs":[],"stateMutability":"nonpayable"},{"type":"function","name":"rollPrice","inputs":[],"outputs":[{"name":"","type":"uint256","internalType":"uint256"}],"stateMutability":"view"},{"type":"function","name":"rollTolerance","inputs":[],"outputs":[{"name":"","type":"uint256","internalType":"uint256"}],"stateMutability":"view"},{"type":"function","name":"rolledNumbers","inputs":[{"name":"","type":"address","internalType":"address"}],"outputs":[{"name":"","type":"uint256","internalType":"uint256"}],"stateMutability":"view"},{"type":"function","name":"seller","inputs":[],"outputs":[{"name":"","type":"address","internalType":"address"}],"stateMutability":"view"},{"type":"function","name":"sellerWithdraw","inputs":[],"outputs":[],"stateMutability":"nonpayable"},{"type":"function","name":"setFinishAt","inputs":[{"name":"_finishAt","type":"uint256","internalType":"uint256"}],"outputs":[],"stateMutability":"nonpayable"},{"type":"function","name":"setLotteryV1Addr","inputs":[{"name":"_lotteryV1Addr","type":"address","internalType":"address"}],"outputs":[],"stateMutability":"nonpayable"},{"type":"function","name":"setMinimumDepositAmount","inputs":[{"name":"_amount","type":"uint256","internalType":"uint256"}],"outputs":[],"stateMutability":"nonpayable"},{"type":"function","name":"setMultisigWalletAddress","inputs":[{"name":"_multisigWalletAddress","type":"address","internalType":"address"}],"outputs":[],"stateMutability":"nonpayable"},{"type":"function","name":"setNftContractAddr","inputs":[{"name":"_nftContractAddr","type":"address","internalType":"address"}],"outputs":[],"stateMutability":"nonpayable"},{"type":"function","name":"setNumberOfTickets","inputs":[{"name":"_numberOfTickets","type":"uint256","internalType":"uint256"}],"outputs":[],"stateMutability":"nonpayable"},{"type":"function","name":"setRandomNumber","inputs":[],"outputs":[],"stateMutability":"nonpayable"},{"type":"function","name":"setRollPrice","inputs":[{"name":"_rollPrice","type":"uint256","internalType":"uint256"}],"outputs":[],"stateMutability":"nonpayable"},{"type":"function","name":"setRollTolerance","inputs":[{"name":"_tolerance","type":"uint256","internalType":"uint256"}],"outputs":[],"stateMutability":"nonpayable"},{"type":"function","name":"setSeller","inputs":[{"name":"_seller","type":"address","internalType":"address"}],"outputs":[],"stateMutability":"nonpayable"},{"type":"function","name":"setUsdcContractAddr","inputs":[{"name":"_usdcContractAddr","type":"address","internalType":"address"}],"outputs":[],"stateMutability":"nonpayable"},{"type":"function","name":"setWinner","inputs":[{"name":"_winner","type":"address","internalType":"address"}],"outputs":[],"stateMutability":"nonpayable"},{"type":"function","name":"startLottery","inputs":[],"outputs":[],"stateMutability":"nonpayable"},{"type":"function","name":"transferDeposit","inputs":[{"name":"_participant","type":"address","internalType":"address"},{"name":"_amount","type":"uint256","internalType":"uint256"}],"outputs":[],"stateMutability":"nonpayable"},{"type":"function","name":"transferNonWinnerDeposits","inputs":[{"name":"auctionV1addr","type":"address","internalType":"address"}],"outputs":[],"stateMutability":"nonpayable"},{"type":"function","name":"transferOwnership","inputs":[{"name":"newOwner","type":"address","internalType":"address"}],"outputs":[],"stateMutability":"nonpayable"},{"type":"function","name":"usdcContractAddr","inputs":[],"outputs":[{"name":"","type":"address","internalType":"address"}],"stateMutability":"view"},{"type":"function","name":"winnerAddresses","inputs":[{"name":"","type":"uint256","internalType":"uint256"}],"outputs":[{"name":"","type":"address","internalType":"address"}],"stateMutability":"view"},{"type":"function","name":"winners","inputs":[{"name":"","type":"address","internalType":"address"}],"outputs":[{"name":"","type":"bool","internalType":"bool"}],"stateMutability":"view"},{"type":"event","name":"LotteryEnded","inputs":[],"anonymous":false},{"type":"event","name":"LotteryStarted","inputs":[],"anonymous":false},{"type":"event","name":"OwnershipTransferred","inputs":[{"name":"previousOwner","type":"address","indexed":true,"internalType":"address"},{"name":"newOwner","type":"address","indexed":true,"internalType":"address"}],"anonymous":false},{"type":"event","name":"RandomFullfiled","inputs":[{"name":"requester","type":"address","indexed":true,"internalType":"address"},{"name":"number","type":"uint256","indexed":false,"internalType":"uint256"}],"anonymous":false},{"type":"event","name":"RandomRequested","inputs":[{"name":"requester","type":"address","indexed":true,"internalType":"address"}],"anonymous":false},{"type":"event","name":"RequestedRandomness","inputs":[{"name":"round","type":"uint256","indexed":false,"internalType":"uint256"},{"name":"data","type":"bytes","indexed":false,"internalType":"bytes"}],"anonymous":false},{"type":"event","name":"WinnerSelected","inputs":[{"name":"winner","type":"address","indexed":true,"internalType":"address"}],"anonymous":false},{"type":"error","name":"OwnableInvalidOwner","inputs":[{"name":"owner","type":"address","internalType":"address"}]},{"type":"error","name":"OwnableUnauthorizedAccount","inputs":[{"name":"account","type":"address","internalType":"address"}]}],"bytecode":{"object":"0x60a06040526002805460ff60a01b19169055600060165534801561002257600080fd5b5073d8253782c45a12053594b9deb72d8e8ab2fca54c338061005e57604051631e4fbdf760e01b81526000600482015260240160405180910390fd5b61006781610079565b506001600160a01b03166080526100cb565b600280546001600160a01b038381166001600160a01b0319831681179093556040519116919082907f8be0079c531659141344cd1fd0a4f28419497f9722a3daafe3b4186f6b6457e090600090a35050565b608051612c606100ed6000396000818161051d01526125d70152612c606000f3fe608060405234801561001057600080fd5b50600436106103995760003560e01c80637b15452d116101e9578063c4f8f27b1161010f578063e63c4609116100ad578063f3f18c371161007c578063f3f18c37146107d7578063f7098e58146107ea578063f8413b07146107fd578063fc7e286d1461080557600080fd5b8063e63c460914610775578063e9081ec714610788578063e99d2866146107b1578063f2fde38b146107c457600080fd5b8063cf3af3a1116100e9578063cf3af3a114610749578063d9fca76914610752578063dbdff2c114610765578063df15c37e1461076d57600080fd5b8063c4f8f27b14610718578063ccbac9f514610738578063cd5e3c5d1461074157600080fd5b806399dbf4b511610187578063b3f6b99a11610156578063b3f6b99a146106e0578063b6b55f25146106f3578063b6b6f0c314610706578063bf1dda151461070f57600080fd5b806399dbf4b51461067b5780639d9ca28d1461068e578063a61fb2ba146106ba578063aab483d6146106cd57600080fd5b806394d898de116101c357806394d898de146106445780639659867e1461065757806397fedfcb1461066057806399bd69d61461066857600080fd5b80637b15452d1461060b5780637cc947d01461062b5780638da5cb5b1461063357600080fd5b806345745c10116102ce57806360d50da31161026c5780636939864b1161023b5780636939864b146105ac5780636bd5450a146105cd578063715018a6146105f057806375ce7fff146105f857600080fd5b806360d50da31461057557806366af746b1461058857806367d3b48814610590578063683e93e11461059957600080fd5b80635687156e116102a85780635687156e146104fa578063572b6c051461050d5780635aa68ac01461054d5780635f86e4fe1461056257600080fd5b806345745c10146104cb5780634a0a5ce9146104d457806350f3dbec146104e757600080fd5b8063160344e21161033b5780632c23ec8e116103155780632c23ec8e1461046f5780633644c27c1461048257806338e21cce146104955780633dc204e7146104b857600080fd5b8063160344e21461044c5780632617048014610454578063292fec041461045c57600080fd5b80630bea6637116103775780630bea6637146103f857806312f0800b1461040d578063158ef93e146104205780631593a8c71461044457600080fd5b8063045f9c971461039e578063080c279a146103ce57806308551a53146103e5575b600080fd5b6103b16103ac36600461266e565b610825565b6040516001600160a01b0390911681526020015b60405180910390f35b6103d760065481565b6040519081526020016103c5565b6004546103b1906001600160a01b031681565b61040b61040636600461266e565b61084f565b005b61040b61041b36600461266e565b610897565b60025461043490600160a01b900460ff1681565b60405190151581526020016103c5565b61040b6108d6565b61040b61091c565b61040b6109cd565b61043461046a3660046126a7565b610c02565b6010546103b1906001600160a01b031681565b61040b6104903660046126a7565b610c9d565b6104346104a33660046126a7565b600b6020526000908152604090205460ff1681565b6104346104c63660046126a7565b610cc7565b6103d760075481565b61040b6104e236600461273c565b610d6d565b61040b6104f53660046127ef565b610e7c565b61040b61050836600461266e565b610fdb565b61043461051b3660046126a7565b7f00000000000000000000000000000000000000000000000000000000000000006001600160a01b0390811691161490565b61055561101a565b6040516103c5919061281b565b6012546103b1906001600160a01b031681565b61040b6105833660046126a7565b61107c565b61040b6110a6565b6103d760135481565b61040b6105a7366004612868565b6112e0565b6002546105c090600160a81b900460ff1681565b6040516103c5919061289f565b6104346105db3660046126a7565b600d6020526000908152604090205460ff1681565b61040b611346565b61043461060636600461266e565b611358565b6103d76106193660046126a7565b60146020526000908152604090205481565b61040b61138c565b6002546001600160a01b03166103b1565b61040b6106523660046126a7565b611596565b6103d760095481565b61040b6115c0565b61040b61067636600461266e565b611657565b6011546103b1906001600160a01b031681565b61043461069c3660046126a7565b6001600160a01b03166000908152600d602052604090205460ff1690565b6003546103b1906001600160a01b031681565b61040b6106db36600461266e565b611704565b61040b6106ee3660046128c7565b611743565b61040b61070136600461266e565b611917565b6103d760085481565b6103d760165481565b6103d761072636600461266e565b60016020526000908152604090205481565b6103d7600a5481565b61040b611d26565b6103d760155481565b61040b6107603660046126a7565b611ebe565b6103d7611f5e565b610555611fb5565b61040b6107833660046126a7565b612015565b6103d76107963660046126a7565b6001600160a01b03166000908152600c602052604090205490565b61040b6107bf3660046126a7565b61222d565b61040b6107d23660046126a7565b612289565b6005546103b1906001600160a01b031681565b61040b6107f83660046126a7565b6122c4565b61040b612320565b6103d76108133660046126a7565b600c6020526000908152604090205481565b600e818154811061083557600080fd5b6000918252602090912001546001600160a01b0316905081565b6004546001600160a01b031661086361236b565b6001600160a01b0316146108925760405162461bcd60e51b815260040161088990612943565b60405180910390fd5b601355565b6004546001600160a01b03166108ab61236b565b6001600160a01b0316146108d15760405162461bcd60e51b815260040161088990612943565b601655565b6004546001600160a01b03166108ea61236b565b6001600160a01b0316146109105760405162461bcd60e51b815260040161088990612943565b61091a60026112e0565b565b6004546001600160a01b031661093061236b565b6001600160a01b0316146109565760405162461bcd60e51b815260040161088990612943565b600060028054600160a81b900460ff169081111561097657610976612889565b146109c35760405162461bcd60e51b815260206004820152601a60248201527f4c6f747465727920697320696e206163746976652073746174650000000000006044820152606401610889565b61091a60016112e0565b600b60006109d961236b565b6001600160a01b0316815260208101919091526040016000205460ff1615610a385760405162461bcd60e51b815260206004820152601260248201527113919508185b1c9958591e481b5a5b9d195960721b6044820152606401610889565b6002808054600160a81b900460ff1690811115610a5757610a57612889565b14610aa45760405162461bcd60e51b815260206004820152601860248201527f4c6f7474657279206973206e6f7420656e6465642079657400000000000000006044820152606401610889565b610aaf61069c61236b565b610af45760405162461bcd60e51b815260206004820152601660248201527521b0b63632b91034b9903737ba1030903bb4b73732b960511b6044820152606401610889565b60085460095410610b475760405162461bcd60e51b815260206004820152601760248201527f4e6f206d6f7265206d696e747320617661696c61626c650000000000000000006044820152606401610889565b6001600b6000610b5561236b565b6001600160a01b0390811682526020820192909252604001600020805460ff19169215159290921790915560105416636b8f60f6610b9161236b565b6040516001600160e01b031960e084901b1681526001600160a01b039091166004820152602401600060405180830381600087803b158015610bd257600080fd5b505af1158015610be6573d6000803e3d6000fd5b505060098054925090506000610bfb8361299b565b9190505550565b6006546001600160a01b0382166000908152600c6020526040812054909111801590610c5557506001600160a01b038216600090815260146020526040902054601654600a54610c5291906129b4565b10155b8015610c8857506001600160a01b038216600090815260146020526040902054601654600a54610c8591906129cd565b11155b15610c9557506001919050565b506000919050565b610ca561237a565b601080546001600160a01b0319166001600160a01b0392909216919091179055565b6000610cd282610c02565b15610c95576001600160a01b0382166000818152600d6020526040808220805460ff19166001908117909155600e8054918201815583527fbb7b4a454dc3493923482f07822329ed19e8244eff582cc204f8554c3620c3fd0180546001600160a01b03191684179055517f1d4c260f1824cd028e6c9e6e31c3a0b94f2513e7a641113ec759d382f9bdd5a19190a2506001919050565b919050565b600254600160a01b900460ff1615610dbd5760405162461bcd60e51b8152602060048201526013602482015272105b1c9958591e481a5b9a5d1a585b1a5e9959606a1b6044820152606401610889565b6040810151600480546001600160a01b039283166001600160a01b0319918216179091556020830151600580549190931691161790556060810151610e01906123d8565b608081015160075560a081015160065560c081015160135560e0810151601180546001600160a01b03199081166001600160a01b03938416179091556101008301516003805483169184169190911790556101209092015160128054909316911617905560028054600160a01b60ff60a01b19909116179055565b610e8461236b565b6012546001600160a01b03908116911614610ef15760405162461bcd60e51b815260206004820152602760248201527f4f6e6c792077686974656c6973746564206d61792063616c6c207468697320666044820152663ab731ba34b7b760c91b6064820152608401610889565b6001600160a01b0382166000908152600c60205260408120549003610f5c57600f80546001810182556000919091527f8d1108e10bcb7c27dddfc02ed9d693a074039d026cf4ea4240b40f7d581ac8020180546001600160a01b0319166001600160a01b0384161790555b6001600160a01b0382166000908152600c602052604081208054839290610f849084906129b4565b90915550506001600160a01b0382166000908152601460205260408120549003610fd757604080516001600160a01b0384166020820152610fd591015b60405160208183030381529060405261242a565b505b5050565b6004546001600160a01b0316610fef61236b565b6001600160a01b0316146110155760405162461bcd60e51b815260040161088990612943565b601555565b6060600f80548060200260200160405190810160405280929190818152602001828054801561107257602002820191906000526020600020905b81546001600160a01b03168152600190910190602001808311611054575b5050505050905090565b61108461237a565b600380546001600160a01b0319166001600160a01b0392909216919091179055565b6004546001600160a01b03166110ba61236b565b6001600160a01b0316146110e05760405162461bcd60e51b815260040161088990612943565b6002808054600160a81b900460ff16908111156110ff576110ff612889565b146111405760405162461bcd60e51b8152602060048201526011602482015270131bdd1d195c9e481b9bdd08195b991959607a1b6044820152606401610889565b6000805b600e548110156111b9576000600e8281548110611163576111636129e0565b60009182526020808320909101546001600160a01b0316808352600c90915260409091205490915061119590846129b4565b6001600160a01b039091166000908152600c60205260408120559150600101611144565b50600060646111c98360056129f6565b6111d39190612a0d565b905060006111e182846129cd565b60115460035460405163a9059cbb60e01b81526001600160a01b03918216600482015260248101869052929350169063a9059cbb906044016020604051808303816000875af1158015611238573d6000803e3d6000fd5b505050506040513d601f19601f8201168201806040525081019061125c9190612a2f565b506011546004805460405163a9059cbb60e01b81526001600160a01b0391821692810192909252602482018490529091169063a9059cbb906044016020604051808303816000875af11580156112b6573d6000803e3d6000fd5b505050506040513d601f19601f820116820180604052508101906112da9190612a2f565b50505050565b6004546001600160a01b03166112f461236b565b6001600160a01b03161461131a5760405162461bcd60e51b815260040161088990612943565b6002805482919060ff60a81b1916600160a81b838381111561133e5761133e612889565b021790555050565b61134e61237a565b61091a60006123d8565b6000818154811061136857600080fd5b9060005260206000209060209182820401919006915054906101000a900460ff1681565b600160028054600160a81b900460ff16908111156113ac576113ac612889565b036113f95760405162461bcd60e51b815260206004820152601b60248201527f4c6f74746572792069732063757272656e746c792061637469766500000000006044820152606401610889565b600d600061140561236b565b6001600160a01b0316815260208101919091526040016000205460ff161561146f5760405162461bcd60e51b815260206004820152601760248201527f57696e6e6572732063616e6e6f742077697468647261770000000000000000006044820152606401610889565b6000600c600061147d61236b565b6001600160a01b03166001600160a01b03168152602001908152602001600020549050600081116114e75760405162461bcd60e51b81526020600482015260146024820152734e6f2066756e647320746f20776974686472617760601b6044820152606401610889565b6000600c60006114f561236b565b6001600160a01b0390811682526020820192909252604001600020919091556011541663a9059cbb61152561236b565b6040516001600160e01b031960e084901b1681526001600160a01b039091166004820152602481018490526044016020604051808303816000875af1158015611572573d6000803e3d6000fd5b505050506040513d601f19601f82011682018060405250810190610fd79190612a2f565b61159e61237a565b601180546001600160a01b0319166001600160a01b0392909216919091179055565b6004546001600160a01b03166115d461236b565b6001600160a01b0316146115fa5760405162461bcd60e51b815260040161088990612943565b600a541561164a5760405162461bcd60e51b815260206004820152601960248201527f52616e646f6d206e756d62657220616c726561647920736574000000000000006044820152606401610889565b611652611f5e565b600a55565b6004546001600160a01b031661166b61236b565b6001600160a01b0316146116915760405162461bcd60e51b815260040161088990612943565b600081116116f55760405162461bcd60e51b815260206004820152602b60248201527f4e756d626572206f66207469636b657473206d7573742062652067726561746560448201526a72207468616e207a65726f60a81b6064820152608401610889565b60078190556008556000600955565b6004546001600160a01b031661171861236b565b6001600160a01b03161461173e5760405162461bcd60e51b815260040161088990612943565b600655565b6005546001600160a01b0316331461178d5760405162461bcd60e51b815260206004820152600d60248201526c37b7363c9037b832b930ba37b960991b6044820152606401610889565b600061179b82840184612a79565b915050600080828060200190518101906117b59190612b27565b91509150600085856040516117cb929190612baa565b60408051918290039091206000858152600160205291822054825491935083149190859081106117fd576117fd6129e0565b90600052602060002090602091828204019190069054906101000a900460ff166118695760405162461bcd60e51b815260206004820152601c60248201527f726571756573742066756c66696c6c6564206f72206d697373696e67000000006044820152606401610889565b801561190d5760408051602081018a905230918101919091524660608201526080810185905260a0016040516020818303038152906040528051906020012060001c97506118b888858561252b565b60008085815481106118cc576118cc6129e0565b90600052602060002090602091828204019190066101000a81548160ff02191690831515021790555060016000858152602001908152602001600020600090555b5050505050505050565b600160028054600160a81b900460ff169081111561193757611937612889565b036119845760405162461bcd60e51b815260206004820152601b60248201527f4c6f74746572792069732063757272656e746c792061637469766500000000006044820152606401610889565b42601354116119df5760405162461bcd60e51b815260206004820152602160248201527f4465706f7369747320617265206e6f7420706f737369626c6520616e796d6f726044820152606560f81b6064820152608401610889565b6011546001600160a01b0316611a375760405162461bcd60e51b815260206004820152601d60248201527f5553444320636f6e74726163742061646472657373206e6f74207365740000006044820152606401610889565b60008111611a775760405162461bcd60e51b815260206004820152600d60248201526c139bc8199d5b991cc81cd95b9d609a1b6044820152606401610889565b60115481906001600160a01b031663dd62ed3e611a9261236b565b6040516001600160e01b031960e084901b1681526001600160a01b039091166004820152306024820152604401602060405180830381865afa158015611adc573d6000803e3d6000fd5b505050506040513d601f19601f82011682018060405250810190611b009190612bba565b1015611b475760405162461bcd60e51b8152602060048201526016602482015275496e73756666696369656e7420616c6c6f77616e636560501b6044820152606401610889565b6011546001600160a01b03166323b872dd611b6061236b565b6040516001600160e01b031960e084901b1681526001600160a01b039091166004820152306024820152604481018490526064016020604051808303816000875af1158015611bb3573d6000803e3d6000fd5b505050506040513d601f19601f82011682018060405250810190611bd79190612a2f565b50600c6000611be461236b565b6001600160a01b03166001600160a01b0316815260200190815260200160002054600003611c4957600f611c1661236b565b81546001810183556000928352602090922090910180546001600160a01b0319166001600160a01b039092169190911790555b80600c6000611c5661236b565b6001600160a01b03166001600160a01b031681526020019081526020016000206000828254611c8591906129b4565b90915550601490506000611c9761236b565b6001600160a01b03166001600160a01b0316815260200190815260200160002054600003611d2357611ce4611cca61236b565b604080516001600160a01b03909216602083015201610fc1565b50611ced61236b565b6001600160a01b03167fd802e7c7f1646e3318c03abed1e468bdf913f45331a68dc912a0d645eb646a4260405160405180910390a25b50565b4260135411611d775760405162461bcd60e51b815260206004820152601f60248201527f526f6c6c696e67206973206e6f7420706f737369626c6520616e796d6f7265006044820152606401610889565b600060155411611dbd5760405162461bcd60e51b8152602060048201526011602482015270139bc81c9bdb1b081c1c9a58d9481cd95d607a1b6044820152606401610889565b600654601554611dcd91906129b4565b600c6000611dd961236b565b6001600160a01b03166001600160a01b03168152602001908152602001600020541015611e3d5760405162461bcd60e51b8152602060048201526012602482015271496e73756666696369656e742066756e647360701b6044820152606401610889565b601554600c6000611e4c61236b565b6001600160a01b03166001600160a01b031681526020019081526020016000206000828254611e7b91906129cd565b90915550506015546004546001600160a01b03166000908152600c602052604081208054909190611ead9084906129b4565b90915550611d239050611cca61236b565b6004546001600160a01b0316611ed261236b565b6001600160a01b031614611ef85760405162461bcd60e51b815260040161088990612943565b6001600160a01b03166000818152600d60205260408120805460ff19166001908117909155600e805491820181559091527fbb7b4a454dc3493923482f07822329ed19e8244eff582cc204f8554c3620c3fd0180546001600160a01b0319169091179055565b60004244611f6a61236b565b6040805160208101949094528301919091526bffffffffffffffffffffffff19606091821b16908201526074016040516020818303038152906040528051906020012060001c905090565b6060600e805480602002602001604051908101604052809291908181526020018280548015611072576020028201919060005260206000209081546001600160a01b03168152600190910190602001808311611054575050505050905090565b6004546001600160a01b031661202961236b565b6001600160a01b03161461204f5760405162461bcd60e51b815260040161088990612943565b60005b600f54811015610fd75761209a600f8281548110612072576120726129e0565b60009182526020808320909101546001600160a01b03168252600d9052604090205460ff1690565b612225576000600c6000600f84815481106120b7576120b76129e0565b60009182526020808320909101546001600160a01b03168352820192909252604001812054600f8054919350600c91839190869081106120f9576120f96129e0565b6000918252602080832091909101546001600160a01b039081168452908301939093526040918201902092909255601154915163a9059cbb60e01b815285821660048201526024810184905291169063a9059cbb906044016020604051808303816000875af1158015612170573d6000803e3d6000fd5b505050506040513d601f19601f820116820180604052508101906121949190612a2f565b50826001600160a01b03166350f3dbec600f84815481106121b7576121b76129e0565b60009182526020909120015460405160e083901b6001600160e01b03191681526001600160a01b03909116600482015260248101849052604401600060405180830381600087803b15801561220b57600080fd5b505af115801561221f573d6000803e3d6000fd5b50505050505b600101612052565b6004546001600160a01b031661224161236b565b6001600160a01b0316146122675760405162461bcd60e51b815260040161088990612943565b600480546001600160a01b0319166001600160a01b0392909216919091179055565b61229161237a565b6001600160a01b0381166122bb57604051631e4fbdf760e01b815260006004820152602401610889565b611d23816123d8565b6004546001600160a01b03166122d861236b565b6001600160a01b0316146122fe5760405162461bcd60e51b815260040161088990612943565b601280546001600160a01b0319166001600160a01b0392909216919091179055565b61232b611cca61236b565b5061233461236b565b6001600160a01b03167fd802e7c7f1646e3318c03abed1e468bdf913f45331a68dc912a0d645eb646a4260405160405180910390a2565b60006123756125d3565b905090565b61238261236b565b6001600160a01b031661239d6002546001600160a01b031690565b6001600160a01b03161461091a576123b361236b565b60405163118cdaa760e01b81526001600160a01b039091166004820152602401610889565b600280546001600160a01b038381166001600160a01b0319831681179093556040519116919082907f8be0079c531659141344cd1fd0a4f28419497f9722a3daafe3b4186f6b6457e090600090a35050565b600080546001808201808455838052919290918390811061244d5761244d6129e0565b90600052602060002090602091828204019190066101000a81548160ff0219169083151502179055506000818360405160200161248b929190612bd3565b604051602081830303815290604052905060006124a6612617565b9050600081836040516020016124bd929190612bd3565b60408051601f198184030181528282528051602080830191909120600089815260019092529290208290559250907fd91fc3685b930310b008ec37d2334870cab88a023ed8cc628a2e2ccd4e55d2029061251a9085908790612bd3565b60405180910390a150505050919050565b6000818060200190518101906125419190612c0d565b6004549091506001600160a01b039081169082160361256457600a84905561258a565b6001600160a01b038116600090815260146020526040902084905561258881610cc7565b505b806001600160a01b03167fdc88f22db6d7f267e15a797eb52635df440f5f8b47a89ac56fa5b212e4e97e2d856040516125c591815260200190565b60405180910390a250505050565b60007f00000000000000000000000000000000000000000000000000000000000000006001600160a01b03163303612612575060131936013560601c90565b503390565b6000806126286364e62127426129cd565b90506000612637600383612a0d565b6126429060016129b4565b90504660011461265c576126578160016129b4565b612667565b6126678160046129b4565b9250505090565b60006020828403121561268057600080fd5b5035919050565b6001600160a01b0381168114611d2357600080fd5b8035610d6881612687565b6000602082840312156126b957600080fd5b81356126c481612687565b9392505050565b634e487b7160e01b600052604160045260246000fd5b604051610140810167ffffffffffffffff81118282101715612705576127056126cb565b60405290565b604051601f8201601f1916810167ffffffffffffffff81118282101715612734576127346126cb565b604052919050565b6000610140828403121561274f57600080fd5b6127576126e1565b6127608361269c565b815261276e6020840161269c565b602082015261277f6040840161269c565b60408201526127906060840161269c565b60608201526080830135608082015260a083013560a082015260c083013560c08201526127bf60e0840161269c565b60e08201526101006127d281850161269c565b908201526101206127e484820161269c565b908201529392505050565b6000806040838503121561280257600080fd5b823561280d81612687565b946020939093013593505050565b6020808252825182820181905260009190848201906040850190845b8181101561285c5783516001600160a01b031683529284019291840191600101612837565b50909695505050505050565b60006020828403121561287a57600080fd5b8135600381106126c457600080fd5b634e487b7160e01b600052602160045260246000fd5b60208101600383106128c157634e487b7160e01b600052602160045260246000fd5b91905290565b6000806000604084860312156128dc57600080fd5b83359250602084013567ffffffffffffffff808211156128fb57600080fd5b818601915086601f83011261290f57600080fd5b81358181111561291e57600080fd5b87602082850101111561293057600080fd5b6020830194508093505050509250925092565b60208082526022908201527f4f6e6c792073656c6c65722063616e2063616c6c20746869732066756e63746960408201526137b760f11b606082015260800190565b634e487b7160e01b600052601160045260246000fd5b6000600182016129ad576129ad612985565b5060010190565b808201808211156129c7576129c7612985565b92915050565b818103818111156129c7576129c7612985565b634e487b7160e01b600052603260045260246000fd5b80820281158282048414176129c7576129c7612985565b600082612a2a57634e487b7160e01b600052601260045260246000fd5b500490565b600060208284031215612a4157600080fd5b815180151581146126c457600080fd5b600067ffffffffffffffff821115612a6b57612a6b6126cb565b50601f01601f191660200190565b60008060408385031215612a8c57600080fd5b82359150602083013567ffffffffffffffff811115612aaa57600080fd5b8301601f81018513612abb57600080fd5b8035612ace612ac982612a51565b61270b565b818152866020838501011115612ae357600080fd5b816020840160208301376000602083830101528093505050509250929050565b60005b83811015612b1e578181015183820152602001612b06565b50506000910152565b60008060408385031215612b3a57600080fd5b82519150602083015167ffffffffffffffff811115612b5857600080fd5b8301601f81018513612b6957600080fd5b8051612b77612ac982612a51565b818152866020838501011115612b8c57600080fd5b612b9d826020830160208601612b03565b8093505050509250929050565b8183823760009101908152919050565b600060208284031215612bcc57600080fd5b5051919050565b8281526040602082015260008251806040840152612bf8816060850160208701612b03565b601f01601f1916919091016060019392505050565b600060208284031215612c1f57600080fd5b81516126c48161268756fea26469706673582212202b72bfa196401095c71518312fb31b1638c80bae95b6cd9d6b683bd809dbc27064736f6c63430008190033","linkReferences":{}},"methodIdentifiers":{"buyerWithdraw()":"7cc947d0","changeLotteryState(uint8)":"683e93e1","claimNumber(address)":"3dc204e7","deposit(uint256)":"b6b55f25","deposits(address)":"fc7e286d","endLottery()":"1593a8c7","finishAt()":"67d3b488","fulfillRandomness(uint256,bytes)":"b3f6b99a","getDepositedAmount(address)":"e9081ec7","getParticipants()":"5aa68ac0","getRandomNumber()":"dbdff2c1","getWinners()":"df15c37e","hasMinted(address)":"38e21cce","initialize((address,address,address,address,uint256,uint256,uint256,address,address,address))":"4a0a5ce9","initialized()":"158ef93e","isClaimable(address)":"292fec04","isTrustedForwarder(address)":"572b6c05","isWinner(address)":"9d9ca28d","lotteryState()":"6939864b","lotteryV1Addr()":"5f86e4fe","maxMints()":"b6b6f0c3","minimumDepositAmount()":"080c279a","mintCount()":"9659867e","mintMyNFT()":"26170480","multisigWalletAddress()":"a61fb2ba","nftContractAddr()":"2c23ec8e","numberOfTickets()":"45745c10","operatorAddr()":"f3f18c37","owner()":"8da5cb5b","randomNumber()":"ccbac9f5","renounceOwnership()":"715018a6","requestPending(uint256)":"75ce7fff","requestRandomness()":"f8413b07","requestedHash(uint256)":"c4f8f27b","roll()":"cd5e3c5d","rollPrice()":"cf3af3a1","rollTolerance()":"bf1dda15","rolledNumbers(address)":"7b15452d","seller()":"08551a53","sellerWithdraw()":"66af746b","setFinishAt(uint256)":"0bea6637","setLotteryV1Addr(address)":"f7098e58","setMinimumDepositAmount(uint256)":"aab483d6","setMultisigWalletAddress(address)":"60d50da3","setNftContractAddr(address)":"3644c27c","setNumberOfTickets(uint256)":"99bd69d6","setRandomNumber()":"97fedfcb","setRollPrice(uint256)":"5687156e","setRollTolerance(uint256)":"12f0800b","setSeller(address)":"e99d2866","setUsdcContractAddr(address)":"94d898de","setWinner(address)":"d9fca769","startLottery()":"160344e2","transferDeposit(address,uint256)":"50f3dbec","transferNonWinnerDeposits(address)":"e63c4609","transferOwnership(address)":"f2fde38b","usdcContractAddr()":"99dbf4b5","winnerAddresses(uint256)":"045f9c97","winners(address)":"6bd5450a"},"id":5}