{"abi":[{"type":"function","name":"MAX_RANDOM","inputs":[],"outputs":[{"name":"","type":"uint256","internalType":"uint256"}],"stateMutability":"view"},{"type":"function","name":"buyerWithdraw","inputs":[],"outputs":[],"stateMutability":"nonpayable"},{"type":"function","name":"changeLotteryState","inputs":[{"name":"_newState","type":"uint8","internalType":"enum SaleBase.LotteryState"}],"outputs":[],"stateMutability":"nonpayable"},{"type":"function","name":"claimNumber","inputs":[{"name":"_participant","type":"address","internalType":"address"}],"outputs":[{"name":"","type":"bool","internalType":"bool"}],"stateMutability":"nonpayable"},{"type":"function","name":"deposit","inputs":[{"name":"amount","type":"uint256","internalType":"uint256"}],"outputs":[],"stateMutability":"nonpayable"},{"type":"function","name":"deposits","inputs":[{"name":"","type":"address","internalType":"address"}],"outputs":[{"name":"","type":"uint256","internalType":"uint256"}],"stateMutability":"view"},{"type":"function","name":"endLottery","inputs":[],"outputs":[],"stateMutability":"nonpayable"},{"type":"function","name":"fulfillRandomness","inputs":[{"name":"randomness","type":"uint256","internalType":"uint256"},{"name":"dataWithRound","type":"bytes","internalType":"bytes"}],"outputs":[],"stateMutability":"nonpayable"},{"type":"function","name":"getDepositedAmount","inputs":[{"name":"participant","type":"address","internalType":"address"}],"outputs":[{"name":"","type":"uint256","internalType":"uint256"}],"stateMutability":"view"},{"type":"function","name":"getParticipants","inputs":[],"outputs":[{"name":"","type":"address[]","internalType":"address[]"}],"stateMutability":"view"},{"type":"function","name":"getWinners","inputs":[],"outputs":[{"name":"","type":"address[]","internalType":"address[]"}],"stateMutability":"view"},{"type":"function","name":"hasMinted","inputs":[{"name":"","type":"address","internalType":"address"}],"outputs":[{"name":"","type":"bool","internalType":"bool"}],"stateMutability":"view"},{"type":"function","name":"initialize","inputs":[{"name":"config","type":"tuple","internalType":"struct StructsLibrary.ILotteryV2BaseConfig","components":[{"name":"_gelatoVrfOperator","type":"address","internalType":"address"},{"name":"_blessedOperator","type":"address","internalType":"address"},{"name":"_owner","type":"address","internalType":"address"},{"name":"_ticketAmount","type":"uint256","internalType":"uint256"},{"name":"_ticketPrice","type":"uint256","internalType":"uint256"},{"name":"_rollPrice","type":"uint256","internalType":"uint256"},{"name":"_rollTolerance","type":"uint256","internalType":"uint256"},{"name":"_usdcContractAddr","type":"address","internalType":"address"},{"name":"_nftContractAddr","type":"address","internalType":"address"},{"name":"_multisigWalletAddress","type":"address","internalType":"address"},{"name":"_prevPhaseContractAddr","type":"address","internalType":"address"}]}],"outputs":[],"stateMutability":"nonpayable"},{"type":"function","name":"isClaimable","inputs":[{"name":"_participant","type":"address","internalType":"address"}],"outputs":[{"name":"","type":"bool","internalType":"bool"}],"stateMutability":"view"},{"type":"function","name":"isTrustedForwarder","inputs":[{"name":"forwarder","type":"address","internalType":"address"}],"outputs":[{"name":"","type":"bool","internalType":"bool"}],"stateMutability":"view"},{"type":"function","name":"isWinner","inputs":[{"name":"_participant","type":"address","internalType":"address"}],"outputs":[{"name":"","type":"bool","internalType":"bool"}],"stateMutability":"view"},{"type":"function","name":"lotteryState","inputs":[],"outputs":[{"name":"","type":"uint8","internalType":"enum SaleBase.LotteryState"}],"stateMutability":"view"},{"type":"function","name":"lotteryV1Addr","inputs":[],"outputs":[{"name":"","type":"address","internalType":"address"}],"stateMutability":"view"},{"type":"function","name":"mintMyNFT","inputs":[],"outputs":[],"stateMutability":"nonpayable"},{"type":"function","name":"multisigWalletAddress","inputs":[],"outputs":[{"name":"","type":"address","internalType":"address"}],"stateMutability":"view"},{"type":"function","name":"nftContractAddr","inputs":[],"outputs":[{"name":"","type":"address","internalType":"address"}],"stateMutability":"view"},{"type":"function","name":"numberOfTickets","inputs":[],"outputs":[{"name":"","type":"uint256","internalType":"uint256"}],"stateMutability":"view"},{"type":"function","name":"operatorAddr","inputs":[],"outputs":[{"name":"","type":"address","internalType":"address"}],"stateMutability":"view"},{"type":"function","name":"owner","inputs":[],"outputs":[{"name":"","type":"address","internalType":"address"}],"stateMutability":"view"},{"type":"function","name":"randomNumber","inputs":[],"outputs":[{"name":"","type":"uint256","internalType":"uint256"}],"stateMutability":"view"},{"type":"function","name":"renounceOwnership","inputs":[],"outputs":[],"stateMutability":"nonpayable"},{"type":"function","name":"requestPending","inputs":[{"name":"","type":"uint256","internalType":"uint256"}],"outputs":[{"name":"","type":"bool","internalType":"bool"}],"stateMutability":"view"},{"type":"function","name":"requestRandomness","inputs":[],"outputs":[],"stateMutability":"nonpayable"},{"type":"function","name":"requestedHash","inputs":[{"name":"","type":"uint256","internalType":"uint256"}],"outputs":[{"name":"","type":"bytes32","internalType":"bytes32"}],"stateMutability":"view"},{"type":"function","name":"roll","inputs":[],"outputs":[],"stateMutability":"nonpayable"},{"type":"function","name":"rollPrice","inputs":[],"outputs":[{"name":"","type":"uint256","internalType":"uint256"}],"stateMutability":"view"},{"type":"function","name":"rollTolerance","inputs":[],"outputs":[{"name":"","type":"uint256","internalType":"uint256"}],"stateMutability":"view"},{"type":"function","name":"rolledNumbers","inputs":[{"name":"","type":"address","internalType":"address"}],"outputs":[{"name":"number","type":"uint256","internalType":"uint256"},{"name":"isRolling","type":"bool","internalType":"bool"}],"stateMutability":"view"},{"type":"function","name":"seller","inputs":[],"outputs":[{"name":"","type":"address","internalType":"address"}],"stateMutability":"view"},{"type":"function","name":"setSeller","inputs":[{"name":"_seller","type":"address","internalType":"address"}],"outputs":[],"stateMutability":"nonpayable"},{"type":"function","name":"startLottery","inputs":[],"outputs":[],"stateMutability":"nonpayable"},{"type":"function","name":"ticketPrice","inputs":[],"outputs":[{"name":"","type":"uint256","internalType":"uint256"}],"stateMutability":"view"},{"type":"function","name":"totalAmountForSeller","inputs":[],"outputs":[{"name":"","type":"uint256","internalType":"uint256"}],"stateMutability":"view"},{"type":"function","name":"transferDeposit","inputs":[{"name":"_participant","type":"address","internalType":"address"},{"name":"_amount","type":"uint256","internalType":"uint256"}],"outputs":[],"stateMutability":"nonpayable"},{"type":"function","name":"transferNonWinnerDeposits","inputs":[{"name":"auctionV1addr","type":"address","internalType":"address"}],"outputs":[],"stateMutability":"nonpayable"},{"type":"function","name":"transferOwnership","inputs":[{"name":"newOwner","type":"address","internalType":"address"}],"outputs":[],"stateMutability":"nonpayable"},{"type":"function","name":"usdcContractAddr","inputs":[],"outputs":[{"name":"","type":"address","internalType":"address"}],"stateMutability":"view"},{"type":"function","name":"winnerAddresses","inputs":[{"name":"","type":"uint256","internalType":"uint256"}],"outputs":[{"name":"","type":"address","internalType":"address"}],"stateMutability":"view"},{"type":"function","name":"winners","inputs":[{"name":"","type":"address","internalType":"address"}],"outputs":[{"name":"","type":"bool","internalType":"bool"}],"stateMutability":"view"},{"type":"event","name":"BuyerDeposited","inputs":[{"name":"buyer","type":"address","indexed":true,"internalType":"address"},{"name":"amount","type":"uint256","indexed":true,"internalType":"uint256"}],"anonymous":false},{"type":"event","name":"BuyerWithdrew","inputs":[{"name":"buyer","type":"address","indexed":true,"internalType":"address"},{"name":"amount","type":"uint256","indexed":true,"internalType":"uint256"}],"anonymous":false},{"type":"event","name":"DepositsReturned","inputs":[{"name":"returnedDepositsCount","type":"uint256","indexed":false,"internalType":"uint256"}],"anonymous":false},{"type":"event","name":"Initialized","inputs":[{"name":"version","type":"uint64","indexed":false,"internalType":"uint64"}],"anonymous":false},{"type":"event","name":"LotteryEnded","inputs":[],"anonymous":false},{"type":"event","name":"LotteryStarted","inputs":[],"anonymous":false},{"type":"event","name":"OwnershipTransferred","inputs":[{"name":"previousOwner","type":"address","indexed":true,"internalType":"address"},{"name":"newOwner","type":"address","indexed":true,"internalType":"address"}],"anonymous":false},{"type":"event","name":"RandomFulfilled","inputs":[{"name":"requester","type":"address","indexed":true,"internalType":"address"},{"name":"number","type":"uint256","indexed":false,"internalType":"uint256"}],"anonymous":false},{"type":"event","name":"RandomRequested","inputs":[{"name":"requester","type":"address","indexed":true,"internalType":"address"}],"anonymous":false},{"type":"event","name":"RequestedRandomness","inputs":[{"name":"round","type":"uint256","indexed":false,"internalType":"uint256"},{"name":"data","type":"bytes","indexed":false,"internalType":"bytes"}],"anonymous":false},{"type":"event","name":"WinnerSelected","inputs":[{"name":"winner","type":"address","indexed":true,"internalType":"address"}],"anonymous":false},{"type":"error","name":"InvalidInitialization","inputs":[]},{"type":"error","name":"NotInitializing","inputs":[]},{"type":"error","name":"OwnableInvalidOwner","inputs":[{"name":"owner","type":"address","internalType":"address"}]},{"type":"error","name":"OwnableUnauthorizedAccount","inputs":[{"name":"account","type":"address","internalType":"address"}]}],"bytecode":{"object":"0x60a060405234801561001057600080fd5b5073d8253782c45a12053594b9deb72d8e8ab2fca54c338061004c57604051631e4fbdf760e01b81526000600482015260240160405180910390fd5b6100558161006f565b506001600160a01b031660805261006a6100bf565b610171565b600080546001600160a01b038381166001600160a01b0319831681178455604051919092169283917f8be0079c531659141344cd1fd0a4f28419497f9722a3daafe3b4186f6b6457e09190a35050565b7ff0c57e16840df040f15088dc2f81fe391c3923bec73e23a9662efc9c229c6a00805468010000000000000000900460ff161561010f5760405163f92ee8a960e01b815260040160405180910390fd5b80546001600160401b039081161461016e5780546001600160401b0319166001600160401b0390811782556040519081527fc7f505b2f371ae2175ee4913f4499e1f2633a7b5936321eed1cdaeb6115181d29060200160405180910390a15b50565b608051612d8b6101936000396000818161039201526124b30152612d8b6000f3fe608060405234801561001057600080fd5b50600436106102745760003560e01c80637cc947d011610151578063ce1121f2116100c3578063e9081ec711610087578063e9081ec7146105a6578063e99d2866146105cf578063f2fde38b146105e2578063f3f18c37146105f5578063f8413b0714610608578063fc7e286d1461061057600080fd5b8063ce1121f214610566578063cf3af3a114610579578063da59a0dd14610582578063df15c37e1461058b578063e63c46091461059357600080fd5b8063b3f6b99a11610115578063b3f6b99a14610506578063b6b55f2514610519578063bf1dda151461052c578063c4f8f27b14610535578063ccbac9f514610555578063cd5e3c5d1461055e57600080fd5b80637cc947d01461049b5780638da5cb5b146104a357806399dbf4b5146104b45780639d9ca28d146104c7578063a61fb2ba146104f357600080fd5b806345745c10116101ea578063683e93e1116101ae578063683e93e1146103ea5780636939864b146103fd5780636bd5450a1461041e578063715018a61461044157806375ce7fff146104495780637b15452d1461045c57600080fd5b806345745c101461036657806350f3dbec1461036f578063572b6c05146103825780635aa68ac0146103c25780635f86e4fe146103d757600080fd5b8063160344e21161023c578063160344e2146102ea57806326170480146102f2578063292fec04146102fa5780632c23ec8e1461031d57806338e21cce146103305780633dc204e71461035357600080fd5b8063045f9c971461027957806308551a53146102a95780630a9fa5c7146102bc5780631209b1f6146102d75780631593a8c7146102e0575b600080fd5b61028c6102873660046126e4565b610630565b6040516001600160a01b0390911681526020015b60405180910390f35b60025461028c906001600160a01b031681565b6102c9655af3107a400081565b6040519081526020016102a0565b6102c960045481565b6102e861065a565b005b6102e86106da565b6102e86107b5565b61030d61030836600461271d565b6109c4565b60405190151581526020016102a0565b600b5461028c906001600160a01b031681565b61030d61033e36600461271d565b60066020526000908152604090205460ff1681565b61030d61036136600461271d565b610aa4565b6102c960035481565b6102e861037d366004612741565b610b87565b61030d61039036600461271d565b7f00000000000000000000000000000000000000000000000000000000000000006001600160a01b0390811691161490565b6103ca610cd9565b6040516102a0919061276d565b60115461028c906001600160a01b031681565b6102e86103f83660046127ba565b610d3b565b60005461041190600160a01b900460ff1681565b6040516102a091906127f1565b61030d61042c36600461271d565b60086020526000908152604090205460ff1681565b6102e8610da2565b61030d6104573660046126e4565b610db6565b61048661046a36600461271d565b6012602052600090815260409020805460019091015460ff1682565b604080519283529015156020830152016102a0565b6102e8610dea565b6000546001600160a01b031661028c565b600c5461028c906001600160a01b031681565b61030d6104d536600461271d565b6001600160a01b031660009081526008602052604090205460ff1690565b60015461028c906001600160a01b031681565b6102e8610514366004612819565b61102e565b6102e86105273660046126e4565b611208565b6102c960145481565b6102c96105433660046126e4565b600e6020526000908152604090205481565b6102c960105481565b6102e86116e9565b6102e8610574366004612906565b611901565b6102c960135481565b6102c960055481565b6103ca611acc565b6102e86105a136600461271d565b611b2c565b6102c96105b436600461271d565b6001600160a01b031660009081526007602052604090205490565b6102e86105dd36600461271d565b611d48565b6102e86105f036600461271d565b611da4565b600f5461028c906001600160a01b031681565b6102e8611ddf565b6102c961061e36600461271d565b60076020526000908152604090205481565b6009818154811061064057600080fd5b6000918252602090912001546001600160a01b0316905081565b6002546001600160a01b031661066e611e64565b6001600160a01b03161461069d5760405162461bcd60e51b8152600401610694906129c4565b60405180910390fd5b6106a76002610d3b565b6106af611e73565b6040517f9c89a6ed7228533196a3f962acc80d61a9c53bdea6b910741bf754f5aaa7569e90600090a1565b6002546001600160a01b03166106ee611e64565b6001600160a01b0316146107145760405162461bcd60e51b8152600401610694906129c4565b60008054600160a01b900460ff166002811115610733576107336127db565b146107805760405162461bcd60e51b815260206004820152601760248201527f53616c6520697320696e206163746976652073746174650000000000000000006044820152606401610694565b61078a6001610d3b565b6040517fd029c7c68d943f92286a7825fa6aa2deefa1eee46cee6c91b7e483fd06d27baf90600090a1565b600660006107c1611e64565b6001600160a01b0316815260208101919091526040016000205460ff16156108205760405162461bcd60e51b815260206004820152601260248201527113919508185b1c9958591e481b5a5b9d195960721b6044820152606401610694565b61082b6104d5611e64565b6108705760405162461bcd60e51b815260206004820152601660248201527521b0b63632b91034b9903737ba1030903bb4b73732b960511b6044820152606401610694565b610878611e64565b601154604051639d9ca28d60e01b81526001600160a01b03838116600483015290911690639d9ca28d90602401602060405180830381865afa1580156108c2573d6000803e3d6000fd5b505050506040513d601f19601f820116820180604052508101906108e69190612a06565b156109035760405162461bcd60e51b815260040161069490612a28565b600160066000610911611e64565b6001600160a01b0316815260208101919091526040016000908120805460ff191692151592909217909155600380549161094a83612a86565b9091555050600b546001600160a01b0316636b8f60f6610968611e64565b6040516001600160e01b031960e084901b1681526001600160a01b039091166004820152602401600060405180830381600087803b1580156109a957600080fd5b505af11580156109bd573d6000803e3d6000fd5b5050505050565b6000806064601454655af3107a40006109dd9190612a9d565b6109e79190612ad0565b905060008160105410156109fc576000610a0a565b81601054610a0a9190612ae4565b90506000655af3107a400083601054610a239190612af7565b1115610a3557655af3107a4000610a43565b82601054610a439190612af7565b6001600160a01b038616600090815260126020526040812054919250838210801590610a6f5750828211155b6004546001600160a01b03891660009081526007602052604090205491925011801590610a995750805b979650505050505050565b6000610aaf826109c4565b8015610ad457506001600160a01b03821660009081526008602052604090205460ff16155b8015610ae4575060035460095411155b15610b7a576001600160a01b038216600081815260086020526040808220805460ff1916600190811790915560098054918201815583527f6e1540171b6c0c960b71a7020d9f60077f6af931a8bbf590da0223dacf75c7af0180546001600160a01b03191684179055517f1d4c260f1824cd028e6c9e6e31c3a0b94f2513e7a641113ec759d382f9bdd5a19190a2506001919050565b506000919050565b919050565b610b8f611e64565b6011546001600160a01b03908116911614610bfc5760405162461bcd60e51b815260206004820152602760248201527f4f6e6c792077686974656c6973746564206d61792063616c6c207468697320666044820152663ab731ba34b7b760c91b6064820152608401610694565b6001600160a01b0382166000908152600760205260408120549003610ca857600a8054600181019091557fc65a7bb8d6351c1cf70c95a316cc6a92839c986682d98bc35f958f4883f9d2a80180546001600160a01b0319166001600160a01b0384169081179091556000908152601260205260408120549003610ca857604080516001600160a01b0384166020820152610ca691015b60405160208183030381529060405261221e565b505b6001600160a01b03821660009081526007602052604081208054839290610cd0908490612af7565b90915550505050565b6060600a805480602002602001604051908101604052809291908181526020018280548015610d3157602002820191906000526020600020905b81546001600160a01b03168152600190910190602001808311610d13575b5050505050905090565b6002546001600160a01b0316610d4f611e64565b6001600160a01b031614610d755760405162461bcd60e51b8152600401610694906129c4565b6000805482919060ff60a01b1916600160a01b836002811115610d9a57610d9a6127db565b021790555050565b610daa612321565b610db4600061237f565b565b600d8181548110610dc657600080fd5b9060005260206000209060209182820401919006915054906101000a900460ff1681565b6002600054600160a01b900460ff166002811115610e0a57610e0a6127db565b14610e4f5760405162461bcd60e51b815260206004820152601560248201527414d85b19481a5cc81b9bdd08195b991959081e595d605a1b6044820152606401610694565b60086000610e5b611e64565b6001600160a01b0316815260208101919091526040016000205460ff1615610ec55760405162461bcd60e51b815260206004820152601760248201527f57696e6e6572732063616e6e6f742077697468647261770000000000000000006044820152606401610694565b600060076000610ed3611e64565b6001600160a01b03166001600160a01b0316815260200190815260200160002054905060008111610f3d5760405162461bcd60e51b81526020600482015260146024820152734e6f2066756e647320746f20776974686472617760601b6044820152606401610694565b600060076000610f4b611e64565b6001600160a01b039081168252602082019290925260400160002091909155600c541663a9059cbb610f7b611e64565b6040516001600160e01b031960e084901b1681526001600160a01b039091166004820152602481018490526044016020604051808303816000875af1158015610fc8573d6000803e3d6000fd5b505050506040513d601f19601f82011682018060405250810190610fec9190612a06565b5080610ff6611e64565b6001600160a01b03167f1f280cd00e67ed50213ac03febd5be151f96b7f7db2f85312aa0feff99f8bdab60405160405180910390a350565b600f546001600160a01b031633146110785760405162461bcd60e51b815260206004820152600d60248201526c37b7363c9037b832b930ba37b960991b6044820152606401610694565b600061108682840184612b32565b915050600080828060200190518101906110a09190612be0565b91509150600085856040516110b6929190612c63565b604051809103902090506000600e60008581526020019081526020016000205482149050600d84815481106110ed576110ed612c73565b90600052602060002090602091828204019190069054906101000a900460ff166111595760405162461bcd60e51b815260206004820152601c60248201527f726571756573742066756c66696c6c6564206f72206d697373696e67000000006044820152606401610694565b80156111fe5760408051602081018a905230918101919091524660608201526080810185905260a0016040516020818303038152906040528051906020012060001c97506111a88885856123cf565b6000600d85815481106111bd576111bd612c73565b90600052602060002090602091828204019190066101000a81548160ff021916908315150217905550600e6000858152602001908152602001600020600090555b5050505050505050565b6001600054600160a01b900460ff166002811115611228576112286127db565b1461126a5760405162461bcd60e51b815260206004820152601260248201527153616c65206973206e6f742061637469766560701b6044820152606401610694565b611272611e64565b601154604051639d9ca28d60e01b81526001600160a01b03838116600483015290911690639d9ca28d90602401602060405180830381865afa1580156112bc573d6000803e3d6000fd5b505050506040513d601f19601f820116820180604052508101906112e09190612a06565b156112fd5760405162461bcd60e51b815260040161069490612a28565b60035460095411156113215760405162461bcd60e51b815260040161069490612c89565b600c546001600160a01b03166113795760405162461bcd60e51b815260206004820152601d60248201527f5553444320636f6e74726163742061646472657373206e6f74207365740000006044820152606401610694565b6013548210156113c35760405162461bcd60e51b8152602060048201526015602482015274139bdd08195b9bdd59da08199d5b991cc81cd95b9d605a1b6044820152606401610694565b600c5482906001600160a01b031663dd62ed3e6113de611e64565b6040516001600160e01b031960e084901b1681526001600160a01b039091166004820152306024820152604401602060405180830381865afa158015611428573d6000803e3d6000fd5b505050506040513d601f19601f8201168201806040525081019061144c9190612cd1565b10156114935760405162461bcd60e51b8152602060048201526016602482015275496e73756666696369656e7420616c6c6f77616e636560501b6044820152606401610694565b600c546001600160a01b03166323b872dd6114ac611e64565b6040516001600160e01b031960e084901b1681526001600160a01b039091166004820152306024820152604481018590526064016020604051808303816000875af11580156114ff573d6000803e3d6000fd5b505050506040513d601f19601f820116820180604052508101906115239190612a06565b5060076000611530611e64565b6001600160a01b03166001600160a01b031681526020019081526020016000205460000361166557600a611562611e64565b81546001810183556000928352602083200180546001600160a01b0319166001600160a01b039290921691909117905560129061159d611e64565b6001600160a01b03166001600160a01b0316815260200190815260200160002060000154600003611665576001601260006115d6611e64565b6001600160a01b031681526020810191909152604001600020600101805460ff191691151591909117905561162661160c611e64565b604080516001600160a01b03909216602083015201610c92565b5061162f611e64565b6001600160a01b03167fd802e7c7f1646e3318c03abed1e468bdf913f45331a68dc912a0d645eb646a4260405160405180910390a25b8160076000611672611e64565b6001600160a01b03166001600160a01b0316815260200190815260200160002060008282546116a19190612af7565b909155508290506116b0611e64565b6001600160a01b03167f21040858e63c11c046482f61f290bbe25972fc74b11b4570a01f9241082d21f160405160405180910390a35050565b6001600054600160a01b900460ff166002811115611709576117096127db565b1461174b5760405162461bcd60e51b815260206004820152601260248201527153616c65206973206e6f742061637469766560701b6044820152606401610694565b600354600954111561176f5760405162461bcd60e51b815260040161069490612c89565b6000601354116117b55760405162461bcd60e51b8152602060048201526011602482015270139bc81c9bdb1b081c1c9a58d9481cd95d607a1b6044820152606401610694565b6004546013546117c59190612af7565b600760006117d1611e64565b6001600160a01b03166001600160a01b031681526020019081526020016000205410156118355760405162461bcd60e51b8152602060048201526012602482015271496e73756666696369656e742066756e647360701b6044820152606401610694565b600160126000611843611e64565b6001600160a01b03166001600160a01b0316815260200190815260200160002060010160006101000a81548160ff0219169083151502179055506013546007600061188c611e64565b6001600160a01b03166001600160a01b0316815260200190815260200160002060008282546118bb9190612ae4565b90915550506013546002546001600160a01b0316600090815260076020526040812080549091906118ed908490612af7565b909155506118fe905061160c611e64565b50565b7ff0c57e16840df040f15088dc2f81fe391c3923bec73e23a9662efc9c229c6a008054600160401b810460ff16159067ffffffffffffffff166000811580156119475750825b905060008267ffffffffffffffff1660011480156119645750303b155b905081158015611972575080155b156119905760405163f92ee8a960e01b815260040160405180910390fd5b845467ffffffffffffffff1916600117855583156119ba57845460ff60401b1916600160401b1785555b6020860151600280546001600160a01b039283166001600160a01b0319918216179091558751600f805491909316911617905560408601516119fb9061237f565b6060860151600355608086015160045560a086015160135560c086015160145560e0860151600c80546001600160a01b039283166001600160a01b031991821617909155610100880151600b805491841691831691909117905561012088015160018054918416918316919091179055610140880151601180549190931691161790558315611ac457845460ff60401b19168555604051600181527fc7f505b2f371ae2175ee4913f4499e1f2633a7b5936321eed1cdaeb6115181d29060200160405180910390a15b505050505050565b60606009805480602002602001604051908101604052809291908181526020018280548015610d31576020028201919060005260206000209081546001600160a01b03168152600190910190602001808311610d13575050505050905090565b6002546001600160a01b0316611b40611e64565b6001600160a01b031614611b665760405162461bcd60e51b8152600401610694906129c4565b60005b600a54811015611d4457611bb1600a8281548110611b8957611b89612c73565b60009182526020808320909101546001600160a01b0316825260089052604090205460ff1690565b611d3c57600060076000600a8481548110611bce57611bce612c73565b60009182526020808320909101546001600160a01b03168352820192909252604001812054600a805491935060079183919086908110611c1057611c10612c73565b6000918252602080832091909101546001600160a01b039081168452908301939093526040918201902092909255600c54915163a9059cbb60e01b815285821660048201526024810184905291169063a9059cbb906044016020604051808303816000875af1158015611c87573d6000803e3d6000fd5b505050506040513d601f19601f82011682018060405250810190611cab9190612a06565b50826001600160a01b03166350f3dbec600a8481548110611cce57611cce612c73565b60009182526020909120015460405160e083901b6001600160e01b03191681526001600160a01b03909116600482015260248101849052604401600060405180830381600087803b158015611d2257600080fd5b505af1158015611d36573d6000803e3d6000fd5b50505050505b600101611b69565b5050565b6002546001600160a01b0316611d5c611e64565b6001600160a01b031614611d825760405162461bcd60e51b8152600401610694906129c4565b600280546001600160a01b0319166001600160a01b0392909216919091179055565b611dac612321565b6001600160a01b038116611dd657604051631e4fbdf760e01b815260006004820152602401610694565b6118fe8161237f565b6002546001600160a01b0316611df3611e64565b6001600160a01b031614611e195760405162461bcd60e51b8152600401610694906129c4565b611e2461160c611e64565b50611e2d611e64565b6001600160a01b03167fd802e7c7f1646e3318c03abed1e468bdf913f45331a68dc912a0d645eb646a4260405160405180910390a2565b6000611e6e6124af565b905090565b6002546001600160a01b0316611e87611e64565b6001600160a01b031614611ead5760405162461bcd60e51b8152600401610694906129c4565b6002600054600160a01b900460ff166002811115611ecd57611ecd6127db565b14611f125760405162461bcd60e51b815260206004820152601560248201527414d85b19481a5cc81b9bdd08195b991959081e595d605a1b6044820152606401610694565b600a5460008167ffffffffffffffff811115611f3057611f30612895565b604051908082528060200260200182016040528015611f59578160200160208202803683370190505b50905060005b82811015611fca57600a8181548110611f7a57611f7a612c73565b9060005260206000200160009054906101000a90046001600160a01b0316828281518110611faa57611faa612c73565b6001600160a01b0390921660209283029190910190910152600101611f5f565b5060005b828110156121d2576000828281518110611fea57611fea612c73565b6020908102919091018101516001600160a01b038116600090815260078352604080822054600890945290205490925060ff161561213a5760045481106120eb5760006004548261203b9190612ae4565b905080156120e9576001600160a01b0383166000908152600760205260408120805483929061206b908490612ae4565b9091555050600c5460405163a9059cbb60e01b81526001600160a01b038581166004830152602482018490529091169063a9059cbb906044016020604051808303816000875af11580156120c3573d6000803e3d6000fd5b505050506040513d601f19601f820116820180604052508101906120e79190612a06565b505b505b6001600160a01b0382166000908152600760205260408120546005805491929091612117908490612af7565b90915550506001600160a01b0382166000908152600760205260408120556121c8565b6001600160a01b0382811660008181526007602052604080822091909155600c54905163a9059cbb60e01b81526004810192909252602482018490529091169063a9059cbb906044016020604051808303816000875af11580156121a2573d6000803e3d6000fd5b505050506040513d601f19601f820116820180604052508101906121c69190612a06565b505b5050600101611fce565b506121db6124f3565b6121e7600a60006126b2565b6040518281527f01f8aef848121bbf182106b55119c1094063c572b6c8dcb09040e1203a17abf99060200160405180910390a15050565b600d805460018082018084556000849052919290918390811061224357612243612c73565b90600052602060002090602091828204019190066101000a81548160ff02191690831515021790555060008183604051602001612281929190612cea565b6040516020818303038152906040529050600061229c61265b565b9050600081836040516020016122b3929190612cea565b60408051601f1981840301815282825280516020808301919091206000898152600e9092529290208290559250907fd91fc3685b930310b008ec37d2334870cab88a023ed8cc628a2e2ccd4e55d202906123109085908790612cea565b60405180910390a150505050919050565b612329611e64565b6001600160a01b03166123446000546001600160a01b031690565b6001600160a01b031614610db45761235a611e64565b60405163118cdaa760e01b81526001600160a01b039091166004820152602401610694565b600080546001600160a01b038381166001600160a01b0319831681178455604051919092169283917f8be0079c531659141344cd1fd0a4f28419497f9722a3daafe3b4186f6b6457e09190a35050565b6000818060200190518101906123e59190612d24565b905060006123f9655af3107a400086612d41565b6002549091506001600160a01b039081169083160361241c576010819055612465565b6001600160a01b038216600090815260126020526040902081905561244082610aa4565b506001600160a01b0382166000908152601260205260409020600101805460ff191690555b816001600160a01b03167f85e7483164122a78ca40e7f10b414e6f78c7d47abdae87716e0fb3491290c6ec826040516124a091815260200190565b60405180910390a25050505050565b60007f00000000000000000000000000000000000000000000000000000000000000006001600160a01b031633036124ee575060131936013560601c90565b503390565b6002546001600160a01b0316612507611e64565b6001600160a01b03161461252d5760405162461bcd60e51b8152600401610694906129c4565b6000606460055460056125409190612a9d565b61254a9190612ad0565b905060008160055461255c9190612ae4565b6000600555600c5460015460405163a9059cbb60e01b81526001600160a01b03918216600482015260248101869052929350169063a9059cbb906044016020604051808303816000875af11580156125b8573d6000803e3d6000fd5b505050506040513d601f19601f820116820180604052508101906125dc9190612a06565b50600c5460025460405163a9059cbb60e01b81526001600160a01b0391821660048201526024810184905291169063a9059cbb906044016020604051808303816000875af1158015612632573d6000803e3d6000fd5b505050506040513d601f19601f820116820180604052508101906126569190612a06565b505050565b60008061266c6364e6212742612ae4565b9050600061267b600383612ad0565b612686906001612af7565b9050466001146126a05761269b816001612af7565b6126ab565b6126ab816004612af7565b9250505090565b50805460008255906000526020600020908101906118fe91905b808211156126e057600081556001016126cc565b5090565b6000602082840312156126f657600080fd5b5035919050565b6001600160a01b03811681146118fe57600080fd5b8035610b82816126fd565b60006020828403121561272f57600080fd5b813561273a816126fd565b9392505050565b6000806040838503121561275457600080fd5b823561275f816126fd565b946020939093013593505050565b6020808252825182820181905260009190848201906040850190845b818110156127ae5783516001600160a01b031683529284019291840191600101612789565b50909695505050505050565b6000602082840312156127cc57600080fd5b81356003811061273a57600080fd5b634e487b7160e01b600052602160045260246000fd5b602081016003831061281357634e487b7160e01b600052602160045260246000fd5b91905290565b60008060006040848603121561282e57600080fd5b83359250602084013567ffffffffffffffff8082111561284d57600080fd5b818601915086601f83011261286157600080fd5b81358181111561287057600080fd5b87602082850101111561288257600080fd5b6020830194508093505050509250925092565b634e487b7160e01b600052604160045260246000fd5b604051610160810167ffffffffffffffff811182821017156128cf576128cf612895565b60405290565b604051601f8201601f1916810167ffffffffffffffff811182821017156128fe576128fe612895565b604052919050565b6000610160828403121561291957600080fd5b6129216128ab565b61292a83612712565b815261293860208401612712565b602082015261294960408401612712565b6040820152606083013560608201526080830135608082015260a083013560a082015260c083013560c082015261298260e08401612712565b60e0820152610100612995818501612712565b908201526101206129a7848201612712565b908201526101406129b9848201612712565b908201529392505050565b60208082526022908201527f4f6e6c792073656c6c65722063616e2063616c6c20746869732066756e63746960408201526137b760f11b606082015260800190565b600060208284031215612a1857600080fd5b8151801515811461273a57600080fd5b60208082526028908201527f5061727469636970616e742068617320616c726561647920776f6e20696e204c6040820152676f7474657279563160c01b606082015260800190565b634e487b7160e01b600052601160045260246000fd5b600081612a9557612a95612a70565b506000190190565b8082028115828204841417612ab457612ab4612a70565b92915050565b634e487b7160e01b600052601260045260246000fd5b600082612adf57612adf612aba565b500490565b81810381811115612ab457612ab4612a70565b80820180821115612ab457612ab4612a70565b600067ffffffffffffffff821115612b2457612b24612895565b50601f01601f191660200190565b60008060408385031215612b4557600080fd5b82359150602083013567ffffffffffffffff811115612b6357600080fd5b8301601f81018513612b7457600080fd5b8035612b87612b8282612b0a565b6128d5565b818152866020838501011115612b9c57600080fd5b816020840160208301376000602083830101528093505050509250929050565b60005b83811015612bd7578181015183820152602001612bbf565b50506000910152565b60008060408385031215612bf357600080fd5b82519150602083015167ffffffffffffffff811115612c1157600080fd5b8301601f81018513612c2257600080fd5b8051612c30612b8282612b0a565b818152866020838501011115612c4557600080fd5b612c56826020830160208601612bbc565b8093505050509250929050565b8183823760009101908152919050565b634e487b7160e01b600052603260045260246000fd5b60208082526028908201527f416c6c207469636b65747320616c726561647920616c6c6f636174656420746f6040820152672077696e6e65727360c01b606082015260800190565b600060208284031215612ce357600080fd5b5051919050565b8281526040602082015260008251806040840152612d0f816060850160208701612bbc565b601f01601f1916919091016060019392505050565b600060208284031215612d3657600080fd5b815161273a816126fd565b600082612d5057612d50612aba565b50069056fea2646970667358221220a9f76b7645f20e5381905462e0dde33748b950433ce155408b6debf15028b01b64736f6c63430008190033","linkReferences":{}},"methodIdentifiers":{"MAX_RANDOM()":"0a9fa5c7","buyerWithdraw()":"7cc947d0","changeLotteryState(uint8)":"683e93e1","claimNumber(address)":"3dc204e7","deposit(uint256)":"b6b55f25","deposits(address)":"fc7e286d","endLottery()":"1593a8c7","fulfillRandomness(uint256,bytes)":"b3f6b99a","getDepositedAmount(address)":"e9081ec7","getParticipants()":"5aa68ac0","getWinners()":"df15c37e","hasMinted(address)":"38e21cce","initialize((address,address,address,uint256,uint256,uint256,uint256,address,address,address,address))":"ce1121f2","isClaimable(address)":"292fec04","isTrustedForwarder(address)":"572b6c05","isWinner(address)":"9d9ca28d","lotteryState()":"6939864b","lotteryV1Addr()":"5f86e4fe","mintMyNFT()":"26170480","multisigWalletAddress()":"a61fb2ba","nftContractAddr()":"2c23ec8e","numberOfTickets()":"45745c10","operatorAddr()":"f3f18c37","owner()":"8da5cb5b","randomNumber()":"ccbac9f5","renounceOwnership()":"715018a6","requestPending(uint256)":"75ce7fff","requestRandomness()":"f8413b07","requestedHash(uint256)":"c4f8f27b","roll()":"cd5e3c5d","rollPrice()":"cf3af3a1","rollTolerance()":"bf1dda15","rolledNumbers(address)":"7b15452d","seller()":"08551a53","setSeller(address)":"e99d2866","startLottery()":"160344e2","ticketPrice()":"1209b1f6","totalAmountForSeller()":"da59a0dd","transferDeposit(address,uint256)":"50f3dbec","transferNonWinnerDeposits(address)":"e63c4609","transferOwnership(address)":"f2fde38b","usdcContractAddr()":"99dbf4b5","winnerAddresses(uint256)":"045f9c97","winners(address)":"6bd5450a"},"id":59}