{"abi":[{"type":"function","name":"buyerWithdraw","inputs":[],"outputs":[],"stateMutability":"nonpayable"},{"type":"function","name":"changeLotteryState","inputs":[{"name":"_newState","type":"uint8","internalType":"enum SaleBase.LotteryState"}],"outputs":[],"stateMutability":"nonpayable"},{"type":"function","name":"claimNumber","inputs":[{"name":"_participant","type":"address","internalType":"address"}],"outputs":[{"name":"","type":"bool","internalType":"bool"}],"stateMutability":"nonpayable"},{"type":"function","name":"deposit","inputs":[{"name":"amount","type":"uint256","internalType":"uint256"}],"outputs":[],"stateMutability":"nonpayable"},{"type":"function","name":"deposits","inputs":[{"name":"","type":"address","internalType":"address"}],"outputs":[{"name":"","type":"uint256","internalType":"uint256"}],"stateMutability":"view"},{"type":"function","name":"endLottery","inputs":[],"outputs":[],"stateMutability":"nonpayable"},{"type":"function","name":"fulfillRandomness","inputs":[{"name":"randomness","type":"uint256","internalType":"uint256"},{"name":"dataWithRound","type":"bytes","internalType":"bytes"}],"outputs":[],"stateMutability":"nonpayable"},{"type":"function","name":"getDepositedAmount","inputs":[{"name":"participant","type":"address","internalType":"address"}],"outputs":[{"name":"","type":"uint256","internalType":"uint256"}],"stateMutability":"view"},{"type":"function","name":"getParticipants","inputs":[],"outputs":[{"name":"","type":"address[]","internalType":"address[]"}],"stateMutability":"view"},{"type":"function","name":"getRandomNumber","inputs":[],"outputs":[{"name":"","type":"uint256","internalType":"uint256"}],"stateMutability":"view"},{"type":"function","name":"getWinners","inputs":[],"outputs":[{"name":"","type":"address[]","internalType":"address[]"}],"stateMutability":"view"},{"type":"function","name":"hasMinted","inputs":[{"name":"","type":"address","internalType":"address"}],"outputs":[{"name":"","type":"bool","internalType":"bool"}],"stateMutability":"view"},{"type":"function","name":"initialize","inputs":[{"name":"config","type":"tuple","internalType":"struct StructsLibrary.ILotteryV2BaseConfig","components":[{"name":"_gelatoVrfOperator","type":"address","internalType":"address"},{"name":"_blessedOperator","type":"address","internalType":"address"},{"name":"_owner","type":"address","internalType":"address"},{"name":"_ticketAmount","type":"uint256","internalType":"uint256"},{"name":"_ticketPrice","type":"uint256","internalType":"uint256"},{"name":"_rollPrice","type":"uint256","internalType":"uint256"},{"name":"_rollTolerance","type":"uint256","internalType":"uint256"},{"name":"_usdcContractAddr","type":"address","internalType":"address"},{"name":"_nftContractAddr","type":"address","internalType":"address"},{"name":"_multisigWalletAddress","type":"address","internalType":"address"},{"name":"_prevPhaseContractAddr","type":"address","internalType":"address"}]}],"outputs":[],"stateMutability":"nonpayable"},{"type":"function","name":"initialized","inputs":[],"outputs":[{"name":"","type":"bool","internalType":"bool"}],"stateMutability":"view"},{"type":"function","name":"isClaimable","inputs":[{"name":"_participant","type":"address","internalType":"address"}],"outputs":[{"name":"","type":"bool","internalType":"bool"}],"stateMutability":"view"},{"type":"function","name":"isTrustedForwarder","inputs":[{"name":"forwarder","type":"address","internalType":"address"}],"outputs":[{"name":"","type":"bool","internalType":"bool"}],"stateMutability":"view"},{"type":"function","name":"isWinner","inputs":[{"name":"_participant","type":"address","internalType":"address"}],"outputs":[{"name":"","type":"bool","internalType":"bool"}],"stateMutability":"view"},{"type":"function","name":"lotteryState","inputs":[],"outputs":[{"name":"","type":"uint8","internalType":"enum SaleBase.LotteryState"}],"stateMutability":"view"},{"type":"function","name":"lotteryV1Addr","inputs":[],"outputs":[{"name":"","type":"address","internalType":"address"}],"stateMutability":"view"},{"type":"function","name":"minimumDepositAmount","inputs":[],"outputs":[{"name":"","type":"uint256","internalType":"uint256"}],"stateMutability":"view"},{"type":"function","name":"mintMyNFT","inputs":[],"outputs":[],"stateMutability":"nonpayable"},{"type":"function","name":"multisigWalletAddress","inputs":[],"outputs":[{"name":"","type":"address","internalType":"address"}],"stateMutability":"view"},{"type":"function","name":"nftContractAddr","inputs":[],"outputs":[{"name":"","type":"address","internalType":"address"}],"stateMutability":"view"},{"type":"function","name":"numberOfTickets","inputs":[],"outputs":[{"name":"","type":"uint256","internalType":"uint256"}],"stateMutability":"view"},{"type":"function","name":"operatorAddr","inputs":[],"outputs":[{"name":"","type":"address","internalType":"address"}],"stateMutability":"view"},{"type":"function","name":"owner","inputs":[],"outputs":[{"name":"","type":"address","internalType":"address"}],"stateMutability":"view"},{"type":"function","name":"randomNumber","inputs":[],"outputs":[{"name":"","type":"uint256","internalType":"uint256"}],"stateMutability":"view"},{"type":"function","name":"renounceOwnership","inputs":[],"outputs":[],"stateMutability":"nonpayable"},{"type":"function","name":"requestPending","inputs":[{"name":"","type":"uint256","internalType":"uint256"}],"outputs":[{"name":"","type":"bool","internalType":"bool"}],"stateMutability":"view"},{"type":"function","name":"requestRandomness","inputs":[],"outputs":[],"stateMutability":"nonpayable"},{"type":"function","name":"requestedHash","inputs":[{"name":"","type":"uint256","internalType":"uint256"}],"outputs":[{"name":"","type":"bytes32","internalType":"bytes32"}],"stateMutability":"view"},{"type":"function","name":"roll","inputs":[],"outputs":[],"stateMutability":"nonpayable"},{"type":"function","name":"rollPrice","inputs":[],"outputs":[{"name":"","type":"uint256","internalType":"uint256"}],"stateMutability":"view"},{"type":"function","name":"rollTolerance","inputs":[],"outputs":[{"name":"","type":"uint256","internalType":"uint256"}],"stateMutability":"view"},{"type":"function","name":"rolledNumbers","inputs":[{"name":"","type":"address","internalType":"address"}],"outputs":[{"name":"","type":"uint256","internalType":"uint256"}],"stateMutability":"view"},{"type":"function","name":"seller","inputs":[],"outputs":[{"name":"","type":"address","internalType":"address"}],"stateMutability":"view"},{"type":"function","name":"sellerWithdraw","inputs":[],"outputs":[],"stateMutability":"nonpayable"},{"type":"function","name":"setRandomNumber","inputs":[],"outputs":[],"stateMutability":"nonpayable"},{"type":"function","name":"setSeller","inputs":[{"name":"_seller","type":"address","internalType":"address"}],"outputs":[],"stateMutability":"nonpayable"},{"type":"function","name":"startLottery","inputs":[],"outputs":[],"stateMutability":"nonpayable"},{"type":"function","name":"transferDeposit","inputs":[{"name":"_participant","type":"address","internalType":"address"},{"name":"_amount","type":"uint256","internalType":"uint256"}],"outputs":[],"stateMutability":"nonpayable"},{"type":"function","name":"transferNonWinnerDeposits","inputs":[{"name":"auctionV1addr","type":"address","internalType":"address"}],"outputs":[],"stateMutability":"nonpayable"},{"type":"function","name":"transferOwnership","inputs":[{"name":"newOwner","type":"address","internalType":"address"}],"outputs":[],"stateMutability":"nonpayable"},{"type":"function","name":"usdcContractAddr","inputs":[],"outputs":[{"name":"","type":"address","internalType":"address"}],"stateMutability":"view"},{"type":"function","name":"winnerAddresses","inputs":[{"name":"","type":"uint256","internalType":"uint256"}],"outputs":[{"name":"","type":"address","internalType":"address"}],"stateMutability":"view"},{"type":"function","name":"winners","inputs":[{"name":"","type":"address","internalType":"address"}],"outputs":[{"name":"","type":"bool","internalType":"bool"}],"stateMutability":"view"},{"type":"event","name":"BuyerDeposited","inputs":[{"name":"buyer","type":"address","indexed":true,"internalType":"address"},{"name":"amount","type":"uint256","indexed":true,"internalType":"uint256"}],"anonymous":false},{"type":"event","name":"BuyerWithdrew","inputs":[{"name":"buyer","type":"address","indexed":true,"internalType":"address"},{"name":"amount","type":"uint256","indexed":true,"internalType":"uint256"}],"anonymous":false},{"type":"event","name":"LotteryEnded","inputs":[],"anonymous":false},{"type":"event","name":"LotteryStarted","inputs":[],"anonymous":false},{"type":"event","name":"OwnershipTransferred","inputs":[{"name":"previousOwner","type":"address","indexed":true,"internalType":"address"},{"name":"newOwner","type":"address","indexed":true,"internalType":"address"}],"anonymous":false},{"type":"event","name":"RandomFulfilled","inputs":[{"name":"requester","type":"address","indexed":true,"internalType":"address"},{"name":"number","type":"uint256","indexed":false,"internalType":"uint256"}],"anonymous":false},{"type":"event","name":"RandomRequested","inputs":[{"name":"requester","type":"address","indexed":true,"internalType":"address"}],"anonymous":false},{"type":"event","name":"RequestedRandomness","inputs":[{"name":"round","type":"uint256","indexed":false,"internalType":"uint256"},{"name":"data","type":"bytes","indexed":false,"internalType":"bytes"}],"anonymous":false},{"type":"event","name":"WinnerSelected","inputs":[{"name":"winner","type":"address","indexed":true,"internalType":"address"}],"anonymous":false},{"type":"error","name":"OwnableInvalidOwner","inputs":[{"name":"owner","type":"address","internalType":"address"}]},{"type":"error","name":"OwnableUnauthorizedAccount","inputs":[{"name":"account","type":"address","internalType":"address"}]}],"bytecode":{"object":"0x60a06040526000805460ff60a81b1916905534801561001d57600080fd5b5073d8253782c45a12053594b9deb72d8e8ab2fca54c338061005957604051631e4fbdf760e01b81526000600482015260240160405180910390fd5b61006281610074565b506001600160a01b03166080526100c4565b600080546001600160a01b038381166001600160a01b0319831681178455604051919092169283917f8be0079c531659141344cd1fd0a4f28419497f9722a3daafe3b4186f6b6457e09190a35050565b608051612a7f6100e6600039600081816103af01526123a00152612a7f6000f3fe608060405234801561001057600080fd5b506004361061028a5760003560e01c80637cc947d01161015c578063cd5e3c5d116100ce578063e9081ec711610087578063e9081ec7146105b3578063e99d2866146105dc578063f2fde38b146105ef578063f3f18c3714610602578063f8413b0714610615578063fc7e286d1461061d57600080fd5b8063cd5e3c5d1461056c578063ce1121f214610574578063cf3af3a114610587578063dbdff2c114610590578063df15c37e14610598578063e63c4609146105a057600080fd5b8063a61fb2ba11610120578063a61fb2ba14610501578063b3f6b99a14610514578063b6b55f2514610527578063bf1dda151461053a578063c4f8f27b14610543578063ccbac9f51461056357600080fd5b80637cc947d0146104a15780638da5cb5b146104a957806397fedfcb146104ba57806399dbf4b5146104c25780639d9ca28d146104d557600080fd5b806345745c1011610200578063683e93e1116101b9578063683e93e11461040f5780636939864b146104225780636bd5450a14610443578063715018a61461046657806375ce7fff1461046e5780637b15452d1461048157600080fd5b806345745c101461038357806350f3dbec1461038c578063572b6c051461039f5780635aa68ac0146103df5780635f86e4fe146103f457806366af746b1461040757600080fd5b8063160344e211610252578063160344e214610317578063261704801461031f578063292fec04146103275780632c23ec8e1461033a57806338e21cce1461034d5780633dc204e71461037057600080fd5b8063045f9c971461028f578063080c279a146102bf57806308551a53146102d6578063158ef93e146102e95780631593a8c71461030d575b600080fd5b6102a261029d366004612437565b61063d565b6040516001600160a01b0390911681526020015b60405180910390f35b6102c860025481565b6040519081526020016102b6565b6001546102a2906001600160a01b031681565b6000546102fd90600160a81b900460ff1681565b60405190151581526020016102b6565b610315610667565b005b6103156106df565b6103156107ba565b6102fd610335366004612470565b610aa9565b6009546102a2906001600160a01b031681565b6102fd61035b366004612470565b60046020526000908152604090205460ff1681565b6102fd61037e366004612470565b610bb8565b6102c860035481565b61031561039a366004612494565b610c8b565b6102fd6103ad366004612470565b7f00000000000000000000000000000000000000000000000000000000000000006001600160a01b0390811691161490565b6103e7610ddd565b6040516102b691906124c0565b6010546102a2906001600160a01b031681565b610315610e3f565b61031561041d36600461250d565b611076565b60005461043690600160a01b900460ff1681565b6040516102b69190612544565b6102fd610451366004612470565b60066020526000908152604090205460ff1681565b6103156110dd565b6102fd61047c366004612437565b6110f1565b6102c861048f366004612470565b60116020526000908152604090205481565b610315611125565b6000546001600160a01b03166102a2565b610315611369565b600a546102a2906001600160a01b031681565b6102fd6104e3366004612470565b6001600160a01b031660009081526006602052604090205460ff1690565b600b546102a2906001600160a01b031681565b61031561052236600461256c565b611400565b610315610535366004612437565b6115da565b6102c860135481565b6102c8610551366004612437565b600d6020526000908152604090205481565b6102c8600f5481565b610315611a5b565b610315610582366004612659565b611c07565b6102c860125481565b6102c8611d30565b6103e7611d87565b6103156105ae366004612470565b611de7565b6102c86105c1366004612470565b6001600160a01b031660009081526005602052604090205490565b6103156105ea366004612470565b612003565b6103156105fd366004612470565b61205f565b600e546102a2906001600160a01b031681565b61031561209a565b6102c861062b366004612470565b60056020526000908152604090205481565b6007818154811061064d57600080fd5b6000918252602090912001546001600160a01b0316905081565b6001546001600160a01b031661067b61211f565b6001600160a01b0316146106aa5760405162461bcd60e51b81526004016106a190612717565b60405180910390fd5b6106b46002611076565b6040517f9c89a6ed7228533196a3f962acc80d61a9c53bdea6b910741bf754f5aaa7569e90600090a1565b6001546001600160a01b03166106f361211f565b6001600160a01b0316146107195760405162461bcd60e51b81526004016106a190612717565b60008054600160a01b900460ff1660028111156107385761073861252e565b146107855760405162461bcd60e51b815260206004820152601760248201527f53616c6520697320696e2061637469766520737461746500000000000000000060448201526064016106a1565b61078f6001611076565b6040517fd029c7c68d943f92286a7825fa6aa2deefa1eee46cee6c91b7e483fd06d27baf90600090a1565b600460006107c661211f565b6001600160a01b0316815260208101919091526040016000205460ff16156108255760405162461bcd60e51b815260206004820152601260248201527113919508185b1c9958591e481b5a5b9d195960721b60448201526064016106a1565b61082d61211f565b601054604051639d9ca28d60e01b81526001600160a01b03838116600483015290911690639d9ca28d90602401602060405180830381865afa158015610877573d6000803e3d6000fd5b505050506040513d601f19601f8201168201806040525081019061089b9190612759565b156108b85760405162461bcd60e51b81526004016106a19061277b565b6108c36104e361211f565b6109085760405162461bcd60e51b815260206004820152601660248201527521b0b63632b91034b9903737ba1030903bb4b73732b960511b60448201526064016106a1565b60016004600061091661211f565b6001600160a01b0316815260208101919091526040016000908120805460ff19169215159290921790915560025460058261094f61211f565b6001600160a01b03166001600160a01b031681526020019081526020016000205461097a91906127d9565b90508015610a0e57600a546001600160a01b031663a9059cbb61099b61211f565b6040516001600160e01b031960e084901b1681526001600160a01b039091166004820152602481018490526044016020604051808303816000875af11580156109e8573d6000803e3d6000fd5b505050506040513d601f19601f82011682018060405250810190610a0c9190612759565b505b600060056000610a1c61211f565b6001600160a01b03908116825260208201929092526040016000209190915560095416636b8f60f6610a4c61211f565b6040516001600160e01b031960e084901b1681526001600160a01b039091166004820152602401600060405180830381600087803b158015610a8d57600080fd5b505af1158015610aa1573d6000803e3d6000fd5b505050505050565b6013546001600160a01b03821660009081526011602052604081205490918291606491610ad5916127f2565b610adf919061281f565b6001600160a01b038416600090815260116020526040902054610b0291906127d9565b6013546001600160a01b03851660009081526011602052604081205492935091606491610b2e916127f2565b610b38919061281f565b6001600160a01b038516600090815260116020526040902054610b5b9190612833565b9050600082600f5410158015610b73575081600f5411155b6002546001600160a01b03871660009081526005602052604090205491925011801590610b9d5750805b15610bad57506001949350505050565b506000949350505050565b6000610bc382610aa9565b8015610be857506001600160a01b03821660009081526006602052604090205460ff16155b15610c7e576001600160a01b038216600081815260066020526040808220805460ff1916600190811790915560078054918201815583527fa66cc928b5edb82af9bd49922954155ab7b0942694bea4ce44661d9a8736c6880180546001600160a01b03191684179055517f1d4c260f1824cd028e6c9e6e31c3a0b94f2513e7a641113ec759d382f9bdd5a19190a2506001919050565b506000919050565b919050565b610c9361211f565b6010546001600160a01b03908116911614610d005760405162461bcd60e51b815260206004820152602760248201527f4f6e6c792077686974656c6973746564206d61792063616c6c207468697320666044820152663ab731ba34b7b760c91b60648201526084016106a1565b6001600160a01b0382166000908152600560205260408120549003610dac5760088054600181019091557ff3f7a9fe364faab93b216da50a3214154f22a0a2b415b23a84c8169e8b636ee30180546001600160a01b0319166001600160a01b0384169081179091556000908152601160205260408120549003610dac57604080516001600160a01b0384166020820152610daa91015b60405160208183030381529060405261212e565b505b6001600160a01b03821660009081526005602052604081208054839290610dd4908490612833565b90915550505050565b60606008805480602002602001604051908101604052809291908181526020018280548015610e3557602002820191906000526020600020905b81546001600160a01b03168152600190910190602001808311610e17575b5050505050905090565b6001546001600160a01b0316610e5361211f565b6001600160a01b031614610e795760405162461bcd60e51b81526004016106a190612717565b6002600054600160a01b900460ff166002811115610e9957610e9961252e565b14610eda5760405162461bcd60e51b8152602060048201526011602482015270131bdd1d195c9e481b9bdd08195b991959607a1b60448201526064016106a1565b6000805b600754811015610f5357600060078281548110610efd57610efd612846565b60009182526020808320909101546001600160a01b03168083526005909152604090912054909150610f2f9084612833565b6001600160a01b039091166000908152600560205260408120559150600101610ede565b5060006064610f638360056127f2565b610f6d919061281f565b90506000610f7b82846127d9565b600a54600b5460405163a9059cbb60e01b81526001600160a01b03918216600482015260248101869052929350169063a9059cbb906044016020604051808303816000875af1158015610fd2573d6000803e3d6000fd5b505050506040513d601f19601f82011682018060405250810190610ff69190612759565b50600a5460015460405163a9059cbb60e01b81526001600160a01b0391821660048201526024810184905291169063a9059cbb906044016020604051808303816000875af115801561104c573d6000803e3d6000fd5b505050506040513d601f19601f820116820180604052508101906110709190612759565b50505050565b6001546001600160a01b031661108a61211f565b6001600160a01b0316146110b05760405162461bcd60e51b81526004016106a190612717565b6000805482919060ff60a01b1916600160a01b8360028111156110d5576110d561252e565b021790555050565b6110e5612231565b6110ef600061228f565b565b600c818154811061110157600080fd5b9060005260206000209060209182820401919006915054906101000a900460ff1681565b6002600054600160a01b900460ff1660028111156111455761114561252e565b1461118a5760405162461bcd60e51b815260206004820152601560248201527414d85b19481a5cc81b9bdd08195b991959081e595d605a1b60448201526064016106a1565b6006600061119661211f565b6001600160a01b0316815260208101919091526040016000205460ff16156112005760405162461bcd60e51b815260206004820152601760248201527f57696e6e6572732063616e6e6f7420776974686472617700000000000000000060448201526064016106a1565b60006005600061120e61211f565b6001600160a01b03166001600160a01b03168152602001908152602001600020549050600081116112785760405162461bcd60e51b81526020600482015260146024820152734e6f2066756e647320746f20776974686472617760601b60448201526064016106a1565b60006005600061128661211f565b6001600160a01b039081168252602082019290925260400160002091909155600a541663a9059cbb6112b661211f565b6040516001600160e01b031960e084901b1681526001600160a01b039091166004820152602481018490526044016020604051808303816000875af1158015611303573d6000803e3d6000fd5b505050506040513d601f19601f820116820180604052508101906113279190612759565b508061133161211f565b6001600160a01b03167f1f280cd00e67ed50213ac03febd5be151f96b7f7db2f85312aa0feff99f8bdab60405160405180910390a350565b6001546001600160a01b031661137d61211f565b6001600160a01b0316146113a35760405162461bcd60e51b81526004016106a190612717565b600f54156113f35760405162461bcd60e51b815260206004820152601960248201527f52616e646f6d206e756d62657220616c7265616479207365740000000000000060448201526064016106a1565b6113fb611d30565b600f55565b600e546001600160a01b0316331461144a5760405162461bcd60e51b815260206004820152600d60248201526c37b7363c9037b832b930ba37b960991b60448201526064016106a1565b600061145882840184612884565b915050600080828060200190518101906114729190612932565b91509150600085856040516114889291906129b5565b604051809103902090506000600d60008581526020019081526020016000205482149050600c84815481106114bf576114bf612846565b90600052602060002090602091828204019190069054906101000a900460ff1661152b5760405162461bcd60e51b815260206004820152601c60248201527f726571756573742066756c66696c6c6564206f72206d697373696e670000000060448201526064016106a1565b80156115d05760408051602081018a905230918101919091524660608201526080810185905260a0016040516020818303038152906040528051906020012060001c975061157a8885856122df565b6000600c858154811061158f5761158f612846565b90600052602060002090602091828204019190066101000a81548160ff021916908315150217905550600d6000858152602001908152602001600020600090555b5050505050505050565b6001600054600160a01b900460ff1660028111156115fa576115fa61252e565b1461163c5760405162461bcd60e51b815260206004820152601260248201527153616c65206973206e6f742061637469766560701b60448201526064016106a1565b61164461211f565b601054604051639d9ca28d60e01b81526001600160a01b03838116600483015290911690639d9ca28d90602401602060405180830381865afa15801561168e573d6000803e3d6000fd5b505050506040513d601f19601f820116820180604052508101906116b29190612759565b156116cf5760405162461bcd60e51b81526004016106a19061277b565b600a546001600160a01b03166117275760405162461bcd60e51b815260206004820152601d60248201527f5553444320636f6e74726163742061646472657373206e6f742073657400000060448201526064016106a1565b6012548210156117715760405162461bcd60e51b8152602060048201526015602482015274139bdd08195b9bdd59da08199d5b991cc81cd95b9d605a1b60448201526064016106a1565b600a5482906001600160a01b031663dd62ed3e61178c61211f565b6040516001600160e01b031960e084901b1681526001600160a01b039091166004820152306024820152604401602060405180830381865afa1580156117d6573d6000803e3d6000fd5b505050506040513d601f19601f820116820180604052508101906117fa91906129c5565b10156118415760405162461bcd60e51b8152602060048201526016602482015275496e73756666696369656e7420616c6c6f77616e636560501b60448201526064016106a1565b600a546001600160a01b03166323b872dd61185a61211f565b6040516001600160e01b031960e084901b1681526001600160a01b039091166004820152306024820152604481018590526064016020604051808303816000875af11580156118ad573d6000803e3d6000fd5b505050506040513d601f19601f820116820180604052508101906118d19190612759565b50600560006118de61211f565b6001600160a01b03166001600160a01b03168152602001908152602001600020546000036119d757600861191061211f565b81546001810183556000928352602083200180546001600160a01b0319166001600160a01b039290921691909117905560119061194b61211f565b6001600160a01b03166001600160a01b03168152602001908152602001600020546000036119d75761199861197e61211f565b604080516001600160a01b03909216602083015201610d96565b506119a161211f565b6001600160a01b03167fd802e7c7f1646e3318c03abed1e468bdf913f45331a68dc912a0d645eb646a4260405160405180910390a25b81600560006119e461211f565b6001600160a01b03166001600160a01b031681526020019081526020016000206000828254611a139190612833565b90915550829050611a2261211f565b6001600160a01b03167f21040858e63c11c046482f61f290bbe25972fc74b11b4570a01f9241082d21f160405160405180910390a35050565b6001600054600160a01b900460ff166002811115611a7b57611a7b61252e565b14611abd5760405162461bcd60e51b815260206004820152601260248201527153616c65206973206e6f742061637469766560701b60448201526064016106a1565b600060125411611b035760405162461bcd60e51b8152602060048201526011602482015270139bc81c9bdb1b081c1c9a58d9481cd95d607a1b60448201526064016106a1565b600254601254611b139190612833565b60056000611b1f61211f565b6001600160a01b03166001600160a01b03168152602001908152602001600020541015611b835760405162461bcd60e51b8152602060048201526012602482015271496e73756666696369656e742066756e647360701b60448201526064016106a1565b60125460056000611b9261211f565b6001600160a01b03166001600160a01b031681526020019081526020016000206000828254611bc191906127d9565b90915550506012546001546001600160a01b031660009081526005602052604081208054909190611bf3908490612833565b90915550611c04905061197e61211f565b50565b600054600160a81b900460ff1615611c575760405162461bcd60e51b8152602060048201526013602482015272105b1c9958591e481a5b9a5d1a585b1a5e9959606a1b60448201526064016106a1565b6020810151600180546001600160a01b039283166001600160a01b0319918216179091558251600e80549190931691161790556040810151611c989061228f565b6060810151600355608081015160025560a081015160125560c081015160135560e0810151600a80546001600160a01b03199081166001600160a01b0393841617909155610100830151600980548316918416919091179055610120830151600b805483169184169190911790556101409092015160108054909316911617905560008054600160a81b60ff60a81b19909116179055565b60004244611d3c61211f565b6040805160208101949094528301919091526bffffffffffffffffffffffff19606091821b16908201526074016040516020818303038152906040528051906020012060001c905090565b60606007805480602002602001604051908101604052809291908181526020018280548015610e35576020028201919060005260206000209081546001600160a01b03168152600190910190602001808311610e17575050505050905090565b6001546001600160a01b0316611dfb61211f565b6001600160a01b031614611e215760405162461bcd60e51b81526004016106a190612717565b60005b600854811015611fff57611e6c60088281548110611e4457611e44612846565b60009182526020808320909101546001600160a01b0316825260069052604090205460ff1690565b611ff75760006005600060088481548110611e8957611e89612846565b60009182526020808320909101546001600160a01b031683528201929092526040018120546008805491935060059183919086908110611ecb57611ecb612846565b6000918252602080832091909101546001600160a01b039081168452908301939093526040918201902092909255600a54915163a9059cbb60e01b815285821660048201526024810184905291169063a9059cbb906044016020604051808303816000875af1158015611f42573d6000803e3d6000fd5b505050506040513d601f19601f82011682018060405250810190611f669190612759565b50826001600160a01b03166350f3dbec60088481548110611f8957611f89612846565b60009182526020909120015460405160e083901b6001600160e01b03191681526001600160a01b03909116600482015260248101849052604401600060405180830381600087803b158015611fdd57600080fd5b505af1158015611ff1573d6000803e3d6000fd5b50505050505b600101611e24565b5050565b6001546001600160a01b031661201761211f565b6001600160a01b03161461203d5760405162461bcd60e51b81526004016106a190612717565b600180546001600160a01b0319166001600160a01b0392909216919091179055565b612067612231565b6001600160a01b03811661209157604051631e4fbdf760e01b8152600060048201526024016106a1565b611c048161228f565b6001546001600160a01b03166120ae61211f565b6001600160a01b0316146120d45760405162461bcd60e51b81526004016106a190612717565b6120df61197e61211f565b506120e861211f565b6001600160a01b03167fd802e7c7f1646e3318c03abed1e468bdf913f45331a68dc912a0d645eb646a4260405160405180910390a2565b600061212961239c565b905090565b600c805460018082018084556000849052919290918390811061215357612153612846565b90600052602060002090602091828204019190066101000a81548160ff021916908315150217905550600081836040516020016121919291906129de565b604051602081830303815290604052905060006121ac6123e0565b9050600081836040516020016121c39291906129de565b60408051601f1981840301815282825280516020808301919091206000898152600d9092529290208290559250907fd91fc3685b930310b008ec37d2334870cab88a023ed8cc628a2e2ccd4e55d2029061222090859087906129de565b60405180910390a150505050919050565b61223961211f565b6001600160a01b03166122546000546001600160a01b031690565b6001600160a01b0316146110ef5761226a61211f565b60405163118cdaa760e01b81526001600160a01b0390911660048201526024016106a1565b600080546001600160a01b038381166001600160a01b0319831681178455604051919092169283917f8be0079c531659141344cd1fd0a4f28419497f9722a3daafe3b4186f6b6457e09190a35050565b6000818060200190518101906122f59190612a18565b90506000612309655af3107a400086612a35565b6001549091506001600160a01b039081169083160361232c57600f819055612352565b6001600160a01b038216600090815260116020526040902081905561235082610bb8565b505b816001600160a01b03167f85e7483164122a78ca40e7f10b414e6f78c7d47abdae87716e0fb3491290c6ec8260405161238d91815260200190565b60405180910390a25050505050565b60007f00000000000000000000000000000000000000000000000000000000000000006001600160a01b031633036123db575060131936013560601c90565b503390565b6000806123f16364e62127426127d9565b9050600061240060038361281f565b61240b906001612833565b90504660011461242557612420816001612833565b612430565b612430816004612833565b9250505090565b60006020828403121561244957600080fd5b5035919050565b6001600160a01b0381168114611c0457600080fd5b8035610c8681612450565b60006020828403121561248257600080fd5b813561248d81612450565b9392505050565b600080604083850312156124a757600080fd5b82356124b281612450565b946020939093013593505050565b6020808252825182820181905260009190848201906040850190845b818110156125015783516001600160a01b0316835292840192918401916001016124dc565b50909695505050505050565b60006020828403121561251f57600080fd5b81356003811061248d57600080fd5b634e487b7160e01b600052602160045260246000fd5b602081016003831061256657634e487b7160e01b600052602160045260246000fd5b91905290565b60008060006040848603121561258157600080fd5b83359250602084013567ffffffffffffffff808211156125a057600080fd5b818601915086601f8301126125b457600080fd5b8135818111156125c357600080fd5b8760208285010111156125d557600080fd5b6020830194508093505050509250925092565b634e487b7160e01b600052604160045260246000fd5b604051610160810167ffffffffffffffff81118282101715612622576126226125e8565b60405290565b604051601f8201601f1916810167ffffffffffffffff81118282101715612651576126516125e8565b604052919050565b6000610160828403121561266c57600080fd5b6126746125fe565b61267d83612465565b815261268b60208401612465565b602082015261269c60408401612465565b6040820152606083013560608201526080830135608082015260a083013560a082015260c083013560c08201526126d560e08401612465565b60e08201526101006126e8818501612465565b908201526101206126fa848201612465565b9082015261014061270c848201612465565b908201529392505050565b60208082526022908201527f4f6e6c792073656c6c65722063616e2063616c6c20746869732066756e63746960408201526137b760f11b606082015260800190565b60006020828403121561276b57600080fd5b8151801515811461248d57600080fd5b60208082526028908201527f5061727469636970616e742068617320616c726561647920776f6e20696e204c6040820152676f7474657279563160c01b606082015260800190565b634e487b7160e01b600052601160045260246000fd5b818103818111156127ec576127ec6127c3565b92915050565b80820281158282048414176127ec576127ec6127c3565b634e487b7160e01b600052601260045260246000fd5b60008261282e5761282e612809565b500490565b808201808211156127ec576127ec6127c3565b634e487b7160e01b600052603260045260246000fd5b600067ffffffffffffffff821115612876576128766125e8565b50601f01601f191660200190565b6000806040838503121561289757600080fd5b82359150602083013567ffffffffffffffff8111156128b557600080fd5b8301601f810185136128c657600080fd5b80356128d96128d48261285c565b612628565b8181528660208385010111156128ee57600080fd5b816020840160208301376000602083830101528093505050509250929050565b60005b83811015612929578181015183820152602001612911565b50506000910152565b6000806040838503121561294557600080fd5b82519150602083015167ffffffffffffffff81111561296357600080fd5b8301601f8101851361297457600080fd5b80516129826128d48261285c565b81815286602083850101111561299757600080fd5b6129a882602083016020860161290e565b8093505050509250929050565b8183823760009101908152919050565b6000602082840312156129d757600080fd5b5051919050565b8281526040602082015260008251806040840152612a0381606085016020870161290e565b601f01601f1916919091016060019392505050565b600060208284031215612a2a57600080fd5b815161248d81612450565b600082612a4457612a44612809565b50069056fea2646970667358221220a59374f642d2cdce03274360aaf10f49d78ec063a4f627db9dbe2a460d5b1e2c64736f6c63430008190033","linkReferences":{}},"methodIdentifiers":{"buyerWithdraw()":"7cc947d0","changeLotteryState(uint8)":"683e93e1","claimNumber(address)":"3dc204e7","deposit(uint256)":"b6b55f25","deposits(address)":"fc7e286d","endLottery()":"1593a8c7","fulfillRandomness(uint256,bytes)":"b3f6b99a","getDepositedAmount(address)":"e9081ec7","getParticipants()":"5aa68ac0","getRandomNumber()":"dbdff2c1","getWinners()":"df15c37e","hasMinted(address)":"38e21cce","initialize((address,address,address,uint256,uint256,uint256,uint256,address,address,address,address))":"ce1121f2","initialized()":"158ef93e","isClaimable(address)":"292fec04","isTrustedForwarder(address)":"572b6c05","isWinner(address)":"9d9ca28d","lotteryState()":"6939864b","lotteryV1Addr()":"5f86e4fe","minimumDepositAmount()":"080c279a","mintMyNFT()":"26170480","multisigWalletAddress()":"a61fb2ba","nftContractAddr()":"2c23ec8e","numberOfTickets()":"45745c10","operatorAddr()":"f3f18c37","owner()":"8da5cb5b","randomNumber()":"ccbac9f5","renounceOwnership()":"715018a6","requestPending(uint256)":"75ce7fff","requestRandomness()":"f8413b07","requestedHash(uint256)":"c4f8f27b","roll()":"cd5e3c5d","rollPrice()":"cf3af3a1","rollTolerance()":"bf1dda15","rolledNumbers(address)":"7b15452d","seller()":"08551a53","sellerWithdraw()":"66af746b","setRandomNumber()":"97fedfcb","setSeller(address)":"e99d2866","startLottery()":"160344e2","transferDeposit(address,uint256)":"50f3dbec","transferNonWinnerDeposits(address)":"e63c4609","transferOwnership(address)":"f2fde38b","usdcContractAddr()":"99dbf4b5","winnerAddresses(uint256)":"045f9c97","winners(address)":"6bd5450a"},"id":57}