{"abi":[{"type":"function","name":"buyerWithdraw","inputs":[],"outputs":[],"stateMutability":"nonpayable"},{"type":"function","name":"changeLotteryState","inputs":[{"name":"_newState","type":"uint8","internalType":"enum SaleBase.LotteryState"}],"outputs":[],"stateMutability":"nonpayable"},{"type":"function","name":"claimNumber","inputs":[{"name":"_participant","type":"address","internalType":"address"}],"outputs":[{"name":"","type":"bool","internalType":"bool"}],"stateMutability":"nonpayable"},{"type":"function","name":"deposit","inputs":[{"name":"amount","type":"uint256","internalType":"uint256"}],"outputs":[],"stateMutability":"nonpayable"},{"type":"function","name":"deposits","inputs":[{"name":"","type":"address","internalType":"address"}],"outputs":[{"name":"","type":"uint256","internalType":"uint256"}],"stateMutability":"view"},{"type":"function","name":"endLottery","inputs":[],"outputs":[],"stateMutability":"nonpayable"},{"type":"function","name":"fulfillRandomness","inputs":[{"name":"randomness","type":"uint256","internalType":"uint256"},{"name":"dataWithRound","type":"bytes","internalType":"bytes"}],"outputs":[],"stateMutability":"nonpayable"},{"type":"function","name":"getDepositedAmount","inputs":[{"name":"participant","type":"address","internalType":"address"}],"outputs":[{"name":"","type":"uint256","internalType":"uint256"}],"stateMutability":"view"},{"type":"function","name":"getParticipants","inputs":[],"outputs":[{"name":"","type":"address[]","internalType":"address[]"}],"stateMutability":"view"},{"type":"function","name":"getRandomNumber","inputs":[],"outputs":[{"name":"","type":"uint256","internalType":"uint256"}],"stateMutability":"view"},{"type":"function","name":"getWinners","inputs":[],"outputs":[{"name":"","type":"address[]","internalType":"address[]"}],"stateMutability":"view"},{"type":"function","name":"hasMinted","inputs":[{"name":"","type":"address","internalType":"address"}],"outputs":[{"name":"","type":"bool","internalType":"bool"}],"stateMutability":"view"},{"type":"function","name":"initialize","inputs":[{"name":"config","type":"tuple","internalType":"struct StructsLibrary.ILotteryBaseConfig","components":[{"name":"_gelatoVrfOperator","type":"address","internalType":"address"},{"name":"_blessedOperator","type":"address","internalType":"address"},{"name":"_owner","type":"address","internalType":"address"},{"name":"_ticketAmount","type":"uint256","internalType":"uint256"},{"name":"_ticketPrice","type":"uint256","internalType":"uint256"},{"name":"_usdcContractAddr","type":"address","internalType":"address"},{"name":"_multisigWalletAddress","type":"address","internalType":"address"},{"name":"_prevPhaseContractAddr","type":"address","internalType":"address"}]}],"outputs":[],"stateMutability":"nonpayable"},{"type":"function","name":"initialized","inputs":[],"outputs":[{"name":"","type":"bool","internalType":"bool"}],"stateMutability":"view"},{"type":"function","name":"isClaimable","inputs":[{"name":"_participant","type":"address","internalType":"address"}],"outputs":[{"name":"","type":"bool","internalType":"bool"}],"stateMutability":"view"},{"type":"function","name":"isTrustedForwarder","inputs":[{"name":"forwarder","type":"address","internalType":"address"}],"outputs":[{"name":"","type":"bool","internalType":"bool"}],"stateMutability":"view"},{"type":"function","name":"isWinner","inputs":[{"name":"_participant","type":"address","internalType":"address"}],"outputs":[{"name":"","type":"bool","internalType":"bool"}],"stateMutability":"view"},{"type":"function","name":"lotteryState","inputs":[],"outputs":[{"name":"","type":"uint8","internalType":"enum SaleBase.LotteryState"}],"stateMutability":"view"},{"type":"function","name":"lotteryV1Addr","inputs":[],"outputs":[{"name":"","type":"address","internalType":"address"}],"stateMutability":"view"},{"type":"function","name":"maxMints","inputs":[],"outputs":[{"name":"","type":"uint256","internalType":"uint256"}],"stateMutability":"view"},{"type":"function","name":"minimumDepositAmount","inputs":[],"outputs":[{"name":"","type":"uint256","internalType":"uint256"}],"stateMutability":"view"},{"type":"function","name":"mintCount","inputs":[],"outputs":[{"name":"","type":"uint256","internalType":"uint256"}],"stateMutability":"view"},{"type":"function","name":"mintMyNFT","inputs":[],"outputs":[],"stateMutability":"nonpayable"},{"type":"function","name":"multisigWalletAddress","inputs":[],"outputs":[{"name":"","type":"address","internalType":"address"}],"stateMutability":"view"},{"type":"function","name":"nftContractAddr","inputs":[],"outputs":[{"name":"","type":"address","internalType":"address"}],"stateMutability":"view"},{"type":"function","name":"numberOfTickets","inputs":[],"outputs":[{"name":"","type":"uint256","internalType":"uint256"}],"stateMutability":"view"},{"type":"function","name":"operatorAddr","inputs":[],"outputs":[{"name":"","type":"address","internalType":"address"}],"stateMutability":"view"},{"type":"function","name":"owner","inputs":[],"outputs":[{"name":"","type":"address","internalType":"address"}],"stateMutability":"view"},{"type":"function","name":"randomNumber","inputs":[],"outputs":[{"name":"","type":"uint256","internalType":"uint256"}],"stateMutability":"view"},{"type":"function","name":"renounceOwnership","inputs":[],"outputs":[],"stateMutability":"nonpayable"},{"type":"function","name":"requestPending","inputs":[{"name":"","type":"uint256","internalType":"uint256"}],"outputs":[{"name":"","type":"bool","internalType":"bool"}],"stateMutability":"view"},{"type":"function","name":"requestRandomness","inputs":[],"outputs":[],"stateMutability":"nonpayable"},{"type":"function","name":"requestedHash","inputs":[{"name":"","type":"uint256","internalType":"uint256"}],"outputs":[{"name":"","type":"bytes32","internalType":"bytes32"}],"stateMutability":"view"},{"type":"function","name":"roll","inputs":[],"outputs":[],"stateMutability":"nonpayable"},{"type":"function","name":"rollPrice","inputs":[],"outputs":[{"name":"","type":"uint256","internalType":"uint256"}],"stateMutability":"view"},{"type":"function","name":"rollTolerance","inputs":[],"outputs":[{"name":"","type":"uint256","internalType":"uint256"}],"stateMutability":"view"},{"type":"function","name":"rolledNumbers","inputs":[{"name":"","type":"address","internalType":"address"}],"outputs":[{"name":"","type":"uint256","internalType":"uint256"}],"stateMutability":"view"},{"type":"function","name":"seller","inputs":[],"outputs":[{"name":"","type":"address","internalType":"address"}],"stateMutability":"view"},{"type":"function","name":"sellerWithdraw","inputs":[],"outputs":[],"stateMutability":"nonpayable"},{"type":"function","name":"setMinimumDepositAmount","inputs":[{"name":"_amount","type":"uint256","internalType":"uint256"}],"outputs":[],"stateMutability":"nonpayable"},{"type":"function","name":"setMultisigWalletAddress","inputs":[{"name":"_multisigWalletAddress","type":"address","internalType":"address"}],"outputs":[],"stateMutability":"nonpayable"},{"type":"function","name":"setNftContractAddr","inputs":[{"name":"_nftContractAddr","type":"address","internalType":"address"}],"outputs":[],"stateMutability":"nonpayable"},{"type":"function","name":"setNumberOfTickets","inputs":[{"name":"_numberOfTickets","type":"uint256","internalType":"uint256"}],"outputs":[],"stateMutability":"nonpayable"},{"type":"function","name":"setRandomNumber","inputs":[],"outputs":[],"stateMutability":"nonpayable"},{"type":"function","name":"setRollPrice","inputs":[{"name":"_rollPrice","type":"uint256","internalType":"uint256"}],"outputs":[],"stateMutability":"nonpayable"},{"type":"function","name":"setRollTolerance","inputs":[{"name":"_tolerance","type":"uint256","internalType":"uint256"}],"outputs":[],"stateMutability":"nonpayable"},{"type":"function","name":"setSeller","inputs":[{"name":"_seller","type":"address","internalType":"address"}],"outputs":[],"stateMutability":"nonpayable"},{"type":"function","name":"setUsdcContractAddr","inputs":[{"name":"_usdcContractAddr","type":"address","internalType":"address"}],"outputs":[],"stateMutability":"nonpayable"},{"type":"function","name":"startLottery","inputs":[],"outputs":[],"stateMutability":"nonpayable"},{"type":"function","name":"transferDeposit","inputs":[{"name":"_participant","type":"address","internalType":"address"},{"name":"_amount","type":"uint256","internalType":"uint256"}],"outputs":[],"stateMutability":"nonpayable"},{"type":"function","name":"transferNonWinnerDeposits","inputs":[{"name":"auctionV1addr","type":"address","internalType":"address"}],"outputs":[],"stateMutability":"nonpayable"},{"type":"function","name":"transferOwnership","inputs":[{"name":"newOwner","type":"address","internalType":"address"}],"outputs":[],"stateMutability":"nonpayable"},{"type":"function","name":"usdcContractAddr","inputs":[],"outputs":[{"name":"","type":"address","internalType":"address"}],"stateMutability":"view"},{"type":"function","name":"winnerAddresses","inputs":[{"name":"","type":"uint256","internalType":"uint256"}],"outputs":[{"name":"","type":"address","internalType":"address"}],"stateMutability":"view"},{"type":"function","name":"winners","inputs":[{"name":"","type":"address","internalType":"address"}],"outputs":[{"name":"","type":"bool","internalType":"bool"}],"stateMutability":"view"},{"type":"event","name":"LotteryEnded","inputs":[],"anonymous":false},{"type":"event","name":"LotteryStarted","inputs":[],"anonymous":false},{"type":"event","name":"OwnershipTransferred","inputs":[{"name":"previousOwner","type":"address","indexed":true,"internalType":"address"},{"name":"newOwner","type":"address","indexed":true,"internalType":"address"}],"anonymous":false},{"type":"event","name":"RandomFulfilled","inputs":[{"name":"requester","type":"address","indexed":true,"internalType":"address"},{"name":"number","type":"uint256","indexed":false,"internalType":"uint256"}],"anonymous":false},{"type":"event","name":"RandomRequested","inputs":[{"name":"requester","type":"address","indexed":true,"internalType":"address"}],"anonymous":false},{"type":"event","name":"RequestedRandomness","inputs":[{"name":"round","type":"uint256","indexed":false,"internalType":"uint256"},{"name":"data","type":"bytes","indexed":false,"internalType":"bytes"}],"anonymous":false},{"type":"event","name":"WinnerSelected","inputs":[{"name":"winner","type":"address","indexed":true,"internalType":"address"}],"anonymous":false},{"type":"error","name":"OwnableInvalidOwner","inputs":[{"name":"owner","type":"address","internalType":"address"}]},{"type":"error","name":"OwnableUnauthorizedAccount","inputs":[{"name":"account","type":"address","internalType":"address"}]}],"bytecode":{"object":"0x60a0604052600e805460ff19169055600060155534801561001f57600080fd5b5073d8253782c45a12053594b9deb72d8e8ab2fca54c338061005b57604051631e4fbdf760e01b81526000600482015260240160405180910390fd5b61006481610076565b506001600160a01b03166080526100c6565b600080546001600160a01b038381166001600160a01b0319831681178455604051919092169283917f8be0079c531659141344cd1fd0a4f28419497f9722a3daafe3b4186f6b6457e09190a35050565b608051612d7e6100e8600039600081816104b401526126cb0152612d7e6000f3fe608060405234801561001057600080fd5b506004361061035d5760003560e01c80637b15452d116101d3578063bf1dda1511610104578063e63c4609116100a2578063f2fde38b1161007c578063f2fde38b14610752578063f3f18c3714610765578063f8413b071461077d578063fc7e286d1461078557600080fd5b8063e63c460914610703578063e9081ec714610716578063e99d28661461073f57600080fd5b8063cd5e3c5d116100de578063cd5e3c5d146106e2578063cf3af3a1146106ea578063dbdff2c1146106f3578063df15c37e146106fb57600080fd5b8063bf1dda15146106b0578063c4f8f27b146106b9578063ccbac9f5146106d957600080fd5b806399dbf4b511610171578063aab483d61161014b578063aab483d61461066e578063b3f6b99a14610681578063b6b55f2514610694578063b6b6f0c3146106a757600080fd5b806399dbf4b51461061c5780639d9ca28d1461062f578063a61fb2ba1461065b57600080fd5b806394d898de116101ad57806394d898de146105e55780639659867e146105f857806397fedfcb1461060157806399bd69d61461060957600080fd5b80637b15452d146105ac5780637cc947d0146105cc5780638da5cb5b146105d457600080fd5b806345745c10116102ad57806360d50da31161024b5780636939864b116102255780636939864b1461054d5780636bd5450a1461056e578063715018a61461059157806375ce7fff1461059957600080fd5b806360d50da31461051f57806366af746b14610532578063683e93e11461053a57600080fd5b8063572b6c0511610287578063572b6c05146104a45780635a6838c5146104e45780635aa68ac0146104f75780635f86e4fe1461050c57600080fd5b806345745c101461047557806350f3dbec1461047e5780635687156e1461049157600080fd5b8063160344e21161031a5780632c23ec8e116102f45780632c23ec8e146104195780633644c27c1461042c57806338e21cce1461043f5780633dc204e71461046257600080fd5b8063160344e2146103f657806326170480146103fe578063292fec041461040657600080fd5b8063045f9c9714610362578063080c279a1461039257806308551a53146103a957806312f0800b146103bc578063158ef93e146103d15780631593a8c7146103ee575b600080fd5b610375610370366004612762565b6107a5565b6040516001600160a01b0390911681526020015b60405180910390f35b61039b60035481565b604051908152602001610389565b600254610375906001600160a01b031681565b6103cf6103ca366004612762565b6107cf565b005b600e546103de9060ff1681565b6040519015158152602001610389565b6103cf61088b565b6103cf6108fa565b6103cf6109d5565b6103de61041436600461279b565b610cc4565b600a54610375906001600160a01b031681565b6103cf61043a36600461279b565b610dd3565b6103de61044d36600461279b565b60056020526000908152604090205460ff1681565b6103de61047036600461279b565b610dfd565b61039b60045481565b6103cf61048c3660046127bf565b610ed0565b6103cf61049f366004612762565b611022565b6103de6104b236600461279b565b7f00000000000000000000000000000000000000000000000000000000000000006001600160a01b0390811691161490565b6103cf6104f2366004612832565b611061565b6104ff611164565b60405161038991906128ee565b601254610375906001600160a01b031681565b6103cf61052d36600461279b565b6111c6565b6103cf6111f0565b6103cf61054836600461293b565b611427565b60005461056190600160a01b900460ff1681565b6040516103899190612972565b6103de61057c36600461279b565b60076020526000908152604090205460ff1681565b6103cf61148e565b6103de6105a7366004612762565b6114a2565b61039b6105ba36600461279b565b60136020526000908152604090205481565b6103cf6114d6565b6000546001600160a01b0316610375565b6103cf6105f336600461279b565b6116dc565b61039b60105481565b6103cf611706565b6103cf610617366004612762565b61179d565b600b54610375906001600160a01b031681565b6103de61063d36600461279b565b6001600160a01b031660009081526007602052604090205460ff1690565b600154610375906001600160a01b031681565b6103cf61067c366004612762565b61184a565b6103cf61068f36600461299a565b611889565b6103cf6106a2366004612762565b611a7a565b61039b600f5481565b61039b60155481565b61039b6106c7366004612762565b600d6020526000908152604090205481565b61039b60115481565b6103cf611eb3565b61039b60145481565b61039b61205f565b6104ff6120b6565b6103cf61071136600461279b565b612116565b61039b61072436600461279b565b6001600160a01b031660009081526006602052604090205490565b6103cf61074d36600461279b565b61232e565b6103cf61076036600461279b565b61238a565b600e546103759061010090046001600160a01b031681565b6103cf6123c5565b61039b61079336600461279b565b60066020526000908152604090205481565b600881815481106107b557600080fd5b6000918252602090912001546001600160a01b0316905081565b6002546001600160a01b03166107e361244a565b6001600160a01b0316146108125760405162461bcd60e51b815260040161080990612a16565b60405180910390fd5b60018110158015610824575060638111155b6108865760405162461bcd60e51b815260206004820152602d60248201527f546f6c6572616e63652070657263656e74616765206d7573742062652062657460448201526c7765656e203120616e6420393960981b6064820152608401610809565b601555565b6002546001600160a01b031661089f61244a565b6001600160a01b0316146108c55760405162461bcd60e51b815260040161080990612a16565b6108cf6002611427565b6040517f9c89a6ed7228533196a3f962acc80d61a9c53bdea6b910741bf754f5aaa7569e90600090a1565b6002546001600160a01b031661090e61244a565b6001600160a01b0316146109345760405162461bcd60e51b815260040161080990612a16565b60008054600160a01b900460ff1660028111156109535761095361295c565b146109a05760405162461bcd60e51b815260206004820152601760248201527f53616c6520697320696e206163746976652073746174650000000000000000006044820152606401610809565b6109aa6001611427565b6040517fd029c7c68d943f92286a7825fa6aa2deefa1eee46cee6c91b7e483fd06d27baf90600090a1565b600560006109e161244a565b6001600160a01b0316815260208101919091526040016000205460ff1615610a405760405162461bcd60e51b815260206004820152601260248201527113919508185b1c9958591e481b5a5b9d195960721b6044820152606401610809565b610a4861244a565b601254604051639d9ca28d60e01b81526001600160a01b03838116600483015290911690639d9ca28d90602401602060405180830381865afa158015610a92573d6000803e3d6000fd5b505050506040513d601f19601f82011682018060405250810190610ab69190612a58565b15610ad35760405162461bcd60e51b815260040161080990612a7a565b610ade61063d61244a565b610b235760405162461bcd60e51b815260206004820152601660248201527521b0b63632b91034b9903737ba1030903bb4b73732b960511b6044820152606401610809565b600160056000610b3161244a565b6001600160a01b0316815260208101919091526040016000908120805460ff191692151592909217909155600354600682610b6a61244a565b6001600160a01b03166001600160a01b0316815260200190815260200160002054610b959190612ad8565b90508015610c2957600b546001600160a01b031663a9059cbb610bb661244a565b6040516001600160e01b031960e084901b1681526001600160a01b039091166004820152602481018490526044016020604051808303816000875af1158015610c03573d6000803e3d6000fd5b505050506040513d601f19601f82011682018060405250810190610c279190612a58565b505b600060066000610c3761244a565b6001600160a01b039081168252602082019290925260400160002091909155600a5416636b8f60f6610c6761244a565b6040516001600160e01b031960e084901b1681526001600160a01b039091166004820152602401600060405180830381600087803b158015610ca857600080fd5b505af1158015610cbc573d6000803e3d6000fd5b505050505050565b6015546001600160a01b03821660009081526013602052604081205490918291606491610cf091612af1565b610cfa9190612b1e565b6001600160a01b038416600090815260136020526040902054610d1d9190612ad8565b6015546001600160a01b03851660009081526013602052604081205492935091606491610d4991612af1565b610d539190612b1e565b6001600160a01b038516600090815260136020526040902054610d769190612b32565b905060008260115410158015610d8e57508160115411155b6003546001600160a01b03871660009081526006602052604090205491925011801590610db85750805b15610dc857506001949350505050565b506000949350505050565b610ddb612459565b600a80546001600160a01b0319166001600160a01b0392909216919091179055565b6000610e0882610cc4565b8015610e2d57506001600160a01b03821660009081526007602052604090205460ff16155b15610ec3576001600160a01b038216600081815260076020526040808220805460ff1916600190811790915560088054918201815583527ff3f7a9fe364faab93b216da50a3214154f22a0a2b415b23a84c8169e8b636ee30180546001600160a01b03191684179055517f1d4c260f1824cd028e6c9e6e31c3a0b94f2513e7a641113ec759d382f9bdd5a19190a2506001919050565b506000919050565b919050565b610ed861244a565b6012546001600160a01b03908116911614610f455760405162461bcd60e51b815260206004820152602760248201527f4f6e6c792077686974656c6973746564206d61792063616c6c207468697320666044820152663ab731ba34b7b760c91b6064820152608401610809565b6001600160a01b0382166000908152600660205260408120549003610ff15760098054600181019091557f6e1540171b6c0c960b71a7020d9f60077f6af931a8bbf590da0223dacf75c7af0180546001600160a01b0319166001600160a01b0384169081179091556000908152601360205260408120549003610ff157604080516001600160a01b0384166020820152610fef91015b6040516020818303038152906040526124b7565b505b6001600160a01b03821660009081526006602052604081208054839290611019908490612b32565b90915550505050565b6002546001600160a01b031661103661244a565b6001600160a01b03161461105c5760405162461bcd60e51b815260040161080990612a16565b601455565b600e5460ff16156110aa5760405162461bcd60e51b8152602060048201526013602482015272105b1c9958591e481a5b9a5d1a585b1a5e9959606a1b6044820152606401610809565b6020810151600280546001600160a01b039283166001600160a01b03199091161790558151600e80549190921661010002610100600160a81b031990911617905560408101516110f9906125ba565b6060810151600455608081015160035560a0810151600b80546001600160a01b039283166001600160a01b03199182161790915560c08301516001805491841691831691909117815560e09093015160128054919093169116179055600e805460ff19169091179055565b606060098054806020026020016040519081016040528092919081815260200182805480156111bc57602002820191906000526020600020905b81546001600160a01b0316815260019091019060200180831161119e575b5050505050905090565b6111ce612459565b600180546001600160a01b0319166001600160a01b0392909216919091179055565b6002546001600160a01b031661120461244a565b6001600160a01b03161461122a5760405162461bcd60e51b815260040161080990612a16565b6002600054600160a01b900460ff16600281111561124a5761124a61295c565b1461128b5760405162461bcd60e51b8152602060048201526011602482015270131bdd1d195c9e481b9bdd08195b991959607a1b6044820152606401610809565b6000805b600854811015611304576000600882815481106112ae576112ae612b45565b60009182526020808320909101546001600160a01b031680835260069091526040909120549091506112e09084612b32565b6001600160a01b03909116600090815260066020526040812055915060010161128f565b5060006064611314836005612af1565b61131e9190612b1e565b9050600061132c8284612ad8565b600b5460015460405163a9059cbb60e01b81526001600160a01b03918216600482015260248101869052929350169063a9059cbb906044016020604051808303816000875af1158015611383573d6000803e3d6000fd5b505050506040513d601f19601f820116820180604052508101906113a79190612a58565b50600b5460025460405163a9059cbb60e01b81526001600160a01b0391821660048201526024810184905291169063a9059cbb906044016020604051808303816000875af11580156113fd573d6000803e3d6000fd5b505050506040513d601f19601f820116820180604052508101906114219190612a58565b50505050565b6002546001600160a01b031661143b61244a565b6001600160a01b0316146114615760405162461bcd60e51b815260040161080990612a16565b6000805482919060ff60a01b1916600160a01b8360028111156114865761148661295c565b021790555050565b611496612459565b6114a060006125ba565b565b600c81815481106114b257600080fd5b9060005260206000209060209182820401919006915054906101000a900460ff1681565b6002600054600160a01b900460ff1660028111156114f6576114f661295c565b1461153b5760405162461bcd60e51b815260206004820152601560248201527414d85b19481a5cc81b9bdd08195b991959081e595d605a1b6044820152606401610809565b6007600061154761244a565b6001600160a01b0316815260208101919091526040016000205460ff16156115b15760405162461bcd60e51b815260206004820152601760248201527f57696e6e6572732063616e6e6f742077697468647261770000000000000000006044820152606401610809565b6000600660006115bf61244a565b6001600160a01b03166001600160a01b03168152602001908152602001600020549050600081116116295760405162461bcd60e51b81526020600482015260146024820152734e6f2066756e647320746f20776974686472617760601b6044820152606401610809565b60006006600061163761244a565b6001600160a01b039081168252602082019290925260400160002091909155600b541663a9059cbb61166761244a565b6040516001600160e01b031960e084901b1681526001600160a01b039091166004820152602481018490526044016020604051808303816000875af11580156116b4573d6000803e3d6000fd5b505050506040513d601f19601f820116820180604052508101906116d89190612a58565b5050565b6116e4612459565b600b80546001600160a01b0319166001600160a01b0392909216919091179055565b6002546001600160a01b031661171a61244a565b6001600160a01b0316146117405760405162461bcd60e51b815260040161080990612a16565b601154156117905760405162461bcd60e51b815260206004820152601960248201527f52616e646f6d206e756d62657220616c726561647920736574000000000000006044820152606401610809565b61179861205f565b601155565b6002546001600160a01b03166117b161244a565b6001600160a01b0316146117d75760405162461bcd60e51b815260040161080990612a16565b6000811161183b5760405162461bcd60e51b815260206004820152602b60248201527f4e756d626572206f66207469636b657473206d7573742062652067726561746560448201526a72207468616e207a65726f60a81b6064820152608401610809565b6004819055600f556000601055565b6002546001600160a01b031661185e61244a565b6001600160a01b0316146118845760405162461bcd60e51b815260040161080990612a16565b600355565b600e5461010090046001600160a01b03166001600160a01b0316336001600160a01b0316146118ea5760405162461bcd60e51b815260206004820152600d60248201526c37b7363c9037b832b930ba37b960991b6044820152606401610809565b60006118f882840184612b83565b915050600080828060200190518101906119129190612c31565b9150915060008585604051611928929190612cb4565b604051809103902090506000600d60008581526020019081526020016000205482149050600c848154811061195f5761195f612b45565b90600052602060002090602091828204019190069054906101000a900460ff166119cb5760405162461bcd60e51b815260206004820152601c60248201527f726571756573742066756c66696c6c6564206f72206d697373696e67000000006044820152606401610809565b8015611a705760408051602081018a905230918101919091524660608201526080810185905260a0016040516020818303038152906040528051906020012060001c9750611a1a88858561260a565b6000600c8581548110611a2f57611a2f612b45565b90600052602060002090602091828204019190066101000a81548160ff021916908315150217905550600d6000858152602001908152602001600020600090555b5050505050505050565b6001600054600160a01b900460ff166002811115611a9a57611a9a61295c565b14611adc5760405162461bcd60e51b815260206004820152601260248201527153616c65206973206e6f742061637469766560701b6044820152606401610809565b611ae461244a565b601254604051639d9ca28d60e01b81526001600160a01b03838116600483015290911690639d9ca28d90602401602060405180830381865afa158015611b2e573d6000803e3d6000fd5b505050506040513d601f19601f82011682018060405250810190611b529190612a58565b15611b6f5760405162461bcd60e51b815260040161080990612a7a565b600b546001600160a01b0316611bc75760405162461bcd60e51b815260206004820152601d60248201527f5553444320636f6e74726163742061646472657373206e6f74207365740000006044820152606401610809565b601454821015611c115760405162461bcd60e51b8152602060048201526015602482015274139bdd08195b9bdd59da08199d5b991cc81cd95b9d605a1b6044820152606401610809565b600b5482906001600160a01b031663dd62ed3e611c2c61244a565b6040516001600160e01b031960e084901b1681526001600160a01b039091166004820152306024820152604401602060405180830381865afa158015611c76573d6000803e3d6000fd5b505050506040513d601f19601f82011682018060405250810190611c9a9190612cc4565b1015611ce15760405162461bcd60e51b8152602060048201526016602482015275496e73756666696369656e7420616c6c6f77616e636560501b6044820152606401610809565b600b546001600160a01b03166323b872dd611cfa61244a565b6040516001600160e01b031960e084901b1681526001600160a01b039091166004820152306024820152604481018590526064016020604051808303816000875af1158015611d4d573d6000803e3d6000fd5b505050506040513d601f19601f82011682018060405250810190611d719190612a58565b5060066000611d7e61244a565b6001600160a01b03166001600160a01b0316815260200190815260200160002054600003611e77576009611db061244a565b81546001810183556000928352602083200180546001600160a01b0319166001600160a01b0392909216919091179055601390611deb61244a565b6001600160a01b03166001600160a01b0316815260200190815260200160002054600003611e7757611e38611e1e61244a565b604080516001600160a01b03909216602083015201610fdb565b50611e4161244a565b6001600160a01b03167fd802e7c7f1646e3318c03abed1e468bdf913f45331a68dc912a0d645eb646a4260405160405180910390a25b8160066000611e8461244a565b6001600160a01b03166001600160a01b0316815260200190815260200160002060008282546110199190612b32565b6001600054600160a01b900460ff166002811115611ed357611ed361295c565b14611f155760405162461bcd60e51b815260206004820152601260248201527153616c65206973206e6f742061637469766560701b6044820152606401610809565b600060145411611f5b5760405162461bcd60e51b8152602060048201526011602482015270139bc81c9bdb1b081c1c9a58d9481cd95d607a1b6044820152606401610809565b600354601454611f6b9190612b32565b60066000611f7761244a565b6001600160a01b03166001600160a01b03168152602001908152602001600020541015611fdb5760405162461bcd60e51b8152602060048201526012602482015271496e73756666696369656e742066756e647360701b6044820152606401610809565b60145460066000611fea61244a565b6001600160a01b03166001600160a01b0316815260200190815260200160002060008282546120199190612ad8565b90915550506014546002546001600160a01b03166000908152600660205260408120805490919061204b908490612b32565b9091555061205c9050611e1e61244a565b50565b6000424461206b61244a565b6040805160208101949094528301919091526bffffffffffffffffffffffff19606091821b16908201526074016040516020818303038152906040528051906020012060001c905090565b606060088054806020026020016040519081016040528092919081815260200182805480156111bc576020028201919060005260206000209081546001600160a01b0316815260019091019060200180831161119e575050505050905090565b6002546001600160a01b031661212a61244a565b6001600160a01b0316146121505760405162461bcd60e51b815260040161080990612a16565b60005b6009548110156116d85761219b6009828154811061217357612173612b45565b60009182526020808320909101546001600160a01b0316825260079052604090205460ff1690565b61232657600060066000600984815481106121b8576121b8612b45565b60009182526020808320909101546001600160a01b0316835282019290925260400181205460098054919350600691839190869081106121fa576121fa612b45565b6000918252602080832091909101546001600160a01b039081168452908301939093526040918201902092909255600b54915163a9059cbb60e01b815285821660048201526024810184905291169063a9059cbb906044016020604051808303816000875af1158015612271573d6000803e3d6000fd5b505050506040513d601f19601f820116820180604052508101906122959190612a58565b50826001600160a01b03166350f3dbec600984815481106122b8576122b8612b45565b60009182526020909120015460405160e083901b6001600160e01b03191681526001600160a01b03909116600482015260248101849052604401600060405180830381600087803b15801561230c57600080fd5b505af1158015612320573d6000803e3d6000fd5b50505050505b600101612153565b6002546001600160a01b031661234261244a565b6001600160a01b0316146123685760405162461bcd60e51b815260040161080990612a16565b600280546001600160a01b0319166001600160a01b0392909216919091179055565b612392612459565b6001600160a01b0381166123bc57604051631e4fbdf760e01b815260006004820152602401610809565b61205c816125ba565b6002546001600160a01b03166123d961244a565b6001600160a01b0316146123ff5760405162461bcd60e51b815260040161080990612a16565b61240a611e1e61244a565b5061241361244a565b6001600160a01b03167fd802e7c7f1646e3318c03abed1e468bdf913f45331a68dc912a0d645eb646a4260405160405180910390a2565b60006124546126c7565b905090565b61246161244a565b6001600160a01b031661247c6000546001600160a01b031690565b6001600160a01b0316146114a05761249261244a565b60405163118cdaa760e01b81526001600160a01b039091166004820152602401610809565b600c80546001808201808455600084905291929091839081106124dc576124dc612b45565b90600052602060002090602091828204019190066101000a81548160ff0219169083151502179055506000818360405160200161251a929190612cdd565b6040516020818303038152906040529050600061253561270b565b90506000818360405160200161254c929190612cdd565b60408051601f1981840301815282825280516020808301919091206000898152600d9092529290208290559250907fd91fc3685b930310b008ec37d2334870cab88a023ed8cc628a2e2ccd4e55d202906125a99085908790612cdd565b60405180910390a150505050919050565b600080546001600160a01b038381166001600160a01b0319831681178455604051919092169283917f8be0079c531659141344cd1fd0a4f28419497f9722a3daafe3b4186f6b6457e09190a35050565b6000818060200190518101906126209190612d17565b90506000612634655af3107a400086612d34565b6002549091506001600160a01b039081169083160361265757601181905561267d565b6001600160a01b038216600090815260136020526040902081905561267b82610dfd565b505b816001600160a01b03167f85e7483164122a78ca40e7f10b414e6f78c7d47abdae87716e0fb3491290c6ec826040516126b891815260200190565b60405180910390a25050505050565b60007f00000000000000000000000000000000000000000000000000000000000000006001600160a01b03163303612706575060131936013560601c90565b503390565b60008061271c6364e6212742612ad8565b9050600061272b600383612b1e565b612736906001612b32565b9050466001146127505761274b816001612b32565b61275b565b61275b816004612b32565b9250505090565b60006020828403121561277457600080fd5b5035919050565b6001600160a01b038116811461205c57600080fd5b8035610ecb8161277b565b6000602082840312156127ad57600080fd5b81356127b88161277b565b9392505050565b600080604083850312156127d257600080fd5b82356127dd8161277b565b946020939093013593505050565b634e487b7160e01b600052604160045260246000fd5b604051601f8201601f1916810167ffffffffffffffff8111828210171561282a5761282a6127eb565b604052919050565b600061010080838503121561284657600080fd5b6040519081019067ffffffffffffffff82118183101715612869576128696127eb565b816040528335915061287a8261277b565b81815261288960208501612790565b602082015261289a60408501612790565b604082015260608401356060820152608084013560808201526128bf60a08501612790565b60a08201526128d060c08501612790565b60c08201526128e160e08501612790565b60e0820152949350505050565b6020808252825182820181905260009190848201906040850190845b8181101561292f5783516001600160a01b03168352928401929184019160010161290a565b50909695505050505050565b60006020828403121561294d57600080fd5b8135600381106127b857600080fd5b634e487b7160e01b600052602160045260246000fd5b602081016003831061299457634e487b7160e01b600052602160045260246000fd5b91905290565b6000806000604084860312156129af57600080fd5b83359250602084013567ffffffffffffffff808211156129ce57600080fd5b818601915086601f8301126129e257600080fd5b8135818111156129f157600080fd5b876020828501011115612a0357600080fd5b6020830194508093505050509250925092565b60208082526022908201527f4f6e6c792073656c6c65722063616e2063616c6c20746869732066756e63746960408201526137b760f11b606082015260800190565b600060208284031215612a6a57600080fd5b815180151581146127b857600080fd5b60208082526028908201527f5061727469636970616e742068617320616c726561647920776f6e20696e204c6040820152676f7474657279563160c01b606082015260800190565b634e487b7160e01b600052601160045260246000fd5b81810381811115612aeb57612aeb612ac2565b92915050565b8082028115828204841417612aeb57612aeb612ac2565b634e487b7160e01b600052601260045260246000fd5b600082612b2d57612b2d612b08565b500490565b80820180821115612aeb57612aeb612ac2565b634e487b7160e01b600052603260045260246000fd5b600067ffffffffffffffff821115612b7557612b756127eb565b50601f01601f191660200190565b60008060408385031215612b9657600080fd5b82359150602083013567ffffffffffffffff811115612bb457600080fd5b8301601f81018513612bc557600080fd5b8035612bd8612bd382612b5b565b612801565b818152866020838501011115612bed57600080fd5b816020840160208301376000602083830101528093505050509250929050565b60005b83811015612c28578181015183820152602001612c10565b50506000910152565b60008060408385031215612c4457600080fd5b82519150602083015167ffffffffffffffff811115612c6257600080fd5b8301601f81018513612c7357600080fd5b8051612c81612bd382612b5b565b818152866020838501011115612c9657600080fd5b612ca7826020830160208601612c0d565b8093505050509250929050565b8183823760009101908152919050565b600060208284031215612cd657600080fd5b5051919050565b8281526040602082015260008251806040840152612d02816060850160208701612c0d565b601f01601f1916919091016060019392505050565b600060208284031215612d2957600080fd5b81516127b88161277b565b600082612d4357612d43612b08565b50069056fea26469706673582212207e03eb44abc4f967af6d40b991adead8fc83023d9d67482ca148f7ca9884f13a64736f6c63430008190033","linkReferences":{}},"methodIdentifiers":{"buyerWithdraw()":"7cc947d0","changeLotteryState(uint8)":"683e93e1","claimNumber(address)":"3dc204e7","deposit(uint256)":"b6b55f25","deposits(address)":"fc7e286d","endLottery()":"1593a8c7","fulfillRandomness(uint256,bytes)":"b3f6b99a","getDepositedAmount(address)":"e9081ec7","getParticipants()":"5aa68ac0","getRandomNumber()":"dbdff2c1","getWinners()":"df15c37e","hasMinted(address)":"38e21cce","initialize((address,address,address,uint256,uint256,address,address,address))":"5a6838c5","initialized()":"158ef93e","isClaimable(address)":"292fec04","isTrustedForwarder(address)":"572b6c05","isWinner(address)":"9d9ca28d","lotteryState()":"6939864b","lotteryV1Addr()":"5f86e4fe","maxMints()":"b6b6f0c3","minimumDepositAmount()":"080c279a","mintCount()":"9659867e","mintMyNFT()":"26170480","multisigWalletAddress()":"a61fb2ba","nftContractAddr()":"2c23ec8e","numberOfTickets()":"45745c10","operatorAddr()":"f3f18c37","owner()":"8da5cb5b","randomNumber()":"ccbac9f5","renounceOwnership()":"715018a6","requestPending(uint256)":"75ce7fff","requestRandomness()":"f8413b07","requestedHash(uint256)":"c4f8f27b","roll()":"cd5e3c5d","rollPrice()":"cf3af3a1","rollTolerance()":"bf1dda15","rolledNumbers(address)":"7b15452d","seller()":"08551a53","sellerWithdraw()":"66af746b","setMinimumDepositAmount(uint256)":"aab483d6","setMultisigWalletAddress(address)":"60d50da3","setNftContractAddr(address)":"3644c27c","setNumberOfTickets(uint256)":"99bd69d6","setRandomNumber()":"97fedfcb","setRollPrice(uint256)":"5687156e","setRollTolerance(uint256)":"12f0800b","setSeller(address)":"e99d2866","setUsdcContractAddr(address)":"94d898de","startLottery()":"160344e2","transferDeposit(address,uint256)":"50f3dbec","transferNonWinnerDeposits(address)":"e63c4609","transferOwnership(address)":"f2fde38b","usdcContractAddr()":"99dbf4b5","winnerAddresses(uint256)":"045f9c97","winners(address)":"6bd5450a"},"id":5}