{"abi":[{"type":"function","name":"buyerWithdraw","inputs":[],"outputs":[],"stateMutability":"nonpayable"},{"type":"function","name":"changeLotteryState","inputs":[{"name":"_newState","type":"uint8","internalType":"enum LotteryV1Base.LotteryState"}],"outputs":[],"stateMutability":"nonpayable"},{"type":"function","name":"deposit","inputs":[{"name":"amount","type":"uint256","internalType":"uint256"}],"outputs":[],"stateMutability":"payable"},{"type":"function","name":"deposits","inputs":[{"name":"","type":"address","internalType":"address"}],"outputs":[{"name":"","type":"uint256","internalType":"uint256"}],"stateMutability":"view"},{"type":"function","name":"endLottery","inputs":[],"outputs":[],"stateMutability":"nonpayable"},{"type":"function","name":"factoryAddress","inputs":[],"outputs":[{"name":"","type":"address","internalType":"address"}],"stateMutability":"view"},{"type":"function","name":"factorySaleIndex","inputs":[],"outputs":[{"name":"","type":"uint256","internalType":"uint256"}],"stateMutability":"view"},{"type":"function","name":"fulfillRandomness","inputs":[{"name":"randomness","type":"uint256","internalType":"uint256"},{"name":"dataWithRound","type":"bytes","internalType":"bytes"}],"outputs":[],"stateMutability":"nonpayable"},{"type":"function","name":"getDepositedAmount","inputs":[{"name":"participant","type":"address","internalType":"address"}],"outputs":[{"name":"","type":"uint256","internalType":"uint256"}],"stateMutability":"view"},{"type":"function","name":"getEligibleParticipants","inputs":[],"outputs":[{"name":"","type":"address[]","internalType":"address[]"}],"stateMutability":"view"},{"type":"function","name":"getParticipants","inputs":[],"outputs":[{"name":"","type":"address[]","internalType":"address[]"}],"stateMutability":"view"},{"type":"function","name":"getWinners","inputs":[],"outputs":[{"name":"","type":"address[]","internalType":"address[]"}],"stateMutability":"view"},{"type":"function","name":"hasMinted","inputs":[{"name":"","type":"address","internalType":"address"}],"outputs":[{"name":"","type":"bool","internalType":"bool"}],"stateMutability":"view"},{"type":"function","name":"initialize","inputs":[{"name":"config","type":"tuple","internalType":"struct StructsLibrary.ILotteryBaseConfig","components":[{"name":"_seller","type":"address","internalType":"address"},{"name":"_gelatoVrfOperator","type":"address","internalType":"address"},{"name":"_blessedOperator","type":"address","internalType":"address"},{"name":"_owner","type":"address","internalType":"address"},{"name":"_ticketAmount","type":"uint256","internalType":"uint256"},{"name":"_ticketPrice","type":"uint256","internalType":"uint256"},{"name":"_usdcContractAddr","type":"address","internalType":"address"},{"name":"_multisigWalletAddress","type":"address","internalType":"address"},{"name":"_prevPhaseContractAddr","type":"address","internalType":"address"}]}],"outputs":[],"stateMutability":"nonpayable"},{"type":"function","name":"initialized","inputs":[],"outputs":[{"name":"","type":"bool","internalType":"bool"}],"stateMutability":"view"},{"type":"function","name":"isParticipantEligible","inputs":[{"name":"participant","type":"address","internalType":"address"}],"outputs":[{"name":"","type":"bool","internalType":"bool"}],"stateMutability":"view"},{"type":"function","name":"isTrustedForwarder","inputs":[{"name":"forwarder","type":"address","internalType":"address"}],"outputs":[{"name":"","type":"bool","internalType":"bool"}],"stateMutability":"view"},{"type":"function","name":"isWinner","inputs":[{"name":"_participant","type":"address","internalType":"address"}],"outputs":[{"name":"","type":"bool","internalType":"bool"}],"stateMutability":"view"},{"type":"function","name":"lotteryState","inputs":[],"outputs":[{"name":"","type":"uint8","internalType":"enum LotteryV1Base.LotteryState"}],"stateMutability":"view"},{"type":"function","name":"minimumDepositAmount","inputs":[],"outputs":[{"name":"","type":"uint256","internalType":"uint256"}],"stateMutability":"view"},{"type":"function","name":"mintMyNFT","inputs":[],"outputs":[],"stateMutability":"nonpayable"},{"type":"function","name":"multisigWalletAddress","inputs":[],"outputs":[{"name":"","type":"address","internalType":"address"}],"stateMutability":"view"},{"type":"function","name":"nftContractAddr","inputs":[],"outputs":[{"name":"","type":"address","internalType":"address"}],"stateMutability":"view"},{"type":"function","name":"numberOfTickets","inputs":[],"outputs":[{"name":"","type":"uint256","internalType":"uint256"}],"stateMutability":"view"},{"type":"function","name":"operatorAddr","inputs":[],"outputs":[{"name":"","type":"address","internalType":"address"}],"stateMutability":"view"},{"type":"function","name":"owner","inputs":[],"outputs":[{"name":"","type":"address","internalType":"address"}],"stateMutability":"view"},{"type":"function","name":"randomNumber","inputs":[],"outputs":[{"name":"","type":"uint256","internalType":"uint256"}],"stateMutability":"view"},{"type":"function","name":"renounceOwnership","inputs":[],"outputs":[],"stateMutability":"nonpayable"},{"type":"function","name":"requestPending","inputs":[{"name":"","type":"uint256","internalType":"uint256"}],"outputs":[{"name":"","type":"bool","internalType":"bool"}],"stateMutability":"view"},{"type":"function","name":"requestRandomness","inputs":[],"outputs":[],"stateMutability":"nonpayable"},{"type":"function","name":"requestedHash","inputs":[{"name":"","type":"uint256","internalType":"uint256"}],"outputs":[{"name":"","type":"bytes32","internalType":"bytes32"}],"stateMutability":"view"},{"type":"function","name":"selectWinners","inputs":[],"outputs":[],"stateMutability":"nonpayable"},{"type":"function","name":"seller","inputs":[],"outputs":[{"name":"","type":"address","internalType":"address"}],"stateMutability":"view"},{"type":"function","name":"sellerWithdraw","inputs":[],"outputs":[],"stateMutability":"nonpayable"},{"type":"function","name":"setMinimumDepositAmount","inputs":[{"name":"_amount","type":"uint256","internalType":"uint256"}],"outputs":[],"stateMutability":"nonpayable"},{"type":"function","name":"setMultisigWalletAddress","inputs":[{"name":"_multisigWalletAddress","type":"address","internalType":"address"}],"outputs":[],"stateMutability":"nonpayable"},{"type":"function","name":"setNftContractAddr","inputs":[{"name":"_nftContractAddr","type":"address","internalType":"address"}],"outputs":[],"stateMutability":"nonpayable"},{"type":"function","name":"setNumberOfTickets","inputs":[{"name":"_numberOfTickets","type":"uint256","internalType":"uint256"}],"outputs":[],"stateMutability":"nonpayable"},{"type":"function","name":"setSeller","inputs":[{"name":"_seller","type":"address","internalType":"address"}],"outputs":[],"stateMutability":"nonpayable"},{"type":"function","name":"setUsdcContractAddr","inputs":[{"name":"_usdcContractAddr","type":"address","internalType":"address"}],"outputs":[],"stateMutability":"nonpayable"},{"type":"function","name":"startLottery","inputs":[],"outputs":[],"stateMutability":"nonpayable"},{"type":"function","name":"transferNonWinnerDeposits","inputs":[{"name":"lotteryV2addr","type":"address","internalType":"address"}],"outputs":[],"stateMutability":"nonpayable"},{"type":"function","name":"transferOwnership","inputs":[{"name":"newOwner","type":"address","internalType":"address"}],"outputs":[],"stateMutability":"nonpayable"},{"type":"function","name":"usdcContractAddr","inputs":[],"outputs":[{"name":"","type":"address","internalType":"address"}],"stateMutability":"view"},{"type":"function","name":"winnerAddresses","inputs":[{"name":"","type":"uint256","internalType":"uint256"}],"outputs":[{"name":"","type":"address","internalType":"address"}],"stateMutability":"view"},{"type":"function","name":"winners","inputs":[{"name":"","type":"address","internalType":"address"}],"outputs":[{"name":"","type":"bool","internalType":"bool"}],"stateMutability":"view"},{"type":"event","name":"LotteryEnded","inputs":[],"anonymous":false},{"type":"event","name":"LotteryStarted","inputs":[],"anonymous":false},{"type":"event","name":"OwnershipTransferred","inputs":[{"name":"previousOwner","type":"address","indexed":true,"internalType":"address"},{"name":"newOwner","type":"address","indexed":true,"internalType":"address"}],"anonymous":false},{"type":"event","name":"RandomFullfiled","inputs":[{"name":"number","type":"uint256","indexed":false,"internalType":"uint256"}],"anonymous":false},{"type":"event","name":"RandomRequested","inputs":[{"name":"requester","type":"address","indexed":true,"internalType":"address"}],"anonymous":false},{"type":"event","name":"RequestedRandomness","inputs":[{"name":"round","type":"uint256","indexed":false,"internalType":"uint256"},{"name":"data","type":"bytes","indexed":false,"internalType":"bytes"}],"anonymous":false},{"type":"event","name":"WinnerSelected","inputs":[{"name":"winner","type":"address","indexed":true,"internalType":"address"}],"anonymous":false},{"type":"error","name":"OwnableInvalidOwner","inputs":[{"name":"owner","type":"address","internalType":"address"}]},{"type":"error","name":"OwnableUnauthorizedAccount","inputs":[{"name":"account","type":"address","internalType":"address"}]}],"bytecode":{"object":"0x60a06040526002805460ff60a01b1916905534801561001d57600080fd5b5073d8253782c45a12053594b9deb72d8e8ab2fca54c338061005957604051631e4fbdf760e01b81526000600482015260240160405180910390fd5b61006281610074565b506001600160a01b03166080526100c6565b600280546001600160a01b038381166001600160a01b0319831681179093556040519116919082907f8be0079c531659141344cd1fd0a4f28419497f9722a3daafe3b4186f6b6457e090600090a35050565b608051612b526100e86000396000818161042d01526124bf0152612b526000f3fe60806040526004361061027d5760003560e01c80638da5cb5b1161014f578063c4f8f27b116100c1578063e9081ec71161007a578063e9081ec7146107a9578063e99d2866146107df578063f2fde38b146107ff578063f3f18c371461081f578063f8413b071461083f578063fc7e286d1461085457600080fd5b8063c4f8f27b146106fb578063ccbac9f514610728578063cf54d3b81461073e578063df15c37e1461075e578063e276df9714610773578063e63c46091461078957600080fd5b80639abdccd1116101135780639abdccd11461063a5780639d9ca28d1461064f578063a61fb2ba14610688578063aab483d6146106a8578063b3f6b99a146106c8578063b6b55f25146106e857600080fd5b80638da5cb5b1461059c57806394d898de146105ba578063966dae0e146105da57806399bd69d6146105fa57806399dbf4b51461061a57600080fd5b806345745c10116101f35780636939864b116101ac5780636939864b146104d45780636bd5450a14610502578063715018a61461053257806375ce7fff146105475780637cc947d0146105675780638a6723e61461057c57600080fd5b806345745c10146103fa578063572b6c05146104105780635aa68ac01461045d57806360d50da31461047f57806366af746b1461049f578063683e93e1146104b457600080fd5b8063160344e211610245578063160344e21461034b5780631a0de74c1461036057806326170480146103755780632c23ec8e1461038a5780633644c27c146103aa57806338e21cce146103ca57600080fd5b8063045f9c9714610282578063080c279a146102bf57806308551a53146102e3578063158ef93e146103035780631593a8c714610334575b600080fd5b34801561028e57600080fd5b506102a261029d366004612588565b610881565b6040516001600160a01b0390911681526020015b60405180910390f35b3480156102cb57600080fd5b506102d560085481565b6040519081526020016102b6565b3480156102ef57600080fd5b506006546102a2906001600160a01b031681565b34801561030f57600080fd5b5060025461032490600160a01b900460ff1681565b60405190151581526020016102b6565b34801561034057600080fd5b506103496108ab565b005b34801561035757600080fd5b506103496108fa565b34801561036c57600080fd5b506103496109ab565b34801561038157600080fd5b50610349610e55565b34801561039657600080fd5b506011546102a2906001600160a01b031681565b3480156103b657600080fd5b506103496103c53660046125bd565b611022565b3480156103d657600080fd5b506103246103e53660046125bd565b600c6020526000908152604090205460ff1681565b34801561040657600080fd5b506102d560095481565b34801561041c57600080fd5b5061032461042b3660046125bd565b7f00000000000000000000000000000000000000000000000000000000000000006001600160a01b0390811691161490565b34801561046957600080fd5b5061047261104c565b6040516102b691906125df565b34801561048b57600080fd5b5061034961049a3660046125bd565b6110ae565b3480156104ab57600080fd5b506103496110d8565b3480156104c057600080fd5b506103496104cf36600461262c565b611309565b3480156104e057600080fd5b506004546104f590600160a01b900460ff1681565b6040516102b69190612663565b34801561050e57600080fd5b5061032461051d3660046125bd565b600e6020526000908152604090205460ff1681565b34801561053e57600080fd5b5061034961136f565b34801561055357600080fd5b50610324610562366004612588565b611381565b34801561057357600080fd5b506103496113b5565b34801561058857600080fd5b506103246105973660046125bd565b6115c3565b3480156105a857600080fd5b506002546001600160a01b03166102a2565b3480156105c657600080fd5b506103496105d53660046125bd565b611622565b3480156105e657600080fd5b506004546102a2906001600160a01b031681565b34801561060657600080fd5b50610349610615366004612588565b61164c565b34801561062657600080fd5b506012546102a2906001600160a01b031681565b34801561064657600080fd5b506104726116ef565b34801561065b57600080fd5b5061032461066a3660046125bd565b6001600160a01b03166000908152600e602052604090205460ff1690565b34801561069457600080fd5b506005546102a2906001600160a01b031681565b3480156106b457600080fd5b506103496106c3366004612588565b61174f565b3480156106d457600080fd5b506103496106e336600461268b565b61178e565b6103496106f6366004612588565b611962565b34801561070757600080fd5b506102d5610716366004612588565b60016020526000908152604090205481565b34801561073457600080fd5b506102d5600a5481565b34801561074a57600080fd5b50610349610759366004612778565b611c75565b34801561076a57600080fd5b50610472611d66565b34801561077f57600080fd5b506102d560035481565b34801561079557600080fd5b506103496107a43660046125bd565b611dc6565b3480156107b557600080fd5b506102d56107c43660046125bd565b6001600160a01b03166000908152600d602052604090205490565b3480156107eb57600080fd5b506103496107fa3660046125bd565b61205f565b34801561080b57600080fd5b5061034961081a3660046125bd565b6120bb565b34801561082b57600080fd5b506007546102a2906001600160a01b031681565b34801561084b57600080fd5b506103496120f9565b34801561086057600080fd5b506102d561086f3660046125bd565b600d6020526000908152604090205481565b600f818154811061089157600080fd5b6000918252602090912001546001600160a01b0316905081565b6006546001600160a01b03166108bf6121a7565b6001600160a01b0316146108ee5760405162461bcd60e51b81526004016108e590612820565b60405180910390fd5b6108f86002611309565b565b6006546001600160a01b031661090e6121a7565b6001600160a01b0316146109345760405162461bcd60e51b81526004016108e590612820565b600060048054600160a01b900460ff16908111156109545761095461264d565b146109a15760405162461bcd60e51b815260206004820152601a60248201527f4c6f747465727920697320696e2061637469766520737461746500000000000060448201526064016108e5565b6108f86001611309565b6006546001600160a01b03166109bf6121a7565b6001600160a01b0316146109e55760405162461bcd60e51b81526004016108e590612820565b600160048054600160a01b900460ff1690811115610a0557610a0561264d565b14610a4a5760405162461bcd60e51b81526020600482015260156024820152744c6f7474657279206973206e6f742061637469766560581b60448201526064016108e5565b600060095411610a9c5760405162461bcd60e51b815260206004820152601b60248201527f4e6f207469636b657473206c65667420746f20616c6c6f63617465000000000060448201526064016108e5565b600b5460095410610b645760005b600b54811015610b4d576000600b8281548110610ac957610ac9612862565b6000918252602090912001546001600160a01b03169050610b02816001600160a01b03166000908152600e602052604090205460ff1690565b610b4457610b0f816121b6565b6040516001600160a01b038216907f1d4c260f1824cd028e6c9e6e31c3a0b94f2513e7a641113ec759d382f9bdd5a190600090a25b50600101610aaa565b50610b5a600b6000612556565b6000600955610e0d565b610b6c61221c565b60005b600b54811015610c8757600b54600090610b8a90839061288e565b600a54610b9791906128bd565b610ba190836128d1565b90506000600b8281548110610bb857610bb8612862565b600091825260209091200154600b80546001600160a01b0390921692509084908110610be657610be6612862565b600091825260209091200154600b80546001600160a01b039092169184908110610c1257610c12612862565b9060005260206000200160006101000a8154816001600160a01b0302191690836001600160a01b0316021790555080600b8481548110610c5457610c54612862565b600091825260209091200180546001600160a01b0319166001600160a01b03929092169190911790555050600101610b6f565b5060005b600954811015610d2e576000600b8281548110610caa57610caa612862565b6000918252602090912001546001600160a01b03169050610ce3816001600160a01b03166000908152600e602052604090205460ff1690565b610d2557610cf0816121b6565b6040516001600160a01b038216907f1d4c260f1824cd028e6c9e6e31c3a0b94f2513e7a641113ec759d382f9bdd5a190600090a25b50600101610c8b565b506009546000905b600b54811015610dbd57600b8181548110610d5357610d53612862565b600091825260209091200154600b80546001600160a01b039092169184908110610d7f57610d7f612862565b600091825260209091200180546001600160a01b0319166001600160a01b039290921691909117905581610db2816128e4565b925050600101610d36565b50805b600b54811015610e0557600b805480610ddb57610ddb6128fd565b600082815260209020810160001990810180546001600160a01b0319169055019055600101610dc0565b505060006009555b6009546000036108f8576040517f9c89a6ed7228533196a3f962acc80d61a9c53bdea6b910741bf754f5aaa7569e90600090a16004805460ff60a01b1916600160a11b179055565b600c6000610e616121a7565b6001600160a01b0316815260208101919091526040016000205460ff1615610ec05760405162461bcd60e51b815260206004820152601260248201527113919508185b1c9958591e481b5a5b9d195960721b60448201526064016108e5565b600260048054600160a01b900460ff1690811115610ee057610ee061264d565b14610f2d5760405162461bcd60e51b815260206004820152601860248201527f4c6f7474657279206973206e6f7420656e64656420796574000000000000000060448201526064016108e5565b610f3861066a6121a7565b610f7d5760405162461bcd60e51b815260206004820152601660248201527521b0b63632b91034b9903737ba1030903bb4b73732b960511b60448201526064016108e5565b6001600c6000610f8b6121a7565b6001600160a01b0390811682526020820192909252604001600020805460ff19169215159290921790915560115416636b8f60f6610fc76121a7565b6040516001600160e01b031960e084901b1681526001600160a01b039091166004820152602401600060405180830381600087803b15801561100857600080fd5b505af115801561101c573d6000803e3d6000fd5b50505050565b61102a6122cd565b601180546001600160a01b0319166001600160a01b0392909216919091179055565b606060108054806020026020016040519081016040528092919081815260200182805480156110a457602002820191906000526020600020905b81546001600160a01b03168152600190910190602001808311611086575b5050505050905090565b6110b66122cd565b600580546001600160a01b0319166001600160a01b0392909216919091179055565b6006546001600160a01b03166110ec6121a7565b6001600160a01b0316146111125760405162461bcd60e51b81526004016108e590612820565b600260048054600160a01b900460ff16908111156111325761113261264d565b146111735760405162461bcd60e51b8152602060048201526011602482015270131bdd1d195c9e481b9bdd08195b991959607a1b60448201526064016108e5565b6000805b600f548110156111ec576000600f828154811061119657611196612862565b60009182526020808320909101546001600160a01b0316808352600d9091526040909120549091506111c890846128d1565b6001600160a01b039091166000908152600d60205260408120559150600101611177565b50600060646111fc836005612913565b611206919061292a565b90506000611214828461288e565b60125460055460405163a9059cbb60e01b81526001600160a01b03918216600482015260248101869052929350169063a9059cbb906044016020604051808303816000875af115801561126b573d6000803e3d6000fd5b505050506040513d601f19601f8201168201806040525081019061128f919061293e565b5060125460065460405163a9059cbb60e01b81526001600160a01b0391821660048201526024810184905291169063a9059cbb906044016020604051808303816000875af11580156112e5573d6000803e3d6000fd5b505050506040513d601f19601f8201168201806040525081019061101c919061293e565b6006546001600160a01b031661131d6121a7565b6001600160a01b0316146113435760405162461bcd60e51b81526004016108e590612820565b6004805482919060ff60a01b1916600160a01b83838111156113675761136761264d565b021790555050565b6113776122cd565b6108f8600061232b565b6000818154811061139157600080fd5b9060005260206000209060209182820401919006915054906101000a900460ff1681565b600160048054600160a01b900460ff16908111156113d5576113d561264d565b036114225760405162461bcd60e51b815260206004820152601b60248201527f4c6f74746572792069732063757272656e746c7920616374697665000000000060448201526064016108e5565b600e600061142e6121a7565b6001600160a01b0316815260208101919091526040016000205460ff16156114985760405162461bcd60e51b815260206004820152601760248201527f57696e6e6572732063616e6e6f7420776974686472617700000000000000000060448201526064016108e5565b6000600d60006114a66121a7565b6001600160a01b03166001600160a01b03168152602001908152602001600020549050600081116115105760405162461bcd60e51b81526020600482015260146024820152734e6f2066756e647320746f20776974686472617760601b60448201526064016108e5565b6000600d600061151e6121a7565b6001600160a01b0390811682526020820192909252604001600020919091556012541663a9059cbb61154e6121a7565b6040516001600160e01b031960e084901b1681526001600160a01b039091166004820152602481018490526044016020604051808303816000875af115801561159b573d6000803e3d6000fd5b505050506040513d601f19601f820116820180604052508101906115bf919061293e565b5050565b6000805b600b5481101561161957826001600160a01b0316600b82815481106115ee576115ee612862565b6000918252602090912001546001600160a01b0316036116115750600192915050565b6001016115c7565b50600092915050565b61162a6122cd565b601280546001600160a01b0319166001600160a01b0392909216919091179055565b6006546001600160a01b03166116606121a7565b6001600160a01b0316146116865760405162461bcd60e51b81526004016108e590612820565b600081116116ea5760405162461bcd60e51b815260206004820152602b60248201527f4e756d626572206f66207469636b657473206d7573742062652067726561746560448201526a72207468616e207a65726f60a81b60648201526084016108e5565b600955565b6060600b8054806020026020016040519081016040528092919081815260200182805480156110a4576020028201919060005260206000209081546001600160a01b03168152600190910190602001808311611086575050505050905090565b6006546001600160a01b03166117636121a7565b6001600160a01b0316146117895760405162461bcd60e51b81526004016108e590612820565b600855565b6007546001600160a01b031633146117d85760405162461bcd60e51b815260206004820152600d60248201526c37b7363c9037b832b930ba37b960991b60448201526064016108e5565b60006117e682840184612988565b915050600080828060200190518101906118009190612a36565b9150915060008585604051611816929190612ab9565b604080519182900390912060008581526001602052918220548254919350831491908590811061184857611848612862565b90600052602060002090602091828204019190069054906101000a900460ff166118b45760405162461bcd60e51b815260206004820152601c60248201527f726571756573742066756c66696c6c6564206f72206d697373696e670000000060448201526064016108e5565b80156119585760408051602081018a905230918101919091524660608201526080810185905260a0016040516020818303038152906040528051906020012060001c975061190388858561237d565b600080858154811061191757611917612862565b90600052602060002090602091828204019190066101000a81548160ff02191690831515021790555060016000858152602001908152602001600020600090555b5050505050505050565b600160048054600160a01b900460ff16908111156119825761198261264d565b146119c75760405162461bcd60e51b81526020600482015260156024820152744c6f7474657279206973206e6f742061637469766560581b60448201526064016108e5565b6012546001600160a01b0316611a1f5760405162461bcd60e51b815260206004820152601d60248201527f5553444320636f6e74726163742061646472657373206e6f742073657400000060448201526064016108e5565b60008111611a5f5760405162461bcd60e51b815260206004820152600d60248201526c139bc8199d5b991cc81cd95b9d609a1b60448201526064016108e5565b60125481906001600160a01b031663dd62ed3e611a7a6121a7565b6040516001600160e01b031960e084901b1681526001600160a01b039091166004820152306024820152604401602060405180830381865afa158015611ac4573d6000803e3d6000fd5b505050506040513d601f19601f82011682018060405250810190611ae89190612ac9565b1015611b2f5760405162461bcd60e51b8152602060048201526016602482015275496e73756666696369656e7420616c6c6f77616e636560501b60448201526064016108e5565b6012546001600160a01b03166323b872dd611b486121a7565b6040516001600160e01b031960e084901b1681526001600160a01b039091166004820152306024820152604481018490526064016020604051808303816000875af1158015611b9b573d6000803e3d6000fd5b505050506040513d601f19601f82011682018060405250810190611bbf919061293e565b50600d6000611bcc6121a7565b6001600160a01b03166001600160a01b0316815260200190815260200160002054600003611c31576010611bfe6121a7565b81546001810183556000928352602090922090910180546001600160a01b0319166001600160a01b039092169190911790555b80600d6000611c3e6121a7565b6001600160a01b03166001600160a01b031681526020019081526020016000206000828254611c6d91906128d1565b909155505050565b600254600160a01b900460ff1615611cc55760405162461bcd60e51b8152602060048201526013602482015272105b1c9958591e481a5b9a5d1a585b1a5e9959606a1b60448201526064016108e5565b6040810151600680546001600160a01b039283166001600160a01b0319918216179091556020830151600780549190931691161790556060810151611d099061232b565b608081015160095560a081015160085560c0810151601280546001600160a01b03199081166001600160a01b039384161790915560e09092015160058054909316911617905560028054600160a01b60ff60a01b19909116179055565b6060600f8054806020026020016040519081016040528092919081815260200182805480156110a4576020028201919060005260206000209081546001600160a01b03168152600190910190602001808311611086575050505050905090565b6006546001600160a01b0316611dda6121a7565b6001600160a01b031614611e005760405162461bcd60e51b81526004016108e590612820565b60005b6010548110156115bf576000600d600060108481548110611e2657611e26612862565b60009182526020808320909101546001600160a01b0316835282019290925260400181205460108054919350600d9183919086908110611e6857611e68612862565b6000918252602080832091909101546001600160a01b039081168452908301939093526040918201902092909255601254915163a9059cbb60e01b815285821660048201526024810184905291169063a9059cbb906044016020604051808303816000875af1158015611edf573d6000803e3d6000fd5b505050506040513d601f19601f82011682018060405250810190611f03919061293e565b50826001600160a01b03166350f3dbec60108481548110611f2657611f26612862565b60009182526020909120015460405160e083901b6001600160e01b03191681526001600160a01b03909116600482015260248101849052604401600060405180830381600087803b158015611f7a57600080fd5b505af1158015611f8e573d6000803e3d6000fd5b5050601054611fa192506001915061288e565b8210156120235760108054611fb89060019061288e565b81548110611fc857611fc8612862565b600091825260209091200154601080546001600160a01b039092169184908110611ff457611ff4612862565b9060005260206000200160006101000a8154816001600160a01b0302191690836001600160a01b031602179055505b6010805480612034576120346128fd565b600082815260209020810160001990810180546001600160a01b031916905501905550600101611e03565b6006546001600160a01b03166120736121a7565b6001600160a01b0316146120995760405162461bcd60e51b81526004016108e590612820565b600680546001600160a01b0319166001600160a01b0392909216919091179055565b6120c36122cd565b6001600160a01b0381166120ed57604051631e4fbdf760e01b8152600060048201526024016108e5565b6120f68161232b565b50565b6006546001600160a01b031661210d6121a7565b6001600160a01b0316146121335760405162461bcd60e51b81526004016108e590612820565b61216761213e6121a7565b604080516001600160a01b039092166020830152016040516020818303038152906040526123ba565b506121706121a7565b6001600160a01b03167fd802e7c7f1646e3318c03abed1e468bdf913f45331a68dc912a0d645eb646a4260405160405180910390a2565b60006121b16124bb565b905090565b6001600160a01b03166000818152600e60205260408120805460ff19166001908117909155600f805491820181559091527f8d1108e10bcb7c27dddfc02ed9d693a074039d026cf4ea4240b40f7d581ac8020180546001600160a01b0319169091179055565b60005b6010548110156120f6576000600d60006010848154811061224257612242612862565b60009182526020808320909101546001600160a01b0316835282019290925260400190205460085490915081106122c457600b6010838154811061228857612288612862565b60009182526020808320909101548354600181018555938352912090910180546001600160a01b0319166001600160a01b039092169190911790555b5060010161221f565b6122d56121a7565b6001600160a01b03166122f06002546001600160a01b031690565b6001600160a01b0316146108f8576123066121a7565b60405163118cdaa760e01b81526001600160a01b0390911660048201526024016108e5565b600280546001600160a01b038381166001600160a01b0319831681179093556040519116919082907f8be0079c531659141344cd1fd0a4f28419497f9722a3daafe3b4186f6b6457e090600090a35050565b600a8390556040518381527fa2353d33775668d31add0688b8ed09ca3a91dc8129126fcdbcbda3a887db60db9060200160405180910390a1505050565b60008054600180820180845583805291929091839081106123dd576123dd612862565b90600052602060002090602091828204019190066101000a81548160ff0219169083151502179055506000818360405160200161241b929190612ae2565b604051602081830303815290604052905060006124366124ff565b90506000818360405160200161244d929190612ae2565b60408051601f198184030181528282528051602080830191909120600089815260019092529290208290559250907fd91fc3685b930310b008ec37d2334870cab88a023ed8cc628a2e2ccd4e55d202906124aa9085908790612ae2565b60405180910390a150505050919050565b60007f00000000000000000000000000000000000000000000000000000000000000006001600160a01b031633036124fa575060131936013560601c90565b503390565b6000806125106364e621274261288e565b9050600061251f60038361292a565b61252a9060016128d1565b9050466001146125445761253f8160016128d1565b61254f565b61254f8160046128d1565b9250505090565b50805460008255906000526020600020908101906120f691905b808211156125845760008155600101612570565b5090565b60006020828403121561259a57600080fd5b5035919050565b80356001600160a01b03811681146125b857600080fd5b919050565b6000602082840312156125cf57600080fd5b6125d8826125a1565b9392505050565b6020808252825182820181905260009190848201906040850190845b818110156126205783516001600160a01b0316835292840192918401916001016125fb565b50909695505050505050565b60006020828403121561263e57600080fd5b8135600581106125d857600080fd5b634e487b7160e01b600052602160045260246000fd5b602081016005831061268557634e487b7160e01b600052602160045260246000fd5b91905290565b6000806000604084860312156126a057600080fd5b83359250602084013567ffffffffffffffff808211156126bf57600080fd5b818601915086601f8301126126d357600080fd5b8135818111156126e257600080fd5b8760208285010111156126f457600080fd5b6020830194508093505050509250925092565b634e487b7160e01b600052604160045260246000fd5b604051610120810167ffffffffffffffff8111828210171561274157612741612707565b60405290565b604051601f8201601f1916810167ffffffffffffffff8111828210171561277057612770612707565b604052919050565b6000610120828403121561278b57600080fd5b61279361271d565b61279c836125a1565b81526127aa602084016125a1565b60208201526127bb604084016125a1565b60408201526127cc606084016125a1565b60608201526080830135608082015260a083013560a08201526127f160c084016125a1565b60c082015261280260e084016125a1565b60e08201526101006128158185016125a1565b908201529392505050565b60208082526022908201527f4f6e6c792073656c6c65722063616e2063616c6c20746869732066756e63746960408201526137b760f11b606082015260800190565b634e487b7160e01b600052603260045260246000fd5b634e487b7160e01b600052601160045260246000fd5b818103818111156128a1576128a1612878565b92915050565b634e487b7160e01b600052601260045260246000fd5b6000826128cc576128cc6128a7565b500690565b808201808211156128a1576128a1612878565b6000600182016128f6576128f6612878565b5060010190565b634e487b7160e01b600052603160045260246000fd5b80820281158282048414176128a1576128a1612878565b600082612939576129396128a7565b500490565b60006020828403121561295057600080fd5b815180151581146125d857600080fd5b600067ffffffffffffffff82111561297a5761297a612707565b50601f01601f191660200190565b6000806040838503121561299b57600080fd5b82359150602083013567ffffffffffffffff8111156129b957600080fd5b8301601f810185136129ca57600080fd5b80356129dd6129d882612960565b612747565b8181528660208385010111156129f257600080fd5b816020840160208301376000602083830101528093505050509250929050565b60005b83811015612a2d578181015183820152602001612a15565b50506000910152565b60008060408385031215612a4957600080fd5b82519150602083015167ffffffffffffffff811115612a6757600080fd5b8301601f81018513612a7857600080fd5b8051612a866129d882612960565b818152866020838501011115612a9b57600080fd5b612aac826020830160208601612a12565b8093505050509250929050565b8183823760009101908152919050565b600060208284031215612adb57600080fd5b5051919050565b8281526040602082015260008251806040840152612b07816060850160208701612a12565b601f01601f191691909101606001939250505056fea2646970667358221220905ac45261549a53918a4ddb05ac9bb043a3868c8f23e18b9d133e325307333d64736f6c63430008190033","linkReferences":{}},"methodIdentifiers":{"buyerWithdraw()":"7cc947d0","changeLotteryState(uint8)":"683e93e1","deposit(uint256)":"b6b55f25","deposits(address)":"fc7e286d","endLottery()":"1593a8c7","factoryAddress()":"966dae0e","factorySaleIndex()":"e276df97","fulfillRandomness(uint256,bytes)":"b3f6b99a","getDepositedAmount(address)":"e9081ec7","getEligibleParticipants()":"9abdccd1","getParticipants()":"5aa68ac0","getWinners()":"df15c37e","hasMinted(address)":"38e21cce","initialize((address,address,address,address,uint256,uint256,address,address,address))":"cf54d3b8","initialized()":"158ef93e","isParticipantEligible(address)":"8a6723e6","isTrustedForwarder(address)":"572b6c05","isWinner(address)":"9d9ca28d","lotteryState()":"6939864b","minimumDepositAmount()":"080c279a","mintMyNFT()":"26170480","multisigWalletAddress()":"a61fb2ba","nftContractAddr()":"2c23ec8e","numberOfTickets()":"45745c10","operatorAddr()":"f3f18c37","owner()":"8da5cb5b","randomNumber()":"ccbac9f5","renounceOwnership()":"715018a6","requestPending(uint256)":"75ce7fff","requestRandomness()":"f8413b07","requestedHash(uint256)":"c4f8f27b","selectWinners()":"1a0de74c","seller()":"08551a53","sellerWithdraw()":"66af746b","setMinimumDepositAmount(uint256)":"aab483d6","setMultisigWalletAddress(address)":"60d50da3","setNftContractAddr(address)":"3644c27c","setNumberOfTickets(uint256)":"99bd69d6","setSeller(address)":"e99d2866","setUsdcContractAddr(address)":"94d898de","startLottery()":"160344e2","transferNonWinnerDeposits(address)":"e63c4609","transferOwnership(address)":"f2fde38b","usdcContractAddr()":"99dbf4b5","winnerAddresses(uint256)":"045f9c97","winners(address)":"6bd5450a"},"id":5}