{"abi":[{"type":"function","name":"buyerWithdraw","inputs":[],"outputs":[],"stateMutability":"nonpayable"},{"type":"function","name":"changeLotteryState","inputs":[{"name":"_newState","type":"uint8","internalType":"enum SaleBase.LotteryState"}],"outputs":[],"stateMutability":"nonpayable"},{"type":"function","name":"deposit","inputs":[{"name":"amount","type":"uint256","internalType":"uint256"}],"outputs":[],"stateMutability":"nonpayable"},{"type":"function","name":"deposits","inputs":[{"name":"","type":"address","internalType":"address"}],"outputs":[{"name":"","type":"uint256","internalType":"uint256"}],"stateMutability":"view"},{"type":"function","name":"endLottery","inputs":[],"outputs":[],"stateMutability":"nonpayable"},{"type":"function","name":"fulfillRandomness","inputs":[{"name":"randomness","type":"uint256","internalType":"uint256"},{"name":"dataWithRound","type":"bytes","internalType":"bytes"}],"outputs":[],"stateMutability":"nonpayable"},{"type":"function","name":"getDepositedAmount","inputs":[{"name":"participant","type":"address","internalType":"address"}],"outputs":[{"name":"","type":"uint256","internalType":"uint256"}],"stateMutability":"view"},{"type":"function","name":"getParticipants","inputs":[],"outputs":[{"name":"","type":"address[]","internalType":"address[]"}],"stateMutability":"view"},{"type":"function","name":"getWinners","inputs":[],"outputs":[{"name":"","type":"address[]","internalType":"address[]"}],"stateMutability":"view"},{"type":"function","name":"hasMinted","inputs":[{"name":"","type":"address","internalType":"address"}],"outputs":[{"name":"","type":"bool","internalType":"bool"}],"stateMutability":"view"},{"type":"function","name":"initialize","inputs":[{"name":"config","type":"tuple","internalType":"struct StructsLibrary.ILotteryBaseConfig","components":[{"name":"_gelatoVrfOperator","type":"address","internalType":"address"},{"name":"_blessedOperator","type":"address","internalType":"address"},{"name":"_owner","type":"address","internalType":"address"},{"name":"_ticketAmount","type":"uint256","internalType":"uint256"},{"name":"_ticketPrice","type":"uint256","internalType":"uint256"},{"name":"_usdcContractAddr","type":"address","internalType":"address"},{"name":"_multisigWalletAddress","type":"address","internalType":"address"},{"name":"_prevPhaseContractAddr","type":"address","internalType":"address"}]}],"outputs":[],"stateMutability":"nonpayable"},{"type":"function","name":"initialized","inputs":[],"outputs":[{"name":"","type":"bool","internalType":"bool"}],"stateMutability":"view"},{"type":"function","name":"isTrustedForwarder","inputs":[{"name":"forwarder","type":"address","internalType":"address"}],"outputs":[{"name":"","type":"bool","internalType":"bool"}],"stateMutability":"view"},{"type":"function","name":"isWinner","inputs":[{"name":"_participant","type":"address","internalType":"address"}],"outputs":[{"name":"","type":"bool","internalType":"bool"}],"stateMutability":"view"},{"type":"function","name":"lotteryState","inputs":[],"outputs":[{"name":"","type":"uint8","internalType":"enum SaleBase.LotteryState"}],"stateMutability":"view"},{"type":"function","name":"minimumDepositAmount","inputs":[],"outputs":[{"name":"","type":"uint256","internalType":"uint256"}],"stateMutability":"view"},{"type":"function","name":"mintMyNFT","inputs":[],"outputs":[],"stateMutability":"nonpayable"},{"type":"function","name":"multisigWalletAddress","inputs":[],"outputs":[{"name":"","type":"address","internalType":"address"}],"stateMutability":"view"},{"type":"function","name":"nftContractAddr","inputs":[],"outputs":[{"name":"","type":"address","internalType":"address"}],"stateMutability":"view"},{"type":"function","name":"numberOfTickets","inputs":[],"outputs":[{"name":"","type":"uint256","internalType":"uint256"}],"stateMutability":"view"},{"type":"function","name":"operatorAddr","inputs":[],"outputs":[{"name":"","type":"address","internalType":"address"}],"stateMutability":"view"},{"type":"function","name":"owner","inputs":[],"outputs":[{"name":"","type":"address","internalType":"address"}],"stateMutability":"view"},{"type":"function","name":"randomNumber","inputs":[],"outputs":[{"name":"","type":"uint256","internalType":"uint256"}],"stateMutability":"view"},{"type":"function","name":"renounceOwnership","inputs":[],"outputs":[],"stateMutability":"nonpayable"},{"type":"function","name":"requestPending","inputs":[{"name":"","type":"uint256","internalType":"uint256"}],"outputs":[{"name":"","type":"bool","internalType":"bool"}],"stateMutability":"view"},{"type":"function","name":"requestRandomness","inputs":[],"outputs":[],"stateMutability":"nonpayable"},{"type":"function","name":"requestedHash","inputs":[{"name":"","type":"uint256","internalType":"uint256"}],"outputs":[{"name":"","type":"bytes32","internalType":"bytes32"}],"stateMutability":"view"},{"type":"function","name":"selectWinners","inputs":[],"outputs":[],"stateMutability":"nonpayable"},{"type":"function","name":"seller","inputs":[],"outputs":[{"name":"","type":"address","internalType":"address"}],"stateMutability":"view"},{"type":"function","name":"sellerWithdraw","inputs":[],"outputs":[],"stateMutability":"nonpayable"},{"type":"function","name":"setMinimumDepositAmount","inputs":[{"name":"_amount","type":"uint256","internalType":"uint256"}],"outputs":[],"stateMutability":"nonpayable"},{"type":"function","name":"setMultisigWalletAddress","inputs":[{"name":"_multisigWalletAddress","type":"address","internalType":"address"}],"outputs":[],"stateMutability":"nonpayable"},{"type":"function","name":"setNftContractAddr","inputs":[{"name":"_nftContractAddr","type":"address","internalType":"address"}],"outputs":[],"stateMutability":"nonpayable"},{"type":"function","name":"setNumberOfTickets","inputs":[{"name":"_numberOfTickets","type":"uint256","internalType":"uint256"}],"outputs":[],"stateMutability":"nonpayable"},{"type":"function","name":"setSeller","inputs":[{"name":"_seller","type":"address","internalType":"address"}],"outputs":[],"stateMutability":"nonpayable"},{"type":"function","name":"setUsdcContractAddr","inputs":[{"name":"_usdcContractAddr","type":"address","internalType":"address"}],"outputs":[],"stateMutability":"nonpayable"},{"type":"function","name":"startLottery","inputs":[],"outputs":[],"stateMutability":"nonpayable"},{"type":"function","name":"transferNonWinnerDeposits","inputs":[{"name":"lotteryV2addr","type":"address","internalType":"address"}],"outputs":[],"stateMutability":"nonpayable"},{"type":"function","name":"transferOwnership","inputs":[{"name":"newOwner","type":"address","internalType":"address"}],"outputs":[],"stateMutability":"nonpayable"},{"type":"function","name":"usdcContractAddr","inputs":[],"outputs":[{"name":"","type":"address","internalType":"address"}],"stateMutability":"view"},{"type":"function","name":"winnerAddresses","inputs":[{"name":"","type":"uint256","internalType":"uint256"}],"outputs":[{"name":"","type":"address","internalType":"address"}],"stateMutability":"view"},{"type":"function","name":"winners","inputs":[{"name":"","type":"address","internalType":"address"}],"outputs":[{"name":"","type":"bool","internalType":"bool"}],"stateMutability":"view"},{"type":"event","name":"LotteryEnded","inputs":[],"anonymous":false},{"type":"event","name":"LotteryStarted","inputs":[],"anonymous":false},{"type":"event","name":"OwnershipTransferred","inputs":[{"name":"previousOwner","type":"address","indexed":true,"internalType":"address"},{"name":"newOwner","type":"address","indexed":true,"internalType":"address"}],"anonymous":false},{"type":"event","name":"RandomFulfilled","inputs":[{"name":"number","type":"uint256","indexed":false,"internalType":"uint256"}],"anonymous":false},{"type":"event","name":"RandomRequested","inputs":[{"name":"requester","type":"address","indexed":true,"internalType":"address"}],"anonymous":false},{"type":"event","name":"RequestedRandomness","inputs":[{"name":"round","type":"uint256","indexed":false,"internalType":"uint256"},{"name":"data","type":"bytes","indexed":false,"internalType":"bytes"}],"anonymous":false},{"type":"event","name":"WinnerSelected","inputs":[{"name":"winner","type":"address","indexed":true,"internalType":"address"}],"anonymous":false},{"type":"error","name":"OwnableInvalidOwner","inputs":[{"name":"owner","type":"address","internalType":"address"}]},{"type":"error","name":"OwnableUnauthorizedAccount","inputs":[{"name":"account","type":"address","internalType":"address"}]}],"bytecode":{"object":"0x60a0604052600e805460ff19169055348015601957600080fd5b5073d8253782c45a12053594b9deb72d8e8ab2fca54c3380605457604051631e4fbdf760e01b81526000600482015260240160405180910390fd5b605b81606c565b506001600160a01b031660805260bc565b600080546001600160a01b038381166001600160a01b0319831681178455604051919092169283917f8be0079c531659141344cd1fd0a4f28419497f9722a3daafe3b4186f6b6457e09190a35050565b6080516128756100de6000396000818161035e01526121fd01526128756000f3fe608060405234801561001057600080fd5b506004361061025e5760003560e01c806375ce7fff11610146578063b6b55f25116100c3578063e9081ec711610087578063e9081ec714610551578063e99d28661461057a578063f2fde38b1461058d578063f3f18c37146105a0578063f8413b07146105b8578063fc7e286d146105c057600080fd5b8063b6b55f25146104fa578063c4f8f27b1461050d578063ccbac9f51461052d578063df15c37e14610536578063e63c46091461053e57600080fd5b806399dbf4b51161010a57806399dbf4b5146104825780639d9ca28d14610495578063a61fb2ba146104c1578063aab483d6146104d4578063b3f6b99a146104e757600080fd5b806375ce7fff146104305780637cc947d0146104435780638da5cb5b1461044b57806394d898de1461045c57806399bd69d61461046f57600080fd5b806338e21cce116101df57806360d50da3116101a357806360d50da3146103b657806366af746b146103c9578063683e93e1146103d15780636939864b146103e45780636bd5450a14610405578063715018a61461042857600080fd5b806338e21cce1461032257806345745c1014610345578063572b6c051461034e5780635a6838c51461038e5780635aa68ac0146103a157600080fd5b8063160344e211610226578063160344e2146102e45780631a0de74c146102ec57806326170480146102f45780632c23ec8e146102fc5780633644c27c1461030f57600080fd5b8063045f9c9714610263578063080c279a1461029357806308551a53146102aa578063158ef93e146102bd5780631593a8c7146102da575b600080fd5b6102766102713660046122c6565b6105e0565b6040516001600160a01b0390911681526020015b60405180910390f35b61029c60035481565b60405190815260200161028a565b600254610276906001600160a01b031681565b600e546102ca9060ff1681565b604051901515815260200161028a565b6102e261060a565b005b6102e2610682565b6102e261075d565b6102e2610bfa565b600a54610276906001600160a01b031681565b6102e261031d3660046122fb565b610eba565b6102ca6103303660046122fb565b60056020526000908152604090205460ff1681565b61029c60045481565b6102ca61035c3660046122fb565b7f00000000000000000000000000000000000000000000000000000000000000006001600160a01b0390811691161490565b6102e261039c366004612364565b610ee4565b6103a9610fd1565b60405161028a919061241b565b6102e26103c43660046122fb565b611033565b6102e261105d565b6102e26103df366004612468565b611294565b6000546103f890600160a01b900460ff1681565b60405161028a919061249f565b6102ca6104133660046122fb565b60076020526000908152604090205460ff1681565b6102e26112f3565b6102ca61043e3660046122c6565b611307565b6102e261133b565b6000546001600160a01b0316610276565b6102e261046a3660046122fb565b611541565b6102e261047d3660046122c6565b61156b565b600b54610276906001600160a01b031681565b6102ca6104a33660046122fb565b6001600160a01b031660009081526007602052604090205460ff1690565b600154610276906001600160a01b031681565b6102e26104e23660046122c6565b61160e565b6102e26104f53660046124c7565b61164d565b6102e26105083660046122c6565b61183e565b61029c61051b3660046122c6565b600d6020526000908152604090205481565b61029c600f5481565b6103a9611b58565b6102e261054c3660046122fb565b611bb8565b61029c61055f3660046122fb565b6001600160a01b031660009081526006602052604090205490565b6102e26105883660046122fb565b611e51565b6102e261059b3660046122fb565b611ead565b600e546102769061010090046001600160a01b031681565b6102e2611ee8565b61029c6105ce3660046122fb565b60066020526000908152604090205481565b600881815481106105f057600080fd5b6000918252602090912001546001600160a01b0316905081565b6002546001600160a01b031661061e611f96565b6001600160a01b03161461064d5760405162461bcd60e51b815260040161064490612543565b60405180910390fd5b6106576002611294565b6040517f9c89a6ed7228533196a3f962acc80d61a9c53bdea6b910741bf754f5aaa7569e90600090a1565b6002546001600160a01b0316610696611f96565b6001600160a01b0316146106bc5760405162461bcd60e51b815260040161064490612543565b60008054600160a01b900460ff1660028111156106db576106db612489565b146107285760405162461bcd60e51b815260206004820152601760248201527f53616c6520697320696e206163746976652073746174650000000000000000006044820152606401610644565b6107326001611294565b6040517fd029c7c68d943f92286a7825fa6aa2deefa1eee46cee6c91b7e483fd06d27baf90600090a1565b6002546001600160a01b0316610771611f96565b6001600160a01b0316146107975760405162461bcd60e51b815260040161064490612543565b6001600054600160a01b900460ff1660028111156107b7576107b7612489565b146107f95760405162461bcd60e51b815260206004820152601260248201527153616c65206973206e6f742061637469766560701b6044820152606401610644565b60006004541161084b5760405162461bcd60e51b815260206004820152601b60248201527f4e6f207469636b657473206c65667420746f20616c6c6f6361746500000000006044820152606401610644565b60095460045481116109125760005b818110156108fb5760006009828154811061087757610877612585565b6000918252602090912001546001600160a01b031690506108b0816001600160a01b031660009081526007602052604090205460ff1690565b6108f2576108bd81611fa5565b6040516001600160a01b038216907f1d4c260f1824cd028e6c9e6e31c3a0b94f2513e7a641113ec759d382f9bdd5a190600090a25b5060010161085a565b5061090860096000612294565b6000600455610ba8565b60005b81811015610a2657600061092982846125b1565b600f5461093691906125e0565b61094090836125f4565b905060006009828154811061095757610957612585565b600091825260209091200154600980546001600160a01b039092169250908490811061098557610985612585565b600091825260209091200154600980546001600160a01b0390921691849081106109b1576109b1612585565b9060005260206000200160006101000a8154816001600160a01b0302191690836001600160a01b0316021790555080600984815481106109f3576109f3612585565b600091825260209091200180546001600160a01b0319166001600160a01b03929092169190911790555050600101610915565b5060005b600454811015610acd57600060098281548110610a4957610a49612585565b6000918252602090912001546001600160a01b03169050610a82816001600160a01b031660009081526007602052604090205460ff1690565b610ac457610a8f81611fa5565b6040516001600160a01b038216907f1d4c260f1824cd028e6c9e6e31c3a0b94f2513e7a641113ec759d382f9bdd5a190600090a25b50600101610a2a565b506004546000905b82811015610b5a5760098181548110610af057610af0612585565b600091825260209091200154600980546001600160a01b039092169184908110610b1c57610b1c612585565b600091825260209091200180546001600160a01b0319166001600160a01b039290921691909117905581610b4f81612607565b925050600101610ad5565b50805b82811015610ba0576009805480610b7657610b76612620565b600082815260209020810160001990810180546001600160a01b0319169055019055600101610b5d565b505060006004555b600454600003610bf7576040517f9c89a6ed7228533196a3f962acc80d61a9c53bdea6b910741bf754f5aaa7569e90600090a1600080546002919060ff60a01b1916600160a01b835b02179055505b50565b60056000610c06611f96565b6001600160a01b0316815260208101919091526040016000205460ff1615610c655760405162461bcd60e51b815260206004820152601260248201527113919508185b1c9958591e481b5a5b9d195960721b6044820152606401610644565b6002600054600160a01b900460ff166002811115610c8557610c85612489565b14610cca5760405162461bcd60e51b815260206004820152601560248201527414d85b19481a5cc81b9bdd08195b991959081e595d605a1b6044820152606401610644565b610cd56104a3611f96565b610d1a5760405162461bcd60e51b815260206004820152601660248201527521b0b63632b91034b9903737ba1030903bb4b73732b960511b6044820152606401610644565b600160056000610d28611f96565b6001600160a01b0316815260208101919091526040016000908120805460ff191692151592909217909155600354600682610d61611f96565b6001600160a01b03166001600160a01b0316815260200190815260200160002054610d8c91906125b1565b90508015610e2057600b546001600160a01b031663a9059cbb610dad611f96565b6040516001600160e01b031960e084901b1681526001600160a01b039091166004820152602481018490526044016020604051808303816000875af1158015610dfa573d6000803e3d6000fd5b505050506040513d601f19601f82011682018060405250810190610e1e9190612636565b505b600060066000610e2e611f96565b6001600160a01b039081168252602082019290925260400160002091909155600a5416636b8f60f6610e5e611f96565b6040516001600160e01b031960e084901b1681526001600160a01b039091166004820152602401600060405180830381600087803b158015610e9f57600080fd5b505af1158015610eb3573d6000803e3d6000fd5b5050505050565b610ec261200b565b600a80546001600160a01b0319166001600160a01b0392909216919091179055565b600e5460ff1615610f2d5760405162461bcd60e51b8152602060048201526013602482015272105b1c9958591e481a5b9a5d1a585b1a5e9959606a1b6044820152606401610644565b6020810151600280546001600160a01b039283166001600160a01b03199091161790558151600e80549190921661010002610100600160a81b03199091161790556040810151610f7c90612069565b6060810151600455608081015160035560a0810151600b80546001600160a01b03199081166001600160a01b039384161790915560c090920151600180549093169116178155600e805460ff19169091179055565b6060600980548060200260200160405190810160405280929190818152602001828054801561102957602002820191906000526020600020905b81546001600160a01b0316815260019091019060200180831161100b575b5050505050905090565b61103b61200b565b600180546001600160a01b0319166001600160a01b0392909216919091179055565b6002546001600160a01b0316611071611f96565b6001600160a01b0316146110975760405162461bcd60e51b815260040161064490612543565b6002600054600160a01b900460ff1660028111156110b7576110b7612489565b146110f85760405162461bcd60e51b8152602060048201526011602482015270131bdd1d195c9e481b9bdd08195b991959607a1b6044820152606401610644565b6000805b6008548110156111715760006008828154811061111b5761111b612585565b60009182526020808320909101546001600160a01b0316808352600690915260409091205490915061114d90846125f4565b6001600160a01b0390911660009081526006602052604081205591506001016110fc565b5060006064611181836005612658565b61118b919061266f565b9050600061119982846125b1565b600b5460015460405163a9059cbb60e01b81526001600160a01b03918216600482015260248101869052929350169063a9059cbb906044016020604051808303816000875af11580156111f0573d6000803e3d6000fd5b505050506040513d601f19601f820116820180604052508101906112149190612636565b50600b5460025460405163a9059cbb60e01b81526001600160a01b0391821660048201526024810184905291169063a9059cbb906044016020604051808303816000875af115801561126a573d6000803e3d6000fd5b505050506040513d601f19601f8201168201806040525081019061128e9190612636565b50505050565b6002546001600160a01b03166112a8611f96565b6001600160a01b0316146112ce5760405162461bcd60e51b815260040161064490612543565b6000805482919060ff60a01b1916600160a01b836002811115610bf157610bf1612489565b6112fb61200b565b6113056000612069565b565b600c818154811061131757600080fd5b9060005260206000209060209182820401919006915054906101000a900460ff1681565b6002600054600160a01b900460ff16600281111561135b5761135b612489565b146113a05760405162461bcd60e51b815260206004820152601560248201527414d85b19481a5cc81b9bdd08195b991959081e595d605a1b6044820152606401610644565b600760006113ac611f96565b6001600160a01b0316815260208101919091526040016000205460ff16156114165760405162461bcd60e51b815260206004820152601760248201527f57696e6e6572732063616e6e6f742077697468647261770000000000000000006044820152606401610644565b600060066000611424611f96565b6001600160a01b03166001600160a01b031681526020019081526020016000205490506000811161148e5760405162461bcd60e51b81526020600482015260146024820152734e6f2066756e647320746f20776974686472617760601b6044820152606401610644565b60006006600061149c611f96565b6001600160a01b039081168252602082019290925260400160002091909155600b541663a9059cbb6114cc611f96565b6040516001600160e01b031960e084901b1681526001600160a01b039091166004820152602481018490526044016020604051808303816000875af1158015611519573d6000803e3d6000fd5b505050506040513d601f19601f8201168201806040525081019061153d9190612636565b5050565b61154961200b565b600b80546001600160a01b0319166001600160a01b0392909216919091179055565b6002546001600160a01b031661157f611f96565b6001600160a01b0316146115a55760405162461bcd60e51b815260040161064490612543565b600081116116095760405162461bcd60e51b815260206004820152602b60248201527f4e756d626572206f66207469636b657473206d7573742062652067726561746560448201526a72207468616e207a65726f60a81b6064820152608401610644565b600455565b6002546001600160a01b0316611622611f96565b6001600160a01b0316146116485760405162461bcd60e51b815260040161064490612543565b600355565b600e5461010090046001600160a01b03166001600160a01b0316336001600160a01b0316146116ae5760405162461bcd60e51b815260206004820152600d60248201526c37b7363c9037b832b930ba37b960991b6044820152606401610644565b60006116bc828401846126ab565b915050600080828060200190518101906116d69190612759565b91509150600085856040516116ec9291906127dc565b604051809103902090506000600d60008581526020019081526020016000205482149050600c848154811061172357611723612585565b90600052602060002090602091828204019190069054906101000a900460ff1661178f5760405162461bcd60e51b815260206004820152601c60248201527f726571756573742066756c66696c6c6564206f72206d697373696e67000000006044820152606401610644565b80156118345760408051602081018a905230918101919091524660608201526080810185905260a0016040516020818303038152906040528051906020012060001c97506117de8885856120b9565b6000600c85815481106117f3576117f3612585565b90600052602060002090602091828204019190066101000a81548160ff021916908315150217905550600d6000858152602001908152602001600020600090555b5050505050505050565b6001600054600160a01b900460ff16600281111561185e5761185e612489565b146118a05760405162461bcd60e51b815260206004820152601260248201527153616c65206973206e6f742061637469766560701b6044820152606401610644565b600b546001600160a01b03166118f85760405162461bcd60e51b815260206004820152601d60248201527f5553444320636f6e74726163742061646472657373206e6f74207365740000006044820152606401610644565b6003548110156119425760405162461bcd60e51b8152602060048201526015602482015274139bdd08195b9bdd59da08199d5b991cc81cd95b9d605a1b6044820152606401610644565b600b5481906001600160a01b031663dd62ed3e61195d611f96565b6040516001600160e01b031960e084901b1681526001600160a01b039091166004820152306024820152604401602060405180830381865afa1580156119a7573d6000803e3d6000fd5b505050506040513d601f19601f820116820180604052508101906119cb91906127ec565b1015611a125760405162461bcd60e51b8152602060048201526016602482015275496e73756666696369656e7420616c6c6f77616e636560501b6044820152606401610644565b600b546001600160a01b03166323b872dd611a2b611f96565b6040516001600160e01b031960e084901b1681526001600160a01b039091166004820152306024820152604481018490526064016020604051808303816000875af1158015611a7e573d6000803e3d6000fd5b505050506040513d601f19601f82011682018060405250810190611aa29190612636565b5060066000611aaf611f96565b6001600160a01b03166001600160a01b0316815260200190815260200160002054600003611b14576009611ae1611f96565b81546001810183556000928352602090922090910180546001600160a01b0319166001600160a01b039092169190911790555b8060066000611b21611f96565b6001600160a01b03166001600160a01b031681526020019081526020016000206000828254611b5091906125f4565b909155505050565b60606008805480602002602001604051908101604052809291908181526020018280548015611029576020028201919060005260206000209081546001600160a01b0316815260019091019060200180831161100b575050505050905090565b6002546001600160a01b0316611bcc611f96565b6001600160a01b031614611bf25760405162461bcd60e51b815260040161064490612543565b60005b60095481101561153d5760006006600060098481548110611c1857611c18612585565b60009182526020808320909101546001600160a01b031683528201929092526040018120546009805491935060069183919086908110611c5a57611c5a612585565b6000918252602080832091909101546001600160a01b039081168452908301939093526040918201902092909255600b54915163a9059cbb60e01b815285821660048201526024810184905291169063a9059cbb906044016020604051808303816000875af1158015611cd1573d6000803e3d6000fd5b505050506040513d601f19601f82011682018060405250810190611cf59190612636565b50826001600160a01b03166350f3dbec60098481548110611d1857611d18612585565b60009182526020909120015460405160e083901b6001600160e01b03191681526001600160a01b03909116600482015260248101849052604401600060405180830381600087803b158015611d6c57600080fd5b505af1158015611d80573d6000803e3d6000fd5b5050600954611d939250600191506125b1565b821015611e155760098054611daa906001906125b1565b81548110611dba57611dba612585565b600091825260209091200154600980546001600160a01b039092169184908110611de657611de6612585565b9060005260206000200160006101000a8154816001600160a01b0302191690836001600160a01b031602179055505b6009805480611e2657611e26612620565b600082815260209020810160001990810180546001600160a01b031916905501905550600101611bf5565b6002546001600160a01b0316611e65611f96565b6001600160a01b031614611e8b5760405162461bcd60e51b815260040161064490612543565b600280546001600160a01b0319166001600160a01b0392909216919091179055565b611eb561200b565b6001600160a01b038116611edf57604051631e4fbdf760e01b815260006004820152602401610644565b610bf781612069565b6002546001600160a01b0316611efc611f96565b6001600160a01b031614611f225760405162461bcd60e51b815260040161064490612543565b611f56611f2d611f96565b604080516001600160a01b039092166020830152016040516020818303038152906040526120f6565b50611f5f611f96565b6001600160a01b03167fd802e7c7f1646e3318c03abed1e468bdf913f45331a68dc912a0d645eb646a4260405160405180910390a2565b6000611fa06121f9565b905090565b6001600160a01b03166000818152600760205260408120805460ff191660019081179091556008805491820181559091527ff3f7a9fe364faab93b216da50a3214154f22a0a2b415b23a84c8169e8b636ee30180546001600160a01b0319169091179055565b612013611f96565b6001600160a01b031661202e6000546001600160a01b031690565b6001600160a01b03161461130557612044611f96565b60405163118cdaa760e01b81526001600160a01b039091166004820152602401610644565b600080546001600160a01b038381166001600160a01b0319831681178455604051919092169283917f8be0079c531659141344cd1fd0a4f28419497f9722a3daafe3b4186f6b6457e09190a35050565b600f8390556040518381527f79518eb4b6f70742e6651b03a2ac2bc644ea2613e8de56247857c5be5fc2a0ba9060200160405180910390a1505050565b600c805460018082018084556000849052919290918390811061211b5761211b612585565b90600052602060002090602091828204019190066101000a81548160ff02191690831515021790555060008183604051602001612159929190612805565b6040516020818303038152906040529050600061217461223d565b90506000818360405160200161218b929190612805565b60408051601f1981840301815282825280516020808301919091206000898152600d9092529290208290559250907fd91fc3685b930310b008ec37d2334870cab88a023ed8cc628a2e2ccd4e55d202906121e89085908790612805565b60405180910390a150505050919050565b60007f00000000000000000000000000000000000000000000000000000000000000006001600160a01b03163303612238575060131936013560601c90565b503390565b60008061224e6364e62127426125b1565b9050600061225d60038361266f565b6122689060016125f4565b9050466001146122825761227d8160016125f4565b61228d565b61228d8160046125f4565b9250505090565b5080546000825590600052602060002090810190610bf791905b808211156122c257600081556001016122ae565b5090565b6000602082840312156122d857600080fd5b5035919050565b80356001600160a01b03811681146122f657600080fd5b919050565b60006020828403121561230d57600080fd5b612316826122df565b9392505050565b634e487b7160e01b600052604160045260246000fd5b604051601f8201601f1916810167ffffffffffffffff8111828210171561235c5761235c61231d565b604052919050565b600061010080838503121561237857600080fd5b6040519081019067ffffffffffffffff8211818310171561239b5761239b61231d565b816040526123a8846122df565b81526123b6602085016122df565b60208201526123c7604085016122df565b604082015260608401356060820152608084013560808201526123ec60a085016122df565b60a08201526123fd60c085016122df565b60c082015261240e60e085016122df565b60e0820152949350505050565b6020808252825182820181905260009190848201906040850190845b8181101561245c5783516001600160a01b031683529284019291840191600101612437565b50909695505050505050565b60006020828403121561247a57600080fd5b81356003811061231657600080fd5b634e487b7160e01b600052602160045260246000fd5b60208101600383106124c157634e487b7160e01b600052602160045260246000fd5b91905290565b6000806000604084860312156124dc57600080fd5b83359250602084013567ffffffffffffffff808211156124fb57600080fd5b818601915086601f83011261250f57600080fd5b81358181111561251e57600080fd5b87602082850101111561253057600080fd5b6020830194508093505050509250925092565b60208082526022908201527f4f6e6c792073656c6c65722063616e2063616c6c20746869732066756e63746960408201526137b760f11b606082015260800190565b634e487b7160e01b600052603260045260246000fd5b634e487b7160e01b600052601160045260246000fd5b818103818111156125c4576125c461259b565b92915050565b634e487b7160e01b600052601260045260246000fd5b6000826125ef576125ef6125ca565b500690565b808201808211156125c4576125c461259b565b6000600182016126195761261961259b565b5060010190565b634e487b7160e01b600052603160045260246000fd5b60006020828403121561264857600080fd5b8151801515811461231657600080fd5b80820281158282048414176125c4576125c461259b565b60008261267e5761267e6125ca565b500490565b600067ffffffffffffffff82111561269d5761269d61231d565b50601f01601f191660200190565b600080604083850312156126be57600080fd5b82359150602083013567ffffffffffffffff8111156126dc57600080fd5b8301601f810185136126ed57600080fd5b80356127006126fb82612683565b612333565b81815286602083850101111561271557600080fd5b816020840160208301376000602083830101528093505050509250929050565b60005b83811015612750578181015183820152602001612738565b50506000910152565b6000806040838503121561276c57600080fd5b82519150602083015167ffffffffffffffff81111561278a57600080fd5b8301601f8101851361279b57600080fd5b80516127a96126fb82612683565b8181528660208385010111156127be57600080fd5b6127cf826020830160208601612735565b8093505050509250929050565b8183823760009101908152919050565b6000602082840312156127fe57600080fd5b5051919050565b828152604060208201526000825180604084015261282a816060850160208701612735565b601f01601f191691909101606001939250505056fea264697066735822122031c26a38d817cf16338b447997ad772ac10fb38ac571e72b8d221b2f0a202ca464736f6c63430008190033","linkReferences":{}},"methodIdentifiers":{"buyerWithdraw()":"7cc947d0","changeLotteryState(uint8)":"683e93e1","deposit(uint256)":"b6b55f25","deposits(address)":"fc7e286d","endLottery()":"1593a8c7","fulfillRandomness(uint256,bytes)":"b3f6b99a","getDepositedAmount(address)":"e9081ec7","getParticipants()":"5aa68ac0","getWinners()":"df15c37e","hasMinted(address)":"38e21cce","initialize((address,address,address,uint256,uint256,address,address,address))":"5a6838c5","initialized()":"158ef93e","isTrustedForwarder(address)":"572b6c05","isWinner(address)":"9d9ca28d","lotteryState()":"6939864b","minimumDepositAmount()":"080c279a","mintMyNFT()":"26170480","multisigWalletAddress()":"a61fb2ba","nftContractAddr()":"2c23ec8e","numberOfTickets()":"45745c10","operatorAddr()":"f3f18c37","owner()":"8da5cb5b","randomNumber()":"ccbac9f5","renounceOwnership()":"715018a6","requestPending(uint256)":"75ce7fff","requestRandomness()":"f8413b07","requestedHash(uint256)":"c4f8f27b","selectWinners()":"1a0de74c","seller()":"08551a53","sellerWithdraw()":"66af746b","setMinimumDepositAmount(uint256)":"aab483d6","setMultisigWalletAddress(address)":"60d50da3","setNftContractAddr(address)":"3644c27c","setNumberOfTickets(uint256)":"99bd69d6","setSeller(address)":"e99d2866","setUsdcContractAddr(address)":"94d898de","startLottery()":"160344e2","transferNonWinnerDeposits(address)":"e63c4609","transferOwnership(address)":"f2fde38b","usdcContractAddr()":"99dbf4b5","winnerAddresses(uint256)":"045f9c97","winners(address)":"6bd5450a"},"id":5}