{"abi":[{"type":"function","name":"buyerWithdraw","inputs":[],"outputs":[],"stateMutability":"nonpayable"},{"type":"function","name":"changeLotteryState","inputs":[{"name":"_newState","type":"uint8","internalType":"enum LotteryV1Base.LotteryState"}],"outputs":[],"stateMutability":"nonpayable"},{"type":"function","name":"deposit","inputs":[{"name":"amount","type":"uint256","internalType":"uint256"}],"outputs":[],"stateMutability":"payable"},{"type":"function","name":"deposits","inputs":[{"name":"","type":"address","internalType":"address"}],"outputs":[{"name":"","type":"uint256","internalType":"uint256"}],"stateMutability":"view"},{"type":"function","name":"endLottery","inputs":[],"outputs":[],"stateMutability":"nonpayable"},{"type":"function","name":"fulfillRandomness","inputs":[{"name":"randomness","type":"uint256","internalType":"uint256"},{"name":"dataWithRound","type":"bytes","internalType":"bytes"}],"outputs":[],"stateMutability":"nonpayable"},{"type":"function","name":"getDepositedAmount","inputs":[{"name":"participant","type":"address","internalType":"address"}],"outputs":[{"name":"","type":"uint256","internalType":"uint256"}],"stateMutability":"view"},{"type":"function","name":"getEligibleParticipants","inputs":[],"outputs":[{"name":"","type":"address[]","internalType":"address[]"}],"stateMutability":"view"},{"type":"function","name":"getParticipants","inputs":[],"outputs":[{"name":"","type":"address[]","internalType":"address[]"}],"stateMutability":"view"},{"type":"function","name":"getWinners","inputs":[],"outputs":[{"name":"","type":"address[]","internalType":"address[]"}],"stateMutability":"view"},{"type":"function","name":"hasMinted","inputs":[{"name":"","type":"address","internalType":"address"}],"outputs":[{"name":"","type":"bool","internalType":"bool"}],"stateMutability":"view"},{"type":"function","name":"initialize","inputs":[{"name":"config","type":"tuple","internalType":"struct StructsLibrary.ILotteryBaseConfig","components":[{"name":"_seller","type":"address","internalType":"address"},{"name":"_gelatoVrfOperator","type":"address","internalType":"address"},{"name":"_blessedOperator","type":"address","internalType":"address"},{"name":"_owner","type":"address","internalType":"address"},{"name":"_ticketAmount","type":"uint256","internalType":"uint256"},{"name":"_ticketPrice","type":"uint256","internalType":"uint256"},{"name":"_usdcContractAddr","type":"address","internalType":"address"},{"name":"_multisigWalletAddress","type":"address","internalType":"address"},{"name":"_prevPhaseContractAddr","type":"address","internalType":"address"}]}],"outputs":[],"stateMutability":"nonpayable"},{"type":"function","name":"initialized","inputs":[],"outputs":[{"name":"","type":"bool","internalType":"bool"}],"stateMutability":"view"},{"type":"function","name":"isParticipantEligible","inputs":[{"name":"participant","type":"address","internalType":"address"}],"outputs":[{"name":"","type":"bool","internalType":"bool"}],"stateMutability":"view"},{"type":"function","name":"isTrustedForwarder","inputs":[{"name":"forwarder","type":"address","internalType":"address"}],"outputs":[{"name":"","type":"bool","internalType":"bool"}],"stateMutability":"view"},{"type":"function","name":"isWinner","inputs":[{"name":"_participant","type":"address","internalType":"address"}],"outputs":[{"name":"","type":"bool","internalType":"bool"}],"stateMutability":"view"},{"type":"function","name":"lotteryState","inputs":[],"outputs":[{"name":"","type":"uint8","internalType":"enum LotteryV1Base.LotteryState"}],"stateMutability":"view"},{"type":"function","name":"minimumDepositAmount","inputs":[],"outputs":[{"name":"","type":"uint256","internalType":"uint256"}],"stateMutability":"view"},{"type":"function","name":"mintMyNFT","inputs":[],"outputs":[],"stateMutability":"nonpayable"},{"type":"function","name":"multisigWalletAddress","inputs":[],"outputs":[{"name":"","type":"address","internalType":"address"}],"stateMutability":"view"},{"type":"function","name":"nftContractAddr","inputs":[],"outputs":[{"name":"","type":"address","internalType":"address"}],"stateMutability":"view"},{"type":"function","name":"numberOfTickets","inputs":[],"outputs":[{"name":"","type":"uint256","internalType":"uint256"}],"stateMutability":"view"},{"type":"function","name":"operatorAddr","inputs":[],"outputs":[{"name":"","type":"address","internalType":"address"}],"stateMutability":"view"},{"type":"function","name":"owner","inputs":[],"outputs":[{"name":"","type":"address","internalType":"address"}],"stateMutability":"view"},{"type":"function","name":"randomNumber","inputs":[],"outputs":[{"name":"","type":"uint256","internalType":"uint256"}],"stateMutability":"view"},{"type":"function","name":"renounceOwnership","inputs":[],"outputs":[],"stateMutability":"nonpayable"},{"type":"function","name":"requestPending","inputs":[{"name":"","type":"uint256","internalType":"uint256"}],"outputs":[{"name":"","type":"bool","internalType":"bool"}],"stateMutability":"view"},{"type":"function","name":"requestRandomness","inputs":[],"outputs":[],"stateMutability":"nonpayable"},{"type":"function","name":"requestedHash","inputs":[{"name":"","type":"uint256","internalType":"uint256"}],"outputs":[{"name":"","type":"bytes32","internalType":"bytes32"}],"stateMutability":"view"},{"type":"function","name":"selectWinners","inputs":[],"outputs":[],"stateMutability":"nonpayable"},{"type":"function","name":"seller","inputs":[],"outputs":[{"name":"","type":"address","internalType":"address"}],"stateMutability":"view"},{"type":"function","name":"sellerWithdraw","inputs":[],"outputs":[],"stateMutability":"nonpayable"},{"type":"function","name":"setMinimumDepositAmount","inputs":[{"name":"_amount","type":"uint256","internalType":"uint256"}],"outputs":[],"stateMutability":"nonpayable"},{"type":"function","name":"setMultisigWalletAddress","inputs":[{"name":"_multisigWalletAddress","type":"address","internalType":"address"}],"outputs":[],"stateMutability":"nonpayable"},{"type":"function","name":"setNftContractAddr","inputs":[{"name":"_nftContractAddr","type":"address","internalType":"address"}],"outputs":[],"stateMutability":"nonpayable"},{"type":"function","name":"setNumberOfTickets","inputs":[{"name":"_numberOfTickets","type":"uint256","internalType":"uint256"}],"outputs":[],"stateMutability":"nonpayable"},{"type":"function","name":"setSeller","inputs":[{"name":"_seller","type":"address","internalType":"address"}],"outputs":[],"stateMutability":"nonpayable"},{"type":"function","name":"setUsdcContractAddr","inputs":[{"name":"_usdcContractAddr","type":"address","internalType":"address"}],"outputs":[],"stateMutability":"nonpayable"},{"type":"function","name":"startLottery","inputs":[],"outputs":[],"stateMutability":"nonpayable"},{"type":"function","name":"transferNonWinnerDeposits","inputs":[{"name":"lotteryV2addr","type":"address","internalType":"address"}],"outputs":[],"stateMutability":"nonpayable"},{"type":"function","name":"transferOwnership","inputs":[{"name":"newOwner","type":"address","internalType":"address"}],"outputs":[],"stateMutability":"nonpayable"},{"type":"function","name":"usdcContractAddr","inputs":[],"outputs":[{"name":"","type":"address","internalType":"address"}],"stateMutability":"view"},{"type":"function","name":"winnerAddresses","inputs":[{"name":"","type":"uint256","internalType":"uint256"}],"outputs":[{"name":"","type":"address","internalType":"address"}],"stateMutability":"view"},{"type":"function","name":"winners","inputs":[{"name":"","type":"address","internalType":"address"}],"outputs":[{"name":"","type":"bool","internalType":"bool"}],"stateMutability":"view"},{"type":"event","name":"LotteryEnded","inputs":[],"anonymous":false},{"type":"event","name":"LotteryStarted","inputs":[],"anonymous":false},{"type":"event","name":"OwnershipTransferred","inputs":[{"name":"previousOwner","type":"address","indexed":true,"internalType":"address"},{"name":"newOwner","type":"address","indexed":true,"internalType":"address"}],"anonymous":false},{"type":"event","name":"RandomFullfiled","inputs":[{"name":"number","type":"uint256","indexed":false,"internalType":"uint256"}],"anonymous":false},{"type":"event","name":"RandomRequested","inputs":[{"name":"requester","type":"address","indexed":true,"internalType":"address"}],"anonymous":false},{"type":"event","name":"RequestedRandomness","inputs":[{"name":"round","type":"uint256","indexed":false,"internalType":"uint256"},{"name":"data","type":"bytes","indexed":false,"internalType":"bytes"}],"anonymous":false},{"type":"event","name":"WinnerSelected","inputs":[{"name":"winner","type":"address","indexed":true,"internalType":"address"}],"anonymous":false},{"type":"error","name":"OwnableInvalidOwner","inputs":[{"name":"owner","type":"address","internalType":"address"}]},{"type":"error","name":"OwnableUnauthorizedAccount","inputs":[{"name":"account","type":"address","internalType":"address"}]}],"bytecode":{"object":"0x60a06040526002805460ff60a01b1916905534801561001d57600080fd5b5073d8253782c45a12053594b9deb72d8e8ab2fca54c338061005957604051631e4fbdf760e01b81526000600482015260240160405180910390fd5b61006281610074565b506001600160a01b03166080526100c6565b600280546001600160a01b038381166001600160a01b0319831681179093556040519116919082907f8be0079c531659141344cd1fd0a4f28419497f9722a3daafe3b4186f6b6457e090600090a35050565b608051612afe6100e860003960008181610417015261246b0152612afe6000f3fe6080604052600436106102675760003560e01c80638a6723e611610144578063c4f8f27b116100b6578063e9081ec71161007a578063e9081ec71461075d578063e99d286614610793578063f2fde38b146107b3578063f3f18c37146107d3578063f8413b07146107f3578063fc7e286d1461080857600080fd5b8063c4f8f27b146106c5578063ccbac9f5146106f2578063cf54d3b814610708578063df15c37e14610728578063e63c46091461073d57600080fd5b80639abdccd1116101085780639abdccd1146106045780639d9ca28d14610619578063a61fb2ba14610652578063aab483d614610672578063b3f6b99a14610692578063b6b55f25146106b257600080fd5b80638a6723e6146105665780638da5cb5b1461058657806394d898de146105a457806399bd69d6146105c457806399dbf4b5146105e457600080fd5b806345745c10116101dd578063683e93e1116101a1578063683e93e11461049e5780636939864b146104be5780636bd5450a146104ec578063715018a61461051c57806375ce7fff146105315780637cc947d01461055157600080fd5b806345745c10146103e4578063572b6c05146103fa5780635aa68ac01461044757806360d50da31461046957806366af746b1461048957600080fd5b8063160344e21161022f578063160344e2146103355780631a0de74c1461034a578063261704801461035f5780632c23ec8e146103745780633644c27c1461039457806338e21cce146103b457600080fd5b8063045f9c971461026c578063080c279a146102a957806308551a53146102cd578063158ef93e146102ed5780631593a8c71461031e575b600080fd5b34801561027857600080fd5b5061028c610287366004612534565b610835565b6040516001600160a01b0390911681526020015b60405180910390f35b3480156102b557600080fd5b506102bf60065481565b6040519081526020016102a0565b3480156102d957600080fd5b5060045461028c906001600160a01b031681565b3480156102f957600080fd5b5060025461030e90600160a01b900460ff1681565b60405190151581526020016102a0565b34801561032a57600080fd5b5061033361085f565b005b34801561034157600080fd5b506103336108ae565b34801561035657600080fd5b5061033361095f565b34801561036b57600080fd5b50610333610e09565b34801561038057600080fd5b50600f5461028c906001600160a01b031681565b3480156103a057600080fd5b506103336103af366004612569565b610fd0565b3480156103c057600080fd5b5061030e6103cf366004612569565b600a6020526000908152604090205460ff1681565b3480156103f057600080fd5b506102bf60075481565b34801561040657600080fd5b5061030e610415366004612569565b7f00000000000000000000000000000000000000000000000000000000000000006001600160a01b0390811691161490565b34801561045357600080fd5b5061045c610ffa565b6040516102a0919061258b565b34801561047557600080fd5b50610333610484366004612569565b61105c565b34801561049557600080fd5b50610333611086565b3480156104aa57600080fd5b506103336104b93660046125d8565b6112ba565b3480156104ca57600080fd5b506002546104df90600160a81b900460ff1681565b6040516102a0919061260f565b3480156104f857600080fd5b5061030e610507366004612569565b600c6020526000908152604090205460ff1681565b34801561052857600080fd5b50610333611321565b34801561053d57600080fd5b5061030e61054c366004612534565b611333565b34801561055d57600080fd5b50610333611367565b34801561057257600080fd5b5061030e610581366004612569565b61156f565b34801561059257600080fd5b506002546001600160a01b031661028c565b3480156105b057600080fd5b506103336105bf366004612569565b6115ce565b3480156105d057600080fd5b506103336105df366004612534565b6115f8565b3480156105f057600080fd5b5060105461028c906001600160a01b031681565b34801561061057600080fd5b5061045c61169b565b34801561062557600080fd5b5061030e610634366004612569565b6001600160a01b03166000908152600c602052604090205460ff1690565b34801561065e57600080fd5b5060035461028c906001600160a01b031681565b34801561067e57600080fd5b5061033361068d366004612534565b6116fb565b34801561069e57600080fd5b506103336106ad366004612637565b61173a565b6103336106c0366004612534565b61190e565b3480156106d157600080fd5b506102bf6106e0366004612534565b60016020526000908152604090205481565b3480156106fe57600080fd5b506102bf60085481565b34801561071457600080fd5b50610333610723366004612724565b611c21565b34801561073457600080fd5b5061045c611d12565b34801561074957600080fd5b50610333610758366004612569565b611d72565b34801561076957600080fd5b506102bf610778366004612569565b6001600160a01b03166000908152600b602052604090205490565b34801561079f57600080fd5b506103336107ae366004612569565b61200b565b3480156107bf57600080fd5b506103336107ce366004612569565b612067565b3480156107df57600080fd5b5060055461028c906001600160a01b031681565b3480156107ff57600080fd5b506103336120a5565b34801561081457600080fd5b506102bf610823366004612569565b600b6020526000908152604090205481565b600d818154811061084557600080fd5b6000918252602090912001546001600160a01b0316905081565b6004546001600160a01b0316610873612153565b6001600160a01b0316146108a25760405162461bcd60e51b8152600401610899906127cc565b60405180910390fd5b6108ac60026112ba565b565b6004546001600160a01b03166108c2612153565b6001600160a01b0316146108e85760405162461bcd60e51b8152600401610899906127cc565b6000600254600160a81b900460ff166004811115610908576109086125f9565b146109555760405162461bcd60e51b815260206004820152601a60248201527f4c6f747465727920697320696e206163746976652073746174650000000000006044820152606401610899565b6108ac60016112ba565b6004546001600160a01b0316610973612153565b6001600160a01b0316146109995760405162461bcd60e51b8152600401610899906127cc565b6001600254600160a81b900460ff1660048111156109b9576109b96125f9565b146109fe5760405162461bcd60e51b81526020600482015260156024820152744c6f7474657279206973206e6f742061637469766560581b6044820152606401610899565b600060075411610a505760405162461bcd60e51b815260206004820152601b60248201527f4e6f207469636b657473206c65667420746f20616c6c6f6361746500000000006044820152606401610899565b610a58612162565b60095460075410610b205760005b600954811015610b0957600060098281548110610a8557610a8561280e565b6000918252602090912001546001600160a01b03169050610abe816001600160a01b03166000908152600c602052604090205460ff1690565b610b0057610acb81612213565b6040516001600160a01b038216907f1d4c260f1824cd028e6c9e6e31c3a0b94f2513e7a641113ec759d382f9bdd5a190600090a25b50600101610a66565b50610b1660096000612502565b6000600755610dc1565b60005b600954811015610c3b57600954600090610b3e90839061283a565b600854610b4b9190612869565b610b55908361287d565b9050600060098281548110610b6c57610b6c61280e565b600091825260209091200154600980546001600160a01b0390921692509084908110610b9a57610b9a61280e565b600091825260209091200154600980546001600160a01b039092169184908110610bc657610bc661280e565b9060005260206000200160006101000a8154816001600160a01b0302191690836001600160a01b031602179055508060098481548110610c0857610c0861280e565b600091825260209091200180546001600160a01b0319166001600160a01b03929092169190911790555050600101610b23565b5060005b600754811015610ce257600060098281548110610c5e57610c5e61280e565b6000918252602090912001546001600160a01b03169050610c97816001600160a01b03166000908152600c602052604090205460ff1690565b610cd957610ca481612213565b6040516001600160a01b038216907f1d4c260f1824cd028e6c9e6e31c3a0b94f2513e7a641113ec759d382f9bdd5a190600090a25b50600101610c3f565b506007546000905b600954811015610d715760098181548110610d0757610d0761280e565b600091825260209091200154600980546001600160a01b039092169184908110610d3357610d3361280e565b600091825260209091200180546001600160a01b0319166001600160a01b039290921691909117905581610d6681612890565b925050600101610cea565b50805b600954811015610db9576009805480610d8f57610d8f6128a9565b600082815260209020810160001990810180546001600160a01b0319169055019055600101610d74565b505060006007555b6007546000036108ac576040517f9c89a6ed7228533196a3f962acc80d61a9c53bdea6b910741bf754f5aaa7569e90600090a16002805460ff60a81b1916600160a91b179055565b600a6000610e15612153565b6001600160a01b0316815260208101919091526040016000205460ff1615610e745760405162461bcd60e51b815260206004820152601260248201527113919508185b1c9958591e481b5a5b9d195960721b6044820152606401610899565b60028054600160a81b900460ff166004811115610e9357610e936125f9565b14610edb5760405162461bcd60e51b8152602060048201526018602482015277131bdd1d195c9e481a5cc81b9bdd08195b991959081e595d60421b6044820152606401610899565b610ee6610634612153565b610f2b5760405162461bcd60e51b815260206004820152601660248201527521b0b63632b91034b9903737ba1030903bb4b73732b960511b6044820152606401610899565b6001600a6000610f39612153565b6001600160a01b0390811682526020820192909252604001600020805460ff191692151592909217909155600f5416636b8f60f6610f75612153565b6040516001600160e01b031960e084901b1681526001600160a01b039091166004820152602401600060405180830381600087803b158015610fb657600080fd5b505af1158015610fca573d6000803e3d6000fd5b50505050565b610fd8612279565b600f80546001600160a01b0319166001600160a01b0392909216919091179055565b6060600e80548060200260200160405190810160405280929190818152602001828054801561105257602002820191906000526020600020905b81546001600160a01b03168152600190910190602001808311611034575b5050505050905090565b611064612279565b600380546001600160a01b0319166001600160a01b0392909216919091179055565b6004546001600160a01b031661109a612153565b6001600160a01b0316146110c05760405162461bcd60e51b8152600401610899906127cc565b60028054600160a81b900460ff1660048111156110df576110df6125f9565b146111205760405162461bcd60e51b8152602060048201526011602482015270131bdd1d195c9e481b9bdd08195b991959607a1b6044820152606401610899565b6000805b600d54811015611199576000600d82815481106111435761114361280e565b60009182526020808320909101546001600160a01b0316808352600b909152604090912054909150611175908461287d565b6001600160a01b039091166000908152600b60205260408120559150600101611124565b50600060646111a98360056128bf565b6111b391906128d6565b905060006111c1828461283a565b60105460035460405163a9059cbb60e01b81526001600160a01b03918216600482015260248101869052929350169063a9059cbb906044016020604051808303816000875af1158015611218573d6000803e3d6000fd5b505050506040513d601f19601f8201168201806040525081019061123c91906128ea565b506010546004805460405163a9059cbb60e01b81526001600160a01b0391821692810192909252602482018490529091169063a9059cbb906044016020604051808303816000875af1158015611296573d6000803e3d6000fd5b505050506040513d601f19601f82011682018060405250810190610fca91906128ea565b6004546001600160a01b03166112ce612153565b6001600160a01b0316146112f45760405162461bcd60e51b8152600401610899906127cc565b6002805482919060ff60a81b1916600160a81b836004811115611319576113196125f9565b021790555050565b611329612279565b6108ac60006122d7565b6000818154811061134357600080fd5b9060005260206000209060209182820401919006915054906101000a900460ff1681565b60028054600160a81b900460ff166004811115611386576113866125f9565b146113ce5760405162461bcd60e51b8152602060048201526018602482015277131bdd1d195c9e481a5cc81b9bdd08195b991959081e595d60421b6044820152606401610899565b600c60006113da612153565b6001600160a01b0316815260208101919091526040016000205460ff16156114445760405162461bcd60e51b815260206004820152601760248201527f57696e6e6572732063616e6e6f742077697468647261770000000000000000006044820152606401610899565b6000600b6000611452612153565b6001600160a01b03166001600160a01b03168152602001908152602001600020549050600081116114bc5760405162461bcd60e51b81526020600482015260146024820152734e6f2066756e647320746f20776974686472617760601b6044820152606401610899565b6000600b60006114ca612153565b6001600160a01b0390811682526020820192909252604001600020919091556010541663a9059cbb6114fa612153565b6040516001600160e01b031960e084901b1681526001600160a01b039091166004820152602481018490526044016020604051808303816000875af1158015611547573d6000803e3d6000fd5b505050506040513d601f19601f8201168201806040525081019061156b91906128ea565b5050565b6000805b6009548110156115c557826001600160a01b03166009828154811061159a5761159a61280e565b6000918252602090912001546001600160a01b0316036115bd5750600192915050565b600101611573565b50600092915050565b6115d6612279565b601080546001600160a01b0319166001600160a01b0392909216919091179055565b6004546001600160a01b031661160c612153565b6001600160a01b0316146116325760405162461bcd60e51b8152600401610899906127cc565b600081116116965760405162461bcd60e51b815260206004820152602b60248201527f4e756d626572206f66207469636b657473206d7573742062652067726561746560448201526a72207468616e207a65726f60a81b6064820152608401610899565b600755565b60606009805480602002602001604051908101604052809291908181526020018280548015611052576020028201919060005260206000209081546001600160a01b03168152600190910190602001808311611034575050505050905090565b6004546001600160a01b031661170f612153565b6001600160a01b0316146117355760405162461bcd60e51b8152600401610899906127cc565b600655565b6005546001600160a01b031633146117845760405162461bcd60e51b815260206004820152600d60248201526c37b7363c9037b832b930ba37b960991b6044820152606401610899565b600061179282840184612934565b915050600080828060200190518101906117ac91906129e2565b91509150600085856040516117c2929190612a65565b60408051918290039091206000858152600160205291822054825491935083149190859081106117f4576117f461280e565b90600052602060002090602091828204019190069054906101000a900460ff166118605760405162461bcd60e51b815260206004820152601c60248201527f726571756573742066756c66696c6c6564206f72206d697373696e67000000006044820152606401610899565b80156119045760408051602081018a905230918101919091524660608201526080810185905260a0016040516020818303038152906040528051906020012060001c97506118af888585612329565b60008085815481106118c3576118c361280e565b90600052602060002090602091828204019190066101000a81548160ff02191690831515021790555060016000858152602001908152602001600020600090555b5050505050505050565b6001600254600160a81b900460ff16600481111561192e5761192e6125f9565b146119735760405162461bcd60e51b81526020600482015260156024820152744c6f7474657279206973206e6f742061637469766560581b6044820152606401610899565b6010546001600160a01b03166119cb5760405162461bcd60e51b815260206004820152601d60248201527f5553444320636f6e74726163742061646472657373206e6f74207365740000006044820152606401610899565b60008111611a0b5760405162461bcd60e51b815260206004820152600d60248201526c139bc8199d5b991cc81cd95b9d609a1b6044820152606401610899565b60105481906001600160a01b031663dd62ed3e611a26612153565b6040516001600160e01b031960e084901b1681526001600160a01b039091166004820152306024820152604401602060405180830381865afa158015611a70573d6000803e3d6000fd5b505050506040513d601f19601f82011682018060405250810190611a949190612a75565b1015611adb5760405162461bcd60e51b8152602060048201526016602482015275496e73756666696369656e7420616c6c6f77616e636560501b6044820152606401610899565b6010546001600160a01b03166323b872dd611af4612153565b6040516001600160e01b031960e084901b1681526001600160a01b039091166004820152306024820152604481018490526064016020604051808303816000875af1158015611b47573d6000803e3d6000fd5b505050506040513d601f19601f82011682018060405250810190611b6b91906128ea565b50600b6000611b78612153565b6001600160a01b03166001600160a01b0316815260200190815260200160002054600003611bdd57600e611baa612153565b81546001810183556000928352602090922090910180546001600160a01b0319166001600160a01b039092169190911790555b80600b6000611bea612153565b6001600160a01b03166001600160a01b031681526020019081526020016000206000828254611c19919061287d565b909155505050565b600254600160a01b900460ff1615611c715760405162461bcd60e51b8152602060048201526013602482015272105b1c9958591e481a5b9a5d1a585b1a5e9959606a1b6044820152606401610899565b6040810151600480546001600160a01b039283166001600160a01b0319918216179091556020830151600580549190931691161790556060810151611cb5906122d7565b608081015160075560a081015160065560c0810151601080546001600160a01b03199081166001600160a01b039384161790915560e09092015160038054909316911617905560028054600160a01b60ff60a01b19909116179055565b6060600d805480602002602001604051908101604052809291908181526020018280548015611052576020028201919060005260206000209081546001600160a01b03168152600190910190602001808311611034575050505050905090565b6004546001600160a01b0316611d86612153565b6001600160a01b031614611dac5760405162461bcd60e51b8152600401610899906127cc565b60005b600e5481101561156b576000600b6000600e8481548110611dd257611dd261280e565b60009182526020808320909101546001600160a01b03168352820192909252604001812054600e8054919350600b9183919086908110611e1457611e1461280e565b6000918252602080832091909101546001600160a01b039081168452908301939093526040918201902092909255601054915163a9059cbb60e01b815285821660048201526024810184905291169063a9059cbb906044016020604051808303816000875af1158015611e8b573d6000803e3d6000fd5b505050506040513d601f19601f82011682018060405250810190611eaf91906128ea565b50826001600160a01b03166350f3dbec600e8481548110611ed257611ed261280e565b60009182526020909120015460405160e083901b6001600160e01b03191681526001600160a01b03909116600482015260248101849052604401600060405180830381600087803b158015611f2657600080fd5b505af1158015611f3a573d6000803e3d6000fd5b5050600e54611f4d92506001915061283a565b821015611fcf57600e8054611f649060019061283a565b81548110611f7457611f7461280e565b600091825260209091200154600e80546001600160a01b039092169184908110611fa057611fa061280e565b9060005260206000200160006101000a8154816001600160a01b0302191690836001600160a01b031602179055505b600e805480611fe057611fe06128a9565b600082815260209020810160001990810180546001600160a01b031916905501905550600101611daf565b6004546001600160a01b031661201f612153565b6001600160a01b0316146120455760405162461bcd60e51b8152600401610899906127cc565b600480546001600160a01b0319166001600160a01b0392909216919091179055565b61206f612279565b6001600160a01b03811661209957604051631e4fbdf760e01b815260006004820152602401610899565b6120a2816122d7565b50565b6004546001600160a01b03166120b9612153565b6001600160a01b0316146120df5760405162461bcd60e51b8152600401610899906127cc565b6121136120ea612153565b604080516001600160a01b03909216602083015201604051602081830303815290604052612366565b5061211c612153565b6001600160a01b03167fd802e7c7f1646e3318c03abed1e468bdf913f45331a68dc912a0d645eb646a4260405160405180910390a2565b600061215d612467565b905090565b60005b600e548110156120a2576000600b6000600e84815481106121885761218861280e565b60009182526020808320909101546001600160a01b03168352820192909252604001902054600654909150811061220a576009600e83815481106121ce576121ce61280e565b60009182526020808320909101548354600181018555938352912090910180546001600160a01b0319166001600160a01b039092169190911790555b50600101612165565b6001600160a01b03166000818152600c60205260408120805460ff19166001908117909155600d805491820181559091527fd7b6990105719101dabeb77144f2a3385c8033acd3af97e9423a695e81ad1eb50180546001600160a01b0319169091179055565b612281612153565b6001600160a01b031661229c6002546001600160a01b031690565b6001600160a01b0316146108ac576122b2612153565b60405163118cdaa760e01b81526001600160a01b039091166004820152602401610899565b600280546001600160a01b038381166001600160a01b0319831681179093556040519116919082907f8be0079c531659141344cd1fd0a4f28419497f9722a3daafe3b4186f6b6457e090600090a35050565b60088390556040518381527fa2353d33775668d31add0688b8ed09ca3a91dc8129126fcdbcbda3a887db60db9060200160405180910390a1505050565b60008054600180820180845583805291929091839081106123895761238961280e565b90600052602060002090602091828204019190066101000a81548160ff021916908315150217905550600081836040516020016123c7929190612a8e565b604051602081830303815290604052905060006123e26124ab565b9050600081836040516020016123f9929190612a8e565b60408051601f198184030181528282528051602080830191909120600089815260019092529290208290559250907fd91fc3685b930310b008ec37d2334870cab88a023ed8cc628a2e2ccd4e55d202906124569085908790612a8e565b60405180910390a150505050919050565b60007f00000000000000000000000000000000000000000000000000000000000000006001600160a01b031633036124a6575060131936013560601c90565b503390565b6000806124bc6364e621274261283a565b905060006124cb6003836128d6565b6124d690600161287d565b9050466001146124f0576124eb81600161287d565b6124fb565b6124fb81600461287d565b9250505090565b50805460008255906000526020600020908101906120a291905b80821115612530576000815560010161251c565b5090565b60006020828403121561254657600080fd5b5035919050565b80356001600160a01b038116811461256457600080fd5b919050565b60006020828403121561257b57600080fd5b6125848261254d565b9392505050565b6020808252825182820181905260009190848201906040850190845b818110156125cc5783516001600160a01b0316835292840192918401916001016125a7565b50909695505050505050565b6000602082840312156125ea57600080fd5b81356005811061258457600080fd5b634e487b7160e01b600052602160045260246000fd5b602081016005831061263157634e487b7160e01b600052602160045260246000fd5b91905290565b60008060006040848603121561264c57600080fd5b83359250602084013567ffffffffffffffff8082111561266b57600080fd5b818601915086601f83011261267f57600080fd5b81358181111561268e57600080fd5b8760208285010111156126a057600080fd5b6020830194508093505050509250925092565b634e487b7160e01b600052604160045260246000fd5b604051610120810167ffffffffffffffff811182821017156126ed576126ed6126b3565b60405290565b604051601f8201601f1916810167ffffffffffffffff8111828210171561271c5761271c6126b3565b604052919050565b6000610120828403121561273757600080fd5b61273f6126c9565b6127488361254d565b81526127566020840161254d565b60208201526127676040840161254d565b60408201526127786060840161254d565b60608201526080830135608082015260a083013560a082015261279d60c0840161254d565b60c08201526127ae60e0840161254d565b60e08201526101006127c181850161254d565b908201529392505050565b60208082526022908201527f4f6e6c792073656c6c65722063616e2063616c6c20746869732066756e63746960408201526137b760f11b606082015260800190565b634e487b7160e01b600052603260045260246000fd5b634e487b7160e01b600052601160045260246000fd5b8181038181111561284d5761284d612824565b92915050565b634e487b7160e01b600052601260045260246000fd5b60008261287857612878612853565b500690565b8082018082111561284d5761284d612824565b6000600182016128a2576128a2612824565b5060010190565b634e487b7160e01b600052603160045260246000fd5b808202811582820484141761284d5761284d612824565b6000826128e5576128e5612853565b500490565b6000602082840312156128fc57600080fd5b8151801515811461258457600080fd5b600067ffffffffffffffff821115612926576129266126b3565b50601f01601f191660200190565b6000806040838503121561294757600080fd5b82359150602083013567ffffffffffffffff81111561296557600080fd5b8301601f8101851361297657600080fd5b80356129896129848261290c565b6126f3565b81815286602083850101111561299e57600080fd5b816020840160208301376000602083830101528093505050509250929050565b60005b838110156129d95781810151838201526020016129c1565b50506000910152565b600080604083850312156129f557600080fd5b82519150602083015167ffffffffffffffff811115612a1357600080fd5b8301601f81018513612a2457600080fd5b8051612a326129848261290c565b818152866020838501011115612a4757600080fd5b612a588260208301602086016129be565b8093505050509250929050565b8183823760009101908152919050565b600060208284031215612a8757600080fd5b5051919050565b8281526040602082015260008251806040840152612ab38160608501602087016129be565b601f01601f191691909101606001939250505056fea2646970667358221220fbee12c1d542ce3de125af12e56f3a10fd7d89cb7144f30cec390b8fd3f7351e64736f6c63430008190033","linkReferences":{}},"methodIdentifiers":{"buyerWithdraw()":"7cc947d0","changeLotteryState(uint8)":"683e93e1","deposit(uint256)":"b6b55f25","deposits(address)":"fc7e286d","endLottery()":"1593a8c7","fulfillRandomness(uint256,bytes)":"b3f6b99a","getDepositedAmount(address)":"e9081ec7","getEligibleParticipants()":"9abdccd1","getParticipants()":"5aa68ac0","getWinners()":"df15c37e","hasMinted(address)":"38e21cce","initialize((address,address,address,address,uint256,uint256,address,address,address))":"cf54d3b8","initialized()":"158ef93e","isParticipantEligible(address)":"8a6723e6","isTrustedForwarder(address)":"572b6c05","isWinner(address)":"9d9ca28d","lotteryState()":"6939864b","minimumDepositAmount()":"080c279a","mintMyNFT()":"26170480","multisigWalletAddress()":"a61fb2ba","nftContractAddr()":"2c23ec8e","numberOfTickets()":"45745c10","operatorAddr()":"f3f18c37","owner()":"8da5cb5b","randomNumber()":"ccbac9f5","renounceOwnership()":"715018a6","requestPending(uint256)":"75ce7fff","requestRandomness()":"f8413b07","requestedHash(uint256)":"c4f8f27b","selectWinners()":"1a0de74c","seller()":"08551a53","sellerWithdraw()":"66af746b","setMinimumDepositAmount(uint256)":"aab483d6","setMultisigWalletAddress(address)":"60d50da3","setNftContractAddr(address)":"3644c27c","setNumberOfTickets(uint256)":"99bd69d6","setSeller(address)":"e99d2866","setUsdcContractAddr(address)":"94d898de","startLottery()":"160344e2","transferNonWinnerDeposits(address)":"e63c4609","transferOwnership(address)":"f2fde38b","usdcContractAddr()":"99dbf4b5","winnerAddresses(uint256)":"045f9c97","winners(address)":"6bd5450a"},"id":5}