{"abi":[{"type":"function","name":"buyerWithdraw","inputs":[],"outputs":[],"stateMutability":"nonpayable"},{"type":"function","name":"changeLotteryState","inputs":[{"name":"_newState","type":"uint8","internalType":"enum SaleBase.LotteryState"}],"outputs":[],"stateMutability":"nonpayable"},{"type":"function","name":"claimNumber","inputs":[{"name":"_participant","type":"address","internalType":"address"}],"outputs":[{"name":"","type":"bool","internalType":"bool"}],"stateMutability":"nonpayable"},{"type":"function","name":"deposit","inputs":[{"name":"amount","type":"uint256","internalType":"uint256"}],"outputs":[],"stateMutability":"nonpayable"},{"type":"function","name":"deposits","inputs":[{"name":"","type":"address","internalType":"address"}],"outputs":[{"name":"","type":"uint256","internalType":"uint256"}],"stateMutability":"view"},{"type":"function","name":"endLottery","inputs":[],"outputs":[],"stateMutability":"nonpayable"},{"type":"function","name":"fulfillRandomness","inputs":[{"name":"randomness","type":"uint256","internalType":"uint256"},{"name":"dataWithRound","type":"bytes","internalType":"bytes"}],"outputs":[],"stateMutability":"nonpayable"},{"type":"function","name":"getDepositedAmount","inputs":[{"name":"participant","type":"address","internalType":"address"}],"outputs":[{"name":"","type":"uint256","internalType":"uint256"}],"stateMutability":"view"},{"type":"function","name":"getParticipants","inputs":[],"outputs":[{"name":"","type":"address[]","internalType":"address[]"}],"stateMutability":"view"},{"type":"function","name":"getRandomNumber","inputs":[],"outputs":[{"name":"","type":"uint256","internalType":"uint256"}],"stateMutability":"view"},{"type":"function","name":"getWinners","inputs":[],"outputs":[{"name":"","type":"address[]","internalType":"address[]"}],"stateMutability":"view"},{"type":"function","name":"hasMinted","inputs":[{"name":"","type":"address","internalType":"address"}],"outputs":[{"name":"","type":"bool","internalType":"bool"}],"stateMutability":"view"},{"type":"function","name":"initialize","inputs":[{"name":"config","type":"tuple","internalType":"struct StructsLibrary.ILotteryV2BaseConfig","components":[{"name":"_gelatoVrfOperator","type":"address","internalType":"address"},{"name":"_blessedOperator","type":"address","internalType":"address"},{"name":"_owner","type":"address","internalType":"address"},{"name":"_ticketAmount","type":"uint256","internalType":"uint256"},{"name":"_ticketPrice","type":"uint256","internalType":"uint256"},{"name":"_rollPrice","type":"uint256","internalType":"uint256"},{"name":"_rollTolerance","type":"uint256","internalType":"uint256"},{"name":"_usdcContractAddr","type":"address","internalType":"address"},{"name":"_nftContractAddr","type":"address","internalType":"address"},{"name":"_multisigWalletAddress","type":"address","internalType":"address"},{"name":"_prevPhaseContractAddr","type":"address","internalType":"address"}]}],"outputs":[],"stateMutability":"nonpayable"},{"type":"function","name":"isClaimable","inputs":[{"name":"_participant","type":"address","internalType":"address"}],"outputs":[{"name":"","type":"bool","internalType":"bool"}],"stateMutability":"view"},{"type":"function","name":"isTrustedForwarder","inputs":[{"name":"forwarder","type":"address","internalType":"address"}],"outputs":[{"name":"","type":"bool","internalType":"bool"}],"stateMutability":"view"},{"type":"function","name":"isWinner","inputs":[{"name":"_participant","type":"address","internalType":"address"}],"outputs":[{"name":"","type":"bool","internalType":"bool"}],"stateMutability":"view"},{"type":"function","name":"lotteryState","inputs":[],"outputs":[{"name":"","type":"uint8","internalType":"enum SaleBase.LotteryState"}],"stateMutability":"view"},{"type":"function","name":"lotteryV1Addr","inputs":[],"outputs":[{"name":"","type":"address","internalType":"address"}],"stateMutability":"view"},{"type":"function","name":"mintMyNFT","inputs":[],"outputs":[],"stateMutability":"nonpayable"},{"type":"function","name":"multisigWalletAddress","inputs":[],"outputs":[{"name":"","type":"address","internalType":"address"}],"stateMutability":"view"},{"type":"function","name":"nftContractAddr","inputs":[],"outputs":[{"name":"","type":"address","internalType":"address"}],"stateMutability":"view"},{"type":"function","name":"numberOfTickets","inputs":[],"outputs":[{"name":"","type":"uint256","internalType":"uint256"}],"stateMutability":"view"},{"type":"function","name":"operatorAddr","inputs":[],"outputs":[{"name":"","type":"address","internalType":"address"}],"stateMutability":"view"},{"type":"function","name":"owner","inputs":[],"outputs":[{"name":"","type":"address","internalType":"address"}],"stateMutability":"view"},{"type":"function","name":"randomNumber","inputs":[],"outputs":[{"name":"","type":"uint256","internalType":"uint256"}],"stateMutability":"view"},{"type":"function","name":"renounceOwnership","inputs":[],"outputs":[],"stateMutability":"nonpayable"},{"type":"function","name":"requestPending","inputs":[{"name":"","type":"uint256","internalType":"uint256"}],"outputs":[{"name":"","type":"bool","internalType":"bool"}],"stateMutability":"view"},{"type":"function","name":"requestRandomness","inputs":[],"outputs":[],"stateMutability":"nonpayable"},{"type":"function","name":"requestedHash","inputs":[{"name":"","type":"uint256","internalType":"uint256"}],"outputs":[{"name":"","type":"bytes32","internalType":"bytes32"}],"stateMutability":"view"},{"type":"function","name":"roll","inputs":[],"outputs":[],"stateMutability":"nonpayable"},{"type":"function","name":"rollPrice","inputs":[],"outputs":[{"name":"","type":"uint256","internalType":"uint256"}],"stateMutability":"view"},{"type":"function","name":"rollTolerance","inputs":[],"outputs":[{"name":"","type":"uint256","internalType":"uint256"}],"stateMutability":"view"},{"type":"function","name":"rolledNumbers","inputs":[{"name":"","type":"address","internalType":"address"}],"outputs":[{"name":"","type":"uint256","internalType":"uint256"}],"stateMutability":"view"},{"type":"function","name":"seller","inputs":[],"outputs":[{"name":"","type":"address","internalType":"address"}],"stateMutability":"view"},{"type":"function","name":"sellerWithdraw","inputs":[],"outputs":[],"stateMutability":"nonpayable"},{"type":"function","name":"setRandomNumber","inputs":[],"outputs":[],"stateMutability":"nonpayable"},{"type":"function","name":"setSeller","inputs":[{"name":"_seller","type":"address","internalType":"address"}],"outputs":[],"stateMutability":"nonpayable"},{"type":"function","name":"startLottery","inputs":[],"outputs":[],"stateMutability":"nonpayable"},{"type":"function","name":"ticketPrice","inputs":[],"outputs":[{"name":"","type":"uint256","internalType":"uint256"}],"stateMutability":"view"},{"type":"function","name":"transferDeposit","inputs":[{"name":"_participant","type":"address","internalType":"address"},{"name":"_amount","type":"uint256","internalType":"uint256"}],"outputs":[],"stateMutability":"nonpayable"},{"type":"function","name":"transferNonWinnerDeposits","inputs":[{"name":"auctionV1addr","type":"address","internalType":"address"}],"outputs":[],"stateMutability":"nonpayable"},{"type":"function","name":"transferOwnership","inputs":[{"name":"newOwner","type":"address","internalType":"address"}],"outputs":[],"stateMutability":"nonpayable"},{"type":"function","name":"usdcContractAddr","inputs":[],"outputs":[{"name":"","type":"address","internalType":"address"}],"stateMutability":"view"},{"type":"function","name":"winnerAddresses","inputs":[{"name":"","type":"uint256","internalType":"uint256"}],"outputs":[{"name":"","type":"address","internalType":"address"}],"stateMutability":"view"},{"type":"function","name":"winners","inputs":[{"name":"","type":"address","internalType":"address"}],"outputs":[{"name":"","type":"bool","internalType":"bool"}],"stateMutability":"view"},{"type":"event","name":"BuyerDeposited","inputs":[{"name":"buyer","type":"address","indexed":true,"internalType":"address"},{"name":"amount","type":"uint256","indexed":true,"internalType":"uint256"}],"anonymous":false},{"type":"event","name":"BuyerWithdrew","inputs":[{"name":"buyer","type":"address","indexed":true,"internalType":"address"},{"name":"amount","type":"uint256","indexed":true,"internalType":"uint256"}],"anonymous":false},{"type":"event","name":"DepositsReturned","inputs":[{"name":"returnedDepositsCount","type":"uint256","indexed":false,"internalType":"uint256"}],"anonymous":false},{"type":"event","name":"Initialized","inputs":[{"name":"version","type":"uint64","indexed":false,"internalType":"uint64"}],"anonymous":false},{"type":"event","name":"LotteryEnded","inputs":[],"anonymous":false},{"type":"event","name":"LotteryStarted","inputs":[],"anonymous":false},{"type":"event","name":"OwnershipTransferred","inputs":[{"name":"previousOwner","type":"address","indexed":true,"internalType":"address"},{"name":"newOwner","type":"address","indexed":true,"internalType":"address"}],"anonymous":false},{"type":"event","name":"RandomFulfilled","inputs":[{"name":"requester","type":"address","indexed":true,"internalType":"address"},{"name":"number","type":"uint256","indexed":false,"internalType":"uint256"}],"anonymous":false},{"type":"event","name":"RandomRequested","inputs":[{"name":"requester","type":"address","indexed":true,"internalType":"address"}],"anonymous":false},{"type":"event","name":"RequestedRandomness","inputs":[{"name":"round","type":"uint256","indexed":false,"internalType":"uint256"},{"name":"data","type":"bytes","indexed":false,"internalType":"bytes"}],"anonymous":false},{"type":"event","name":"WinnerSelected","inputs":[{"name":"winner","type":"address","indexed":true,"internalType":"address"}],"anonymous":false},{"type":"error","name":"InvalidInitialization","inputs":[]},{"type":"error","name":"NotInitializing","inputs":[]},{"type":"error","name":"OwnableInvalidOwner","inputs":[{"name":"owner","type":"address","internalType":"address"}]},{"type":"error","name":"OwnableUnauthorizedAccount","inputs":[{"name":"account","type":"address","internalType":"address"}]}],"bytecode":{"object":"0x60a060405234801561001057600080fd5b5073d8253782c45a12053594b9deb72d8e8ab2fca54c338061004c57604051631e4fbdf760e01b81526000600482015260240160405180910390fd5b6100558161006f565b506001600160a01b031660805261006a6100bf565b610171565b600080546001600160a01b038381166001600160a01b0319831681178455604051919092169283917f8be0079c531659141344cd1fd0a4f28419497f9722a3daafe3b4186f6b6457e09190a35050565b7ff0c57e16840df040f15088dc2f81fe391c3923bec73e23a9662efc9c229c6a00805468010000000000000000900460ff161561010f5760405163f92ee8a960e01b815260040160405180910390fd5b80546001600160401b039081161461016e5780546001600160401b0319166001600160401b0390811782556040519081527fc7f505b2f371ae2175ee4913f4499e1f2633a7b5936321eed1cdaeb6115181d29060200160405180910390a15b50565b608051612e466101936000396000818161039001526127350152612e466000f3fe608060405234801561001057600080fd5b506004361061027f5760003560e01c80637cc947d01161015c578063cd5e3c5d116100ce578063e9081ec711610087578063e9081ec714610594578063e99d2866146105bd578063f2fde38b146105d0578063f3f18c37146105e3578063f8413b07146105f6578063fc7e286d146105fe57600080fd5b8063cd5e3c5d1461054d578063ce1121f214610555578063cf3af3a114610568578063dbdff2c114610571578063df15c37e14610579578063e63c46091461058157600080fd5b8063a61fb2ba11610120578063a61fb2ba146104e2578063b3f6b99a146104f5578063b6b55f2514610508578063bf1dda151461051b578063c4f8f27b14610524578063ccbac9f51461054457600080fd5b80637cc947d0146104825780638da5cb5b1461048a57806397fedfcb1461049b57806399dbf4b5146104a35780639d9ca28d146104b657600080fd5b806350f3dbec116101f5578063683e93e1116101b9578063683e93e1146103f05780636939864b146104035780636bd5450a14610424578063715018a61461044757806375ce7fff1461044f5780637b15452d1461046257600080fd5b806350f3dbec1461036d578063572b6c05146103805780635aa68ac0146103c05780635f86e4fe146103d557806366af746b146103e857600080fd5b8063261704801161024757806326170480146102f0578063292fec04146102f85780632c23ec8e1461031b57806338e21cce1461032e5780633dc204e71461035157806345745c101461036457600080fd5b8063045f9c971461028457806308551a53146102b45780631209b1f6146102c75780631593a8c7146102de578063160344e2146102e8575b600080fd5b6102976102923660046127fe565b61061e565b6040516001600160a01b0390911681526020015b60405180910390f35b600254610297906001600160a01b031681565b6102d060045481565b6040519081526020016102ab565b6102e6610648565b005b6102e66106c8565b6102e66107a3565b61030b610306366004612837565b610a92565b60405190151581526020016102ab565b600a54610297906001600160a01b031681565b61030b61033c366004612837565b60056020526000908152604090205460ff1681565b61030b61035f366004612837565b610ba1565b6102d060035481565b6102e661037b36600461285b565b610c74565b61030b61038e366004612837565b7f00000000000000000000000000000000000000000000000000000000000000006001600160a01b0390811691161490565b6103c8610dc6565b6040516102ab9190612887565b601054610297906001600160a01b031681565b6102e6610e28565b6102e66103fe3660046128d4565b61105f565b60005461041790600160a01b900460ff1681565b6040516102ab919061290b565b61030b610432366004612837565b60076020526000908152604090205460ff1681565b6102e66110c6565b61030b61045d3660046127fe565b6110da565b6102d0610470366004612837565b60116020526000908152604090205481565b6102e661110e565b6000546001600160a01b0316610297565b6102e6611352565b600b54610297906001600160a01b031681565b61030b6104c4366004612837565b6001600160a01b031660009081526007602052604090205460ff1690565b600154610297906001600160a01b031681565b6102e6610503366004612933565b6113e9565b6102e66105163660046127fe565b6115c3565b6102d060135481565b6102d06105323660046127fe565b600d6020526000908152604090205481565b6102d0600f5481565b6102e6611a44565b6102e6610563366004612a20565b611bf0565b6102d060125481565b6102d0611dba565b6103c8611e11565b6102e661058f366004612837565b611e71565b6102d06105a2366004612837565b6001600160a01b031660009081526006602052604090205490565b6102e66105cb366004612837565b61208d565b6102e66105de366004612837565b6120e9565b600e54610297906001600160a01b031681565b6102e6612124565b6102d061060c366004612837565b60066020526000908152604090205481565b6008818154811061062e57600080fd5b6000918252602090912001546001600160a01b0316905081565b6002546001600160a01b031661065c6121a9565b6001600160a01b03161461068b5760405162461bcd60e51b815260040161068290612ade565b60405180910390fd5b610695600261105f565b61069d6121b8565b6040517f9c89a6ed7228533196a3f962acc80d61a9c53bdea6b910741bf754f5aaa7569e90600090a1565b6002546001600160a01b03166106dc6121a9565b6001600160a01b0316146107025760405162461bcd60e51b815260040161068290612ade565b60008054600160a01b900460ff166002811115610721576107216128f5565b1461076e5760405162461bcd60e51b815260206004820152601760248201527f53616c6520697320696e206163746976652073746174650000000000000000006044820152606401610682565b610778600161105f565b6040517fd029c7c68d943f92286a7825fa6aa2deefa1eee46cee6c91b7e483fd06d27baf90600090a1565b600560006107af6121a9565b6001600160a01b0316815260208101919091526040016000205460ff161561080e5760405162461bcd60e51b815260206004820152601260248201527113919508185b1c9958591e481b5a5b9d195960721b6044820152606401610682565b6108166121a9565b601054604051639d9ca28d60e01b81526001600160a01b03838116600483015290911690639d9ca28d90602401602060405180830381865afa158015610860573d6000803e3d6000fd5b505050506040513d601f19601f820116820180604052508101906108849190612b20565b156108a15760405162461bcd60e51b815260040161068290612b42565b6108ac6104c46121a9565b6108f15760405162461bcd60e51b815260206004820152601660248201527521b0b63632b91034b9903737ba1030903bb4b73732b960511b6044820152606401610682565b6001600560006108ff6121a9565b6001600160a01b0316815260208101919091526040016000908120805460ff1916921515929092179091556004546006826109386121a9565b6001600160a01b03166001600160a01b03168152602001908152602001600020546109639190612ba0565b905080156109f757600b546001600160a01b031663a9059cbb6109846121a9565b6040516001600160e01b031960e084901b1681526001600160a01b039091166004820152602481018490526044016020604051808303816000875af11580156109d1573d6000803e3d6000fd5b505050506040513d601f19601f820116820180604052508101906109f59190612b20565b505b600060066000610a056121a9565b6001600160a01b039081168252602082019290925260400160002091909155600a5416636b8f60f6610a356121a9565b6040516001600160e01b031960e084901b1681526001600160a01b039091166004820152602401600060405180830381600087803b158015610a7657600080fd5b505af1158015610a8a573d6000803e3d6000fd5b505050505050565b6013546001600160a01b03821660009081526011602052604081205490918291606491610abe91612bb9565b610ac89190612be6565b6001600160a01b038416600090815260116020526040902054610aeb9190612ba0565b6013546001600160a01b03851660009081526011602052604081205492935091606491610b1791612bb9565b610b219190612be6565b6001600160a01b038516600090815260116020526040902054610b449190612bfa565b9050600082600f5410158015610b5c575081600f5411155b6004546001600160a01b03871660009081526006602052604090205491925011801590610b865750805b15610b9657506001949350505050565b506000949350505050565b6000610bac82610a92565b8015610bd157506001600160a01b03821660009081526007602052604090205460ff16155b15610c67576001600160a01b038216600081815260076020526040808220805460ff1916600190811790915560088054918201815583527ff3f7a9fe364faab93b216da50a3214154f22a0a2b415b23a84c8169e8b636ee30180546001600160a01b03191684179055517f1d4c260f1824cd028e6c9e6e31c3a0b94f2513e7a641113ec759d382f9bdd5a19190a2506001919050565b506000919050565b919050565b610c7c6121a9565b6010546001600160a01b03908116911614610ce95760405162461bcd60e51b815260206004820152602760248201527f4f6e6c792077686974656c6973746564206d61792063616c6c207468697320666044820152663ab731ba34b7b760c91b6064820152608401610682565b6001600160a01b0382166000908152600660205260408120549003610d955760098054600181019091557f6e1540171b6c0c960b71a7020d9f60077f6af931a8bbf590da0223dacf75c7af0180546001600160a01b0319166001600160a01b0384169081179091556000908152601160205260408120549003610d9557604080516001600160a01b0384166020820152610d9391015b6040516020818303038152906040526124c3565b505b6001600160a01b03821660009081526006602052604081208054839290610dbd908490612bfa565b90915550505050565b60606009805480602002602001604051908101604052809291908181526020018280548015610e1e57602002820191906000526020600020905b81546001600160a01b03168152600190910190602001808311610e00575b5050505050905090565b6002546001600160a01b0316610e3c6121a9565b6001600160a01b031614610e625760405162461bcd60e51b815260040161068290612ade565b6002600054600160a01b900460ff166002811115610e8257610e826128f5565b14610ec35760405162461bcd60e51b8152602060048201526011602482015270131bdd1d195c9e481b9bdd08195b991959607a1b6044820152606401610682565b6000805b600854811015610f3c57600060088281548110610ee657610ee6612c0d565b60009182526020808320909101546001600160a01b03168083526006909152604090912054909150610f189084612bfa565b6001600160a01b039091166000908152600660205260408120559150600101610ec7565b5060006064610f4c836005612bb9565b610f569190612be6565b90506000610f648284612ba0565b600b5460015460405163a9059cbb60e01b81526001600160a01b03918216600482015260248101869052929350169063a9059cbb906044016020604051808303816000875af1158015610fbb573d6000803e3d6000fd5b505050506040513d601f19601f82011682018060405250810190610fdf9190612b20565b50600b5460025460405163a9059cbb60e01b81526001600160a01b0391821660048201526024810184905291169063a9059cbb906044016020604051808303816000875af1158015611035573d6000803e3d6000fd5b505050506040513d601f19601f820116820180604052508101906110599190612b20565b50505050565b6002546001600160a01b03166110736121a9565b6001600160a01b0316146110995760405162461bcd60e51b815260040161068290612ade565b6000805482919060ff60a01b1916600160a01b8360028111156110be576110be6128f5565b021790555050565b6110ce6125c6565b6110d86000612624565b565b600c81815481106110ea57600080fd5b9060005260206000209060209182820401919006915054906101000a900460ff1681565b6002600054600160a01b900460ff16600281111561112e5761112e6128f5565b146111735760405162461bcd60e51b815260206004820152601560248201527414d85b19481a5cc81b9bdd08195b991959081e595d605a1b6044820152606401610682565b6007600061117f6121a9565b6001600160a01b0316815260208101919091526040016000205460ff16156111e95760405162461bcd60e51b815260206004820152601760248201527f57696e6e6572732063616e6e6f742077697468647261770000000000000000006044820152606401610682565b6000600660006111f76121a9565b6001600160a01b03166001600160a01b03168152602001908152602001600020549050600081116112615760405162461bcd60e51b81526020600482015260146024820152734e6f2066756e647320746f20776974686472617760601b6044820152606401610682565b60006006600061126f6121a9565b6001600160a01b039081168252602082019290925260400160002091909155600b541663a9059cbb61129f6121a9565b6040516001600160e01b031960e084901b1681526001600160a01b039091166004820152602481018490526044016020604051808303816000875af11580156112ec573d6000803e3d6000fd5b505050506040513d601f19601f820116820180604052508101906113109190612b20565b508061131a6121a9565b6001600160a01b03167f1f280cd00e67ed50213ac03febd5be151f96b7f7db2f85312aa0feff99f8bdab60405160405180910390a350565b6002546001600160a01b03166113666121a9565b6001600160a01b03161461138c5760405162461bcd60e51b815260040161068290612ade565b600f54156113dc5760405162461bcd60e51b815260206004820152601960248201527f52616e646f6d206e756d62657220616c726561647920736574000000000000006044820152606401610682565b6113e4611dba565b600f55565b600e546001600160a01b031633146114335760405162461bcd60e51b815260206004820152600d60248201526c37b7363c9037b832b930ba37b960991b6044820152606401610682565b600061144182840184612c4b565b9150506000808280602001905181019061145b9190612cf9565b9150915060008585604051611471929190612d7c565b604051809103902090506000600d60008581526020019081526020016000205482149050600c84815481106114a8576114a8612c0d565b90600052602060002090602091828204019190069054906101000a900460ff166115145760405162461bcd60e51b815260206004820152601c60248201527f726571756573742066756c66696c6c6564206f72206d697373696e67000000006044820152606401610682565b80156115b95760408051602081018a905230918101919091524660608201526080810185905260a0016040516020818303038152906040528051906020012060001c9750611563888585612674565b6000600c858154811061157857611578612c0d565b90600052602060002090602091828204019190066101000a81548160ff021916908315150217905550600d6000858152602001908152602001600020600090555b5050505050505050565b6001600054600160a01b900460ff1660028111156115e3576115e36128f5565b146116255760405162461bcd60e51b815260206004820152601260248201527153616c65206973206e6f742061637469766560701b6044820152606401610682565b61162d6121a9565b601054604051639d9ca28d60e01b81526001600160a01b03838116600483015290911690639d9ca28d90602401602060405180830381865afa158015611677573d6000803e3d6000fd5b505050506040513d601f19601f8201168201806040525081019061169b9190612b20565b156116b85760405162461bcd60e51b815260040161068290612b42565b600b546001600160a01b03166117105760405162461bcd60e51b815260206004820152601d60248201527f5553444320636f6e74726163742061646472657373206e6f74207365740000006044820152606401610682565b60125482101561175a5760405162461bcd60e51b8152602060048201526015602482015274139bdd08195b9bdd59da08199d5b991cc81cd95b9d605a1b6044820152606401610682565b600b5482906001600160a01b031663dd62ed3e6117756121a9565b6040516001600160e01b031960e084901b1681526001600160a01b039091166004820152306024820152604401602060405180830381865afa1580156117bf573d6000803e3d6000fd5b505050506040513d601f19601f820116820180604052508101906117e39190612d8c565b101561182a5760405162461bcd60e51b8152602060048201526016602482015275496e73756666696369656e7420616c6c6f77616e636560501b6044820152606401610682565b600b546001600160a01b03166323b872dd6118436121a9565b6040516001600160e01b031960e084901b1681526001600160a01b039091166004820152306024820152604481018590526064016020604051808303816000875af1158015611896573d6000803e3d6000fd5b505050506040513d601f19601f820116820180604052508101906118ba9190612b20565b50600660006118c76121a9565b6001600160a01b03166001600160a01b03168152602001908152602001600020546000036119c05760096118f96121a9565b81546001810183556000928352602083200180546001600160a01b0319166001600160a01b03929092169190911790556011906119346121a9565b6001600160a01b03166001600160a01b03168152602001908152602001600020546000036119c0576119816119676121a9565b604080516001600160a01b03909216602083015201610d7f565b5061198a6121a9565b6001600160a01b03167fd802e7c7f1646e3318c03abed1e468bdf913f45331a68dc912a0d645eb646a4260405160405180910390a25b81600660006119cd6121a9565b6001600160a01b03166001600160a01b0316815260200190815260200160002060008282546119fc9190612bfa565b90915550829050611a0b6121a9565b6001600160a01b03167f21040858e63c11c046482f61f290bbe25972fc74b11b4570a01f9241082d21f160405160405180910390a35050565b6001600054600160a01b900460ff166002811115611a6457611a646128f5565b14611aa65760405162461bcd60e51b815260206004820152601260248201527153616c65206973206e6f742061637469766560701b6044820152606401610682565b600060125411611aec5760405162461bcd60e51b8152602060048201526011602482015270139bc81c9bdb1b081c1c9a58d9481cd95d607a1b6044820152606401610682565b600454601254611afc9190612bfa565b60066000611b086121a9565b6001600160a01b03166001600160a01b03168152602001908152602001600020541015611b6c5760405162461bcd60e51b8152602060048201526012602482015271496e73756666696369656e742066756e647360701b6044820152606401610682565b60125460066000611b7b6121a9565b6001600160a01b03166001600160a01b031681526020019081526020016000206000828254611baa9190612ba0565b90915550506012546002546001600160a01b031660009081526006602052604081208054909190611bdc908490612bfa565b90915550611bed90506119676121a9565b50565b7ff0c57e16840df040f15088dc2f81fe391c3923bec73e23a9662efc9c229c6a008054600160401b810460ff16159067ffffffffffffffff16600081158015611c365750825b905060008267ffffffffffffffff166001148015611c535750303b155b905081158015611c61575080155b15611c7f5760405163f92ee8a960e01b815260040160405180910390fd5b845467ffffffffffffffff191660011785558315611ca957845460ff60401b1916600160401b1785555b6020860151600280546001600160a01b039283166001600160a01b0319918216179091558751600e80549190931691161790556040860151611cea90612624565b6060860151600355608086015160045560a086015160125560c086015160135560e0860151600b80546001600160a01b039283166001600160a01b031991821617909155610100880151600a805491841691831691909117905561012088015160018054918416918316919091179055610140880151601080549190931691161790558315610a8a57845460ff60401b19168555604051600181527fc7f505b2f371ae2175ee4913f4499e1f2633a7b5936321eed1cdaeb6115181d29060200160405180910390a1505050505050565b60004244611dc66121a9565b6040805160208101949094528301919091526bffffffffffffffffffffffff19606091821b16908201526074016040516020818303038152906040528051906020012060001c905090565b60606008805480602002602001604051908101604052809291908181526020018280548015610e1e576020028201919060005260206000209081546001600160a01b03168152600190910190602001808311610e00575050505050905090565b6002546001600160a01b0316611e856121a9565b6001600160a01b031614611eab5760405162461bcd60e51b815260040161068290612ade565b60005b60095481101561208957611ef660098281548110611ece57611ece612c0d565b60009182526020808320909101546001600160a01b0316825260079052604090205460ff1690565b6120815760006006600060098481548110611f1357611f13612c0d565b60009182526020808320909101546001600160a01b031683528201929092526040018120546009805491935060069183919086908110611f5557611f55612c0d565b6000918252602080832091909101546001600160a01b039081168452908301939093526040918201902092909255600b54915163a9059cbb60e01b815285821660048201526024810184905291169063a9059cbb906044016020604051808303816000875af1158015611fcc573d6000803e3d6000fd5b505050506040513d601f19601f82011682018060405250810190611ff09190612b20565b50826001600160a01b03166350f3dbec6009848154811061201357612013612c0d565b60009182526020909120015460405160e083901b6001600160e01b03191681526001600160a01b03909116600482015260248101849052604401600060405180830381600087803b15801561206757600080fd5b505af115801561207b573d6000803e3d6000fd5b50505050505b600101611eae565b5050565b6002546001600160a01b03166120a16121a9565b6001600160a01b0316146120c75760405162461bcd60e51b815260040161068290612ade565b600280546001600160a01b0319166001600160a01b0392909216919091179055565b6120f16125c6565b6001600160a01b03811661211b57604051631e4fbdf760e01b815260006004820152602401610682565b611bed81612624565b6002546001600160a01b03166121386121a9565b6001600160a01b03161461215e5760405162461bcd60e51b815260040161068290612ade565b6121696119676121a9565b506121726121a9565b6001600160a01b03167fd802e7c7f1646e3318c03abed1e468bdf913f45331a68dc912a0d645eb646a4260405160405180910390a2565b60006121b3612731565b905090565b6002546001600160a01b03166121cc6121a9565b6001600160a01b0316146121f25760405162461bcd60e51b815260040161068290612ade565b6002600054600160a01b900460ff166002811115612212576122126128f5565b146122575760405162461bcd60e51b815260206004820152601560248201527414d85b19481a5cc81b9bdd08195b991959081e595d605a1b6044820152606401610682565b60095460008167ffffffffffffffff811115612275576122756129af565b60405190808252806020026020018201604052801561229e578160200160208202803683370190505b50905060005b8281101561230f57600981815481106122bf576122bf612c0d565b9060005260206000200160009054906101000a90046001600160a01b03168282815181106122ef576122ef612c0d565b6001600160a01b03909216602092830291909101909101526001016122a4565b5060005b8281101561247f57600082828151811061232f5761232f612c0d565b6020908102919091018101516001600160a01b0381166000908152600683526040808220805490839055600790945290205490925060ff16156123fc5760006004548261237c9190612ba0565b600b5460405163a9059cbb60e01b81526001600160a01b0386811660048301526024820184905292935091169063a9059cbb906044016020604051808303816000875af11580156123d1573d6000803e3d6000fd5b505050506040513d601f19601f820116820180604052508101906123f59190612b20565b5050612475565b600b5460405163a9059cbb60e01b81526001600160a01b038481166004830152602482018490529091169063a9059cbb906044016020604051808303816000875af115801561244f573d6000803e3d6000fd5b505050506040513d601f19601f820116820180604052508101906124739190612b20565b505b5050600101612313565b5061248c600960006127cc565b6040518281527f01f8aef848121bbf182106b55119c1094063c572b6c8dcb09040e1203a17abf99060200160405180910390a15050565b600c80546001808201808455600084905291929091839081106124e8576124e8612c0d565b90600052602060002090602091828204019190066101000a81548160ff02191690831515021790555060008183604051602001612526929190612da5565b60405160208183030381529060405290506000612541612775565b905060008183604051602001612558929190612da5565b60408051601f1981840301815282825280516020808301919091206000898152600d9092529290208290559250907fd91fc3685b930310b008ec37d2334870cab88a023ed8cc628a2e2ccd4e55d202906125b59085908790612da5565b60405180910390a150505050919050565b6125ce6121a9565b6001600160a01b03166125e96000546001600160a01b031690565b6001600160a01b0316146110d8576125ff6121a9565b60405163118cdaa760e01b81526001600160a01b039091166004820152602401610682565b600080546001600160a01b038381166001600160a01b0319831681178455604051919092169283917f8be0079c531659141344cd1fd0a4f28419497f9722a3daafe3b4186f6b6457e09190a35050565b60008180602001905181019061268a9190612ddf565b9050600061269e655af3107a400086612dfc565b6002549091506001600160a01b03908116908316036126c157600f8190556126e7565b6001600160a01b03821660009081526011602052604090208190556126e582610ba1565b505b816001600160a01b03167f85e7483164122a78ca40e7f10b414e6f78c7d47abdae87716e0fb3491290c6ec8260405161272291815260200190565b60405180910390a25050505050565b60007f00000000000000000000000000000000000000000000000000000000000000006001600160a01b03163303612770575060131936013560601c90565b503390565b6000806127866364e6212742612ba0565b90506000612795600383612be6565b6127a0906001612bfa565b9050466001146127ba576127b5816001612bfa565b6127c5565b6127c5816004612bfa565b9250505090565b5080546000825590600052602060002090810190611bed91905b808211156127fa57600081556001016127e6565b5090565b60006020828403121561281057600080fd5b5035919050565b6001600160a01b0381168114611bed57600080fd5b8035610c6f81612817565b60006020828403121561284957600080fd5b813561285481612817565b9392505050565b6000806040838503121561286e57600080fd5b823561287981612817565b946020939093013593505050565b6020808252825182820181905260009190848201906040850190845b818110156128c85783516001600160a01b0316835292840192918401916001016128a3565b50909695505050505050565b6000602082840312156128e657600080fd5b81356003811061285457600080fd5b634e487b7160e01b600052602160045260246000fd5b602081016003831061292d57634e487b7160e01b600052602160045260246000fd5b91905290565b60008060006040848603121561294857600080fd5b83359250602084013567ffffffffffffffff8082111561296757600080fd5b818601915086601f83011261297b57600080fd5b81358181111561298a57600080fd5b87602082850101111561299c57600080fd5b6020830194508093505050509250925092565b634e487b7160e01b600052604160045260246000fd5b604051610160810167ffffffffffffffff811182821017156129e9576129e96129af565b60405290565b604051601f8201601f1916810167ffffffffffffffff81118282101715612a1857612a186129af565b604052919050565b60006101608284031215612a3357600080fd5b612a3b6129c5565b612a448361282c565b8152612a526020840161282c565b6020820152612a636040840161282c565b6040820152606083013560608201526080830135608082015260a083013560a082015260c083013560c0820152612a9c60e0840161282c565b60e0820152610100612aaf81850161282c565b90820152610120612ac184820161282c565b90820152610140612ad384820161282c565b908201529392505050565b60208082526022908201527f4f6e6c792073656c6c65722063616e2063616c6c20746869732066756e63746960408201526137b760f11b606082015260800190565b600060208284031215612b3257600080fd5b8151801515811461285457600080fd5b60208082526028908201527f5061727469636970616e742068617320616c726561647920776f6e20696e204c6040820152676f7474657279563160c01b606082015260800190565b634e487b7160e01b600052601160045260246000fd5b81810381811115612bb357612bb3612b8a565b92915050565b8082028115828204841417612bb357612bb3612b8a565b634e487b7160e01b600052601260045260246000fd5b600082612bf557612bf5612bd0565b500490565b80820180821115612bb357612bb3612b8a565b634e487b7160e01b600052603260045260246000fd5b600067ffffffffffffffff821115612c3d57612c3d6129af565b50601f01601f191660200190565b60008060408385031215612c5e57600080fd5b82359150602083013567ffffffffffffffff811115612c7c57600080fd5b8301601f81018513612c8d57600080fd5b8035612ca0612c9b82612c23565b6129ef565b818152866020838501011115612cb557600080fd5b816020840160208301376000602083830101528093505050509250929050565b60005b83811015612cf0578181015183820152602001612cd8565b50506000910152565b60008060408385031215612d0c57600080fd5b82519150602083015167ffffffffffffffff811115612d2a57600080fd5b8301601f81018513612d3b57600080fd5b8051612d49612c9b82612c23565b818152866020838501011115612d5e57600080fd5b612d6f826020830160208601612cd5565b8093505050509250929050565b8183823760009101908152919050565b600060208284031215612d9e57600080fd5b5051919050565b8281526040602082015260008251806040840152612dca816060850160208701612cd5565b601f01601f1916919091016060019392505050565b600060208284031215612df157600080fd5b815161285481612817565b600082612e0b57612e0b612bd0565b50069056fea2646970667358221220fede388e5b7dfa073d4e6ffc46f645ba847eb0be643026fdd9537885a6a6571164736f6c63430008190033","linkReferences":{}},"methodIdentifiers":{"buyerWithdraw()":"7cc947d0","changeLotteryState(uint8)":"683e93e1","claimNumber(address)":"3dc204e7","deposit(uint256)":"b6b55f25","deposits(address)":"fc7e286d","endLottery()":"1593a8c7","fulfillRandomness(uint256,bytes)":"b3f6b99a","getDepositedAmount(address)":"e9081ec7","getParticipants()":"5aa68ac0","getRandomNumber()":"dbdff2c1","getWinners()":"df15c37e","hasMinted(address)":"38e21cce","initialize((address,address,address,uint256,uint256,uint256,uint256,address,address,address,address))":"ce1121f2","isClaimable(address)":"292fec04","isTrustedForwarder(address)":"572b6c05","isWinner(address)":"9d9ca28d","lotteryState()":"6939864b","lotteryV1Addr()":"5f86e4fe","mintMyNFT()":"26170480","multisigWalletAddress()":"a61fb2ba","nftContractAddr()":"2c23ec8e","numberOfTickets()":"45745c10","operatorAddr()":"f3f18c37","owner()":"8da5cb5b","randomNumber()":"ccbac9f5","renounceOwnership()":"715018a6","requestPending(uint256)":"75ce7fff","requestRandomness()":"f8413b07","requestedHash(uint256)":"c4f8f27b","roll()":"cd5e3c5d","rollPrice()":"cf3af3a1","rollTolerance()":"bf1dda15","rolledNumbers(address)":"7b15452d","seller()":"08551a53","sellerWithdraw()":"66af746b","setRandomNumber()":"97fedfcb","setSeller(address)":"e99d2866","startLottery()":"160344e2","ticketPrice()":"1209b1f6","transferDeposit(address,uint256)":"50f3dbec","transferNonWinnerDeposits(address)":"e63c4609","transferOwnership(address)":"f2fde38b","usdcContractAddr()":"99dbf4b5","winnerAddresses(uint256)":"045f9c97","winners(address)":"6bd5450a"},"id":6}