{"abi":[{"type":"function","name":"MAX_RANDOM","inputs":[],"outputs":[{"name":"","type":"uint256","internalType":"uint256"}],"stateMutability":"view"},{"type":"function","name":"buyerWithdraw","inputs":[],"outputs":[],"stateMutability":"nonpayable"},{"type":"function","name":"changeLotteryState","inputs":[{"name":"_newState","type":"uint8","internalType":"enum SaleBase.LotteryState"}],"outputs":[],"stateMutability":"nonpayable"},{"type":"function","name":"claimNumber","inputs":[{"name":"_participant","type":"address","internalType":"address"}],"outputs":[{"name":"","type":"bool","internalType":"bool"}],"stateMutability":"nonpayable"},{"type":"function","name":"deposit","inputs":[{"name":"amount","type":"uint256","internalType":"uint256"}],"outputs":[],"stateMutability":"nonpayable"},{"type":"function","name":"deposits","inputs":[{"name":"","type":"address","internalType":"address"}],"outputs":[{"name":"","type":"uint256","internalType":"uint256"}],"stateMutability":"view"},{"type":"function","name":"endLottery","inputs":[],"outputs":[],"stateMutability":"nonpayable"},{"type":"function","name":"fulfillRandomness","inputs":[{"name":"randomness","type":"uint256","internalType":"uint256"},{"name":"dataWithRound","type":"bytes","internalType":"bytes"}],"outputs":[],"stateMutability":"nonpayable"},{"type":"function","name":"getDepositedAmount","inputs":[{"name":"participant","type":"address","internalType":"address"}],"outputs":[{"name":"","type":"uint256","internalType":"uint256"}],"stateMutability":"view"},{"type":"function","name":"getParticipants","inputs":[],"outputs":[{"name":"","type":"address[]","internalType":"address[]"}],"stateMutability":"view"},{"type":"function","name":"getWinners","inputs":[],"outputs":[{"name":"","type":"address[]","internalType":"address[]"}],"stateMutability":"view"},{"type":"function","name":"hasMinted","inputs":[{"name":"","type":"address","internalType":"address"}],"outputs":[{"name":"","type":"bool","internalType":"bool"}],"stateMutability":"view"},{"type":"function","name":"initialize","inputs":[{"name":"config","type":"tuple","internalType":"struct StructsLibrary.ILotteryV2BaseConfig","components":[{"name":"_gelatoVrfOperator","type":"address","internalType":"address"},{"name":"_blessedOperator","type":"address","internalType":"address"},{"name":"_owner","type":"address","internalType":"address"},{"name":"_ticketAmount","type":"uint256","internalType":"uint256"},{"name":"_ticketPrice","type":"uint256","internalType":"uint256"},{"name":"_rollPrice","type":"uint256","internalType":"uint256"},{"name":"_rollTolerance","type":"uint256","internalType":"uint256"},{"name":"_usdcContractAddr","type":"address","internalType":"address"},{"name":"_nftContractAddr","type":"address","internalType":"address"},{"name":"_multisigWalletAddress","type":"address","internalType":"address"},{"name":"_prevPhaseContractAddr","type":"address","internalType":"address"}]}],"outputs":[],"stateMutability":"nonpayable"},{"type":"function","name":"isClaimable","inputs":[{"name":"_participant","type":"address","internalType":"address"}],"outputs":[{"name":"","type":"bool","internalType":"bool"}],"stateMutability":"view"},{"type":"function","name":"isTrustedForwarder","inputs":[{"name":"forwarder","type":"address","internalType":"address"}],"outputs":[{"name":"","type":"bool","internalType":"bool"}],"stateMutability":"view"},{"type":"function","name":"isWinner","inputs":[{"name":"_participant","type":"address","internalType":"address"}],"outputs":[{"name":"","type":"bool","internalType":"bool"}],"stateMutability":"view"},{"type":"function","name":"lotteryState","inputs":[],"outputs":[{"name":"","type":"uint8","internalType":"enum SaleBase.LotteryState"}],"stateMutability":"view"},{"type":"function","name":"lotteryV1Addr","inputs":[],"outputs":[{"name":"","type":"address","internalType":"address"}],"stateMutability":"view"},{"type":"function","name":"mintMyNFT","inputs":[],"outputs":[],"stateMutability":"nonpayable"},{"type":"function","name":"multisigWalletAddress","inputs":[],"outputs":[{"name":"","type":"address","internalType":"address"}],"stateMutability":"view"},{"type":"function","name":"nftContractAddr","inputs":[],"outputs":[{"name":"","type":"address","internalType":"address"}],"stateMutability":"view"},{"type":"function","name":"numberOfTickets","inputs":[],"outputs":[{"name":"","type":"uint256","internalType":"uint256"}],"stateMutability":"view"},{"type":"function","name":"operatorAddr","inputs":[],"outputs":[{"name":"","type":"address","internalType":"address"}],"stateMutability":"view"},{"type":"function","name":"owner","inputs":[],"outputs":[{"name":"","type":"address","internalType":"address"}],"stateMutability":"view"},{"type":"function","name":"randomNumber","inputs":[],"outputs":[{"name":"","type":"uint256","internalType":"uint256"}],"stateMutability":"view"},{"type":"function","name":"renounceOwnership","inputs":[],"outputs":[],"stateMutability":"nonpayable"},{"type":"function","name":"requestPending","inputs":[{"name":"","type":"uint256","internalType":"uint256"}],"outputs":[{"name":"","type":"bool","internalType":"bool"}],"stateMutability":"view"},{"type":"function","name":"requestRandomness","inputs":[],"outputs":[],"stateMutability":"nonpayable"},{"type":"function","name":"requestedHash","inputs":[{"name":"","type":"uint256","internalType":"uint256"}],"outputs":[{"name":"","type":"bytes32","internalType":"bytes32"}],"stateMutability":"view"},{"type":"function","name":"roll","inputs":[],"outputs":[],"stateMutability":"nonpayable"},{"type":"function","name":"rollPrice","inputs":[],"outputs":[{"name":"","type":"uint256","internalType":"uint256"}],"stateMutability":"view"},{"type":"function","name":"rollTolerance","inputs":[],"outputs":[{"name":"","type":"uint256","internalType":"uint256"}],"stateMutability":"view"},{"type":"function","name":"rolledNumbers","inputs":[{"name":"","type":"address","internalType":"address"}],"outputs":[{"name":"number","type":"uint256","internalType":"uint256"},{"name":"isRolling","type":"bool","internalType":"bool"}],"stateMutability":"view"},{"type":"function","name":"seller","inputs":[],"outputs":[{"name":"","type":"address","internalType":"address"}],"stateMutability":"view"},{"type":"function","name":"setSeller","inputs":[{"name":"_seller","type":"address","internalType":"address"}],"outputs":[],"stateMutability":"nonpayable"},{"type":"function","name":"startLottery","inputs":[],"outputs":[],"stateMutability":"nonpayable"},{"type":"function","name":"ticketPrice","inputs":[],"outputs":[{"name":"","type":"uint256","internalType":"uint256"}],"stateMutability":"view"},{"type":"function","name":"totalAmountForSeller","inputs":[],"outputs":[{"name":"","type":"uint256","internalType":"uint256"}],"stateMutability":"view"},{"type":"function","name":"transferOwnership","inputs":[{"name":"newOwner","type":"address","internalType":"address"}],"outputs":[],"stateMutability":"nonpayable"},{"type":"function","name":"usdcContractAddr","inputs":[],"outputs":[{"name":"","type":"address","internalType":"address"}],"stateMutability":"view"},{"type":"function","name":"winnerAddresses","inputs":[{"name":"","type":"uint256","internalType":"uint256"}],"outputs":[{"name":"","type":"address","internalType":"address"}],"stateMutability":"view"},{"type":"function","name":"winners","inputs":[{"name":"","type":"address","internalType":"address"}],"outputs":[{"name":"","type":"bool","internalType":"bool"}],"stateMutability":"view"},{"type":"event","name":"BuyerDeposited","inputs":[{"name":"buyer","type":"address","indexed":true,"internalType":"address"},{"name":"amount","type":"uint256","indexed":true,"internalType":"uint256"}],"anonymous":false},{"type":"event","name":"BuyerWithdrew","inputs":[{"name":"buyer","type":"address","indexed":true,"internalType":"address"},{"name":"amount","type":"uint256","indexed":true,"internalType":"uint256"}],"anonymous":false},{"type":"event","name":"DepositsReturned","inputs":[{"name":"returnedDepositsCount","type":"uint256","indexed":false,"internalType":"uint256"}],"anonymous":false},{"type":"event","name":"Initialized","inputs":[{"name":"version","type":"uint64","indexed":false,"internalType":"uint64"}],"anonymous":false},{"type":"event","name":"LotteryEnded","inputs":[],"anonymous":false},{"type":"event","name":"LotteryStarted","inputs":[],"anonymous":false},{"type":"event","name":"OwnershipTransferred","inputs":[{"name":"previousOwner","type":"address","indexed":true,"internalType":"address"},{"name":"newOwner","type":"address","indexed":true,"internalType":"address"}],"anonymous":false},{"type":"event","name":"RandomFulfilled","inputs":[{"name":"requester","type":"address","indexed":true,"internalType":"address"},{"name":"number","type":"uint256","indexed":false,"internalType":"uint256"}],"anonymous":false},{"type":"event","name":"RandomRequested","inputs":[{"name":"requester","type":"address","indexed":true,"internalType":"address"}],"anonymous":false},{"type":"event","name":"RequestedRandomness","inputs":[{"name":"round","type":"uint256","indexed":false,"internalType":"uint256"},{"name":"data","type":"bytes","indexed":false,"internalType":"bytes"}],"anonymous":false},{"type":"event","name":"WinnerSelected","inputs":[{"name":"winner","type":"address","indexed":true,"internalType":"address"}],"anonymous":false},{"type":"error","name":"InvalidInitialization","inputs":[]},{"type":"error","name":"NotInitializing","inputs":[]},{"type":"error","name":"OwnableInvalidOwner","inputs":[{"name":"owner","type":"address","internalType":"address"}]},{"type":"error","name":"OwnableUnauthorizedAccount","inputs":[{"name":"account","type":"address","internalType":"address"}]}],"bytecode":{"object":"0x60a060405234801561001057600080fd5b5073d8253782c45a12053594b9deb72d8e8ab2fca54c338061004c57604051631e4fbdf760e01b81526000600482015260240160405180910390fd5b6100558161006f565b506001600160a01b031660805261006a6100bf565b610171565b600080546001600160a01b038381166001600160a01b0319831681178455604051919092169283917f8be0079c531659141344cd1fd0a4f28419497f9722a3daafe3b4186f6b6457e09190a35050565b7ff0c57e16840df040f15088dc2f81fe391c3923bec73e23a9662efc9c229c6a00805468010000000000000000900460ff161561010f5760405163f92ee8a960e01b815260040160405180910390fd5b80546001600160401b039081161461016e5780546001600160401b0319166001600160401b0390811782556040519081527fc7f505b2f371ae2175ee4913f4499e1f2633a7b5936321eed1cdaeb6115181d29060200160405180910390a15b50565b6080516129c461019360003960008181610369015261211801526129c46000f3fe608060405234801561001057600080fd5b506004361061025e5760003560e01c80637cc947d011610146578063cd5e3c5d116100c3578063e9081ec711610087578063e9081ec71461056a578063e99d286614610593578063f2fde38b146105a6578063f3f18c37146105b9578063f8413b07146105cc578063fc7e286d146105d457600080fd5b8063cd5e3c5d14610535578063ce1121f21461053d578063cf3af3a114610550578063da59a0dd14610559578063df15c37e1461056257600080fd5b8063b3f6b99a1161010a578063b3f6b99a146104dd578063b6b55f25146104f0578063bf1dda1514610503578063c4f8f27b1461050c578063ccbac9f51461052c57600080fd5b80637cc947d0146104725780638da5cb5b1461047a57806399dbf4b51461048b5780639d9ca28d1461049e578063a61fb2ba146104ca57600080fd5b80633dc204e7116101df578063683e93e1116101a3578063683e93e1146103c15780636939864b146103d45780636bd5450a146103f5578063715018a61461041857806375ce7fff146104205780637b15452d1461043357600080fd5b80633dc204e71461033d57806345745c1014610350578063572b6c05146103595780635aa68ac0146103995780635f86e4fe146103ae57600080fd5b8063160344e211610226578063160344e2146102d457806326170480146102dc578063292fec04146102e45780632c23ec8e1461030757806338e21cce1461031a57600080fd5b8063045f9c971461026357806308551a53146102935780630a9fa5c7146102a65780631209b1f6146102c15780631593a8c7146102ca575b600080fd5b610276610271366004612349565b6105f4565b6040516001600160a01b0390911681526020015b60405180910390f35b600254610276906001600160a01b031681565b6102b3655af3107a400081565b60405190815260200161028a565b6102b360045481565b6102d261061e565b005b6102d261069e565b6102d2610779565b6102f76102f2366004612382565b610988565b604051901515815260200161028a565b600b54610276906001600160a01b031681565b6102f7610328366004612382565b60066020526000908152604090205460ff1681565b6102f761034b366004612382565b610a68565b6102b360035481565b6102f7610367366004612382565b7f00000000000000000000000000000000000000000000000000000000000000006001600160a01b0390811691161490565b6103a1610b4b565b60405161028a91906123a6565b601154610276906001600160a01b031681565b6102d26103cf3660046123f3565b610bad565b6000546103e890600160a01b900460ff1681565b60405161028a919061242a565b6102f7610403366004612382565b60086020526000908152604090205460ff1681565b6102d2610c14565b6102f761042e366004612349565b610c28565b61045d610441366004612382565b6012602052600090815260409020805460019091015460ff1682565b6040805192835290151560208301520161028a565b6102d2610c5c565b6000546001600160a01b0316610276565b600c54610276906001600160a01b031681565b6102f76104ac366004612382565b6001600160a01b031660009081526008602052604090205460ff1690565b600154610276906001600160a01b031681565b6102d26104eb366004612452565b610ea0565b6102d26104fe366004612349565b61107a565b6102b360145481565b6102b361051a366004612349565b600e6020526000908152604090205481565b6102b360105481565b6102d261156a565b6102d261054b36600461253f565b611782565b6102b360135481565b6102b360055481565b6103a161194d565b6102b3610578366004612382565b6001600160a01b031660009081526007602052604090205490565b6102d26105a1366004612382565b6119ad565b6102d26105b4366004612382565b611a09565b600f54610276906001600160a01b031681565b6102d2611a44565b6102b36105e2366004612382565b60076020526000908152604090205481565b6009818154811061060457600080fd5b6000918252602090912001546001600160a01b0316905081565b6002546001600160a01b0316610632611ac9565b6001600160a01b0316146106615760405162461bcd60e51b8152600401610658906125fd565b60405180910390fd5b61066b6002610bad565b610673611ad8565b6040517f9c89a6ed7228533196a3f962acc80d61a9c53bdea6b910741bf754f5aaa7569e90600090a1565b6002546001600160a01b03166106b2611ac9565b6001600160a01b0316146106d85760405162461bcd60e51b8152600401610658906125fd565b60008054600160a01b900460ff1660028111156106f7576106f7612414565b146107445760405162461bcd60e51b815260206004820152601760248201527f53616c6520697320696e206163746976652073746174650000000000000000006044820152606401610658565b61074e6001610bad565b6040517fd029c7c68d943f92286a7825fa6aa2deefa1eee46cee6c91b7e483fd06d27baf90600090a1565b60066000610785611ac9565b6001600160a01b0316815260208101919091526040016000205460ff16156107e45760405162461bcd60e51b815260206004820152601260248201527113919508185b1c9958591e481b5a5b9d195960721b6044820152606401610658565b6107ef6104ac611ac9565b6108345760405162461bcd60e51b815260206004820152601660248201527521b0b63632b91034b9903737ba1030903bb4b73732b960511b6044820152606401610658565b61083c611ac9565b601154604051639d9ca28d60e01b81526001600160a01b03838116600483015290911690639d9ca28d90602401602060405180830381865afa158015610886573d6000803e3d6000fd5b505050506040513d601f19601f820116820180604052508101906108aa919061263f565b156108c75760405162461bcd60e51b815260040161065890612661565b6001600660006108d5611ac9565b6001600160a01b0316815260208101919091526040016000908120805460ff191692151592909217909155600380549161090e836126bf565b9091555050600b546001600160a01b0316636b8f60f661092c611ac9565b6040516001600160e01b031960e084901b1681526001600160a01b039091166004820152602401600060405180830381600087803b15801561096d57600080fd5b505af1158015610981573d6000803e3d6000fd5b5050505050565b6000806064601454655af3107a40006109a191906126d6565b6109ab9190612709565b905060008160105410156109c05760006109ce565b816010546109ce919061271d565b90506000655af3107a4000836010546109e79190612730565b11156109f957655af3107a4000610a07565b82601054610a079190612730565b6001600160a01b038616600090815260126020526040812054919250838210801590610a335750828211155b6004546001600160a01b03891660009081526007602052604090205491925011801590610a5d5750805b979650505050505050565b6000610a7382610988565b8015610a9857506001600160a01b03821660009081526008602052604090205460ff16155b8015610aa8575060035460095411155b15610b3e576001600160a01b038216600081815260086020526040808220805460ff1916600190811790915560098054918201815583527f6e1540171b6c0c960b71a7020d9f60077f6af931a8bbf590da0223dacf75c7af0180546001600160a01b03191684179055517f1d4c260f1824cd028e6c9e6e31c3a0b94f2513e7a641113ec759d382f9bdd5a19190a2506001919050565b506000919050565b919050565b6060600a805480602002602001604051908101604052809291908181526020018280548015610ba357602002820191906000526020600020905b81546001600160a01b03168152600190910190602001808311610b85575b5050505050905090565b6002546001600160a01b0316610bc1611ac9565b6001600160a01b031614610be75760405162461bcd60e51b8152600401610658906125fd565b6000805482919060ff60a01b1916600160a01b836002811115610c0c57610c0c612414565b021790555050565b610c1c611e83565b610c266000611ee1565b565b600d8181548110610c3857600080fd5b9060005260206000209060209182820401919006915054906101000a900460ff1681565b6002600054600160a01b900460ff166002811115610c7c57610c7c612414565b14610cc15760405162461bcd60e51b815260206004820152601560248201527414d85b19481a5cc81b9bdd08195b991959081e595d605a1b6044820152606401610658565b60086000610ccd611ac9565b6001600160a01b0316815260208101919091526040016000205460ff1615610d375760405162461bcd60e51b815260206004820152601760248201527f57696e6e6572732063616e6e6f742077697468647261770000000000000000006044820152606401610658565b600060076000610d45611ac9565b6001600160a01b03166001600160a01b0316815260200190815260200160002054905060008111610daf5760405162461bcd60e51b81526020600482015260146024820152734e6f2066756e647320746f20776974686472617760601b6044820152606401610658565b600060076000610dbd611ac9565b6001600160a01b039081168252602082019290925260400160002091909155600c541663a9059cbb610ded611ac9565b6040516001600160e01b031960e084901b1681526001600160a01b039091166004820152602481018490526044016020604051808303816000875af1158015610e3a573d6000803e3d6000fd5b505050506040513d601f19601f82011682018060405250810190610e5e919061263f565b5080610e68611ac9565b6001600160a01b03167f1f280cd00e67ed50213ac03febd5be151f96b7f7db2f85312aa0feff99f8bdab60405160405180910390a350565b600f546001600160a01b03163314610eea5760405162461bcd60e51b815260206004820152600d60248201526c37b7363c9037b832b930ba37b960991b6044820152606401610658565b6000610ef88284018461276b565b91505060008082806020019051810190610f129190612819565b9150915060008585604051610f2892919061289c565b604051809103902090506000600e60008581526020019081526020016000205482149050600d8481548110610f5f57610f5f6128ac565b90600052602060002090602091828204019190069054906101000a900460ff16610fcb5760405162461bcd60e51b815260206004820152601c60248201527f726571756573742066756c66696c6c6564206f72206d697373696e67000000006044820152606401610658565b80156110705760408051602081018a905230918101919091524660608201526080810185905260a0016040516020818303038152906040528051906020012060001c975061101a888585611f31565b6000600d858154811061102f5761102f6128ac565b90600052602060002090602091828204019190066101000a81548160ff021916908315150217905550600e6000858152602001908152602001600020600090555b5050505050505050565b6001600054600160a01b900460ff16600281111561109a5761109a612414565b146110dc5760405162461bcd60e51b815260206004820152601260248201527153616c65206973206e6f742061637469766560701b6044820152606401610658565b6110e4611ac9565b601154604051639d9ca28d60e01b81526001600160a01b03838116600483015290911690639d9ca28d90602401602060405180830381865afa15801561112e573d6000803e3d6000fd5b505050506040513d601f19601f82011682018060405250810190611152919061263f565b1561116f5760405162461bcd60e51b815260040161065890612661565b60035460095411156111935760405162461bcd60e51b8152600401610658906128c2565b600c546001600160a01b03166111eb5760405162461bcd60e51b815260206004820152601d60248201527f5553444320636f6e74726163742061646472657373206e6f74207365740000006044820152606401610658565b6013548210156112355760405162461bcd60e51b8152602060048201526015602482015274139bdd08195b9bdd59da08199d5b991cc81cd95b9d605a1b6044820152606401610658565b600c5482906001600160a01b031663dd62ed3e611250611ac9565b6040516001600160e01b031960e084901b1681526001600160a01b039091166004820152306024820152604401602060405180830381865afa15801561129a573d6000803e3d6000fd5b505050506040513d601f19601f820116820180604052508101906112be919061290a565b10156113055760405162461bcd60e51b8152602060048201526016602482015275496e73756666696369656e7420616c6c6f77616e636560501b6044820152606401610658565b600c546001600160a01b03166323b872dd61131e611ac9565b6040516001600160e01b031960e084901b1681526001600160a01b039091166004820152306024820152604481018590526064016020604051808303816000875af1158015611371573d6000803e3d6000fd5b505050506040513d601f19601f82011682018060405250810190611395919061263f565b50600760006113a2611ac9565b6001600160a01b03166001600160a01b03168152602001908152602001600020546000036114e657600a6113d4611ac9565b81546001810183556000928352602083200180546001600160a01b0319166001600160a01b039290921691909117905560129061140f611ac9565b6001600160a01b03166001600160a01b03168152602001908152602001600020600001546000036114e657600160126000611448611ac9565b6001600160a01b031681526020810191909152604001600020600101805460ff19169115159190911790556114a761147e611ac9565b604080516001600160a01b03909216602083015201604051602081830303815290604052612011565b506114b0611ac9565b6001600160a01b03167fd802e7c7f1646e3318c03abed1e468bdf913f45331a68dc912a0d645eb646a4260405160405180910390a25b81600760006114f3611ac9565b6001600160a01b03166001600160a01b0316815260200190815260200160002060008282546115229190612730565b90915550829050611531611ac9565b6001600160a01b03167f21040858e63c11c046482f61f290bbe25972fc74b11b4570a01f9241082d21f160405160405180910390a35050565b6001600054600160a01b900460ff16600281111561158a5761158a612414565b146115cc5760405162461bcd60e51b815260206004820152601260248201527153616c65206973206e6f742061637469766560701b6044820152606401610658565b60035460095411156115f05760405162461bcd60e51b8152600401610658906128c2565b6000601354116116365760405162461bcd60e51b8152602060048201526011602482015270139bc81c9bdb1b081c1c9a58d9481cd95d607a1b6044820152606401610658565b6004546013546116469190612730565b60076000611652611ac9565b6001600160a01b03166001600160a01b031681526020019081526020016000205410156116b65760405162461bcd60e51b8152602060048201526012602482015271496e73756666696369656e742066756e647360701b6044820152606401610658565b6001601260006116c4611ac9565b6001600160a01b03166001600160a01b0316815260200190815260200160002060010160006101000a81548160ff0219169083151502179055506013546007600061170d611ac9565b6001600160a01b03166001600160a01b03168152602001908152602001600020600082825461173c919061271d565b90915550506013546002546001600160a01b03166000908152600760205260408120805490919061176e908490612730565b9091555061177f905061147e611ac9565b50565b7ff0c57e16840df040f15088dc2f81fe391c3923bec73e23a9662efc9c229c6a008054600160401b810460ff16159067ffffffffffffffff166000811580156117c85750825b905060008267ffffffffffffffff1660011480156117e55750303b155b9050811580156117f3575080155b156118115760405163f92ee8a960e01b815260040160405180910390fd5b845467ffffffffffffffff19166001178555831561183b57845460ff60401b1916600160401b1785555b6020860151600280546001600160a01b039283166001600160a01b0319918216179091558751600f8054919093169116179055604086015161187c90611ee1565b6060860151600355608086015160045560a086015160135560c086015160145560e0860151600c80546001600160a01b039283166001600160a01b031991821617909155610100880151600b80549184169183169190911790556101208801516001805491841691831691909117905561014088015160118054919093169116179055831561194557845460ff60401b19168555604051600181527fc7f505b2f371ae2175ee4913f4499e1f2633a7b5936321eed1cdaeb6115181d29060200160405180910390a15b505050505050565b60606009805480602002602001604051908101604052809291908181526020018280548015610ba3576020028201919060005260206000209081546001600160a01b03168152600190910190602001808311610b85575050505050905090565b6002546001600160a01b03166119c1611ac9565b6001600160a01b0316146119e75760405162461bcd60e51b8152600401610658906125fd565b600280546001600160a01b0319166001600160a01b0392909216919091179055565b611a11611e83565b6001600160a01b038116611a3b57604051631e4fbdf760e01b815260006004820152602401610658565b61177f81611ee1565b6002546001600160a01b0316611a58611ac9565b6001600160a01b031614611a7e5760405162461bcd60e51b8152600401610658906125fd565b611a8961147e611ac9565b50611a92611ac9565b6001600160a01b03167fd802e7c7f1646e3318c03abed1e468bdf913f45331a68dc912a0d645eb646a4260405160405180910390a2565b6000611ad3612114565b905090565b6002546001600160a01b0316611aec611ac9565b6001600160a01b031614611b125760405162461bcd60e51b8152600401610658906125fd565b6002600054600160a01b900460ff166002811115611b3257611b32612414565b14611b775760405162461bcd60e51b815260206004820152601560248201527414d85b19481a5cc81b9bdd08195b991959081e595d605a1b6044820152606401610658565b600a5460008167ffffffffffffffff811115611b9557611b956124ce565b604051908082528060200260200182016040528015611bbe578160200160208202803683370190505b50905060005b82811015611c2f57600a8181548110611bdf57611bdf6128ac565b9060005260206000200160009054906101000a90046001600160a01b0316828281518110611c0f57611c0f6128ac565b6001600160a01b0390921660209283029190910190910152600101611bc4565b5060005b82811015611e37576000828281518110611c4f57611c4f6128ac565b6020908102919091018101516001600160a01b038116600090815260078352604080822054600890945290205490925060ff1615611d9f576004548110611d5057600060045482611ca0919061271d565b90508015611d4e576001600160a01b03831660009081526007602052604081208054839290611cd090849061271d565b9091555050600c5460405163a9059cbb60e01b81526001600160a01b038581166004830152602482018490529091169063a9059cbb906044016020604051808303816000875af1158015611d28573d6000803e3d6000fd5b505050506040513d601f19601f82011682018060405250810190611d4c919061263f565b505b505b6001600160a01b0382166000908152600760205260408120546005805491929091611d7c908490612730565b90915550506001600160a01b038216600090815260076020526040812055611e2d565b6001600160a01b0382811660008181526007602052604080822091909155600c54905163a9059cbb60e01b81526004810192909252602482018490529091169063a9059cbb906044016020604051808303816000875af1158015611e07573d6000803e3d6000fd5b505050506040513d601f19601f82011682018060405250810190611e2b919061263f565b505b5050600101611c33565b50611e40612158565b611e4c600a6000612317565b6040518281527f01f8aef848121bbf182106b55119c1094063c572b6c8dcb09040e1203a17abf99060200160405180910390a15050565b611e8b611ac9565b6001600160a01b0316611ea66000546001600160a01b031690565b6001600160a01b031614610c2657611ebc611ac9565b60405163118cdaa760e01b81526001600160a01b039091166004820152602401610658565b600080546001600160a01b038381166001600160a01b0319831681178455604051919092169283917f8be0079c531659141344cd1fd0a4f28419497f9722a3daafe3b4186f6b6457e09190a35050565b600081806020019051810190611f479190612923565b90506000611f5b655af3107a400086612940565b6002549091506001600160a01b0390811690831603611f7e576010819055611fc7565b6001600160a01b0382166000908152601260205260409020819055611fa282610a68565b506001600160a01b0382166000908152601260205260409020600101805460ff191690555b816001600160a01b03167f85e7483164122a78ca40e7f10b414e6f78c7d47abdae87716e0fb3491290c6ec8260405161200291815260200190565b60405180910390a25050505050565b600d8054600180820180845560008490529192909183908110612036576120366128ac565b90600052602060002090602091828204019190066101000a81548160ff02191690831515021790555060008183604051602001612074929190612954565b6040516020818303038152906040529050600061208f6122c0565b9050600081836040516020016120a6929190612954565b60408051601f1981840301815282825280516020808301919091206000898152600e9092529290208290559250907fd91fc3685b930310b008ec37d2334870cab88a023ed8cc628a2e2ccd4e55d202906121039085908790612954565b60405180910390a150505050919050565b60007f00000000000000000000000000000000000000000000000000000000000000006001600160a01b03163303612153575060131936013560601c90565b503390565b6002546001600160a01b031661216c611ac9565b6001600160a01b0316146121925760405162461bcd60e51b8152600401610658906125fd565b6000606460055460056121a591906126d6565b6121af9190612709565b90506000816005546121c1919061271d565b6000600555600c5460015460405163a9059cbb60e01b81526001600160a01b03918216600482015260248101869052929350169063a9059cbb906044016020604051808303816000875af115801561221d573d6000803e3d6000fd5b505050506040513d601f19601f82011682018060405250810190612241919061263f565b50600c5460025460405163a9059cbb60e01b81526001600160a01b0391821660048201526024810184905291169063a9059cbb906044016020604051808303816000875af1158015612297573d6000803e3d6000fd5b505050506040513d601f19601f820116820180604052508101906122bb919061263f565b505050565b6000806122d16364e621274261271d565b905060006122e0600383612709565b6122eb906001612730565b90504660011461230557612300816001612730565b612310565b612310816004612730565b9250505090565b508054600082559060005260206000209081019061177f91905b808211156123455760008155600101612331565b5090565b60006020828403121561235b57600080fd5b5035919050565b6001600160a01b038116811461177f57600080fd5b8035610b4681612362565b60006020828403121561239457600080fd5b813561239f81612362565b9392505050565b6020808252825182820181905260009190848201906040850190845b818110156123e75783516001600160a01b0316835292840192918401916001016123c2565b50909695505050505050565b60006020828403121561240557600080fd5b81356003811061239f57600080fd5b634e487b7160e01b600052602160045260246000fd5b602081016003831061244c57634e487b7160e01b600052602160045260246000fd5b91905290565b60008060006040848603121561246757600080fd5b83359250602084013567ffffffffffffffff8082111561248657600080fd5b818601915086601f83011261249a57600080fd5b8135818111156124a957600080fd5b8760208285010111156124bb57600080fd5b6020830194508093505050509250925092565b634e487b7160e01b600052604160045260246000fd5b604051610160810167ffffffffffffffff81118282101715612508576125086124ce565b60405290565b604051601f8201601f1916810167ffffffffffffffff81118282101715612537576125376124ce565b604052919050565b6000610160828403121561255257600080fd5b61255a6124e4565b61256383612377565b815261257160208401612377565b602082015261258260408401612377565b6040820152606083013560608201526080830135608082015260a083013560a082015260c083013560c08201526125bb60e08401612377565b60e08201526101006125ce818501612377565b908201526101206125e0848201612377565b908201526101406125f2848201612377565b908201529392505050565b60208082526022908201527f4f6e6c792073656c6c65722063616e2063616c6c20746869732066756e63746960408201526137b760f11b606082015260800190565b60006020828403121561265157600080fd5b8151801515811461239f57600080fd5b60208082526028908201527f5061727469636970616e742068617320616c726561647920776f6e20696e204c6040820152676f7474657279563160c01b606082015260800190565b634e487b7160e01b600052601160045260246000fd5b6000816126ce576126ce6126a9565b506000190190565b80820281158282048414176126ed576126ed6126a9565b92915050565b634e487b7160e01b600052601260045260246000fd5b600082612718576127186126f3565b500490565b818103818111156126ed576126ed6126a9565b808201808211156126ed576126ed6126a9565b600067ffffffffffffffff82111561275d5761275d6124ce565b50601f01601f191660200190565b6000806040838503121561277e57600080fd5b82359150602083013567ffffffffffffffff81111561279c57600080fd5b8301601f810185136127ad57600080fd5b80356127c06127bb82612743565b61250e565b8181528660208385010111156127d557600080fd5b816020840160208301376000602083830101528093505050509250929050565b60005b838110156128105781810151838201526020016127f8565b50506000910152565b6000806040838503121561282c57600080fd5b82519150602083015167ffffffffffffffff81111561284a57600080fd5b8301601f8101851361285b57600080fd5b80516128696127bb82612743565b81815286602083850101111561287e57600080fd5b61288f8260208301602086016127f5565b8093505050509250929050565b8183823760009101908152919050565b634e487b7160e01b600052603260045260246000fd5b60208082526028908201527f416c6c207469636b65747320616c726561647920616c6c6f636174656420746f6040820152672077696e6e65727360c01b606082015260800190565b60006020828403121561291c57600080fd5b5051919050565b60006020828403121561293557600080fd5b815161239f81612362565b60008261294f5761294f6126f3565b500690565b82815260406020820152600082518060408401526129798160608501602087016127f5565b601f01601f191691909101606001939250505056fea2646970667358221220c36c5be1e74daa2ec490fb820430c9088f3f3477f3ae75cc2030eecadf72027764736f6c63430008190033","linkReferences":{}},"methodIdentifiers":{"MAX_RANDOM()":"0a9fa5c7","buyerWithdraw()":"7cc947d0","changeLotteryState(uint8)":"683e93e1","claimNumber(address)":"3dc204e7","deposit(uint256)":"b6b55f25","deposits(address)":"fc7e286d","endLottery()":"1593a8c7","fulfillRandomness(uint256,bytes)":"b3f6b99a","getDepositedAmount(address)":"e9081ec7","getParticipants()":"5aa68ac0","getWinners()":"df15c37e","hasMinted(address)":"38e21cce","initialize((address,address,address,uint256,uint256,uint256,uint256,address,address,address,address))":"ce1121f2","isClaimable(address)":"292fec04","isTrustedForwarder(address)":"572b6c05","isWinner(address)":"9d9ca28d","lotteryState()":"6939864b","lotteryV1Addr()":"5f86e4fe","mintMyNFT()":"26170480","multisigWalletAddress()":"a61fb2ba","nftContractAddr()":"2c23ec8e","numberOfTickets()":"45745c10","operatorAddr()":"f3f18c37","owner()":"8da5cb5b","randomNumber()":"ccbac9f5","renounceOwnership()":"715018a6","requestPending(uint256)":"75ce7fff","requestRandomness()":"f8413b07","requestedHash(uint256)":"c4f8f27b","roll()":"cd5e3c5d","rollPrice()":"cf3af3a1","rollTolerance()":"bf1dda15","rolledNumbers(address)":"7b15452d","seller()":"08551a53","setSeller(address)":"e99d2866","startLottery()":"160344e2","ticketPrice()":"1209b1f6","totalAmountForSeller()":"da59a0dd","transferOwnership(address)":"f2fde38b","usdcContractAddr()":"99dbf4b5","winnerAddresses(uint256)":"045f9c97","winners(address)":"6bd5450a"},"id":59}