{
  "abi": [
    {
      "type": "function",
      "name": "buyerWithdraw",
      "inputs": [],
      "outputs": [],
      "stateMutability": "nonpayable"
    },
    {
      "type": "function",
      "name": "changeLotteryState",
      "inputs": [
        {
          "name": "_newState",
          "type": "uint8",
          "internalType": "enum LotteryV1Base.LotteryState"
        }
      ],
      "outputs": [],
      "stateMutability": "nonpayable"
    },
    {
      "type": "function",
      "name": "deposit",
      "inputs": [
        {
          "name": "amount",
          "type": "uint256",
          "internalType": "uint256"
        }
      ],
      "outputs": [],
      "stateMutability": "payable"
    },
    {
      "type": "function",
      "name": "deposits",
      "inputs": [
        {
          "name": "",
          "type": "address",
          "internalType": "address"
        }
      ],
      "outputs": [
        {
          "name": "",
          "type": "uint256",
          "internalType": "uint256"
        }
      ],
      "stateMutability": "view"
    },
    {
      "type": "function",
      "name": "endLottery",
      "inputs": [],
      "outputs": [],
      "stateMutability": "nonpayable"
    },
    {
      "type": "function",
      "name": "finishAt",
      "inputs": [],
      "outputs": [
        {
          "name": "",
          "type": "uint256",
          "internalType": "uint256"
        }
      ],
      "stateMutability": "view"
    },
    {
      "type": "function",
      "name": "fulfillRandomness",
      "inputs": [
        {
          "name": "randomness",
          "type": "uint256",
          "internalType": "uint256"
        },
        {
          "name": "dataWithRound",
          "type": "bytes",
          "internalType": "bytes"
        }
      ],
      "outputs": [],
      "stateMutability": "nonpayable"
    },
    {
      "type": "function",
      "name": "getDepositedAmount",
      "inputs": [
        {
          "name": "participant",
          "type": "address",
          "internalType": "address"
        }
      ],
      "outputs": [
        {
          "name": "",
          "type": "uint256",
          "internalType": "uint256"
        }
      ],
      "stateMutability": "view"
    },
    {
      "type": "function",
      "name": "getEligibleParticipants",
      "inputs": [],
      "outputs": [
        {
          "name": "",
          "type": "address[]",
          "internalType": "address[]"
        }
      ],
      "stateMutability": "view"
    },
    {
      "type": "function",
      "name": "getParticipants",
      "inputs": [],
      "outputs": [
        {
          "name": "",
          "type": "address[]",
          "internalType": "address[]"
        }
      ],
      "stateMutability": "view"
    },
    {
      "type": "function",
      "name": "getWinners",
      "inputs": [],
      "outputs": [
        {
          "name": "",
          "type": "address[]",
          "internalType": "address[]"
        }
      ],
      "stateMutability": "view"
    },
    {
      "type": "function",
      "name": "hasMinted",
      "inputs": [
        {
          "name": "",
          "type": "address",
          "internalType": "address"
        }
      ],
      "outputs": [
        {
          "name": "",
          "type": "bool",
          "internalType": "bool"
        }
      ],
      "stateMutability": "view"
    },
    {
      "type": "function",
      "name": "initialize",
      "inputs": [
        {
          "name": "config",
          "type": "tuple",
          "internalType": "struct StructsLibrary.ILotteryBaseConfig",
          "components": [
            {
              "name": "_seller",
              "type": "address",
              "internalType": "address"
            },
            {
              "name": "_gelatoVrfOperator",
              "type": "address",
              "internalType": "address"
            },
            {
              "name": "_blessedOperator",
              "type": "address",
              "internalType": "address"
            },
            {
              "name": "_owner",
              "type": "address",
              "internalType": "address"
            },
            {
              "name": "_ticketAmount",
              "type": "uint256",
              "internalType": "uint256"
            },
            {
              "name": "_ticketPrice",
              "type": "uint256",
              "internalType": "uint256"
            },
            {
              "name": "_finishAt",
              "type": "uint256",
              "internalType": "uint256"
            },
            {
              "name": "_usdcContractAddr",
              "type": "address",
              "internalType": "address"
            },
            {
              "name": "_multisigWalletAddress",
              "type": "address",
              "internalType": "address"
            }
          ]
        }
      ],
      "outputs": [],
      "stateMutability": "nonpayable"
    },
    {
      "type": "function",
      "name": "initialized",
      "inputs": [],
      "outputs": [
        {
          "name": "",
          "type": "bool",
          "internalType": "bool"
        }
      ],
      "stateMutability": "view"
    },
    {
      "type": "function",
      "name": "isParticipantEligible",
      "inputs": [
        {
          "name": "participant",
          "type": "address",
          "internalType": "address"
        }
      ],
      "outputs": [
        {
          "name": "",
          "type": "bool",
          "internalType": "bool"
        }
      ],
      "stateMutability": "view"
    },
    {
      "type": "function",
      "name": "isTrustedForwarder",
      "inputs": [
        {
          "name": "forwarder",
          "type": "address",
          "internalType": "address"
        }
      ],
      "outputs": [
        {
          "name": "",
          "type": "bool",
          "internalType": "bool"
        }
      ],
      "stateMutability": "view"
    },
    {
      "type": "function",
      "name": "isWinner",
      "inputs": [
        {
          "name": "_participant",
          "type": "address",
          "internalType": "address"
        }
      ],
      "outputs": [
        {
          "name": "",
          "type": "bool",
          "internalType": "bool"
        }
      ],
      "stateMutability": "view"
    },
    {
      "type": "function",
      "name": "lotteryState",
      "inputs": [],
      "outputs": [
        {
          "name": "",
          "type": "uint8",
          "internalType": "enum LotteryV1Base.LotteryState"
        }
      ],
      "stateMutability": "view"
    },
    {
      "type": "function",
      "name": "minimumDepositAmount",
      "inputs": [],
      "outputs": [
        {
          "name": "",
          "type": "uint256",
          "internalType": "uint256"
        }
      ],
      "stateMutability": "view"
    },
    {
      "type": "function",
      "name": "mintMyNFT",
      "inputs": [],
      "outputs": [],
      "stateMutability": "nonpayable"
    },
    {
      "type": "function",
      "name": "multisigWalletAddress",
      "inputs": [],
      "outputs": [
        {
          "name": "",
          "type": "address",
          "internalType": "address"
        }
      ],
      "stateMutability": "view"
    },
    {
      "type": "function",
      "name": "nftContractAddr",
      "inputs": [],
      "outputs": [
        {
          "name": "",
          "type": "address",
          "internalType": "address"
        }
      ],
      "stateMutability": "view"
    },
    {
      "type": "function",
      "name": "numberOfTickets",
      "inputs": [],
      "outputs": [
        {
          "name": "",
          "type": "uint256",
          "internalType": "uint256"
        }
      ],
      "stateMutability": "view"
    },
    {
      "type": "function",
      "name": "operatorAddr",
      "inputs": [],
      "outputs": [
        {
          "name": "",
          "type": "address",
          "internalType": "address"
        }
      ],
      "stateMutability": "view"
    },
    {
      "type": "function",
      "name": "owner",
      "inputs": [],
      "outputs": [
        {
          "name": "",
          "type": "address",
          "internalType": "address"
        }
      ],
      "stateMutability": "view"
    },
    {
      "type": "function",
      "name": "randomNumber",
      "inputs": [],
      "outputs": [
        {
          "name": "",
          "type": "uint256",
          "internalType": "uint256"
        }
      ],
      "stateMutability": "view"
    },
    {
      "type": "function",
      "name": "renounceOwnership",
      "inputs": [],
      "outputs": [],
      "stateMutability": "nonpayable"
    },
    {
      "type": "function",
      "name": "requestPending",
      "inputs": [
        {
          "name": "",
          "type": "uint256",
          "internalType": "uint256"
        }
      ],
      "outputs": [
        {
          "name": "",
          "type": "bool",
          "internalType": "bool"
        }
      ],
      "stateMutability": "view"
    },
    {
      "type": "function",
      "name": "requestRandomness",
      "inputs": [],
      "outputs": [],
      "stateMutability": "nonpayable"
    },
    {
      "type": "function",
      "name": "requestedHash",
      "inputs": [
        {
          "name": "",
          "type": "uint256",
          "internalType": "uint256"
        }
      ],
      "outputs": [
        {
          "name": "",
          "type": "bytes32",
          "internalType": "bytes32"
        }
      ],
      "stateMutability": "view"
    },
    {
      "type": "function",
      "name": "selectWinners",
      "inputs": [],
      "outputs": [],
      "stateMutability": "nonpayable"
    },
    {
      "type": "function",
      "name": "seller",
      "inputs": [],
      "outputs": [
        {
          "name": "",
          "type": "address",
          "internalType": "address"
        }
      ],
      "stateMutability": "view"
    },
    {
      "type": "function",
      "name": "sellerWithdraw",
      "inputs": [],
      "outputs": [],
      "stateMutability": "nonpayable"
    },
    {
      "type": "function",
      "name": "setFinishAt",
      "inputs": [
        {
          "name": "_finishAt",
          "type": "uint256",
          "internalType": "uint256"
        }
      ],
      "outputs": [],
      "stateMutability": "nonpayable"
    },
    {
      "type": "function",
      "name": "setMinimumDepositAmount",
      "inputs": [
        {
          "name": "_amount",
          "type": "uint256",
          "internalType": "uint256"
        }
      ],
      "outputs": [],
      "stateMutability": "nonpayable"
    },
    {
      "type": "function",
      "name": "setMultisigWalletAddress",
      "inputs": [
        {
          "name": "_multisigWalletAddress",
          "type": "address",
          "internalType": "address"
        }
      ],
      "outputs": [],
      "stateMutability": "nonpayable"
    },
    {
      "type": "function",
      "name": "setNftContractAddr",
      "inputs": [
        {
          "name": "_nftContractAddr",
          "type": "address",
          "internalType": "address"
        }
      ],
      "outputs": [],
      "stateMutability": "nonpayable"
    },
    {
      "type": "function",
      "name": "setNumberOfTickets",
      "inputs": [
        {
          "name": "_numberOfTickets",
          "type": "uint256",
          "internalType": "uint256"
        }
      ],
      "outputs": [],
      "stateMutability": "nonpayable"
    },
    {
      "type": "function",
      "name": "setSeller",
      "inputs": [
        {
          "name": "_seller",
          "type": "address",
          "internalType": "address"
        }
      ],
      "outputs": [],
      "stateMutability": "nonpayable"
    },
    {
      "type": "function",
      "name": "setUsdcContractAddr",
      "inputs": [
        {
          "name": "_usdcContractAddr",
          "type": "address",
          "internalType": "address"
        }
      ],
      "outputs": [],
      "stateMutability": "nonpayable"
    },
    {
      "type": "function",
      "name": "setWinner",
      "inputs": [
        {
          "name": "_winner",
          "type": "address",
          "internalType": "address"
        }
      ],
      "outputs": [],
      "stateMutability": "nonpayable"
    },
    {
      "type": "function",
      "name": "startLottery",
      "inputs": [],
      "outputs": [],
      "stateMutability": "nonpayable"
    },
    {
      "type": "function",
      "name": "transferNonWinnerDeposits",
      "inputs": [
        {
          "name": "lotteryV2addr",
          "type": "address",
          "internalType": "address"
        }
      ],
      "outputs": [],
      "stateMutability": "nonpayable"
    },
    {
      "type": "function",
      "name": "transferOwnership",
      "inputs": [
        {
          "name": "newOwner",
          "type": "address",
          "internalType": "address"
        }
      ],
      "outputs": [],
      "stateMutability": "nonpayable"
    },
    {
      "type": "function",
      "name": "usdcContractAddr",
      "inputs": [],
      "outputs": [
        {
          "name": "",
          "type": "address",
          "internalType": "address"
        }
      ],
      "stateMutability": "view"
    },
    {
      "type": "function",
      "name": "winnerAddresses",
      "inputs": [
        {
          "name": "",
          "type": "uint256",
          "internalType": "uint256"
        }
      ],
      "outputs": [
        {
          "name": "",
          "type": "address",
          "internalType": "address"
        }
      ],
      "stateMutability": "view"
    },
    {
      "type": "function",
      "name": "winners",
      "inputs": [
        {
          "name": "",
          "type": "address",
          "internalType": "address"
        }
      ],
      "outputs": [
        {
          "name": "",
          "type": "bool",
          "internalType": "bool"
        }
      ],
      "stateMutability": "view"
    },
    {
      "type": "event",
      "name": "LotteryEnded",
      "inputs": [],
      "anonymous": false
    },
    {
      "type": "event",
      "name": "LotteryStarted",
      "inputs": [],
      "anonymous": false
    },
    {
      "type": "event",
      "name": "OwnershipTransferred",
      "inputs": [
        {
          "name": "previousOwner",
          "type": "address",
          "indexed": true,
          "internalType": "address"
        },
        {
          "name": "newOwner",
          "type": "address",
          "indexed": true,
          "internalType": "address"
        }
      ],
      "anonymous": false
    },
    {
      "type": "event",
      "name": "RandomFullfiled",
      "inputs": [
        {
          "name": "number",
          "type": "uint256",
          "indexed": false,
          "internalType": "uint256"
        }
      ],
      "anonymous": false
    },
    {
      "type": "event",
      "name": "RandomRequested",
      "inputs": [
        {
          "name": "requester",
          "type": "address",
          "indexed": true,
          "internalType": "address"
        }
      ],
      "anonymous": false
    },
    {
      "type": "event",
      "name": "RequestedRandomness",
      "inputs": [
        {
          "name": "round",
          "type": "uint256",
          "indexed": false,
          "internalType": "uint256"
        },
        {
          "name": "data",
          "type": "bytes",
          "indexed": false,
          "internalType": "bytes"
        }
      ],
      "anonymous": false
    },
    {
      "type": "event",
      "name": "WinnerSelected",
      "inputs": [
        {
          "name": "winner",
          "type": "address",
          "indexed": true,
          "internalType": "address"
        }
      ],
      "anonymous": false
    },
    {
      "type": "error",
      "name": "OwnableInvalidOwner",
      "inputs": [
        {
          "name": "owner",
          "type": "address",
          "internalType": "address"
        }
      ]
    },
    {
      "type": "error",
      "name": "OwnableUnauthorizedAccount",
      "inputs": [
        {
          "name": "account",
          "type": "address",
          "internalType": "address"
        }
      ]
    }
  ],
  "bytecode": {
    "object": "0x60a06040526002805460ff60a01b1916905534801561001d57600080fd5b5073d8253782c45a12053594b9deb72d8e8ab2fca54c338061005957604051631e4fbdf760e01b81526000600482015260240160405180910390fd5b61006281610074565b506001600160a01b03166080526100c6565b600280546001600160a01b038381166001600160a01b0319831681179093556040519116919082907f8be0079c531659141344cd1fd0a4f28419497f9722a3daafe3b4186f6b6457e090600090a35050565b608051612be66100e860003960008181610458015261255a0152612be66000f3fe6080604052600436106102885760003560e01c80637cc947d01161015a578063c4f8f27b116100c1578063e9081ec71161007a578063e9081ec7146107d4578063e99d28661461080a578063f2fde38b1461082a578063f3f18c371461084a578063f8413b071461086a578063fc7e286d1461087f57600080fd5b8063c4f8f27b1461071c578063ccbac9f514610749578063d30009bd1461075f578063d9fca7691461077f578063df15c37e1461079f578063e63c4609146107b457600080fd5b80639abdccd1116101135780639abdccd11461065b5780639d9ca28d14610670578063a61fb2ba146106a9578063aab483d6146106c9578063b3f6b99a146106e9578063b6b55f251461070957600080fd5b80637cc947d0146105a85780638a6723e6146105bd5780638da5cb5b146105dd57806394d898de146105fb57806399bd69d61461061b57806399dbf4b51461063b57600080fd5b806338e21cce116101fe57806367d3b488116101b757806367d3b488146104df578063683e93e1146104f55780636939864b146105155780636bd5450a14610543578063715018a61461057357806375ce7fff1461058857600080fd5b806338e21cce146103f557806345745c1014610425578063572b6c051461043b5780635aa68ac01461048857806360d50da3146104aa57806366af746b146104ca57600080fd5b80631593a8c7116102505780631593a8c714610361578063160344e2146103765780631a0de74c1461038b57806326170480146103a05780632c23ec8e146103b55780633644c27c146103d557600080fd5b8063045f9c971461028d578063080c279a146102ca57806308551a53146102ee5780630bea66371461030e578063158ef93e14610330575b600080fd5b34801561029957600080fd5b506102ad6102a8366004612623565b6108ac565b6040516001600160a01b0390911681526020015b60405180910390f35b3480156102d657600080fd5b506102e060065481565b6040519081526020016102c1565b3480156102fa57600080fd5b506004546102ad906001600160a01b031681565b34801561031a57600080fd5b5061032e610329366004612623565b6108d6565b005b34801561033c57600080fd5b5060025461035190600160a01b900460ff1681565b60405190151581526020016102c1565b34801561036d57600080fd5b5061032e61091e565b34801561038257600080fd5b5061032e610964565b34801561039757600080fd5b5061032e610a1d565b3480156103ac57600080fd5b5061032e610e47565b3480156103c157600080fd5b50600f546102ad906001600160a01b031681565b3480156103e157600080fd5b5061032e6103f0366004612658565b611013565b34801561040157600080fd5b50610351610410366004612658565b600a6020526000908152604090205460ff1681565b34801561043157600080fd5b506102e060075481565b34801561044757600080fd5b50610351610456366004612658565b7f00000000000000000000000000000000000000000000000000000000000000006001600160a01b0390811691161490565b34801561049457600080fd5b5061049d61103d565b6040516102c1919061267a565b3480156104b657600080fd5b5061032e6104c5366004612658565b61109f565b3480156104d657600080fd5b5061032e6110c9565b3480156104eb57600080fd5b506102e060115481565b34801561050157600080fd5b5061032e6105103660046126c7565b6112fd565b34801561052157600080fd5b5060025461053690600160a81b900460ff1681565b6040516102c191906126fe565b34801561054f57600080fd5b5061035161055e366004612658565b600c6020526000908152604090205460ff1681565b34801561057f57600080fd5b5061032e611364565b34801561059457600080fd5b506103516105a3366004612623565b611376565b3480156105b457600080fd5b5061032e6113aa565b3480156105c957600080fd5b506103516105d8366004612658565b6115b8565b3480156105e957600080fd5b506002546001600160a01b03166102ad565b34801561060757600080fd5b5061032e610616366004612658565b611617565b34801561062757600080fd5b5061032e610636366004612623565b611641565b34801561064757600080fd5b506010546102ad906001600160a01b031681565b34801561066757600080fd5b5061049d6116e4565b34801561067c57600080fd5b5061035161068b366004612658565b6001600160a01b03166000908152600c602052604090205460ff1690565b3480156106b557600080fd5b506003546102ad906001600160a01b031681565b3480156106d557600080fd5b5061032e6106e4366004612623565b611744565b3480156106f557600080fd5b5061032e610704366004612726565b611783565b61032e610717366004612623565b611957565b34801561072857600080fd5b506102e0610737366004612623565b60016020526000908152604090205481565b34801561075557600080fd5b506102e060085481565b34801561076b57600080fd5b5061032e61077a366004612813565b611ccd565b34801561078b57600080fd5b5061032e61079a366004612658565b611dc7565b3480156107ab57600080fd5b5061049d611e67565b3480156107c057600080fd5b5061032e6107cf366004612658565b611ec7565b3480156107e057600080fd5b506102e06107ef366004612658565b6001600160a01b03166000908152600b602052604090205490565b34801561081657600080fd5b5061032e610825366004612658565b612160565b34801561083657600080fd5b5061032e610845366004612658565b6121bc565b34801561085657600080fd5b506005546102ad906001600160a01b031681565b34801561087657600080fd5b5061032e6121fa565b34801561088b57600080fd5b506102e061089a366004612658565b600b6020526000908152604090205481565b600d81815481106108bc57600080fd5b6000918252602090912001546001600160a01b0316905081565b6004546001600160a01b03166108ea6122a8565b6001600160a01b0316146109195760405162461bcd60e51b8152600401610910906128b4565b60405180910390fd5b601155565b6004546001600160a01b03166109326122a8565b6001600160a01b0316146109585760405162461bcd60e51b8152600401610910906128b4565b61096260026112fd565b565b6004546001600160a01b03166109786122a8565b6001600160a01b03161461099e5760405162461bcd60e51b8152600401610910906128b4565b6000600254600160a81b900460ff1660048111156109be576109be6126e8565b14610a0b5760405162461bcd60e51b815260206004820152601a60248201527f4c6f747465727920697320696e206163746976652073746174650000000000006044820152606401610910565b610a1560016112fd565b6109626122b7565b6004546001600160a01b0316610a316122a8565b6001600160a01b031614610a575760405162461bcd60e51b8152600401610910906128b4565b600060075411610aa95760405162461bcd60e51b815260206004820152601b60248201527f4e6f207469636b657473206c65667420746f20616c6c6f6361746500000000006044820152606401610910565b60095460075410610b715760005b600954811015610b5a57600060098281548110610ad657610ad66128f6565b6000918252602090912001546001600160a01b03169050610b0f816001600160a01b03166000908152600c602052604090205460ff1690565b610b5157610b1c81611dc7565b6040516001600160a01b038216907f1d4c260f1824cd028e6c9e6e31c3a0b94f2513e7a641113ec759d382f9bdd5a190600090a25b50600101610ab7565b50610b67600960006125f1565b6000600755610e12565b60005b600954811015610c8c57600954600090610b8f908390612922565b600854610b9c9190612951565b610ba69083612965565b9050600060098281548110610bbd57610bbd6128f6565b600091825260209091200154600980546001600160a01b0390921692509084908110610beb57610beb6128f6565b600091825260209091200154600980546001600160a01b039092169184908110610c1757610c176128f6565b9060005260206000200160006101000a8154816001600160a01b0302191690836001600160a01b031602179055508060098481548110610c5957610c596128f6565b600091825260209091200180546001600160a01b0319166001600160a01b03929092169190911790555050600101610b74565b5060005b600754811015610d3357600060098281548110610caf57610caf6128f6565b6000918252602090912001546001600160a01b03169050610ce8816001600160a01b03166000908152600c602052604090205460ff1690565b610d2a57610cf581611dc7565b6040516001600160a01b038216907f1d4c260f1824cd028e6c9e6e31c3a0b94f2513e7a641113ec759d382f9bdd5a190600090a25b50600101610c90565b506007546000905b600954811015610dc25760098181548110610d5857610d586128f6565b600091825260209091200154600980546001600160a01b039092169184908110610d8457610d846128f6565b600091825260209091200180546001600160a01b0319166001600160a01b039290921691909117905581610db781612978565b925050600101610d3b565b50805b600954811015610e0a576009805480610de057610de0612991565b600082815260209020810160001990810180546001600160a01b0319169055019055600101610dc5565b505060006007555b600754600003610962576040517f9c89a6ed7228533196a3f962acc80d61a9c53bdea6b910741bf754f5aaa7569e90600090a1565b600a6000610e536122a8565b6001600160a01b0316815260208101919091526040016000205460ff1615610eb25760405162461bcd60e51b815260206004820152601260248201527113919508185b1c9958591e481b5a5b9d195960721b6044820152606401610910565b60028054600160a81b900460ff166004811115610ed157610ed16126e8565b14610f1e5760405162461bcd60e51b815260206004820152601860248201527f4c6f7474657279206973206e6f7420656e6465642079657400000000000000006044820152606401610910565b610f2961068b6122a8565b610f6e5760405162461bcd60e51b815260206004820152601660248201527521b0b63632b91034b9903737ba1030903bb4b73732b960511b6044820152606401610910565b6001600a6000610f7c6122a8565b6001600160a01b0390811682526020820192909252604001600020805460ff191692151592909217909155600f5416636b8f60f6610fb86122a8565b6040516001600160e01b031960e084901b1681526001600160a01b039091166004820152602401600060405180830381600087803b158015610ff957600080fd5b505af115801561100d573d6000803e3d6000fd5b50505050565b61101b612368565b600f80546001600160a01b0319166001600160a01b0392909216919091179055565b6060600e80548060200260200160405190810160405280929190818152602001828054801561109557602002820191906000526020600020905b81546001600160a01b03168152600190910190602001808311611077575b5050505050905090565b6110a7612368565b600380546001600160a01b0319166001600160a01b0392909216919091179055565b6004546001600160a01b03166110dd6122a8565b6001600160a01b0316146111035760405162461bcd60e51b8152600401610910906128b4565b60028054600160a81b900460ff166004811115611122576111226126e8565b146111635760405162461bcd60e51b8152602060048201526011602482015270131bdd1d195c9e481b9bdd08195b991959607a1b6044820152606401610910565b6000805b600d548110156111dc576000600d8281548110611186576111866128f6565b60009182526020808320909101546001600160a01b0316808352600b9091526040909120549091506111b89084612965565b6001600160a01b039091166000908152600b60205260408120559150600101611167565b50600060646111ec8360056129a7565b6111f691906129be565b905060006112048284612922565b60105460035460405163a9059cbb60e01b81526001600160a01b03918216600482015260248101869052929350169063a9059cbb906044016020604051808303816000875af115801561125b573d6000803e3d6000fd5b505050506040513d601f19601f8201168201806040525081019061127f91906129d2565b506010546004805460405163a9059cbb60e01b81526001600160a01b0391821692810192909252602482018490529091169063a9059cbb906044016020604051808303816000875af11580156112d9573d6000803e3d6000fd5b505050506040513d601f19601f8201168201806040525081019061100d91906129d2565b6004546001600160a01b03166113116122a8565b6001600160a01b0316146113375760405162461bcd60e51b8152600401610910906128b4565b6002805482919060ff60a81b1916600160a81b83600481111561135c5761135c6126e8565b021790555050565b61136c612368565b61096260006123c6565b6000818154811061138657600080fd5b9060005260206000209060209182820401919006915054906101000a900460ff1681565b6001600254600160a81b900460ff1660048111156113ca576113ca6126e8565b036114175760405162461bcd60e51b815260206004820152601b60248201527f4c6f74746572792069732063757272656e746c792061637469766500000000006044820152606401610910565b600c60006114236122a8565b6001600160a01b0316815260208101919091526040016000205460ff161561148d5760405162461bcd60e51b815260206004820152601760248201527f57696e6e6572732063616e6e6f742077697468647261770000000000000000006044820152606401610910565b6000600b600061149b6122a8565b6001600160a01b03166001600160a01b03168152602001908152602001600020549050600081116115055760405162461bcd60e51b81526020600482015260146024820152734e6f2066756e647320746f20776974686472617760601b6044820152606401610910565b6000600b60006115136122a8565b6001600160a01b0390811682526020820192909252604001600020919091556010541663a9059cbb6115436122a8565b6040516001600160e01b031960e084901b1681526001600160a01b039091166004820152602481018490526044016020604051808303816000875af1158015611590573d6000803e3d6000fd5b505050506040513d601f19601f820116820180604052508101906115b491906129d2565b5050565b6000805b60095481101561160e57826001600160a01b0316600982815481106115e3576115e36128f6565b6000918252602090912001546001600160a01b0316036116065750600192915050565b6001016115bc565b50600092915050565b61161f612368565b601080546001600160a01b0319166001600160a01b0392909216919091179055565b6004546001600160a01b03166116556122a8565b6001600160a01b03161461167b5760405162461bcd60e51b8152600401610910906128b4565b600081116116df5760405162461bcd60e51b815260206004820152602b60248201527f4e756d626572206f66207469636b657473206d7573742062652067726561746560448201526a72207468616e207a65726f60a81b6064820152608401610910565b600755565b60606009805480602002602001604051908101604052809291908181526020018280548015611095576020028201919060005260206000209081546001600160a01b03168152600190910190602001808311611077575050505050905090565b6004546001600160a01b03166117586122a8565b6001600160a01b03161461177e5760405162461bcd60e51b8152600401610910906128b4565b600655565b6005546001600160a01b031633146117cd5760405162461bcd60e51b815260206004820152600d60248201526c37b7363c9037b832b930ba37b960991b6044820152606401610910565b60006117db82840184612a1c565b915050600080828060200190518101906117f59190612aca565b915091506000858560405161180b929190612b4d565b604080519182900390912060008581526001602052918220548254919350831491908590811061183d5761183d6128f6565b90600052602060002090602091828204019190069054906101000a900460ff166118a95760405162461bcd60e51b815260206004820152601c60248201527f726571756573742066756c66696c6c6564206f72206d697373696e67000000006044820152606401610910565b801561194d5760408051602081018a905230918101919091524660608201526080810185905260a0016040516020818303038152906040528051906020012060001c97506118f8888585612418565b600080858154811061190c5761190c6128f6565b90600052602060002090602091828204019190066101000a81548160ff02191690831515021790555060016000858152602001908152602001600020600090555b5050505050505050565b6001600254600160a81b900460ff166004811115611977576119776126e8565b036119c45760405162461bcd60e51b815260206004820152601b60248201527f4c6f74746572792069732063757272656e746c792061637469766500000000006044820152606401610910565b4260115411611a1f5760405162461bcd60e51b815260206004820152602160248201527f4465706f7369747320617265206e6f7420706f737369626c6520616e796d6f726044820152606560f81b6064820152608401610910565b6010546001600160a01b0316611a775760405162461bcd60e51b815260206004820152601d60248201527f5553444320636f6e74726163742061646472657373206e6f74207365740000006044820152606401610910565b60008111611ab75760405162461bcd60e51b815260206004820152600d60248201526c139bc8199d5b991cc81cd95b9d609a1b6044820152606401610910565b60105481906001600160a01b031663dd62ed3e611ad26122a8565b6040516001600160e01b031960e084901b1681526001600160a01b039091166004820152306024820152604401602060405180830381865afa158015611b1c573d6000803e3d6000fd5b505050506040513d601f19601f82011682018060405250810190611b409190612b5d565b1015611b875760405162461bcd60e51b8152602060048201526016602482015275496e73756666696369656e7420616c6c6f77616e636560501b6044820152606401610910565b6010546001600160a01b03166323b872dd611ba06122a8565b6040516001600160e01b031960e084901b1681526001600160a01b039091166004820152306024820152604481018490526064016020604051808303816000875af1158015611bf3573d6000803e3d6000fd5b505050506040513d601f19601f82011682018060405250810190611c1791906129d2565b50600b6000611c246122a8565b6001600160a01b03166001600160a01b0316815260200190815260200160002054600003611c8957600e611c566122a8565b81546001810183556000928352602090922090910180546001600160a01b0319166001600160a01b039092169190911790555b80600b6000611c966122a8565b6001600160a01b03166001600160a01b031681526020019081526020016000206000828254611cc59190612965565b909155505050565b600254600160a01b900460ff1615611d1d5760405162461bcd60e51b8152602060048201526013602482015272105b1c9958591e481a5b9a5d1a585b1a5e9959606a1b6044820152606401610910565b6040810151600480546001600160a01b039283166001600160a01b0319918216179091556020830151600580549190931691161790556060810151611d61906123c6565b608081015160075560a081015160065560c081015160115560e0810151601080546001600160a01b03199081166001600160a01b03938416179091556101009092015160038054909316911617905560028054600160a01b60ff60a01b19909116179055565b6004546001600160a01b0316611ddb6122a8565b6001600160a01b031614611e015760405162461bcd60e51b8152600401610910906128b4565b6001600160a01b03166000818152600c60205260408120805460ff19166001908117909155600d805491820181559091527fd7b6990105719101dabeb77144f2a3385c8033acd3af97e9423a695e81ad1eb50180546001600160a01b0319169091179055565b6060600d805480602002602001604051908101604052809291908181526020018280548015611095576020028201919060005260206000209081546001600160a01b03168152600190910190602001808311611077575050505050905090565b6004546001600160a01b0316611edb6122a8565b6001600160a01b031614611f015760405162461bcd60e51b8152600401610910906128b4565b60005b600e548110156115b4576000600b6000600e8481548110611f2757611f276128f6565b60009182526020808320909101546001600160a01b03168352820192909252604001812054600e8054919350600b9183919086908110611f6957611f696128f6565b6000918252602080832091909101546001600160a01b039081168452908301939093526040918201902092909255601054915163a9059cbb60e01b815285821660048201526024810184905291169063a9059cbb906044016020604051808303816000875af1158015611fe0573d6000803e3d6000fd5b505050506040513d601f19601f8201168201806040525081019061200491906129d2565b50826001600160a01b03166350f3dbec600e8481548110612027576120276128f6565b60009182526020909120015460405160e083901b6001600160e01b03191681526001600160a01b03909116600482015260248101849052604401600060405180830381600087803b15801561207b57600080fd5b505af115801561208f573d6000803e3d6000fd5b5050600e546120a2925060019150612922565b82101561212457600e80546120b990600190612922565b815481106120c9576120c96128f6565b600091825260209091200154600e80546001600160a01b0390921691849081106120f5576120f56128f6565b9060005260206000200160006101000a8154816001600160a01b0302191690836001600160a01b031602179055505b600e80548061213557612135612991565b600082815260209020810160001990810180546001600160a01b031916905501905550600101611f04565b6004546001600160a01b03166121746122a8565b6001600160a01b03161461219a5760405162461bcd60e51b8152600401610910906128b4565b600480546001600160a01b0319166001600160a01b0392909216919091179055565b6121c4612368565b6001600160a01b0381166121ee57604051631e4fbdf760e01b815260006004820152602401610910565b6121f7816123c6565b50565b6004546001600160a01b031661220e6122a8565b6001600160a01b0316146122345760405162461bcd60e51b8152600401610910906128b4565b61226861223f6122a8565b604080516001600160a01b03909216602083015201604051602081830303815290604052612455565b506122716122a8565b6001600160a01b03167fd802e7c7f1646e3318c03abed1e468bdf913f45331a68dc912a0d645eb646a4260405160405180910390a2565b60006122b2612556565b905090565b60005b600e548110156121f7576000600b6000600e84815481106122dd576122dd6128f6565b60009182526020808320909101546001600160a01b03168352820192909252604001902054600654909150811061235f576009600e8381548110612323576123236128f6565b60009182526020808320909101548354600181018555938352912090910180546001600160a01b0319166001600160a01b039092169190911790555b506001016122ba565b6123706122a8565b6001600160a01b031661238b6002546001600160a01b031690565b6001600160a01b031614610962576123a16122a8565b60405163118cdaa760e01b81526001600160a01b039091166004820152602401610910565b600280546001600160a01b038381166001600160a01b0319831681179093556040519116919082907f8be0079c531659141344cd1fd0a4f28419497f9722a3daafe3b4186f6b6457e090600090a35050565b60088390556040518381527fa2353d33775668d31add0688b8ed09ca3a91dc8129126fcdbcbda3a887db60db9060200160405180910390a1505050565b6000805460018082018084558380529192909183908110612478576124786128f6565b90600052602060002090602091828204019190066101000a81548160ff021916908315150217905550600081836040516020016124b6929190612b76565b604051602081830303815290604052905060006124d161259a565b9050600081836040516020016124e8929190612b76565b60408051601f198184030181528282528051602080830191909120600089815260019092529290208290559250907fd91fc3685b930310b008ec37d2334870cab88a023ed8cc628a2e2ccd4e55d202906125459085908790612b76565b60405180910390a150505050919050565b60007f00000000000000000000000000000000000000000000000000000000000000006001600160a01b03163303612595575060131936013560601c90565b503390565b6000806125ab6364e6212742612922565b905060006125ba6003836129be565b6125c5906001612965565b9050466001146125df576125da816001612965565b6125ea565b6125ea816004612965565b9250505090565b50805460008255906000526020600020908101906121f791905b8082111561261f576000815560010161260b565b5090565b60006020828403121561263557600080fd5b5035919050565b80356001600160a01b038116811461265357600080fd5b919050565b60006020828403121561266a57600080fd5b6126738261263c565b9392505050565b6020808252825182820181905260009190848201906040850190845b818110156126bb5783516001600160a01b031683529284019291840191600101612696565b50909695505050505050565b6000602082840312156126d957600080fd5b81356005811061267357600080fd5b634e487b7160e01b600052602160045260246000fd5b602081016005831061272057634e487b7160e01b600052602160045260246000fd5b91905290565b60008060006040848603121561273b57600080fd5b83359250602084013567ffffffffffffffff8082111561275a57600080fd5b818601915086601f83011261276e57600080fd5b81358181111561277d57600080fd5b87602082850101111561278f57600080fd5b6020830194508093505050509250925092565b634e487b7160e01b600052604160045260246000fd5b604051610120810167ffffffffffffffff811182821017156127dc576127dc6127a2565b60405290565b604051601f8201601f1916810167ffffffffffffffff8111828210171561280b5761280b6127a2565b604052919050565b6000610120828403121561282657600080fd5b61282e6127b8565b6128378361263c565b81526128456020840161263c565b60208201526128566040840161263c565b60408201526128676060840161263c565b60608201526080830135608082015260a083013560a082015260c083013560c082015261289660e0840161263c565b60e08201526101006128a981850161263c565b908201529392505050565b60208082526022908201527f4f6e6c792073656c6c65722063616e2063616c6c20746869732066756e63746960408201526137b760f11b606082015260800190565b634e487b7160e01b600052603260045260246000fd5b634e487b7160e01b600052601160045260246000fd5b818103818111156129355761293561290c565b92915050565b634e487b7160e01b600052601260045260246000fd5b6000826129605761296061293b565b500690565b808201808211156129355761293561290c565b60006001820161298a5761298a61290c565b5060010190565b634e487b7160e01b600052603160045260246000fd5b80820281158282048414176129355761293561290c565b6000826129cd576129cd61293b565b500490565b6000602082840312156129e457600080fd5b8151801515811461267357600080fd5b600067ffffffffffffffff821115612a0e57612a0e6127a2565b50601f01601f191660200190565b60008060408385031215612a2f57600080fd5b82359150602083013567ffffffffffffffff811115612a4d57600080fd5b8301601f81018513612a5e57600080fd5b8035612a71612a6c826129f4565b6127e2565b818152866020838501011115612a8657600080fd5b816020840160208301376000602083830101528093505050509250929050565b60005b83811015612ac1578181015183820152602001612aa9565b50506000910152565b60008060408385031215612add57600080fd5b82519150602083015167ffffffffffffffff811115612afb57600080fd5b8301601f81018513612b0c57600080fd5b8051612b1a612a6c826129f4565b818152866020838501011115612b2f57600080fd5b612b40826020830160208601612aa6565b8093505050509250929050565b8183823760009101908152919050565b600060208284031215612b6f57600080fd5b5051919050565b8281526040602082015260008251806040840152612b9b816060850160208701612aa6565b601f01601f191691909101606001939250505056fea26469706673582212204997f1b1a56441e73d276af4e2df910bc47728265d802554d51b872f01e15e3564736f6c63430008190033",
    "linkReferences": {}
  },
  "methodIdentifiers": {
    "buyerWithdraw()": "7cc947d0",
    "changeLotteryState(uint8)": "683e93e1",
    "deposit(uint256)": "b6b55f25",
    "deposits(address)": "fc7e286d",
    "endLottery()": "1593a8c7",
    "finishAt()": "67d3b488",
    "fulfillRandomness(uint256,bytes)": "b3f6b99a",
    "getDepositedAmount(address)": "e9081ec7",
    "getEligibleParticipants()": "9abdccd1",
    "getParticipants()": "5aa68ac0",
    "getWinners()": "df15c37e",
    "hasMinted(address)": "38e21cce",
    "initialize((address,address,address,address,uint256,uint256,uint256,address,address))": "d30009bd",
    "initialized()": "158ef93e",
    "isParticipantEligible(address)": "8a6723e6",
    "isTrustedForwarder(address)": "572b6c05",
    "isWinner(address)": "9d9ca28d",
    "lotteryState()": "6939864b",
    "minimumDepositAmount()": "080c279a",
    "mintMyNFT()": "26170480",
    "multisigWalletAddress()": "a61fb2ba",
    "nftContractAddr()": "2c23ec8e",
    "numberOfTickets()": "45745c10",
    "operatorAddr()": "f3f18c37",
    "owner()": "8da5cb5b",
    "randomNumber()": "ccbac9f5",
    "renounceOwnership()": "715018a6",
    "requestPending(uint256)": "75ce7fff",
    "requestRandomness()": "f8413b07",
    "requestedHash(uint256)": "c4f8f27b",
    "selectWinners()": "1a0de74c",
    "seller()": "08551a53",
    "sellerWithdraw()": "66af746b",
    "setFinishAt(uint256)": "0bea6637",
    "setMinimumDepositAmount(uint256)": "aab483d6",
    "setMultisigWalletAddress(address)": "60d50da3",
    "setNftContractAddr(address)": "3644c27c",
    "setNumberOfTickets(uint256)": "99bd69d6",
    "setSeller(address)": "e99d2866",
    "setUsdcContractAddr(address)": "94d898de",
    "setWinner(address)": "d9fca769",
    "startLottery()": "160344e2",
    "transferNonWinnerDeposits(address)": "e63c4609",
    "transferOwnership(address)": "f2fde38b",
    "usdcContractAddr()": "99dbf4b5",
    "winnerAddresses(uint256)": "045f9c97",
    "winners(address)": "6bd5450a"
  },
  "id": 5
}