{"abi":[{"type":"function","name":"buyerWithdraw","inputs":[],"outputs":[],"stateMutability":"nonpayable"},{"type":"function","name":"changeLotteryState","inputs":[{"name":"_newState","type":"uint8","internalType":"enum SaleBase.LotteryState"}],"outputs":[],"stateMutability":"nonpayable"},{"type":"function","name":"deposit","inputs":[{"name":"amount","type":"uint256","internalType":"uint256"}],"outputs":[],"stateMutability":"nonpayable"},{"type":"function","name":"deposits","inputs":[{"name":"","type":"address","internalType":"address"}],"outputs":[{"name":"","type":"uint256","internalType":"uint256"}],"stateMutability":"view"},{"type":"function","name":"endLottery","inputs":[],"outputs":[],"stateMutability":"nonpayable"},{"type":"function","name":"fulfillRandomness","inputs":[{"name":"randomness","type":"uint256","internalType":"uint256"},{"name":"dataWithRound","type":"bytes","internalType":"bytes"}],"outputs":[],"stateMutability":"nonpayable"},{"type":"function","name":"getDepositedAmount","inputs":[{"name":"participant","type":"address","internalType":"address"}],"outputs":[{"name":"","type":"uint256","internalType":"uint256"}],"stateMutability":"view"},{"type":"function","name":"getParticipants","inputs":[],"outputs":[{"name":"","type":"address[]","internalType":"address[]"}],"stateMutability":"view"},{"type":"function","name":"getWinners","inputs":[],"outputs":[{"name":"","type":"address[]","internalType":"address[]"}],"stateMutability":"view"},{"type":"function","name":"hasMinted","inputs":[{"name":"","type":"address","internalType":"address"}],"outputs":[{"name":"","type":"bool","internalType":"bool"}],"stateMutability":"view"},{"type":"function","name":"initialize","inputs":[{"name":"config","type":"tuple","internalType":"struct StructsLibrary.ILotteryV1BaseConfig","components":[{"name":"_gelatoVrfOperator","type":"address","internalType":"address"},{"name":"_blessedOperator","type":"address","internalType":"address"},{"name":"_owner","type":"address","internalType":"address"},{"name":"_ticketAmount","type":"uint256","internalType":"uint256"},{"name":"_ticketPrice","type":"uint256","internalType":"uint256"},{"name":"_usdcContractAddr","type":"address","internalType":"address"},{"name":"_nftContractAddr","type":"address","internalType":"address"},{"name":"_multisigWalletAddress","type":"address","internalType":"address"},{"name":"_prevPhaseContractAddr","type":"address","internalType":"address"}]}],"outputs":[],"stateMutability":"nonpayable"},{"type":"function","name":"initialized","inputs":[],"outputs":[{"name":"","type":"bool","internalType":"bool"}],"stateMutability":"view"},{"type":"function","name":"isTrustedForwarder","inputs":[{"name":"forwarder","type":"address","internalType":"address"}],"outputs":[{"name":"","type":"bool","internalType":"bool"}],"stateMutability":"view"},{"type":"function","name":"isWinner","inputs":[{"name":"_participant","type":"address","internalType":"address"}],"outputs":[{"name":"","type":"bool","internalType":"bool"}],"stateMutability":"view"},{"type":"function","name":"lotteryState","inputs":[],"outputs":[{"name":"","type":"uint8","internalType":"enum SaleBase.LotteryState"}],"stateMutability":"view"},{"type":"function","name":"minimumDepositAmount","inputs":[],"outputs":[{"name":"","type":"uint256","internalType":"uint256"}],"stateMutability":"view"},{"type":"function","name":"mintMyNFT","inputs":[],"outputs":[],"stateMutability":"nonpayable"},{"type":"function","name":"multisigWalletAddress","inputs":[],"outputs":[{"name":"","type":"address","internalType":"address"}],"stateMutability":"view"},{"type":"function","name":"nftContractAddr","inputs":[],"outputs":[{"name":"","type":"address","internalType":"address"}],"stateMutability":"view"},{"type":"function","name":"numberOfTickets","inputs":[],"outputs":[{"name":"","type":"uint256","internalType":"uint256"}],"stateMutability":"view"},{"type":"function","name":"operatorAddr","inputs":[],"outputs":[{"name":"","type":"address","internalType":"address"}],"stateMutability":"view"},{"type":"function","name":"owner","inputs":[],"outputs":[{"name":"","type":"address","internalType":"address"}],"stateMutability":"view"},{"type":"function","name":"randomNumber","inputs":[],"outputs":[{"name":"","type":"uint256","internalType":"uint256"}],"stateMutability":"view"},{"type":"function","name":"renounceOwnership","inputs":[],"outputs":[],"stateMutability":"nonpayable"},{"type":"function","name":"requestPending","inputs":[{"name":"","type":"uint256","internalType":"uint256"}],"outputs":[{"name":"","type":"bool","internalType":"bool"}],"stateMutability":"view"},{"type":"function","name":"requestRandomness","inputs":[],"outputs":[],"stateMutability":"nonpayable"},{"type":"function","name":"requestedHash","inputs":[{"name":"","type":"uint256","internalType":"uint256"}],"outputs":[{"name":"","type":"bytes32","internalType":"bytes32"}],"stateMutability":"view"},{"type":"function","name":"selectWinners","inputs":[],"outputs":[],"stateMutability":"nonpayable"},{"type":"function","name":"seller","inputs":[],"outputs":[{"name":"","type":"address","internalType":"address"}],"stateMutability":"view"},{"type":"function","name":"sellerWithdraw","inputs":[],"outputs":[],"stateMutability":"nonpayable"},{"type":"function","name":"setSeller","inputs":[{"name":"_seller","type":"address","internalType":"address"}],"outputs":[],"stateMutability":"nonpayable"},{"type":"function","name":"startLottery","inputs":[],"outputs":[],"stateMutability":"nonpayable"},{"type":"function","name":"transferNonWinnerDeposits","inputs":[{"name":"lotteryV2addr","type":"address","internalType":"address"}],"outputs":[],"stateMutability":"nonpayable"},{"type":"function","name":"transferOwnership","inputs":[{"name":"newOwner","type":"address","internalType":"address"}],"outputs":[],"stateMutability":"nonpayable"},{"type":"function","name":"usdcContractAddr","inputs":[],"outputs":[{"name":"","type":"address","internalType":"address"}],"stateMutability":"view"},{"type":"function","name":"winnerAddresses","inputs":[{"name":"","type":"uint256","internalType":"uint256"}],"outputs":[{"name":"","type":"address","internalType":"address"}],"stateMutability":"view"},{"type":"function","name":"winners","inputs":[{"name":"","type":"address","internalType":"address"}],"outputs":[{"name":"","type":"bool","internalType":"bool"}],"stateMutability":"view"},{"type":"event","name":"BuyerDeposited","inputs":[{"name":"buyer","type":"address","indexed":true,"internalType":"address"},{"name":"amount","type":"uint256","indexed":true,"internalType":"uint256"}],"anonymous":false},{"type":"event","name":"BuyerWithdrew","inputs":[{"name":"buyer","type":"address","indexed":true,"internalType":"address"},{"name":"amount","type":"uint256","indexed":true,"internalType":"uint256"}],"anonymous":false},{"type":"event","name":"LotteryEnded","inputs":[],"anonymous":false},{"type":"event","name":"LotteryStarted","inputs":[],"anonymous":false},{"type":"event","name":"OwnershipTransferred","inputs":[{"name":"previousOwner","type":"address","indexed":true,"internalType":"address"},{"name":"newOwner","type":"address","indexed":true,"internalType":"address"}],"anonymous":false},{"type":"event","name":"RandomFulfilled","inputs":[{"name":"number","type":"uint256","indexed":false,"internalType":"uint256"}],"anonymous":false},{"type":"event","name":"RandomRequested","inputs":[{"name":"requester","type":"address","indexed":true,"internalType":"address"}],"anonymous":false},{"type":"event","name":"RequestedRandomness","inputs":[{"name":"round","type":"uint256","indexed":false,"internalType":"uint256"},{"name":"data","type":"bytes","indexed":false,"internalType":"bytes"}],"anonymous":false},{"type":"event","name":"WinnerSelected","inputs":[{"name":"winner","type":"address","indexed":true,"internalType":"address"}],"anonymous":false},{"type":"error","name":"OwnableInvalidOwner","inputs":[{"name":"owner","type":"address","internalType":"address"}]},{"type":"error","name":"OwnableUnauthorizedAccount","inputs":[{"name":"account","type":"address","internalType":"address"}]}],"bytecode":{"object":"0x60a06040526000805460ff60a81b1916905534801561001d57600080fd5b5073d8253782c45a12053594b9deb72d8e8ab2fca54c338061005957604051631e4fbdf760e01b81526000600482015260240160405180910390fd5b61006281610074565b506001600160a01b03166080526100c4565b600080546001600160a01b038381166001600160a01b0319831681178455604051919092169283917f8be0079c531659141344cd1fd0a4f28419497f9722a3daafe3b4186f6b6457e09190a35050565b60805161273d6100e66000396000818161032e01526120aa015261273d6000f3fe608060405234801561001057600080fd5b50600436106102275760003560e01c8063715018a611610130578063c4f8f27b116100b8578063e99d28661161007c578063e99d2866146104eb578063f2fde38b146104fe578063f3f18c3714610511578063f8413b0714610524578063fc7e286d1461052c57600080fd5b8063c4f8f27b1461047e578063ccbac9f51461049e578063df15c37e146104a7578063e63c4609146104af578063e9081ec7146104c257600080fd5b806399dbf4b5116100ff57806399dbf4b5146104065780639d9ca28d14610419578063a61fb2ba14610445578063b3f6b99a14610458578063b6b55f251461046b57600080fd5b8063715018a6146103d257806375ce7fff146103da5780637cc947d0146103ed5780638da5cb5b146103f557600080fd5b80632c23ec8e116101b35780635aa68ac0116101825780635aa68ac01461035e57806366af746b14610373578063683e93e11461037b5780636939864b1461038e5780636bd5450a146103af57600080fd5b80632c23ec8e146102df57806338e21cce146102f257806345745c1014610315578063572b6c051461031e57600080fd5b8063158ef93e116101fa578063158ef93e1461029b5780631593a8c7146102bf578063160344e2146102c75780631a0de74c146102cf57806326170480146102d757600080fd5b8063045f9c971461022c578063080c279a1461025c57806308551a53146102735780631017508014610286575b600080fd5b61023f61023a366004612173565b61054c565b6040516001600160a01b0390911681526020015b60405180910390f35b61026560025481565b604051908152602001610253565b60015461023f906001600160a01b031681565b610299610294366004612219565b610576565b005b6000546102af90600160a81b900460ff1681565b6040519015158152602001610253565b61029961067d565b6102996106ec565b6102996107c7565b610299610c64565b60095461023f906001600160a01b031681565b6102af6103003660046122c1565b60046020526000908152604090205460ff1681565b61026560035481565b6102af61032c3660046122c1565b7f00000000000000000000000000000000000000000000000000000000000000006001600160a01b0390811691161490565b610366610f24565b60405161025391906122e3565b610299610f86565b610299610389366004612330565b6111bd565b6000546103a290600160a01b900460ff1681565b6040516102539190612367565b6102af6103bd3660046122c1565b60066020526000908152604090205460ff1681565b61029961121c565b6102af6103e8366004612173565b611230565b610299611264565b6000546001600160a01b031661023f565b600a5461023f906001600160a01b031681565b6102af6104273660046122c1565b6001600160a01b031660009081526006602052604090205460ff1690565b600b5461023f906001600160a01b031681565b61029961046636600461238f565b6114a8565b610299610479366004612173565b611682565b61026561048c366004612173565b600d6020526000908152604090205481565b610265600f5481565b6103666119db565b6102996104bd3660046122c1565b611a3b565b6102656104d03660046122c1565b6001600160a01b031660009081526005602052604090205490565b6102996104f93660046122c1565b611cd8565b61029961050c3660046122c1565b611d34565b600e5461023f906001600160a01b031681565b610299611d6f565b61026561053a3660046122c1565b60056020526000908152604090205481565b6007818154811061055c57600080fd5b6000918252602090912001546001600160a01b0316905081565b600054600160a81b900460ff16156105cb5760405162461bcd60e51b8152602060048201526013602482015272105b1c9958591e481a5b9a5d1a585b1a5e9959606a1b60448201526064015b60405180910390fd5b6020810151600180546001600160a01b039283166001600160a01b0319918216179091558251600e8054919093169116179055604081015161060c90611e1d565b6060810151600355608081015160025560a0810151600a80546001600160a01b03199081166001600160a01b039384161790915560c083015160098054831691841691909117905560e090920151600b8054909316911617905560008054600160a81b60ff60a81b19909116179055565b6001546001600160a01b0316610691611e6d565b6001600160a01b0316146106b75760405162461bcd60e51b81526004016105c29061240b565b6106c160026111bd565b6040517f9c89a6ed7228533196a3f962acc80d61a9c53bdea6b910741bf754f5aaa7569e90600090a1565b6001546001600160a01b0316610700611e6d565b6001600160a01b0316146107265760405162461bcd60e51b81526004016105c29061240b565b60008054600160a01b900460ff16600281111561074557610745612351565b146107925760405162461bcd60e51b815260206004820152601760248201527f53616c6520697320696e2061637469766520737461746500000000000000000060448201526064016105c2565b61079c60016111bd565b6040517fd029c7c68d943f92286a7825fa6aa2deefa1eee46cee6c91b7e483fd06d27baf90600090a1565b6001546001600160a01b03166107db611e6d565b6001600160a01b0316146108015760405162461bcd60e51b81526004016105c29061240b565b6001600054600160a01b900460ff16600281111561082157610821612351565b146108635760405162461bcd60e51b815260206004820152601260248201527153616c65206973206e6f742061637469766560701b60448201526064016105c2565b6000600354116108b55760405162461bcd60e51b815260206004820152601b60248201527f4e6f207469636b657473206c65667420746f20616c6c6f63617465000000000060448201526064016105c2565b600854600354811161097c5760005b81811015610965576000600882815481106108e1576108e161244d565b6000918252602090912001546001600160a01b0316905061091a816001600160a01b031660009081526006602052604090205460ff1690565b61095c5761092781611e7c565b6040516001600160a01b038216907f1d4c260f1824cd028e6c9e6e31c3a0b94f2513e7a641113ec759d382f9bdd5a190600090a25b506001016108c4565b5061097260086000612141565b6000600355610c12565b60005b81811015610a905760006109938284612479565b600f546109a091906124a8565b6109aa90836124bc565b90506000600882815481106109c1576109c161244d565b600091825260209091200154600880546001600160a01b03909216925090849081106109ef576109ef61244d565b600091825260209091200154600880546001600160a01b039092169184908110610a1b57610a1b61244d565b9060005260206000200160006101000a8154816001600160a01b0302191690836001600160a01b031602179055508060088481548110610a5d57610a5d61244d565b600091825260209091200180546001600160a01b0319166001600160a01b0392909216919091179055505060010161097f565b5060005b600354811015610b3757600060088281548110610ab357610ab361244d565b6000918252602090912001546001600160a01b03169050610aec816001600160a01b031660009081526006602052604090205460ff1690565b610b2e57610af981611e7c565b6040516001600160a01b038216907f1d4c260f1824cd028e6c9e6e31c3a0b94f2513e7a641113ec759d382f9bdd5a190600090a25b50600101610a94565b506003546000905b82811015610bc45760088181548110610b5a57610b5a61244d565b600091825260209091200154600880546001600160a01b039092169184908110610b8657610b8661244d565b600091825260209091200180546001600160a01b0319166001600160a01b039290921691909117905581610bb9816124cf565b925050600101610b3f565b50805b82811015610c0a576008805480610be057610be06124e8565b600082815260209020810160001990810180546001600160a01b0319169055019055600101610bc7565b505060006003555b600354600003610c61576040517f9c89a6ed7228533196a3f962acc80d61a9c53bdea6b910741bf754f5aaa7569e90600090a1600080546002919060ff60a01b1916600160a01b835b02179055505b50565b60046000610c70611e6d565b6001600160a01b0316815260208101919091526040016000205460ff1615610ccf5760405162461bcd60e51b815260206004820152601260248201527113919508185b1c9958591e481b5a5b9d195960721b60448201526064016105c2565b6002600054600160a01b900460ff166002811115610cef57610cef612351565b14610d345760405162461bcd60e51b815260206004820152601560248201527414d85b19481a5cc81b9bdd08195b991959081e595d605a1b60448201526064016105c2565b610d3f610427611e6d565b610d845760405162461bcd60e51b815260206004820152601660248201527521b0b63632b91034b9903737ba1030903bb4b73732b960511b60448201526064016105c2565b600160046000610d92611e6d565b6001600160a01b0316815260208101919091526040016000908120805460ff191692151592909217909155600254600582610dcb611e6d565b6001600160a01b03166001600160a01b0316815260200190815260200160002054610df69190612479565b90508015610e8a57600a546001600160a01b031663a9059cbb610e17611e6d565b6040516001600160e01b031960e084901b1681526001600160a01b039091166004820152602481018490526044016020604051808303816000875af1158015610e64573d6000803e3d6000fd5b505050506040513d601f19601f82011682018060405250810190610e8891906124fe565b505b600060056000610e98611e6d565b6001600160a01b03908116825260208201929092526040016000209190915560095416636b8f60f6610ec8611e6d565b6040516001600160e01b031960e084901b1681526001600160a01b039091166004820152602401600060405180830381600087803b158015610f0957600080fd5b505af1158015610f1d573d6000803e3d6000fd5b5050505050565b60606008805480602002602001604051908101604052809291908181526020018280548015610f7c57602002820191906000526020600020905b81546001600160a01b03168152600190910190602001808311610f5e575b5050505050905090565b6001546001600160a01b0316610f9a611e6d565b6001600160a01b031614610fc05760405162461bcd60e51b81526004016105c29061240b565b6002600054600160a01b900460ff166002811115610fe057610fe0612351565b146110215760405162461bcd60e51b8152602060048201526011602482015270131bdd1d195c9e481b9bdd08195b991959607a1b60448201526064016105c2565b6000805b60075481101561109a576000600782815481106110445761104461244d565b60009182526020808320909101546001600160a01b0316808352600590915260409091205490915061107690846124bc565b6001600160a01b039091166000908152600560205260408120559150600101611025565b50600060646110aa836005612520565b6110b49190612537565b905060006110c28284612479565b600a54600b5460405163a9059cbb60e01b81526001600160a01b03918216600482015260248101869052929350169063a9059cbb906044016020604051808303816000875af1158015611119573d6000803e3d6000fd5b505050506040513d601f19601f8201168201806040525081019061113d91906124fe565b50600a5460015460405163a9059cbb60e01b81526001600160a01b0391821660048201526024810184905291169063a9059cbb906044016020604051808303816000875af1158015611193573d6000803e3d6000fd5b505050506040513d601f19601f820116820180604052508101906111b791906124fe565b50505050565b6001546001600160a01b03166111d1611e6d565b6001600160a01b0316146111f75760405162461bcd60e51b81526004016105c29061240b565b6000805482919060ff60a01b1916600160a01b836002811115610c5b57610c5b612351565b611224611f08565b61122e6000611e1d565b565b600c818154811061124057600080fd5b9060005260206000209060209182820401919006915054906101000a900460ff1681565b6002600054600160a01b900460ff16600281111561128457611284612351565b146112c95760405162461bcd60e51b815260206004820152601560248201527414d85b19481a5cc81b9bdd08195b991959081e595d605a1b60448201526064016105c2565b600660006112d5611e6d565b6001600160a01b0316815260208101919091526040016000205460ff161561133f5760405162461bcd60e51b815260206004820152601760248201527f57696e6e6572732063616e6e6f7420776974686472617700000000000000000060448201526064016105c2565b60006005600061134d611e6d565b6001600160a01b03166001600160a01b03168152602001908152602001600020549050600081116113b75760405162461bcd60e51b81526020600482015260146024820152734e6f2066756e647320746f20776974686472617760601b60448201526064016105c2565b6000600560006113c5611e6d565b6001600160a01b039081168252602082019290925260400160002091909155600a541663a9059cbb6113f5611e6d565b6040516001600160e01b031960e084901b1681526001600160a01b039091166004820152602481018490526044016020604051808303816000875af1158015611442573d6000803e3d6000fd5b505050506040513d601f19601f8201168201806040525081019061146691906124fe565b5080611470611e6d565b6001600160a01b03167f1f280cd00e67ed50213ac03febd5be151f96b7f7db2f85312aa0feff99f8bdab60405160405180910390a350565b600e546001600160a01b031633146114f25760405162461bcd60e51b815260206004820152600d60248201526c37b7363c9037b832b930ba37b960991b60448201526064016105c2565b600061150082840184612573565b9150506000808280602001905181019061151a9190612621565b91509150600085856040516115309291906126a4565b604051809103902090506000600d60008581526020019081526020016000205482149050600c84815481106115675761156761244d565b90600052602060002090602091828204019190069054906101000a900460ff166115d35760405162461bcd60e51b815260206004820152601c60248201527f726571756573742066756c66696c6c6564206f72206d697373696e670000000060448201526064016105c2565b80156116785760408051602081018a905230918101919091524660608201526080810185905260a0016040516020818303038152906040528051906020012060001c9750611622888585611f66565b6000600c85815481106116375761163761244d565b90600052602060002090602091828204019190066101000a81548160ff021916908315150217905550600d6000858152602001908152602001600020600090555b5050505050505050565b6001600054600160a01b900460ff1660028111156116a2576116a2612351565b146116e45760405162461bcd60e51b815260206004820152601260248201527153616c65206973206e6f742061637469766560701b60448201526064016105c2565b600a546001600160a01b031661173c5760405162461bcd60e51b815260206004820152601d60248201527f5553444320636f6e74726163742061646472657373206e6f742073657400000060448201526064016105c2565b6002548110156117865760405162461bcd60e51b8152602060048201526015602482015274139bdd08195b9bdd59da08199d5b991cc81cd95b9d605a1b60448201526064016105c2565b600a5481906001600160a01b031663dd62ed3e6117a1611e6d565b6040516001600160e01b031960e084901b1681526001600160a01b039091166004820152306024820152604401602060405180830381865afa1580156117eb573d6000803e3d6000fd5b505050506040513d601f19601f8201168201806040525081019061180f91906126b4565b10156118565760405162461bcd60e51b8152602060048201526016602482015275496e73756666696369656e7420616c6c6f77616e636560501b60448201526064016105c2565b600a546001600160a01b03166323b872dd61186f611e6d565b6040516001600160e01b031960e084901b1681526001600160a01b039091166004820152306024820152604481018490526064016020604051808303816000875af11580156118c2573d6000803e3d6000fd5b505050506040513d601f19601f820116820180604052508101906118e691906124fe565b50600560006118f3611e6d565b6001600160a01b03166001600160a01b0316815260200190815260200160002054600003611958576008611925611e6d565b81546001810183556000928352602090922090910180546001600160a01b0319166001600160a01b039092169190911790555b8060056000611965611e6d565b6001600160a01b03166001600160a01b03168152602001908152602001600020600082825461199491906124bc565b909155508190506119a3611e6d565b6001600160a01b03167f21040858e63c11c046482f61f290bbe25972fc74b11b4570a01f9241082d21f160405160405180910390a350565b60606007805480602002602001604051908101604052809291908181526020018280548015610f7c576020028201919060005260206000209081546001600160a01b03168152600190910190602001808311610f5e575050505050905090565b6001546001600160a01b0316611a4f611e6d565b6001600160a01b031614611a755760405162461bcd60e51b81526004016105c29061240b565b60005b600854811015611cd45760006005600060088481548110611a9b57611a9b61244d565b60009182526020808320909101546001600160a01b031683528201929092526040018120546008805491935060059183919086908110611add57611add61244d565b6000918252602080832091909101546001600160a01b039081168452908301939093526040918201902092909255600a54915163a9059cbb60e01b815285821660048201526024810184905291169063a9059cbb906044016020604051808303816000875af1158015611b54573d6000803e3d6000fd5b505050506040513d601f19601f82011682018060405250810190611b7891906124fe565b50826001600160a01b03166350f3dbec60088481548110611b9b57611b9b61244d565b60009182526020909120015460405160e083901b6001600160e01b03191681526001600160a01b03909116600482015260248101849052604401600060405180830381600087803b158015611bef57600080fd5b505af1158015611c03573d6000803e3d6000fd5b5050600854611c16925060019150612479565b821015611c985760088054611c2d90600190612479565b81548110611c3d57611c3d61244d565b600091825260209091200154600880546001600160a01b039092169184908110611c6957611c6961244d565b9060005260206000200160006101000a8154816001600160a01b0302191690836001600160a01b031602179055505b6008805480611ca957611ca96124e8565b600082815260209020810160001990810180546001600160a01b031916905501905550600101611a78565b5050565b6001546001600160a01b0316611cec611e6d565b6001600160a01b031614611d125760405162461bcd60e51b81526004016105c29061240b565b600180546001600160a01b0319166001600160a01b0392909216919091179055565b611d3c611f08565b6001600160a01b038116611d6657604051631e4fbdf760e01b8152600060048201526024016105c2565b610c6181611e1d565b6001546001600160a01b0316611d83611e6d565b6001600160a01b031614611da95760405162461bcd60e51b81526004016105c29061240b565b611ddd611db4611e6d565b604080516001600160a01b03909216602083015201604051602081830303815290604052611fa3565b50611de6611e6d565b6001600160a01b03167fd802e7c7f1646e3318c03abed1e468bdf913f45331a68dc912a0d645eb646a4260405160405180910390a2565b600080546001600160a01b038381166001600160a01b0319831681178455604051919092169283917f8be0079c531659141344cd1fd0a4f28419497f9722a3daafe3b4186f6b6457e09190a35050565b6000611e776120a6565b905090565b6001600160a01b038116600081815260066020526040808220805460ff1916600190811790915560078054918201815583527fa66cc928b5edb82af9bd49922954155ab7b0942694bea4ce44661d9a8736c6880180546001600160a01b03191684179055517f1d4c260f1824cd028e6c9e6e31c3a0b94f2513e7a641113ec759d382f9bdd5a19190a250565b611f10611e6d565b6001600160a01b0316611f2b6000546001600160a01b031690565b6001600160a01b03161461122e57611f41611e6d565b60405163118cdaa760e01b81526001600160a01b0390911660048201526024016105c2565b600f8390556040518381527f79518eb4b6f70742e6651b03a2ac2bc644ea2613e8de56247857c5be5fc2a0ba9060200160405180910390a1505050565b600c8054600180820180845560008490529192909183908110611fc857611fc861244d565b90600052602060002090602091828204019190066101000a81548160ff021916908315150217905550600081836040516020016120069291906126cd565b604051602081830303815290604052905060006120216120ea565b9050600081836040516020016120389291906126cd565b60408051601f1981840301815282825280516020808301919091206000898152600d9092529290208290559250907fd91fc3685b930310b008ec37d2334870cab88a023ed8cc628a2e2ccd4e55d2029061209590859087906126cd565b60405180910390a150505050919050565b60007f00000000000000000000000000000000000000000000000000000000000000006001600160a01b031633036120e5575060131936013560601c90565b503390565b6000806120fb6364e6212742612479565b9050600061210a600383612537565b6121159060016124bc565b90504660011461212f5761212a8160016124bc565b61213a565b61213a8160046124bc565b9250505090565b5080546000825590600052602060002090810190610c6191905b8082111561216f576000815560010161215b565b5090565b60006020828403121561218557600080fd5b5035919050565b634e487b7160e01b600052604160045260246000fd5b604051610120810167ffffffffffffffff811182821017156121c6576121c661218c565b60405290565b604051601f8201601f1916810167ffffffffffffffff811182821017156121f5576121f561218c565b604052919050565b80356001600160a01b038116811461221457600080fd5b919050565b6000610120828403121561222c57600080fd5b6122346121a2565b61223d836121fd565b815261224b602084016121fd565b602082015261225c604084016121fd565b6040820152606083013560608201526080830135608082015261228160a084016121fd565b60a082015261229260c084016121fd565b60c08201526122a360e084016121fd565b60e08201526101006122b68185016121fd565b908201529392505050565b6000602082840312156122d357600080fd5b6122dc826121fd565b9392505050565b6020808252825182820181905260009190848201906040850190845b818110156123245783516001600160a01b0316835292840192918401916001016122ff565b50909695505050505050565b60006020828403121561234257600080fd5b8135600381106122dc57600080fd5b634e487b7160e01b600052602160045260246000fd5b602081016003831061238957634e487b7160e01b600052602160045260246000fd5b91905290565b6000806000604084860312156123a457600080fd5b83359250602084013567ffffffffffffffff808211156123c357600080fd5b818601915086601f8301126123d757600080fd5b8135818111156123e657600080fd5b8760208285010111156123f857600080fd5b6020830194508093505050509250925092565b60208082526022908201527f4f6e6c792073656c6c65722063616e2063616c6c20746869732066756e63746960408201526137b760f11b606082015260800190565b634e487b7160e01b600052603260045260246000fd5b634e487b7160e01b600052601160045260246000fd5b8181038181111561248c5761248c612463565b92915050565b634e487b7160e01b600052601260045260246000fd5b6000826124b7576124b7612492565b500690565b8082018082111561248c5761248c612463565b6000600182016124e1576124e1612463565b5060010190565b634e487b7160e01b600052603160045260246000fd5b60006020828403121561251057600080fd5b815180151581146122dc57600080fd5b808202811582820484141761248c5761248c612463565b60008261254657612546612492565b500490565b600067ffffffffffffffff8211156125655761256561218c565b50601f01601f191660200190565b6000806040838503121561258657600080fd5b82359150602083013567ffffffffffffffff8111156125a457600080fd5b8301601f810185136125b557600080fd5b80356125c86125c38261254b565b6121cc565b8181528660208385010111156125dd57600080fd5b816020840160208301376000602083830101528093505050509250929050565b60005b83811015612618578181015183820152602001612600565b50506000910152565b6000806040838503121561263457600080fd5b82519150602083015167ffffffffffffffff81111561265257600080fd5b8301601f8101851361266357600080fd5b80516126716125c38261254b565b81815286602083850101111561268657600080fd5b6126978260208301602086016125fd565b8093505050509250929050565b8183823760009101908152919050565b6000602082840312156126c657600080fd5b5051919050565b82815260406020820152600082518060408401526126f28160608501602087016125fd565b601f01601f191691909101606001939250505056fea26469706673582212203767924cecf35f8f4e95162408ba138c63752576a86a8c4269bc34336ce95c2c64736f6c63430008190033","linkReferences":{}},"methodIdentifiers":{"buyerWithdraw()":"7cc947d0","changeLotteryState(uint8)":"683e93e1","deposit(uint256)":"b6b55f25","deposits(address)":"fc7e286d","endLottery()":"1593a8c7","fulfillRandomness(uint256,bytes)":"b3f6b99a","getDepositedAmount(address)":"e9081ec7","getParticipants()":"5aa68ac0","getWinners()":"df15c37e","hasMinted(address)":"38e21cce","initialize((address,address,address,uint256,uint256,address,address,address,address))":"10175080","initialized()":"158ef93e","isTrustedForwarder(address)":"572b6c05","isWinner(address)":"9d9ca28d","lotteryState()":"6939864b","minimumDepositAmount()":"080c279a","mintMyNFT()":"26170480","multisigWalletAddress()":"a61fb2ba","nftContractAddr()":"2c23ec8e","numberOfTickets()":"45745c10","operatorAddr()":"f3f18c37","owner()":"8da5cb5b","randomNumber()":"ccbac9f5","renounceOwnership()":"715018a6","requestPending(uint256)":"75ce7fff","requestRandomness()":"f8413b07","requestedHash(uint256)":"c4f8f27b","selectWinners()":"1a0de74c","seller()":"08551a53","sellerWithdraw()":"66af746b","setSeller(address)":"e99d2866","startLottery()":"160344e2","transferNonWinnerDeposits(address)":"e63c4609","transferOwnership(address)":"f2fde38b","usdcContractAddr()":"99dbf4b5","winnerAddresses(uint256)":"045f9c97","winners(address)":"6bd5450a"},"id":5}