{"abi":[{"type":"function","name":"MAX_RANDOM","inputs":[],"outputs":[{"name":"","type":"uint256","internalType":"uint256"}],"stateMutability":"view"},{"type":"function","name":"buyerWithdraw","inputs":[],"outputs":[],"stateMutability":"nonpayable"},{"type":"function","name":"changeLotteryState","inputs":[{"name":"_newState","type":"uint8","internalType":"enum SaleBase.LotteryState"}],"outputs":[],"stateMutability":"nonpayable"},{"type":"function","name":"claimNumber","inputs":[{"name":"_participant","type":"address","internalType":"address"}],"outputs":[{"name":"","type":"bool","internalType":"bool"}],"stateMutability":"nonpayable"},{"type":"function","name":"deposit","inputs":[{"name":"amount","type":"uint256","internalType":"uint256"}],"outputs":[],"stateMutability":"nonpayable"},{"type":"function","name":"deposits","inputs":[{"name":"","type":"address","internalType":"address"}],"outputs":[{"name":"","type":"uint256","internalType":"uint256"}],"stateMutability":"view"},{"type":"function","name":"endLottery","inputs":[],"outputs":[],"stateMutability":"nonpayable"},{"type":"function","name":"fulfillRandomness","inputs":[{"name":"randomness","type":"uint256","internalType":"uint256"},{"name":"dataWithRound","type":"bytes","internalType":"bytes"}],"outputs":[],"stateMutability":"nonpayable"},{"type":"function","name":"getDepositedAmount","inputs":[{"name":"participant","type":"address","internalType":"address"}],"outputs":[{"name":"","type":"uint256","internalType":"uint256"}],"stateMutability":"view"},{"type":"function","name":"getParticipants","inputs":[],"outputs":[{"name":"","type":"address[]","internalType":"address[]"}],"stateMutability":"view"},{"type":"function","name":"getRandomNumber","inputs":[],"outputs":[{"name":"","type":"uint256","internalType":"uint256"}],"stateMutability":"view"},{"type":"function","name":"getWinners","inputs":[],"outputs":[{"name":"","type":"address[]","internalType":"address[]"}],"stateMutability":"view"},{"type":"function","name":"hasMinted","inputs":[{"name":"","type":"address","internalType":"address"}],"outputs":[{"name":"","type":"bool","internalType":"bool"}],"stateMutability":"view"},{"type":"function","name":"initialize","inputs":[{"name":"config","type":"tuple","internalType":"struct StructsLibrary.ILotteryV2BaseConfig","components":[{"name":"_gelatoVrfOperator","type":"address","internalType":"address"},{"name":"_blessedOperator","type":"address","internalType":"address"},{"name":"_owner","type":"address","internalType":"address"},{"name":"_ticketAmount","type":"uint256","internalType":"uint256"},{"name":"_ticketPrice","type":"uint256","internalType":"uint256"},{"name":"_rollPrice","type":"uint256","internalType":"uint256"},{"name":"_rollTolerance","type":"uint256","internalType":"uint256"},{"name":"_usdcContractAddr","type":"address","internalType":"address"},{"name":"_nftContractAddr","type":"address","internalType":"address"},{"name":"_multisigWalletAddress","type":"address","internalType":"address"},{"name":"_prevPhaseContractAddr","type":"address","internalType":"address"}]}],"outputs":[],"stateMutability":"nonpayable"},{"type":"function","name":"isClaimable","inputs":[{"name":"_participant","type":"address","internalType":"address"}],"outputs":[{"name":"","type":"bool","internalType":"bool"}],"stateMutability":"view"},{"type":"function","name":"isTrustedForwarder","inputs":[{"name":"forwarder","type":"address","internalType":"address"}],"outputs":[{"name":"","type":"bool","internalType":"bool"}],"stateMutability":"view"},{"type":"function","name":"isWinner","inputs":[{"name":"_participant","type":"address","internalType":"address"}],"outputs":[{"name":"","type":"bool","internalType":"bool"}],"stateMutability":"view"},{"type":"function","name":"lotteryState","inputs":[],"outputs":[{"name":"","type":"uint8","internalType":"enum SaleBase.LotteryState"}],"stateMutability":"view"},{"type":"function","name":"lotteryV1Addr","inputs":[],"outputs":[{"name":"","type":"address","internalType":"address"}],"stateMutability":"view"},{"type":"function","name":"mintMyNFT","inputs":[],"outputs":[],"stateMutability":"nonpayable"},{"type":"function","name":"multisigWalletAddress","inputs":[],"outputs":[{"name":"","type":"address","internalType":"address"}],"stateMutability":"view"},{"type":"function","name":"nftContractAddr","inputs":[],"outputs":[{"name":"","type":"address","internalType":"address"}],"stateMutability":"view"},{"type":"function","name":"numberOfTickets","inputs":[],"outputs":[{"name":"","type":"uint256","internalType":"uint256"}],"stateMutability":"view"},{"type":"function","name":"operatorAddr","inputs":[],"outputs":[{"name":"","type":"address","internalType":"address"}],"stateMutability":"view"},{"type":"function","name":"owner","inputs":[],"outputs":[{"name":"","type":"address","internalType":"address"}],"stateMutability":"view"},{"type":"function","name":"randomNumber","inputs":[],"outputs":[{"name":"","type":"uint256","internalType":"uint256"}],"stateMutability":"view"},{"type":"function","name":"renounceOwnership","inputs":[],"outputs":[],"stateMutability":"nonpayable"},{"type":"function","name":"requestPending","inputs":[{"name":"","type":"uint256","internalType":"uint256"}],"outputs":[{"name":"","type":"bool","internalType":"bool"}],"stateMutability":"view"},{"type":"function","name":"requestRandomness","inputs":[],"outputs":[],"stateMutability":"nonpayable"},{"type":"function","name":"requestedHash","inputs":[{"name":"","type":"uint256","internalType":"uint256"}],"outputs":[{"name":"","type":"bytes32","internalType":"bytes32"}],"stateMutability":"view"},{"type":"function","name":"roll","inputs":[],"outputs":[],"stateMutability":"nonpayable"},{"type":"function","name":"rollPrice","inputs":[],"outputs":[{"name":"","type":"uint256","internalType":"uint256"}],"stateMutability":"view"},{"type":"function","name":"rollTolerance","inputs":[],"outputs":[{"name":"","type":"uint256","internalType":"uint256"}],"stateMutability":"view"},{"type":"function","name":"rolledNumbers","inputs":[{"name":"","type":"address","internalType":"address"}],"outputs":[{"name":"","type":"uint256","internalType":"uint256"}],"stateMutability":"view"},{"type":"function","name":"seller","inputs":[],"outputs":[{"name":"","type":"address","internalType":"address"}],"stateMutability":"view"},{"type":"function","name":"sellerWithdraw","inputs":[],"outputs":[],"stateMutability":"nonpayable"},{"type":"function","name":"setRandomNumber","inputs":[],"outputs":[],"stateMutability":"nonpayable"},{"type":"function","name":"setSeller","inputs":[{"name":"_seller","type":"address","internalType":"address"}],"outputs":[],"stateMutability":"nonpayable"},{"type":"function","name":"startLottery","inputs":[],"outputs":[],"stateMutability":"nonpayable"},{"type":"function","name":"ticketPrice","inputs":[],"outputs":[{"name":"","type":"uint256","internalType":"uint256"}],"stateMutability":"view"},{"type":"function","name":"transferDeposit","inputs":[{"name":"_participant","type":"address","internalType":"address"},{"name":"_amount","type":"uint256","internalType":"uint256"}],"outputs":[],"stateMutability":"nonpayable"},{"type":"function","name":"transferNonWinnerDeposits","inputs":[{"name":"auctionV1addr","type":"address","internalType":"address"}],"outputs":[],"stateMutability":"nonpayable"},{"type":"function","name":"transferOwnership","inputs":[{"name":"newOwner","type":"address","internalType":"address"}],"outputs":[],"stateMutability":"nonpayable"},{"type":"function","name":"usdcContractAddr","inputs":[],"outputs":[{"name":"","type":"address","internalType":"address"}],"stateMutability":"view"},{"type":"function","name":"winnerAddresses","inputs":[{"name":"","type":"uint256","internalType":"uint256"}],"outputs":[{"name":"","type":"address","internalType":"address"}],"stateMutability":"view"},{"type":"function","name":"winners","inputs":[{"name":"","type":"address","internalType":"address"}],"outputs":[{"name":"","type":"bool","internalType":"bool"}],"stateMutability":"view"},{"type":"event","name":"BuyerDeposited","inputs":[{"name":"buyer","type":"address","indexed":true,"internalType":"address"},{"name":"amount","type":"uint256","indexed":true,"internalType":"uint256"}],"anonymous":false},{"type":"event","name":"BuyerWithdrew","inputs":[{"name":"buyer","type":"address","indexed":true,"internalType":"address"},{"name":"amount","type":"uint256","indexed":true,"internalType":"uint256"}],"anonymous":false},{"type":"event","name":"DepositsReturned","inputs":[{"name":"returnedDepositsCount","type":"uint256","indexed":false,"internalType":"uint256"}],"anonymous":false},{"type":"event","name":"Initialized","inputs":[{"name":"version","type":"uint64","indexed":false,"internalType":"uint64"}],"anonymous":false},{"type":"event","name":"LotteryEnded","inputs":[],"anonymous":false},{"type":"event","name":"LotteryStarted","inputs":[],"anonymous":false},{"type":"event","name":"OwnershipTransferred","inputs":[{"name":"previousOwner","type":"address","indexed":true,"internalType":"address"},{"name":"newOwner","type":"address","indexed":true,"internalType":"address"}],"anonymous":false},{"type":"event","name":"RandomFulfilled","inputs":[{"name":"requester","type":"address","indexed":true,"internalType":"address"},{"name":"number","type":"uint256","indexed":false,"internalType":"uint256"}],"anonymous":false},{"type":"event","name":"RandomRequested","inputs":[{"name":"requester","type":"address","indexed":true,"internalType":"address"}],"anonymous":false},{"type":"event","name":"RequestedRandomness","inputs":[{"name":"round","type":"uint256","indexed":false,"internalType":"uint256"},{"name":"data","type":"bytes","indexed":false,"internalType":"bytes"}],"anonymous":false},{"type":"event","name":"WinnerSelected","inputs":[{"name":"winner","type":"address","indexed":true,"internalType":"address"}],"anonymous":false},{"type":"error","name":"InvalidInitialization","inputs":[]},{"type":"error","name":"NotInitializing","inputs":[]},{"type":"error","name":"OwnableInvalidOwner","inputs":[{"name":"owner","type":"address","internalType":"address"}]},{"type":"error","name":"OwnableUnauthorizedAccount","inputs":[{"name":"account","type":"address","internalType":"address"}]}],"bytecode":{"object":"0x60a060405234801561001057600080fd5b5073d8253782c45a12053594b9deb72d8e8ab2fca54c338061004c57604051631e4fbdf760e01b81526000600482015260240160405180910390fd5b6100558161006f565b506001600160a01b031660805261006a6100bf565b610171565b600080546001600160a01b038381166001600160a01b0319831681178455604051919092169283917f8be0079c531659141344cd1fd0a4f28419497f9722a3daafe3b4186f6b6457e09190a35050565b7ff0c57e16840df040f15088dc2f81fe391c3923bec73e23a9662efc9c229c6a00805468010000000000000000900460ff161561010f5760405163f92ee8a960e01b815260040160405180910390fd5b80546001600160401b039081161461016e5780546001600160401b0319166001600160401b0390811782556040519081527fc7f505b2f371ae2175ee4913f4499e1f2633a7b5936321eed1cdaeb6115181d29060200160405180910390a15b50565b608051612e2f610193600039600081816103a8015261271e0152612e2f6000f3fe608060405234801561001057600080fd5b506004361061028a5760003560e01c80637cc947d01161015c578063cd5e3c5d116100ce578063e9081ec711610087578063e9081ec7146105ac578063e99d2866146105d5578063f2fde38b146105e8578063f3f18c37146105fb578063f8413b071461060e578063fc7e286d1461061657600080fd5b8063cd5e3c5d14610565578063ce1121f21461056d578063cf3af3a114610580578063dbdff2c114610589578063df15c37e14610591578063e63c46091461059957600080fd5b8063a61fb2ba11610120578063a61fb2ba146104fa578063b3f6b99a1461050d578063b6b55f2514610520578063bf1dda1514610533578063c4f8f27b1461053c578063ccbac9f51461055c57600080fd5b80637cc947d01461049a5780638da5cb5b146104a257806397fedfcb146104b357806399dbf4b5146104bb5780639d9ca28d146104ce57600080fd5b806345745c1011610200578063683e93e1116101b9578063683e93e1146104085780636939864b1461041b5780636bd5450a1461043c578063715018a61461045f57806375ce7fff146104675780637b15452d1461047a57600080fd5b806345745c101461037c57806350f3dbec14610385578063572b6c05146103985780635aa68ac0146103d85780635f86e4fe146103ed57806366af746b1461040057600080fd5b8063160344e211610252578063160344e2146103005780632617048014610308578063292fec04146103105780632c23ec8e1461033357806338e21cce146103465780633dc204e71461036957600080fd5b8063045f9c971461028f57806308551a53146102bf5780630a9fa5c7146102d25780631209b1f6146102ed5780631593a8c7146102f6575b600080fd5b6102a261029d3660046127e7565b610636565b6040516001600160a01b0390911681526020015b60405180910390f35b6002546102a2906001600160a01b031681565b6102df655af3107a400081565b6040519081526020016102b6565b6102df60045481565b6102fe610660565b005b6102fe6106e0565b6102fe6107bb565b61032361031e366004612820565b610aaa565b60405190151581526020016102b6565b600a546102a2906001600160a01b031681565b610323610354366004612820565b60056020526000908152604090205460ff1681565b610323610377366004612820565b610b8a565b6102df60035481565b6102fe610393366004612844565b610c5d565b6103236103a6366004612820565b7f00000000000000000000000000000000000000000000000000000000000000006001600160a01b0390811691161490565b6103e0610daf565b6040516102b69190612870565b6010546102a2906001600160a01b031681565b6102fe610e11565b6102fe6104163660046128bd565b611048565b60005461042f90600160a01b900460ff1681565b6040516102b691906128f4565b61032361044a366004612820565b60076020526000908152604090205460ff1681565b6102fe6110af565b6103236104753660046127e7565b6110c3565b6102df610488366004612820565b60116020526000908152604090205481565b6102fe6110f7565b6000546001600160a01b03166102a2565b6102fe61133b565b600b546102a2906001600160a01b031681565b6103236104dc366004612820565b6001600160a01b031660009081526007602052604090205460ff1690565b6001546102a2906001600160a01b031681565b6102fe61051b36600461291c565b6113d2565b6102fe61052e3660046127e7565b6115ac565b6102df60135481565b6102df61054a3660046127e7565b600d6020526000908152604090205481565b6102df600f5481565b6102fe611a2d565b6102fe61057b366004612a09565b611bd9565b6102df60125481565b6102df611da3565b6103e0611dfa565b6102fe6105a7366004612820565b611e5a565b6102df6105ba366004612820565b6001600160a01b031660009081526006602052604090205490565b6102fe6105e3366004612820565b612076565b6102fe6105f6366004612820565b6120d2565b600e546102a2906001600160a01b031681565b6102fe61210d565b6102df610624366004612820565b60066020526000908152604090205481565b6008818154811061064657600080fd5b6000918252602090912001546001600160a01b0316905081565b6002546001600160a01b0316610674612192565b6001600160a01b0316146106a35760405162461bcd60e51b815260040161069a90612ac7565b60405180910390fd5b6106ad6002611048565b6106b56121a1565b6040517f9c89a6ed7228533196a3f962acc80d61a9c53bdea6b910741bf754f5aaa7569e90600090a1565b6002546001600160a01b03166106f4612192565b6001600160a01b03161461071a5760405162461bcd60e51b815260040161069a90612ac7565b60008054600160a01b900460ff166002811115610739576107396128de565b146107865760405162461bcd60e51b815260206004820152601760248201527f53616c6520697320696e20616374697665207374617465000000000000000000604482015260640161069a565b6107906001611048565b6040517fd029c7c68d943f92286a7825fa6aa2deefa1eee46cee6c91b7e483fd06d27baf90600090a1565b600560006107c7612192565b6001600160a01b0316815260208101919091526040016000205460ff16156108265760405162461bcd60e51b815260206004820152601260248201527113919508185b1c9958591e481b5a5b9d195960721b604482015260640161069a565b61082e612192565b601054604051639d9ca28d60e01b81526001600160a01b03838116600483015290911690639d9ca28d90602401602060405180830381865afa158015610878573d6000803e3d6000fd5b505050506040513d601f19601f8201168201806040525081019061089c9190612b09565b156108b95760405162461bcd60e51b815260040161069a90612b2b565b6108c46104dc612192565b6109095760405162461bcd60e51b815260206004820152601660248201527521b0b63632b91034b9903737ba1030903bb4b73732b960511b604482015260640161069a565b600160056000610917612192565b6001600160a01b0316815260208101919091526040016000908120805460ff191692151592909217909155600454600682610950612192565b6001600160a01b03166001600160a01b031681526020019081526020016000205461097b9190612b89565b90508015610a0f57600b546001600160a01b031663a9059cbb61099c612192565b6040516001600160e01b031960e084901b1681526001600160a01b039091166004820152602481018490526044016020604051808303816000875af11580156109e9573d6000803e3d6000fd5b505050506040513d601f19601f82011682018060405250810190610a0d9190612b09565b505b600060066000610a1d612192565b6001600160a01b039081168252602082019290925260400160002091909155600a5416636b8f60f6610a4d612192565b6040516001600160e01b031960e084901b1681526001600160a01b039091166004820152602401600060405180830381600087803b158015610a8e57600080fd5b505af1158015610aa2573d6000803e3d6000fd5b505050505050565b6000806064601354655af3107a4000610ac39190612ba2565b610acd9190612bcf565b9050600081600f541015610ae2576000610af0565b81600f54610af09190612b89565b90506000655af3107a400083600f54610b099190612be3565b1115610b1b57655af3107a4000610b29565b82600f54610b299190612be3565b6001600160a01b038616600090815260116020526040812054919250838210801590610b555750828211155b6004546001600160a01b03891660009081526006602052604090205491925011801590610b7f5750805b979650505050505050565b6000610b9582610aaa565b8015610bba57506001600160a01b03821660009081526007602052604090205460ff16155b15610c50576001600160a01b038216600081815260076020526040808220805460ff1916600190811790915560088054918201815583527ff3f7a9fe364faab93b216da50a3214154f22a0a2b415b23a84c8169e8b636ee30180546001600160a01b03191684179055517f1d4c260f1824cd028e6c9e6e31c3a0b94f2513e7a641113ec759d382f9bdd5a19190a2506001919050565b506000919050565b919050565b610c65612192565b6010546001600160a01b03908116911614610cd25760405162461bcd60e51b815260206004820152602760248201527f4f6e6c792077686974656c6973746564206d61792063616c6c207468697320666044820152663ab731ba34b7b760c91b606482015260840161069a565b6001600160a01b0382166000908152600660205260408120549003610d7e5760098054600181019091557f6e1540171b6c0c960b71a7020d9f60077f6af931a8bbf590da0223dacf75c7af0180546001600160a01b0319166001600160a01b0384169081179091556000908152601160205260408120549003610d7e57604080516001600160a01b0384166020820152610d7c91015b6040516020818303038152906040526124ac565b505b6001600160a01b03821660009081526006602052604081208054839290610da6908490612be3565b90915550505050565b60606009805480602002602001604051908101604052809291908181526020018280548015610e0757602002820191906000526020600020905b81546001600160a01b03168152600190910190602001808311610de9575b5050505050905090565b6002546001600160a01b0316610e25612192565b6001600160a01b031614610e4b5760405162461bcd60e51b815260040161069a90612ac7565b6002600054600160a01b900460ff166002811115610e6b57610e6b6128de565b14610eac5760405162461bcd60e51b8152602060048201526011602482015270131bdd1d195c9e481b9bdd08195b991959607a1b604482015260640161069a565b6000805b600854811015610f2557600060088281548110610ecf57610ecf612bf6565b60009182526020808320909101546001600160a01b03168083526006909152604090912054909150610f019084612be3565b6001600160a01b039091166000908152600660205260408120559150600101610eb0565b5060006064610f35836005612ba2565b610f3f9190612bcf565b90506000610f4d8284612b89565b600b5460015460405163a9059cbb60e01b81526001600160a01b03918216600482015260248101869052929350169063a9059cbb906044016020604051808303816000875af1158015610fa4573d6000803e3d6000fd5b505050506040513d601f19601f82011682018060405250810190610fc89190612b09565b50600b5460025460405163a9059cbb60e01b81526001600160a01b0391821660048201526024810184905291169063a9059cbb906044016020604051808303816000875af115801561101e573d6000803e3d6000fd5b505050506040513d601f19601f820116820180604052508101906110429190612b09565b50505050565b6002546001600160a01b031661105c612192565b6001600160a01b0316146110825760405162461bcd60e51b815260040161069a90612ac7565b6000805482919060ff60a01b1916600160a01b8360028111156110a7576110a76128de565b021790555050565b6110b76125af565b6110c1600061260d565b565b600c81815481106110d357600080fd5b9060005260206000209060209182820401919006915054906101000a900460ff1681565b6002600054600160a01b900460ff166002811115611117576111176128de565b1461115c5760405162461bcd60e51b815260206004820152601560248201527414d85b19481a5cc81b9bdd08195b991959081e595d605a1b604482015260640161069a565b60076000611168612192565b6001600160a01b0316815260208101919091526040016000205460ff16156111d25760405162461bcd60e51b815260206004820152601760248201527f57696e6e6572732063616e6e6f74207769746864726177000000000000000000604482015260640161069a565b6000600660006111e0612192565b6001600160a01b03166001600160a01b031681526020019081526020016000205490506000811161124a5760405162461bcd60e51b81526020600482015260146024820152734e6f2066756e647320746f20776974686472617760601b604482015260640161069a565b600060066000611258612192565b6001600160a01b039081168252602082019290925260400160002091909155600b541663a9059cbb611288612192565b6040516001600160e01b031960e084901b1681526001600160a01b039091166004820152602481018490526044016020604051808303816000875af11580156112d5573d6000803e3d6000fd5b505050506040513d601f19601f820116820180604052508101906112f99190612b09565b5080611303612192565b6001600160a01b03167f1f280cd00e67ed50213ac03febd5be151f96b7f7db2f85312aa0feff99f8bdab60405160405180910390a350565b6002546001600160a01b031661134f612192565b6001600160a01b0316146113755760405162461bcd60e51b815260040161069a90612ac7565b600f54156113c55760405162461bcd60e51b815260206004820152601960248201527f52616e646f6d206e756d62657220616c72656164792073657400000000000000604482015260640161069a565b6113cd611da3565b600f55565b600e546001600160a01b0316331461141c5760405162461bcd60e51b815260206004820152600d60248201526c37b7363c9037b832b930ba37b960991b604482015260640161069a565b600061142a82840184612c34565b915050600080828060200190518101906114449190612ce2565b915091506000858560405161145a929190612d65565b604051809103902090506000600d60008581526020019081526020016000205482149050600c848154811061149157611491612bf6565b90600052602060002090602091828204019190069054906101000a900460ff166114fd5760405162461bcd60e51b815260206004820152601c60248201527f726571756573742066756c66696c6c6564206f72206d697373696e6700000000604482015260640161069a565b80156115a25760408051602081018a905230918101919091524660608201526080810185905260a0016040516020818303038152906040528051906020012060001c975061154c88858561265d565b6000600c858154811061156157611561612bf6565b90600052602060002090602091828204019190066101000a81548160ff021916908315150217905550600d6000858152602001908152602001600020600090555b5050505050505050565b6001600054600160a01b900460ff1660028111156115cc576115cc6128de565b1461160e5760405162461bcd60e51b815260206004820152601260248201527153616c65206973206e6f742061637469766560701b604482015260640161069a565b611616612192565b601054604051639d9ca28d60e01b81526001600160a01b03838116600483015290911690639d9ca28d90602401602060405180830381865afa158015611660573d6000803e3d6000fd5b505050506040513d601f19601f820116820180604052508101906116849190612b09565b156116a15760405162461bcd60e51b815260040161069a90612b2b565b600b546001600160a01b03166116f95760405162461bcd60e51b815260206004820152601d60248201527f5553444320636f6e74726163742061646472657373206e6f7420736574000000604482015260640161069a565b6012548210156117435760405162461bcd60e51b8152602060048201526015602482015274139bdd08195b9bdd59da08199d5b991cc81cd95b9d605a1b604482015260640161069a565b600b5482906001600160a01b031663dd62ed3e61175e612192565b6040516001600160e01b031960e084901b1681526001600160a01b039091166004820152306024820152604401602060405180830381865afa1580156117a8573d6000803e3d6000fd5b505050506040513d601f19601f820116820180604052508101906117cc9190612d75565b10156118135760405162461bcd60e51b8152602060048201526016602482015275496e73756666696369656e7420616c6c6f77616e636560501b604482015260640161069a565b600b546001600160a01b03166323b872dd61182c612192565b6040516001600160e01b031960e084901b1681526001600160a01b039091166004820152306024820152604481018590526064016020604051808303816000875af115801561187f573d6000803e3d6000fd5b505050506040513d601f19601f820116820180604052508101906118a39190612b09565b50600660006118b0612192565b6001600160a01b03166001600160a01b03168152602001908152602001600020546000036119a95760096118e2612192565b81546001810183556000928352602083200180546001600160a01b0319166001600160a01b039290921691909117905560119061191d612192565b6001600160a01b03166001600160a01b03168152602001908152602001600020546000036119a95761196a611950612192565b604080516001600160a01b03909216602083015201610d68565b50611973612192565b6001600160a01b03167fd802e7c7f1646e3318c03abed1e468bdf913f45331a68dc912a0d645eb646a4260405160405180910390a25b81600660006119b6612192565b6001600160a01b03166001600160a01b0316815260200190815260200160002060008282546119e59190612be3565b909155508290506119f4612192565b6001600160a01b03167f21040858e63c11c046482f61f290bbe25972fc74b11b4570a01f9241082d21f160405160405180910390a35050565b6001600054600160a01b900460ff166002811115611a4d57611a4d6128de565b14611a8f5760405162461bcd60e51b815260206004820152601260248201527153616c65206973206e6f742061637469766560701b604482015260640161069a565b600060125411611ad55760405162461bcd60e51b8152602060048201526011602482015270139bc81c9bdb1b081c1c9a58d9481cd95d607a1b604482015260640161069a565b600454601254611ae59190612be3565b60066000611af1612192565b6001600160a01b03166001600160a01b03168152602001908152602001600020541015611b555760405162461bcd60e51b8152602060048201526012602482015271496e73756666696369656e742066756e647360701b604482015260640161069a565b60125460066000611b64612192565b6001600160a01b03166001600160a01b031681526020019081526020016000206000828254611b939190612b89565b90915550506012546002546001600160a01b031660009081526006602052604081208054909190611bc5908490612be3565b90915550611bd69050611950612192565b50565b7ff0c57e16840df040f15088dc2f81fe391c3923bec73e23a9662efc9c229c6a008054600160401b810460ff16159067ffffffffffffffff16600081158015611c1f5750825b905060008267ffffffffffffffff166001148015611c3c5750303b155b905081158015611c4a575080155b15611c685760405163f92ee8a960e01b815260040160405180910390fd5b845467ffffffffffffffff191660011785558315611c9257845460ff60401b1916600160401b1785555b6020860151600280546001600160a01b039283166001600160a01b0319918216179091558751600e80549190931691161790556040860151611cd39061260d565b6060860151600355608086015160045560a086015160125560c086015160135560e0860151600b80546001600160a01b039283166001600160a01b031991821617909155610100880151600a805491841691831691909117905561012088015160018054918416918316919091179055610140880151601080549190931691161790558315610aa257845460ff60401b19168555604051600181527fc7f505b2f371ae2175ee4913f4499e1f2633a7b5936321eed1cdaeb6115181d29060200160405180910390a1505050505050565b60004244611daf612192565b6040805160208101949094528301919091526bffffffffffffffffffffffff19606091821b16908201526074016040516020818303038152906040528051906020012060001c905090565b60606008805480602002602001604051908101604052809291908181526020018280548015610e07576020028201919060005260206000209081546001600160a01b03168152600190910190602001808311610de9575050505050905090565b6002546001600160a01b0316611e6e612192565b6001600160a01b031614611e945760405162461bcd60e51b815260040161069a90612ac7565b60005b60095481101561207257611edf60098281548110611eb757611eb7612bf6565b60009182526020808320909101546001600160a01b0316825260079052604090205460ff1690565b61206a5760006006600060098481548110611efc57611efc612bf6565b60009182526020808320909101546001600160a01b031683528201929092526040018120546009805491935060069183919086908110611f3e57611f3e612bf6565b6000918252602080832091909101546001600160a01b039081168452908301939093526040918201902092909255600b54915163a9059cbb60e01b815285821660048201526024810184905291169063a9059cbb906044016020604051808303816000875af1158015611fb5573d6000803e3d6000fd5b505050506040513d601f19601f82011682018060405250810190611fd99190612b09565b50826001600160a01b03166350f3dbec60098481548110611ffc57611ffc612bf6565b60009182526020909120015460405160e083901b6001600160e01b03191681526001600160a01b03909116600482015260248101849052604401600060405180830381600087803b15801561205057600080fd5b505af1158015612064573d6000803e3d6000fd5b50505050505b600101611e97565b5050565b6002546001600160a01b031661208a612192565b6001600160a01b0316146120b05760405162461bcd60e51b815260040161069a90612ac7565b600280546001600160a01b0319166001600160a01b0392909216919091179055565b6120da6125af565b6001600160a01b03811661210457604051631e4fbdf760e01b81526000600482015260240161069a565b611bd68161260d565b6002546001600160a01b0316612121612192565b6001600160a01b0316146121475760405162461bcd60e51b815260040161069a90612ac7565b612152611950612192565b5061215b612192565b6001600160a01b03167fd802e7c7f1646e3318c03abed1e468bdf913f45331a68dc912a0d645eb646a4260405160405180910390a2565b600061219c61271a565b905090565b6002546001600160a01b03166121b5612192565b6001600160a01b0316146121db5760405162461bcd60e51b815260040161069a90612ac7565b6002600054600160a01b900460ff1660028111156121fb576121fb6128de565b146122405760405162461bcd60e51b815260206004820152601560248201527414d85b19481a5cc81b9bdd08195b991959081e595d605a1b604482015260640161069a565b60095460008167ffffffffffffffff81111561225e5761225e612998565b604051908082528060200260200182016040528015612287578160200160208202803683370190505b50905060005b828110156122f857600981815481106122a8576122a8612bf6565b9060005260206000200160009054906101000a90046001600160a01b03168282815181106122d8576122d8612bf6565b6001600160a01b039092166020928302919091019091015260010161228d565b5060005b8281101561246857600082828151811061231857612318612bf6565b6020908102919091018101516001600160a01b0381166000908152600683526040808220805490839055600790945290205490925060ff16156123e5576000600454826123659190612b89565b600b5460405163a9059cbb60e01b81526001600160a01b0386811660048301526024820184905292935091169063a9059cbb906044016020604051808303816000875af11580156123ba573d6000803e3d6000fd5b505050506040513d601f19601f820116820180604052508101906123de9190612b09565b505061245e565b600b5460405163a9059cbb60e01b81526001600160a01b038481166004830152602482018490529091169063a9059cbb906044016020604051808303816000875af1158015612438573d6000803e3d6000fd5b505050506040513d601f19601f8201168201806040525081019061245c9190612b09565b505b50506001016122fc565b50612475600960006127b5565b6040518281527f01f8aef848121bbf182106b55119c1094063c572b6c8dcb09040e1203a17abf99060200160405180910390a15050565b600c80546001808201808455600084905291929091839081106124d1576124d1612bf6565b90600052602060002090602091828204019190066101000a81548160ff0219169083151502179055506000818360405160200161250f929190612d8e565b6040516020818303038152906040529050600061252a61275e565b905060008183604051602001612541929190612d8e565b60408051601f1981840301815282825280516020808301919091206000898152600d9092529290208290559250907fd91fc3685b930310b008ec37d2334870cab88a023ed8cc628a2e2ccd4e55d2029061259e9085908790612d8e565b60405180910390a150505050919050565b6125b7612192565b6001600160a01b03166125d26000546001600160a01b031690565b6001600160a01b0316146110c1576125e8612192565b60405163118cdaa760e01b81526001600160a01b03909116600482015260240161069a565b600080546001600160a01b038381166001600160a01b0319831681178455604051919092169283917f8be0079c531659141344cd1fd0a4f28419497f9722a3daafe3b4186f6b6457e09190a35050565b6000818060200190518101906126739190612dc8565b90506000612687655af3107a400086612de5565b6002549091506001600160a01b03908116908316036126aa57600f8190556126d0565b6001600160a01b03821660009081526011602052604090208190556126ce82610b8a565b505b816001600160a01b03167f85e7483164122a78ca40e7f10b414e6f78c7d47abdae87716e0fb3491290c6ec8260405161270b91815260200190565b60405180910390a25050505050565b60007f00000000000000000000000000000000000000000000000000000000000000006001600160a01b03163303612759575060131936013560601c90565b503390565b60008061276f6364e6212742612b89565b9050600061277e600383612bcf565b612789906001612be3565b9050466001146127a35761279e816001612be3565b6127ae565b6127ae816004612be3565b9250505090565b5080546000825590600052602060002090810190611bd691905b808211156127e357600081556001016127cf565b5090565b6000602082840312156127f957600080fd5b5035919050565b6001600160a01b0381168114611bd657600080fd5b8035610c5881612800565b60006020828403121561283257600080fd5b813561283d81612800565b9392505050565b6000806040838503121561285757600080fd5b823561286281612800565b946020939093013593505050565b6020808252825182820181905260009190848201906040850190845b818110156128b15783516001600160a01b03168352928401929184019160010161288c565b50909695505050505050565b6000602082840312156128cf57600080fd5b81356003811061283d57600080fd5b634e487b7160e01b600052602160045260246000fd5b602081016003831061291657634e487b7160e01b600052602160045260246000fd5b91905290565b60008060006040848603121561293157600080fd5b83359250602084013567ffffffffffffffff8082111561295057600080fd5b818601915086601f83011261296457600080fd5b81358181111561297357600080fd5b87602082850101111561298557600080fd5b6020830194508093505050509250925092565b634e487b7160e01b600052604160045260246000fd5b604051610160810167ffffffffffffffff811182821017156129d2576129d2612998565b60405290565b604051601f8201601f1916810167ffffffffffffffff81118282101715612a0157612a01612998565b604052919050565b60006101608284031215612a1c57600080fd5b612a246129ae565b612a2d83612815565b8152612a3b60208401612815565b6020820152612a4c60408401612815565b6040820152606083013560608201526080830135608082015260a083013560a082015260c083013560c0820152612a8560e08401612815565b60e0820152610100612a98818501612815565b90820152610120612aaa848201612815565b90820152610140612abc848201612815565b908201529392505050565b60208082526022908201527f4f6e6c792073656c6c65722063616e2063616c6c20746869732066756e63746960408201526137b760f11b606082015260800190565b600060208284031215612b1b57600080fd5b8151801515811461283d57600080fd5b60208082526028908201527f5061727469636970616e742068617320616c726561647920776f6e20696e204c6040820152676f7474657279563160c01b606082015260800190565b634e487b7160e01b600052601160045260246000fd5b81810381811115612b9c57612b9c612b73565b92915050565b8082028115828204841417612b9c57612b9c612b73565b634e487b7160e01b600052601260045260246000fd5b600082612bde57612bde612bb9565b500490565b80820180821115612b9c57612b9c612b73565b634e487b7160e01b600052603260045260246000fd5b600067ffffffffffffffff821115612c2657612c26612998565b50601f01601f191660200190565b60008060408385031215612c4757600080fd5b82359150602083013567ffffffffffffffff811115612c6557600080fd5b8301601f81018513612c7657600080fd5b8035612c89612c8482612c0c565b6129d8565b818152866020838501011115612c9e57600080fd5b816020840160208301376000602083830101528093505050509250929050565b60005b83811015612cd9578181015183820152602001612cc1565b50506000910152565b60008060408385031215612cf557600080fd5b82519150602083015167ffffffffffffffff811115612d1357600080fd5b8301601f81018513612d2457600080fd5b8051612d32612c8482612c0c565b818152866020838501011115612d4757600080fd5b612d58826020830160208601612cbe565b8093505050509250929050565b8183823760009101908152919050565b600060208284031215612d8757600080fd5b5051919050565b8281526040602082015260008251806040840152612db3816060850160208701612cbe565b601f01601f1916919091016060019392505050565b600060208284031215612dda57600080fd5b815161283d81612800565b600082612df457612df4612bb9565b50069056fea2646970667358221220e20a7ba22247b0691aac2b42ac004c94e8c826a37b6715f1c76d3d3973af335d64736f6c63430008190033","linkReferences":{}},"methodIdentifiers":{"MAX_RANDOM()":"0a9fa5c7","buyerWithdraw()":"7cc947d0","changeLotteryState(uint8)":"683e93e1","claimNumber(address)":"3dc204e7","deposit(uint256)":"b6b55f25","deposits(address)":"fc7e286d","endLottery()":"1593a8c7","fulfillRandomness(uint256,bytes)":"b3f6b99a","getDepositedAmount(address)":"e9081ec7","getParticipants()":"5aa68ac0","getRandomNumber()":"dbdff2c1","getWinners()":"df15c37e","hasMinted(address)":"38e21cce","initialize((address,address,address,uint256,uint256,uint256,uint256,address,address,address,address))":"ce1121f2","isClaimable(address)":"292fec04","isTrustedForwarder(address)":"572b6c05","isWinner(address)":"9d9ca28d","lotteryState()":"6939864b","lotteryV1Addr()":"5f86e4fe","mintMyNFT()":"26170480","multisigWalletAddress()":"a61fb2ba","nftContractAddr()":"2c23ec8e","numberOfTickets()":"45745c10","operatorAddr()":"f3f18c37","owner()":"8da5cb5b","randomNumber()":"ccbac9f5","renounceOwnership()":"715018a6","requestPending(uint256)":"75ce7fff","requestRandomness()":"f8413b07","requestedHash(uint256)":"c4f8f27b","roll()":"cd5e3c5d","rollPrice()":"cf3af3a1","rollTolerance()":"bf1dda15","rolledNumbers(address)":"7b15452d","seller()":"08551a53","sellerWithdraw()":"66af746b","setRandomNumber()":"97fedfcb","setSeller(address)":"e99d2866","startLottery()":"160344e2","ticketPrice()":"1209b1f6","transferDeposit(address,uint256)":"50f3dbec","transferNonWinnerDeposits(address)":"e63c4609","transferOwnership(address)":"f2fde38b","usdcContractAddr()":"99dbf4b5","winnerAddresses(uint256)":"045f9c97","winners(address)":"6bd5450a"},"id":58}