{"abi":[{"type":"function","name":"buyerWithdraw","inputs":[],"outputs":[],"stateMutability":"nonpayable"},{"type":"function","name":"changeLotteryState","inputs":[{"name":"_newState","type":"uint8","internalType":"enum LotteryV1Base.LotteryState"}],"outputs":[],"stateMutability":"nonpayable"},{"type":"function","name":"deposit","inputs":[{"name":"amount","type":"uint256","internalType":"uint256"}],"outputs":[],"stateMutability":"payable"},{"type":"function","name":"deposits","inputs":[{"name":"","type":"address","internalType":"address"}],"outputs":[{"name":"","type":"uint256","internalType":"uint256"}],"stateMutability":"view"},{"type":"function","name":"endLottery","inputs":[],"outputs":[],"stateMutability":"nonpayable"},{"type":"function","name":"finishAt","inputs":[],"outputs":[{"name":"","type":"uint256","internalType":"uint256"}],"stateMutability":"view"},{"type":"function","name":"fulfillRandomness","inputs":[{"name":"randomness","type":"uint256","internalType":"uint256"},{"name":"dataWithRound","type":"bytes","internalType":"bytes"}],"outputs":[],"stateMutability":"nonpayable"},{"type":"function","name":"getDepositedAmount","inputs":[{"name":"participant","type":"address","internalType":"address"}],"outputs":[{"name":"","type":"uint256","internalType":"uint256"}],"stateMutability":"view"},{"type":"function","name":"getParticipants","inputs":[],"outputs":[{"name":"","type":"address[]","internalType":"address[]"}],"stateMutability":"view"},{"type":"function","name":"getWinners","inputs":[],"outputs":[{"name":"","type":"address[]","internalType":"address[]"}],"stateMutability":"view"},{"type":"function","name":"hasMinted","inputs":[{"name":"","type":"address","internalType":"address"}],"outputs":[{"name":"","type":"bool","internalType":"bool"}],"stateMutability":"view"},{"type":"function","name":"initialize","inputs":[{"name":"config","type":"tuple","internalType":"struct StructsLibrary.ILotteryBaseConfig","components":[{"name":"_seller","type":"address","internalType":"address"},{"name":"_gelatoVrfOperator","type":"address","internalType":"address"},{"name":"_blessedOperator","type":"address","internalType":"address"},{"name":"_owner","type":"address","internalType":"address"},{"name":"_ticketAmount","type":"uint256","internalType":"uint256"},{"name":"_ticketPrice","type":"uint256","internalType":"uint256"},{"name":"_finishAt","type":"uint256","internalType":"uint256"},{"name":"_usdcContractAddr","type":"address","internalType":"address"},{"name":"_multisigWalletAddress","type":"address","internalType":"address"}]}],"outputs":[],"stateMutability":"nonpayable"},{"type":"function","name":"initialized","inputs":[],"outputs":[{"name":"","type":"bool","internalType":"bool"}],"stateMutability":"view"},{"type":"function","name":"isParticipantEligible","inputs":[{"name":"participant","type":"address","internalType":"address"}],"outputs":[{"name":"","type":"bool","internalType":"bool"}],"stateMutability":"view"},{"type":"function","name":"isTrustedForwarder","inputs":[{"name":"forwarder","type":"address","internalType":"address"}],"outputs":[{"name":"","type":"bool","internalType":"bool"}],"stateMutability":"view"},{"type":"function","name":"isWinner","inputs":[{"name":"_participant","type":"address","internalType":"address"}],"outputs":[{"name":"","type":"bool","internalType":"bool"}],"stateMutability":"view"},{"type":"function","name":"lotteryState","inputs":[],"outputs":[{"name":"","type":"uint8","internalType":"enum LotteryV1Base.LotteryState"}],"stateMutability":"view"},{"type":"function","name":"minimumDepositAmount","inputs":[],"outputs":[{"name":"","type":"uint256","internalType":"uint256"}],"stateMutability":"view"},{"type":"function","name":"mintMyNFT","inputs":[],"outputs":[],"stateMutability":"nonpayable"},{"type":"function","name":"multisigWalletAddress","inputs":[],"outputs":[{"name":"","type":"address","internalType":"address"}],"stateMutability":"view"},{"type":"function","name":"nftContractAddr","inputs":[],"outputs":[{"name":"","type":"address","internalType":"address"}],"stateMutability":"view"},{"type":"function","name":"numberOfTickets","inputs":[],"outputs":[{"name":"","type":"uint256","internalType":"uint256"}],"stateMutability":"view"},{"type":"function","name":"operatorAddr","inputs":[],"outputs":[{"name":"","type":"address","internalType":"address"}],"stateMutability":"view"},{"type":"function","name":"owner","inputs":[],"outputs":[{"name":"","type":"address","internalType":"address"}],"stateMutability":"view"},{"type":"function","name":"randomNumber","inputs":[],"outputs":[{"name":"","type":"uint256","internalType":"uint256"}],"stateMutability":"view"},{"type":"function","name":"renounceOwnership","inputs":[],"outputs":[],"stateMutability":"nonpayable"},{"type":"function","name":"requestPending","inputs":[{"name":"","type":"uint256","internalType":"uint256"}],"outputs":[{"name":"","type":"bool","internalType":"bool"}],"stateMutability":"view"},{"type":"function","name":"requestRandomness","inputs":[],"outputs":[],"stateMutability":"nonpayable"},{"type":"function","name":"requestedHash","inputs":[{"name":"","type":"uint256","internalType":"uint256"}],"outputs":[{"name":"","type":"bytes32","internalType":"bytes32"}],"stateMutability":"view"},{"type":"function","name":"selectWinners","inputs":[],"outputs":[],"stateMutability":"nonpayable"},{"type":"function","name":"seller","inputs":[],"outputs":[{"name":"","type":"address","internalType":"address"}],"stateMutability":"view"},{"type":"function","name":"sellerWithdraw","inputs":[],"outputs":[],"stateMutability":"nonpayable"},{"type":"function","name":"setFinishAt","inputs":[{"name":"_finishAt","type":"uint256","internalType":"uint256"}],"outputs":[],"stateMutability":"nonpayable"},{"type":"function","name":"setMinimumDepositAmount","inputs":[{"name":"_amount","type":"uint256","internalType":"uint256"}],"outputs":[],"stateMutability":"nonpayable"},{"type":"function","name":"setMultisigWalletAddress","inputs":[{"name":"_multisigWalletAddress","type":"address","internalType":"address"}],"outputs":[],"stateMutability":"nonpayable"},{"type":"function","name":"setNftContractAddr","inputs":[{"name":"_nftContractAddr","type":"address","internalType":"address"}],"outputs":[],"stateMutability":"nonpayable"},{"type":"function","name":"setNumberOfTickets","inputs":[{"name":"_numberOfTickets","type":"uint256","internalType":"uint256"}],"outputs":[],"stateMutability":"nonpayable"},{"type":"function","name":"setSeller","inputs":[{"name":"_seller","type":"address","internalType":"address"}],"outputs":[],"stateMutability":"nonpayable"},{"type":"function","name":"setUsdcContractAddr","inputs":[{"name":"_usdcContractAddr","type":"address","internalType":"address"}],"outputs":[],"stateMutability":"nonpayable"},{"type":"function","name":"setWinner","inputs":[{"name":"_winner","type":"address","internalType":"address"}],"outputs":[],"stateMutability":"nonpayable"},{"type":"function","name":"startLottery","inputs":[],"outputs":[],"stateMutability":"nonpayable"},{"type":"function","name":"transferNonWinnerDeposits","inputs":[{"name":"lotteryV2addr","type":"address","internalType":"address"}],"outputs":[],"stateMutability":"nonpayable"},{"type":"function","name":"transferOwnership","inputs":[{"name":"newOwner","type":"address","internalType":"address"}],"outputs":[],"stateMutability":"nonpayable"},{"type":"function","name":"usdcContractAddr","inputs":[],"outputs":[{"name":"","type":"address","internalType":"address"}],"stateMutability":"view"},{"type":"function","name":"winnerAddresses","inputs":[{"name":"","type":"uint256","internalType":"uint256"}],"outputs":[{"name":"","type":"address","internalType":"address"}],"stateMutability":"view"},{"type":"function","name":"winners","inputs":[{"name":"","type":"address","internalType":"address"}],"outputs":[{"name":"","type":"bool","internalType":"bool"}],"stateMutability":"view"},{"type":"event","name":"LotteryEnded","inputs":[],"anonymous":false},{"type":"event","name":"LotteryStarted","inputs":[],"anonymous":false},{"type":"event","name":"OwnershipTransferred","inputs":[{"name":"previousOwner","type":"address","indexed":true,"internalType":"address"},{"name":"newOwner","type":"address","indexed":true,"internalType":"address"}],"anonymous":false},{"type":"event","name":"RandomFullfiled","inputs":[{"name":"number","type":"uint256","indexed":false,"internalType":"uint256"}],"anonymous":false},{"type":"event","name":"RandomRequested","inputs":[{"name":"requester","type":"address","indexed":true,"internalType":"address"}],"anonymous":false},{"type":"event","name":"RequestedRandomness","inputs":[{"name":"round","type":"uint256","indexed":false,"internalType":"uint256"},{"name":"data","type":"bytes","indexed":false,"internalType":"bytes"}],"anonymous":false},{"type":"event","name":"WinnerSelected","inputs":[{"name":"winner","type":"address","indexed":true,"internalType":"address"}],"anonymous":false},{"type":"error","name":"OwnableInvalidOwner","inputs":[{"name":"owner","type":"address","internalType":"address"}]},{"type":"error","name":"OwnableUnauthorizedAccount","inputs":[{"name":"account","type":"address","internalType":"address"}]}],"bytecode":{"object":"0x60a06040526002805460ff60a01b1916905534801561001d57600080fd5b5073d8253782c45a12053594b9deb72d8e8ab2fca54c338061005957604051631e4fbdf760e01b81526000600482015260240160405180910390fd5b61006281610074565b506001600160a01b03166080526100c6565b600280546001600160a01b038381166001600160a01b0319831681179093556040519116919082907f8be0079c531659141344cd1fd0a4f28419497f9722a3daafe3b4186f6b6457e090600090a35050565b608051612ba46100e86000396000818161044d015261254c0152612ba46000f3fe60806040526004361061027d5760003560e01c80637cc947d01161014f578063c4f8f27b116100c1578063e9081ec71161007a578063e9081ec7146107b4578063e99d2866146107ea578063f2fde38b1461080a578063f3f18c371461082a578063f8413b071461084a578063fc7e286d1461085f57600080fd5b8063c4f8f27b146106fc578063ccbac9f514610729578063d30009bd1461073f578063d9fca7691461075f578063df15c37e1461077f578063e63c46091461079457600080fd5b806399dbf4b51161011357806399dbf4b5146106305780639d9ca28d14610650578063a61fb2ba14610689578063aab483d6146106a9578063b3f6b99a146106c9578063b6b55f25146106e957600080fd5b80637cc947d01461059d5780638a6723e6146105b25780638da5cb5b146105d257806394d898de146105f057806399bd69d61461061057600080fd5b806338e21cce116101f357806367d3b488116101ac57806367d3b488146104d4578063683e93e1146104ea5780636939864b1461050a5780636bd5450a14610538578063715018a61461056857806375ce7fff1461057d57600080fd5b806338e21cce146103ea57806345745c101461041a578063572b6c05146104305780635aa68ac01461047d57806360d50da31461049f57806366af746b146104bf57600080fd5b80631593a8c7116102455780631593a8c714610356578063160344e21461036b5780631a0de74c1461038057806326170480146103955780632c23ec8e146103aa5780633644c27c146103ca57600080fd5b8063045f9c9714610282578063080c279a146102bf57806308551a53146102e35780630bea663714610303578063158ef93e14610325575b600080fd5b34801561028e57600080fd5b506102a261029d3660046125e3565b61088c565b6040516001600160a01b0390911681526020015b60405180910390f35b3480156102cb57600080fd5b506102d560065481565b6040519081526020016102b6565b3480156102ef57600080fd5b506004546102a2906001600160a01b031681565b34801561030f57600080fd5b5061032361031e3660046125e3565b6108b6565b005b34801561033157600080fd5b5060025461034690600160a01b900460ff1681565b60405190151581526020016102b6565b34801561036257600080fd5b506103236108fe565b34801561037757600080fd5b50610323610944565b34801561038c57600080fd5b506103236109fd565b3480156103a157600080fd5b50610323610d8b565b3480156103b657600080fd5b50600f546102a2906001600160a01b031681565b3480156103d657600080fd5b506103236103e5366004612618565b610f57565b3480156103f657600080fd5b50610346610405366004612618565b600a6020526000908152604090205460ff1681565b34801561042657600080fd5b506102d560075481565b34801561043c57600080fd5b5061034661044b366004612618565b7f00000000000000000000000000000000000000000000000000000000000000006001600160a01b0390811691161490565b34801561048957600080fd5b50610492610f81565b6040516102b6919061263a565b3480156104ab57600080fd5b506103236104ba366004612618565b610fe3565b3480156104cb57600080fd5b5061032361100d565b3480156104e057600080fd5b506102d560115481565b3480156104f657600080fd5b50610323610505366004612687565b611241565b34801561051657600080fd5b5060025461052b90600160a81b900460ff1681565b6040516102b691906126be565b34801561054457600080fd5b50610346610553366004612618565b600c6020526000908152604090205460ff1681565b34801561057457600080fd5b506103236112a8565b34801561058957600080fd5b506103466105983660046125e3565b6112ba565b3480156105a957600080fd5b506103236112ee565b3480156105be57600080fd5b506103466105cd366004612618565b6114fc565b3480156105de57600080fd5b506002546001600160a01b03166102a2565b3480156105fc57600080fd5b5061032361060b366004612618565b61155b565b34801561061c57600080fd5b5061032361062b3660046125e3565b611585565b34801561063c57600080fd5b506010546102a2906001600160a01b031681565b34801561065c57600080fd5b5061034661066b366004612618565b6001600160a01b03166000908152600c602052604090205460ff1690565b34801561069557600080fd5b506003546102a2906001600160a01b031681565b3480156106b557600080fd5b506103236106c43660046125e3565b611628565b3480156106d557600080fd5b506103236106e43660046126e6565b611667565b6103236106f73660046125e3565b61183b565b34801561070857600080fd5b506102d56107173660046125e3565b60016020526000908152604090205481565b34801561073557600080fd5b506102d560085481565b34801561074b57600080fd5b5061032361075a3660046127d3565b611bb1565b34801561076b57600080fd5b5061032361077a366004612618565b611cab565b34801561078b57600080fd5b50610492611d4b565b3480156107a057600080fd5b506103236107af366004612618565b611dab565b3480156107c057600080fd5b506102d56107cf366004612618565b6001600160a01b03166000908152600b602052604090205490565b3480156107f657600080fd5b50610323610805366004612618565b612044565b34801561081657600080fd5b50610323610825366004612618565b6120a0565b34801561083657600080fd5b506005546102a2906001600160a01b031681565b34801561085657600080fd5b506103236120de565b34801561086b57600080fd5b506102d561087a366004612618565b600b6020526000908152604090205481565b600d818154811061089c57600080fd5b6000918252602090912001546001600160a01b0316905081565b6004546001600160a01b03166108ca61218c565b6001600160a01b0316146108f95760405162461bcd60e51b81526004016108f090612874565b60405180910390fd5b601155565b6004546001600160a01b031661091261218c565b6001600160a01b0316146109385760405162461bcd60e51b81526004016108f090612874565b6109426002611241565b565b6004546001600160a01b031661095861218c565b6001600160a01b03161461097e5760405162461bcd60e51b81526004016108f090612874565b6000600254600160a81b900460ff16600481111561099e5761099e6126a8565b146109eb5760405162461bcd60e51b815260206004820152601a60248201527f4c6f747465727920697320696e2061637469766520737461746500000000000060448201526064016108f0565b6109f56001611241565b61094261219b565b6004546001600160a01b0316610a1161218c565b6001600160a01b031614610a375760405162461bcd60e51b81526004016108f090612874565b600060075411610a895760405162461bcd60e51b815260206004820152601b60248201527f4e6f207469636b657473206c65667420746f20616c6c6f63617465000000000060448201526064016108f0565b60095460075410610b745760005b600954811015610b3a57600060098281548110610ab657610ab66128b6565b6000918252602090912001546001600160a01b03169050610aef816001600160a01b03166000908152600c602052604090205460ff1690565b610b3157610afc81611cab565b6040516001600160a01b038216907f1d4c260f1824cd028e6c9e6e31c3a0b94f2513e7a641113ec759d382f9bdd5a190600090a25b50600101610a97565b5060005b600954811015610b6e57610b518161224c565b60078054906000610b61836128e2565b9091555050600101610b3e565b50610d56565b60005b600954811015610c8f57600954600090610b929083906128f9565b600854610b9f9190612928565b610ba9908361293c565b9050600060098281548110610bc057610bc06128b6565b600091825260209091200154600980546001600160a01b0390921692509084908110610bee57610bee6128b6565b600091825260209091200154600980546001600160a01b039092169184908110610c1a57610c1a6128b6565b9060005260206000200160006101000a8154816001600160a01b0302191690836001600160a01b031602179055508060098481548110610c5c57610c5c6128b6565b600091825260209091200180546001600160a01b0319166001600160a01b03929092169190911790555050600101610b77565b5060005b600754811015610d5457600060098281548110610cb257610cb26128b6565b6000918252602090912001546001600160a01b03169050610ceb816001600160a01b03166000908152600c602052604090205460ff1690565b610d4b57610cf881611cab565b610d018261224c565b60078054906000610d11836128e2565b90915550506040516001600160a01b038216907f1d4c260f1824cd028e6c9e6e31c3a0b94f2513e7a641113ec759d382f9bdd5a190600090a25b50600101610c93565b505b600754600003610942576040517f9c89a6ed7228533196a3f962acc80d61a9c53bdea6b910741bf754f5aaa7569e90600090a1565b600a6000610d9761218c565b6001600160a01b0316815260208101919091526040016000205460ff1615610df65760405162461bcd60e51b815260206004820152601260248201527113919508185b1c9958591e481b5a5b9d195960721b60448201526064016108f0565b60028054600160a81b900460ff166004811115610e1557610e156126a8565b14610e625760405162461bcd60e51b815260206004820152601860248201527f4c6f7474657279206973206e6f7420656e64656420796574000000000000000060448201526064016108f0565b610e6d61066b61218c565b610eb25760405162461bcd60e51b815260206004820152601660248201527521b0b63632b91034b9903737ba1030903bb4b73732b960511b60448201526064016108f0565b6001600a6000610ec061218c565b6001600160a01b0390811682526020820192909252604001600020805460ff191692151592909217909155600f5416636b8f60f6610efc61218c565b6040516001600160e01b031960e084901b1681526001600160a01b039091166004820152602401600060405180830381600087803b158015610f3d57600080fd5b505af1158015610f51573d6000803e3d6000fd5b50505050565b610f5f61235a565b600f80546001600160a01b0319166001600160a01b0392909216919091179055565b6060600e805480602002602001604051908101604052809291908181526020018280548015610fd957602002820191906000526020600020905b81546001600160a01b03168152600190910190602001808311610fbb575b5050505050905090565b610feb61235a565b600380546001600160a01b0319166001600160a01b0392909216919091179055565b6004546001600160a01b031661102161218c565b6001600160a01b0316146110475760405162461bcd60e51b81526004016108f090612874565b60028054600160a81b900460ff166004811115611066576110666126a8565b146110a75760405162461bcd60e51b8152602060048201526011602482015270131bdd1d195c9e481b9bdd08195b991959607a1b60448201526064016108f0565b6000805b600d54811015611120576000600d82815481106110ca576110ca6128b6565b60009182526020808320909101546001600160a01b0316808352600b9091526040909120549091506110fc908461293c565b6001600160a01b039091166000908152600b602052604081205591506001016110ab565b506000606461113083600561294f565b61113a9190612966565b9050600061114882846128f9565b60105460035460405163a9059cbb60e01b81526001600160a01b03918216600482015260248101869052929350169063a9059cbb906044016020604051808303816000875af115801561119f573d6000803e3d6000fd5b505050506040513d601f19601f820116820180604052508101906111c3919061297a565b506010546004805460405163a9059cbb60e01b81526001600160a01b0391821692810192909252602482018490529091169063a9059cbb906044016020604051808303816000875af115801561121d573d6000803e3d6000fd5b505050506040513d601f19601f82011682018060405250810190610f51919061297a565b6004546001600160a01b031661125561218c565b6001600160a01b03161461127b5760405162461bcd60e51b81526004016108f090612874565b6002805482919060ff60a81b1916600160a81b8360048111156112a0576112a06126a8565b021790555050565b6112b061235a565b61094260006123b8565b600081815481106112ca57600080fd5b9060005260206000209060209182820401919006915054906101000a900460ff1681565b6001600254600160a81b900460ff16600481111561130e5761130e6126a8565b0361135b5760405162461bcd60e51b815260206004820152601b60248201527f4c6f74746572792069732063757272656e746c7920616374697665000000000060448201526064016108f0565b600c600061136761218c565b6001600160a01b0316815260208101919091526040016000205460ff16156113d15760405162461bcd60e51b815260206004820152601760248201527f57696e6e6572732063616e6e6f7420776974686472617700000000000000000060448201526064016108f0565b6000600b60006113df61218c565b6001600160a01b03166001600160a01b03168152602001908152602001600020549050600081116114495760405162461bcd60e51b81526020600482015260146024820152734e6f2066756e647320746f20776974686472617760601b60448201526064016108f0565b6000600b600061145761218c565b6001600160a01b0390811682526020820192909252604001600020919091556010541663a9059cbb61148761218c565b6040516001600160e01b031960e084901b1681526001600160a01b039091166004820152602481018490526044016020604051808303816000875af11580156114d4573d6000803e3d6000fd5b505050506040513d601f19601f820116820180604052508101906114f8919061297a565b5050565b6000805b60095481101561155257826001600160a01b031660098281548110611527576115276128b6565b6000918252602090912001546001600160a01b03160361154a5750600192915050565b600101611500565b50600092915050565b61156361235a565b601080546001600160a01b0319166001600160a01b0392909216919091179055565b6004546001600160a01b031661159961218c565b6001600160a01b0316146115bf5760405162461bcd60e51b81526004016108f090612874565b600081116116235760405162461bcd60e51b815260206004820152602b60248201527f4e756d626572206f66207469636b657473206d7573742062652067726561746560448201526a72207468616e207a65726f60a81b60648201526084016108f0565b600755565b6004546001600160a01b031661163c61218c565b6001600160a01b0316146116625760405162461bcd60e51b81526004016108f090612874565b600655565b6005546001600160a01b031633146116b15760405162461bcd60e51b815260206004820152600d60248201526c37b7363c9037b832b930ba37b960991b60448201526064016108f0565b60006116bf828401846129c4565b915050600080828060200190518101906116d99190612a72565b91509150600085856040516116ef929190612af5565b6040805191829003909120600085815260016020529182205482549193508314919085908110611721576117216128b6565b90600052602060002090602091828204019190069054906101000a900460ff1661178d5760405162461bcd60e51b815260206004820152601c60248201527f726571756573742066756c66696c6c6564206f72206d697373696e670000000060448201526064016108f0565b80156118315760408051602081018a905230918101919091524660608201526080810185905260a0016040516020818303038152906040528051906020012060001c97506117dc88858561240a565b60008085815481106117f0576117f06128b6565b90600052602060002090602091828204019190066101000a81548160ff02191690831515021790555060016000858152602001908152602001600020600090555b5050505050505050565b6001600254600160a81b900460ff16600481111561185b5761185b6126a8565b036118a85760405162461bcd60e51b815260206004820152601b60248201527f4c6f74746572792069732063757272656e746c7920616374697665000000000060448201526064016108f0565b42601154116119035760405162461bcd60e51b815260206004820152602160248201527f4465706f7369747320617265206e6f7420706f737369626c6520616e796d6f726044820152606560f81b60648201526084016108f0565b6010546001600160a01b031661195b5760405162461bcd60e51b815260206004820152601d60248201527f5553444320636f6e74726163742061646472657373206e6f742073657400000060448201526064016108f0565b6000811161199b5760405162461bcd60e51b815260206004820152600d60248201526c139bc8199d5b991cc81cd95b9d609a1b60448201526064016108f0565b60105481906001600160a01b031663dd62ed3e6119b661218c565b6040516001600160e01b031960e084901b1681526001600160a01b039091166004820152306024820152604401602060405180830381865afa158015611a00573d6000803e3d6000fd5b505050506040513d601f19601f82011682018060405250810190611a249190612b05565b1015611a6b5760405162461bcd60e51b8152602060048201526016602482015275496e73756666696369656e7420616c6c6f77616e636560501b60448201526064016108f0565b6010546001600160a01b03166323b872dd611a8461218c565b6040516001600160e01b031960e084901b1681526001600160a01b039091166004820152306024820152604481018490526064016020604051808303816000875af1158015611ad7573d6000803e3d6000fd5b505050506040513d601f19601f82011682018060405250810190611afb919061297a565b50600b6000611b0861218c565b6001600160a01b03166001600160a01b0316815260200190815260200160002054600003611b6d57600e611b3a61218c565b81546001810183556000928352602090922090910180546001600160a01b0319166001600160a01b039092169190911790555b80600b6000611b7a61218c565b6001600160a01b03166001600160a01b031681526020019081526020016000206000828254611ba9919061293c565b909155505050565b600254600160a01b900460ff1615611c015760405162461bcd60e51b8152602060048201526013602482015272105b1c9958591e481a5b9a5d1a585b1a5e9959606a1b60448201526064016108f0565b6040810151600480546001600160a01b039283166001600160a01b0319918216179091556020830151600580549190931691161790556060810151611c45906123b8565b608081015160075560a081015160065560c081015160115560e0810151601080546001600160a01b03199081166001600160a01b03938416179091556101009092015160038054909316911617905560028054600160a01b60ff60a01b19909116179055565b6004546001600160a01b0316611cbf61218c565b6001600160a01b031614611ce55760405162461bcd60e51b81526004016108f090612874565b6001600160a01b03166000818152600c60205260408120805460ff19166001908117909155600d805491820181559091527fd7b6990105719101dabeb77144f2a3385c8033acd3af97e9423a695e81ad1eb50180546001600160a01b0319169091179055565b6060600d805480602002602001604051908101604052809291908181526020018280548015610fd9576020028201919060005260206000209081546001600160a01b03168152600190910190602001808311610fbb575050505050905090565b6004546001600160a01b0316611dbf61218c565b6001600160a01b031614611de55760405162461bcd60e51b81526004016108f090612874565b60005b600e548110156114f8576000600b6000600e8481548110611e0b57611e0b6128b6565b60009182526020808320909101546001600160a01b03168352820192909252604001812054600e8054919350600b9183919086908110611e4d57611e4d6128b6565b6000918252602080832091909101546001600160a01b039081168452908301939093526040918201902092909255601054915163a9059cbb60e01b815285821660048201526024810184905291169063a9059cbb906044016020604051808303816000875af1158015611ec4573d6000803e3d6000fd5b505050506040513d601f19601f82011682018060405250810190611ee8919061297a565b50826001600160a01b03166350f3dbec600e8481548110611f0b57611f0b6128b6565b60009182526020909120015460405160e083901b6001600160e01b03191681526001600160a01b03909116600482015260248101849052604401600060405180830381600087803b158015611f5f57600080fd5b505af1158015611f73573d6000803e3d6000fd5b5050600e54611f869250600191506128f9565b82101561200857600e8054611f9d906001906128f9565b81548110611fad57611fad6128b6565b600091825260209091200154600e80546001600160a01b039092169184908110611fd957611fd96128b6565b9060005260206000200160006101000a8154816001600160a01b0302191690836001600160a01b031602179055505b600e80548061201957612019612b1e565b600082815260209020810160001990810180546001600160a01b031916905501905550600101611de8565b6004546001600160a01b031661205861218c565b6001600160a01b03161461207e5760405162461bcd60e51b81526004016108f090612874565b600480546001600160a01b0319166001600160a01b0392909216919091179055565b6120a861235a565b6001600160a01b0381166120d257604051631e4fbdf760e01b8152600060048201526024016108f0565b6120db816123b8565b50565b6004546001600160a01b03166120f261218c565b6001600160a01b0316146121185760405162461bcd60e51b81526004016108f090612874565b61214c61212361218c565b604080516001600160a01b03909216602083015201604051602081830303815290604052612447565b5061215561218c565b6001600160a01b03167fd802e7c7f1646e3318c03abed1e468bdf913f45331a68dc912a0d645eb646a4260405160405180910390a2565b6000612196612548565b905090565b60005b600e548110156120db576000600b6000600e84815481106121c1576121c16128b6565b60009182526020808320909101546001600160a01b031683528201929092526040019020546006549091508110612243576009600e8381548110612207576122076128b6565b60009182526020808320909101548354600181018555938352912090910180546001600160a01b0319166001600160a01b039092169190911790555b5060010161219e565b60095481106122935760405162461bcd60e51b8152602060048201526013602482015272496e646578206f7574206f6620626f756e647360681b60448201526064016108f0565b6009546122a2906001906128f9565b81101561232457600980546122b9906001906128f9565b815481106122c9576122c96128b6565b600091825260209091200154600980546001600160a01b0390921691839081106122f5576122f56128b6565b9060005260206000200160006101000a8154816001600160a01b0302191690836001600160a01b031602179055505b600980548061233557612335612b1e565b600082815260209020810160001990810180546001600160a01b031916905501905550565b61236261218c565b6001600160a01b031661237d6002546001600160a01b031690565b6001600160a01b0316146109425761239361218c565b60405163118cdaa760e01b81526001600160a01b0390911660048201526024016108f0565b600280546001600160a01b038381166001600160a01b0319831681179093556040519116919082907f8be0079c531659141344cd1fd0a4f28419497f9722a3daafe3b4186f6b6457e090600090a35050565b60088390556040518381527fa2353d33775668d31add0688b8ed09ca3a91dc8129126fcdbcbda3a887db60db9060200160405180910390a1505050565b600080546001808201808455838052919290918390811061246a5761246a6128b6565b90600052602060002090602091828204019190066101000a81548160ff021916908315150217905550600081836040516020016124a8929190612b34565b604051602081830303815290604052905060006124c361258c565b9050600081836040516020016124da929190612b34565b60408051601f198184030181528282528051602080830191909120600089815260019092529290208290559250907fd91fc3685b930310b008ec37d2334870cab88a023ed8cc628a2e2ccd4e55d202906125379085908790612b34565b60405180910390a150505050919050565b60007f00000000000000000000000000000000000000000000000000000000000000006001600160a01b03163303612587575060131936013560601c90565b503390565b60008061259d6364e62127426128f9565b905060006125ac600383612966565b6125b790600161293c565b9050466001146125d1576125cc81600161293c565b6125dc565b6125dc81600461293c565b9250505090565b6000602082840312156125f557600080fd5b5035919050565b80356001600160a01b038116811461261357600080fd5b919050565b60006020828403121561262a57600080fd5b612633826125fc565b9392505050565b6020808252825182820181905260009190848201906040850190845b8181101561267b5783516001600160a01b031683529284019291840191600101612656565b50909695505050505050565b60006020828403121561269957600080fd5b81356005811061263357600080fd5b634e487b7160e01b600052602160045260246000fd5b60208101600583106126e057634e487b7160e01b600052602160045260246000fd5b91905290565b6000806000604084860312156126fb57600080fd5b83359250602084013567ffffffffffffffff8082111561271a57600080fd5b818601915086601f83011261272e57600080fd5b81358181111561273d57600080fd5b87602082850101111561274f57600080fd5b6020830194508093505050509250925092565b634e487b7160e01b600052604160045260246000fd5b604051610120810167ffffffffffffffff8111828210171561279c5761279c612762565b60405290565b604051601f8201601f1916810167ffffffffffffffff811182821017156127cb576127cb612762565b604052919050565b600061012082840312156127e657600080fd5b6127ee612778565b6127f7836125fc565b8152612805602084016125fc565b6020820152612816604084016125fc565b6040820152612827606084016125fc565b60608201526080830135608082015260a083013560a082015260c083013560c082015261285660e084016125fc565b60e08201526101006128698185016125fc565b908201529392505050565b60208082526022908201527f4f6e6c792073656c6c65722063616e2063616c6c20746869732066756e63746960408201526137b760f11b606082015260800190565b634e487b7160e01b600052603260045260246000fd5b634e487b7160e01b600052601160045260246000fd5b6000816128f1576128f16128cc565b506000190190565b8181038181111561290c5761290c6128cc565b92915050565b634e487b7160e01b600052601260045260246000fd5b60008261293757612937612912565b500690565b8082018082111561290c5761290c6128cc565b808202811582820484141761290c5761290c6128cc565b60008261297557612975612912565b500490565b60006020828403121561298c57600080fd5b8151801515811461263357600080fd5b600067ffffffffffffffff8211156129b6576129b6612762565b50601f01601f191660200190565b600080604083850312156129d757600080fd5b82359150602083013567ffffffffffffffff8111156129f557600080fd5b8301601f81018513612a0657600080fd5b8035612a19612a148261299c565b6127a2565b818152866020838501011115612a2e57600080fd5b816020840160208301376000602083830101528093505050509250929050565b60005b83811015612a69578181015183820152602001612a51565b50506000910152565b60008060408385031215612a8557600080fd5b82519150602083015167ffffffffffffffff811115612aa357600080fd5b8301601f81018513612ab457600080fd5b8051612ac2612a148261299c565b818152866020838501011115612ad757600080fd5b612ae8826020830160208601612a4e565b8093505050509250929050565b8183823760009101908152919050565b600060208284031215612b1757600080fd5b5051919050565b634e487b7160e01b600052603160045260246000fd5b8281526040602082015260008251806040840152612b59816060850160208701612a4e565b601f01601f191691909101606001939250505056fea2646970667358221220e7a9ee7daa26a545595935754fa41a70f1de5fed1c474f31ca2ef30621c175b064736f6c63430008190033","linkReferences":{}},"methodIdentifiers":{"buyerWithdraw()":"7cc947d0","changeLotteryState(uint8)":"683e93e1","deposit(uint256)":"b6b55f25","deposits(address)":"fc7e286d","endLottery()":"1593a8c7","finishAt()":"67d3b488","fulfillRandomness(uint256,bytes)":"b3f6b99a","getDepositedAmount(address)":"e9081ec7","getParticipants()":"5aa68ac0","getWinners()":"df15c37e","hasMinted(address)":"38e21cce","initialize((address,address,address,address,uint256,uint256,uint256,address,address))":"d30009bd","initialized()":"158ef93e","isParticipantEligible(address)":"8a6723e6","isTrustedForwarder(address)":"572b6c05","isWinner(address)":"9d9ca28d","lotteryState()":"6939864b","minimumDepositAmount()":"080c279a","mintMyNFT()":"26170480","multisigWalletAddress()":"a61fb2ba","nftContractAddr()":"2c23ec8e","numberOfTickets()":"45745c10","operatorAddr()":"f3f18c37","owner()":"8da5cb5b","randomNumber()":"ccbac9f5","renounceOwnership()":"715018a6","requestPending(uint256)":"75ce7fff","requestRandomness()":"f8413b07","requestedHash(uint256)":"c4f8f27b","selectWinners()":"1a0de74c","seller()":"08551a53","sellerWithdraw()":"66af746b","setFinishAt(uint256)":"0bea6637","setMinimumDepositAmount(uint256)":"aab483d6","setMultisigWalletAddress(address)":"60d50da3","setNftContractAddr(address)":"3644c27c","setNumberOfTickets(uint256)":"99bd69d6","setSeller(address)":"e99d2866","setUsdcContractAddr(address)":"94d898de","setWinner(address)":"d9fca769","startLottery()":"160344e2","transferNonWinnerDeposits(address)":"e63c4609","transferOwnership(address)":"f2fde38b","usdcContractAddr()":"99dbf4b5","winnerAddresses(uint256)":"045f9c97","winners(address)":"6bd5450a"},"id":5}