{"abi":[{"type":"function","name":"MAX_RANDOM","inputs":[],"outputs":[{"name":"","type":"uint256","internalType":"uint256"}],"stateMutability":"view"},{"type":"function","name":"buyerWithdraw","inputs":[],"outputs":[],"stateMutability":"nonpayable"},{"type":"function","name":"changeLotteryState","inputs":[{"name":"_newState","type":"uint8","internalType":"enum SaleBase.LotteryState"}],"outputs":[],"stateMutability":"nonpayable"},{"type":"function","name":"claimNumber","inputs":[{"name":"_participant","type":"address","internalType":"address"}],"outputs":[{"name":"","type":"bool","internalType":"bool"}],"stateMutability":"nonpayable"},{"type":"function","name":"deposit","inputs":[{"name":"amount","type":"uint256","internalType":"uint256"}],"outputs":[],"stateMutability":"nonpayable"},{"type":"function","name":"deposits","inputs":[{"name":"","type":"address","internalType":"address"}],"outputs":[{"name":"","type":"uint256","internalType":"uint256"}],"stateMutability":"view"},{"type":"function","name":"endLottery","inputs":[],"outputs":[],"stateMutability":"nonpayable"},{"type":"function","name":"fulfillRandomness","inputs":[{"name":"randomness","type":"uint256","internalType":"uint256"},{"name":"dataWithRound","type":"bytes","internalType":"bytes"}],"outputs":[],"stateMutability":"nonpayable"},{"type":"function","name":"getDepositedAmount","inputs":[{"name":"participant","type":"address","internalType":"address"}],"outputs":[{"name":"","type":"uint256","internalType":"uint256"}],"stateMutability":"view"},{"type":"function","name":"getParticipants","inputs":[],"outputs":[{"name":"","type":"address[]","internalType":"address[]"}],"stateMutability":"view"},{"type":"function","name":"getWinners","inputs":[],"outputs":[{"name":"","type":"address[]","internalType":"address[]"}],"stateMutability":"view"},{"type":"function","name":"hasMinted","inputs":[{"name":"","type":"address","internalType":"address"}],"outputs":[{"name":"","type":"bool","internalType":"bool"}],"stateMutability":"view"},{"type":"function","name":"initialize","inputs":[{"name":"config","type":"tuple","internalType":"struct StructsLibrary.ILotteryV2BaseConfig","components":[{"name":"_gelatoVrfOperator","type":"address","internalType":"address"},{"name":"_blessedOperator","type":"address","internalType":"address"},{"name":"_owner","type":"address","internalType":"address"},{"name":"_ticketAmount","type":"uint256","internalType":"uint256"},{"name":"_ticketPrice","type":"uint256","internalType":"uint256"},{"name":"_rollPrice","type":"uint256","internalType":"uint256"},{"name":"_rollTolerance","type":"uint256","internalType":"uint256"},{"name":"_usdcContractAddr","type":"address","internalType":"address"},{"name":"_nftContractAddr","type":"address","internalType":"address"},{"name":"_multisigWalletAddress","type":"address","internalType":"address"},{"name":"_prevPhaseContractAddr","type":"address","internalType":"address"}]}],"outputs":[],"stateMutability":"nonpayable"},{"type":"function","name":"isClaimable","inputs":[{"name":"_participant","type":"address","internalType":"address"}],"outputs":[{"name":"","type":"bool","internalType":"bool"}],"stateMutability":"view"},{"type":"function","name":"isTrustedForwarder","inputs":[{"name":"forwarder","type":"address","internalType":"address"}],"outputs":[{"name":"","type":"bool","internalType":"bool"}],"stateMutability":"view"},{"type":"function","name":"isWinner","inputs":[{"name":"_participant","type":"address","internalType":"address"}],"outputs":[{"name":"","type":"bool","internalType":"bool"}],"stateMutability":"view"},{"type":"function","name":"lotteryState","inputs":[],"outputs":[{"name":"","type":"uint8","internalType":"enum SaleBase.LotteryState"}],"stateMutability":"view"},{"type":"function","name":"lotteryV1Addr","inputs":[],"outputs":[{"name":"","type":"address","internalType":"address"}],"stateMutability":"view"},{"type":"function","name":"mintMyNFT","inputs":[],"outputs":[],"stateMutability":"nonpayable"},{"type":"function","name":"multisigWalletAddress","inputs":[],"outputs":[{"name":"","type":"address","internalType":"address"}],"stateMutability":"view"},{"type":"function","name":"nftContractAddr","inputs":[],"outputs":[{"name":"","type":"address","internalType":"address"}],"stateMutability":"view"},{"type":"function","name":"numberOfTickets","inputs":[],"outputs":[{"name":"","type":"uint256","internalType":"uint256"}],"stateMutability":"view"},{"type":"function","name":"operatorAddr","inputs":[],"outputs":[{"name":"","type":"address","internalType":"address"}],"stateMutability":"view"},{"type":"function","name":"owner","inputs":[],"outputs":[{"name":"","type":"address","internalType":"address"}],"stateMutability":"view"},{"type":"function","name":"randomNumber","inputs":[],"outputs":[{"name":"","type":"uint256","internalType":"uint256"}],"stateMutability":"view"},{"type":"function","name":"renounceOwnership","inputs":[],"outputs":[],"stateMutability":"nonpayable"},{"type":"function","name":"requestPending","inputs":[{"name":"","type":"uint256","internalType":"uint256"}],"outputs":[{"name":"","type":"bool","internalType":"bool"}],"stateMutability":"view"},{"type":"function","name":"requestRandomness","inputs":[],"outputs":[],"stateMutability":"nonpayable"},{"type":"function","name":"requestedHash","inputs":[{"name":"","type":"uint256","internalType":"uint256"}],"outputs":[{"name":"","type":"bytes32","internalType":"bytes32"}],"stateMutability":"view"},{"type":"function","name":"roll","inputs":[],"outputs":[],"stateMutability":"nonpayable"},{"type":"function","name":"rollPrice","inputs":[],"outputs":[{"name":"","type":"uint256","internalType":"uint256"}],"stateMutability":"view"},{"type":"function","name":"rollTolerance","inputs":[],"outputs":[{"name":"","type":"uint256","internalType":"uint256"}],"stateMutability":"view"},{"type":"function","name":"rolledNumbers","inputs":[{"name":"","type":"address","internalType":"address"}],"outputs":[{"name":"number","type":"uint256","internalType":"uint256"},{"name":"isRolling","type":"bool","internalType":"bool"}],"stateMutability":"view"},{"type":"function","name":"seller","inputs":[],"outputs":[{"name":"","type":"address","internalType":"address"}],"stateMutability":"view"},{"type":"function","name":"sellerWithdraw","inputs":[],"outputs":[],"stateMutability":"nonpayable"},{"type":"function","name":"setSeller","inputs":[{"name":"_seller","type":"address","internalType":"address"}],"outputs":[],"stateMutability":"nonpayable"},{"type":"function","name":"startLottery","inputs":[],"outputs":[],"stateMutability":"nonpayable"},{"type":"function","name":"ticketPrice","inputs":[],"outputs":[{"name":"","type":"uint256","internalType":"uint256"}],"stateMutability":"view"},{"type":"function","name":"transferDeposit","inputs":[{"name":"_participant","type":"address","internalType":"address"},{"name":"_amount","type":"uint256","internalType":"uint256"}],"outputs":[],"stateMutability":"nonpayable"},{"type":"function","name":"transferNonWinnerDeposits","inputs":[{"name":"auctionV1addr","type":"address","internalType":"address"}],"outputs":[],"stateMutability":"nonpayable"},{"type":"function","name":"transferOwnership","inputs":[{"name":"newOwner","type":"address","internalType":"address"}],"outputs":[],"stateMutability":"nonpayable"},{"type":"function","name":"usdcContractAddr","inputs":[],"outputs":[{"name":"","type":"address","internalType":"address"}],"stateMutability":"view"},{"type":"function","name":"winnerAddresses","inputs":[{"name":"","type":"uint256","internalType":"uint256"}],"outputs":[{"name":"","type":"address","internalType":"address"}],"stateMutability":"view"},{"type":"function","name":"winners","inputs":[{"name":"","type":"address","internalType":"address"}],"outputs":[{"name":"","type":"bool","internalType":"bool"}],"stateMutability":"view"},{"type":"event","name":"BuyerDeposited","inputs":[{"name":"buyer","type":"address","indexed":true,"internalType":"address"},{"name":"amount","type":"uint256","indexed":true,"internalType":"uint256"}],"anonymous":false},{"type":"event","name":"BuyerWithdrew","inputs":[{"name":"buyer","type":"address","indexed":true,"internalType":"address"},{"name":"amount","type":"uint256","indexed":true,"internalType":"uint256"}],"anonymous":false},{"type":"event","name":"DepositsReturned","inputs":[{"name":"returnedDepositsCount","type":"uint256","indexed":false,"internalType":"uint256"}],"anonymous":false},{"type":"event","name":"Initialized","inputs":[{"name":"version","type":"uint64","indexed":false,"internalType":"uint64"}],"anonymous":false},{"type":"event","name":"LotteryEnded","inputs":[],"anonymous":false},{"type":"event","name":"LotteryStarted","inputs":[],"anonymous":false},{"type":"event","name":"OwnershipTransferred","inputs":[{"name":"previousOwner","type":"address","indexed":true,"internalType":"address"},{"name":"newOwner","type":"address","indexed":true,"internalType":"address"}],"anonymous":false},{"type":"event","name":"RandomFulfilled","inputs":[{"name":"requester","type":"address","indexed":true,"internalType":"address"},{"name":"number","type":"uint256","indexed":false,"internalType":"uint256"}],"anonymous":false},{"type":"event","name":"RandomRequested","inputs":[{"name":"requester","type":"address","indexed":true,"internalType":"address"}],"anonymous":false},{"type":"event","name":"RequestedRandomness","inputs":[{"name":"round","type":"uint256","indexed":false,"internalType":"uint256"},{"name":"data","type":"bytes","indexed":false,"internalType":"bytes"}],"anonymous":false},{"type":"event","name":"WinnerSelected","inputs":[{"name":"winner","type":"address","indexed":true,"internalType":"address"}],"anonymous":false},{"type":"error","name":"InvalidInitialization","inputs":[]},{"type":"error","name":"NotInitializing","inputs":[]},{"type":"error","name":"OwnableInvalidOwner","inputs":[{"name":"owner","type":"address","internalType":"address"}]},{"type":"error","name":"OwnableUnauthorizedAccount","inputs":[{"name":"account","type":"address","internalType":"address"}]}],"bytecode":{"object":"0x60a060405234801561001057600080fd5b5073d8253782c45a12053594b9deb72d8e8ab2fca54c338061004c57604051631e4fbdf760e01b81526000600482015260240160405180910390fd5b6100558161006f565b506001600160a01b031660805261006a6100bf565b610171565b600080546001600160a01b038381166001600160a01b0319831681178455604051919092169283917f8be0079c531659141344cd1fd0a4f28419497f9722a3daafe3b4186f6b6457e09190a35050565b7ff0c57e16840df040f15088dc2f81fe391c3923bec73e23a9662efc9c229c6a00805468010000000000000000900460ff161561010f5760405163f92ee8a960e01b815260040160405180910390fd5b80546001600160401b039081161461016e5780546001600160401b0319166001600160401b0390811782556040519081527fc7f505b2f371ae2175ee4913f4499e1f2633a7b5936321eed1cdaeb6115181d29060200160405180910390a15b50565b608051612dba61019360003960008181610392015261264a0152612dba6000f3fe608060405234801561001057600080fd5b50600436106102745760003560e01c80637b15452d11610151578063cd5e3c5d116100c3578063e9081ec711610087578063e9081ec7146105a5578063e99d2866146105ce578063f2fde38b146105e1578063f3f18c37146105f4578063f8413b0714610607578063fc7e286d1461060f57600080fd5b8063cd5e3c5d14610566578063ce1121f21461056e578063cf3af3a114610581578063df15c37e1461058a578063e63c46091461059257600080fd5b8063a61fb2ba11610115578063a61fb2ba146104fb578063b3f6b99a1461050e578063b6b55f2514610521578063bf1dda1514610534578063c4f8f27b1461053d578063ccbac9f51461055d57600080fd5b80637b15452d146104645780637cc947d0146104a35780638da5cb5b146104ab57806399dbf4b5146104bc5780639d9ca28d146104cf57600080fd5b806345745c10116101ea57806366af746b116101ae57806366af746b146103ea578063683e93e1146103f25780636939864b146104055780636bd5450a14610426578063715018a61461044957806375ce7fff1461045157600080fd5b806345745c101461036657806350f3dbec1461036f578063572b6c05146103825780635aa68ac0146103c25780635f86e4fe146103d757600080fd5b8063160344e21161023c578063160344e2146102ea57806326170480146102f2578063292fec04146102fa5780632c23ec8e1461031d57806338e21cce146103305780633dc204e71461035357600080fd5b8063045f9c971461027957806308551a53146102a95780630a9fa5c7146102bc5780631209b1f6146102d75780631593a8c7146102e0575b600080fd5b61028c610287366004612713565b61062f565b6040516001600160a01b0390911681526020015b60405180910390f35b60025461028c906001600160a01b031681565b6102c9655af3107a400081565b6040519081526020016102a0565b6102c960045481565b6102e8610659565b005b6102e86106d9565b6102e86107b4565b61030d61030836600461274c565b6109c3565b60405190151581526020016102a0565b600a5461028c906001600160a01b031681565b61030d61033e36600461274c565b60056020526000908152604090205460ff1681565b61030d61036136600461274c565b610aa3565b6102c960035481565b6102e861037d366004612770565b610b76565b61030d61039036600461274c565b7f00000000000000000000000000000000000000000000000000000000000000006001600160a01b0390811691161490565b6103ca610cc8565b6040516102a0919061279c565b60105461028c906001600160a01b031681565b6102e8610d2a565b6102e86104003660046127e9565b610f61565b60005461041990600160a01b900460ff1681565b6040516102a09190612820565b61030d61043436600461274c565b60076020526000908152604090205460ff1681565b6102e8610fc8565b61030d61045f366004612713565b610fdc565b61048e61047236600461274c565b6011602052600090815260409020805460019091015460ff1682565b604080519283529015156020830152016102a0565b6102e8611010565b6000546001600160a01b031661028c565b600b5461028c906001600160a01b031681565b61030d6104dd36600461274c565b6001600160a01b031660009081526007602052604090205460ff1690565b60015461028c906001600160a01b031681565b6102e861051c366004612848565b611254565b6102e861052f366004612713565b61142e565b6102c960135481565b6102c961054b366004612713565b600d6020526000908152604090205481565b6102c9600f5481565b6102e861190f565b6102e861057c366004612935565b611b27565b6102c960125481565b6103ca611cf2565b6102e86105a036600461274c565b611d52565b6102c96105b336600461274c565b6001600160a01b031660009081526006602052604090205490565b6102e86105dc36600461274c565b611f6e565b6102e86105ef36600461274c565b611fca565b600e5461028c906001600160a01b031681565b6102e8612005565b6102c961061d36600461274c565b60066020526000908152604090205481565b6008818154811061063f57600080fd5b6000918252602090912001546001600160a01b0316905081565b6002546001600160a01b031661066d61208a565b6001600160a01b03161461069c5760405162461bcd60e51b8152600401610693906129f3565b60405180910390fd5b6106a66002610f61565b6106ae612099565b6040517f9c89a6ed7228533196a3f962acc80d61a9c53bdea6b910741bf754f5aaa7569e90600090a1565b6002546001600160a01b03166106ed61208a565b6001600160a01b0316146107135760405162461bcd60e51b8152600401610693906129f3565b60008054600160a01b900460ff1660028111156107325761073261280a565b1461077f5760405162461bcd60e51b815260206004820152601760248201527f53616c6520697320696e206163746976652073746174650000000000000000006044820152606401610693565b6107896001610f61565b6040517fd029c7c68d943f92286a7825fa6aa2deefa1eee46cee6c91b7e483fd06d27baf90600090a1565b600560006107c061208a565b6001600160a01b0316815260208101919091526040016000205460ff161561081f5760405162461bcd60e51b815260206004820152601260248201527113919508185b1c9958591e481b5a5b9d195960721b6044820152606401610693565b61082a6104dd61208a565b61086f5760405162461bcd60e51b815260206004820152601660248201527521b0b63632b91034b9903737ba1030903bb4b73732b960511b6044820152606401610693565b61087761208a565b601054604051639d9ca28d60e01b81526001600160a01b03838116600483015290911690639d9ca28d90602401602060405180830381865afa1580156108c1573d6000803e3d6000fd5b505050506040513d601f19601f820116820180604052508101906108e59190612a35565b156109025760405162461bcd60e51b815260040161069390612a57565b60016005600061091061208a565b6001600160a01b0316815260208101919091526040016000908120805460ff191692151592909217909155600380549161094983612ab5565b9091555050600a546001600160a01b0316636b8f60f661096761208a565b6040516001600160e01b031960e084901b1681526001600160a01b039091166004820152602401600060405180830381600087803b1580156109a857600080fd5b505af11580156109bc573d6000803e3d6000fd5b5050505050565b6000806064601354655af3107a40006109dc9190612acc565b6109e69190612aff565b9050600081600f5410156109fb576000610a09565b81600f54610a099190612b13565b90506000655af3107a400083600f54610a229190612b26565b1115610a3457655af3107a4000610a42565b82600f54610a429190612b26565b6001600160a01b038616600090815260116020526040812054919250838210801590610a6e5750828211155b6004546001600160a01b03891660009081526006602052604090205491925011801590610a985750805b979650505050505050565b6000610aae826109c3565b8015610ad357506001600160a01b03821660009081526007602052604090205460ff16155b15610b69576001600160a01b038216600081815260076020526040808220805460ff1916600190811790915560088054918201815583527ff3f7a9fe364faab93b216da50a3214154f22a0a2b415b23a84c8169e8b636ee30180546001600160a01b03191684179055517f1d4c260f1824cd028e6c9e6e31c3a0b94f2513e7a641113ec759d382f9bdd5a19190a2506001919050565b506000919050565b919050565b610b7e61208a565b6010546001600160a01b03908116911614610beb5760405162461bcd60e51b815260206004820152602760248201527f4f6e6c792077686974656c6973746564206d61792063616c6c207468697320666044820152663ab731ba34b7b760c91b6064820152608401610693565b6001600160a01b0382166000908152600660205260408120549003610c975760098054600181019091557f6e1540171b6c0c960b71a7020d9f60077f6af931a8bbf590da0223dacf75c7af0180546001600160a01b0319166001600160a01b0384169081179091556000908152601160205260408120549003610c9757604080516001600160a01b0384166020820152610c9591015b6040516020818303038152906040526123b5565b505b6001600160a01b03821660009081526006602052604081208054839290610cbf908490612b26565b90915550505050565b60606009805480602002602001604051908101604052809291908181526020018280548015610d2057602002820191906000526020600020905b81546001600160a01b03168152600190910190602001808311610d02575b5050505050905090565b6002546001600160a01b0316610d3e61208a565b6001600160a01b031614610d645760405162461bcd60e51b8152600401610693906129f3565b6002600054600160a01b900460ff166002811115610d8457610d8461280a565b14610dc55760405162461bcd60e51b8152602060048201526011602482015270131bdd1d195c9e481b9bdd08195b991959607a1b6044820152606401610693565b6000805b600854811015610e3e57600060088281548110610de857610de8612b39565b60009182526020808320909101546001600160a01b03168083526006909152604090912054909150610e1a9084612b26565b6001600160a01b039091166000908152600660205260408120559150600101610dc9565b5060006064610e4e836005612acc565b610e589190612aff565b90506000610e668284612b13565b600b5460015460405163a9059cbb60e01b81526001600160a01b03918216600482015260248101869052929350169063a9059cbb906044016020604051808303816000875af1158015610ebd573d6000803e3d6000fd5b505050506040513d601f19601f82011682018060405250810190610ee19190612a35565b50600b5460025460405163a9059cbb60e01b81526001600160a01b0391821660048201526024810184905291169063a9059cbb906044016020604051808303816000875af1158015610f37573d6000803e3d6000fd5b505050506040513d601f19601f82011682018060405250810190610f5b9190612a35565b50505050565b6002546001600160a01b0316610f7561208a565b6001600160a01b031614610f9b5760405162461bcd60e51b8152600401610693906129f3565b6000805482919060ff60a01b1916600160a01b836002811115610fc057610fc061280a565b021790555050565b610fd06124b8565b610fda6000612516565b565b600c8181548110610fec57600080fd5b9060005260206000209060209182820401919006915054906101000a900460ff1681565b6002600054600160a01b900460ff1660028111156110305761103061280a565b146110755760405162461bcd60e51b815260206004820152601560248201527414d85b19481a5cc81b9bdd08195b991959081e595d605a1b6044820152606401610693565b6007600061108161208a565b6001600160a01b0316815260208101919091526040016000205460ff16156110eb5760405162461bcd60e51b815260206004820152601760248201527f57696e6e6572732063616e6e6f742077697468647261770000000000000000006044820152606401610693565b6000600660006110f961208a565b6001600160a01b03166001600160a01b03168152602001908152602001600020549050600081116111635760405162461bcd60e51b81526020600482015260146024820152734e6f2066756e647320746f20776974686472617760601b6044820152606401610693565b60006006600061117161208a565b6001600160a01b039081168252602082019290925260400160002091909155600b541663a9059cbb6111a161208a565b6040516001600160e01b031960e084901b1681526001600160a01b039091166004820152602481018490526044016020604051808303816000875af11580156111ee573d6000803e3d6000fd5b505050506040513d601f19601f820116820180604052508101906112129190612a35565b508061121c61208a565b6001600160a01b03167f1f280cd00e67ed50213ac03febd5be151f96b7f7db2f85312aa0feff99f8bdab60405160405180910390a350565b600e546001600160a01b0316331461129e5760405162461bcd60e51b815260206004820152600d60248201526c37b7363c9037b832b930ba37b960991b6044820152606401610693565b60006112ac82840184612b77565b915050600080828060200190518101906112c69190612c25565b91509150600085856040516112dc929190612ca8565b604051809103902090506000600d60008581526020019081526020016000205482149050600c848154811061131357611313612b39565b90600052602060002090602091828204019190069054906101000a900460ff1661137f5760405162461bcd60e51b815260206004820152601c60248201527f726571756573742066756c66696c6c6564206f72206d697373696e67000000006044820152606401610693565b80156114245760408051602081018a905230918101919091524660608201526080810185905260a0016040516020818303038152906040528051906020012060001c97506113ce888585612566565b6000600c85815481106113e3576113e3612b39565b90600052602060002090602091828204019190066101000a81548160ff021916908315150217905550600d6000858152602001908152602001600020600090555b5050505050505050565b6001600054600160a01b900460ff16600281111561144e5761144e61280a565b146114905760405162461bcd60e51b815260206004820152601260248201527153616c65206973206e6f742061637469766560701b6044820152606401610693565b61149861208a565b601054604051639d9ca28d60e01b81526001600160a01b03838116600483015290911690639d9ca28d90602401602060405180830381865afa1580156114e2573d6000803e3d6000fd5b505050506040513d601f19601f820116820180604052508101906115069190612a35565b156115235760405162461bcd60e51b815260040161069390612a57565b60035460085411156115475760405162461bcd60e51b815260040161069390612cb8565b600b546001600160a01b031661159f5760405162461bcd60e51b815260206004820152601d60248201527f5553444320636f6e74726163742061646472657373206e6f74207365740000006044820152606401610693565b6012548210156115e95760405162461bcd60e51b8152602060048201526015602482015274139bdd08195b9bdd59da08199d5b991cc81cd95b9d605a1b6044820152606401610693565b600b5482906001600160a01b031663dd62ed3e61160461208a565b6040516001600160e01b031960e084901b1681526001600160a01b039091166004820152306024820152604401602060405180830381865afa15801561164e573d6000803e3d6000fd5b505050506040513d601f19601f820116820180604052508101906116729190612d00565b10156116b95760405162461bcd60e51b8152602060048201526016602482015275496e73756666696369656e7420616c6c6f77616e636560501b6044820152606401610693565b600b546001600160a01b03166323b872dd6116d261208a565b6040516001600160e01b031960e084901b1681526001600160a01b039091166004820152306024820152604481018590526064016020604051808303816000875af1158015611725573d6000803e3d6000fd5b505050506040513d601f19601f820116820180604052508101906117499190612a35565b506006600061175661208a565b6001600160a01b03166001600160a01b031681526020019081526020016000205460000361188b57600961178861208a565b81546001810183556000928352602083200180546001600160a01b0319166001600160a01b03929092169190911790556011906117c361208a565b6001600160a01b03166001600160a01b031681526020019081526020016000206000015460000361188b576001601160006117fc61208a565b6001600160a01b031681526020810191909152604001600020600101805460ff191691151591909117905561184c61183261208a565b604080516001600160a01b03909216602083015201610c81565b5061185561208a565b6001600160a01b03167fd802e7c7f1646e3318c03abed1e468bdf913f45331a68dc912a0d645eb646a4260405160405180910390a25b816006600061189861208a565b6001600160a01b03166001600160a01b0316815260200190815260200160002060008282546118c79190612b26565b909155508290506118d661208a565b6001600160a01b03167f21040858e63c11c046482f61f290bbe25972fc74b11b4570a01f9241082d21f160405160405180910390a35050565b6001600054600160a01b900460ff16600281111561192f5761192f61280a565b146119715760405162461bcd60e51b815260206004820152601260248201527153616c65206973206e6f742061637469766560701b6044820152606401610693565b60035460085411156119955760405162461bcd60e51b815260040161069390612cb8565b6000601254116119db5760405162461bcd60e51b8152602060048201526011602482015270139bc81c9bdb1b081c1c9a58d9481cd95d607a1b6044820152606401610693565b6004546012546119eb9190612b26565b600660006119f761208a565b6001600160a01b03166001600160a01b03168152602001908152602001600020541015611a5b5760405162461bcd60e51b8152602060048201526012602482015271496e73756666696369656e742066756e647360701b6044820152606401610693565b600160116000611a6961208a565b6001600160a01b03166001600160a01b0316815260200190815260200160002060010160006101000a81548160ff02191690831515021790555060125460066000611ab261208a565b6001600160a01b03166001600160a01b031681526020019081526020016000206000828254611ae19190612b13565b90915550506012546002546001600160a01b031660009081526006602052604081208054909190611b13908490612b26565b90915550611b24905061183261208a565b50565b7ff0c57e16840df040f15088dc2f81fe391c3923bec73e23a9662efc9c229c6a008054600160401b810460ff16159067ffffffffffffffff16600081158015611b6d5750825b905060008267ffffffffffffffff166001148015611b8a5750303b155b905081158015611b98575080155b15611bb65760405163f92ee8a960e01b815260040160405180910390fd5b845467ffffffffffffffff191660011785558315611be057845460ff60401b1916600160401b1785555b6020860151600280546001600160a01b039283166001600160a01b0319918216179091558751600e80549190931691161790556040860151611c2190612516565b6060860151600355608086015160045560a086015160125560c086015160135560e0860151600b80546001600160a01b039283166001600160a01b031991821617909155610100880151600a805491841691831691909117905561012088015160018054918416918316919091179055610140880151601080549190931691161790558315611cea57845460ff60401b19168555604051600181527fc7f505b2f371ae2175ee4913f4499e1f2633a7b5936321eed1cdaeb6115181d29060200160405180910390a15b505050505050565b60606008805480602002602001604051908101604052809291908181526020018280548015610d20576020028201919060005260206000209081546001600160a01b03168152600190910190602001808311610d02575050505050905090565b6002546001600160a01b0316611d6661208a565b6001600160a01b031614611d8c5760405162461bcd60e51b8152600401610693906129f3565b60005b600954811015611f6a57611dd760098281548110611daf57611daf612b39565b60009182526020808320909101546001600160a01b0316825260079052604090205460ff1690565b611f625760006006600060098481548110611df457611df4612b39565b60009182526020808320909101546001600160a01b031683528201929092526040018120546009805491935060069183919086908110611e3657611e36612b39565b6000918252602080832091909101546001600160a01b039081168452908301939093526040918201902092909255600b54915163a9059cbb60e01b815285821660048201526024810184905291169063a9059cbb906044016020604051808303816000875af1158015611ead573d6000803e3d6000fd5b505050506040513d601f19601f82011682018060405250810190611ed19190612a35565b50826001600160a01b03166350f3dbec60098481548110611ef457611ef4612b39565b60009182526020909120015460405160e083901b6001600160e01b03191681526001600160a01b03909116600482015260248101849052604401600060405180830381600087803b158015611f4857600080fd5b505af1158015611f5c573d6000803e3d6000fd5b50505050505b600101611d8f565b5050565b6002546001600160a01b0316611f8261208a565b6001600160a01b031614611fa85760405162461bcd60e51b8152600401610693906129f3565b600280546001600160a01b0319166001600160a01b0392909216919091179055565b611fd26124b8565b6001600160a01b038116611ffc57604051631e4fbdf760e01b815260006004820152602401610693565b611b2481612516565b6002546001600160a01b031661201961208a565b6001600160a01b03161461203f5760405162461bcd60e51b8152600401610693906129f3565b61204a61183261208a565b5061205361208a565b6001600160a01b03167fd802e7c7f1646e3318c03abed1e468bdf913f45331a68dc912a0d645eb646a4260405160405180910390a2565b6000612094612646565b905090565b6002546001600160a01b03166120ad61208a565b6001600160a01b0316146120d35760405162461bcd60e51b8152600401610693906129f3565b6002600054600160a01b900460ff1660028111156120f3576120f361280a565b146121385760405162461bcd60e51b815260206004820152601560248201527414d85b19481a5cc81b9bdd08195b991959081e595d605a1b6044820152606401610693565b60095460008167ffffffffffffffff811115612156576121566128c4565b60405190808252806020026020018201604052801561217f578160200160208202803683370190505b50905060005b828110156121f057600981815481106121a0576121a0612b39565b9060005260206000200160009054906101000a90046001600160a01b03168282815181106121d0576121d0612b39565b6001600160a01b0390921660209283029190910190910152600101612185565b5060005b8281101561237157600082828151811061221057612210612b39565b6020908102919091018101516001600160a01b0381166000908152600683526040808220805490839055600790945290205490925060ff16156122ee5760045481106122e9576000600454826122669190612b13565b905080156122e757600b5460405163a9059cbb60e01b81526001600160a01b038581166004830152602482018490529091169063a9059cbb906044016020604051808303816000875af11580156122c1573d6000803e3d6000fd5b505050506040513d601f19601f820116820180604052508101906122e59190612a35565b505b505b612367565b600b5460405163a9059cbb60e01b81526001600160a01b038481166004830152602482018490529091169063a9059cbb906044016020604051808303816000875af1158015612341573d6000803e3d6000fd5b505050506040513d601f19601f820116820180604052508101906123659190612a35565b505b50506001016121f4565b5061237e600960006126e1565b6040518281527f01f8aef848121bbf182106b55119c1094063c572b6c8dcb09040e1203a17abf99060200160405180910390a15050565b600c80546001808201808455600084905291929091839081106123da576123da612b39565b90600052602060002090602091828204019190066101000a81548160ff02191690831515021790555060008183604051602001612418929190612d19565b6040516020818303038152906040529050600061243361268a565b90506000818360405160200161244a929190612d19565b60408051601f1981840301815282825280516020808301919091206000898152600d9092529290208290559250907fd91fc3685b930310b008ec37d2334870cab88a023ed8cc628a2e2ccd4e55d202906124a79085908790612d19565b60405180910390a150505050919050565b6124c061208a565b6001600160a01b03166124db6000546001600160a01b031690565b6001600160a01b031614610fda576124f161208a565b60405163118cdaa760e01b81526001600160a01b039091166004820152602401610693565b600080546001600160a01b038381166001600160a01b0319831681178455604051919092169283917f8be0079c531659141344cd1fd0a4f28419497f9722a3daafe3b4186f6b6457e09190a35050565b60008180602001905181019061257c9190612d53565b90506000612590655af3107a400086612d70565b6002549091506001600160a01b03908116908316036125b357600f8190556125fc565b6001600160a01b03821660009081526011602052604090208190556125d782610aa3565b506001600160a01b0382166000908152601160205260409020600101805460ff191690555b816001600160a01b03167f85e7483164122a78ca40e7f10b414e6f78c7d47abdae87716e0fb3491290c6ec8260405161263791815260200190565b60405180910390a25050505050565b60007f00000000000000000000000000000000000000000000000000000000000000006001600160a01b03163303612685575060131936013560601c90565b503390565b60008061269b6364e6212742612b13565b905060006126aa600383612aff565b6126b5906001612b26565b9050466001146126cf576126ca816001612b26565b6126da565b6126da816004612b26565b9250505090565b5080546000825590600052602060002090810190611b2491905b8082111561270f57600081556001016126fb565b5090565b60006020828403121561272557600080fd5b5035919050565b6001600160a01b0381168114611b2457600080fd5b8035610b718161272c565b60006020828403121561275e57600080fd5b81356127698161272c565b9392505050565b6000806040838503121561278357600080fd5b823561278e8161272c565b946020939093013593505050565b6020808252825182820181905260009190848201906040850190845b818110156127dd5783516001600160a01b0316835292840192918401916001016127b8565b50909695505050505050565b6000602082840312156127fb57600080fd5b81356003811061276957600080fd5b634e487b7160e01b600052602160045260246000fd5b602081016003831061284257634e487b7160e01b600052602160045260246000fd5b91905290565b60008060006040848603121561285d57600080fd5b83359250602084013567ffffffffffffffff8082111561287c57600080fd5b818601915086601f83011261289057600080fd5b81358181111561289f57600080fd5b8760208285010111156128b157600080fd5b6020830194508093505050509250925092565b634e487b7160e01b600052604160045260246000fd5b604051610160810167ffffffffffffffff811182821017156128fe576128fe6128c4565b60405290565b604051601f8201601f1916810167ffffffffffffffff8111828210171561292d5761292d6128c4565b604052919050565b6000610160828403121561294857600080fd5b6129506128da565b61295983612741565b815261296760208401612741565b602082015261297860408401612741565b6040820152606083013560608201526080830135608082015260a083013560a082015260c083013560c08201526129b160e08401612741565b60e08201526101006129c4818501612741565b908201526101206129d6848201612741565b908201526101406129e8848201612741565b908201529392505050565b60208082526022908201527f4f6e6c792073656c6c65722063616e2063616c6c20746869732066756e63746960408201526137b760f11b606082015260800190565b600060208284031215612a4757600080fd5b8151801515811461276957600080fd5b60208082526028908201527f5061727469636970616e742068617320616c726561647920776f6e20696e204c6040820152676f7474657279563160c01b606082015260800190565b634e487b7160e01b600052601160045260246000fd5b600081612ac457612ac4612a9f565b506000190190565b8082028115828204841417612ae357612ae3612a9f565b92915050565b634e487b7160e01b600052601260045260246000fd5b600082612b0e57612b0e612ae9565b500490565b81810381811115612ae357612ae3612a9f565b80820180821115612ae357612ae3612a9f565b634e487b7160e01b600052603260045260246000fd5b600067ffffffffffffffff821115612b6957612b696128c4565b50601f01601f191660200190565b60008060408385031215612b8a57600080fd5b82359150602083013567ffffffffffffffff811115612ba857600080fd5b8301601f81018513612bb957600080fd5b8035612bcc612bc782612b4f565b612904565b818152866020838501011115612be157600080fd5b816020840160208301376000602083830101528093505050509250929050565b60005b83811015612c1c578181015183820152602001612c04565b50506000910152565b60008060408385031215612c3857600080fd5b82519150602083015167ffffffffffffffff811115612c5657600080fd5b8301601f81018513612c6757600080fd5b8051612c75612bc782612b4f565b818152866020838501011115612c8a57600080fd5b612c9b826020830160208601612c01565b8093505050509250929050565b8183823760009101908152919050565b60208082526028908201527f416c6c207469636b65747320616c726561647920616c6c6f636174656420746f6040820152672077696e6e65727360c01b606082015260800190565b600060208284031215612d1257600080fd5b5051919050565b8281526040602082015260008251806040840152612d3e816060850160208701612c01565b601f01601f1916919091016060019392505050565b600060208284031215612d6557600080fd5b81516127698161272c565b600082612d7f57612d7f612ae9565b50069056fea2646970667358221220e51ae4fb2b9bf2f1a5e74622ecc80900e79b93bf5a6e0eb2a4278a602db43c1764736f6c63430008190033","linkReferences":{}},"methodIdentifiers":{"MAX_RANDOM()":"0a9fa5c7","buyerWithdraw()":"7cc947d0","changeLotteryState(uint8)":"683e93e1","claimNumber(address)":"3dc204e7","deposit(uint256)":"b6b55f25","deposits(address)":"fc7e286d","endLottery()":"1593a8c7","fulfillRandomness(uint256,bytes)":"b3f6b99a","getDepositedAmount(address)":"e9081ec7","getParticipants()":"5aa68ac0","getWinners()":"df15c37e","hasMinted(address)":"38e21cce","initialize((address,address,address,uint256,uint256,uint256,uint256,address,address,address,address))":"ce1121f2","isClaimable(address)":"292fec04","isTrustedForwarder(address)":"572b6c05","isWinner(address)":"9d9ca28d","lotteryState()":"6939864b","lotteryV1Addr()":"5f86e4fe","mintMyNFT()":"26170480","multisigWalletAddress()":"a61fb2ba","nftContractAddr()":"2c23ec8e","numberOfTickets()":"45745c10","operatorAddr()":"f3f18c37","owner()":"8da5cb5b","randomNumber()":"ccbac9f5","renounceOwnership()":"715018a6","requestPending(uint256)":"75ce7fff","requestRandomness()":"f8413b07","requestedHash(uint256)":"c4f8f27b","roll()":"cd5e3c5d","rollPrice()":"cf3af3a1","rollTolerance()":"bf1dda15","rolledNumbers(address)":"7b15452d","seller()":"08551a53","sellerWithdraw()":"66af746b","setSeller(address)":"e99d2866","startLottery()":"160344e2","ticketPrice()":"1209b1f6","transferDeposit(address,uint256)":"50f3dbec","transferNonWinnerDeposits(address)":"e63c4609","transferOwnership(address)":"f2fde38b","usdcContractAddr()":"99dbf4b5","winnerAddresses(uint256)":"045f9c97","winners(address)":"6bd5450a"},"id":6}