{
  "abi": [
    {
      "type": "function",
      "name": "buyerWithdraw",
      "inputs": [],
      "outputs": [],
      "stateMutability": "nonpayable"
    },
    {
      "type": "function",
      "name": "changeLotteryState",
      "inputs": [
        {
          "name": "_newState",
          "type": "uint8",
          "internalType": "enum LotteryV2Base.LotteryState"
        }
      ],
      "outputs": [],
      "stateMutability": "nonpayable"
    },
    {
      "type": "function",
      "name": "claimNumber",
      "inputs": [
        {
          "name": "_participant",
          "type": "address",
          "internalType": "address"
        }
      ],
      "outputs": [],
      "stateMutability": "nonpayable"
    },
    {
      "type": "function",
      "name": "deposit",
      "inputs": [
        {
          "name": "amount",
          "type": "uint256",
          "internalType": "uint256"
        }
      ],
      "outputs": [],
      "stateMutability": "nonpayable"
    },
    {
      "type": "function",
      "name": "deposits",
      "inputs": [
        {
          "name": "",
          "type": "address",
          "internalType": "address"
        }
      ],
      "outputs": [
        {
          "name": "",
          "type": "uint256",
          "internalType": "uint256"
        }
      ],
      "stateMutability": "view"
    },
    {
      "type": "function",
      "name": "endLottery",
      "inputs": [],
      "outputs": [],
      "stateMutability": "nonpayable"
    },
    {
      "type": "function",
      "name": "finishAt",
      "inputs": [],
      "outputs": [
        {
          "name": "",
          "type": "uint256",
          "internalType": "uint256"
        }
      ],
      "stateMutability": "view"
    },
    {
      "type": "function",
      "name": "fulfillRandomness",
      "inputs": [
        {
          "name": "randomness",
          "type": "uint256",
          "internalType": "uint256"
        },
        {
          "name": "dataWithRound",
          "type": "bytes",
          "internalType": "bytes"
        }
      ],
      "outputs": [],
      "stateMutability": "nonpayable"
    },
    {
      "type": "function",
      "name": "getDepositedAmount",
      "inputs": [
        {
          "name": "participant",
          "type": "address",
          "internalType": "address"
        }
      ],
      "outputs": [
        {
          "name": "",
          "type": "uint256",
          "internalType": "uint256"
        }
      ],
      "stateMutability": "view"
    },
    {
      "type": "function",
      "name": "getParticipants",
      "inputs": [],
      "outputs": [
        {
          "name": "",
          "type": "address[]",
          "internalType": "address[]"
        }
      ],
      "stateMutability": "view"
    },
    {
      "type": "function",
      "name": "getRandomNumber",
      "inputs": [],
      "outputs": [
        {
          "name": "",
          "type": "uint256",
          "internalType": "uint256"
        }
      ],
      "stateMutability": "view"
    },
    {
      "type": "function",
      "name": "getWinners",
      "inputs": [],
      "outputs": [
        {
          "name": "",
          "type": "address[]",
          "internalType": "address[]"
        }
      ],
      "stateMutability": "view"
    },
    {
      "type": "function",
      "name": "hasMinted",
      "inputs": [
        {
          "name": "",
          "type": "address",
          "internalType": "address"
        }
      ],
      "outputs": [
        {
          "name": "",
          "type": "bool",
          "internalType": "bool"
        }
      ],
      "stateMutability": "view"
    },
    {
      "type": "function",
      "name": "initialize",
      "inputs": [
        {
          "name": "config",
          "type": "tuple",
          "internalType": "struct StructsLibrary.ILotteryBaseConfig",
          "components": [
            {
              "name": "_seller",
              "type": "address",
              "internalType": "address"
            },
            {
              "name": "_operator",
              "type": "address",
              "internalType": "address"
            },
            {
              "name": "_owner",
              "type": "address",
              "internalType": "address"
            },
            {
              "name": "_ticketAmount",
              "type": "uint256",
              "internalType": "uint256"
            },
            {
              "name": "_ticketPrice",
              "type": "uint256",
              "internalType": "uint256"
            },
            {
              "name": "_finishAt",
              "type": "uint256",
              "internalType": "uint256"
            },
            {
              "name": "_usdcContractAddr",
              "type": "address",
              "internalType": "address"
            },
            {
              "name": "_multisigWalletAddress",
              "type": "address",
              "internalType": "address"
            }
          ]
        }
      ],
      "outputs": [],
      "stateMutability": "nonpayable"
    },
    {
      "type": "function",
      "name": "initialized",
      "inputs": [],
      "outputs": [
        {
          "name": "",
          "type": "bool",
          "internalType": "bool"
        }
      ],
      "stateMutability": "view"
    },
    {
      "type": "function",
      "name": "isClaimable",
      "inputs": [
        {
          "name": "_participant",
          "type": "address",
          "internalType": "address"
        }
      ],
      "outputs": [
        {
          "name": "",
          "type": "bool",
          "internalType": "bool"
        }
      ],
      "stateMutability": "view"
    },
    {
      "type": "function",
      "name": "isTrustedForwarder",
      "inputs": [
        {
          "name": "forwarder",
          "type": "address",
          "internalType": "address"
        }
      ],
      "outputs": [
        {
          "name": "",
          "type": "bool",
          "internalType": "bool"
        }
      ],
      "stateMutability": "view"
    },
    {
      "type": "function",
      "name": "isWinner",
      "inputs": [
        {
          "name": "_participant",
          "type": "address",
          "internalType": "address"
        }
      ],
      "outputs": [
        {
          "name": "",
          "type": "bool",
          "internalType": "bool"
        }
      ],
      "stateMutability": "view"
    },
    {
      "type": "function",
      "name": "lotteryState",
      "inputs": [],
      "outputs": [
        {
          "name": "",
          "type": "uint8",
          "internalType": "enum LotteryV2Base.LotteryState"
        }
      ],
      "stateMutability": "view"
    },
    {
      "type": "function",
      "name": "lotteryV1Addr",
      "inputs": [],
      "outputs": [
        {
          "name": "",
          "type": "address",
          "internalType": "address"
        }
      ],
      "stateMutability": "view"
    },
    {
      "type": "function",
      "name": "maxMints",
      "inputs": [],
      "outputs": [
        {
          "name": "",
          "type": "uint256",
          "internalType": "uint256"
        }
      ],
      "stateMutability": "view"
    },
    {
      "type": "function",
      "name": "minimumDepositAmount",
      "inputs": [],
      "outputs": [
        {
          "name": "",
          "type": "uint256",
          "internalType": "uint256"
        }
      ],
      "stateMutability": "view"
    },
    {
      "type": "function",
      "name": "mintCount",
      "inputs": [],
      "outputs": [
        {
          "name": "",
          "type": "uint256",
          "internalType": "uint256"
        }
      ],
      "stateMutability": "view"
    },
    {
      "type": "function",
      "name": "mintMyNFT",
      "inputs": [],
      "outputs": [],
      "stateMutability": "nonpayable"
    },
    {
      "type": "function",
      "name": "multisigWalletAddress",
      "inputs": [],
      "outputs": [
        {
          "name": "",
          "type": "address",
          "internalType": "address"
        }
      ],
      "stateMutability": "view"
    },
    {
      "type": "function",
      "name": "nftContractAddr",
      "inputs": [],
      "outputs": [
        {
          "name": "",
          "type": "address",
          "internalType": "address"
        }
      ],
      "stateMutability": "view"
    },
    {
      "type": "function",
      "name": "numberOfTickets",
      "inputs": [],
      "outputs": [
        {
          "name": "",
          "type": "uint256",
          "internalType": "uint256"
        }
      ],
      "stateMutability": "view"
    },
    {
      "type": "function",
      "name": "operatorAddr",
      "inputs": [],
      "outputs": [
        {
          "name": "",
          "type": "address",
          "internalType": "address"
        }
      ],
      "stateMutability": "view"
    },
    {
      "type": "function",
      "name": "owner",
      "inputs": [],
      "outputs": [
        {
          "name": "",
          "type": "address",
          "internalType": "address"
        }
      ],
      "stateMutability": "view"
    },
    {
      "type": "function",
      "name": "randomNumber",
      "inputs": [],
      "outputs": [
        {
          "name": "",
          "type": "uint256",
          "internalType": "uint256"
        }
      ],
      "stateMutability": "view"
    },
    {
      "type": "function",
      "name": "renounceOwnership",
      "inputs": [],
      "outputs": [],
      "stateMutability": "nonpayable"
    },
    {
      "type": "function",
      "name": "requestPending",
      "inputs": [
        {
          "name": "",
          "type": "uint256",
          "internalType": "uint256"
        }
      ],
      "outputs": [
        {
          "name": "",
          "type": "bool",
          "internalType": "bool"
        }
      ],
      "stateMutability": "view"
    },
    {
      "type": "function",
      "name": "requestRandomness",
      "inputs": [],
      "outputs": [],
      "stateMutability": "nonpayable"
    },
    {
      "type": "function",
      "name": "requestedHash",
      "inputs": [
        {
          "name": "",
          "type": "uint256",
          "internalType": "uint256"
        }
      ],
      "outputs": [
        {
          "name": "",
          "type": "bytes32",
          "internalType": "bytes32"
        }
      ],
      "stateMutability": "view"
    },
    {
      "type": "function",
      "name": "roll",
      "inputs": [],
      "outputs": [],
      "stateMutability": "nonpayable"
    },
    {
      "type": "function",
      "name": "rollPrice",
      "inputs": [],
      "outputs": [
        {
          "name": "",
          "type": "uint256",
          "internalType": "uint256"
        }
      ],
      "stateMutability": "view"
    },
    {
      "type": "function",
      "name": "rollTolerance",
      "inputs": [],
      "outputs": [
        {
          "name": "",
          "type": "uint256",
          "internalType": "uint256"
        }
      ],
      "stateMutability": "view"
    },
    {
      "type": "function",
      "name": "rolledNumbers",
      "inputs": [
        {
          "name": "",
          "type": "address",
          "internalType": "address"
        }
      ],
      "outputs": [
        {
          "name": "",
          "type": "uint256",
          "internalType": "uint256"
        }
      ],
      "stateMutability": "view"
    },
    {
      "type": "function",
      "name": "seller",
      "inputs": [],
      "outputs": [
        {
          "name": "",
          "type": "address",
          "internalType": "address"
        }
      ],
      "stateMutability": "view"
    },
    {
      "type": "function",
      "name": "sellerWithdraw",
      "inputs": [],
      "outputs": [],
      "stateMutability": "nonpayable"
    },
    {
      "type": "function",
      "name": "setFinishAt",
      "inputs": [
        {
          "name": "_finishAt",
          "type": "uint256",
          "internalType": "uint256"
        }
      ],
      "outputs": [],
      "stateMutability": "nonpayable"
    },
    {
      "type": "function",
      "name": "setLotteryV1Addr",
      "inputs": [
        {
          "name": "_lotteryV1Addr",
          "type": "address",
          "internalType": "address"
        }
      ],
      "outputs": [],
      "stateMutability": "nonpayable"
    },
    {
      "type": "function",
      "name": "setMinimumDepositAmount",
      "inputs": [
        {
          "name": "_amount",
          "type": "uint256",
          "internalType": "uint256"
        }
      ],
      "outputs": [],
      "stateMutability": "nonpayable"
    },
    {
      "type": "function",
      "name": "setMultisigWalletAddress",
      "inputs": [
        {
          "name": "_multisigWalletAddress",
          "type": "address",
          "internalType": "address"
        }
      ],
      "outputs": [],
      "stateMutability": "nonpayable"
    },
    {
      "type": "function",
      "name": "setNftContractAddr",
      "inputs": [
        {
          "name": "_nftContractAddr",
          "type": "address",
          "internalType": "address"
        }
      ],
      "outputs": [],
      "stateMutability": "nonpayable"
    },
    {
      "type": "function",
      "name": "setNumberOfTickets",
      "inputs": [
        {
          "name": "_numberOfTickets",
          "type": "uint256",
          "internalType": "uint256"
        }
      ],
      "outputs": [],
      "stateMutability": "nonpayable"
    },
    {
      "type": "function",
      "name": "setRandomNumber",
      "inputs": [],
      "outputs": [],
      "stateMutability": "nonpayable"
    },
    {
      "type": "function",
      "name": "setRollPrice",
      "inputs": [
        {
          "name": "_rollPrice",
          "type": "uint256",
          "internalType": "uint256"
        }
      ],
      "outputs": [],
      "stateMutability": "nonpayable"
    },
    {
      "type": "function",
      "name": "setRollTolerance",
      "inputs": [
        {
          "name": "_tolerance",
          "type": "uint256",
          "internalType": "uint256"
        }
      ],
      "outputs": [],
      "stateMutability": "nonpayable"
    },
    {
      "type": "function",
      "name": "setUsdcContractAddr",
      "inputs": [
        {
          "name": "_usdcContractAddr",
          "type": "address",
          "internalType": "address"
        }
      ],
      "outputs": [],
      "stateMutability": "nonpayable"
    },
    {
      "type": "function",
      "name": "setWinner",
      "inputs": [
        {
          "name": "_winner",
          "type": "address",
          "internalType": "address"
        }
      ],
      "outputs": [],
      "stateMutability": "nonpayable"
    },
    {
      "type": "function",
      "name": "startLottery",
      "inputs": [],
      "outputs": [],
      "stateMutability": "nonpayable"
    },
    {
      "type": "function",
      "name": "transferDeposit",
      "inputs": [
        {
          "name": "_participant",
          "type": "address",
          "internalType": "address"
        },
        {
          "name": "_amount",
          "type": "uint256",
          "internalType": "uint256"
        }
      ],
      "outputs": [],
      "stateMutability": "nonpayable"
    },
    {
      "type": "function",
      "name": "transferNonWinnerDeposits",
      "inputs": [
        {
          "name": "auctionV1addr",
          "type": "address",
          "internalType": "address"
        }
      ],
      "outputs": [],
      "stateMutability": "nonpayable"
    },
    {
      "type": "function",
      "name": "transferOwnership",
      "inputs": [
        {
          "name": "newOwner",
          "type": "address",
          "internalType": "address"
        }
      ],
      "outputs": [],
      "stateMutability": "nonpayable"
    },
    {
      "type": "function",
      "name": "usdcContractAddr",
      "inputs": [],
      "outputs": [
        {
          "name": "",
          "type": "address",
          "internalType": "address"
        }
      ],
      "stateMutability": "view"
    },
    {
      "type": "function",
      "name": "winnerAddresses",
      "inputs": [
        {
          "name": "",
          "type": "uint256",
          "internalType": "uint256"
        }
      ],
      "outputs": [
        {
          "name": "",
          "type": "address",
          "internalType": "address"
        }
      ],
      "stateMutability": "view"
    },
    {
      "type": "function",
      "name": "winners",
      "inputs": [
        {
          "name": "",
          "type": "address",
          "internalType": "address"
        }
      ],
      "outputs": [
        {
          "name": "",
          "type": "bool",
          "internalType": "bool"
        }
      ],
      "stateMutability": "view"
    },
    {
      "type": "event",
      "name": "LotteryEnded",
      "inputs": [],
      "anonymous": false
    },
    {
      "type": "event",
      "name": "LotteryStarted",
      "inputs": [],
      "anonymous": false
    },
    {
      "type": "event",
      "name": "OwnershipTransferred",
      "inputs": [
        {
          "name": "previousOwner",
          "type": "address",
          "indexed": true,
          "internalType": "address"
        },
        {
          "name": "newOwner",
          "type": "address",
          "indexed": true,
          "internalType": "address"
        }
      ],
      "anonymous": false
    },
    {
      "type": "event",
      "name": "RandomFullfiled",
      "inputs": [
        {
          "name": "requester",
          "type": "address",
          "indexed": true,
          "internalType": "address"
        },
        {
          "name": "number",
          "type": "uint256",
          "indexed": false,
          "internalType": "uint256"
        }
      ],
      "anonymous": false
    },
    {
      "type": "event",
      "name": "RandomRequested",
      "inputs": [
        {
          "name": "requester",
          "type": "address",
          "indexed": true,
          "internalType": "address"
        }
      ],
      "anonymous": false
    },
    {
      "type": "event",
      "name": "RequestedRandomness",
      "inputs": [
        {
          "name": "round",
          "type": "uint256",
          "indexed": false,
          "internalType": "uint256"
        },
        {
          "name": "data",
          "type": "bytes",
          "indexed": false,
          "internalType": "bytes"
        }
      ],
      "anonymous": false
    },
    {
      "type": "event",
      "name": "WinnerSelected",
      "inputs": [
        {
          "name": "winner",
          "type": "address",
          "indexed": true,
          "internalType": "address"
        }
      ],
      "anonymous": false
    },
    {
      "type": "error",
      "name": "OwnableInvalidOwner",
      "inputs": [
        {
          "name": "owner",
          "type": "address",
          "internalType": "address"
        }
      ]
    },
    {
      "type": "error",
      "name": "OwnableUnauthorizedAccount",
      "inputs": [
        {
          "name": "account",
          "type": "address",
          "internalType": "address"
        }
      ]
    }
  ],
  "bytecode": {
    "object": "0x60a06040526002805460ff60a01b19169055600060165534801561002257600080fd5b5073d8253782c45a12053594b9deb72d8e8ab2fca54c338061005e57604051631e4fbdf760e01b81526000600482015260240160405180910390fd5b61006781610079565b506001600160a01b03166080526100cb565b600280546001600160a01b038381166001600160a01b0319831681179093556040519116919082907f8be0079c531659141344cd1fd0a4f28419497f9722a3daafe3b4186f6b6457e090600090a35050565b608051612bde6100ed600039600081816104ff01526125780152612bde6000f3fe608060405234801561001057600080fd5b506004361061038e5760003560e01c80637cc947d0116101de578063bf1dda151161010f578063df15c37e116100ad578063f3f18c371161007c578063f3f18c37146107b9578063f7098e58146107cc578063f8413b07146107df578063fc7e286d146107e757600080fd5b8063df15c37e14610762578063e63c46091461076a578063e9081ec71461077d578063f2fde38b146107a657600080fd5b8063cd5e3c5d116100e9578063cd5e3c5d14610736578063cf3af3a11461073e578063d9fca76914610747578063dbdff2c11461075a57600080fd5b8063bf1dda1514610704578063c4f8f27b1461070d578063ccbac9f51461072d57600080fd5b80639d9ca28d1161017c578063aab483d611610156578063aab483d6146106c2578063b3f6b99a146106d5578063b6b55f25146106e8578063b6b6f0c3146106fb57600080fd5b80639d9ca28d14610670578063a61fb2ba1461069c578063a8641aea146106af57600080fd5b80639659867e116101b85780639659867e1461063957806397fedfcb1461064257806399bd69d61461064a57806399dbf4b51461065d57600080fd5b80637cc947d01461060d5780638da5cb5b1461061557806394d898de1461062657600080fd5b806345745c10116102c357806366af746b116102615780636bd5450a116102305780636bd5450a146105af578063715018a6146105d257806375ce7fff146105da5780637b15452d146105ed57600080fd5b806366af746b1461056a57806367d3b48814610572578063683e93e11461057b5780636939864b1461058e57600080fd5b8063572b6c051161029d578063572b6c05146104ef5780635aa68ac01461052f5780635f86e4fe1461054457806360d50da31461055757600080fd5b806345745c10146104c057806350f3dbec146104c95780635687156e146104dc57600080fd5b8063160344e2116103305780632c23ec8e1161030a5780632c23ec8e146104645780633644c27c1461047757806338e21cce1461048a5780633dc204e7146104ad57600080fd5b8063160344e2146104415780632617048014610449578063292fec041461045157600080fd5b80630bea66371161036c5780630bea6637146103ed57806312f0800b14610402578063158ef93e146104155780631593a8c71461043957600080fd5b8063045f9c9714610393578063080c279a146103c357806308551a53146103da575b600080fd5b6103a66103a136600461260f565b610807565b6040516001600160a01b0390911681526020015b60405180910390f35b6103cc60065481565b6040519081526020016103ba565b6004546103a6906001600160a01b031681565b6104006103fb36600461260f565b610831565b005b61040061041036600461260f565b610879565b60025461042990600160a01b900460ff1681565b60405190151581526020016103ba565b6104006108b8565b6104006108fe565b6104006109af565b61042961045f36600461264d565b610be4565b6010546103a6906001600160a01b031681565b61040061048536600461264d565b610c7f565b61042961049836600461264d565b600b6020526000908152604090205460ff1681565b6104006104bb36600461264d565b610ca9565b6103cc60075481565b6104006104d7366004612671565b610d8e565b6104006104ea36600461260f565b610eed565b6104296104fd36600461264d565b7f00000000000000000000000000000000000000000000000000000000000000006001600160a01b0390811691161490565b610537610f2c565b6040516103ba919061269d565b6012546103a6906001600160a01b031681565b61040061056536600461264d565b610f8e565b610400610fb8565b6103cc60135481565b6104006105893660046126ea565b6111f2565b6002546105a290600160a81b900460ff1681565b6040516103ba9190612721565b6104296105bd36600461264d565b600d6020526000908152604090205460ff1681565b610400611258565b6104296105e836600461260f565b61126a565b6103cc6105fb36600461264d565b60146020526000908152604090205481565b61040061129e565b6002546001600160a01b03166103a6565b61040061063436600461264d565b6114a8565b6103cc60095481565b6104006114d2565b61040061065836600461260f565b611569565b6011546103a6906001600160a01b031681565b61042961067e36600461264d565b6001600160a01b03166000908152600d602052604090205460ff1690565b6003546103a6906001600160a01b031681565b6104006106bd366004612790565b611616565b6104006106d036600461260f565b61170c565b6104006106e3366004612845565b61174b565b6104006106f636600461260f565b61191f565b6103cc60085481565b6103cc60165481565b6103cc61071b36600461260f565b60016020526000908152604090205481565b6103cc600a5481565b610400611d2d565b6103cc60155481565b61040061075536600461264d565b611ec5565b6103cc611f65565b610537611fbc565b61040061077836600461264d565b61201c565b6103cc61078b36600461264d565b6001600160a01b03166000908152600c602052604090205490565b6104006107b436600461264d565b612234565b6005546103a6906001600160a01b031681565b6104006107da36600461264d565b61226f565b6104006122cb565b6103cc6107f536600461264d565b600c6020526000908152604090205481565b600e818154811061081757600080fd5b6000918252602090912001546001600160a01b0316905081565b6004546001600160a01b0316610845612316565b6001600160a01b0316146108745760405162461bcd60e51b815260040161086b906128c1565b60405180910390fd5b601355565b6004546001600160a01b031661088d612316565b6001600160a01b0316146108b35760405162461bcd60e51b815260040161086b906128c1565b601655565b6004546001600160a01b03166108cc612316565b6001600160a01b0316146108f25760405162461bcd60e51b815260040161086b906128c1565b6108fc60026111f2565b565b6004546001600160a01b0316610912612316565b6001600160a01b0316146109385760405162461bcd60e51b815260040161086b906128c1565b600060028054600160a81b900460ff16908111156109585761095861270b565b146109a55760405162461bcd60e51b815260206004820152601a60248201527f4c6f747465727920697320696e20616374697665207374617465000000000000604482015260640161086b565b6108fc60016111f2565b600b60006109bb612316565b6001600160a01b0316815260208101919091526040016000205460ff1615610a1a5760405162461bcd60e51b815260206004820152601260248201527113919508185b1c9958591e481b5a5b9d195960721b604482015260640161086b565b6002808054600160a81b900460ff1690811115610a3957610a3961270b565b14610a865760405162461bcd60e51b815260206004820152601860248201527f4c6f7474657279206973206e6f7420656e646564207965740000000000000000604482015260640161086b565b610a9161067e612316565b610ad65760405162461bcd60e51b815260206004820152601660248201527521b0b63632b91034b9903737ba1030903bb4b73732b960511b604482015260640161086b565b60085460095410610b295760405162461bcd60e51b815260206004820152601760248201527f4e6f206d6f7265206d696e747320617661696c61626c65000000000000000000604482015260640161086b565b6001600b6000610b37612316565b6001600160a01b0390811682526020820192909252604001600020805460ff19169215159290921790915560105416636b8f60f6610b73612316565b6040516001600160e01b031960e084901b1681526001600160a01b039091166004820152602401600060405180830381600087803b158015610bb457600080fd5b505af1158015610bc8573d6000803e3d6000fd5b505060098054925090506000610bdd83612919565b9190505550565b6006546001600160a01b0382166000908152600c6020526040812054909111801590610c3757506001600160a01b038216600090815260146020526040902054601654600a54610c349190612932565b10155b8015610c6a57506001600160a01b038216600090815260146020526040902054601654600a54610c67919061294b565b11155b15610c7757506001919050565b506000919050565b610c87612325565b601080546001600160a01b0319166001600160a01b0392909216919091179055565b610cb281610be4565b15610d43576001600160a01b0381166000818152600d6020526040808220805460ff19166001908117909155600e8054918201815583527fbb7b4a454dc3493923482f07822329ed19e8244eff582cc204f8554c3620c3fd0180546001600160a01b03191684179055517f1d4c260f1824cd028e6c9e6e31c3a0b94f2513e7a641113ec759d382f9bdd5a19190a250565b60405162461bcd60e51b815260206004820152601c60248201527f5061727469636970616e74206973206e6f7420636c61696d61626c6500000000604482015260640161086b565b50565b610d96612316565b6012546001600160a01b03908116911614610e035760405162461bcd60e51b815260206004820152602760248201527f4f6e6c792077686974656c6973746564206d61792063616c6c207468697320666044820152663ab731ba34b7b760c91b606482015260840161086b565b6001600160a01b0382166000908152600c60205260408120549003610e6e57600f80546001810182556000919091527f8d1108e10bcb7c27dddfc02ed9d693a074039d026cf4ea4240b40f7d581ac8020180546001600160a01b0319166001600160a01b0384161790555b6001600160a01b0382166000908152600c602052604081208054839290610e96908490612932565b90915550506001600160a01b0382166000908152601460205260408120549003610ee957604080516001600160a01b0384166020820152610ee791015b604051602081830303815290604052612383565b505b5050565b6004546001600160a01b0316610f01612316565b6001600160a01b031614610f275760405162461bcd60e51b815260040161086b906128c1565b601555565b6060600f805480602002602001604051908101604052809291908181526020018280548015610f8457602002820191906000526020600020905b81546001600160a01b03168152600190910190602001808311610f66575b5050505050905090565b610f96612325565b600380546001600160a01b0319166001600160a01b0392909216919091179055565b6004546001600160a01b0316610fcc612316565b6001600160a01b031614610ff25760405162461bcd60e51b815260040161086b906128c1565b6002808054600160a81b900460ff16908111156110115761101161270b565b146110525760405162461bcd60e51b8152602060048201526011602482015270131bdd1d195c9e481b9bdd08195b991959607a1b604482015260640161086b565b6000805b600e548110156110cb576000600e82815481106110755761107561295e565b60009182526020808320909101546001600160a01b0316808352600c9091526040909120549091506110a79084612932565b6001600160a01b039091166000908152600c60205260408120559150600101611056565b50600060646110db836005612974565b6110e5919061298b565b905060006110f3828461294b565b60115460035460405163a9059cbb60e01b81526001600160a01b03918216600482015260248101869052929350169063a9059cbb906044016020604051808303816000875af115801561114a573d6000803e3d6000fd5b505050506040513d601f19601f8201168201806040525081019061116e91906129ad565b506011546004805460405163a9059cbb60e01b81526001600160a01b0391821692810192909252602482018490529091169063a9059cbb906044016020604051808303816000875af11580156111c8573d6000803e3d6000fd5b505050506040513d601f19601f820116820180604052508101906111ec91906129ad565b50505050565b6004546001600160a01b0316611206612316565b6001600160a01b03161461122c5760405162461bcd60e51b815260040161086b906128c1565b6002805482919060ff60a81b1916600160a81b83838111156112505761125061270b565b021790555050565b611260612325565b6108fc6000612484565b6000818154811061127a57600080fd5b9060005260206000209060209182820401919006915054906101000a900460ff1681565b600160028054600160a81b900460ff16908111156112be576112be61270b565b0361130b5760405162461bcd60e51b815260206004820152601b60248201527f4c6f74746572792069732063757272656e746c79206163746976650000000000604482015260640161086b565b600d6000611317612316565b6001600160a01b0316815260208101919091526040016000205460ff16156113815760405162461bcd60e51b815260206004820152601760248201527f57696e6e6572732063616e6e6f74207769746864726177000000000000000000604482015260640161086b565b6000600c600061138f612316565b6001600160a01b03166001600160a01b03168152602001908152602001600020549050600081116113f95760405162461bcd60e51b81526020600482015260146024820152734e6f2066756e647320746f20776974686472617760601b604482015260640161086b565b6000600c6000611407612316565b6001600160a01b0390811682526020820192909252604001600020919091556011541663a9059cbb611437612316565b6040516001600160e01b031960e084901b1681526001600160a01b039091166004820152602481018490526044016020604051808303816000875af1158015611484573d6000803e3d6000fd5b505050506040513d601f19601f82011682018060405250810190610ee991906129ad565b6114b0612325565b601180546001600160a01b0319166001600160a01b0392909216919091179055565b6004546001600160a01b03166114e6612316565b6001600160a01b03161461150c5760405162461bcd60e51b815260040161086b906128c1565b600a541561155c5760405162461bcd60e51b815260206004820152601960248201527f52616e646f6d206e756d62657220616c72656164792073657400000000000000604482015260640161086b565b611564611f65565b600a55565b6004546001600160a01b031661157d612316565b6001600160a01b0316146115a35760405162461bcd60e51b815260040161086b906128c1565b600081116116075760405162461bcd60e51b815260206004820152602b60248201527f4e756d626572206f66207469636b657473206d7573742062652067726561746560448201526a72207468616e207a65726f60a81b606482015260840161086b565b60078190556008556000600955565b600254600160a01b900460ff16156116665760405162461bcd60e51b8152602060048201526013602482015272105b1c9958591e481a5b9a5d1a585b1a5e9959606a1b604482015260640161086b565b8051600480546001600160a01b039283166001600160a01b03199182161790915560208301516005805491909316911617905560408101516116a790612484565b6060810151600755608081015160065560a081015160135560c0810151601180546001600160a01b03199081166001600160a01b039384161790915560e09092015160038054909316911617905560028054600160a01b60ff60a01b19909116179055565b6004546001600160a01b0316611720612316565b6001600160a01b0316146117465760405162461bcd60e51b815260040161086b906128c1565b600655565b6005546001600160a01b031633146117955760405162461bcd60e51b815260206004820152600d60248201526c37b7363c9037b832b930ba37b960991b604482015260640161086b565b60006117a3828401846129f7565b915050600080828060200190518101906117bd9190612aa5565b91509150600085856040516117d3929190612b28565b60408051918290039091206000858152600160205291822054825491935083149190859081106118055761180561295e565b90600052602060002090602091828204019190069054906101000a900460ff166118715760405162461bcd60e51b815260206004820152601c60248201527f726571756573742066756c66696c6c6564206f72206d697373696e6700000000604482015260640161086b565b80156119155760408051602081018a905230918101919091524660608201526080810185905260a0016040516020818303038152906040528051906020012060001c97506118c08885856124d6565b60008085815481106118d4576118d461295e565b90600052602060002090602091828204019190066101000a81548160ff02191690831515021790555060016000858152602001908152602001600020600090555b5050505050505050565b600160028054600160a81b900460ff169081111561193f5761193f61270b565b0361198c5760405162461bcd60e51b815260206004820152601b60248201527f4c6f74746572792069732063757272656e746c79206163746976650000000000604482015260640161086b565b42601354116119e75760405162461bcd60e51b815260206004820152602160248201527f4465706f7369747320617265206e6f7420706f737369626c6520616e796d6f726044820152606560f81b606482015260840161086b565b6011546001600160a01b0316611a3f5760405162461bcd60e51b815260206004820152601d60248201527f5553444320636f6e74726163742061646472657373206e6f7420736574000000604482015260640161086b565b60008111611a7f5760405162461bcd60e51b815260206004820152600d60248201526c139bc8199d5b991cc81cd95b9d609a1b604482015260640161086b565b60115481906001600160a01b031663dd62ed3e611a9a612316565b6040516001600160e01b031960e084901b1681526001600160a01b039091166004820152306024820152604401602060405180830381865afa158015611ae4573d6000803e3d6000fd5b505050506040513d601f19601f82011682018060405250810190611b089190612b38565b1015611b4f5760405162461bcd60e51b8152602060048201526016602482015275496e73756666696369656e7420616c6c6f77616e636560501b604482015260640161086b565b6011546001600160a01b03166323b872dd611b68612316565b6040516001600160e01b031960e084901b1681526001600160a01b039091166004820152306024820152604481018490526064016020604051808303816000875af1158015611bbb573d6000803e3d6000fd5b505050506040513d601f19601f82011682018060405250810190611bdf91906129ad565b50600c6000611bec612316565b6001600160a01b03166001600160a01b0316815260200190815260200160002054600003611c5157600f611c1e612316565b81546001810183556000928352602090922090910180546001600160a01b0319166001600160a01b039092169190911790555b80600c6000611c5e612316565b6001600160a01b03166001600160a01b031681526020019081526020016000206000828254611c8d9190612932565b90915550601490506000611c9f612316565b6001600160a01b03166001600160a01b0316815260200190815260200160002054600003610d8b57611cec611cd2612316565b604080516001600160a01b03909216602083015201610ed3565b50611cf5612316565b6001600160a01b03167fd802e7c7f1646e3318c03abed1e468bdf913f45331a68dc912a0d645eb646a4260405160405180910390a250565b4260135411611d7e5760405162461bcd60e51b815260206004820152601f60248201527f526f6c6c696e67206973206e6f7420706f737369626c6520616e796d6f726500604482015260640161086b565b600060155411611dc45760405162461bcd60e51b8152602060048201526011602482015270139bc81c9bdb1b081c1c9a58d9481cd95d607a1b604482015260640161086b565b600654601554611dd49190612932565b600c6000611de0612316565b6001600160a01b03166001600160a01b03168152602001908152602001600020541015611e445760405162461bcd60e51b8152602060048201526012602482015271496e73756666696369656e742066756e647360701b604482015260640161086b565b601554600c6000611e53612316565b6001600160a01b03166001600160a01b031681526020019081526020016000206000828254611e82919061294b565b90915550506015546004546001600160a01b03166000908152600c602052604081208054909190611eb4908490612932565b90915550610d8b9050611cd2612316565b6004546001600160a01b0316611ed9612316565b6001600160a01b031614611eff5760405162461bcd60e51b815260040161086b906128c1565b6001600160a01b03166000818152600d60205260408120805460ff19166001908117909155600e805491820181559091527fbb7b4a454dc3493923482f07822329ed19e8244eff582cc204f8554c3620c3fd0180546001600160a01b0319169091179055565b60004244611f71612316565b6040805160208101949094528301919091526bffffffffffffffffffffffff19606091821b16908201526074016040516020818303038152906040528051906020012060001c905090565b6060600e805480602002602001604051908101604052809291908181526020018280548015610f84576020028201919060005260206000209081546001600160a01b03168152600190910190602001808311610f66575050505050905090565b6004546001600160a01b0316612030612316565b6001600160a01b0316146120565760405162461bcd60e51b815260040161086b906128c1565b60005b600f54811015610ee9576120a1600f82815481106120795761207961295e565b60009182526020808320909101546001600160a01b03168252600d9052604090205460ff1690565b61222c576000600c6000600f84815481106120be576120be61295e565b60009182526020808320909101546001600160a01b03168352820192909252604001812054600f8054919350600c91839190869081106121005761210061295e565b6000918252602080832091909101546001600160a01b039081168452908301939093526040918201902092909255601154915163a9059cbb60e01b815285821660048201526024810184905291169063a9059cbb906044016020604051808303816000875af1158015612177573d6000803e3d6000fd5b505050506040513d601f19601f8201168201806040525081019061219b91906129ad565b50826001600160a01b03166350f3dbec600f84815481106121be576121be61295e565b60009182526020909120015460405160e083901b6001600160e01b03191681526001600160a01b03909116600482015260248101849052604401600060405180830381600087803b15801561221257600080fd5b505af1158015612226573d6000803e3d6000fd5b50505050505b600101612059565b61223c612325565b6001600160a01b03811661226657604051631e4fbdf760e01b81526000600482015260240161086b565b610d8b81612484565b6004546001600160a01b0316612283612316565b6001600160a01b0316146122a95760405162461bcd60e51b815260040161086b906128c1565b601280546001600160a01b0319166001600160a01b0392909216919091179055565b6122d6611cd2612316565b506122df612316565b6001600160a01b03167fd802e7c7f1646e3318c03abed1e468bdf913f45331a68dc912a0d645eb646a4260405160405180910390a2565b6000612320612574565b905090565b61232d612316565b6001600160a01b03166123486002546001600160a01b031690565b6001600160a01b0316146108fc5761235e612316565b60405163118cdaa760e01b81526001600160a01b03909116600482015260240161086b565b60008054600180820180845583805291929091839081106123a6576123a661295e565b90600052602060002090602091828204019190066101000a81548160ff021916908315150217905550600081836040516020016123e4929190612b51565b604051602081830303815290604052905060006123ff6125b8565b905060008183604051602001612416929190612b51565b60408051601f198184030181528282528051602080830191909120600089815260019092529290208290559250907fd91fc3685b930310b008ec37d2334870cab88a023ed8cc628a2e2ccd4e55d202906124739085908790612b51565b60405180910390a150505050919050565b600280546001600160a01b038381166001600160a01b0319831681179093556040519116919082907f8be0079c531659141344cd1fd0a4f28419497f9722a3daafe3b4186f6b6457e090600090a35050565b6000818060200190518101906124ec9190612b8b565b6004549091506001600160a01b039081169082160361250f57600a84905561252b565b6001600160a01b03811660009081526014602052604090208490555b806001600160a01b03167fdc88f22db6d7f267e15a797eb52635df440f5f8b47a89ac56fa5b212e4e97e2d8560405161256691815260200190565b60405180910390a250505050565b60007f00000000000000000000000000000000000000000000000000000000000000006001600160a01b031633036125b3575060131936013560601c90565b503390565b6000806125c96364e621274261294b565b905060006125d860038361298b565b6125e3906001612932565b9050466001146125fd576125f8816001612932565b612608565b612608816004612932565b9250505090565b60006020828403121561262157600080fd5b5035919050565b6001600160a01b0381168114610d8b57600080fd5b803561264881612628565b919050565b60006020828403121561265f57600080fd5b813561266a81612628565b9392505050565b6000806040838503121561268457600080fd5b823561268f81612628565b946020939093013593505050565b6020808252825182820181905260009190848201906040850190845b818110156126de5783516001600160a01b0316835292840192918401916001016126b9565b50909695505050505050565b6000602082840312156126fc57600080fd5b81356003811061266a57600080fd5b634e487b7160e01b600052602160045260246000fd5b602081016003831061274357634e487b7160e01b600052602160045260246000fd5b91905290565b634e487b7160e01b600052604160045260246000fd5b604051601f8201601f1916810167ffffffffffffffff8111828210171561278857612788612749565b604052919050565b60006101008083850312156127a457600080fd5b6040519081019067ffffffffffffffff821181831017156127c7576127c7612749565b81604052833591506127d882612628565b8181526127e76020850161263d565b60208201526127f86040850161263d565b6040820152606084013560608201526080840135608082015260a084013560a082015261282760c0850161263d565b60c082015261283860e0850161263d565b60e0820152949350505050565b60008060006040848603121561285a57600080fd5b83359250602084013567ffffffffffffffff8082111561287957600080fd5b818601915086601f83011261288d57600080fd5b81358181111561289c57600080fd5b8760208285010111156128ae57600080fd5b6020830194508093505050509250925092565b60208082526022908201527f4f6e6c792073656c6c65722063616e2063616c6c20746869732066756e63746960408201526137b760f11b606082015260800190565b634e487b7160e01b600052601160045260246000fd5b60006001820161292b5761292b612903565b5060010190565b8082018082111561294557612945612903565b92915050565b8181038181111561294557612945612903565b634e487b7160e01b600052603260045260246000fd5b808202811582820484141761294557612945612903565b6000826129a857634e487b7160e01b600052601260045260246000fd5b500490565b6000602082840312156129bf57600080fd5b8151801515811461266a57600080fd5b600067ffffffffffffffff8211156129e9576129e9612749565b50601f01601f191660200190565b60008060408385031215612a0a57600080fd5b82359150602083013567ffffffffffffffff811115612a2857600080fd5b8301601f81018513612a3957600080fd5b8035612a4c612a47826129cf565b61275f565b818152866020838501011115612a6157600080fd5b816020840160208301376000602083830101528093505050509250929050565b60005b83811015612a9c578181015183820152602001612a84565b50506000910152565b60008060408385031215612ab857600080fd5b82519150602083015167ffffffffffffffff811115612ad657600080fd5b8301601f81018513612ae757600080fd5b8051612af5612a47826129cf565b818152866020838501011115612b0a57600080fd5b612b1b826020830160208601612a81565b8093505050509250929050565b8183823760009101908152919050565b600060208284031215612b4a57600080fd5b5051919050565b8281526040602082015260008251806040840152612b76816060850160208701612a81565b601f01601f1916919091016060019392505050565b600060208284031215612b9d57600080fd5b815161266a8161262856fea264697066735822122046f60530e0977c566c9b5d7219185c407dedb45c5feb612f6d2a586dfa3c3b3b64736f6c63430008190033",
    "linkReferences": {}
  },
  "methodIdentifiers": {
    "buyerWithdraw()": "7cc947d0",
    "changeLotteryState(uint8)": "683e93e1",
    "claimNumber(address)": "3dc204e7",
    "deposit(uint256)": "b6b55f25",
    "deposits(address)": "fc7e286d",
    "endLottery()": "1593a8c7",
    "finishAt()": "67d3b488",
    "fulfillRandomness(uint256,bytes)": "b3f6b99a",
    "getDepositedAmount(address)": "e9081ec7",
    "getParticipants()": "5aa68ac0",
    "getRandomNumber()": "dbdff2c1",
    "getWinners()": "df15c37e",
    "hasMinted(address)": "38e21cce",
    "initialize((address,address,address,uint256,uint256,uint256,address,address))": "a8641aea",
    "initialized()": "158ef93e",
    "isClaimable(address)": "292fec04",
    "isTrustedForwarder(address)": "572b6c05",
    "isWinner(address)": "9d9ca28d",
    "lotteryState()": "6939864b",
    "lotteryV1Addr()": "5f86e4fe",
    "maxMints()": "b6b6f0c3",
    "minimumDepositAmount()": "080c279a",
    "mintCount()": "9659867e",
    "mintMyNFT()": "26170480",
    "multisigWalletAddress()": "a61fb2ba",
    "nftContractAddr()": "2c23ec8e",
    "numberOfTickets()": "45745c10",
    "operatorAddr()": "f3f18c37",
    "owner()": "8da5cb5b",
    "randomNumber()": "ccbac9f5",
    "renounceOwnership()": "715018a6",
    "requestPending(uint256)": "75ce7fff",
    "requestRandomness()": "f8413b07",
    "requestedHash(uint256)": "c4f8f27b",
    "roll()": "cd5e3c5d",
    "rollPrice()": "cf3af3a1",
    "rollTolerance()": "bf1dda15",
    "rolledNumbers(address)": "7b15452d",
    "seller()": "08551a53",
    "sellerWithdraw()": "66af746b",
    "setFinishAt(uint256)": "0bea6637",
    "setLotteryV1Addr(address)": "f7098e58",
    "setMinimumDepositAmount(uint256)": "aab483d6",
    "setMultisigWalletAddress(address)": "60d50da3",
    "setNftContractAddr(address)": "3644c27c",
    "setNumberOfTickets(uint256)": "99bd69d6",
    "setRandomNumber()": "97fedfcb",
    "setRollPrice(uint256)": "5687156e",
    "setRollTolerance(uint256)": "12f0800b",
    "setUsdcContractAddr(address)": "94d898de",
    "setWinner(address)": "d9fca769",
    "startLottery()": "160344e2",
    "transferDeposit(address,uint256)": "50f3dbec",
    "transferNonWinnerDeposits(address)": "e63c4609",
    "transferOwnership(address)": "f2fde38b",
    "usdcContractAddr()": "99dbf4b5",
    "winnerAddresses(uint256)": "045f9c97",
    "winners(address)": "6bd5450a"
  },
  "id": 5
}