{"abi":[{"type":"constructor","inputs":[{"name":"_seller","type":"address","internalType":"address"},{"name":"_operatorAddr","type":"address","internalType":"address"}],"stateMutability":"nonpayable"},{"type":"function","name":"buyerWithdraw","inputs":[],"outputs":[],"stateMutability":"nonpayable"},{"type":"function","name":"changeLotteryState","inputs":[{"name":"_newState","type":"uint8","internalType":"enum Lottery.LotteryState"}],"outputs":[],"stateMutability":"nonpayable"},{"type":"function","name":"deposit","inputs":[{"name":"amount","type":"uint256","internalType":"uint256"}],"outputs":[],"stateMutability":"payable"},{"type":"function","name":"deposits","inputs":[{"name":"","type":"address","internalType":"address"}],"outputs":[{"name":"","type":"uint256","internalType":"uint256"}],"stateMutability":"view"},{"type":"function","name":"endLottery","inputs":[],"outputs":[],"stateMutability":"nonpayable"},{"type":"function","name":"finishAt","inputs":[],"outputs":[{"name":"","type":"uint256","internalType":"uint256"}],"stateMutability":"view"},{"type":"function","name":"fulfillRandomness","inputs":[{"name":"randomness","type":"uint256","internalType":"uint256"},{"name":"dataWithRound","type":"bytes","internalType":"bytes"}],"outputs":[],"stateMutability":"nonpayable"},{"type":"function","name":"getDepositedAmount","inputs":[{"name":"participant","type":"address","internalType":"address"}],"outputs":[{"name":"","type":"uint256","internalType":"uint256"}],"stateMutability":"view"},{"type":"function","name":"getParticipants","inputs":[],"outputs":[{"name":"","type":"address[]","internalType":"address[]"}],"stateMutability":"view"},{"type":"function","name":"getRandomNumber","inputs":[],"outputs":[{"name":"","type":"uint256","internalType":"uint256"}],"stateMutability":"view"},{"type":"function","name":"getWinners","inputs":[],"outputs":[{"name":"","type":"address[]","internalType":"address[]"}],"stateMutability":"view"},{"type":"function","name":"hasMinted","inputs":[{"name":"","type":"address","internalType":"address"}],"outputs":[{"name":"","type":"bool","internalType":"bool"}],"stateMutability":"view"},{"type":"function","name":"isParticipantEligible","inputs":[{"name":"participant","type":"address","internalType":"address"}],"outputs":[{"name":"","type":"bool","internalType":"bool"}],"stateMutability":"view"},{"type":"function","name":"isTrustedForwarder","inputs":[{"name":"forwarder","type":"address","internalType":"address"}],"outputs":[{"name":"","type":"bool","internalType":"bool"}],"stateMutability":"view"},{"type":"function","name":"isWinner","inputs":[{"name":"_participant","type":"address","internalType":"address"}],"outputs":[{"name":"","type":"bool","internalType":"bool"}],"stateMutability":"view"},{"type":"function","name":"lotteryState","inputs":[],"outputs":[{"name":"","type":"uint8","internalType":"enum Lottery.LotteryState"}],"stateMutability":"view"},{"type":"function","name":"minimumDepositAmount","inputs":[],"outputs":[{"name":"","type":"uint256","internalType":"uint256"}],"stateMutability":"view"},{"type":"function","name":"mintMyNFT","inputs":[],"outputs":[],"stateMutability":"nonpayable"},{"type":"function","name":"multisigWalletAddress","inputs":[],"outputs":[{"name":"","type":"address","internalType":"address"}],"stateMutability":"view"},{"type":"function","name":"nftContractAddr","inputs":[],"outputs":[{"name":"","type":"address","internalType":"address"}],"stateMutability":"view"},{"type":"function","name":"numberOfTickets","inputs":[],"outputs":[{"name":"","type":"uint256","internalType":"uint256"}],"stateMutability":"view"},{"type":"function","name":"operatorAddr","inputs":[],"outputs":[{"name":"","type":"address","internalType":"address"}],"stateMutability":"view"},{"type":"function","name":"owner","inputs":[],"outputs":[{"name":"","type":"address","internalType":"address"}],"stateMutability":"view"},{"type":"function","name":"randomNumber","inputs":[],"outputs":[{"name":"","type":"uint256","internalType":"uint256"}],"stateMutability":"view"},{"type":"function","name":"renounceOwnership","inputs":[],"outputs":[],"stateMutability":"nonpayable"},{"type":"function","name":"requestPending","inputs":[{"name":"","type":"uint256","internalType":"uint256"}],"outputs":[{"name":"","type":"bool","internalType":"bool"}],"stateMutability":"view"},{"type":"function","name":"requestRandomness","inputs":[],"outputs":[],"stateMutability":"nonpayable"},{"type":"function","name":"requestedHash","inputs":[{"name":"","type":"uint256","internalType":"uint256"}],"outputs":[{"name":"","type":"bytes32","internalType":"bytes32"}],"stateMutability":"view"},{"type":"function","name":"selectWinners","inputs":[],"outputs":[],"stateMutability":"nonpayable"},{"type":"function","name":"seller","inputs":[],"outputs":[{"name":"","type":"address","internalType":"address"}],"stateMutability":"view"},{"type":"function","name":"sellerWithdraw","inputs":[],"outputs":[],"stateMutability":"nonpayable"},{"type":"function","name":"setFinishAt","inputs":[{"name":"_finishAt","type":"uint256","internalType":"uint256"}],"outputs":[],"stateMutability":"nonpayable"},{"type":"function","name":"setMinimumDepositAmount","inputs":[{"name":"_amount","type":"uint256","internalType":"uint256"}],"outputs":[],"stateMutability":"nonpayable"},{"type":"function","name":"setMultisigWalletAddress","inputs":[{"name":"_multisigWalletAddress","type":"address","internalType":"address"}],"outputs":[],"stateMutability":"nonpayable"},{"type":"function","name":"setNftContractAddr","inputs":[{"name":"_nftContractAddr","type":"address","internalType":"address"}],"outputs":[],"stateMutability":"nonpayable"},{"type":"function","name":"setNumberOfTickets","inputs":[{"name":"_numberOfTickets","type":"uint256","internalType":"uint256"}],"outputs":[],"stateMutability":"nonpayable"},{"type":"function","name":"setUsdcContractAddr","inputs":[{"name":"_usdcContractAddr","type":"address","internalType":"address"}],"outputs":[],"stateMutability":"nonpayable"},{"type":"function","name":"setWinner","inputs":[{"name":"_winner","type":"address","internalType":"address"}],"outputs":[],"stateMutability":"nonpayable"},{"type":"function","name":"startLottery","inputs":[],"outputs":[],"stateMutability":"nonpayable"},{"type":"function","name":"transferNonWinnerDeposits","inputs":[{"name":"lotteryV2addr","type":"address","internalType":"address"}],"outputs":[],"stateMutability":"nonpayable"},{"type":"function","name":"transferOwnership","inputs":[{"name":"newOwner","type":"address","internalType":"address"}],"outputs":[],"stateMutability":"nonpayable"},{"type":"function","name":"usdcContractAddr","inputs":[],"outputs":[{"name":"","type":"address","internalType":"address"}],"stateMutability":"view"},{"type":"function","name":"winnerAddresses","inputs":[{"name":"","type":"uint256","internalType":"uint256"}],"outputs":[{"name":"","type":"address","internalType":"address"}],"stateMutability":"view"},{"type":"function","name":"winners","inputs":[{"name":"","type":"address","internalType":"address"}],"outputs":[{"name":"","type":"bool","internalType":"bool"}],"stateMutability":"view"},{"type":"event","name":"LotteryEnded","inputs":[],"anonymous":false},{"type":"event","name":"LotteryStarted","inputs":[],"anonymous":false},{"type":"event","name":"OwnershipTransferred","inputs":[{"name":"previousOwner","type":"address","indexed":true,"internalType":"address"},{"name":"newOwner","type":"address","indexed":true,"internalType":"address"}],"anonymous":false},{"type":"event","name":"RandomFullfiled","inputs":[{"name":"number","type":"uint256","indexed":false,"internalType":"uint256"}],"anonymous":false},{"type":"event","name":"RandomRequested","inputs":[{"name":"requester","type":"address","indexed":true,"internalType":"address"}],"anonymous":false},{"type":"event","name":"RequestedRandomness","inputs":[{"name":"round","type":"uint256","indexed":false,"internalType":"uint256"},{"name":"data","type":"bytes","indexed":false,"internalType":"bytes"}],"anonymous":false},{"type":"event","name":"WinnerSelected","inputs":[{"name":"winner","type":"address","indexed":true,"internalType":"address"}],"anonymous":false},{"type":"error","name":"OwnableInvalidOwner","inputs":[{"name":"owner","type":"address","internalType":"address"}]},{"type":"error","name":"OwnableUnauthorizedAccount","inputs":[{"name":"account","type":"address","internalType":"address"}]}],"bytecode":{"object":"0x60c06040523480156200001157600080fd5b5060405162002ba938038062002ba9833981016040819052620000349162000166565b73d8253782c45a12053594b9deb72d8e8ab2fca54c62000053620000be565b6001600160a01b0381166200008257604051631e4fbdf760e01b81526000600482015260240160405180910390fd5b6200008d81620000cf565b506001600160a01b03908116608052600480546001600160a01b031916938216939093179092551660a0526200019e565b6000620000ca62000121565b905090565b600280546001600160a01b038381166001600160a01b0319831681179093556040519116919082907f8be0079c531659141344cd1fd0a4f28419497f9722a3daafe3b4186f6b6457e090600090a35050565b6080516000906001600160a01b0316330362000144575060131936013560601c90565b503390565b80516001600160a01b03811681146200016157600080fd5b919050565b600080604083850312156200017a57600080fd5b620001858362000149565b9150620001956020840162000149565b90509250929050565b60805160a0516129d7620001d2600039600081816107da0152611624015260008181610416015261245801526129d76000f3fe6080604052600436106102675760003560e01c80637cc947d011610144578063c4f8f27b116100b6578063e63c46091161007a578063e63c460914610752578063e9081ec714610772578063f2fde38b146107a8578063f3f18c37146107c8578063f8413b07146107fc578063fc7e286d1461081157600080fd5b8063c4f8f27b146106c5578063ccbac9f5146106f2578063d9fca76914610708578063dbdff2c114610728578063df15c37e1461073d57600080fd5b806399dbf4b51161010857806399dbf4b5146105f95780639d9ca28d14610619578063a61fb2ba14610652578063aab483d614610672578063b3f6b99a14610692578063b6b55f25146106b257600080fd5b80637cc947d0146105665780638a6723e61461057b5780638da5cb5b1461059b57806394d898de146105b957806399bd69d6146105d957600080fd5b806345745c10116101dd57806367d3b488116101a157806367d3b4881461049d578063683e93e1146104b35780636939864b146104d35780636bd5450a14610501578063715018a61461053157806375ce7fff1461054657600080fd5b806345745c10146103e3578063572b6c05146103f95780635aa68ac01461044657806360d50da31461046857806366af746b1461048857600080fd5b8063160344e21161022f578063160344e2146103245780631a0de74c14610339578063261704801461034e5780632c23ec8e146103635780633644c27c1461038357806338e21cce146103a357600080fd5b8063045f9c971461026c578063080c279a146102a957806308551a53146102cd5780630bea6637146102ed5780631593a8c71461030f575b600080fd5b34801561027857600080fd5b5061028c6102873660046124ef565b61083e565b6040516001600160a01b0390911681526020015b60405180910390f35b3480156102b557600080fd5b506102bf60055481565b6040519081526020016102a0565b3480156102d957600080fd5b5060045461028c906001600160a01b031681565b3480156102f957600080fd5b5061030d6103083660046124ef565b610868565b005b34801561031b57600080fd5b5061030d6108b0565b34801561033057600080fd5b5061030d6108f6565b34801561034557600080fd5b5061030d6109af565b34801561035a57600080fd5b5061030d610d3d565b34801561036f57600080fd5b50600e5461028c906001600160a01b031681565b34801561038f57600080fd5b5061030d61039e366004612508565b610f09565b3480156103af57600080fd5b506103d36103be366004612508565b60096020526000908152604090205460ff1681565b60405190151581526020016102a0565b3480156103ef57600080fd5b506102bf60065481565b34801561040557600080fd5b506103d3610414366004612508565b7f00000000000000000000000000000000000000000000000000000000000000006001600160a01b0390811691161490565b34801561045257600080fd5b5061045b610f33565b6040516102a09190612538565b34801561047457600080fd5b5061030d610483366004612508565b610f95565b34801561049457600080fd5b5061030d610fbf565b3480156104a957600080fd5b506102bf60105481565b3480156104bf57600080fd5b5061030d6104ce366004612585565b6111f3565b3480156104df57600080fd5b506002546104f490600160a01b900460ff1681565b6040516102a091906125bc565b34801561050d57600080fd5b506103d361051c366004612508565b600b6020526000908152604090205460ff1681565b34801561053d57600080fd5b5061030d61125a565b34801561055257600080fd5b506103d36105613660046124ef565b61126c565b34801561057257600080fd5b5061030d6112a0565b34801561058757600080fd5b506103d3610596366004612508565b6114ae565b3480156105a757600080fd5b506002546001600160a01b031661028c565b3480156105c557600080fd5b5061030d6105d4366004612508565b61150d565b3480156105e557600080fd5b5061030d6105f43660046124ef565b611537565b34801561060557600080fd5b50600f5461028c906001600160a01b031681565b34801561062557600080fd5b506103d3610634366004612508565b6001600160a01b03166000908152600b602052604090205460ff1690565b34801561065e57600080fd5b5060035461028c906001600160a01b031681565b34801561067e57600080fd5b5061030d61068d3660046124ef565b6115da565b34801561069e57600080fd5b5061030d6106ad3660046125e4565b611619565b61030d6106c03660046124ef565b61180b565b3480156106d157600080fd5b506102bf6106e03660046124ef565b60016020526000908152604090205481565b3480156106fe57600080fd5b506102bf60075481565b34801561071457600080fd5b5061030d610723366004612508565b611b81565b34801561073457600080fd5b506102bf611c21565b34801561074957600080fd5b5061045b611cb3565b34801561075e57600080fd5b5061030d61076d366004612508565b611d13565b34801561077e57600080fd5b506102bf61078d366004612508565b6001600160a01b03166000908152600a602052604090205490565b3480156107b457600080fd5b5061030d6107c3366004612508565b611fac565b3480156107d457600080fd5b5061028c7f000000000000000000000000000000000000000000000000000000000000000081565b34801561080857600080fd5b5061030d611fea565b34801561081d57600080fd5b506102bf61082c366004612508565b600a6020526000908152604090205481565b600c818154811061084e57600080fd5b6000918252602090912001546001600160a01b0316905081565b6004546001600160a01b031661087c612098565b6001600160a01b0316146108ab5760405162461bcd60e51b81526004016108a290612660565b60405180910390fd5b601055565b6004546001600160a01b03166108c4612098565b6001600160a01b0316146108ea5760405162461bcd60e51b81526004016108a290612660565b6108f460026111f3565b565b6004546001600160a01b031661090a612098565b6001600160a01b0316146109305760405162461bcd60e51b81526004016108a290612660565b6000600254600160a01b900460ff166004811115610950576109506125a6565b1461099d5760405162461bcd60e51b815260206004820152601a60248201527f4c6f747465727920697320696e2061637469766520737461746500000000000060448201526064016108a2565b6109a760016111f3565b6108f46120a7565b6004546001600160a01b03166109c3612098565b6001600160a01b0316146109e95760405162461bcd60e51b81526004016108a290612660565b600060065411610a3b5760405162461bcd60e51b815260206004820152601b60248201527f4e6f207469636b657473206c65667420746f20616c6c6f63617465000000000060448201526064016108a2565b60085460065410610b265760005b600854811015610aec57600060088281548110610a6857610a686126a2565b6000918252602090912001546001600160a01b03169050610aa1816001600160a01b03166000908152600b602052604090205460ff1690565b610ae357610aae81611b81565b6040516001600160a01b038216907f1d4c260f1824cd028e6c9e6e31c3a0b94f2513e7a641113ec759d382f9bdd5a190600090a25b50600101610a49565b5060005b600854811015610b2057610b0381612158565b60068054906000610b13836126ce565b9091555050600101610af0565b50610d08565b60005b600854811015610c4157600854600090610b449083906126e5565b600754610b519190612714565b610b5b9083612728565b9050600060088281548110610b7257610b726126a2565b600091825260209091200154600880546001600160a01b0390921692509084908110610ba057610ba06126a2565b600091825260209091200154600880546001600160a01b039092169184908110610bcc57610bcc6126a2565b9060005260206000200160006101000a8154816001600160a01b0302191690836001600160a01b031602179055508060088481548110610c0e57610c0e6126a2565b600091825260209091200180546001600160a01b0319166001600160a01b03929092169190911790555050600101610b29565b5060005b600654811015610d0657600060088281548110610c6457610c646126a2565b6000918252602090912001546001600160a01b03169050610c9d816001600160a01b03166000908152600b602052604090205460ff1690565b610cfd57610caa81611b81565b610cb382612158565b60068054906000610cc3836126ce565b90915550506040516001600160a01b038216907f1d4c260f1824cd028e6c9e6e31c3a0b94f2513e7a641113ec759d382f9bdd5a190600090a25b50600101610c45565b505b6006546000036108f4576040517f9c89a6ed7228533196a3f962acc80d61a9c53bdea6b910741bf754f5aaa7569e90600090a1565b60096000610d49612098565b6001600160a01b0316815260208101919091526040016000205460ff1615610da85760405162461bcd60e51b815260206004820152601260248201527113919508185b1c9958591e481b5a5b9d195960721b60448201526064016108a2565b60028054600160a01b900460ff166004811115610dc757610dc76125a6565b14610e145760405162461bcd60e51b815260206004820152601860248201527f4c6f7474657279206973206e6f7420656e64656420796574000000000000000060448201526064016108a2565b610e1f610634612098565b610e645760405162461bcd60e51b815260206004820152601660248201527521b0b63632b91034b9903737ba1030903bb4b73732b960511b60448201526064016108a2565b600160096000610e72612098565b6001600160a01b0390811682526020820192909252604001600020805460ff191692151592909217909155600e5416636b8f60f6610eae612098565b6040516001600160e01b031960e084901b1681526001600160a01b039091166004820152602401600060405180830381600087803b158015610eef57600080fd5b505af1158015610f03573d6000803e3d6000fd5b50505050565b610f11612266565b600e80546001600160a01b0319166001600160a01b0392909216919091179055565b6060600d805480602002602001604051908101604052809291908181526020018280548015610f8b57602002820191906000526020600020905b81546001600160a01b03168152600190910190602001808311610f6d575b5050505050905090565b610f9d612266565b600380546001600160a01b0319166001600160a01b0392909216919091179055565b6004546001600160a01b0316610fd3612098565b6001600160a01b031614610ff95760405162461bcd60e51b81526004016108a290612660565b60028054600160a01b900460ff166004811115611018576110186125a6565b146110595760405162461bcd60e51b8152602060048201526011602482015270131bdd1d195c9e481b9bdd08195b991959607a1b60448201526064016108a2565b6000805b600c548110156110d2576000600c828154811061107c5761107c6126a2565b60009182526020808320909101546001600160a01b0316808352600a9091526040909120549091506110ae9084612728565b6001600160a01b039091166000908152600a6020526040812055915060010161105d565b50600060646110e283600561273b565b6110ec9190612752565b905060006110fa82846126e5565b600f5460035460405163a9059cbb60e01b81526001600160a01b03918216600482015260248101869052929350169063a9059cbb906044016020604051808303816000875af1158015611151573d6000803e3d6000fd5b505050506040513d601f19601f820116820180604052508101906111759190612766565b50600f546004805460405163a9059cbb60e01b81526001600160a01b0391821692810192909252602482018490529091169063a9059cbb906044016020604051808303816000875af11580156111cf573d6000803e3d6000fd5b505050506040513d601f19601f82011682018060405250810190610f039190612766565b6004546001600160a01b0316611207612098565b6001600160a01b03161461122d5760405162461bcd60e51b81526004016108a290612660565b6002805482919060ff60a01b1916600160a01b836004811115611252576112526125a6565b021790555050565b611262612266565b6108f460006122c4565b6000818154811061127c57600080fd5b9060005260206000209060209182820401919006915054906101000a900460ff1681565b6001600254600160a01b900460ff1660048111156112c0576112c06125a6565b0361130d5760405162461bcd60e51b815260206004820152601b60248201527f4c6f74746572792069732063757272656e746c7920616374697665000000000060448201526064016108a2565b600b6000611319612098565b6001600160a01b0316815260208101919091526040016000205460ff16156113835760405162461bcd60e51b815260206004820152601760248201527f57696e6e6572732063616e6e6f7420776974686472617700000000000000000060448201526064016108a2565b6000600a6000611391612098565b6001600160a01b03166001600160a01b03168152602001908152602001600020549050600081116113fb5760405162461bcd60e51b81526020600482015260146024820152734e6f2066756e647320746f20776974686472617760601b60448201526064016108a2565b6000600a6000611409612098565b6001600160a01b039081168252602082019290925260400160002091909155600f541663a9059cbb611439612098565b6040516001600160e01b031960e084901b1681526001600160a01b039091166004820152602481018490526044016020604051808303816000875af1158015611486573d6000803e3d6000fd5b505050506040513d601f19601f820116820180604052508101906114aa9190612766565b5050565b6000805b60085481101561150457826001600160a01b0316600882815481106114d9576114d96126a2565b6000918252602090912001546001600160a01b0316036114fc5750600192915050565b6001016114b2565b50600092915050565b611515612266565b600f80546001600160a01b0319166001600160a01b0392909216919091179055565b6004546001600160a01b031661154b612098565b6001600160a01b0316146115715760405162461bcd60e51b81526004016108a290612660565b600081116115d55760405162461bcd60e51b815260206004820152602b60248201527f4e756d626572206f66207469636b657473206d7573742062652067726561746560448201526a72207468616e207a65726f60a81b60648201526084016108a2565b600655565b6004546001600160a01b03166115ee612098565b6001600160a01b0316146116145760405162461bcd60e51b81526004016108a290612660565b600555565b336001600160a01b037f000000000000000000000000000000000000000000000000000000000000000016146116815760405162461bcd60e51b815260206004820152600d60248201526c37b7363c9037b832b930ba37b960991b60448201526064016108a2565b600061168f828401846127f7565b915050600080828060200190518101906116a991906128a5565b91509150600085856040516116bf929190612928565b60408051918290039091206000858152600160205291822054825491935083149190859081106116f1576116f16126a2565b90600052602060002090602091828204019190069054906101000a900460ff1661175d5760405162461bcd60e51b815260206004820152601c60248201527f726571756573742066756c66696c6c6564206f72206d697373696e670000000060448201526064016108a2565b80156118015760408051602081018a905230918101919091524660608201526080810185905260a0016040516020818303038152906040528051906020012060001c97506117ac888585612316565b60008085815481106117c0576117c06126a2565b90600052602060002090602091828204019190066101000a81548160ff02191690831515021790555060016000858152602001908152602001600020600090555b5050505050505050565b6001600254600160a01b900460ff16600481111561182b5761182b6125a6565b036118785760405162461bcd60e51b815260206004820152601b60248201527f4c6f74746572792069732063757272656e746c7920616374697665000000000060448201526064016108a2565b42601054116118d35760405162461bcd60e51b815260206004820152602160248201527f4465706f7369747320617265206e6f7420706f737369626c6520616e796d6f726044820152606560f81b60648201526084016108a2565b600f546001600160a01b031661192b5760405162461bcd60e51b815260206004820152601d60248201527f5553444320636f6e74726163742061646472657373206e6f742073657400000060448201526064016108a2565b6000811161196b5760405162461bcd60e51b815260206004820152600d60248201526c139bc8199d5b991cc81cd95b9d609a1b60448201526064016108a2565b600f5481906001600160a01b031663dd62ed3e611986612098565b6040516001600160e01b031960e084901b1681526001600160a01b039091166004820152306024820152604401602060405180830381865afa1580156119d0573d6000803e3d6000fd5b505050506040513d601f19601f820116820180604052508101906119f49190612938565b1015611a3b5760405162461bcd60e51b8152602060048201526016602482015275496e73756666696369656e7420616c6c6f77616e636560501b60448201526064016108a2565b600f546001600160a01b03166323b872dd611a54612098565b6040516001600160e01b031960e084901b1681526001600160a01b039091166004820152306024820152604481018490526064016020604051808303816000875af1158015611aa7573d6000803e3d6000fd5b505050506040513d601f19601f82011682018060405250810190611acb9190612766565b50600a6000611ad8612098565b6001600160a01b03166001600160a01b0316815260200190815260200160002054600003611b3d57600d611b0a612098565b81546001810183556000928352602090922090910180546001600160a01b0319166001600160a01b039092169190911790555b80600a6000611b4a612098565b6001600160a01b03166001600160a01b031681526020019081526020016000206000828254611b799190612728565b909155505050565b6004546001600160a01b0316611b95612098565b6001600160a01b031614611bbb5760405162461bcd60e51b81526004016108a290612660565b6001600160a01b03166000818152600b60205260408120805460ff19166001908117909155600c805491820181559091527fdf6966c971051c3d54ec59162606531493a51404a002842f56009d7e5cf4a8c70180546001600160a01b0319169091179055565b6004546000906001600160a01b0316611c38612098565b6001600160a01b031614611c5e5760405162461bcd60e51b81526004016108a290612660565b4244611c68612098565b6040805160208101949094528301919091526bffffffffffffffffffffffff19606091821b16908201526074016040516020818303038152906040528051906020012060001c905090565b6060600c805480602002602001604051908101604052809291908181526020018280548015610f8b576020028201919060005260206000209081546001600160a01b03168152600190910190602001808311610f6d575050505050905090565b6004546001600160a01b0316611d27612098565b6001600160a01b031614611d4d5760405162461bcd60e51b81526004016108a290612660565b60005b600d548110156114aa576000600a6000600d8481548110611d7357611d736126a2565b60009182526020808320909101546001600160a01b03168352820192909252604001812054600d8054919350600a9183919086908110611db557611db56126a2565b6000918252602080832091909101546001600160a01b039081168452908301939093526040918201902092909255600f54915163a9059cbb60e01b815285821660048201526024810184905291169063a9059cbb906044016020604051808303816000875af1158015611e2c573d6000803e3d6000fd5b505050506040513d601f19601f82011682018060405250810190611e509190612766565b50826001600160a01b03166350f3dbec600d8481548110611e7357611e736126a2565b60009182526020909120015460405160e083901b6001600160e01b03191681526001600160a01b03909116600482015260248101849052604401600060405180830381600087803b158015611ec757600080fd5b505af1158015611edb573d6000803e3d6000fd5b5050600d54611eee9250600191506126e5565b821015611f7057600d8054611f05906001906126e5565b81548110611f1557611f156126a2565b600091825260209091200154600d80546001600160a01b039092169184908110611f4157611f416126a2565b9060005260206000200160006101000a8154816001600160a01b0302191690836001600160a01b031602179055505b600d805480611f8157611f81612951565b600082815260209020810160001990810180546001600160a01b031916905501905550600101611d50565b611fb4612266565b6001600160a01b038116611fde57604051631e4fbdf760e01b8152600060048201526024016108a2565b611fe7816122c4565b50565b6004546001600160a01b0316611ffe612098565b6001600160a01b0316146120245760405162461bcd60e51b81526004016108a290612660565b61205861202f612098565b604080516001600160a01b03909216602083015201604051602081830303815290604052612353565b50612061612098565b6001600160a01b03167fd802e7c7f1646e3318c03abed1e468bdf913f45331a68dc912a0d645eb646a4260405160405180910390a2565b60006120a2612454565b905090565b60005b600d54811015611fe7576000600a6000600d84815481106120cd576120cd6126a2565b60009182526020808320909101546001600160a01b03168352820192909252604001902054600554909150811061214f576008600d8381548110612113576121136126a2565b60009182526020808320909101548354600181018555938352912090910180546001600160a01b0319166001600160a01b039092169190911790555b506001016120aa565b600854811061219f5760405162461bcd60e51b8152602060048201526013602482015272496e646578206f7574206f6620626f756e647360681b60448201526064016108a2565b6008546121ae906001906126e5565b81101561223057600880546121c5906001906126e5565b815481106121d5576121d56126a2565b600091825260209091200154600880546001600160a01b039092169183908110612201576122016126a2565b9060005260206000200160006101000a8154816001600160a01b0302191690836001600160a01b031602179055505b600880548061224157612241612951565b600082815260209020810160001990810180546001600160a01b031916905501905550565b61226e612098565b6001600160a01b03166122896002546001600160a01b031690565b6001600160a01b0316146108f45761229f612098565b60405163118cdaa760e01b81526001600160a01b0390911660048201526024016108a2565b600280546001600160a01b038381166001600160a01b0319831681179093556040519116919082907f8be0079c531659141344cd1fd0a4f28419497f9722a3daafe3b4186f6b6457e090600090a35050565b60078390556040518381527fa2353d33775668d31add0688b8ed09ca3a91dc8129126fcdbcbda3a887db60db9060200160405180910390a1505050565b6000805460018082018084558380529192909183908110612376576123766126a2565b90600052602060002090602091828204019190066101000a81548160ff021916908315150217905550600081836040516020016123b4929190612967565b604051602081830303815290604052905060006123cf612498565b9050600081836040516020016123e6929190612967565b60408051601f198184030181528282528051602080830191909120600089815260019092529290208290559250907fd91fc3685b930310b008ec37d2334870cab88a023ed8cc628a2e2ccd4e55d202906124439085908790612967565b60405180910390a150505050919050565b60007f00000000000000000000000000000000000000000000000000000000000000006001600160a01b03163303612493575060131936013560601c90565b503390565b6000806124a96364e62127426126e5565b905060006124b8600383612752565b6124c3906001612728565b9050466001146124dd576124d8816001612728565b6124e8565b6124e8816004612728565b9250505090565b60006020828403121561250157600080fd5b5035919050565b60006020828403121561251a57600080fd5b81356001600160a01b038116811461253157600080fd5b9392505050565b6020808252825182820181905260009190848201906040850190845b818110156125795783516001600160a01b031683529284019291840191600101612554565b50909695505050505050565b60006020828403121561259757600080fd5b81356005811061253157600080fd5b634e487b7160e01b600052602160045260246000fd5b60208101600583106125de57634e487b7160e01b600052602160045260246000fd5b91905290565b6000806000604084860312156125f957600080fd5b83359250602084013567ffffffffffffffff8082111561261857600080fd5b818601915086601f83011261262c57600080fd5b81358181111561263b57600080fd5b87602082850101111561264d57600080fd5b6020830194508093505050509250925092565b60208082526022908201527f4f6e6c792073656c6c65722063616e2063616c6c20746869732066756e63746960408201526137b760f11b606082015260800190565b634e487b7160e01b600052603260045260246000fd5b634e487b7160e01b600052601160045260246000fd5b6000816126dd576126dd6126b8565b506000190190565b818103818111156126f8576126f86126b8565b92915050565b634e487b7160e01b600052601260045260246000fd5b600082612723576127236126fe565b500690565b808201808211156126f8576126f86126b8565b80820281158282048414176126f8576126f86126b8565b600082612761576127616126fe565b500490565b60006020828403121561277857600080fd5b8151801515811461253157600080fd5b634e487b7160e01b600052604160045260246000fd5b604051601f8201601f1916810167ffffffffffffffff811182821017156127c7576127c7612788565b604052919050565b600067ffffffffffffffff8211156127e9576127e9612788565b50601f01601f191660200190565b6000806040838503121561280a57600080fd5b82359150602083013567ffffffffffffffff81111561282857600080fd5b8301601f8101851361283957600080fd5b803561284c612847826127cf565b61279e565b81815286602083850101111561286157600080fd5b816020840160208301376000602083830101528093505050509250929050565b60005b8381101561289c578181015183820152602001612884565b50506000910152565b600080604083850312156128b857600080fd5b82519150602083015167ffffffffffffffff8111156128d657600080fd5b8301601f810185136128e757600080fd5b80516128f5612847826127cf565b81815286602083850101111561290a57600080fd5b61291b826020830160208601612881565b8093505050509250929050565b8183823760009101908152919050565b60006020828403121561294a57600080fd5b5051919050565b634e487b7160e01b600052603160045260246000fd5b828152604060208201526000825180604084015261298c816060850160208701612881565b601f01601f191691909101606001939250505056fea2646970667358221220de511d3e18e9430546b7477553ec6c96315371d4761547cd95a370d7e1c6cbe064736f6c63430008170033","linkReferences":{}},"methodIdentifiers":{"buyerWithdraw()":"7cc947d0","changeLotteryState(uint8)":"683e93e1","deposit(uint256)":"b6b55f25","deposits(address)":"fc7e286d","endLottery()":"1593a8c7","finishAt()":"67d3b488","fulfillRandomness(uint256,bytes)":"b3f6b99a","getDepositedAmount(address)":"e9081ec7","getParticipants()":"5aa68ac0","getRandomNumber()":"dbdff2c1","getWinners()":"df15c37e","hasMinted(address)":"38e21cce","isParticipantEligible(address)":"8a6723e6","isTrustedForwarder(address)":"572b6c05","isWinner(address)":"9d9ca28d","lotteryState()":"6939864b","minimumDepositAmount()":"080c279a","mintMyNFT()":"26170480","multisigWalletAddress()":"a61fb2ba","nftContractAddr()":"2c23ec8e","numberOfTickets()":"45745c10","operatorAddr()":"f3f18c37","owner()":"8da5cb5b","randomNumber()":"ccbac9f5","renounceOwnership()":"715018a6","requestPending(uint256)":"75ce7fff","requestRandomness()":"f8413b07","requestedHash(uint256)":"c4f8f27b","selectWinners()":"1a0de74c","seller()":"08551a53","sellerWithdraw()":"66af746b","setFinishAt(uint256)":"0bea6637","setMinimumDepositAmount(uint256)":"aab483d6","setMultisigWalletAddress(address)":"60d50da3","setNftContractAddr(address)":"3644c27c","setNumberOfTickets(uint256)":"99bd69d6","setUsdcContractAddr(address)":"94d898de","setWinner(address)":"d9fca769","startLottery()":"160344e2","transferNonWinnerDeposits(address)":"e63c4609","transferOwnership(address)":"f2fde38b","usdcContractAddr()":"99dbf4b5","winnerAddresses(uint256)":"045f9c97","winners(address)":"6bd5450a"},"id":40}