{"abi":[{"type":"function","name":"buyerWithdraw","inputs":[],"outputs":[],"stateMutability":"nonpayable"},{"type":"function","name":"changeLotteryState","inputs":[{"name":"_newState","type":"uint8","internalType":"enum SaleBase.LotteryState"}],"outputs":[],"stateMutability":"nonpayable"},{"type":"function","name":"deposit","inputs":[{"name":"amount","type":"uint256","internalType":"uint256"}],"outputs":[],"stateMutability":"nonpayable"},{"type":"function","name":"deposits","inputs":[{"name":"","type":"address","internalType":"address"}],"outputs":[{"name":"","type":"uint256","internalType":"uint256"}],"stateMutability":"view"},{"type":"function","name":"endLottery","inputs":[],"outputs":[],"stateMutability":"nonpayable"},{"type":"function","name":"fulfillRandomness","inputs":[{"name":"randomness","type":"uint256","internalType":"uint256"},{"name":"dataWithRound","type":"bytes","internalType":"bytes"}],"outputs":[],"stateMutability":"nonpayable"},{"type":"function","name":"getDepositedAmount","inputs":[{"name":"participant","type":"address","internalType":"address"}],"outputs":[{"name":"","type":"uint256","internalType":"uint256"}],"stateMutability":"view"},{"type":"function","name":"getParticipants","inputs":[],"outputs":[{"name":"","type":"address[]","internalType":"address[]"}],"stateMutability":"view"},{"type":"function","name":"getWinners","inputs":[],"outputs":[{"name":"","type":"address[]","internalType":"address[]"}],"stateMutability":"view"},{"type":"function","name":"hasMinted","inputs":[{"name":"","type":"address","internalType":"address"}],"outputs":[{"name":"","type":"bool","internalType":"bool"}],"stateMutability":"view"},{"type":"function","name":"initialize","inputs":[{"name":"config","type":"tuple","internalType":"struct StructsLibrary.ILotteryV1BaseConfig","components":[{"name":"_gelatoVrfOperator","type":"address","internalType":"address"},{"name":"_blessedOperator","type":"address","internalType":"address"},{"name":"_owner","type":"address","internalType":"address"},{"name":"_ticketAmount","type":"uint256","internalType":"uint256"},{"name":"_ticketPrice","type":"uint256","internalType":"uint256"},{"name":"_usdcContractAddr","type":"address","internalType":"address"},{"name":"_nftContractAddr","type":"address","internalType":"address"},{"name":"_multisigWalletAddress","type":"address","internalType":"address"},{"name":"_prevPhaseContractAddr","type":"address","internalType":"address"}]}],"outputs":[],"stateMutability":"nonpayable"},{"type":"function","name":"initialized","inputs":[],"outputs":[{"name":"","type":"bool","internalType":"bool"}],"stateMutability":"view"},{"type":"function","name":"isTrustedForwarder","inputs":[{"name":"forwarder","type":"address","internalType":"address"}],"outputs":[{"name":"","type":"bool","internalType":"bool"}],"stateMutability":"view"},{"type":"function","name":"isWinner","inputs":[{"name":"_participant","type":"address","internalType":"address"}],"outputs":[{"name":"","type":"bool","internalType":"bool"}],"stateMutability":"view"},{"type":"function","name":"lotteryState","inputs":[],"outputs":[{"name":"","type":"uint8","internalType":"enum SaleBase.LotteryState"}],"stateMutability":"view"},{"type":"function","name":"minimumDepositAmount","inputs":[],"outputs":[{"name":"","type":"uint256","internalType":"uint256"}],"stateMutability":"view"},{"type":"function","name":"mintMyNFT","inputs":[],"outputs":[],"stateMutability":"nonpayable"},{"type":"function","name":"multisigWalletAddress","inputs":[],"outputs":[{"name":"","type":"address","internalType":"address"}],"stateMutability":"view"},{"type":"function","name":"nftContractAddr","inputs":[],"outputs":[{"name":"","type":"address","internalType":"address"}],"stateMutability":"view"},{"type":"function","name":"numberOfTickets","inputs":[],"outputs":[{"name":"","type":"uint256","internalType":"uint256"}],"stateMutability":"view"},{"type":"function","name":"operatorAddr","inputs":[],"outputs":[{"name":"","type":"address","internalType":"address"}],"stateMutability":"view"},{"type":"function","name":"owner","inputs":[],"outputs":[{"name":"","type":"address","internalType":"address"}],"stateMutability":"view"},{"type":"function","name":"randomNumber","inputs":[],"outputs":[{"name":"","type":"uint256","internalType":"uint256"}],"stateMutability":"view"},{"type":"function","name":"renounceOwnership","inputs":[],"outputs":[],"stateMutability":"nonpayable"},{"type":"function","name":"requestPending","inputs":[{"name":"","type":"uint256","internalType":"uint256"}],"outputs":[{"name":"","type":"bool","internalType":"bool"}],"stateMutability":"view"},{"type":"function","name":"requestRandomness","inputs":[],"outputs":[],"stateMutability":"nonpayable"},{"type":"function","name":"requestedHash","inputs":[{"name":"","type":"uint256","internalType":"uint256"}],"outputs":[{"name":"","type":"bytes32","internalType":"bytes32"}],"stateMutability":"view"},{"type":"function","name":"selectWinners","inputs":[],"outputs":[],"stateMutability":"nonpayable"},{"type":"function","name":"seller","inputs":[],"outputs":[{"name":"","type":"address","internalType":"address"}],"stateMutability":"view"},{"type":"function","name":"sellerWithdraw","inputs":[],"outputs":[],"stateMutability":"nonpayable"},{"type":"function","name":"setSeller","inputs":[{"name":"_seller","type":"address","internalType":"address"}],"outputs":[],"stateMutability":"nonpayable"},{"type":"function","name":"startLottery","inputs":[],"outputs":[],"stateMutability":"nonpayable"},{"type":"function","name":"ticketPrice","inputs":[],"outputs":[{"name":"","type":"uint256","internalType":"uint256"}],"stateMutability":"view"},{"type":"function","name":"transferNonWinnerDeposits","inputs":[{"name":"lotteryV2addr","type":"address","internalType":"address"}],"outputs":[],"stateMutability":"nonpayable"},{"type":"function","name":"transferOwnership","inputs":[{"name":"newOwner","type":"address","internalType":"address"}],"outputs":[],"stateMutability":"nonpayable"},{"type":"function","name":"usdcContractAddr","inputs":[],"outputs":[{"name":"","type":"address","internalType":"address"}],"stateMutability":"view"},{"type":"function","name":"winnerAddresses","inputs":[{"name":"","type":"uint256","internalType":"uint256"}],"outputs":[{"name":"","type":"address","internalType":"address"}],"stateMutability":"view"},{"type":"function","name":"winners","inputs":[{"name":"","type":"address","internalType":"address"}],"outputs":[{"name":"","type":"bool","internalType":"bool"}],"stateMutability":"view"},{"type":"event","name":"BuyerDeposited","inputs":[{"name":"buyer","type":"address","indexed":true,"internalType":"address"},{"name":"amount","type":"uint256","indexed":true,"internalType":"uint256"}],"anonymous":false},{"type":"event","name":"BuyerWithdrew","inputs":[{"name":"buyer","type":"address","indexed":true,"internalType":"address"},{"name":"amount","type":"uint256","indexed":true,"internalType":"uint256"}],"anonymous":false},{"type":"event","name":"DepositsReturned","inputs":[{"name":"returnedDepositsCount","type":"uint256","indexed":false,"internalType":"uint256"}],"anonymous":false},{"type":"event","name":"LotteryEnded","inputs":[],"anonymous":false},{"type":"event","name":"LotteryStarted","inputs":[],"anonymous":false},{"type":"event","name":"OwnershipTransferred","inputs":[{"name":"previousOwner","type":"address","indexed":true,"internalType":"address"},{"name":"newOwner","type":"address","indexed":true,"internalType":"address"}],"anonymous":false},{"type":"event","name":"RandomFulfilled","inputs":[{"name":"number","type":"uint256","indexed":false,"internalType":"uint256"}],"anonymous":false},{"type":"event","name":"RandomRequested","inputs":[{"name":"requester","type":"address","indexed":true,"internalType":"address"}],"anonymous":false},{"type":"event","name":"RequestedRandomness","inputs":[{"name":"round","type":"uint256","indexed":false,"internalType":"uint256"},{"name":"data","type":"bytes","indexed":false,"internalType":"bytes"}],"anonymous":false},{"type":"event","name":"WinnerSelected","inputs":[{"name":"winner","type":"address","indexed":true,"internalType":"address"}],"anonymous":false},{"type":"error","name":"OwnableInvalidOwner","inputs":[{"name":"owner","type":"address","internalType":"address"}]},{"type":"error","name":"OwnableUnauthorizedAccount","inputs":[{"name":"account","type":"address","internalType":"address"}]}],"bytecode":{"object":"0x60a06040526000805460ff60a81b1916905534801561001d57600080fd5b5073d8253782c45a12053594b9deb72d8e8ab2fca54c338061005957604051631e4fbdf760e01b81526000600482015260240160405180910390fd5b61006281610074565b506001600160a01b03166080526100c4565b600080546001600160a01b038381166001600160a01b0319831681178455604051919092169283917f8be0079c531659141344cd1fd0a4f28419497f9722a3daafe3b4186f6b6457e09190a35050565b60805161288d6100e66000396000818161034201526121cb015261288d6000f3fe608060405234801561001057600080fd5b50600436106102325760003560e01c8063715018a611610130578063c4f8f27b116100b8578063e99d28661161007c578063e99d2866146104ff578063f2fde38b14610512578063f3f18c3714610525578063f8413b0714610538578063fc7e286d1461054057600080fd5b8063c4f8f27b14610492578063ccbac9f5146104b2578063df15c37e146104bb578063e63c4609146104c3578063e9081ec7146104d657600080fd5b806399dbf4b5116100ff57806399dbf4b51461041a5780639d9ca28d1461042d578063a61fb2ba14610459578063b3f6b99a1461046c578063b6b55f251461047f57600080fd5b8063715018a6146103e657806375ce7fff146103ee5780637cc947d0146104015780638da5cb5b1461040957600080fd5b806326170480116101be5780635aa68ac0116101825780635aa68ac01461037257806366af746b14610387578063683e93e11461038f5780636939864b146103a25780636bd5450a146103c357600080fd5b806326170480146102eb5780632c23ec8e146102f357806338e21cce1461030657806345745c1014610329578063572b6c051461033257600080fd5b80631209b1f6116102055780631209b1f6146102a6578063158ef93e146102af5780631593a8c7146102d3578063160344e2146102db5780631a0de74c146102e357600080fd5b8063045f9c9714610237578063080c279a1461026757806308551a531461027e5780631017508014610291575b600080fd5b61024a610245366004612294565b610560565b6040516001600160a01b0390911681526020015b60405180910390f35b61027060035481565b60405190815260200161025e565b60025461024a906001600160a01b031681565b6102a461029f36600461233a565b61058a565b005b61027060055481565b6000546102c390600160a81b900460ff1681565b604051901515815260200161025e565b6102a4610691565b6102a4610700565b6102a46107db565b6102a4610c78565b600b5461024a906001600160a01b031681565b6102c36103143660046123e2565b60066020526000908152604090205460ff1681565b61027060045481565b6102c36103403660046123e2565b7f00000000000000000000000000000000000000000000000000000000000000006001600160a01b0390811691161490565b61037a610e3f565b60405161025e9190612404565b6102a4610ea1565b6102a461039d366004612451565b6110d2565b6000546103b690600160a01b900460ff1681565b60405161025e9190612488565b6102c36103d13660046123e2565b60086020526000908152604090205460ff1681565b6102a4611139565b6102c36103fc366004612294565b61114d565b6102a4611181565b6000546001600160a01b031661024a565b600c5461024a906001600160a01b031681565b6102c361043b3660046123e2565b6001600160a01b031660009081526008602052604090205460ff1690565b60015461024a906001600160a01b031681565b6102a461047a3660046124b0565b61139d565b6102a461048d366004612294565b611577565b6102706104a0366004612294565b600e6020526000908152604090205481565b61027060105481565b61037a6118d0565b6102a46104d13660046123e2565b611930565b6102706104e43660046123e2565b6001600160a01b031660009081526007602052604090205490565b6102a461050d3660046123e2565b611b16565b6102a46105203660046123e2565b611b72565b600f5461024a906001600160a01b031681565b6102a4611bad565b61027061054e3660046123e2565b60076020526000908152604090205481565b6009818154811061057057600080fd5b6000918252602090912001546001600160a01b0316905081565b600054600160a81b900460ff16156105df5760405162461bcd60e51b8152602060048201526013602482015272105b1c9958591e481a5b9a5d1a585b1a5e9959606a1b60448201526064015b60405180910390fd5b6020810151600280546001600160a01b039283166001600160a01b0319918216179091558251600f8054919093169116179055604081015161062090611c5b565b6060810151600455608081015160055560a0810151600c80546001600160a01b03199081166001600160a01b039384161790915560c0830151600b8054831691841691909117905560e09092015160018054909316911617905560008054600160a81b60ff60a81b19909116179055565b6002546001600160a01b03166106a5611cab565b6001600160a01b0316146106cb5760405162461bcd60e51b81526004016105d69061252c565b6106d560026110d2565b6040517f9c89a6ed7228533196a3f962acc80d61a9c53bdea6b910741bf754f5aaa7569e90600090a1565b6002546001600160a01b0316610714611cab565b6001600160a01b03161461073a5760405162461bcd60e51b81526004016105d69061252c565b60008054600160a01b900460ff16600281111561075957610759612472565b146107a65760405162461bcd60e51b815260206004820152601760248201527f53616c6520697320696e2061637469766520737461746500000000000000000060448201526064016105d6565b6107b060016110d2565b6040517fd029c7c68d943f92286a7825fa6aa2deefa1eee46cee6c91b7e483fd06d27baf90600090a1565b6002546001600160a01b03166107ef611cab565b6001600160a01b0316146108155760405162461bcd60e51b81526004016105d69061252c565b6001600054600160a01b900460ff16600281111561083557610835612472565b146108775760405162461bcd60e51b815260206004820152601260248201527153616c65206973206e6f742061637469766560701b60448201526064016105d6565b6000600454116108c95760405162461bcd60e51b815260206004820152601b60248201527f4e6f207469636b657473206c65667420746f20616c6c6f63617465000000000060448201526064016105d6565b600a5460045481116109905760005b81811015610979576000600a82815481106108f5576108f561256e565b6000918252602090912001546001600160a01b0316905061092e816001600160a01b031660009081526008602052604090205460ff1690565b6109705761093b81611cba565b6040516001600160a01b038216907f1d4c260f1824cd028e6c9e6e31c3a0b94f2513e7a641113ec759d382f9bdd5a190600090a25b506001016108d8565b50610986600a6000612262565b6000600455610c26565b60005b81811015610aa45760006109a7828461259a565b6010546109b491906125c9565b6109be90836125dd565b90506000600a82815481106109d5576109d561256e565b600091825260209091200154600a80546001600160a01b0390921692509084908110610a0357610a0361256e565b600091825260209091200154600a80546001600160a01b039092169184908110610a2f57610a2f61256e565b9060005260206000200160006101000a8154816001600160a01b0302191690836001600160a01b0316021790555080600a8481548110610a7157610a7161256e565b600091825260209091200180546001600160a01b0319166001600160a01b03929092169190911790555050600101610993565b5060005b600454811015610b4b576000600a8281548110610ac757610ac761256e565b6000918252602090912001546001600160a01b03169050610b00816001600160a01b031660009081526008602052604090205460ff1690565b610b4257610b0d81611cba565b6040516001600160a01b038216907f1d4c260f1824cd028e6c9e6e31c3a0b94f2513e7a641113ec759d382f9bdd5a190600090a25b50600101610aa8565b506004546000905b82811015610bd857600a8181548110610b6e57610b6e61256e565b600091825260209091200154600a80546001600160a01b039092169184908110610b9a57610b9a61256e565b600091825260209091200180546001600160a01b0319166001600160a01b039290921691909117905581610bcd816125f0565b925050600101610b53565b50805b82811015610c1e57600a805480610bf457610bf4612609565b600082815260209020810160001990810180546001600160a01b0319169055019055600101610bdb565b505060006004555b600454600003610c75576000805460ff60a01b1916600160a11b179055610c4b611d46565b6040517f9c89a6ed7228533196a3f962acc80d61a9c53bdea6b910741bf754f5aaa7569e90600090a15b50565b60066000610c84611cab565b6001600160a01b0316815260208101919091526040016000205460ff1615610ce35760405162461bcd60e51b815260206004820152601260248201527113919508185b1c9958591e481b5a5b9d195960721b60448201526064016105d6565b6002600054600160a01b900460ff166002811115610d0357610d03612472565b14610d205760405162461bcd60e51b81526004016105d69061261f565b610d2b61043b611cab565b610d705760405162461bcd60e51b815260206004820152601660248201527521b0b63632b91034b9903737ba1030903bb4b73732b960511b60448201526064016105d6565b600160066000610d7e611cab565b6001600160a01b0316815260208101919091526040016000908120805460ff191692151592909217909155600781610db4611cab565b6001600160a01b039081168252602082019290925260400160002091909155600b5416636b8f60f6610de4611cab565b6040516001600160e01b031960e084901b1681526001600160a01b039091166004820152602401600060405180830381600087803b158015610e2557600080fd5b505af1158015610e39573d6000803e3d6000fd5b50505050565b6060600a805480602002602001604051908101604052809291908181526020018280548015610e9757602002820191906000526020600020905b81546001600160a01b03168152600190910190602001808311610e79575b5050505050905090565b6002546001600160a01b0316610eb5611cab565b6001600160a01b031614610edb5760405162461bcd60e51b81526004016105d69061252c565b6002600054600160a01b900460ff166002811115610efb57610efb612472565b14610f3c5760405162461bcd60e51b8152602060048201526011602482015270131bdd1d195c9e481b9bdd08195b991959607a1b60448201526064016105d6565b6000805b600954811015610fb557600060098281548110610f5f57610f5f61256e565b60009182526020808320909101546001600160a01b03168083526007909152604090912054909150610f9190846125dd565b6001600160a01b039091166000908152600760205260408120559150600101610f40565b5060006064610fc583600561264e565b610fcf9190612665565b90506000610fdd828461259a565b600c5460015460405163a9059cbb60e01b81526001600160a01b03918216600482015260248101869052929350169063a9059cbb906044016020604051808303816000875af1158015611034573d6000803e3d6000fd5b505050506040513d601f19601f820116820180604052508101906110589190612679565b50600c5460025460405163a9059cbb60e01b81526001600160a01b0391821660048201526024810184905291169063a9059cbb906044016020604051808303816000875af11580156110ae573d6000803e3d6000fd5b505050506040513d601f19601f82011682018060405250810190610e399190612679565b6002546001600160a01b03166110e6611cab565b6001600160a01b03161461110c5760405162461bcd60e51b81526004016105d69061252c565b6000805482919060ff60a01b1916600160a01b83600281111561113157611131612472565b021790555050565b611141612029565b61114b6000611c5b565b565b600d818154811061115d57600080fd5b9060005260206000209060209182820401919006915054906101000a900460ff1681565b6002600054600160a01b900460ff1660028111156111a1576111a1612472565b146111be5760405162461bcd60e51b81526004016105d69061261f565b600860006111ca611cab565b6001600160a01b0316815260208101919091526040016000205460ff16156112345760405162461bcd60e51b815260206004820152601760248201527f57696e6e6572732063616e6e6f7420776974686472617700000000000000000060448201526064016105d6565b600060076000611242611cab565b6001600160a01b03166001600160a01b03168152602001908152602001600020549050600081116112ac5760405162461bcd60e51b81526020600482015260146024820152734e6f2066756e647320746f20776974686472617760601b60448201526064016105d6565b6000600760006112ba611cab565b6001600160a01b039081168252602082019290925260400160002091909155600c541663a9059cbb6112ea611cab565b6040516001600160e01b031960e084901b1681526001600160a01b039091166004820152602481018490526044016020604051808303816000875af1158015611337573d6000803e3d6000fd5b505050506040513d601f19601f8201168201806040525081019061135b9190612679565b5080611365611cab565b6001600160a01b03167f1f280cd00e67ed50213ac03febd5be151f96b7f7db2f85312aa0feff99f8bdab60405160405180910390a350565b600f546001600160a01b031633146113e75760405162461bcd60e51b815260206004820152600d60248201526c37b7363c9037b832b930ba37b960991b60448201526064016105d6565b60006113f5828401846126c3565b9150506000808280602001905181019061140f9190612771565b91509150600085856040516114259291906127f4565b604051809103902090506000600e60008581526020019081526020016000205482149050600d848154811061145c5761145c61256e565b90600052602060002090602091828204019190069054906101000a900460ff166114c85760405162461bcd60e51b815260206004820152601c60248201527f726571756573742066756c66696c6c6564206f72206d697373696e670000000060448201526064016105d6565b801561156d5760408051602081018a905230918101919091524660608201526080810185905260a0016040516020818303038152906040528051906020012060001c9750611517888585612087565b6000600d858154811061152c5761152c61256e565b90600052602060002090602091828204019190066101000a81548160ff021916908315150217905550600e6000858152602001908152602001600020600090555b5050505050505050565b6001600054600160a01b900460ff16600281111561159757611597612472565b146115d95760405162461bcd60e51b815260206004820152601260248201527153616c65206973206e6f742061637469766560701b60448201526064016105d6565b600c546001600160a01b03166116315760405162461bcd60e51b815260206004820152601d60248201527f5553444320636f6e74726163742061646472657373206e6f742073657400000060448201526064016105d6565b60055481101561167b5760405162461bcd60e51b8152602060048201526015602482015274139bdd08195b9bdd59da08199d5b991cc81cd95b9d605a1b60448201526064016105d6565b600c5481906001600160a01b031663dd62ed3e611696611cab565b6040516001600160e01b031960e084901b1681526001600160a01b039091166004820152306024820152604401602060405180830381865afa1580156116e0573d6000803e3d6000fd5b505050506040513d601f19601f820116820180604052508101906117049190612804565b101561174b5760405162461bcd60e51b8152602060048201526016602482015275496e73756666696369656e7420616c6c6f77616e636560501b60448201526064016105d6565b600c546001600160a01b03166323b872dd611764611cab565b6040516001600160e01b031960e084901b1681526001600160a01b039091166004820152306024820152604481018490526064016020604051808303816000875af11580156117b7573d6000803e3d6000fd5b505050506040513d601f19601f820116820180604052508101906117db9190612679565b50600760006117e8611cab565b6001600160a01b03166001600160a01b031681526020019081526020016000205460000361184d57600a61181a611cab565b81546001810183556000928352602090922090910180546001600160a01b0319166001600160a01b039092169190911790555b806007600061185a611cab565b6001600160a01b03166001600160a01b03168152602001908152602001600020600082825461188991906125dd565b90915550819050611898611cab565b6001600160a01b03167f21040858e63c11c046482f61f290bbe25972fc74b11b4570a01f9241082d21f160405160405180910390a350565b60606009805480602002602001604051908101604052809291908181526020018280548015610e97576020028201919060005260206000209081546001600160a01b03168152600190910190602001808311610e79575050505050905090565b6002546001600160a01b0316611944611cab565b6001600160a01b03161461196a5760405162461bcd60e51b81526004016105d69061252c565b60005b600a54811015611b0957600060076000600a84815481106119905761199061256e565b60009182526020808320909101546001600160a01b03168352820192909252604001812054600a8054919350600791839190869081106119d2576119d261256e565b6000918252602080832091909101546001600160a01b039081168452908301939093526040918201902092909255600c54915163a9059cbb60e01b815285821660048201526024810184905291169063a9059cbb906044016020604051808303816000875af1158015611a49573d6000803e3d6000fd5b505050506040513d601f19601f82011682018060405250810190611a6d9190612679565b50826001600160a01b03166350f3dbec600a8481548110611a9057611a9061256e565b60009182526020909120015460405160e083901b6001600160e01b03191681526001600160a01b03909116600482015260248101849052604401600060405180830381600087803b158015611ae457600080fd5b505af1158015611af8573d6000803e3d6000fd5b50506001909301925061196d915050565b50610c75600a6000612262565b6002546001600160a01b0316611b2a611cab565b6001600160a01b031614611b505760405162461bcd60e51b81526004016105d69061252c565b600280546001600160a01b0319166001600160a01b0392909216919091179055565b611b7a612029565b6001600160a01b038116611ba457604051631e4fbdf760e01b8152600060048201526024016105d6565b610c7581611c5b565b6002546001600160a01b0316611bc1611cab565b6001600160a01b031614611be75760405162461bcd60e51b81526004016105d69061252c565b611c1b611bf2611cab565b604080516001600160a01b039092166020830152016040516020818303038152906040526120c4565b50611c24611cab565b6001600160a01b03167fd802e7c7f1646e3318c03abed1e468bdf913f45331a68dc912a0d645eb646a4260405160405180910390a2565b600080546001600160a01b038381166001600160a01b0319831681178455604051919092169283917f8be0079c531659141344cd1fd0a4f28419497f9722a3daafe3b4186f6b6457e09190a35050565b6000611cb56121c7565b905090565b6001600160a01b038116600081815260086020526040808220805460ff1916600190811790915560098054918201815583527f6e1540171b6c0c960b71a7020d9f60077f6af931a8bbf590da0223dacf75c7af0180546001600160a01b03191684179055517f1d4c260f1824cd028e6c9e6e31c3a0b94f2513e7a641113ec759d382f9bdd5a19190a250565b6002546001600160a01b0316611d5a611cab565b6001600160a01b031614611d805760405162461bcd60e51b81526004016105d69061252c565b6002600054600160a01b900460ff166002811115611da057611da0612472565b14611dbd5760405162461bcd60e51b81526004016105d69061261f565b600a5460008167ffffffffffffffff811115611ddb57611ddb6122ad565b604051908082528060200260200182016040528015611e04578160200160208202803683370190505b50905060005b82811015611e7557600a8181548110611e2557611e2561256e565b9060005260206000200160009054906101000a90046001600160a01b0316828281518110611e5557611e5561256e565b6001600160a01b0390921660209283029190910190910152600101611e0a565b5060005b82811015611fe5576000828281518110611e9557611e9561256e565b6020908102919091018101516001600160a01b0381166000908152600783526040808220805490839055600890945290205490925060ff1615611f6257600060055482611ee2919061259a565b600c5460405163a9059cbb60e01b81526001600160a01b0386811660048301526024820184905292935091169063a9059cbb906044016020604051808303816000875af1158015611f37573d6000803e3d6000fd5b505050506040513d601f19601f82011682018060405250810190611f5b9190612679565b5050611fdb565b600c5460405163a9059cbb60e01b81526001600160a01b038481166004830152602482018490529091169063a9059cbb906044016020604051808303816000875af1158015611fb5573d6000803e3d6000fd5b505050506040513d601f19601f82011682018060405250810190611fd99190612679565b505b5050600101611e79565b50611ff2600a6000612262565b6040518281527f01f8aef848121bbf182106b55119c1094063c572b6c8dcb09040e1203a17abf99060200160405180910390a15050565b612031611cab565b6001600160a01b031661204c6000546001600160a01b031690565b6001600160a01b03161461114b57612062611cab565b60405163118cdaa760e01b81526001600160a01b0390911660048201526024016105d6565b60108390556040518381527f79518eb4b6f70742e6651b03a2ac2bc644ea2613e8de56247857c5be5fc2a0ba9060200160405180910390a1505050565b600d80546001808201808455600084905291929091839081106120e9576120e961256e565b90600052602060002090602091828204019190066101000a81548160ff0219169083151502179055506000818360405160200161212792919061281d565b6040516020818303038152906040529050600061214261220b565b90506000818360405160200161215992919061281d565b60408051601f1981840301815282825280516020808301919091206000898152600e9092529290208290559250907fd91fc3685b930310b008ec37d2334870cab88a023ed8cc628a2e2ccd4e55d202906121b6908590879061281d565b60405180910390a150505050919050565b60007f00000000000000000000000000000000000000000000000000000000000000006001600160a01b03163303612206575060131936013560601c90565b503390565b60008061221c6364e621274261259a565b9050600061222b600383612665565b6122369060016125dd565b9050466001146122505761224b8160016125dd565b61225b565b61225b8160046125dd565b9250505090565b5080546000825590600052602060002090810190610c7591905b80821115612290576000815560010161227c565b5090565b6000602082840312156122a657600080fd5b5035919050565b634e487b7160e01b600052604160045260246000fd5b604051610120810167ffffffffffffffff811182821017156122e7576122e76122ad565b60405290565b604051601f8201601f1916810167ffffffffffffffff81118282101715612316576123166122ad565b604052919050565b80356001600160a01b038116811461233557600080fd5b919050565b6000610120828403121561234d57600080fd5b6123556122c3565b61235e8361231e565b815261236c6020840161231e565b602082015261237d6040840161231e565b604082015260608301356060820152608083013560808201526123a260a0840161231e565b60a08201526123b360c0840161231e565b60c08201526123c460e0840161231e565b60e08201526101006123d781850161231e565b908201529392505050565b6000602082840312156123f457600080fd5b6123fd8261231e565b9392505050565b6020808252825182820181905260009190848201906040850190845b818110156124455783516001600160a01b031683529284019291840191600101612420565b50909695505050505050565b60006020828403121561246357600080fd5b8135600381106123fd57600080fd5b634e487b7160e01b600052602160045260246000fd5b60208101600383106124aa57634e487b7160e01b600052602160045260246000fd5b91905290565b6000806000604084860312156124c557600080fd5b83359250602084013567ffffffffffffffff808211156124e457600080fd5b818601915086601f8301126124f857600080fd5b81358181111561250757600080fd5b87602082850101111561251957600080fd5b6020830194508093505050509250925092565b60208082526022908201527f4f6e6c792073656c6c65722063616e2063616c6c20746869732066756e63746960408201526137b760f11b606082015260800190565b634e487b7160e01b600052603260045260246000fd5b634e487b7160e01b600052601160045260246000fd5b818103818111156125ad576125ad612584565b92915050565b634e487b7160e01b600052601260045260246000fd5b6000826125d8576125d86125b3565b500690565b808201808211156125ad576125ad612584565b60006001820161260257612602612584565b5060010190565b634e487b7160e01b600052603160045260246000fd5b60208082526015908201527414d85b19481a5cc81b9bdd08195b991959081e595d605a1b604082015260600190565b80820281158282048414176125ad576125ad612584565b600082612674576126746125b3565b500490565b60006020828403121561268b57600080fd5b815180151581146123fd57600080fd5b600067ffffffffffffffff8211156126b5576126b56122ad565b50601f01601f191660200190565b600080604083850312156126d657600080fd5b82359150602083013567ffffffffffffffff8111156126f457600080fd5b8301601f8101851361270557600080fd5b80356127186127138261269b565b6122ed565b81815286602083850101111561272d57600080fd5b816020840160208301376000602083830101528093505050509250929050565b60005b83811015612768578181015183820152602001612750565b50506000910152565b6000806040838503121561278457600080fd5b82519150602083015167ffffffffffffffff8111156127a257600080fd5b8301601f810185136127b357600080fd5b80516127c16127138261269b565b8181528660208385010111156127d657600080fd5b6127e782602083016020860161274d565b8093505050509250929050565b8183823760009101908152919050565b60006020828403121561281657600080fd5b5051919050565b828152604060208201526000825180604084015261284281606085016020870161274d565b601f01601f191691909101606001939250505056fea2646970667358221220e7c0d00293f051f468e98578b4abd25d0d97269e286482c56e103598510e1c0964736f6c63430008190033","linkReferences":{}},"methodIdentifiers":{"buyerWithdraw()":"7cc947d0","changeLotteryState(uint8)":"683e93e1","deposit(uint256)":"b6b55f25","deposits(address)":"fc7e286d","endLottery()":"1593a8c7","fulfillRandomness(uint256,bytes)":"b3f6b99a","getDepositedAmount(address)":"e9081ec7","getParticipants()":"5aa68ac0","getWinners()":"df15c37e","hasMinted(address)":"38e21cce","initialize((address,address,address,uint256,uint256,address,address,address,address))":"10175080","initialized()":"158ef93e","isTrustedForwarder(address)":"572b6c05","isWinner(address)":"9d9ca28d","lotteryState()":"6939864b","minimumDepositAmount()":"080c279a","mintMyNFT()":"26170480","multisigWalletAddress()":"a61fb2ba","nftContractAddr()":"2c23ec8e","numberOfTickets()":"45745c10","operatorAddr()":"f3f18c37","owner()":"8da5cb5b","randomNumber()":"ccbac9f5","renounceOwnership()":"715018a6","requestPending(uint256)":"75ce7fff","requestRandomness()":"f8413b07","requestedHash(uint256)":"c4f8f27b","selectWinners()":"1a0de74c","seller()":"08551a53","sellerWithdraw()":"66af746b","setSeller(address)":"e99d2866","startLottery()":"160344e2","ticketPrice()":"1209b1f6","transferNonWinnerDeposits(address)":"e63c4609","transferOwnership(address)":"f2fde38b","usdcContractAddr()":"99dbf4b5","winnerAddresses(uint256)":"045f9c97","winners(address)":"6bd5450a"},"id":55}