{"abi":[{"type":"function","name":"buyerWithdraw","inputs":[],"outputs":[],"stateMutability":"nonpayable"},{"type":"function","name":"changeLotteryState","inputs":[{"name":"_newState","type":"uint8","internalType":"enum LotteryV1Base.LotteryState"}],"outputs":[],"stateMutability":"nonpayable"},{"type":"function","name":"deposit","inputs":[{"name":"amount","type":"uint256","internalType":"uint256"}],"outputs":[],"stateMutability":"payable"},{"type":"function","name":"deposits","inputs":[{"name":"","type":"address","internalType":"address"}],"outputs":[{"name":"","type":"uint256","internalType":"uint256"}],"stateMutability":"view"},{"type":"function","name":"endLottery","inputs":[],"outputs":[],"stateMutability":"nonpayable"},{"type":"function","name":"fulfillRandomness","inputs":[{"name":"randomness","type":"uint256","internalType":"uint256"},{"name":"dataWithRound","type":"bytes","internalType":"bytes"}],"outputs":[],"stateMutability":"nonpayable"},{"type":"function","name":"getDepositedAmount","inputs":[{"name":"participant","type":"address","internalType":"address"}],"outputs":[{"name":"","type":"uint256","internalType":"uint256"}],"stateMutability":"view"},{"type":"function","name":"getEligibleParticipants","inputs":[],"outputs":[{"name":"","type":"address[]","internalType":"address[]"}],"stateMutability":"view"},{"type":"function","name":"getParticipants","inputs":[],"outputs":[{"name":"","type":"address[]","internalType":"address[]"}],"stateMutability":"view"},{"type":"function","name":"getWinners","inputs":[],"outputs":[{"name":"","type":"address[]","internalType":"address[]"}],"stateMutability":"view"},{"type":"function","name":"hasMinted","inputs":[{"name":"","type":"address","internalType":"address"}],"outputs":[{"name":"","type":"bool","internalType":"bool"}],"stateMutability":"view"},{"type":"function","name":"initialize","inputs":[{"name":"config","type":"tuple","internalType":"struct StructsLibrary.ILotteryBaseConfig","components":[{"name":"_seller","type":"address","internalType":"address"},{"name":"_gelatoVrfOperator","type":"address","internalType":"address"},{"name":"_blessedOperator","type":"address","internalType":"address"},{"name":"_owner","type":"address","internalType":"address"},{"name":"_ticketAmount","type":"uint256","internalType":"uint256"},{"name":"_ticketPrice","type":"uint256","internalType":"uint256"},{"name":"_usdcContractAddr","type":"address","internalType":"address"},{"name":"_multisigWalletAddress","type":"address","internalType":"address"},{"name":"_prevPhaseContractAddr","type":"address","internalType":"address"}]}],"outputs":[],"stateMutability":"nonpayable"},{"type":"function","name":"initialized","inputs":[],"outputs":[{"name":"","type":"bool","internalType":"bool"}],"stateMutability":"view"},{"type":"function","name":"isParticipantEligible","inputs":[{"name":"participant","type":"address","internalType":"address"}],"outputs":[{"name":"","type":"bool","internalType":"bool"}],"stateMutability":"view"},{"type":"function","name":"isTrustedForwarder","inputs":[{"name":"forwarder","type":"address","internalType":"address"}],"outputs":[{"name":"","type":"bool","internalType":"bool"}],"stateMutability":"view"},{"type":"function","name":"isWinner","inputs":[{"name":"_participant","type":"address","internalType":"address"}],"outputs":[{"name":"","type":"bool","internalType":"bool"}],"stateMutability":"view"},{"type":"function","name":"lotteryState","inputs":[],"outputs":[{"name":"","type":"uint8","internalType":"enum LotteryV1Base.LotteryState"}],"stateMutability":"view"},{"type":"function","name":"minimumDepositAmount","inputs":[],"outputs":[{"name":"","type":"uint256","internalType":"uint256"}],"stateMutability":"view"},{"type":"function","name":"mintMyNFT","inputs":[],"outputs":[],"stateMutability":"nonpayable"},{"type":"function","name":"multisigWalletAddress","inputs":[],"outputs":[{"name":"","type":"address","internalType":"address"}],"stateMutability":"view"},{"type":"function","name":"nftContractAddr","inputs":[],"outputs":[{"name":"","type":"address","internalType":"address"}],"stateMutability":"view"},{"type":"function","name":"numberOfTickets","inputs":[],"outputs":[{"name":"","type":"uint256","internalType":"uint256"}],"stateMutability":"view"},{"type":"function","name":"operatorAddr","inputs":[],"outputs":[{"name":"","type":"address","internalType":"address"}],"stateMutability":"view"},{"type":"function","name":"owner","inputs":[],"outputs":[{"name":"","type":"address","internalType":"address"}],"stateMutability":"view"},{"type":"function","name":"randomNumber","inputs":[],"outputs":[{"name":"","type":"uint256","internalType":"uint256"}],"stateMutability":"view"},{"type":"function","name":"renounceOwnership","inputs":[],"outputs":[],"stateMutability":"nonpayable"},{"type":"function","name":"requestPending","inputs":[{"name":"","type":"uint256","internalType":"uint256"}],"outputs":[{"name":"","type":"bool","internalType":"bool"}],"stateMutability":"view"},{"type":"function","name":"requestRandomness","inputs":[],"outputs":[],"stateMutability":"nonpayable"},{"type":"function","name":"requestedHash","inputs":[{"name":"","type":"uint256","internalType":"uint256"}],"outputs":[{"name":"","type":"bytes32","internalType":"bytes32"}],"stateMutability":"view"},{"type":"function","name":"selectWinners","inputs":[],"outputs":[],"stateMutability":"nonpayable"},{"type":"function","name":"seller","inputs":[],"outputs":[{"name":"","type":"address","internalType":"address"}],"stateMutability":"view"},{"type":"function","name":"sellerWithdraw","inputs":[],"outputs":[],"stateMutability":"nonpayable"},{"type":"function","name":"setMinimumDepositAmount","inputs":[{"name":"_amount","type":"uint256","internalType":"uint256"}],"outputs":[],"stateMutability":"nonpayable"},{"type":"function","name":"setMultisigWalletAddress","inputs":[{"name":"_multisigWalletAddress","type":"address","internalType":"address"}],"outputs":[],"stateMutability":"nonpayable"},{"type":"function","name":"setNftContractAddr","inputs":[{"name":"_nftContractAddr","type":"address","internalType":"address"}],"outputs":[],"stateMutability":"nonpayable"},{"type":"function","name":"setNumberOfTickets","inputs":[{"name":"_numberOfTickets","type":"uint256","internalType":"uint256"}],"outputs":[],"stateMutability":"nonpayable"},{"type":"function","name":"setSeller","inputs":[{"name":"_seller","type":"address","internalType":"address"}],"outputs":[],"stateMutability":"nonpayable"},{"type":"function","name":"setUsdcContractAddr","inputs":[{"name":"_usdcContractAddr","type":"address","internalType":"address"}],"outputs":[],"stateMutability":"nonpayable"},{"type":"function","name":"setWinner","inputs":[{"name":"_winner","type":"address","internalType":"address"}],"outputs":[],"stateMutability":"nonpayable"},{"type":"function","name":"startLottery","inputs":[],"outputs":[],"stateMutability":"nonpayable"},{"type":"function","name":"transferNonWinnerDeposits","inputs":[{"name":"lotteryV2addr","type":"address","internalType":"address"}],"outputs":[],"stateMutability":"nonpayable"},{"type":"function","name":"transferOwnership","inputs":[{"name":"newOwner","type":"address","internalType":"address"}],"outputs":[],"stateMutability":"nonpayable"},{"type":"function","name":"usdcContractAddr","inputs":[],"outputs":[{"name":"","type":"address","internalType":"address"}],"stateMutability":"view"},{"type":"function","name":"winnerAddresses","inputs":[{"name":"","type":"uint256","internalType":"uint256"}],"outputs":[{"name":"","type":"address","internalType":"address"}],"stateMutability":"view"},{"type":"function","name":"winners","inputs":[{"name":"","type":"address","internalType":"address"}],"outputs":[{"name":"","type":"bool","internalType":"bool"}],"stateMutability":"view"},{"type":"event","name":"LotteryEnded","inputs":[],"anonymous":false},{"type":"event","name":"LotteryStarted","inputs":[],"anonymous":false},{"type":"event","name":"OwnershipTransferred","inputs":[{"name":"previousOwner","type":"address","indexed":true,"internalType":"address"},{"name":"newOwner","type":"address","indexed":true,"internalType":"address"}],"anonymous":false},{"type":"event","name":"RandomFullfiled","inputs":[{"name":"number","type":"uint256","indexed":false,"internalType":"uint256"}],"anonymous":false},{"type":"event","name":"RandomRequested","inputs":[{"name":"requester","type":"address","indexed":true,"internalType":"address"}],"anonymous":false},{"type":"event","name":"RequestedRandomness","inputs":[{"name":"round","type":"uint256","indexed":false,"internalType":"uint256"},{"name":"data","type":"bytes","indexed":false,"internalType":"bytes"}],"anonymous":false},{"type":"event","name":"WinnerSelected","inputs":[{"name":"winner","type":"address","indexed":true,"internalType":"address"}],"anonymous":false},{"type":"error","name":"OwnableInvalidOwner","inputs":[{"name":"owner","type":"address","internalType":"address"}]},{"type":"error","name":"OwnableUnauthorizedAccount","inputs":[{"name":"account","type":"address","internalType":"address"}]}],"bytecode":{"object":"0x60a06040526002805460ff60a01b1916905534801561001d57600080fd5b5073d8253782c45a12053594b9deb72d8e8ab2fca54c338061005957604051631e4fbdf760e01b81526000600482015260240160405180910390fd5b61006281610074565b506001600160a01b03166080526100c6565b600280546001600160a01b038381166001600160a01b0319831681179093556040519116919082907f8be0079c531659141344cd1fd0a4f28419497f9722a3daafe3b4186f6b6457e090600090a35050565b608051612a436100e86000396000818161042201526123b00152612a436000f3fe6080604052600436106102725760003560e01c80638a6723e61161014f578063c4f8f27b116100c1578063e9081ec71161007a578063e9081ec714610788578063e99d2866146107be578063f2fde38b146107de578063f3f18c37146107fe578063f8413b071461081e578063fc7e286d1461083357600080fd5b8063c4f8f27b146106d0578063ccbac9f5146106fd578063cf54d3b814610713578063d9fca76914610733578063df15c37e14610753578063e63c46091461076857600080fd5b80639abdccd1116101135780639abdccd11461060f5780639d9ca28d14610624578063a61fb2ba1461065d578063aab483d61461067d578063b3f6b99a1461069d578063b6b55f25146106bd57600080fd5b80638a6723e6146105715780638da5cb5b1461059157806394d898de146105af57806399bd69d6146105cf57806399dbf4b5146105ef57600080fd5b806345745c10116101e8578063683e93e1116101ac578063683e93e1146104a95780636939864b146104c95780636bd5450a146104f7578063715018a61461052757806375ce7fff1461053c5780637cc947d01461055c57600080fd5b806345745c10146103ef578063572b6c05146104055780635aa68ac01461045257806360d50da31461047457806366af746b1461049457600080fd5b8063160344e21161023a578063160344e2146103405780631a0de74c14610355578063261704801461036a5780632c23ec8e1461037f5780633644c27c1461039f57806338e21cce146103bf57600080fd5b8063045f9c9714610277578063080c279a146102b457806308551a53146102d8578063158ef93e146102f85780631593a8c714610329575b600080fd5b34801561028357600080fd5b50610297610292366004612479565b610860565b6040516001600160a01b0390911681526020015b60405180910390f35b3480156102c057600080fd5b506102ca60065481565b6040519081526020016102ab565b3480156102e457600080fd5b50600454610297906001600160a01b031681565b34801561030457600080fd5b5060025461031990600160a01b900460ff1681565b60405190151581526020016102ab565b34801561033557600080fd5b5061033e61088a565b005b34801561034c57600080fd5b5061033e6108d9565b34801561036157600080fd5b5061033e61098a565b34801561037657600080fd5b5061033e610dbc565b34801561038b57600080fd5b50600f54610297906001600160a01b031681565b3480156103ab57600080fd5b5061033e6103ba3660046124ae565b610f88565b3480156103cb57600080fd5b506103196103da3660046124ae565b600a6020526000908152604090205460ff1681565b3480156103fb57600080fd5b506102ca60075481565b34801561041157600080fd5b506103196104203660046124ae565b7f00000000000000000000000000000000000000000000000000000000000000006001600160a01b0390811691161490565b34801561045e57600080fd5b50610467610fb2565b6040516102ab91906124d0565b34801561048057600080fd5b5061033e61048f3660046124ae565b611014565b3480156104a057600080fd5b5061033e61103e565b3480156104b557600080fd5b5061033e6104c436600461251d565b611272565b3480156104d557600080fd5b506002546104ea90600160a81b900460ff1681565b6040516102ab9190612554565b34801561050357600080fd5b506103196105123660046124ae565b600c6020526000908152604090205460ff1681565b34801561053357600080fd5b5061033e6112d9565b34801561054857600080fd5b50610319610557366004612479565b6112eb565b34801561056857600080fd5b5061033e61131f565b34801561057d57600080fd5b5061031961058c3660046124ae565b61152d565b34801561059d57600080fd5b506002546001600160a01b0316610297565b3480156105bb57600080fd5b5061033e6105ca3660046124ae565b61158c565b3480156105db57600080fd5b5061033e6105ea366004612479565b6115b6565b3480156105fb57600080fd5b50601054610297906001600160a01b031681565b34801561061b57600080fd5b50610467611659565b34801561063057600080fd5b5061031961063f3660046124ae565b6001600160a01b03166000908152600c602052604090205460ff1690565b34801561066957600080fd5b50600354610297906001600160a01b031681565b34801561068957600080fd5b5061033e610698366004612479565b6116b9565b3480156106a957600080fd5b5061033e6106b836600461257c565b6116f8565b61033e6106cb366004612479565b6118cc565b3480156106dc57600080fd5b506102ca6106eb366004612479565b60016020526000908152604090205481565b34801561070957600080fd5b506102ca60085481565b34801561071f57600080fd5b5061033e61072e366004612669565b611bdf565b34801561073f57600080fd5b5061033e61074e3660046124ae565b611cd0565b34801561075f57600080fd5b50610467611d70565b34801561077457600080fd5b5061033e6107833660046124ae565b611dd0565b34801561079457600080fd5b506102ca6107a33660046124ae565b6001600160a01b03166000908152600b602052604090205490565b3480156107ca57600080fd5b5061033e6107d93660046124ae565b611fb9565b3480156107ea57600080fd5b5061033e6107f93660046124ae565b612015565b34801561080a57600080fd5b50600554610297906001600160a01b031681565b34801561082a57600080fd5b5061033e612050565b34801561083f57600080fd5b506102ca61084e3660046124ae565b600b6020526000908152604090205481565b600d818154811061087057600080fd5b6000918252602090912001546001600160a01b0316905081565b6004546001600160a01b031661089e6120fe565b6001600160a01b0316146108cd5760405162461bcd60e51b81526004016108c490612711565b60405180910390fd5b6108d76002611272565b565b6004546001600160a01b03166108ed6120fe565b6001600160a01b0316146109135760405162461bcd60e51b81526004016108c490612711565b6000600254600160a81b900460ff1660048111156109335761093361253e565b146109805760405162461bcd60e51b815260206004820152601a60248201527f4c6f747465727920697320696e2061637469766520737461746500000000000060448201526064016108c4565b6108d76001611272565b6004546001600160a01b031661099e6120fe565b6001600160a01b0316146109c45760405162461bcd60e51b81526004016108c490612711565b600060075411610a165760405162461bcd60e51b815260206004820152601b60248201527f4e6f207469636b657473206c65667420746f20616c6c6f63617465000000000060448201526064016108c4565b610a1e61210d565b60095460075410610ae65760005b600954811015610acf57600060098281548110610a4b57610a4b612753565b6000918252602090912001546001600160a01b03169050610a84816001600160a01b03166000908152600c602052604090205460ff1690565b610ac657610a9181611cd0565b6040516001600160a01b038216907f1d4c260f1824cd028e6c9e6e31c3a0b94f2513e7a641113ec759d382f9bdd5a190600090a25b50600101610a2c565b50610adc60096000612447565b6000600755610d87565b60005b600954811015610c0157600954600090610b0490839061277f565b600854610b1191906127ae565b610b1b90836127c2565b9050600060098281548110610b3257610b32612753565b600091825260209091200154600980546001600160a01b0390921692509084908110610b6057610b60612753565b600091825260209091200154600980546001600160a01b039092169184908110610b8c57610b8c612753565b9060005260206000200160006101000a8154816001600160a01b0302191690836001600160a01b031602179055508060098481548110610bce57610bce612753565b600091825260209091200180546001600160a01b0319166001600160a01b03929092169190911790555050600101610ae9565b5060005b600754811015610ca857600060098281548110610c2457610c24612753565b6000918252602090912001546001600160a01b03169050610c5d816001600160a01b03166000908152600c602052604090205460ff1690565b610c9f57610c6a81611cd0565b6040516001600160a01b038216907f1d4c260f1824cd028e6c9e6e31c3a0b94f2513e7a641113ec759d382f9bdd5a190600090a25b50600101610c05565b506007546000905b600954811015610d375760098181548110610ccd57610ccd612753565b600091825260209091200154600980546001600160a01b039092169184908110610cf957610cf9612753565b600091825260209091200180546001600160a01b0319166001600160a01b039290921691909117905581610d2c816127d5565b925050600101610cb0565b50805b600954811015610d7f576009805480610d5557610d556127ee565b600082815260209020810160001990810180546001600160a01b0319169055019055600101610d3a565b505060006007555b6007546000036108d7576040517f9c89a6ed7228533196a3f962acc80d61a9c53bdea6b910741bf754f5aaa7569e90600090a1565b600a6000610dc86120fe565b6001600160a01b0316815260208101919091526040016000205460ff1615610e275760405162461bcd60e51b815260206004820152601260248201527113919508185b1c9958591e481b5a5b9d195960721b60448201526064016108c4565b60028054600160a81b900460ff166004811115610e4657610e4661253e565b14610e935760405162461bcd60e51b815260206004820152601860248201527f4c6f7474657279206973206e6f7420656e64656420796574000000000000000060448201526064016108c4565b610e9e61063f6120fe565b610ee35760405162461bcd60e51b815260206004820152601660248201527521b0b63632b91034b9903737ba1030903bb4b73732b960511b60448201526064016108c4565b6001600a6000610ef16120fe565b6001600160a01b0390811682526020820192909252604001600020805460ff191692151592909217909155600f5416636b8f60f6610f2d6120fe565b6040516001600160e01b031960e084901b1681526001600160a01b039091166004820152602401600060405180830381600087803b158015610f6e57600080fd5b505af1158015610f82573d6000803e3d6000fd5b50505050565b610f906121be565b600f80546001600160a01b0319166001600160a01b0392909216919091179055565b6060600e80548060200260200160405190810160405280929190818152602001828054801561100a57602002820191906000526020600020905b81546001600160a01b03168152600190910190602001808311610fec575b5050505050905090565b61101c6121be565b600380546001600160a01b0319166001600160a01b0392909216919091179055565b6004546001600160a01b03166110526120fe565b6001600160a01b0316146110785760405162461bcd60e51b81526004016108c490612711565b60028054600160a81b900460ff1660048111156110975761109761253e565b146110d85760405162461bcd60e51b8152602060048201526011602482015270131bdd1d195c9e481b9bdd08195b991959607a1b60448201526064016108c4565b6000805b600d54811015611151576000600d82815481106110fb576110fb612753565b60009182526020808320909101546001600160a01b0316808352600b90915260409091205490915061112d90846127c2565b6001600160a01b039091166000908152600b602052604081205591506001016110dc565b5060006064611161836005612804565b61116b919061281b565b90506000611179828461277f565b60105460035460405163a9059cbb60e01b81526001600160a01b03918216600482015260248101869052929350169063a9059cbb906044016020604051808303816000875af11580156111d0573d6000803e3d6000fd5b505050506040513d601f19601f820116820180604052508101906111f4919061282f565b506010546004805460405163a9059cbb60e01b81526001600160a01b0391821692810192909252602482018490529091169063a9059cbb906044016020604051808303816000875af115801561124e573d6000803e3d6000fd5b505050506040513d601f19601f82011682018060405250810190610f82919061282f565b6004546001600160a01b03166112866120fe565b6001600160a01b0316146112ac5760405162461bcd60e51b81526004016108c490612711565b6002805482919060ff60a81b1916600160a81b8360048111156112d1576112d161253e565b021790555050565b6112e16121be565b6108d7600061221c565b600081815481106112fb57600080fd5b9060005260206000209060209182820401919006915054906101000a900460ff1681565b6001600254600160a81b900460ff16600481111561133f5761133f61253e565b0361138c5760405162461bcd60e51b815260206004820152601b60248201527f4c6f74746572792069732063757272656e746c7920616374697665000000000060448201526064016108c4565b600c60006113986120fe565b6001600160a01b0316815260208101919091526040016000205460ff16156114025760405162461bcd60e51b815260206004820152601760248201527f57696e6e6572732063616e6e6f7420776974686472617700000000000000000060448201526064016108c4565b6000600b60006114106120fe565b6001600160a01b03166001600160a01b031681526020019081526020016000205490506000811161147a5760405162461bcd60e51b81526020600482015260146024820152734e6f2066756e647320746f20776974686472617760601b60448201526064016108c4565b6000600b60006114886120fe565b6001600160a01b0390811682526020820192909252604001600020919091556010541663a9059cbb6114b86120fe565b6040516001600160e01b031960e084901b1681526001600160a01b039091166004820152602481018490526044016020604051808303816000875af1158015611505573d6000803e3d6000fd5b505050506040513d601f19601f82011682018060405250810190611529919061282f565b5050565b6000805b60095481101561158357826001600160a01b03166009828154811061155857611558612753565b6000918252602090912001546001600160a01b03160361157b5750600192915050565b600101611531565b50600092915050565b6115946121be565b601080546001600160a01b0319166001600160a01b0392909216919091179055565b6004546001600160a01b03166115ca6120fe565b6001600160a01b0316146115f05760405162461bcd60e51b81526004016108c490612711565b600081116116545760405162461bcd60e51b815260206004820152602b60248201527f4e756d626572206f66207469636b657473206d7573742062652067726561746560448201526a72207468616e207a65726f60a81b60648201526084016108c4565b600755565b6060600980548060200260200160405190810160405280929190818152602001828054801561100a576020028201919060005260206000209081546001600160a01b03168152600190910190602001808311610fec575050505050905090565b6004546001600160a01b03166116cd6120fe565b6001600160a01b0316146116f35760405162461bcd60e51b81526004016108c490612711565b600655565b6005546001600160a01b031633146117425760405162461bcd60e51b815260206004820152600d60248201526c37b7363c9037b832b930ba37b960991b60448201526064016108c4565b600061175082840184612879565b9150506000808280602001905181019061176a9190612927565b91509150600085856040516117809291906129aa565b60408051918290039091206000858152600160205291822054825491935083149190859081106117b2576117b2612753565b90600052602060002090602091828204019190069054906101000a900460ff1661181e5760405162461bcd60e51b815260206004820152601c60248201527f726571756573742066756c66696c6c6564206f72206d697373696e670000000060448201526064016108c4565b80156118c25760408051602081018a905230918101919091524660608201526080810185905260a0016040516020818303038152906040528051906020012060001c975061186d88858561226e565b600080858154811061188157611881612753565b90600052602060002090602091828204019190066101000a81548160ff02191690831515021790555060016000858152602001908152602001600020600090555b5050505050505050565b6001600254600160a81b900460ff1660048111156118ec576118ec61253e565b146119315760405162461bcd60e51b81526020600482015260156024820152744c6f7474657279206973206e6f742061637469766560581b60448201526064016108c4565b6010546001600160a01b03166119895760405162461bcd60e51b815260206004820152601d60248201527f5553444320636f6e74726163742061646472657373206e6f742073657400000060448201526064016108c4565b600081116119c95760405162461bcd60e51b815260206004820152600d60248201526c139bc8199d5b991cc81cd95b9d609a1b60448201526064016108c4565b60105481906001600160a01b031663dd62ed3e6119e46120fe565b6040516001600160e01b031960e084901b1681526001600160a01b039091166004820152306024820152604401602060405180830381865afa158015611a2e573d6000803e3d6000fd5b505050506040513d601f19601f82011682018060405250810190611a5291906129ba565b1015611a995760405162461bcd60e51b8152602060048201526016602482015275496e73756666696369656e7420616c6c6f77616e636560501b60448201526064016108c4565b6010546001600160a01b03166323b872dd611ab26120fe565b6040516001600160e01b031960e084901b1681526001600160a01b039091166004820152306024820152604481018490526064016020604051808303816000875af1158015611b05573d6000803e3d6000fd5b505050506040513d601f19601f82011682018060405250810190611b29919061282f565b50600b6000611b366120fe565b6001600160a01b03166001600160a01b0316815260200190815260200160002054600003611b9b57600e611b686120fe565b81546001810183556000928352602090922090910180546001600160a01b0319166001600160a01b039092169190911790555b80600b6000611ba86120fe565b6001600160a01b03166001600160a01b031681526020019081526020016000206000828254611bd791906127c2565b909155505050565b600254600160a01b900460ff1615611c2f5760405162461bcd60e51b8152602060048201526013602482015272105b1c9958591e481a5b9a5d1a585b1a5e9959606a1b60448201526064016108c4565b6040810151600480546001600160a01b039283166001600160a01b0319918216179091556020830151600580549190931691161790556060810151611c739061221c565b608081015160075560a081015160065560c0810151601080546001600160a01b03199081166001600160a01b039384161790915560e09092015160038054909316911617905560028054600160a01b60ff60a01b19909116179055565b6004546001600160a01b0316611ce46120fe565b6001600160a01b031614611d0a5760405162461bcd60e51b81526004016108c490612711565b6001600160a01b03166000818152600c60205260408120805460ff19166001908117909155600d805491820181559091527fd7b6990105719101dabeb77144f2a3385c8033acd3af97e9423a695e81ad1eb50180546001600160a01b0319169091179055565b6060600d80548060200260200160405190810160405280929190818152602001828054801561100a576020028201919060005260206000209081546001600160a01b03168152600190910190602001808311610fec575050505050905090565b6004546001600160a01b0316611de46120fe565b6001600160a01b031614611e0a5760405162461bcd60e51b81526004016108c490612711565b60005b600954811015611fa9576000600b600060098481548110611e3057611e30612753565b60009182526020808320909101546001600160a01b0316835282019290925260400181205460098054919350600b9183919086908110611e7257611e72612753565b6000918252602080832091909101546001600160a01b039081168452908301939093526040918201902092909255601054915163a9059cbb60e01b815285821660048201526024810184905291169063a9059cbb906044016020604051808303816000875af1158015611ee9573d6000803e3d6000fd5b505050506040513d601f19601f82011682018060405250810190611f0d919061282f565b50826001600160a01b03166350f3dbec60098481548110611f3057611f30612753565b60009182526020909120015460405160e083901b6001600160e01b03191681526001600160a01b03909116600482015260248101849052604401600060405180830381600087803b158015611f8457600080fd5b505af1158015611f98573d6000803e3d6000fd5b505060019093019250611e0d915050565b50611fb660096000612447565b50565b6004546001600160a01b0316611fcd6120fe565b6001600160a01b031614611ff35760405162461bcd60e51b81526004016108c490612711565b600480546001600160a01b0319166001600160a01b0392909216919091179055565b61201d6121be565b6001600160a01b03811661204757604051631e4fbdf760e01b8152600060048201526024016108c4565b611fb68161221c565b6004546001600160a01b03166120646120fe565b6001600160a01b03161461208a5760405162461bcd60e51b81526004016108c490612711565b6120be6120956120fe565b604080516001600160a01b039092166020830152016040516020818303038152906040526122ab565b506120c76120fe565b6001600160a01b03167fd802e7c7f1646e3318c03abed1e468bdf913f45331a68dc912a0d645eb646a4260405160405180910390a2565b60006121086123ac565b905090565b60005b600e54811015611fb6576000600b6000600e848154811061213357612133612753565b60009182526020808320909101546001600160a01b0316835282019290925260400190205460065490915081106121b5576009600e838154811061217957612179612753565b60009182526020808320909101548354600181018555938352912090910180546001600160a01b0319166001600160a01b039092169190911790555b50600101612110565b6121c66120fe565b6001600160a01b03166121e16002546001600160a01b031690565b6001600160a01b0316146108d7576121f76120fe565b60405163118cdaa760e01b81526001600160a01b0390911660048201526024016108c4565b600280546001600160a01b038381166001600160a01b0319831681179093556040519116919082907f8be0079c531659141344cd1fd0a4f28419497f9722a3daafe3b4186f6b6457e090600090a35050565b60088390556040518381527fa2353d33775668d31add0688b8ed09ca3a91dc8129126fcdbcbda3a887db60db9060200160405180910390a1505050565b60008054600180820180845583805291929091839081106122ce576122ce612753565b90600052602060002090602091828204019190066101000a81548160ff0219169083151502179055506000818360405160200161230c9291906129d3565b604051602081830303815290604052905060006123276123f0565b90506000818360405160200161233e9291906129d3565b60408051601f198184030181528282528051602080830191909120600089815260019092529290208290559250907fd91fc3685b930310b008ec37d2334870cab88a023ed8cc628a2e2ccd4e55d2029061239b90859087906129d3565b60405180910390a150505050919050565b60007f00000000000000000000000000000000000000000000000000000000000000006001600160a01b031633036123eb575060131936013560601c90565b503390565b6000806124016364e621274261277f565b9050600061241060038361281b565b61241b9060016127c2565b905046600114612435576124308160016127c2565b612440565b6124408160046127c2565b9250505090565b5080546000825590600052602060002090810190611fb691905b808211156124755760008155600101612461565b5090565b60006020828403121561248b57600080fd5b5035919050565b80356001600160a01b03811681146124a957600080fd5b919050565b6000602082840312156124c057600080fd5b6124c982612492565b9392505050565b6020808252825182820181905260009190848201906040850190845b818110156125115783516001600160a01b0316835292840192918401916001016124ec565b50909695505050505050565b60006020828403121561252f57600080fd5b8135600581106124c957600080fd5b634e487b7160e01b600052602160045260246000fd5b602081016005831061257657634e487b7160e01b600052602160045260246000fd5b91905290565b60008060006040848603121561259157600080fd5b83359250602084013567ffffffffffffffff808211156125b057600080fd5b818601915086601f8301126125c457600080fd5b8135818111156125d357600080fd5b8760208285010111156125e557600080fd5b6020830194508093505050509250925092565b634e487b7160e01b600052604160045260246000fd5b604051610120810167ffffffffffffffff81118282101715612632576126326125f8565b60405290565b604051601f8201601f1916810167ffffffffffffffff81118282101715612661576126616125f8565b604052919050565b6000610120828403121561267c57600080fd5b61268461260e565b61268d83612492565b815261269b60208401612492565b60208201526126ac60408401612492565b60408201526126bd60608401612492565b60608201526080830135608082015260a083013560a08201526126e260c08401612492565b60c08201526126f360e08401612492565b60e0820152610100612706818501612492565b908201529392505050565b60208082526022908201527f4f6e6c792073656c6c65722063616e2063616c6c20746869732066756e63746960408201526137b760f11b606082015260800190565b634e487b7160e01b600052603260045260246000fd5b634e487b7160e01b600052601160045260246000fd5b8181038181111561279257612792612769565b92915050565b634e487b7160e01b600052601260045260246000fd5b6000826127bd576127bd612798565b500690565b8082018082111561279257612792612769565b6000600182016127e7576127e7612769565b5060010190565b634e487b7160e01b600052603160045260246000fd5b808202811582820484141761279257612792612769565b60008261282a5761282a612798565b500490565b60006020828403121561284157600080fd5b815180151581146124c957600080fd5b600067ffffffffffffffff82111561286b5761286b6125f8565b50601f01601f191660200190565b6000806040838503121561288c57600080fd5b82359150602083013567ffffffffffffffff8111156128aa57600080fd5b8301601f810185136128bb57600080fd5b80356128ce6128c982612851565b612638565b8181528660208385010111156128e357600080fd5b816020840160208301376000602083830101528093505050509250929050565b60005b8381101561291e578181015183820152602001612906565b50506000910152565b6000806040838503121561293a57600080fd5b82519150602083015167ffffffffffffffff81111561295857600080fd5b8301601f8101851361296957600080fd5b80516129776128c982612851565b81815286602083850101111561298c57600080fd5b61299d826020830160208601612903565b8093505050509250929050565b8183823760009101908152919050565b6000602082840312156129cc57600080fd5b5051919050565b82815260406020820152600082518060408401526129f8816060850160208701612903565b601f01601f191691909101606001939250505056fea2646970667358221220ae431b5095d4e69992f86e5574feddf8fe61e82153c665e2ce4ebeec0bea966564736f6c63430008190033","linkReferences":{}},"methodIdentifiers":{"buyerWithdraw()":"7cc947d0","changeLotteryState(uint8)":"683e93e1","deposit(uint256)":"b6b55f25","deposits(address)":"fc7e286d","endLottery()":"1593a8c7","fulfillRandomness(uint256,bytes)":"b3f6b99a","getDepositedAmount(address)":"e9081ec7","getEligibleParticipants()":"9abdccd1","getParticipants()":"5aa68ac0","getWinners()":"df15c37e","hasMinted(address)":"38e21cce","initialize((address,address,address,address,uint256,uint256,address,address,address))":"cf54d3b8","initialized()":"158ef93e","isParticipantEligible(address)":"8a6723e6","isTrustedForwarder(address)":"572b6c05","isWinner(address)":"9d9ca28d","lotteryState()":"6939864b","minimumDepositAmount()":"080c279a","mintMyNFT()":"26170480","multisigWalletAddress()":"a61fb2ba","nftContractAddr()":"2c23ec8e","numberOfTickets()":"45745c10","operatorAddr()":"f3f18c37","owner()":"8da5cb5b","randomNumber()":"ccbac9f5","renounceOwnership()":"715018a6","requestPending(uint256)":"75ce7fff","requestRandomness()":"f8413b07","requestedHash(uint256)":"c4f8f27b","selectWinners()":"1a0de74c","seller()":"08551a53","sellerWithdraw()":"66af746b","setMinimumDepositAmount(uint256)":"aab483d6","setMultisigWalletAddress(address)":"60d50da3","setNftContractAddr(address)":"3644c27c","setNumberOfTickets(uint256)":"99bd69d6","setSeller(address)":"e99d2866","setUsdcContractAddr(address)":"94d898de","setWinner(address)":"d9fca769","startLottery()":"160344e2","transferNonWinnerDeposits(address)":"e63c4609","transferOwnership(address)":"f2fde38b","usdcContractAddr()":"99dbf4b5","winnerAddresses(uint256)":"045f9c97","winners(address)":"6bd5450a"},"id":5}