{"abi":[{"type":"function","name":"buyerWithdraw","inputs":[],"outputs":[],"stateMutability":"nonpayable"},{"type":"function","name":"changeLotteryState","inputs":[{"name":"_newState","type":"uint8","internalType":"enum SaleBase.LotteryState"}],"outputs":[],"stateMutability":"nonpayable"},{"type":"function","name":"deposit","inputs":[{"name":"amount","type":"uint256","internalType":"uint256"}],"outputs":[],"stateMutability":"nonpayable"},{"type":"function","name":"deposits","inputs":[{"name":"","type":"address","internalType":"address"}],"outputs":[{"name":"","type":"uint256","internalType":"uint256"}],"stateMutability":"view"},{"type":"function","name":"endLottery","inputs":[],"outputs":[],"stateMutability":"nonpayable"},{"type":"function","name":"fulfillRandomness","inputs":[{"name":"randomness","type":"uint256","internalType":"uint256"},{"name":"dataWithRound","type":"bytes","internalType":"bytes"}],"outputs":[],"stateMutability":"nonpayable"},{"type":"function","name":"getDepositedAmount","inputs":[{"name":"participant","type":"address","internalType":"address"}],"outputs":[{"name":"","type":"uint256","internalType":"uint256"}],"stateMutability":"view"},{"type":"function","name":"getParticipants","inputs":[],"outputs":[{"name":"","type":"address[]","internalType":"address[]"}],"stateMutability":"view"},{"type":"function","name":"getWinners","inputs":[],"outputs":[{"name":"","type":"address[]","internalType":"address[]"}],"stateMutability":"view"},{"type":"function","name":"hasMinted","inputs":[{"name":"","type":"address","internalType":"address"}],"outputs":[{"name":"","type":"bool","internalType":"bool"}],"stateMutability":"view"},{"type":"function","name":"initialize","inputs":[{"name":"config","type":"tuple","internalType":"struct StructsLibrary.ILotteryV1BaseConfig","components":[{"name":"_gelatoVrfOperator","type":"address","internalType":"address"},{"name":"_blessedOperator","type":"address","internalType":"address"},{"name":"_owner","type":"address","internalType":"address"},{"name":"_ticketAmount","type":"uint256","internalType":"uint256"},{"name":"_ticketPrice","type":"uint256","internalType":"uint256"},{"name":"_usdcContractAddr","type":"address","internalType":"address"},{"name":"_nftContractAddr","type":"address","internalType":"address"},{"name":"_multisigWalletAddress","type":"address","internalType":"address"},{"name":"_prevPhaseContractAddr","type":"address","internalType":"address"}]}],"outputs":[],"stateMutability":"nonpayable"},{"type":"function","name":"initialized","inputs":[],"outputs":[{"name":"","type":"bool","internalType":"bool"}],"stateMutability":"view"},{"type":"function","name":"isTrustedForwarder","inputs":[{"name":"forwarder","type":"address","internalType":"address"}],"outputs":[{"name":"","type":"bool","internalType":"bool"}],"stateMutability":"view"},{"type":"function","name":"isWinner","inputs":[{"name":"_participant","type":"address","internalType":"address"}],"outputs":[{"name":"","type":"bool","internalType":"bool"}],"stateMutability":"view"},{"type":"function","name":"lotteryState","inputs":[],"outputs":[{"name":"","type":"uint8","internalType":"enum SaleBase.LotteryState"}],"stateMutability":"view"},{"type":"function","name":"mintMyNFT","inputs":[],"outputs":[],"stateMutability":"nonpayable"},{"type":"function","name":"multisigWalletAddress","inputs":[],"outputs":[{"name":"","type":"address","internalType":"address"}],"stateMutability":"view"},{"type":"function","name":"nftContractAddr","inputs":[],"outputs":[{"name":"","type":"address","internalType":"address"}],"stateMutability":"view"},{"type":"function","name":"numberOfTickets","inputs":[],"outputs":[{"name":"","type":"uint256","internalType":"uint256"}],"stateMutability":"view"},{"type":"function","name":"operatorAddr","inputs":[],"outputs":[{"name":"","type":"address","internalType":"address"}],"stateMutability":"view"},{"type":"function","name":"owner","inputs":[],"outputs":[{"name":"","type":"address","internalType":"address"}],"stateMutability":"view"},{"type":"function","name":"randomNumber","inputs":[],"outputs":[{"name":"","type":"uint256","internalType":"uint256"}],"stateMutability":"view"},{"type":"function","name":"renounceOwnership","inputs":[],"outputs":[],"stateMutability":"nonpayable"},{"type":"function","name":"requestPending","inputs":[{"name":"","type":"uint256","internalType":"uint256"}],"outputs":[{"name":"","type":"bool","internalType":"bool"}],"stateMutability":"view"},{"type":"function","name":"requestRandomness","inputs":[],"outputs":[],"stateMutability":"nonpayable"},{"type":"function","name":"requestedHash","inputs":[{"name":"","type":"uint256","internalType":"uint256"}],"outputs":[{"name":"","type":"bytes32","internalType":"bytes32"}],"stateMutability":"view"},{"type":"function","name":"selectWinners","inputs":[],"outputs":[],"stateMutability":"nonpayable"},{"type":"function","name":"seller","inputs":[],"outputs":[{"name":"","type":"address","internalType":"address"}],"stateMutability":"view"},{"type":"function","name":"sellerWithdraw","inputs":[],"outputs":[],"stateMutability":"nonpayable"},{"type":"function","name":"setSeller","inputs":[{"name":"_seller","type":"address","internalType":"address"}],"outputs":[],"stateMutability":"nonpayable"},{"type":"function","name":"startLottery","inputs":[],"outputs":[],"stateMutability":"nonpayable"},{"type":"function","name":"ticketPrice","inputs":[],"outputs":[{"name":"","type":"uint256","internalType":"uint256"}],"stateMutability":"view"},{"type":"function","name":"transferNonWinnerDeposits","inputs":[{"name":"lotteryV2addr","type":"address","internalType":"address"}],"outputs":[],"stateMutability":"nonpayable"},{"type":"function","name":"transferOwnership","inputs":[{"name":"newOwner","type":"address","internalType":"address"}],"outputs":[],"stateMutability":"nonpayable"},{"type":"function","name":"usdcContractAddr","inputs":[],"outputs":[{"name":"","type":"address","internalType":"address"}],"stateMutability":"view"},{"type":"function","name":"winnerAddresses","inputs":[{"name":"","type":"uint256","internalType":"uint256"}],"outputs":[{"name":"","type":"address","internalType":"address"}],"stateMutability":"view"},{"type":"function","name":"winners","inputs":[{"name":"","type":"address","internalType":"address"}],"outputs":[{"name":"","type":"bool","internalType":"bool"}],"stateMutability":"view"},{"type":"event","name":"BuyerDeposited","inputs":[{"name":"buyer","type":"address","indexed":true,"internalType":"address"},{"name":"amount","type":"uint256","indexed":true,"internalType":"uint256"}],"anonymous":false},{"type":"event","name":"BuyerWithdrew","inputs":[{"name":"buyer","type":"address","indexed":true,"internalType":"address"},{"name":"amount","type":"uint256","indexed":true,"internalType":"uint256"}],"anonymous":false},{"type":"event","name":"DepositsReturned","inputs":[{"name":"returnedDepositsCount","type":"uint256","indexed":false,"internalType":"uint256"}],"anonymous":false},{"type":"event","name":"LotteryEnded","inputs":[],"anonymous":false},{"type":"event","name":"LotteryStarted","inputs":[],"anonymous":false},{"type":"event","name":"OwnershipTransferred","inputs":[{"name":"previousOwner","type":"address","indexed":true,"internalType":"address"},{"name":"newOwner","type":"address","indexed":true,"internalType":"address"}],"anonymous":false},{"type":"event","name":"RandomFulfilled","inputs":[{"name":"number","type":"uint256","indexed":false,"internalType":"uint256"}],"anonymous":false},{"type":"event","name":"RandomRequested","inputs":[{"name":"requester","type":"address","indexed":true,"internalType":"address"}],"anonymous":false},{"type":"event","name":"RequestedRandomness","inputs":[{"name":"round","type":"uint256","indexed":false,"internalType":"uint256"},{"name":"data","type":"bytes","indexed":false,"internalType":"bytes"}],"anonymous":false},{"type":"event","name":"WinnerSelected","inputs":[{"name":"winner","type":"address","indexed":true,"internalType":"address"}],"anonymous":false},{"type":"error","name":"OwnableInvalidOwner","inputs":[{"name":"owner","type":"address","internalType":"address"}]},{"type":"error","name":"OwnableUnauthorizedAccount","inputs":[{"name":"account","type":"address","internalType":"address"}]}],"bytecode":{"object":"0x60a06040526000805460ff60a81b1916905534801561001d57600080fd5b5073d8253782c45a12053594b9deb72d8e8ab2fca54c338061005957604051631e4fbdf760e01b81526000600482015260240160405180910390fd5b61006281610074565b506001600160a01b03166080526100c4565b600080546001600160a01b038381166001600160a01b0319831681178455604051919092169283917f8be0079c531659141344cd1fd0a4f28419497f9722a3daafe3b4186f6b6457e09190a35050565b6080516129916100e66000396000818161032e01526122cf01526129916000f3fe608060405234801561001057600080fd5b50600436106102275760003560e01c8063715018a611610130578063c4f8f27b116100b8578063e99d28661161007c578063e99d2866146104eb578063f2fde38b146104fe578063f3f18c3714610511578063f8413b0714610524578063fc7e286d1461052c57600080fd5b8063c4f8f27b1461047e578063ccbac9f51461049e578063df15c37e146104a7578063e63c4609146104af578063e9081ec7146104c257600080fd5b806399dbf4b5116100ff57806399dbf4b5146104065780639d9ca28d14610419578063a61fb2ba14610445578063b3f6b99a14610458578063b6b55f251461046b57600080fd5b8063715018a6146103d257806375ce7fff146103da5780637cc947d0146103ed5780638da5cb5b146103f557600080fd5b80632c23ec8e116101b35780635aa68ac0116101825780635aa68ac01461035e57806366af746b14610373578063683e93e11461037b5780636939864b1461038e5780636bd5450a146103af57600080fd5b80632c23ec8e146102df57806338e21cce146102f257806345745c1014610315578063572b6c051461031e57600080fd5b8063158ef93e116101fa578063158ef93e1461029b5780631593a8c7146102bf578063160344e2146102c75780631a0de74c146102cf57806326170480146102d757600080fd5b8063045f9c971461022c57806308551a531461025c578063101750801461026f5780631209b1f614610284575b600080fd5b61023f61023a366004612398565b61054c565b6040516001600160a01b0390911681526020015b60405180910390f35b60025461023f906001600160a01b031681565b61028261027d36600461243e565b610576565b005b61028d60045481565b604051908152602001610253565b6000546102af90600160a81b900460ff1681565b6040519015158152602001610253565b61028261067d565b6102826106ec565b6102826107c7565b610282610c91565b600a5461023f906001600160a01b031681565b6102af6103003660046124e6565b60056020526000908152604090205460ff1681565b61028d60035481565b6102af61032c3660046124e6565b7f00000000000000000000000000000000000000000000000000000000000000006001600160a01b0390811691161490565b610366610e58565b6040516102539190612508565b610282610eba565b610282610389366004612555565b6110eb565b6000546103a290600160a01b900460ff1681565b604051610253919061258c565b6102af6103bd3660046124e6565b60076020526000908152604090205460ff1681565b610282611152565b6102af6103e8366004612398565b611166565b61028261119a565b6000546001600160a01b031661023f565b600b5461023f906001600160a01b031681565b6102af6104273660046124e6565b6001600160a01b031660009081526007602052604090205460ff1690565b60015461023f906001600160a01b031681565b6102826104663660046125b4565b6113b6565b610282610479366004612398565b611590565b61028d61048c366004612398565b600d6020526000908152604090205481565b61028d600f5481565b61036661195f565b6102826104bd3660046124e6565b6119bf565b61028d6104d03660046124e6565b6001600160a01b031660009081526006602052604090205490565b6102826104f93660046124e6565b611ba5565b61028261050c3660046124e6565b611c01565b600e5461023f906001600160a01b031681565b610282611c3c565b61028d61053a3660046124e6565b60066020526000908152604090205481565b6008818154811061055c57600080fd5b6000918252602090912001546001600160a01b0316905081565b600054600160a81b900460ff16156105cb5760405162461bcd60e51b8152602060048201526013602482015272105b1c9958591e481a5b9a5d1a585b1a5e9959606a1b60448201526064015b60405180910390fd5b6020810151600280546001600160a01b039283166001600160a01b0319918216179091558251600e8054919093169116179055604081015161060c90611d5f565b6060810151600355608081015160045560a0810151600b80546001600160a01b03199081166001600160a01b039384161790915560c0830151600a8054831691841691909117905560e09092015160018054909316911617905560008054600160a81b60ff60a81b19909116179055565b6002546001600160a01b0316610691611daf565b6001600160a01b0316146106b75760405162461bcd60e51b81526004016105c290612630565b6106c160026110eb565b6040517f9c89a6ed7228533196a3f962acc80d61a9c53bdea6b910741bf754f5aaa7569e90600090a1565b6002546001600160a01b0316610700611daf565b6001600160a01b0316146107265760405162461bcd60e51b81526004016105c290612630565b60008054600160a01b900460ff16600281111561074557610745612576565b146107925760405162461bcd60e51b815260206004820152601760248201527f53616c6520697320696e2061637469766520737461746500000000000000000060448201526064016105c2565b61079c60016110eb565b6040517fd029c7c68d943f92286a7825fa6aa2deefa1eee46cee6c91b7e483fd06d27baf90600090a1565b6002546001600160a01b03166107db611daf565b6001600160a01b0316146108015760405162461bcd60e51b81526004016105c290612630565b6002600054600160a01b900460ff16600281111561082157610821612576565b1461083e5760405162461bcd60e51b81526004016105c290612672565b6000600f54116108905760405162461bcd60e51b815260206004820152601e60248201527f52616e646f6d206e756d626572206973206e6f742067656e657261746564000060448201526064016105c2565b6000600354116108e25760405162461bcd60e51b815260206004820152601b60248201527f4e6f207469636b657473206c65667420746f20616c6c6f63617465000000000060448201526064016105c2565b60095460035481116109a95760005b818110156109925760006009828154811061090e5761090e6126a1565b6000918252602090912001546001600160a01b03169050610947816001600160a01b031660009081526007602052604090205460ff1690565b6109895761095481611dbe565b6040516001600160a01b038216907f1d4c260f1824cd028e6c9e6e31c3a0b94f2513e7a641113ec759d382f9bdd5a190600090a25b506001016108f1565b5061099f60096000612366565b6000600355610c3f565b60005b81811015610abd5760006109c082846126cd565b600f546109cd91906126fc565b6109d79083612710565b90506000600982815481106109ee576109ee6126a1565b600091825260209091200154600980546001600160a01b0390921692509084908110610a1c57610a1c6126a1565b600091825260209091200154600980546001600160a01b039092169184908110610a4857610a486126a1565b9060005260206000200160006101000a8154816001600160a01b0302191690836001600160a01b031602179055508060098481548110610a8a57610a8a6126a1565b600091825260209091200180546001600160a01b0319166001600160a01b039290921691909117905550506001016109ac565b5060005b600354811015610b6457600060098281548110610ae057610ae06126a1565b6000918252602090912001546001600160a01b03169050610b19816001600160a01b031660009081526007602052604090205460ff1690565b610b5b57610b2681611dbe565b6040516001600160a01b038216907f1d4c260f1824cd028e6c9e6e31c3a0b94f2513e7a641113ec759d382f9bdd5a190600090a25b50600101610ac1565b506003546000905b82811015610bf15760098181548110610b8757610b876126a1565b600091825260209091200154600980546001600160a01b039092169184908110610bb357610bb36126a1565b600091825260209091200180546001600160a01b0319166001600160a01b039290921691909117905581610be681612723565b925050600101610b6c565b50805b82811015610c37576009805480610c0d57610c0d61273c565b600082815260209020810160001990810180546001600160a01b0319169055019055600101610bf4565b505060006003555b600354600003610c8e576000805460ff60a01b1916600160a11b179055610c64611e4a565b6040517f9c89a6ed7228533196a3f962acc80d61a9c53bdea6b910741bf754f5aaa7569e90600090a15b50565b60056000610c9d611daf565b6001600160a01b0316815260208101919091526040016000205460ff1615610cfc5760405162461bcd60e51b815260206004820152601260248201527113919508185b1c9958591e481b5a5b9d195960721b60448201526064016105c2565b6002600054600160a01b900460ff166002811115610d1c57610d1c612576565b14610d395760405162461bcd60e51b81526004016105c290612672565b610d44610427611daf565b610d895760405162461bcd60e51b815260206004820152601660248201527521b0b63632b91034b9903737ba1030903bb4b73732b960511b60448201526064016105c2565b600160056000610d97611daf565b6001600160a01b0316815260208101919091526040016000908120805460ff191692151592909217909155600681610dcd611daf565b6001600160a01b039081168252602082019290925260400160002091909155600a5416636b8f60f6610dfd611daf565b6040516001600160e01b031960e084901b1681526001600160a01b039091166004820152602401600060405180830381600087803b158015610e3e57600080fd5b505af1158015610e52573d6000803e3d6000fd5b50505050565b60606009805480602002602001604051908101604052809291908181526020018280548015610eb057602002820191906000526020600020905b81546001600160a01b03168152600190910190602001808311610e92575b5050505050905090565b6002546001600160a01b0316610ece611daf565b6001600160a01b031614610ef45760405162461bcd60e51b81526004016105c290612630565b6002600054600160a01b900460ff166002811115610f1457610f14612576565b14610f555760405162461bcd60e51b8152602060048201526011602482015270131bdd1d195c9e481b9bdd08195b991959607a1b60448201526064016105c2565b6000805b600854811015610fce57600060088281548110610f7857610f786126a1565b60009182526020808320909101546001600160a01b03168083526006909152604090912054909150610faa9084612710565b6001600160a01b039091166000908152600660205260408120559150600101610f59565b5060006064610fde836005612752565b610fe89190612769565b90506000610ff682846126cd565b600b5460015460405163a9059cbb60e01b81526001600160a01b03918216600482015260248101869052929350169063a9059cbb906044016020604051808303816000875af115801561104d573d6000803e3d6000fd5b505050506040513d601f19601f82011682018060405250810190611071919061277d565b50600b5460025460405163a9059cbb60e01b81526001600160a01b0391821660048201526024810184905291169063a9059cbb906044016020604051808303816000875af11580156110c7573d6000803e3d6000fd5b505050506040513d601f19601f82011682018060405250810190610e52919061277d565b6002546001600160a01b03166110ff611daf565b6001600160a01b0316146111255760405162461bcd60e51b81526004016105c290612630565b6000805482919060ff60a01b1916600160a01b83600281111561114a5761114a612576565b021790555050565b61115a61212d565b6111646000611d5f565b565b600c818154811061117657600080fd5b9060005260206000209060209182820401919006915054906101000a900460ff1681565b6002600054600160a01b900460ff1660028111156111ba576111ba612576565b146111d75760405162461bcd60e51b81526004016105c290612672565b600760006111e3611daf565b6001600160a01b0316815260208101919091526040016000205460ff161561124d5760405162461bcd60e51b815260206004820152601760248201527f57696e6e6572732063616e6e6f7420776974686472617700000000000000000060448201526064016105c2565b60006006600061125b611daf565b6001600160a01b03166001600160a01b03168152602001908152602001600020549050600081116112c55760405162461bcd60e51b81526020600482015260146024820152734e6f2066756e647320746f20776974686472617760601b60448201526064016105c2565b6000600660006112d3611daf565b6001600160a01b039081168252602082019290925260400160002091909155600b541663a9059cbb611303611daf565b6040516001600160e01b031960e084901b1681526001600160a01b039091166004820152602481018490526044016020604051808303816000875af1158015611350573d6000803e3d6000fd5b505050506040513d601f19601f82011682018060405250810190611374919061277d565b508061137e611daf565b6001600160a01b03167f1f280cd00e67ed50213ac03febd5be151f96b7f7db2f85312aa0feff99f8bdab60405160405180910390a350565b600e546001600160a01b031633146114005760405162461bcd60e51b815260206004820152600d60248201526c37b7363c9037b832b930ba37b960991b60448201526064016105c2565b600061140e828401846127c7565b915050600080828060200190518101906114289190612875565b915091506000858560405161143e9291906128f8565b604051809103902090506000600d60008581526020019081526020016000205482149050600c8481548110611475576114756126a1565b90600052602060002090602091828204019190069054906101000a900460ff166114e15760405162461bcd60e51b815260206004820152601c60248201527f726571756573742066756c66696c6c6564206f72206d697373696e670000000060448201526064016105c2565b80156115865760408051602081018a905230918101919091524660608201526080810185905260a0016040516020818303038152906040528051906020012060001c975061153088858561218b565b6000600c8581548110611545576115456126a1565b90600052602060002090602091828204019190066101000a81548160ff021916908315150217905550600d6000858152602001908152602001600020600090555b5050505050505050565b6001600054600160a01b900460ff1660028111156115b0576115b0612576565b146115f25760405162461bcd60e51b815260206004820152601260248201527153616c65206973206e6f742061637469766560701b60448201526064016105c2565b600b546001600160a01b031661164a5760405162461bcd60e51b815260206004820152601d60248201527f5553444320636f6e74726163742061646472657373206e6f742073657400000060448201526064016105c2565b6004548110156116945760405162461bcd60e51b8152602060048201526015602482015274139bdd08195b9bdd59da08199d5b991cc81cd95b9d605a1b60448201526064016105c2565b600b5481906001600160a01b031663dd62ed3e6116af611daf565b6040516001600160e01b031960e084901b1681526001600160a01b039091166004820152306024820152604401602060405180830381865afa1580156116f9573d6000803e3d6000fd5b505050506040513d601f19601f8201168201806040525081019061171d9190612908565b10156117645760405162461bcd60e51b8152602060048201526016602482015275496e73756666696369656e7420616c6c6f77616e636560501b60448201526064016105c2565b600f54156117da5760405162461bcd60e51b815260206004820152603760248201527f4c6f7474657279206465706f7369747320617265206c6f636b65643b2072616e60448201527f646f6d206e756d6265722069732067656e65726174656400000000000000000060648201526084016105c2565b600b546001600160a01b03166323b872dd6117f3611daf565b6040516001600160e01b031960e084901b1681526001600160a01b039091166004820152306024820152604481018490526064016020604051808303816000875af1158015611846573d6000803e3d6000fd5b505050506040513d601f19601f8201168201806040525081019061186a919061277d565b5060066000611877611daf565b6001600160a01b03166001600160a01b03168152602001908152602001600020546000036118dc5760096118a9611daf565b81546001810183556000928352602090922090910180546001600160a01b0319166001600160a01b039092169190911790555b80600660006118e9611daf565b6001600160a01b03166001600160a01b0316815260200190815260200160002060008282546119189190612710565b90915550819050611927611daf565b6001600160a01b03167f21040858e63c11c046482f61f290bbe25972fc74b11b4570a01f9241082d21f160405160405180910390a350565b60606008805480602002602001604051908101604052809291908181526020018280548015610eb0576020028201919060005260206000209081546001600160a01b03168152600190910190602001808311610e92575050505050905090565b6002546001600160a01b03166119d3611daf565b6001600160a01b0316146119f95760405162461bcd60e51b81526004016105c290612630565b60005b600954811015611b985760006006600060098481548110611a1f57611a1f6126a1565b60009182526020808320909101546001600160a01b031683528201929092526040018120546009805491935060069183919086908110611a6157611a616126a1565b6000918252602080832091909101546001600160a01b039081168452908301939093526040918201902092909255600b54915163a9059cbb60e01b815285821660048201526024810184905291169063a9059cbb906044016020604051808303816000875af1158015611ad8573d6000803e3d6000fd5b505050506040513d601f19601f82011682018060405250810190611afc919061277d565b50826001600160a01b03166350f3dbec60098481548110611b1f57611b1f6126a1565b60009182526020909120015460405160e083901b6001600160e01b03191681526001600160a01b03909116600482015260248101849052604401600060405180830381600087803b158015611b7357600080fd5b505af1158015611b87573d6000803e3d6000fd5b5050600190930192506119fc915050565b50610c8e60096000612366565b6002546001600160a01b0316611bb9611daf565b6001600160a01b031614611bdf5760405162461bcd60e51b81526004016105c290612630565b600280546001600160a01b0319166001600160a01b0392909216919091179055565b611c0961212d565b6001600160a01b038116611c3357604051631e4fbdf760e01b8152600060048201526024016105c2565b610c8e81611d5f565b6002546001600160a01b0316611c50611daf565b6001600160a01b031614611c765760405162461bcd60e51b81526004016105c290612630565b6001600054600160a01b900460ff166002811115611c9657611c96612576565b14611cd85760405162461bcd60e51b815260206004820152601260248201527153616c65206973206e6f742061637469766560701b60448201526064016105c2565b6000805460ff60a01b1916600160a11b179055611d1f611cf6611daf565b604080516001600160a01b039092166020830152016040516020818303038152906040526121c8565b50611d28611daf565b6001600160a01b03167fd802e7c7f1646e3318c03abed1e468bdf913f45331a68dc912a0d645eb646a4260405160405180910390a2565b600080546001600160a01b038381166001600160a01b0319831681178455604051919092169283917f8be0079c531659141344cd1fd0a4f28419497f9722a3daafe3b4186f6b6457e09190a35050565b6000611db96122cb565b905090565b6001600160a01b038116600081815260076020526040808220805460ff1916600190811790915560088054918201815583527ff3f7a9fe364faab93b216da50a3214154f22a0a2b415b23a84c8169e8b636ee30180546001600160a01b03191684179055517f1d4c260f1824cd028e6c9e6e31c3a0b94f2513e7a641113ec759d382f9bdd5a19190a250565b6002546001600160a01b0316611e5e611daf565b6001600160a01b031614611e845760405162461bcd60e51b81526004016105c290612630565b6002600054600160a01b900460ff166002811115611ea457611ea4612576565b14611ec15760405162461bcd60e51b81526004016105c290612672565b60095460008167ffffffffffffffff811115611edf57611edf6123b1565b604051908082528060200260200182016040528015611f08578160200160208202803683370190505b50905060005b82811015611f795760098181548110611f2957611f296126a1565b9060005260206000200160009054906101000a90046001600160a01b0316828281518110611f5957611f596126a1565b6001600160a01b0390921660209283029190910190910152600101611f0e565b5060005b828110156120e9576000828281518110611f9957611f996126a1565b6020908102919091018101516001600160a01b0381166000908152600683526040808220805490839055600790945290205490925060ff161561206657600060045482611fe691906126cd565b600b5460405163a9059cbb60e01b81526001600160a01b0386811660048301526024820184905292935091169063a9059cbb906044016020604051808303816000875af115801561203b573d6000803e3d6000fd5b505050506040513d601f19601f8201168201806040525081019061205f919061277d565b50506120df565b600b5460405163a9059cbb60e01b81526001600160a01b038481166004830152602482018490529091169063a9059cbb906044016020604051808303816000875af11580156120b9573d6000803e3d6000fd5b505050506040513d601f19601f820116820180604052508101906120dd919061277d565b505b5050600101611f7d565b506120f660096000612366565b6040518281527f01f8aef848121bbf182106b55119c1094063c572b6c8dcb09040e1203a17abf99060200160405180910390a15050565b612135611daf565b6001600160a01b03166121506000546001600160a01b031690565b6001600160a01b03161461116457612166611daf565b60405163118cdaa760e01b81526001600160a01b0390911660048201526024016105c2565b600f8390556040518381527f79518eb4b6f70742e6651b03a2ac2bc644ea2613e8de56247857c5be5fc2a0ba9060200160405180910390a1505050565b600c80546001808201808455600084905291929091839081106121ed576121ed6126a1565b90600052602060002090602091828204019190066101000a81548160ff0219169083151502179055506000818360405160200161222b929190612921565b6040516020818303038152906040529050600061224661230f565b90506000818360405160200161225d929190612921565b60408051601f1981840301815282825280516020808301919091206000898152600d9092529290208290559250907fd91fc3685b930310b008ec37d2334870cab88a023ed8cc628a2e2ccd4e55d202906122ba9085908790612921565b60405180910390a150505050919050565b60007f00000000000000000000000000000000000000000000000000000000000000006001600160a01b0316330361230a575060131936013560601c90565b503390565b6000806123206364e62127426126cd565b9050600061232f600383612769565b61233a906001612710565b9050466001146123545761234f816001612710565b61235f565b61235f816004612710565b9250505090565b5080546000825590600052602060002090810190610c8e91905b808211156123945760008155600101612380565b5090565b6000602082840312156123aa57600080fd5b5035919050565b634e487b7160e01b600052604160045260246000fd5b604051610120810167ffffffffffffffff811182821017156123eb576123eb6123b1565b60405290565b604051601f8201601f1916810167ffffffffffffffff8111828210171561241a5761241a6123b1565b604052919050565b80356001600160a01b038116811461243957600080fd5b919050565b6000610120828403121561245157600080fd5b6124596123c7565b61246283612422565b815261247060208401612422565b602082015261248160408401612422565b604082015260608301356060820152608083013560808201526124a660a08401612422565b60a08201526124b760c08401612422565b60c08201526124c860e08401612422565b60e08201526101006124db818501612422565b908201529392505050565b6000602082840312156124f857600080fd5b61250182612422565b9392505050565b6020808252825182820181905260009190848201906040850190845b818110156125495783516001600160a01b031683529284019291840191600101612524565b50909695505050505050565b60006020828403121561256757600080fd5b81356003811061250157600080fd5b634e487b7160e01b600052602160045260246000fd5b60208101600383106125ae57634e487b7160e01b600052602160045260246000fd5b91905290565b6000806000604084860312156125c957600080fd5b83359250602084013567ffffffffffffffff808211156125e857600080fd5b818601915086601f8301126125fc57600080fd5b81358181111561260b57600080fd5b87602082850101111561261d57600080fd5b6020830194508093505050509250925092565b60208082526022908201527f4f6e6c792073656c6c65722063616e2063616c6c20746869732066756e63746960408201526137b760f11b606082015260800190565b60208082526015908201527414d85b19481a5cc81b9bdd08195b991959081e595d605a1b604082015260600190565b634e487b7160e01b600052603260045260246000fd5b634e487b7160e01b600052601160045260246000fd5b818103818111156126e0576126e06126b7565b92915050565b634e487b7160e01b600052601260045260246000fd5b60008261270b5761270b6126e6565b500690565b808201808211156126e0576126e06126b7565b600060018201612735576127356126b7565b5060010190565b634e487b7160e01b600052603160045260246000fd5b80820281158282048414176126e0576126e06126b7565b600082612778576127786126e6565b500490565b60006020828403121561278f57600080fd5b8151801515811461250157600080fd5b600067ffffffffffffffff8211156127b9576127b96123b1565b50601f01601f191660200190565b600080604083850312156127da57600080fd5b82359150602083013567ffffffffffffffff8111156127f857600080fd5b8301601f8101851361280957600080fd5b803561281c6128178261279f565b6123f1565b81815286602083850101111561283157600080fd5b816020840160208301376000602083830101528093505050509250929050565b60005b8381101561286c578181015183820152602001612854565b50506000910152565b6000806040838503121561288857600080fd5b82519150602083015167ffffffffffffffff8111156128a657600080fd5b8301601f810185136128b757600080fd5b80516128c56128178261279f565b8181528660208385010111156128da57600080fd5b6128eb826020830160208601612851565b8093505050509250929050565b8183823760009101908152919050565b60006020828403121561291a57600080fd5b5051919050565b8281526040602082015260008251806040840152612946816060850160208701612851565b601f01601f191691909101606001939250505056fea2646970667358221220c4ed252a92c9542939064def578226101c83ddd07217af3b7d19273de2d3f26b64736f6c63430008190033","linkReferences":{}},"methodIdentifiers":{"buyerWithdraw()":"7cc947d0","changeLotteryState(uint8)":"683e93e1","deposit(uint256)":"b6b55f25","deposits(address)":"fc7e286d","endLottery()":"1593a8c7","fulfillRandomness(uint256,bytes)":"b3f6b99a","getDepositedAmount(address)":"e9081ec7","getParticipants()":"5aa68ac0","getWinners()":"df15c37e","hasMinted(address)":"38e21cce","initialize((address,address,address,uint256,uint256,address,address,address,address))":"10175080","initialized()":"158ef93e","isTrustedForwarder(address)":"572b6c05","isWinner(address)":"9d9ca28d","lotteryState()":"6939864b","mintMyNFT()":"26170480","multisigWalletAddress()":"a61fb2ba","nftContractAddr()":"2c23ec8e","numberOfTickets()":"45745c10","operatorAddr()":"f3f18c37","owner()":"8da5cb5b","randomNumber()":"ccbac9f5","renounceOwnership()":"715018a6","requestPending(uint256)":"75ce7fff","requestRandomness()":"f8413b07","requestedHash(uint256)":"c4f8f27b","selectWinners()":"1a0de74c","seller()":"08551a53","sellerWithdraw()":"66af746b","setSeller(address)":"e99d2866","startLottery()":"160344e2","ticketPrice()":"1209b1f6","transferNonWinnerDeposits(address)":"e63c4609","transferOwnership(address)":"f2fde38b","usdcContractAddr()":"99dbf4b5","winnerAddresses(uint256)":"045f9c97","winners(address)":"6bd5450a"},"id":5}