{"abi":[{"type":"function","name":"buyerWithdraw","inputs":[],"outputs":[],"stateMutability":"nonpayable"},{"type":"function","name":"changeLotteryState","inputs":[{"name":"_newState","type":"uint8","internalType":"enum SaleBase.LotteryState"}],"outputs":[],"stateMutability":"nonpayable"},{"type":"function","name":"deposit","inputs":[{"name":"amount","type":"uint256","internalType":"uint256"}],"outputs":[],"stateMutability":"nonpayable"},{"type":"function","name":"deposits","inputs":[{"name":"","type":"address","internalType":"address"}],"outputs":[{"name":"","type":"uint256","internalType":"uint256"}],"stateMutability":"view"},{"type":"function","name":"endLottery","inputs":[],"outputs":[],"stateMutability":"nonpayable"},{"type":"function","name":"fulfillRandomness","inputs":[{"name":"randomness","type":"uint256","internalType":"uint256"},{"name":"dataWithRound","type":"bytes","internalType":"bytes"}],"outputs":[],"stateMutability":"nonpayable"},{"type":"function","name":"getDepositedAmount","inputs":[{"name":"participant","type":"address","internalType":"address"}],"outputs":[{"name":"","type":"uint256","internalType":"uint256"}],"stateMutability":"view"},{"type":"function","name":"getParticipants","inputs":[],"outputs":[{"name":"","type":"address[]","internalType":"address[]"}],"stateMutability":"view"},{"type":"function","name":"getWinners","inputs":[],"outputs":[{"name":"","type":"address[]","internalType":"address[]"}],"stateMutability":"view"},{"type":"function","name":"hasMinted","inputs":[{"name":"","type":"address","internalType":"address"}],"outputs":[{"name":"","type":"bool","internalType":"bool"}],"stateMutability":"view"},{"type":"function","name":"initialize","inputs":[{"name":"config","type":"tuple","internalType":"struct StructsLibrary.ILotteryV1BaseConfig","components":[{"name":"_seller","type":"address","internalType":"address"},{"name":"_gelatoVrfOperator","type":"address","internalType":"address"},{"name":"_owner","type":"address","internalType":"address"},{"name":"_ticketAmount","type":"uint256","internalType":"uint256"},{"name":"_ticketPrice","type":"uint256","internalType":"uint256"},{"name":"_usdcContractAddr","type":"address","internalType":"address"},{"name":"_nftContractAddr","type":"address","internalType":"address"},{"name":"_multisigWalletAddress","type":"address","internalType":"address"},{"name":"_prevPhaseContractAddr","type":"address","internalType":"address"}]}],"outputs":[],"stateMutability":"nonpayable"},{"type":"function","name":"isTrustedForwarder","inputs":[{"name":"forwarder","type":"address","internalType":"address"}],"outputs":[{"name":"","type":"bool","internalType":"bool"}],"stateMutability":"view"},{"type":"function","name":"isWinner","inputs":[{"name":"_participant","type":"address","internalType":"address"}],"outputs":[{"name":"","type":"bool","internalType":"bool"}],"stateMutability":"view"},{"type":"function","name":"lotteryState","inputs":[],"outputs":[{"name":"","type":"uint8","internalType":"enum SaleBase.LotteryState"}],"stateMutability":"view"},{"type":"function","name":"mintMyNFT","inputs":[],"outputs":[],"stateMutability":"nonpayable"},{"type":"function","name":"multisigWalletAddress","inputs":[],"outputs":[{"name":"","type":"address","internalType":"address"}],"stateMutability":"view"},{"type":"function","name":"nftContractAddr","inputs":[],"outputs":[{"name":"","type":"address","internalType":"address"}],"stateMutability":"view"},{"type":"function","name":"numberOfTickets","inputs":[],"outputs":[{"name":"","type":"uint256","internalType":"uint256"}],"stateMutability":"view"},{"type":"function","name":"operatorAddr","inputs":[],"outputs":[{"name":"","type":"address","internalType":"address"}],"stateMutability":"view"},{"type":"function","name":"owner","inputs":[],"outputs":[{"name":"","type":"address","internalType":"address"}],"stateMutability":"view"},{"type":"function","name":"randomNumber","inputs":[],"outputs":[{"name":"","type":"uint256","internalType":"uint256"}],"stateMutability":"view"},{"type":"function","name":"renounceOwnership","inputs":[],"outputs":[],"stateMutability":"nonpayable"},{"type":"function","name":"requestPending","inputs":[{"name":"","type":"uint256","internalType":"uint256"}],"outputs":[{"name":"","type":"bool","internalType":"bool"}],"stateMutability":"view"},{"type":"function","name":"requestRandomness","inputs":[],"outputs":[],"stateMutability":"nonpayable"},{"type":"function","name":"requestedHash","inputs":[{"name":"","type":"uint256","internalType":"uint256"}],"outputs":[{"name":"","type":"bytes32","internalType":"bytes32"}],"stateMutability":"view"},{"type":"function","name":"selectWinners","inputs":[],"outputs":[],"stateMutability":"nonpayable"},{"type":"function","name":"seller","inputs":[],"outputs":[{"name":"","type":"address","internalType":"address"}],"stateMutability":"view"},{"type":"function","name":"setSeller","inputs":[{"name":"_seller","type":"address","internalType":"address"}],"outputs":[],"stateMutability":"nonpayable"},{"type":"function","name":"startLottery","inputs":[],"outputs":[],"stateMutability":"nonpayable"},{"type":"function","name":"ticketPrice","inputs":[],"outputs":[{"name":"","type":"uint256","internalType":"uint256"}],"stateMutability":"view"},{"type":"function","name":"totalAmountForSeller","inputs":[],"outputs":[{"name":"","type":"uint256","internalType":"uint256"}],"stateMutability":"view"},{"type":"function","name":"transferNonWinnerDeposits","inputs":[{"name":"lotteryV2addr","type":"address","internalType":"address"}],"outputs":[],"stateMutability":"nonpayable"},{"type":"function","name":"transferOwnership","inputs":[{"name":"newOwner","type":"address","internalType":"address"}],"outputs":[],"stateMutability":"nonpayable"},{"type":"function","name":"usdcContractAddr","inputs":[],"outputs":[{"name":"","type":"address","internalType":"address"}],"stateMutability":"view"},{"type":"function","name":"winnerAddresses","inputs":[{"name":"","type":"uint256","internalType":"uint256"}],"outputs":[{"name":"","type":"address","internalType":"address"}],"stateMutability":"view"},{"type":"function","name":"winners","inputs":[{"name":"","type":"address","internalType":"address"}],"outputs":[{"name":"","type":"bool","internalType":"bool"}],"stateMutability":"view"},{"type":"event","name":"BuyerDeposited","inputs":[{"name":"buyer","type":"address","indexed":true,"internalType":"address"},{"name":"amount","type":"uint256","indexed":true,"internalType":"uint256"}],"anonymous":false},{"type":"event","name":"BuyerWithdrew","inputs":[{"name":"buyer","type":"address","indexed":true,"internalType":"address"},{"name":"amount","type":"uint256","indexed":true,"internalType":"uint256"}],"anonymous":false},{"type":"event","name":"DepositsReturned","inputs":[{"name":"returnedDepositsCount","type":"uint256","indexed":false,"internalType":"uint256"}],"anonymous":false},{"type":"event","name":"Initialized","inputs":[{"name":"version","type":"uint64","indexed":false,"internalType":"uint64"}],"anonymous":false},{"type":"event","name":"LotteryEnded","inputs":[],"anonymous":false},{"type":"event","name":"LotteryStarted","inputs":[],"anonymous":false},{"type":"event","name":"OwnershipTransferred","inputs":[{"name":"previousOwner","type":"address","indexed":true,"internalType":"address"},{"name":"newOwner","type":"address","indexed":true,"internalType":"address"}],"anonymous":false},{"type":"event","name":"RandomFulfilled","inputs":[{"name":"number","type":"uint256","indexed":false,"internalType":"uint256"}],"anonymous":false},{"type":"event","name":"RandomRequested","inputs":[{"name":"requester","type":"address","indexed":true,"internalType":"address"}],"anonymous":false},{"type":"event","name":"RequestedRandomness","inputs":[{"name":"round","type":"uint256","indexed":false,"internalType":"uint256"},{"name":"data","type":"bytes","indexed":false,"internalType":"bytes"}],"anonymous":false},{"type":"event","name":"WinnerSelected","inputs":[{"name":"winner","type":"address","indexed":true,"internalType":"address"}],"anonymous":false},{"type":"error","name":"InvalidInitialization","inputs":[]},{"type":"error","name":"NotInitializing","inputs":[]},{"type":"error","name":"OwnableInvalidOwner","inputs":[{"name":"owner","type":"address","internalType":"address"}]},{"type":"error","name":"OwnableUnauthorizedAccount","inputs":[{"name":"account","type":"address","internalType":"address"}]}],"bytecode":{"object":"0x60a060405234801561001057600080fd5b5073d8253782c45a12053594b9deb72d8e8ab2fca54c338061004c57604051631e4fbdf760e01b81526000600482015260240160405180910390fd5b6100558161006f565b506001600160a01b031660805261006a6100bf565b610171565b600080546001600160a01b038381166001600160a01b0319831681178455604051919092169283917f8be0079c531659141344cd1fd0a4f28419497f9722a3daafe3b4186f6b6457e09190a35050565b7ff0c57e16840df040f15088dc2f81fe391c3923bec73e23a9662efc9c229c6a00805468010000000000000000900460ff161561010f5760405163f92ee8a960e01b815260040160405180910390fd5b80546001600160401b039081161461016e5780546001600160401b0319166001600160401b0390811782556040519081527fc7f505b2f371ae2175ee4913f4499e1f2633a7b5936321eed1cdaeb6115181d29060200160405180910390a15b50565b6080516128a46101936000396000818161030f01526120a901526128a46000f3fe608060405234801561001057600080fd5b506004361061021c5760003560e01c80637cc947d011610125578063da59a0dd116100ad578063e99d28661161007c578063e99d2866146104cd578063f2fde38b146104e0578063f3f18c37146104f3578063f8413b0714610506578063fc7e286d1461050e57600080fd5b8063da59a0dd14610480578063df15c37e14610489578063e63c460914610491578063e9081ec7146104a457600080fd5b8063a61fb2ba116100f4578063a61fb2ba1461041e578063b3f6b99a14610431578063b6b55f2514610444578063c4f8f27b14610457578063ccbac9f51461047757600080fd5b80637cc947d0146103c65780638da5cb5b146103ce57806399dbf4b5146103df5780639d9ca28d146103f257600080fd5b806338e21cce116101a8578063683e93e111610177578063683e93e1146103545780636939864b146103675780636bd5450a14610388578063715018a6146103ab57806375ce7fff146103b357600080fd5b806338e21cce146102c357806345745c10146102f6578063572b6c05146102ff5780635aa68ac01461033f57600080fd5b80631593a8c7116101ef5780631593a8c714610290578063160344e2146102985780631a0de74c146102a057806326170480146102a85780632c23ec8e146102b057600080fd5b8063045f9c971461022157806308551a531461025157806310175080146102645780631209b1f614610279575b600080fd5b61023461022f3660046122da565b61052e565b6040516001600160a01b0390911681526020015b60405180910390f35b600254610234906001600160a01b031681565b610277610272366004612380565b610558565b005b61028260045481565b604051908152602001610248565b6102776106fb565b610277610773565b61027761084e565b610277610c23565b600b54610234906001600160a01b031681565b6102e66102d1366004612428565b60066020526000908152604090205460ff1681565b6040519015158152602001610248565b61028260035481565b6102e661030d366004612428565b7f00000000000000000000000000000000000000000000000000000000000000006001600160a01b0390811691161490565b610347610dc0565b604051610248919061244a565b610277610362366004612497565b610e22565b60005461037b90600160a01b900460ff1681565b60405161024891906124ce565b6102e6610396366004612428565b60086020526000908152604090205460ff1681565b610277610e89565b6102e66103c13660046122da565b610e9d565b610277610ed1565b6000546001600160a01b0316610234565b600c54610234906001600160a01b031681565b6102e6610400366004612428565b6001600160a01b031660009081526008602052604090205460ff1690565b600154610234906001600160a01b031681565b61027761043f3660046124f6565b6110ed565b6102776104523660046122da565b6112c7565b6102826104653660046122da565b600e6020526000908152604090205481565b61028260105481565b61028260055481565b610347611696565b61027761049f366004612428565b6116f6565b6102826104b2366004612428565b6001600160a01b031660009081526007602052604090205490565b6102776104db366004612428565b6118df565b6102776104ee366004612428565b61193b565b600f54610234906001600160a01b031681565b610277611976565b61028261051c366004612428565b60076020526000908152604090205481565b6009818154811061053e57600080fd5b6000918252602090912001546001600160a01b0316905081565b7ff0c57e16840df040f15088dc2f81fe391c3923bec73e23a9662efc9c229c6a008054600160401b810460ff16159067ffffffffffffffff1660008115801561059e5750825b905060008267ffffffffffffffff1660011480156105bb5750303b155b9050811580156105c9575080155b156105e75760405163f92ee8a960e01b815260040160405180910390fd5b845467ffffffffffffffff19166001178555831561061157845460ff60401b1916600160401b1785555b8551600280546001600160a01b039283166001600160a01b0319918216179091556020880151600f8054919093169116179055604086015161065290611a99565b6060860151600355608086015160045560a0860151600c80546001600160a01b039283166001600160a01b03199182161790915560c0880151600b805491841691831691909117905560e08801516001805491909316911617905583156106f357845460ff60401b19168555604051600181527fc7f505b2f371ae2175ee4913f4499e1f2633a7b5936321eed1cdaeb6115181d29060200160405180910390a15b505050505050565b6002546001600160a01b031661070f611ae9565b6001600160a01b03161461073e5760405162461bcd60e51b815260040161073590612572565b60405180910390fd5b6107486002610e22565b6040517f9c89a6ed7228533196a3f962acc80d61a9c53bdea6b910741bf754f5aaa7569e90600090a1565b6002546001600160a01b0316610787611ae9565b6001600160a01b0316146107ad5760405162461bcd60e51b815260040161073590612572565b60008054600160a01b900460ff1660028111156107cc576107cc6124b8565b146108195760405162461bcd60e51b815260206004820152601760248201527f53616c6520697320696e206163746976652073746174650000000000000000006044820152606401610735565b6108236001610e22565b6040517fd029c7c68d943f92286a7825fa6aa2deefa1eee46cee6c91b7e483fd06d27baf90600090a1565b6002546001600160a01b0316610862611ae9565b6001600160a01b0316146108885760405162461bcd60e51b815260040161073590612572565b6002600054600160a01b900460ff1660028111156108a8576108a86124b8565b146108c55760405162461bcd60e51b8152600401610735906125b4565b6000601054116109175760405162461bcd60e51b815260206004820152601e60248201527f52616e646f6d206e756d626572206973206e6f742067656e65726174656400006044820152606401610735565b6000600354116109695760405162461bcd60e51b815260206004820152601b60248201527f4e6f207469636b657473206c65667420746f20616c6c6f6361746500000000006044820152606401610735565b600a546003548111610a1f5760005b81811015610a19576000600a8281548110610995576109956125e3565b6000918252602090912001546001600160a01b031690506109ce816001600160a01b031660009081526008602052604090205460ff1690565b610a10576109db81611af8565b6040516001600160a01b038216907f1d4c260f1824cd028e6c9e6e31c3a0b94f2513e7a641113ec759d382f9bdd5a190600090a25b50600101610978565b50610bdc565b60005b81811015610b33576000610a36828461260f565b601054610a43919061263e565b610a4d9083612652565b90506000600a8281548110610a6457610a646125e3565b600091825260209091200154600a80546001600160a01b0390921692509084908110610a9257610a926125e3565b600091825260209091200154600a80546001600160a01b039092169184908110610abe57610abe6125e3565b9060005260206000200160006101000a8154816001600160a01b0302191690836001600160a01b0316021790555080600a8481548110610b0057610b006125e3565b600091825260209091200180546001600160a01b0319166001600160a01b03929092169190911790555050600101610a22565b5060005b600354811015610bda576000600a8281548110610b5657610b566125e3565b6000918252602090912001546001600160a01b03169050610b8f816001600160a01b031660009081526008602052604090205460ff1690565b610bd157610b9c81611af8565b6040516001600160a01b038216907f1d4c260f1824cd028e6c9e6e31c3a0b94f2513e7a641113ec759d382f9bdd5a190600090a25b50600101610b37565b505b6000805460ff60a01b1916600160a11b179055610bf7611b84565b6040517f9c89a6ed7228533196a3f962acc80d61a9c53bdea6b910741bf754f5aaa7569e90600090a150565b60066000610c2f611ae9565b6001600160a01b0316815260208101919091526040016000205460ff1615610c8e5760405162461bcd60e51b815260206004820152601260248201527113919508185b1c9958591e481b5a5b9d195960721b6044820152606401610735565b610c99610400611ae9565b610cde5760405162461bcd60e51b815260206004820152601660248201527521b0b63632b91034b9903737ba1030903bb4b73732b960511b6044820152606401610735565b6002600054600160a01b900460ff166002811115610cfe57610cfe6124b8565b14610d1b5760405162461bcd60e51b8152600401610735906125b4565b600160066000610d29611ae9565b6001600160a01b0390811682526020820192909252604001600020805460ff191692151592909217909155600b5416636b8f60f6610d65611ae9565b6040516001600160e01b031960e084901b1681526001600160a01b039091166004820152602401600060405180830381600087803b158015610da657600080fd5b505af1158015610dba573d6000803e3d6000fd5b50505050565b6060600a805480602002602001604051908101604052809291908181526020018280548015610e1857602002820191906000526020600020905b81546001600160a01b03168152600190910190602001808311610dfa575b5050505050905090565b6002546001600160a01b0316610e36611ae9565b6001600160a01b031614610e5c5760405162461bcd60e51b815260040161073590612572565b6000805482919060ff60a01b1916600160a01b836002811115610e8157610e816124b8565b021790555050565b610e91611f07565b610e9b6000611a99565b565b600d8181548110610ead57600080fd5b9060005260206000209060209182820401919006915054906101000a900460ff1681565b6002600054600160a01b900460ff166002811115610ef157610ef16124b8565b14610f0e5760405162461bcd60e51b8152600401610735906125b4565b60086000610f1a611ae9565b6001600160a01b0316815260208101919091526040016000205460ff1615610f845760405162461bcd60e51b815260206004820152601760248201527f57696e6e6572732063616e6e6f742077697468647261770000000000000000006044820152606401610735565b600060076000610f92611ae9565b6001600160a01b03166001600160a01b0316815260200190815260200160002054905060008111610ffc5760405162461bcd60e51b81526020600482015260146024820152734e6f2066756e647320746f20776974686472617760601b6044820152606401610735565b60006007600061100a611ae9565b6001600160a01b039081168252602082019290925260400160002091909155600c541663a9059cbb61103a611ae9565b6040516001600160e01b031960e084901b1681526001600160a01b039091166004820152602481018490526044016020604051808303816000875af1158015611087573d6000803e3d6000fd5b505050506040513d601f19601f820116820180604052508101906110ab9190612665565b50806110b5611ae9565b6001600160a01b03167f1f280cd00e67ed50213ac03febd5be151f96b7f7db2f85312aa0feff99f8bdab60405160405180910390a350565b600f546001600160a01b031633146111375760405162461bcd60e51b815260206004820152600d60248201526c37b7363c9037b832b930ba37b960991b6044820152606401610735565b6000611145828401846126af565b9150506000808280602001905181019061115f919061275d565b91509150600085856040516111759291906127e0565b604051809103902090506000600e60008581526020019081526020016000205482149050600d84815481106111ac576111ac6125e3565b90600052602060002090602091828204019190069054906101000a900460ff166112185760405162461bcd60e51b815260206004820152601c60248201527f726571756573742066756c66696c6c6564206f72206d697373696e67000000006044820152606401610735565b80156112bd5760408051602081018a905230918101919091524660608201526080810185905260a0016040516020818303038152906040528051906020012060001c9750611267888585611f65565b6000600d858154811061127c5761127c6125e3565b90600052602060002090602091828204019190066101000a81548160ff021916908315150217905550600e6000858152602001908152602001600020600090555b5050505050505050565b6001600054600160a01b900460ff1660028111156112e7576112e76124b8565b146113295760405162461bcd60e51b815260206004820152601260248201527153616c65206973206e6f742061637469766560701b6044820152606401610735565b600c546001600160a01b03166113815760405162461bcd60e51b815260206004820152601d60248201527f5553444320636f6e74726163742061646472657373206e6f74207365740000006044820152606401610735565b6004548110156113cb5760405162461bcd60e51b8152602060048201526015602482015274139bdd08195b9bdd59da08199d5b991cc81cd95b9d605a1b6044820152606401610735565b600c5481906001600160a01b031663dd62ed3e6113e6611ae9565b6040516001600160e01b031960e084901b1681526001600160a01b039091166004820152306024820152604401602060405180830381865afa158015611430573d6000803e3d6000fd5b505050506040513d601f19601f8201168201806040525081019061145491906127f0565b101561149b5760405162461bcd60e51b8152602060048201526016602482015275496e73756666696369656e7420616c6c6f77616e636560501b6044820152606401610735565b601054156115115760405162461bcd60e51b815260206004820152603760248201527f4c6f7474657279206465706f7369747320617265206c6f636b65643b2072616e60448201527f646f6d206e756d6265722069732067656e6572617465640000000000000000006064820152608401610735565b600c546001600160a01b03166323b872dd61152a611ae9565b6040516001600160e01b031960e084901b1681526001600160a01b039091166004820152306024820152604481018490526064016020604051808303816000875af115801561157d573d6000803e3d6000fd5b505050506040513d601f19601f820116820180604052508101906115a19190612665565b50600760006115ae611ae9565b6001600160a01b03166001600160a01b031681526020019081526020016000205460000361161357600a6115e0611ae9565b81546001810183556000928352602090922090910180546001600160a01b0319166001600160a01b039092169190911790555b8060076000611620611ae9565b6001600160a01b03166001600160a01b03168152602001908152602001600020600082825461164f9190612652565b9091555081905061165e611ae9565b6001600160a01b03167f21040858e63c11c046482f61f290bbe25972fc74b11b4570a01f9241082d21f160405160405180910390a350565b60606009805480602002602001604051908101604052809291908181526020018280548015610e18576020028201919060005260206000209081546001600160a01b03168152600190910190602001808311610dfa575050505050905090565b6002546001600160a01b031661170a611ae9565b6001600160a01b0316146117305760405162461bcd60e51b815260040161073590612572565b60005b600a548110156118cf57600060076000600a8481548110611756576117566125e3565b60009182526020808320909101546001600160a01b03168352820192909252604001812054600a805491935060079183919086908110611798576117986125e3565b6000918252602080832091909101546001600160a01b039081168452908301939093526040918201902092909255600c54915163a9059cbb60e01b815285821660048201526024810184905291169063a9059cbb906044016020604051808303816000875af115801561180f573d6000803e3d6000fd5b505050506040513d601f19601f820116820180604052508101906118339190612665565b50826001600160a01b03166350f3dbec600a8481548110611856576118566125e3565b60009182526020909120015460405160e083901b6001600160e01b03191681526001600160a01b03909116600482015260248101849052604401600060405180830381600087803b1580156118aa57600080fd5b505af11580156118be573d6000803e3d6000fd5b505060019093019250611733915050565b506118dc600a60006122a8565b50565b6002546001600160a01b03166118f3611ae9565b6001600160a01b0316146119195760405162461bcd60e51b815260040161073590612572565b600280546001600160a01b0319166001600160a01b0392909216919091179055565b611943611f07565b6001600160a01b03811661196d57604051631e4fbdf760e01b815260006004820152602401610735565b6118dc81611a99565b6002546001600160a01b031661198a611ae9565b6001600160a01b0316146119b05760405162461bcd60e51b815260040161073590612572565b6001600054600160a01b900460ff1660028111156119d0576119d06124b8565b14611a125760405162461bcd60e51b815260206004820152601260248201527153616c65206973206e6f742061637469766560701b6044820152606401610735565b6000805460ff60a01b1916600160a11b179055611a59611a30611ae9565b604080516001600160a01b03909216602083015201604051602081830303815290604052611fa2565b50611a62611ae9565b6001600160a01b03167fd802e7c7f1646e3318c03abed1e468bdf913f45331a68dc912a0d645eb646a4260405160405180910390a2565b600080546001600160a01b038381166001600160a01b0319831681178455604051919092169283917f8be0079c531659141344cd1fd0a4f28419497f9722a3daafe3b4186f6b6457e09190a35050565b6000611af36120a5565b905090565b6001600160a01b038116600081815260086020526040808220805460ff1916600190811790915560098054918201815583527f6e1540171b6c0c960b71a7020d9f60077f6af931a8bbf590da0223dacf75c7af0180546001600160a01b03191684179055517f1d4c260f1824cd028e6c9e6e31c3a0b94f2513e7a641113ec759d382f9bdd5a19190a250565b6002546001600160a01b0316611b98611ae9565b6001600160a01b031614611bbe5760405162461bcd60e51b815260040161073590612572565b6002600054600160a01b900460ff166002811115611bde57611bde6124b8565b14611bfb5760405162461bcd60e51b8152600401610735906125b4565b600a5460008167ffffffffffffffff811115611c1957611c196122f3565b604051908082528060200260200182016040528015611c42578160200160208202803683370190505b50905060005b82811015611cb357600a8181548110611c6357611c636125e3565b9060005260206000200160009054906101000a90046001600160a01b0316828281518110611c9357611c936125e3565b6001600160a01b0390921660209283029190910190910152600101611c48565b5060005b82811015611ebb576000828281518110611cd357611cd36125e3565b6020908102919091018101516001600160a01b038116600090815260078352604080822054600890945290205490925060ff1615611e23576004548110611dd457600060045482611d24919061260f565b90508015611dd2576001600160a01b03831660009081526007602052604081208054839290611d5490849061260f565b9091555050600c5460405163a9059cbb60e01b81526001600160a01b038581166004830152602482018490529091169063a9059cbb906044016020604051808303816000875af1158015611dac573d6000803e3d6000fd5b505050506040513d601f19601f82011682018060405250810190611dd09190612665565b505b505b6001600160a01b0382166000908152600760205260408120546005805491929091611e00908490612652565b90915550506001600160a01b038216600090815260076020526040812055611eb1565b6001600160a01b0382811660008181526007602052604080822091909155600c54905163a9059cbb60e01b81526004810192909252602482018490529091169063a9059cbb906044016020604051808303816000875af1158015611e8b573d6000803e3d6000fd5b505050506040513d601f19601f82011682018060405250810190611eaf9190612665565b505b5050600101611cb7565b50611ec46120e9565b611ed0600a60006122a8565b6040518281527f01f8aef848121bbf182106b55119c1094063c572b6c8dcb09040e1203a17abf99060200160405180910390a15050565b611f0f611ae9565b6001600160a01b0316611f2a6000546001600160a01b031690565b6001600160a01b031614610e9b57611f40611ae9565b60405163118cdaa760e01b81526001600160a01b039091166004820152602401610735565b60108390556040518381527f79518eb4b6f70742e6651b03a2ac2bc644ea2613e8de56247857c5be5fc2a0ba9060200160405180910390a1505050565b600d8054600180820180845560008490529192909183908110611fc757611fc76125e3565b90600052602060002090602091828204019190066101000a81548160ff02191690831515021790555060008183604051602001612005929190612809565b60405160208183030381529060405290506000612020612251565b905060008183604051602001612037929190612809565b60408051601f1981840301815282825280516020808301919091206000898152600e9092529290208290559250907fd91fc3685b930310b008ec37d2334870cab88a023ed8cc628a2e2ccd4e55d202906120949085908790612809565b60405180910390a150505050919050565b60007f00000000000000000000000000000000000000000000000000000000000000006001600160a01b031633036120e4575060131936013560601c90565b503390565b6002546001600160a01b03166120fd611ae9565b6001600160a01b0316146121235760405162461bcd60e51b815260040161073590612572565b6000606460055460056121369190612843565b612140919061285a565b9050600081600554612152919061260f565b6000600555600c5460015460405163a9059cbb60e01b81526001600160a01b03918216600482015260248101869052929350169063a9059cbb906044016020604051808303816000875af11580156121ae573d6000803e3d6000fd5b505050506040513d601f19601f820116820180604052508101906121d29190612665565b50600c5460025460405163a9059cbb60e01b81526001600160a01b0391821660048201526024810184905291169063a9059cbb906044016020604051808303816000875af1158015612228573d6000803e3d6000fd5b505050506040513d601f19601f8201168201806040525081019061224c9190612665565b505050565b6000806122626364e621274261260f565b9050600061227160038361285a565b61227c906001612652565b90504660011461229657612291816001612652565b6122a1565b6122a1816004612652565b9250505090565b50805460008255906000526020600020908101906118dc91905b808211156122d657600081556001016122c2565b5090565b6000602082840312156122ec57600080fd5b5035919050565b634e487b7160e01b600052604160045260246000fd5b604051610120810167ffffffffffffffff8111828210171561232d5761232d6122f3565b60405290565b604051601f8201601f1916810167ffffffffffffffff8111828210171561235c5761235c6122f3565b604052919050565b80356001600160a01b038116811461237b57600080fd5b919050565b6000610120828403121561239357600080fd5b61239b612309565b6123a483612364565b81526123b260208401612364565b60208201526123c360408401612364565b604082015260608301356060820152608083013560808201526123e860a08401612364565b60a08201526123f960c08401612364565b60c082015261240a60e08401612364565b60e082015261010061241d818501612364565b908201529392505050565b60006020828403121561243a57600080fd5b61244382612364565b9392505050565b6020808252825182820181905260009190848201906040850190845b8181101561248b5783516001600160a01b031683529284019291840191600101612466565b50909695505050505050565b6000602082840312156124a957600080fd5b81356003811061244357600080fd5b634e487b7160e01b600052602160045260246000fd5b60208101600383106124f057634e487b7160e01b600052602160045260246000fd5b91905290565b60008060006040848603121561250b57600080fd5b83359250602084013567ffffffffffffffff8082111561252a57600080fd5b818601915086601f83011261253e57600080fd5b81358181111561254d57600080fd5b87602082850101111561255f57600080fd5b6020830194508093505050509250925092565b60208082526022908201527f4f6e6c792073656c6c65722063616e2063616c6c20746869732066756e63746960408201526137b760f11b606082015260800190565b60208082526015908201527414d85b19481a5cc81b9bdd08195b991959081e595d605a1b604082015260600190565b634e487b7160e01b600052603260045260246000fd5b634e487b7160e01b600052601160045260246000fd5b81810381811115612622576126226125f9565b92915050565b634e487b7160e01b600052601260045260246000fd5b60008261264d5761264d612628565b500690565b80820180821115612622576126226125f9565b60006020828403121561267757600080fd5b8151801515811461244357600080fd5b600067ffffffffffffffff8211156126a1576126a16122f3565b50601f01601f191660200190565b600080604083850312156126c257600080fd5b82359150602083013567ffffffffffffffff8111156126e057600080fd5b8301601f810185136126f157600080fd5b80356127046126ff82612687565b612333565b81815286602083850101111561271957600080fd5b816020840160208301376000602083830101528093505050509250929050565b60005b8381101561275457818101518382015260200161273c565b50506000910152565b6000806040838503121561277057600080fd5b82519150602083015167ffffffffffffffff81111561278e57600080fd5b8301601f8101851361279f57600080fd5b80516127ad6126ff82612687565b8181528660208385010111156127c257600080fd5b6127d3826020830160208601612739565b8093505050509250929050565b8183823760009101908152919050565b60006020828403121561280257600080fd5b5051919050565b828152604060208201526000825180604084015261282e816060850160208701612739565b601f01601f1916919091016060019392505050565b8082028115828204841417612622576126226125f9565b60008261286957612869612628565b50049056fea2646970667358221220008e5dd41becd87f91e3e4bd4810c9bb95d2093443a2f79e3423ee178e5afaf364736f6c63430008190033","linkReferences":{}},"methodIdentifiers":{"buyerWithdraw()":"7cc947d0","changeLotteryState(uint8)":"683e93e1","deposit(uint256)":"b6b55f25","deposits(address)":"fc7e286d","endLottery()":"1593a8c7","fulfillRandomness(uint256,bytes)":"b3f6b99a","getDepositedAmount(address)":"e9081ec7","getParticipants()":"5aa68ac0","getWinners()":"df15c37e","hasMinted(address)":"38e21cce","initialize((address,address,address,uint256,uint256,address,address,address,address))":"10175080","isTrustedForwarder(address)":"572b6c05","isWinner(address)":"9d9ca28d","lotteryState()":"6939864b","mintMyNFT()":"26170480","multisigWalletAddress()":"a61fb2ba","nftContractAddr()":"2c23ec8e","numberOfTickets()":"45745c10","operatorAddr()":"f3f18c37","owner()":"8da5cb5b","randomNumber()":"ccbac9f5","renounceOwnership()":"715018a6","requestPending(uint256)":"75ce7fff","requestRandomness()":"f8413b07","requestedHash(uint256)":"c4f8f27b","selectWinners()":"1a0de74c","seller()":"08551a53","setSeller(address)":"e99d2866","startLottery()":"160344e2","ticketPrice()":"1209b1f6","totalAmountForSeller()":"da59a0dd","transferNonWinnerDeposits(address)":"e63c4609","transferOwnership(address)":"f2fde38b","usdcContractAddr()":"99dbf4b5","winnerAddresses(uint256)":"045f9c97","winners(address)":"6bd5450a"},"id":57}