{"abi":[{"type":"function","name":"buyerWithdraw","inputs":[],"outputs":[],"stateMutability":"nonpayable"},{"type":"function","name":"changeLotteryState","inputs":[{"name":"_newState","type":"uint8","internalType":"enum LotteryV2Base.LotteryState"}],"outputs":[],"stateMutability":"nonpayable"},{"type":"function","name":"claimNumber","inputs":[{"name":"_participant","type":"address","internalType":"address"}],"outputs":[{"name":"","type":"bool","internalType":"bool"}],"stateMutability":"nonpayable"},{"type":"function","name":"deposit","inputs":[{"name":"amount","type":"uint256","internalType":"uint256"}],"outputs":[],"stateMutability":"nonpayable"},{"type":"function","name":"deposits","inputs":[{"name":"","type":"address","internalType":"address"}],"outputs":[{"name":"","type":"uint256","internalType":"uint256"}],"stateMutability":"view"},{"type":"function","name":"endLottery","inputs":[],"outputs":[],"stateMutability":"nonpayable"},{"type":"function","name":"fulfillRandomness","inputs":[{"name":"randomness","type":"uint256","internalType":"uint256"},{"name":"dataWithRound","type":"bytes","internalType":"bytes"}],"outputs":[],"stateMutability":"nonpayable"},{"type":"function","name":"getDepositedAmount","inputs":[{"name":"participant","type":"address","internalType":"address"}],"outputs":[{"name":"","type":"uint256","internalType":"uint256"}],"stateMutability":"view"},{"type":"function","name":"getParticipants","inputs":[],"outputs":[{"name":"","type":"address[]","internalType":"address[]"}],"stateMutability":"view"},{"type":"function","name":"getRandomNumber","inputs":[],"outputs":[{"name":"","type":"uint256","internalType":"uint256"}],"stateMutability":"view"},{"type":"function","name":"getWinners","inputs":[],"outputs":[{"name":"","type":"address[]","internalType":"address[]"}],"stateMutability":"view"},{"type":"function","name":"hasMinted","inputs":[{"name":"","type":"address","internalType":"address"}],"outputs":[{"name":"","type":"bool","internalType":"bool"}],"stateMutability":"view"},{"type":"function","name":"initialize","inputs":[{"name":"config","type":"tuple","internalType":"struct StructsLibrary.ILotteryBaseConfig","components":[{"name":"_seller","type":"address","internalType":"address"},{"name":"_gelatoVrfOperator","type":"address","internalType":"address"},{"name":"_blessedOperator","type":"address","internalType":"address"},{"name":"_owner","type":"address","internalType":"address"},{"name":"_ticketAmount","type":"uint256","internalType":"uint256"},{"name":"_ticketPrice","type":"uint256","internalType":"uint256"},{"name":"_usdcContractAddr","type":"address","internalType":"address"},{"name":"_multisigWalletAddress","type":"address","internalType":"address"},{"name":"_prevPhaseContractAddr","type":"address","internalType":"address"}]}],"outputs":[],"stateMutability":"nonpayable"},{"type":"function","name":"initialized","inputs":[],"outputs":[{"name":"","type":"bool","internalType":"bool"}],"stateMutability":"view"},{"type":"function","name":"isClaimable","inputs":[{"name":"_participant","type":"address","internalType":"address"}],"outputs":[{"name":"","type":"bool","internalType":"bool"}],"stateMutability":"view"},{"type":"function","name":"isTrustedForwarder","inputs":[{"name":"forwarder","type":"address","internalType":"address"}],"outputs":[{"name":"","type":"bool","internalType":"bool"}],"stateMutability":"view"},{"type":"function","name":"isWinner","inputs":[{"name":"_participant","type":"address","internalType":"address"}],"outputs":[{"name":"","type":"bool","internalType":"bool"}],"stateMutability":"view"},{"type":"function","name":"lotteryState","inputs":[],"outputs":[{"name":"","type":"uint8","internalType":"enum LotteryV2Base.LotteryState"}],"stateMutability":"view"},{"type":"function","name":"lotteryV1Addr","inputs":[],"outputs":[{"name":"","type":"address","internalType":"address"}],"stateMutability":"view"},{"type":"function","name":"minimumDepositAmount","inputs":[],"outputs":[{"name":"","type":"uint256","internalType":"uint256"}],"stateMutability":"view"},{"type":"function","name":"mintMyNFT","inputs":[],"outputs":[],"stateMutability":"nonpayable"},{"type":"function","name":"multisigWalletAddress","inputs":[],"outputs":[{"name":"","type":"address","internalType":"address"}],"stateMutability":"view"},{"type":"function","name":"nftContractAddr","inputs":[],"outputs":[{"name":"","type":"address","internalType":"address"}],"stateMutability":"view"},{"type":"function","name":"numberOfTickets","inputs":[],"outputs":[{"name":"","type":"uint256","internalType":"uint256"}],"stateMutability":"view"},{"type":"function","name":"operatorAddr","inputs":[],"outputs":[{"name":"","type":"address","internalType":"address"}],"stateMutability":"view"},{"type":"function","name":"owner","inputs":[],"outputs":[{"name":"","type":"address","internalType":"address"}],"stateMutability":"view"},{"type":"function","name":"randomNumber","inputs":[],"outputs":[{"name":"","type":"uint256","internalType":"uint256"}],"stateMutability":"view"},{"type":"function","name":"renounceOwnership","inputs":[],"outputs":[],"stateMutability":"nonpayable"},{"type":"function","name":"requestPending","inputs":[{"name":"","type":"uint256","internalType":"uint256"}],"outputs":[{"name":"","type":"bool","internalType":"bool"}],"stateMutability":"view"},{"type":"function","name":"requestRandomness","inputs":[],"outputs":[],"stateMutability":"nonpayable"},{"type":"function","name":"requestedHash","inputs":[{"name":"","type":"uint256","internalType":"uint256"}],"outputs":[{"name":"","type":"bytes32","internalType":"bytes32"}],"stateMutability":"view"},{"type":"function","name":"roll","inputs":[],"outputs":[],"stateMutability":"nonpayable"},{"type":"function","name":"rollPrice","inputs":[],"outputs":[{"name":"","type":"uint256","internalType":"uint256"}],"stateMutability":"view"},{"type":"function","name":"rollTolerance","inputs":[],"outputs":[{"name":"","type":"uint256","internalType":"uint256"}],"stateMutability":"view"},{"type":"function","name":"rolledNumbers","inputs":[{"name":"","type":"address","internalType":"address"}],"outputs":[{"name":"","type":"uint256","internalType":"uint256"}],"stateMutability":"view"},{"type":"function","name":"seller","inputs":[],"outputs":[{"name":"","type":"address","internalType":"address"}],"stateMutability":"view"},{"type":"function","name":"sellerWithdraw","inputs":[],"outputs":[],"stateMutability":"nonpayable"},{"type":"function","name":"setLotteryV1Addr","inputs":[{"name":"_lotteryV1Addr","type":"address","internalType":"address"}],"outputs":[],"stateMutability":"nonpayable"},{"type":"function","name":"setMinimumDepositAmount","inputs":[{"name":"_amount","type":"uint256","internalType":"uint256"}],"outputs":[],"stateMutability":"nonpayable"},{"type":"function","name":"setMultisigWalletAddress","inputs":[{"name":"_multisigWalletAddress","type":"address","internalType":"address"}],"outputs":[],"stateMutability":"nonpayable"},{"type":"function","name":"setNftContractAddr","inputs":[{"name":"_nftContractAddr","type":"address","internalType":"address"}],"outputs":[],"stateMutability":"nonpayable"},{"type":"function","name":"setNumberOfTickets","inputs":[{"name":"_numberOfTickets","type":"uint256","internalType":"uint256"}],"outputs":[],"stateMutability":"nonpayable"},{"type":"function","name":"setRandomNumber","inputs":[],"outputs":[],"stateMutability":"nonpayable"},{"type":"function","name":"setRollPrice","inputs":[{"name":"_rollPrice","type":"uint256","internalType":"uint256"}],"outputs":[],"stateMutability":"nonpayable"},{"type":"function","name":"setRollTolerance","inputs":[{"name":"_tolerance","type":"uint256","internalType":"uint256"}],"outputs":[],"stateMutability":"nonpayable"},{"type":"function","name":"setSeller","inputs":[{"name":"_seller","type":"address","internalType":"address"}],"outputs":[],"stateMutability":"nonpayable"},{"type":"function","name":"setUsdcContractAddr","inputs":[{"name":"_usdcContractAddr","type":"address","internalType":"address"}],"outputs":[],"stateMutability":"nonpayable"},{"type":"function","name":"setWinner","inputs":[{"name":"_winner","type":"address","internalType":"address"}],"outputs":[],"stateMutability":"nonpayable"},{"type":"function","name":"startLottery","inputs":[],"outputs":[],"stateMutability":"nonpayable"},{"type":"function","name":"transferDeposit","inputs":[{"name":"_participant","type":"address","internalType":"address"},{"name":"_amount","type":"uint256","internalType":"uint256"}],"outputs":[],"stateMutability":"nonpayable"},{"type":"function","name":"transferNonWinnerDeposits","inputs":[{"name":"auctionV1addr","type":"address","internalType":"address"}],"outputs":[],"stateMutability":"nonpayable"},{"type":"function","name":"transferOwnership","inputs":[{"name":"newOwner","type":"address","internalType":"address"}],"outputs":[],"stateMutability":"nonpayable"},{"type":"function","name":"usdcContractAddr","inputs":[],"outputs":[{"name":"","type":"address","internalType":"address"}],"stateMutability":"view"},{"type":"function","name":"winnerAddresses","inputs":[{"name":"","type":"uint256","internalType":"uint256"}],"outputs":[{"name":"","type":"address","internalType":"address"}],"stateMutability":"view"},{"type":"function","name":"winners","inputs":[{"name":"","type":"address","internalType":"address"}],"outputs":[{"name":"","type":"bool","internalType":"bool"}],"stateMutability":"view"},{"type":"event","name":"LotteryEnded","inputs":[],"anonymous":false},{"type":"event","name":"LotteryStarted","inputs":[],"anonymous":false},{"type":"event","name":"OwnershipTransferred","inputs":[{"name":"previousOwner","type":"address","indexed":true,"internalType":"address"},{"name":"newOwner","type":"address","indexed":true,"internalType":"address"}],"anonymous":false},{"type":"event","name":"RandomFullfiled","inputs":[{"name":"requester","type":"address","indexed":true,"internalType":"address"},{"name":"number","type":"uint256","indexed":false,"internalType":"uint256"}],"anonymous":false},{"type":"event","name":"RandomRequested","inputs":[{"name":"requester","type":"address","indexed":true,"internalType":"address"}],"anonymous":false},{"type":"event","name":"RequestedRandomness","inputs":[{"name":"round","type":"uint256","indexed":false,"internalType":"uint256"},{"name":"data","type":"bytes","indexed":false,"internalType":"bytes"}],"anonymous":false},{"type":"event","name":"WinnerSelected","inputs":[{"name":"winner","type":"address","indexed":true,"internalType":"address"}],"anonymous":false},{"type":"error","name":"OwnableInvalidOwner","inputs":[{"name":"owner","type":"address","internalType":"address"}]},{"type":"error","name":"OwnableUnauthorizedAccount","inputs":[{"name":"account","type":"address","internalType":"address"}]}],"bytecode":{"object":"0x60a06040526002805460ff60a01b19169055600060135534801561002257600080fd5b5073d8253782c45a12053594b9deb72d8e8ab2fca54c338061005e57604051631e4fbdf760e01b81526000600482015260240160405180910390fd5b61006781610079565b506001600160a01b03166080526100cb565b600280546001600160a01b038381166001600160a01b0319831681179093556040519116919082907f8be0079c531659141344cd1fd0a4f28419497f9722a3daafe3b4186f6b6457e090600090a35050565b608051612ea86100ed600039600081816104bb01526124ef0152612ea86000f3fe608060405234801561001057600080fd5b506004361061035d5760003560e01c80637cc947d0116101d3578063cd5e3c5d11610104578063e9081ec7116100a2578063f3f18c371161007c578063f3f18c371461076d578063f7098e5814610780578063f8413b0714610793578063fc7e286d1461079b57600080fd5b8063e9081ec71461071e578063e99d286614610747578063f2fde38b1461075a57600080fd5b8063d9fca769116100de578063d9fca769146106e8578063dbdff2c1146106fb578063df15c37e14610703578063e63c46091461070b57600080fd5b8063cd5e3c5d146106c4578063cf3af3a1146106cc578063cf54d3b8146106d557600080fd5b8063a61fb2ba11610171578063b6b55f251161014b578063b6b55f251461067f578063bf1dda1514610692578063c4f8f27b1461069b578063ccbac9f5146106bb57600080fd5b8063a61fb2ba14610646578063aab483d614610659578063b3f6b99a1461066c57600080fd5b806397fedfcb116101ad57806397fedfcb146105ec57806399bd69d6146105f457806399dbf4b5146106075780639d9ca28d1461061a57600080fd5b80637cc947d0146105c05780638da5cb5b146105c857806394d898de146105d957600080fd5b806345745c10116102ad57806366af746b1161024b5780636bd5450a116102255780636bd5450a14610562578063715018a61461058557806375ce7fff1461058d5780637b15452d146105a057600080fd5b806366af746b14610526578063683e93e11461052e5780636939864b1461054157600080fd5b8063572b6c0511610287578063572b6c05146104ab5780635aa68ac0146104eb5780635f86e4fe1461050057806360d50da31461051357600080fd5b806345745c101461047c57806350f3dbec146104855780635687156e1461049857600080fd5b8063160344e21161031a5780632c23ec8e116102f45780632c23ec8e146104205780633644c27c1461043357806338e21cce146104465780633dc204e71461046957600080fd5b8063160344e2146103fd5780632617048014610405578063292fec041461040d57600080fd5b8063045f9c9714610362578063080c279a1461039257806308551a53146103a957806312f0800b146103bc578063158ef93e146103d15780631593a8c7146103f5575b600080fd5b61037561037036600461288c565b6107bb565b6040516001600160a01b0390911681526020015b60405180910390f35b61039b60065481565b604051908152602001610389565b600454610375906001600160a01b031681565b6103cf6103ca36600461288c565b6107e5565b005b6002546103e590600160a01b900460ff1681565b6040519015158152602001610389565b6103cf6108a1565b6103cf6108e7565b6103cf610998565b6103e561041b3660046128c5565b610af8565b600e54610375906001600160a01b031681565b6103cf6104413660046128c5565b610c07565b6103e56104543660046128c5565b60096020526000908152604090205460ff1681565b6103e56104773660046128c5565b610c31565b61039b60075481565b6103cf6104933660046128e9565b610cdf565b6103cf6104a636600461288c565b610e3e565b6103e56104b93660046128c5565b7f00000000000000000000000000000000000000000000000000000000000000006001600160a01b0390811691161490565b6104f3610e7d565b6040516103899190612915565b601054610375906001600160a01b031681565b6103cf6105213660046128c5565b610edf565b6103cf610f09565b6103cf61053c366004612962565b61113d565b60025461055590600160a81b900460ff1681565b6040516103899190612999565b6103e56105703660046128c5565b600b6020526000908152604090205460ff1681565b6103cf6111a3565b6103e561059b36600461288c565b6111b5565b61039b6105ae3660046128c5565b60116020526000908152604090205481565b6103cf6111e9565b6002546001600160a01b0316610375565b6103cf6105e73660046128c5565b6113f3565b6103cf61141d565b6103cf61060236600461288c565b6114b4565b600f54610375906001600160a01b031681565b6103e56106283660046128c5565b6001600160a01b03166000908152600b602052604090205460ff1690565b600354610375906001600160a01b031681565b6103cf61066736600461288c565b611557565b6103cf61067a3660046129c1565b611596565b6103cf61068d36600461288c565b61176a565b61039b60135481565b61039b6106a936600461288c565b60016020526000908152604090205481565b61039b60085481565b6103cf611b16565b61039b60125481565b6103cf6106e3366004612aae565b611cc2565b6103cf6106f63660046128c5565b611dc8565b61039b611e68565b6104f3611ebf565b6103cf6107193660046128c5565b611f1f565b61039b61072c3660046128c5565b6001600160a01b03166000908152600a602052604090205490565b6103cf6107553660046128c5565b612137565b6103cf6107683660046128c5565b612193565b600554610375906001600160a01b031681565b6103cf61078e3660046128c5565b6121ce565b6103cf61222a565b61039b6107a93660046128c5565b600a6020526000908152604090205481565b600c81815481106107cb57600080fd5b6000918252602090912001546001600160a01b0316905081565b6004546001600160a01b03166107f9612275565b6001600160a01b0316146108285760405162461bcd60e51b815260040161081f90612b56565b60405180910390fd5b6001811015801561083a575060638111155b61089c5760405162461bcd60e51b815260206004820152602d60248201527f546f6c6572616e63652070657263656e74616765206d7573742062652062657460448201526c7765656e203120616e6420393960981b606482015260840161081f565b601355565b6004546001600160a01b03166108b5612275565b6001600160a01b0316146108db5760405162461bcd60e51b815260040161081f90612b56565b6108e5600261113d565b565b6004546001600160a01b03166108fb612275565b6001600160a01b0316146109215760405162461bcd60e51b815260040161081f90612b56565b600060028054600160a81b900460ff169081111561094157610941612983565b1461098e5760405162461bcd60e51b815260206004820152601a60248201527f4c6f747465727920697320696e20616374697665207374617465000000000000604482015260640161081f565b6108e5600161113d565b600960006109a4612275565b6001600160a01b0316815260208101919091526040016000205460ff1615610a035760405162461bcd60e51b815260206004820152601260248201527113919508185b1c9958591e481b5a5b9d195960721b604482015260640161081f565b610a0e610628612275565b610a535760405162461bcd60e51b815260206004820152601660248201527521b0b63632b91034b9903737ba1030903bb4b73732b960511b604482015260640161081f565b600160096000610a61612275565b6001600160a01b0390811682526020820192909252604001600020805460ff191692151592909217909155600e5416636b8f60f6610a9d612275565b6040516001600160e01b031960e084901b1681526001600160a01b039091166004820152602401600060405180830381600087803b158015610ade57600080fd5b505af1158015610af2573d6000803e3d6000fd5b50505050565b6013546001600160a01b03821660009081526011602052604081205490918291606491610b2491612bae565b610b2e9190612be1565b6001600160a01b038416600090815260116020526040902054610b519190612bf5565b6013546001600160a01b03851660009081526011602052604081205492935091606491610b7d91612bae565b610b879190612be1565b6001600160a01b038516600090815260116020526040902054610baa9190612c08565b905060008260085410158015610bc257508160085411155b6006546001600160a01b0387166000908152600a602052604090205491925011801590610bec5750805b15610bfc57506001949350505050565b506000949350505050565b610c0f612284565b600e80546001600160a01b0319166001600160a01b0392909216919091179055565b6000610c3c82610af8565b15610cd2576001600160a01b0382166000818152600b6020526040808220805460ff19166001908117909155600c8054918201815583527fdf6966c971051c3d54ec59162606531493a51404a002842f56009d7e5cf4a8c70180546001600160a01b03191684179055517f1d4c260f1824cd028e6c9e6e31c3a0b94f2513e7a641113ec759d382f9bdd5a19190a2506001919050565b506000919050565b919050565b610ce7612275565b6010546001600160a01b03908116911614610d545760405162461bcd60e51b815260206004820152602760248201527f4f6e6c792077686974656c6973746564206d61792063616c6c207468697320666044820152663ab731ba34b7b760c91b606482015260840161081f565b6001600160a01b0382166000908152600a60205260408120549003610dbf57600d80546001810182556000919091527fd7b6990105719101dabeb77144f2a3385c8033acd3af97e9423a695e81ad1eb50180546001600160a01b0319166001600160a01b0384161790555b6001600160a01b0382166000908152600a602052604081208054839290610de7908490612c08565b90915550506001600160a01b0382166000908152601160205260408120549003610e3a57604080516001600160a01b0384166020820152610e3891015b6040516020818303038152906040526122e2565b505b5050565b6004546001600160a01b0316610e52612275565b6001600160a01b031614610e785760405162461bcd60e51b815260040161081f90612b56565b601255565b6060600d805480602002602001604051908101604052809291908181526020018280548015610ed557602002820191906000526020600020905b81546001600160a01b03168152600190910190602001808311610eb7575b5050505050905090565b610ee7612284565b600380546001600160a01b0319166001600160a01b0392909216919091179055565b6004546001600160a01b0316610f1d612275565b6001600160a01b031614610f435760405162461bcd60e51b815260040161081f90612b56565b6002808054600160a81b900460ff1690811115610f6257610f62612983565b14610fa35760405162461bcd60e51b8152602060048201526011602482015270131bdd1d195c9e481b9bdd08195b991959607a1b604482015260640161081f565b6000805b600c5481101561101c576000600c8281548110610fc657610fc6612c1b565b60009182526020808320909101546001600160a01b0316808352600a909152604090912054909150610ff89084612c08565b6001600160a01b039091166000908152600a60205260408120559150600101610fa7565b506000606461102c836005612bae565b6110369190612be1565b905060006110448284612bf5565b600f5460035460405163a9059cbb60e01b81526001600160a01b03918216600482015260248101869052929350169063a9059cbb906044016020604051808303816000875af115801561109b573d6000803e3d6000fd5b505050506040513d601f19601f820116820180604052508101906110bf9190612c31565b50600f546004805460405163a9059cbb60e01b81526001600160a01b0391821692810192909252602482018490529091169063a9059cbb906044016020604051808303816000875af1158015611119573d6000803e3d6000fd5b505050506040513d601f19601f82011682018060405250810190610af29190612c31565b6004546001600160a01b0316611151612275565b6001600160a01b0316146111775760405162461bcd60e51b815260040161081f90612b56565b6002805482919060ff60a81b1916600160a81b838381111561119b5761119b612983565b021790555050565b6111ab612284565b6108e560006123e3565b600081815481106111c557600080fd5b9060005260206000209060209182820401919006915054906101000a900460ff1681565b600160028054600160a81b900460ff169081111561120957611209612983565b036112565760405162461bcd60e51b815260206004820152601b60248201527f4c6f74746572792069732063757272656e746c79206163746976650000000000604482015260640161081f565b600b6000611262612275565b6001600160a01b0316815260208101919091526040016000205460ff16156112cc5760405162461bcd60e51b815260206004820152601760248201527f57696e6e6572732063616e6e6f74207769746864726177000000000000000000604482015260640161081f565b6000600a60006112da612275565b6001600160a01b03166001600160a01b03168152602001908152602001600020549050600081116113445760405162461bcd60e51b81526020600482015260146024820152734e6f2066756e647320746f20776974686472617760601b604482015260640161081f565b6000600a6000611352612275565b6001600160a01b039081168252602082019290925260400160002091909155600f541663a9059cbb611382612275565b6040516001600160e01b031960e084901b1681526001600160a01b039091166004820152602481018490526044016020604051808303816000875af11580156113cf573d6000803e3d6000fd5b505050506040513d601f19601f82011682018060405250810190610e3a9190612c31565b6113fb612284565b600f80546001600160a01b0319166001600160a01b0392909216919091179055565b6004546001600160a01b0316611431612275565b6001600160a01b0316146114575760405162461bcd60e51b815260040161081f90612b56565b600854156114a75760405162461bcd60e51b815260206004820152601960248201527f52616e646f6d206e756d62657220616c72656164792073657400000000000000604482015260640161081f565b6114af611e68565b600855565b6004546001600160a01b03166114c8612275565b6001600160a01b0316146114ee5760405162461bcd60e51b815260040161081f90612b56565b600081116115525760405162461bcd60e51b815260206004820152602b60248201527f4e756d626572206f66207469636b657473206d7573742062652067726561746560448201526a72207468616e207a65726f60a81b606482015260840161081f565b600755565b6004546001600160a01b031661156b612275565b6001600160a01b0316146115915760405162461bcd60e51b815260040161081f90612b56565b600655565b6005546001600160a01b031633146115e05760405162461bcd60e51b815260206004820152600d60248201526c37b7363c9037b832b930ba37b960991b604482015260640161081f565b60006115ee82840184612c7b565b915050600080828060200190518101906116089190612d29565b915091506000858560405161161e929190612dac565b604080519182900390912060008581526001602052918220548254919350831491908590811061165057611650612c1b565b90600052602060002090602091828204019190069054906101000a900460ff166116bc5760405162461bcd60e51b815260206004820152601c60248201527f726571756573742066756c66696c6c6564206f72206d697373696e6700000000604482015260640161081f565b80156117605760408051602081018a905230918101919091524660608201526080810185905260a0016040516020818303038152906040528051906020012060001c975061170b888585612435565b600080858154811061171f5761171f612c1b565b90600052602060002090602091828204019190066101000a81548160ff02191690831515021790555060016000858152602001908152602001600020600090555b5050505050505050565b600160028054600160a81b900460ff169081111561178a5761178a612983565b146117cf5760405162461bcd60e51b81526020600482015260156024820152744c6f7474657279206973206e6f742061637469766560581b604482015260640161081f565b600f546001600160a01b03166118275760405162461bcd60e51b815260206004820152601d60248201527f5553444320636f6e74726163742061646472657373206e6f7420736574000000604482015260640161081f565b600081116118675760405162461bcd60e51b815260206004820152600d60248201526c139bc8199d5b991cc81cd95b9d609a1b604482015260640161081f565b600f5481906001600160a01b031663dd62ed3e611882612275565b6040516001600160e01b031960e084901b1681526001600160a01b039091166004820152306024820152604401602060405180830381865afa1580156118cc573d6000803e3d6000fd5b505050506040513d601f19601f820116820180604052508101906118f09190612dbc565b10156119375760405162461bcd60e51b8152602060048201526016602482015275496e73756666696369656e7420616c6c6f77616e636560501b604482015260640161081f565b600f546001600160a01b03166323b872dd611950612275565b6040516001600160e01b031960e084901b1681526001600160a01b039091166004820152306024820152604481018490526064016020604051808303816000875af11580156119a3573d6000803e3d6000fd5b505050506040513d601f19601f820116820180604052508101906119c79190612c31565b50600a60006119d4612275565b6001600160a01b03166001600160a01b0316815260200190815260200160002054600003611a3957600d611a06612275565b81546001810183556000928352602090922090910180546001600160a01b0319166001600160a01b039092169190911790555b80600a6000611a46612275565b6001600160a01b03166001600160a01b031681526020019081526020016000206000828254611a759190612c08565b90915550601190506000611a87612275565b6001600160a01b03166001600160a01b0316815260200190815260200160002054600003611b1357611ad4611aba612275565b604080516001600160a01b03909216602083015201610e24565b50611add612275565b6001600160a01b03167fd802e7c7f1646e3318c03abed1e468bdf913f45331a68dc912a0d645eb646a4260405160405180910390a25b50565b600160028054600160a81b900460ff1690811115611b3657611b36612983565b14611b7b5760405162461bcd60e51b81526020600482015260156024820152744c6f7474657279206973206e6f742061637469766560581b604482015260640161081f565b600060125411611bc15760405162461bcd60e51b8152602060048201526011602482015270139bc81c9bdb1b081c1c9a58d9481cd95d607a1b604482015260640161081f565b600654601254611bd19190612c08565b600a6000611bdd612275565b6001600160a01b03166001600160a01b03168152602001908152602001600020541015611c415760405162461bcd60e51b8152602060048201526012602482015271496e73756666696369656e742066756e647360701b604482015260640161081f565b601254600a6000611c50612275565b6001600160a01b03166001600160a01b031681526020019081526020016000206000828254611c7f9190612bf5565b90915550506012546004546001600160a01b03166000908152600a602052604081208054909190611cb1908490612c08565b90915550611b139050611aba612275565b600254600160a01b900460ff1615611d125760405162461bcd60e51b8152602060048201526013602482015272105b1c9958591e481a5b9a5d1a585b1a5e9959606a1b604482015260640161081f565b6040810151600480546001600160a01b039283166001600160a01b0319918216179091556020830151600580549190931691161790556060810151611d56906123e3565b608081015160075560a081015160065560c0810151600f80546001600160a01b03199081166001600160a01b039384161790915560e08301516003805483169184169190911790556101009092015160108054909316911617905560028054600160a01b60ff60a01b19909116179055565b6004546001600160a01b0316611ddc612275565b6001600160a01b031614611e025760405162461bcd60e51b815260040161081f90612b56565b6001600160a01b03166000818152600b60205260408120805460ff19166001908117909155600c805491820181559091527fdf6966c971051c3d54ec59162606531493a51404a002842f56009d7e5cf4a8c70180546001600160a01b0319169091179055565b60004244611e74612275565b6040805160208101949094528301919091526bffffffffffffffffffffffff19606091821b16908201526074016040516020818303038152906040528051906020012060001c905090565b6060600c805480602002602001604051908101604052809291908181526020018280548015610ed5576020028201919060005260206000209081546001600160a01b03168152600190910190602001808311610eb7575050505050905090565b6004546001600160a01b0316611f33612275565b6001600160a01b031614611f595760405162461bcd60e51b815260040161081f90612b56565b60005b600d54811015610e3a57611fa4600d8281548110611f7c57611f7c612c1b565b60009182526020808320909101546001600160a01b03168252600b9052604090205460ff1690565b61212f576000600a6000600d8481548110611fc157611fc1612c1b565b60009182526020808320909101546001600160a01b03168352820192909252604001812054600d8054919350600a918391908690811061200357612003612c1b565b6000918252602080832091909101546001600160a01b039081168452908301939093526040918201902092909255600f54915163a9059cbb60e01b815285821660048201526024810184905291169063a9059cbb906044016020604051808303816000875af115801561207a573d6000803e3d6000fd5b505050506040513d601f19601f8201168201806040525081019061209e9190612c31565b50826001600160a01b03166350f3dbec600d84815481106120c1576120c1612c1b565b60009182526020909120015460405160e083901b6001600160e01b03191681526001600160a01b03909116600482015260248101849052604401600060405180830381600087803b15801561211557600080fd5b505af1158015612129573d6000803e3d6000fd5b50505050505b600101611f5c565b6004546001600160a01b031661214b612275565b6001600160a01b0316146121715760405162461bcd60e51b815260040161081f90612b56565b600480546001600160a01b0319166001600160a01b0392909216919091179055565b61219b612284565b6001600160a01b0381166121c557604051631e4fbdf760e01b81526000600482015260240161081f565b611b13816123e3565b6004546001600160a01b03166121e2612275565b6001600160a01b0316146122085760405162461bcd60e51b815260040161081f90612b56565b601080546001600160a01b0319166001600160a01b0392909216919091179055565b612235611aba612275565b5061223e612275565b6001600160a01b03167fd802e7c7f1646e3318c03abed1e468bdf913f45331a68dc912a0d645eb646a4260405160405180910390a2565b600061227f6124eb565b905090565b61228c612275565b6001600160a01b03166122a76002546001600160a01b031690565b6001600160a01b0316146108e5576122bd612275565b60405163118cdaa760e01b81526001600160a01b03909116600482015260240161081f565b600080546001808201808455838052919290918390811061230557612305612c1b565b90600052602060002090602091828204019190066101000a81548160ff02191690831515021790555060008183604051602001612343929190612dd5565b6040516020818303038152906040529050600061235e61252f565b905060008183604051602001612375929190612dd5565b60408051601f198184030181528282528051602080830191909120600089815260019092529290208290559250907fd91fc3685b930310b008ec37d2334870cab88a023ed8cc628a2e2ccd4e55d202906123d29085908790612dd5565b60405180910390a150505050919050565b600280546001600160a01b038381166001600160a01b0319831681179093556040519116919082907f8be0079c531659141344cd1fd0a4f28419497f9722a3daafe3b4186f6b6457e090600090a35050565b60008180602001905181019061244b9190612e0f565b9050600061245885612586565b6004549091506001600160a01b039081169083160361247b5760088190556124a1565b6001600160a01b038216600090815260116020526040902081905561249f82610c31565b505b816001600160a01b03167fdc88f22db6d7f267e15a797eb52635df440f5f8b47a89ac56fa5b212e4e97e2d826040516124dc91815260200190565b60405180910390a25050505050565b60007f00000000000000000000000000000000000000000000000000000000000000006001600160a01b0316330361252a575060131936013560601c90565b503390565b6000806125406364e6212742612bf5565b9050600061254f600383612be1565b61255a906001612c08565b9050466001146125745761256f816001612c08565b61257f565b61257f816004612c08565b9250505090565b600080612592836125b6565b905060006125a3826000600e61272d565b90506125ae816127e6565b949350505050565b6060816000036125dd5750506040805180820190915260018152600360fc1b602082015290565b604080516050808252608082019092526000908260208201818036833701905050905060005b841561266d576000612616600a87612e2c565b9050612623600a87612be1565b9550612630816030612e40565b60f81b838361263e81612e59565b94508151811061265057612650612c1b565b60200101906001600160f81b031916908160001a90535050612603565b60008167ffffffffffffffff81111561268857612688612a3d565b6040519080825280601f01601f1916602001820160405280156126b2576020820181803683370190505b50905060005b82811015612723578360016126cd8386612bf5565b6126d79190612bf5565b815181106126e7576126e7612c1b565b602001015160f81c60f81b82828151811061270457612704612c1b565b60200101906001600160f81b031916908160001a9053506001016126b8565b5095945050505050565b606083600061273c8585612bf5565b67ffffffffffffffff81111561275457612754612a3d565b6040519080825280601f01601f19166020018201604052801561277e576020820181803683370190505b509050845b848110156127235782818151811061279d5761279d612c1b565b01602001516001600160f81b031916826127b78884612bf5565b815181106127c7576127c7612c1b565b60200101906001600160f81b031916908160001a905350600101612783565b60008181805b825181101561288457603083828151811061280957612809612c1b565b016020015160f81c108015906128395750603983828151811061282e5761282e612c1b565b016020015160f81c11155b1561287c57603083828151811061285257612852612c1b565b0160200151612864919060f81c612bf5565b61286f83600a612bae565b6128799190612c08565b91505b6001016127ec565b509392505050565b60006020828403121561289e57600080fd5b5035919050565b6001600160a01b0381168114611b1357600080fd5b8035610cda816128a5565b6000602082840312156128d757600080fd5b81356128e2816128a5565b9392505050565b600080604083850312156128fc57600080fd5b8235612907816128a5565b946020939093013593505050565b6020808252825182820181905260009190848201906040850190845b818110156129565783516001600160a01b031683529284019291840191600101612931565b50909695505050505050565b60006020828403121561297457600080fd5b8135600381106128e257600080fd5b634e487b7160e01b600052602160045260246000fd5b60208101600383106129bb57634e487b7160e01b600052602160045260246000fd5b91905290565b6000806000604084860312156129d657600080fd5b83359250602084013567ffffffffffffffff808211156129f557600080fd5b818601915086601f830112612a0957600080fd5b813581811115612a1857600080fd5b876020828501011115612a2a57600080fd5b6020830194508093505050509250925092565b634e487b7160e01b600052604160045260246000fd5b604051610120810167ffffffffffffffff81118282101715612a7757612a77612a3d565b60405290565b604051601f8201601f1916810167ffffffffffffffff81118282101715612aa657612aa6612a3d565b604052919050565b60006101208284031215612ac157600080fd5b612ac9612a53565b612ad2836128ba565b8152612ae0602084016128ba565b6020820152612af1604084016128ba565b6040820152612b02606084016128ba565b60608201526080830135608082015260a083013560a0820152612b2760c084016128ba565b60c0820152612b3860e084016128ba565b60e0820152610100612b4b8185016128ba565b908201529392505050565b60208082526022908201527f4f6e6c792073656c6c65722063616e2063616c6c20746869732066756e63746960408201526137b760f11b606082015260800190565b634e487b7160e01b600052601160045260246000fd5b8082028115828204841417612bc557612bc5612b98565b92915050565b634e487b7160e01b600052601260045260246000fd5b600082612bf057612bf0612bcb565b500490565b81810381811115612bc557612bc5612b98565b80820180821115612bc557612bc5612b98565b634e487b7160e01b600052603260045260246000fd5b600060208284031215612c4357600080fd5b815180151581146128e257600080fd5b600067ffffffffffffffff821115612c6d57612c6d612a3d565b50601f01601f191660200190565b60008060408385031215612c8e57600080fd5b82359150602083013567ffffffffffffffff811115612cac57600080fd5b8301601f81018513612cbd57600080fd5b8035612cd0612ccb82612c53565b612a7d565b818152866020838501011115612ce557600080fd5b816020840160208301376000602083830101528093505050509250929050565b60005b83811015612d20578181015183820152602001612d08565b50506000910152565b60008060408385031215612d3c57600080fd5b82519150602083015167ffffffffffffffff811115612d5a57600080fd5b8301601f81018513612d6b57600080fd5b8051612d79612ccb82612c53565b818152866020838501011115612d8e57600080fd5b612d9f826020830160208601612d05565b8093505050509250929050565b8183823760009101908152919050565b600060208284031215612dce57600080fd5b5051919050565b8281526040602082015260008251806040840152612dfa816060850160208701612d05565b601f01601f1916919091016060019392505050565b600060208284031215612e2157600080fd5b81516128e2816128a5565b600082612e3b57612e3b612bcb565b500690565b60ff8181168382160190811115612bc557612bc5612b98565b600060018201612e6b57612e6b612b98565b506001019056fea264697066735822122066eabe5130ce4ffada04525628dcf1c5f0a867f8408e06625d38be56c42c8cd064736f6c63430008190033","linkReferences":{}},"methodIdentifiers":{"buyerWithdraw()":"7cc947d0","changeLotteryState(uint8)":"683e93e1","claimNumber(address)":"3dc204e7","deposit(uint256)":"b6b55f25","deposits(address)":"fc7e286d","endLottery()":"1593a8c7","fulfillRandomness(uint256,bytes)":"b3f6b99a","getDepositedAmount(address)":"e9081ec7","getParticipants()":"5aa68ac0","getRandomNumber()":"dbdff2c1","getWinners()":"df15c37e","hasMinted(address)":"38e21cce","initialize((address,address,address,address,uint256,uint256,address,address,address))":"cf54d3b8","initialized()":"158ef93e","isClaimable(address)":"292fec04","isTrustedForwarder(address)":"572b6c05","isWinner(address)":"9d9ca28d","lotteryState()":"6939864b","lotteryV1Addr()":"5f86e4fe","minimumDepositAmount()":"080c279a","mintMyNFT()":"26170480","multisigWalletAddress()":"a61fb2ba","nftContractAddr()":"2c23ec8e","numberOfTickets()":"45745c10","operatorAddr()":"f3f18c37","owner()":"8da5cb5b","randomNumber()":"ccbac9f5","renounceOwnership()":"715018a6","requestPending(uint256)":"75ce7fff","requestRandomness()":"f8413b07","requestedHash(uint256)":"c4f8f27b","roll()":"cd5e3c5d","rollPrice()":"cf3af3a1","rollTolerance()":"bf1dda15","rolledNumbers(address)":"7b15452d","seller()":"08551a53","sellerWithdraw()":"66af746b","setLotteryV1Addr(address)":"f7098e58","setMinimumDepositAmount(uint256)":"aab483d6","setMultisigWalletAddress(address)":"60d50da3","setNftContractAddr(address)":"3644c27c","setNumberOfTickets(uint256)":"99bd69d6","setRandomNumber()":"97fedfcb","setRollPrice(uint256)":"5687156e","setRollTolerance(uint256)":"12f0800b","setSeller(address)":"e99d2866","setUsdcContractAddr(address)":"94d898de","setWinner(address)":"d9fca769","startLottery()":"160344e2","transferDeposit(address,uint256)":"50f3dbec","transferNonWinnerDeposits(address)":"e63c4609","transferOwnership(address)":"f2fde38b","usdcContractAddr()":"99dbf4b5","winnerAddresses(uint256)":"045f9c97","winners(address)":"6bd5450a"},"id":46}