{"abi":[{"type":"function","name":"buyerWithdraw","inputs":[],"outputs":[],"stateMutability":"nonpayable"},{"type":"function","name":"changeLotteryState","inputs":[{"name":"_newState","type":"uint8","internalType":"enum SaleBase.LotteryState"}],"outputs":[],"stateMutability":"nonpayable"},{"type":"function","name":"claimNumber","inputs":[{"name":"_participant","type":"address","internalType":"address"}],"outputs":[{"name":"","type":"bool","internalType":"bool"}],"stateMutability":"nonpayable"},{"type":"function","name":"deposit","inputs":[{"name":"amount","type":"uint256","internalType":"uint256"}],"outputs":[],"stateMutability":"nonpayable"},{"type":"function","name":"deposits","inputs":[{"name":"","type":"address","internalType":"address"}],"outputs":[{"name":"","type":"uint256","internalType":"uint256"}],"stateMutability":"view"},{"type":"function","name":"endLottery","inputs":[],"outputs":[],"stateMutability":"nonpayable"},{"type":"function","name":"fulfillRandomness","inputs":[{"name":"randomness","type":"uint256","internalType":"uint256"},{"name":"dataWithRound","type":"bytes","internalType":"bytes"}],"outputs":[],"stateMutability":"nonpayable"},{"type":"function","name":"getDepositedAmount","inputs":[{"name":"participant","type":"address","internalType":"address"}],"outputs":[{"name":"","type":"uint256","internalType":"uint256"}],"stateMutability":"view"},{"type":"function","name":"getParticipants","inputs":[],"outputs":[{"name":"","type":"address[]","internalType":"address[]"}],"stateMutability":"view"},{"type":"function","name":"getRandomNumber","inputs":[],"outputs":[{"name":"","type":"uint256","internalType":"uint256"}],"stateMutability":"view"},{"type":"function","name":"getWinners","inputs":[],"outputs":[{"name":"","type":"address[]","internalType":"address[]"}],"stateMutability":"view"},{"type":"function","name":"hasMinted","inputs":[{"name":"","type":"address","internalType":"address"}],"outputs":[{"name":"","type":"bool","internalType":"bool"}],"stateMutability":"view"},{"type":"function","name":"initialize","inputs":[{"name":"config","type":"tuple","internalType":"struct StructsLibrary.ILotteryV2BaseConfig","components":[{"name":"_gelatoVrfOperator","type":"address","internalType":"address"},{"name":"_blessedOperator","type":"address","internalType":"address"},{"name":"_owner","type":"address","internalType":"address"},{"name":"_ticketAmount","type":"uint256","internalType":"uint256"},{"name":"_ticketPrice","type":"uint256","internalType":"uint256"},{"name":"_rollPrice","type":"uint256","internalType":"uint256"},{"name":"_rollTolerance","type":"uint256","internalType":"uint256"},{"name":"_usdcContractAddr","type":"address","internalType":"address"},{"name":"_nftContractAddr","type":"address","internalType":"address"},{"name":"_multisigWalletAddress","type":"address","internalType":"address"},{"name":"_prevPhaseContractAddr","type":"address","internalType":"address"}]}],"outputs":[],"stateMutability":"nonpayable"},{"type":"function","name":"initialized","inputs":[],"outputs":[{"name":"","type":"bool","internalType":"bool"}],"stateMutability":"view"},{"type":"function","name":"isClaimable","inputs":[{"name":"_participant","type":"address","internalType":"address"}],"outputs":[{"name":"","type":"bool","internalType":"bool"}],"stateMutability":"view"},{"type":"function","name":"isTrustedForwarder","inputs":[{"name":"forwarder","type":"address","internalType":"address"}],"outputs":[{"name":"","type":"bool","internalType":"bool"}],"stateMutability":"view"},{"type":"function","name":"isWinner","inputs":[{"name":"_participant","type":"address","internalType":"address"}],"outputs":[{"name":"","type":"bool","internalType":"bool"}],"stateMutability":"view"},{"type":"function","name":"lotteryState","inputs":[],"outputs":[{"name":"","type":"uint8","internalType":"enum SaleBase.LotteryState"}],"stateMutability":"view"},{"type":"function","name":"lotteryV1Addr","inputs":[],"outputs":[{"name":"","type":"address","internalType":"address"}],"stateMutability":"view"},{"type":"function","name":"minimumDepositAmount","inputs":[],"outputs":[{"name":"","type":"uint256","internalType":"uint256"}],"stateMutability":"view"},{"type":"function","name":"mintMyNFT","inputs":[],"outputs":[],"stateMutability":"nonpayable"},{"type":"function","name":"multisigWalletAddress","inputs":[],"outputs":[{"name":"","type":"address","internalType":"address"}],"stateMutability":"view"},{"type":"function","name":"nftContractAddr","inputs":[],"outputs":[{"name":"","type":"address","internalType":"address"}],"stateMutability":"view"},{"type":"function","name":"numberOfTickets","inputs":[],"outputs":[{"name":"","type":"uint256","internalType":"uint256"}],"stateMutability":"view"},{"type":"function","name":"operatorAddr","inputs":[],"outputs":[{"name":"","type":"address","internalType":"address"}],"stateMutability":"view"},{"type":"function","name":"owner","inputs":[],"outputs":[{"name":"","type":"address","internalType":"address"}],"stateMutability":"view"},{"type":"function","name":"randomNumber","inputs":[],"outputs":[{"name":"","type":"uint256","internalType":"uint256"}],"stateMutability":"view"},{"type":"function","name":"renounceOwnership","inputs":[],"outputs":[],"stateMutability":"nonpayable"},{"type":"function","name":"requestPending","inputs":[{"name":"","type":"uint256","internalType":"uint256"}],"outputs":[{"name":"","type":"bool","internalType":"bool"}],"stateMutability":"view"},{"type":"function","name":"requestRandomness","inputs":[],"outputs":[],"stateMutability":"nonpayable"},{"type":"function","name":"requestedHash","inputs":[{"name":"","type":"uint256","internalType":"uint256"}],"outputs":[{"name":"","type":"bytes32","internalType":"bytes32"}],"stateMutability":"view"},{"type":"function","name":"roll","inputs":[],"outputs":[],"stateMutability":"nonpayable"},{"type":"function","name":"rollPrice","inputs":[],"outputs":[{"name":"","type":"uint256","internalType":"uint256"}],"stateMutability":"view"},{"type":"function","name":"rollTolerance","inputs":[],"outputs":[{"name":"","type":"uint256","internalType":"uint256"}],"stateMutability":"view"},{"type":"function","name":"rolledNumbers","inputs":[{"name":"","type":"address","internalType":"address"}],"outputs":[{"name":"","type":"uint256","internalType":"uint256"}],"stateMutability":"view"},{"type":"function","name":"seller","inputs":[],"outputs":[{"name":"","type":"address","internalType":"address"}],"stateMutability":"view"},{"type":"function","name":"sellerWithdraw","inputs":[],"outputs":[],"stateMutability":"nonpayable"},{"type":"function","name":"setRandomNumber","inputs":[],"outputs":[],"stateMutability":"nonpayable"},{"type":"function","name":"setSeller","inputs":[{"name":"_seller","type":"address","internalType":"address"}],"outputs":[],"stateMutability":"nonpayable"},{"type":"function","name":"startLottery","inputs":[],"outputs":[],"stateMutability":"nonpayable"},{"type":"function","name":"ticketPrice","inputs":[],"outputs":[{"name":"","type":"uint256","internalType":"uint256"}],"stateMutability":"view"},{"type":"function","name":"transferDeposit","inputs":[{"name":"_participant","type":"address","internalType":"address"},{"name":"_amount","type":"uint256","internalType":"uint256"}],"outputs":[],"stateMutability":"nonpayable"},{"type":"function","name":"transferNonWinnerDeposits","inputs":[{"name":"auctionV1addr","type":"address","internalType":"address"}],"outputs":[],"stateMutability":"nonpayable"},{"type":"function","name":"transferOwnership","inputs":[{"name":"newOwner","type":"address","internalType":"address"}],"outputs":[],"stateMutability":"nonpayable"},{"type":"function","name":"usdcContractAddr","inputs":[],"outputs":[{"name":"","type":"address","internalType":"address"}],"stateMutability":"view"},{"type":"function","name":"winnerAddresses","inputs":[{"name":"","type":"uint256","internalType":"uint256"}],"outputs":[{"name":"","type":"address","internalType":"address"}],"stateMutability":"view"},{"type":"function","name":"winners","inputs":[{"name":"","type":"address","internalType":"address"}],"outputs":[{"name":"","type":"bool","internalType":"bool"}],"stateMutability":"view"},{"type":"event","name":"BuyerDeposited","inputs":[{"name":"buyer","type":"address","indexed":true,"internalType":"address"},{"name":"amount","type":"uint256","indexed":true,"internalType":"uint256"}],"anonymous":false},{"type":"event","name":"BuyerWithdrew","inputs":[{"name":"buyer","type":"address","indexed":true,"internalType":"address"},{"name":"amount","type":"uint256","indexed":true,"internalType":"uint256"}],"anonymous":false},{"type":"event","name":"DepositsReturned","inputs":[{"name":"returnedDepositsCount","type":"uint256","indexed":false,"internalType":"uint256"}],"anonymous":false},{"type":"event","name":"LotteryEnded","inputs":[],"anonymous":false},{"type":"event","name":"LotteryStarted","inputs":[],"anonymous":false},{"type":"event","name":"OwnershipTransferred","inputs":[{"name":"previousOwner","type":"address","indexed":true,"internalType":"address"},{"name":"newOwner","type":"address","indexed":true,"internalType":"address"}],"anonymous":false},{"type":"event","name":"RandomFulfilled","inputs":[{"name":"requester","type":"address","indexed":true,"internalType":"address"},{"name":"number","type":"uint256","indexed":false,"internalType":"uint256"}],"anonymous":false},{"type":"event","name":"RandomRequested","inputs":[{"name":"requester","type":"address","indexed":true,"internalType":"address"}],"anonymous":false},{"type":"event","name":"RequestedRandomness","inputs":[{"name":"round","type":"uint256","indexed":false,"internalType":"uint256"},{"name":"data","type":"bytes","indexed":false,"internalType":"bytes"}],"anonymous":false},{"type":"event","name":"WinnerSelected","inputs":[{"name":"winner","type":"address","indexed":true,"internalType":"address"}],"anonymous":false},{"type":"error","name":"OwnableInvalidOwner","inputs":[{"name":"owner","type":"address","internalType":"address"}]},{"type":"error","name":"OwnableUnauthorizedAccount","inputs":[{"name":"account","type":"address","internalType":"address"}]}],"bytecode":{"object":"0x60a06040526000805460ff60a81b1916905534801561001d57600080fd5b5073d8253782c45a12053594b9deb72d8e8ab2fca54c338061005957604051631e4fbdf760e01b81526000600482015260240160405180910390fd5b61006281610074565b506001600160a01b03166080526100c4565b600080546001600160a01b038381166001600160a01b0319831681178455604051919092169283917f8be0079c531659141344cd1fd0a4f28419497f9722a3daafe3b4186f6b6457e09190a35050565b608051612dd86100e6600039600081816103c301526126c70152612dd86000f3fe608060405234801561001057600080fd5b50600436106102955760003560e01c80637b15452d11610167578063cd5e3c5d116100ce578063e9081ec711610087578063e9081ec7146105c7578063e99d2866146105f0578063f2fde38b14610603578063f3f18c3714610616578063f8413b0714610629578063fc7e286d1461063157600080fd5b8063cd5e3c5d14610580578063ce1121f214610588578063cf3af3a11461059b578063dbdff2c1146105a4578063df15c37e146105ac578063e63c4609146105b457600080fd5b8063a61fb2ba11610120578063a61fb2ba14610515578063b3f6b99a14610528578063b6b55f251461053b578063bf1dda151461054e578063c4f8f27b14610557578063ccbac9f51461057757600080fd5b80637b15452d146104955780637cc947d0146104b55780638da5cb5b146104bd57806397fedfcb146104ce57806399dbf4b5146104d65780639d9ca28d146104e957600080fd5b80633dc204e71161020b57806366af746b116101c457806366af746b1461041b578063683e93e1146104235780636939864b146104365780636bd5450a14610457578063715018a61461047a57806375ce7fff1461048257600080fd5b80633dc204e71461038457806345745c101461039757806350f3dbec146103a0578063572b6c05146103b35780635aa68ac0146103f35780635f86e4fe1461040857600080fd5b80631593a8c71161025d5780631593a8c714610321578063160344e21461032b5780632617048014610333578063292fec041461033b5780632c23ec8e1461034e57806338e21cce1461036157600080fd5b8063045f9c971461029a578063080c279a146102ca57806308551a53146102e15780631209b1f6146102f4578063158ef93e146102fd575b600080fd5b6102ad6102a8366004612790565b610651565b6040516001600160a01b0390911681526020015b60405180910390f35b6102d360035481565b6040519081526020016102c1565b6002546102ad906001600160a01b031681565b6102d360055481565b60005461031190600160a81b900460ff1681565b60405190151581526020016102c1565b61032961067b565b005b6103296106fb565b6103296107d6565b6103116103493660046127c9565b610ac5565b600b546102ad906001600160a01b031681565b61031161036f3660046127c9565b60066020526000908152604090205460ff1681565b6103116103923660046127c9565b610bd4565b6102d360045481565b6103296103ae3660046127ed565b610ca7565b6103116103c13660046127c9565b7f00000000000000000000000000000000000000000000000000000000000000006001600160a01b0390811691161490565b6103fb610df9565b6040516102c19190612819565b6011546102ad906001600160a01b031681565b610329610e5b565b610329610431366004612866565b611092565b60005461044a90600160a01b900460ff1681565b6040516102c1919061289d565b6103116104653660046127c9565b60086020526000908152604090205460ff1681565b6103296110f9565b610311610490366004612790565b61110d565b6102d36104a33660046127c9565b60126020526000908152604090205481565b610329611141565b6000546001600160a01b03166102ad565b610329611385565b600c546102ad906001600160a01b031681565b6103116104f73660046127c9565b6001600160a01b031660009081526008602052604090205460ff1690565b6001546102ad906001600160a01b031681565b6103296105363660046128c5565b61141c565b610329610549366004612790565b6115f6565b6102d360145481565b6102d3610565366004612790565b600e6020526000908152604090205481565b6102d360105481565b610329611a77565b6103296105963660046129b2565b611c23565b6102d360135481565b6102d3611d4c565b6103fb611da3565b6103296105c23660046127c9565b611e03565b6102d36105d53660046127c9565b6001600160a01b031660009081526007602052604090205490565b6103296105fe3660046127c9565b61201f565b6103296106113660046127c9565b61207b565b600f546102ad906001600160a01b031681565b6103296120b6565b6102d361063f3660046127c9565b60076020526000908152604090205481565b6009818154811061066157600080fd5b6000918252602090912001546001600160a01b0316905081565b6002546001600160a01b031661068f61213b565b6001600160a01b0316146106be5760405162461bcd60e51b81526004016106b590612a70565b60405180910390fd5b6106c86002611092565b6106d061214a565b6040517f9c89a6ed7228533196a3f962acc80d61a9c53bdea6b910741bf754f5aaa7569e90600090a1565b6002546001600160a01b031661070f61213b565b6001600160a01b0316146107355760405162461bcd60e51b81526004016106b590612a70565b60008054600160a01b900460ff16600281111561075457610754612887565b146107a15760405162461bcd60e51b815260206004820152601760248201527f53616c6520697320696e2061637469766520737461746500000000000000000060448201526064016106b5565b6107ab6001611092565b6040517fd029c7c68d943f92286a7825fa6aa2deefa1eee46cee6c91b7e483fd06d27baf90600090a1565b600660006107e261213b565b6001600160a01b0316815260208101919091526040016000205460ff16156108415760405162461bcd60e51b815260206004820152601260248201527113919508185b1c9958591e481b5a5b9d195960721b60448201526064016106b5565b61084961213b565b601154604051639d9ca28d60e01b81526001600160a01b03838116600483015290911690639d9ca28d90602401602060405180830381865afa158015610893573d6000803e3d6000fd5b505050506040513d601f19601f820116820180604052508101906108b79190612ab2565b156108d45760405162461bcd60e51b81526004016106b590612ad4565b6108df6104f761213b565b6109245760405162461bcd60e51b815260206004820152601660248201527521b0b63632b91034b9903737ba1030903bb4b73732b960511b60448201526064016106b5565b60016006600061093261213b565b6001600160a01b0316815260208101919091526040016000908120805460ff19169215159290921790915560055460078261096b61213b565b6001600160a01b03166001600160a01b03168152602001908152602001600020546109969190612b32565b90508015610a2a57600c546001600160a01b031663a9059cbb6109b761213b565b6040516001600160e01b031960e084901b1681526001600160a01b039091166004820152602481018490526044016020604051808303816000875af1158015610a04573d6000803e3d6000fd5b505050506040513d601f19601f82011682018060405250810190610a289190612ab2565b505b600060076000610a3861213b565b6001600160a01b039081168252602082019290925260400160002091909155600b5416636b8f60f6610a6861213b565b6040516001600160e01b031960e084901b1681526001600160a01b039091166004820152602401600060405180830381600087803b158015610aa957600080fd5b505af1158015610abd573d6000803e3d6000fd5b505050505050565b6014546001600160a01b03821660009081526012602052604081205490918291606491610af191612b4b565b610afb9190612b78565b6001600160a01b038416600090815260126020526040902054610b1e9190612b32565b6014546001600160a01b03851660009081526012602052604081205492935091606491610b4a91612b4b565b610b549190612b78565b6001600160a01b038516600090815260126020526040902054610b779190612b8c565b905060008260105410158015610b8f57508160105411155b6005546001600160a01b03871660009081526007602052604090205491925011801590610bb95750805b15610bc957506001949350505050565b506000949350505050565b6000610bdf82610ac5565b8015610c0457506001600160a01b03821660009081526008602052604090205460ff16155b15610c9a576001600160a01b038216600081815260086020526040808220805460ff1916600190811790915560098054918201815583527f6e1540171b6c0c960b71a7020d9f60077f6af931a8bbf590da0223dacf75c7af0180546001600160a01b03191684179055517f1d4c260f1824cd028e6c9e6e31c3a0b94f2513e7a641113ec759d382f9bdd5a19190a2506001919050565b506000919050565b919050565b610caf61213b565b6011546001600160a01b03908116911614610d1c5760405162461bcd60e51b815260206004820152602760248201527f4f6e6c792077686974656c6973746564206d61792063616c6c207468697320666044820152663ab731ba34b7b760c91b60648201526084016106b5565b6001600160a01b0382166000908152600760205260408120549003610dc857600a8054600181019091557fc65a7bb8d6351c1cf70c95a316cc6a92839c986682d98bc35f958f4883f9d2a80180546001600160a01b0319166001600160a01b0384169081179091556000908152601260205260408120549003610dc857604080516001600160a01b0384166020820152610dc691015b604051602081830303815290604052612455565b505b6001600160a01b03821660009081526007602052604081208054839290610df0908490612b8c565b90915550505050565b6060600a805480602002602001604051908101604052809291908181526020018280548015610e5157602002820191906000526020600020905b81546001600160a01b03168152600190910190602001808311610e33575b5050505050905090565b6002546001600160a01b0316610e6f61213b565b6001600160a01b031614610e955760405162461bcd60e51b81526004016106b590612a70565b6002600054600160a01b900460ff166002811115610eb557610eb5612887565b14610ef65760405162461bcd60e51b8152602060048201526011602482015270131bdd1d195c9e481b9bdd08195b991959607a1b60448201526064016106b5565b6000805b600954811015610f6f57600060098281548110610f1957610f19612b9f565b60009182526020808320909101546001600160a01b03168083526007909152604090912054909150610f4b9084612b8c565b6001600160a01b039091166000908152600760205260408120559150600101610efa565b5060006064610f7f836005612b4b565b610f899190612b78565b90506000610f978284612b32565b600c5460015460405163a9059cbb60e01b81526001600160a01b03918216600482015260248101869052929350169063a9059cbb906044016020604051808303816000875af1158015610fee573d6000803e3d6000fd5b505050506040513d601f19601f820116820180604052508101906110129190612ab2565b50600c5460025460405163a9059cbb60e01b81526001600160a01b0391821660048201526024810184905291169063a9059cbb906044016020604051808303816000875af1158015611068573d6000803e3d6000fd5b505050506040513d601f19601f8201168201806040525081019061108c9190612ab2565b50505050565b6002546001600160a01b03166110a661213b565b6001600160a01b0316146110cc5760405162461bcd60e51b81526004016106b590612a70565b6000805482919060ff60a01b1916600160a01b8360028111156110f1576110f1612887565b021790555050565b611101612558565b61110b60006125b6565b565b600d818154811061111d57600080fd5b9060005260206000209060209182820401919006915054906101000a900460ff1681565b6002600054600160a01b900460ff16600281111561116157611161612887565b146111a65760405162461bcd60e51b815260206004820152601560248201527414d85b19481a5cc81b9bdd08195b991959081e595d605a1b60448201526064016106b5565b600860006111b261213b565b6001600160a01b0316815260208101919091526040016000205460ff161561121c5760405162461bcd60e51b815260206004820152601760248201527f57696e6e6572732063616e6e6f7420776974686472617700000000000000000060448201526064016106b5565b60006007600061122a61213b565b6001600160a01b03166001600160a01b03168152602001908152602001600020549050600081116112945760405162461bcd60e51b81526020600482015260146024820152734e6f2066756e647320746f20776974686472617760601b60448201526064016106b5565b6000600760006112a261213b565b6001600160a01b039081168252602082019290925260400160002091909155600c541663a9059cbb6112d261213b565b6040516001600160e01b031960e084901b1681526001600160a01b039091166004820152602481018490526044016020604051808303816000875af115801561131f573d6000803e3d6000fd5b505050506040513d601f19601f820116820180604052508101906113439190612ab2565b508061134d61213b565b6001600160a01b03167f1f280cd00e67ed50213ac03febd5be151f96b7f7db2f85312aa0feff99f8bdab60405160405180910390a350565b6002546001600160a01b031661139961213b565b6001600160a01b0316146113bf5760405162461bcd60e51b81526004016106b590612a70565b6010541561140f5760405162461bcd60e51b815260206004820152601960248201527f52616e646f6d206e756d62657220616c7265616479207365740000000000000060448201526064016106b5565b611417611d4c565b601055565b600f546001600160a01b031633146114665760405162461bcd60e51b815260206004820152600d60248201526c37b7363c9037b832b930ba37b960991b60448201526064016106b5565b600061147482840184612bdd565b9150506000808280602001905181019061148e9190612c8b565b91509150600085856040516114a4929190612d0e565b604051809103902090506000600e60008581526020019081526020016000205482149050600d84815481106114db576114db612b9f565b90600052602060002090602091828204019190069054906101000a900460ff166115475760405162461bcd60e51b815260206004820152601c60248201527f726571756573742066756c66696c6c6564206f72206d697373696e670000000060448201526064016106b5565b80156115ec5760408051602081018a905230918101919091524660608201526080810185905260a0016040516020818303038152906040528051906020012060001c9750611596888585612606565b6000600d85815481106115ab576115ab612b9f565b90600052602060002090602091828204019190066101000a81548160ff021916908315150217905550600e6000858152602001908152602001600020600090555b5050505050505050565b6001600054600160a01b900460ff16600281111561161657611616612887565b146116585760405162461bcd60e51b815260206004820152601260248201527153616c65206973206e6f742061637469766560701b60448201526064016106b5565b61166061213b565b601154604051639d9ca28d60e01b81526001600160a01b03838116600483015290911690639d9ca28d90602401602060405180830381865afa1580156116aa573d6000803e3d6000fd5b505050506040513d601f19601f820116820180604052508101906116ce9190612ab2565b156116eb5760405162461bcd60e51b81526004016106b590612ad4565b600c546001600160a01b03166117435760405162461bcd60e51b815260206004820152601d60248201527f5553444320636f6e74726163742061646472657373206e6f742073657400000060448201526064016106b5565b60135482101561178d5760405162461bcd60e51b8152602060048201526015602482015274139bdd08195b9bdd59da08199d5b991cc81cd95b9d605a1b60448201526064016106b5565b600c5482906001600160a01b031663dd62ed3e6117a861213b565b6040516001600160e01b031960e084901b1681526001600160a01b039091166004820152306024820152604401602060405180830381865afa1580156117f2573d6000803e3d6000fd5b505050506040513d601f19601f820116820180604052508101906118169190612d1e565b101561185d5760405162461bcd60e51b8152602060048201526016602482015275496e73756666696369656e7420616c6c6f77616e636560501b60448201526064016106b5565b600c546001600160a01b03166323b872dd61187661213b565b6040516001600160e01b031960e084901b1681526001600160a01b039091166004820152306024820152604481018590526064016020604051808303816000875af11580156118c9573d6000803e3d6000fd5b505050506040513d601f19601f820116820180604052508101906118ed9190612ab2565b50600760006118fa61213b565b6001600160a01b03166001600160a01b03168152602001908152602001600020546000036119f357600a61192c61213b565b81546001810183556000928352602083200180546001600160a01b0319166001600160a01b039290921691909117905560129061196761213b565b6001600160a01b03166001600160a01b03168152602001908152602001600020546000036119f3576119b461199a61213b565b604080516001600160a01b03909216602083015201610db2565b506119bd61213b565b6001600160a01b03167fd802e7c7f1646e3318c03abed1e468bdf913f45331a68dc912a0d645eb646a4260405160405180910390a25b8160076000611a0061213b565b6001600160a01b03166001600160a01b031681526020019081526020016000206000828254611a2f9190612b8c565b90915550829050611a3e61213b565b6001600160a01b03167f21040858e63c11c046482f61f290bbe25972fc74b11b4570a01f9241082d21f160405160405180910390a35050565b6001600054600160a01b900460ff166002811115611a9757611a97612887565b14611ad95760405162461bcd60e51b815260206004820152601260248201527153616c65206973206e6f742061637469766560701b60448201526064016106b5565b600060135411611b1f5760405162461bcd60e51b8152602060048201526011602482015270139bc81c9bdb1b081c1c9a58d9481cd95d607a1b60448201526064016106b5565b600554601354611b2f9190612b8c565b60076000611b3b61213b565b6001600160a01b03166001600160a01b03168152602001908152602001600020541015611b9f5760405162461bcd60e51b8152602060048201526012602482015271496e73756666696369656e742066756e647360701b60448201526064016106b5565b60135460076000611bae61213b565b6001600160a01b03166001600160a01b031681526020019081526020016000206000828254611bdd9190612b32565b90915550506013546002546001600160a01b031660009081526007602052604081208054909190611c0f908490612b8c565b90915550611c20905061199a61213b565b50565b600054600160a81b900460ff1615611c735760405162461bcd60e51b8152602060048201526013602482015272105b1c9958591e481a5b9a5d1a585b1a5e9959606a1b60448201526064016106b5565b6020810151600280546001600160a01b039283166001600160a01b0319918216179091558251600f80549190931691161790556040810151611cb4906125b6565b6060810151600455608081015160055560a081015160135560c081015160145560e0810151600c80546001600160a01b03199081166001600160a01b0393841617909155610100830151600b805483169184169190911790556101208301516001805483169184169190911790556101409092015160118054909316911617905560008054600160a81b60ff60a81b19909116179055565b60004244611d5861213b565b6040805160208101949094528301919091526bffffffffffffffffffffffff19606091821b16908201526074016040516020818303038152906040528051906020012060001c905090565b60606009805480602002602001604051908101604052809291908181526020018280548015610e51576020028201919060005260206000209081546001600160a01b03168152600190910190602001808311610e33575050505050905090565b6002546001600160a01b0316611e1761213b565b6001600160a01b031614611e3d5760405162461bcd60e51b81526004016106b590612a70565b60005b600a5481101561201b57611e88600a8281548110611e6057611e60612b9f565b60009182526020808320909101546001600160a01b0316825260089052604090205460ff1690565b61201357600060076000600a8481548110611ea557611ea5612b9f565b60009182526020808320909101546001600160a01b03168352820192909252604001812054600a805491935060079183919086908110611ee757611ee7612b9f565b6000918252602080832091909101546001600160a01b039081168452908301939093526040918201902092909255600c54915163a9059cbb60e01b815285821660048201526024810184905291169063a9059cbb906044016020604051808303816000875af1158015611f5e573d6000803e3d6000fd5b505050506040513d601f19601f82011682018060405250810190611f829190612ab2565b50826001600160a01b03166350f3dbec600a8481548110611fa557611fa5612b9f565b60009182526020909120015460405160e083901b6001600160e01b03191681526001600160a01b03909116600482015260248101849052604401600060405180830381600087803b158015611ff957600080fd5b505af115801561200d573d6000803e3d6000fd5b50505050505b600101611e40565b5050565b6002546001600160a01b031661203361213b565b6001600160a01b0316146120595760405162461bcd60e51b81526004016106b590612a70565b600280546001600160a01b0319166001600160a01b0392909216919091179055565b612083612558565b6001600160a01b0381166120ad57604051631e4fbdf760e01b8152600060048201526024016106b5565b611c20816125b6565b6002546001600160a01b03166120ca61213b565b6001600160a01b0316146120f05760405162461bcd60e51b81526004016106b590612a70565b6120fb61199a61213b565b5061210461213b565b6001600160a01b03167fd802e7c7f1646e3318c03abed1e468bdf913f45331a68dc912a0d645eb646a4260405160405180910390a2565b60006121456126c3565b905090565b6002546001600160a01b031661215e61213b565b6001600160a01b0316146121845760405162461bcd60e51b81526004016106b590612a70565b6002600054600160a01b900460ff1660028111156121a4576121a4612887565b146121e95760405162461bcd60e51b815260206004820152601560248201527414d85b19481a5cc81b9bdd08195b991959081e595d605a1b60448201526064016106b5565b600a5460008167ffffffffffffffff81111561220757612207612941565b604051908082528060200260200182016040528015612230578160200160208202803683370190505b50905060005b828110156122a157600a818154811061225157612251612b9f565b9060005260206000200160009054906101000a90046001600160a01b031682828151811061228157612281612b9f565b6001600160a01b0390921660209283029190910190910152600101612236565b5060005b828110156124115760008282815181106122c1576122c1612b9f565b6020908102919091018101516001600160a01b0381166000908152600783526040808220805490839055600890945290205490925060ff161561238e5760006005548261230e9190612b32565b600c5460405163a9059cbb60e01b81526001600160a01b0386811660048301526024820184905292935091169063a9059cbb906044016020604051808303816000875af1158015612363573d6000803e3d6000fd5b505050506040513d601f19601f820116820180604052508101906123879190612ab2565b5050612407565b600c5460405163a9059cbb60e01b81526001600160a01b038481166004830152602482018490529091169063a9059cbb906044016020604051808303816000875af11580156123e1573d6000803e3d6000fd5b505050506040513d601f19601f820116820180604052508101906124059190612ab2565b505b50506001016122a5565b5061241e600a600061275e565b6040518281527f01f8aef848121bbf182106b55119c1094063c572b6c8dcb09040e1203a17abf99060200160405180910390a15050565b600d805460018082018084556000849052919290918390811061247a5761247a612b9f565b90600052602060002090602091828204019190066101000a81548160ff021916908315150217905550600081836040516020016124b8929190612d37565b604051602081830303815290604052905060006124d3612707565b9050600081836040516020016124ea929190612d37565b60408051601f1981840301815282825280516020808301919091206000898152600e9092529290208290559250907fd91fc3685b930310b008ec37d2334870cab88a023ed8cc628a2e2ccd4e55d202906125479085908790612d37565b60405180910390a150505050919050565b61256061213b565b6001600160a01b031661257b6000546001600160a01b031690565b6001600160a01b03161461110b5761259161213b565b60405163118cdaa760e01b81526001600160a01b0390911660048201526024016106b5565b600080546001600160a01b038381166001600160a01b0319831681178455604051919092169283917f8be0079c531659141344cd1fd0a4f28419497f9722a3daafe3b4186f6b6457e09190a35050565b60008180602001905181019061261c9190612d71565b90506000612630655af3107a400086612d8e565b6002549091506001600160a01b0390811690831603612653576010819055612679565b6001600160a01b038216600090815260126020526040902081905561267782610bd4565b505b816001600160a01b03167f85e7483164122a78ca40e7f10b414e6f78c7d47abdae87716e0fb3491290c6ec826040516126b491815260200190565b60405180910390a25050505050565b60007f00000000000000000000000000000000000000000000000000000000000000006001600160a01b03163303612702575060131936013560601c90565b503390565b6000806127186364e6212742612b32565b90506000612727600383612b78565b612732906001612b8c565b90504660011461274c57612747816001612b8c565b612757565b612757816004612b8c565b9250505090565b5080546000825590600052602060002090810190611c2091905b8082111561278c5760008155600101612778565b5090565b6000602082840312156127a257600080fd5b5035919050565b6001600160a01b0381168114611c2057600080fd5b8035610ca2816127a9565b6000602082840312156127db57600080fd5b81356127e6816127a9565b9392505050565b6000806040838503121561280057600080fd5b823561280b816127a9565b946020939093013593505050565b6020808252825182820181905260009190848201906040850190845b8181101561285a5783516001600160a01b031683529284019291840191600101612835565b50909695505050505050565b60006020828403121561287857600080fd5b8135600381106127e657600080fd5b634e487b7160e01b600052602160045260246000fd5b60208101600383106128bf57634e487b7160e01b600052602160045260246000fd5b91905290565b6000806000604084860312156128da57600080fd5b83359250602084013567ffffffffffffffff808211156128f957600080fd5b818601915086601f83011261290d57600080fd5b81358181111561291c57600080fd5b87602082850101111561292e57600080fd5b6020830194508093505050509250925092565b634e487b7160e01b600052604160045260246000fd5b604051610160810167ffffffffffffffff8111828210171561297b5761297b612941565b60405290565b604051601f8201601f1916810167ffffffffffffffff811182821017156129aa576129aa612941565b604052919050565b600061016082840312156129c557600080fd5b6129cd612957565b6129d6836127be565b81526129e4602084016127be565b60208201526129f5604084016127be565b6040820152606083013560608201526080830135608082015260a083013560a082015260c083013560c0820152612a2e60e084016127be565b60e0820152610100612a418185016127be565b90820152610120612a538482016127be565b90820152610140612a658482016127be565b908201529392505050565b60208082526022908201527f4f6e6c792073656c6c65722063616e2063616c6c20746869732066756e63746960408201526137b760f11b606082015260800190565b600060208284031215612ac457600080fd5b815180151581146127e657600080fd5b60208082526028908201527f5061727469636970616e742068617320616c726561647920776f6e20696e204c6040820152676f7474657279563160c01b606082015260800190565b634e487b7160e01b600052601160045260246000fd5b81810381811115612b4557612b45612b1c565b92915050565b8082028115828204841417612b4557612b45612b1c565b634e487b7160e01b600052601260045260246000fd5b600082612b8757612b87612b62565b500490565b80820180821115612b4557612b45612b1c565b634e487b7160e01b600052603260045260246000fd5b600067ffffffffffffffff821115612bcf57612bcf612941565b50601f01601f191660200190565b60008060408385031215612bf057600080fd5b82359150602083013567ffffffffffffffff811115612c0e57600080fd5b8301601f81018513612c1f57600080fd5b8035612c32612c2d82612bb5565b612981565b818152866020838501011115612c4757600080fd5b816020840160208301376000602083830101528093505050509250929050565b60005b83811015612c82578181015183820152602001612c6a565b50506000910152565b60008060408385031215612c9e57600080fd5b82519150602083015167ffffffffffffffff811115612cbc57600080fd5b8301601f81018513612ccd57600080fd5b8051612cdb612c2d82612bb5565b818152866020838501011115612cf057600080fd5b612d01826020830160208601612c67565b8093505050509250929050565b8183823760009101908152919050565b600060208284031215612d3057600080fd5b5051919050565b8281526040602082015260008251806040840152612d5c816060850160208701612c67565b601f01601f1916919091016060019392505050565b600060208284031215612d8357600080fd5b81516127e6816127a9565b600082612d9d57612d9d612b62565b50069056fea2646970667358221220a8a8f002d7f1cd70444375e985ca64f56ae0650f0d20e032360303fee099e49b64736f6c63430008190033","linkReferences":{}},"methodIdentifiers":{"buyerWithdraw()":"7cc947d0","changeLotteryState(uint8)":"683e93e1","claimNumber(address)":"3dc204e7","deposit(uint256)":"b6b55f25","deposits(address)":"fc7e286d","endLottery()":"1593a8c7","fulfillRandomness(uint256,bytes)":"b3f6b99a","getDepositedAmount(address)":"e9081ec7","getParticipants()":"5aa68ac0","getRandomNumber()":"dbdff2c1","getWinners()":"df15c37e","hasMinted(address)":"38e21cce","initialize((address,address,address,uint256,uint256,uint256,uint256,address,address,address,address))":"ce1121f2","initialized()":"158ef93e","isClaimable(address)":"292fec04","isTrustedForwarder(address)":"572b6c05","isWinner(address)":"9d9ca28d","lotteryState()":"6939864b","lotteryV1Addr()":"5f86e4fe","minimumDepositAmount()":"080c279a","mintMyNFT()":"26170480","multisigWalletAddress()":"a61fb2ba","nftContractAddr()":"2c23ec8e","numberOfTickets()":"45745c10","operatorAddr()":"f3f18c37","owner()":"8da5cb5b","randomNumber()":"ccbac9f5","renounceOwnership()":"715018a6","requestPending(uint256)":"75ce7fff","requestRandomness()":"f8413b07","requestedHash(uint256)":"c4f8f27b","roll()":"cd5e3c5d","rollPrice()":"cf3af3a1","rollTolerance()":"bf1dda15","rolledNumbers(address)":"7b15452d","seller()":"08551a53","sellerWithdraw()":"66af746b","setRandomNumber()":"97fedfcb","setSeller(address)":"e99d2866","startLottery()":"160344e2","ticketPrice()":"1209b1f6","transferDeposit(address,uint256)":"50f3dbec","transferNonWinnerDeposits(address)":"e63c4609","transferOwnership(address)":"f2fde38b","usdcContractAddr()":"99dbf4b5","winnerAddresses(uint256)":"045f9c97","winners(address)":"6bd5450a"},"id":57}