{"abi":[{"type":"function","name":"buyerWithdraw","inputs":[],"outputs":[],"stateMutability":"nonpayable"},{"type":"function","name":"changeLotteryState","inputs":[{"name":"_newState","type":"uint8","internalType":"enum LotteryV2Base.LotteryState"}],"outputs":[],"stateMutability":"nonpayable"},{"type":"function","name":"claimNumber","inputs":[{"name":"_participant","type":"address","internalType":"address"}],"outputs":[{"name":"","type":"bool","internalType":"bool"}],"stateMutability":"nonpayable"},{"type":"function","name":"deposit","inputs":[{"name":"amount","type":"uint256","internalType":"uint256"}],"outputs":[],"stateMutability":"nonpayable"},{"type":"function","name":"deposits","inputs":[{"name":"","type":"address","internalType":"address"}],"outputs":[{"name":"","type":"uint256","internalType":"uint256"}],"stateMutability":"view"},{"type":"function","name":"endLottery","inputs":[],"outputs":[],"stateMutability":"nonpayable"},{"type":"function","name":"fulfillRandomness","inputs":[{"name":"randomness","type":"uint256","internalType":"uint256"},{"name":"dataWithRound","type":"bytes","internalType":"bytes"}],"outputs":[],"stateMutability":"nonpayable"},{"type":"function","name":"getDepositedAmount","inputs":[{"name":"participant","type":"address","internalType":"address"}],"outputs":[{"name":"","type":"uint256","internalType":"uint256"}],"stateMutability":"view"},{"type":"function","name":"getParticipants","inputs":[],"outputs":[{"name":"","type":"address[]","internalType":"address[]"}],"stateMutability":"view"},{"type":"function","name":"getRandomNumber","inputs":[],"outputs":[{"name":"","type":"uint256","internalType":"uint256"}],"stateMutability":"view"},{"type":"function","name":"getWinners","inputs":[],"outputs":[{"name":"","type":"address[]","internalType":"address[]"}],"stateMutability":"view"},{"type":"function","name":"hasMinted","inputs":[{"name":"","type":"address","internalType":"address"}],"outputs":[{"name":"","type":"bool","internalType":"bool"}],"stateMutability":"view"},{"type":"function","name":"initialize","inputs":[{"name":"config","type":"tuple","internalType":"struct StructsLibrary.ILotteryBaseConfig","components":[{"name":"_seller","type":"address","internalType":"address"},{"name":"_gelatoVrfOperator","type":"address","internalType":"address"},{"name":"_blessedOperator","type":"address","internalType":"address"},{"name":"_owner","type":"address","internalType":"address"},{"name":"_ticketAmount","type":"uint256","internalType":"uint256"},{"name":"_ticketPrice","type":"uint256","internalType":"uint256"},{"name":"_usdcContractAddr","type":"address","internalType":"address"},{"name":"_multisigWalletAddress","type":"address","internalType":"address"},{"name":"_prevPhaseContractAddr","type":"address","internalType":"address"}]}],"outputs":[],"stateMutability":"nonpayable"},{"type":"function","name":"initialized","inputs":[],"outputs":[{"name":"","type":"bool","internalType":"bool"}],"stateMutability":"view"},{"type":"function","name":"isClaimable","inputs":[{"name":"_participant","type":"address","internalType":"address"}],"outputs":[{"name":"","type":"bool","internalType":"bool"}],"stateMutability":"view"},{"type":"function","name":"isTrustedForwarder","inputs":[{"name":"forwarder","type":"address","internalType":"address"}],"outputs":[{"name":"","type":"bool","internalType":"bool"}],"stateMutability":"view"},{"type":"function","name":"isWinner","inputs":[{"name":"_participant","type":"address","internalType":"address"}],"outputs":[{"name":"","type":"bool","internalType":"bool"}],"stateMutability":"view"},{"type":"function","name":"lotteryState","inputs":[],"outputs":[{"name":"","type":"uint8","internalType":"enum LotteryV2Base.LotteryState"}],"stateMutability":"view"},{"type":"function","name":"lotteryV1Addr","inputs":[],"outputs":[{"name":"","type":"address","internalType":"address"}],"stateMutability":"view"},{"type":"function","name":"maxMints","inputs":[],"outputs":[{"name":"","type":"uint256","internalType":"uint256"}],"stateMutability":"view"},{"type":"function","name":"minimumDepositAmount","inputs":[],"outputs":[{"name":"","type":"uint256","internalType":"uint256"}],"stateMutability":"view"},{"type":"function","name":"mintCount","inputs":[],"outputs":[{"name":"","type":"uint256","internalType":"uint256"}],"stateMutability":"view"},{"type":"function","name":"mintMyNFT","inputs":[],"outputs":[],"stateMutability":"nonpayable"},{"type":"function","name":"multisigWalletAddress","inputs":[],"outputs":[{"name":"","type":"address","internalType":"address"}],"stateMutability":"view"},{"type":"function","name":"nftContractAddr","inputs":[],"outputs":[{"name":"","type":"address","internalType":"address"}],"stateMutability":"view"},{"type":"function","name":"numberOfTickets","inputs":[],"outputs":[{"name":"","type":"uint256","internalType":"uint256"}],"stateMutability":"view"},{"type":"function","name":"operatorAddr","inputs":[],"outputs":[{"name":"","type":"address","internalType":"address"}],"stateMutability":"view"},{"type":"function","name":"owner","inputs":[],"outputs":[{"name":"","type":"address","internalType":"address"}],"stateMutability":"view"},{"type":"function","name":"randomNumber","inputs":[],"outputs":[{"name":"","type":"uint256","internalType":"uint256"}],"stateMutability":"view"},{"type":"function","name":"renounceOwnership","inputs":[],"outputs":[],"stateMutability":"nonpayable"},{"type":"function","name":"requestPending","inputs":[{"name":"","type":"uint256","internalType":"uint256"}],"outputs":[{"name":"","type":"bool","internalType":"bool"}],"stateMutability":"view"},{"type":"function","name":"requestRandomness","inputs":[],"outputs":[],"stateMutability":"nonpayable"},{"type":"function","name":"requestedHash","inputs":[{"name":"","type":"uint256","internalType":"uint256"}],"outputs":[{"name":"","type":"bytes32","internalType":"bytes32"}],"stateMutability":"view"},{"type":"function","name":"roll","inputs":[],"outputs":[],"stateMutability":"nonpayable"},{"type":"function","name":"rollPrice","inputs":[],"outputs":[{"name":"","type":"uint256","internalType":"uint256"}],"stateMutability":"view"},{"type":"function","name":"rollTolerance","inputs":[],"outputs":[{"name":"","type":"uint256","internalType":"uint256"}],"stateMutability":"view"},{"type":"function","name":"rolledNumbers","inputs":[{"name":"","type":"address","internalType":"address"}],"outputs":[{"name":"","type":"uint256","internalType":"uint256"}],"stateMutability":"view"},{"type":"function","name":"seller","inputs":[],"outputs":[{"name":"","type":"address","internalType":"address"}],"stateMutability":"view"},{"type":"function","name":"sellerWithdraw","inputs":[],"outputs":[],"stateMutability":"nonpayable"},{"type":"function","name":"setLotteryV1Addr","inputs":[{"name":"_lotteryV1Addr","type":"address","internalType":"address"}],"outputs":[],"stateMutability":"nonpayable"},{"type":"function","name":"setMinimumDepositAmount","inputs":[{"name":"_amount","type":"uint256","internalType":"uint256"}],"outputs":[],"stateMutability":"nonpayable"},{"type":"function","name":"setMultisigWalletAddress","inputs":[{"name":"_multisigWalletAddress","type":"address","internalType":"address"}],"outputs":[],"stateMutability":"nonpayable"},{"type":"function","name":"setNftContractAddr","inputs":[{"name":"_nftContractAddr","type":"address","internalType":"address"}],"outputs":[],"stateMutability":"nonpayable"},{"type":"function","name":"setNumberOfTickets","inputs":[{"name":"_numberOfTickets","type":"uint256","internalType":"uint256"}],"outputs":[],"stateMutability":"nonpayable"},{"type":"function","name":"setRandomNumber","inputs":[],"outputs":[],"stateMutability":"nonpayable"},{"type":"function","name":"setRollPrice","inputs":[{"name":"_rollPrice","type":"uint256","internalType":"uint256"}],"outputs":[],"stateMutability":"nonpayable"},{"type":"function","name":"setRollTolerance","inputs":[{"name":"_tolerance","type":"uint256","internalType":"uint256"}],"outputs":[],"stateMutability":"nonpayable"},{"type":"function","name":"setSeller","inputs":[{"name":"_seller","type":"address","internalType":"address"}],"outputs":[],"stateMutability":"nonpayable"},{"type":"function","name":"setUsdcContractAddr","inputs":[{"name":"_usdcContractAddr","type":"address","internalType":"address"}],"outputs":[],"stateMutability":"nonpayable"},{"type":"function","name":"setWinner","inputs":[{"name":"_winner","type":"address","internalType":"address"}],"outputs":[],"stateMutability":"nonpayable"},{"type":"function","name":"startLottery","inputs":[],"outputs":[],"stateMutability":"nonpayable"},{"type":"function","name":"transferDeposit","inputs":[{"name":"_participant","type":"address","internalType":"address"},{"name":"_amount","type":"uint256","internalType":"uint256"}],"outputs":[],"stateMutability":"nonpayable"},{"type":"function","name":"transferNonWinnerDeposits","inputs":[{"name":"auctionV1addr","type":"address","internalType":"address"}],"outputs":[],"stateMutability":"nonpayable"},{"type":"function","name":"transferOwnership","inputs":[{"name":"newOwner","type":"address","internalType":"address"}],"outputs":[],"stateMutability":"nonpayable"},{"type":"function","name":"usdcContractAddr","inputs":[],"outputs":[{"name":"","type":"address","internalType":"address"}],"stateMutability":"view"},{"type":"function","name":"winnerAddresses","inputs":[{"name":"","type":"uint256","internalType":"uint256"}],"outputs":[{"name":"","type":"address","internalType":"address"}],"stateMutability":"view"},{"type":"function","name":"winners","inputs":[{"name":"","type":"address","internalType":"address"}],"outputs":[{"name":"","type":"bool","internalType":"bool"}],"stateMutability":"view"},{"type":"event","name":"LotteryEnded","inputs":[],"anonymous":false},{"type":"event","name":"LotteryStarted","inputs":[],"anonymous":false},{"type":"event","name":"OwnershipTransferred","inputs":[{"name":"previousOwner","type":"address","indexed":true,"internalType":"address"},{"name":"newOwner","type":"address","indexed":true,"internalType":"address"}],"anonymous":false},{"type":"event","name":"RandomFullfiled","inputs":[{"name":"requester","type":"address","indexed":true,"internalType":"address"},{"name":"number","type":"uint256","indexed":false,"internalType":"uint256"}],"anonymous":false},{"type":"event","name":"RandomRequested","inputs":[{"name":"requester","type":"address","indexed":true,"internalType":"address"}],"anonymous":false},{"type":"event","name":"RequestedRandomness","inputs":[{"name":"round","type":"uint256","indexed":false,"internalType":"uint256"},{"name":"data","type":"bytes","indexed":false,"internalType":"bytes"}],"anonymous":false},{"type":"event","name":"WinnerSelected","inputs":[{"name":"winner","type":"address","indexed":true,"internalType":"address"}],"anonymous":false},{"type":"error","name":"OwnableInvalidOwner","inputs":[{"name":"owner","type":"address","internalType":"address"}]},{"type":"error","name":"OwnableUnauthorizedAccount","inputs":[{"name":"account","type":"address","internalType":"address"}]}],"bytecode":{"object":"0x60a06040526002805460ff60a01b19169055600060155534801561002257600080fd5b5073d8253782c45a12053594b9deb72d8e8ab2fca54c338061005e57604051631e4fbdf760e01b81526000600482015260240160405180910390fd5b61006781610079565b506001600160a01b03166080526100cb565b600280546001600160a01b038381166001600160a01b0319831681179093556040519116919082907f8be0079c531659141344cd1fd0a4f28419497f9722a3daafe3b4186f6b6457e090600090a35050565b6080516130cb6100ed600039600081816104e101526126ca01526130cb6000f3fe608060405234801561001057600080fd5b50600436106103835760003560e01c80638da5cb5b116101de578063ccbac9f51161010f578063e63c4609116100ad578063f3f18c371161007c578063f3f18c37146107a5578063f7098e58146107b8578063f8413b07146107cb578063fc7e286d146107d357600080fd5b8063e63c460914610743578063e9081ec714610756578063e99d28661461077f578063f2fde38b1461079257600080fd5b8063cf54d3b8116100e9578063cf54d3b81461070d578063d9fca76914610720578063dbdff2c114610733578063df15c37e1461073b57600080fd5b8063ccbac9f5146106f3578063cd5e3c5d146106fc578063cf3af3a11461070457600080fd5b8063a61fb2ba1161017c578063b6b55f2511610156578063b6b55f25146106ae578063b6b6f0c3146106c1578063bf1dda15146106ca578063c4f8f27b146106d357600080fd5b8063a61fb2ba14610675578063aab483d614610688578063b3f6b99a1461069b57600080fd5b806397fedfcb116101b857806397fedfcb1461061b57806399bd69d61461062357806399dbf4b5146106365780639d9ca28d1461064957600080fd5b80638da5cb5b146105ee57806394d898de146105ff5780639659867e1461061257600080fd5b806350f3dbec116102b8578063683e93e111610256578063715018a611610230578063715018a6146105ab57806375ce7fff146105b35780637b15452d146105c65780637cc947d0146105e657600080fd5b8063683e93e1146105545780636939864b146105675780636bd5450a1461058857600080fd5b80635aa68ac0116102925780635aa68ac0146105115780635f86e4fe1461052657806360d50da31461053957806366af746b1461054c57600080fd5b806350f3dbec146104ab5780635687156e146104be578063572b6c05146104d157600080fd5b806326170480116103255780633644c27c116102ff5780633644c27c1461045957806338e21cce1461046c5780633dc204e71461048f57806345745c10146104a257600080fd5b8063261704801461042b578063292fec04146104335780632c23ec8e1461044657600080fd5b806312f0800b1161036157806312f0800b146103e2578063158ef93e146103f75780631593a8c71461041b578063160344e21461042357600080fd5b8063045f9c9714610388578063080c279a146103b857806308551a53146103cf575b600080fd5b61039b610396366004612a67565b6107f3565b6040516001600160a01b0390911681526020015b60405180910390f35b6103c160065481565b6040519081526020016103af565b60045461039b906001600160a01b031681565b6103f56103f0366004612a67565b61081d565b005b60025461040b90600160a01b900460ff1681565b60405190151581526020016103af565b6103f56108d9565b6103f561091f565b6103f56109d0565b61040b610441366004612aa0565b610c2d565b60105461039b906001600160a01b031681565b6103f5610467366004612aa0565b610d3c565b61040b61047a366004612aa0565b600b6020526000908152604090205460ff1681565b61040b61049d366004612aa0565b610d66565b6103c160075481565b6103f56104b9366004612ac4565b610e14565b6103f56104cc366004612a67565b610f73565b61040b6104df366004612aa0565b7f00000000000000000000000000000000000000000000000000000000000000006001600160a01b0390811691161490565b610519610fb2565b6040516103af9190612af0565b60125461039b906001600160a01b031681565b6103f5610547366004612aa0565b611014565b6103f561103e565b6103f5610562366004612b3d565b611278565b60025461057b90600160a81b900460ff1681565b6040516103af9190612b74565b61040b610596366004612aa0565b600d6020526000908152604090205460ff1681565b6103f56112de565b61040b6105c1366004612a67565b6112f0565b6103c16105d4366004612aa0565b60136020526000908152604090205481565b6103f5611324565b6002546001600160a01b031661039b565b6103f561060d366004612aa0565b61152e565b6103c160095481565b6103f5611558565b6103f5610631366004612a67565b6115ef565b60115461039b906001600160a01b031681565b61040b610657366004612aa0565b6001600160a01b03166000908152600d602052604090205460ff1690565b60035461039b906001600160a01b031681565b6103f5610696366004612a67565b61169c565b6103f56106a9366004612b9c565b6116db565b6103f56106bc366004612a67565b6118af565b6103c160085481565b6103c160155481565b6103c16106e1366004612a67565b60016020526000908152604090205481565b6103c1600a5481565b6103f5611cee565b6103c160145481565b6103f561071b366004612c89565b611e9d565b6103f561072e366004612aa0565b611fa3565b6103c1612043565b61051961209a565b6103f5610751366004612aa0565b6120fa565b6103c1610764366004612aa0565b6001600160a01b03166000908152600c602052604090205490565b6103f561078d366004612aa0565b612312565b6103f56107a0366004612aa0565b61236e565b60055461039b906001600160a01b031681565b6103f56107c6366004612aa0565b6123a9565b6103f5612405565b6103c16107e1366004612aa0565b600c6020526000908152604090205481565b600e818154811061080357600080fd5b6000918252602090912001546001600160a01b0316905081565b6004546001600160a01b0316610831612450565b6001600160a01b0316146108605760405162461bcd60e51b815260040161085790612d31565b60405180910390fd5b60018110158015610872575060638111155b6108d45760405162461bcd60e51b815260206004820152602d60248201527f546f6c6572616e63652070657263656e74616765206d7573742062652062657460448201526c7765656e203120616e6420393960981b6064820152608401610857565b601555565b6004546001600160a01b03166108ed612450565b6001600160a01b0316146109135760405162461bcd60e51b815260040161085790612d31565b61091d6002611278565b565b6004546001600160a01b0316610933612450565b6001600160a01b0316146109595760405162461bcd60e51b815260040161085790612d31565b600060028054600160a81b900460ff169081111561097957610979612b5e565b146109c65760405162461bcd60e51b815260206004820152601a60248201527f4c6f747465727920697320696e206163746976652073746174650000000000006044820152606401610857565b61091d6001611278565b600b60006109dc612450565b6001600160a01b0316815260208101919091526040016000205460ff1615610a3b5760405162461bcd60e51b815260206004820152601260248201527113919508185b1c9958591e481b5a5b9d195960721b6044820152606401610857565b610a43612450565b601254604051639d9ca28d60e01b81526001600160a01b03838116600483015290911690639d9ca28d90602401602060405180830381865afa158015610a8d573d6000803e3d6000fd5b505050506040513d601f19601f82011682018060405250810190610ab19190612d73565b15610ace5760405162461bcd60e51b815260040161085790612d95565b610ad9610657612450565b610b1e5760405162461bcd60e51b815260206004820152601660248201527521b0b63632b91034b9903737ba1030903bb4b73732b960511b6044820152606401610857565b60085460095410610b715760405162461bcd60e51b815260206004820152601760248201527f4e6f206d6f7265206d696e747320617661696c61626c650000000000000000006044820152606401610857565b6001600b6000610b7f612450565b6001600160a01b0390811682526020820192909252604001600020805460ff19169215159290921790915560105416636b8f60f6610bbb612450565b6040516001600160e01b031960e084901b1681526001600160a01b039091166004820152602401600060405180830381600087803b158015610bfc57600080fd5b505af1158015610c10573d6000803e3d6000fd5b505060098054925090506000610c2583612df3565b919050555050565b6015546001600160a01b03821660009081526013602052604081205490918291606491610c5991612e0c565b610c639190612e3f565b6001600160a01b038416600090815260136020526040902054610c869190612e53565b6015546001600160a01b03851660009081526013602052604081205492935091606491610cb291612e0c565b610cbc9190612e3f565b6001600160a01b038516600090815260136020526040902054610cdf9190612e66565b9050600082600a5410158015610cf7575081600a5411155b6006546001600160a01b0387166000908152600c602052604090205491925011801590610d215750805b15610d3157506001949350505050565b506000949350505050565b610d4461245f565b601080546001600160a01b0319166001600160a01b0392909216919091179055565b6000610d7182610c2d565b15610e07576001600160a01b0382166000818152600d6020526040808220805460ff19166001908117909155600e8054918201815583527fbb7b4a454dc3493923482f07822329ed19e8244eff582cc204f8554c3620c3fd0180546001600160a01b03191684179055517f1d4c260f1824cd028e6c9e6e31c3a0b94f2513e7a641113ec759d382f9bdd5a19190a2506001919050565b506000919050565b919050565b610e1c612450565b6012546001600160a01b03908116911614610e895760405162461bcd60e51b815260206004820152602760248201527f4f6e6c792077686974656c6973746564206d61792063616c6c207468697320666044820152663ab731ba34b7b760c91b6064820152608401610857565b6001600160a01b0382166000908152600c60205260408120549003610ef457600f80546001810182556000919091527f8d1108e10bcb7c27dddfc02ed9d693a074039d026cf4ea4240b40f7d581ac8020180546001600160a01b0319166001600160a01b0384161790555b6001600160a01b0382166000908152600c602052604081208054839290610f1c908490612e66565b90915550506001600160a01b0382166000908152601360205260408120549003610f6f57604080516001600160a01b0384166020820152610f6d91015b6040516020818303038152906040526124bd565b505b5050565b6004546001600160a01b0316610f87612450565b6001600160a01b031614610fad5760405162461bcd60e51b815260040161085790612d31565b601455565b6060600f80548060200260200160405190810160405280929190818152602001828054801561100a57602002820191906000526020600020905b81546001600160a01b03168152600190910190602001808311610fec575b5050505050905090565b61101c61245f565b600380546001600160a01b0319166001600160a01b0392909216919091179055565b6004546001600160a01b0316611052612450565b6001600160a01b0316146110785760405162461bcd60e51b815260040161085790612d31565b6002808054600160a81b900460ff169081111561109757611097612b5e565b146110d85760405162461bcd60e51b8152602060048201526011602482015270131bdd1d195c9e481b9bdd08195b991959607a1b6044820152606401610857565b6000805b600e54811015611151576000600e82815481106110fb576110fb612e79565b60009182526020808320909101546001600160a01b0316808352600c90915260409091205490915061112d9084612e66565b6001600160a01b039091166000908152600c602052604081205591506001016110dc565b5060006064611161836005612e0c565b61116b9190612e3f565b905060006111798284612e53565b60115460035460405163a9059cbb60e01b81526001600160a01b03918216600482015260248101869052929350169063a9059cbb906044016020604051808303816000875af11580156111d0573d6000803e3d6000fd5b505050506040513d601f19601f820116820180604052508101906111f49190612d73565b506011546004805460405163a9059cbb60e01b81526001600160a01b0391821692810192909252602482018490529091169063a9059cbb906044016020604051808303816000875af115801561124e573d6000803e3d6000fd5b505050506040513d601f19601f820116820180604052508101906112729190612d73565b50505050565b6004546001600160a01b031661128c612450565b6001600160a01b0316146112b25760405162461bcd60e51b815260040161085790612d31565b6002805482919060ff60a81b1916600160a81b83838111156112d6576112d6612b5e565b021790555050565b6112e661245f565b61091d60006125be565b6000818154811061130057600080fd5b9060005260206000209060209182820401919006915054906101000a900460ff1681565b600160028054600160a81b900460ff169081111561134457611344612b5e565b036113915760405162461bcd60e51b815260206004820152601b60248201527f4c6f74746572792069732063757272656e746c792061637469766500000000006044820152606401610857565b600d600061139d612450565b6001600160a01b0316815260208101919091526040016000205460ff16156114075760405162461bcd60e51b815260206004820152601760248201527f57696e6e6572732063616e6e6f742077697468647261770000000000000000006044820152606401610857565b6000600c6000611415612450565b6001600160a01b03166001600160a01b031681526020019081526020016000205490506000811161147f5760405162461bcd60e51b81526020600482015260146024820152734e6f2066756e647320746f20776974686472617760601b6044820152606401610857565b6000600c600061148d612450565b6001600160a01b0390811682526020820192909252604001600020919091556011541663a9059cbb6114bd612450565b6040516001600160e01b031960e084901b1681526001600160a01b039091166004820152602481018490526044016020604051808303816000875af115801561150a573d6000803e3d6000fd5b505050506040513d601f19601f82011682018060405250810190610f6f9190612d73565b61153661245f565b601180546001600160a01b0319166001600160a01b0392909216919091179055565b6004546001600160a01b031661156c612450565b6001600160a01b0316146115925760405162461bcd60e51b815260040161085790612d31565b600a54156115e25760405162461bcd60e51b815260206004820152601960248201527f52616e646f6d206e756d62657220616c726561647920736574000000000000006044820152606401610857565b6115ea612043565b600a55565b6004546001600160a01b0316611603612450565b6001600160a01b0316146116295760405162461bcd60e51b815260040161085790612d31565b6000811161168d5760405162461bcd60e51b815260206004820152602b60248201527f4e756d626572206f66207469636b657473206d7573742062652067726561746560448201526a72207468616e207a65726f60a81b6064820152608401610857565b60078190556008556000600955565b6004546001600160a01b03166116b0612450565b6001600160a01b0316146116d65760405162461bcd60e51b815260040161085790612d31565b600655565b6005546001600160a01b031633146117255760405162461bcd60e51b815260206004820152600d60248201526c37b7363c9037b832b930ba37b960991b6044820152606401610857565b600061173382840184612eb7565b9150506000808280602001905181019061174d9190612f65565b9150915060008585604051611763929190612fe8565b604080519182900390912060008581526001602052918220548254919350831491908590811061179557611795612e79565b90600052602060002090602091828204019190069054906101000a900460ff166118015760405162461bcd60e51b815260206004820152601c60248201527f726571756573742066756c66696c6c6564206f72206d697373696e67000000006044820152606401610857565b80156118a55760408051602081018a905230918101919091524660608201526080810185905260a0016040516020818303038152906040528051906020012060001c9750611850888585612610565b600080858154811061186457611864612e79565b90600052602060002090602091828204019190066101000a81548160ff02191690831515021790555060016000858152602001908152602001600020600090555b5050505050505050565b600160028054600160a81b900460ff16908111156118cf576118cf612b5e565b146119145760405162461bcd60e51b81526020600482015260156024820152744c6f7474657279206973206e6f742061637469766560581b6044820152606401610857565b61191c612450565b601254604051639d9ca28d60e01b81526001600160a01b03838116600483015290911690639d9ca28d90602401602060405180830381865afa158015611966573d6000803e3d6000fd5b505050506040513d601f19601f8201168201806040525081019061198a9190612d73565b156119a75760405162461bcd60e51b815260040161085790612d95565b6011546001600160a01b03166119ff5760405162461bcd60e51b815260206004820152601d60248201527f5553444320636f6e74726163742061646472657373206e6f74207365740000006044820152606401610857565b60008211611a3f5760405162461bcd60e51b815260206004820152600d60248201526c139bc8199d5b991cc81cd95b9d609a1b6044820152606401610857565b60115482906001600160a01b031663dd62ed3e611a5a612450565b6040516001600160e01b031960e084901b1681526001600160a01b039091166004820152306024820152604401602060405180830381865afa158015611aa4573d6000803e3d6000fd5b505050506040513d601f19601f82011682018060405250810190611ac89190612ff8565b1015611b0f5760405162461bcd60e51b8152602060048201526016602482015275496e73756666696369656e7420616c6c6f77616e636560501b6044820152606401610857565b6011546001600160a01b03166323b872dd611b28612450565b6040516001600160e01b031960e084901b1681526001600160a01b039091166004820152306024820152604481018590526064016020604051808303816000875af1158015611b7b573d6000803e3d6000fd5b505050506040513d601f19601f82011682018060405250810190611b9f9190612d73565b50600c6000611bac612450565b6001600160a01b03166001600160a01b0316815260200190815260200160002054600003611c1157600f611bde612450565b81546001810183556000928352602090922090910180546001600160a01b0319166001600160a01b039092169190911790555b81600c6000611c1e612450565b6001600160a01b03166001600160a01b031681526020019081526020016000206000828254611c4d9190612e66565b90915550601390506000611c5f612450565b6001600160a01b03166001600160a01b0316815260200190815260200160002054600003610f6f57611cac611c92612450565b604080516001600160a01b03909216602083015201610f59565b50611cb5612450565b6001600160a01b03167fd802e7c7f1646e3318c03abed1e468bdf913f45331a68dc912a0d645eb646a4260405160405180910390a25050565b600160028054600160a81b900460ff1690811115611d0e57611d0e612b5e565b14611d535760405162461bcd60e51b81526020600482015260156024820152744c6f7474657279206973206e6f742061637469766560581b6044820152606401610857565b600060145411611d995760405162461bcd60e51b8152602060048201526011602482015270139bc81c9bdb1b081c1c9a58d9481cd95d607a1b6044820152606401610857565b600654601454611da99190612e66565b600c6000611db5612450565b6001600160a01b03166001600160a01b03168152602001908152602001600020541015611e195760405162461bcd60e51b8152602060048201526012602482015271496e73756666696369656e742066756e647360701b6044820152606401610857565b601454600c6000611e28612450565b6001600160a01b03166001600160a01b031681526020019081526020016000206000828254611e579190612e53565b90915550506014546004546001600160a01b03166000908152600c602052604081208054909190611e89908490612e66565b90915550611e9a9050611c92612450565b50565b600254600160a01b900460ff1615611eed5760405162461bcd60e51b8152602060048201526013602482015272105b1c9958591e481a5b9a5d1a585b1a5e9959606a1b6044820152606401610857565b6040810151600480546001600160a01b039283166001600160a01b0319918216179091556020830151600580549190931691161790556060810151611f31906125be565b608081015160075560a081015160065560c0810151601180546001600160a01b03199081166001600160a01b039384161790915560e08301516003805483169184169190911790556101009092015160128054909316911617905560028054600160a01b60ff60a01b19909116179055565b6004546001600160a01b0316611fb7612450565b6001600160a01b031614611fdd5760405162461bcd60e51b815260040161085790612d31565b6001600160a01b03166000818152600d60205260408120805460ff19166001908117909155600e805491820181559091527fbb7b4a454dc3493923482f07822329ed19e8244eff582cc204f8554c3620c3fd0180546001600160a01b0319169091179055565b6000424461204f612450565b6040805160208101949094528301919091526bffffffffffffffffffffffff19606091821b16908201526074016040516020818303038152906040528051906020012060001c905090565b6060600e80548060200260200160405190810160405280929190818152602001828054801561100a576020028201919060005260206000209081546001600160a01b03168152600190910190602001808311610fec575050505050905090565b6004546001600160a01b031661210e612450565b6001600160a01b0316146121345760405162461bcd60e51b815260040161085790612d31565b60005b600f54811015610f6f5761217f600f828154811061215757612157612e79565b60009182526020808320909101546001600160a01b03168252600d9052604090205460ff1690565b61230a576000600c6000600f848154811061219c5761219c612e79565b60009182526020808320909101546001600160a01b03168352820192909252604001812054600f8054919350600c91839190869081106121de576121de612e79565b6000918252602080832091909101546001600160a01b039081168452908301939093526040918201902092909255601154915163a9059cbb60e01b815285821660048201526024810184905291169063a9059cbb906044016020604051808303816000875af1158015612255573d6000803e3d6000fd5b505050506040513d601f19601f820116820180604052508101906122799190612d73565b50826001600160a01b03166350f3dbec600f848154811061229c5761229c612e79565b60009182526020909120015460405160e083901b6001600160e01b03191681526001600160a01b03909116600482015260248101849052604401600060405180830381600087803b1580156122f057600080fd5b505af1158015612304573d6000803e3d6000fd5b50505050505b600101612137565b6004546001600160a01b0316612326612450565b6001600160a01b03161461234c5760405162461bcd60e51b815260040161085790612d31565b600480546001600160a01b0319166001600160a01b0392909216919091179055565b61237661245f565b6001600160a01b0381166123a057604051631e4fbdf760e01b815260006004820152602401610857565b611e9a816125be565b6004546001600160a01b03166123bd612450565b6001600160a01b0316146123e35760405162461bcd60e51b815260040161085790612d31565b601280546001600160a01b0319166001600160a01b0392909216919091179055565b612410611c92612450565b50612419612450565b6001600160a01b03167fd802e7c7f1646e3318c03abed1e468bdf913f45331a68dc912a0d645eb646a4260405160405180910390a2565b600061245a6126c6565b905090565b612467612450565b6001600160a01b03166124826002546001600160a01b031690565b6001600160a01b03161461091d57612498612450565b60405163118cdaa760e01b81526001600160a01b039091166004820152602401610857565b60008054600180820180845583805291929091839081106124e0576124e0612e79565b90600052602060002090602091828204019190066101000a81548160ff0219169083151502179055506000818360405160200161251e929190613011565b6040516020818303038152906040529050600061253961270a565b905060008183604051602001612550929190613011565b60408051601f198184030181528282528051602080830191909120600089815260019092529290208290559250907fd91fc3685b930310b008ec37d2334870cab88a023ed8cc628a2e2ccd4e55d202906125ad9085908790613011565b60405180910390a150505050919050565b600280546001600160a01b038381166001600160a01b0319831681179093556040519116919082907f8be0079c531659141344cd1fd0a4f28419497f9722a3daafe3b4186f6b6457e090600090a35050565b600081806020019051810190612626919061304b565b9050600061263385612761565b6004549091506001600160a01b039081169083160361265657600a81905561267c565b6001600160a01b038216600090815260136020526040902081905561267a82610d66565b505b816001600160a01b03167fdc88f22db6d7f267e15a797eb52635df440f5f8b47a89ac56fa5b212e4e97e2d826040516126b791815260200190565b60405180910390a25050505050565b60007f00000000000000000000000000000000000000000000000000000000000000006001600160a01b03163303612705575060131936013560601c90565b503390565b60008061271b6364e6212742612e53565b9050600061272a600383612e3f565b612735906001612e66565b90504660011461274f5761274a816001612e66565b61275a565b61275a816004612e66565b9250505090565b60008061276d83612791565b9050600061277e826000600e612908565b9050612789816129c1565b949350505050565b6060816000036127b85750506040805180820190915260018152600360fc1b602082015290565b604080516050808252608082019092526000908260208201818036833701905050905060005b84156128485760006127f1600a87613068565b90506127fe600a87612e3f565b955061280b81603061307c565b60f81b838361281981612df3565b94508151811061282b5761282b612e79565b60200101906001600160f81b031916908160001a905350506127de565b60008167ffffffffffffffff81111561286357612863612c18565b6040519080825280601f01601f19166020018201604052801561288d576020820181803683370190505b50905060005b828110156128fe578360016128a88386612e53565b6128b29190612e53565b815181106128c2576128c2612e79565b602001015160f81c60f81b8282815181106128df576128df612e79565b60200101906001600160f81b031916908160001a905350600101612893565b5095945050505050565b60608360006129178585612e53565b67ffffffffffffffff81111561292f5761292f612c18565b6040519080825280601f01601f191660200182016040528015612959576020820181803683370190505b509050845b848110156128fe5782818151811061297857612978612e79565b01602001516001600160f81b031916826129928884612e53565b815181106129a2576129a2612e79565b60200101906001600160f81b031916908160001a90535060010161295e565b60008181805b8251811015612a5f5760308382815181106129e4576129e4612e79565b016020015160f81c10801590612a1457506039838281518110612a0957612a09612e79565b016020015160f81c11155b15612a57576030838281518110612a2d57612a2d612e79565b0160200151612a3f919060f81c612e53565b612a4a83600a612e0c565b612a549190612e66565b91505b6001016129c7565b509392505050565b600060208284031215612a7957600080fd5b5035919050565b6001600160a01b0381168114611e9a57600080fd5b8035610e0f81612a80565b600060208284031215612ab257600080fd5b8135612abd81612a80565b9392505050565b60008060408385031215612ad757600080fd5b8235612ae281612a80565b946020939093013593505050565b6020808252825182820181905260009190848201906040850190845b81811015612b315783516001600160a01b031683529284019291840191600101612b0c565b50909695505050505050565b600060208284031215612b4f57600080fd5b813560038110612abd57600080fd5b634e487b7160e01b600052602160045260246000fd5b6020810160038310612b9657634e487b7160e01b600052602160045260246000fd5b91905290565b600080600060408486031215612bb157600080fd5b83359250602084013567ffffffffffffffff80821115612bd057600080fd5b818601915086601f830112612be457600080fd5b813581811115612bf357600080fd5b876020828501011115612c0557600080fd5b6020830194508093505050509250925092565b634e487b7160e01b600052604160045260246000fd5b604051610120810167ffffffffffffffff81118282101715612c5257612c52612c18565b60405290565b604051601f8201601f1916810167ffffffffffffffff81118282101715612c8157612c81612c18565b604052919050565b60006101208284031215612c9c57600080fd5b612ca4612c2e565b612cad83612a95565b8152612cbb60208401612a95565b6020820152612ccc60408401612a95565b6040820152612cdd60608401612a95565b60608201526080830135608082015260a083013560a0820152612d0260c08401612a95565b60c0820152612d1360e08401612a95565b60e0820152610100612d26818501612a95565b908201529392505050565b60208082526022908201527f4f6e6c792073656c6c65722063616e2063616c6c20746869732066756e63746960408201526137b760f11b606082015260800190565b600060208284031215612d8557600080fd5b81518015158114612abd57600080fd5b60208082526028908201527f5061727469636970616e742068617320616c726561647920776f6e20696e204c6040820152676f7474657279563160c01b606082015260800190565b634e487b7160e01b600052601160045260246000fd5b600060018201612e0557612e05612ddd565b5060010190565b8082028115828204841417612e2357612e23612ddd565b92915050565b634e487b7160e01b600052601260045260246000fd5b600082612e4e57612e4e612e29565b500490565b81810381811115612e2357612e23612ddd565b80820180821115612e2357612e23612ddd565b634e487b7160e01b600052603260045260246000fd5b600067ffffffffffffffff821115612ea957612ea9612c18565b50601f01601f191660200190565b60008060408385031215612eca57600080fd5b82359150602083013567ffffffffffffffff811115612ee857600080fd5b8301601f81018513612ef957600080fd5b8035612f0c612f0782612e8f565b612c58565b818152866020838501011115612f2157600080fd5b816020840160208301376000602083830101528093505050509250929050565b60005b83811015612f5c578181015183820152602001612f44565b50506000910152565b60008060408385031215612f7857600080fd5b82519150602083015167ffffffffffffffff811115612f9657600080fd5b8301601f81018513612fa757600080fd5b8051612fb5612f0782612e8f565b818152866020838501011115612fca57600080fd5b612fdb826020830160208601612f41565b8093505050509250929050565b8183823760009101908152919050565b60006020828403121561300a57600080fd5b5051919050565b8281526040602082015260008251806040840152613036816060850160208701612f41565b601f01601f1916919091016060019392505050565b60006020828403121561305d57600080fd5b8151612abd81612a80565b60008261307757613077612e29565b500690565b60ff8181168382160190811115612e2357612e23612ddd56fea2646970667358221220503997e8e06904245084cbaa879ceb9a41f0f21dfcbf60955fa64f255e3f37b164736f6c63430008190033","linkReferences":{}},"methodIdentifiers":{"buyerWithdraw()":"7cc947d0","changeLotteryState(uint8)":"683e93e1","claimNumber(address)":"3dc204e7","deposit(uint256)":"b6b55f25","deposits(address)":"fc7e286d","endLottery()":"1593a8c7","fulfillRandomness(uint256,bytes)":"b3f6b99a","getDepositedAmount(address)":"e9081ec7","getParticipants()":"5aa68ac0","getRandomNumber()":"dbdff2c1","getWinners()":"df15c37e","hasMinted(address)":"38e21cce","initialize((address,address,address,address,uint256,uint256,address,address,address))":"cf54d3b8","initialized()":"158ef93e","isClaimable(address)":"292fec04","isTrustedForwarder(address)":"572b6c05","isWinner(address)":"9d9ca28d","lotteryState()":"6939864b","lotteryV1Addr()":"5f86e4fe","maxMints()":"b6b6f0c3","minimumDepositAmount()":"080c279a","mintCount()":"9659867e","mintMyNFT()":"26170480","multisigWalletAddress()":"a61fb2ba","nftContractAddr()":"2c23ec8e","numberOfTickets()":"45745c10","operatorAddr()":"f3f18c37","owner()":"8da5cb5b","randomNumber()":"ccbac9f5","renounceOwnership()":"715018a6","requestPending(uint256)":"75ce7fff","requestRandomness()":"f8413b07","requestedHash(uint256)":"c4f8f27b","roll()":"cd5e3c5d","rollPrice()":"cf3af3a1","rollTolerance()":"bf1dda15","rolledNumbers(address)":"7b15452d","seller()":"08551a53","sellerWithdraw()":"66af746b","setLotteryV1Addr(address)":"f7098e58","setMinimumDepositAmount(uint256)":"aab483d6","setMultisigWalletAddress(address)":"60d50da3","setNftContractAddr(address)":"3644c27c","setNumberOfTickets(uint256)":"99bd69d6","setRandomNumber()":"97fedfcb","setRollPrice(uint256)":"5687156e","setRollTolerance(uint256)":"12f0800b","setSeller(address)":"e99d2866","setUsdcContractAddr(address)":"94d898de","setWinner(address)":"d9fca769","startLottery()":"160344e2","transferDeposit(address,uint256)":"50f3dbec","transferNonWinnerDeposits(address)":"e63c4609","transferOwnership(address)":"f2fde38b","usdcContractAddr()":"99dbf4b5","winnerAddresses(uint256)":"045f9c97","winners(address)":"6bd5450a"},"id":44}