{"abi":[{"type":"function","name":"buyerWithdraw","inputs":[],"outputs":[],"stateMutability":"nonpayable"},{"type":"function","name":"changeLotteryState","inputs":[{"name":"_newState","type":"uint8","internalType":"enum LotteryV2Base.LotteryState"}],"outputs":[],"stateMutability":"nonpayable"},{"type":"function","name":"claimNumber","inputs":[{"name":"_participant","type":"address","internalType":"address"}],"outputs":[{"name":"","type":"bool","internalType":"bool"}],"stateMutability":"nonpayable"},{"type":"function","name":"deposit","inputs":[{"name":"amount","type":"uint256","internalType":"uint256"}],"outputs":[],"stateMutability":"nonpayable"},{"type":"function","name":"deposits","inputs":[{"name":"","type":"address","internalType":"address"}],"outputs":[{"name":"","type":"uint256","internalType":"uint256"}],"stateMutability":"view"},{"type":"function","name":"endLottery","inputs":[],"outputs":[],"stateMutability":"nonpayable"},{"type":"function","name":"fulfillRandomness","inputs":[{"name":"randomness","type":"uint256","internalType":"uint256"},{"name":"dataWithRound","type":"bytes","internalType":"bytes"}],"outputs":[],"stateMutability":"nonpayable"},{"type":"function","name":"getDepositedAmount","inputs":[{"name":"participant","type":"address","internalType":"address"}],"outputs":[{"name":"","type":"uint256","internalType":"uint256"}],"stateMutability":"view"},{"type":"function","name":"getParticipants","inputs":[],"outputs":[{"name":"","type":"address[]","internalType":"address[]"}],"stateMutability":"view"},{"type":"function","name":"getRandomNumber","inputs":[],"outputs":[{"name":"","type":"uint256","internalType":"uint256"}],"stateMutability":"view"},{"type":"function","name":"getWinners","inputs":[],"outputs":[{"name":"","type":"address[]","internalType":"address[]"}],"stateMutability":"view"},{"type":"function","name":"hasMinted","inputs":[{"name":"","type":"address","internalType":"address"}],"outputs":[{"name":"","type":"bool","internalType":"bool"}],"stateMutability":"view"},{"type":"function","name":"initialize","inputs":[{"name":"config","type":"tuple","internalType":"struct StructsLibrary.ILotteryBaseConfig","components":[{"name":"_seller","type":"address","internalType":"address"},{"name":"_gelatoVrfOperator","type":"address","internalType":"address"},{"name":"_blessedOperator","type":"address","internalType":"address"},{"name":"_owner","type":"address","internalType":"address"},{"name":"_ticketAmount","type":"uint256","internalType":"uint256"},{"name":"_ticketPrice","type":"uint256","internalType":"uint256"},{"name":"_usdcContractAddr","type":"address","internalType":"address"},{"name":"_multisigWalletAddress","type":"address","internalType":"address"},{"name":"_prevPhaseContractAddr","type":"address","internalType":"address"}]}],"outputs":[],"stateMutability":"nonpayable"},{"type":"function","name":"initialized","inputs":[],"outputs":[{"name":"","type":"bool","internalType":"bool"}],"stateMutability":"view"},{"type":"function","name":"isClaimable","inputs":[{"name":"_participant","type":"address","internalType":"address"}],"outputs":[{"name":"","type":"bool","internalType":"bool"}],"stateMutability":"view"},{"type":"function","name":"isTrustedForwarder","inputs":[{"name":"forwarder","type":"address","internalType":"address"}],"outputs":[{"name":"","type":"bool","internalType":"bool"}],"stateMutability":"view"},{"type":"function","name":"isWinner","inputs":[{"name":"_participant","type":"address","internalType":"address"}],"outputs":[{"name":"","type":"bool","internalType":"bool"}],"stateMutability":"view"},{"type":"function","name":"lotteryState","inputs":[],"outputs":[{"name":"","type":"uint8","internalType":"enum LotteryV2Base.LotteryState"}],"stateMutability":"view"},{"type":"function","name":"lotteryV1Addr","inputs":[],"outputs":[{"name":"","type":"address","internalType":"address"}],"stateMutability":"view"},{"type":"function","name":"maxMints","inputs":[],"outputs":[{"name":"","type":"uint256","internalType":"uint256"}],"stateMutability":"view"},{"type":"function","name":"minimumDepositAmount","inputs":[],"outputs":[{"name":"","type":"uint256","internalType":"uint256"}],"stateMutability":"view"},{"type":"function","name":"mintCount","inputs":[],"outputs":[{"name":"","type":"uint256","internalType":"uint256"}],"stateMutability":"view"},{"type":"function","name":"mintMyNFT","inputs":[],"outputs":[],"stateMutability":"nonpayable"},{"type":"function","name":"multisigWalletAddress","inputs":[],"outputs":[{"name":"","type":"address","internalType":"address"}],"stateMutability":"view"},{"type":"function","name":"nftContractAddr","inputs":[],"outputs":[{"name":"","type":"address","internalType":"address"}],"stateMutability":"view"},{"type":"function","name":"numberOfTickets","inputs":[],"outputs":[{"name":"","type":"uint256","internalType":"uint256"}],"stateMutability":"view"},{"type":"function","name":"operatorAddr","inputs":[],"outputs":[{"name":"","type":"address","internalType":"address"}],"stateMutability":"view"},{"type":"function","name":"owner","inputs":[],"outputs":[{"name":"","type":"address","internalType":"address"}],"stateMutability":"view"},{"type":"function","name":"randomNumber","inputs":[],"outputs":[{"name":"","type":"uint256","internalType":"uint256"}],"stateMutability":"view"},{"type":"function","name":"renounceOwnership","inputs":[],"outputs":[],"stateMutability":"nonpayable"},{"type":"function","name":"requestPending","inputs":[{"name":"","type":"uint256","internalType":"uint256"}],"outputs":[{"name":"","type":"bool","internalType":"bool"}],"stateMutability":"view"},{"type":"function","name":"requestRandomness","inputs":[],"outputs":[],"stateMutability":"nonpayable"},{"type":"function","name":"requestedHash","inputs":[{"name":"","type":"uint256","internalType":"uint256"}],"outputs":[{"name":"","type":"bytes32","internalType":"bytes32"}],"stateMutability":"view"},{"type":"function","name":"roll","inputs":[],"outputs":[],"stateMutability":"nonpayable"},{"type":"function","name":"rollPrice","inputs":[],"outputs":[{"name":"","type":"uint256","internalType":"uint256"}],"stateMutability":"view"},{"type":"function","name":"rollTolerance","inputs":[],"outputs":[{"name":"","type":"uint256","internalType":"uint256"}],"stateMutability":"view"},{"type":"function","name":"rolledNumbers","inputs":[{"name":"","type":"address","internalType":"address"}],"outputs":[{"name":"","type":"uint256","internalType":"uint256"}],"stateMutability":"view"},{"type":"function","name":"seller","inputs":[],"outputs":[{"name":"","type":"address","internalType":"address"}],"stateMutability":"view"},{"type":"function","name":"sellerWithdraw","inputs":[],"outputs":[],"stateMutability":"nonpayable"},{"type":"function","name":"setLotteryV1Addr","inputs":[{"name":"_lotteryV1Addr","type":"address","internalType":"address"}],"outputs":[],"stateMutability":"nonpayable"},{"type":"function","name":"setMinimumDepositAmount","inputs":[{"name":"_amount","type":"uint256","internalType":"uint256"}],"outputs":[],"stateMutability":"nonpayable"},{"type":"function","name":"setMultisigWalletAddress","inputs":[{"name":"_multisigWalletAddress","type":"address","internalType":"address"}],"outputs":[],"stateMutability":"nonpayable"},{"type":"function","name":"setNftContractAddr","inputs":[{"name":"_nftContractAddr","type":"address","internalType":"address"}],"outputs":[],"stateMutability":"nonpayable"},{"type":"function","name":"setNumberOfTickets","inputs":[{"name":"_numberOfTickets","type":"uint256","internalType":"uint256"}],"outputs":[],"stateMutability":"nonpayable"},{"type":"function","name":"setRandomNumber","inputs":[],"outputs":[],"stateMutability":"nonpayable"},{"type":"function","name":"setRollPrice","inputs":[{"name":"_rollPrice","type":"uint256","internalType":"uint256"}],"outputs":[],"stateMutability":"nonpayable"},{"type":"function","name":"setRollTolerance","inputs":[{"name":"_tolerance","type":"uint256","internalType":"uint256"}],"outputs":[],"stateMutability":"nonpayable"},{"type":"function","name":"setSeller","inputs":[{"name":"_seller","type":"address","internalType":"address"}],"outputs":[],"stateMutability":"nonpayable"},{"type":"function","name":"setUsdcContractAddr","inputs":[{"name":"_usdcContractAddr","type":"address","internalType":"address"}],"outputs":[],"stateMutability":"nonpayable"},{"type":"function","name":"setWinner","inputs":[{"name":"_winner","type":"address","internalType":"address"}],"outputs":[],"stateMutability":"nonpayable"},{"type":"function","name":"startLottery","inputs":[],"outputs":[],"stateMutability":"nonpayable"},{"type":"function","name":"transferDeposit","inputs":[{"name":"_participant","type":"address","internalType":"address"},{"name":"_amount","type":"uint256","internalType":"uint256"}],"outputs":[],"stateMutability":"nonpayable"},{"type":"function","name":"transferNonWinnerDeposits","inputs":[{"name":"auctionV1addr","type":"address","internalType":"address"}],"outputs":[],"stateMutability":"nonpayable"},{"type":"function","name":"transferOwnership","inputs":[{"name":"newOwner","type":"address","internalType":"address"}],"outputs":[],"stateMutability":"nonpayable"},{"type":"function","name":"usdcContractAddr","inputs":[],"outputs":[{"name":"","type":"address","internalType":"address"}],"stateMutability":"view"},{"type":"function","name":"winnerAddresses","inputs":[{"name":"","type":"uint256","internalType":"uint256"}],"outputs":[{"name":"","type":"address","internalType":"address"}],"stateMutability":"view"},{"type":"function","name":"winners","inputs":[{"name":"","type":"address","internalType":"address"}],"outputs":[{"name":"","type":"bool","internalType":"bool"}],"stateMutability":"view"},{"type":"event","name":"LotteryEnded","inputs":[],"anonymous":false},{"type":"event","name":"LotteryStarted","inputs":[],"anonymous":false},{"type":"event","name":"OwnershipTransferred","inputs":[{"name":"previousOwner","type":"address","indexed":true,"internalType":"address"},{"name":"newOwner","type":"address","indexed":true,"internalType":"address"}],"anonymous":false},{"type":"event","name":"RandomFullfiled","inputs":[{"name":"requester","type":"address","indexed":true,"internalType":"address"},{"name":"number","type":"uint256","indexed":false,"internalType":"uint256"}],"anonymous":false},{"type":"event","name":"RandomRequested","inputs":[{"name":"requester","type":"address","indexed":true,"internalType":"address"}],"anonymous":false},{"type":"event","name":"RequestedRandomness","inputs":[{"name":"round","type":"uint256","indexed":false,"internalType":"uint256"},{"name":"data","type":"bytes","indexed":false,"internalType":"bytes"}],"anonymous":false},{"type":"event","name":"WinnerSelected","inputs":[{"name":"winner","type":"address","indexed":true,"internalType":"address"}],"anonymous":false},{"type":"error","name":"OwnableInvalidOwner","inputs":[{"name":"owner","type":"address","internalType":"address"}]},{"type":"error","name":"OwnableUnauthorizedAccount","inputs":[{"name":"account","type":"address","internalType":"address"}]}],"bytecode":{"object":"0x60a06040526002805460ff60a01b19169055600060155534801561002257600080fd5b5073d8253782c45a12053594b9deb72d8e8ab2fca54c338061005e57604051631e4fbdf760e01b81526000600482015260240160405180910390fd5b61006781610079565b506001600160a01b03166080526100cb565b600280546001600160a01b038381166001600160a01b0319831681179093556040519116919082907f8be0079c531659141344cd1fd0a4f28419497f9722a3daafe3b4186f6b6457e090600090a35050565b608051612f596100ed600039600081816104e101526125a00152612f596000f3fe608060405234801561001057600080fd5b50600436106103835760003560e01c80638da5cb5b116101de578063ccbac9f51161010f578063e63c4609116100ad578063f3f18c371161007c578063f3f18c37146107a5578063f7098e58146107b8578063f8413b07146107cb578063fc7e286d146107d357600080fd5b8063e63c460914610743578063e9081ec714610756578063e99d28661461077f578063f2fde38b1461079257600080fd5b8063cf54d3b8116100e9578063cf54d3b81461070d578063d9fca76914610720578063dbdff2c114610733578063df15c37e1461073b57600080fd5b8063ccbac9f5146106f3578063cd5e3c5d146106fc578063cf3af3a11461070457600080fd5b8063a61fb2ba1161017c578063b6b55f2511610156578063b6b55f25146106ae578063b6b6f0c3146106c1578063bf1dda15146106ca578063c4f8f27b146106d357600080fd5b8063a61fb2ba14610675578063aab483d614610688578063b3f6b99a1461069b57600080fd5b806397fedfcb116101b857806397fedfcb1461061b57806399bd69d61461062357806399dbf4b5146106365780639d9ca28d1461064957600080fd5b80638da5cb5b146105ee57806394d898de146105ff5780639659867e1461061257600080fd5b806350f3dbec116102b8578063683e93e111610256578063715018a611610230578063715018a6146105ab57806375ce7fff146105b35780637b15452d146105c65780637cc947d0146105e657600080fd5b8063683e93e1146105545780636939864b146105675780636bd5450a1461058857600080fd5b80635aa68ac0116102925780635aa68ac0146105115780635f86e4fe1461052657806360d50da31461053957806366af746b1461054c57600080fd5b806350f3dbec146104ab5780635687156e146104be578063572b6c05146104d157600080fd5b806326170480116103255780633644c27c116102ff5780633644c27c1461045957806338e21cce1461046c5780633dc204e71461048f57806345745c10146104a257600080fd5b8063261704801461042b578063292fec04146104335780632c23ec8e1461044657600080fd5b806312f0800b1161036157806312f0800b146103e2578063158ef93e146103f75780631593a8c71461041b578063160344e21461042357600080fd5b8063045f9c9714610388578063080c279a146103b857806308551a53146103cf575b600080fd5b61039b61039636600461293d565b6107f3565b6040516001600160a01b0390911681526020015b60405180910390f35b6103c160065481565b6040519081526020016103af565b60045461039b906001600160a01b031681565b6103f56103f036600461293d565b61081d565b005b60025461040b90600160a01b900460ff1681565b60405190151581526020016103af565b6103f56108d9565b6103f561091f565b6103f56109d0565b61040b610441366004612976565b610b99565b60105461039b906001600160a01b031681565b6103f5610467366004612976565b610ca8565b61040b61047a366004612976565b600b6020526000908152604090205460ff1681565b61040b61049d366004612976565b610cd2565b6103c160075481565b6103f56104b936600461299a565b610d80565b6103f56104cc36600461293d565b610edf565b61040b6104df366004612976565b7f00000000000000000000000000000000000000000000000000000000000000006001600160a01b0390811691161490565b610519610f1e565b6040516103af91906129c6565b60125461039b906001600160a01b031681565b6103f5610547366004612976565b610f80565b6103f5610faa565b6103f5610562366004612a13565b6111e4565b60025461057b90600160a81b900460ff1681565b6040516103af9190612a4a565b61040b610596366004612976565b600d6020526000908152604090205460ff1681565b6103f561124a565b61040b6105c136600461293d565b61125c565b6103c16105d4366004612976565b60136020526000908152604090205481565b6103f5611290565b6002546001600160a01b031661039b565b6103f561060d366004612976565b61149a565b6103c160095481565b6103f56114c4565b6103f561063136600461293d565b61155b565b60115461039b906001600160a01b031681565b61040b610657366004612976565b6001600160a01b03166000908152600d602052604090205460ff1690565b60035461039b906001600160a01b031681565b6103f561069636600461293d565b611608565b6103f56106a9366004612a72565b611647565b6103f56106bc36600461293d565b61181b565b6103c160085481565b6103c160155481565b6103c16106e136600461293d565b60016020526000908152604090205481565b6103c1600a5481565b6103f5611bc7565b6103c160145481565b6103f561071b366004612b5f565b611d73565b6103f561072e366004612976565b611e79565b6103c1611f19565b610519611f70565b6103f5610751366004612976565b611fd0565b6103c1610764366004612976565b6001600160a01b03166000908152600c602052604090205490565b6103f561078d366004612976565b6121e8565b6103f56107a0366004612976565b612244565b60055461039b906001600160a01b031681565b6103f56107c6366004612976565b61227f565b6103f56122db565b6103c16107e1366004612976565b600c6020526000908152604090205481565b600e818154811061080357600080fd5b6000918252602090912001546001600160a01b0316905081565b6004546001600160a01b0316610831612326565b6001600160a01b0316146108605760405162461bcd60e51b815260040161085790612c07565b60405180910390fd5b60018110158015610872575060638111155b6108d45760405162461bcd60e51b815260206004820152602d60248201527f546f6c6572616e63652070657263656e74616765206d7573742062652062657460448201526c7765656e203120616e6420393960981b6064820152608401610857565b601555565b6004546001600160a01b03166108ed612326565b6001600160a01b0316146109135760405162461bcd60e51b815260040161085790612c07565b61091d60026111e4565b565b6004546001600160a01b0316610933612326565b6001600160a01b0316146109595760405162461bcd60e51b815260040161085790612c07565b600060028054600160a81b900460ff169081111561097957610979612a34565b146109c65760405162461bcd60e51b815260206004820152601a60248201527f4c6f747465727920697320696e206163746976652073746174650000000000006044820152606401610857565b61091d60016111e4565b600b60006109dc612326565b6001600160a01b0316815260208101919091526040016000205460ff1615610a3b5760405162461bcd60e51b815260206004820152601260248201527113919508185b1c9958591e481b5a5b9d195960721b6044820152606401610857565b610a46610657612326565b610a8b5760405162461bcd60e51b815260206004820152601660248201527521b0b63632b91034b9903737ba1030903bb4b73732b960511b6044820152606401610857565b60085460095410610ade5760405162461bcd60e51b815260206004820152601760248201527f4e6f206d6f7265206d696e747320617661696c61626c650000000000000000006044820152606401610857565b6001600b6000610aec612326565b6001600160a01b0390811682526020820192909252604001600020805460ff19169215159290921790915560105416636b8f60f6610b28612326565b6040516001600160e01b031960e084901b1681526001600160a01b039091166004820152602401600060405180830381600087803b158015610b6957600080fd5b505af1158015610b7d573d6000803e3d6000fd5b505060098054925090506000610b9283612c5f565b9190505550565b6015546001600160a01b03821660009081526013602052604081205490918291606491610bc591612c78565b610bcf9190612cab565b6001600160a01b038416600090815260136020526040902054610bf29190612cbf565b6015546001600160a01b03851660009081526013602052604081205492935091606491610c1e91612c78565b610c289190612cab565b6001600160a01b038516600090815260136020526040902054610c4b9190612cd2565b9050600082600a5410158015610c63575081600a5411155b6006546001600160a01b0387166000908152600c602052604090205491925011801590610c8d5750805b15610c9d57506001949350505050565b506000949350505050565b610cb0612335565b601080546001600160a01b0319166001600160a01b0392909216919091179055565b6000610cdd82610b99565b15610d73576001600160a01b0382166000818152600d6020526040808220805460ff19166001908117909155600e8054918201815583527fbb7b4a454dc3493923482f07822329ed19e8244eff582cc204f8554c3620c3fd0180546001600160a01b03191684179055517f1d4c260f1824cd028e6c9e6e31c3a0b94f2513e7a641113ec759d382f9bdd5a19190a2506001919050565b506000919050565b919050565b610d88612326565b6012546001600160a01b03908116911614610df55760405162461bcd60e51b815260206004820152602760248201527f4f6e6c792077686974656c6973746564206d61792063616c6c207468697320666044820152663ab731ba34b7b760c91b6064820152608401610857565b6001600160a01b0382166000908152600c60205260408120549003610e6057600f80546001810182556000919091527f8d1108e10bcb7c27dddfc02ed9d693a074039d026cf4ea4240b40f7d581ac8020180546001600160a01b0319166001600160a01b0384161790555b6001600160a01b0382166000908152600c602052604081208054839290610e88908490612cd2565b90915550506001600160a01b0382166000908152601360205260408120549003610edb57604080516001600160a01b0384166020820152610ed991015b604051602081830303815290604052612393565b505b5050565b6004546001600160a01b0316610ef3612326565b6001600160a01b031614610f195760405162461bcd60e51b815260040161085790612c07565b601455565b6060600f805480602002602001604051908101604052809291908181526020018280548015610f7657602002820191906000526020600020905b81546001600160a01b03168152600190910190602001808311610f58575b5050505050905090565b610f88612335565b600380546001600160a01b0319166001600160a01b0392909216919091179055565b6004546001600160a01b0316610fbe612326565b6001600160a01b031614610fe45760405162461bcd60e51b815260040161085790612c07565b6002808054600160a81b900460ff169081111561100357611003612a34565b146110445760405162461bcd60e51b8152602060048201526011602482015270131bdd1d195c9e481b9bdd08195b991959607a1b6044820152606401610857565b6000805b600e548110156110bd576000600e828154811061106757611067612ce5565b60009182526020808320909101546001600160a01b0316808352600c9091526040909120549091506110999084612cd2565b6001600160a01b039091166000908152600c60205260408120559150600101611048565b50600060646110cd836005612c78565b6110d79190612cab565b905060006110e58284612cbf565b60115460035460405163a9059cbb60e01b81526001600160a01b03918216600482015260248101869052929350169063a9059cbb906044016020604051808303816000875af115801561113c573d6000803e3d6000fd5b505050506040513d601f19601f820116820180604052508101906111609190612cfb565b506011546004805460405163a9059cbb60e01b81526001600160a01b0391821692810192909252602482018490529091169063a9059cbb906044016020604051808303816000875af11580156111ba573d6000803e3d6000fd5b505050506040513d601f19601f820116820180604052508101906111de9190612cfb565b50505050565b6004546001600160a01b03166111f8612326565b6001600160a01b03161461121e5760405162461bcd60e51b815260040161085790612c07565b6002805482919060ff60a81b1916600160a81b838381111561124257611242612a34565b021790555050565b611252612335565b61091d6000612494565b6000818154811061126c57600080fd5b9060005260206000209060209182820401919006915054906101000a900460ff1681565b600160028054600160a81b900460ff16908111156112b0576112b0612a34565b036112fd5760405162461bcd60e51b815260206004820152601b60248201527f4c6f74746572792069732063757272656e746c792061637469766500000000006044820152606401610857565b600d6000611309612326565b6001600160a01b0316815260208101919091526040016000205460ff16156113735760405162461bcd60e51b815260206004820152601760248201527f57696e6e6572732063616e6e6f742077697468647261770000000000000000006044820152606401610857565b6000600c6000611381612326565b6001600160a01b03166001600160a01b03168152602001908152602001600020549050600081116113eb5760405162461bcd60e51b81526020600482015260146024820152734e6f2066756e647320746f20776974686472617760601b6044820152606401610857565b6000600c60006113f9612326565b6001600160a01b0390811682526020820192909252604001600020919091556011541663a9059cbb611429612326565b6040516001600160e01b031960e084901b1681526001600160a01b039091166004820152602481018490526044016020604051808303816000875af1158015611476573d6000803e3d6000fd5b505050506040513d601f19601f82011682018060405250810190610edb9190612cfb565b6114a2612335565b601180546001600160a01b0319166001600160a01b0392909216919091179055565b6004546001600160a01b03166114d8612326565b6001600160a01b0316146114fe5760405162461bcd60e51b815260040161085790612c07565b600a541561154e5760405162461bcd60e51b815260206004820152601960248201527f52616e646f6d206e756d62657220616c726561647920736574000000000000006044820152606401610857565b611556611f19565b600a55565b6004546001600160a01b031661156f612326565b6001600160a01b0316146115955760405162461bcd60e51b815260040161085790612c07565b600081116115f95760405162461bcd60e51b815260206004820152602b60248201527f4e756d626572206f66207469636b657473206d7573742062652067726561746560448201526a72207468616e207a65726f60a81b6064820152608401610857565b60078190556008556000600955565b6004546001600160a01b031661161c612326565b6001600160a01b0316146116425760405162461bcd60e51b815260040161085790612c07565b600655565b6005546001600160a01b031633146116915760405162461bcd60e51b815260206004820152600d60248201526c37b7363c9037b832b930ba37b960991b6044820152606401610857565b600061169f82840184612d45565b915050600080828060200190518101906116b99190612df3565b91509150600085856040516116cf929190612e76565b604080519182900390912060008581526001602052918220548254919350831491908590811061170157611701612ce5565b90600052602060002090602091828204019190069054906101000a900460ff1661176d5760405162461bcd60e51b815260206004820152601c60248201527f726571756573742066756c66696c6c6564206f72206d697373696e67000000006044820152606401610857565b80156118115760408051602081018a905230918101919091524660608201526080810185905260a0016040516020818303038152906040528051906020012060001c97506117bc8885856124e6565b60008085815481106117d0576117d0612ce5565b90600052602060002090602091828204019190066101000a81548160ff02191690831515021790555060016000858152602001908152602001600020600090555b5050505050505050565b600160028054600160a81b900460ff169081111561183b5761183b612a34565b146118805760405162461bcd60e51b81526020600482015260156024820152744c6f7474657279206973206e6f742061637469766560581b6044820152606401610857565b6011546001600160a01b03166118d85760405162461bcd60e51b815260206004820152601d60248201527f5553444320636f6e74726163742061646472657373206e6f74207365740000006044820152606401610857565b600081116119185760405162461bcd60e51b815260206004820152600d60248201526c139bc8199d5b991cc81cd95b9d609a1b6044820152606401610857565b60115481906001600160a01b031663dd62ed3e611933612326565b6040516001600160e01b031960e084901b1681526001600160a01b039091166004820152306024820152604401602060405180830381865afa15801561197d573d6000803e3d6000fd5b505050506040513d601f19601f820116820180604052508101906119a19190612e86565b10156119e85760405162461bcd60e51b8152602060048201526016602482015275496e73756666696369656e7420616c6c6f77616e636560501b6044820152606401610857565b6011546001600160a01b03166323b872dd611a01612326565b6040516001600160e01b031960e084901b1681526001600160a01b039091166004820152306024820152604481018490526064016020604051808303816000875af1158015611a54573d6000803e3d6000fd5b505050506040513d601f19601f82011682018060405250810190611a789190612cfb565b50600c6000611a85612326565b6001600160a01b03166001600160a01b0316815260200190815260200160002054600003611aea57600f611ab7612326565b81546001810183556000928352602090922090910180546001600160a01b0319166001600160a01b039092169190911790555b80600c6000611af7612326565b6001600160a01b03166001600160a01b031681526020019081526020016000206000828254611b269190612cd2565b90915550601390506000611b38612326565b6001600160a01b03166001600160a01b0316815260200190815260200160002054600003611bc457611b85611b6b612326565b604080516001600160a01b03909216602083015201610ec5565b50611b8e612326565b6001600160a01b03167fd802e7c7f1646e3318c03abed1e468bdf913f45331a68dc912a0d645eb646a4260405160405180910390a25b50565b600160028054600160a81b900460ff1690811115611be757611be7612a34565b14611c2c5760405162461bcd60e51b81526020600482015260156024820152744c6f7474657279206973206e6f742061637469766560581b6044820152606401610857565b600060145411611c725760405162461bcd60e51b8152602060048201526011602482015270139bc81c9bdb1b081c1c9a58d9481cd95d607a1b6044820152606401610857565b600654601454611c829190612cd2565b600c6000611c8e612326565b6001600160a01b03166001600160a01b03168152602001908152602001600020541015611cf25760405162461bcd60e51b8152602060048201526012602482015271496e73756666696369656e742066756e647360701b6044820152606401610857565b601454600c6000611d01612326565b6001600160a01b03166001600160a01b031681526020019081526020016000206000828254611d309190612cbf565b90915550506014546004546001600160a01b03166000908152600c602052604081208054909190611d62908490612cd2565b90915550611bc49050611b6b612326565b600254600160a01b900460ff1615611dc35760405162461bcd60e51b8152602060048201526013602482015272105b1c9958591e481a5b9a5d1a585b1a5e9959606a1b6044820152606401610857565b6040810151600480546001600160a01b039283166001600160a01b0319918216179091556020830151600580549190931691161790556060810151611e0790612494565b608081015160075560a081015160065560c0810151601180546001600160a01b03199081166001600160a01b039384161790915560e08301516003805483169184169190911790556101009092015160128054909316911617905560028054600160a01b60ff60a01b19909116179055565b6004546001600160a01b0316611e8d612326565b6001600160a01b031614611eb35760405162461bcd60e51b815260040161085790612c07565b6001600160a01b03166000818152600d60205260408120805460ff19166001908117909155600e805491820181559091527fbb7b4a454dc3493923482f07822329ed19e8244eff582cc204f8554c3620c3fd0180546001600160a01b0319169091179055565b60004244611f25612326565b6040805160208101949094528301919091526bffffffffffffffffffffffff19606091821b16908201526074016040516020818303038152906040528051906020012060001c905090565b6060600e805480602002602001604051908101604052809291908181526020018280548015610f76576020028201919060005260206000209081546001600160a01b03168152600190910190602001808311610f58575050505050905090565b6004546001600160a01b0316611fe4612326565b6001600160a01b03161461200a5760405162461bcd60e51b815260040161085790612c07565b60005b600f54811015610edb57612055600f828154811061202d5761202d612ce5565b60009182526020808320909101546001600160a01b03168252600d9052604090205460ff1690565b6121e0576000600c6000600f848154811061207257612072612ce5565b60009182526020808320909101546001600160a01b03168352820192909252604001812054600f8054919350600c91839190869081106120b4576120b4612ce5565b6000918252602080832091909101546001600160a01b039081168452908301939093526040918201902092909255601154915163a9059cbb60e01b815285821660048201526024810184905291169063a9059cbb906044016020604051808303816000875af115801561212b573d6000803e3d6000fd5b505050506040513d601f19601f8201168201806040525081019061214f9190612cfb565b50826001600160a01b03166350f3dbec600f848154811061217257612172612ce5565b60009182526020909120015460405160e083901b6001600160e01b03191681526001600160a01b03909116600482015260248101849052604401600060405180830381600087803b1580156121c657600080fd5b505af11580156121da573d6000803e3d6000fd5b50505050505b60010161200d565b6004546001600160a01b03166121fc612326565b6001600160a01b0316146122225760405162461bcd60e51b815260040161085790612c07565b600480546001600160a01b0319166001600160a01b0392909216919091179055565b61224c612335565b6001600160a01b03811661227657604051631e4fbdf760e01b815260006004820152602401610857565b611bc481612494565b6004546001600160a01b0316612293612326565b6001600160a01b0316146122b95760405162461bcd60e51b815260040161085790612c07565b601280546001600160a01b0319166001600160a01b0392909216919091179055565b6122e6611b6b612326565b506122ef612326565b6001600160a01b03167fd802e7c7f1646e3318c03abed1e468bdf913f45331a68dc912a0d645eb646a4260405160405180910390a2565b600061233061259c565b905090565b61233d612326565b6001600160a01b03166123586002546001600160a01b031690565b6001600160a01b03161461091d5761236e612326565b60405163118cdaa760e01b81526001600160a01b039091166004820152602401610857565b60008054600180820180845583805291929091839081106123b6576123b6612ce5565b90600052602060002090602091828204019190066101000a81548160ff021916908315150217905550600081836040516020016123f4929190612e9f565b6040516020818303038152906040529050600061240f6125e0565b905060008183604051602001612426929190612e9f565b60408051601f198184030181528282528051602080830191909120600089815260019092529290208290559250907fd91fc3685b930310b008ec37d2334870cab88a023ed8cc628a2e2ccd4e55d202906124839085908790612e9f565b60405180910390a150505050919050565b600280546001600160a01b038381166001600160a01b0319831681179093556040519116919082907f8be0079c531659141344cd1fd0a4f28419497f9722a3daafe3b4186f6b6457e090600090a35050565b6000818060200190518101906124fc9190612ed9565b9050600061250985612637565b6004549091506001600160a01b039081169083160361252c57600a819055612552565b6001600160a01b038216600090815260136020526040902081905561255082610cd2565b505b816001600160a01b03167fdc88f22db6d7f267e15a797eb52635df440f5f8b47a89ac56fa5b212e4e97e2d8260405161258d91815260200190565b60405180910390a25050505050565b60007f00000000000000000000000000000000000000000000000000000000000000006001600160a01b031633036125db575060131936013560601c90565b503390565b6000806125f16364e6212742612cbf565b90506000612600600383612cab565b61260b906001612cd2565b90504660011461262557612620816001612cd2565b612630565b612630816004612cd2565b9250505090565b60008061264383612667565b90506000612654826000600e6127de565b905061265f81612897565b949350505050565b60608160000361268e5750506040805180820190915260018152600360fc1b602082015290565b604080516050808252608082019092526000908260208201818036833701905050905060005b841561271e5760006126c7600a87612ef6565b90506126d4600a87612cab565b95506126e1816030612f0a565b60f81b83836126ef81612c5f565b94508151811061270157612701612ce5565b60200101906001600160f81b031916908160001a905350506126b4565b60008167ffffffffffffffff81111561273957612739612aee565b6040519080825280601f01601f191660200182016040528015612763576020820181803683370190505b50905060005b828110156127d45783600161277e8386612cbf565b6127889190612cbf565b8151811061279857612798612ce5565b602001015160f81c60f81b8282815181106127b5576127b5612ce5565b60200101906001600160f81b031916908160001a905350600101612769565b5095945050505050565b60608360006127ed8585612cbf565b67ffffffffffffffff81111561280557612805612aee565b6040519080825280601f01601f19166020018201604052801561282f576020820181803683370190505b509050845b848110156127d45782818151811061284e5761284e612ce5565b01602001516001600160f81b031916826128688884612cbf565b8151811061287857612878612ce5565b60200101906001600160f81b031916908160001a905350600101612834565b60008181805b82518110156129355760308382815181106128ba576128ba612ce5565b016020015160f81c108015906128ea575060398382815181106128df576128df612ce5565b016020015160f81c11155b1561292d57603083828151811061290357612903612ce5565b0160200151612915919060f81c612cbf565b61292083600a612c78565b61292a9190612cd2565b91505b60010161289d565b509392505050565b60006020828403121561294f57600080fd5b5035919050565b6001600160a01b0381168114611bc457600080fd5b8035610d7b81612956565b60006020828403121561298857600080fd5b813561299381612956565b9392505050565b600080604083850312156129ad57600080fd5b82356129b881612956565b946020939093013593505050565b6020808252825182820181905260009190848201906040850190845b81811015612a075783516001600160a01b0316835292840192918401916001016129e2565b50909695505050505050565b600060208284031215612a2557600080fd5b81356003811061299357600080fd5b634e487b7160e01b600052602160045260246000fd5b6020810160038310612a6c57634e487b7160e01b600052602160045260246000fd5b91905290565b600080600060408486031215612a8757600080fd5b83359250602084013567ffffffffffffffff80821115612aa657600080fd5b818601915086601f830112612aba57600080fd5b813581811115612ac957600080fd5b876020828501011115612adb57600080fd5b6020830194508093505050509250925092565b634e487b7160e01b600052604160045260246000fd5b604051610120810167ffffffffffffffff81118282101715612b2857612b28612aee565b60405290565b604051601f8201601f1916810167ffffffffffffffff81118282101715612b5757612b57612aee565b604052919050565b60006101208284031215612b7257600080fd5b612b7a612b04565b612b838361296b565b8152612b916020840161296b565b6020820152612ba26040840161296b565b6040820152612bb36060840161296b565b60608201526080830135608082015260a083013560a0820152612bd860c0840161296b565b60c0820152612be960e0840161296b565b60e0820152610100612bfc81850161296b565b908201529392505050565b60208082526022908201527f4f6e6c792073656c6c65722063616e2063616c6c20746869732066756e63746960408201526137b760f11b606082015260800190565b634e487b7160e01b600052601160045260246000fd5b600060018201612c7157612c71612c49565b5060010190565b8082028115828204841417612c8f57612c8f612c49565b92915050565b634e487b7160e01b600052601260045260246000fd5b600082612cba57612cba612c95565b500490565b81810381811115612c8f57612c8f612c49565b80820180821115612c8f57612c8f612c49565b634e487b7160e01b600052603260045260246000fd5b600060208284031215612d0d57600080fd5b8151801515811461299357600080fd5b600067ffffffffffffffff821115612d3757612d37612aee565b50601f01601f191660200190565b60008060408385031215612d5857600080fd5b82359150602083013567ffffffffffffffff811115612d7657600080fd5b8301601f81018513612d8757600080fd5b8035612d9a612d9582612d1d565b612b2e565b818152866020838501011115612daf57600080fd5b816020840160208301376000602083830101528093505050509250929050565b60005b83811015612dea578181015183820152602001612dd2565b50506000910152565b60008060408385031215612e0657600080fd5b82519150602083015167ffffffffffffffff811115612e2457600080fd5b8301601f81018513612e3557600080fd5b8051612e43612d9582612d1d565b818152866020838501011115612e5857600080fd5b612e69826020830160208601612dcf565b8093505050509250929050565b8183823760009101908152919050565b600060208284031215612e9857600080fd5b5051919050565b8281526040602082015260008251806040840152612ec4816060850160208701612dcf565b601f01601f1916919091016060019392505050565b600060208284031215612eeb57600080fd5b815161299381612956565b600082612f0557612f05612c95565b500690565b60ff8181168382160190811115612c8f57612c8f612c4956fea2646970667358221220472cf892ee0ae8dd15d756f1ce37c7756cb4e1189476f3ba594d8024dd58657364736f6c63430008190033","linkReferences":{}},"methodIdentifiers":{"buyerWithdraw()":"7cc947d0","changeLotteryState(uint8)":"683e93e1","claimNumber(address)":"3dc204e7","deposit(uint256)":"b6b55f25","deposits(address)":"fc7e286d","endLottery()":"1593a8c7","fulfillRandomness(uint256,bytes)":"b3f6b99a","getDepositedAmount(address)":"e9081ec7","getParticipants()":"5aa68ac0","getRandomNumber()":"dbdff2c1","getWinners()":"df15c37e","hasMinted(address)":"38e21cce","initialize((address,address,address,address,uint256,uint256,address,address,address))":"cf54d3b8","initialized()":"158ef93e","isClaimable(address)":"292fec04","isTrustedForwarder(address)":"572b6c05","isWinner(address)":"9d9ca28d","lotteryState()":"6939864b","lotteryV1Addr()":"5f86e4fe","maxMints()":"b6b6f0c3","minimumDepositAmount()":"080c279a","mintCount()":"9659867e","mintMyNFT()":"26170480","multisigWalletAddress()":"a61fb2ba","nftContractAddr()":"2c23ec8e","numberOfTickets()":"45745c10","operatorAddr()":"f3f18c37","owner()":"8da5cb5b","randomNumber()":"ccbac9f5","renounceOwnership()":"715018a6","requestPending(uint256)":"75ce7fff","requestRandomness()":"f8413b07","requestedHash(uint256)":"c4f8f27b","roll()":"cd5e3c5d","rollPrice()":"cf3af3a1","rollTolerance()":"bf1dda15","rolledNumbers(address)":"7b15452d","seller()":"08551a53","sellerWithdraw()":"66af746b","setLotteryV1Addr(address)":"f7098e58","setMinimumDepositAmount(uint256)":"aab483d6","setMultisigWalletAddress(address)":"60d50da3","setNftContractAddr(address)":"3644c27c","setNumberOfTickets(uint256)":"99bd69d6","setRandomNumber()":"97fedfcb","setRollPrice(uint256)":"5687156e","setRollTolerance(uint256)":"12f0800b","setSeller(address)":"e99d2866","setUsdcContractAddr(address)":"94d898de","setWinner(address)":"d9fca769","startLottery()":"160344e2","transferDeposit(address,uint256)":"50f3dbec","transferNonWinnerDeposits(address)":"e63c4609","transferOwnership(address)":"f2fde38b","usdcContractAddr()":"99dbf4b5","winnerAddresses(uint256)":"045f9c97","winners(address)":"6bd5450a"},"id":44}