{
  "abi": [
    {
      "type": "function",
      "name": "buyerWithdraw",
      "inputs": [],
      "outputs": [],
      "stateMutability": "nonpayable"
    },
    {
      "type": "function",
      "name": "changeLotteryState",
      "inputs": [
        {
          "name": "_newState",
          "type": "uint8",
          "internalType": "enum LotteryV1Base.LotteryState"
        }
      ],
      "outputs": [],
      "stateMutability": "nonpayable"
    },
    {
      "type": "function",
      "name": "deposit",
      "inputs": [
        {
          "name": "amount",
          "type": "uint256",
          "internalType": "uint256"
        }
      ],
      "outputs": [],
      "stateMutability": "payable"
    },
    {
      "type": "function",
      "name": "deposits",
      "inputs": [
        {
          "name": "",
          "type": "address",
          "internalType": "address"
        }
      ],
      "outputs": [
        {
          "name": "",
          "type": "uint256",
          "internalType": "uint256"
        }
      ],
      "stateMutability": "view"
    },
    {
      "type": "function",
      "name": "endLottery",
      "inputs": [],
      "outputs": [],
      "stateMutability": "nonpayable"
    },
    {
      "type": "function",
      "name": "finishAt",
      "inputs": [],
      "outputs": [
        {
          "name": "",
          "type": "uint256",
          "internalType": "uint256"
        }
      ],
      "stateMutability": "view"
    },
    {
      "type": "function",
      "name": "fulfillRandomness",
      "inputs": [
        {
          "name": "randomness",
          "type": "uint256",
          "internalType": "uint256"
        },
        {
          "name": "dataWithRound",
          "type": "bytes",
          "internalType": "bytes"
        }
      ],
      "outputs": [],
      "stateMutability": "nonpayable"
    },
    {
      "type": "function",
      "name": "getDepositedAmount",
      "inputs": [
        {
          "name": "participant",
          "type": "address",
          "internalType": "address"
        }
      ],
      "outputs": [
        {
          "name": "",
          "type": "uint256",
          "internalType": "uint256"
        }
      ],
      "stateMutability": "view"
    },
    {
      "type": "function",
      "name": "getParticipants",
      "inputs": [],
      "outputs": [
        {
          "name": "",
          "type": "address[]",
          "internalType": "address[]"
        }
      ],
      "stateMutability": "view"
    },
    {
      "type": "function",
      "name": "getWinners",
      "inputs": [],
      "outputs": [
        {
          "name": "",
          "type": "address[]",
          "internalType": "address[]"
        }
      ],
      "stateMutability": "view"
    },
    {
      "type": "function",
      "name": "hasMinted",
      "inputs": [
        {
          "name": "",
          "type": "address",
          "internalType": "address"
        }
      ],
      "outputs": [
        {
          "name": "",
          "type": "bool",
          "internalType": "bool"
        }
      ],
      "stateMutability": "view"
    },
    {
      "type": "function",
      "name": "initialize",
      "inputs": [
        {
          "name": "config",
          "type": "tuple",
          "internalType": "struct StructsLibrary.ILotteryBaseConfig",
          "components": [
            {
              "name": "_seller",
              "type": "address",
              "internalType": "address"
            },
            {
              "name": "_operator",
              "type": "address",
              "internalType": "address"
            },
            {
              "name": "_owner",
              "type": "address",
              "internalType": "address"
            },
            {
              "name": "_ticketAmount",
              "type": "uint256",
              "internalType": "uint256"
            },
            {
              "name": "_ticketPrice",
              "type": "uint256",
              "internalType": "uint256"
            },
            {
              "name": "_finishAt",
              "type": "uint256",
              "internalType": "uint256"
            },
            {
              "name": "_usdcContractAddr",
              "type": "address",
              "internalType": "address"
            },
            {
              "name": "_multisigWalletAddress",
              "type": "address",
              "internalType": "address"
            }
          ]
        }
      ],
      "outputs": [],
      "stateMutability": "nonpayable"
    },
    {
      "type": "function",
      "name": "initialized",
      "inputs": [],
      "outputs": [
        {
          "name": "",
          "type": "bool",
          "internalType": "bool"
        }
      ],
      "stateMutability": "view"
    },
    {
      "type": "function",
      "name": "isParticipantEligible",
      "inputs": [
        {
          "name": "participant",
          "type": "address",
          "internalType": "address"
        }
      ],
      "outputs": [
        {
          "name": "",
          "type": "bool",
          "internalType": "bool"
        }
      ],
      "stateMutability": "view"
    },
    {
      "type": "function",
      "name": "isTrustedForwarder",
      "inputs": [
        {
          "name": "forwarder",
          "type": "address",
          "internalType": "address"
        }
      ],
      "outputs": [
        {
          "name": "",
          "type": "bool",
          "internalType": "bool"
        }
      ],
      "stateMutability": "view"
    },
    {
      "type": "function",
      "name": "isWinner",
      "inputs": [
        {
          "name": "_participant",
          "type": "address",
          "internalType": "address"
        }
      ],
      "outputs": [
        {
          "name": "",
          "type": "bool",
          "internalType": "bool"
        }
      ],
      "stateMutability": "view"
    },
    {
      "type": "function",
      "name": "lotteryState",
      "inputs": [],
      "outputs": [
        {
          "name": "",
          "type": "uint8",
          "internalType": "enum LotteryV1Base.LotteryState"
        }
      ],
      "stateMutability": "view"
    },
    {
      "type": "function",
      "name": "minimumDepositAmount",
      "inputs": [],
      "outputs": [
        {
          "name": "",
          "type": "uint256",
          "internalType": "uint256"
        }
      ],
      "stateMutability": "view"
    },
    {
      "type": "function",
      "name": "mintMyNFT",
      "inputs": [],
      "outputs": [],
      "stateMutability": "nonpayable"
    },
    {
      "type": "function",
      "name": "multisigWalletAddress",
      "inputs": [],
      "outputs": [
        {
          "name": "",
          "type": "address",
          "internalType": "address"
        }
      ],
      "stateMutability": "view"
    },
    {
      "type": "function",
      "name": "nftContractAddr",
      "inputs": [],
      "outputs": [
        {
          "name": "",
          "type": "address",
          "internalType": "address"
        }
      ],
      "stateMutability": "view"
    },
    {
      "type": "function",
      "name": "numberOfTickets",
      "inputs": [],
      "outputs": [
        {
          "name": "",
          "type": "uint256",
          "internalType": "uint256"
        }
      ],
      "stateMutability": "view"
    },
    {
      "type": "function",
      "name": "operatorAddr",
      "inputs": [],
      "outputs": [
        {
          "name": "",
          "type": "address",
          "internalType": "address"
        }
      ],
      "stateMutability": "view"
    },
    {
      "type": "function",
      "name": "owner",
      "inputs": [],
      "outputs": [
        {
          "name": "",
          "type": "address",
          "internalType": "address"
        }
      ],
      "stateMutability": "view"
    },
    {
      "type": "function",
      "name": "randomNumber",
      "inputs": [],
      "outputs": [
        {
          "name": "",
          "type": "uint256",
          "internalType": "uint256"
        }
      ],
      "stateMutability": "view"
    },
    {
      "type": "function",
      "name": "renounceOwnership",
      "inputs": [],
      "outputs": [],
      "stateMutability": "nonpayable"
    },
    {
      "type": "function",
      "name": "requestPending",
      "inputs": [
        {
          "name": "",
          "type": "uint256",
          "internalType": "uint256"
        }
      ],
      "outputs": [
        {
          "name": "",
          "type": "bool",
          "internalType": "bool"
        }
      ],
      "stateMutability": "view"
    },
    {
      "type": "function",
      "name": "requestRandomness",
      "inputs": [],
      "outputs": [],
      "stateMutability": "nonpayable"
    },
    {
      "type": "function",
      "name": "requestedHash",
      "inputs": [
        {
          "name": "",
          "type": "uint256",
          "internalType": "uint256"
        }
      ],
      "outputs": [
        {
          "name": "",
          "type": "bytes32",
          "internalType": "bytes32"
        }
      ],
      "stateMutability": "view"
    },
    {
      "type": "function",
      "name": "selectWinners",
      "inputs": [],
      "outputs": [],
      "stateMutability": "nonpayable"
    },
    {
      "type": "function",
      "name": "seller",
      "inputs": [],
      "outputs": [
        {
          "name": "",
          "type": "address",
          "internalType": "address"
        }
      ],
      "stateMutability": "view"
    },
    {
      "type": "function",
      "name": "sellerWithdraw",
      "inputs": [],
      "outputs": [],
      "stateMutability": "nonpayable"
    },
    {
      "type": "function",
      "name": "setFinishAt",
      "inputs": [
        {
          "name": "_finishAt",
          "type": "uint256",
          "internalType": "uint256"
        }
      ],
      "outputs": [],
      "stateMutability": "nonpayable"
    },
    {
      "type": "function",
      "name": "setMinimumDepositAmount",
      "inputs": [
        {
          "name": "_amount",
          "type": "uint256",
          "internalType": "uint256"
        }
      ],
      "outputs": [],
      "stateMutability": "nonpayable"
    },
    {
      "type": "function",
      "name": "setMultisigWalletAddress",
      "inputs": [
        {
          "name": "_multisigWalletAddress",
          "type": "address",
          "internalType": "address"
        }
      ],
      "outputs": [],
      "stateMutability": "nonpayable"
    },
    {
      "type": "function",
      "name": "setNftContractAddr",
      "inputs": [
        {
          "name": "_nftContractAddr",
          "type": "address",
          "internalType": "address"
        }
      ],
      "outputs": [],
      "stateMutability": "nonpayable"
    },
    {
      "type": "function",
      "name": "setNumberOfTickets",
      "inputs": [
        {
          "name": "_numberOfTickets",
          "type": "uint256",
          "internalType": "uint256"
        }
      ],
      "outputs": [],
      "stateMutability": "nonpayable"
    },
    {
      "type": "function",
      "name": "setUsdcContractAddr",
      "inputs": [
        {
          "name": "_usdcContractAddr",
          "type": "address",
          "internalType": "address"
        }
      ],
      "outputs": [],
      "stateMutability": "nonpayable"
    },
    {
      "type": "function",
      "name": "setWinner",
      "inputs": [
        {
          "name": "_winner",
          "type": "address",
          "internalType": "address"
        }
      ],
      "outputs": [],
      "stateMutability": "nonpayable"
    },
    {
      "type": "function",
      "name": "startLottery",
      "inputs": [],
      "outputs": [],
      "stateMutability": "nonpayable"
    },
    {
      "type": "function",
      "name": "transferNonWinnerDeposits",
      "inputs": [
        {
          "name": "lotteryV2addr",
          "type": "address",
          "internalType": "address"
        }
      ],
      "outputs": [],
      "stateMutability": "nonpayable"
    },
    {
      "type": "function",
      "name": "transferOwnership",
      "inputs": [
        {
          "name": "newOwner",
          "type": "address",
          "internalType": "address"
        }
      ],
      "outputs": [],
      "stateMutability": "nonpayable"
    },
    {
      "type": "function",
      "name": "usdcContractAddr",
      "inputs": [],
      "outputs": [
        {
          "name": "",
          "type": "address",
          "internalType": "address"
        }
      ],
      "stateMutability": "view"
    },
    {
      "type": "function",
      "name": "winnerAddresses",
      "inputs": [
        {
          "name": "",
          "type": "uint256",
          "internalType": "uint256"
        }
      ],
      "outputs": [
        {
          "name": "",
          "type": "address",
          "internalType": "address"
        }
      ],
      "stateMutability": "view"
    },
    {
      "type": "function",
      "name": "winners",
      "inputs": [
        {
          "name": "",
          "type": "address",
          "internalType": "address"
        }
      ],
      "outputs": [
        {
          "name": "",
          "type": "bool",
          "internalType": "bool"
        }
      ],
      "stateMutability": "view"
    },
    {
      "type": "event",
      "name": "LotteryEnded",
      "inputs": [],
      "anonymous": false
    },
    {
      "type": "event",
      "name": "LotteryStarted",
      "inputs": [],
      "anonymous": false
    },
    {
      "type": "event",
      "name": "OwnershipTransferred",
      "inputs": [
        {
          "name": "previousOwner",
          "type": "address",
          "indexed": true,
          "internalType": "address"
        },
        {
          "name": "newOwner",
          "type": "address",
          "indexed": true,
          "internalType": "address"
        }
      ],
      "anonymous": false
    },
    {
      "type": "event",
      "name": "RandomFullfiled",
      "inputs": [
        {
          "name": "number",
          "type": "uint256",
          "indexed": false,
          "internalType": "uint256"
        }
      ],
      "anonymous": false
    },
    {
      "type": "event",
      "name": "RandomRequested",
      "inputs": [
        {
          "name": "requester",
          "type": "address",
          "indexed": true,
          "internalType": "address"
        }
      ],
      "anonymous": false
    },
    {
      "type": "event",
      "name": "RequestedRandomness",
      "inputs": [
        {
          "name": "round",
          "type": "uint256",
          "indexed": false,
          "internalType": "uint256"
        },
        {
          "name": "data",
          "type": "bytes",
          "indexed": false,
          "internalType": "bytes"
        }
      ],
      "anonymous": false
    },
    {
      "type": "event",
      "name": "WinnerSelected",
      "inputs": [
        {
          "name": "winner",
          "type": "address",
          "indexed": true,
          "internalType": "address"
        }
      ],
      "anonymous": false
    },
    {
      "type": "error",
      "name": "OwnableInvalidOwner",
      "inputs": [
        {
          "name": "owner",
          "type": "address",
          "internalType": "address"
        }
      ]
    },
    {
      "type": "error",
      "name": "OwnableUnauthorizedAccount",
      "inputs": [
        {
          "name": "account",
          "type": "address",
          "internalType": "address"
        }
      ]
    }
  ],
  "bytecode": {
    "object": "0x60a06040526002805460ff60a01b1916905534801561001d57600080fd5b5073d8253782c45a12053594b9deb72d8e8ab2fca54c338061005957604051631e4fbdf760e01b81526000600482015260240160405180910390fd5b61006281610074565b506001600160a01b03166080526100c6565b600280546001600160a01b038381166001600160a01b0319831681179093556040519116919082907f8be0079c531659141344cd1fd0a4f28419497f9722a3daafe3b4186f6b6457e090600090a35050565b608051612afe6100e86000396000818161044201526124c10152612afe6000f3fe6080604052600436106102725760003560e01c806375ce7fff1161014f578063b3f6b99a116100c1578063e63c46091161007a578063e63c460914610789578063e9081ec7146107a9578063f2fde38b146107df578063f3f18c37146107ff578063f8413b071461081f578063fc7e286d1461083457600080fd5b8063b3f6b99a146106de578063b6b55f25146106fe578063c4f8f27b14610711578063ccbac9f51461073e578063d9fca76914610754578063df15c37e1461077457600080fd5b806399bd69d61161011357806399bd69d61461060557806399dbf4b5146106255780639d9ca28d14610645578063a61fb2ba1461067e578063a8641aea1461069e578063aab483d6146106be57600080fd5b806375ce7fff146105725780637cc947d0146105925780638a6723e6146105a75780638da5cb5b146105c757806394d898de146105e557600080fd5b806338e21cce116101e857806366af746b116101ac57806366af746b146104b457806367d3b488146104c9578063683e93e1146104df5780636939864b146104ff5780636bd5450a1461052d578063715018a61461055d57600080fd5b806338e21cce146103df57806345745c101461040f578063572b6c05146104255780635aa68ac01461047257806360d50da31461049457600080fd5b80631593a8c71161023a5780631593a8c71461034b578063160344e2146103605780631a0de74c14610375578063261704801461038a5780632c23ec8e1461039f5780633644c27c146103bf57600080fd5b8063045f9c9714610277578063080c279a146102b457806308551a53146102d85780630bea6637146102f8578063158ef93e1461031a575b600080fd5b34801561028357600080fd5b50610297610292366004612558565b610861565b6040516001600160a01b0390911681526020015b60405180910390f35b3480156102c057600080fd5b506102ca60065481565b6040519081526020016102ab565b3480156102e457600080fd5b50600454610297906001600160a01b031681565b34801561030457600080fd5b50610318610313366004612558565b61088b565b005b34801561032657600080fd5b5060025461033b90600160a01b900460ff1681565b60405190151581526020016102ab565b34801561035757600080fd5b506103186108d3565b34801561036c57600080fd5b50610318610919565b34801561038157600080fd5b506103186109d2565b34801561039657600080fd5b50610318610d60565b3480156103ab57600080fd5b50600f54610297906001600160a01b031681565b3480156103cb57600080fd5b506103186103da36600461258d565b610f2c565b3480156103eb57600080fd5b5061033b6103fa36600461258d565b600a6020526000908152604090205460ff1681565b34801561041b57600080fd5b506102ca60075481565b34801561043157600080fd5b5061033b61044036600461258d565b7f00000000000000000000000000000000000000000000000000000000000000006001600160a01b0390811691161490565b34801561047e57600080fd5b50610487610f56565b6040516102ab91906125af565b3480156104a057600080fd5b506103186104af36600461258d565b610fb8565b3480156104c057600080fd5b50610318610fe2565b3480156104d557600080fd5b506102ca60115481565b3480156104eb57600080fd5b506103186104fa3660046125fc565b611216565b34801561050b57600080fd5b5060025461052090600160a81b900460ff1681565b6040516102ab9190612633565b34801561053957600080fd5b5061033b61054836600461258d565b600c6020526000908152604090205460ff1681565b34801561056957600080fd5b5061031861127d565b34801561057e57600080fd5b5061033b61058d366004612558565b61128f565b34801561059e57600080fd5b506103186112c3565b3480156105b357600080fd5b5061033b6105c236600461258d565b6114d1565b3480156105d357600080fd5b506002546001600160a01b0316610297565b3480156105f157600080fd5b5061031861060036600461258d565b611530565b34801561061157600080fd5b50610318610620366004612558565b61155a565b34801561063157600080fd5b50601054610297906001600160a01b031681565b34801561065157600080fd5b5061033b61066036600461258d565b6001600160a01b03166000908152600c602052604090205460ff1690565b34801561068a57600080fd5b50600354610297906001600160a01b031681565b3480156106aa57600080fd5b506103186106b93660046126a2565b6115fd565b3480156106ca57600080fd5b506103186106d9366004612558565b6116f3565b3480156106ea57600080fd5b506103186106f9366004612752565b611732565b61031861070c366004612558565b611906565b34801561071d57600080fd5b506102ca61072c366004612558565b60016020526000908152604090205481565b34801561074a57600080fd5b506102ca60085481565b34801561076057600080fd5b5061031861076f36600461258d565b611c7c565b34801561078057600080fd5b50610487611d1c565b34801561079557600080fd5b506103186107a436600461258d565b611d7c565b3480156107b557600080fd5b506102ca6107c436600461258d565b6001600160a01b03166000908152600b602052604090205490565b3480156107eb57600080fd5b506103186107fa36600461258d565b612015565b34801561080b57600080fd5b50600554610297906001600160a01b031681565b34801561082b57600080fd5b50610318612053565b34801561084057600080fd5b506102ca61084f36600461258d565b600b6020526000908152604090205481565b600d818154811061087157600080fd5b6000918252602090912001546001600160a01b0316905081565b6004546001600160a01b031661089f612101565b6001600160a01b0316146108ce5760405162461bcd60e51b81526004016108c5906127ce565b60405180910390fd5b601155565b6004546001600160a01b03166108e7612101565b6001600160a01b03161461090d5760405162461bcd60e51b81526004016108c5906127ce565b6109176002611216565b565b6004546001600160a01b031661092d612101565b6001600160a01b0316146109535760405162461bcd60e51b81526004016108c5906127ce565b6000600254600160a81b900460ff1660048111156109735761097361261d565b146109c05760405162461bcd60e51b815260206004820152601a60248201527f4c6f747465727920697320696e2061637469766520737461746500000000000060448201526064016108c5565b6109ca6001611216565b610917612110565b6004546001600160a01b03166109e6612101565b6001600160a01b031614610a0c5760405162461bcd60e51b81526004016108c5906127ce565b600060075411610a5e5760405162461bcd60e51b815260206004820152601b60248201527f4e6f207469636b657473206c65667420746f20616c6c6f63617465000000000060448201526064016108c5565b60095460075410610b495760005b600954811015610b0f57600060098281548110610a8b57610a8b612810565b6000918252602090912001546001600160a01b03169050610ac4816001600160a01b03166000908152600c602052604090205460ff1690565b610b0657610ad181611c7c565b6040516001600160a01b038216907f1d4c260f1824cd028e6c9e6e31c3a0b94f2513e7a641113ec759d382f9bdd5a190600090a25b50600101610a6c565b5060005b600954811015610b4357610b26816121c1565b60078054906000610b368361283c565b9091555050600101610b13565b50610d2b565b60005b600954811015610c6457600954600090610b67908390612853565b600854610b749190612882565b610b7e9083612896565b9050600060098281548110610b9557610b95612810565b600091825260209091200154600980546001600160a01b0390921692509084908110610bc357610bc3612810565b600091825260209091200154600980546001600160a01b039092169184908110610bef57610bef612810565b9060005260206000200160006101000a8154816001600160a01b0302191690836001600160a01b031602179055508060098481548110610c3157610c31612810565b600091825260209091200180546001600160a01b0319166001600160a01b03929092169190911790555050600101610b4c565b5060005b600754811015610d2957600060098281548110610c8757610c87612810565b6000918252602090912001546001600160a01b03169050610cc0816001600160a01b03166000908152600c602052604090205460ff1690565b610d2057610ccd81611c7c565b610cd6826121c1565b60078054906000610ce68361283c565b90915550506040516001600160a01b038216907f1d4c260f1824cd028e6c9e6e31c3a0b94f2513e7a641113ec759d382f9bdd5a190600090a25b50600101610c68565b505b600754600003610917576040517f9c89a6ed7228533196a3f962acc80d61a9c53bdea6b910741bf754f5aaa7569e90600090a1565b600a6000610d6c612101565b6001600160a01b0316815260208101919091526040016000205460ff1615610dcb5760405162461bcd60e51b815260206004820152601260248201527113919508185b1c9958591e481b5a5b9d195960721b60448201526064016108c5565b60028054600160a81b900460ff166004811115610dea57610dea61261d565b14610e375760405162461bcd60e51b815260206004820152601860248201527f4c6f7474657279206973206e6f7420656e64656420796574000000000000000060448201526064016108c5565b610e42610660612101565b610e875760405162461bcd60e51b815260206004820152601660248201527521b0b63632b91034b9903737ba1030903bb4b73732b960511b60448201526064016108c5565b6001600a6000610e95612101565b6001600160a01b0390811682526020820192909252604001600020805460ff191692151592909217909155600f5416636b8f60f6610ed1612101565b6040516001600160e01b031960e084901b1681526001600160a01b039091166004820152602401600060405180830381600087803b158015610f1257600080fd5b505af1158015610f26573d6000803e3d6000fd5b50505050565b610f346122cf565b600f80546001600160a01b0319166001600160a01b0392909216919091179055565b6060600e805480602002602001604051908101604052809291908181526020018280548015610fae57602002820191906000526020600020905b81546001600160a01b03168152600190910190602001808311610f90575b5050505050905090565b610fc06122cf565b600380546001600160a01b0319166001600160a01b0392909216919091179055565b6004546001600160a01b0316610ff6612101565b6001600160a01b03161461101c5760405162461bcd60e51b81526004016108c5906127ce565b60028054600160a81b900460ff16600481111561103b5761103b61261d565b1461107c5760405162461bcd60e51b8152602060048201526011602482015270131bdd1d195c9e481b9bdd08195b991959607a1b60448201526064016108c5565b6000805b600d548110156110f5576000600d828154811061109f5761109f612810565b60009182526020808320909101546001600160a01b0316808352600b9091526040909120549091506110d19084612896565b6001600160a01b039091166000908152600b60205260408120559150600101611080565b50600060646111058360056128a9565b61110f91906128c0565b9050600061111d8284612853565b60105460035460405163a9059cbb60e01b81526001600160a01b03918216600482015260248101869052929350169063a9059cbb906044016020604051808303816000875af1158015611174573d6000803e3d6000fd5b505050506040513d601f19601f8201168201806040525081019061119891906128d4565b506010546004805460405163a9059cbb60e01b81526001600160a01b0391821692810192909252602482018490529091169063a9059cbb906044016020604051808303816000875af11580156111f2573d6000803e3d6000fd5b505050506040513d601f19601f82011682018060405250810190610f2691906128d4565b6004546001600160a01b031661122a612101565b6001600160a01b0316146112505760405162461bcd60e51b81526004016108c5906127ce565b6002805482919060ff60a81b1916600160a81b8360048111156112755761127561261d565b021790555050565b6112856122cf565b610917600061232d565b6000818154811061129f57600080fd5b9060005260206000209060209182820401919006915054906101000a900460ff1681565b6001600254600160a81b900460ff1660048111156112e3576112e361261d565b036113305760405162461bcd60e51b815260206004820152601b60248201527f4c6f74746572792069732063757272656e746c7920616374697665000000000060448201526064016108c5565b600c600061133c612101565b6001600160a01b0316815260208101919091526040016000205460ff16156113a65760405162461bcd60e51b815260206004820152601760248201527f57696e6e6572732063616e6e6f7420776974686472617700000000000000000060448201526064016108c5565b6000600b60006113b4612101565b6001600160a01b03166001600160a01b031681526020019081526020016000205490506000811161141e5760405162461bcd60e51b81526020600482015260146024820152734e6f2066756e647320746f20776974686472617760601b60448201526064016108c5565b6000600b600061142c612101565b6001600160a01b0390811682526020820192909252604001600020919091556010541663a9059cbb61145c612101565b6040516001600160e01b031960e084901b1681526001600160a01b039091166004820152602481018490526044016020604051808303816000875af11580156114a9573d6000803e3d6000fd5b505050506040513d601f19601f820116820180604052508101906114cd91906128d4565b5050565b6000805b60095481101561152757826001600160a01b0316600982815481106114fc576114fc612810565b6000918252602090912001546001600160a01b03160361151f5750600192915050565b6001016114d5565b50600092915050565b6115386122cf565b601080546001600160a01b0319166001600160a01b0392909216919091179055565b6004546001600160a01b031661156e612101565b6001600160a01b0316146115945760405162461bcd60e51b81526004016108c5906127ce565b600081116115f85760405162461bcd60e51b815260206004820152602b60248201527f4e756d626572206f66207469636b657473206d7573742062652067726561746560448201526a72207468616e207a65726f60a81b60648201526084016108c5565b600755565b600254600160a01b900460ff161561164d5760405162461bcd60e51b8152602060048201526013602482015272105b1c9958591e481a5b9a5d1a585b1a5e9959606a1b60448201526064016108c5565b8051600480546001600160a01b039283166001600160a01b031991821617909155602083015160058054919093169116179055604081015161168e9061232d565b6060810151600755608081015160065560a081015160115560c0810151601080546001600160a01b03199081166001600160a01b039384161790915560e09092015160038054909316911617905560028054600160a01b60ff60a01b19909116179055565b6004546001600160a01b0316611707612101565b6001600160a01b03161461172d5760405162461bcd60e51b81526004016108c5906127ce565b600655565b6005546001600160a01b0316331461177c5760405162461bcd60e51b815260206004820152600d60248201526c37b7363c9037b832b930ba37b960991b60448201526064016108c5565b600061178a8284018461291e565b915050600080828060200190518101906117a491906129cc565b91509150600085856040516117ba929190612a4f565b60408051918290039091206000858152600160205291822054825491935083149190859081106117ec576117ec612810565b90600052602060002090602091828204019190069054906101000a900460ff166118585760405162461bcd60e51b815260206004820152601c60248201527f726571756573742066756c66696c6c6564206f72206d697373696e670000000060448201526064016108c5565b80156118fc5760408051602081018a905230918101919091524660608201526080810185905260a0016040516020818303038152906040528051906020012060001c97506118a788858561237f565b60008085815481106118bb576118bb612810565b90600052602060002090602091828204019190066101000a81548160ff02191690831515021790555060016000858152602001908152602001600020600090555b5050505050505050565b6001600254600160a81b900460ff1660048111156119265761192661261d565b036119735760405162461bcd60e51b815260206004820152601b60248201527f4c6f74746572792069732063757272656e746c7920616374697665000000000060448201526064016108c5565b42601154116119ce5760405162461bcd60e51b815260206004820152602160248201527f4465706f7369747320617265206e6f7420706f737369626c6520616e796d6f726044820152606560f81b60648201526084016108c5565b6010546001600160a01b0316611a265760405162461bcd60e51b815260206004820152601d60248201527f5553444320636f6e74726163742061646472657373206e6f742073657400000060448201526064016108c5565b60008111611a665760405162461bcd60e51b815260206004820152600d60248201526c139bc8199d5b991cc81cd95b9d609a1b60448201526064016108c5565b60105481906001600160a01b031663dd62ed3e611a81612101565b6040516001600160e01b031960e084901b1681526001600160a01b039091166004820152306024820152604401602060405180830381865afa158015611acb573d6000803e3d6000fd5b505050506040513d601f19601f82011682018060405250810190611aef9190612a5f565b1015611b365760405162461bcd60e51b8152602060048201526016602482015275496e73756666696369656e7420616c6c6f77616e636560501b60448201526064016108c5565b6010546001600160a01b03166323b872dd611b4f612101565b6040516001600160e01b031960e084901b1681526001600160a01b039091166004820152306024820152604481018490526064016020604051808303816000875af1158015611ba2573d6000803e3d6000fd5b505050506040513d601f19601f82011682018060405250810190611bc691906128d4565b50600b6000611bd3612101565b6001600160a01b03166001600160a01b0316815260200190815260200160002054600003611c3857600e611c05612101565b81546001810183556000928352602090922090910180546001600160a01b0319166001600160a01b039092169190911790555b80600b6000611c45612101565b6001600160a01b03166001600160a01b031681526020019081526020016000206000828254611c749190612896565b909155505050565b6004546001600160a01b0316611c90612101565b6001600160a01b031614611cb65760405162461bcd60e51b81526004016108c5906127ce565b6001600160a01b03166000818152600c60205260408120805460ff19166001908117909155600d805491820181559091527fd7b6990105719101dabeb77144f2a3385c8033acd3af97e9423a695e81ad1eb50180546001600160a01b0319169091179055565b6060600d805480602002602001604051908101604052809291908181526020018280548015610fae576020028201919060005260206000209081546001600160a01b03168152600190910190602001808311610f90575050505050905090565b6004546001600160a01b0316611d90612101565b6001600160a01b031614611db65760405162461bcd60e51b81526004016108c5906127ce565b60005b600e548110156114cd576000600b6000600e8481548110611ddc57611ddc612810565b60009182526020808320909101546001600160a01b03168352820192909252604001812054600e8054919350600b9183919086908110611e1e57611e1e612810565b6000918252602080832091909101546001600160a01b039081168452908301939093526040918201902092909255601054915163a9059cbb60e01b815285821660048201526024810184905291169063a9059cbb906044016020604051808303816000875af1158015611e95573d6000803e3d6000fd5b505050506040513d601f19601f82011682018060405250810190611eb991906128d4565b50826001600160a01b03166350f3dbec600e8481548110611edc57611edc612810565b60009182526020909120015460405160e083901b6001600160e01b03191681526001600160a01b03909116600482015260248101849052604401600060405180830381600087803b158015611f3057600080fd5b505af1158015611f44573d6000803e3d6000fd5b5050600e54611f57925060019150612853565b821015611fd957600e8054611f6e90600190612853565b81548110611f7e57611f7e612810565b600091825260209091200154600e80546001600160a01b039092169184908110611faa57611faa612810565b9060005260206000200160006101000a8154816001600160a01b0302191690836001600160a01b031602179055505b600e805480611fea57611fea612a78565b600082815260209020810160001990810180546001600160a01b031916905501905550600101611db9565b61201d6122cf565b6001600160a01b03811661204757604051631e4fbdf760e01b8152600060048201526024016108c5565b6120508161232d565b50565b6004546001600160a01b0316612067612101565b6001600160a01b03161461208d5760405162461bcd60e51b81526004016108c5906127ce565b6120c1612098612101565b604080516001600160a01b039092166020830152016040516020818303038152906040526123bc565b506120ca612101565b6001600160a01b03167fd802e7c7f1646e3318c03abed1e468bdf913f45331a68dc912a0d645eb646a4260405160405180910390a2565b600061210b6124bd565b905090565b60005b600e54811015612050576000600b6000600e848154811061213657612136612810565b60009182526020808320909101546001600160a01b0316835282019290925260400190205460065490915081106121b8576009600e838154811061217c5761217c612810565b60009182526020808320909101548354600181018555938352912090910180546001600160a01b0319166001600160a01b039092169190911790555b50600101612113565b60095481106122085760405162461bcd60e51b8152602060048201526013602482015272496e646578206f7574206f6620626f756e647360681b60448201526064016108c5565b60095461221790600190612853565b811015612299576009805461222e90600190612853565b8154811061223e5761223e612810565b600091825260209091200154600980546001600160a01b03909216918390811061226a5761226a612810565b9060005260206000200160006101000a8154816001600160a01b0302191690836001600160a01b031602179055505b60098054806122aa576122aa612a78565b600082815260209020810160001990810180546001600160a01b031916905501905550565b6122d7612101565b6001600160a01b03166122f26002546001600160a01b031690565b6001600160a01b03161461091757612308612101565b60405163118cdaa760e01b81526001600160a01b0390911660048201526024016108c5565b600280546001600160a01b038381166001600160a01b0319831681179093556040519116919082907f8be0079c531659141344cd1fd0a4f28419497f9722a3daafe3b4186f6b6457e090600090a35050565b60088390556040518381527fa2353d33775668d31add0688b8ed09ca3a91dc8129126fcdbcbda3a887db60db9060200160405180910390a1505050565b60008054600180820180845583805291929091839081106123df576123df612810565b90600052602060002090602091828204019190066101000a81548160ff0219169083151502179055506000818360405160200161241d929190612a8e565b60405160208183030381529060405290506000612438612501565b90506000818360405160200161244f929190612a8e565b60408051601f198184030181528282528051602080830191909120600089815260019092529290208290559250907fd91fc3685b930310b008ec37d2334870cab88a023ed8cc628a2e2ccd4e55d202906124ac9085908790612a8e565b60405180910390a150505050919050565b60007f00000000000000000000000000000000000000000000000000000000000000006001600160a01b031633036124fc575060131936013560601c90565b503390565b6000806125126364e6212742612853565b905060006125216003836128c0565b61252c906001612896565b90504660011461254657612541816001612896565b612551565b612551816004612896565b9250505090565b60006020828403121561256a57600080fd5b5035919050565b80356001600160a01b038116811461258857600080fd5b919050565b60006020828403121561259f57600080fd5b6125a882612571565b9392505050565b6020808252825182820181905260009190848201906040850190845b818110156125f05783516001600160a01b0316835292840192918401916001016125cb565b50909695505050505050565b60006020828403121561260e57600080fd5b8135600581106125a857600080fd5b634e487b7160e01b600052602160045260246000fd5b602081016005831061265557634e487b7160e01b600052602160045260246000fd5b91905290565b634e487b7160e01b600052604160045260246000fd5b604051601f8201601f1916810167ffffffffffffffff8111828210171561269a5761269a61265b565b604052919050565b60006101008083850312156126b657600080fd5b6040519081019067ffffffffffffffff821181831017156126d9576126d961265b565b816040526126e684612571565b81526126f460208501612571565b602082015261270560408501612571565b6040820152606084013560608201526080840135608082015260a084013560a082015261273460c08501612571565b60c082015261274560e08501612571565b60e0820152949350505050565b60008060006040848603121561276757600080fd5b83359250602084013567ffffffffffffffff8082111561278657600080fd5b818601915086601f83011261279a57600080fd5b8135818111156127a957600080fd5b8760208285010111156127bb57600080fd5b6020830194508093505050509250925092565b60208082526022908201527f4f6e6c792073656c6c65722063616e2063616c6c20746869732066756e63746960408201526137b760f11b606082015260800190565b634e487b7160e01b600052603260045260246000fd5b634e487b7160e01b600052601160045260246000fd5b60008161284b5761284b612826565b506000190190565b8181038181111561286657612866612826565b92915050565b634e487b7160e01b600052601260045260246000fd5b6000826128915761289161286c565b500690565b8082018082111561286657612866612826565b808202811582820484141761286657612866612826565b6000826128cf576128cf61286c565b500490565b6000602082840312156128e657600080fd5b815180151581146125a857600080fd5b600067ffffffffffffffff8211156129105761291061265b565b50601f01601f191660200190565b6000806040838503121561293157600080fd5b82359150602083013567ffffffffffffffff81111561294f57600080fd5b8301601f8101851361296057600080fd5b803561297361296e826128f6565b612671565b81815286602083850101111561298857600080fd5b816020840160208301376000602083830101528093505050509250929050565b60005b838110156129c35781810151838201526020016129ab565b50506000910152565b600080604083850312156129df57600080fd5b82519150602083015167ffffffffffffffff8111156129fd57600080fd5b8301601f81018513612a0e57600080fd5b8051612a1c61296e826128f6565b818152866020838501011115612a3157600080fd5b612a428260208301602086016129a8565b8093505050509250929050565b8183823760009101908152919050565b600060208284031215612a7157600080fd5b5051919050565b634e487b7160e01b600052603160045260246000fd5b8281526040602082015260008251806040840152612ab38160608501602087016129a8565b601f01601f191691909101606001939250505056fea26469706673582212203a618fceb37f52e74078f906bd1f18da422c19627a0cbf0bdb360f5258daf05464736f6c63430008190033",
    "linkReferences": {}
  },
  "methodIdentifiers": {
    "buyerWithdraw()": "7cc947d0",
    "changeLotteryState(uint8)": "683e93e1",
    "deposit(uint256)": "b6b55f25",
    "deposits(address)": "fc7e286d",
    "endLottery()": "1593a8c7",
    "finishAt()": "67d3b488",
    "fulfillRandomness(uint256,bytes)": "b3f6b99a",
    "getDepositedAmount(address)": "e9081ec7",
    "getParticipants()": "5aa68ac0",
    "getWinners()": "df15c37e",
    "hasMinted(address)": "38e21cce",
    "initialize((address,address,address,uint256,uint256,uint256,address,address))": "a8641aea",
    "initialized()": "158ef93e",
    "isParticipantEligible(address)": "8a6723e6",
    "isTrustedForwarder(address)": "572b6c05",
    "isWinner(address)": "9d9ca28d",
    "lotteryState()": "6939864b",
    "minimumDepositAmount()": "080c279a",
    "mintMyNFT()": "26170480",
    "multisigWalletAddress()": "a61fb2ba",
    "nftContractAddr()": "2c23ec8e",
    "numberOfTickets()": "45745c10",
    "operatorAddr()": "f3f18c37",
    "owner()": "8da5cb5b",
    "randomNumber()": "ccbac9f5",
    "renounceOwnership()": "715018a6",
    "requestPending(uint256)": "75ce7fff",
    "requestRandomness()": "f8413b07",
    "requestedHash(uint256)": "c4f8f27b",
    "selectWinners()": "1a0de74c",
    "seller()": "08551a53",
    "sellerWithdraw()": "66af746b",
    "setFinishAt(uint256)": "0bea6637",
    "setMinimumDepositAmount(uint256)": "aab483d6",
    "setMultisigWalletAddress(address)": "60d50da3",
    "setNftContractAddr(address)": "3644c27c",
    "setNumberOfTickets(uint256)": "99bd69d6",
    "setUsdcContractAddr(address)": "94d898de",
    "setWinner(address)": "d9fca769",
    "startLottery()": "160344e2",
    "transferNonWinnerDeposits(address)": "e63c4609",
    "transferOwnership(address)": "f2fde38b",
    "usdcContractAddr()": "99dbf4b5",
    "winnerAddresses(uint256)": "045f9c97",
    "winners(address)": "6bd5450a"
  },
  "id": 5
}