{"abi":[{"type":"function","name":"buyerWithdraw","inputs":[],"outputs":[],"stateMutability":"nonpayable"},{"type":"function","name":"changeLotteryState","inputs":[{"name":"_newState","type":"uint8","internalType":"enum SaleBase.LotteryState"}],"outputs":[],"stateMutability":"nonpayable"},{"type":"function","name":"deposit","inputs":[{"name":"amount","type":"uint256","internalType":"uint256"}],"outputs":[],"stateMutability":"nonpayable"},{"type":"function","name":"deposits","inputs":[{"name":"","type":"address","internalType":"address"}],"outputs":[{"name":"","type":"uint256","internalType":"uint256"}],"stateMutability":"view"},{"type":"function","name":"endLottery","inputs":[],"outputs":[],"stateMutability":"nonpayable"},{"type":"function","name":"fulfillRandomness","inputs":[{"name":"randomness","type":"uint256","internalType":"uint256"},{"name":"dataWithRound","type":"bytes","internalType":"bytes"}],"outputs":[],"stateMutability":"nonpayable"},{"type":"function","name":"getDepositedAmount","inputs":[{"name":"participant","type":"address","internalType":"address"}],"outputs":[{"name":"","type":"uint256","internalType":"uint256"}],"stateMutability":"view"},{"type":"function","name":"getParticipants","inputs":[],"outputs":[{"name":"","type":"address[]","internalType":"address[]"}],"stateMutability":"view"},{"type":"function","name":"getWinners","inputs":[],"outputs":[{"name":"","type":"address[]","internalType":"address[]"}],"stateMutability":"view"},{"type":"function","name":"hasMinted","inputs":[{"name":"","type":"address","internalType":"address"}],"outputs":[{"name":"","type":"bool","internalType":"bool"}],"stateMutability":"view"},{"type":"function","name":"initialize","inputs":[{"name":"config","type":"tuple","internalType":"struct StructsLibrary.ILotteryV1BaseConfig","components":[{"name":"_seller","type":"address","internalType":"address"},{"name":"_gelatoVrfOperator","type":"address","internalType":"address"},{"name":"_owner","type":"address","internalType":"address"},{"name":"_ticketAmount","type":"uint256","internalType":"uint256"},{"name":"_ticketPrice","type":"uint256","internalType":"uint256"},{"name":"_usdcContractAddr","type":"address","internalType":"address"},{"name":"_nftContractAddr","type":"address","internalType":"address"},{"name":"_multisigWalletAddress","type":"address","internalType":"address"},{"name":"_prevPhaseContractAddr","type":"address","internalType":"address"}]}],"outputs":[],"stateMutability":"nonpayable"},{"type":"function","name":"isTrustedForwarder","inputs":[{"name":"forwarder","type":"address","internalType":"address"}],"outputs":[{"name":"","type":"bool","internalType":"bool"}],"stateMutability":"view"},{"type":"function","name":"isWinner","inputs":[{"name":"_participant","type":"address","internalType":"address"}],"outputs":[{"name":"","type":"bool","internalType":"bool"}],"stateMutability":"view"},{"type":"function","name":"lotteryState","inputs":[],"outputs":[{"name":"","type":"uint8","internalType":"enum SaleBase.LotteryState"}],"stateMutability":"view"},{"type":"function","name":"mintMyNFT","inputs":[],"outputs":[],"stateMutability":"nonpayable"},{"type":"function","name":"multisigWalletAddress","inputs":[],"outputs":[{"name":"","type":"address","internalType":"address"}],"stateMutability":"view"},{"type":"function","name":"nftContractAddr","inputs":[],"outputs":[{"name":"","type":"address","internalType":"address"}],"stateMutability":"view"},{"type":"function","name":"numberOfTickets","inputs":[],"outputs":[{"name":"","type":"uint256","internalType":"uint256"}],"stateMutability":"view"},{"type":"function","name":"operatorAddr","inputs":[],"outputs":[{"name":"","type":"address","internalType":"address"}],"stateMutability":"view"},{"type":"function","name":"owner","inputs":[],"outputs":[{"name":"","type":"address","internalType":"address"}],"stateMutability":"view"},{"type":"function","name":"randomNumber","inputs":[],"outputs":[{"name":"","type":"uint256","internalType":"uint256"}],"stateMutability":"view"},{"type":"function","name":"renounceOwnership","inputs":[],"outputs":[],"stateMutability":"nonpayable"},{"type":"function","name":"requestPending","inputs":[{"name":"","type":"uint256","internalType":"uint256"}],"outputs":[{"name":"","type":"bool","internalType":"bool"}],"stateMutability":"view"},{"type":"function","name":"requestRandomness","inputs":[],"outputs":[],"stateMutability":"nonpayable"},{"type":"function","name":"requestedHash","inputs":[{"name":"","type":"uint256","internalType":"uint256"}],"outputs":[{"name":"","type":"bytes32","internalType":"bytes32"}],"stateMutability":"view"},{"type":"function","name":"selectWinners","inputs":[],"outputs":[],"stateMutability":"nonpayable"},{"type":"function","name":"seller","inputs":[],"outputs":[{"name":"","type":"address","internalType":"address"}],"stateMutability":"view"},{"type":"function","name":"sellerWithdraw","inputs":[],"outputs":[],"stateMutability":"nonpayable"},{"type":"function","name":"setSeller","inputs":[{"name":"_seller","type":"address","internalType":"address"}],"outputs":[],"stateMutability":"nonpayable"},{"type":"function","name":"startLottery","inputs":[],"outputs":[],"stateMutability":"nonpayable"},{"type":"function","name":"ticketPrice","inputs":[],"outputs":[{"name":"","type":"uint256","internalType":"uint256"}],"stateMutability":"view"},{"type":"function","name":"transferNonWinnerDeposits","inputs":[{"name":"lotteryV2addr","type":"address","internalType":"address"}],"outputs":[],"stateMutability":"nonpayable"},{"type":"function","name":"transferOwnership","inputs":[{"name":"newOwner","type":"address","internalType":"address"}],"outputs":[],"stateMutability":"nonpayable"},{"type":"function","name":"usdcContractAddr","inputs":[],"outputs":[{"name":"","type":"address","internalType":"address"}],"stateMutability":"view"},{"type":"function","name":"winnerAddresses","inputs":[{"name":"","type":"uint256","internalType":"uint256"}],"outputs":[{"name":"","type":"address","internalType":"address"}],"stateMutability":"view"},{"type":"function","name":"winners","inputs":[{"name":"","type":"address","internalType":"address"}],"outputs":[{"name":"","type":"bool","internalType":"bool"}],"stateMutability":"view"},{"type":"event","name":"BuyerDeposited","inputs":[{"name":"buyer","type":"address","indexed":true,"internalType":"address"},{"name":"amount","type":"uint256","indexed":true,"internalType":"uint256"}],"anonymous":false},{"type":"event","name":"BuyerWithdrew","inputs":[{"name":"buyer","type":"address","indexed":true,"internalType":"address"},{"name":"amount","type":"uint256","indexed":true,"internalType":"uint256"}],"anonymous":false},{"type":"event","name":"DepositsReturned","inputs":[{"name":"returnedDepositsCount","type":"uint256","indexed":false,"internalType":"uint256"}],"anonymous":false},{"type":"event","name":"Initialized","inputs":[{"name":"version","type":"uint64","indexed":false,"internalType":"uint64"}],"anonymous":false},{"type":"event","name":"LotteryEnded","inputs":[],"anonymous":false},{"type":"event","name":"LotteryStarted","inputs":[],"anonymous":false},{"type":"event","name":"OwnershipTransferred","inputs":[{"name":"previousOwner","type":"address","indexed":true,"internalType":"address"},{"name":"newOwner","type":"address","indexed":true,"internalType":"address"}],"anonymous":false},{"type":"event","name":"RandomFulfilled","inputs":[{"name":"number","type":"uint256","indexed":false,"internalType":"uint256"}],"anonymous":false},{"type":"event","name":"RandomRequested","inputs":[{"name":"requester","type":"address","indexed":true,"internalType":"address"}],"anonymous":false},{"type":"event","name":"RequestedRandomness","inputs":[{"name":"round","type":"uint256","indexed":false,"internalType":"uint256"},{"name":"data","type":"bytes","indexed":false,"internalType":"bytes"}],"anonymous":false},{"type":"event","name":"WinnerSelected","inputs":[{"name":"winner","type":"address","indexed":true,"internalType":"address"}],"anonymous":false},{"type":"error","name":"InvalidInitialization","inputs":[]},{"type":"error","name":"NotInitializing","inputs":[]},{"type":"error","name":"OwnableInvalidOwner","inputs":[{"name":"owner","type":"address","internalType":"address"}]},{"type":"error","name":"OwnableUnauthorizedAccount","inputs":[{"name":"account","type":"address","internalType":"address"}]}],"bytecode":{"object":"0x60a060405234801561001057600080fd5b5073d8253782c45a12053594b9deb72d8e8ab2fca54c338061004c57604051631e4fbdf760e01b81526000600482015260240160405180910390fd5b6100558161006f565b506001600160a01b031660805261006a6100bf565b610171565b600080546001600160a01b038381166001600160a01b0319831681178455604051919092169283917f8be0079c531659141344cd1fd0a4f28419497f9722a3daafe3b4186f6b6457e09190a35050565b7ff0c57e16840df040f15088dc2f81fe391c3923bec73e23a9662efc9c229c6a00805468010000000000000000900460ff161561010f5760405163f92ee8a960e01b815260040160405180910390fd5b80546001600160401b039081161461016e5780546001600160401b0319166001600160401b0390811782556040519081527fc7f505b2f371ae2175ee4913f4499e1f2633a7b5936321eed1cdaeb6115181d29060200160405180910390a15b50565b608051612a1e6101936000396000818161030f015261235c0152612a1e6000f3fe608060405234801561001057600080fd5b506004361061021c5760003560e01c806375ce7fff11610125578063ccbac9f5116100ad578063e99d28661161007c578063e99d2866146104cc578063f2fde38b146104df578063f3f18c37146104f2578063f8413b0714610505578063fc7e286d1461050d57600080fd5b8063ccbac9f51461047f578063df15c37e14610488578063e63c460914610490578063e9081ec7146104a357600080fd5b80639d9ca28d116100f45780639d9ca28d146103fa578063a61fb2ba14610426578063b3f6b99a14610439578063b6b55f251461044c578063c4f8f27b1461045f57600080fd5b806375ce7fff146103bb5780637cc947d0146103ce5780638da5cb5b146103d657806399dbf4b5146103e757600080fd5b806338e21cce116101a857806366af746b1161017757806366af746b14610354578063683e93e11461035c5780636939864b1461036f5780636bd5450a14610390578063715018a6146103b357600080fd5b806338e21cce146102c357806345745c10146102f6578063572b6c05146102ff5780635aa68ac01461033f57600080fd5b80631593a8c7116101ef5780631593a8c714610290578063160344e2146102985780631a0de74c146102a057806326170480146102a85780632c23ec8e146102b057600080fd5b8063045f9c971461022157806308551a531461025157806310175080146102645780631209b1f614610279575b600080fd5b61023461022f366004612425565b61052d565b6040516001600160a01b0390911681526020015b60405180910390f35b600254610234906001600160a01b031681565b6102776102723660046124cb565b610557565b005b61028260045481565b604051908152602001610248565b6102776106fa565b610277610772565b61027761084d565b610277610d17565b600a54610234906001600160a01b031681565b6102e66102d1366004612573565b60056020526000908152604090205460ff1681565b6040519015158152602001610248565b61028260035481565b6102e661030d366004612573565b7f00000000000000000000000000000000000000000000000000000000000000006001600160a01b0390811691161490565b610347610ede565b6040516102489190612595565b610277610f40565b61027761036a3660046125e2565b611171565b60005461038390600160a01b900460ff1681565b6040516102489190612619565b6102e661039e366004612573565b60076020526000908152604090205460ff1681565b6102776111d8565b6102e66103c9366004612425565b6111ec565b610277611220565b6000546001600160a01b0316610234565b600b54610234906001600160a01b031681565b6102e6610408366004612573565b6001600160a01b031660009081526007602052604090205460ff1690565b600154610234906001600160a01b031681565b610277610447366004612641565b61143c565b61027761045a366004612425565b611616565b61028261046d366004612425565b600d6020526000908152604090205481565b610282600f5481565b6103476119e5565b61027761049e366004612573565b611a45565b6102826104b1366004612573565b6001600160a01b031660009081526006602052604090205490565b6102776104da366004612573565b611c2b565b6102776104ed366004612573565b611c87565b600e54610234906001600160a01b031681565b610277611cc2565b61028261051b366004612573565b60066020526000908152604090205481565b6008818154811061053d57600080fd5b6000918252602090912001546001600160a01b0316905081565b7ff0c57e16840df040f15088dc2f81fe391c3923bec73e23a9662efc9c229c6a008054600160401b810460ff16159067ffffffffffffffff1660008115801561059d5750825b905060008267ffffffffffffffff1660011480156105ba5750303b155b9050811580156105c8575080155b156105e65760405163f92ee8a960e01b815260040160405180910390fd5b845467ffffffffffffffff19166001178555831561061057845460ff60401b1916600160401b1785555b8551600280546001600160a01b039283166001600160a01b0319918216179091556020880151600e8054919093169116179055604086015161065190611de5565b6060860151600355608086015160045560a0860151600b80546001600160a01b039283166001600160a01b03199182161790915560c0880151600a805491841691831691909117905560e08801516001805491909316911617905583156106f257845460ff60401b19168555604051600181527fc7f505b2f371ae2175ee4913f4499e1f2633a7b5936321eed1cdaeb6115181d29060200160405180910390a15b505050505050565b6002546001600160a01b031661070e611e35565b6001600160a01b03161461073d5760405162461bcd60e51b8152600401610734906126bd565b60405180910390fd5b6107476002611171565b6040517f9c89a6ed7228533196a3f962acc80d61a9c53bdea6b910741bf754f5aaa7569e90600090a1565b6002546001600160a01b0316610786611e35565b6001600160a01b0316146107ac5760405162461bcd60e51b8152600401610734906126bd565b60008054600160a01b900460ff1660028111156107cb576107cb612603565b146108185760405162461bcd60e51b815260206004820152601760248201527f53616c6520697320696e206163746976652073746174650000000000000000006044820152606401610734565b6108226001611171565b6040517fd029c7c68d943f92286a7825fa6aa2deefa1eee46cee6c91b7e483fd06d27baf90600090a1565b6002546001600160a01b0316610861611e35565b6001600160a01b0316146108875760405162461bcd60e51b8152600401610734906126bd565b6002600054600160a01b900460ff1660028111156108a7576108a7612603565b146108c45760405162461bcd60e51b8152600401610734906126ff565b6000600f54116109165760405162461bcd60e51b815260206004820152601e60248201527f52616e646f6d206e756d626572206973206e6f742067656e65726174656400006044820152606401610734565b6000600354116109685760405162461bcd60e51b815260206004820152601b60248201527f4e6f207469636b657473206c65667420746f20616c6c6f6361746500000000006044820152606401610734565b6009546003548111610a2f5760005b81811015610a18576000600982815481106109945761099461272e565b6000918252602090912001546001600160a01b031690506109cd816001600160a01b031660009081526007602052604090205460ff1690565b610a0f576109da81611e44565b6040516001600160a01b038216907f1d4c260f1824cd028e6c9e6e31c3a0b94f2513e7a641113ec759d382f9bdd5a190600090a25b50600101610977565b50610a25600960006123f3565b6000600355610cc5565b60005b81811015610b43576000610a46828461275a565b600f54610a539190612789565b610a5d908361279d565b9050600060098281548110610a7457610a7461272e565b600091825260209091200154600980546001600160a01b0390921692509084908110610aa257610aa261272e565b600091825260209091200154600980546001600160a01b039092169184908110610ace57610ace61272e565b9060005260206000200160006101000a8154816001600160a01b0302191690836001600160a01b031602179055508060098481548110610b1057610b1061272e565b600091825260209091200180546001600160a01b0319166001600160a01b03929092169190911790555050600101610a32565b5060005b600354811015610bea57600060098281548110610b6657610b6661272e565b6000918252602090912001546001600160a01b03169050610b9f816001600160a01b031660009081526007602052604090205460ff1690565b610be157610bac81611e44565b6040516001600160a01b038216907f1d4c260f1824cd028e6c9e6e31c3a0b94f2513e7a641113ec759d382f9bdd5a190600090a25b50600101610b47565b506003546000905b82811015610c775760098181548110610c0d57610c0d61272e565b600091825260209091200154600980546001600160a01b039092169184908110610c3957610c3961272e565b600091825260209091200180546001600160a01b0319166001600160a01b039290921691909117905581610c6c816127b0565b925050600101610bf2565b50805b82811015610cbd576009805480610c9357610c936127c9565b600082815260209020810160001990810180546001600160a01b0319169055019055600101610c7a565b505060006003555b600354600003610d14576000805460ff60a01b1916600160a11b179055610cea611ed0565b6040517f9c89a6ed7228533196a3f962acc80d61a9c53bdea6b910741bf754f5aaa7569e90600090a15b50565b60056000610d23611e35565b6001600160a01b0316815260208101919091526040016000205460ff1615610d825760405162461bcd60e51b815260206004820152601260248201527113919508185b1c9958591e481b5a5b9d195960721b6044820152606401610734565b610d8d610408611e35565b610dd25760405162461bcd60e51b815260206004820152601660248201527521b0b63632b91034b9903737ba1030903bb4b73732b960511b6044820152606401610734565b6002600054600160a01b900460ff166002811115610df257610df2612603565b14610e0f5760405162461bcd60e51b8152600401610734906126ff565b600160056000610e1d611e35565b6001600160a01b0316815260208101919091526040016000908120805460ff191692151592909217909155600681610e53611e35565b6001600160a01b039081168252602082019290925260400160002091909155600a5416636b8f60f6610e83611e35565b6040516001600160e01b031960e084901b1681526001600160a01b039091166004820152602401600060405180830381600087803b158015610ec457600080fd5b505af1158015610ed8573d6000803e3d6000fd5b50505050565b60606009805480602002602001604051908101604052809291908181526020018280548015610f3657602002820191906000526020600020905b81546001600160a01b03168152600190910190602001808311610f18575b5050505050905090565b6002546001600160a01b0316610f54611e35565b6001600160a01b031614610f7a5760405162461bcd60e51b8152600401610734906126bd565b6002600054600160a01b900460ff166002811115610f9a57610f9a612603565b14610fdb5760405162461bcd60e51b8152602060048201526011602482015270131bdd1d195c9e481b9bdd08195b991959607a1b6044820152606401610734565b6000805b60085481101561105457600060088281548110610ffe57610ffe61272e565b60009182526020808320909101546001600160a01b03168083526006909152604090912054909150611030908461279d565b6001600160a01b039091166000908152600660205260408120559150600101610fdf565b50600060646110648360056127df565b61106e91906127f6565b9050600061107c828461275a565b600b5460015460405163a9059cbb60e01b81526001600160a01b03918216600482015260248101869052929350169063a9059cbb906044016020604051808303816000875af11580156110d3573d6000803e3d6000fd5b505050506040513d601f19601f820116820180604052508101906110f7919061280a565b50600b5460025460405163a9059cbb60e01b81526001600160a01b0391821660048201526024810184905291169063a9059cbb906044016020604051808303816000875af115801561114d573d6000803e3d6000fd5b505050506040513d601f19601f82011682018060405250810190610ed8919061280a565b6002546001600160a01b0316611185611e35565b6001600160a01b0316146111ab5760405162461bcd60e51b8152600401610734906126bd565b6000805482919060ff60a01b1916600160a01b8360028111156111d0576111d0612603565b021790555050565b6111e06121ba565b6111ea6000611de5565b565b600c81815481106111fc57600080fd5b9060005260206000209060209182820401919006915054906101000a900460ff1681565b6002600054600160a01b900460ff16600281111561124057611240612603565b1461125d5760405162461bcd60e51b8152600401610734906126ff565b60076000611269611e35565b6001600160a01b0316815260208101919091526040016000205460ff16156112d35760405162461bcd60e51b815260206004820152601760248201527f57696e6e6572732063616e6e6f742077697468647261770000000000000000006044820152606401610734565b6000600660006112e1611e35565b6001600160a01b03166001600160a01b031681526020019081526020016000205490506000811161134b5760405162461bcd60e51b81526020600482015260146024820152734e6f2066756e647320746f20776974686472617760601b6044820152606401610734565b600060066000611359611e35565b6001600160a01b039081168252602082019290925260400160002091909155600b541663a9059cbb611389611e35565b6040516001600160e01b031960e084901b1681526001600160a01b039091166004820152602481018490526044016020604051808303816000875af11580156113d6573d6000803e3d6000fd5b505050506040513d601f19601f820116820180604052508101906113fa919061280a565b5080611404611e35565b6001600160a01b03167f1f280cd00e67ed50213ac03febd5be151f96b7f7db2f85312aa0feff99f8bdab60405160405180910390a350565b600e546001600160a01b031633146114865760405162461bcd60e51b815260206004820152600d60248201526c37b7363c9037b832b930ba37b960991b6044820152606401610734565b600061149482840184612854565b915050600080828060200190518101906114ae9190612902565b91509150600085856040516114c4929190612985565b604051809103902090506000600d60008581526020019081526020016000205482149050600c84815481106114fb576114fb61272e565b90600052602060002090602091828204019190069054906101000a900460ff166115675760405162461bcd60e51b815260206004820152601c60248201527f726571756573742066756c66696c6c6564206f72206d697373696e67000000006044820152606401610734565b801561160c5760408051602081018a905230918101919091524660608201526080810185905260a0016040516020818303038152906040528051906020012060001c97506115b6888585612218565b6000600c85815481106115cb576115cb61272e565b90600052602060002090602091828204019190066101000a81548160ff021916908315150217905550600d6000858152602001908152602001600020600090555b5050505050505050565b6001600054600160a01b900460ff16600281111561163657611636612603565b146116785760405162461bcd60e51b815260206004820152601260248201527153616c65206973206e6f742061637469766560701b6044820152606401610734565b600b546001600160a01b03166116d05760405162461bcd60e51b815260206004820152601d60248201527f5553444320636f6e74726163742061646472657373206e6f74207365740000006044820152606401610734565b60045481101561171a5760405162461bcd60e51b8152602060048201526015602482015274139bdd08195b9bdd59da08199d5b991cc81cd95b9d605a1b6044820152606401610734565b600b5481906001600160a01b031663dd62ed3e611735611e35565b6040516001600160e01b031960e084901b1681526001600160a01b039091166004820152306024820152604401602060405180830381865afa15801561177f573d6000803e3d6000fd5b505050506040513d601f19601f820116820180604052508101906117a39190612995565b10156117ea5760405162461bcd60e51b8152602060048201526016602482015275496e73756666696369656e7420616c6c6f77616e636560501b6044820152606401610734565b600f54156118605760405162461bcd60e51b815260206004820152603760248201527f4c6f7474657279206465706f7369747320617265206c6f636b65643b2072616e60448201527f646f6d206e756d6265722069732067656e6572617465640000000000000000006064820152608401610734565b600b546001600160a01b03166323b872dd611879611e35565b6040516001600160e01b031960e084901b1681526001600160a01b039091166004820152306024820152604481018490526064016020604051808303816000875af11580156118cc573d6000803e3d6000fd5b505050506040513d601f19601f820116820180604052508101906118f0919061280a565b50600660006118fd611e35565b6001600160a01b03166001600160a01b031681526020019081526020016000205460000361196257600961192f611e35565b81546001810183556000928352602090922090910180546001600160a01b0319166001600160a01b039092169190911790555b806006600061196f611e35565b6001600160a01b03166001600160a01b03168152602001908152602001600020600082825461199e919061279d565b909155508190506119ad611e35565b6001600160a01b03167f21040858e63c11c046482f61f290bbe25972fc74b11b4570a01f9241082d21f160405160405180910390a350565b60606008805480602002602001604051908101604052809291908181526020018280548015610f36576020028201919060005260206000209081546001600160a01b03168152600190910190602001808311610f18575050505050905090565b6002546001600160a01b0316611a59611e35565b6001600160a01b031614611a7f5760405162461bcd60e51b8152600401610734906126bd565b60005b600954811015611c1e5760006006600060098481548110611aa557611aa561272e565b60009182526020808320909101546001600160a01b031683528201929092526040018120546009805491935060069183919086908110611ae757611ae761272e565b6000918252602080832091909101546001600160a01b039081168452908301939093526040918201902092909255600b54915163a9059cbb60e01b815285821660048201526024810184905291169063a9059cbb906044016020604051808303816000875af1158015611b5e573d6000803e3d6000fd5b505050506040513d601f19601f82011682018060405250810190611b82919061280a565b50826001600160a01b03166350f3dbec60098481548110611ba557611ba561272e565b60009182526020909120015460405160e083901b6001600160e01b03191681526001600160a01b03909116600482015260248101849052604401600060405180830381600087803b158015611bf957600080fd5b505af1158015611c0d573d6000803e3d6000fd5b505060019093019250611a82915050565b50610d14600960006123f3565b6002546001600160a01b0316611c3f611e35565b6001600160a01b031614611c655760405162461bcd60e51b8152600401610734906126bd565b600280546001600160a01b0319166001600160a01b0392909216919091179055565b611c8f6121ba565b6001600160a01b038116611cb957604051631e4fbdf760e01b815260006004820152602401610734565b610d1481611de5565b6002546001600160a01b0316611cd6611e35565b6001600160a01b031614611cfc5760405162461bcd60e51b8152600401610734906126bd565b6001600054600160a01b900460ff166002811115611d1c57611d1c612603565b14611d5e5760405162461bcd60e51b815260206004820152601260248201527153616c65206973206e6f742061637469766560701b6044820152606401610734565b6000805460ff60a01b1916600160a11b179055611da5611d7c611e35565b604080516001600160a01b03909216602083015201604051602081830303815290604052612255565b50611dae611e35565b6001600160a01b03167fd802e7c7f1646e3318c03abed1e468bdf913f45331a68dc912a0d645eb646a4260405160405180910390a2565b600080546001600160a01b038381166001600160a01b0319831681178455604051919092169283917f8be0079c531659141344cd1fd0a4f28419497f9722a3daafe3b4186f6b6457e09190a35050565b6000611e3f612358565b905090565b6001600160a01b038116600081815260076020526040808220805460ff1916600190811790915560088054918201815583527ff3f7a9fe364faab93b216da50a3214154f22a0a2b415b23a84c8169e8b636ee30180546001600160a01b03191684179055517f1d4c260f1824cd028e6c9e6e31c3a0b94f2513e7a641113ec759d382f9bdd5a19190a250565b6002546001600160a01b0316611ee4611e35565b6001600160a01b031614611f0a5760405162461bcd60e51b8152600401610734906126bd565b6002600054600160a01b900460ff166002811115611f2a57611f2a612603565b14611f475760405162461bcd60e51b8152600401610734906126ff565b60095460008167ffffffffffffffff811115611f6557611f6561243e565b604051908082528060200260200182016040528015611f8e578160200160208202803683370190505b50905060005b82811015611fff5760098181548110611faf57611faf61272e565b9060005260206000200160009054906101000a90046001600160a01b0316828281518110611fdf57611fdf61272e565b6001600160a01b0390921660209283029190910190910152600101611f94565b5060005b8281101561217657600082828151811061201f5761201f61272e565b6020908102919091018101516001600160a01b0381166000908152600683526040808220805490839055600790945290205490925060ff16156120f35760006004548261206c919061275a565b905080156120ed57600b5460405163a9059cbb60e01b81526001600160a01b038581166004830152602482018490529091169063a9059cbb906044016020604051808303816000875af11580156120c7573d6000803e3d6000fd5b505050506040513d601f19601f820116820180604052508101906120eb919061280a565b505b5061216c565b600b5460405163a9059cbb60e01b81526001600160a01b038481166004830152602482018490529091169063a9059cbb906044016020604051808303816000875af1158015612146573d6000803e3d6000fd5b505050506040513d601f19601f8201168201806040525081019061216a919061280a565b505b5050600101612003565b50612183600960006123f3565b6040518281527f01f8aef848121bbf182106b55119c1094063c572b6c8dcb09040e1203a17abf99060200160405180910390a15050565b6121c2611e35565b6001600160a01b03166121dd6000546001600160a01b031690565b6001600160a01b0316146111ea576121f3611e35565b60405163118cdaa760e01b81526001600160a01b039091166004820152602401610734565b600f8390556040518381527f79518eb4b6f70742e6651b03a2ac2bc644ea2613e8de56247857c5be5fc2a0ba9060200160405180910390a1505050565b600c805460018082018084556000849052919290918390811061227a5761227a61272e565b90600052602060002090602091828204019190066101000a81548160ff021916908315150217905550600081836040516020016122b89291906129ae565b604051602081830303815290604052905060006122d361239c565b9050600081836040516020016122ea9291906129ae565b60408051601f1981840301815282825280516020808301919091206000898152600d9092529290208290559250907fd91fc3685b930310b008ec37d2334870cab88a023ed8cc628a2e2ccd4e55d2029061234790859087906129ae565b60405180910390a150505050919050565b60007f00000000000000000000000000000000000000000000000000000000000000006001600160a01b03163303612397575060131936013560601c90565b503390565b6000806123ad6364e621274261275a565b905060006123bc6003836127f6565b6123c790600161279d565b9050466001146123e1576123dc81600161279d565b6123ec565b6123ec81600461279d565b9250505090565b5080546000825590600052602060002090810190610d1491905b80821115612421576000815560010161240d565b5090565b60006020828403121561243757600080fd5b5035919050565b634e487b7160e01b600052604160045260246000fd5b604051610120810167ffffffffffffffff811182821017156124785761247861243e565b60405290565b604051601f8201601f1916810167ffffffffffffffff811182821017156124a7576124a761243e565b604052919050565b80356001600160a01b03811681146124c657600080fd5b919050565b600061012082840312156124de57600080fd5b6124e6612454565b6124ef836124af565b81526124fd602084016124af565b602082015261250e604084016124af565b6040820152606083013560608201526080830135608082015261253360a084016124af565b60a082015261254460c084016124af565b60c082015261255560e084016124af565b60e08201526101006125688185016124af565b908201529392505050565b60006020828403121561258557600080fd5b61258e826124af565b9392505050565b6020808252825182820181905260009190848201906040850190845b818110156125d65783516001600160a01b0316835292840192918401916001016125b1565b50909695505050505050565b6000602082840312156125f457600080fd5b81356003811061258e57600080fd5b634e487b7160e01b600052602160045260246000fd5b602081016003831061263b57634e487b7160e01b600052602160045260246000fd5b91905290565b60008060006040848603121561265657600080fd5b83359250602084013567ffffffffffffffff8082111561267557600080fd5b818601915086601f83011261268957600080fd5b81358181111561269857600080fd5b8760208285010111156126aa57600080fd5b6020830194508093505050509250925092565b60208082526022908201527f4f6e6c792073656c6c65722063616e2063616c6c20746869732066756e63746960408201526137b760f11b606082015260800190565b60208082526015908201527414d85b19481a5cc81b9bdd08195b991959081e595d605a1b604082015260600190565b634e487b7160e01b600052603260045260246000fd5b634e487b7160e01b600052601160045260246000fd5b8181038181111561276d5761276d612744565b92915050565b634e487b7160e01b600052601260045260246000fd5b60008261279857612798612773565b500690565b8082018082111561276d5761276d612744565b6000600182016127c2576127c2612744565b5060010190565b634e487b7160e01b600052603160045260246000fd5b808202811582820484141761276d5761276d612744565b60008261280557612805612773565b500490565b60006020828403121561281c57600080fd5b8151801515811461258e57600080fd5b600067ffffffffffffffff8211156128465761284661243e565b50601f01601f191660200190565b6000806040838503121561286757600080fd5b82359150602083013567ffffffffffffffff81111561288557600080fd5b8301601f8101851361289657600080fd5b80356128a96128a48261282c565b61247e565b8181528660208385010111156128be57600080fd5b816020840160208301376000602083830101528093505050509250929050565b60005b838110156128f95781810151838201526020016128e1565b50506000910152565b6000806040838503121561291557600080fd5b82519150602083015167ffffffffffffffff81111561293357600080fd5b8301601f8101851361294457600080fd5b80516129526128a48261282c565b81815286602083850101111561296757600080fd5b6129788260208301602086016128de565b8093505050509250929050565b8183823760009101908152919050565b6000602082840312156129a757600080fd5b5051919050565b82815260406020820152600082518060408401526129d38160608501602087016128de565b601f01601f191691909101606001939250505056fea2646970667358221220806ffb1ba6c7b98f3dcbbf91f28c5831741b6a9fb99e1c2c8b60b6af5aca6ffa64736f6c63430008190033","linkReferences":{}},"methodIdentifiers":{"buyerWithdraw()":"7cc947d0","changeLotteryState(uint8)":"683e93e1","deposit(uint256)":"b6b55f25","deposits(address)":"fc7e286d","endLottery()":"1593a8c7","fulfillRandomness(uint256,bytes)":"b3f6b99a","getDepositedAmount(address)":"e9081ec7","getParticipants()":"5aa68ac0","getWinners()":"df15c37e","hasMinted(address)":"38e21cce","initialize((address,address,address,uint256,uint256,address,address,address,address))":"10175080","isTrustedForwarder(address)":"572b6c05","isWinner(address)":"9d9ca28d","lotteryState()":"6939864b","mintMyNFT()":"26170480","multisigWalletAddress()":"a61fb2ba","nftContractAddr()":"2c23ec8e","numberOfTickets()":"45745c10","operatorAddr()":"f3f18c37","owner()":"8da5cb5b","randomNumber()":"ccbac9f5","renounceOwnership()":"715018a6","requestPending(uint256)":"75ce7fff","requestRandomness()":"f8413b07","requestedHash(uint256)":"c4f8f27b","selectWinners()":"1a0de74c","seller()":"08551a53","sellerWithdraw()":"66af746b","setSeller(address)":"e99d2866","startLottery()":"160344e2","ticketPrice()":"1209b1f6","transferNonWinnerDeposits(address)":"e63c4609","transferOwnership(address)":"f2fde38b","usdcContractAddr()":"99dbf4b5","winnerAddresses(uint256)":"045f9c97","winners(address)":"6bd5450a"},"id":56}