{"abi":[{"type":"constructor","inputs":[{"name":"uri","type":"string","internalType":"string"},{"name":"_isTransferable","type":"bool","internalType":"bool"}],"stateMutability":"nonpayable"},{"type":"function","name":"balanceOf","inputs":[{"name":"account","type":"address","internalType":"address"},{"name":"id","type":"uint256","internalType":"uint256"}],"outputs":[{"name":"","type":"uint256","internalType":"uint256"}],"stateMutability":"view"},{"type":"function","name":"balanceOfBatch","inputs":[{"name":"accounts","type":"address[]","internalType":"address[]"},{"name":"ids","type":"uint256[]","internalType":"uint256[]"}],"outputs":[{"name":"","type":"uint256[]","internalType":"uint256[]"}],"stateMutability":"view"},{"type":"function","name":"depositContractAddr","inputs":[],"outputs":[{"name":"","type":"address","internalType":"address"}],"stateMutability":"view"},{"type":"function","name":"isApprovedForAll","inputs":[{"name":"account","type":"address","internalType":"address"},{"name":"operator","type":"address","internalType":"address"}],"outputs":[{"name":"","type":"bool","internalType":"bool"}],"stateMutability":"view"},{"type":"function","name":"isTransferable","inputs":[],"outputs":[{"name":"","type":"bool","internalType":"bool"}],"stateMutability":"view"},{"type":"function","name":"lotteryMint","inputs":[{"name":"winner","type":"address","internalType":"address"}],"outputs":[],"stateMutability":"nonpayable"},{"type":"function","name":"nextTokenId","inputs":[],"outputs":[{"name":"","type":"uint256","internalType":"uint256"}],"stateMutability":"view"},{"type":"function","name":"owner","inputs":[],"outputs":[{"name":"","type":"address","internalType":"address"}],"stateMutability":"view"},{"type":"function","name":"renounceOwnership","inputs":[],"outputs":[],"stateMutability":"nonpayable"},{"type":"function","name":"safeBatchTransferFrom","inputs":[{"name":"from","type":"address","internalType":"address"},{"name":"to","type":"address","internalType":"address"},{"name":"ids","type":"uint256[]","internalType":"uint256[]"},{"name":"amounts","type":"uint256[]","internalType":"uint256[]"},{"name":"data","type":"bytes","internalType":"bytes"}],"outputs":[],"stateMutability":"nonpayable"},{"type":"function","name":"safeTransferFrom","inputs":[{"name":"from","type":"address","internalType":"address"},{"name":"to","type":"address","internalType":"address"},{"name":"id","type":"uint256","internalType":"uint256"},{"name":"amount","type":"uint256","internalType":"uint256"},{"name":"data","type":"bytes","internalType":"bytes"}],"outputs":[],"stateMutability":"nonpayable"},{"type":"function","name":"setApprovalForAll","inputs":[{"name":"operator","type":"address","internalType":"address"},{"name":"approved","type":"bool","internalType":"bool"}],"outputs":[],"stateMutability":"nonpayable"},{"type":"function","name":"setDepositContractAddr","inputs":[{"name":"_depositContractAddr","type":"address","internalType":"address"}],"outputs":[],"stateMutability":"nonpayable"},{"type":"function","name":"supportsInterface","inputs":[{"name":"interfaceId","type":"bytes4","internalType":"bytes4"}],"outputs":[{"name":"","type":"bool","internalType":"bool"}],"stateMutability":"view"},{"type":"function","name":"transferOwnership","inputs":[{"name":"newOwner","type":"address","internalType":"address"}],"outputs":[],"stateMutability":"nonpayable"},{"type":"function","name":"uri","inputs":[{"name":"","type":"uint256","internalType":"uint256"}],"outputs":[{"name":"","type":"string","internalType":"string"}],"stateMutability":"view"},{"type":"event","name":"ApprovalForAll","inputs":[{"name":"account","type":"address","indexed":true,"internalType":"address"},{"name":"operator","type":"address","indexed":true,"internalType":"address"},{"name":"approved","type":"bool","indexed":false,"internalType":"bool"}],"anonymous":false},{"type":"event","name":"OwnershipTransferred","inputs":[{"name":"previousOwner","type":"address","indexed":true,"internalType":"address"},{"name":"newOwner","type":"address","indexed":true,"internalType":"address"}],"anonymous":false},{"type":"event","name":"TransferBatch","inputs":[{"name":"operator","type":"address","indexed":true,"internalType":"address"},{"name":"from","type":"address","indexed":true,"internalType":"address"},{"name":"to","type":"address","indexed":true,"internalType":"address"},{"name":"ids","type":"uint256[]","indexed":false,"internalType":"uint256[]"},{"name":"values","type":"uint256[]","indexed":false,"internalType":"uint256[]"}],"anonymous":false},{"type":"event","name":"TransferSingle","inputs":[{"name":"operator","type":"address","indexed":true,"internalType":"address"},{"name":"from","type":"address","indexed":true,"internalType":"address"},{"name":"to","type":"address","indexed":true,"internalType":"address"},{"name":"id","type":"uint256","indexed":false,"internalType":"uint256"},{"name":"value","type":"uint256","indexed":false,"internalType":"uint256"}],"anonymous":false},{"type":"event","name":"URI","inputs":[{"name":"value","type":"string","indexed":false,"internalType":"string"},{"name":"id","type":"uint256","indexed":true,"internalType":"uint256"}],"anonymous":false},{"type":"error","name":"ERC1155InsufficientBalance","inputs":[{"name":"sender","type":"address","internalType":"address"},{"name":"balance","type":"uint256","internalType":"uint256"},{"name":"needed","type":"uint256","internalType":"uint256"},{"name":"tokenId","type":"uint256","internalType":"uint256"}]},{"type":"error","name":"ERC1155InvalidApprover","inputs":[{"name":"approver","type":"address","internalType":"address"}]},{"type":"error","name":"ERC1155InvalidArrayLength","inputs":[{"name":"idsLength","type":"uint256","internalType":"uint256"},{"name":"valuesLength","type":"uint256","internalType":"uint256"}]},{"type":"error","name":"ERC1155InvalidOperator","inputs":[{"name":"operator","type":"address","internalType":"address"}]},{"type":"error","name":"ERC1155InvalidReceiver","inputs":[{"name":"receiver","type":"address","internalType":"address"}]},{"type":"error","name":"ERC1155InvalidSender","inputs":[{"name":"sender","type":"address","internalType":"address"}]},{"type":"error","name":"ERC1155MissingApprovalForAll","inputs":[{"name":"operator","type":"address","internalType":"address"},{"name":"owner","type":"address","internalType":"address"}]},{"type":"error","name":"NonTransferable","inputs":[]},{"type":"error","name":"OwnableInvalidOwner","inputs":[{"name":"owner","type":"address","internalType":"address"}]},{"type":"error","name":"OwnableUnauthorizedAccount","inputs":[{"name":"account","type":"address","internalType":"address"}]}],"bytecode":{"object":"0x60a060405260016004553480156200001657600080fd5b50604051620018053803806200180583398101604081905262000039916200011e565b338262000046816200008e565b506001600160a01b0381166200007657604051631e4fbdf760e01b81526000600482015260240160405180910390fd5b6200008181620000a0565b5015156080525062000363565b60026200009c828262000297565b5050565b600380546001600160a01b038381166001600160a01b0319831681179093556040519116919082907f8be0079c531659141344cd1fd0a4f28419497f9722a3daafe3b4186f6b6457e090600090a35050565b634e487b7160e01b600052604160045260246000fd5b805180151581146200011957600080fd5b919050565b600080604083850312156200013257600080fd5b82516001600160401b03808211156200014a57600080fd5b818501915085601f8301126200015f57600080fd5b815181811115620001745762000174620000f2565b604051601f8201601f19908116603f011681019083821181831017156200019f576200019f620000f2565b81604052828152602093508884848701011115620001bc57600080fd5b600091505b82821015620001e05784820184015181830185015290830190620001c1565b6000848483010152809650505050620001fb81860162000108565b925050509250929050565b600181811c908216806200021b57607f821691505b6020821081036200023c57634e487b7160e01b600052602260045260246000fd5b50919050565b601f82111562000292576000816000526020600020601f850160051c810160208610156200026d5750805b601f850160051c820191505b818110156200028e5782815560010162000279565b5050505b505050565b81516001600160401b03811115620002b357620002b3620000f2565b620002cb81620002c4845462000206565b8462000242565b602080601f831160018114620003035760008415620002ea5750858301515b600019600386901b1c1916600185901b1785556200028e565b600085815260208120601f198616915b82811015620003345788860151825594840194600190910190840162000313565b5085821015620003535787850151600019600388901b60f8161c191681555b5050505050600190811b01905550565b6080516114786200038d600039600081816101720152818161039201526105c101526114786000f3fe608060405234801561001057600080fd5b50600436106100ff5760003560e01c806375794a3c11610097578063e27e639c11610066578063e27e639c14610238578063e985e9c51461024b578063f242432a1461025e578063f2fde38b1461027157600080fd5b806375794a3c146101e45780638da5cb5b146101ed578063a22cb46514610212578063ca4a9f051461022557600080fd5b80632eb2c2d6116100d35780632eb2c2d6146101945780634e1273f4146101a95780636b8f60f6146101c9578063715018a6146101dc57600080fd5b8062fdd58e1461010457806301ffc9a71461012a5780630e89341c1461014d5780632121dc751461016d575b600080fd5b610117610112366004610dfa565b610284565b6040519081526020015b60405180910390f35b61013d610138366004610e3a565b6102ac565b6040519015158152602001610121565b61016061015b366004610e5e565b6102fc565b6040516101219190610ebd565b61013d7f000000000000000000000000000000000000000000000000000000000000000081565b6101a76101a236600461101a565b610390565b005b6101bc6101b73660046110c4565b6103e2565b60405161012191906111c0565b6101a76101d73660046111d3565b6104b4565b6101a7610544565b61011760045481565b6003546001600160a01b03165b6040516001600160a01b039091168152602001610121565b6101a76102203660046111ee565b610558565b6101a76102333660046111d3565b610567565b6005546101fa906001600160a01b031681565b61013d61025936600461122a565b610591565b6101a761026c36600461125d565b6105bf565b6101a761027f3660046111d3565b61060a565b6000818152602081815260408083206001600160a01b03861684529091529020545b92915050565b60006001600160e01b03198216636cdb3d1360e11b14806102dd57506001600160e01b031982166303a24d0760e21b145b806102a657506301ffc9a760e01b6001600160e01b03198316146102a6565b60606002805461030b906112c2565b80601f0160208091040260200160405190810160405280929190818152602001828054610337906112c2565b80156103845780601f1061035957610100808354040283529160200191610384565b820191906000526020600020905b81548152906001019060200180831161036757829003601f168201915b50505050509050919050565b7f00000000000000000000000000000000000000000000000000000000000000006103ce57604051639cbe235760e01b815260040160405180910390fd5b6103db8585858585610648565b5050505050565b606081518351146104185781518351604051635b05999160e01b8152600481019290925260248201526044015b60405180910390fd5b6000835167ffffffffffffffff81111561043457610434610ed0565b60405190808252806020026020018201604052801561045d578160200160208202803683370190505b50905060005b84518110156104ac5760208082028601015161048790602080840287010151610284565b828281518110610499576104996112fc565b6020908102919091010152600101610463565b509392505050565b6005546001600160a01b0316331461050e5760405162461bcd60e51b815260206004820152601e60248201527f4f6e6c79206465706f73697420636f6e74726163742063616e206d696e740000604482015260640161040f565b61052c816004546001604051806020016040528060008152506106af565b6004805490600061053c83611328565b919050555050565b61054c61070c565b6105566000610739565b565b61056333838361078b565b5050565b61056f61070c565b600580546001600160a01b0319166001600160a01b0392909216919091179055565b6001600160a01b03918216600090815260016020908152604080832093909416825291909152205460ff1690565b7f00000000000000000000000000000000000000000000000000000000000000006105fd57604051639cbe235760e01b815260040160405180910390fd5b6103db8585858585610821565b61061261070c565b6001600160a01b03811661063c57604051631e4fbdf760e01b81526000600482015260240161040f565b61064581610739565b50565b336001600160a01b038616811480159061066957506106678682610591565b155b1561069a5760405163711bec9160e11b81526001600160a01b0380831660048301528716602482015260440161040f565b6106a78686868686610880565b505050505050565b6001600160a01b0384166106d957604051632bfa23e760e11b81526000600482015260240161040f565b604080516001808252602082018690528183019081526060820185905260808201909252906106a76000878484876108dc565b6003546001600160a01b031633146105565760405163118cdaa760e01b815233600482015260240161040f565b600380546001600160a01b038381166001600160a01b0319831681179093556040519116919082907f8be0079c531659141344cd1fd0a4f28419497f9722a3daafe3b4186f6b6457e090600090a35050565b6001600160a01b0382166107b45760405162ced3e160e81b81526000600482015260240161040f565b6001600160a01b03838116600081815260016020908152604080832094871680845294825291829020805460ff191686151590811790915591519182527f17307eab39ab6107e8899845ad3d59bd9653f200f220920489ca2b5937696c31910160405180910390a3505050565b336001600160a01b038616811480159061084257506108408682610591565b155b156108735760405163711bec9160e11b81526001600160a01b0380831660048301528716602482015260440161040f565b6106a7868686868661092f565b6001600160a01b0384166108aa57604051632bfa23e760e11b81526000600482015260240161040f565b6001600160a01b0385166108d357604051626a0d4560e21b81526000600482015260240161040f565b6103db85858585855b6108e8858585856109bd565b6001600160a01b038416156103db5782513390600103610921576020848101519084015161091a838989858589610bd1565b50506106a7565b6106a7818787878787610cf5565b6001600160a01b03841661095957604051632bfa23e760e11b81526000600482015260240161040f565b6001600160a01b03851661098257604051626a0d4560e21b81526000600482015260240161040f565b604080516001808252602082018690528183019081526060820185905260808201909252906109b487878484876108dc565b50505050505050565b80518251146109ec5781518151604051635b05999160e01b81526004810192909252602482015260440161040f565b3360005b8351811015610af2576020818102858101820151908501909101516001600160a01b03881615610aa3576000828152602081815260408083206001600160a01b038c16845290915290205481811015610a7c576040516303dee4c560e01b81526001600160a01b038a16600482015260248101829052604481018390526064810184905260840161040f565b6000838152602081815260408083206001600160a01b038d16845290915290209082900390555b6001600160a01b03871615610ae8576000828152602081815260408083206001600160a01b038b16845290915281208054839290610ae2908490611341565b90915550505b50506001016109f0565b508251600103610b735760208301516000906020840151909150856001600160a01b0316876001600160a01b0316846001600160a01b03167fc3d58168c5ae7397731d063d5bbf3d657854427343f4c083240f7aacaa2d0f628585604051610b64929190918252602082015260400190565b60405180910390a450506103db565b836001600160a01b0316856001600160a01b0316826001600160a01b03167f4a39dc06d4c0dbc64b70af90fd698a233a518aa5d07e595d983b8c0526c8f7fb8686604051610bc2929190611354565b60405180910390a45050505050565b6001600160a01b0384163b156106a75760405163f23a6e6160e01b81526001600160a01b0385169063f23a6e6190610c159089908990889088908890600401611382565b6020604051808303816000875af1925050508015610c50575060408051601f3d908101601f19168201909252610c4d918101906113c7565b60015b610cb9573d808015610c7e576040519150601f19603f3d011682016040523d82523d6000602084013e610c83565b606091505b508051600003610cb157604051632bfa23e760e11b81526001600160a01b038616600482015260240161040f565b805181602001fd5b6001600160e01b0319811663f23a6e6160e01b146109b457604051632bfa23e760e11b81526001600160a01b038616600482015260240161040f565b6001600160a01b0384163b156106a75760405163bc197c8160e01b81526001600160a01b0385169063bc197c8190610d3990899089908890889088906004016113e4565b6020604051808303816000875af1925050508015610d74575060408051601f3d908101601f19168201909252610d71918101906113c7565b60015b610da2573d808015610c7e576040519150601f19603f3d011682016040523d82523d6000602084013e610c83565b6001600160e01b0319811663bc197c8160e01b146109b457604051632bfa23e760e11b81526001600160a01b038616600482015260240161040f565b80356001600160a01b0381168114610df557600080fd5b919050565b60008060408385031215610e0d57600080fd5b610e1683610dde565b946020939093013593505050565b6001600160e01b03198116811461064557600080fd5b600060208284031215610e4c57600080fd5b8135610e5781610e24565b9392505050565b600060208284031215610e7057600080fd5b5035919050565b6000815180845260005b81811015610e9d57602081850181015186830182015201610e81565b506000602082860101526020601f19601f83011685010191505092915050565b602081526000610e576020830184610e77565b634e487b7160e01b600052604160045260246000fd5b604051601f8201601f1916810167ffffffffffffffff81118282101715610f0f57610f0f610ed0565b604052919050565b600067ffffffffffffffff821115610f3157610f31610ed0565b5060051b60200190565b600082601f830112610f4c57600080fd5b81356020610f61610f5c83610f17565b610ee6565b8083825260208201915060208460051b870101935086841115610f8357600080fd5b602086015b84811015610f9f5780358352918301918301610f88565b509695505050505050565b600082601f830112610fbb57600080fd5b813567ffffffffffffffff811115610fd557610fd5610ed0565b610fe8601f8201601f1916602001610ee6565b818152846020838601011115610ffd57600080fd5b816020850160208301376000918101602001919091529392505050565b600080600080600060a0868803121561103257600080fd5b61103b86610dde565b945061104960208701610dde565b9350604086013567ffffffffffffffff8082111561106657600080fd5b61107289838a01610f3b565b9450606088013591508082111561108857600080fd5b61109489838a01610f3b565b935060808801359150808211156110aa57600080fd5b506110b788828901610faa565b9150509295509295909350565b600080604083850312156110d757600080fd5b823567ffffffffffffffff808211156110ef57600080fd5b818501915085601f83011261110357600080fd5b81356020611113610f5c83610f17565b82815260059290921b8401810191818101908984111561113257600080fd5b948201945b838610156111575761114886610dde565b82529482019490820190611137565b9650508601359250508082111561116d57600080fd5b5061117a85828601610f3b565b9150509250929050565b60008151808452602080850194506020840160005b838110156111b557815187529582019590820190600101611199565b509495945050505050565b602081526000610e576020830184611184565b6000602082840312156111e557600080fd5b610e5782610dde565b6000806040838503121561120157600080fd5b61120a83610dde565b91506020830135801515811461121f57600080fd5b809150509250929050565b6000806040838503121561123d57600080fd5b61124683610dde565b915061125460208401610dde565b90509250929050565b600080600080600060a0868803121561127557600080fd5b61127e86610dde565b945061128c60208701610dde565b93506040860135925060608601359150608086013567ffffffffffffffff8111156112b657600080fd5b6110b788828901610faa565b600181811c908216806112d657607f821691505b6020821081036112f657634e487b7160e01b600052602260045260246000fd5b50919050565b634e487b7160e01b600052603260045260246000fd5b634e487b7160e01b600052601160045260246000fd5b60006001820161133a5761133a611312565b5060010190565b808201808211156102a6576102a6611312565b6040815260006113676040830185611184565b82810360208401526113798185611184565b95945050505050565b6001600160a01b03868116825285166020820152604081018490526060810183905260a0608082018190526000906113bc90830184610e77565b979650505050505050565b6000602082840312156113d957600080fd5b8151610e5781610e24565b6001600160a01b0386811682528516602082015260a06040820181905260009061141090830186611184565b82810360608401526114228186611184565b905082810360808401526114368185610e77565b9897505050505050505056fea264697066735822122043a08e6a23b1cdeb66dea976b8153b3c1f1c6a431decbd00aab4445a075a9d7164736f6c63430008170033","linkReferences":{}},"methodIdentifiers":{"balanceOf(address,uint256)":"00fdd58e","balanceOfBatch(address[],uint256[])":"4e1273f4","depositContractAddr()":"e27e639c","isApprovedForAll(address,address)":"e985e9c5","isTransferable()":"2121dc75","lotteryMint(address)":"6b8f60f6","nextTokenId()":"75794a3c","owner()":"8da5cb5b","renounceOwnership()":"715018a6","safeBatchTransferFrom(address,address,uint256[],uint256[],bytes)":"2eb2c2d6","safeTransferFrom(address,address,uint256,uint256,bytes)":"f242432a","setApprovalForAll(address,bool)":"a22cb465","setDepositContractAddr(address)":"ca4a9f05","supportsInterface(bytes4)":"01ffc9a7","transferOwnership(address)":"f2fde38b","uri(uint256)":"0e89341c"},"id":50}