{"abi":[{"type":"function","name":"balanceOf","inputs":[{"name":"account","type":"address","internalType":"address"},{"name":"id","type":"uint256","internalType":"uint256"}],"outputs":[{"name":"","type":"uint256","internalType":"uint256"}],"stateMutability":"view"},{"type":"function","name":"balanceOfBatch","inputs":[{"name":"accounts","type":"address[]","internalType":"address[]"},{"name":"ids","type":"uint256[]","internalType":"uint256[]"}],"outputs":[{"name":"","type":"uint256[]","internalType":"uint256[]"}],"stateMutability":"view"},{"type":"function","name":"depositContractAddr","inputs":[],"outputs":[{"name":"","type":"address","internalType":"address"}],"stateMutability":"view"},{"type":"function","name":"initialize","inputs":[{"name":"newUri","type":"string","internalType":"string"},{"name":"_isTransferable","type":"bool","internalType":"bool"},{"name":"_owner","type":"address","internalType":"address"},{"name":"_name","type":"string","internalType":"string"},{"name":"_symbol","type":"string","internalType":"string"}],"outputs":[],"stateMutability":"nonpayable"},{"type":"function","name":"initialized","inputs":[],"outputs":[{"name":"","type":"bool","internalType":"bool"}],"stateMutability":"view"},{"type":"function","name":"isApprovedForAll","inputs":[{"name":"account","type":"address","internalType":"address"},{"name":"operator","type":"address","internalType":"address"}],"outputs":[{"name":"","type":"bool","internalType":"bool"}],"stateMutability":"view"},{"type":"function","name":"isTransferable","inputs":[],"outputs":[{"name":"","type":"bool","internalType":"bool"}],"stateMutability":"view"},{"type":"function","name":"lotteryMint","inputs":[{"name":"winner","type":"address","internalType":"address"}],"outputs":[],"stateMutability":"nonpayable"},{"type":"function","name":"name","inputs":[],"outputs":[{"name":"","type":"string","internalType":"string"}],"stateMutability":"view"},{"type":"function","name":"nextTokenId","inputs":[],"outputs":[{"name":"","type":"uint256","internalType":"uint256"}],"stateMutability":"view"},{"type":"function","name":"owner","inputs":[],"outputs":[{"name":"","type":"address","internalType":"address"}],"stateMutability":"view"},{"type":"function","name":"renounceOwnership","inputs":[],"outputs":[],"stateMutability":"nonpayable"},{"type":"function","name":"safeBatchTransferFrom","inputs":[{"name":"from","type":"address","internalType":"address"},{"name":"to","type":"address","internalType":"address"},{"name":"ids","type":"uint256[]","internalType":"uint256[]"},{"name":"amounts","type":"uint256[]","internalType":"uint256[]"},{"name":"data","type":"bytes","internalType":"bytes"}],"outputs":[],"stateMutability":"nonpayable"},{"type":"function","name":"safeTransferFrom","inputs":[{"name":"from","type":"address","internalType":"address"},{"name":"to","type":"address","internalType":"address"},{"name":"id","type":"uint256","internalType":"uint256"},{"name":"amount","type":"uint256","internalType":"uint256"},{"name":"data","type":"bytes","internalType":"bytes"}],"outputs":[],"stateMutability":"nonpayable"},{"type":"function","name":"setApprovalForAll","inputs":[{"name":"operator","type":"address","internalType":"address"},{"name":"approved","type":"bool","internalType":"bool"}],"outputs":[],"stateMutability":"nonpayable"},{"type":"function","name":"setDepositContractAddr","inputs":[{"name":"_depositContractAddr","type":"address","internalType":"address"}],"outputs":[],"stateMutability":"nonpayable"},{"type":"function","name":"supportsInterface","inputs":[{"name":"interfaceId","type":"bytes4","internalType":"bytes4"}],"outputs":[{"name":"","type":"bool","internalType":"bool"}],"stateMutability":"view"},{"type":"function","name":"symbol","inputs":[],"outputs":[{"name":"","type":"string","internalType":"string"}],"stateMutability":"view"},{"type":"function","name":"transferOwnership","inputs":[{"name":"newOwner","type":"address","internalType":"address"}],"outputs":[],"stateMutability":"nonpayable"},{"type":"function","name":"uri","inputs":[{"name":"tokenId","type":"uint256","internalType":"uint256"}],"outputs":[{"name":"","type":"string","internalType":"string"}],"stateMutability":"view"},{"type":"event","name":"ApprovalForAll","inputs":[{"name":"account","type":"address","indexed":true,"internalType":"address"},{"name":"operator","type":"address","indexed":true,"internalType":"address"},{"name":"approved","type":"bool","indexed":false,"internalType":"bool"}],"anonymous":false},{"type":"event","name":"OwnershipTransferred","inputs":[{"name":"previousOwner","type":"address","indexed":true,"internalType":"address"},{"name":"newOwner","type":"address","indexed":true,"internalType":"address"}],"anonymous":false},{"type":"event","name":"TransferBatch","inputs":[{"name":"operator","type":"address","indexed":true,"internalType":"address"},{"name":"from","type":"address","indexed":true,"internalType":"address"},{"name":"to","type":"address","indexed":true,"internalType":"address"},{"name":"ids","type":"uint256[]","indexed":false,"internalType":"uint256[]"},{"name":"values","type":"uint256[]","indexed":false,"internalType":"uint256[]"}],"anonymous":false},{"type":"event","name":"TransferSingle","inputs":[{"name":"operator","type":"address","indexed":true,"internalType":"address"},{"name":"from","type":"address","indexed":true,"internalType":"address"},{"name":"to","type":"address","indexed":true,"internalType":"address"},{"name":"id","type":"uint256","indexed":false,"internalType":"uint256"},{"name":"value","type":"uint256","indexed":false,"internalType":"uint256"}],"anonymous":false},{"type":"event","name":"URI","inputs":[{"name":"value","type":"string","indexed":false,"internalType":"string"},{"name":"id","type":"uint256","indexed":true,"internalType":"uint256"}],"anonymous":false},{"type":"error","name":"ERC1155InsufficientBalance","inputs":[{"name":"sender","type":"address","internalType":"address"},{"name":"balance","type":"uint256","internalType":"uint256"},{"name":"needed","type":"uint256","internalType":"uint256"},{"name":"tokenId","type":"uint256","internalType":"uint256"}]},{"type":"error","name":"ERC1155InvalidApprover","inputs":[{"name":"approver","type":"address","internalType":"address"}]},{"type":"error","name":"ERC1155InvalidArrayLength","inputs":[{"name":"idsLength","type":"uint256","internalType":"uint256"},{"name":"valuesLength","type":"uint256","internalType":"uint256"}]},{"type":"error","name":"ERC1155InvalidOperator","inputs":[{"name":"operator","type":"address","internalType":"address"}]},{"type":"error","name":"ERC1155InvalidReceiver","inputs":[{"name":"receiver","type":"address","internalType":"address"}]},{"type":"error","name":"ERC1155InvalidSender","inputs":[{"name":"sender","type":"address","internalType":"address"}]},{"type":"error","name":"ERC1155MissingApprovalForAll","inputs":[{"name":"operator","type":"address","internalType":"address"},{"name":"owner","type":"address","internalType":"address"}]},{"type":"error","name":"NonTransferable","inputs":[]},{"type":"error","name":"OwnableInvalidOwner","inputs":[{"name":"owner","type":"address","internalType":"address"}]},{"type":"error","name":"OwnableUnauthorizedAccount","inputs":[{"name":"account","type":"address","internalType":"address"}]}],"bytecode":{"object":"0x6005805460ff1916905560c0604052600a60809081526913919508151a58dad95d60b21b60a05260069061003390826101d5565b506040805180820190915260048152631510d2d560e21b602082015260079061005c90826101d5565b50600160085534801561006e57600080fd5b5060408051808201909152600381526275726960e81b60208201523390610094816100d2565b506001600160a01b0381166100c357604051631e4fbdf760e01b81526000600482015260240160405180910390fd5b6100cc816100e2565b50610294565b60026100de82826101d5565b5050565b600380546001600160a01b038381166001600160a01b0319831681179093556040519116919082907f8be0079c531659141344cd1fd0a4f28419497f9722a3daafe3b4186f6b6457e090600090a35050565b634e487b7160e01b600052604160045260246000fd5b600181811c9082168061015e57607f821691505b60208210810361017e57634e487b7160e01b600052602260045260246000fd5b50919050565b601f8211156101d0576000816000526020600020601f850160051c810160208610156101ad5750805b601f850160051c820191505b818110156101cc578281556001016101b9565b5050505b505050565b81516001600160401b038111156101ee576101ee610134565b610202816101fc845461014a565b84610184565b602080601f831160018114610237576000841561021f5750858301515b600019600386901b1c1916600185901b1785556101cc565b600085815260208120601f198616915b8281101561026657888601518255948401946001909101908401610247565b50858210156102845787850151600019600388901b60f8161c191681555b5050505050600190811b01905550565b611a61806102a36000396000f3fe608060405234801561001057600080fd5b506004361061012b5760003560e01c806375794a3c116100ad578063ca4a9f0511610071578063ca4a9f051461026e578063e27e639c14610281578063e985e9c514610294578063f242432a146102a7578063f2fde38b146102ba57600080fd5b806375794a3c146102125780637766d9d81461021b5780638da5cb5b1461022e57806395d89b4114610253578063a22cb4651461025b57600080fd5b80632121dc75116100f45780632121dc75146101ae5780632eb2c2d6146101c25780634e1273f4146101d75780636b8f60f6146101f7578063715018a61461020a57600080fd5b8062fdd58e1461013057806301ffc9a71461015657806306fdde03146101795780630e89341c1461018e578063158ef93e146101a1575b600080fd5b61014361013e366004611069565b6102cd565b6040519081526020015b60405180910390f35b6101696101643660046110a9565b6102f5565b604051901515815260200161014d565b610181610345565b60405161014d919061111d565b61018161019c366004611130565b6103d3565b6005546101699060ff1681565b60095461016990600160a01b900460ff1681565b6101d56101d036600461129b565b610407565b005b6101ea6101e5366004611345565b610445565b60405161014d9190611441565b6101d5610205366004611454565b610517565b6101d56105a7565b61014360085481565b6101d56102293660046114c8565b6105bb565b6003546001600160a01b03165b6040516001600160a01b03909116815260200161014d565b610181610663565b6101d5610269366004611595565b610670565b6101d561027c366004611454565b61067f565b60095461023b906001600160a01b031681565b6101696102a23660046115c8565b6106a9565b6101d56102b53660046115f2565b6106d7565b6101d56102c8366004611454565b61070e565b6000818152602081815260408083206001600160a01b03861684529091529020545b92915050565b60006001600160e01b03198216636cdb3d1360e11b148061032657506001600160e01b031982166303a24d0760e21b145b806102ef57506301ffc9a760e01b6001600160e01b03198316146102ef565b6006805461035290611657565b80601f016020809104026020016040519081016040528092919081815260200182805461037e90611657565b80156103cb5780601f106103a0576101008083540402835291602001916103cb565b820191906000526020600020905b8154815290600101906020018083116103ae57829003601f168201915b505050505081565b606060046103e08361074c565b6040516020016103f1929190611691565b6040516020818303038152906040529050919050565b600954600160a01b900460ff1661043157604051639cbe235760e01b815260040160405180910390fd5b61043e85858585856107df565b5050505050565b6060815183511461047b5781518351604051635b05999160e01b8152600481019290925260248201526044015b60405180910390fd5b6000835167ffffffffffffffff81111561049757610497611149565b6040519080825280602002602001820160405280156104c0578160200160208202803683370190505b50905060005b845181101561050f576020808202860101516104ea906020808402870101516102cd565b8282815181106104fc576104fc611718565b60209081029190910101526001016104c6565b509392505050565b6009546001600160a01b031633146105715760405162461bcd60e51b815260206004820152601e60248201527f4f6e6c79206465706f73697420636f6e74726163742063616e206d696e7400006044820152606401610472565b61058f81600854600160405180602001604052806000815250610846565b6008805490600061059f83611744565b919050555050565b6105af6108a3565b6105b960006108d0565b565b60055460ff16156106045760405162461bcd60e51b8152602060048201526013602482015272105b1c9958591e481a5b9a5d1a585b1a5e9959606a1b6044820152606401610472565b61060d856108d0565b600461061988826117aa565b506009805460ff60a01b1916600160a01b88151502179055600661063e84868361186a565b50600761064c82848361186a565b50506005805460ff19166001179055505050505050565b6007805461035290611657565b61067b338383610922565b5050565b6106876108a3565b600980546001600160a01b0319166001600160a01b0392909216919091179055565b6001600160a01b03918216600090815260016020908152604080832093909416825291909152205460ff1690565b600954600160a01b900460ff1661070157604051639cbe235760e01b815260040160405180910390fd5b61043e85858585856109b8565b6107166108a3565b6001600160a01b03811661074057604051631e4fbdf760e01b815260006004820152602401610472565b610749816108d0565b50565b6060600061075983610a17565b600101905060008167ffffffffffffffff81111561077957610779611149565b6040519080825280601f01601f1916602001820160405280156107a3576020820181803683370190505b5090508181016020015b600019016f181899199a1a9b1b9c1cb0b131b232b360811b600a86061a8153600a85049450846107ad57509392505050565b336001600160a01b038616811480159061080057506107fe86826106a9565b155b156108315760405163711bec9160e11b81526001600160a01b03808316600483015287166024820152604401610472565b61083e8686868686610aef565b505050505050565b6001600160a01b03841661087057604051632bfa23e760e11b815260006004820152602401610472565b6040805160018082526020820186905281830190815260608201859052608082019092529061083e600087848487610b4b565b6003546001600160a01b031633146105b95760405163118cdaa760e01b8152336004820152602401610472565b600380546001600160a01b038381166001600160a01b0319831681179093556040519116919082907f8be0079c531659141344cd1fd0a4f28419497f9722a3daafe3b4186f6b6457e090600090a35050565b6001600160a01b03821661094b5760405162ced3e160e81b815260006004820152602401610472565b6001600160a01b03838116600081815260016020908152604080832094871680845294825291829020805460ff191686151590811790915591519182527f17307eab39ab6107e8899845ad3d59bd9653f200f220920489ca2b5937696c31910160405180910390a3505050565b336001600160a01b03861681148015906109d957506109d786826106a9565b155b15610a0a5760405163711bec9160e11b81526001600160a01b03808316600483015287166024820152604401610472565b61083e8686868686610b9e565b60008072184f03e93ff9f4daa797ed6e38ed64bf6a1f0160401b8310610a565772184f03e93ff9f4daa797ed6e38ed64bf6a1f0160401b830492506040015b6d04ee2d6d415b85acef81000000008310610a82576d04ee2d6d415b85acef8100000000830492506020015b662386f26fc100008310610aa057662386f26fc10000830492506010015b6305f5e1008310610ab8576305f5e100830492506008015b6127108310610acc57612710830492506004015b60648310610ade576064830492506002015b600a83106102ef5760010192915050565b6001600160a01b038416610b1957604051632bfa23e760e11b815260006004820152602401610472565b6001600160a01b038516610b4257604051626a0d4560e21b815260006004820152602401610472565b61043e85858585855b610b5785858585610c2c565b6001600160a01b0384161561043e5782513390600103610b905760208481015190840151610b89838989858589610e40565b505061083e565b61083e818787878787610f64565b6001600160a01b038416610bc857604051632bfa23e760e11b815260006004820152602401610472565b6001600160a01b038516610bf157604051626a0d4560e21b815260006004820152602401610472565b60408051600180825260208201869052818301908152606082018590526080820190925290610c238787848487610b4b565b50505050505050565b8051825114610c5b5781518151604051635b05999160e01b815260048101929092526024820152604401610472565b3360005b8351811015610d61576020818102858101820151908501909101516001600160a01b03881615610d12576000828152602081815260408083206001600160a01b038c16845290915290205481811015610ceb576040516303dee4c560e01b81526001600160a01b038a166004820152602481018290526044810183905260648101849052608401610472565b6000838152602081815260408083206001600160a01b038d16845290915290209082900390555b6001600160a01b03871615610d57576000828152602081815260408083206001600160a01b038b16845290915281208054839290610d5190849061192a565b90915550505b5050600101610c5f565b508251600103610de25760208301516000906020840151909150856001600160a01b0316876001600160a01b0316846001600160a01b03167fc3d58168c5ae7397731d063d5bbf3d657854427343f4c083240f7aacaa2d0f628585604051610dd3929190918252602082015260400190565b60405180910390a4505061043e565b836001600160a01b0316856001600160a01b0316826001600160a01b03167f4a39dc06d4c0dbc64b70af90fd698a233a518aa5d07e595d983b8c0526c8f7fb8686604051610e3192919061193d565b60405180910390a45050505050565b6001600160a01b0384163b1561083e5760405163f23a6e6160e01b81526001600160a01b0385169063f23a6e6190610e84908990899088908890889060040161196b565b6020604051808303816000875af1925050508015610ebf575060408051601f3d908101601f19168201909252610ebc918101906119b0565b60015b610f28573d808015610eed576040519150601f19603f3d011682016040523d82523d6000602084013e610ef2565b606091505b508051600003610f2057604051632bfa23e760e11b81526001600160a01b0386166004820152602401610472565b805181602001fd5b6001600160e01b0319811663f23a6e6160e01b14610c2357604051632bfa23e760e11b81526001600160a01b0386166004820152602401610472565b6001600160a01b0384163b1561083e5760405163bc197c8160e01b81526001600160a01b0385169063bc197c8190610fa890899089908890889088906004016119cd565b6020604051808303816000875af1925050508015610fe3575060408051601f3d908101601f19168201909252610fe0918101906119b0565b60015b611011573d808015610eed576040519150601f19603f3d011682016040523d82523d6000602084013e610ef2565b6001600160e01b0319811663bc197c8160e01b14610c2357604051632bfa23e760e11b81526001600160a01b0386166004820152602401610472565b80356001600160a01b038116811461106457600080fd5b919050565b6000806040838503121561107c57600080fd5b6110858361104d565b946020939093013593505050565b6001600160e01b03198116811461074957600080fd5b6000602082840312156110bb57600080fd5b81356110c681611093565b9392505050565b60005b838110156110e85781810151838201526020016110d0565b50506000910152565b600081518084526111098160208601602086016110cd565b601f01601f19169290920160200192915050565b6020815260006110c660208301846110f1565b60006020828403121561114257600080fd5b5035919050565b634e487b7160e01b600052604160045260246000fd5b604051601f8201601f1916810167ffffffffffffffff8111828210171561118857611188611149565b604052919050565b600067ffffffffffffffff8211156111aa576111aa611149565b5060051b60200190565b600082601f8301126111c557600080fd5b813560206111da6111d583611190565b61115f565b8083825260208201915060208460051b8701019350868411156111fc57600080fd5b602086015b848110156112185780358352918301918301611201565b509695505050505050565b600067ffffffffffffffff83111561123d5761123d611149565b611250601f8401601f191660200161115f565b905082815283838301111561126457600080fd5b828260208301376000602084830101529392505050565b600082601f83011261128c57600080fd5b6110c683833560208501611223565b600080600080600060a086880312156112b357600080fd5b6112bc8661104d565b94506112ca6020870161104d565b9350604086013567ffffffffffffffff808211156112e757600080fd5b6112f389838a016111b4565b9450606088013591508082111561130957600080fd5b61131589838a016111b4565b9350608088013591508082111561132b57600080fd5b506113388882890161127b565b9150509295509295909350565b6000806040838503121561135857600080fd5b823567ffffffffffffffff8082111561137057600080fd5b818501915085601f83011261138457600080fd5b813560206113946111d583611190565b82815260059290921b840181019181810190898411156113b357600080fd5b948201945b838610156113d8576113c98661104d565b825294820194908201906113b8565b965050860135925050808211156113ee57600080fd5b506113fb858286016111b4565b9150509250929050565b60008151808452602080850194506020840160005b838110156114365781518752958201959082019060010161141a565b509495945050505050565b6020815260006110c66020830184611405565b60006020828403121561146657600080fd5b6110c68261104d565b8035801515811461106457600080fd5b60008083601f84011261149157600080fd5b50813567ffffffffffffffff8111156114a957600080fd5b6020830191508360208285010111156114c157600080fd5b9250929050565b600080600080600080600060a0888a0312156114e357600080fd5b873567ffffffffffffffff808211156114fb57600080fd5b818a0191508a601f83011261150f57600080fd5b61151e8b833560208501611223565b985061152c60208b0161146f565b975061153a60408b0161104d565b965060608a013591508082111561155057600080fd5b61155c8b838c0161147f565b909650945060808a013591508082111561157557600080fd5b506115828a828b0161147f565b989b979a50959850939692959293505050565b600080604083850312156115a857600080fd5b6115b18361104d565b91506115bf6020840161146f565b90509250929050565b600080604083850312156115db57600080fd5b6115e48361104d565b91506115bf6020840161104d565b600080600080600060a0868803121561160a57600080fd5b6116138661104d565b94506116216020870161104d565b93506040860135925060608601359150608086013567ffffffffffffffff81111561164b57600080fd5b6113388882890161127b565b600181811c9082168061166b57607f821691505b60208210810361168b57634e487b7160e01b600052602260045260246000fd5b50919050565b600080845461169f81611657565b600182811680156116b757600181146116cc576116fb565b60ff19841687528215158302870194506116fb565b8860005260208060002060005b858110156116f25781548a8201529084019082016116d9565b50505082870194505b50505050835161170f8183602088016110cd565b01949350505050565b634e487b7160e01b600052603260045260246000fd5b634e487b7160e01b600052601160045260246000fd5b6000600182016117565761175661172e565b5060010190565b601f8211156117a5576000816000526020600020601f850160051c810160208610156117865750805b601f850160051c820191505b8181101561083e57828155600101611792565b505050565b815167ffffffffffffffff8111156117c4576117c4611149565b6117d8816117d28454611657565b8461175d565b602080601f83116001811461180d57600084156117f55750858301515b600019600386901b1c1916600185901b17855561083e565b600085815260208120601f198616915b8281101561183c5788860151825594840194600190910190840161181d565b508582101561185a5787850151600019600388901b60f8161c191681555b5050505050600190811b01905550565b67ffffffffffffffff83111561188257611882611149565b611896836118908354611657565b8361175d565b6000601f8411600181146118ca57600085156118b25750838201355b600019600387901b1c1916600186901b17835561043e565b600083815260209020601f19861690835b828110156118fb57868501358255602094850194600190920191016118db565b50868210156119185760001960f88860031b161c19848701351681555b505060018560011b0183555050505050565b808201808211156102ef576102ef61172e565b6040815260006119506040830185611405565b82810360208401526119628185611405565b95945050505050565b6001600160a01b03868116825285166020820152604081018490526060810183905260a0608082018190526000906119a5908301846110f1565b979650505050505050565b6000602082840312156119c257600080fd5b81516110c681611093565b6001600160a01b0386811682528516602082015260a0604082018190526000906119f990830186611405565b8281036060840152611a0b8186611405565b90508281036080840152611a1f81856110f1565b9897505050505050505056fea2646970667358221220b7090217245575aa3c9e06e2913daf896b9bcf07e041e965bd3e5a42108dba6b64736f6c63430008190033","linkReferences":{}},"methodIdentifiers":{"balanceOf(address,uint256)":"00fdd58e","balanceOfBatch(address[],uint256[])":"4e1273f4","depositContractAddr()":"e27e639c","initialize(string,bool,address,string,string)":"7766d9d8","initialized()":"158ef93e","isApprovedForAll(address,address)":"e985e9c5","isTransferable()":"2121dc75","lotteryMint(address)":"6b8f60f6","name()":"06fdde03","nextTokenId()":"75794a3c","owner()":"8da5cb5b","renounceOwnership()":"715018a6","safeBatchTransferFrom(address,address,uint256[],uint256[],bytes)":"2eb2c2d6","safeTransferFrom(address,address,uint256,uint256,bytes)":"f242432a","setApprovalForAll(address,bool)":"a22cb465","setDepositContractAddr(address)":"ca4a9f05","supportsInterface(bytes4)":"01ffc9a7","symbol()":"95d89b41","transferOwnership(address)":"f2fde38b","uri(uint256)":"0e89341c"},"id":48}