{"abi":[{"type":"function","name":"balanceOf","inputs":[{"name":"account","type":"address","internalType":"address"},{"name":"id","type":"uint256","internalType":"uint256"}],"outputs":[{"name":"","type":"uint256","internalType":"uint256"}],"stateMutability":"view"},{"type":"function","name":"balanceOfBatch","inputs":[{"name":"accounts","type":"address[]","internalType":"address[]"},{"name":"ids","type":"uint256[]","internalType":"uint256[]"}],"outputs":[{"name":"","type":"uint256[]","internalType":"uint256[]"}],"stateMutability":"view"},{"type":"function","name":"depositContractAddr","inputs":[],"outputs":[{"name":"","type":"address","internalType":"address"}],"stateMutability":"view"},{"type":"function","name":"initialize","inputs":[{"name":"uri","type":"string","internalType":"string"},{"name":"_isTransferable","type":"bool","internalType":"bool"},{"name":"_owner","type":"address","internalType":"address"},{"name":"_name","type":"string","internalType":"string"},{"name":"_symbol","type":"string","internalType":"string"}],"outputs":[],"stateMutability":"nonpayable"},{"type":"function","name":"initialized","inputs":[],"outputs":[{"name":"","type":"bool","internalType":"bool"}],"stateMutability":"view"},{"type":"function","name":"isApprovedForAll","inputs":[{"name":"account","type":"address","internalType":"address"},{"name":"operator","type":"address","internalType":"address"}],"outputs":[{"name":"","type":"bool","internalType":"bool"}],"stateMutability":"view"},{"type":"function","name":"isTransferable","inputs":[],"outputs":[{"name":"","type":"bool","internalType":"bool"}],"stateMutability":"view"},{"type":"function","name":"lotteryMint","inputs":[{"name":"winner","type":"address","internalType":"address"}],"outputs":[{"name":"mintedTokenId","type":"uint256","internalType":"uint256"}],"stateMutability":"nonpayable"},{"type":"function","name":"name","inputs":[],"outputs":[{"name":"","type":"string","internalType":"string"}],"stateMutability":"view"},{"type":"function","name":"nextTokenId","inputs":[],"outputs":[{"name":"","type":"uint256","internalType":"uint256"}],"stateMutability":"view"},{"type":"function","name":"owner","inputs":[],"outputs":[{"name":"","type":"address","internalType":"address"}],"stateMutability":"view"},{"type":"function","name":"renounceOwnership","inputs":[],"outputs":[],"stateMutability":"nonpayable"},{"type":"function","name":"safeBatchTransferFrom","inputs":[{"name":"from","type":"address","internalType":"address"},{"name":"to","type":"address","internalType":"address"},{"name":"ids","type":"uint256[]","internalType":"uint256[]"},{"name":"amounts","type":"uint256[]","internalType":"uint256[]"},{"name":"data","type":"bytes","internalType":"bytes"}],"outputs":[],"stateMutability":"nonpayable"},{"type":"function","name":"safeTransferFrom","inputs":[{"name":"from","type":"address","internalType":"address"},{"name":"to","type":"address","internalType":"address"},{"name":"id","type":"uint256","internalType":"uint256"},{"name":"amount","type":"uint256","internalType":"uint256"},{"name":"data","type":"bytes","internalType":"bytes"}],"outputs":[],"stateMutability":"nonpayable"},{"type":"function","name":"setApprovalForAll","inputs":[{"name":"operator","type":"address","internalType":"address"},{"name":"approved","type":"bool","internalType":"bool"}],"outputs":[],"stateMutability":"nonpayable"},{"type":"function","name":"setDepositContractAddr","inputs":[{"name":"_depositContractAddr","type":"address","internalType":"address"}],"outputs":[],"stateMutability":"nonpayable"},{"type":"function","name":"supportsInterface","inputs":[{"name":"interfaceId","type":"bytes4","internalType":"bytes4"}],"outputs":[{"name":"","type":"bool","internalType":"bool"}],"stateMutability":"view"},{"type":"function","name":"symbol","inputs":[],"outputs":[{"name":"","type":"string","internalType":"string"}],"stateMutability":"view"},{"type":"function","name":"transferOwnership","inputs":[{"name":"newOwner","type":"address","internalType":"address"}],"outputs":[],"stateMutability":"nonpayable"},{"type":"function","name":"uri","inputs":[{"name":"","type":"uint256","internalType":"uint256"}],"outputs":[{"name":"","type":"string","internalType":"string"}],"stateMutability":"view"},{"type":"event","name":"ApprovalForAll","inputs":[{"name":"account","type":"address","indexed":true,"internalType":"address"},{"name":"operator","type":"address","indexed":true,"internalType":"address"},{"name":"approved","type":"bool","indexed":false,"internalType":"bool"}],"anonymous":false},{"type":"event","name":"OwnershipTransferred","inputs":[{"name":"previousOwner","type":"address","indexed":true,"internalType":"address"},{"name":"newOwner","type":"address","indexed":true,"internalType":"address"}],"anonymous":false},{"type":"event","name":"TransferBatch","inputs":[{"name":"operator","type":"address","indexed":true,"internalType":"address"},{"name":"from","type":"address","indexed":true,"internalType":"address"},{"name":"to","type":"address","indexed":true,"internalType":"address"},{"name":"ids","type":"uint256[]","indexed":false,"internalType":"uint256[]"},{"name":"values","type":"uint256[]","indexed":false,"internalType":"uint256[]"}],"anonymous":false},{"type":"event","name":"TransferSingle","inputs":[{"name":"operator","type":"address","indexed":true,"internalType":"address"},{"name":"from","type":"address","indexed":true,"internalType":"address"},{"name":"to","type":"address","indexed":true,"internalType":"address"},{"name":"id","type":"uint256","indexed":false,"internalType":"uint256"},{"name":"value","type":"uint256","indexed":false,"internalType":"uint256"}],"anonymous":false},{"type":"event","name":"URI","inputs":[{"name":"value","type":"string","indexed":false,"internalType":"string"},{"name":"id","type":"uint256","indexed":true,"internalType":"uint256"}],"anonymous":false},{"type":"error","name":"ERC1155InsufficientBalance","inputs":[{"name":"sender","type":"address","internalType":"address"},{"name":"balance","type":"uint256","internalType":"uint256"},{"name":"needed","type":"uint256","internalType":"uint256"},{"name":"tokenId","type":"uint256","internalType":"uint256"}]},{"type":"error","name":"ERC1155InvalidApprover","inputs":[{"name":"approver","type":"address","internalType":"address"}]},{"type":"error","name":"ERC1155InvalidArrayLength","inputs":[{"name":"idsLength","type":"uint256","internalType":"uint256"},{"name":"valuesLength","type":"uint256","internalType":"uint256"}]},{"type":"error","name":"ERC1155InvalidOperator","inputs":[{"name":"operator","type":"address","internalType":"address"}]},{"type":"error","name":"ERC1155InvalidReceiver","inputs":[{"name":"receiver","type":"address","internalType":"address"}]},{"type":"error","name":"ERC1155InvalidSender","inputs":[{"name":"sender","type":"address","internalType":"address"}]},{"type":"error","name":"ERC1155MissingApprovalForAll","inputs":[{"name":"operator","type":"address","internalType":"address"},{"name":"owner","type":"address","internalType":"address"}]},{"type":"error","name":"NonTransferable","inputs":[]},{"type":"error","name":"OwnableInvalidOwner","inputs":[{"name":"owner","type":"address","internalType":"address"}]},{"type":"error","name":"OwnableUnauthorizedAccount","inputs":[{"name":"account","type":"address","internalType":"address"}]}],"bytecode":{"object":"0x6003805460ff60a01b1916905560c0604052600a60809081526913919508151a58dad95d60b21b60a05260049061003690826101d8565b506040805180820190915260048152631510d2d560e21b602082015260059061005f90826101d8565b50600160065534801561007157600080fd5b5060408051808201909152600381526275726960e81b60208201523390610097816100d5565b506001600160a01b0381166100c657604051631e4fbdf760e01b81526000600482015260240160405180910390fd5b6100cf816100e5565b50610297565b60026100e182826101d8565b5050565b600380546001600160a01b038381166001600160a01b0319831681179093556040519116919082907f8be0079c531659141344cd1fd0a4f28419497f9722a3daafe3b4186f6b6457e090600090a35050565b634e487b7160e01b600052604160045260246000fd5b600181811c9082168061016157607f821691505b60208210810361018157634e487b7160e01b600052602260045260246000fd5b50919050565b601f8211156101d3576000816000526020600020601f850160051c810160208610156101b05750805b601f850160051c820191505b818110156101cf578281556001016101bc565b5050505b505050565b81516001600160401b038111156101f1576101f1610137565b610205816101ff845461014d565b84610187565b602080601f83116001811461023a57600084156102225750858301515b600019600386901b1c1916600185901b1785556101cf565b600085815260208120601f198616915b828110156102695788860151825594840194600190910190840161024a565b50858210156102875787850151600019600388901b60f8161c191681555b5050505050600190811b01905550565b611903806102a66000396000f3fe608060405234801561001057600080fd5b506004361061012b5760003560e01c806375794a3c116100ad578063ca4a9f0511610071578063ca4a9f0514610275578063e27e639c14610288578063e985e9c51461029b578063f242432a146102ae578063f2fde38b146102c157600080fd5b806375794a3c146102195780637766d9d8146102225780638da5cb5b1461023557806395d89b411461025a578063a22cb4651461026257600080fd5b80632121dc75116100f45780632121dc75146101b55780632eb2c2d6146101c95780634e1273f4146101de5780636b8f60f6146101fe578063715018a61461021157600080fd5b8062fdd58e1461013057806301ffc9a71461015657806306fdde03146101795780630e89341c1461018e578063158ef93e146101a1575b600080fd5b61014361013e366004610f89565b6102d4565b6040519081526020015b60405180910390f35b610169610164366004610fc9565b6102fc565b604051901515815260200161014d565b61018161034c565b60405161014d9190611033565b61018161019c366004611046565b6103da565b60035461016990600160a01b900460ff1681565b60075461016990600160a01b900460ff1681565b6101dc6101d73660046111b1565b61046e565b005b6101f16101ec36600461125b565b6104ac565b60405161014d9190611357565b61014361020c36600461136a565b61057e565b6101dc61061d565b61014360065481565b6101dc6102303660046113de565b610631565b6003546001600160a01b03165b6040516001600160a01b03909116815260200161014d565b6101816106e2565b6101dc6102703660046114ab565b6106ef565b6101dc61028336600461136a565b6106fe565b600754610242906001600160a01b031681565b6101696102a93660046114de565b610728565b6101dc6102bc366004611508565b610756565b6101dc6102cf36600461136a565b61078d565b6000818152602081815260408083206001600160a01b03861684529091529020545b92915050565b60006001600160e01b03198216636cdb3d1360e11b148061032d57506001600160e01b031982166303a24d0760e21b145b806102f657506301ffc9a760e01b6001600160e01b03198316146102f6565b600480546103599061156d565b80601f01602080910402602001604051908101604052809291908181526020018280546103859061156d565b80156103d25780601f106103a7576101008083540402835291602001916103d2565b820191906000526020600020905b8154815290600101906020018083116103b557829003601f168201915b505050505081565b6060600280546103e99061156d565b80601f01602080910402602001604051908101604052809291908181526020018280546104159061156d565b80156104625780601f1061043757610100808354040283529160200191610462565b820191906000526020600020905b81548152906001019060200180831161044557829003601f168201915b50505050509050919050565b600754600160a01b900460ff1661049857604051639cbe235760e01b815260040160405180910390fd5b6104a585858585856107cb565b5050505050565b606081518351146104e25781518351604051635b05999160e01b8152600481019290925260248201526044015b60405180910390fd5b6000835167ffffffffffffffff8111156104fe576104fe61105f565b604051908082528060200260200182016040528015610527578160200160208202803683370190505b50905060005b845181101561057657602080820286010151610551906020808402870101516102d4565b828281518110610563576105636115a7565b602090810291909101015260010161052d565b509392505050565b6007546000906001600160a01b031633146105db5760405162461bcd60e51b815260206004820152601e60248201527f4f6e6c79206465706f73697420636f6e74726163742063616e206d696e74000060448201526064016104d9565b6105f982600654600160405180602001604052806000815250610832565b60068054906000610609836115d3565b919050555060016006546102f691906115ec565b61062561088f565b61062f60006108bc565b565b600354600160a01b900460ff16156106815760405162461bcd60e51b8152602060048201526013602482015272105b1c9958591e481a5b9a5d1a585b1a5e9959606a1b60448201526064016104d9565b61068a856108bc565b6106938761090e565b6007805460ff60a01b1916600160a01b8815150217905560046106b784868361164c565b5060056106c582848361164c565b50506003805460ff60a01b1916600160a01b179055505050505050565b600580546103599061156d565b6106fa33838361091a565b5050565b61070661088f565b600780546001600160a01b0319166001600160a01b0392909216919091179055565b6001600160a01b03918216600090815260016020908152604080832093909416825291909152205460ff1690565b600754600160a01b900460ff1661078057604051639cbe235760e01b815260040160405180910390fd5b6104a585858585856109b0565b61079561088f565b6001600160a01b0381166107bf57604051631e4fbdf760e01b8152600060048201526024016104d9565b6107c8816108bc565b50565b336001600160a01b03861681148015906107ec57506107ea8682610728565b155b1561081d5760405163711bec9160e11b81526001600160a01b038083166004830152871660248201526044016104d9565b61082a8686868686610a0f565b505050505050565b6001600160a01b03841661085c57604051632bfa23e760e11b8152600060048201526024016104d9565b6040805160018082526020820186905281830190815260608201859052608082019092529061082a600087848487610a6b565b6003546001600160a01b0316331461062f5760405163118cdaa760e01b81523360048201526024016104d9565b600380546001600160a01b038381166001600160a01b0319831681179093556040519116919082907f8be0079c531659141344cd1fd0a4f28419497f9722a3daafe3b4186f6b6457e090600090a35050565b60026106fa828261170c565b6001600160a01b0382166109435760405162ced3e160e81b8152600060048201526024016104d9565b6001600160a01b03838116600081815260016020908152604080832094871680845294825291829020805460ff191686151590811790915591519182527f17307eab39ab6107e8899845ad3d59bd9653f200f220920489ca2b5937696c31910160405180910390a3505050565b336001600160a01b03861681148015906109d157506109cf8682610728565b155b15610a025760405163711bec9160e11b81526001600160a01b038083166004830152871660248201526044016104d9565b61082a8686868686610abe565b6001600160a01b038416610a3957604051632bfa23e760e11b8152600060048201526024016104d9565b6001600160a01b038516610a6257604051626a0d4560e21b8152600060048201526024016104d9565b6104a585858585855b610a7785858585610b4c565b6001600160a01b038416156104a55782513390600103610ab05760208481015190840151610aa9838989858589610d60565b505061082a565b61082a818787878787610e84565b6001600160a01b038416610ae857604051632bfa23e760e11b8152600060048201526024016104d9565b6001600160a01b038516610b1157604051626a0d4560e21b8152600060048201526024016104d9565b60408051600180825260208201869052818301908152606082018590526080820190925290610b438787848487610a6b565b50505050505050565b8051825114610b7b5781518151604051635b05999160e01b8152600481019290925260248201526044016104d9565b3360005b8351811015610c81576020818102858101820151908501909101516001600160a01b03881615610c32576000828152602081815260408083206001600160a01b038c16845290915290205481811015610c0b576040516303dee4c560e01b81526001600160a01b038a1660048201526024810182905260448101839052606481018490526084016104d9565b6000838152602081815260408083206001600160a01b038d16845290915290209082900390555b6001600160a01b03871615610c77576000828152602081815260408083206001600160a01b038b16845290915281208054839290610c719084906117cc565b90915550505b5050600101610b7f565b508251600103610d025760208301516000906020840151909150856001600160a01b0316876001600160a01b0316846001600160a01b03167fc3d58168c5ae7397731d063d5bbf3d657854427343f4c083240f7aacaa2d0f628585604051610cf3929190918252602082015260400190565b60405180910390a450506104a5565b836001600160a01b0316856001600160a01b0316826001600160a01b03167f4a39dc06d4c0dbc64b70af90fd698a233a518aa5d07e595d983b8c0526c8f7fb8686604051610d519291906117df565b60405180910390a45050505050565b6001600160a01b0384163b1561082a5760405163f23a6e6160e01b81526001600160a01b0385169063f23a6e6190610da4908990899088908890889060040161180d565b6020604051808303816000875af1925050508015610ddf575060408051601f3d908101601f19168201909252610ddc91810190611852565b60015b610e48573d808015610e0d576040519150601f19603f3d011682016040523d82523d6000602084013e610e12565b606091505b508051600003610e4057604051632bfa23e760e11b81526001600160a01b03861660048201526024016104d9565b805181602001fd5b6001600160e01b0319811663f23a6e6160e01b14610b4357604051632bfa23e760e11b81526001600160a01b03861660048201526024016104d9565b6001600160a01b0384163b1561082a5760405163bc197c8160e01b81526001600160a01b0385169063bc197c8190610ec8908990899088908890889060040161186f565b6020604051808303816000875af1925050508015610f03575060408051601f3d908101601f19168201909252610f0091810190611852565b60015b610f31573d808015610e0d576040519150601f19603f3d011682016040523d82523d6000602084013e610e12565b6001600160e01b0319811663bc197c8160e01b14610b4357604051632bfa23e760e11b81526001600160a01b03861660048201526024016104d9565b80356001600160a01b0381168114610f8457600080fd5b919050565b60008060408385031215610f9c57600080fd5b610fa583610f6d565b946020939093013593505050565b6001600160e01b0319811681146107c857600080fd5b600060208284031215610fdb57600080fd5b8135610fe681610fb3565b9392505050565b6000815180845260005b8181101561101357602081850181015186830182015201610ff7565b506000602082860101526020601f19601f83011685010191505092915050565b602081526000610fe66020830184610fed565b60006020828403121561105857600080fd5b5035919050565b634e487b7160e01b600052604160045260246000fd5b604051601f8201601f1916810167ffffffffffffffff8111828210171561109e5761109e61105f565b604052919050565b600067ffffffffffffffff8211156110c0576110c061105f565b5060051b60200190565b600082601f8301126110db57600080fd5b813560206110f06110eb836110a6565b611075565b8083825260208201915060208460051b87010193508684111561111257600080fd5b602086015b8481101561112e5780358352918301918301611117565b509695505050505050565b600067ffffffffffffffff8311156111535761115361105f565b611166601f8401601f1916602001611075565b905082815283838301111561117a57600080fd5b828260208301376000602084830101529392505050565b600082601f8301126111a257600080fd5b610fe683833560208501611139565b600080600080600060a086880312156111c957600080fd5b6111d286610f6d565b94506111e060208701610f6d565b9350604086013567ffffffffffffffff808211156111fd57600080fd5b61120989838a016110ca565b9450606088013591508082111561121f57600080fd5b61122b89838a016110ca565b9350608088013591508082111561124157600080fd5b5061124e88828901611191565b9150509295509295909350565b6000806040838503121561126e57600080fd5b823567ffffffffffffffff8082111561128657600080fd5b818501915085601f83011261129a57600080fd5b813560206112aa6110eb836110a6565b82815260059290921b840181019181810190898411156112c957600080fd5b948201945b838610156112ee576112df86610f6d565b825294820194908201906112ce565b9650508601359250508082111561130457600080fd5b50611311858286016110ca565b9150509250929050565b60008151808452602080850194506020840160005b8381101561134c57815187529582019590820190600101611330565b509495945050505050565b602081526000610fe6602083018461131b565b60006020828403121561137c57600080fd5b610fe682610f6d565b80358015158114610f8457600080fd5b60008083601f8401126113a757600080fd5b50813567ffffffffffffffff8111156113bf57600080fd5b6020830191508360208285010111156113d757600080fd5b9250929050565b600080600080600080600060a0888a0312156113f957600080fd5b873567ffffffffffffffff8082111561141157600080fd5b818a0191508a601f83011261142557600080fd5b6114348b833560208501611139565b985061144260208b01611385565b975061145060408b01610f6d565b965060608a013591508082111561146657600080fd5b6114728b838c01611395565b909650945060808a013591508082111561148b57600080fd5b506114988a828b01611395565b989b979a50959850939692959293505050565b600080604083850312156114be57600080fd5b6114c783610f6d565b91506114d560208401611385565b90509250929050565b600080604083850312156114f157600080fd5b6114fa83610f6d565b91506114d560208401610f6d565b600080600080600060a0868803121561152057600080fd5b61152986610f6d565b945061153760208701610f6d565b93506040860135925060608601359150608086013567ffffffffffffffff81111561156157600080fd5b61124e88828901611191565b600181811c9082168061158157607f821691505b6020821081036115a157634e487b7160e01b600052602260045260246000fd5b50919050565b634e487b7160e01b600052603260045260246000fd5b634e487b7160e01b600052601160045260246000fd5b6000600182016115e5576115e56115bd565b5060010190565b818103818111156102f6576102f66115bd565b601f821115611647576000816000526020600020601f850160051c810160208610156116285750805b601f850160051c820191505b8181101561082a57828155600101611634565b505050565b67ffffffffffffffff8311156116645761166461105f565b61167883611672835461156d565b836115ff565b6000601f8411600181146116ac57600085156116945750838201355b600019600387901b1c1916600186901b1783556104a5565b600083815260209020601f19861690835b828110156116dd57868501358255602094850194600190920191016116bd565b50868210156116fa5760001960f88860031b161c19848701351681555b505060018560011b0183555050505050565b815167ffffffffffffffff8111156117265761172661105f565b61173a81611734845461156d565b846115ff565b602080601f83116001811461176f57600084156117575750858301515b600019600386901b1c1916600185901b17855561082a565b600085815260208120601f198616915b8281101561179e5788860151825594840194600190910190840161177f565b50858210156117bc5787850151600019600388901b60f8161c191681555b5050505050600190811b01905550565b808201808211156102f6576102f66115bd565b6040815260006117f2604083018561131b565b8281036020840152611804818561131b565b95945050505050565b6001600160a01b03868116825285166020820152604081018490526060810183905260a06080820181905260009061184790830184610fed565b979650505050505050565b60006020828403121561186457600080fd5b8151610fe681610fb3565b6001600160a01b0386811682528516602082015260a06040820181905260009061189b9083018661131b565b82810360608401526118ad818661131b565b905082810360808401526118c18185610fed565b9897505050505050505056fea26469706673582212207130f6637b5c0281ae8170c6b6dfd1dfe555c344708b7c41c84efb3a5b9c8e6864736f6c63430008190033","linkReferences":{}},"methodIdentifiers":{"balanceOf(address,uint256)":"00fdd58e","balanceOfBatch(address[],uint256[])":"4e1273f4","depositContractAddr()":"e27e639c","initialize(string,bool,address,string,string)":"7766d9d8","initialized()":"158ef93e","isApprovedForAll(address,address)":"e985e9c5","isTransferable()":"2121dc75","lotteryMint(address)":"6b8f60f6","name()":"06fdde03","nextTokenId()":"75794a3c","owner()":"8da5cb5b","renounceOwnership()":"715018a6","safeBatchTransferFrom(address,address,uint256[],uint256[],bytes)":"2eb2c2d6","safeTransferFrom(address,address,uint256,uint256,bytes)":"f242432a","setApprovalForAll(address,bool)":"a22cb465","setDepositContractAddr(address)":"ca4a9f05","supportsInterface(bytes4)":"01ffc9a7","symbol()":"95d89b41","transferOwnership(address)":"f2fde38b","uri(uint256)":"0e89341c"},"id":12}