{"abi":[{"type":"constructor","inputs":[{"name":"_seller","type":"address","internalType":"address"},{"name":"_operatorAddr","type":"address","internalType":"address"}],"stateMutability":"nonpayable"},{"type":"function","name":"buyerWithdraw","inputs":[],"outputs":[],"stateMutability":"nonpayable"},{"type":"function","name":"changeLotteryState","inputs":[{"name":"_newState","type":"uint8","internalType":"enum AuctionV1.LotteryState"}],"outputs":[],"stateMutability":"nonpayable"},{"type":"function","name":"currentPrice","inputs":[],"outputs":[{"name":"","type":"uint256","internalType":"uint256"}],"stateMutability":"view"},{"type":"function","name":"deposit","inputs":[{"name":"amount","type":"uint256","internalType":"uint256"}],"outputs":[],"stateMutability":"payable"},{"type":"function","name":"deposits","inputs":[{"name":"","type":"address","internalType":"address"}],"outputs":[{"name":"","type":"uint256","internalType":"uint256"}],"stateMutability":"view"},{"type":"function","name":"eligibleParticipants","inputs":[{"name":"","type":"uint256","internalType":"uint256"}],"outputs":[{"name":"","type":"address","internalType":"address"}],"stateMutability":"view"},{"type":"function","name":"endLottery","inputs":[],"outputs":[],"stateMutability":"nonpayable"},{"type":"function","name":"finishAt","inputs":[],"outputs":[{"name":"","type":"uint256","internalType":"uint256"}],"stateMutability":"view"},{"type":"function","name":"fulfillRandomness","inputs":[{"name":"randomness","type":"uint256","internalType":"uint256"},{"name":"dataWithRound","type":"bytes","internalType":"bytes"}],"outputs":[],"stateMutability":"nonpayable"},{"type":"function","name":"getDepositedAmount","inputs":[{"name":"participant","type":"address","internalType":"address"}],"outputs":[{"name":"","type":"uint256","internalType":"uint256"}],"stateMutability":"view"},{"type":"function","name":"getParticipants","inputs":[],"outputs":[{"name":"","type":"address[]","internalType":"address[]"}],"stateMutability":"view"},{"type":"function","name":"getRandomNumber","inputs":[],"outputs":[{"name":"","type":"uint256","internalType":"uint256"}],"stateMutability":"view"},{"type":"function","name":"getWinners","inputs":[],"outputs":[{"name":"","type":"address[]","internalType":"address[]"}],"stateMutability":"view"},{"type":"function","name":"hasMinted","inputs":[{"name":"","type":"address","internalType":"address"}],"outputs":[{"name":"","type":"bool","internalType":"bool"}],"stateMutability":"view"},{"type":"function","name":"increasePriceStep","inputs":[],"outputs":[{"name":"","type":"uint256","internalType":"uint256"}],"stateMutability":"view"},{"type":"function","name":"initialPrice","inputs":[],"outputs":[{"name":"","type":"uint256","internalType":"uint256"}],"stateMutability":"view"},{"type":"function","name":"isParticipantEligible","inputs":[{"name":"participant","type":"address","internalType":"address"}],"outputs":[{"name":"","type":"bool","internalType":"bool"}],"stateMutability":"view"},{"type":"function","name":"isTrustedForwarder","inputs":[{"name":"forwarder","type":"address","internalType":"address"}],"outputs":[{"name":"","type":"bool","internalType":"bool"}],"stateMutability":"view"},{"type":"function","name":"isWinner","inputs":[{"name":"_participant","type":"address","internalType":"address"}],"outputs":[{"name":"","type":"bool","internalType":"bool"}],"stateMutability":"view"},{"type":"function","name":"lotteryState","inputs":[],"outputs":[{"name":"","type":"uint8","internalType":"enum AuctionV1.LotteryState"}],"stateMutability":"view"},{"type":"function","name":"lotteryV2Addr","inputs":[],"outputs":[{"name":"","type":"address","internalType":"address"}],"stateMutability":"view"},{"type":"function","name":"mintMyNFT","inputs":[],"outputs":[],"stateMutability":"nonpayable"},{"type":"function","name":"multisigWalletAddress","inputs":[],"outputs":[{"name":"","type":"address","internalType":"address"}],"stateMutability":"view"},{"type":"function","name":"nftContractAddr","inputs":[],"outputs":[{"name":"","type":"address","internalType":"address"}],"stateMutability":"view"},{"type":"function","name":"numberOfTickets","inputs":[],"outputs":[{"name":"","type":"uint256","internalType":"uint256"}],"stateMutability":"view"},{"type":"function","name":"operatorAddr","inputs":[],"outputs":[{"name":"","type":"address","internalType":"address"}],"stateMutability":"view"},{"type":"function","name":"operators","inputs":[{"name":"","type":"address","internalType":"address"}],"outputs":[{"name":"","type":"bool","internalType":"bool"}],"stateMutability":"view"},{"type":"function","name":"owner","inputs":[],"outputs":[{"name":"","type":"address","internalType":"address"}],"stateMutability":"view"},{"type":"function","name":"prevRoundDeposits","inputs":[],"outputs":[{"name":"","type":"uint256","internalType":"uint256"}],"stateMutability":"view"},{"type":"function","name":"prevRoundTicketsAmount","inputs":[],"outputs":[{"name":"","type":"uint256","internalType":"uint256"}],"stateMutability":"view"},{"type":"function","name":"randomNumber","inputs":[],"outputs":[{"name":"","type":"uint256","internalType":"uint256"}],"stateMutability":"view"},{"type":"function","name":"renounceOwnership","inputs":[],"outputs":[],"stateMutability":"nonpayable"},{"type":"function","name":"requestPending","inputs":[{"name":"","type":"uint256","internalType":"uint256"}],"outputs":[{"name":"","type":"bool","internalType":"bool"}],"stateMutability":"view"},{"type":"function","name":"requestRandomness","inputs":[{"name":"","type":"bytes","internalType":"bytes"}],"outputs":[],"stateMutability":"nonpayable"},{"type":"function","name":"requestedHash","inputs":[{"name":"","type":"uint256","internalType":"uint256"}],"outputs":[{"name":"","type":"bytes32","internalType":"bytes32"}],"stateMutability":"view"},{"type":"function","name":"selectWinners","inputs":[],"outputs":[],"stateMutability":"nonpayable"},{"type":"function","name":"seller","inputs":[],"outputs":[{"name":"","type":"address","internalType":"address"}],"stateMutability":"view"},{"type":"function","name":"sellerWithdraw","inputs":[],"outputs":[],"stateMutability":"nonpayable"},{"type":"function","name":"setCurrentPrice","inputs":[{"name":"_amount","type":"uint256","internalType":"uint256"}],"outputs":[],"stateMutability":"nonpayable"},{"type":"function","name":"setFinishAt","inputs":[{"name":"_finishAt","type":"uint256","internalType":"uint256"}],"outputs":[],"stateMutability":"nonpayable"},{"type":"function","name":"setLotteryV2Addr","inputs":[{"name":"_lotteryV2Addr","type":"address","internalType":"address"}],"outputs":[],"stateMutability":"nonpayable"},{"type":"function","name":"setMultisigWalletAddress","inputs":[{"name":"_multisigWalletAddress","type":"address","internalType":"address"}],"outputs":[],"stateMutability":"nonpayable"},{"type":"function","name":"setNftContractAddr","inputs":[{"name":"_nftContractAddr","type":"address","internalType":"address"}],"outputs":[],"stateMutability":"nonpayable"},{"type":"function","name":"setNumberOfTickets","inputs":[{"name":"_numberOfTickets","type":"uint256","internalType":"uint256"}],"outputs":[],"stateMutability":"nonpayable"},{"type":"function","name":"setOperator","inputs":[{"name":"_operatorAddr","type":"address","internalType":"address"},{"name":"_flag","type":"bool","internalType":"bool"}],"outputs":[],"stateMutability":"nonpayable"},{"type":"function","name":"setPriceStep","inputs":[{"name":"_increasePriceStep","type":"uint256","internalType":"uint256"}],"outputs":[],"stateMutability":"nonpayable"},{"type":"function","name":"setUsdcContractAddr","inputs":[{"name":"_usdcContractAddr","type":"address","internalType":"address"}],"outputs":[],"stateMutability":"nonpayable"},{"type":"function","name":"setWinner","inputs":[{"name":"_winner","type":"address","internalType":"address"}],"outputs":[],"stateMutability":"nonpayable"},{"type":"function","name":"setupNewRound","inputs":[{"name":"_finishAt","type":"uint256","internalType":"uint256"},{"name":"_numberOfTickets","type":"uint256","internalType":"uint256"}],"outputs":[],"stateMutability":"nonpayable"},{"type":"function","name":"startLottery","inputs":[],"outputs":[],"stateMutability":"nonpayable"},{"type":"function","name":"transferDeposit","inputs":[{"name":"_participant","type":"address","internalType":"address"},{"name":"_amount","type":"uint256","internalType":"uint256"}],"outputs":[],"stateMutability":"nonpayable"},{"type":"function","name":"transferNonWinnerBids","inputs":[{"name":"destinationAddr","type":"address","internalType":"address"}],"outputs":[],"stateMutability":"nonpayable"},{"type":"function","name":"transferOwnership","inputs":[{"name":"newOwner","type":"address","internalType":"address"}],"outputs":[],"stateMutability":"nonpayable"},{"type":"function","name":"usdcContractAddr","inputs":[],"outputs":[{"name":"","type":"address","internalType":"address"}],"stateMutability":"view"},{"type":"function","name":"winnerAddresses","inputs":[{"name":"","type":"uint256","internalType":"uint256"}],"outputs":[{"name":"","type":"address","internalType":"address"}],"stateMutability":"view"},{"type":"function","name":"winners","inputs":[{"name":"","type":"address","internalType":"address"}],"outputs":[{"name":"","type":"bool","internalType":"bool"}],"stateMutability":"view"},{"type":"event","name":"LotteryEnded","inputs":[],"anonymous":false},{"type":"event","name":"LotteryStarted","inputs":[],"anonymous":false},{"type":"event","name":"OwnershipTransferred","inputs":[{"name":"previousOwner","type":"address","indexed":true,"internalType":"address"},{"name":"newOwner","type":"address","indexed":true,"internalType":"address"}],"anonymous":false},{"type":"event","name":"RandomFullfiled","inputs":[{"name":"number","type":"uint256","indexed":false,"internalType":"uint256"}],"anonymous":false},{"type":"event","name":"RandomRequested","inputs":[{"name":"requester","type":"address","indexed":true,"internalType":"address"}],"anonymous":false},{"type":"event","name":"RequestedRandomness","inputs":[{"name":"round","type":"uint256","indexed":false,"internalType":"uint256"},{"name":"data","type":"bytes","indexed":false,"internalType":"bytes"}],"anonymous":false},{"type":"event","name":"WinnerSelected","inputs":[{"name":"winner","type":"address","indexed":true,"internalType":"address"}],"anonymous":false},{"type":"error","name":"OwnableInvalidOwner","inputs":[{"name":"owner","type":"address","internalType":"address"}]},{"type":"error","name":"OwnableUnauthorizedAccount","inputs":[{"name":"account","type":"address","internalType":"address"}]}],"bytecode":{"object":"0x60c06040523480156200001157600080fd5b50604051620033ae380380620033ae833981016040819052620000349162000166565b73d8253782c45a12053594b9deb72d8e8ab2fca54c62000053620000be565b6001600160a01b0381166200008257604051631e4fbdf760e01b81526000600482015260240160405180910390fd5b6200008d81620000cf565b506001600160a01b03908116608052600480546001600160a01b031916938216939093179092551660a0526200019e565b6000620000ca62000121565b905090565b600280546001600160a01b038381166001600160a01b0319831681179093556040519116919082907f8be0079c531659141344cd1fd0a4f28419497f9722a3daafe3b4186f6b6457e090600090a35050565b6080516000906001600160a01b0316330362000144575060131936013560601c90565b503390565b80516001600160a01b03811681146200016157600080fd5b919050565b600080604083850312156200017a57600080fd5b620001858362000149565b9150620001956020840162000149565b90509250929050565b60805160a0516131dc620001d260003960008181610a660152611f050152600081816106000152612afd01526131dc6000f3fe60806040526004361061036b5760003560e01c806375ce7fff116101c6578063b3f6b99a116100f7578063dbdff2c111610095578063e9081ec71161006f578063e9081ec7146109fe578063f2fde38b14610a34578063f3f18c3714610a54578063fc7e286d14610a8857600080fd5b8063dbdff2c1146109b4578063df15c37e146109c9578063e6dee7ed146109de57600080fd5b8063b7a62e24116100d1578063b7a62e2414610931578063c4f8f27b14610951578063ccbac9f51461097e578063d9fca7691461099457600080fd5b8063b3f6b99a146108e8578063b680e44b14610908578063b6b55f251461091e57600080fd5b806399bd69d6116101645780639d9ca28d1161013e5780639d9ca28d1461084f578063a4f03c0214610888578063a61fb2ba146108a8578063af94862c146108c857600080fd5b806399bd69d6146107f957806399dbf4b5146108195780639d1b464a1461083957600080fd5b80638a6723e6116101a05780638a6723e6146107855780638da5cb5b146107a557806394d898de146107c357806396efac7b146107e357600080fd5b806375ce7fff146107305780637cc947d0146107505780637de133821461076557600080fd5b80633644c27c116102a057806360d50da31161023e578063683e93e111610218578063683e93e11461069d5780636939864b146106bd5780636bd5450a146106eb578063715018a61461071b57600080fd5b806360d50da31461065257806366af746b1461067257806367d3b4881461068757600080fd5b806350f3dbec1161027a57806350f3dbec146105a3578063558a7297146105c3578063572b6c05146105e35780635aa68ac01461063057600080fd5b80633644c27c1461053d57806338e21cce1461055d57806345745c101461058d57600080fd5b806318b200711161030d578063224f91bd116102e7578063224f91bd146104d257806326170480146104e85780632c23ec8e146104fd5780633639eb2e1461051d57600080fd5b806318b20071146104795780631a0de74c146104995780631d0806ae146104ae57600080fd5b806313e7c9d81161034957806313e7c9d8146103ef5780631593a8c71461042f578063160344e2146104445780631630a8df1461045957600080fd5b8063045f9c971461037057806308551a53146103ad5780630bea6637146103cd575b600080fd5b34801561037c57600080fd5b5061039061038b366004612bc6565b610ab5565b6040516001600160a01b0390911681526020015b60405180910390f35b3480156103b957600080fd5b50600454610390906001600160a01b031681565b3480156103d957600080fd5b506103ed6103e8366004612bc6565b610adf565b005b3480156103fb57600080fd5b5061041f61040a366004612bfb565b60106020526000908152604090205460ff1681565b60405190151581526020016103a4565b34801561043b57600080fd5b506103ed610b7c565b34801561045057600080fd5b506103ed610bc2565b34801561046557600080fd5b506103ed610474366004612bfb565b610ca2565b34801561048557600080fd5b506103ed610494366004612bc6565b610f3f565b3480156104a557600080fd5b506103ed610f8e565b3480156104ba57600080fd5b506104c460065481565b6040519081526020016103a4565b3480156104de57600080fd5b506104c460085481565b3480156104f457600080fd5b506103ed61131c565b34801561050957600080fd5b50601354610390906001600160a01b031681565b34801561052957600080fd5b506103ed610538366004612bfb565b6114e8565b34801561054957600080fd5b506103ed610558366004612bfb565b611544565b34801561056957600080fd5b5061041f610578366004612bfb565b600d6020526000908152604090205460ff1681565b34801561059957600080fd5b506104c4600a5481565b3480156105af57600080fd5b506103ed6105be366004612c1d565b61156e565b3480156105cf57600080fd5b506103ed6105de366004612c55565b6116ae565b3480156105ef57600080fd5b5061041f6105fe366004612bfb565b7f00000000000000000000000000000000000000000000000000000000000000006001600160a01b0390811691161490565b34801561063c57600080fd5b506106456116e1565b6040516103a49190612c8c565b34801561065e57600080fd5b506103ed61066d366004612bfb565b611743565b34801561067e57600080fd5b506103ed61176d565b34801561069357600080fd5b506104c460165481565b3480156106a957600080fd5b506103ed6106b8366004612cd9565b6119a1565b3480156106c957600080fd5b506002546106de90600160a01b900460ff1681565b6040516103a49190612d10565b3480156106f757600080fd5b5061041f610706366004612bfb565b600f6020526000908152604090205460ff1681565b34801561072757600080fd5b506103ed611a08565b34801561073c57600080fd5b5061041f61074b366004612bc6565b611a1a565b34801561075c57600080fd5b506103ed611a4e565b34801561077157600080fd5b50601554610390906001600160a01b031681565b34801561079157600080fd5b5061041f6107a0366004612bfb565b611c58565b3480156107b157600080fd5b506002546001600160a01b0316610390565b3480156107cf57600080fd5b506103ed6107de366004612bfb565b611cb7565b3480156107ef57600080fd5b506104c460095481565b34801561080557600080fd5b506103ed610814366004612bc6565b611ce1565b34801561082557600080fd5b50601454610390906001600160a01b031681565b34801561084557600080fd5b506104c460055481565b34801561085b57600080fd5b5061041f61086a366004612bfb565b6001600160a01b03166000908152600f602052604090205460ff1690565b34801561089457600080fd5b506103ed6108a3366004612d38565b611d89565b3480156108b457600080fd5b50600354610390906001600160a01b031681565b3480156108d457600080fd5b506103ed6108e3366004612bc6565b611ebb565b3480156108f457600080fd5b506103ed610903366004612d5a565b611efa565b34801561091457600080fd5b506104c460075481565b6103ed61092c366004612bc6565b6120ec565b34801561093d57600080fd5b5061039061094c366004612bc6565b612460565b34801561095d57600080fd5b506104c461096c366004612bc6565b60016020526000908152604090205481565b34801561098a57600080fd5b506104c4600b5481565b3480156109a057600080fd5b506103ed6109af366004612bfb565b612470565b3480156109c057600080fd5b506104c4612510565b3480156109d557600080fd5b506106456125a2565b3480156109ea57600080fd5b506103ed6109f9366004612e9b565b612602565b348015610a0a57600080fd5b506104c4610a19366004612bfb565b6001600160a01b03166000908152600e602052604090205490565b348015610a4057600080fd5b506103ed610a4f366004612bfb565b6126b1565b348015610a6057600080fd5b506103907f000000000000000000000000000000000000000000000000000000000000000081565b348015610a9457600080fd5b506104c4610aa3366004612bfb565b600e6020526000908152604090205481565b60118181548110610ac557600080fd5b6000918252602090912001546001600160a01b0316905081565b6004546001600160a01b0316610af36126ef565b6001600160a01b03161480610b2257506002546001600160a01b0316610b176126ef565b6001600160a01b0316145b80610b52575060106000610b346126ef565b6001600160a01b0316815260208101919091526040016000205460ff165b610b775760405162461bcd60e51b8152600401610b6e90612ed8565b60405180910390fd5b601655565b6004546001600160a01b0316610b906126ef565b6001600160a01b031614610bb65760405162461bcd60e51b8152600401610b6e90612f1c565b610bc060026119a1565b565b6004546001600160a01b0316610bd66126ef565b6001600160a01b031614610bfc5760405162461bcd60e51b8152600401610b6e90612f1c565b6000600254600160a01b900460ff166004811115610c1c57610c1c612cfa565b1480610c44575060028054600160a01b900460ff166004811115610c4257610c42612cfa565b145b610c905760405162461bcd60e51b815260206004820152601a60248201527f4c6f747465727920697320696e206163746976652073746174650000000000006044820152606401610b6e565b610c9a60016119a1565b610bc06126fe565b6004546001600160a01b0316610cb66126ef565b6001600160a01b031614610cdc5760405162461bcd60e51b8152600401610b6e90612f1c565b60005b601254811015610f3b576000600e600060128481548110610d0257610d02612f5e565b60009182526020808320909101546001600160a01b0316835282019290925260400181205460128054919350600e9183919086908110610d4457610d44612f5e565b6000918252602080832091909101546001600160a01b039081168452908301939093526040918201902092909255601454915163a9059cbb60e01b815285821660048201526024810184905291169063a9059cbb906044016020604051808303816000875af1158015610dbb573d6000803e3d6000fd5b505050506040513d601f19601f82011682018060405250810190610ddf9190612f74565b50826001600160a01b03166350f3dbec60128481548110610e0257610e02612f5e565b60009182526020909120015460405160e083901b6001600160e01b03191681526001600160a01b03909116600482015260248101849052604401600060405180830381600087803b158015610e5657600080fd5b505af1158015610e6a573d6000803e3d6000fd5b5050601254610e7d925060019150612fa7565b821015610eff5760128054610e9490600190612fa7565b81548110610ea457610ea4612f5e565b600091825260209091200154601280546001600160a01b039092169184908110610ed057610ed0612f5e565b9060005260206000200160006101000a8154816001600160a01b0302191690836001600160a01b031602179055505b6012805480610f1057610f10612fc0565b600082815260209020810160001990810180546001600160a01b031916905501905550600101610cdf565b5050565b6004546001600160a01b0316610f536126ef565b6001600160a01b031614610f795760405162461bcd60e51b8152600401610b6e90612f1c565b600654600003610f895760068190555b600555565b6004546001600160a01b0316610fa26126ef565b6001600160a01b031614610fc85760405162461bcd60e51b8152600401610b6e90612f1c565b6000600a541161101a5760405162461bcd60e51b815260206004820152601b60248201527f4e6f207469636b657473206c65667420746f20616c6c6f6361746500000000006044820152606401610b6e565b600c54600a54106111055760005b600c548110156110cb576000600c828154811061104757611047612f5e565b6000918252602090912001546001600160a01b03169050611080816001600160a01b03166000908152600f602052604090205460ff1690565b6110c25761108d81612470565b6040516001600160a01b038216907f1d4c260f1824cd028e6c9e6e31c3a0b94f2513e7a641113ec759d382f9bdd5a190600090a25b50600101611028565b5060005b600c548110156110ff576110e2816127fd565b600a80549060006110f283612fd6565b90915550506001016110cf565b506112e7565b60005b600c5481101561122057600c54600090611123908390612fa7565b600b546111309190613003565b61113a9083613017565b90506000600c828154811061115157611151612f5e565b600091825260209091200154600c80546001600160a01b039092169250908490811061117f5761117f612f5e565b600091825260209091200154600c80546001600160a01b0390921691849081106111ab576111ab612f5e565b9060005260206000200160006101000a8154816001600160a01b0302191690836001600160a01b0316021790555080600c84815481106111ed576111ed612f5e565b600091825260209091200180546001600160a01b0319166001600160a01b03929092169190911790555050600101611108565b5060005b600a548110156112e5576000600c828154811061124357611243612f5e565b6000918252602090912001546001600160a01b0316905061127c816001600160a01b03166000908152600f602052604090205460ff1690565b6112dc5761128981612470565b611292826127fd565b600a80549060006112a283612fd6565b90915550506040516001600160a01b038216907f1d4c260f1824cd028e6c9e6e31c3a0b94f2513e7a641113ec759d382f9bdd5a190600090a25b50600101611224565b505b600a54600003610bc0576040517f9c89a6ed7228533196a3f962acc80d61a9c53bdea6b910741bf754f5aaa7569e90600090a1565b600d60006113286126ef565b6001600160a01b0316815260208101919091526040016000205460ff16156113875760405162461bcd60e51b815260206004820152601260248201527113919508185b1c9958591e481b5a5b9d195960721b6044820152606401610b6e565b60028054600160a01b900460ff1660048111156113a6576113a6612cfa565b146113f35760405162461bcd60e51b815260206004820152601860248201527f4c6f7474657279206973206e6f7420656e6465642079657400000000000000006044820152606401610b6e565b6113fe61086a6126ef565b6114435760405162461bcd60e51b815260206004820152601660248201527521b0b63632b91034b9903737ba1030903bb4b73732b960511b6044820152606401610b6e565b6001600d60006114516126ef565b6001600160a01b0390811682526020820192909252604001600020805460ff19169215159290921790915560135416636b8f60f661148d6126ef565b6040516001600160e01b031960e084901b1681526001600160a01b039091166004820152602401600060405180830381600087803b1580156114ce57600080fd5b505af11580156114e2573d6000803e3d6000fd5b50505050565b6004546001600160a01b03166114fc6126ef565b6001600160a01b0316146115225760405162461bcd60e51b8152600401610b6e90612f1c565b601580546001600160a01b0319166001600160a01b0392909216919091179055565b61154c61290b565b601380546001600160a01b0319166001600160a01b0392909216919091179055565b6115766126ef565b6015546001600160a01b039081169116146115e35760405162461bcd60e51b815260206004820152602760248201527f4f6e6c792077686974656c6973746564206d61792063616c6c207468697320666044820152663ab731ba34b7b760c91b6064820152608401610b6e565b600e60006115ef6126ef565b6001600160a01b03166001600160a01b031681526020019081526020016000205460000361166357601280546001810182556000919091527fbb8a6a4669ba250d26cd7a459eca9d215f8307e33aebe50379bc5a3617ec34440180546001600160a01b0319166001600160a01b0384161790555b6001600160a01b0382166000908152600e60205260408120805483929061168b908490613017565b925050819055506001600760008282546116a59190613017565b90915550505050565b6116b661290b565b6001600160a01b03919091166000908152601060205260409020805460ff1916911515919091179055565b6060601280548060200260200160405190810160405280929190818152602001828054801561173957602002820191906000526020600020905b81546001600160a01b0316815260019091019060200180831161171b575b5050505050905090565b61174b61290b565b600380546001600160a01b0319166001600160a01b0392909216919091179055565b6004546001600160a01b03166117816126ef565b6001600160a01b0316146117a75760405162461bcd60e51b8152600401610b6e90612f1c565b60028054600160a01b900460ff1660048111156117c6576117c6612cfa565b146118075760405162461bcd60e51b8152602060048201526011602482015270131bdd1d195c9e481b9bdd08195b991959607a1b6044820152606401610b6e565b6000805b6011548110156118805760006011828154811061182a5761182a612f5e565b60009182526020808320909101546001600160a01b0316808352600e90915260409091205490915061185c9084613017565b6001600160a01b039091166000908152600e6020526040812055915060010161180b565b506000606461189083600561302a565b61189a9190613041565b905060006118a88284612fa7565b60145460035460405163a9059cbb60e01b81526001600160a01b03918216600482015260248101869052929350169063a9059cbb906044016020604051808303816000875af11580156118ff573d6000803e3d6000fd5b505050506040513d601f19601f820116820180604052508101906119239190612f74565b506014546004805460405163a9059cbb60e01b81526001600160a01b0391821692810192909252602482018490529091169063a9059cbb906044016020604051808303816000875af115801561197d573d6000803e3d6000fd5b505050506040513d601f19601f820116820180604052508101906114e29190612f74565b6004546001600160a01b03166119b56126ef565b6001600160a01b0316146119db5760405162461bcd60e51b8152600401610b6e90612f1c565b6002805482919060ff60a01b1916600160a01b836004811115611a0057611a00612cfa565b021790555050565b611a1061290b565b610bc06000612969565b60008181548110611a2a57600080fd5b9060005260206000209060209182820401919006915054906101000a900460ff1681565b6001600254600160a01b900460ff166004811115611a6e57611a6e612cfa565b03611abb5760405162461bcd60e51b815260206004820152601b60248201527f4c6f74746572792069732063757272656e746c792061637469766500000000006044820152606401610b6e565b600f6000611ac76126ef565b6001600160a01b0316815260208101919091526040016000205460ff1615611b315760405162461bcd60e51b815260206004820152601760248201527f57696e6e6572732063616e6e6f742077697468647261770000000000000000006044820152606401610b6e565b6000600e6000611b3f6126ef565b6001600160a01b03166001600160a01b0316815260200190815260200160002054905060008111611ba95760405162461bcd60e51b81526020600482015260146024820152734e6f2066756e647320746f20776974686472617760601b6044820152606401610b6e565b6000600e6000611bb76126ef565b6001600160a01b0390811682526020820192909252604001600020919091556014541663a9059cbb611be76126ef565b6040516001600160e01b031960e084901b1681526001600160a01b039091166004820152602481018490526044016020604051808303816000875af1158015611c34573d6000803e3d6000fd5b505050506040513d601f19601f82011682018060405250810190610f3b9190612f74565b6000805b600c54811015611cae57826001600160a01b0316600c8281548110611c8357611c83612f5e565b6000918252602090912001546001600160a01b031603611ca65750600192915050565b600101611c5c565b50600092915050565b611cbf61290b565b601480546001600160a01b0319166001600160a01b0392909216919091179055565b6004546001600160a01b0316611cf56126ef565b6001600160a01b031614611d1b5760405162461bcd60e51b8152600401610b6e90612f1c565b60008111611d7f5760405162461bcd60e51b815260206004820152602b60248201527f4e756d626572206f66207469636b657473206d7573742062652067726561746560448201526a72207468616e207a65726f60a81b6064820152608401610b6e565b600a819055600855565b6004546001600160a01b0316611d9d6126ef565b6001600160a01b03161480611dcc57506002546001600160a01b0316611dc16126ef565b6001600160a01b0316145b80611dfc575060106000611dde6126ef565b6001600160a01b0316815260208101919091526040016000205460ff165b611e185760405162461bcd60e51b8152600401610b6e90612ed8565b6000600a5460075410611e5657600854600754611e359190613041565b600954611e42919061302a565b600554611e4f9190613017565b9050611e9c565b600854600754611e669190613041565b611e71906001612fa7565b600954611e7e919061302a565b600554611e8b9190612fa7565b9050600654811015611e9c57506006545b6005819055611eaa83610adf565b506000600755600a81905560085550565b6004546001600160a01b0316611ecf6126ef565b6001600160a01b031614611ef55760405162461bcd60e51b8152600401610b6e90612f1c565b600955565b336001600160a01b037f00000000000000000000000000000000000000000000000000000000000000001614611f625760405162461bcd60e51b815260206004820152600d60248201526c37b7363c9037b832b930ba37b960991b6044820152606401610b6e565b6000611f7082840184613055565b91505060008082806020019051810190611f8a91906130c0565b9150915060008585604051611fa0929190613143565b6040805191829003909120600085815260016020529182205482549193508314919085908110611fd257611fd2612f5e565b90600052602060002090602091828204019190069054906101000a900460ff1661203e5760405162461bcd60e51b815260206004820152601c60248201527f726571756573742066756c66696c6c6564206f72206d697373696e67000000006044820152606401610b6e565b80156120e25760408051602081018a905230918101919091524660608201526080810185905260a0016040516020818303038152906040528051906020012060001c975061208d8885856129bb565b60008085815481106120a1576120a1612f5e565b90600052602060002090602091828204019190066101000a81548160ff02191690831515021790555060016000858152602001908152602001600020600090555b5050505050505050565b6120f761086a6126ef565b1561213d5760405162461bcd60e51b815260206004820152601660248201527515da5b9b995c9cc818d85b9b9bdd0819195c1bdcda5d60521b6044820152606401610b6e565b42601654116121985760405162461bcd60e51b815260206004820152602160248201527f4465706f7369747320617265206e6f7420706f737369626c6520616e796d6f726044820152606560f81b6064820152608401610b6e565b6014546001600160a01b03166121f05760405162461bcd60e51b815260206004820152601d60248201527f5553444320636f6e74726163742061646472657373206e6f74207365740000006044820152606401610b6e565b600081116122305760405162461bcd60e51b815260206004820152600d60248201526c139bc8199d5b991cc81cd95b9d609a1b6044820152606401610b6e565b60145481906001600160a01b031663dd62ed3e61224b6126ef565b6040516001600160e01b031960e084901b1681526001600160a01b039091166004820152306024820152604401602060405180830381865afa158015612295573d6000803e3d6000fd5b505050506040513d601f19601f820116820180604052508101906122b99190613153565b10156123005760405162461bcd60e51b8152602060048201526016602482015275496e73756666696369656e7420616c6c6f77616e636560501b6044820152606401610b6e565b6014546001600160a01b03166323b872dd6123196126ef565b6040516001600160e01b031960e084901b1681526001600160a01b039091166004820152306024820152604481018490526064016020604051808303816000875af115801561236c573d6000803e3d6000fd5b505050506040513d601f19601f820116820180604052508101906123909190612f74565b50600e600061239d6126ef565b6001600160a01b03166001600160a01b03168152602001908152602001600020546000036124025760126123cf6126ef565b81546001810183556000928352602090922090910180546001600160a01b0319166001600160a01b039092169190911790555b80600e600061240f6126ef565b6001600160a01b03166001600160a01b03168152602001908152602001600020600082825461243e9190613017565b925050819055506001600760008282546124589190613017565b909155505050565b600c8181548110610ac557600080fd5b6004546001600160a01b03166124846126ef565b6001600160a01b0316146124aa5760405162461bcd60e51b8152600401610b6e90612f1c565b6001600160a01b03166000818152600f60205260408120805460ff191660019081179091556011805491820181559091527f31ecc21a745e3968a04e9570e4425bc18fa8019c68028196b546d1669c200c680180546001600160a01b0319169091179055565b6004546000906001600160a01b03166125276126ef565b6001600160a01b03161461254d5760405162461bcd60e51b8152600401610b6e90612f1c565b42446125576126ef565b6040805160208101949094528301919091526bffffffffffffffffffffffff19606091821b16908201526074016040516020818303038152906040528051906020012060001c905090565b60606011805480602002602001604051908101604052809291908181526020018280548015611739576020028201919060005260206000209081546001600160a01b0316815260019091019060200180831161171b575050505050905090565b6004546001600160a01b03166126166126ef565b6001600160a01b03161461263c5760405162461bcd60e51b8152600401610b6e90612f1c565b6126706126476126ef565b604080516001600160a01b039092166020830152016040516020818303038152906040526129f8565b506126796126ef565b6001600160a01b03167fd802e7c7f1646e3318c03abed1e468bdf913f45331a68dc912a0d645eb646a4260405160405180910390a250565b6126b961290b565b6001600160a01b0381166126e357604051631e4fbdf760e01b815260006004820152602401610b6e565b6126ec81612969565b50565b60006126f9612af9565b905090565b61270a600c6000612b94565b60005b6012548110156126ec576000600e60006012848154811061273057612730612f5e565b60009182526020808320909101546001600160a01b0316835282019290925260400190205460055490915081106127f45761279f6012838154811061277757612777612f5e565b60009182526020808320909101546001600160a01b03168252600f9052604090205460ff1690565b6127f457600c601283815481106127b8576127b8612f5e565b60009182526020808320909101548354600181018555938352912090910180546001600160a01b0319166001600160a01b039092169190911790555b5060010161270d565b600c5481106128445760405162461bcd60e51b8152602060048201526013602482015272496e646578206f7574206f6620626f756e647360681b6044820152606401610b6e565b600c5461285390600190612fa7565b8110156128d557600c805461286a90600190612fa7565b8154811061287a5761287a612f5e565b600091825260209091200154600c80546001600160a01b0390921691839081106128a6576128a6612f5e565b9060005260206000200160006101000a8154816001600160a01b0302191690836001600160a01b031602179055505b600c8054806128e6576128e6612fc0565b600082815260209020810160001990810180546001600160a01b031916905501905550565b6129136126ef565b6001600160a01b031661292e6002546001600160a01b031690565b6001600160a01b031614610bc0576129446126ef565b60405163118cdaa760e01b81526001600160a01b039091166004820152602401610b6e565b600280546001600160a01b038381166001600160a01b0319831681179093556040519116919082907f8be0079c531659141344cd1fd0a4f28419497f9722a3daafe3b4186f6b6457e090600090a35050565b600b8390556040518381527fa2353d33775668d31add0688b8ed09ca3a91dc8129126fcdbcbda3a887db60db9060200160405180910390a1505050565b6000805460018082018084558380529192909183908110612a1b57612a1b612f5e565b90600052602060002090602091828204019190066101000a81548160ff02191690831515021790555060008183604051602001612a5992919061316c565b60405160208183030381529060405290506000612a74612b3d565b905060008183604051602001612a8b92919061316c565b60408051601f198184030181528282528051602080830191909120600089815260019092529290208290559250907fd91fc3685b930310b008ec37d2334870cab88a023ed8cc628a2e2ccd4e55d20290612ae8908590879061316c565b60405180910390a150505050919050565b60007f00000000000000000000000000000000000000000000000000000000000000006001600160a01b03163303612b38575060131936013560601c90565b503390565b600080612b4e6364e6212742612fa7565b90506000612b5d600383613041565b612b68906001613017565b905046600114612b8257612b7d816001613017565b612b8d565b612b8d816004613017565b9250505090565b50805460008255906000526020600020908101906126ec91905b80821115612bc25760008155600101612bae565b5090565b600060208284031215612bd857600080fd5b5035919050565b80356001600160a01b0381168114612bf657600080fd5b919050565b600060208284031215612c0d57600080fd5b612c1682612bdf565b9392505050565b60008060408385031215612c3057600080fd5b612c3983612bdf565b946020939093013593505050565b80151581146126ec57600080fd5b60008060408385031215612c6857600080fd5b612c7183612bdf565b91506020830135612c8181612c47565b809150509250929050565b6020808252825182820181905260009190848201906040850190845b81811015612ccd5783516001600160a01b031683529284019291840191600101612ca8565b50909695505050505050565b600060208284031215612ceb57600080fd5b813560058110612c1657600080fd5b634e487b7160e01b600052602160045260246000fd5b6020810160058310612d3257634e487b7160e01b600052602160045260246000fd5b91905290565b60008060408385031215612d4b57600080fd5b50508035926020909101359150565b600080600060408486031215612d6f57600080fd5b83359250602084013567ffffffffffffffff80821115612d8e57600080fd5b818601915086601f830112612da257600080fd5b813581811115612db157600080fd5b876020828501011115612dc357600080fd5b6020830194508093505050509250925092565b634e487b7160e01b600052604160045260246000fd5b604051601f8201601f1916810167ffffffffffffffff81118282101715612e1557612e15612dd6565b604052919050565b600067ffffffffffffffff821115612e3757612e37612dd6565b50601f01601f191660200190565b600082601f830112612e5657600080fd5b8135612e69612e6482612e1d565b612dec565b818152846020838601011115612e7e57600080fd5b816020850160208301376000918101602001919091529392505050565b600060208284031215612ead57600080fd5b813567ffffffffffffffff811115612ec457600080fd5b612ed084828501612e45565b949350505050565b60208082526024908201527f4f6e6c79206f70657261746f722063616e2063616c6c20746869732066756e636040820152633a34b7b760e11b606082015260800190565b60208082526022908201527f4f6e6c792073656c6c65722063616e2063616c6c20746869732066756e63746960408201526137b760f11b606082015260800190565b634e487b7160e01b600052603260045260246000fd5b600060208284031215612f8657600080fd5b8151612c1681612c47565b634e487b7160e01b600052601160045260246000fd5b81810381811115612fba57612fba612f91565b92915050565b634e487b7160e01b600052603160045260246000fd5b600081612fe557612fe5612f91565b506000190190565b634e487b7160e01b600052601260045260246000fd5b60008261301257613012612fed565b500690565b80820180821115612fba57612fba612f91565b8082028115828204841417612fba57612fba612f91565b60008261305057613050612fed565b500490565b6000806040838503121561306857600080fd5b82359150602083013567ffffffffffffffff81111561308657600080fd5b61309285828601612e45565b9150509250929050565b60005b838110156130b757818101518382015260200161309f565b50506000910152565b600080604083850312156130d357600080fd5b82519150602083015167ffffffffffffffff8111156130f157600080fd5b8301601f8101851361310257600080fd5b8051613110612e6482612e1d565b81815286602083850101111561312557600080fd5b61313682602083016020860161309c565b8093505050509250929050565b8183823760009101908152919050565b60006020828403121561316557600080fd5b5051919050565b828152604060208201526000825180604084015261319181606085016020870161309c565b601f01601f191691909101606001939250505056fea26469706673582212206cf360d31c9b0939ec6d6795b33f0e064ca5251d6d21c0aff9f58d5e8b6e968d64736f6c63430008170033","linkReferences":{}},"methodIdentifiers":{"buyerWithdraw()":"7cc947d0","changeLotteryState(uint8)":"683e93e1","currentPrice()":"9d1b464a","deposit(uint256)":"b6b55f25","deposits(address)":"fc7e286d","eligibleParticipants(uint256)":"b7a62e24","endLottery()":"1593a8c7","finishAt()":"67d3b488","fulfillRandomness(uint256,bytes)":"b3f6b99a","getDepositedAmount(address)":"e9081ec7","getParticipants()":"5aa68ac0","getRandomNumber()":"dbdff2c1","getWinners()":"df15c37e","hasMinted(address)":"38e21cce","increasePriceStep()":"96efac7b","initialPrice()":"1d0806ae","isParticipantEligible(address)":"8a6723e6","isTrustedForwarder(address)":"572b6c05","isWinner(address)":"9d9ca28d","lotteryState()":"6939864b","lotteryV2Addr()":"7de13382","mintMyNFT()":"26170480","multisigWalletAddress()":"a61fb2ba","nftContractAddr()":"2c23ec8e","numberOfTickets()":"45745c10","operatorAddr()":"f3f18c37","operators(address)":"13e7c9d8","owner()":"8da5cb5b","prevRoundDeposits()":"b680e44b","prevRoundTicketsAmount()":"224f91bd","randomNumber()":"ccbac9f5","renounceOwnership()":"715018a6","requestPending(uint256)":"75ce7fff","requestRandomness(bytes)":"e6dee7ed","requestedHash(uint256)":"c4f8f27b","selectWinners()":"1a0de74c","seller()":"08551a53","sellerWithdraw()":"66af746b","setCurrentPrice(uint256)":"18b20071","setFinishAt(uint256)":"0bea6637","setLotteryV2Addr(address)":"3639eb2e","setMultisigWalletAddress(address)":"60d50da3","setNftContractAddr(address)":"3644c27c","setNumberOfTickets(uint256)":"99bd69d6","setOperator(address,bool)":"558a7297","setPriceStep(uint256)":"af94862c","setUsdcContractAddr(address)":"94d898de","setWinner(address)":"d9fca769","setupNewRound(uint256,uint256)":"a4f03c02","startLottery()":"160344e2","transferDeposit(address,uint256)":"50f3dbec","transferNonWinnerBids(address)":"1630a8df","transferOwnership(address)":"f2fde38b","usdcContractAddr()":"99dbf4b5","winnerAddresses(uint256)":"045f9c97","winners(address)":"6bd5450a"},"id":36}