{"abi":[{"type":"constructor","inputs":[{"name":"_seller","type":"address","internalType":"address"},{"name":"_operatorAddr","type":"address","internalType":"address"}],"stateMutability":"nonpayable"},{"type":"function","name":"buyerWithdraw","inputs":[],"outputs":[],"stateMutability":"nonpayable"},{"type":"function","name":"changeLotteryState","inputs":[{"name":"_newState","type":"uint8","internalType":"enum LotteryV2.LotteryState"}],"outputs":[],"stateMutability":"nonpayable"},{"type":"function","name":"claimNumber","inputs":[{"name":"_participant","type":"address","internalType":"address"}],"outputs":[],"stateMutability":"nonpayable"},{"type":"function","name":"deposit","inputs":[{"name":"amount","type":"uint256","internalType":"uint256"}],"outputs":[],"stateMutability":"nonpayable"},{"type":"function","name":"deposits","inputs":[{"name":"","type":"address","internalType":"address"}],"outputs":[{"name":"","type":"uint256","internalType":"uint256"}],"stateMutability":"view"},{"type":"function","name":"endLottery","inputs":[],"outputs":[],"stateMutability":"nonpayable"},{"type":"function","name":"finishAt","inputs":[],"outputs":[{"name":"","type":"uint256","internalType":"uint256"}],"stateMutability":"view"},{"type":"function","name":"fulfillRandomness","inputs":[{"name":"randomness","type":"uint256","internalType":"uint256"},{"name":"dataWithRound","type":"bytes","internalType":"bytes"}],"outputs":[],"stateMutability":"nonpayable"},{"type":"function","name":"getDepositedAmount","inputs":[{"name":"participant","type":"address","internalType":"address"}],"outputs":[{"name":"","type":"uint256","internalType":"uint256"}],"stateMutability":"view"},{"type":"function","name":"getParticipants","inputs":[],"outputs":[{"name":"","type":"address[]","internalType":"address[]"}],"stateMutability":"view"},{"type":"function","name":"getRandomNumber","inputs":[],"outputs":[{"name":"","type":"uint256","internalType":"uint256"}],"stateMutability":"view"},{"type":"function","name":"getWinners","inputs":[],"outputs":[{"name":"","type":"address[]","internalType":"address[]"}],"stateMutability":"view"},{"type":"function","name":"hasMinted","inputs":[{"name":"","type":"address","internalType":"address"}],"outputs":[{"name":"","type":"bool","internalType":"bool"}],"stateMutability":"view"},{"type":"function","name":"isClaimable","inputs":[{"name":"_participant","type":"address","internalType":"address"}],"outputs":[{"name":"","type":"bool","internalType":"bool"}],"stateMutability":"view"},{"type":"function","name":"isTrustedForwarder","inputs":[{"name":"forwarder","type":"address","internalType":"address"}],"outputs":[{"name":"","type":"bool","internalType":"bool"}],"stateMutability":"view"},{"type":"function","name":"isWinner","inputs":[{"name":"_participant","type":"address","internalType":"address"}],"outputs":[{"name":"","type":"bool","internalType":"bool"}],"stateMutability":"view"},{"type":"function","name":"lotteryState","inputs":[],"outputs":[{"name":"","type":"uint8","internalType":"enum LotteryV2.LotteryState"}],"stateMutability":"view"},{"type":"function","name":"lotteryV1Addr","inputs":[],"outputs":[{"name":"","type":"address","internalType":"address"}],"stateMutability":"view"},{"type":"function","name":"maxMints","inputs":[],"outputs":[{"name":"","type":"uint256","internalType":"uint256"}],"stateMutability":"view"},{"type":"function","name":"minimumDepositAmount","inputs":[],"outputs":[{"name":"","type":"uint256","internalType":"uint256"}],"stateMutability":"view"},{"type":"function","name":"mintCount","inputs":[],"outputs":[{"name":"","type":"uint256","internalType":"uint256"}],"stateMutability":"view"},{"type":"function","name":"mintMyNFT","inputs":[],"outputs":[],"stateMutability":"nonpayable"},{"type":"function","name":"multisigWalletAddress","inputs":[],"outputs":[{"name":"","type":"address","internalType":"address"}],"stateMutability":"view"},{"type":"function","name":"nftContractAddr","inputs":[],"outputs":[{"name":"","type":"address","internalType":"address"}],"stateMutability":"view"},{"type":"function","name":"numberOfTickets","inputs":[],"outputs":[{"name":"","type":"uint256","internalType":"uint256"}],"stateMutability":"view"},{"type":"function","name":"operatorAddr","inputs":[],"outputs":[{"name":"","type":"address","internalType":"address"}],"stateMutability":"view"},{"type":"function","name":"owner","inputs":[],"outputs":[{"name":"","type":"address","internalType":"address"}],"stateMutability":"view"},{"type":"function","name":"randomNumber","inputs":[],"outputs":[{"name":"","type":"uint256","internalType":"uint256"}],"stateMutability":"view"},{"type":"function","name":"renounceOwnership","inputs":[],"outputs":[],"stateMutability":"nonpayable"},{"type":"function","name":"requestPending","inputs":[{"name":"","type":"uint256","internalType":"uint256"}],"outputs":[{"name":"","type":"bool","internalType":"bool"}],"stateMutability":"view"},{"type":"function","name":"requestRandomness","inputs":[{"name":"","type":"bytes","internalType":"bytes"}],"outputs":[],"stateMutability":"nonpayable"},{"type":"function","name":"requestedHash","inputs":[{"name":"","type":"uint256","internalType":"uint256"}],"outputs":[{"name":"","type":"bytes32","internalType":"bytes32"}],"stateMutability":"view"},{"type":"function","name":"roll","inputs":[],"outputs":[],"stateMutability":"nonpayable"},{"type":"function","name":"rollPrice","inputs":[],"outputs":[{"name":"","type":"uint256","internalType":"uint256"}],"stateMutability":"view"},{"type":"function","name":"rollTolerance","inputs":[],"outputs":[{"name":"","type":"uint256","internalType":"uint256"}],"stateMutability":"view"},{"type":"function","name":"rolledNumbers","inputs":[{"name":"","type":"address","internalType":"address"}],"outputs":[{"name":"","type":"uint256","internalType":"uint256"}],"stateMutability":"view"},{"type":"function","name":"seller","inputs":[],"outputs":[{"name":"","type":"address","internalType":"address"}],"stateMutability":"view"},{"type":"function","name":"sellerWithdraw","inputs":[],"outputs":[],"stateMutability":"nonpayable"},{"type":"function","name":"setFinishAt","inputs":[{"name":"_finishAt","type":"uint256","internalType":"uint256"}],"outputs":[],"stateMutability":"nonpayable"},{"type":"function","name":"setLotteryV1Addr","inputs":[{"name":"_lotteryV1Addr","type":"address","internalType":"address"}],"outputs":[],"stateMutability":"nonpayable"},{"type":"function","name":"setMinimumDepositAmount","inputs":[{"name":"_amount","type":"uint256","internalType":"uint256"}],"outputs":[],"stateMutability":"nonpayable"},{"type":"function","name":"setMultisigWalletAddress","inputs":[{"name":"_multisigWalletAddress","type":"address","internalType":"address"}],"outputs":[],"stateMutability":"nonpayable"},{"type":"function","name":"setNftContractAddr","inputs":[{"name":"_nftContractAddr","type":"address","internalType":"address"}],"outputs":[],"stateMutability":"nonpayable"},{"type":"function","name":"setNumberOfTickets","inputs":[{"name":"_numberOfTickets","type":"uint256","internalType":"uint256"}],"outputs":[],"stateMutability":"nonpayable"},{"type":"function","name":"setRandomNumber","inputs":[],"outputs":[],"stateMutability":"nonpayable"},{"type":"function","name":"setRollPrice","inputs":[{"name":"_rollPrice","type":"uint256","internalType":"uint256"}],"outputs":[],"stateMutability":"nonpayable"},{"type":"function","name":"setRollTolerance","inputs":[{"name":"_tolerance","type":"uint256","internalType":"uint256"}],"outputs":[],"stateMutability":"nonpayable"},{"type":"function","name":"setUsdcContractAddr","inputs":[{"name":"_usdcContractAddr","type":"address","internalType":"address"}],"outputs":[],"stateMutability":"nonpayable"},{"type":"function","name":"setWinner","inputs":[{"name":"_winner","type":"address","internalType":"address"}],"outputs":[],"stateMutability":"nonpayable"},{"type":"function","name":"startLottery","inputs":[],"outputs":[],"stateMutability":"nonpayable"},{"type":"function","name":"transferDeposit","inputs":[{"name":"_participant","type":"address","internalType":"address"},{"name":"_amount","type":"uint256","internalType":"uint256"}],"outputs":[],"stateMutability":"nonpayable"},{"type":"function","name":"transferNonWinnerDeposits","inputs":[{"name":"auctionV1addr","type":"address","internalType":"address"}],"outputs":[],"stateMutability":"nonpayable"},{"type":"function","name":"transferOwnership","inputs":[{"name":"newOwner","type":"address","internalType":"address"}],"outputs":[],"stateMutability":"nonpayable"},{"type":"function","name":"usdcContractAddr","inputs":[],"outputs":[{"name":"","type":"address","internalType":"address"}],"stateMutability":"view"},{"type":"function","name":"winnerAddresses","inputs":[{"name":"","type":"uint256","internalType":"uint256"}],"outputs":[{"name":"","type":"address","internalType":"address"}],"stateMutability":"view"},{"type":"function","name":"winners","inputs":[{"name":"","type":"address","internalType":"address"}],"outputs":[{"name":"","type":"bool","internalType":"bool"}],"stateMutability":"view"},{"type":"event","name":"LotteryEnded","inputs":[],"anonymous":false},{"type":"event","name":"LotteryStarted","inputs":[],"anonymous":false},{"type":"event","name":"OwnershipTransferred","inputs":[{"name":"previousOwner","type":"address","indexed":true,"internalType":"address"},{"name":"newOwner","type":"address","indexed":true,"internalType":"address"}],"anonymous":false},{"type":"event","name":"RandomFullfiled","inputs":[{"name":"requester","type":"address","indexed":true,"internalType":"address"},{"name":"number","type":"uint256","indexed":false,"internalType":"uint256"}],"anonymous":false},{"type":"event","name":"RandomRequested","inputs":[{"name":"requester","type":"address","indexed":true,"internalType":"address"}],"anonymous":false},{"type":"event","name":"RequestedRandomness","inputs":[{"name":"round","type":"uint256","indexed":false,"internalType":"uint256"},{"name":"data","type":"bytes","indexed":false,"internalType":"bytes"}],"anonymous":false},{"type":"event","name":"WinnerSelected","inputs":[{"name":"winner","type":"address","indexed":true,"internalType":"address"}],"anonymous":false},{"type":"error","name":"OwnableInvalidOwner","inputs":[{"name":"owner","type":"address","internalType":"address"}]},{"type":"error","name":"OwnableUnauthorizedAccount","inputs":[{"name":"account","type":"address","internalType":"address"}]}],"bytecode":{"object":"0x60c060405260006015553480156200001657600080fd5b5060405162002c3138038062002c3183398101604081905262000039916200016b565b73d8253782c45a12053594b9deb72d8e8ab2fca54c62000058620000c3565b6001600160a01b0381166200008757604051631e4fbdf760e01b81526000600482015260240160405180910390fd5b6200009281620000d4565b506001600160a01b03908116608052600480546001600160a01b031916938216939093179092551660a052620001a3565b6000620000cf62000126565b905090565b600280546001600160a01b038381166001600160a01b0319831681179093556040519116919082907f8be0079c531659141344cd1fd0a4f28419497f9722a3daafe3b4186f6b6457e090600090a35050565b6080516000906001600160a01b0316330362000149575060131936013560601c90565b503390565b80516001600160a01b03811681146200016657600080fd5b919050565b600080604083850312156200017f57600080fd5b6200018a836200014e565b91506200019a602084016200014e565b90509250929050565b60805160a051612a5a620001d76000396000818161079401526116350152600081816104d501526124690152612a5a6000f3fe608060405234801561001057600080fd5b50600436106103785760003560e01c80637cc947d0116101d3578063c4f8f27b11610104578063e63c4609116100a2578063f2fde38b1161007c578063f2fde38b1461077c578063f3f18c371461078f578063f7098e58146107b6578063fc7e286d146107c957600080fd5b8063e63c46091461072d578063e6dee7ed14610740578063e9081ec71461075357600080fd5b8063cf3af3a1116100de578063cf3af3a114610701578063d9fca7691461070a578063dbdff2c11461071d578063df15c37e1461072557600080fd5b8063c4f8f27b146106d0578063ccbac9f5146106f0578063cd5e3c5d146106f957600080fd5b80639d9ca28d11610171578063b3f6b99a1161014b578063b3f6b99a14610698578063b6b55f25146106ab578063b6b6f0c3146106be578063bf1dda15146106c757600080fd5b80639d9ca28d14610646578063a61fb2ba14610672578063aab483d61461068557600080fd5b80639659867e116101ad5780639659867e1461060f57806397fedfcb1461061857806399bd69d61461062057806399dbf4b51461063357600080fd5b80637cc947d0146105e35780638da5cb5b146105eb57806394d898de146105fc57600080fd5b806350f3dbec116102ad57806367d3b4881161024b5780636bd5450a116102255780636bd5450a14610585578063715018a6146105a857806375ce7fff146105b05780637b15452d146105c357600080fd5b806367d3b48814610548578063683e93e1146105515780636939864b1461056457600080fd5b80635aa68ac0116102875780635aa68ac0146105055780635f86e4fe1461051a57806360d50da31461052d57806366af746b1461054057600080fd5b806350f3dbec1461049f5780635687156e146104b2578063572b6c05146104c557600080fd5b8063261704801161031a5780633644c27c116102f45780633644c27c1461044d57806338e21cce146104605780633dc204e71461048357806345745c101461049657600080fd5b8063261704801461040f578063292fec04146104175780632c23ec8e1461043a57600080fd5b80630bea6637116103565780630bea6637146103d757806312f0800b146103ec5780631593a8c7146103ff578063160344e21461040757600080fd5b8063045f9c971461037d578063080c279a146103ad57806308551a53146103c4575b600080fd5b61039061038b366004612500565b6107e9565b6040516001600160a01b0390911681526020015b60405180910390f35b6103b660055481565b6040519081526020016103a4565b600454610390906001600160a01b031681565b6103ea6103e5366004612500565b610813565b005b6103ea6103fa366004612500565b61085b565b6103ea61089a565b6103ea6108e0565b6103ea610991565b61042a61042536600461252e565b610bc6565b60405190151581526020016103a4565b600f54610390906001600160a01b031681565b6103ea61045b36600461252e565b610c61565b61042a61046e36600461252e565b600a6020526000908152604090205460ff1681565b6103ea61049136600461252e565b610c8b565b6103b660065481565b6103ea6104ad366004612552565b610d70565b6103ea6104c0366004612500565b610ec2565b61042a6104d336600461252e565b7f00000000000000000000000000000000000000000000000000000000000000006001600160a01b0390811691161490565b61050d610f01565b6040516103a4919061257e565b601154610390906001600160a01b031681565b6103ea61053b36600461252e565b610f63565b6103ea610f8d565b6103b660125481565b6103ea61055f3660046125cb565b6111c7565b60025461057890600160a01b900460ff1681565b6040516103a49190612602565b61042a61059336600461252e565b600c6020526000908152604090205460ff1681565b6103ea61122d565b61042a6105be366004612500565b61123f565b6103b66105d136600461252e565b60136020526000908152604090205481565b6103ea611273565b6002546001600160a01b0316610390565b6103ea61060a36600461252e565b61147d565b6103b660085481565b6103ea6114a7565b6103ea61062e366004612500565b61153e565b601054610390906001600160a01b031681565b61042a61065436600461252e565b6001600160a01b03166000908152600c602052604090205460ff1690565b600354610390906001600160a01b031681565b6103ea610693366004612500565b6115eb565b6103ea6106a636600461262a565b61162a565b6103ea6106b9366004612500565b61181c565b6103b660075481565b6103b660155481565b6103b66106de366004612500565b60016020526000908152604090205481565b6103b660095481565b6103ea611c39565b6103b660145481565b6103ea61071836600461252e565b611df6565b6103b6611e96565b61050d611eed565b6103ea61073b36600461252e565b611f4d565b6103ea61074e36600461276b565b612165565b6103b661076136600461252e565b6001600160a01b03166000908152600b602052604090205490565b6103ea61078a36600461252e565b612170565b6103907f000000000000000000000000000000000000000000000000000000000000000081565b6103ea6107c436600461252e565b6121ab565b6103b66107d736600461252e565b600b6020526000908152604090205481565b600d81815481106107f957600080fd5b6000918252602090912001546001600160a01b0316905081565b6004546001600160a01b0316610827612207565b6001600160a01b0316146108565760405162461bcd60e51b815260040161084d906127a8565b60405180910390fd5b601255565b6004546001600160a01b031661086f612207565b6001600160a01b0316146108955760405162461bcd60e51b815260040161084d906127a8565b601555565b6004546001600160a01b03166108ae612207565b6001600160a01b0316146108d45760405162461bcd60e51b815260040161084d906127a8565b6108de60026111c7565b565b6004546001600160a01b03166108f4612207565b6001600160a01b03161461091a5760405162461bcd60e51b815260040161084d906127a8565b600060028054600160a01b900460ff169081111561093a5761093a6125ec565b146109875760405162461bcd60e51b815260206004820152601a60248201527f4c6f747465727920697320696e20616374697665207374617465000000000000604482015260640161084d565b6108de60016111c7565b600a600061099d612207565b6001600160a01b0316815260208101919091526040016000205460ff16156109fc5760405162461bcd60e51b815260206004820152601260248201527113919508185b1c9958591e481b5a5b9d195960721b604482015260640161084d565b6002808054600160a01b900460ff1690811115610a1b57610a1b6125ec565b14610a685760405162461bcd60e51b815260206004820152601860248201527f4c6f7474657279206973206e6f7420656e646564207965740000000000000000604482015260640161084d565b610a73610654612207565b610ab85760405162461bcd60e51b815260206004820152601660248201527521b0b63632b91034b9903737ba1030903bb4b73732b960511b604482015260640161084d565b60075460085410610b0b5760405162461bcd60e51b815260206004820152601760248201527f4e6f206d6f7265206d696e747320617661696c61626c65000000000000000000604482015260640161084d565b6001600a6000610b19612207565b6001600160a01b0390811682526020820192909252604001600020805460ff191692151592909217909155600f5416636b8f60f6610b55612207565b6040516001600160e01b031960e084901b1681526001600160a01b039091166004820152602401600060405180830381600087803b158015610b9657600080fd5b505af1158015610baa573d6000803e3d6000fd5b505060088054925090506000610bbf83612800565b9190505550565b6005546001600160a01b0382166000908152600b6020526040812054909111801590610c1957506001600160a01b038216600090815260136020526040902054601554600954610c169190612819565b10155b8015610c4c57506001600160a01b038216600090815260136020526040902054601554600954610c499190612832565b11155b15610c5957506001919050565b506000919050565b610c69612216565b600f80546001600160a01b0319166001600160a01b0392909216919091179055565b610c9481610bc6565b15610d25576001600160a01b0381166000818152600c6020526040808220805460ff19166001908117909155600d8054918201815583527fd7b6990105719101dabeb77144f2a3385c8033acd3af97e9423a695e81ad1eb50180546001600160a01b03191684179055517f1d4c260f1824cd028e6c9e6e31c3a0b94f2513e7a641113ec759d382f9bdd5a19190a250565b60405162461bcd60e51b815260206004820152601c60248201527f5061727469636970616e74206973206e6f7420636c61696d61626c6500000000604482015260640161084d565b50565b610d78612207565b6011546001600160a01b03908116911614610de55760405162461bcd60e51b815260206004820152602760248201527f4f6e6c792077686974656c6973746564206d61792063616c6c207468697320666044820152663ab731ba34b7b760c91b606482015260840161084d565b6001600160a01b0382166000908152600b60205260408120549003610e5057600e80546001810182556000919091527fbb7b4a454dc3493923482f07822329ed19e8244eff582cc204f8554c3620c3fd0180546001600160a01b0319166001600160a01b0384161790555b6001600160a01b0382166000908152600b602052604081208054839290610e78908490612819565b90915550506001600160a01b0382166000908152601360205260408120549003610ebe57610ea4611e96565b6001600160a01b0383166000908152601360205260409020555b5050565b6004546001600160a01b0316610ed6612207565b6001600160a01b031614610efc5760405162461bcd60e51b815260040161084d906127a8565b601455565b6060600e805480602002602001604051908101604052809291908181526020018280548015610f5957602002820191906000526020600020905b81546001600160a01b03168152600190910190602001808311610f3b575b5050505050905090565b610f6b612216565b600380546001600160a01b0319166001600160a01b0392909216919091179055565b6004546001600160a01b0316610fa1612207565b6001600160a01b031614610fc75760405162461bcd60e51b815260040161084d906127a8565b6002808054600160a01b900460ff1690811115610fe657610fe66125ec565b146110275760405162461bcd60e51b8152602060048201526011602482015270131bdd1d195c9e481b9bdd08195b991959607a1b604482015260640161084d565b6000805b600d548110156110a0576000600d828154811061104a5761104a612845565b60009182526020808320909101546001600160a01b0316808352600b90915260409091205490915061107c9084612819565b6001600160a01b039091166000908152600b6020526040812055915060010161102b565b50600060646110b083600561285b565b6110ba9190612872565b905060006110c88284612832565b60105460035460405163a9059cbb60e01b81526001600160a01b03918216600482015260248101869052929350169063a9059cbb906044016020604051808303816000875af115801561111f573d6000803e3d6000fd5b505050506040513d601f19601f820116820180604052508101906111439190612894565b506010546004805460405163a9059cbb60e01b81526001600160a01b0391821692810192909252602482018490529091169063a9059cbb906044016020604051808303816000875af115801561119d573d6000803e3d6000fd5b505050506040513d601f19601f820116820180604052508101906111c19190612894565b50505050565b6004546001600160a01b03166111db612207565b6001600160a01b0316146112015760405162461bcd60e51b815260040161084d906127a8565b6002805482919060ff60a01b1916600160a01b8383811115611225576112256125ec565b021790555050565b611235612216565b6108de6000612274565b6000818154811061124f57600080fd5b9060005260206000209060209182820401919006915054906101000a900460ff1681565b600160028054600160a01b900460ff1690811115611293576112936125ec565b036112e05760405162461bcd60e51b815260206004820152601b60248201527f4c6f74746572792069732063757272656e746c79206163746976650000000000604482015260640161084d565b600c60006112ec612207565b6001600160a01b0316815260208101919091526040016000205460ff16156113565760405162461bcd60e51b815260206004820152601760248201527f57696e6e6572732063616e6e6f74207769746864726177000000000000000000604482015260640161084d565b6000600b6000611364612207565b6001600160a01b03166001600160a01b03168152602001908152602001600020549050600081116113ce5760405162461bcd60e51b81526020600482015260146024820152734e6f2066756e647320746f20776974686472617760601b604482015260640161084d565b6000600b60006113dc612207565b6001600160a01b0390811682526020820192909252604001600020919091556010541663a9059cbb61140c612207565b6040516001600160e01b031960e084901b1681526001600160a01b039091166004820152602481018490526044016020604051808303816000875af1158015611459573d6000803e3d6000fd5b505050506040513d601f19601f82011682018060405250810190610ebe9190612894565b611485612216565b601080546001600160a01b0319166001600160a01b0392909216919091179055565b6004546001600160a01b03166114bb612207565b6001600160a01b0316146114e15760405162461bcd60e51b815260040161084d906127a8565b600954156115315760405162461bcd60e51b815260206004820152601960248201527f52616e646f6d206e756d62657220616c72656164792073657400000000000000604482015260640161084d565b611539611e96565b600955565b6004546001600160a01b0316611552612207565b6001600160a01b0316146115785760405162461bcd60e51b815260040161084d906127a8565b600081116115dc5760405162461bcd60e51b815260206004820152602b60248201527f4e756d626572206f66207469636b657473206d7573742062652067726561746560448201526a72207468616e207a65726f60a81b606482015260840161084d565b60068190556007556000600855565b6004546001600160a01b03166115ff612207565b6001600160a01b0316146116255760405162461bcd60e51b815260040161084d906127a8565b600555565b336001600160a01b037f000000000000000000000000000000000000000000000000000000000000000016146116925760405162461bcd60e51b815260206004820152600d60248201526c37b7363c9037b832b930ba37b960991b604482015260640161084d565b60006116a0828401846128b6565b915050600080828060200190518101906116ba9190612921565b91509150600085856040516116d09291906129a4565b604080519182900390912060008581526001602052918220548254919350831491908590811061170257611702612845565b90600052602060002090602091828204019190069054906101000a900460ff1661176e5760405162461bcd60e51b815260206004820152601c60248201527f726571756573742066756c66696c6c6564206f72206d697373696e6700000000604482015260640161084d565b80156118125760408051602081018a905230918101919091524660608201526080810185905260a0016040516020818303038152906040528051906020012060001c97506117bd8885856122c6565b60008085815481106117d1576117d1612845565b90600052602060002090602091828204019190066101000a81548160ff02191690831515021790555060016000858152602001908152602001600020600090555b5050505050505050565b600160028054600160a01b900460ff169081111561183c5761183c6125ec565b036118895760405162461bcd60e51b815260206004820152601b60248201527f4c6f74746572792069732063757272656e746c79206163746976650000000000604482015260640161084d565b42601254116118e45760405162461bcd60e51b815260206004820152602160248201527f4465706f7369747320617265206e6f7420706f737369626c6520616e796d6f726044820152606560f81b606482015260840161084d565b6010546001600160a01b031661193c5760405162461bcd60e51b815260206004820152601d60248201527f5553444320636f6e74726163742061646472657373206e6f7420736574000000604482015260640161084d565b6000811161197c5760405162461bcd60e51b815260206004820152600d60248201526c139bc8199d5b991cc81cd95b9d609a1b604482015260640161084d565b60105481906001600160a01b031663dd62ed3e611997612207565b6040516001600160e01b031960e084901b1681526001600160a01b039091166004820152306024820152604401602060405180830381865afa1580156119e1573d6000803e3d6000fd5b505050506040513d601f19601f82011682018060405250810190611a0591906129b4565b1015611a4c5760405162461bcd60e51b8152602060048201526016602482015275496e73756666696369656e7420616c6c6f77616e636560501b604482015260640161084d565b6010546001600160a01b03166323b872dd611a65612207565b6040516001600160e01b031960e084901b1681526001600160a01b039091166004820152306024820152604481018490526064016020604051808303816000875af1158015611ab8573d6000803e3d6000fd5b505050506040513d601f19601f82011682018060405250810190611adc9190612894565b50600b6000611ae9612207565b6001600160a01b03166001600160a01b0316815260200190815260200160002054600003611b4e57600e611b1b612207565b81546001810183556000928352602090922090910180546001600160a01b0319166001600160a01b039092169190911790555b80600b6000611b5b612207565b6001600160a01b03166001600160a01b031681526020019081526020016000206000828254611b8a9190612819565b90915550601390506000611b9c612207565b6001600160a01b03166001600160a01b0316815260200190815260200160002054600003610d6d57611bf8611bcf612207565b604080516001600160a01b03909216602083015201604051602081830303815290604052612364565b50611c01612207565b6001600160a01b03167fd802e7c7f1646e3318c03abed1e468bdf913f45331a68dc912a0d645eb646a4260405160405180910390a250565b4260125411611c8a5760405162461bcd60e51b815260206004820152601f60248201527f526f6c6c696e67206973206e6f7420706f737369626c6520616e796d6f726500604482015260640161084d565b600060145411611cd05760405162461bcd60e51b8152602060048201526011602482015270139bc81c9bdb1b081c1c9a58d9481cd95d607a1b604482015260640161084d565b600554601454611ce09190612819565b600b6000611cec612207565b6001600160a01b03166001600160a01b03168152602001908152602001600020541015611d505760405162461bcd60e51b8152602060048201526012602482015271496e73756666696369656e742066756e647360701b604482015260640161084d565b601454600b6000611d5f612207565b6001600160a01b03166001600160a01b031681526020019081526020016000206000828254611d8e9190612832565b90915550506014546004546001600160a01b03166000908152600b602052604081208054909190611dc0908490612819565b90915550611dce9050611e96565b60136000611dda612207565b6001600160a01b03168152602081019190915260400160002055565b6004546001600160a01b0316611e0a612207565b6001600160a01b031614611e305760405162461bcd60e51b815260040161084d906127a8565b6001600160a01b03166000818152600c60205260408120805460ff19166001908117909155600d805491820181559091527fd7b6990105719101dabeb77144f2a3385c8033acd3af97e9423a695e81ad1eb50180546001600160a01b0319169091179055565b60004244611ea2612207565b6040805160208101949094528301919091526bffffffffffffffffffffffff19606091821b16908201526074016040516020818303038152906040528051906020012060001c905090565b6060600d805480602002602001604051908101604052809291908181526020018280548015610f59576020028201919060005260206000209081546001600160a01b03168152600190910190602001808311610f3b575050505050905090565b6004546001600160a01b0316611f61612207565b6001600160a01b031614611f875760405162461bcd60e51b815260040161084d906127a8565b60005b600e54811015610ebe57611fd2600e8281548110611faa57611faa612845565b60009182526020808320909101546001600160a01b03168252600c9052604090205460ff1690565b61215d576000600b6000600e8481548110611fef57611fef612845565b60009182526020808320909101546001600160a01b03168352820192909252604001812054600e8054919350600b918391908690811061203157612031612845565b6000918252602080832091909101546001600160a01b039081168452908301939093526040918201902092909255601054915163a9059cbb60e01b815285821660048201526024810184905291169063a9059cbb906044016020604051808303816000875af11580156120a8573d6000803e3d6000fd5b505050506040513d601f19601f820116820180604052508101906120cc9190612894565b50826001600160a01b03166350f3dbec600e84815481106120ef576120ef612845565b60009182526020909120015460405160e083901b6001600160e01b03191681526001600160a01b03909116600482015260248101849052604401600060405180830381600087803b15801561214357600080fd5b505af1158015612157573d6000803e3d6000fd5b50505050505b600101611f8a565b611bf8611bcf612207565b612178612216565b6001600160a01b0381166121a257604051631e4fbdf760e01b81526000600482015260240161084d565b610d6d81612274565b6004546001600160a01b03166121bf612207565b6001600160a01b0316146121e55760405162461bcd60e51b815260040161084d906127a8565b601180546001600160a01b0319166001600160a01b0392909216919091179055565b6000612211612465565b905090565b61221e612207565b6001600160a01b03166122396002546001600160a01b031690565b6001600160a01b0316146108de5761224f612207565b60405163118cdaa760e01b81526001600160a01b03909116600482015260240161084d565b600280546001600160a01b038381166001600160a01b0319831681179093556040519116919082907f8be0079c531659141344cd1fd0a4f28419497f9722a3daafe3b4186f6b6457e090600090a35050565b6000818060200190518101906122dc91906129cd565b6004549091506001600160a01b0390811690821603612315576001600160a01b038116600090815260136020526040902084905561231b565b60098490555b806001600160a01b03167fdc88f22db6d7f267e15a797eb52635df440f5f8b47a89ac56fa5b212e4e97e2d8560405161235691815260200190565b60405180910390a250505050565b600080546001808201808455838052919290918390811061238757612387612845565b90600052602060002090602091828204019190066101000a81548160ff021916908315150217905550600081836040516020016123c59291906129ea565b604051602081830303815290604052905060006123e06124a9565b9050600081836040516020016123f79291906129ea565b60408051601f198184030181528282528051602080830191909120600089815260019092529290208290559250907fd91fc3685b930310b008ec37d2334870cab88a023ed8cc628a2e2ccd4e55d2029061245490859087906129ea565b60405180910390a150505050919050565b60007f00000000000000000000000000000000000000000000000000000000000000006001600160a01b031633036124a4575060131936013560601c90565b503390565b6000806124ba6364e6212742612832565b905060006124c9600383612872565b6124d4906001612819565b9050466001146124ee576124e9816001612819565b6124f9565b6124f9816004612819565b9250505090565b60006020828403121561251257600080fd5b5035919050565b6001600160a01b0381168114610d6d57600080fd5b60006020828403121561254057600080fd5b813561254b81612519565b9392505050565b6000806040838503121561256557600080fd5b823561257081612519565b946020939093013593505050565b6020808252825182820181905260009190848201906040850190845b818110156125bf5783516001600160a01b03168352928401929184019160010161259a565b50909695505050505050565b6000602082840312156125dd57600080fd5b81356003811061254b57600080fd5b634e487b7160e01b600052602160045260246000fd5b602081016003831061262457634e487b7160e01b600052602160045260246000fd5b91905290565b60008060006040848603121561263f57600080fd5b83359250602084013567ffffffffffffffff8082111561265e57600080fd5b818601915086601f83011261267257600080fd5b81358181111561268157600080fd5b87602082850101111561269357600080fd5b6020830194508093505050509250925092565b634e487b7160e01b600052604160045260246000fd5b604051601f8201601f1916810167ffffffffffffffff811182821017156126e5576126e56126a6565b604052919050565b600067ffffffffffffffff821115612707576127076126a6565b50601f01601f191660200190565b600082601f83011261272657600080fd5b8135612739612734826126ed565b6126bc565b81815284602083860101111561274e57600080fd5b816020850160208301376000918101602001919091529392505050565b60006020828403121561277d57600080fd5b813567ffffffffffffffff81111561279457600080fd5b6127a084828501612715565b949350505050565b60208082526022908201527f4f6e6c792073656c6c65722063616e2063616c6c20746869732066756e63746960408201526137b760f11b606082015260800190565b634e487b7160e01b600052601160045260246000fd5b600060018201612812576128126127ea565b5060010190565b8082018082111561282c5761282c6127ea565b92915050565b8181038181111561282c5761282c6127ea565b634e487b7160e01b600052603260045260246000fd5b808202811582820484141761282c5761282c6127ea565b60008261288f57634e487b7160e01b600052601260045260246000fd5b500490565b6000602082840312156128a657600080fd5b8151801515811461254b57600080fd5b600080604083850312156128c957600080fd5b82359150602083013567ffffffffffffffff8111156128e757600080fd5b6128f385828601612715565b9150509250929050565b60005b83811015612918578181015183820152602001612900565b50506000910152565b6000806040838503121561293457600080fd5b82519150602083015167ffffffffffffffff81111561295257600080fd5b8301601f8101851361296357600080fd5b8051612971612734826126ed565b81815286602083850101111561298657600080fd5b6129978260208301602086016128fd565b8093505050509250929050565b8183823760009101908152919050565b6000602082840312156129c657600080fd5b5051919050565b6000602082840312156129df57600080fd5b815161254b81612519565b8281526040602082015260008251806040840152612a0f8160608501602087016128fd565b601f01601f191691909101606001939250505056fea26469706673582212206e593a35c41258290fdcf7d8161e1580ae3cc7ec2f04cc70b48eec5006a09aaa64736f6c63430008170033","linkReferences":{}},"methodIdentifiers":{"buyerWithdraw()":"7cc947d0","changeLotteryState(uint8)":"683e93e1","claimNumber(address)":"3dc204e7","deposit(uint256)":"b6b55f25","deposits(address)":"fc7e286d","endLottery()":"1593a8c7","finishAt()":"67d3b488","fulfillRandomness(uint256,bytes)":"b3f6b99a","getDepositedAmount(address)":"e9081ec7","getParticipants()":"5aa68ac0","getRandomNumber()":"dbdff2c1","getWinners()":"df15c37e","hasMinted(address)":"38e21cce","isClaimable(address)":"292fec04","isTrustedForwarder(address)":"572b6c05","isWinner(address)":"9d9ca28d","lotteryState()":"6939864b","lotteryV1Addr()":"5f86e4fe","maxMints()":"b6b6f0c3","minimumDepositAmount()":"080c279a","mintCount()":"9659867e","mintMyNFT()":"26170480","multisigWalletAddress()":"a61fb2ba","nftContractAddr()":"2c23ec8e","numberOfTickets()":"45745c10","operatorAddr()":"f3f18c37","owner()":"8da5cb5b","randomNumber()":"ccbac9f5","renounceOwnership()":"715018a6","requestPending(uint256)":"75ce7fff","requestRandomness(bytes)":"e6dee7ed","requestedHash(uint256)":"c4f8f27b","roll()":"cd5e3c5d","rollPrice()":"cf3af3a1","rollTolerance()":"bf1dda15","rolledNumbers(address)":"7b15452d","seller()":"08551a53","sellerWithdraw()":"66af746b","setFinishAt(uint256)":"0bea6637","setLotteryV1Addr(address)":"f7098e58","setMinimumDepositAmount(uint256)":"aab483d6","setMultisigWalletAddress(address)":"60d50da3","setNftContractAddr(address)":"3644c27c","setNumberOfTickets(uint256)":"99bd69d6","setRandomNumber()":"97fedfcb","setRollPrice(uint256)":"5687156e","setRollTolerance(uint256)":"12f0800b","setUsdcContractAddr(address)":"94d898de","setWinner(address)":"d9fca769","startLottery()":"160344e2","transferDeposit(address,uint256)":"50f3dbec","transferNonWinnerDeposits(address)":"e63c4609","transferOwnership(address)":"f2fde38b","usdcContractAddr()":"99dbf4b5","winnerAddresses(uint256)":"045f9c97","winners(address)":"6bd5450a"},"id":39}